{
  "address": "0x0fF0088A4927cb22dC49178912A0E1C215928013",
  "abi": [
    {
      "inputs": [
        {
          "internalType": "address",
          "name": "_contractprobe",
          "type": "address"
        }
      ],
      "stateMutability": "nonpayable",
      "type": "constructor"
    },
    {
      "anonymous": false,
      "inputs": [
        {
          "indexed": false,
          "internalType": "address",
          "name": "implementation",
          "type": "address"
        },
        {
          "indexed": false,
          "internalType": "address",
          "name": "template",
          "type": "address"
        },
        {
          "indexed": false,
          "internalType": "address",
          "name": "creator",
          "type": "address"
        }
      ],
      "name": "NewImplementation",
      "type": "event"
    },
    {
      "anonymous": false,
      "inputs": [
        {
          "indexed": false,
          "internalType": "address",
          "name": "template",
          "type": "address"
        },
        {
          "indexed": false,
          "internalType": "address",
          "name": "creator",
          "type": "address"
        }
      ],
      "name": "NewTemplate",
      "type": "event"
    },
    {
      "anonymous": false,
      "inputs": [
        {
          "indexed": true,
          "internalType": "address",
          "name": "previousOwner",
          "type": "address"
        },
        {
          "indexed": true,
          "internalType": "address",
          "name": "newOwner",
          "type": "address"
        }
      ],
      "name": "OwnershipTransferred",
      "type": "event"
    },
    {
      "inputs": [
        {
          "internalType": "address",
          "name": "_implementation",
          "type": "address"
        }
      ],
      "name": "addImplementation",
      "outputs": [],
      "stateMutability": "nonpayable",
      "type": "function"
    },
    {
      "inputs": [
        {
          "internalType": "address",
          "name": "nft",
          "type": "address"
        },
        {
          "internalType": "address",
          "name": "owner",
          "type": "address"
        }
      ],
      "name": "balanceOf",
      "outputs": [
        {
          "components": [
            {
              "internalType": "address",
              "name": "nft",
              "type": "address"
            },
            {
              "internalType": "string",
              "name": "name",
              "type": "string"
            },
            {
              "internalType": "string",
              "name": "symbol",
              "type": "string"
            },
            {
              "internalType": "uint256",
              "name": "balance",
              "type": "uint256"
            },
            {
              "internalType": "address",
              "name": "owner",
              "type": "address"
            }
          ],
          "internalType": "struct NFTsFactory.NftData",
          "name": "nftData",
          "type": "tuple"
        }
      ],
      "stateMutability": "view",
      "type": "function"
    },
    {
      "inputs": [
        {
          "internalType": "address",
          "name": "owner",
          "type": "address"
        }
      ],
      "name": "balancesOf",
      "outputs": [
        {
          "components": [
            {
              "internalType": "address",
              "name": "nft",
              "type": "address"
            },
            {
              "internalType": "string",
              "name": "name",
              "type": "string"
            },
            {
              "internalType": "string",
              "name": "symbol",
              "type": "string"
            },
            {
              "internalType": "uint256",
              "name": "balance",
              "type": "uint256"
            },
            {
              "internalType": "address",
              "name": "owner",
              "type": "address"
            }
          ],
          "internalType": "struct NFTsFactory.NftData[]",
          "name": "nftData",
          "type": "tuple[]"
        }
      ],
      "stateMutability": "view",
      "type": "function"
    },
    {
      "inputs": [],
      "name": "clone",
      "outputs": [
        {
          "internalType": "address",
          "name": "_clone",
          "type": "address"
        }
      ],
      "stateMutability": "nonpayable",
      "type": "function"
    },
    {
      "inputs": [
        {
          "internalType": "uint256",
          "name": "",
          "type": "uint256"
        }
      ],
      "name": "implementations",
      "outputs": [
        {
          "internalType": "address",
          "name": "",
          "type": "address"
        }
      ],
      "stateMutability": "view",
      "type": "function"
    },
    {
      "inputs": [],
      "name": "owner",
      "outputs": [
        {
          "internalType": "address",
          "name": "",
          "type": "address"
        }
      ],
      "stateMutability": "view",
      "type": "function"
    },
    {
      "inputs": [],
      "name": "renounceOwnership",
      "outputs": [],
      "stateMutability": "nonpayable",
      "type": "function"
    },
    {
      "inputs": [
        {
          "internalType": "address",
          "name": "_template",
          "type": "address"
        }
      ],
      "name": "setDefaultTemplate",
      "outputs": [],
      "stateMutability": "nonpayable",
      "type": "function"
    },
    {
      "inputs": [],
      "name": "template",
      "outputs": [
        {
          "internalType": "address",
          "name": "",
          "type": "address"
        }
      ],
      "stateMutability": "view",
      "type": "function"
    },
    {
      "inputs": [
        {
          "internalType": "address",
          "name": "",
          "type": "address"
        }
      ],
      "name": "templates",
      "outputs": [
        {
          "internalType": "address",
          "name": "",
          "type": "address"
        }
      ],
      "stateMutability": "view",
      "type": "function"
    },
    {
      "inputs": [
        {
          "internalType": "address",
          "name": "newOwner",
          "type": "address"
        }
      ],
      "name": "transferOwnership",
      "outputs": [],
      "stateMutability": "nonpayable",
      "type": "function"
    }
  ],
  "transactionHash": "0x0bb0e20f55315a31d595f0f5aaf16fd18c17535b67d222b4cff4ae499dc2be53",
  "args": [
    "0xb60ED9a28Bc5C5D789C68a4Aa7A801D98fA7a408"
  ],
  "solcInputHash": "58dfb620db482958a63a719a4f20f970",
  "bytecode": "0x608060405234801561001057600080fd5b5060405161150438038061150483398101604081905261002f916100af565b806100393361005f565b600480546001600160a01b0319166001600160a01b0392909216919091179055506100dd565b600080546001600160a01b038381166001600160a01b0319831681178455604051919092169283917f8be0079c531659141344cd1fd0a4f28419497f9722a3daafe3b4186f6b6457e09190a35050565b6000602082840312156100c0578081fd5b81516001600160a01b03811681146100d6578182fd5b9392505050565b611418806100ec6000396000f3fe608060405234801561001057600080fd5b50600436106100a95760003560e01c8063845affc811610071578063845affc8146101395780638da5cb5b1461014c578063b98a47481461015d578063c6e2a40014610170578063f2fde38b14610183578063f7888aec1461019657600080fd5b806309ed4607146100ae57806320a99bd0146100d35780636392a51f146100fc5780636f2ddd931461011c578063715018a61461012f575b600080fd5b6100b66101b6565b6040516001600160a01b0390911681526020015b60405180910390f35b6100b66100e136600461105a565b6003602052600090815260409020546001600160a01b031681565b61010f61010a36600461105a565b6102bf565b6040516100ca9190611295565b6002546100b6906001600160a01b031681565b6101376103b6565b005b6100b66101473660046111b8565b6103ec565b6000546001600160a01b03166100b6565b61013761016b36600461105a565b610416565b61013761017e36600461105a565b610521565b61013761019136600461105a565b610730565b6101a96101a4366004611092565b6107cb565b6040516100ca919061132b565b60006101c0610c77565b90506101dc6001600160a01b038216632bb7fe3960e01b610cee565b61022d5760405162461bcd60e51b815260206004820152601f60248201527f436c6f6e65206973206e6f74204f70656e204e46547320636f6e74726163740060448201526064015b60405180910390fd5b6040805163266c45bb60e11b8152600481019190915260096044820152684f70656e204e46547360b81b606482015260806024820152600360848201526213919560ea1b60a48201526001600160a01b03821690634cd88b769060c401600060405180830381600087803b1580156102a457600080fd5b505af11580156102b8573d6000803e3d6000fd5b5050505090565b60015460609067ffffffffffffffff8111156102eb57634e487b7160e01b600052604160045260246000fd5b60405190808252806020026020018201604052801561032457816020015b610311611009565b8152602001906001900390816103095790505b50905060005b6001548110156103b0576103736001828154811061035857634e487b7160e01b600052603260045260246000fd5b6000918252602090912001546001600160a01b0316846107cb565b82828151811061039357634e487b7160e01b600052603260045260246000fd5b60209081029190910101526103a960018261133e565b905061032a565b50919050565b6000546001600160a01b031633146103e05760405162461bcd60e51b8152600401610224906112f6565b6103ea6000610d13565b565b600181815481106103fc57600080fd5b6000918252602090912001546001600160a01b0316905081565b6000546001600160a01b031633146104405760405162461bcd60e51b8152600401610224906112f6565b6001600160a01b03818116600090815260036020526040902054166104685761046881610521565b6001600160a01b03808216600081815260036020526040902054909116146104c85760405162461bcd60e51b815260206004820152601360248201527254656d706c617465206973206120436c6f6e6560681b6044820152606401610224565b600280546001600160a01b0319166001600160a01b038316908117909155604080519182523360208301527f81bbf04250a28f0d5979a401ffb6705dcebf8b354060431d672cf1ea4594fc67910160405180910390a150565b6000546001600160a01b0316331461054b5760405162461bcd60e51b8152600401610224906112f6565b6001600160a01b0381811660009081526003602052604090205416156105b35760405162461bcd60e51b815260206004820152601d60248201527f496d706c656d656e746174696f6e20616c7265616479206578697374730000006044820152606401610224565b6004805460405163275e5da560e01b81526001600160a01b03848116938201939093526000928392169063275e5da590602401604080518083038186803b1580156105fd57600080fd5b505afa158015610611573d6000803e3d6000fd5b505050506040513d601f19601f8201168201806040525081019061063591906110e4565b91509150816106865760405162461bcd60e51b815260206004820181905260248201527f496d706c656d656e746174696f6e206973206e6f74206120436f6e74726163746044820152606401610224565b600180548082019091557fb10e2d527612073b26eecdfd717e6a320cf44b4afac2b0732d9fcbe2b7fa0cf60180546001600160a01b038581166001600160a01b03199283168117909355600083815260036020908152604091829020805493871693909416831790935580519384529183015233908201527f053585d4de2374a5e4cee65e665171098bd6777e89041c2915cdac4d567cd93f9060600160405180910390a1505050565b6000546001600160a01b0316331461075a5760405162461bcd60e51b8152600401610224906112f6565b6001600160a01b0381166107bf5760405162461bcd60e51b815260206004820152602660248201527f4f776e61626c653a206e6577206f776e657220697320746865207a65726f206160448201526564647265737360d01b6064820152608401610224565b6107c881610d13565b50565b6107d3611009565b60408051600480825260a0820190925260009160208201608080368337505081519192506380ac58cd60e01b9183915060009061082057634e487b7160e01b600052603260045260246000fd5b6001600160e01b031990921660209283029190910190910152805163780e9d6360e01b908290600190811061086557634e487b7160e01b600052603260045260246000fd5b6001600160e01b031990921660209283029190910190910152805163780e9d6360e01b90829060029081106108aa57634e487b7160e01b600052603260045260246000fd5b6001600160e01b0319909216602092830291909101909101528051632bb7fe3960e01b90829060039081106108ef57634e487b7160e01b600052603260045260246000fd5b6001600160e01b031990921660209283029190910190910152600061091d6001600160a01b03861683610d63565b905080600060ff168151811061094357634e487b7160e01b600052603260045260246000fd5b602002602001015115610c6f576001600160a01b038516835280518190600190811061097f57634e487b7160e01b600052603260045260246000fd5b602002602001015115610a8457846001600160a01b03166306fdde036040518163ffffffff1660e01b815260040160006040518083038186803b1580156109c557600080fd5b505afa1580156109d9573d6000803e3d6000fd5b505050506040513d6000823e601f3d908101601f19168201604052610a01919081019061110f565b8360200181905250846001600160a01b03166395d89b416040518163ffffffff1660e01b815260040160006040518083038186803b158015610a4257600080fd5b505afa158015610a56573d6000803e3d6000fd5b505050506040513d6000823e601f3d908101601f19168201604052610a7e919081019061110f565b60408401525b6001600160a01b038416610b3f5780600260ff1681518110610ab657634e487b7160e01b600052603260045260246000fd5b602002602001015115610b3a57846001600160a01b03166318160ddd6040518163ffffffff1660e01b815260040160206040518083038186803b158015610afc57600080fd5b505afa158015610b10573d6000803e3d6000fd5b505050506040513d601f19601f82011682018060405250810190610b3491906111d0565b60608401525b610bbe565b6040516370a0823160e01b81526001600160a01b0385811660048301528616906370a082319060240160206040518083038186803b158015610b8057600080fd5b505afa158015610b94573d6000803e3d6000fd5b505050506040513d601f19601f82011682018060405250810190610bb891906111d0565b60608401525b80600360ff1681518110610be257634e487b7160e01b600052603260045260246000fd5b602002602001015115610c6f57846001600160a01b0316638da5cb5b6040518163ffffffff1660e01b815260040160206040518083038186803b158015610c2857600080fd5b505afa158015610c3c573d6000803e3d6000fd5b505050506040513d601f19601f82011682018060405250810190610c609190611076565b6001600160a01b031660808401525b505092915050565b6002546000906001600160a01b0316610ccb5760405162461bcd60e51b815260206004820152601660248201527515195b5c1b185d1948191bd95cdb89dd08195e1a5cdd60521b6044820152606401610224565b600254610ce0906001600160a01b0316610e50565b9050610ceb81610521565b90565b6000610cf983610eed565b8015610d0a5750610d0a8383610f20565b90505b92915050565b600080546001600160a01b038381166001600160a01b0319831681178455604051919092169283917f8be0079c531659141344cd1fd0a4f28419497f9722a3daafe3b4186f6b6457e09190a35050565b60606000825167ffffffffffffffff811115610d8f57634e487b7160e01b600052604160045260246000fd5b604051908082528060200260200182016040528015610db8578160200160208202803683370190505b509050610dc484610eed565b15610d0a5760005b8351811015610e4857610e0685858381518110610df957634e487b7160e01b600052603260045260246000fd5b6020026020010151610f20565b828281518110610e2657634e487b7160e01b600052603260045260246000fd5b9115156020928302919091019091015280610e4081611386565b915050610dcc565b509392505050565b6000604051733d602d80600a3d3981f3363d3d373d3d3d363d7360601b81528260601b60148201526e5af43d82803e903d91602b57fd5bf360881b60288201526037816000f09150506001600160a01b038116610ee85760405162461bcd60e51b8152602060048201526016602482015275115490cc4c4d8dce8818dc99585d194819985a5b195960521b6044820152606401610224565b919050565b6000610f00826301ffc9a760e01b610f20565b8015610d0d5750610f19826001600160e01b0319610f20565b1592915050565b604080516001600160e01b0319831660248083019190915282518083039091018152604490910182526020810180516001600160e01b03166301ffc9a760e01b179052905160009190829081906001600160a01b0387169061753090610f87908690611279565b6000604051808303818686fa925050503d8060008114610fc3576040519150601f19603f3d011682016040523d82523d6000602084013e610fc8565b606091505b5091509150602081511015610fe35760009350505050610d0d565b818015610fff575080806020019051810190610fff91906110ca565b9695505050505050565b6040518060a0016040528060006001600160a01b0316815260200160608152602001606081526020016000815260200160006001600160a01b031681525090565b80518015158114610ee857600080fd5b60006020828403121561106b578081fd5b8135610d0a816113cd565b600060208284031215611087578081fd5b8151610d0a816113cd565b600080604083850312156110a4578081fd5b82356110af816113cd565b915060208301356110bf816113cd565b809150509250929050565b6000602082840312156110db578081fd5b610d0a8261104a565b600080604083850312156110f6578182fd5b6110ff8361104a565b915060208301516110bf816113cd565b600060208284031215611120578081fd5b815167ffffffffffffffff80821115611137578283fd5b818401915084601f83011261114a578283fd5b81518181111561115c5761115c6113b7565b604051601f8201601f19908116603f01168101908382118183101715611184576111846113b7565b8160405282815287602084870101111561119c578586fd5b6111ad836020830160208801611356565b979650505050505050565b6000602082840312156111c9578081fd5b5035919050565b6000602082840312156111e1578081fd5b5051919050565b60008151808452611200816020860160208601611356565b601f01601f19169290920160200192915050565b600060018060a01b03808351168452602083015160a0602086015261123c60a08601826111e8565b90506040840151858203604087015261125582826111e8565b91505060608401516060860152816080850151166080860152809250505092915050565b6000825161128b818460208701611356565b9190910192915050565b6000602080830181845280855180835260408601915060408160051b8701019250838701855b828110156112e957603f198886030184526112d7858351611214565b945092850192908501906001016112bb565b5092979650505050505050565b6020808252818101527f4f776e61626c653a2063616c6c6572206973206e6f7420746865206f776e6572604082015260600190565b602081526000610d0a6020830184611214565b60008219821115611351576113516113a1565b500190565b60005b83811015611371578181015183820152602001611359565b83811115611380576000848401525b50505050565b600060001982141561139a5761139a6113a1565b5060010190565b634e487b7160e01b600052601160045260246000fd5b634e487b7160e01b600052604160045260246000fd5b6001600160a01b03811681146107c857600080fdfea26469706673582212203942b45c456f11157b328908f44fe2fb877e4b89109b43a1b8ab57c25319ee6964736f6c63430008040033",
  "devdoc": {
    "kind": "dev",
    "methods": {
      "owner()": {
        "details": "Returns the address of the current owner."
      },
      "renounceOwnership()": {
        "details": "Leaves the contract without owner. It will not be possible to call `onlyOwner` functions anymore. Can only be called by the current owner. NOTE: Renouncing ownership will leave the contract without an owner, thereby removing any functionality that is only available to the owner."
      },
      "transferOwnership(address)": {
        "details": "Transfers ownership of the contract to a new account (`newOwner`). Can only be called by the current owner."
      }
    },
    "version": 1
  },
  "userdoc": {
    "kind": "user",
    "methods": {},
    "version": 1
  },
  "storageLayout": {
    "storage": [
      {
        "astId": 2362,
        "contract": "solidity/contracts/NFTsFactory.sol:NFTsFactory",
        "label": "_owner",
        "offset": 0,
        "slot": "0",
        "type": "t_address"
      },
      {
        "astId": 11023,
        "contract": "solidity/contracts/NFTsFactory.sol:NFTsFactory",
        "label": "implementations",
        "offset": 0,
        "slot": "1",
        "type": "t_array(t_address)dyn_storage"
      },
      {
        "astId": 11025,
        "contract": "solidity/contracts/NFTsFactory.sol:NFTsFactory",
        "label": "template",
        "offset": 0,
        "slot": "2",
        "type": "t_address"
      },
      {
        "astId": 11029,
        "contract": "solidity/contracts/NFTsFactory.sol:NFTsFactory",
        "label": "templates",
        "offset": 0,
        "slot": "3",
        "type": "t_mapping(t_address,t_address)"
      },
      {
        "astId": 11031,
        "contract": "solidity/contracts/NFTsFactory.sol:NFTsFactory",
        "label": "contractProbe",
        "offset": 0,
        "slot": "4",
        "type": "t_address"
      }
    ],
    "types": {
      "t_address": {
        "encoding": "inplace",
        "label": "address",
        "numberOfBytes": "20"
      },
      "t_array(t_address)dyn_storage": {
        "base": "t_address",
        "encoding": "dynamic_array",
        "label": "address[]",
        "numberOfBytes": "32"
      },
      "t_mapping(t_address,t_address)": {
        "encoding": "mapping",
        "key": "t_address",
        "label": "mapping(address => address)",
        "numberOfBytes": "32",
        "value": "t_address"
      }
    }
  }
}