{
  "address": "0x57b6C3EF986010bA567f2dc250121FAFe6b6Bce7",
  "abi": [
    {
      "anonymous": false,
      "inputs": [
        {
          "indexed": true,
          "internalType": "address",
          "name": "previousOwner",
          "type": "address"
        },
        {
          "indexed": true,
          "internalType": "address",
          "name": "newOwner",
          "type": "address"
        }
      ],
      "name": "OwnershipTransferred",
      "type": "event"
    },
    {
      "inputs": [
        {
          "internalType": "address",
          "name": "addr",
          "type": "address"
        }
      ],
      "name": "addAddress",
      "outputs": [],
      "stateMutability": "nonpayable",
      "type": "function"
    },
    {
      "inputs": [
        {
          "internalType": "address[]",
          "name": "addrs",
          "type": "address[]"
        }
      ],
      "name": "addAddresses",
      "outputs": [],
      "stateMutability": "nonpayable",
      "type": "function"
    },
    {
      "inputs": [
        {
          "internalType": "address",
          "name": "account",
          "type": "address"
        },
        {
          "internalType": "bytes4[]",
          "name": "interfaceIds",
          "type": "bytes4[]"
        }
      ],
      "name": "checkSupportedInterfaces",
      "outputs": [
        {
          "internalType": "bool[]",
          "name": "interfaceIdsChecker",
          "type": "bool[]"
        }
      ],
      "stateMutability": "view",
      "type": "function"
    },
    {
      "inputs": [
        {
          "internalType": "address",
          "name": "account",
          "type": "address"
        }
      ],
      "name": "checkSupportedInterfaces",
      "outputs": [
        {
          "internalType": "bool[]",
          "name": "interfaceIdsChecker",
          "type": "bool[]"
        }
      ],
      "stateMutability": "view",
      "type": "function"
    },
    {
      "inputs": [],
      "name": "countAddresses",
      "outputs": [
        {
          "internalType": "uint256",
          "name": "",
          "type": "uint256"
        }
      ],
      "stateMutability": "view",
      "type": "function"
    },
    {
      "inputs": [
        {
          "internalType": "uint256",
          "name": "index",
          "type": "uint256"
        }
      ],
      "name": "getAddress",
      "outputs": [
        {
          "internalType": "address",
          "name": "addr",
          "type": "address"
        }
      ],
      "stateMutability": "view",
      "type": "function"
    },
    {
      "inputs": [],
      "name": "getAddresses",
      "outputs": [
        {
          "internalType": "address[]",
          "name": "",
          "type": "address[]"
        }
      ],
      "stateMutability": "view",
      "type": "function"
    },
    {
      "inputs": [
        {
          "internalType": "address[]",
          "name": "collections",
          "type": "address[]"
        },
        {
          "internalType": "address",
          "name": "account",
          "type": "address"
        }
      ],
      "name": "getCollectionsInfos",
      "outputs": [
        {
          "components": [
            {
              "internalType": "address",
              "name": "collection",
              "type": "address"
            },
            {
              "internalType": "address",
              "name": "owner",
              "type": "address"
            },
            {
              "internalType": "string",
              "name": "name",
              "type": "string"
            },
            {
              "internalType": "string",
              "name": "symbol",
              "type": "string"
            },
            {
              "internalType": "uint256",
              "name": "totalSupply",
              "type": "uint256"
            },
            {
              "internalType": "uint256",
              "name": "balanceOf",
              "type": "uint256"
            }
          ],
          "internalType": "struct IERC721Infos.CollectionInfos[]",
          "name": "collectionsInfo",
          "type": "tuple[]"
        }
      ],
      "stateMutability": "view",
      "type": "function"
    },
    {
      "inputs": [
        {
          "internalType": "address",
          "name": "owner_",
          "type": "address"
        }
      ],
      "name": "initialize",
      "outputs": [],
      "stateMutability": "nonpayable",
      "type": "function"
    },
    {
      "inputs": [
        {
          "internalType": "address",
          "name": "account",
          "type": "address"
        }
      ],
      "name": "openResolver",
      "outputs": [
        {
          "components": [
            {
              "internalType": "address",
              "name": "collection",
              "type": "address"
            },
            {
              "internalType": "address",
              "name": "owner",
              "type": "address"
            },
            {
              "internalType": "string",
              "name": "name",
              "type": "string"
            },
            {
              "internalType": "string",
              "name": "symbol",
              "type": "string"
            },
            {
              "internalType": "uint256",
              "name": "totalSupply",
              "type": "uint256"
            },
            {
              "internalType": "uint256",
              "name": "balanceOf",
              "type": "uint256"
            }
          ],
          "internalType": "struct IERC721Infos.CollectionInfos[]",
          "name": "",
          "type": "tuple[]"
        }
      ],
      "stateMutability": "view",
      "type": "function"
    },
    {
      "inputs": [],
      "name": "owner",
      "outputs": [
        {
          "internalType": "address",
          "name": "",
          "type": "address"
        }
      ],
      "stateMutability": "view",
      "type": "function"
    },
    {
      "inputs": [
        {
          "internalType": "bytes4",
          "name": "interfaceId",
          "type": "bytes4"
        }
      ],
      "name": "supportsInterface",
      "outputs": [
        {
          "internalType": "bool",
          "name": "",
          "type": "bool"
        }
      ],
      "stateMutability": "view",
      "type": "function"
    },
    {
      "inputs": [
        {
          "internalType": "address",
          "name": "newOwner",
          "type": "address"
        }
      ],
      "name": "transferOwnership",
      "outputs": [],
      "stateMutability": "nonpayable",
      "type": "function"
    }
  ],
  "transactionHash": "0x16e6087ca6465dc8ba2677e2c913490b20a3e40a307f81bf0b69b54e04c7e55a",
  "args": [],
  "numDeployments": 1,
  "solcInputHash": "118fddd5c1068847249d09aa0799b23c",
  "bytecode": "0x6101e06040526001600160e01b031960809081526301ffc9a760e01b60a0526380ac58cd60e01b60c052635b5e139f60e01b60e05263780e9d6360e01b61010052630a85bd0160e11b61012052636cdb3d1360e11b610140526303a24d0760e21b61016052630271189760e51b610180526307f5828d60e41b6101a05263152a902d60e11b6101c0526200009890600290600b620000ad565b50348015620000a657600080fd5b5062000177565b828054828255906000526020600020906007016008900481019282156200014e5791602002820160005b838211156200011a57835183826101000a81548163ffffffff021916908360e01c02179055509260200192600401602081600301049283019260010302620000d7565b80156200014c5782816101000a81549063ffffffff02191690556004016020816003010492830192600103026200011a565b505b506200015c92915062000160565b5090565b5b808211156200015c576000815560010162000161565b61136e80620001876000396000f3fe608060405234801561001057600080fd5b50600436106100cf5760003560e01c80638da5cb5b1161008c578063c4d66de811610066578063c4d66de8146101c9578063dd7b9156146101dc578063ec530de6146101ef578063f2fde38b1461020057600080fd5b80638da5cb5b14610177578063a39fac12146101a1578063b93f9b0a146101b657600080fd5b806301ffc9a7146100d457806307fda8e7146100fc5780633628731c1461011c57806338eada1c1461013157806340b8d029146101445780635fc83aae14610157575b600080fd5b6100e76100e2366004610de4565b610213565b60405190151581526020015b60405180910390f35b61010f61010a366004610e1b565b61023e565b6040516100f39190610e94565b61012f61012a366004611031565b610251565b005b61012f61013f366004610e1b565b610329565b61010f61015236600461106e565b6103dc565b61016a6101653660046110c0565b61049a565b6040516100f3919061116d565b60005461010090046001600160a01b03165b6040516001600160a01b0390911681526020016100f3565b6101a96105c7565b6040516100f391906111b3565b6101896101c43660046111f4565b610629565b61012f6101d7366004610e1b565b61069b565b61016a6101ea366004610e1b565b6106a7565b6001546040519081526020016100f3565b61012f61020e366004610e1b565b610730565b60006001600160e01b0319821663189acdbd60e31b1480610238575061023882610784565b92915050565b606061023861024b6105c7565b836103dc565b60005461010090046001600160a01b03166001600160a01b0316336001600160a01b0316146102b85760405162461bcd60e51b815260206004820152600e60248201526d2737ba103932b3b4b9ba32b932b960911b60448201526064015b60405180910390fd5b60005b81518110156103255760018282815181106102d8576102d861120d565b60209081029190910181015182546001810184556000938452919092200180546001600160a01b0319166001600160a01b039092169190911790558061031d81611223565b9150506102bb565b5050565b60005461010090046001600160a01b03166001600160a01b0316336001600160a01b03161461038b5760405162461bcd60e51b815260206004820152600e60248201526d2737ba103932b3b4b9ba32b932b960911b60448201526064016102af565b6001805480820182556000919091527fb10e2d527612073b26eecdfd717e6a320cf44b4afac2b0732d9fcbe2b7fa0cf60180546001600160a01b0319166001600160a01b0392909216919091179055565b6060825167ffffffffffffffff8111156103f8576103f8610f52565b60405190808252806020026020018201604052801561043157816020015b61041e610d7f565b8152602001906001900390816104165790505b50905060005b8351811015610493576104638482815181106104555761045561120d565b6020026020010151846107a9565b8282815181106104755761047561120d565b6020026020010181905250808061048b90611223565b915050610437565b5092915050565b6060815167ffffffffffffffff8111156104b6576104b6610f52565b6040519080825280602002602001820160405280156104df578160200160208202803683370190505b50905060005b825181101561049357836001600160a01b03166301ffc9a784838151811061050f5761050f61120d565b60200260200101516040518263ffffffff1660e01b815260040161054391906001600160e01b031991909116815260200190565b60206040518083038186803b15801561055b57600080fd5b505afa15801561056f573d6000803e3d6000fd5b505050506040513d601f19601f82011682018060405250810190610593919061124c565b8282815181106105a5576105a561120d565b91151560209283029190910190910152806105bf81611223565b9150506104e5565b6060600180548060200260200160405190810160405280929190818152602001828054801561061f57602002820191906000526020600020905b81546001600160a01b03168152600190910190602001808311610601575b5050505050905090565b600154600090821061066d5760405162461bcd60e51b815260206004820152600d60248201526c092dcecc2d8d2c840d2dcc8caf609b1b60448201526064016102af565b600182815481106106805761068061120d565b6000918252602090912001546001600160a01b031692915050565b6106a481610c38565b50565b606061023882600280548060200260200160405190810160405280929190818152602001828054801561072657602002820191906000526020600020906000905b82829054906101000a900460e01b6001600160e01b031916815260200190600401906020826003010492830192600103820291508084116106e85790505b505050505061049a565b60005461010090046001600160a01b0316331461077b5760405162461bcd60e51b81526020600482015260096024820152682737ba1037bbb732b960b91b60448201526064016102af565b6106a481610c91565b60006001600160e01b031982166307fda8e760e01b1480610238575061023882610cea565b6107b1610d7f565b6001600160a01b0383163b6107fc5760405162461bcd60e51b8152602060048201526011602482015270139bdd081cdb585c9d18dbdb9d1c9858dd607a1b60448201526064016102af565b60408051600480825260a0820190925260009160208201608080368337019050509050610828846106a7565b90508060008151811061083d5761083d61120d565b60200260200101511580156108695750806001815181106108605761086061120d565b60200260200101515b6108a25760405162461bcd60e51b815260206004820152600a6024820152694e6f742045524331363560b01b60448201526064016102af565b806002815181106108b5576108b561120d565b6020026020010151806108df5750806006815181106108d6576108d661120d565b60200260200101515b6109235760405162461bcd60e51b8152602060048201526015602482015274139bdd08139195081cdb585c9d18dbdb9d1c9858dd605a1b60448201526064016102af565b6001600160a01b038316610935573392505b6001600160a01b03841682528051819060029081106109565761095661120d565b602002602001015115610b92576040516370a0823160e01b81526001600160a01b0384811660048301528516906370a082319060240160206040518083038186803b1580156109a457600080fd5b505afa1580156109b8573d6000803e3d6000fd5b505050506040513d601f19601f820116820180604052508101906109dc919061126e565b60a08301528051819060039081106109f6576109f661120d565b602002602001015115610afb57836001600160a01b03166306fdde036040518163ffffffff1660e01b815260040160006040518083038186803b158015610a3c57600080fd5b505afa158015610a50573d6000803e3d6000fd5b505050506040513d6000823e601f3d908101601f19168201604052610a789190810190611287565b8260400181905250836001600160a01b03166395d89b416040518163ffffffff1660e01b815260040160006040518083038186803b158015610ab957600080fd5b505afa158015610acd573d6000803e3d6000fd5b505050506040513d6000823e601f3d908101601f19168201604052610af59190810190611287565b60608301525b80600481518110610b0e57610b0e61120d565b602002602001015115610b9257836001600160a01b03166318160ddd6040518163ffffffff1660e01b815260040160206040518083038186803b158015610b5457600080fd5b505afa158015610b68573d6000803e3d6000fd5b505050506040513d601f19601f82011682018060405250810190610b8c919061126e565b60808301525b80600981518110610ba557610ba561120d565b60200260200101511561049357836001600160a01b0316638da5cb5b6040518163ffffffff1660e01b815260040160206040518083038186803b158015610beb57600080fd5b505afa158015610bff573d6000803e3d6000fd5b505050506040513d601f19601f82011682018060405250810190610c23919061131b565b6001600160a01b031660208301525092915050565b60005460ff1615610c7f5760405162461bcd60e51b8152602060048201526011602482015270125b9a5d08185b1c9958591e4818d85b1b607a1b60448201526064016102af565b6000805460ff191660011790556106a4815b600080546001600160a01b03838116610100818102610100600160a81b0319851617855560405193049190911692909183917f8be0079c531659141344cd1fd0a4f28419497f9722a3daafe3b4186f6b6457e091a35050565b60006001600160e01b031982166340b8d02960e01b148061023857506102388260006001600160e01b03198216631056757f60e31b148061023857506102388260006001600160e01b03198216637c18c9ff60e11b148061023857506102388260006307f5828d60e41b6001600160e01b03198316148061023857506001600160e01b031982166301ffc9a760e01b14610238565b6040518060c0016040528060006001600160a01b0316815260200160006001600160a01b03168152602001606081526020016060815260200160008152602001600081525090565b80356001600160e01b031981168114610ddf57600080fd5b919050565b600060208284031215610df657600080fd5b610dff82610dc7565b9392505050565b6001600160a01b03811681146106a457600080fd5b600060208284031215610e2d57600080fd5b8135610dff81610e06565b60005b83811015610e53578181015183820152602001610e3b565b83811115610e62576000848401525b50505050565b60008151808452610e80816020860160208601610e38565b601f01601f19169290920160200192915050565b60006020808301818452808551808352604092508286019150828160051b87010184880160005b83811015610f4457888303603f19018552815180516001600160a01b0390811685528882015116888501528681015160c088860181905290610eff82870182610e68565b91505060608083015186830382880152610f198382610e68565b6080858101519089015260a09485015194909701939093525050509386019390860190600101610ebb565b509098975050505050505050565b634e487b7160e01b600052604160045260246000fd5b604051601f8201601f1916810167ffffffffffffffff81118282101715610f9157610f91610f52565b604052919050565b600067ffffffffffffffff821115610fb357610fb3610f52565b5060051b60200190565b600082601f830112610fce57600080fd5b81356020610fe3610fde83610f99565b610f68565b82815260059290921b8401810191818101908684111561100257600080fd5b8286015b8481101561102657803561101981610e06565b8352918301918301611006565b509695505050505050565b60006020828403121561104357600080fd5b813567ffffffffffffffff81111561105a57600080fd5b61106684828501610fbd565b949350505050565b6000806040838503121561108157600080fd5b823567ffffffffffffffff81111561109857600080fd5b6110a485828601610fbd565b92505060208301356110b581610e06565b809150509250929050565b600080604083850312156110d357600080fd5b82356110de81610e06565b915060208381013567ffffffffffffffff8111156110fb57600080fd5b8401601f8101861361110c57600080fd5b803561111a610fde82610f99565b81815260059190911b8201830190838101908883111561113957600080fd5b928401925b8284101561115e5761114f84610dc7565b8252928401929084019061113e565b80955050505050509250929050565b6020808252825182820181905260009190848201906040850190845b818110156111a7578351151583529284019291840191600101611189565b50909695505050505050565b6020808252825182820181905260009190848201906040850190845b818110156111a75783516001600160a01b0316835292840192918401916001016111cf565b60006020828403121561120657600080fd5b5035919050565b634e487b7160e01b600052603260045260246000fd5b600060001982141561124557634e487b7160e01b600052601160045260246000fd5b5060010190565b60006020828403121561125e57600080fd5b81518015158114610dff57600080fd5b60006020828403121561128057600080fd5b5051919050565b60006020828403121561129957600080fd5b815167ffffffffffffffff808211156112b157600080fd5b818401915084601f8301126112c557600080fd5b8151818111156112d7576112d7610f52565b6112ea601f8201601f1916602001610f68565b915080825285602082850101111561130157600080fd5b611312816020840160208601610e38565b50949350505050565b60006020828403121561132d57600080fd5b8151610dff81610e0656fea264697066735822122060e57a215c83c6f14fc8c1be3d5936155d462b9cd39a13ba9a75133519b11ad164736f6c63430008090033",
  "devdoc": {
    "kind": "dev",
    "methods": {
      "checkSupportedInterfaces(address)": {
        "params": {
          "account": "account to check _ercInterfaceIds : ERC interfacesIds 0xffffffff :  O Invalid 0x01ffc9a7 :  1 ERC165 0x80ac58cd :  2 ERC721 0x5b5e139f :  3 ERC721Metadata 0x780e9d63 :  4 ERC721Enumerable 0x150b7a02 :  5 ERC721TokenReceiver 0xd9b67a26 :  6 ERC1155 0x0e89341c :  7 ERC1155MetadataURI 0x4e2312e0 :  8 ERC1155TokenReceiver 0x7f5828d0 :  9 ERC173 0x2a55205a : 10 ERC2981"
        }
      }
    },
    "version": 1
  },
  "userdoc": {
    "kind": "user",
    "methods": {
      "checkSupportedInterfaces(address)": {
        "notice": "checkSupportedInterfaces"
      }
    },
    "version": 1
  },
  "storageLayout": {
    "storage": [
      {
        "astId": 6531,
        "contract": "contracts/templates/NFTsResolver.sol:NFTsResolver",
        "label": "_openERC173Initialized",
        "offset": 0,
        "slot": "0",
        "type": "t_bool"
      },
      {
        "astId": 6533,
        "contract": "contracts/templates/NFTsResolver.sol:NFTsResolver",
        "label": "_owner",
        "offset": 1,
        "slot": "0",
        "type": "t_address"
      },
      {
        "astId": 9077,
        "contract": "contracts/templates/NFTsResolver.sol:NFTsResolver",
        "label": "_addresses",
        "offset": 0,
        "slot": "1",
        "type": "t_array(t_address)dyn_storage"
      },
      {
        "astId": 8747,
        "contract": "contracts/templates/NFTsResolver.sol:NFTsResolver",
        "label": "_ercInterfaceIds",
        "offset": 0,
        "slot": "2",
        "type": "t_array(t_bytes4)dyn_storage"
      }
    ],
    "types": {
      "t_address": {
        "encoding": "inplace",
        "label": "address",
        "numberOfBytes": "20"
      },
      "t_array(t_address)dyn_storage": {
        "base": "t_address",
        "encoding": "dynamic_array",
        "label": "address[]",
        "numberOfBytes": "32"
      },
      "t_array(t_bytes4)dyn_storage": {
        "base": "t_bytes4",
        "encoding": "dynamic_array",
        "label": "bytes4[]",
        "numberOfBytes": "32"
      },
      "t_bool": {
        "encoding": "inplace",
        "label": "bool",
        "numberOfBytes": "1"
      },
      "t_bytes4": {
        "encoding": "inplace",
        "label": "bytes4",
        "numberOfBytes": "4"
      }
    }
  }
}