{
  "address": "0x290Aa8d147bD6Ac50061aFb1fFE22F7cBC969890",
  "abi": [
    {
      "inputs": [
        {
          "internalType": "address",
          "name": "probe",
          "type": "address"
        }
      ],
      "stateMutability": "nonpayable",
      "type": "constructor"
    },
    {
      "anonymous": false,
      "inputs": [
        {
          "indexed": true,
          "internalType": "address",
          "name": "implementation",
          "type": "address"
        },
        {
          "indexed": true,
          "internalType": "address",
          "name": "template",
          "type": "address"
        },
        {
          "indexed": true,
          "internalType": "address",
          "name": "creator",
          "type": "address"
        },
        {
          "indexed": false,
          "internalType": "uint256",
          "name": "count",
          "type": "uint256"
        }
      ],
      "name": "ImplementationNew",
      "type": "event"
    },
    {
      "anonymous": false,
      "inputs": [
        {
          "indexed": true,
          "internalType": "address",
          "name": "previousOwner",
          "type": "address"
        },
        {
          "indexed": true,
          "internalType": "address",
          "name": "newOwner",
          "type": "address"
        }
      ],
      "name": "OwnershipTransferred",
      "type": "event"
    },
    {
      "inputs": [],
      "name": "ERC721",
      "outputs": [
        {
          "internalType": "uint8",
          "name": "",
          "type": "uint8"
        }
      ],
      "stateMutability": "view",
      "type": "function"
    },
    {
      "inputs": [],
      "name": "ERC721_ENUMERABLE",
      "outputs": [
        {
          "internalType": "uint8",
          "name": "",
          "type": "uint8"
        }
      ],
      "stateMutability": "view",
      "type": "function"
    },
    {
      "inputs": [],
      "name": "ERC721_ENUMERABLE_SIG",
      "outputs": [
        {
          "internalType": "bytes4",
          "name": "",
          "type": "bytes4"
        }
      ],
      "stateMutability": "view",
      "type": "function"
    },
    {
      "inputs": [],
      "name": "ERC721_METADATA",
      "outputs": [
        {
          "internalType": "uint8",
          "name": "",
          "type": "uint8"
        }
      ],
      "stateMutability": "view",
      "type": "function"
    },
    {
      "inputs": [],
      "name": "ERC721_METADATA_SIG",
      "outputs": [
        {
          "internalType": "bytes4",
          "name": "",
          "type": "bytes4"
        }
      ],
      "stateMutability": "view",
      "type": "function"
    },
    {
      "inputs": [],
      "name": "ERC721_SIG",
      "outputs": [
        {
          "internalType": "bytes4",
          "name": "",
          "type": "bytes4"
        }
      ],
      "stateMutability": "view",
      "type": "function"
    },
    {
      "inputs": [],
      "name": "OPEN_NFTS",
      "outputs": [
        {
          "internalType": "uint8",
          "name": "",
          "type": "uint8"
        }
      ],
      "stateMutability": "view",
      "type": "function"
    },
    {
      "inputs": [],
      "name": "OPEN_NFTS_SIG",
      "outputs": [
        {
          "internalType": "bytes4",
          "name": "",
          "type": "bytes4"
        }
      ],
      "stateMutability": "view",
      "type": "function"
    },
    {
      "inputs": [
        {
          "internalType": "address",
          "name": "nft",
          "type": "address"
        },
        {
          "internalType": "address",
          "name": "owner",
          "type": "address"
        }
      ],
      "name": "balanceOf",
      "outputs": [
        {
          "components": [
            {
              "internalType": "address",
              "name": "nft",
              "type": "address"
            },
            {
              "internalType": "uint256",
              "name": "balanceOf",
              "type": "uint256"
            },
            {
              "internalType": "address",
              "name": "owner",
              "type": "address"
            },
            {
              "internalType": "string",
              "name": "name",
              "type": "string"
            },
            {
              "internalType": "string",
              "name": "symbol",
              "type": "string"
            },
            {
              "internalType": "uint256",
              "name": "totalSupply",
              "type": "uint256"
            }
          ],
          "internalType": "struct INFTsFactoryV2.NftData",
          "name": "nftData",
          "type": "tuple"
        }
      ],
      "stateMutability": "view",
      "type": "function"
    },
    {
      "inputs": [
        {
          "internalType": "address",
          "name": "addr",
          "type": "address"
        }
      ],
      "name": "balancesOf",
      "outputs": [
        {
          "components": [
            {
              "internalType": "address",
              "name": "nft",
              "type": "address"
            },
            {
              "internalType": "uint256",
              "name": "balanceOf",
              "type": "uint256"
            },
            {
              "internalType": "address",
              "name": "owner",
              "type": "address"
            },
            {
              "internalType": "string",
              "name": "name",
              "type": "string"
            },
            {
              "internalType": "string",
              "name": "symbol",
              "type": "string"
            },
            {
              "internalType": "uint256",
              "name": "totalSupply",
              "type": "uint256"
            }
          ],
          "internalType": "struct INFTsFactoryV2.NftData[]",
          "name": "nftData",
          "type": "tuple[]"
        }
      ],
      "stateMutability": "view",
      "type": "function"
    },
    {
      "inputs": [
        {
          "internalType": "string",
          "name": "name_",
          "type": "string"
        },
        {
          "internalType": "string",
          "name": "symbol_",
          "type": "string"
        },
        {
          "internalType": "address",
          "name": "template",
          "type": "address"
        }
      ],
      "name": "clone",
      "outputs": [
        {
          "internalType": "address",
          "name": "clone_",
          "type": "address"
        }
      ],
      "stateMutability": "nonpayable",
      "type": "function"
    },
    {
      "inputs": [
        {
          "internalType": "uint256",
          "name": "",
          "type": "uint256"
        }
      ],
      "name": "implementations",
      "outputs": [
        {
          "internalType": "address",
          "name": "",
          "type": "address"
        }
      ],
      "stateMutability": "view",
      "type": "function"
    },
    {
      "inputs": [
        {
          "internalType": "address[]",
          "name": "newImplementations",
          "type": "address[]"
        }
      ],
      "name": "implementationsAdd",
      "outputs": [],
      "stateMutability": "nonpayable",
      "type": "function"
    },
    {
      "inputs": [],
      "name": "implementationsCount",
      "outputs": [
        {
          "internalType": "uint256",
          "name": "",
          "type": "uint256"
        }
      ],
      "stateMutability": "view",
      "type": "function"
    },
    {
      "inputs": [],
      "name": "owner",
      "outputs": [
        {
          "internalType": "address",
          "name": "",
          "type": "address"
        }
      ],
      "stateMutability": "view",
      "type": "function"
    },
    {
      "inputs": [],
      "name": "renounceOwnership",
      "outputs": [],
      "stateMutability": "nonpayable",
      "type": "function"
    },
    {
      "inputs": [
        {
          "internalType": "address",
          "name": "newOwner",
          "type": "address"
        }
      ],
      "name": "transferOwnership",
      "outputs": [],
      "stateMutability": "nonpayable",
      "type": "function"
    },
    {
      "inputs": [],
      "name": "withdrawEther",
      "outputs": [],
      "stateMutability": "nonpayable",
      "type": "function"
    }
  ],
  "transactionHash": "0x5fdab4e518485574a79806529ff6a3f8f89c9df0d338ad725c03c5ffce204afb",
  "args": [
    "0x74f06a973046999fcd3905461baf8cbce596668f"
  ],
  "numDeployments": 1,
  "solcInputHash": "0afcb3cc37564b8517a450b31dd096ec",
  "bytecode": "0x60a06040523480156200001157600080fd5b5060405162002716380380620027168339818101604052810190620000379190620001ca565b80620000586200004c6200009460201b60201c565b6200009c60201b60201c565b8073ffffffffffffffffffffffffffffffffffffffff1660808173ffffffffffffffffffffffffffffffffffffffff16815250505050620001fc565b600033905090565b60008060009054906101000a900473ffffffffffffffffffffffffffffffffffffffff169050816000806101000a81548173ffffffffffffffffffffffffffffffffffffffff021916908373ffffffffffffffffffffffffffffffffffffffff1602179055508173ffffffffffffffffffffffffffffffffffffffff168173ffffffffffffffffffffffffffffffffffffffff167f8be0079c531659141344cd1fd0a4f28419497f9722a3daafe3b4186f6b6457e060405160405180910390a35050565b600080fd5b600073ffffffffffffffffffffffffffffffffffffffff82169050919050565b6000620001928262000165565b9050919050565b620001a48162000185565b8114620001b057600080fd5b50565b600081519050620001c48162000199565b92915050565b600060208284031215620001e357620001e262000160565b5b6000620001f384828501620001b3565b91505092915050565b6080516124fe62000218600039600061110b01526124fe6000f3fe608060405234801561001057600080fd5b50600436106101165760003560e01c806382a1db39116100a2578063c17bae4f11610071578063c17bae4f146102ad578063d33cdd74146102cb578063f2fde38b146102e9578063f7888aec14610305578063f7f5d46d1461033557610116565b806382a1db39146102255780638425abff14610241578063845affc81461025f5780638da5cb5b1461028f57610116565b80636bc259cc116100e95780636bc259cc146101b75780636cc41ea9146101d5578063715018a6146101f35780637362377b146101fd5780637d19ec931461020757610116565b80630a7c6d191461011b5780632bf0d071146101395780636392a51f146101575780636bbfa55814610187575b600080fd5b610123610353565b6040516101309190611678565b60405180910390f35b61014161035e565b60405161014e91906116af565b60405180910390f35b610171600480360381019061016c919061173c565b610363565b60405161017e919061197c565b60405180910390f35b6101a1600480360381019061019c9190611ad3565b610450565b6040516101ae9190611b6d565b60405180910390f35b6101bf610565565b6040516101cc9190611678565b60405180910390f35b6101dd610570565b6040516101ea9190611678565b60405180910390f35b6101fb610594565b005b61020561061c565b005b61020f6106ab565b60405161021c9190611678565b60405180910390f35b61023f600480360381019061023a9190611be8565b6106b6565b005b610249610789565b60405161025691906116af565b60405180910390f35b61027960048036038101906102749190611c61565b61078e565b6040516102869190611b6d565b60405180910390f35b6102976107cd565b6040516102a49190611b6d565b60405180910390f35b6102b56107f6565b6040516102c29190611c9d565b60405180910390f35b6102d3610803565b6040516102e091906116af565b60405180910390f35b61030360048036038101906102fe919061173c565b610808565b005b61031f600480360381019061031a9190611cb8565b610900565b60405161032c9190611d88565b60405180910390f35b61033d610f00565b60405161034a91906116af565b60405180910390f35b63780e9d6360e01b81565b600181565b606060018054905067ffffffffffffffff811115610384576103836119a8565b5b6040519080825280602002602001820160405280156103bd57816020015b6103aa6115db565b8152602001906001900390816103a25790505b50905060005b60018054905081101561044a57610418600182815481106103e7576103e6611daa565b5b9060005260206000200160009054906101000a900473ffffffffffffffffffffffffffffffffffffffff1684610900565b82828151811061042b5761042a611daa565b5b60200260200101819052506001816104439190611e08565b90506103c3565b50919050565b600061049b7f9e4ad480000000000000000000000000000000000000000000000000000000008373ffffffffffffffffffffffffffffffffffffffff16610f0590919063ffffffff16565b6104da576040517f08c379a00000000000000000000000000000000000000000000000000000000081526004016104d190611ee1565b60405180910390fd5b6104e382610f2a565b90508073ffffffffffffffffffffffffffffffffffffffff16635c108a43858561050b610f46565b60006040518563ffffffff1660e01b815260040161052c9493929190611f55565b600060405180830381600087803b15801561054657600080fd5b505af115801561055a573d6000803e3d6000fd5b505050509392505050565b6380ac58cd60e01b81565b7f9e4ad4800000000000000000000000000000000000000000000000000000000081565b61059c610f46565b73ffffffffffffffffffffffffffffffffffffffff166105ba6107cd565b73ffffffffffffffffffffffffffffffffffffffff1614610610576040517f08c379a000000000000000000000000000000000000000000000000000000000815260040161060790611ff4565b60405180910390fd5b61061a6000610f4e565b565b610624610f46565b73ffffffffffffffffffffffffffffffffffffffff166106426107cd565b73ffffffffffffffffffffffffffffffffffffffff1614610698576040517f08c379a000000000000000000000000000000000000000000000000000000000815260040161068f90611ff4565b60405180910390fd5b6106a96106a3610f46565b47611012565b565b63780e9d6360e01b81565b6106be610f46565b73ffffffffffffffffffffffffffffffffffffffff166106dc6107cd565b73ffffffffffffffffffffffffffffffffffffffff1614610732576040517f08c379a000000000000000000000000000000000000000000000000000000000815260040161072990611ff4565b60405180910390fd5b60005b828290508110156107845761077083838381811061075657610755611daa565b5b905060200201602081019061076b919061173c565b611106565b60018161077d9190611e08565b9050610735565b505050565b600081565b6001818154811061079e57600080fd5b906000526020600020016000915054906101000a900473ffffffffffffffffffffffffffffffffffffffff1681565b60008060009054906101000a900473ffffffffffffffffffffffffffffffffffffffff16905090565b6000600180549050905090565b600281565b610810610f46565b73ffffffffffffffffffffffffffffffffffffffff1661082e6107cd565b73ffffffffffffffffffffffffffffffffffffffff1614610884576040517f08c379a000000000000000000000000000000000000000000000000000000000815260040161087b90611ff4565b60405180910390fd5b600073ffffffffffffffffffffffffffffffffffffffff168173ffffffffffffffffffffffffffffffffffffffff1614156108f4576040517f08c379a00000000000000000000000000000000000000000000000000000000081526004016108eb90612086565b60405180910390fd5b6108fd81610f4e565b50565b6109086115db565b6000600467ffffffffffffffff811115610925576109246119a8565b5b6040519080825280602002602001820160405280156109535781602001602082028036833780820191505090505b5090506380ac58cd60e01b81600060ff168151811061097557610974611daa565b5b60200260200101907bffffffffffffffffffffffffffffffffffffffffffffffffffffffff191690817bffffffffffffffffffffffffffffffffffffffffffffffffffffffff19168152505063780e9d6360e01b81600160ff16815181106109e0576109df611daa565b5b60200260200101907bffffffffffffffffffffffffffffffffffffffffffffffffffffffff191690817bffffffffffffffffffffffffffffffffffffffffffffffffffffffff19168152505063780e9d6360e01b81600260ff1681518110610a4b57610a4a611daa565b5b60200260200101907bffffffffffffffffffffffffffffffffffffffffffffffffffffffff191690817bffffffffffffffffffffffffffffffffffffffffffffffffffffffff1916815250507f9e4ad4800000000000000000000000000000000000000000000000000000000081600360ff1681518110610acf57610ace611daa565b5b60200260200101907bffffffffffffffffffffffffffffffffffffffffffffffffffffffff191690817bffffffffffffffffffffffffffffffffffffffffffffffffffffffff1916815250506000610b46828673ffffffffffffffffffffffffffffffffffffffff166111cb90919063ffffffff16565b905080600060ff1681518110610b5f57610b5e611daa565b5b602002602001015115610ef85784836000019073ffffffffffffffffffffffffffffffffffffffff16908173ffffffffffffffffffffffffffffffffffffffff16815250508473ffffffffffffffffffffffffffffffffffffffff166370a08231856040518263ffffffff1660e01b8152600401610bdd9190611b6d565b60206040518083038186803b158015610bf557600080fd5b505afa158015610c09573d6000803e3d6000fd5b505050506040513d601f19601f82011682018060405250810190610c2d91906120bb565b83602001818152505080600160ff1681518110610c4d57610c4c611daa565b5b602002602001015115610d71578473ffffffffffffffffffffffffffffffffffffffff166306fdde036040518163ffffffff1660e01b815260040160006040518083038186803b158015610ca057600080fd5b505afa158015610cb4573d6000803e3d6000fd5b505050506040513d6000823e3d601f19601f82011682018060405250810190610cdd9190612158565b83606001819052508473ffffffffffffffffffffffffffffffffffffffff166395d89b416040518163ffffffff1660e01b815260040160006040518083038186803b158015610d2b57600080fd5b505afa158015610d3f573d6000803e3d6000fd5b505050506040513d6000823e3d601f19601f82011682018060405250810190610d689190612158565b83608001819052505b80600260ff1681518110610d8857610d87611daa565b5b602002602001015115610e1d578473ffffffffffffffffffffffffffffffffffffffff166318160ddd6040518163ffffffff1660e01b815260040160206040518083038186803b158015610ddb57600080fd5b505afa158015610def573d6000803e3d6000fd5b505050506040513d601f19601f82011682018060405250810190610e1391906120bb565b8360a00181815250505b80600360ff1681518110610e3457610e33611daa565b5b602002602001015115610ef7578473ffffffffffffffffffffffffffffffffffffffff16638da5cb5b6040518163ffffffff1660e01b815260040160206040518083038186803b158015610e8757600080fd5b505afa158015610e9b573d6000803e3d6000fd5b505050506040513d601f19601f82011682018060405250810190610ebf91906121b6565b836040019073ffffffffffffffffffffffffffffffffffffffff16908173ffffffffffffffffffffffffffffffffffffffff16815250505b5b505092915050565b600381565b6000610f108361129d565b8015610f225750610f2183836112ea565b5b905092915050565b6000610f3582611415565b9050610f4181836114ea565b919050565b600033905090565b60008060009054906101000a900473ffffffffffffffffffffffffffffffffffffffff169050816000806101000a81548173ffffffffffffffffffffffffffffffffffffffff021916908373ffffffffffffffffffffffffffffffffffffffff1602179055508173ffffffffffffffffffffffffffffffffffffffff168173ffffffffffffffffffffffffffffffffffffffff167f8be0079c531659141344cd1fd0a4f28419497f9722a3daafe3b4186f6b6457e060405160405180910390a35050565b80471015611055576040517f08c379a000000000000000000000000000000000000000000000000000000000815260040161104c9061222f565b60405180910390fd5b60008273ffffffffffffffffffffffffffffffffffffffff168260405161107b90612280565b60006040518083038185875af1925050503d80600081146110b8576040519150601f19603f3d011682016040523d82523d6000602084013e6110bd565b606091505b5050905080611101576040517f08c379a00000000000000000000000000000000000000000000000000000000081526004016110f890612307565b60405180910390fd5b505050565b6000807f000000000000000000000000000000000000000000000000000000000000000073ffffffffffffffffffffffffffffffffffffffff1663275e5da5846040518263ffffffff1660e01b81526004016111629190611b6d565b604080518083038186803b15801561117957600080fd5b505afa15801561118d573d6000803e3d6000fd5b505050506040513d601f19601f820116820180604052508101906111b19190612353565b9150915081156111c6576111c583826114ea565b5b505050565b60606000825167ffffffffffffffff8111156111ea576111e96119a8565b5b6040519080825280602002602001820160405280156112185781602001602082028036833780820191505090505b5090506112248461129d565b156112935760005b8351811015611291576112598585838151811061124c5761124b611daa565b5b60200260200101516112ea565b82828151811061126c5761126b611daa565b5b602002602001019015159081151581525050808061128990612393565b91505061122c565b505b8091505092915050565b60006112c9827f01ffc9a7000000000000000000000000000000000000000000000000000000006112ea565b80156112e357506112e18263ffffffff60e01b6112ea565b155b9050919050565b6000806301ffc9a760e01b836040516024016113069190611678565b604051602081830303815290604052907bffffffffffffffffffffffffffffffffffffffffffffffffffffffff19166020820180517bffffffffffffffffffffffffffffffffffffffffffffffffffffffff838183161783525050505090506000808573ffffffffffffffffffffffffffffffffffffffff16617530846040516113909190612418565b6000604051808303818686fa925050503d80600081146113cc576040519150601f19603f3d011682016040523d82523d6000602084013e6113d1565b606091505b50915091506020815110156113ec576000935050505061140f565b818015611409575080806020019051810190611408919061242f565b5b93505050505b92915050565b60006040517f3d602d80600a3d3981f3363d3d373d3d3d363d7300000000000000000000000081528260601b60148201527f5af43d82803e903d91602b57fd5bf3000000000000000000000000000000000060288201526037816000f0915050600073ffffffffffffffffffffffffffffffffffffffff168173ffffffffffffffffffffffffffffffffffffffff1614156114e5576040517f08c379a00000000000000000000000000000000000000000000000000000000081526004016114dc906124a8565b60405180910390fd5b919050565b6001829080600181540180825580915050600190039060005260206000200160009091909190916101000a81548173ffffffffffffffffffffffffffffffffffffffff021916908373ffffffffffffffffffffffffffffffffffffffff160217905550611555610f46565b73ffffffffffffffffffffffffffffffffffffffff168173ffffffffffffffffffffffffffffffffffffffff168373ffffffffffffffffffffffffffffffffffffffff167f8c75f4071015d50d2c359adfd6f3357f8a08a0599bab2c49812887d077cb60586115c26107f6565b6040516115cf9190611c9d565b60405180910390a45050565b6040518060c00160405280600073ffffffffffffffffffffffffffffffffffffffff16815260200160008152602001600073ffffffffffffffffffffffffffffffffffffffff1681526020016060815260200160608152602001600081525090565b60007fffffffff0000000000000000000000000000000000000000000000000000000082169050919050565b6116728161163d565b82525050565b600060208201905061168d6000830184611669565b92915050565b600060ff82169050919050565b6116a981611693565b82525050565b60006020820190506116c460008301846116a0565b92915050565b6000604051905090565b600080fd5b600080fd5b600073ffffffffffffffffffffffffffffffffffffffff82169050919050565b6000611709826116de565b9050919050565b611719816116fe565b811461172457600080fd5b50565b60008135905061173681611710565b92915050565b600060208284031215611752576117516116d4565b5b600061176084828501611727565b91505092915050565b600081519050919050565b600082825260208201905092915050565b6000819050602082019050919050565b61179e816116fe565b82525050565b6000819050919050565b6117b7816117a4565b82525050565b600081519050919050565b600082825260208201905092915050565b60005b838110156117f75780820151818401526020810190506117dc565b83811115611806576000848401525b50505050565b6000601f19601f8301169050919050565b6000611828826117bd565b61183281856117c8565b93506118428185602086016117d9565b61184b8161180c565b840191505092915050565b600060c08301600083015161186e6000860182611795565b50602083015161188160208601826117ae565b5060408301516118946040860182611795565b50606083015184820360608601526118ac828261181d565b915050608083015184820360808601526118c6828261181d565b91505060a08301516118db60a08601826117ae565b508091505092915050565b60006118f28383611856565b905092915050565b6000602082019050919050565b600061191282611769565b61191c8185611774565b93508360208202850161192e85611785565b8060005b8581101561196a578484038952815161194b85826118e6565b9450611956836118fa565b925060208a01995050600181019050611932565b50829750879550505050505092915050565b600060208201905081810360008301526119968184611907565b905092915050565b600080fd5b600080fd5b7f4e487b7100000000000000000000000000000000000000000000000000000000600052604160045260246000fd5b6119e08261180c565b810181811067ffffffffffffffff821117156119ff576119fe6119a8565b5b80604052505050565b6000611a126116ca565b9050611a1e82826119d7565b919050565b600067ffffffffffffffff821115611a3e57611a3d6119a8565b5b611a478261180c565b9050602081019050919050565b82818337600083830152505050565b6000611a76611a7184611a23565b611a08565b905082815260208101848484011115611a9257611a916119a3565b5b611a9d848285611a54565b509392505050565b600082601f830112611aba57611ab961199e565b5b8135611aca848260208601611a63565b91505092915050565b600080600060608486031215611aec57611aeb6116d4565b5b600084013567ffffffffffffffff811115611b0a57611b096116d9565b5b611b1686828701611aa5565b935050602084013567ffffffffffffffff811115611b3757611b366116d9565b5b611b4386828701611aa5565b9250506040611b5486828701611727565b9150509250925092565b611b67816116fe565b82525050565b6000602082019050611b826000830184611b5e565b92915050565b600080fd5b600080fd5b60008083601f840112611ba857611ba761199e565b5b8235905067ffffffffffffffff811115611bc557611bc4611b88565b5b602083019150836020820283011115611be157611be0611b8d565b5b9250929050565b60008060208385031215611bff57611bfe6116d4565b5b600083013567ffffffffffffffff811115611c1d57611c1c6116d9565b5b611c2985828601611b92565b92509250509250929050565b611c3e816117a4565b8114611c4957600080fd5b50565b600081359050611c5b81611c35565b92915050565b600060208284031215611c7757611c766116d4565b5b6000611c8584828501611c4c565b91505092915050565b611c97816117a4565b82525050565b6000602082019050611cb26000830184611c8e565b92915050565b60008060408385031215611ccf57611cce6116d4565b5b6000611cdd85828601611727565b9250506020611cee85828601611727565b9150509250929050565b600060c083016000830151611d106000860182611795565b506020830151611d2360208601826117ae565b506040830151611d366040860182611795565b5060608301518482036060860152611d4e828261181d565b91505060808301518482036080860152611d68828261181d565b91505060a0830151611d7d60a08601826117ae565b508091505092915050565b60006020820190508181036000830152611da28184611cf8565b905092915050565b7f4e487b7100000000000000000000000000000000000000000000000000000000600052603260045260246000fd5b7f4e487b7100000000000000000000000000000000000000000000000000000000600052601160045260246000fd5b6000611e13826117a4565b9150611e1e836117a4565b9250827fffffffffffffffffffffffffffffffffffffffffffffffffffffffffffffffff03821115611e5357611e52611dd9565b5b828201905092915050565b600082825260208201905092915050565b7f54656d706c617465206973206e6f74204f70656e204e46547320636f6e74726160008201527f6374000000000000000000000000000000000000000000000000000000000000602082015250565b6000611ecb602283611e5e565b9150611ed682611e6f565b604082019050919050565b60006020820190508181036000830152611efa81611ebe565b9050919050565b6000611f0c826117bd565b611f168185611e5e565b9350611f268185602086016117d9565b611f2f8161180c565b840191505092915050565b60008115159050919050565b611f4f81611f3a565b82525050565b60006080820190508181036000830152611f6f8187611f01565b90508181036020830152611f838186611f01565b9050611f926040830185611b5e565b611f9f6060830184611f46565b95945050505050565b7f4f776e61626c653a2063616c6c6572206973206e6f7420746865206f776e6572600082015250565b6000611fde602083611e5e565b9150611fe982611fa8565b602082019050919050565b6000602082019050818103600083015261200d81611fd1565b9050919050565b7f4f776e61626c653a206e6577206f776e657220697320746865207a65726f206160008201527f6464726573730000000000000000000000000000000000000000000000000000602082015250565b6000612070602683611e5e565b915061207b82612014565b604082019050919050565b6000602082019050818103600083015261209f81612063565b9050919050565b6000815190506120b581611c35565b92915050565b6000602082840312156120d1576120d06116d4565b5b60006120df848285016120a6565b91505092915050565b60006120fb6120f684611a23565b611a08565b905082815260208101848484011115612117576121166119a3565b5b6121228482856117d9565b509392505050565b600082601f83011261213f5761213e61199e565b5b815161214f8482602086016120e8565b91505092915050565b60006020828403121561216e5761216d6116d4565b5b600082015167ffffffffffffffff81111561218c5761218b6116d9565b5b6121988482850161212a565b91505092915050565b6000815190506121b081611710565b92915050565b6000602082840312156121cc576121cb6116d4565b5b60006121da848285016121a1565b91505092915050565b7f416464726573733a20696e73756666696369656e742062616c616e6365000000600082015250565b6000612219601d83611e5e565b9150612224826121e3565b602082019050919050565b600060208201905081810360008301526122488161220c565b9050919050565b600081905092915050565b50565b600061226a60008361224f565b91506122758261225a565b600082019050919050565b600061228b8261225d565b9150819050919050565b7f416464726573733a20756e61626c6520746f2073656e642076616c75652c207260008201527f6563697069656e74206d61792068617665207265766572746564000000000000602082015250565b60006122f1603a83611e5e565b91506122fc82612295565b604082019050919050565b60006020820190508181036000830152612320816122e4565b9050919050565b61233081611f3a565b811461233b57600080fd5b50565b60008151905061234d81612327565b92915050565b6000806040838503121561236a576123696116d4565b5b60006123788582860161233e565b9250506020612389858286016121a1565b9150509250929050565b600061239e826117a4565b91507fffffffffffffffffffffffffffffffffffffffffffffffffffffffffffffffff8214156123d1576123d0611dd9565b5b600182019050919050565b600081519050919050565b60006123f2826123dc565b6123fc818561224f565b935061240c8185602086016117d9565b80840191505092915050565b600061242482846123e7565b915081905092915050565b600060208284031215612445576124446116d4565b5b60006124538482850161233e565b91505092915050565b7f455243313136373a20637265617465206661696c656400000000000000000000600082015250565b6000612492601683611e5e565b915061249d8261245c565b602082019050919050565b600060208201905081810360008301526124c181612485565b905091905056fea2646970667358221220a30824b21e569bff5073159ef86898355c597aa0c3b26c30878d5dc1dbf7f45264736f6c63430008090033",
  "devdoc": {
    "details": "is CloneFactory",
    "kind": "dev",
    "methods": {
      "balanceOf(address,address)": {
        "params": {
          "nft": "nft address of NFT collection",
          "owner": "address of account"
        },
        "returns": {
          "nftData": "nftData balances"
        }
      },
      "balancesOf(address)": {
        "params": {
          "addr": "address of account"
        },
        "returns": {
          "nftData": "Array of nftData balances"
        }
      },
      "clone(string,string,address)": {
        "params": {
          "name_": "name of Clone collection",
          "symbol_": "symbol of Clone collection"
        },
        "returns": {
          "clone_": "Address of Clone collection"
        }
      },
      "implementationsAdd(address[])": {
        "params": {
          "newImplementations": ": new implementations addresses"
        }
      },
      "implementationsCount()": {
        "returns": {
          "_0": "count : number of implementations"
        }
      },
      "owner()": {
        "details": "Returns the address of the current owner."
      },
      "renounceOwnership()": {
        "details": "Leaves the contract without owner. It will not be possible to call `onlyOwner` functions anymore. Can only be called by the current owner. NOTE: Renouncing ownership will leave the contract without an owner, thereby removing any functionality that is only available to the owner."
      },
      "transferOwnership(address)": {
        "details": "Transfers ownership of the contract to a new account (`newOwner`). Can only be called by the current owner."
      }
    },
    "title": "NFTsFactory smartcontract",
    "version": 1
  },
  "userdoc": {
    "events": {
      "ImplementationNew(address,address,address,uint256)": {
        "notice": "New Implemention Event"
      }
    },
    "kind": "user",
    "methods": {
      "balanceOf(address,address)": {
        "notice": "balanceOf"
      },
      "balancesOf(address)": {
        "notice": "balancesOf address"
      },
      "clone(string,string,address)": {
        "notice": "clone template"
      },
      "constructor": {
        "notice": "Constratuctor"
      },
      "implementations(uint256)": {
        "notice": "Implementations addresses"
      },
      "implementationsAdd(address[])": {
        "notice": "ADD Implementations public onlyOwner"
      },
      "implementationsCount()": {
        "notice": "Implementations count"
      },
      "withdrawEther()": {
        "notice": "withdrawEther"
      }
    },
    "version": 1
  },
  "storageLayout": {
    "storage": [
      {
        "astId": 490,
        "contract": "contracts/NFTsFactoryV2.sol:NFTsFactoryV2",
        "label": "_owner",
        "offset": 0,
        "slot": "0",
        "type": "t_address"
      },
      {
        "astId": 1387,
        "contract": "contracts/NFTsFactoryV2.sol:NFTsFactoryV2",
        "label": "implementations",
        "offset": 0,
        "slot": "1",
        "type": "t_array(t_address)dyn_storage"
      }
    ],
    "types": {
      "t_address": {
        "encoding": "inplace",
        "label": "address",
        "numberOfBytes": "20"
      },
      "t_array(t_address)dyn_storage": {
        "base": "t_address",
        "encoding": "dynamic_array",
        "label": "address[]",
        "numberOfBytes": "32"
      }
    }
  }
}