{
  "address": "0x41889a04aA7c157d426A40350245A96754a52D2A",
  "abi": [
    {
      "inputs": [
        {
          "internalType": "address",
          "name": "initialOwner",
          "type": "address"
        }
      ],
      "stateMutability": "nonpayable",
      "type": "constructor"
    },
    {
      "anonymous": false,
      "inputs": [
        {
          "indexed": true,
          "internalType": "string",
          "name": "templateName",
          "type": "string"
        },
        {
          "indexed": true,
          "internalType": "address",
          "name": "clone",
          "type": "address"
        },
        {
          "indexed": true,
          "internalType": "string",
          "name": "name",
          "type": "string"
        },
        {
          "indexed": false,
          "internalType": "string",
          "name": "symbol",
          "type": "string"
        },
        {
          "indexed": false,
          "internalType": "bool[]",
          "name": "options",
          "type": "bool[]"
        }
      ],
      "name": "Clone",
      "type": "event"
    },
    {
      "anonymous": false,
      "inputs": [
        {
          "indexed": true,
          "internalType": "address",
          "name": "previousOwner",
          "type": "address"
        },
        {
          "indexed": true,
          "internalType": "address",
          "name": "newOwner",
          "type": "address"
        }
      ],
      "name": "OwnershipTransferred",
      "type": "event"
    },
    {
      "anonymous": false,
      "inputs": [
        {
          "indexed": true,
          "internalType": "address",
          "name": "resolver",
          "type": "address"
        }
      ],
      "name": "SetResolver",
      "type": "event"
    },
    {
      "anonymous": false,
      "inputs": [
        {
          "indexed": true,
          "internalType": "string",
          "name": "templateName",
          "type": "string"
        },
        {
          "indexed": true,
          "internalType": "address",
          "name": "template",
          "type": "address"
        },
        {
          "indexed": false,
          "internalType": "uint256",
          "name": "index",
          "type": "uint256"
        }
      ],
      "name": "SetTemplate",
      "type": "event"
    },
    {
      "inputs": [
        {
          "internalType": "string",
          "name": "name",
          "type": "string"
        },
        {
          "internalType": "string",
          "name": "symbol",
          "type": "string"
        },
        {
          "internalType": "string",
          "name": "templateName",
          "type": "string"
        },
        {
          "internalType": "bool[]",
          "name": "options",
          "type": "bool[]"
        }
      ],
      "name": "clone",
      "outputs": [
        {
          "internalType": "address",
          "name": "clone_",
          "type": "address"
        }
      ],
      "stateMutability": "nonpayable",
      "type": "function"
    },
    {
      "inputs": [],
      "name": "countTemplates",
      "outputs": [
        {
          "internalType": "uint256",
          "name": "count",
          "type": "uint256"
        }
      ],
      "stateMutability": "view",
      "type": "function"
    },
    {
      "inputs": [],
      "name": "nftsResolver",
      "outputs": [
        {
          "internalType": "address",
          "name": "",
          "type": "address"
        }
      ],
      "stateMutability": "view",
      "type": "function"
    },
    {
      "inputs": [],
      "name": "owner",
      "outputs": [
        {
          "internalType": "address",
          "name": "",
          "type": "address"
        }
      ],
      "stateMutability": "view",
      "type": "function"
    },
    {
      "inputs": [
        {
          "internalType": "address",
          "name": "resolver_",
          "type": "address"
        }
      ],
      "name": "setResolver",
      "outputs": [],
      "stateMutability": "nonpayable",
      "type": "function"
    },
    {
      "inputs": [
        {
          "internalType": "string",
          "name": "templateName_",
          "type": "string"
        },
        {
          "internalType": "address",
          "name": "template_",
          "type": "address"
        }
      ],
      "name": "setTemplate",
      "outputs": [],
      "stateMutability": "nonpayable",
      "type": "function"
    },
    {
      "inputs": [
        {
          "internalType": "bytes4",
          "name": "interfaceId",
          "type": "bytes4"
        }
      ],
      "name": "supportsInterface",
      "outputs": [
        {
          "internalType": "bool",
          "name": "",
          "type": "bool"
        }
      ],
      "stateMutability": "view",
      "type": "function"
    },
    {
      "inputs": [
        {
          "internalType": "string",
          "name": "templateName",
          "type": "string"
        }
      ],
      "name": "template",
      "outputs": [
        {
          "internalType": "address",
          "name": "template_",
          "type": "address"
        }
      ],
      "stateMutability": "view",
      "type": "function"
    },
    {
      "inputs": [
        {
          "internalType": "uint256",
          "name": "",
          "type": "uint256"
        }
      ],
      "name": "templates",
      "outputs": [
        {
          "internalType": "address",
          "name": "",
          "type": "address"
        }
      ],
      "stateMutability": "view",
      "type": "function"
    },
    {
      "inputs": [
        {
          "internalType": "address",
          "name": "newOwner",
          "type": "address"
        }
      ],
      "name": "transferOwnership",
      "outputs": [],
      "stateMutability": "nonpayable",
      "type": "function"
    }
  ],
  "transactionHash": "0x464fb7a95c743d72a19e36d4b600de00b77d18dd2915a2c98d3a934209d991b1",
  "args": [
    "0x6eebAe27d69fa80f0E4C0E973A2Fed218A56880c"
  ],
  "numDeployments": 1,
  "solcInputHash": "3789fdb502de651c8e903f044c0d64cc",
  "bytecode": "0x608060405234801561001057600080fd5b50604051610f26380380610f2683398101604081905261002f916100a1565b6100428161004860201b61087f1760201c565b506100d1565b600080546001600160a01b03838116610100818102610100600160a81b0319851617855560405193049190911692909183917f8be0079c531659141344cd1fd0a4f28419497f9722a3daafe3b4186f6b6457e091a35050565b6000602082840312156100b357600080fd5b81516001600160a01b03811681146100ca57600080fd5b9392505050565b610e46806100e06000396000f3fe608060405234801561001057600080fd5b506004361061009e5760003560e01c806370e141951161006657806370e141951461012f578063848ec03c146101425780638da5cb5b14610155578063bc5256521461016b578063f2fde38b1461017e57600080fd5b806301ffc9a7146100a357806307caa21e146100cb5780631ada40fb146100e05780631b6740dd146100f15780634e543b261461011c575b600080fd5b6100b66100b136600461093c565b610191565b60405190151581526020015b60405180910390f35b6100de6100d9366004610a3b565b6101c8565b005b6002546040519081526020016100c2565b6101046100ff366004610a97565b61056d565b6040516001600160a01b0390911681526020016100c2565b6100de61012a366004610bb2565b6106c4565b61010461013d366004610bcd565b61073d565b600354610104906001600160a01b031681565b60005461010090046001600160a01b0316610104565b610104610179366004610c0a565b61081a565b6100de61018c366004610bb2565b610844565b60006307f5828d60e41b6001600160e01b0319831614806101c257506001600160e01b031982166301ffc9a760e01b145b92915050565b60005461010090046001600160a01b031633146102005760405162461bcd60e51b81526004016101f790610c23565b60405180910390fd5b6040516301ffc9a760e01b8152632e5e69fd60e01b60048201526001600160a01b038216906301ffc9a79060240160206040518083038186803b15801561024657600080fd5b505afa15801561025a573d6000803e3d6000fd5b505050506040513d601f19601f8201168201806040525081019061027e9190610c46565b6102be5760405162461bcd60e51b81526020600482015260116024820152704e6f74204f70656e436c6f6e6561626c6560781b60448201526064016101f7565b806001600160a01b031663158ef93e6040518163ffffffff1660e01b815260040160206040518083038186803b1580156102f757600080fd5b505afa15801561030b573d6000803e3d6000fd5b505050506040513d601f19601f8201168201806040525081019061032f9190610c46565b61036d5760405162461bcd60e51b815260206004820152600f60248201526e139bdd081a5b9a5d1a585b1a5e9959608a1b60448201526064016101f7565b806001600160a01b03163b602d14156103c85760405162461bcd60e51b815260206004820152601860248201527f436c6f6e65206e6f742076616c69642074656d706c617465000000000000000060448201526064016101f7565b60006001836040516103da9190610c93565b90815260200160405180910390205490506001811061044457816002610401600184610caf565b8154811061041157610411610cd4565b9060005260206000200160006101000a8154816001600160a01b0302191690836001600160a01b031602179055506104b7565b50600280546001808201835560008390527f405787fa12a823e0f2b7631cc41b3ba8828b3321ca811111fa75cd3aa3bb5ace90910180546001600160a01b0319166001600160a01b0385161790559054604051909182916104a6908690610c93565b908152604051908190036020019020555b600354604051630e3ab68760e21b81526001600160a01b038481166004830152909116906338eada1c90602401600060405180830381600087803b1580156104fe57600080fd5b505af1158015610512573d6000803e3d6000fd5b50505050816001600160a01b03168360405161052e9190610c93565b604051908190038120838252907f9a1bc68d29ae4a678ea14888c65dd019ada583b85f33e2483dae925e470d0d709060200160405180910390a3505050565b600061058061057b8461073d565b6108d8565b60405163e97186ef60e01b81529091506001600160a01b0382169063e97186ef906105bc90889088903390600090819081908b90600401610d53565b600060405180830381600087803b1580156105d657600080fd5b505af11580156105ea573d6000803e3d6000fd5b5050600354604051630e3ab68760e21b81526001600160a01b03858116600483015290911692506338eada1c9150602401600060405180830381600087803b15801561063557600080fd5b505af1158015610649573d6000803e3d6000fd5b505050508460405161065b9190610c93565b6040518091039020816001600160a01b03168460405161067b9190610c93565b60405180910390207f47dffa4abe4944e571737fcce75f2945226cf091ddb792b72a5794fa67450a6887866040516106b4929190610dcc565b60405180910390a4949350505050565b60005461010090046001600160a01b031633146106f35760405162461bcd60e51b81526004016101f790610c23565b600380546001600160a01b0319166001600160a01b0383169081179091556040517ff811902d0aa96fa0dd89bebe8fc3818fa2132b9437abc92ed35639cc82da6d7c90600090a250565b6000806001836040516107509190610c93565b908152602001604051809103902054905060018110156107a55760405162461bcd60e51b815260206004820152601060248201526f496e76616c69642054656d706c61746560801b60448201526064016101f7565b60026107b2600183610caf565b815481106107c2576107c2610cd4565b6000918252602090912001546001600160a01b03169150816108145760405162461bcd60e51b815260206004820152600b60248201526a4e6f2054656d706c61746560a81b60448201526064016101f7565b50919050565b6002818154811061082a57600080fd5b6000918252602090912001546001600160a01b0316905081565b60005461010090046001600160a01b031633146108735760405162461bcd60e51b81526004016101f790610c23565b61087c8161087f565b50565b600080546001600160a01b03838116610100818102610100600160a81b0319851617855560405193049190911692909183917f8be0079c531659141344cd1fd0a4f28419497f9722a3daafe3b4186f6b6457e091a35050565b6000604051733d602d80600a3d3981f3363d3d373d3d3d363d7360601b81528260601b60148201526e5af43d82803e903d91602b57fd5bf360881b60288201526037816000f09150506001600160a01b03811661093757610937610dfa565b919050565b60006020828403121561094e57600080fd5b81356001600160e01b03198116811461096657600080fd5b9392505050565b634e487b7160e01b600052604160045260246000fd5b604051601f8201601f1916810167ffffffffffffffff811182821017156109ac576109ac61096d565b604052919050565b600082601f8301126109c557600080fd5b813567ffffffffffffffff8111156109df576109df61096d565b6109f2601f8201601f1916602001610983565b818152846020838601011115610a0757600080fd5b816020850160208301376000918101602001919091529392505050565b80356001600160a01b038116811461093757600080fd5b60008060408385031215610a4e57600080fd5b823567ffffffffffffffff811115610a6557600080fd5b610a71858286016109b4565b925050610a8060208401610a24565b90509250929050565b801515811461087c57600080fd5b60008060008060808587031215610aad57600080fd5b843567ffffffffffffffff80821115610ac557600080fd5b610ad1888389016109b4565b9550602091508187013581811115610ae857600080fd5b610af489828a016109b4565b955050604087013581811115610b0957600080fd5b610b1589828a016109b4565b945050606087013581811115610b2a57600080fd5b8701601f81018913610b3b57600080fd5b803582811115610b4d57610b4d61096d565b8060051b9250610b5e848401610983565b818152928201840192848101908b851115610b7857600080fd5b928501925b84841015610ba25783359250610b9283610a89565b8282529285019290850190610b7d565b989b979a50959850505050505050565b600060208284031215610bc457600080fd5b61096682610a24565b600060208284031215610bdf57600080fd5b813567ffffffffffffffff811115610bf657600080fd5b610c02848285016109b4565b949350505050565b600060208284031215610c1c57600080fd5b5035919050565b6020808252600990820152682737ba1037bbb732b960b91b604082015260600190565b600060208284031215610c5857600080fd5b815161096681610a89565b60005b83811015610c7e578181015183820152602001610c66565b83811115610c8d576000848401525b50505050565b60008251610ca5818460208701610c63565b9190910192915050565b600082821015610ccf57634e487b7160e01b600052601160045260246000fd5b500390565b634e487b7160e01b600052603260045260246000fd5b60008151808452610d02816020860160208601610c63565b601f01601f19169290920160200192915050565b600081518084526020808501945080840160005b83811015610d48578151151587529582019590820190600101610d2a565b509495945050505050565b60e081526000610d6660e083018a610cea565b8281036020840152610d78818a610cea565b6001600160a01b03898116604086015260608501899052871660808501526bffffffffffffffffffffffff861660a085015283810360c08501529050610dbe8185610d16565b9a9950505050505050505050565b604081526000610ddf6040830185610cea565b8281036020840152610df18185610d16565b95945050505050565b634e487b7160e01b600052600160045260246000fdfea26469706673582212205f4eaa5c5415708bc67449788994a1cc4331677374476baa6413695522408efe64736f6c63430008090033",
  "devdoc": {
    "details": "is CloneFactory",
    "kind": "dev",
    "methods": {
      "clone(string,string,string,bool[])": {
        "params": {
          "name": "name of Clone collection",
          "symbol": "symbol of Clone collection"
        },
        "returns": {
          "clone_": "Address of Clone collection"
        }
      },
      "setTemplate(string,address)": {
        "params": {
          "templateName_": "Name of the template",
          "template_": "Address of the template"
        }
      },
      "template(string)": {
        "params": {
          "templateName": ": template name"
        },
        "returns": {
          "template_": ": template address"
        }
      }
    },
    "title": "NFTsFactory smartcontract",
    "version": 1
  },
  "userdoc": {
    "kind": "user",
    "methods": {
      "clone(string,string,string,bool[])": {
        "notice": "clone template"
      },
      "setTemplate(string,address)": {
        "notice": "Set Template by Name"
      },
      "template(string)": {
        "notice": "Get Template"
      }
    },
    "notice": "Templates are OPEN_NFTS contractsImplementations are ERC721 contracts (including OPEN_NFTS clones)Factory can clone OPEN_NFTs templates to implementationsFactory can also add ERC721 contracts to implementations",
    "version": 1
  },
  "storageLayout": {
    "storage": [
      {
        "astId": 6531,
        "contract": "contracts/next/NFTsFactoryV3.sol:NFTsFactoryV3",
        "label": "_openERC173Initialized",
        "offset": 0,
        "slot": "0",
        "type": "t_bool"
      },
      {
        "astId": 6533,
        "contract": "contracts/next/NFTsFactoryV3.sol:NFTsFactoryV3",
        "label": "_owner",
        "offset": 1,
        "slot": "0",
        "type": "t_address"
      },
      {
        "astId": 19405,
        "contract": "contracts/next/NFTsFactoryV3.sol:NFTsFactoryV3",
        "label": "_numTemplates",
        "offset": 0,
        "slot": "1",
        "type": "t_mapping(t_string_memory_ptr,t_uint256)"
      },
      {
        "astId": 19408,
        "contract": "contracts/next/NFTsFactoryV3.sol:NFTsFactoryV3",
        "label": "templates",
        "offset": 0,
        "slot": "2",
        "type": "t_array(t_address)dyn_storage"
      },
      {
        "astId": 19410,
        "contract": "contracts/next/NFTsFactoryV3.sol:NFTsFactoryV3",
        "label": "nftsResolver",
        "offset": 0,
        "slot": "3",
        "type": "t_address"
      }
    ],
    "types": {
      "t_address": {
        "encoding": "inplace",
        "label": "address",
        "numberOfBytes": "20"
      },
      "t_array(t_address)dyn_storage": {
        "base": "t_address",
        "encoding": "dynamic_array",
        "label": "address[]",
        "numberOfBytes": "32"
      },
      "t_bool": {
        "encoding": "inplace",
        "label": "bool",
        "numberOfBytes": "1"
      },
      "t_mapping(t_string_memory_ptr,t_uint256)": {
        "encoding": "mapping",
        "key": "t_string_memory_ptr",
        "label": "mapping(string => uint256)",
        "numberOfBytes": "32",
        "value": "t_uint256"
      },
      "t_string_memory_ptr": {
        "encoding": "bytes",
        "label": "string",
        "numberOfBytes": "32"
      },
      "t_uint256": {
        "encoding": "inplace",
        "label": "uint256",
        "numberOfBytes": "32"
      }
    }
  }
}