{
  "address": "0x7432d9463519571948c599ac06ECAA02D76cE8FF",
  "abi": [
    {
      "inputs": [
        {
          "internalType": "address",
          "name": "initialOwner",
          "type": "address"
        }
      ],
      "stateMutability": "nonpayable",
      "type": "constructor"
    },
    {
      "anonymous": false,
      "inputs": [
        {
          "indexed": true,
          "internalType": "address",
          "name": "implementation",
          "type": "address"
        },
        {
          "indexed": true,
          "internalType": "address",
          "name": "creator",
          "type": "address"
        },
        {
          "indexed": false,
          "internalType": "uint256",
          "name": "index",
          "type": "uint256"
        }
      ],
      "name": "ImplementationNew",
      "type": "event"
    },
    {
      "anonymous": false,
      "inputs": [
        {
          "indexed": true,
          "internalType": "address",
          "name": "previousOwner",
          "type": "address"
        },
        {
          "indexed": true,
          "internalType": "address",
          "name": "newOwner",
          "type": "address"
        }
      ],
      "name": "OwnershipTransferred",
      "type": "event"
    },
    {
      "anonymous": false,
      "inputs": [
        {
          "indexed": true,
          "internalType": "string",
          "name": "templateName",
          "type": "string"
        },
        {
          "indexed": true,
          "internalType": "address",
          "name": "template",
          "type": "address"
        }
      ],
      "name": "TemplateSet",
      "type": "event"
    },
    {
      "inputs": [],
      "name": "VERSION",
      "outputs": [
        {
          "internalType": "uint8",
          "name": "",
          "type": "uint8"
        }
      ],
      "stateMutability": "view",
      "type": "function"
    },
    {
      "inputs": [
        {
          "internalType": "address",
          "name": "addr",
          "type": "address"
        }
      ],
      "name": "balancesOf",
      "outputs": [
        {
          "components": [
            {
              "internalType": "address",
              "name": "nft",
              "type": "address"
            },
            {
              "internalType": "uint256",
              "name": "balanceOf",
              "type": "uint256"
            },
            {
              "internalType": "address",
              "name": "owner",
              "type": "address"
            },
            {
              "internalType": "string",
              "name": "name",
              "type": "string"
            },
            {
              "internalType": "string",
              "name": "symbol",
              "type": "string"
            },
            {
              "internalType": "uint256",
              "name": "totalSupply",
              "type": "uint256"
            }
          ],
          "internalType": "struct INFTsFactoryV2.NftData[]",
          "name": "nftData",
          "type": "tuple[]"
        }
      ],
      "stateMutability": "view",
      "type": "function"
    },
    {
      "inputs": [
        {
          "internalType": "string",
          "name": "name",
          "type": "string"
        },
        {
          "internalType": "string",
          "name": "symbol",
          "type": "string"
        },
        {
          "internalType": "string",
          "name": "templateName",
          "type": "string"
        },
        {
          "internalType": "bool[]",
          "name": "options",
          "type": "bool[]"
        }
      ],
      "name": "clone",
      "outputs": [
        {
          "internalType": "address",
          "name": "clone_",
          "type": "address"
        }
      ],
      "stateMutability": "nonpayable",
      "type": "function"
    },
    {
      "inputs": [
        {
          "internalType": "uint256",
          "name": "",
          "type": "uint256"
        }
      ],
      "name": "implementations",
      "outputs": [
        {
          "internalType": "address",
          "name": "",
          "type": "address"
        }
      ],
      "stateMutability": "view",
      "type": "function"
    },
    {
      "inputs": [
        {
          "internalType": "address[]",
          "name": "implementationsToAdd",
          "type": "address[]"
        }
      ],
      "name": "implementationsAdd",
      "outputs": [],
      "stateMutability": "nonpayable",
      "type": "function"
    },
    {
      "inputs": [],
      "name": "implementationsCount",
      "outputs": [
        {
          "internalType": "uint256",
          "name": "",
          "type": "uint256"
        }
      ],
      "stateMutability": "view",
      "type": "function"
    },
    {
      "inputs": [],
      "name": "implementationsList",
      "outputs": [
        {
          "internalType": "address[]",
          "name": "",
          "type": "address[]"
        }
      ],
      "stateMutability": "view",
      "type": "function"
    },
    {
      "inputs": [],
      "name": "owner",
      "outputs": [
        {
          "internalType": "address",
          "name": "",
          "type": "address"
        }
      ],
      "stateMutability": "view",
      "type": "function"
    },
    {
      "inputs": [],
      "name": "renounceOwnership",
      "outputs": [],
      "stateMutability": "nonpayable",
      "type": "function"
    },
    {
      "inputs": [
        {
          "internalType": "string",
          "name": "templateName",
          "type": "string"
        },
        {
          "internalType": "address",
          "name": "template",
          "type": "address"
        }
      ],
      "name": "templateSet",
      "outputs": [],
      "stateMutability": "nonpayable",
      "type": "function"
    },
    {
      "inputs": [
        {
          "internalType": "string",
          "name": "",
          "type": "string"
        }
      ],
      "name": "templates",
      "outputs": [
        {
          "internalType": "address",
          "name": "",
          "type": "address"
        }
      ],
      "stateMutability": "view",
      "type": "function"
    },
    {
      "inputs": [
        {
          "internalType": "address",
          "name": "newOwner",
          "type": "address"
        }
      ],
      "name": "transferOwnership",
      "outputs": [],
      "stateMutability": "nonpayable",
      "type": "function"
    }
  ],
  "transactionHash": "0xff78758f3e1dfa8601d30a06cce2facd8356b7275800ad1d3ea5b58fc4efda63",
  "args": [
    "0x6eebAe27d69fa80f0E4C0E973A2Fed218A56880c"
  ],
  "numDeployments": 5,
  "solcInputHash": "32b16145813c155f5314bbd6da1a9eaf",
  "bytecode": "0x608060405234801561001057600080fd5b506040516200175f3803806200175f83398101604081905261003191610099565b61003a33610049565b61004381610049565b506100c9565b600080546001600160a01b038381166001600160a01b0319831681178455604051919092169283917f8be0079c531659141344cd1fd0a4f28419497f9722a3daafe3b4186f6b6457e09190a35050565b6000602082840312156100ab57600080fd5b81516001600160a01b03811681146100c257600080fd5b9392505050565b61168680620000d96000396000f3fe608060405234801561001057600080fd5b50600436106100b45760003560e01c80638da5cb5b116100715780638da5cb5b14610152578063b22beeda14610163578063ba6da05014610197578063c17bae4f146101aa578063f2fde38b146101bb578063ffa1ad74146101ce57600080fd5b8063113da2f2146100b95780631b6740dd146100d75780636392a51f14610102578063715018a61461012257806382a1db391461012c578063845affc81461013f575b600080fd5b6100c16101e8565b6040516100ce9190610f5c565b60405180910390f35b6100ea6100e536600461107c565b61024a565b6040516001600160a01b0390911681526020016100ce565b6101156101103660046111ac565b6102c4565b6040516100ce9190611225565b61012a610391565b005b61012a61013a3660046112e6565b6103d0565b6100ea61014d36600461135b565b61044b565b6000546001600160a01b03166100ea565b6100ea610171366004611374565b80516020818301810180516002825292820191909301209152546001600160a01b031681565b61012a6101a53660046113b1565b610475565b6001546040519081526020016100ce565b61012a6101c93660046111ac565b61050f565b6101d6600281565b60405160ff90911681526020016100ce565b6060600180548060200260200160405190810160405280929190818152602001828054801561024057602002820191906000526020600020905b81546001600160a01b03168152600190910190602001808311610222575b5050505050905090565b6000610255836105aa565b604051630a9c216960e31b81529091506001600160a01b038216906354e10b489061028a908890889033908890600401611434565b600060405180830381600087803b1580156102a457600080fd5b505af11580156102b8573d6000803e3d6000fd5b50505050949350505050565b60015460609067ffffffffffffffff8111156102e2576102e2610fa9565b60405190808252806020026020018201604052801561031b57816020015b610308610f14565b8152602001906001900390816103005790505b50905060005b60015481101561038b5761035c60018281548110610341576103416114af565b6000918252602090912001546001600160a01b0316846105cd565b82828151811061036e5761036e6114af565b60209081029190910101526103846001826114db565b9050610321565b50919050565b6000546001600160a01b031633146103c45760405162461bcd60e51b81526004016103bb906114f3565b60405180910390fd5b6103ce60006109ed565b565b6000546001600160a01b031633146103fa5760405162461bcd60e51b81526004016103bb906114f3565b60005b818110156104465761043483838381811061041a5761041a6114af565b905060200201602081019061042f91906111ac565b610a3d565b61043f6001826114db565b90506103fd565b505050565b6001818154811061045b57600080fd5b6000918252602090912001546001600160a01b0316905081565b6000546001600160a01b0316331461049f5760405162461bcd60e51b81526004016103bb906114f3565b6104b86001600160a01b03821662f7235960e21b610a99565b6105045760405162461bcd60e51b815260206004820152601b60248201527f4e6f742076616c6964204f70656e4e4654732054656d706c617465000000000060448201526064016103bb565b610446838383610abe565b6000546001600160a01b031633146105395760405162461bcd60e51b81526004016103bb906114f3565b6001600160a01b03811661059e5760405162461bcd60e51b815260206004820152602660248201527f4f776e61626c653a206e6577206f776e657220697320746865207a65726f206160448201526564647265737360d01b60648201526084016103bb565b6105a7816109ed565b50565b60006105bd6105b883610b6c565b610c0d565b90506105c881610a3d565b919050565b6105d5610f14565b60408051600580825260c082019092526000916020820160a080368337505081519192506380ac58cd60e01b91839150600090610614576106146114af565b6001600160e01b031990921660209283029190910190910152805163780e9d6360e01b908290600190811061064b5761064b6114af565b6001600160e01b031990921660209283029190910190910152805163780e9d6360e01b9082906002908110610682576106826114af565b6001600160e01b03199092166020928302919091019091015280516307f5828d60e41b90829060039081106106b9576106b96114af565b6001600160e01b03199092166020928302919091019091015260006106e76001600160a01b03861683610ca5565b905080600060ff16815181106106ff576106ff6114af565b6020026020010151156109e5576001600160a01b038581168085526040516370a0823160e01b81529186166004830152906370a082319060240160206040518083038186803b15801561075157600080fd5b505afa158015610765573d6000803e3d6000fd5b505050506040513d601f19601f820116820180604052508101906107899190611528565b60208401528051819060019081106107a3576107a36114af565b6020026020010151156108a857846001600160a01b03166306fdde036040518163ffffffff1660e01b815260040160006040518083038186803b1580156107e957600080fd5b505afa1580156107fd573d6000803e3d6000fd5b505050506040513d6000823e601f3d908101601f191682016040526108259190810190611541565b8360600181905250846001600160a01b03166395d89b416040518163ffffffff1660e01b815260040160006040518083038186803b15801561086657600080fd5b505afa15801561087a573d6000803e3d6000fd5b505050506040513d6000823e601f3d908101601f191682016040526108a29190810190611541565b60808401525b80600260ff16815181106108be576108be6114af565b60200260200101511561094257846001600160a01b03166318160ddd6040518163ffffffff1660e01b815260040160206040518083038186803b15801561090457600080fd5b505afa158015610918573d6000803e3d6000fd5b505050506040513d601f19601f8201168201806040525081019061093c9190611528565b60a08401525b80600360ff1681518110610958576109586114af565b6020026020010151156109e557846001600160a01b0316638da5cb5b6040518163ffffffff1660e01b815260040160206040518083038186803b15801561099e57600080fd5b505afa1580156109b2573d6000803e3d6000fd5b505050506040513d601f19601f820116820180604052508101906109d691906115b8565b6001600160a01b031660408401525b505092915050565b600080546001600160a01b038381166001600160a01b0319831681178455604051919092169283917f8be0079c531659141344cd1fd0a4f28419497f9722a3daafe3b4186f6b6457e09190a35050565b610a576001600160a01b0382166380ac58cd60e01b610a99565b610a905760405162461bcd60e51b815260206004820152600a6024820152694e6f742045524337323160b01b60448201526064016103bb565b6105a781610d68565b6000610aa483610df8565b8015610ab55750610ab58383610e2b565b90505b92915050565b6000546001600160a01b03163314610ae85760405162461bcd60e51b81526004016103bb906114f3565b8060028484604051610afb9291906115d5565b90815260405190819003602001812080546001600160a01b039384166001600160a01b031990911617905590821690610b3790859085906115d5565b604051908190038120907f2e5d1f3ab97987d0ad3ab02a382994c388a94ba99ecd499e395c29e20775ab6690600090a3505050565b6000806001600160a01b0316600283604051610b8891906115e5565b908152604051908190036020019020546001600160a01b03161415610bde5760405162461bcd60e51b815260206004820152600c60248201526b4261642054656d706c61746560a01b60448201526064016103bb565b600282604051610bee91906115e5565b908152604051908190036020019020546001600160a01b031692915050565b6000604051733d602d80600a3d3981f3363d3d373d3d3d363d7360601b81528260601b60148201526e5af43d82803e903d91602b57fd5bf360881b60288201526037816000f09150506001600160a01b0381166105c85760405162461bcd60e51b8152602060048201526016602482015275115490cc4c4d8dce8818dc99585d194819985a5b195960521b60448201526064016103bb565b60606000825167ffffffffffffffff811115610cc357610cc3610fa9565b604051908082528060200260200182016040528015610cec578160200160208202803683370190505b509050610cf884610df8565b15610ab55760005b8351811015610d6057610d2c85858381518110610d1f57610d1f6114af565b6020026020010151610e2b565b828281518110610d3e57610d3e6114af565b9115156020928302919091019091015280610d5881611601565b915050610d00565b509392505050565b60018054808201825560008290527fb10e2d527612073b26eecdfd717e6a320cf44b4afac2b0732d9fcbe2b7fa0cf60180546001600160a01b0319166001600160a01b038416908117909155815433927fe1fd48e37080a338bebd722213e17521b8a454ab4f0ef1b1a487025d5191e7a191610de4919061161c565b60405190815260200160405180910390a350565b6000610e0b826301ffc9a760e01b610e2b565b8015610ab85750610e24826001600160e01b0319610e2b565b1592915050565b604080516001600160e01b0319831660248083019190915282518083039091018152604490910182526020810180516001600160e01b03166301ffc9a760e01b179052905160009190829081906001600160a01b0387169061753090610e929086906115e5565b6000604051808303818686fa925050503d8060008114610ece576040519150601f19603f3d011682016040523d82523d6000602084013e610ed3565b606091505b5091509150602081511015610eee5760009350505050610ab8565b818015610f0a575080806020019051810190610f0a9190611633565b9695505050505050565b6040518060c0016040528060006001600160a01b031681526020016000815260200160006001600160a01b031681526020016060815260200160608152602001600081525090565b6020808252825182820181905260009190848201906040850190845b81811015610f9d5783516001600160a01b031683529284019291840191600101610f78565b50909695505050505050565b634e487b7160e01b600052604160045260246000fd5b604051601f8201601f1916810167ffffffffffffffff81118282101715610fe857610fe8610fa9565b604052919050565b600067ffffffffffffffff82111561100a5761100a610fa9565b50601f01601f191660200190565b600082601f83011261102957600080fd5b813561103c61103782610ff0565b610fbf565b81815284602083860101111561105157600080fd5b816020850160208301376000918101602001919091529392505050565b80151581146105a757600080fd5b6000806000806080858703121561109257600080fd5b843567ffffffffffffffff808211156110aa57600080fd5b6110b688838901611018565b95506020915081870135818111156110cd57600080fd5b6110d989828a01611018565b9550506040870135818111156110ee57600080fd5b6110fa89828a01611018565b94505060608701358181111561110f57600080fd5b8701601f8101891361112057600080fd5b80358281111561113257611132610fa9565b8060051b9250611143848401610fbf565b818152928201840192848101908b85111561115d57600080fd5b928501925b8484101561118757833592506111778361106e565b8282529285019290850190611162565b989b979a50959850505050505050565b6001600160a01b03811681146105a757600080fd5b6000602082840312156111be57600080fd5b8135610ab581611197565b60005b838110156111e45781810151838201526020016111cc565b838111156111f3576000848401525b50505050565b600081518084526112118160208601602086016111c9565b601f01601f19169290920160200192915050565b60006020808301818452808551808352604092508286019150828160051b87010184880160005b838110156112d857888303603f19018552815180516001600160a01b039081168552888201518986015287820151168785015260608082015160c0828701819052919061129b838801826111f9565b92505050608080830151868303828801526112b683826111f9565b60a094850151979094019690965250509487019492509086019060010161124c565b509098975050505050505050565b600080602083850312156112f957600080fd5b823567ffffffffffffffff8082111561131157600080fd5b818501915085601f83011261132557600080fd5b81358181111561133457600080fd5b8660208260051b850101111561134957600080fd5b60209290920196919550909350505050565b60006020828403121561136d57600080fd5b5035919050565b60006020828403121561138657600080fd5b813567ffffffffffffffff81111561139d57600080fd5b6113a984828501611018565b949350505050565b6000806000604084860312156113c657600080fd5b833567ffffffffffffffff808211156113de57600080fd5b818601915086601f8301126113f257600080fd5b81358181111561140157600080fd5b87602082850101111561141357600080fd5b6020928301955093505084013561142981611197565b809150509250925092565b60808152600061144760808301876111f9565b60208382038185015261145a82886111f9565b6001600160a01b03871660408601528481036060860152855180825282870193509082019060005b818110156114a0578451151583529383019391830191600101611482565b50909998505050505050505050565b634e487b7160e01b600052603260045260246000fd5b634e487b7160e01b600052601160045260246000fd5b600082198211156114ee576114ee6114c5565b500190565b6020808252818101527f4f776e61626c653a2063616c6c6572206973206e6f7420746865206f776e6572604082015260600190565b60006020828403121561153a57600080fd5b5051919050565b60006020828403121561155357600080fd5b815167ffffffffffffffff81111561156a57600080fd5b8201601f8101841361157b57600080fd5b805161158961103782610ff0565b81815285602083850101111561159e57600080fd5b6115af8260208301602086016111c9565b95945050505050565b6000602082840312156115ca57600080fd5b8151610ab581611197565b8183823760009101908152919050565b600082516115f78184602087016111c9565b9190910192915050565b6000600019821415611615576116156114c5565b5060010190565b60008282101561162e5761162e6114c5565b500390565b60006020828403121561164557600080fd5b8151610ab58161106e56fea2646970667358221220c2873e1fb4c3b5e51fa287f42568f67cfbac2723b659e4ac5991ef8f7c5470c864736f6c63430008090033",
  "devdoc": {
    "details": "is CloneFactory",
    "kind": "dev",
    "methods": {
      "balancesOf(address)": {
        "params": {
          "addr": "address of account"
        },
        "returns": {
          "nftData": "Array of nftData balances"
        }
      },
      "clone(string,string,string,bool[])": {
        "params": {
          "name": "name of Clone collection",
          "symbol": "symbol of Clone collection"
        },
        "returns": {
          "clone_": "Address of Clone collection"
        }
      },
      "implementationsAdd(address[])": {
        "params": {
          "implementationsToAdd": ": new implementations addresses"
        }
      },
      "implementationsCount()": {
        "returns": {
          "_0": "count : number of implementations"
        }
      },
      "owner()": {
        "details": "Returns the address of the current owner."
      },
      "renounceOwnership()": {
        "details": "Leaves the contract without owner. It will not be possible to call `onlyOwner` functions anymore. Can only be called by the current owner. NOTE: Renouncing ownership will leave the contract without an owner, thereby removing any functionality that is only available to the owner."
      },
      "templateSet(string,address)": {
        "params": {
          "template": "Address of the template",
          "templateName": "Name of the template"
        }
      },
      "transferOwnership(address)": {
        "details": "Transfers ownership of the contract to a new account (`newOwner`). Can only be called by the current owner."
      }
    },
    "title": "NFTsFactory smartcontract",
    "version": 1
  },
  "userdoc": {
    "events": {
      "ImplementationNew(address,address,uint256)": {
        "notice": "New Implementation Event"
      },
      "TemplateSet(string,address)": {
        "notice": "Set Template Event"
      }
    },
    "kind": "user",
    "methods": {
      "balancesOf(address)": {
        "notice": "balancesOf address"
      },
      "clone(string,string,string,bool[])": {
        "notice": "clone template"
      },
      "implementations(uint256)": {
        "notice": "Implementations addresses"
      },
      "implementationsAdd(address[])": {
        "notice": "Add Implementations, public onlyOwner"
      },
      "implementationsCount()": {
        "notice": "Implementations count"
      },
      "templateSet(string,address)": {
        "notice": "Set Template, overrides generic CloneFactory"
      },
      "templates(string)": {
        "notice": "Named Templates"
      }
    },
    "version": 1
  },
  "storageLayout": {
    "storage": [
      {
        "astId": 2412,
        "contract": "contracts/new/NFTsFactoryV2.sol:NFTsFactoryV2",
        "label": "_owner",
        "offset": 0,
        "slot": "0",
        "type": "t_address"
      },
      {
        "astId": 6261,
        "contract": "contracts/new/NFTsFactoryV2.sol:NFTsFactoryV2",
        "label": "implementations",
        "offset": 0,
        "slot": "1",
        "type": "t_array(t_address)dyn_storage"
      },
      {
        "astId": 6266,
        "contract": "contracts/new/NFTsFactoryV2.sol:NFTsFactoryV2",
        "label": "templates",
        "offset": 0,
        "slot": "2",
        "type": "t_mapping(t_string_memory_ptr,t_address)"
      }
    ],
    "types": {
      "t_address": {
        "encoding": "inplace",
        "label": "address",
        "numberOfBytes": "20"
      },
      "t_array(t_address)dyn_storage": {
        "base": "t_address",
        "encoding": "dynamic_array",
        "label": "address[]",
        "numberOfBytes": "32"
      },
      "t_mapping(t_string_memory_ptr,t_address)": {
        "encoding": "mapping",
        "key": "t_string_memory_ptr",
        "label": "mapping(string => address)",
        "numberOfBytes": "32",
        "value": "t_address"
      },
      "t_string_memory_ptr": {
        "encoding": "bytes",
        "label": "string",
        "numberOfBytes": "32"
      }
    }
  }
}