{
  "address": "0x59Ca965eB4EafCE4e05eD2b5Bccbd373c3d1e2F8",
  "abi": [
    {
      "anonymous": false,
      "inputs": [
        {
          "indexed": true,
          "internalType": "address",
          "name": "owner",
          "type": "address"
        },
        {
          "indexed": true,
          "internalType": "address",
          "name": "approved",
          "type": "address"
        },
        {
          "indexed": true,
          "internalType": "uint256",
          "name": "tokenId",
          "type": "uint256"
        }
      ],
      "name": "Approval",
      "type": "event"
    },
    {
      "anonymous": false,
      "inputs": [
        {
          "indexed": true,
          "internalType": "address",
          "name": "owner",
          "type": "address"
        },
        {
          "indexed": true,
          "internalType": "address",
          "name": "operator",
          "type": "address"
        },
        {
          "indexed": false,
          "internalType": "bool",
          "name": "approved",
          "type": "bool"
        }
      ],
      "name": "ApprovalForAll",
      "type": "event"
    },
    {
      "anonymous": false,
      "inputs": [
        {
          "indexed": true,
          "internalType": "address",
          "name": "previousOwner",
          "type": "address"
        },
        {
          "indexed": true,
          "internalType": "address",
          "name": "newOwner",
          "type": "address"
        }
      ],
      "name": "OwnershipTransferred",
      "type": "event"
    },
    {
      "anonymous": false,
      "inputs": [
        {
          "indexed": false,
          "internalType": "uint256",
          "name": "tokenID",
          "type": "uint256"
        },
        {
          "indexed": false,
          "internalType": "uint256",
          "name": "price",
          "type": "uint256"
        },
        {
          "indexed": false,
          "internalType": "address",
          "name": "payer",
          "type": "address"
        },
        {
          "indexed": false,
          "internalType": "address",
          "name": "payee",
          "type": "address"
        }
      ],
      "name": "Pay",
      "type": "event"
    },
    {
      "anonymous": false,
      "inputs": [
        {
          "indexed": false,
          "internalType": "uint256",
          "name": "price",
          "type": "uint256"
        }
      ],
      "name": "SetDefaultPrice",
      "type": "event"
    },
    {
      "anonymous": false,
      "inputs": [
        {
          "indexed": false,
          "internalType": "address",
          "name": "receiver",
          "type": "address"
        },
        {
          "indexed": false,
          "internalType": "uint96",
          "name": "fee",
          "type": "uint96"
        }
      ],
      "name": "SetDefaultRoyalty",
      "type": "event"
    },
    {
      "anonymous": false,
      "inputs": [
        {
          "indexed": true,
          "internalType": "bool",
          "name": "paused",
          "type": "bool"
        },
        {
          "indexed": true,
          "internalType": "address",
          "name": "account",
          "type": "address"
        }
      ],
      "name": "SetPaused",
      "type": "event"
    },
    {
      "anonymous": false,
      "inputs": [
        {
          "indexed": false,
          "internalType": "uint256",
          "name": "tokenID",
          "type": "uint256"
        },
        {
          "indexed": false,
          "internalType": "uint256",
          "name": "price",
          "type": "uint256"
        }
      ],
      "name": "SetTokenPrice",
      "type": "event"
    },
    {
      "anonymous": false,
      "inputs": [
        {
          "indexed": false,
          "internalType": "uint256",
          "name": "tokenID",
          "type": "uint256"
        },
        {
          "indexed": false,
          "internalType": "address",
          "name": "receiver",
          "type": "address"
        },
        {
          "indexed": false,
          "internalType": "uint96",
          "name": "fee",
          "type": "uint96"
        }
      ],
      "name": "SetTokenRoyalty",
      "type": "event"
    },
    {
      "anonymous": false,
      "inputs": [
        {
          "indexed": true,
          "internalType": "address",
          "name": "from",
          "type": "address"
        },
        {
          "indexed": true,
          "internalType": "address",
          "name": "to",
          "type": "address"
        },
        {
          "indexed": true,
          "internalType": "uint256",
          "name": "tokenId",
          "type": "uint256"
        }
      ],
      "name": "Transfer",
      "type": "event"
    },
    {
      "inputs": [
        {
          "internalType": "address",
          "name": "spender",
          "type": "address"
        },
        {
          "internalType": "uint256",
          "name": "tokenID",
          "type": "uint256"
        }
      ],
      "name": "approve",
      "outputs": [],
      "stateMutability": "payable",
      "type": "function"
    },
    {
      "inputs": [
        {
          "internalType": "address",
          "name": "owner",
          "type": "address"
        }
      ],
      "name": "balanceOf",
      "outputs": [
        {
          "internalType": "uint256",
          "name": "",
          "type": "uint256"
        }
      ],
      "stateMutability": "view",
      "type": "function"
    },
    {
      "inputs": [
        {
          "internalType": "uint256",
          "name": "tokenID",
          "type": "uint256"
        }
      ],
      "name": "burn",
      "outputs": [],
      "stateMutability": "nonpayable",
      "type": "function"
    },
    {
      "inputs": [
        {
          "internalType": "uint256",
          "name": "tokenID",
          "type": "uint256"
        }
      ],
      "name": "buy",
      "outputs": [],
      "stateMutability": "payable",
      "type": "function"
    },
    {
      "inputs": [
        {
          "internalType": "address",
          "name": "account",
          "type": "address"
        },
        {
          "internalType": "bytes4[]",
          "name": "interfaceIds",
          "type": "bytes4[]"
        }
      ],
      "name": "checkSupportedInterfaces",
      "outputs": [
        {
          "internalType": "bool[]",
          "name": "interfaceIdsChecker",
          "type": "bool[]"
        }
      ],
      "stateMutability": "view",
      "type": "function"
    },
    {
      "inputs": [],
      "name": "defaultPrice",
      "outputs": [
        {
          "internalType": "uint256",
          "name": "",
          "type": "uint256"
        }
      ],
      "stateMutability": "view",
      "type": "function"
    },
    {
      "inputs": [
        {
          "internalType": "uint256",
          "name": "tokenID",
          "type": "uint256"
        }
      ],
      "name": "getApproved",
      "outputs": [
        {
          "internalType": "address",
          "name": "",
          "type": "address"
        }
      ],
      "stateMutability": "view",
      "type": "function"
    },
    {
      "inputs": [],
      "name": "getTemplate",
      "outputs": [
        {
          "internalType": "string",
          "name": "",
          "type": "string"
        }
      ],
      "stateMutability": "view",
      "type": "function"
    },
    {
      "inputs": [],
      "name": "getVersion",
      "outputs": [
        {
          "internalType": "uint256",
          "name": "",
          "type": "uint256"
        }
      ],
      "stateMutability": "view",
      "type": "function"
    },
    {
      "inputs": [
        {
          "internalType": "string",
          "name": "name_",
          "type": "string"
        },
        {
          "internalType": "string",
          "name": "symbol_",
          "type": "string"
        },
        {
          "internalType": "address",
          "name": "owner_",
          "type": "address"
        },
        {
          "internalType": "bool[]",
          "name": "options",
          "type": "bool[]"
        }
      ],
      "name": "initialize",
      "outputs": [],
      "stateMutability": "nonpayable",
      "type": "function"
    },
    {
      "inputs": [
        {
          "internalType": "address",
          "name": "owner",
          "type": "address"
        },
        {
          "internalType": "address",
          "name": "operator",
          "type": "address"
        }
      ],
      "name": "isApprovedForAll",
      "outputs": [
        {
          "internalType": "bool",
          "name": "",
          "type": "bool"
        }
      ],
      "stateMutability": "view",
      "type": "function"
    },
    {
      "inputs": [
        {
          "internalType": "address",
          "name": "minter",
          "type": "address"
        },
        {
          "internalType": "string",
          "name": "tokenURI",
          "type": "string"
        },
        {
          "internalType": "uint256",
          "name": "price",
          "type": "uint256"
        },
        {
          "internalType": "address",
          "name": "receiver",
          "type": "address"
        },
        {
          "internalType": "uint96",
          "name": "fee",
          "type": "uint96"
        }
      ],
      "name": "mint",
      "outputs": [
        {
          "internalType": "uint256",
          "name": "tokenID",
          "type": "uint256"
        }
      ],
      "stateMutability": "payable",
      "type": "function"
    },
    {
      "inputs": [
        {
          "internalType": "address",
          "name": "minter",
          "type": "address"
        },
        {
          "internalType": "string",
          "name": "tokenURI",
          "type": "string"
        }
      ],
      "name": "mint",
      "outputs": [
        {
          "internalType": "uint256",
          "name": "tokenID",
          "type": "uint256"
        }
      ],
      "stateMutability": "nonpayable",
      "type": "function"
    },
    {
      "inputs": [
        {
          "internalType": "string",
          "name": "tokenURI",
          "type": "string"
        }
      ],
      "name": "mint",
      "outputs": [
        {
          "internalType": "uint256",
          "name": "tokenID",
          "type": "uint256"
        }
      ],
      "stateMutability": "nonpayable",
      "type": "function"
    },
    {
      "inputs": [],
      "name": "name",
      "outputs": [
        {
          "internalType": "string",
          "name": "",
          "type": "string"
        }
      ],
      "stateMutability": "view",
      "type": "function"
    },
    {
      "inputs": [],
      "name": "open",
      "outputs": [
        {
          "internalType": "bool",
          "name": "",
          "type": "bool"
        }
      ],
      "stateMutability": "view",
      "type": "function"
    },
    {
      "inputs": [],
      "name": "owner",
      "outputs": [
        {
          "internalType": "address",
          "name": "",
          "type": "address"
        }
      ],
      "stateMutability": "view",
      "type": "function"
    },
    {
      "inputs": [
        {
          "internalType": "uint256",
          "name": "tokenID",
          "type": "uint256"
        }
      ],
      "name": "ownerOf",
      "outputs": [
        {
          "internalType": "address",
          "name": "owner",
          "type": "address"
        }
      ],
      "stateMutability": "view",
      "type": "function"
    },
    {
      "inputs": [],
      "name": "paused",
      "outputs": [
        {
          "internalType": "bool",
          "name": "",
          "type": "bool"
        }
      ],
      "stateMutability": "view",
      "type": "function"
    },
    {
      "inputs": [
        {
          "internalType": "uint256",
          "name": "tokenID",
          "type": "uint256"
        },
        {
          "internalType": "uint256",
          "name": "price",
          "type": "uint256"
        }
      ],
      "name": "royaltyInfo",
      "outputs": [
        {
          "internalType": "address",
          "name": "receiver",
          "type": "address"
        },
        {
          "internalType": "uint256",
          "name": "royaltyAmount",
          "type": "uint256"
        }
      ],
      "stateMutability": "view",
      "type": "function"
    },
    {
      "inputs": [
        {
          "internalType": "address",
          "name": "from",
          "type": "address"
        },
        {
          "internalType": "address",
          "name": "to",
          "type": "address"
        },
        {
          "internalType": "uint256",
          "name": "tokenID",
          "type": "uint256"
        }
      ],
      "name": "safeTransferFrom",
      "outputs": [],
      "stateMutability": "payable",
      "type": "function"
    },
    {
      "inputs": [
        {
          "internalType": "address",
          "name": "from",
          "type": "address"
        },
        {
          "internalType": "address",
          "name": "to",
          "type": "address"
        },
        {
          "internalType": "uint256",
          "name": "tokenID",
          "type": "uint256"
        },
        {
          "internalType": "bytes",
          "name": "data",
          "type": "bytes"
        }
      ],
      "name": "safeTransferFrom",
      "outputs": [],
      "stateMutability": "payable",
      "type": "function"
    },
    {
      "inputs": [
        {
          "internalType": "address",
          "name": "operator",
          "type": "address"
        },
        {
          "internalType": "bool",
          "name": "approved",
          "type": "bool"
        }
      ],
      "name": "setApprovalForAll",
      "outputs": [],
      "stateMutability": "nonpayable",
      "type": "function"
    },
    {
      "inputs": [
        {
          "internalType": "uint256",
          "name": "price",
          "type": "uint256"
        }
      ],
      "name": "setDefaultPrice",
      "outputs": [],
      "stateMutability": "nonpayable",
      "type": "function"
    },
    {
      "inputs": [
        {
          "internalType": "address",
          "name": "receiver",
          "type": "address"
        },
        {
          "internalType": "uint96",
          "name": "fee",
          "type": "uint96"
        }
      ],
      "name": "setDefaultRoyalty",
      "outputs": [],
      "stateMutability": "nonpayable",
      "type": "function"
    },
    {
      "inputs": [
        {
          "internalType": "uint256",
          "name": "tokenID",
          "type": "uint256"
        }
      ],
      "name": "setTokenPrice",
      "outputs": [],
      "stateMutability": "nonpayable",
      "type": "function"
    },
    {
      "inputs": [
        {
          "internalType": "uint256",
          "name": "tokenID",
          "type": "uint256"
        },
        {
          "internalType": "uint256",
          "name": "price",
          "type": "uint256"
        }
      ],
      "name": "setTokenPrice",
      "outputs": [],
      "stateMutability": "nonpayable",
      "type": "function"
    },
    {
      "inputs": [
        {
          "internalType": "uint256",
          "name": "tokenID",
          "type": "uint256"
        },
        {
          "internalType": "address",
          "name": "receiver",
          "type": "address"
        },
        {
          "internalType": "uint96",
          "name": "fee",
          "type": "uint96"
        }
      ],
      "name": "setTokenRoyalty",
      "outputs": [],
      "stateMutability": "nonpayable",
      "type": "function"
    },
    {
      "inputs": [
        {
          "internalType": "bytes4",
          "name": "interfaceId",
          "type": "bytes4"
        }
      ],
      "name": "supportsInterface",
      "outputs": [
        {
          "internalType": "bool",
          "name": "",
          "type": "bool"
        }
      ],
      "stateMutability": "view",
      "type": "function"
    },
    {
      "inputs": [],
      "name": "symbol",
      "outputs": [
        {
          "internalType": "string",
          "name": "",
          "type": "string"
        }
      ],
      "stateMutability": "view",
      "type": "function"
    },
    {
      "inputs": [],
      "name": "togglePause",
      "outputs": [],
      "stateMutability": "nonpayable",
      "type": "function"
    },
    {
      "inputs": [
        {
          "internalType": "uint256",
          "name": "index",
          "type": "uint256"
        }
      ],
      "name": "tokenByIndex",
      "outputs": [
        {
          "internalType": "uint256",
          "name": "",
          "type": "uint256"
        }
      ],
      "stateMutability": "view",
      "type": "function"
    },
    {
      "inputs": [],
      "name": "tokenIdNext",
      "outputs": [
        {
          "internalType": "uint256",
          "name": "",
          "type": "uint256"
        }
      ],
      "stateMutability": "view",
      "type": "function"
    },
    {
      "inputs": [
        {
          "internalType": "address",
          "name": "owner",
          "type": "address"
        },
        {
          "internalType": "uint256",
          "name": "index",
          "type": "uint256"
        }
      ],
      "name": "tokenOfOwnerByIndex",
      "outputs": [
        {
          "internalType": "uint256",
          "name": "",
          "type": "uint256"
        }
      ],
      "stateMutability": "view",
      "type": "function"
    },
    {
      "inputs": [
        {
          "internalType": "uint256",
          "name": "",
          "type": "uint256"
        }
      ],
      "name": "tokenPrice",
      "outputs": [
        {
          "internalType": "uint256",
          "name": "",
          "type": "uint256"
        }
      ],
      "stateMutability": "view",
      "type": "function"
    },
    {
      "inputs": [
        {
          "internalType": "uint256",
          "name": "tokenID",
          "type": "uint256"
        }
      ],
      "name": "tokenURI",
      "outputs": [
        {
          "internalType": "string",
          "name": "",
          "type": "string"
        }
      ],
      "stateMutability": "view",
      "type": "function"
    },
    {
      "inputs": [],
      "name": "totalSupply",
      "outputs": [
        {
          "internalType": "uint256",
          "name": "",
          "type": "uint256"
        }
      ],
      "stateMutability": "view",
      "type": "function"
    },
    {
      "inputs": [
        {
          "internalType": "address",
          "name": "from",
          "type": "address"
        },
        {
          "internalType": "address",
          "name": "to",
          "type": "address"
        },
        {
          "internalType": "uint256",
          "name": "tokenID",
          "type": "uint256"
        }
      ],
      "name": "transferFrom",
      "outputs": [],
      "stateMutability": "payable",
      "type": "function"
    },
    {
      "inputs": [
        {
          "internalType": "address",
          "name": "newOwner",
          "type": "address"
        }
      ],
      "name": "transferOwnership",
      "outputs": [],
      "stateMutability": "nonpayable",
      "type": "function"
    },
    {
      "inputs": [
        {
          "internalType": "address",
          "name": "token",
          "type": "address"
        }
      ],
      "name": "withdraw",
      "outputs": [],
      "stateMutability": "nonpayable",
      "type": "function"
    },
    {
      "stateMutability": "payable",
      "type": "receive"
    }
  ],
  "transactionHash": "0x155cd52610b7a4d3261a602265d45db6fa9831a236af5bf83d1e37c8c7571e32",
  "args": [],
  "numDeployments": 1,
  "solcInputHash": "4d5e5823f411748dcb99337c35674448",
  "bytecode": "0x6080604052600160145534801561001557600080fd5b50613171806100256000396000f3fe60806040526004361061023f5760003560e01c80636352211e1161012e578063c87b56dd116100ab578063e69e04b31161006f578063e69e04b31461068b578063e985e9c5146106a1578063eb685c47146106ea578063f2fde38b1461070a578063fcfff16f1461072a57600080fd5b8063c87b56dd146105eb578063d0def5211461060b578063d4ddce8a1461062b578063d85d3d2714610658578063d96a094a1461067857600080fd5b80638da5cb5b116100f25780638da5cb5b1461056b57806395d89b411461058e578063a22cb465146105a3578063b88d4fde146105c3578063c4ae3168146105d657600080fd5b80636352211e146104d55780636a61e5fc146104f55780636d3c7ec51461051557806370a08231146105355780638bbf58b31461055557600080fd5b8063321c48f2116101bc57806351cff8d91161018057806351cff8d91461043057806354e10b48146104505780635944c753146104705780635c975abb146104905780635fc83aae146104a857600080fd5b8063321c48f2146103b557806342842e0e146103ca57806342966c68146103dd5780634472167b146103fd5780634f6ccce71461041057600080fd5b80630d8e6e2c116102035780630d8e6e2c1461030f57806318160ddd1461032e57806323b872dd146103435780632a55205a146103565780632f745c591461039557600080fd5b806301ffc9a71461024b57806304634d8d1461028057806306fdde03146102a2578063081812fc146102c4578063095ea7b3146102fc57600080fd5b3661024657005b600080fd5b34801561025757600080fd5b5061026b61026636600461287e565b610744565b60405190151581526020015b60405180910390f35b34801561028c57600080fd5b506102a061029b3660046128c9565b610789565b005b3480156102ae57600080fd5b506102b7610889565b6040516102779190612949565b3480156102d057600080fd5b506102e46102df36600461295c565b61091b565b6040516001600160a01b039091168152602001610277565b6102a061030a366004612975565b61098e565b34801561031b57600080fd5b506013545b604051908152602001610277565b34801561033a57600080fd5b50600854610320565b6102a061035136600461299f565b610a52565b34801561036257600080fd5b506103766103713660046129db565b610a62565b604080516001600160a01b039093168352602083019190915201610277565b3480156103a157600080fd5b506103206103b0366004612975565b610b30565b3480156103c157600080fd5b506102b7610bb7565b6102a06103d836600461299f565b610bc6565b3480156103e957600080fd5b506102a06103f836600461295c565b610be1565b61032061040b366004612abc565b610c15565b34801561041c57600080fd5b5061032061042b36600461295c565b610d05565b34801561043c57600080fd5b506102a061044b366004612b35565b610d6f565b34801561045c57600080fd5b506102a061046b366004612b82565b610fa1565b34801561047c57600080fd5b506102a061048b366004612c7d565b610fe6565b34801561049c57600080fd5b5060115460ff1661026b565b3480156104b457600080fd5b506104c86104c3366004612cb9565b611076565b6040516102779190612d66565b3480156104e157600080fd5b506102e46104f036600461295c565b6111aa565b34801561050157600080fd5b506102a061051036600461295c565b611207565b34801561052157600080fd5b506102a061053036600461295c565b611213565b34801561054157600080fd5b50610320610550366004612b35565b6112a3565b34801561056157600080fd5b5061032060145481565b34801561057757600080fd5b50600c5461010090046001600160a01b03166102e4565b34801561059a57600080fd5b506102b761130e565b3480156105af57600080fd5b506102a06105be366004612dac565b61131d565b6102a06105d1366004612de3565b611389565b3480156105e257600080fd5b506102a06113e7565b3480156105f757600080fd5b506102b761060636600461295c565b611428565b34801561061757600080fd5b50610320610626366004612e5f565b6114ca565b34801561063757600080fd5b5061032061064636600461295c565b600f6020526000908152604090205481565b34801561066457600080fd5b50610320610673366004612ead565b611548565b6102a061068636600461295c565b611559565b34801561069757600080fd5b5061032060105481565b3480156106ad57600080fd5b5061026b6106bc366004612ee2565b6001600160a01b03918216600090815260036020908152604080832093909416825291909152205460ff1690565b3480156106f657600080fd5b506102a06107053660046129db565b61173b565b34801561071657600080fd5b506102a0610725366004612b35565b611790565b34801561073657600080fd5b5060155461026b9060ff1681565b60006001600160e01b0319821663ed5bd83160e01b148061077457506001600160e01b0319821662f7235960e21b145b806107835750610783826117c8565b92915050565b600c5461010090046001600160a01b031633146107c15760405162461bcd60e51b81526004016107b890612f0c565b60405180910390fd5b6001600160601b0381166127108111156108185760405162461bcd60e51b8152602060048201526018602482015277526f79616c7479206665652065786365656420707269636560401b60448201526064016107b8565b6040805180820182526001600160a01b0385168082526001600160601b0385166020928301819052600160a01b81028217600d558351918252918101919091527fa1edde4ed5c1392c90dccd8e051a4080b761850e49a24c77d826348a51e1f8dc91015b60405180910390a1505050565b60606005805461089890612f2f565b80601f01602080910402602001604051908101604052809291908181526020018280546108c490612f2f565b80156109115780601f106108e657610100808354040283529160200191610911565b820191906000526020600020905b8154815290600101906020018083116108f457829003601f168201915b5050505050905090565b6000818152602081905260408120546001600160a01b03166109725760405162461bcd60e51b815260206004820152601060248201526f125b9d985b1a59081d1bdad95b88125160821b60448201526064016107b8565b506000908152600260205260409020546001600160a01b031690565b61099833826117ed565b6109e45760405162461bcd60e51b815260206004820152601c60248201527f4e6f7420746f6b656e206f776e6572206e6f72206f70657261746f720000000060448201526064016107b8565b600081815260026020526040902080546001600160a01b0319166001600160a01b0384169081179091558190610a19826111aa565b6001600160a01b03167f8c5be1e5ebec7d5bd14f71427d1e84f3dd0314c0f7b2291e5b200ac8c7c3b92560405160405180910390a45050565b610a5d838383611848565b505050565b60008082600160801b8110610a895760405162461bcd60e51b81526004016107b890612f6a565b6000858152600e60209081526040918290208251808401909352546001600160a01b038116808452600160a01b9091046001600160601b031691830191909152610afd575060408051808201909152600d546001600160a01b0381168252600160a01b90046001600160601b031660208201525b602081015161271090610b19906001600160601b031687612fa7565b610b239190612fc6565b9051969095509350505050565b6000610b3b836112a3565b8210610b7a5760405162461bcd60e51b815260206004820152600e60248201526d496e76616c696420696e6465782160901b60448201526064016107b8565b6001600160a01b0383166000908152600960205260409020805483908110610ba457610ba4612fe8565b9060005260206000200154905092915050565b60606012805461089890612f2f565b610a5d83838360405180602001604052806000815250611a7e565b80610bec3382611ad6565b610c085760405162461bcd60e51b81526004016107b890612ffe565b610c1182611b0d565b5050565b60155460009060ff1680610c395750600c546001600160a01b036101009091041633145b610c725760405162461bcd60e51b815260206004820152600a6024820152692737ba1036b4b73a32b960b11b60448201526064016107b8565b60115460ff1615610caf5760405162461bcd60e51b81526020600482015260076024820152665061757365642160c81b60448201526064016107b8565b610cb986866114ca565b90508315610ccb57610ccb818561173b565b6001600160a01b03831615801590610cec57506000826001600160601b0316115b15610cfc57610cfc818484610fe6565b95945050505050565b6008546000908210610d4a5760405162461bcd60e51b815260206004820152600e60248201526d496e76616c696420696e6465782160901b60448201526064016107b8565b60088281548110610d5d57610d5d612fe8565b90600052602060002001549050919050565b600c5461010090046001600160a01b03163314610d9e5760405162461bcd60e51b81526004016107b890612f0c565b6001600160a01b0381163b15801590610e3057506040516301ffc9a760e01b81526336372b0760e01b60048201526001600160a01b038216906301ffc9a79060240160206040518083038186803b158015610df857600080fd5b505afa158015610e0c573d6000803e3d6000fd5b505050506040513d601f19601f82011682018060405250810190610e309190613035565b15610f75576040516370a0823160e01b81523060048201526001600160a01b0382169063a9059cbb90339083906370a082319060240160206040518083038186803b158015610e7e57600080fd5b505afa158015610e92573d6000803e3d6000fd5b505050506040513d601f19601f82011682018060405250810190610eb69190613052565b6040516001600160e01b031960e085901b1681526001600160a01b0390921660048301526024820152604401602060405180830381600087803b158015610efc57600080fd5b505af1158015610f10573d6000803e3d6000fd5b505050506040513d601f19601f82011682018060405250810190610f349190613035565b610f725760405162461bcd60e51b815260206004820152600f60248201526e15da5d1a191c985dc819985a5b1959608a1b60448201526064016107b8565b50565b60405133904780156108fc02916000818181858888f19350505050158015610c11573d6000803e3d6000fd5b610fac848484611b16565b80600081518110610fbf57610fbf612fe8565b6020026020010151601560006101000a81548160ff02191690831515021790555050505050565b82610ff13382611ad6565b61100d5760405162461bcd60e51b81526004016107b890612ffe565b6001600160601b0382166127108111156110645760405162461bcd60e51b8152602060048201526018602482015277526f79616c7479206665652065786365656420707269636560401b60448201526064016107b8565b61106f858585611b54565b5050505050565b6060815167ffffffffffffffff811115611092576110926129fd565b6040519080825280602002602001820160405280156110bb578160200160208202803683370190505b50905060005b82518110156111a357836001600160a01b03166301ffc9a78483815181106110eb576110eb612fe8565b60200260200101516040518263ffffffff1660e01b815260040161111f91906001600160e01b031991909116815260200190565b60206040518083038186803b15801561113757600080fd5b505afa15801561114b573d6000803e3d6000fd5b505050506040513d601f19601f8201168201806040525081019061116f9190613035565b82828151811061118157611181612fe8565b911515602092830291909101909101528061119b8161306b565b9150506110c1565b5092915050565b6000818152602081905260409020546001600160a01b0316806112025760405162461bcd60e51b815260206004820152601060248201526f125b9d985b1a59081d1bdad95b88125160821b60448201526064016107b8565b919050565b610f728160105461173b565b600c5461010090046001600160a01b031633146112425760405162461bcd60e51b81526004016107b890612f0c565b80600160801b81106112665760405162461bcd60e51b81526004016107b890612f6a565b60108290556040518281527f9f7a6492db3843bc01c0adb23cd27be964155c1d45c566f2ee32f28faf4eb605906020015b60405180910390a15050565b60006001600160a01b0382166112f25760405162461bcd60e51b8152602060048201526014602482015273496e76616c6964207a65726f206164647265737360601b60448201526064016107b8565b506001600160a01b031660009081526001602052604090205490565b60606006805461089890612f2f565b3360008181526003602090815260408083206001600160a01b03871680855290835292819020805460ff191686151590811790915590519081529192917f17307eab39ab6107e8899845ad3d59bd9653f200f220920489ca2b5937696c31910160405180910390a35050565b611394848484611848565b6113a084848484611bd9565b6113e15760405162461bcd60e51b8152602060048201526012602482015271139bdd08115490cdcc8c549958d95a5d995960721b60448201526064016107b8565b50505050565b600c5461010090046001600160a01b031633146114165760405162461bcd60e51b81526004016107b890612f0c565b6011546114269060ff1615611c87565b565b600081815260076020526040902080546060919061144590612f2f565b80601f016020809104026020016040519081016040528092919081815260200182805461147190612f2f565b80156114be5780601f10611493576101008083540402835291602001916114be565b820191906000526020600020905b8154815290600101906020018083116114a157829003601f168201915b50505050509050919050565b60155460009060ff16806114ee5750600c546001600160a01b036101009091041633145b6115275760405162461bcd60e51b815260206004820152600a6024820152692737ba1036b4b73a32b960b11b60448201526064016107b8565b601480549060006115378361306b565b919050559050610783838383611ccc565b600061078333836000806000610c15565b6000818152602081905260409020546001600160a01b03166115b25760405162461bcd60e51b81526020600482015260126024820152714e465420646f65736e27742065786973747360701b60448201526064016107b8565b6000818152600f6020526040902054806115fc5760405162461bcd60e51b815260206004820152600b60248201526a139bdd081d1bc81cd95b1b60aa1b60448201526064016107b8565b8034101561163f5760405162461bcd60e51b815260206004820152601060248201526f4e6f7420656e6f7567682066756e647360801b60448201526064016107b8565b600061164a836111aa565b90506001600160a01b03811661166257611662613086565b6001600160a01b0381163314156116b25760405162461bcd60e51b8152602060048201526014602482015273416c726561647920746f6b656e206f776e65722160601b60448201526064016107b8565b604051635c46a7ef60e11b81526001600160a01b0382166004820152336024820152604481018490526080606482015260006084820152309063b88d4fde90349060a4016000604051808303818588803b15801561170f57600080fd5b505af1158015611723573d6000803e3d6000fd5b50505060009485525050600f60205250506040812055565b816117463382611ad6565b6117625760405162461bcd60e51b81526004016107b890612ffe565b81600160801b81106117865760405162461bcd60e51b81526004016107b890612f6a565b6113e18484611cd7565b600c5461010090046001600160a01b031633146117bf5760405162461bcd60e51b81526004016107b890612f0c565b610f7281611d1f565b60006001600160e01b03198216630c38761960e41b1480610783575061078382611d79565b6000806117f9836111aa565b9050836001600160a01b0316816001600160a01b0316148061184057506001600160a01b0380821660009081526003602090815260408083209388168352929052205460ff165b949350505050565b806118533382611ad6565b61186f5760405162461bcd60e51b81526004016107b890612ffe565b611878826111aa565b6001600160a01b0316846001600160a01b0316146118c95760405162461bcd60e51b815260206004820152600e60248201526d233937b6903737ba1037bbb732b960911b60448201526064016107b8565b6001600160a01b03841661191f5760405162461bcd60e51b815260206004820152601a60248201527f5472616e736665722066726f6d207a65726f206164647265737300000000000060448201526064016107b8565b6001600160a01b0383166119755760405162461bcd60e51b815260206004820152601860248201527f5472616e7366657220746f207a65726f2061646472657373000000000000000060448201526064016107b8565b611980848484611d9e565b600082815260026020526040902080546001600160a01b03191690556001600160a01b0384811690841614611a37576001600160a01b038416600090815260016020819052604082208054919290916119da90849061309c565b90915550506001600160a01b03831660009081526001602081905260408220805491929091611a0a9084906130b3565b9091555050600082815260208190526040902080546001600160a01b0319166001600160a01b0385161790555b81836001600160a01b0316856001600160a01b03167fddf252ad1be2c89b69c2b068fc378daa952ba7f163c4a11628f55a4df523b3ef60405160405180910390a450505050565b611a89848484611848565b611a9584848484611bd9565b6113e15760405162461bcd60e51b81526020600482015260126024820152712737ba1022a9219b9918a932b1b2b4bb32b960711b60448201526064016107b8565b6000611ae283836117ed565b80611b065750826001600160a01b0316611afb8361091b565b6001600160a01b0316145b9392505050565b610f7281611da9565b611b41604051806040016040528060088152602001674f70656e4e46547360c01b8152506004611dce565b611b4b8383611e3c565b610a5d81611eb0565b6040805180820182526001600160a01b038481168083526001600160601b03858116602080860182815260008b8152600e835288902096519051909316600160a01b029290941691909117909355835187815291820152918201527f2595213009f64247e2789cf9981bcc53ee736a6aa52042a651aa1549ae6fff619060600161087c565b60006001600160a01b0384163b1580610cfc5750604051630a85bd0160e11b808252906001600160a01b0386169063150b7a0290611c219033908a90899089906004016130cb565b602060405180830381600087803b158015611c3b57600080fd5b505af1158015611c4f573d6000803e3d6000fd5b505050506040513d601f19601f82011682018060405250810190611c739190613108565b6001600160e01b0319161495945050505050565b6011805460ff1916821515908117909155604051339160ff161515907f8b265f737315073a655a642868ed756ba7e3b6c391b06dbbf70370aab7f7f06890600090a350565b610a5d838383611f0d565b6000828152600f602090815260409182902083905581518481529081018390527f2f8c61aa79deaa9c961d54f640a154df4960a56a5989d25df0148be783dc3f5b9101611297565b600c80546001600160a01b03838116610100818102610100600160a81b031985161790945560405193909204169182907f8be0079c531659141344cd1fd0a4f28419497f9722a3daafe3b4186f6b6457e090600090a35050565b60006001600160e01b03198216631fc9136f60e11b1480610783575061078382611f3d565b610a5d838383611f62565b6000818152600e60209081526040808320839055600f909152812055610f7281611f9b565b601154610100900460ff1615611e135760405162461bcd60e51b815260206004820152600a6024820152694f6e6c79206f6e63652160b01b60448201526064016107b8565b6011805461ff0019166101001790558151611e35906012906020850190612799565b5060135550565b60045460ff1615611e7c5760405162461bcd60e51b815260206004820152600a6024820152694f6e6c79206f6e63652160b01b60448201526064016107b8565b6004805460ff191660011790558151611e9c906005906020850190612799565b508051610a5d906006906020840190612799565b600c5460ff1615611ef75760405162461bcd60e51b8152602060048201526011602482015270125b9a5d08185b1c9958591e4818d85b1b607a1b60448201526064016107b8565b600c805460ff19166001179055610f7281611d1f565b611f18838383612066565b610a5d8160105485611f38600c546001600160a01b036101009091041690565b6120bf565b60006001600160e01b03198216632fe41d5760e11b1480610783575061078382612298565b6000818152600f6020526040902054611f8190829084611f38836111aa565b6000818152600f6020526040812055610a5d8383836122bd565b6000611fa6826111aa565b9050611fb281836122d1565b6000828152600b6020526040812054600854909190611fd39060019061309c565b9050600060088281548110611fea57611fea612fe8565b6000918252602080832090910154808352600b90915260408083208690558783528220919091556008805491925082918590811061202a5761202a612fe8565b600091825260209091200155600880548061204757612047613125565b6001900381819060005260206000200160009055905561106f856123df565b61207083826123ff565b600880546000838152600b60205260408120829055600182018355919091527ff3f7a9fe364faab93b216da50a3214154f22a0a2b415b23a84c8169e8b636ee301819055610a5d83838361243d565b34831561225457838110156121095760405162461bcd60e51b815260206004820152601060248201526f4e6f7420656e6f7567682066756e647360801b60448201526064016107b8565b6000806121168787610a62565b915091508581111561215e5760405162461bcd60e51b8152602060048201526011602482015270496e76616c696420726f79616c7469657360781b60448201526064016107b8565b600061216a828861309c565b905080156121b6576040516001600160a01b0386169082156108fc029083906000818181858888f193505050501580156121a8573d6000803e3d6000fd5b506121b3818561309c565b93505b8115612200576040516001600160a01b0384169083156108fc029084906000818181858888f193505050501580156121f2573d6000803e3d6000fd5b506121fd828561309c565b93505b60408051898152602081018990526001600160a01b03888116828401528716606082015290517f3914c8962f5e7241220aedc853d15ae456e87f9f156489c7d0d1f682e69f98ce9181900360800190a15050505b801561106f576040516001600160a01b0384169082156108fc029083906000818181858888f19350505050158015612290573d6000803e3d6000fd5b505050505050565b60006001600160e01b031982166398396bd360e01b1480610783575061078382612468565b6122c783826122d1565b610a5d82826123ff565b6000818152600a60205260408120549060016122ec856112a3565b6122f6919061309c565b905080821461238d576001600160a01b038416600090815260096020526040812080548390811061232957612329612fe8565b906000526020600020015490508060096000876001600160a01b03166001600160a01b03168152602001908152602001600020848154811061236d5761236d612fe8565b6000918252602080832090910192909255918252600a9052604090208290555b6000838152600a602090815260408083208390556001600160a01b0387168352600990915290208054806123c3576123c3613125565b6001900381819060005260206000200160009055905550505050565b60008181526007602052604081206123f69161281d565b610f728161248d565b6001600160a01b0390911660009081526009602081815260408084208054868652600a84529185208290559282526001810183559183529091200155565b6000818152600760209081526040909120835161245c92850190612799565b50610a5d838383612559565b60006001600160e01b03198216638351879960e01b14806107835750610783826126e4565b6000612498826111aa565b6001600160a01b0381166000908152600160205260409020549091506124c0576124c0613086565b6001600160a01b038116600090815260016020819052604082208054919290916124eb90849061309c565b9091555050600082815260026020908152604080832080546001600160a01b0319908116909155918390528083208054909216909155518391906001600160a01b038416907fddf252ad1be2c89b69c2b068fc378daa952ba7f163c4a11628f55a4df523b3ef908390a45050565b6001600160a01b0383166125a65760405162461bcd60e51b81526020600482015260146024820152734d696e7420746f207a65726f206164647265737360601b60448201526064016107b8565b6000818152602081905260409020546001600160a01b0316156126025760405162461bcd60e51b8152602060048201526014602482015273151bdad95b88185b1c9958591e481b5a5b9d195960621b60448201526064016107b8565b6001600160a01b0383166000908152600160208190526040822080549192909161262d9084906130b3565b909155505060008181526020819052604080822080546001600160a01b0319166001600160a01b03871690811790915590518392907fddf252ad1be2c89b69c2b068fc378daa952ba7f163c4a11628f55a4df523b3ef908290a46126a36000848360405180602001604052806000815250611bd9565b610a5d5760405162461bcd60e51b8152602060048201526012602482015271139bdd08115490cdcc8c549958d95a5d995960721b60448201526064016107b8565b600063152a902d60e11b6001600160e01b03198316148061078357506107838260006307f5828d60e41b6001600160e01b031983161480610783575061078382600063780e9d6360e01b6001600160e01b0319831614806107835750610783826000635b5e139f60e01b6001600160e01b03198316148061078357506107838260006380ac58cd60e01b6001600160e01b03198316148061078357506001600160e01b031982166301ffc9a760e01b14610783565b8280546127a590612f2f565b90600052602060002090601f0160209004810192826127c7576000855561280d565b82601f106127e057805160ff191683800117855561280d565b8280016001018555821561280d579182015b8281111561280d5782518255916020019190600101906127f2565b50612819929150612853565b5090565b50805461282990612f2f565b6000825580601f10612839575050565b601f016020900490600052602060002090810190610f7291905b5b808211156128195760008155600101612854565b6001600160e01b031981168114610f7257600080fd5b60006020828403121561289057600080fd5b8135611b0681612868565b80356001600160a01b038116811461120257600080fd5b80356001600160601b038116811461120257600080fd5b600080604083850312156128dc57600080fd5b6128e58361289b565b91506128f3602084016128b2565b90509250929050565b6000815180845260005b8181101561292257602081850181015186830182015201612906565b81811115612934576000602083870101525b50601f01601f19169290920160200192915050565b602081526000611b0660208301846128fc565b60006020828403121561296e57600080fd5b5035919050565b6000806040838503121561298857600080fd5b6129918361289b565b946020939093013593505050565b6000806000606084860312156129b457600080fd5b6129bd8461289b565b92506129cb6020850161289b565b9150604084013590509250925092565b600080604083850312156129ee57600080fd5b50508035926020909101359150565b634e487b7160e01b600052604160045260246000fd5b604051601f8201601f1916810167ffffffffffffffff81118282101715612a3c57612a3c6129fd565b604052919050565b600067ffffffffffffffff831115612a5e57612a5e6129fd565b612a71601f8401601f1916602001612a13565b9050828152838383011115612a8557600080fd5b828260208301376000602084830101529392505050565b600082601f830112612aad57600080fd5b611b0683833560208501612a44565b600080600080600060a08688031215612ad457600080fd5b612add8661289b565b9450602086013567ffffffffffffffff811115612af957600080fd5b612b0588828901612a9c565b94505060408601359250612b1b6060870161289b565b9150612b29608087016128b2565b90509295509295909350565b600060208284031215612b4757600080fd5b611b068261289b565b600067ffffffffffffffff821115612b6a57612b6a6129fd565b5060051b60200190565b8015158114610f7257600080fd5b60008060008060808587031215612b9857600080fd5b843567ffffffffffffffff80821115612bb057600080fd5b612bbc88838901612a9c565b9550602091508187013581811115612bd357600080fd5b612bdf89828a01612a9c565b955050612bee6040880161289b565b9350606087013581811115612c0257600080fd5b87019050601f81018813612c1557600080fd5b8035612c28612c2382612b50565b612a13565b81815260059190911b8201830190838101908a831115612c4757600080fd5b928401925b82841015612c6e578335612c5f81612b74565b82529284019290840190612c4c565b979a9699509497505050505050565b600080600060608486031215612c9257600080fd5b83359250612ca26020850161289b565b9150612cb0604085016128b2565b90509250925092565b60008060408385031215612ccc57600080fd5b612cd58361289b565b915060208084013567ffffffffffffffff811115612cf257600080fd5b8401601f81018613612d0357600080fd5b8035612d11612c2382612b50565b81815260059190911b82018301908381019088831115612d3057600080fd5b928401925b82841015612d57578335612d4881612868565b82529284019290840190612d35565b80955050505050509250929050565b6020808252825182820181905260009190848201906040850190845b81811015612da0578351151583529284019291840191600101612d82565b50909695505050505050565b60008060408385031215612dbf57600080fd5b612dc88361289b565b91506020830135612dd881612b74565b809150509250929050565b60008060008060808587031215612df957600080fd5b612e028561289b565b9350612e106020860161289b565b925060408501359150606085013567ffffffffffffffff811115612e3357600080fd5b8501601f81018713612e4457600080fd5b612e5387823560208401612a44565b91505092959194509250565b60008060408385031215612e7257600080fd5b612e7b8361289b565b9150602083013567ffffffffffffffff811115612e9757600080fd5b612ea385828601612a9c565b9150509250929050565b600060208284031215612ebf57600080fd5b813567ffffffffffffffff811115612ed657600080fd5b61184084828501612a9c565b60008060408385031215612ef557600080fd5b612efe8361289b565b91506128f36020840161289b565b6020808252600990820152682737ba1037bbb732b960b91b604082015260600190565b600181811c90821680612f4357607f821691505b60208210811415612f6457634e487b7160e01b600052602260045260246000fd5b50919050565b6020808252600d908201526c546f6f20657870656e7369766560981b604082015260600190565b634e487b7160e01b600052601160045260246000fd5b6000816000190483118215151615612fc157612fc1612f91565b500290565b600082612fe357634e487b7160e01b600052601260045260246000fd5b500490565b634e487b7160e01b600052603260045260246000fd5b6020808252601c908201527f4e6f7420746f6b656e206f776e6572206e6f7220617070726f76656400000000604082015260600190565b60006020828403121561304757600080fd5b8151611b0681612b74565b60006020828403121561306457600080fd5b5051919050565b600060001982141561307f5761307f612f91565b5060010190565b634e487b7160e01b600052600160045260246000fd5b6000828210156130ae576130ae612f91565b500390565b600082198211156130c6576130c6612f91565b500190565b6001600160a01b03858116825284166020820152604081018390526080606082018190526000906130fe908301846128fc565b9695505050505050565b60006020828403121561311a57600080fd5b8151611b0681612868565b634e487b7160e01b600052603160045260246000fdfea2646970667358221220d85f182f35ced33da77ce142e47614b0f6dafbf9d8377cad4259c30641d11caa64736f6c63430008090033",
  "devdoc": {
    "kind": "dev",
    "methods": {
      "burn(uint256)": {
        "params": {
          "tokenID": "tokenID of NFT to burn"
        }
      },
      "setDefaultRoyalty(address,uint96)": {
        "params": {
          "fee": ": fee Numerator, less than 10000",
          "receiver": ": address of the royalty receiver, or address(0) to reset"
        }
      },
      "setTokenRoyalty(uint256,address,uint96)": {
        "params": {
          "fee": ": fee Numerator, less than 10000",
          "receiver": ": address of the royalty receiver, or address(0) to reset",
          "tokenID": ": token ID"
        }
      },
      "supportsInterface(bytes4)": {
        "params": {
          "interfaceId": "interfaceId to test"
        }
      }
    },
    "title": "OpenNFTs smartcontract",
    "version": 1
  },
  "userdoc": {
    "kind": "user",
    "methods": {
      "burn(uint256)": {
        "notice": "burn NFT"
      },
      "open()": {
        "notice": "Mint NFT allowed to everyone or only collection owner"
      },
      "setDefaultRoyalty(address,uint96)": {
        "notice": "SET default royalty configuration"
      },
      "setTokenRoyalty(uint256,address,uint96)": {
        "notice": "SET token royalty configuration"
      },
      "supportsInterface(bytes4)": {
        "notice": "test if this interface is supported"
      },
      "tokenIdNext()": {
        "notice": "tokenID of next minted NFT"
      },
      "withdraw(address)": {
        "notice": "withdraw token otherwise eth"
      }
    },
    "version": 1
  },
  "storageLayout": {
    "storage": [
      {
        "astId": 6766,
        "contract": "contracts/templates/OpenNFTsV4.sol:OpenNFTsV4",
        "label": "_owners",
        "offset": 0,
        "slot": "0",
        "type": "t_mapping(t_uint256,t_address)"
      },
      {
        "astId": 6770,
        "contract": "contracts/templates/OpenNFTsV4.sol:OpenNFTsV4",
        "label": "_balances",
        "offset": 0,
        "slot": "1",
        "type": "t_mapping(t_address,t_uint256)"
      },
      {
        "astId": 6774,
        "contract": "contracts/templates/OpenNFTsV4.sol:OpenNFTsV4",
        "label": "_tokenApprovals",
        "offset": 0,
        "slot": "2",
        "type": "t_mapping(t_uint256,t_address)"
      },
      {
        "astId": 6780,
        "contract": "contracts/templates/OpenNFTsV4.sol:OpenNFTsV4",
        "label": "_operatorApprovals",
        "offset": 0,
        "slot": "3",
        "type": "t_mapping(t_address,t_mapping(t_address,t_bool))"
      },
      {
        "astId": 7697,
        "contract": "contracts/templates/OpenNFTsV4.sol:OpenNFTsV4",
        "label": "_openERC721MetadataInitialized",
        "offset": 0,
        "slot": "4",
        "type": "t_bool"
      },
      {
        "astId": 7699,
        "contract": "contracts/templates/OpenNFTsV4.sol:OpenNFTsV4",
        "label": "_name",
        "offset": 0,
        "slot": "5",
        "type": "t_string_storage"
      },
      {
        "astId": 7701,
        "contract": "contracts/templates/OpenNFTsV4.sol:OpenNFTsV4",
        "label": "_symbol",
        "offset": 0,
        "slot": "6",
        "type": "t_string_storage"
      },
      {
        "astId": 7705,
        "contract": "contracts/templates/OpenNFTsV4.sol:OpenNFTsV4",
        "label": "_tokenURIs",
        "offset": 0,
        "slot": "7",
        "type": "t_mapping(t_uint256,t_string_storage)"
      },
      {
        "astId": 7374,
        "contract": "contracts/templates/OpenNFTsV4.sol:OpenNFTsV4",
        "label": "_allTokens",
        "offset": 0,
        "slot": "8",
        "type": "t_array(t_uint256)dyn_storage"
      },
      {
        "astId": 7379,
        "contract": "contracts/templates/OpenNFTsV4.sol:OpenNFTsV4",
        "label": "_ownedTokens",
        "offset": 0,
        "slot": "9",
        "type": "t_mapping(t_address,t_array(t_uint256)dyn_storage)"
      },
      {
        "astId": 7383,
        "contract": "contracts/templates/OpenNFTsV4.sol:OpenNFTsV4",
        "label": "_ownedTokensIndex",
        "offset": 0,
        "slot": "10",
        "type": "t_mapping(t_uint256,t_uint256)"
      },
      {
        "astId": 7387,
        "contract": "contracts/templates/OpenNFTsV4.sol:OpenNFTsV4",
        "label": "_allTokensIndex",
        "offset": 0,
        "slot": "11",
        "type": "t_mapping(t_uint256,t_uint256)"
      },
      {
        "astId": 6531,
        "contract": "contracts/templates/OpenNFTsV4.sol:OpenNFTsV4",
        "label": "_openERC173Initialized",
        "offset": 0,
        "slot": "12",
        "type": "t_bool"
      },
      {
        "astId": 6533,
        "contract": "contracts/templates/OpenNFTsV4.sol:OpenNFTsV4",
        "label": "_owner",
        "offset": 1,
        "slot": "12",
        "type": "t_address"
      },
      {
        "astId": 6645,
        "contract": "contracts/templates/OpenNFTsV4.sol:OpenNFTsV4",
        "label": "_royaltyInfo",
        "offset": 0,
        "slot": "13",
        "type": "t_struct(RoyaltyInfo)6642_storage"
      },
      {
        "astId": 6650,
        "contract": "contracts/templates/OpenNFTsV4.sol:OpenNFTsV4",
        "label": "_tokenRoyaltyInfo",
        "offset": 0,
        "slot": "14",
        "type": "t_mapping(t_uint256,t_struct(RoyaltyInfo)6642_storage)"
      },
      {
        "astId": 7962,
        "contract": "contracts/templates/OpenNFTsV4.sol:OpenNFTsV4",
        "label": "tokenPrice",
        "offset": 0,
        "slot": "15",
        "type": "t_mapping(t_uint256,t_uint256)"
      },
      {
        "astId": 7964,
        "contract": "contracts/templates/OpenNFTsV4.sol:OpenNFTsV4",
        "label": "defaultPrice",
        "offset": 0,
        "slot": "16",
        "type": "t_uint256"
      },
      {
        "astId": 8623,
        "contract": "contracts/templates/OpenNFTsV4.sol:OpenNFTsV4",
        "label": "_paused",
        "offset": 0,
        "slot": "17",
        "type": "t_bool"
      },
      {
        "astId": 7870,
        "contract": "contracts/templates/OpenNFTsV4.sol:OpenNFTsV4",
        "label": "_openCloneableInitialized",
        "offset": 1,
        "slot": "17",
        "type": "t_bool"
      },
      {
        "astId": 7872,
        "contract": "contracts/templates/OpenNFTsV4.sol:OpenNFTsV4",
        "label": "_template",
        "offset": 0,
        "slot": "18",
        "type": "t_string_storage"
      },
      {
        "astId": 7874,
        "contract": "contracts/templates/OpenNFTsV4.sol:OpenNFTsV4",
        "label": "_version",
        "offset": 0,
        "slot": "19",
        "type": "t_uint256"
      },
      {
        "astId": 8373,
        "contract": "contracts/templates/OpenNFTsV4.sol:OpenNFTsV4",
        "label": "tokenIdNext",
        "offset": 0,
        "slot": "20",
        "type": "t_uint256"
      },
      {
        "astId": 19791,
        "contract": "contracts/templates/OpenNFTsV4.sol:OpenNFTsV4",
        "label": "open",
        "offset": 0,
        "slot": "21",
        "type": "t_bool"
      }
    ],
    "types": {
      "t_address": {
        "encoding": "inplace",
        "label": "address",
        "numberOfBytes": "20"
      },
      "t_array(t_uint256)dyn_storage": {
        "base": "t_uint256",
        "encoding": "dynamic_array",
        "label": "uint256[]",
        "numberOfBytes": "32"
      },
      "t_bool": {
        "encoding": "inplace",
        "label": "bool",
        "numberOfBytes": "1"
      },
      "t_mapping(t_address,t_array(t_uint256)dyn_storage)": {
        "encoding": "mapping",
        "key": "t_address",
        "label": "mapping(address => uint256[])",
        "numberOfBytes": "32",
        "value": "t_array(t_uint256)dyn_storage"
      },
      "t_mapping(t_address,t_bool)": {
        "encoding": "mapping",
        "key": "t_address",
        "label": "mapping(address => bool)",
        "numberOfBytes": "32",
        "value": "t_bool"
      },
      "t_mapping(t_address,t_mapping(t_address,t_bool))": {
        "encoding": "mapping",
        "key": "t_address",
        "label": "mapping(address => mapping(address => bool))",
        "numberOfBytes": "32",
        "value": "t_mapping(t_address,t_bool)"
      },
      "t_mapping(t_address,t_uint256)": {
        "encoding": "mapping",
        "key": "t_address",
        "label": "mapping(address => uint256)",
        "numberOfBytes": "32",
        "value": "t_uint256"
      },
      "t_mapping(t_uint256,t_address)": {
        "encoding": "mapping",
        "key": "t_uint256",
        "label": "mapping(uint256 => address)",
        "numberOfBytes": "32",
        "value": "t_address"
      },
      "t_mapping(t_uint256,t_string_storage)": {
        "encoding": "mapping",
        "key": "t_uint256",
        "label": "mapping(uint256 => string)",
        "numberOfBytes": "32",
        "value": "t_string_storage"
      },
      "t_mapping(t_uint256,t_struct(RoyaltyInfo)6642_storage)": {
        "encoding": "mapping",
        "key": "t_uint256",
        "label": "mapping(uint256 => struct OpenERC2981.RoyaltyInfo)",
        "numberOfBytes": "32",
        "value": "t_struct(RoyaltyInfo)6642_storage"
      },
      "t_mapping(t_uint256,t_uint256)": {
        "encoding": "mapping",
        "key": "t_uint256",
        "label": "mapping(uint256 => uint256)",
        "numberOfBytes": "32",
        "value": "t_uint256"
      },
      "t_string_storage": {
        "encoding": "bytes",
        "label": "string",
        "numberOfBytes": "32"
      },
      "t_struct(RoyaltyInfo)6642_storage": {
        "encoding": "inplace",
        "label": "struct OpenERC2981.RoyaltyInfo",
        "members": [
          {
            "astId": 6639,
            "contract": "contracts/templates/OpenNFTsV4.sol:OpenNFTsV4",
            "label": "receiver",
            "offset": 0,
            "slot": "0",
            "type": "t_address"
          },
          {
            "astId": 6641,
            "contract": "contracts/templates/OpenNFTsV4.sol:OpenNFTsV4",
            "label": "fraction",
            "offset": 20,
            "slot": "0",
            "type": "t_uint96"
          }
        ],
        "numberOfBytes": "32"
      },
      "t_uint256": {
        "encoding": "inplace",
        "label": "uint256",
        "numberOfBytes": "32"
      },
      "t_uint96": {
        "encoding": "inplace",
        "label": "uint96",
        "numberOfBytes": "12"
      }
    }
  }
}