{
  "address": "0x471a2F4e4DDf948aA1BDeecCA382e12D33899FBC",
  "abi": [
    {
      "anonymous": false,
      "inputs": [
        {
          "indexed": true,
          "internalType": "address",
          "name": "previousOwner",
          "type": "address"
        },
        {
          "indexed": true,
          "internalType": "address",
          "name": "newOwner",
          "type": "address"
        }
      ],
      "name": "OwnershipTransferred",
      "type": "event"
    },
    {
      "inputs": [
        {
          "internalType": "address",
          "name": "addr",
          "type": "address"
        }
      ],
      "name": "addAddress",
      "outputs": [],
      "stateMutability": "nonpayable",
      "type": "function"
    },
    {
      "inputs": [
        {
          "internalType": "address[]",
          "name": "addrs",
          "type": "address[]"
        }
      ],
      "name": "addAddresses",
      "outputs": [],
      "stateMutability": "nonpayable",
      "type": "function"
    },
    {
      "inputs": [
        {
          "internalType": "address",
          "name": "smartcontract",
          "type": "address"
        }
      ],
      "name": "checkErcInterfaces",
      "outputs": [
        {
          "internalType": "bool[]",
          "name": "ercInterfacesChecks",
          "type": "bool[]"
        }
      ],
      "stateMutability": "view",
      "type": "function"
    },
    {
      "inputs": [
        {
          "internalType": "address",
          "name": "smartcontract",
          "type": "address"
        },
        {
          "internalType": "bool",
          "name": "erc",
          "type": "bool"
        },
        {
          "internalType": "bytes4[]",
          "name": "interfaceIds",
          "type": "bytes4[]"
        }
      ],
      "name": "checkSupportedInterfaces",
      "outputs": [
        {
          "internalType": "bool[]",
          "name": "interfaceIdsChecks",
          "type": "bool[]"
        }
      ],
      "stateMutability": "view",
      "type": "function"
    },
    {
      "inputs": [],
      "name": "countAddresses",
      "outputs": [
        {
          "internalType": "uint256",
          "name": "",
          "type": "uint256"
        }
      ],
      "stateMutability": "view",
      "type": "function"
    },
    {
      "inputs": [],
      "name": "getAddresses",
      "outputs": [
        {
          "internalType": "address[]",
          "name": "",
          "type": "address[]"
        }
      ],
      "stateMutability": "view",
      "type": "function"
    },
    {
      "inputs": [
        {
          "internalType": "address",
          "name": "collection",
          "type": "address"
        }
      ],
      "name": "getCollectionInfos",
      "outputs": [
        {
          "components": [
            {
              "internalType": "address",
              "name": "collection",
              "type": "address"
            },
            {
              "internalType": "address",
              "name": "owner",
              "type": "address"
            },
            {
              "internalType": "string",
              "name": "name",
              "type": "string"
            },
            {
              "internalType": "string",
              "name": "symbol",
              "type": "string"
            },
            {
              "internalType": "uint256",
              "name": "totalSupply",
              "type": "uint256"
            },
            {
              "internalType": "uint256",
              "name": "balanceOf",
              "type": "uint256"
            },
            {
              "internalType": "bool[]",
              "name": "supported",
              "type": "bool[]"
            }
          ],
          "internalType": "struct IERC721Infos.CollectionInfos",
          "name": "collectionInfos",
          "type": "tuple"
        }
      ],
      "stateMutability": "view",
      "type": "function"
    },
    {
      "inputs": [
        {
          "internalType": "address[]",
          "name": "collections",
          "type": "address[]"
        },
        {
          "internalType": "address",
          "name": "account",
          "type": "address"
        },
        {
          "internalType": "bytes4[]",
          "name": "interfaceIds",
          "type": "bytes4[]"
        }
      ],
      "name": "getCollectionsInfos",
      "outputs": [
        {
          "components": [
            {
              "internalType": "address",
              "name": "collection",
              "type": "address"
            },
            {
              "internalType": "address",
              "name": "owner",
              "type": "address"
            },
            {
              "internalType": "string",
              "name": "name",
              "type": "string"
            },
            {
              "internalType": "string",
              "name": "symbol",
              "type": "string"
            },
            {
              "internalType": "uint256",
              "name": "totalSupply",
              "type": "uint256"
            },
            {
              "internalType": "uint256",
              "name": "balanceOf",
              "type": "uint256"
            },
            {
              "internalType": "bool[]",
              "name": "supported",
              "type": "bool[]"
            }
          ],
          "internalType": "struct IERC721Infos.CollectionInfos[]",
          "name": "collectionsInfos",
          "type": "tuple[]"
        }
      ],
      "stateMutability": "view",
      "type": "function"
    },
    {
      "inputs": [
        {
          "internalType": "address",
          "name": "collection",
          "type": "address"
        },
        {
          "internalType": "address",
          "name": "account",
          "type": "address"
        }
      ],
      "name": "getNFTsResolverCollectionInfos",
      "outputs": [
        {
          "components": [
            {
              "internalType": "address",
              "name": "collection",
              "type": "address"
            },
            {
              "internalType": "address",
              "name": "owner",
              "type": "address"
            },
            {
              "internalType": "string",
              "name": "name",
              "type": "string"
            },
            {
              "internalType": "string",
              "name": "symbol",
              "type": "string"
            },
            {
              "internalType": "uint256",
              "name": "totalSupply",
              "type": "uint256"
            },
            {
              "internalType": "uint256",
              "name": "balanceOf",
              "type": "uint256"
            },
            {
              "internalType": "bool[]",
              "name": "supported",
              "type": "bool[]"
            }
          ],
          "internalType": "struct IERC721Infos.CollectionInfos",
          "name": "collectionInfos",
          "type": "tuple"
        }
      ],
      "stateMutability": "view",
      "type": "function"
    },
    {
      "inputs": [
        {
          "internalType": "address",
          "name": "account",
          "type": "address"
        }
      ],
      "name": "getNFTsResolverCollectionsInfos",
      "outputs": [
        {
          "components": [
            {
              "internalType": "address",
              "name": "collection",
              "type": "address"
            },
            {
              "internalType": "address",
              "name": "owner",
              "type": "address"
            },
            {
              "internalType": "string",
              "name": "name",
              "type": "string"
            },
            {
              "internalType": "string",
              "name": "symbol",
              "type": "string"
            },
            {
              "internalType": "uint256",
              "name": "totalSupply",
              "type": "uint256"
            },
            {
              "internalType": "uint256",
              "name": "balanceOf",
              "type": "uint256"
            },
            {
              "internalType": "bool[]",
              "name": "supported",
              "type": "bool[]"
            }
          ],
          "internalType": "struct IERC721Infos.CollectionInfos[]",
          "name": "collectionsInfos",
          "type": "tuple[]"
        }
      ],
      "stateMutability": "view",
      "type": "function"
    },
    {
      "inputs": [
        {
          "internalType": "address",
          "name": "owner_",
          "type": "address"
        }
      ],
      "name": "initialize",
      "outputs": [],
      "stateMutability": "nonpayable",
      "type": "function"
    },
    {
      "inputs": [
        {
          "internalType": "address",
          "name": "collection",
          "type": "address"
        }
      ],
      "name": "isCollection",
      "outputs": [
        {
          "internalType": "bool",
          "name": "",
          "type": "bool"
        }
      ],
      "stateMutability": "view",
      "type": "function"
    },
    {
      "inputs": [
        {
          "internalType": "address",
          "name": "addr",
          "type": "address"
        }
      ],
      "name": "isRegistered",
      "outputs": [
        {
          "internalType": "bool",
          "name": "",
          "type": "bool"
        }
      ],
      "stateMutability": "view",
      "type": "function"
    },
    {
      "inputs": [],
      "name": "owner",
      "outputs": [
        {
          "internalType": "address",
          "name": "",
          "type": "address"
        }
      ],
      "stateMutability": "view",
      "type": "function"
    },
    {
      "inputs": [
        {
          "internalType": "address",
          "name": "addr",
          "type": "address"
        }
      ],
      "name": "removeAddress",
      "outputs": [],
      "stateMutability": "nonpayable",
      "type": "function"
    },
    {
      "inputs": [
        {
          "internalType": "address",
          "name": "registerer_",
          "type": "address"
        }
      ],
      "name": "setRegisterer",
      "outputs": [],
      "stateMutability": "nonpayable",
      "type": "function"
    },
    {
      "inputs": [
        {
          "internalType": "bytes4",
          "name": "interfaceId",
          "type": "bytes4"
        }
      ],
      "name": "supportsInterface",
      "outputs": [
        {
          "internalType": "bool",
          "name": "",
          "type": "bool"
        }
      ],
      "stateMutability": "view",
      "type": "function"
    },
    {
      "inputs": [
        {
          "internalType": "address",
          "name": "newOwner",
          "type": "address"
        }
      ],
      "name": "transferOwnership",
      "outputs": [],
      "stateMutability": "nonpayable",
      "type": "function"
    }
  ],
  "transactionHash": "0x64ba3676c66f72b5ad3d7719492fb12b95e236e078f6ecdb6cfdf6419af8d2e7",
  "args": [],
  "numDeployments": 24,
  "solcInputHash": "a23f51798f773656648d21a004e0df4d",
  "bytecode": "0x6101e06040526001600160e01b031960809081526301ffc9a760e01b60a0526380ac58cd60e01b60c052635b5e139f60e01b60e05263780e9d6360e01b61010052630a85bd0160e11b61012052636cdb3d1360e11b610140526303a24d0760e21b61016052630271189760e51b610180526307f5828d60e41b6101a05263152a902d60e11b6101c0526200009890600490600b620000e2565b5060408051600b808252610180820190925290602082016101608036833750508151620000cd926005925060200190620000e2565b50348015620000db57600080fd5b50620001ac565b82805482825590600052602060002090600701600890048101928215620001835791602002820160005b838211156200014f57835183826101000a81548163ffffffff021916908360e01c021790555092602001926004016020816003010492830192600103026200010c565b8015620001815782816101000a81549063ffffffff02191690556004016020816003010492830192600103026200014f565b505b506200019192915062000195565b5090565b5b8082111562000191576000815560010162000196565b611f4f80620001bc6000396000f3fe608060405234801561001057600080fd5b50600436106101165760003560e01c80635fa15ebb116100a2578063a39fac1211610071578063a39fac1214610266578063c3c5a5471461027b578063c4d66de8146102a9578063ec530de6146102bc578063f2fde38b146102cd57600080fd5b80635fa15ebb14610204578063690682a4146102175780637600c24c1461022a5780638da5cb5b1461023d57600080fd5b8063490f06eb116100e9578063490f06eb1461018b5780634ba79dfe146101ab57806350da677b146101be578063570cd8aa146101de5780635ee9a1d2146101f157600080fd5b806301ffc9a71461011b57806314e8b079146101435780633628731c1461016357806338eada1c14610178575b600080fd5b61012e6101293660046118d1565b6102e0565b60405190151581526020015b60405180910390f35b610156610151366004611901565b61030b565b60405161013a9190611a58565b610176610171366004611b4a565b6103a2565b005b610176610186366004611b87565b6103e6565b61019e610199366004611b87565b6103f2565b60405161013a9190611ba4565b6101766101b9366004611b87565b61042b565b6101d16101cc366004611c19565b610434565b60405161013a9190611c91565b6101d16101ec366004611b87565b6104f4565b6101766101ff366004611b87565b61057d565b61012e610212366004611b87565b6105ef565b61019e610225366004611d01565b610686565b610156610238366004611b87565b6108fd565b60005461010090046001600160a01b03166040516001600160a01b03909116815260200161013a565b61026e610921565b60405161013a9190611d59565b61012e610289366004611b87565b6001600160a01b0316600090815260016020819052604090912054101590565b6101766102b7366004611b87565b610983565b60025460405190815260200161013a565b6101766102db366004611b87565b610d4e565b60006001600160e01b03198216638732053b60e01b1480610305575061030582610da2565b92915050565b610313611865565b61039b8383600580548060200260200160405190810160405280929190818152602001828054801561039157602002820191906000526020600020906000905b82829054906101000a900460e01b6001600160e01b031916815260200190600401906020826003010492830192600103820291508084116103535790505b5050505050610dc7565b9392505050565b60005b81518110156103e2576103d08282815181106103c3576103c3611da6565b602002602001015161123e565b806103da81611dd2565b9150506103a5565b5050565b6103ef8161123e565b50565b60606103058260016000604051908082528060200260200182016040528015610425578160200160208202803683370190505b50610686565b6103ef81611380565b6060835167ffffffffffffffff81111561045057610450611a6b565b60405190808252806020026020018201604052801561048957816020015b610476611865565b81526020019060019003908161046e5790505b50905060005b84518110156104ec576104bc8582815181106104ad576104ad611da6565b60200260200101518585610dc7565b8282815181106104ce576104ce611da6565b602002602001018190525080806104e490611dd2565b91505061048f565b509392505050565b606061030582600580548060200260200160405190810160405280929190818152602001828054801561057357602002820191906000526020600020906000905b82829054906101000a900460e01b6001600160e01b031916815260200190600401906020826003010492830192600103820291508084116105355790505b5050505050611558565b60005461010090046001600160a01b031633146105cd5760405162461bcd60e51b81526020600482015260096024820152682737ba1037bbb732b960b91b60448201526064015b60405180910390fd5b600380546001600160a01b0319166001600160a01b0392909216919091179055565b6000806105fb836103f2565b90508060008151811061061057610610611da6565b602002602001015115801561063c57508060018151811061063357610633611da6565b60200260200101515b801561039b57508060028151811061065657610656611da6565b60200260200101518061039b57508060068151811061067757610677611da6565b60200260200101519392505050565b606060008083518561069957600061069d565b6004545b6106a79190611ded565b90508067ffffffffffffffff8111156106c2576106c2611a6b565b6040519080825280602002602001820160405280156106eb578160200160208202803683370190505b50925084156108035760005b60045481101561080157866001600160a01b03166301ffc9a76004838154811061072357610723611da6565b90600052602060002090600891828204019190066004029054906101000a900460e01b6040518263ffffffff1660e01b815260040161077291906001600160e01b031991909116815260200190565b60206040518083038186803b15801561078a57600080fd5b505afa15801561079e573d6000803e3d6000fd5b505050506040513d601f19601f820116820180604052508101906107c29190611e05565b84846107cd81611dd2565b9550815181106107df576107df611da6565b91151560209283029190910190910152806107f981611dd2565b9150506106f7565b505b60005b84518110156108f357866001600160a01b03166301ffc9a786838151811061083057610830611da6565b60200260200101516040518263ffffffff1660e01b815260040161086491906001600160e01b031991909116815260200190565b60206040518083038186803b15801561087c57600080fd5b505afa158015610890573d6000803e3d6000fd5b505050506040513d601f19601f820116820180604052508101906108b49190611e05565b84846108bf81611dd2565b9550815181106108d1576108d1611da6565b91151560209283029190910190910152806108eb81611dd2565b915050610806565b5050509392505050565b610905611865565b6040805160008152602081019091526103059083903390610dc7565b6060600280548060200260200160405190810160405280929190818152602001828054801561097957602002820191906000526020600020905b81546001600160a01b0316815260019091019060200180831161095b575b5050505050905090565b61098c8161171e565b6000630c38761960e41b6005826109a281611dd2565b9350815481106109b4576109b4611da6565b90600052602060002090600891828204019190066004026101000a81548163ffffffff021916908360e01c0217905550631fea36bd60e21b600582806109f990611dd2565b935081548110610a0b57610a0b611da6565b90600052602060002090600891828204019190066004026101000a81548163ffffffff021916908360e01c0217905550632e5e69fd60e01b60058280610a5090611dd2565b935081548110610a6257610a62611da6565b90600052602060002090600891828204019190066004026101000a81548163ffffffff021916908360e01c0217905550638351879960e01b60058280610aa790611dd2565b935081548110610ab957610ab9611da6565b90600052602060002090600891828204019190066004026101000a81548163ffffffff021916908360e01c02179055506398396bd360e01b60058280610afe90611dd2565b935081548110610b1057610b10611da6565b90600052602060002090600891828204019190066004026101000a81548163ffffffff021916908360e01c0217905550634b68d43160e01b60058280610b5590611dd2565b935081548110610b6757610b67611da6565b90600052602060002090600891828204019190066004026101000a81548163ffffffff021916908360e01c0217905550633ab2af8560e21b60058280610bac90611dd2565b935081548110610bbe57610bbe611da6565b90600052602060002090600891828204019190066004026101000a81548163ffffffff021916908360e01c0217905550636ca50ed960e11b60058280610c0390611dd2565b935081548110610c1557610c15611da6565b90600052602060002090600891828204019190066004026101000a81548163ffffffff021916908360e01c0217905550635f5f00ef60e01b60058280610c5a90611dd2565b935081548110610c6c57610c6c611da6565b90600052602060002090600891828204019190066004026101000a81548163ffffffff021916908360e01c02179055506330323f1960e01b60058280610cb190611dd2565b935081548110610cc357610cc3611da6565b90600052602060002090600891828204019190066004026101000a81548163ffffffff021916908360e01c02179055506317812f2360e11b60058280610d0890611dd2565b935081548110610d1a57610d1a611da6565b90600052602060002090600891828204019190066004026101000a81548163ffffffff021916908360e01c02179055505050565b60005461010090046001600160a01b03163314610d995760405162461bcd60e51b81526020600482015260096024820152682737ba1037bbb732b960b91b60448201526064016105c4565b6103ef81611777565b60006001600160e01b031982166350da677b60e01b14806103055750610305826117d0565b610dcf611865565b6001600160a01b0384163b610e1a5760405162461bcd60e51b8152602060048201526011602482015270139bdd081cdb585c9d18dbdb9d1c9858dd607a1b60448201526064016105c4565b6000610e2885600185610686565b9050808260c0018190525080600081518110610e4657610e46611da6565b6020026020010151158015610e72575080600181518110610e6957610e69611da6565b60200260200101515b610eab5760405162461bcd60e51b815260206004820152600a6024820152694e6f742045524331363560b01b60448201526064016105c4565b80600281518110610ebe57610ebe611da6565b602002602001015180610ee8575080600681518110610edf57610edf611da6565b60200260200101515b610f2c5760405162461bcd60e51b8152602060048201526015602482015274139bdd08139195081cdb585c9d18dbdb9d1c9858dd605a1b60448201526064016105c4565b6001600160a01b0385168252805181906009908110610f4d57610f4d611da6565b602002602001015115610fda57846001600160a01b0316638da5cb5b6040518163ffffffff1660e01b815260040160206040518083038186803b158015610f9357600080fd5b505afa158015610fa7573d6000803e3d6000fd5b505050506040513d601f19601f82011682018060405250810190610fcb9190611e22565b6001600160a01b031660208301525b80600281518110610fed57610fed611da6565b6020026020010151156104ec578060038151811061100d5761100d611da6565b60200260200101511561111257846001600160a01b03166306fdde036040518163ffffffff1660e01b815260040160006040518083038186803b15801561105357600080fd5b505afa158015611067573d6000803e3d6000fd5b505050506040513d6000823e601f3d908101601f1916820160405261108f9190810190611e3f565b8260400181905250846001600160a01b03166395d89b416040518163ffffffff1660e01b815260040160006040518083038186803b1580156110d057600080fd5b505afa1580156110e4573d6000803e3d6000fd5b505050506040513d6000823e601f3d908101601f1916820160405261110c9190810190611e3f565b60608301525b8060048151811061112557611125611da6565b6020026020010151156111a957846001600160a01b03166318160ddd6040518163ffffffff1660e01b815260040160206040518083038186803b15801561116b57600080fd5b505afa15801561117f573d6000803e3d6000fd5b505050506040513d601f19601f820116820180604052508101906111a39190611ed3565b60808301525b6001600160a01b038416156104ec576040516370a0823160e01b81526001600160a01b0385811660048301528616906370a082319060240160206040518083038186803b1580156111f957600080fd5b505afa15801561120d573d6000803e3d6000fd5b505050506040513d601f19601f820116820180604052508101906112319190611ed3565b60a0830152509392505050565b60005461010090046001600160a01b03166001600160a01b0316336001600160a01b0316148061127857506003546001600160a01b031633145b6112b55760405162461bcd60e51b815260206004820152600e60248201526d2737ba103932b3b4b9ba32b932b960911b60448201526064016105c4565b806112bf816105ef565b6112fc5760405162461bcd60e51b815260206004820152600e60248201526d2737ba1021b7b63632b1ba34b7b760911b60448201526064016105c4565b6001600160a01b03821660009081526001602081905260409091205410156103e2575060028054600180820183557f405787fa12a823e0f2b7631cc41b3ba8828b3321ca811111fa75cd3aa3bb5ace90910180546001600160a01b0319166001600160a01b0394909416938417905590546000928352602091909152604090912055565b60005461010090046001600160a01b03166001600160a01b0316336001600160a01b031614806113ba57506003546001600160a01b031633145b6113f75760405162461bcd60e51b815260206004820152600e60248201526d2737ba103932b3b4b9ba32b932b960911b60448201526064016105c4565b6001600160a01b03811660009081526001602081905260409091205410156114525760405162461bcd60e51b815260206004820152600e60248201526d139bdd081c9959da5cdd195c995960921b60448201526064016105c4565b6001600160a01b038116600090815260016020526040902054600254811461150857600280546000919061148890600190611eec565b8154811061149857611498611da6565b6000918252602090912001546001600160a01b031690508060026114bd600185611eec565b815481106114cd576114cd611da6565b600091825260208083209190910180546001600160a01b0319166001600160a01b039485161790559290911681526001909152604090208190555b6001600160a01b038216600090815260016020526040812055600280548061153257611532611f03565b600082815260209020810160001990810180546001600160a01b03191690550190555050565b6060600061156e611567610921565b8585610434565b90506000805b82518110156115fc57600083828151811061159157611591611da6565b602002602001015160a0015111806115d75750856001600160a01b03168382815181106115c0576115c0611da6565b6020026020010151602001516001600160a01b0316145b156115ea57816115e681611dd2565b9250505b806115f481611dd2565b915050611574565b508067ffffffffffffffff81111561161657611616611a6b565b60405190808252806020026020018201604052801561164f57816020015b61163c611865565b8152602001906001900390816116345790505b5092506000805b835181101561171457600084828151811061167357611673611da6565b602002602001015160a0015111806116b95750866001600160a01b03168482815181106116a2576116a2611da6565b6020026020010151602001516001600160a01b0316145b15611702578381815181106116d0576116d0611da6565b60200260200101518583806116e490611dd2565b9450815181106116f6576116f6611da6565b60200260200101819052505b8061170c81611dd2565b915050611656565b5050505092915050565b60005460ff16156117655760405162461bcd60e51b8152602060048201526011602482015270125b9a5d08185b1c9958591e4818d85b1b607a1b60448201526064016105c4565b6000805460ff191660011790556103ef815b600080546001600160a01b03838116610100818102610100600160a81b0319851617855560405193049190911692909183917f8be0079c531659141344cd1fd0a4f28419497f9722a3daafe3b4186f6b6457e091a35050565b60006001600160e01b03198216631d80309360e21b148061030557506103058260006001600160e01b03198216631fea36bd60e21b148061030557506103058260006001600160e01b03198216639785919f60e01b148061030557506103058260006307f5828d60e41b6001600160e01b03198316148061030557506001600160e01b031982166301ffc9a760e01b14610305565b6040518060e0016040528060006001600160a01b0316815260200160006001600160a01b0316815260200160608152602001606081526020016000815260200160008152602001606081525090565b80356001600160e01b0319811681146118cc57600080fd5b919050565b6000602082840312156118e357600080fd5b61039b826118b4565b6001600160a01b03811681146103ef57600080fd5b6000806040838503121561191457600080fd5b823561191f816118ec565b9150602083013561192f816118ec565b809150509250929050565b60005b8381101561195557818101518382015260200161193d565b83811115611964576000848401525b50505050565b6000815180845261198281602086016020860161193a565b601f01601f19169290920160200192915050565b600081518084526020808501945080840160005b838110156119c85781511515875295820195908201906001016119aa565b509495945050505050565b600060018060a01b0380835116845280602084015116602085015250604082015160e06040850152611a0860e085018261196a565b905060608301518482036060860152611a21828261196a565b9150506080830151608085015260a083015160a085015260c083015184820360c0860152611a4f8282611996565b95945050505050565b60208152600061039b60208301846119d3565b634e487b7160e01b600052604160045260246000fd5b604051601f8201601f1916810167ffffffffffffffff81118282101715611aaa57611aaa611a6b565b604052919050565b600067ffffffffffffffff821115611acc57611acc611a6b565b5060051b60200190565b600082601f830112611ae757600080fd5b81356020611afc611af783611ab2565b611a81565b82815260059290921b84018101918181019086841115611b1b57600080fd5b8286015b84811015611b3f578035611b32816118ec565b8352918301918301611b1f565b509695505050505050565b600060208284031215611b5c57600080fd5b813567ffffffffffffffff811115611b7357600080fd5b611b7f84828501611ad6565b949350505050565b600060208284031215611b9957600080fd5b813561039b816118ec565b60208152600061039b6020830184611996565b600082601f830112611bc857600080fd5b81356020611bd8611af783611ab2565b82815260059290921b84018101918181019086841115611bf757600080fd5b8286015b84811015611b3f57611c0c816118b4565b8352918301918301611bfb565b600080600060608486031215611c2e57600080fd5b833567ffffffffffffffff80821115611c4657600080fd5b611c5287838801611ad6565b945060208601359150611c64826118ec565b90925060408501359080821115611c7a57600080fd5b50611c8786828701611bb7565b9150509250925092565b6000602080830181845280855180835260408601915060408160051b870101925083870160005b82811015611ce657603f19888603018452611cd48583516119d3565b94509285019290850190600101611cb8565b5092979650505050505050565b80151581146103ef57600080fd5b600080600060608486031215611d1657600080fd5b8335611d21816118ec565b92506020840135611d3181611cf3565b9150604084013567ffffffffffffffff811115611d4d57600080fd5b611c8786828701611bb7565b6020808252825182820181905260009190848201906040850190845b81811015611d9a5783516001600160a01b031683529284019291840191600101611d75565b50909695505050505050565b634e487b7160e01b600052603260045260246000fd5b634e487b7160e01b600052601160045260246000fd5b6000600019821415611de657611de6611dbc565b5060010190565b60008219821115611e0057611e00611dbc565b500190565b600060208284031215611e1757600080fd5b815161039b81611cf3565b600060208284031215611e3457600080fd5b815161039b816118ec565b600060208284031215611e5157600080fd5b815167ffffffffffffffff80821115611e6957600080fd5b818401915084601f830112611e7d57600080fd5b815181811115611e8f57611e8f611a6b565b611ea2601f8201601f1916602001611a81565b9150808252856020828501011115611eb957600080fd5b611eca81602084016020860161193a565b50949350505050565b600060208284031215611ee557600080fd5b5051919050565b600082821015611efe57611efe611dbc565b500390565b634e487b7160e01b600052603160045260246000fdfea2646970667358221220c4427561da5fefd4d7fc6ee9815d70059646d8f3abaa5db51caad2c052b8daac64736f6c63430008090033",
  "devdoc": {
    "kind": "dev",
    "methods": {},
    "version": 1
  },
  "userdoc": {
    "kind": "user",
    "methods": {},
    "version": 1
  },
  "storageLayout": {
    "storage": [
      {
        "astId": 6531,
        "contract": "contracts/next/NFTsResolver.sol:NFTsResolver",
        "label": "_openERC173Initialized",
        "offset": 0,
        "slot": "0",
        "type": "t_bool"
      },
      {
        "astId": 6533,
        "contract": "contracts/next/NFTsResolver.sol:NFTsResolver",
        "label": "_owner",
        "offset": 1,
        "slot": "0",
        "type": "t_address"
      },
      {
        "astId": 9127,
        "contract": "contracts/next/NFTsResolver.sol:NFTsResolver",
        "label": "_numAddress",
        "offset": 0,
        "slot": "1",
        "type": "t_mapping(t_address,t_uint256)"
      },
      {
        "astId": 9130,
        "contract": "contracts/next/NFTsResolver.sol:NFTsResolver",
        "label": "_addresses",
        "offset": 0,
        "slot": "2",
        "type": "t_array(t_address)dyn_storage"
      },
      {
        "astId": 9132,
        "contract": "contracts/next/NFTsResolver.sol:NFTsResolver",
        "label": "_registerer",
        "offset": 0,
        "slot": "3",
        "type": "t_address"
      },
      {
        "astId": 8728,
        "contract": "contracts/next/NFTsResolver.sol:NFTsResolver",
        "label": "_ercInterfaceIds",
        "offset": 0,
        "slot": "4",
        "type": "t_array(t_bytes4)dyn_storage"
      },
      {
        "astId": 19641,
        "contract": "contracts/next/NFTsResolver.sol:NFTsResolver",
        "label": "_interfaceIds",
        "offset": 0,
        "slot": "5",
        "type": "t_array(t_bytes4)dyn_storage"
      }
    ],
    "types": {
      "t_address": {
        "encoding": "inplace",
        "label": "address",
        "numberOfBytes": "20"
      },
      "t_array(t_address)dyn_storage": {
        "base": "t_address",
        "encoding": "dynamic_array",
        "label": "address[]",
        "numberOfBytes": "32"
      },
      "t_array(t_bytes4)dyn_storage": {
        "base": "t_bytes4",
        "encoding": "dynamic_array",
        "label": "bytes4[]",
        "numberOfBytes": "32"
      },
      "t_bool": {
        "encoding": "inplace",
        "label": "bool",
        "numberOfBytes": "1"
      },
      "t_bytes4": {
        "encoding": "inplace",
        "label": "bytes4",
        "numberOfBytes": "4"
      },
      "t_mapping(t_address,t_uint256)": {
        "encoding": "mapping",
        "key": "t_address",
        "label": "mapping(address => uint256)",
        "numberOfBytes": "32",
        "value": "t_uint256"
      },
      "t_uint256": {
        "encoding": "inplace",
        "label": "uint256",
        "numberOfBytes": "32"
      }
    }
  }
}