{
  "address": "0xb6437232B5E6cB5f82a16300fBf9161FD846c894",
  "abi": [
    {
      "anonymous": false,
      "inputs": [
        {
          "indexed": true,
          "internalType": "address",
          "name": "previousOwner",
          "type": "address"
        },
        {
          "indexed": true,
          "internalType": "address",
          "name": "newOwner",
          "type": "address"
        }
      ],
      "name": "OwnershipTransferred",
      "type": "event"
    },
    {
      "inputs": [
        {
          "internalType": "address",
          "name": "addr",
          "type": "address"
        }
      ],
      "name": "addAddress",
      "outputs": [],
      "stateMutability": "nonpayable",
      "type": "function"
    },
    {
      "inputs": [
        {
          "internalType": "address[]",
          "name": "addrs",
          "type": "address[]"
        }
      ],
      "name": "addAddresses",
      "outputs": [],
      "stateMutability": "nonpayable",
      "type": "function"
    },
    {
      "inputs": [
        {
          "internalType": "address",
          "name": "smartcontract",
          "type": "address"
        }
      ],
      "name": "checkErcInterfaces",
      "outputs": [
        {
          "internalType": "bool[]",
          "name": "ercInterfacesChecks",
          "type": "bool[]"
        }
      ],
      "stateMutability": "view",
      "type": "function"
    },
    {
      "inputs": [
        {
          "internalType": "address",
          "name": "smartcontract",
          "type": "address"
        },
        {
          "internalType": "bool",
          "name": "erc",
          "type": "bool"
        },
        {
          "internalType": "bytes4[]",
          "name": "interfaceIds",
          "type": "bytes4[]"
        }
      ],
      "name": "checkSupportedInterfaces",
      "outputs": [
        {
          "internalType": "bool[]",
          "name": "interfaceIdsChecks",
          "type": "bool[]"
        }
      ],
      "stateMutability": "view",
      "type": "function"
    },
    {
      "inputs": [],
      "name": "countAddresses",
      "outputs": [
        {
          "internalType": "uint256",
          "name": "",
          "type": "uint256"
        }
      ],
      "stateMutability": "view",
      "type": "function"
    },
    {
      "inputs": [],
      "name": "getAddresses",
      "outputs": [
        {
          "internalType": "address[]",
          "name": "",
          "type": "address[]"
        }
      ],
      "stateMutability": "view",
      "type": "function"
    },
    {
      "inputs": [
        {
          "internalType": "address",
          "name": "collection",
          "type": "address"
        }
      ],
      "name": "getCollectionInfos",
      "outputs": [
        {
          "components": [
            {
              "internalType": "address",
              "name": "collection",
              "type": "address"
            },
            {
              "internalType": "address",
              "name": "owner",
              "type": "address"
            },
            {
              "internalType": "string",
              "name": "name",
              "type": "string"
            },
            {
              "internalType": "string",
              "name": "symbol",
              "type": "string"
            },
            {
              "internalType": "uint256",
              "name": "totalSupply",
              "type": "uint256"
            },
            {
              "internalType": "uint256",
              "name": "balanceOf",
              "type": "uint256"
            },
            {
              "internalType": "bool[]",
              "name": "supported",
              "type": "bool[]"
            }
          ],
          "internalType": "struct IERC721Infos.CollectionInfos",
          "name": "collectionInfos",
          "type": "tuple"
        }
      ],
      "stateMutability": "view",
      "type": "function"
    },
    {
      "inputs": [
        {
          "internalType": "address[]",
          "name": "collections",
          "type": "address[]"
        },
        {
          "internalType": "address",
          "name": "account",
          "type": "address"
        },
        {
          "internalType": "bytes4[]",
          "name": "interfaceIds",
          "type": "bytes4[]"
        }
      ],
      "name": "getCollectionsInfos",
      "outputs": [
        {
          "components": [
            {
              "internalType": "address",
              "name": "collection",
              "type": "address"
            },
            {
              "internalType": "address",
              "name": "owner",
              "type": "address"
            },
            {
              "internalType": "string",
              "name": "name",
              "type": "string"
            },
            {
              "internalType": "string",
              "name": "symbol",
              "type": "string"
            },
            {
              "internalType": "uint256",
              "name": "totalSupply",
              "type": "uint256"
            },
            {
              "internalType": "uint256",
              "name": "balanceOf",
              "type": "uint256"
            },
            {
              "internalType": "bool[]",
              "name": "supported",
              "type": "bool[]"
            }
          ],
          "internalType": "struct IERC721Infos.CollectionInfos[]",
          "name": "collectionsInfos",
          "type": "tuple[]"
        }
      ],
      "stateMutability": "view",
      "type": "function"
    },
    {
      "inputs": [
        {
          "internalType": "address",
          "name": "collection",
          "type": "address"
        },
        {
          "internalType": "address",
          "name": "account",
          "type": "address"
        }
      ],
      "name": "getNFTsResolverCollectionInfos",
      "outputs": [
        {
          "components": [
            {
              "internalType": "address",
              "name": "collection",
              "type": "address"
            },
            {
              "internalType": "address",
              "name": "owner",
              "type": "address"
            },
            {
              "internalType": "string",
              "name": "name",
              "type": "string"
            },
            {
              "internalType": "string",
              "name": "symbol",
              "type": "string"
            },
            {
              "internalType": "uint256",
              "name": "totalSupply",
              "type": "uint256"
            },
            {
              "internalType": "uint256",
              "name": "balanceOf",
              "type": "uint256"
            },
            {
              "internalType": "bool[]",
              "name": "supported",
              "type": "bool[]"
            }
          ],
          "internalType": "struct IERC721Infos.CollectionInfos",
          "name": "collectionInfos",
          "type": "tuple"
        }
      ],
      "stateMutability": "view",
      "type": "function"
    },
    {
      "inputs": [
        {
          "internalType": "address",
          "name": "account",
          "type": "address"
        }
      ],
      "name": "getNFTsResolverCollectionsInfos",
      "outputs": [
        {
          "components": [
            {
              "internalType": "address",
              "name": "collection",
              "type": "address"
            },
            {
              "internalType": "address",
              "name": "owner",
              "type": "address"
            },
            {
              "internalType": "string",
              "name": "name",
              "type": "string"
            },
            {
              "internalType": "string",
              "name": "symbol",
              "type": "string"
            },
            {
              "internalType": "uint256",
              "name": "totalSupply",
              "type": "uint256"
            },
            {
              "internalType": "uint256",
              "name": "balanceOf",
              "type": "uint256"
            },
            {
              "internalType": "bool[]",
              "name": "supported",
              "type": "bool[]"
            }
          ],
          "internalType": "struct IERC721Infos.CollectionInfos[]",
          "name": "collectionsInfos",
          "type": "tuple[]"
        }
      ],
      "stateMutability": "view",
      "type": "function"
    },
    {
      "inputs": [
        {
          "internalType": "address",
          "name": "owner_",
          "type": "address"
        }
      ],
      "name": "initialize",
      "outputs": [],
      "stateMutability": "nonpayable",
      "type": "function"
    },
    {
      "inputs": [
        {
          "internalType": "address",
          "name": "collection",
          "type": "address"
        }
      ],
      "name": "isCollection",
      "outputs": [
        {
          "internalType": "bool",
          "name": "",
          "type": "bool"
        }
      ],
      "stateMutability": "view",
      "type": "function"
    },
    {
      "inputs": [
        {
          "internalType": "address",
          "name": "",
          "type": "address"
        }
      ],
      "name": "isRegistered",
      "outputs": [
        {
          "internalType": "bool",
          "name": "",
          "type": "bool"
        }
      ],
      "stateMutability": "view",
      "type": "function"
    },
    {
      "inputs": [],
      "name": "owner",
      "outputs": [
        {
          "internalType": "address",
          "name": "",
          "type": "address"
        }
      ],
      "stateMutability": "view",
      "type": "function"
    },
    {
      "inputs": [
        {
          "internalType": "uint256",
          "name": "index",
          "type": "uint256"
        }
      ],
      "name": "removeAddress",
      "outputs": [],
      "stateMutability": "nonpayable",
      "type": "function"
    },
    {
      "inputs": [
        {
          "internalType": "address",
          "name": "registerer_",
          "type": "address"
        }
      ],
      "name": "setRegisterer",
      "outputs": [],
      "stateMutability": "nonpayable",
      "type": "function"
    },
    {
      "inputs": [
        {
          "internalType": "bytes4",
          "name": "interfaceId",
          "type": "bytes4"
        }
      ],
      "name": "supportsInterface",
      "outputs": [
        {
          "internalType": "bool",
          "name": "",
          "type": "bool"
        }
      ],
      "stateMutability": "view",
      "type": "function"
    },
    {
      "inputs": [
        {
          "internalType": "address",
          "name": "newOwner",
          "type": "address"
        }
      ],
      "name": "transferOwnership",
      "outputs": [],
      "stateMutability": "nonpayable",
      "type": "function"
    }
  ],
  "transactionHash": "0xf46c4cae1ea2a3ceff6e806ebaf7c2da98baeb4950fd092cc90e3485a7e2e2af",
  "args": [],
  "numDeployments": 23,
  "solcInputHash": "31935cf4db2b0ab879c6a3b60347b3c8",
  "bytecode": "0x6101e06040526001600160e01b031960809081526301ffc9a760e01b60a0526380ac58cd60e01b60c052635b5e139f60e01b60e05263780e9d6360e01b61010052630a85bd0160e11b61012052636cdb3d1360e11b610140526303a24d0760e21b61016052630271189760e51b610180526307f5828d60e41b6101a05263152a902d60e11b6101c0526200009890600490600b620000e2565b5060408051600b808252610180820190925290602082016101608036833750508151620000cd926005925060200190620000e2565b50348015620000db57600080fd5b50620001ac565b82805482825590600052602060002090600701600890048101928215620001835791602002820160005b838211156200014f57835183826101000a81548163ffffffff021916908360e01c021790555092602001926004016020816003010492830192600103026200010c565b8015620001815782816101000a81549063ffffffff02191690556004016020816003010492830192600103026200014f565b505b506200019192915062000195565b5090565b5b8082111562000191576000815560010162000196565b61200880620001bc6000396000f3fe608060405234801561001057600080fd5b50600436106101165760003560e01c8063690682a4116100a2578063c3c5a54711610071578063c3c5a54714610268578063c4d66de81461028b578063df945c6e1461029e578063ec530de6146102b1578063f2fde38b146102c257600080fd5b8063690682a4146102045780637600c24c146102175780638da5cb5b1461022a578063a39fac121461025357600080fd5b8063490f06eb116100e9578063490f06eb1461018b57806350da677b146101ab578063570cd8aa146101cb5780635ee9a1d2146101de5780635fa15ebb146101f157600080fd5b806301ffc9a71461011b57806314e8b079146101435780633628731c1461016357806338eada1c14610178575b600080fd5b61012e610129366004611971565b6102d5565b60405190151581526020015b60405180910390f35b6101566101513660046119a1565b610300565b60405161013a9190611af8565b610176610171366004611bea565b610397565b005b610176610186366004611c27565b6103db565b61019e610199366004611c27565b6103e7565b60405161013a9190611c44565b6101be6101b9366004611cb9565b610420565b60405161013a9190611d31565b6101be6101d9366004611c27565b6104e0565b6101766101ec366004611c27565b610569565b61012e6101ff366004611c27565b6105db565b61019e610212366004611da1565b610672565b610156610225366004611c27565b6108e9565b60005461010090046001600160a01b03166040516001600160a01b03909116815260200161013a565b61025b61090d565b60405161013a9190611df9565b61012e610276366004611c27565b60016020526000908152604090205460ff1681565b610176610299366004611c27565b61096f565b6101766102ac366004611e46565b610d3a565b60025460405190815260200161013a565b6101766102d0366004611c27565b610d43565b60006001600160e01b03198216638732053b60e01b14806102fa57506102fa82610d97565b92915050565b610308611905565b6103908383600580548060200260200160405190810160405280929190818152602001828054801561038657602002820191906000526020600020906000905b82829054906101000a900460e01b6001600160e01b031916815260200190600401906020826003010492830192600103820291508084116103485790505b5050505050610dbc565b9392505050565b60005b81518110156103d7576103c58282815181106103b8576103b8611e5f565b6020026020010151611233565b806103cf81611e8b565b91505061039a565b5050565b6103e481611233565b50565b60606102fa826001600060405190808252806020026020018201604052801561041a578160200160208202803683370190505b50610672565b6060835167ffffffffffffffff81111561043c5761043c611b0b565b60405190808252806020026020018201604052801561047557816020015b610462611905565b81526020019060019003908161045a5790505b50905060005b84518110156104d8576104a885828151811061049957610499611e5f565b60200260200101518585610dbc565b8282815181106104ba576104ba611e5f565b602002602001018190525080806104d090611e8b565b91505061047b565b509392505050565b60606102fa82600580548060200260200160405190810160405280929190818152602001828054801561055f57602002820191906000526020600020906000905b82829054906101000a900460e01b6001600160e01b031916815260200190600401906020826003010492830192600103820291508084116105215790505b50505050506113b7565b60005461010090046001600160a01b031633146105b95760405162461bcd60e51b81526020600482015260096024820152682737ba1037bbb732b960b91b60448201526064015b60405180910390fd5b600380546001600160a01b0319166001600160a01b0392909216919091179055565b6000806105e7836103e7565b9050806000815181106105fc576105fc611e5f565b602002602001015115801561062857508060018151811061061f5761061f611e5f565b60200260200101515b801561039057508060028151811061064257610642611e5f565b60200260200101518061039057508060068151811061066357610663611e5f565b60200260200101519392505050565b6060600080835185610685576000610689565b6004545b6106939190611ea6565b90508067ffffffffffffffff8111156106ae576106ae611b0b565b6040519080825280602002602001820160405280156106d7578160200160208202803683370190505b50925084156107ef5760005b6004548110156107ed57866001600160a01b03166301ffc9a76004838154811061070f5761070f611e5f565b90600052602060002090600891828204019190066004029054906101000a900460e01b6040518263ffffffff1660e01b815260040161075e91906001600160e01b031991909116815260200190565b60206040518083038186803b15801561077657600080fd5b505afa15801561078a573d6000803e3d6000fd5b505050506040513d601f19601f820116820180604052508101906107ae9190611ebe565b84846107b981611e8b565b9550815181106107cb576107cb611e5f565b91151560209283029190910190910152806107e581611e8b565b9150506106e3565b505b60005b84518110156108df57866001600160a01b03166301ffc9a786838151811061081c5761081c611e5f565b60200260200101516040518263ffffffff1660e01b815260040161085091906001600160e01b031991909116815260200190565b60206040518083038186803b15801561086857600080fd5b505afa15801561087c573d6000803e3d6000fd5b505050506040513d601f19601f820116820180604052508101906108a09190611ebe565b84846108ab81611e8b565b9550815181106108bd576108bd611e5f565b91151560209283029190910190910152806108d781611e8b565b9150506107f2565b5050509392505050565b6108f1611905565b6040805160008152602081019091526102fa9083903390610dbc565b6060600280548060200260200160405190810160405280929190818152602001828054801561096557602002820191906000526020600020905b81546001600160a01b03168152600190910190602001808311610947575b5050505050905090565b6109788161157d565b6000630c38761960e41b60058261098e81611e8b565b9350815481106109a0576109a0611e5f565b90600052602060002090600891828204019190066004026101000a81548163ffffffff021916908360e01c0217905550631fea36bd60e21b600582806109e590611e8b565b9350815481106109f7576109f7611e5f565b90600052602060002090600891828204019190066004026101000a81548163ffffffff021916908360e01c0217905550632e5e69fd60e01b60058280610a3c90611e8b565b935081548110610a4e57610a4e611e5f565b90600052602060002090600891828204019190066004026101000a81548163ffffffff021916908360e01c0217905550638351879960e01b60058280610a9390611e8b565b935081548110610aa557610aa5611e5f565b90600052602060002090600891828204019190066004026101000a81548163ffffffff021916908360e01c02179055506398396bd360e01b60058280610aea90611e8b565b935081548110610afc57610afc611e5f565b90600052602060002090600891828204019190066004026101000a81548163ffffffff021916908360e01c0217905550634b68d43160e01b60058280610b4190611e8b565b935081548110610b5357610b53611e5f565b90600052602060002090600891828204019190066004026101000a81548163ffffffff021916908360e01c0217905550633ab2af8560e21b60058280610b9890611e8b565b935081548110610baa57610baa611e5f565b90600052602060002090600891828204019190066004026101000a81548163ffffffff021916908360e01c0217905550636ca50ed960e11b60058280610bef90611e8b565b935081548110610c0157610c01611e5f565b90600052602060002090600891828204019190066004026101000a81548163ffffffff021916908360e01c0217905550635f5f00ef60e01b60058280610c4690611e8b565b935081548110610c5857610c58611e5f565b90600052602060002090600891828204019190066004026101000a81548163ffffffff021916908360e01c02179055506330323f1960e01b60058280610c9d90611e8b565b935081548110610caf57610caf611e5f565b90600052602060002090600891828204019190066004026101000a81548163ffffffff021916908360e01c02179055506317812f2360e11b60058280610cf490611e8b565b935081548110610d0657610d06611e5f565b90600052602060002090600891828204019190066004026101000a81548163ffffffff021916908360e01c02179055505050565b6103e4816115da565b60005461010090046001600160a01b03163314610d8e5760405162461bcd60e51b81526020600482015260096024820152682737ba1037bbb732b960b91b60448201526064016105b0565b6103e481611817565b60006001600160e01b031982166350da677b60e01b14806102fa57506102fa82611870565b610dc4611905565b6001600160a01b0384163b610e0f5760405162461bcd60e51b8152602060048201526011602482015270139bdd081cdb585c9d18dbdb9d1c9858dd607a1b60448201526064016105b0565b6000610e1d85600185610672565b9050808260c0018190525080600081518110610e3b57610e3b611e5f565b6020026020010151158015610e67575080600181518110610e5e57610e5e611e5f565b60200260200101515b610ea05760405162461bcd60e51b815260206004820152600a6024820152694e6f742045524331363560b01b60448201526064016105b0565b80600281518110610eb357610eb3611e5f565b602002602001015180610edd575080600681518110610ed457610ed4611e5f565b60200260200101515b610f215760405162461bcd60e51b8152602060048201526015602482015274139bdd08139195081cdb585c9d18dbdb9d1c9858dd605a1b60448201526064016105b0565b6001600160a01b0385168252805181906009908110610f4257610f42611e5f565b602002602001015115610fcf57846001600160a01b0316638da5cb5b6040518163ffffffff1660e01b815260040160206040518083038186803b158015610f8857600080fd5b505afa158015610f9c573d6000803e3d6000fd5b505050506040513d601f19601f82011682018060405250810190610fc09190611edb565b6001600160a01b031660208301525b80600281518110610fe257610fe2611e5f565b6020026020010151156104d8578060038151811061100257611002611e5f565b60200260200101511561110757846001600160a01b03166306fdde036040518163ffffffff1660e01b815260040160006040518083038186803b15801561104857600080fd5b505afa15801561105c573d6000803e3d6000fd5b505050506040513d6000823e601f3d908101601f191682016040526110849190810190611ef8565b8260400181905250846001600160a01b03166395d89b416040518163ffffffff1660e01b815260040160006040518083038186803b1580156110c557600080fd5b505afa1580156110d9573d6000803e3d6000fd5b505050506040513d6000823e601f3d908101601f191682016040526111019190810190611ef8565b60608301525b8060048151811061111a5761111a611e5f565b60200260200101511561119e57846001600160a01b03166318160ddd6040518163ffffffff1660e01b815260040160206040518083038186803b15801561116057600080fd5b505afa158015611174573d6000803e3d6000fd5b505050506040513d601f19601f820116820180604052508101906111989190611f8c565b60808301525b6001600160a01b038416156104d8576040516370a0823160e01b81526001600160a01b0385811660048301528616906370a082319060240160206040518083038186803b1580156111ee57600080fd5b505afa158015611202573d6000803e3d6000fd5b505050506040513d601f19601f820116820180604052508101906112269190611f8c565b60a0830152509392505050565b60005461010090046001600160a01b03166001600160a01b0316336001600160a01b0316148061126d57506003546001600160a01b031633145b6112aa5760405162461bcd60e51b815260206004820152600e60248201526d2737ba103932b3b4b9ba32b932b960911b60448201526064016105b0565b806112b4816105db565b6112f15760405162461bcd60e51b815260206004820152600e60248201526d2737ba1021b7b63632b1ba34b7b760911b60448201526064016105b0565b6001600160a01b03821660009081526001602052604090205460ff161561134f5760405162461bcd60e51b8152602060048201526012602482015271105b1c9958591e481c9959da5cdd195c995960721b60448201526064016105b0565b506002805460018181019092557f405787fa12a823e0f2b7631cc41b3ba8828b3321ca811111fa75cd3aa3bb5ace0180546001600160a01b039093166001600160a01b031990931683179055600091825260208190526040909120805460ff19169091179055565b606060006113cd6113c661090d565b8585610420565b90506000805b825181101561145b5760008382815181106113f0576113f0611e5f565b602002602001015160a0015111806114365750856001600160a01b031683828151811061141f5761141f611e5f565b6020026020010151602001516001600160a01b0316145b15611449578161144581611e8b565b9250505b8061145381611e8b565b9150506113d3565b508067ffffffffffffffff81111561147557611475611b0b565b6040519080825280602002602001820160405280156114ae57816020015b61149b611905565b8152602001906001900390816114935790505b5092506000805b83518110156115735760008482815181106114d2576114d2611e5f565b602002602001015160a0015111806115185750866001600160a01b031684828151811061150157611501611e5f565b6020026020010151602001516001600160a01b0316145b156115615783818151811061152f5761152f611e5f565b602002602001015185838061154390611e8b565b94508151811061155557611555611e5f565b60200260200101819052505b8061156b81611e8b565b9150506114b5565b5050505092915050565b60005460ff16156115c45760405162461bcd60e51b8152602060048201526011602482015270125b9a5d08185b1c9958591e4818d85b1b607a1b60448201526064016105b0565b6000805460ff191660011790556103e481611817565b60005461010090046001600160a01b03166001600160a01b0316336001600160a01b0316148061161457506003546001600160a01b031633145b6116515760405162461bcd60e51b815260206004820152600e60248201526d2737ba103932b3b4b9ba32b932b960911b60448201526064016105b0565b60025481106116925760405162461bcd60e51b815260206004820152600d60248201526c092dcecc2d8d2c840d2dcc8caf609b1b60448201526064016105b0565b60016000600283815481106116a9576116a9611e5f565b60009182526020808320909101546001600160a01b0316835282019290925260400190205460ff1661170e5760405162461bcd60e51b815260206004820152600e60248201526d139bdd081c9959da5cdd195c995960921b60448201526064016105b0565b600160006002838154811061172557611725611e5f565b60009182526020808320909101546001600160a01b031683528201929092526040019020805460ff1916905560025461176090600190611fa5565b81146117e1576002805461177690600190611fa5565b8154811061178657611786611e5f565b600091825260209091200154600280546001600160a01b0390921691839081106117b2576117b2611e5f565b9060005260206000200160006101000a8154816001600160a01b0302191690836001600160a01b031602179055505b60028054806117f2576117f2611fbc565b600082815260209020810160001990810180546001600160a01b031916905501905550565b600080546001600160a01b03838116610100818102610100600160a81b0319851617855560405193049190911692909183917f8be0079c531659141344cd1fd0a4f28419497f9722a3daafe3b4186f6b6457e091a35050565b60006001600160e01b03198216631d80309360e21b14806102fa57506102fa8260006001600160e01b03198216631fea36bd60e21b14806102fa57506102fa8260006001600160e01b031982166303b6500f60e01b14806102fa57506102fa8260006307f5828d60e41b6001600160e01b0319831614806102fa57506001600160e01b031982166301ffc9a760e01b146102fa565b6040518060e0016040528060006001600160a01b0316815260200160006001600160a01b0316815260200160608152602001606081526020016000815260200160008152602001606081525090565b80356001600160e01b03198116811461196c57600080fd5b919050565b60006020828403121561198357600080fd5b61039082611954565b6001600160a01b03811681146103e457600080fd5b600080604083850312156119b457600080fd5b82356119bf8161198c565b915060208301356119cf8161198c565b809150509250929050565b60005b838110156119f55781810151838201526020016119dd565b83811115611a04576000848401525b50505050565b60008151808452611a228160208601602086016119da565b601f01601f19169290920160200192915050565b600081518084526020808501945080840160005b83811015611a68578151151587529582019590820190600101611a4a565b509495945050505050565b600060018060a01b0380835116845280602084015116602085015250604082015160e06040850152611aa860e0850182611a0a565b905060608301518482036060860152611ac18282611a0a565b9150506080830151608085015260a083015160a085015260c083015184820360c0860152611aef8282611a36565b95945050505050565b6020815260006103906020830184611a73565b634e487b7160e01b600052604160045260246000fd5b604051601f8201601f1916810167ffffffffffffffff81118282101715611b4a57611b4a611b0b565b604052919050565b600067ffffffffffffffff821115611b6c57611b6c611b0b565b5060051b60200190565b600082601f830112611b8757600080fd5b81356020611b9c611b9783611b52565b611b21565b82815260059290921b84018101918181019086841115611bbb57600080fd5b8286015b84811015611bdf578035611bd28161198c565b8352918301918301611bbf565b509695505050505050565b600060208284031215611bfc57600080fd5b813567ffffffffffffffff811115611c1357600080fd5b611c1f84828501611b76565b949350505050565b600060208284031215611c3957600080fd5b81356103908161198c565b6020815260006103906020830184611a36565b600082601f830112611c6857600080fd5b81356020611c78611b9783611b52565b82815260059290921b84018101918181019086841115611c9757600080fd5b8286015b84811015611bdf57611cac81611954565b8352918301918301611c9b565b600080600060608486031215611cce57600080fd5b833567ffffffffffffffff80821115611ce657600080fd5b611cf287838801611b76565b945060208601359150611d048261198c565b90925060408501359080821115611d1a57600080fd5b50611d2786828701611c57565b9150509250925092565b6000602080830181845280855180835260408601915060408160051b870101925083870160005b82811015611d8657603f19888603018452611d74858351611a73565b94509285019290850190600101611d58565b5092979650505050505050565b80151581146103e457600080fd5b600080600060608486031215611db657600080fd5b8335611dc18161198c565b92506020840135611dd181611d93565b9150604084013567ffffffffffffffff811115611ded57600080fd5b611d2786828701611c57565b6020808252825182820181905260009190848201906040850190845b81811015611e3a5783516001600160a01b031683529284019291840191600101611e15565b50909695505050505050565b600060208284031215611e5857600080fd5b5035919050565b634e487b7160e01b600052603260045260246000fd5b634e487b7160e01b600052601160045260246000fd5b6000600019821415611e9f57611e9f611e75565b5060010190565b60008219821115611eb957611eb9611e75565b500190565b600060208284031215611ed057600080fd5b815161039081611d93565b600060208284031215611eed57600080fd5b81516103908161198c565b600060208284031215611f0a57600080fd5b815167ffffffffffffffff80821115611f2257600080fd5b818401915084601f830112611f3657600080fd5b815181811115611f4857611f48611b0b565b611f5b601f8201601f1916602001611b21565b9150808252856020828501011115611f7257600080fd5b611f838160208401602086016119da565b50949350505050565b600060208284031215611f9e57600080fd5b5051919050565b600082821015611fb757611fb7611e75565b500390565b634e487b7160e01b600052603160045260246000fdfea26469706673582212200b3ec5a471cbe1d315c95f62f0917c72a8764c285d8e2d4f3c0e8f148e63611364736f6c63430008090033",
  "devdoc": {
    "kind": "dev",
    "methods": {},
    "version": 1
  },
  "userdoc": {
    "kind": "user",
    "methods": {},
    "version": 1
  },
  "storageLayout": {
    "storage": [
      {
        "astId": 6531,
        "contract": "contracts/next/NFTsResolver.sol:NFTsResolver",
        "label": "_openERC173Initialized",
        "offset": 0,
        "slot": "0",
        "type": "t_bool"
      },
      {
        "astId": 6533,
        "contract": "contracts/next/NFTsResolver.sol:NFTsResolver",
        "label": "_owner",
        "offset": 1,
        "slot": "0",
        "type": "t_address"
      },
      {
        "astId": 9127,
        "contract": "contracts/next/NFTsResolver.sol:NFTsResolver",
        "label": "isRegistered",
        "offset": 0,
        "slot": "1",
        "type": "t_mapping(t_address,t_bool)"
      },
      {
        "astId": 9130,
        "contract": "contracts/next/NFTsResolver.sol:NFTsResolver",
        "label": "_addresses",
        "offset": 0,
        "slot": "2",
        "type": "t_array(t_address)dyn_storage"
      },
      {
        "astId": 9132,
        "contract": "contracts/next/NFTsResolver.sol:NFTsResolver",
        "label": "_registerer",
        "offset": 0,
        "slot": "3",
        "type": "t_address"
      },
      {
        "astId": 8728,
        "contract": "contracts/next/NFTsResolver.sol:NFTsResolver",
        "label": "_ercInterfaceIds",
        "offset": 0,
        "slot": "4",
        "type": "t_array(t_bytes4)dyn_storage"
      },
      {
        "astId": 19609,
        "contract": "contracts/next/NFTsResolver.sol:NFTsResolver",
        "label": "_interfaceIds",
        "offset": 0,
        "slot": "5",
        "type": "t_array(t_bytes4)dyn_storage"
      }
    ],
    "types": {
      "t_address": {
        "encoding": "inplace",
        "label": "address",
        "numberOfBytes": "20"
      },
      "t_array(t_address)dyn_storage": {
        "base": "t_address",
        "encoding": "dynamic_array",
        "label": "address[]",
        "numberOfBytes": "32"
      },
      "t_array(t_bytes4)dyn_storage": {
        "base": "t_bytes4",
        "encoding": "dynamic_array",
        "label": "bytes4[]",
        "numberOfBytes": "32"
      },
      "t_bool": {
        "encoding": "inplace",
        "label": "bool",
        "numberOfBytes": "1"
      },
      "t_bytes4": {
        "encoding": "inplace",
        "label": "bytes4",
        "numberOfBytes": "4"
      },
      "t_mapping(t_address,t_bool)": {
        "encoding": "mapping",
        "key": "t_address",
        "label": "mapping(address => bool)",
        "numberOfBytes": "32",
        "value": "t_bool"
      }
    }
  }
}