{
  "address": "0x05C77aEF1C0B357fE2390C6ee469A2369AF2a89F",
  "abi": [
    {
      "anonymous": false,
      "inputs": [
        {
          "indexed": true,
          "internalType": "address",
          "name": "previousOwner",
          "type": "address"
        },
        {
          "indexed": true,
          "internalType": "address",
          "name": "newOwner",
          "type": "address"
        }
      ],
      "name": "OwnershipTransferred",
      "type": "event"
    },
    {
      "inputs": [
        {
          "internalType": "address",
          "name": "addr",
          "type": "address"
        }
      ],
      "name": "addAddress",
      "outputs": [],
      "stateMutability": "nonpayable",
      "type": "function"
    },
    {
      "inputs": [
        {
          "internalType": "address[]",
          "name": "addrs",
          "type": "address[]"
        }
      ],
      "name": "addAddresses",
      "outputs": [],
      "stateMutability": "nonpayable",
      "type": "function"
    },
    {
      "inputs": [
        {
          "internalType": "uint256",
          "name": "index",
          "type": "uint256"
        }
      ],
      "name": "burnAddress",
      "outputs": [],
      "stateMutability": "nonpayable",
      "type": "function"
    },
    {
      "inputs": [
        {
          "internalType": "address",
          "name": "smartcontract",
          "type": "address"
        }
      ],
      "name": "checkErcInterfaces",
      "outputs": [
        {
          "internalType": "bool[]",
          "name": "ercInterfacesChecks",
          "type": "bool[]"
        }
      ],
      "stateMutability": "view",
      "type": "function"
    },
    {
      "inputs": [
        {
          "internalType": "address",
          "name": "smartcontract",
          "type": "address"
        },
        {
          "internalType": "bool",
          "name": "withErc",
          "type": "bool"
        },
        {
          "internalType": "bytes4[]",
          "name": "interfaceIds",
          "type": "bytes4[]"
        }
      ],
      "name": "checkSupportedInterfaces",
      "outputs": [
        {
          "internalType": "bool[]",
          "name": "interfaceIdsChecks",
          "type": "bool[]"
        }
      ],
      "stateMutability": "view",
      "type": "function"
    },
    {
      "inputs": [],
      "name": "countAddresses",
      "outputs": [
        {
          "internalType": "uint256",
          "name": "",
          "type": "uint256"
        }
      ],
      "stateMutability": "view",
      "type": "function"
    },
    {
      "inputs": [],
      "name": "getAddresses",
      "outputs": [
        {
          "internalType": "address[]",
          "name": "",
          "type": "address[]"
        }
      ],
      "stateMutability": "view",
      "type": "function"
    },
    {
      "inputs": [
        {
          "internalType": "address",
          "name": "collection",
          "type": "address"
        }
      ],
      "name": "getCollectionInfos",
      "outputs": [
        {
          "components": [
            {
              "internalType": "address",
              "name": "collection",
              "type": "address"
            },
            {
              "internalType": "address",
              "name": "owner",
              "type": "address"
            },
            {
              "internalType": "string",
              "name": "name",
              "type": "string"
            },
            {
              "internalType": "string",
              "name": "symbol",
              "type": "string"
            },
            {
              "internalType": "uint256",
              "name": "totalSupply",
              "type": "uint256"
            },
            {
              "internalType": "uint256",
              "name": "balanceOf",
              "type": "uint256"
            },
            {
              "internalType": "bool[]",
              "name": "supported",
              "type": "bool[]"
            }
          ],
          "internalType": "struct IERC721Infos.CollectionInfos",
          "name": "collectionInfos",
          "type": "tuple"
        }
      ],
      "stateMutability": "view",
      "type": "function"
    },
    {
      "inputs": [
        {
          "internalType": "address[]",
          "name": "collections",
          "type": "address[]"
        },
        {
          "internalType": "bytes4[]",
          "name": "interfaceIds",
          "type": "bytes4[]"
        },
        {
          "internalType": "address",
          "name": "account",
          "type": "address"
        }
      ],
      "name": "getCollectionsInfos",
      "outputs": [
        {
          "components": [
            {
              "internalType": "address",
              "name": "collection",
              "type": "address"
            },
            {
              "internalType": "address",
              "name": "owner",
              "type": "address"
            },
            {
              "internalType": "string",
              "name": "name",
              "type": "string"
            },
            {
              "internalType": "string",
              "name": "symbol",
              "type": "string"
            },
            {
              "internalType": "uint256",
              "name": "totalSupply",
              "type": "uint256"
            },
            {
              "internalType": "uint256",
              "name": "balanceOf",
              "type": "uint256"
            },
            {
              "internalType": "bool[]",
              "name": "supported",
              "type": "bool[]"
            }
          ],
          "internalType": "struct IERC721Infos.CollectionInfos[]",
          "name": "collectionsInfos",
          "type": "tuple[]"
        }
      ],
      "stateMutability": "view",
      "type": "function"
    },
    {
      "inputs": [
        {
          "internalType": "address",
          "name": "account",
          "type": "address"
        }
      ],
      "name": "getResolverCollectionsInfos",
      "outputs": [
        {
          "components": [
            {
              "internalType": "address",
              "name": "collection",
              "type": "address"
            },
            {
              "internalType": "address",
              "name": "owner",
              "type": "address"
            },
            {
              "internalType": "string",
              "name": "name",
              "type": "string"
            },
            {
              "internalType": "string",
              "name": "symbol",
              "type": "string"
            },
            {
              "internalType": "uint256",
              "name": "totalSupply",
              "type": "uint256"
            },
            {
              "internalType": "uint256",
              "name": "balanceOf",
              "type": "uint256"
            },
            {
              "internalType": "bool[]",
              "name": "supported",
              "type": "bool[]"
            }
          ],
          "internalType": "struct IERC721Infos.CollectionInfos[]",
          "name": "collectionsInfos",
          "type": "tuple[]"
        }
      ],
      "stateMutability": "view",
      "type": "function"
    },
    {
      "inputs": [
        {
          "internalType": "address",
          "name": "account",
          "type": "address"
        },
        {
          "internalType": "bytes4[]",
          "name": "interfaceIds",
          "type": "bytes4[]"
        }
      ],
      "name": "getResolverCollectionsInfos",
      "outputs": [
        {
          "components": [
            {
              "internalType": "address",
              "name": "collection",
              "type": "address"
            },
            {
              "internalType": "address",
              "name": "owner",
              "type": "address"
            },
            {
              "internalType": "string",
              "name": "name",
              "type": "string"
            },
            {
              "internalType": "string",
              "name": "symbol",
              "type": "string"
            },
            {
              "internalType": "uint256",
              "name": "totalSupply",
              "type": "uint256"
            },
            {
              "internalType": "uint256",
              "name": "balanceOf",
              "type": "uint256"
            },
            {
              "internalType": "bool[]",
              "name": "supported",
              "type": "bool[]"
            }
          ],
          "internalType": "struct IERC721Infos.CollectionInfos[]",
          "name": "collectionsInfos",
          "type": "tuple[]"
        }
      ],
      "stateMutability": "view",
      "type": "function"
    },
    {
      "inputs": [
        {
          "internalType": "address",
          "name": "owner_",
          "type": "address"
        }
      ],
      "name": "initialize",
      "outputs": [],
      "stateMutability": "nonpayable",
      "type": "function"
    },
    {
      "inputs": [],
      "name": "owner",
      "outputs": [
        {
          "internalType": "address",
          "name": "",
          "type": "address"
        }
      ],
      "stateMutability": "view",
      "type": "function"
    },
    {
      "inputs": [
        {
          "internalType": "bytes4",
          "name": "interfaceId",
          "type": "bytes4"
        }
      ],
      "name": "supportsInterface",
      "outputs": [
        {
          "internalType": "bool",
          "name": "",
          "type": "bool"
        }
      ],
      "stateMutability": "view",
      "type": "function"
    },
    {
      "inputs": [
        {
          "internalType": "address",
          "name": "newOwner",
          "type": "address"
        }
      ],
      "name": "transferOwnership",
      "outputs": [],
      "stateMutability": "nonpayable",
      "type": "function"
    }
  ],
  "transactionHash": "0x29b3795c295982d2f1d3a86b98016bf54d0dce06e40100b435c085f4435bb739",
  "args": [],
  "numDeployments": 18,
  "solcInputHash": "c2ceb6e5165e6c3ba3ce1cdacc35502f",
  "bytecode": "0x6101e06040526001600160e01b031960809081526301ffc9a760e01b60a0526380ac58cd60e01b60c052635b5e139f60e01b60e05263780e9d6360e01b61010052630a85bd0160e11b61012052636cdb3d1360e11b610140526303a24d0760e21b61016052630271189760e51b610180526307f5828d60e41b6101a05263152a902d60e11b6101c0526200009890600290600b620000ad565b50348015620000a657600080fd5b5062000177565b828054828255906000526020600020906007016008900481019282156200014e5791602002820160005b838211156200011a57835183826101000a81548163ffffffff021916908360e01c02179055509260200192600401602081600301049283019260010302620000d7565b80156200014c5782816101000a81549063ffffffff02191690556004016020816003010492830192600103026200011a565b505b506200015c92915062000160565b5090565b5b808211156200015c576000815560010162000161565b6118f580620001876000396000f3fe608060405234801561001057600080fd5b50600436106100f55760003560e01c806374de1fd011610097578063adbc5c3311610066578063adbc5c3314610221578063c4d66de814610234578063ec530de614610247578063f2fde38b1461025857600080fd5b806374de1fd0146101b05780637600c24c146101c35780638da5cb5b146101e3578063a39fac121461020c57600080fd5b806338eada1c116100d357806338eada1c1461014a578063490f06eb1461015d578063690682a41461017d57806369bea90f1461019057600080fd5b806301ffc9a7146100fa578063043f5cbb146101225780633628731c14610137575b600080fd5b61010d6101083660046111ff565b61026b565b60405190151581526020015b60405180910390f35b610135610130366004611221565b610296565b005b61013561014536600461132e565b6103e5565b61013561015836600461136b565b610497565b61017061016b36600461136b565b610529565b6040516101199190611388565b61017061018b36600461143e565b61055e565b6101a361019e3660046114a0565b6107d5565b604051610119919061161e565b6101a36101be36600461136b565b610895565b6101d66101d136600461136b565b6108b2565b6040516101199190611680565b60005461010090046001600160a01b03166040516001600160a01b039091168152602001610119565b6102146108d5565b6040516101199190611693565b6101a361022f3660046116d4565b610937565b61013561024236600461136b565b610b50565b600154604051908152602001610119565b61013561026636600461136b565b610b5c565b60006001600160e01b0319821663189acdbd60e31b1480610290575061029082610bb0565b92915050565b60005461010090046001600160a01b03166001600160a01b0316336001600160a01b0316146102e05760405162461bcd60e51b81526004016102d790611724565b60405180910390fd5b60015481106103215760405162461bcd60e51b815260206004820152600d60248201526c092dcecc2d8d2c840d2dcc8caf609b1b60448201526064016102d7565b6001805461032f9190611762565b81146103af5760018054610344908290611762565b8154811061035457610354611779565b600091825260209091200154600180546001600160a01b03909216918390811061038057610380611779565b9060005260206000200160006101000a8154816001600160a01b0302191690836001600160a01b031602179055505b60018054806103c0576103c061178f565b600082815260209020810160001990810180546001600160a01b031916905501905550565b60005461010090046001600160a01b03166001600160a01b0316336001600160a01b0316146104265760405162461bcd60e51b81526004016102d790611724565b60005b815181101561049357600182828151811061044657610446611779565b60209081029190910181015182546001810184556000938452919092200180546001600160a01b0319166001600160a01b039092169190911790558061048b816117a5565b915050610429565b5050565b60005461010090046001600160a01b03166001600160a01b0316336001600160a01b0316146104d85760405162461bcd60e51b81526004016102d790611724565b6001805480820182556000919091527fb10e2d527612073b26eecdfd717e6a320cf44b4afac2b0732d9fcbe2b7fa0cf60180546001600160a01b0319166001600160a01b0392909216919091179055565b6060610290826001600060405190808252806020026020018201604052801561055c578160200160208202803683370190505b505b6060600080835185610571576000610575565b6002545b61057f91906117c0565b90508067ffffffffffffffff81111561059a5761059a61123a565b6040519080825280602002602001820160405280156105c3578160200160208202803683370190505b50925084156106db5760005b6002548110156106d957866001600160a01b03166301ffc9a7600283815481106105fb576105fb611779565b90600052602060002090600891828204019190066004029054906101000a900460e01b6040518263ffffffff1660e01b815260040161064a91906001600160e01b031991909116815260200190565b60206040518083038186803b15801561066257600080fd5b505afa158015610676573d6000803e3d6000fd5b505050506040513d601f19601f8201168201806040525081019061069a91906117d8565b84846106a5816117a5565b9550815181106106b7576106b7611779565b91151560209283029190910190910152806106d1816117a5565b9150506105cf565b505b60005b84518110156107cb57866001600160a01b03166301ffc9a786838151811061070857610708611779565b60200260200101516040518263ffffffff1660e01b815260040161073c91906001600160e01b031991909116815260200190565b60206040518083038186803b15801561075457600080fd5b505afa158015610768573d6000803e3d6000fd5b505050506040513d601f19601f8201168201806040525081019061078c91906117d8565b8484610797816117a5565b9550815181106107a9576107a9611779565b91151560209283029190910190910152806107c3816117a5565b9150506106de565b5050509392505050565b6060835167ffffffffffffffff8111156107f1576107f161123a565b60405190808252806020026020018201604052801561082a57816020015b610817611193565b81526020019060019003908161080f5790505b50905060005b845181101561088d5761085d85828151811061084e5761084e611779565b60200260200101518585610bd5565b82828151811061086f5761086f611779565b60200260200101819052508080610885906117a5565b915050610830565b509392505050565b604080516000815260208101909152606090610290908390610937565b6108ba611193565b60408051600081526020810190915261029090839033610bd5565b6060600180548060200260200160405190810160405280929190818152602001828054801561092d57602002820191906000526020600020905b81546001600160a01b0316815260019091019060200180831161090f575b5050505050905090565b606060006109a0600180548060200260200160405190810160405280929190818152602001828054801561099457602002820191906000526020600020905b81546001600160a01b03168152600190910190602001808311610976575b505050505084866107d5565b90506000805b8251811015610a2e5760008382815181106109c3576109c3611779565b602002602001015160a001511180610a095750856001600160a01b03168382815181106109f2576109f2611779565b6020026020010151602001516001600160a01b0316145b15610a1c5781610a18816117a5565b9250505b80610a26816117a5565b9150506109a6565b508067ffffffffffffffff811115610a4857610a4861123a565b604051908082528060200260200182016040528015610a8157816020015b610a6e611193565b815260200190600190039081610a665790505b5092506000805b8351811015610b46576000848281518110610aa557610aa5611779565b602002602001015160a001511180610aeb5750866001600160a01b0316848281518110610ad457610ad4611779565b6020026020010151602001516001600160a01b0316145b15610b3457838181518110610b0257610b02611779565b6020026020010151858380610b16906117a5565b945081518110610b2857610b28611779565b60200260200101819052505b80610b3e816117a5565b915050610a88565b5050505092915050565b610b598161104c565b50565b60005461010090046001600160a01b03163314610ba75760405162461bcd60e51b81526020600482015260096024820152682737ba1037bbb732b960b91b60448201526064016102d7565b610b59816110a5565b60006001600160e01b0319821663d96243e360e01b14806102905750610290826110fe565b610bdd611193565b6001600160a01b0384163b610c285760405162461bcd60e51b8152602060048201526011602482015270139bdd081cdb585c9d18dbdb9d1c9858dd607a1b60448201526064016102d7565b6000610c368560018661055e565b9050808260c0018190525080600081518110610c5457610c54611779565b6020026020010151158015610c80575080600181518110610c7757610c77611779565b60200260200101515b610cb95760405162461bcd60e51b815260206004820152600a6024820152694e6f742045524331363560b01b60448201526064016102d7565b80600281518110610ccc57610ccc611779565b602002602001015180610cf6575080600681518110610ced57610ced611779565b60200260200101515b610d3a5760405162461bcd60e51b8152602060048201526015602482015274139bdd08139195081cdb585c9d18dbdb9d1c9858dd605a1b60448201526064016102d7565b6001600160a01b0385168252805181906009908110610d5b57610d5b611779565b602002602001015115610de857846001600160a01b0316638da5cb5b6040518163ffffffff1660e01b815260040160206040518083038186803b158015610da157600080fd5b505afa158015610db5573d6000803e3d6000fd5b505050506040513d601f19601f82011682018060405250810190610dd991906117f5565b6001600160a01b031660208301525b80600281518110610dfb57610dfb611779565b60200260200101511561088d5780600381518110610e1b57610e1b611779565b602002602001015115610f2057846001600160a01b03166306fdde036040518163ffffffff1660e01b815260040160006040518083038186803b158015610e6157600080fd5b505afa158015610e75573d6000803e3d6000fd5b505050506040513d6000823e601f3d908101601f19168201604052610e9d9190810190611812565b8260400181905250846001600160a01b03166395d89b416040518163ffffffff1660e01b815260040160006040518083038186803b158015610ede57600080fd5b505afa158015610ef2573d6000803e3d6000fd5b505050506040513d6000823e601f3d908101601f19168201604052610f1a9190810190611812565b60608301525b80600481518110610f3357610f33611779565b602002602001015115610fb757846001600160a01b03166318160ddd6040518163ffffffff1660e01b815260040160206040518083038186803b158015610f7957600080fd5b505afa158015610f8d573d6000803e3d6000fd5b505050506040513d601f19601f82011682018060405250810190610fb191906118a6565b60808301525b6001600160a01b0383161561088d576040516370a0823160e01b81526001600160a01b0384811660048301528616906370a082319060240160206040518083038186803b15801561100757600080fd5b505afa15801561101b573d6000803e3d6000fd5b505050506040513d601f19601f8201168201806040525081019061103f91906118a6565b60a0830152509392505050565b60005460ff16156110935760405162461bcd60e51b8152602060048201526011602482015270125b9a5d08185b1c9958591e4818d85b1b607a1b60448201526064016102d7565b6000805460ff19166001179055610b59815b600080546001600160a01b03838116610100818102610100600160a81b0319851617855560405193049190911692909183917f8be0079c531659141344cd1fd0a4f28419497f9722a3daafe3b4186f6b6457e091a35050565b60006001600160e01b03198216631fbe6b4360e01b148061029057506102908260006001600160e01b03198216632009844f60e01b148061029057506102908260006001600160e01b03198216634531544f60e01b148061029057506102908260006307f5828d60e41b6001600160e01b03198316148061029057506001600160e01b031982166301ffc9a760e01b14610290565b6040518060e0016040528060006001600160a01b0316815260200160006001600160a01b0316815260200160608152602001606081526020016000815260200160008152602001606081525090565b80356001600160e01b0319811681146111fa57600080fd5b919050565b60006020828403121561121157600080fd5b61121a826111e2565b9392505050565b60006020828403121561123357600080fd5b5035919050565b634e487b7160e01b600052604160045260246000fd5b604051601f8201601f1916810167ffffffffffffffff811182821017156112795761127961123a565b604052919050565b600067ffffffffffffffff82111561129b5761129b61123a565b5060051b60200190565b6001600160a01b0381168114610b5957600080fd5b600082601f8301126112cb57600080fd5b813560206112e06112db83611281565b611250565b82815260059290921b840181019181810190868411156112ff57600080fd5b8286015b84811015611323578035611316816112a5565b8352918301918301611303565b509695505050505050565b60006020828403121561134057600080fd5b813567ffffffffffffffff81111561135757600080fd5b611363848285016112ba565b949350505050565b60006020828403121561137d57600080fd5b813561121a816112a5565b6020808252825182820181905260009190848201906040850190845b818110156113c25783511515835292840192918401916001016113a4565b50909695505050505050565b8015158114610b5957600080fd5b600082601f8301126113ed57600080fd5b813560206113fd6112db83611281565b82815260059290921b8401810191818101908684111561141c57600080fd5b8286015b8481101561132357611431816111e2565b8352918301918301611420565b60008060006060848603121561145357600080fd5b833561145e816112a5565b9250602084013561146e816113ce565b9150604084013567ffffffffffffffff81111561148a57600080fd5b611496868287016113dc565b9150509250925092565b6000806000606084860312156114b557600080fd5b833567ffffffffffffffff808211156114cd57600080fd5b6114d9878388016112ba565b945060208601359150808211156114ef57600080fd5b506114fc868287016113dc565b925050604084013561150d816112a5565b809150509250925092565b60005b8381101561153357818101518382015260200161151b565b83811115611542576000848401525b50505050565b60008151808452611560816020860160208601611518565b601f01601f19169290920160200192915050565b600060018060a01b038083511684526020818185015116818601526040840151915060e060408601526115aa60e0860183611548565b9150606084015185830360608701526115c38382611548565b9250506080840151608086015260a084015160a086015260c084015185830360c087015282815180855283850191508383019450600092505b80831015611323578451151582529383019360019290920191908301906115fc565b6000602080830181845280855180835260408601915060408160051b870101925083870160005b8281101561167357603f19888603018452611661858351611574565b94509285019290850190600101611645565b5092979650505050505050565b60208152600061121a6020830184611574565b6020808252825182820181905260009190848201906040850190845b818110156113c25783516001600160a01b0316835292840192918401916001016116af565b600080604083850312156116e757600080fd5b82356116f2816112a5565b9150602083013567ffffffffffffffff81111561170e57600080fd5b61171a858286016113dc565b9150509250929050565b6020808252600e908201526d2737ba103932b3b4b9ba32b932b960911b604082015260600190565b634e487b7160e01b600052601160045260246000fd5b6000828210156117745761177461174c565b500390565b634e487b7160e01b600052603260045260246000fd5b634e487b7160e01b600052603160045260246000fd5b60006000198214156117b9576117b961174c565b5060010190565b600082198211156117d3576117d361174c565b500190565b6000602082840312156117ea57600080fd5b815161121a816113ce565b60006020828403121561180757600080fd5b815161121a816112a5565b60006020828403121561182457600080fd5b815167ffffffffffffffff8082111561183c57600080fd5b818401915084601f83011261185057600080fd5b8151818111156118625761186261123a565b611875601f8201601f1916602001611250565b915080825285602082850101111561188c57600080fd5b61189d816020840160208601611518565b50949350505050565b6000602082840312156118b857600080fd5b505191905056fea2646970667358221220834b409081d0eef272cda17013d5f01f700a556d1b591c1564c9e913ff7bdbea64736f6c63430008090033",
  "devdoc": {
    "kind": "dev",
    "methods": {},
    "version": 1
  },
  "userdoc": {
    "kind": "user",
    "methods": {},
    "version": 1
  },
  "storageLayout": {
    "storage": [
      {
        "astId": 6531,
        "contract": "contracts/next/NFTsResolver.sol:NFTsResolver",
        "label": "_openERC173Initialized",
        "offset": 0,
        "slot": "0",
        "type": "t_bool"
      },
      {
        "astId": 6533,
        "contract": "contracts/next/NFTsResolver.sol:NFTsResolver",
        "label": "_owner",
        "offset": 1,
        "slot": "0",
        "type": "t_address"
      },
      {
        "astId": 9162,
        "contract": "contracts/next/NFTsResolver.sol:NFTsResolver",
        "label": "_addresses",
        "offset": 0,
        "slot": "1",
        "type": "t_array(t_address)dyn_storage"
      },
      {
        "astId": 8748,
        "contract": "contracts/next/NFTsResolver.sol:NFTsResolver",
        "label": "_ercInterfaceIds",
        "offset": 0,
        "slot": "2",
        "type": "t_array(t_bytes4)dyn_storage"
      }
    ],
    "types": {
      "t_address": {
        "encoding": "inplace",
        "label": "address",
        "numberOfBytes": "20"
      },
      "t_array(t_address)dyn_storage": {
        "base": "t_address",
        "encoding": "dynamic_array",
        "label": "address[]",
        "numberOfBytes": "32"
      },
      "t_array(t_bytes4)dyn_storage": {
        "base": "t_bytes4",
        "encoding": "dynamic_array",
        "label": "bytes4[]",
        "numberOfBytes": "32"
      },
      "t_bool": {
        "encoding": "inplace",
        "label": "bool",
        "numberOfBytes": "1"
      },
      "t_bytes4": {
        "encoding": "inplace",
        "label": "bytes4",
        "numberOfBytes": "4"
      }
    }
  }
}