{
  "address": "0xFc4C8408136F695685AdbbC30AE20833cA78E608",
  "abi": [
    {
      "inputs": [
        {
          "internalType": "address",
          "name": "initialOwner",
          "type": "address"
        },
        {
          "internalType": "address",
          "name": "resolver",
          "type": "address"
        }
      ],
      "stateMutability": "nonpayable",
      "type": "constructor"
    },
    {
      "anonymous": false,
      "inputs": [
        {
          "indexed": true,
          "internalType": "address",
          "name": "previousOwner",
          "type": "address"
        },
        {
          "indexed": true,
          "internalType": "address",
          "name": "newOwner",
          "type": "address"
        }
      ],
      "name": "OwnershipTransferred",
      "type": "event"
    },
    {
      "anonymous": false,
      "inputs": [
        {
          "indexed": true,
          "internalType": "string",
          "name": "templateName",
          "type": "string"
        },
        {
          "indexed": true,
          "internalType": "address",
          "name": "template",
          "type": "address"
        }
      ],
      "name": "SetTemplate",
      "type": "event"
    },
    {
      "inputs": [
        {
          "internalType": "string",
          "name": "name",
          "type": "string"
        },
        {
          "internalType": "string",
          "name": "symbol",
          "type": "string"
        },
        {
          "internalType": "string",
          "name": "templateName",
          "type": "string"
        },
        {
          "internalType": "bool[]",
          "name": "options",
          "type": "bool[]"
        }
      ],
      "name": "clone",
      "outputs": [
        {
          "internalType": "address",
          "name": "clone_",
          "type": "address"
        }
      ],
      "stateMutability": "nonpayable",
      "type": "function"
    },
    {
      "inputs": [],
      "name": "nftsResolver",
      "outputs": [
        {
          "internalType": "address",
          "name": "",
          "type": "address"
        }
      ],
      "stateMutability": "view",
      "type": "function"
    },
    {
      "inputs": [],
      "name": "owner",
      "outputs": [
        {
          "internalType": "address",
          "name": "",
          "type": "address"
        }
      ],
      "stateMutability": "view",
      "type": "function"
    },
    {
      "inputs": [
        {
          "internalType": "string",
          "name": "templateName",
          "type": "string"
        },
        {
          "internalType": "address",
          "name": "template",
          "type": "address"
        }
      ],
      "name": "setTemplate",
      "outputs": [],
      "stateMutability": "nonpayable",
      "type": "function"
    },
    {
      "inputs": [
        {
          "internalType": "bytes4",
          "name": "interfaceId",
          "type": "bytes4"
        }
      ],
      "name": "supportsInterface",
      "outputs": [
        {
          "internalType": "bool",
          "name": "",
          "type": "bool"
        }
      ],
      "stateMutability": "view",
      "type": "function"
    },
    {
      "inputs": [
        {
          "internalType": "string",
          "name": "",
          "type": "string"
        }
      ],
      "name": "templates",
      "outputs": [
        {
          "internalType": "address",
          "name": "",
          "type": "address"
        }
      ],
      "stateMutability": "view",
      "type": "function"
    },
    {
      "inputs": [
        {
          "internalType": "address",
          "name": "newOwner",
          "type": "address"
        }
      ],
      "name": "transferOwnership",
      "outputs": [],
      "stateMutability": "nonpayable",
      "type": "function"
    }
  ],
  "transactionHash": "0x5c413ff28dc09a9a4fd29c1f99406615bff1eda81e3a9851d17cba77c8c09a19",
  "args": [
    "0x6eebAe27d69fa80f0E4C0E973A2Fed218A56880c",
    "0xe32320Bf9e9B492d44eb0f1362792d1bc3FA3c7B"
  ],
  "numDeployments": 1,
  "solcInputHash": "3aa988bbdb276ef28bb44ea12d95b9ad",
  "bytecode": "0x608060405234801561001057600080fd5b50604051610b6a380380610b6a83398101604081905261002f916100d3565b6100388261005e565b600280546001600160a01b0319166001600160a01b039290921691909117905550610106565b600080546001600160a01b03838116610100818102610100600160a81b0319851617855560405193049190911692909183917f8be0079c531659141344cd1fd0a4f28419497f9722a3daafe3b4186f6b6457e091a35050565b80516001600160a01b03811681146100ce57600080fd5b919050565b600080604083850312156100e657600080fd5b6100ef836100b7565b91506100fd602084016100b7565b90509250929050565b610a55806101156000396000f3fe608060405234801561001057600080fd5b506004361061007d5760003560e01c8063848ec03c1161005b578063848ec03c146100ea5780638da5cb5b146100fd578063b22beeda14610113578063f2fde38b1461014757600080fd5b806301ffc9a71461008257806307caa21e146100aa5780631b6740dd146100bf575b600080fd5b6100956100903660046105fe565b61015a565b60405190151581526020015b60405180910390f35b6100bd6100b8366004610646565b610191565b005b6100d26100cd36600461078c565b61032f565b6040516001600160a01b0390911681526020016100a1565b6002546100d2906001600160a01b031681565b60005461010090046001600160a01b03166100d2565b6100d26101213660046108a7565b80516020818301810180516001825292820191909301209152546001600160a01b031681565b6100bd6101553660046108e4565b610410565b60006307f5828d60e41b6001600160e01b03198316148061018b57506001600160e01b031982166301ffc9a760e01b145b92915050565b60005461010090046001600160a01b031633146101e15760405162461bcd60e51b81526020600482015260096024820152682737ba1037bbb732b960b91b60448201526064015b60405180910390fd5b6040516301ffc9a760e01b8152631fc9136f60e11b60048201526001600160a01b038216906301ffc9a79060240160206040518083038186803b15801561022757600080fd5b505afa15801561023b573d6000803e3d6000fd5b505050506040513d601f19601f8201168201806040525081019061025f91906108ff565b6102ab5760405162461bcd60e51b815260206004820181905260248201527f4e6f742076616c6964204f70656e436c6f6e6561626c652074656d706c61746560448201526064016101d8565b80600184846040516102be92919061091c565b90815260405190819003602001812080546001600160a01b039384166001600160a01b0319909116179055908216906102fa908590859061091c565b604051908190038120907f0805d159c526bc0a16b114e2c18bbc96111fe7088afd57625b9976f8e55f473f90600090a3505050565b600061034261033d84610467565b610508565b604051630a9c216960e31b81529091506001600160a01b038216906354e10b4890610377908890889033908890600401610988565b600060405180830381600087803b15801561039157600080fd5b505af11580156103a5573d6000803e3d6000fd5b5050600254604051630e3ab68760e21b81526001600160a01b03858116600483015290911692506338eada1c9150602401600060405180830381600087803b1580156103f057600080fd5b505af1158015610404573d6000803e3d6000fd5b50505050949350505050565b60005461010090046001600160a01b0316331461045b5760405162461bcd60e51b81526020600482015260096024820152682737ba1037bbb732b960b91b60448201526064016101d8565b610464816105a5565b50565b6000806001600160a01b03166001836040516104839190610a03565b908152604051908190036020019020546001600160a01b031614156104d95760405162461bcd60e51b815260206004820152600c60248201526b4261642054656d706c61746560a01b60448201526064016101d8565b6001826040516104e99190610a03565b908152604051908190036020019020546001600160a01b031692915050565b6000604051733d602d80600a3d3981f3363d3d373d3d3d363d7360601b81528260601b60148201526e5af43d82803e903d91602b57fd5bf360881b60288201526037816000f09150506001600160a01b0381166105a05760405162461bcd60e51b8152602060048201526016602482015275115490cc4c4d8dce8818dc99585d194819985a5b195960521b60448201526064016101d8565b919050565b600080546001600160a01b03838116610100818102610100600160a81b0319851617855560405193049190911692909183917f8be0079c531659141344cd1fd0a4f28419497f9722a3daafe3b4186f6b6457e091a35050565b60006020828403121561061057600080fd5b81356001600160e01b03198116811461062857600080fd5b9392505050565b80356001600160a01b03811681146105a057600080fd5b60008060006040848603121561065b57600080fd5b833567ffffffffffffffff8082111561067357600080fd5b818601915086601f83011261068757600080fd5b81358181111561069657600080fd5b8760208285010111156106a857600080fd5b6020928301955093506106be918601905061062f565b90509250925092565b634e487b7160e01b600052604160045260246000fd5b604051601f8201601f1916810167ffffffffffffffff81118282101715610706576107066106c7565b604052919050565b600082601f83011261071f57600080fd5b813567ffffffffffffffff811115610739576107396106c7565b61074c601f8201601f19166020016106dd565b81815284602083860101111561076157600080fd5b816020850160208301376000918101602001919091529392505050565b801515811461046457600080fd5b600080600080608085870312156107a257600080fd5b843567ffffffffffffffff808211156107ba57600080fd5b6107c68883890161070e565b95506020915081870135818111156107dd57600080fd5b6107e989828a0161070e565b9550506040870135818111156107fe57600080fd5b61080a89828a0161070e565b94505060608701358181111561081f57600080fd5b8701601f8101891361083057600080fd5b803582811115610842576108426106c7565b8060051b92506108538484016106dd565b818152928201840192848101908b85111561086d57600080fd5b928501925b8484101561089757833592506108878361077e565b8282529285019290850190610872565b989b979a50959850505050505050565b6000602082840312156108b957600080fd5b813567ffffffffffffffff8111156108d057600080fd5b6108dc8482850161070e565b949350505050565b6000602082840312156108f657600080fd5b6106288261062f565b60006020828403121561091157600080fd5b81516106288161077e565b8183823760009101908152919050565b60005b8381101561094757818101518382015260200161092f565b83811115610956576000848401525b50505050565b6000815180845261097481602086016020860161092c565b601f01601f19169290920160200192915050565b60808152600061099b608083018761095c565b6020838203818501526109ae828861095c565b6001600160a01b03871660408601528481036060860152855180825282870193509082019060005b818110156109f45784511515835293830193918301916001016109d6565b50909998505050505050505050565b60008251610a1581846020870161092c565b919091019291505056fea2646970667358221220aa2b75037ac2d8591a2534c3968011ce4d32d5391f421a235e2b984b356731ed64736f6c63430008090033",
  "devdoc": {
    "details": "is CloneFactory",
    "kind": "dev",
    "methods": {
      "clone(string,string,string,bool[])": {
        "params": {
          "name": "name of Clone collection",
          "symbol": "symbol of Clone collection"
        },
        "returns": {
          "clone_": "Address of Clone collection"
        }
      },
      "setTemplate(string,address)": {
        "params": {
          "template": "Address of the template",
          "templateName": "Name of the template"
        }
      }
    },
    "title": "NFTsFactory smartcontract",
    "version": 1
  },
  "userdoc": {
    "kind": "user",
    "methods": {
      "clone(string,string,string,bool[])": {
        "notice": "clone template"
      },
      "setTemplate(string,address)": {
        "notice": "Set Template by Name"
      },
      "templates(string)": {
        "notice": "Named Templates"
      }
    },
    "notice": "Templates are OPEN_NFTS contractsImplementations are ERC721 contracts (including OPEN_NFTS clones)Factory can clone OPEN_NFTs templates to implementationsFactory can also add ERC721 contracts to implementations",
    "version": 1
  },
  "storageLayout": {
    "storage": [
      {
        "astId": 6531,
        "contract": "contracts/next/NFTsFactoryV3.sol:NFTsFactoryV3",
        "label": "_openERC173Initialized",
        "offset": 0,
        "slot": "0",
        "type": "t_bool"
      },
      {
        "astId": 6533,
        "contract": "contracts/next/NFTsFactoryV3.sol:NFTsFactoryV3",
        "label": "_owner",
        "offset": 1,
        "slot": "0",
        "type": "t_address"
      },
      {
        "astId": 18788,
        "contract": "contracts/next/NFTsFactoryV3.sol:NFTsFactoryV3",
        "label": "templates",
        "offset": 0,
        "slot": "1",
        "type": "t_mapping(t_string_memory_ptr,t_address)"
      },
      {
        "astId": 18790,
        "contract": "contracts/next/NFTsFactoryV3.sol:NFTsFactoryV3",
        "label": "nftsResolver",
        "offset": 0,
        "slot": "2",
        "type": "t_address"
      }
    ],
    "types": {
      "t_address": {
        "encoding": "inplace",
        "label": "address",
        "numberOfBytes": "20"
      },
      "t_bool": {
        "encoding": "inplace",
        "label": "bool",
        "numberOfBytes": "1"
      },
      "t_mapping(t_string_memory_ptr,t_address)": {
        "encoding": "mapping",
        "key": "t_string_memory_ptr",
        "label": "mapping(string => address)",
        "numberOfBytes": "32",
        "value": "t_address"
      },
      "t_string_memory_ptr": {
        "encoding": "bytes",
        "label": "string",
        "numberOfBytes": "32"
      }
    }
  }
}