{
  "address": "0xe32320Bf9e9B492d44eb0f1362792d1bc3FA3c7B",
  "abi": [
    {
      "anonymous": false,
      "inputs": [
        {
          "indexed": true,
          "internalType": "address",
          "name": "previousOwner",
          "type": "address"
        },
        {
          "indexed": true,
          "internalType": "address",
          "name": "newOwner",
          "type": "address"
        }
      ],
      "name": "OwnershipTransferred",
      "type": "event"
    },
    {
      "inputs": [
        {
          "internalType": "address",
          "name": "addr",
          "type": "address"
        }
      ],
      "name": "addAddress",
      "outputs": [],
      "stateMutability": "nonpayable",
      "type": "function"
    },
    {
      "inputs": [
        {
          "internalType": "address[]",
          "name": "addrs",
          "type": "address[]"
        }
      ],
      "name": "addAddresses",
      "outputs": [],
      "stateMutability": "nonpayable",
      "type": "function"
    },
    {
      "inputs": [
        {
          "internalType": "uint256",
          "name": "index",
          "type": "uint256"
        }
      ],
      "name": "burnAddress",
      "outputs": [],
      "stateMutability": "nonpayable",
      "type": "function"
    },
    {
      "inputs": [
        {
          "internalType": "address",
          "name": "smartcontract",
          "type": "address"
        }
      ],
      "name": "checkErcInterfaces",
      "outputs": [
        {
          "internalType": "bool[]",
          "name": "interfaceIdsChecker",
          "type": "bool[]"
        }
      ],
      "stateMutability": "view",
      "type": "function"
    },
    {
      "inputs": [
        {
          "internalType": "address",
          "name": "smartcontract",
          "type": "address"
        },
        {
          "internalType": "bytes4[]",
          "name": "interfaceIds",
          "type": "bytes4[]"
        }
      ],
      "name": "checkSupportedInterfaces",
      "outputs": [
        {
          "internalType": "bool[]",
          "name": "interfaceIdsChecker",
          "type": "bool[]"
        }
      ],
      "stateMutability": "view",
      "type": "function"
    },
    {
      "inputs": [],
      "name": "countAddresses",
      "outputs": [
        {
          "internalType": "uint256",
          "name": "",
          "type": "uint256"
        }
      ],
      "stateMutability": "view",
      "type": "function"
    },
    {
      "inputs": [],
      "name": "getAddresses",
      "outputs": [
        {
          "internalType": "address[]",
          "name": "",
          "type": "address[]"
        }
      ],
      "stateMutability": "view",
      "type": "function"
    },
    {
      "inputs": [
        {
          "internalType": "address",
          "name": "collection",
          "type": "address"
        }
      ],
      "name": "getCollectionInfos",
      "outputs": [
        {
          "components": [
            {
              "internalType": "address",
              "name": "collection",
              "type": "address"
            },
            {
              "internalType": "address",
              "name": "owner",
              "type": "address"
            },
            {
              "internalType": "string",
              "name": "name",
              "type": "string"
            },
            {
              "internalType": "string",
              "name": "symbol",
              "type": "string"
            },
            {
              "internalType": "uint256",
              "name": "totalSupply",
              "type": "uint256"
            },
            {
              "internalType": "uint256",
              "name": "balanceOf",
              "type": "uint256"
            },
            {
              "internalType": "bool[]",
              "name": "supported",
              "type": "bool[]"
            }
          ],
          "internalType": "struct IERC721Infos.CollectionInfos",
          "name": "collectionInfos",
          "type": "tuple"
        }
      ],
      "stateMutability": "view",
      "type": "function"
    },
    {
      "inputs": [
        {
          "internalType": "address[]",
          "name": "collections",
          "type": "address[]"
        },
        {
          "internalType": "address",
          "name": "account",
          "type": "address"
        }
      ],
      "name": "getCollectionsInfos",
      "outputs": [
        {
          "components": [
            {
              "internalType": "address",
              "name": "collection",
              "type": "address"
            },
            {
              "internalType": "address",
              "name": "owner",
              "type": "address"
            },
            {
              "internalType": "string",
              "name": "name",
              "type": "string"
            },
            {
              "internalType": "string",
              "name": "symbol",
              "type": "string"
            },
            {
              "internalType": "uint256",
              "name": "totalSupply",
              "type": "uint256"
            },
            {
              "internalType": "uint256",
              "name": "balanceOf",
              "type": "uint256"
            },
            {
              "internalType": "bool[]",
              "name": "supported",
              "type": "bool[]"
            }
          ],
          "internalType": "struct IERC721Infos.CollectionInfos[]",
          "name": "collectionsInfos",
          "type": "tuple[]"
        }
      ],
      "stateMutability": "view",
      "type": "function"
    },
    {
      "inputs": [
        {
          "internalType": "address",
          "name": "account",
          "type": "address"
        }
      ],
      "name": "getCollectionsInfos",
      "outputs": [
        {
          "components": [
            {
              "internalType": "address",
              "name": "collection",
              "type": "address"
            },
            {
              "internalType": "address",
              "name": "owner",
              "type": "address"
            },
            {
              "internalType": "string",
              "name": "name",
              "type": "string"
            },
            {
              "internalType": "string",
              "name": "symbol",
              "type": "string"
            },
            {
              "internalType": "uint256",
              "name": "totalSupply",
              "type": "uint256"
            },
            {
              "internalType": "uint256",
              "name": "balanceOf",
              "type": "uint256"
            },
            {
              "internalType": "bool[]",
              "name": "supported",
              "type": "bool[]"
            }
          ],
          "internalType": "struct IERC721Infos.CollectionInfos[]",
          "name": "collectionsInfos",
          "type": "tuple[]"
        }
      ],
      "stateMutability": "view",
      "type": "function"
    },
    {
      "inputs": [
        {
          "internalType": "address",
          "name": "owner_",
          "type": "address"
        }
      ],
      "name": "initialize",
      "outputs": [],
      "stateMutability": "nonpayable",
      "type": "function"
    },
    {
      "inputs": [],
      "name": "owner",
      "outputs": [
        {
          "internalType": "address",
          "name": "",
          "type": "address"
        }
      ],
      "stateMutability": "view",
      "type": "function"
    },
    {
      "inputs": [
        {
          "internalType": "bytes4",
          "name": "interfaceId",
          "type": "bytes4"
        }
      ],
      "name": "supportsInterface",
      "outputs": [
        {
          "internalType": "bool",
          "name": "",
          "type": "bool"
        }
      ],
      "stateMutability": "view",
      "type": "function"
    },
    {
      "inputs": [
        {
          "internalType": "address",
          "name": "newOwner",
          "type": "address"
        }
      ],
      "name": "transferOwnership",
      "outputs": [],
      "stateMutability": "nonpayable",
      "type": "function"
    }
  ],
  "transactionHash": "0xe99b58acc6b13f0a7c174401c0c82d7986294b8443f683020ba11ece4b5f3ae8",
  "args": [],
  "numDeployments": 17,
  "solcInputHash": "3aa988bbdb276ef28bb44ea12d95b9ad",
  "bytecode": "0x6101e06040526001600160e01b031960809081526301ffc9a760e01b60a0526380ac58cd60e01b60c052635b5e139f60e01b60e05263780e9d6360e01b61010052630a85bd0160e11b61012052636cdb3d1360e11b610140526303a24d0760e21b61016052630271189760e51b610180526307f5828d60e41b6101a05263152a902d60e11b6101c0526200009890600290600b620000ad565b50348015620000a657600080fd5b5062000177565b828054828255906000526020600020906007016008900481019282156200014e5791602002820160005b838211156200011a57835183826101000a81548163ffffffff021916908360e01c02179055509260200192600401602081600301049283019260010302620000d7565b80156200014c5782816101000a81549063ffffffff02191690556004016020816003010492830192600103026200011a565b505b506200015c92915062000160565b5090565b5b808211156200015c576000815560010162000161565b6116f980620001876000396000f3fe608060405234801561001057600080fd5b50600436106100ea5760003560e01c80637600c24c1161008c578063a39fac1211610066578063a39fac1214610201578063c4d66de814610216578063ec530de614610229578063f2fde38b1461023a57600080fd5b80637600c24c146101a55780638da5cb5b146101c5578063953a87d9146101ee57600080fd5b806338eada1c116100c857806338eada1c1461013f57806340b8d02914610152578063490f06eb146101725780635fc83aae1461019257600080fd5b806301ffc9a7146100ef578063043f5cbb146101175780633628731c1461012c575b600080fd5b6101026100fd3660046110b1565b61024d565b60405190151581526020015b60405180910390f35b61012a6101253660046110d3565b610278565b005b61012a61013a3660046111e0565b6103c7565b61012a61014d36600461121d565b610479565b61016561016036600461123a565b61050b565b60405161010e9190611392565b61018561018036600461121d565b6105c9565b60405161010e91906113f4565b6101856101a036600461143a565b61064e565b6101b86101b336600461121d565b61077b565b60405161010e91906114e7565b60005461010090046001600160a01b03166040516001600160a01b03909116815260200161010e565b6101656101fc36600461121d565b61078d565b6102096109a4565b60405161010e91906114fa565b61012a61022436600461121d565b610a06565b60015460405190815260200161010e565b61012a61024836600461121d565b610a12565b60006001600160e01b0319821663189acdbd60e31b1480610272575061027282610a66565b92915050565b60005461010090046001600160a01b03166001600160a01b0316336001600160a01b0316146102c25760405162461bcd60e51b81526004016102b99061153b565b60405180910390fd5b60015481106103035760405162461bcd60e51b815260206004820152600d60248201526c092dcecc2d8d2c840d2dcc8caf609b1b60448201526064016102b9565b600180546103119190611579565b81146103915760018054610326908290611579565b8154811061033657610336611590565b600091825260209091200154600180546001600160a01b03909216918390811061036257610362611590565b9060005260206000200160006101000a8154816001600160a01b0302191690836001600160a01b031602179055505b60018054806103a2576103a26115a6565b600082815260209020810160001990810180546001600160a01b031916905501905550565b60005461010090046001600160a01b03166001600160a01b0316336001600160a01b0316146104085760405162461bcd60e51b81526004016102b99061153b565b60005b815181101561047557600182828151811061042857610428611590565b60209081029190910181015182546001810184556000938452919092200180546001600160a01b0319166001600160a01b039092169190911790558061046d816115bc565b91505061040b565b5050565b60005461010090046001600160a01b03166001600160a01b0316336001600160a01b0316146104ba5760405162461bcd60e51b81526004016102b99061153b565b6001805480820182556000919091527fb10e2d527612073b26eecdfd717e6a320cf44b4afac2b0732d9fcbe2b7fa0cf60180546001600160a01b0319166001600160a01b0392909216919091179055565b6060825167ffffffffffffffff811115610527576105276110ec565b60405190808252806020026020018201604052801561056057816020015b61054d611045565b8152602001906001900390816105455790505b50905060005b83518110156105c25761059284828151811061058457610584611590565b602002602001015184610a8b565b8282815181106105a4576105a4611590565b602002602001018190525080806105ba906115bc565b915050610566565b5092915050565b606061027282600280548060200260200160405190810160405280929190818152602001828054801561064857602002820191906000526020600020906000905b82829054906101000a900460e01b6001600160e01b0319168152602001906004019060208260030104928301926001038202915080841161060a5790505b50505050505b6060815167ffffffffffffffff81111561066a5761066a6110ec565b604051908082528060200260200182016040528015610693578160200160208202803683370190505b50905060005b82518110156105c257836001600160a01b03166301ffc9a78483815181106106c3576106c3611590565b60200260200101516040518263ffffffff1660e01b81526004016106f791906001600160e01b031991909116815260200190565b60206040518083038186803b15801561070f57600080fd5b505afa158015610723573d6000803e3d6000fd5b505050506040513d601f19601f8201168201806040525081019061074791906115d7565b82828151811061075957610759611590565b9115156020928302919091019091015280610773816115bc565b915050610699565b610783611045565b6102728233610a8b565b606060006107f560018054806020026020016040519081016040528092919081815260200182805480156107ea57602002820191906000526020600020905b81546001600160a01b031681526001909101906020018083116107cc575b50505050508461050b565b90506000805b825181101561088357600083828151811061081857610818611590565b602002602001015160a00151118061085e5750846001600160a01b031683828151811061084757610847611590565b6020026020010151602001516001600160a01b0316145b15610871578161086d816115bc565b9250505b8061087b816115bc565b9150506107fb565b508067ffffffffffffffff81111561089d5761089d6110ec565b6040519080825280602002602001820160405280156108d657816020015b6108c3611045565b8152602001906001900390816108bb5790505b5092506000805b835181101561099b5760008482815181106108fa576108fa611590565b602002602001015160a0015111806109405750856001600160a01b031684828151811061092957610929611590565b6020026020010151602001516001600160a01b0316145b156109895783818151811061095757610957611590565b602002602001015185838061096b906115bc565b94508151811061097d5761097d611590565b60200260200101819052505b80610993816115bc565b9150506108dd565b50505050919050565b606060018054806020026020016040519081016040528092919081815260200182805480156109fc57602002820191906000526020600020905b81546001600160a01b031681526001909101906020018083116109de575b5050505050905090565b610a0f81610efe565b50565b60005461010090046001600160a01b03163314610a5d5760405162461bcd60e51b81526020600482015260096024820152682737ba1037bbb732b960b91b60448201526064016102b9565b610a0f81610f57565b60006001600160e01b0319821663953a87d960e01b1480610272575061027282610fb0565b610a93611045565b6001600160a01b0383163b610ade5760405162461bcd60e51b8152602060048201526011602482015270139bdd081cdb585c9d18dbdb9d1c9858dd607a1b60448201526064016102b9565b6000610ae9846105c9565b9050808260c0018190525080600081518110610b0757610b07611590565b6020026020010151158015610b33575080600181518110610b2a57610b2a611590565b60200260200101515b610b6c5760405162461bcd60e51b815260206004820152600a6024820152694e6f742045524331363560b01b60448201526064016102b9565b80600281518110610b7f57610b7f611590565b602002602001015180610ba9575080600681518110610ba057610ba0611590565b60200260200101515b610bed5760405162461bcd60e51b8152602060048201526015602482015274139bdd08139195081cdb585c9d18dbdb9d1c9858dd605a1b60448201526064016102b9565b6001600160a01b0384168252805181906009908110610c0e57610c0e611590565b602002602001015115610c9b57836001600160a01b0316638da5cb5b6040518163ffffffff1660e01b815260040160206040518083038186803b158015610c5457600080fd5b505afa158015610c68573d6000803e3d6000fd5b505050506040513d601f19601f82011682018060405250810190610c8c91906115f9565b6001600160a01b031660208301525b80600281518110610cae57610cae611590565b6020026020010151156105c25780600381518110610cce57610cce611590565b602002602001015115610dd357836001600160a01b03166306fdde036040518163ffffffff1660e01b815260040160006040518083038186803b158015610d1457600080fd5b505afa158015610d28573d6000803e3d6000fd5b505050506040513d6000823e601f3d908101601f19168201604052610d509190810190611616565b8260400181905250836001600160a01b03166395d89b416040518163ffffffff1660e01b815260040160006040518083038186803b158015610d9157600080fd5b505afa158015610da5573d6000803e3d6000fd5b505050506040513d6000823e601f3d908101601f19168201604052610dcd9190810190611616565b60608301525b80600481518110610de657610de6611590565b602002602001015115610e6a57836001600160a01b03166318160ddd6040518163ffffffff1660e01b815260040160206040518083038186803b158015610e2c57600080fd5b505afa158015610e40573d6000803e3d6000fd5b505050506040513d601f19601f82011682018060405250810190610e6491906116aa565b60808301525b6001600160a01b038316156105c2576040516370a0823160e01b81526001600160a01b0384811660048301528516906370a082319060240160206040518083038186803b158015610eba57600080fd5b505afa158015610ece573d6000803e3d6000fd5b505050506040513d601f19601f82011682018060405250810190610ef291906116aa565b60a08301525092915050565b60005460ff1615610f455760405162461bcd60e51b8152602060048201526011602482015270125b9a5d08185b1c9958591e4818d85b1b607a1b60448201526064016102b9565b6000805460ff19166001179055610a0f815b600080546001600160a01b03838116610100818102610100600160a81b0319851617855560405193049190911692909183917f8be0079c531659141344cd1fd0a4f28419497f9722a3daafe3b4186f6b6457e091a35050565b60006001600160e01b031982166336b8126560e01b148061027257506102728260006001600160e01b031982166316c73c4560e01b148061027257506102728260006001600160e01b03198216634531544f60e01b148061027257506102728260006307f5828d60e41b6001600160e01b03198316148061027257506001600160e01b031982166301ffc9a760e01b14610272565b6040518060e0016040528060006001600160a01b0316815260200160006001600160a01b0316815260200160608152602001606081526020016000815260200160008152602001606081525090565b80356001600160e01b0319811681146110ac57600080fd5b919050565b6000602082840312156110c357600080fd5b6110cc82611094565b9392505050565b6000602082840312156110e557600080fd5b5035919050565b634e487b7160e01b600052604160045260246000fd5b604051601f8201601f1916810167ffffffffffffffff8111828210171561112b5761112b6110ec565b604052919050565b600067ffffffffffffffff82111561114d5761114d6110ec565b5060051b60200190565b6001600160a01b0381168114610a0f57600080fd5b600082601f83011261117d57600080fd5b8135602061119261118d83611133565b611102565b82815260059290921b840181019181810190868411156111b157600080fd5b8286015b848110156111d55780356111c881611157565b83529183019183016111b5565b509695505050505050565b6000602082840312156111f257600080fd5b813567ffffffffffffffff81111561120957600080fd5b6112158482850161116c565b949350505050565b60006020828403121561122f57600080fd5b81356110cc81611157565b6000806040838503121561124d57600080fd5b823567ffffffffffffffff81111561126457600080fd5b6112708582860161116c565b925050602083013561128181611157565b809150509250929050565b60005b838110156112a757818101518382015260200161128f565b838111156112b6576000848401525b50505050565b600081518084526112d481602086016020860161128c565b601f01601f19169290920160200192915050565b600060018060a01b038083511684526020818185015116818601526040840151915060e0604086015261131e60e08601836112bc565b91506060840151858303606087015261133783826112bc565b9250506080840151608086015260a084015160a086015260c084015185830360c087015282815180855283850191508383019450600092505b808310156111d557845115158252938301936001929092019190830190611370565b6000602080830181845280855180835260408601915060408160051b870101925083870160005b828110156113e757603f198886030184526113d58583516112e8565b945092850192908501906001016113b9565b5092979650505050505050565b6020808252825182820181905260009190848201906040850190845b8181101561142e578351151583529284019291840191600101611410565b50909695505050505050565b6000806040838503121561144d57600080fd5b823561145881611157565b915060208381013567ffffffffffffffff81111561147557600080fd5b8401601f8101861361148657600080fd5b803561149461118d82611133565b81815260059190911b820183019083810190888311156114b357600080fd5b928401925b828410156114d8576114c984611094565b825292840192908401906114b8565b80955050505050509250929050565b6020815260006110cc60208301846112e8565b6020808252825182820181905260009190848201906040850190845b8181101561142e5783516001600160a01b031683529284019291840191600101611516565b6020808252600e908201526d2737ba103932b3b4b9ba32b932b960911b604082015260600190565b634e487b7160e01b600052601160045260246000fd5b60008282101561158b5761158b611563565b500390565b634e487b7160e01b600052603260045260246000fd5b634e487b7160e01b600052603160045260246000fd5b60006000198214156115d0576115d0611563565b5060010190565b6000602082840312156115e957600080fd5b815180151581146110cc57600080fd5b60006020828403121561160b57600080fd5b81516110cc81611157565b60006020828403121561162857600080fd5b815167ffffffffffffffff8082111561164057600080fd5b818401915084601f83011261165457600080fd5b815181811115611666576116666110ec565b611679601f8201601f1916602001611102565b915080825285602082850101111561169057600080fd5b6116a181602084016020860161128c565b50949350505050565b6000602082840312156116bc57600080fd5b505191905056fea2646970667358221220b57cda320edf0ab856817b2a7957c8494ac8959ab79e48fd0e5e36f5e33af72764736f6c63430008090033",
  "devdoc": {
    "kind": "dev",
    "methods": {
      "checkErcInterfaces(address)": {
        "params": {
          "smartcontract": "smartcontract to check _ercInterfaceIds : ERC interfacesIds 0xffffffff :  O Invalid 0x01ffc9a7 :  1 ERC165 0x80ac58cd :  2 ERC721 0x5b5e139f :  3 ERC721Metadata 0x780e9d63 :  4 ERC721Enumerable 0x150b7a02 :  5 ERC721TokenReceiver 0xd9b67a26 :  6 ERC1155 0x0e89341c :  7 ERC1155MetadataURI 0x4e2312e0 :  8 ERC1155TokenReceiver 0x7f5828d0 :  9 ERC173 0x2a55205a : 10 ERC2981"
        }
      }
    },
    "version": 1
  },
  "userdoc": {
    "kind": "user",
    "methods": {
      "checkErcInterfaces(address)": {
        "notice": "checkSupportedInterfaces"
      }
    },
    "version": 1
  },
  "storageLayout": {
    "storage": [
      {
        "astId": 6531,
        "contract": "contracts/next/NFTsResolver.sol:NFTsResolver",
        "label": "_openERC173Initialized",
        "offset": 0,
        "slot": "0",
        "type": "t_bool"
      },
      {
        "astId": 6533,
        "contract": "contracts/next/NFTsResolver.sol:NFTsResolver",
        "label": "_owner",
        "offset": 1,
        "slot": "0",
        "type": "t_address"
      },
      {
        "astId": 9088,
        "contract": "contracts/next/NFTsResolver.sol:NFTsResolver",
        "label": "_addresses",
        "offset": 0,
        "slot": "1",
        "type": "t_array(t_address)dyn_storage"
      },
      {
        "astId": 8747,
        "contract": "contracts/next/NFTsResolver.sol:NFTsResolver",
        "label": "_ercInterfaceIds",
        "offset": 0,
        "slot": "2",
        "type": "t_array(t_bytes4)dyn_storage"
      }
    ],
    "types": {
      "t_address": {
        "encoding": "inplace",
        "label": "address",
        "numberOfBytes": "20"
      },
      "t_array(t_address)dyn_storage": {
        "base": "t_address",
        "encoding": "dynamic_array",
        "label": "address[]",
        "numberOfBytes": "32"
      },
      "t_array(t_bytes4)dyn_storage": {
        "base": "t_bytes4",
        "encoding": "dynamic_array",
        "label": "bytes4[]",
        "numberOfBytes": "32"
      },
      "t_bool": {
        "encoding": "inplace",
        "label": "bool",
        "numberOfBytes": "1"
      },
      "t_bytes4": {
        "encoding": "inplace",
        "label": "bytes4",
        "numberOfBytes": "4"
      }
    }
  }
}