{
  "address": "0xe93f53292249630aB09e0408dB6D8b144E5414D1",
  "abi": [
    {
      "anonymous": false,
      "inputs": [
        {
          "indexed": true,
          "internalType": "address",
          "name": "previousOwner",
          "type": "address"
        },
        {
          "indexed": true,
          "internalType": "address",
          "name": "newOwner",
          "type": "address"
        }
      ],
      "name": "OwnershipTransferred",
      "type": "event"
    },
    {
      "inputs": [
        {
          "internalType": "address",
          "name": "addr",
          "type": "address"
        }
      ],
      "name": "addAddress",
      "outputs": [],
      "stateMutability": "nonpayable",
      "type": "function"
    },
    {
      "inputs": [
        {
          "internalType": "address[]",
          "name": "addrs",
          "type": "address[]"
        }
      ],
      "name": "addAddresses",
      "outputs": [],
      "stateMutability": "nonpayable",
      "type": "function"
    },
    {
      "inputs": [
        {
          "internalType": "address",
          "name": "account",
          "type": "address"
        },
        {
          "internalType": "bytes4[]",
          "name": "interfaceIds",
          "type": "bytes4[]"
        }
      ],
      "name": "checkSupportedInterfaces",
      "outputs": [
        {
          "internalType": "bool[]",
          "name": "interfaceIdsChecker",
          "type": "bool[]"
        }
      ],
      "stateMutability": "view",
      "type": "function"
    },
    {
      "inputs": [],
      "name": "countAddresses",
      "outputs": [
        {
          "internalType": "uint256",
          "name": "",
          "type": "uint256"
        }
      ],
      "stateMutability": "view",
      "type": "function"
    },
    {
      "inputs": [
        {
          "internalType": "uint256",
          "name": "index",
          "type": "uint256"
        }
      ],
      "name": "getAddress",
      "outputs": [
        {
          "internalType": "address",
          "name": "addr",
          "type": "address"
        }
      ],
      "stateMutability": "view",
      "type": "function"
    },
    {
      "inputs": [],
      "name": "getAddresses",
      "outputs": [
        {
          "internalType": "address[]",
          "name": "",
          "type": "address[]"
        }
      ],
      "stateMutability": "view",
      "type": "function"
    },
    {
      "inputs": [
        {
          "internalType": "address[]",
          "name": "collections",
          "type": "address[]"
        },
        {
          "internalType": "address",
          "name": "account",
          "type": "address"
        }
      ],
      "name": "getCollectionsInfos",
      "outputs": [
        {
          "components": [
            {
              "internalType": "address",
              "name": "collection",
              "type": "address"
            },
            {
              "internalType": "address",
              "name": "owner",
              "type": "address"
            },
            {
              "internalType": "string",
              "name": "name",
              "type": "string"
            },
            {
              "internalType": "string",
              "name": "symbol",
              "type": "string"
            },
            {
              "internalType": "uint256",
              "name": "totalSupply",
              "type": "uint256"
            },
            {
              "internalType": "uint256",
              "name": "balanceOf",
              "type": "uint256"
            }
          ],
          "internalType": "struct IERC721Infos.CollectionInfos[]",
          "name": "collectionsInfo",
          "type": "tuple[]"
        }
      ],
      "stateMutability": "view",
      "type": "function"
    },
    {
      "inputs": [
        {
          "internalType": "address",
          "name": "owner_",
          "type": "address"
        }
      ],
      "name": "initialize",
      "outputs": [],
      "stateMutability": "nonpayable",
      "type": "function"
    },
    {
      "inputs": [
        {
          "internalType": "address",
          "name": "account",
          "type": "address"
        }
      ],
      "name": "openResolver",
      "outputs": [
        {
          "components": [
            {
              "internalType": "address",
              "name": "collection",
              "type": "address"
            },
            {
              "internalType": "address",
              "name": "owner",
              "type": "address"
            },
            {
              "internalType": "string",
              "name": "name",
              "type": "string"
            },
            {
              "internalType": "string",
              "name": "symbol",
              "type": "string"
            },
            {
              "internalType": "uint256",
              "name": "totalSupply",
              "type": "uint256"
            },
            {
              "internalType": "uint256",
              "name": "balanceOf",
              "type": "uint256"
            }
          ],
          "internalType": "struct IERC721Infos.CollectionInfos[]",
          "name": "",
          "type": "tuple[]"
        }
      ],
      "stateMutability": "view",
      "type": "function"
    },
    {
      "inputs": [],
      "name": "owner",
      "outputs": [
        {
          "internalType": "address",
          "name": "",
          "type": "address"
        }
      ],
      "stateMutability": "view",
      "type": "function"
    },
    {
      "inputs": [
        {
          "internalType": "bytes4",
          "name": "interfaceId",
          "type": "bytes4"
        }
      ],
      "name": "supportsInterface",
      "outputs": [
        {
          "internalType": "bool",
          "name": "",
          "type": "bool"
        }
      ],
      "stateMutability": "view",
      "type": "function"
    },
    {
      "inputs": [
        {
          "internalType": "address",
          "name": "newOwner",
          "type": "address"
        }
      ],
      "name": "transferOwnership",
      "outputs": [],
      "stateMutability": "nonpayable",
      "type": "function"
    }
  ],
  "transactionHash": "0x1819d4a217214c71055d695626cfbbb2e4a20ce26fd29a18fc7f5a2ff82d81ff",
  "args": [],
  "numDeployments": 6,
  "solcInputHash": "9d432a3f6891ba79f725cf410d3cd835",
  "bytecode": "0x6101606040526301ffc9a760e01b60809081526001600160e01b031960a0526307f5828d60e41b60c052636cdb3d1360e11b60e0526380ac58cd60e01b61010052635b5e139f60e01b6101205263780e9d6360e01b61014052620000689060029060076200007d565b503480156200007657600080fd5b5062000147565b828054828255906000526020600020906007016008900481019282156200011e5791602002820160005b83821115620000ea57835183826101000a81548163ffffffff021916908360e01c02179055509260200192600401602081600301049283019260010302620000a7565b80156200011c5782816101000a81549063ffffffff0219169055600401602081600301049283019260010302620000ea565b505b506200012c92915062000130565b5090565b5b808211156200012c576000815560010162000131565b61133580620001576000396000f3fe608060405234801561001057600080fd5b50600436106100b45760003560e01c80638da5cb5b116100715780638da5cb5b1461015c578063a39fac1214610186578063b93f9b0a1461019b578063c4d66de8146101ae578063ec530de6146101c1578063f2fde38b146101d257600080fd5b806301ffc9a7146100b957806307fda8e7146100e15780633628731c1461010157806338eada1c1461011657806340b8d029146101295780635fc83aae1461013c575b600080fd5b6100cc6100c7366004610dab565b6101e5565b60405190151581526020015b60405180910390f35b6100f46100ef366004610de2565b610210565b6040516100d89190610e5b565b61011461010f366004610ff8565b610223565b005b610114610124366004610de2565b6102fb565b6100f4610137366004611035565b6103ae565b61014f61014a366004611087565b61046c565b6040516100d89190611134565b60005461010090046001600160a01b03165b6040516001600160a01b0390911681526020016100d8565b61018e610599565b6040516100d8919061117a565b61016e6101a93660046111bb565b6105fb565b6101146101bc366004610de2565b61066d565b6001546040519081526020016100d8565b6101146101e0366004610de2565b610679565b60006001600160e01b0319821663189acdbd60e31b148061020a575061020a826106cd565b92915050565b606061020a61021d610599565b836103ae565b60005461010090046001600160a01b03166001600160a01b0316336001600160a01b03161461028a5760405162461bcd60e51b815260206004820152600e60248201526d2737ba103932b3b4b9ba32b932b960911b60448201526064015b60405180910390fd5b60005b81518110156102f75760018282815181106102aa576102aa6111d4565b60209081029190910181015182546001810184556000938452919092200180546001600160a01b0319166001600160a01b03909216919091179055806102ef816111ea565b91505061028d565b5050565b60005461010090046001600160a01b03166001600160a01b0316336001600160a01b03161461035d5760405162461bcd60e51b815260206004820152600e60248201526d2737ba103932b3b4b9ba32b932b960911b6044820152606401610281565b6001805480820182556000919091527fb10e2d527612073b26eecdfd717e6a320cf44b4afac2b0732d9fcbe2b7fa0cf60180546001600160a01b0319166001600160a01b0392909216919091179055565b6060825167ffffffffffffffff8111156103ca576103ca610f19565b60405190808252806020026020018201604052801561040357816020015b6103f0610d46565b8152602001906001900390816103e85790505b50905060005b835181101561046557610435848281518110610427576104276111d4565b6020026020010151846106f2565b828281518110610447576104476111d4565b6020026020010181905250808061045d906111ea565b915050610409565b5092915050565b6060815167ffffffffffffffff81111561048857610488610f19565b6040519080825280602002602001820160405280156104b1578160200160208202803683370190505b50905060005b825181101561046557836001600160a01b03166301ffc9a78483815181106104e1576104e16111d4565b60200260200101516040518263ffffffff1660e01b815260040161051591906001600160e01b031991909116815260200190565b60206040518083038186803b15801561052d57600080fd5b505afa158015610541573d6000803e3d6000fd5b505050506040513d601f19601f820116820180604052508101906105659190611213565b828281518110610577576105776111d4565b9115156020928302919091019091015280610591816111ea565b9150506104b7565b606060018054806020026020016040519081016040528092919081815260200182805480156105f157602002820191906000526020600020905b81546001600160a01b031681526001909101906020018083116105d3575b5050505050905090565b600154600090821061063f5760405162461bcd60e51b815260206004820152600d60248201526c092dcecc2d8d2c840d2dcc8caf609b1b6044820152606401610281565b60018281548110610652576106526111d4565b6000918252602090912001546001600160a01b031692915050565b61067681610bff565b50565b60005461010090046001600160a01b031633146106c45760405162461bcd60e51b81526020600482015260096024820152682737ba1037bbb732b960b91b6044820152606401610281565b61067681610c58565b60006001600160e01b031982166307fda8e760e01b148061020a575061020a82610cb1565b6106fa610d46565b6001600160a01b0383163b6107455760405162461bcd60e51b8152602060048201526011602482015270139bdd081cdb585c9d18dbdb9d1c9858dd607a1b6044820152606401610281565b60408051600480825260a08201909252600091602082016080803683370190505090506107ef8460028054806020026020016040519081016040528092919081815260200182805480156107e557602002820191906000526020600020906000905b82829054906101000a900460e01b6001600160e01b031916815260200190600401906020826003010492830192600103820291508084116107a75790505b505050505061046c565b905080600081518110610804576108046111d4565b60200260200101518015610830575080600181518110610826576108266111d4565b6020026020010151155b6108695760405162461bcd60e51b815260206004820152600a6024820152694e6f742045524331363560b01b6044820152606401610281565b8060038151811061087c5761087c6111d4565b6020026020010151806108a657508060048151811061089d5761089d6111d4565b60200260200101515b6108ea5760405162461bcd60e51b8152602060048201526015602482015274139bdd08139195081cdb585c9d18dbdb9d1c9858dd605a1b6044820152606401610281565b6001600160a01b0383166108fc573392505b6001600160a01b038416825280518190600490811061091d5761091d6111d4565b602002602001015115610b59576040516370a0823160e01b81526001600160a01b0384811660048301528516906370a082319060240160206040518083038186803b15801561096b57600080fd5b505afa15801561097f573d6000803e3d6000fd5b505050506040513d601f19601f820116820180604052508101906109a39190611235565b60a08301528051819060059081106109bd576109bd6111d4565b602002602001015115610ac257836001600160a01b03166306fdde036040518163ffffffff1660e01b815260040160006040518083038186803b158015610a0357600080fd5b505afa158015610a17573d6000803e3d6000fd5b505050506040513d6000823e601f3d908101601f19168201604052610a3f919081019061124e565b8260400181905250836001600160a01b03166395d89b416040518163ffffffff1660e01b815260040160006040518083038186803b158015610a8057600080fd5b505afa158015610a94573d6000803e3d6000fd5b505050506040513d6000823e601f3d908101601f19168201604052610abc919081019061124e565b60608301525b80600681518110610ad557610ad56111d4565b602002602001015115610b5957836001600160a01b03166318160ddd6040518163ffffffff1660e01b815260040160206040518083038186803b158015610b1b57600080fd5b505afa158015610b2f573d6000803e3d6000fd5b505050506040513d601f19601f82011682018060405250810190610b539190611235565b60808301525b80600281518110610b6c57610b6c6111d4565b60200260200101511561046557836001600160a01b0316638da5cb5b6040518163ffffffff1660e01b815260040160206040518083038186803b158015610bb257600080fd5b505afa158015610bc6573d6000803e3d6000fd5b505050506040513d601f19601f82011682018060405250810190610bea91906112e2565b6001600160a01b031660208301525092915050565b60005460ff1615610c465760405162461bcd60e51b8152602060048201526011602482015270125b9a5d08185b1c9958591e4818d85b1b607a1b6044820152606401610281565b6000805460ff19166001179055610676815b600080546001600160a01b03838116610100818102610100600160a81b0319851617855560405193049190911692909183917f8be0079c531659141344cd1fd0a4f28419497f9722a3daafe3b4186f6b6457e091a35050565b60006001600160e01b031982166340b8d02960e01b148061020a575061020a8260006001600160e01b03198216632fe41d5760e11b148061020a575061020a8260006001600160e01b03198216637c18c9ff60e11b148061020a575061020a8260006307f5828d60e41b6001600160e01b03198316148061020a57506001600160e01b031982166301ffc9a760e01b1461020a565b6040518060c0016040528060006001600160a01b0316815260200160006001600160a01b03168152602001606081526020016060815260200160008152602001600081525090565b80356001600160e01b031981168114610da657600080fd5b919050565b600060208284031215610dbd57600080fd5b610dc682610d8e565b9392505050565b6001600160a01b038116811461067657600080fd5b600060208284031215610df457600080fd5b8135610dc681610dcd565b60005b83811015610e1a578181015183820152602001610e02565b83811115610e29576000848401525b50505050565b60008151808452610e47816020860160208601610dff565b601f01601f19169290920160200192915050565b60006020808301818452808551808352604092508286019150828160051b87010184880160005b83811015610f0b57888303603f19018552815180516001600160a01b0390811685528882015116888501528681015160c088860181905290610ec682870182610e2f565b91505060608083015186830382880152610ee08382610e2f565b6080858101519089015260a09485015194909701939093525050509386019390860190600101610e82565b509098975050505050505050565b634e487b7160e01b600052604160045260246000fd5b604051601f8201601f1916810167ffffffffffffffff81118282101715610f5857610f58610f19565b604052919050565b600067ffffffffffffffff821115610f7a57610f7a610f19565b5060051b60200190565b600082601f830112610f9557600080fd5b81356020610faa610fa583610f60565b610f2f565b82815260059290921b84018101918181019086841115610fc957600080fd5b8286015b84811015610fed578035610fe081610dcd565b8352918301918301610fcd565b509695505050505050565b60006020828403121561100a57600080fd5b813567ffffffffffffffff81111561102157600080fd5b61102d84828501610f84565b949350505050565b6000806040838503121561104857600080fd5b823567ffffffffffffffff81111561105f57600080fd5b61106b85828601610f84565b925050602083013561107c81610dcd565b809150509250929050565b6000806040838503121561109a57600080fd5b82356110a581610dcd565b915060208381013567ffffffffffffffff8111156110c257600080fd5b8401601f810186136110d357600080fd5b80356110e1610fa582610f60565b81815260059190911b8201830190838101908883111561110057600080fd5b928401925b828410156111255761111684610d8e565b82529284019290840190611105565b80955050505050509250929050565b6020808252825182820181905260009190848201906040850190845b8181101561116e578351151583529284019291840191600101611150565b50909695505050505050565b6020808252825182820181905260009190848201906040850190845b8181101561116e5783516001600160a01b031683529284019291840191600101611196565b6000602082840312156111cd57600080fd5b5035919050565b634e487b7160e01b600052603260045260246000fd5b600060001982141561120c57634e487b7160e01b600052601160045260246000fd5b5060010190565b60006020828403121561122557600080fd5b81518015158114610dc657600080fd5b60006020828403121561124757600080fd5b5051919050565b60006020828403121561126057600080fd5b815167ffffffffffffffff8082111561127857600080fd5b818401915084601f83011261128c57600080fd5b81518181111561129e5761129e610f19565b6112b1601f8201601f1916602001610f2f565b91508082528560208285010111156112c857600080fd5b6112d9816020840160208601610dff565b50949350505050565b6000602082840312156112f457600080fd5b8151610dc681610dcd56fea2646970667358221220112091324e4702d7de96d297c24e5da5c935a779e8d96d2aef3860b1ed53a3ce64736f6c63430008090033",
  "devdoc": {
    "kind": "dev",
    "methods": {},
    "version": 1
  },
  "userdoc": {
    "kind": "user",
    "methods": {},
    "version": 1
  },
  "storageLayout": {
    "storage": [
      {
        "astId": 6531,
        "contract": "contracts/templates/NFTsResolver.sol:NFTsResolver",
        "label": "_openERC173Initialized",
        "offset": 0,
        "slot": "0",
        "type": "t_bool"
      },
      {
        "astId": 6533,
        "contract": "contracts/templates/NFTsResolver.sol:NFTsResolver",
        "label": "_owner",
        "offset": 1,
        "slot": "0",
        "type": "t_address"
      },
      {
        "astId": 9051,
        "contract": "contracts/templates/NFTsResolver.sol:NFTsResolver",
        "label": "_addresses",
        "offset": 0,
        "slot": "1",
        "type": "t_array(t_address)dyn_storage"
      },
      {
        "astId": 8817,
        "contract": "contracts/templates/NFTsResolver.sol:NFTsResolver",
        "label": "_ids",
        "offset": 0,
        "slot": "2",
        "type": "t_array(t_bytes4)dyn_storage"
      }
    ],
    "types": {
      "t_address": {
        "encoding": "inplace",
        "label": "address",
        "numberOfBytes": "20"
      },
      "t_array(t_address)dyn_storage": {
        "base": "t_address",
        "encoding": "dynamic_array",
        "label": "address[]",
        "numberOfBytes": "32"
      },
      "t_array(t_bytes4)dyn_storage": {
        "base": "t_bytes4",
        "encoding": "dynamic_array",
        "label": "bytes4[]",
        "numberOfBytes": "32"
      },
      "t_bool": {
        "encoding": "inplace",
        "label": "bool",
        "numberOfBytes": "1"
      },
      "t_bytes4": {
        "encoding": "inplace",
        "label": "bytes4",
        "numberOfBytes": "4"
      }
    }
  }
}