{
  "address": "0xA989A7933B8fe1D42622B41989FCeF8E3eDcEEa7",
  "abi": [
    {
      "inputs": [
        {
          "internalType": "address",
          "name": "owner_",
          "type": "address"
        },
        {
          "internalType": "address",
          "name": "registerer_",
          "type": "address"
        }
      ],
      "stateMutability": "nonpayable",
      "type": "constructor"
    },
    {
      "anonymous": false,
      "inputs": [
        {
          "indexed": true,
          "internalType": "address",
          "name": "previousOwner",
          "type": "address"
        },
        {
          "indexed": true,
          "internalType": "address",
          "name": "newOwner",
          "type": "address"
        }
      ],
      "name": "OwnershipTransferred",
      "type": "event"
    },
    {
      "inputs": [
        {
          "internalType": "address",
          "name": "addr",
          "type": "address"
        }
      ],
      "name": "addAddress",
      "outputs": [],
      "stateMutability": "nonpayable",
      "type": "function"
    },
    {
      "inputs": [
        {
          "internalType": "address[]",
          "name": "addrs",
          "type": "address[]"
        }
      ],
      "name": "addAddresses",
      "outputs": [],
      "stateMutability": "nonpayable",
      "type": "function"
    },
    {
      "inputs": [
        {
          "internalType": "address",
          "name": "smartcontract",
          "type": "address"
        }
      ],
      "name": "checkErcInterfaces",
      "outputs": [
        {
          "internalType": "bool[]",
          "name": "ercInterfacesChecks",
          "type": "bool[]"
        }
      ],
      "stateMutability": "view",
      "type": "function"
    },
    {
      "inputs": [
        {
          "internalType": "address",
          "name": "smartcontract",
          "type": "address"
        },
        {
          "internalType": "bool",
          "name": "erc",
          "type": "bool"
        },
        {
          "internalType": "bytes4[]",
          "name": "interfaceIds",
          "type": "bytes4[]"
        }
      ],
      "name": "checkSupportedInterfaces",
      "outputs": [
        {
          "internalType": "bool[]",
          "name": "interfaceIdsChecks",
          "type": "bool[]"
        }
      ],
      "stateMutability": "view",
      "type": "function"
    },
    {
      "inputs": [],
      "name": "countAddresses",
      "outputs": [
        {
          "internalType": "uint256",
          "name": "",
          "type": "uint256"
        }
      ],
      "stateMutability": "view",
      "type": "function"
    },
    {
      "inputs": [],
      "name": "getAddresses",
      "outputs": [
        {
          "internalType": "address[]",
          "name": "",
          "type": "address[]"
        }
      ],
      "stateMutability": "view",
      "type": "function"
    },
    {
      "inputs": [
        {
          "internalType": "address",
          "name": "collection",
          "type": "address"
        }
      ],
      "name": "getCollectionInfos",
      "outputs": [
        {
          "components": [
            {
              "internalType": "address",
              "name": "collection",
              "type": "address"
            },
            {
              "internalType": "address",
              "name": "owner",
              "type": "address"
            },
            {
              "internalType": "string",
              "name": "name",
              "type": "string"
            },
            {
              "internalType": "string",
              "name": "symbol",
              "type": "string"
            },
            {
              "internalType": "uint256",
              "name": "totalSupply",
              "type": "uint256"
            },
            {
              "internalType": "uint256",
              "name": "balanceOf",
              "type": "uint256"
            },
            {
              "internalType": "bool[]",
              "name": "supported",
              "type": "bool[]"
            }
          ],
          "internalType": "struct IERC721Infos.CollectionInfos",
          "name": "collectionInfos",
          "type": "tuple"
        }
      ],
      "stateMutability": "view",
      "type": "function"
    },
    {
      "inputs": [
        {
          "internalType": "address[]",
          "name": "collections",
          "type": "address[]"
        },
        {
          "internalType": "address",
          "name": "account",
          "type": "address"
        },
        {
          "internalType": "bytes4[]",
          "name": "interfaceIds",
          "type": "bytes4[]"
        }
      ],
      "name": "getCollectionsInfos",
      "outputs": [
        {
          "components": [
            {
              "internalType": "address",
              "name": "collection",
              "type": "address"
            },
            {
              "internalType": "address",
              "name": "owner",
              "type": "address"
            },
            {
              "internalType": "string",
              "name": "name",
              "type": "string"
            },
            {
              "internalType": "string",
              "name": "symbol",
              "type": "string"
            },
            {
              "internalType": "uint256",
              "name": "totalSupply",
              "type": "uint256"
            },
            {
              "internalType": "uint256",
              "name": "balanceOf",
              "type": "uint256"
            },
            {
              "internalType": "bool[]",
              "name": "supported",
              "type": "bool[]"
            }
          ],
          "internalType": "struct IERC721Infos.CollectionInfos[]",
          "name": "collectionsInfos",
          "type": "tuple[]"
        }
      ],
      "stateMutability": "view",
      "type": "function"
    },
    {
      "inputs": [
        {
          "internalType": "address",
          "name": "collection",
          "type": "address"
        },
        {
          "internalType": "address",
          "name": "account",
          "type": "address"
        }
      ],
      "name": "getNFTsResolverCollectionInfos",
      "outputs": [
        {
          "components": [
            {
              "internalType": "address",
              "name": "collection",
              "type": "address"
            },
            {
              "internalType": "address",
              "name": "owner",
              "type": "address"
            },
            {
              "internalType": "string",
              "name": "name",
              "type": "string"
            },
            {
              "internalType": "string",
              "name": "symbol",
              "type": "string"
            },
            {
              "internalType": "uint256",
              "name": "totalSupply",
              "type": "uint256"
            },
            {
              "internalType": "uint256",
              "name": "balanceOf",
              "type": "uint256"
            },
            {
              "internalType": "bool[]",
              "name": "supported",
              "type": "bool[]"
            }
          ],
          "internalType": "struct IERC721Infos.CollectionInfos",
          "name": "collectionInfos",
          "type": "tuple"
        }
      ],
      "stateMutability": "view",
      "type": "function"
    },
    {
      "inputs": [
        {
          "internalType": "address",
          "name": "account",
          "type": "address"
        }
      ],
      "name": "getNFTsResolverCollectionsInfos",
      "outputs": [
        {
          "components": [
            {
              "internalType": "address",
              "name": "collection",
              "type": "address"
            },
            {
              "internalType": "address",
              "name": "owner",
              "type": "address"
            },
            {
              "internalType": "string",
              "name": "name",
              "type": "string"
            },
            {
              "internalType": "string",
              "name": "symbol",
              "type": "string"
            },
            {
              "internalType": "uint256",
              "name": "totalSupply",
              "type": "uint256"
            },
            {
              "internalType": "uint256",
              "name": "balanceOf",
              "type": "uint256"
            },
            {
              "internalType": "bool[]",
              "name": "supported",
              "type": "bool[]"
            }
          ],
          "internalType": "struct IERC721Infos.CollectionInfos[]",
          "name": "collectionsInfos",
          "type": "tuple[]"
        }
      ],
      "stateMutability": "view",
      "type": "function"
    },
    {
      "inputs": [
        {
          "internalType": "address",
          "name": "collection",
          "type": "address"
        }
      ],
      "name": "isCollection",
      "outputs": [
        {
          "internalType": "bool",
          "name": "",
          "type": "bool"
        }
      ],
      "stateMutability": "view",
      "type": "function"
    },
    {
      "inputs": [
        {
          "internalType": "address",
          "name": "addr",
          "type": "address"
        }
      ],
      "name": "isRegistered",
      "outputs": [
        {
          "internalType": "bool",
          "name": "",
          "type": "bool"
        }
      ],
      "stateMutability": "view",
      "type": "function"
    },
    {
      "inputs": [],
      "name": "owner",
      "outputs": [
        {
          "internalType": "address",
          "name": "",
          "type": "address"
        }
      ],
      "stateMutability": "view",
      "type": "function"
    },
    {
      "inputs": [],
      "name": "registerer",
      "outputs": [
        {
          "internalType": "address",
          "name": "",
          "type": "address"
        }
      ],
      "stateMutability": "view",
      "type": "function"
    },
    {
      "inputs": [
        {
          "internalType": "address",
          "name": "addr",
          "type": "address"
        }
      ],
      "name": "removeAddress",
      "outputs": [],
      "stateMutability": "nonpayable",
      "type": "function"
    },
    {
      "inputs": [
        {
          "internalType": "address",
          "name": "registerer_",
          "type": "address"
        }
      ],
      "name": "setRegisterer",
      "outputs": [],
      "stateMutability": "nonpayable",
      "type": "function"
    },
    {
      "inputs": [
        {
          "internalType": "bytes4",
          "name": "interfaceId",
          "type": "bytes4"
        }
      ],
      "name": "supportsInterface",
      "outputs": [
        {
          "internalType": "bool",
          "name": "",
          "type": "bool"
        }
      ],
      "stateMutability": "view",
      "type": "function"
    },
    {
      "inputs": [
        {
          "internalType": "address",
          "name": "newOwner",
          "type": "address"
        }
      ],
      "name": "transferOwnership",
      "outputs": [],
      "stateMutability": "nonpayable",
      "type": "function"
    }
  ],
  "transactionHash": "0x3d5afe85446c2d25b4ceb478442d0ccc496518a8a830423002206d07ab846392",
  "args": [
    "0x6eebAe27d69fa80f0E4C0E973A2Fed218A56880c",
    "0x54a89e6DA78f9476790F8156860D9B01827bc59a"
  ],
  "numDeployments": 1,
  "solcInputHash": "f9d355a1aa8fbd8bd7bf7c7ffaf4c6a0",
  "bytecode": "0x6101e06040526001600160e01b031960809081526301ffc9a760e01b60a0526380ac58cd60e01b60c052635b5e139f60e01b60e05263780e9d6360e01b61010052630a85bd0160e11b61012052636cdb3d1360e11b610140526303a24d0760e21b61016052630271189760e51b610180526307f5828d60e41b6101a05263152a902d60e11b6101c0526200009890600490600b620005ed565b5060408051600b808252610180820190925290602082016101608036833750508151620000cd926005925060200190620005ed565b50348015620000db57600080fd5b50604051620022f5380380620022f5833981016040819052620000fe91620006d4565b62000114826200052d60201b620009d41760201c565b600380546001600160a01b0319166001600160a01b0383161790556000630c38761960e41b60058262000147816200070c565b9350815481106200015c576200015c62000736565b90600052602060002090600891828204019190066004026101000a81548163ffffffff021916908360e01c0217905550631fea36bd60e21b60058280620001a3906200070c565b935081548110620001b857620001b862000736565b90600052602060002090600891828204019190066004026101000a81548163ffffffff021916908360e01c0217905550632e5e69fd60e01b60058280620001ff906200070c565b93508154811062000214576200021462000736565b90600052602060002090600891828204019190066004026101000a81548163ffffffff021916908360e01c0217905550638351879960e01b600582806200025b906200070c565b93508154811062000270576200027062000736565b90600052602060002090600891828204019190066004026101000a81548163ffffffff021916908360e01c02179055506398396bd360e01b60058280620002b7906200070c565b935081548110620002cc57620002cc62000736565b90600052602060002090600891828204019190066004026101000a81548163ffffffff021916908360e01c0217905550634b68d43160e01b6005828062000313906200070c565b93508154811062000328576200032862000736565b90600052602060002090600891828204019190066004026101000a81548163ffffffff021916908360e01c0217905550633ab2af8560e21b600582806200036f906200070c565b93508154811062000384576200038462000736565b90600052602060002090600891828204019190066004026101000a81548163ffffffff021916908360e01c0217905550636ca50ed960e11b60058280620003cb906200070c565b935081548110620003e057620003e062000736565b90600052602060002090600891828204019190066004026101000a81548163ffffffff021916908360e01c0217905550635f5f00ef60e01b6005828062000427906200070c565b9350815481106200043c576200043c62000736565b90600052602060002090600891828204019190066004026101000a81548163ffffffff021916908360e01c02179055506330323f1960e01b6005828062000483906200070c565b93508154811062000498576200049862000736565b90600052602060002090600891828204019190066004026101000a81548163ffffffff021916908360e01c02179055506317812f2360e11b60058280620004df906200070c565b935081548110620004f457620004f462000736565b90600052602060002090600891828204019190066004026101000a81548163ffffffff021916908360e01c02179055505050506200074c565b60005460ff1615620005795760405162461bcd60e51b8152602060048201526011602482015270125b9a5d08185b1c9958591e4818d85b1b607a1b604482015260640160405180910390fd5b6000805460ff19166001179055620005918162000594565b50565b600080546001600160a01b03838116610100818102610100600160a81b0319851617855560405193049190911692909183917f8be0079c531659141344cd1fd0a4f28419497f9722a3daafe3b4186f6b6457e091a35050565b828054828255906000526020600020906007016008900481019282156200068e5791602002820160005b838211156200065a57835183826101000a81548163ffffffff021916908360e01c0217905550926020019260040160208160030104928301926001030262000617565b80156200068c5782816101000a81549063ffffffff02191690556004016020816003010492830192600103026200065a565b505b506200069c929150620006a0565b5090565b5b808211156200069c5760008155600101620006a1565b80516001600160a01b0381168114620006cf57600080fd5b919050565b60008060408385031215620006e857600080fd5b620006f383620006b7565b91506200070360208401620006b7565b90509250929050565b60006000198214156200072f57634e487b7160e01b600052601160045260246000fd5b5060010190565b634e487b7160e01b600052603260045260246000fd5b611b99806200075c6000396000f3fe608060405234801561001057600080fd5b50600436106101165760003560e01c80635fa15ebb116100a2578063a39fac1211610071578063a39fac1214610267578063a8e719ce1461027c578063c3c5a5471461028f578063ec530de6146102bd578063f2fde38b146102ce57600080fd5b80635fa15ebb14610204578063690682a4146102175780637600c24c1461022a5780638da5cb5b1461023d57600080fd5b8063490f06eb116100e9578063490f06eb1461018b5780634ba79dfe146101ab57806350da677b146101be578063570cd8aa146101de5780635ee9a1d2146101f157600080fd5b806301ffc9a71461011b57806314e8b079146101435780633628731c1461016357806338eada1c14610178575b600080fd5b61012e61012936600461151b565b6102e1565b60405190151581526020015b60405180910390f35b61015661015136600461154b565b61030c565b60405161013a91906116a2565b610176610171366004611794565b6103a3565b005b6101766101863660046117d1565b6103e7565b61019e6101993660046117d1565b6103f3565b60405161013a91906117ee565b6101766101b93660046117d1565b61042c565b6101d16101cc366004611863565b610435565b60405161013a91906118db565b6101d16101ec3660046117d1565b6104f5565b6101766101ff3660046117d1565b61057e565b61012e6102123660046117d1565b6105ec565b61019e61022536600461194b565b610683565b6101566102383660046117d1565b6108fa565b60005461010090046001600160a01b03165b6040516001600160a01b03909116815260200161013a565b61026f61091e565b60405161013a91906119a3565b60035461024f906001600160a01b031681565b61012e61029d3660046117d1565b6001600160a01b0316600090815260016020819052604090912054101590565b60025460405190815260200161013a565b6101766102dc3660046117d1565b610980565b60006001600160e01b031982166343e468d360e01b1480610306575061030682610a31565b92915050565b6103146114af565b61039c8383600580548060200260200160405190810160405280929190818152602001828054801561039257602002820191906000526020600020906000905b82829054906101000a900460e01b6001600160e01b031916815260200190600401906020826003010492830192600103820291508084116103545790505b5050505050610a56565b9392505050565b60005b81518110156103e3576103d18282815181106103c4576103c46119f0565b6020026020010151610ecd565b806103db81611a1c565b9150506103a6565b5050565b6103f081610ecd565b50565b60606103068260016000604051908082528060200260200182016040528015610426578160200160208202803683370190505b50610683565b6103f081611019565b6060835167ffffffffffffffff811115610451576104516116b5565b60405190808252806020026020018201604052801561048a57816020015b6104776114af565b81526020019060019003908161046f5790505b50905060005b84518110156104ed576104bd8582815181106104ae576104ae6119f0565b60200260200101518585610a56565b8282815181106104cf576104cf6119f0565b602002602001018190525080806104e590611a1c565b915050610490565b509392505050565b606061030682600580548060200260200160405190810160405280929190818152602001828054801561057457602002820191906000526020600020906000905b82829054906101000a900460e01b6001600160e01b031916815260200190600401906020826003010492830192600103820291508084116105365790505b50505050506111fb565b60005461010090046001600160a01b031633146105ce5760405162461bcd60e51b81526020600482015260096024820152682737ba1037bbb732b960b91b60448201526064015b60405180910390fd5b600380546001600160a01b0319166001600160a01b03831617905550565b6000806105f8836103f3565b90508060008151811061060d5761060d6119f0565b6020026020010151158015610639575080600181518110610630576106306119f0565b60200260200101515b801561039c575080600281518110610653576106536119f0565b60200260200101518061039c575080600681518110610674576106746119f0565b60200260200101519392505050565b606060008083518561069657600061069a565b6004545b6106a49190611a37565b90508067ffffffffffffffff8111156106bf576106bf6116b5565b6040519080825280602002602001820160405280156106e8578160200160208202803683370190505b50925084156108005760005b6004548110156107fe57866001600160a01b03166301ffc9a760048381548110610720576107206119f0565b90600052602060002090600891828204019190066004029054906101000a900460e01b6040518263ffffffff1660e01b815260040161076f91906001600160e01b031991909116815260200190565b60206040518083038186803b15801561078757600080fd5b505afa15801561079b573d6000803e3d6000fd5b505050506040513d601f19601f820116820180604052508101906107bf9190611a4f565b84846107ca81611a1c565b9550815181106107dc576107dc6119f0565b91151560209283029190910190910152806107f681611a1c565b9150506106f4565b505b60005b84518110156108f057866001600160a01b03166301ffc9a786838151811061082d5761082d6119f0565b60200260200101516040518263ffffffff1660e01b815260040161086191906001600160e01b031991909116815260200190565b60206040518083038186803b15801561087957600080fd5b505afa15801561088d573d6000803e3d6000fd5b505050506040513d601f19601f820116820180604052508101906108b19190611a4f565b84846108bc81611a1c565b9550815181106108ce576108ce6119f0565b91151560209283029190910190910152806108e881611a1c565b915050610803565b5050509392505050565b6109026114af565b6040805160008152602081019091526103069083903390610a56565b6060600280548060200260200160405190810160405280929190818152602001828054801561097657602002820191906000526020600020905b81546001600160a01b03168152600190910190602001808311610958575b5050505050905090565b60005461010090046001600160a01b031633146109cb5760405162461bcd60e51b81526020600482015260096024820152682737ba1037bbb732b960b91b60448201526064016105c5565b6103f0816113c1565b60005460ff1615610a1b5760405162461bcd60e51b8152602060048201526011602482015270125b9a5d08185b1c9958591e4818d85b1b607a1b60448201526064016105c5565b6000805460ff191660011790556103f0816113c1565b60006001600160e01b031982166350da677b60e01b148061030657506103068261141a565b610a5e6114af565b6001600160a01b0384163b610aa95760405162461bcd60e51b8152602060048201526011602482015270139bdd081cdb585c9d18dbdb9d1c9858dd607a1b60448201526064016105c5565b6000610ab785600185610683565b9050808260c0018190525080600081518110610ad557610ad56119f0565b6020026020010151158015610b01575080600181518110610af857610af86119f0565b60200260200101515b610b3a5760405162461bcd60e51b815260206004820152600a6024820152694e6f742045524331363560b01b60448201526064016105c5565b80600281518110610b4d57610b4d6119f0565b602002602001015180610b77575080600681518110610b6e57610b6e6119f0565b60200260200101515b610bbb5760405162461bcd60e51b8152602060048201526015602482015274139bdd08139195081cdb585c9d18dbdb9d1c9858dd605a1b60448201526064016105c5565b6001600160a01b0385168252805181906009908110610bdc57610bdc6119f0565b602002602001015115610c6957846001600160a01b0316638da5cb5b6040518163ffffffff1660e01b815260040160206040518083038186803b158015610c2257600080fd5b505afa158015610c36573d6000803e3d6000fd5b505050506040513d601f19601f82011682018060405250810190610c5a9190611a6c565b6001600160a01b031660208301525b80600281518110610c7c57610c7c6119f0565b6020026020010151156104ed5780600381518110610c9c57610c9c6119f0565b602002602001015115610da157846001600160a01b03166306fdde036040518163ffffffff1660e01b815260040160006040518083038186803b158015610ce257600080fd5b505afa158015610cf6573d6000803e3d6000fd5b505050506040513d6000823e601f3d908101601f19168201604052610d1e9190810190611a89565b8260400181905250846001600160a01b03166395d89b416040518163ffffffff1660e01b815260040160006040518083038186803b158015610d5f57600080fd5b505afa158015610d73573d6000803e3d6000fd5b505050506040513d6000823e601f3d908101601f19168201604052610d9b9190810190611a89565b60608301525b80600481518110610db457610db46119f0565b602002602001015115610e3857846001600160a01b03166318160ddd6040518163ffffffff1660e01b815260040160206040518083038186803b158015610dfa57600080fd5b505afa158015610e0e573d6000803e3d6000fd5b505050506040513d601f19601f82011682018060405250810190610e329190611b1d565b60808301525b6001600160a01b038416156104ed576040516370a0823160e01b81526001600160a01b0385811660048301528616906370a082319060240160206040518083038186803b158015610e8857600080fd5b505afa158015610e9c573d6000803e3d6000fd5b505050506040513d601f19601f82011682018060405250810190610ec09190611b1d565b60a0830152509392505050565b60005461010090046001600160a01b03166001600160a01b0316336001600160a01b03161480610f0757506003546001600160a01b031633145b610f4e5760405162461bcd60e51b81526020600482015260186024820152772737ba103932b3b4b9ba32b932b9103737b91037bbb732b960411b60448201526064016105c5565b80610f58816105ec565b610f955760405162461bcd60e51b815260206004820152600e60248201526d2737ba1021b7b63632b1ba34b7b760911b60448201526064016105c5565b6001600160a01b03821660009081526001602081905260409091205410156103e3575060028054600180820183557f405787fa12a823e0f2b7631cc41b3ba8828b3321ca811111fa75cd3aa3bb5ace90910180546001600160a01b0319166001600160a01b0394909416938417905590546000928352602091909152604090912055565b60005461010090046001600160a01b03166001600160a01b0316336001600160a01b0316148061105357506003546001600160a01b031633145b61109a5760405162461bcd60e51b81526020600482015260186024820152772737ba103932b3b4b9ba32b932b9103737b91037bbb732b960411b60448201526064016105c5565b6001600160a01b03811660009081526001602081905260409091205410156110f55760405162461bcd60e51b815260206004820152600e60248201526d139bdd081c9959da5cdd195c995960921b60448201526064016105c5565b6001600160a01b03811660009081526001602052604090205460025481146111ab57600280546000919061112b90600190611b36565b8154811061113b5761113b6119f0565b6000918252602090912001546001600160a01b03169050806002611160600185611b36565b81548110611170576111706119f0565b600091825260208083209190910180546001600160a01b0319166001600160a01b039485161790559290911681526001909152604090208190555b6001600160a01b03821660009081526001602052604081205560028054806111d5576111d5611b4d565b600082815260209020810160001990810180546001600160a01b03191690550190555050565b6060600061121161120a61091e565b8585610435565b90506000805b825181101561129f576000838281518110611234576112346119f0565b602002602001015160a00151118061127a5750856001600160a01b0316838281518110611263576112636119f0565b6020026020010151602001516001600160a01b0316145b1561128d578161128981611a1c565b9250505b8061129781611a1c565b915050611217565b508067ffffffffffffffff8111156112b9576112b96116b5565b6040519080825280602002602001820160405280156112f257816020015b6112df6114af565b8152602001906001900390816112d75790505b5092506000805b83518110156113b7576000848281518110611316576113166119f0565b602002602001015160a00151118061135c5750866001600160a01b0316848281518110611345576113456119f0565b6020026020010151602001516001600160a01b0316145b156113a557838181518110611373576113736119f0565b602002602001015185838061138790611a1c565b945081518110611399576113996119f0565b60200260200101819052505b806113af81611a1c565b9150506112f9565b5050505092915050565b600080546001600160a01b03838116610100818102610100600160a81b0319851617855560405193049190911692909183917f8be0079c531659141344cd1fd0a4f28419497f9722a3daafe3b4186f6b6457e091a35050565b60006001600160e01b03198216631d80309360e21b148061030657506103068260006001600160e01b03198216631fea36bd60e21b148061030657506103068260006001600160e01b03198216633f62885160e01b148061030657506103068260006307f5828d60e41b6001600160e01b03198316148061030657506001600160e01b031982166301ffc9a760e01b14610306565b6040518060e0016040528060006001600160a01b0316815260200160006001600160a01b0316815260200160608152602001606081526020016000815260200160008152602001606081525090565b80356001600160e01b03198116811461151657600080fd5b919050565b60006020828403121561152d57600080fd5b61039c826114fe565b6001600160a01b03811681146103f057600080fd5b6000806040838503121561155e57600080fd5b823561156981611536565b9150602083013561157981611536565b809150509250929050565b60005b8381101561159f578181015183820152602001611587565b838111156115ae576000848401525b50505050565b600081518084526115cc816020860160208601611584565b601f01601f19169290920160200192915050565b600081518084526020808501945080840160005b838110156116125781511515875295820195908201906001016115f4565b509495945050505050565b600060018060a01b0380835116845280602084015116602085015250604082015160e0604085015261165260e08501826115b4565b90506060830151848203606086015261166b82826115b4565b9150506080830151608085015260a083015160a085015260c083015184820360c086015261169982826115e0565b95945050505050565b60208152600061039c602083018461161d565b634e487b7160e01b600052604160045260246000fd5b604051601f8201601f1916810167ffffffffffffffff811182821017156116f4576116f46116b5565b604052919050565b600067ffffffffffffffff821115611716576117166116b5565b5060051b60200190565b600082601f83011261173157600080fd5b81356020611746611741836116fc565b6116cb565b82815260059290921b8401810191818101908684111561176557600080fd5b8286015b8481101561178957803561177c81611536565b8352918301918301611769565b509695505050505050565b6000602082840312156117a657600080fd5b813567ffffffffffffffff8111156117bd57600080fd5b6117c984828501611720565b949350505050565b6000602082840312156117e357600080fd5b813561039c81611536565b60208152600061039c60208301846115e0565b600082601f83011261181257600080fd5b81356020611822611741836116fc565b82815260059290921b8401810191818101908684111561184157600080fd5b8286015b8481101561178957611856816114fe565b8352918301918301611845565b60008060006060848603121561187857600080fd5b833567ffffffffffffffff8082111561189057600080fd5b61189c87838801611720565b9450602086013591506118ae82611536565b909250604085013590808211156118c457600080fd5b506118d186828701611801565b9150509250925092565b6000602080830181845280855180835260408601915060408160051b870101925083870160005b8281101561193057603f1988860301845261191e85835161161d565b94509285019290850190600101611902565b5092979650505050505050565b80151581146103f057600080fd5b60008060006060848603121561196057600080fd5b833561196b81611536565b9250602084013561197b8161193d565b9150604084013567ffffffffffffffff81111561199757600080fd5b6118d186828701611801565b6020808252825182820181905260009190848201906040850190845b818110156119e45783516001600160a01b0316835292840192918401916001016119bf565b50909695505050505050565b634e487b7160e01b600052603260045260246000fd5b634e487b7160e01b600052601160045260246000fd5b6000600019821415611a3057611a30611a06565b5060010190565b60008219821115611a4a57611a4a611a06565b500190565b600060208284031215611a6157600080fd5b815161039c8161193d565b600060208284031215611a7e57600080fd5b815161039c81611536565b600060208284031215611a9b57600080fd5b815167ffffffffffffffff80821115611ab357600080fd5b818401915084601f830112611ac757600080fd5b815181811115611ad957611ad96116b5565b611aec601f8201601f19166020016116cb565b9150808252856020828501011115611b0357600080fd5b611b14816020840160208601611584565b50949350505050565b600060208284031215611b2f57600080fd5b5051919050565b600082821015611b4857611b48611a06565b500390565b634e487b7160e01b600052603160045260246000fdfea26469706673582212201b5ff0c6983bd35993d02d922840c1b68e5f71a93ede44aca96a20999df72b1064736f6c63430008090033",
  "devdoc": {
    "kind": "dev",
    "methods": {},
    "version": 1
  },
  "userdoc": {
    "kind": "user",
    "methods": {},
    "version": 1
  },
  "storageLayout": {
    "storage": [
      {
        "astId": 6531,
        "contract": "contracts/next/NFTsResolver.sol:NFTsResolver",
        "label": "_openERC173Initialized",
        "offset": 0,
        "slot": "0",
        "type": "t_bool"
      },
      {
        "astId": 6533,
        "contract": "contracts/next/NFTsResolver.sol:NFTsResolver",
        "label": "_owner",
        "offset": 1,
        "slot": "0",
        "type": "t_address"
      },
      {
        "astId": 9150,
        "contract": "contracts/next/NFTsResolver.sol:NFTsResolver",
        "label": "_numAddress",
        "offset": 0,
        "slot": "1",
        "type": "t_mapping(t_address,t_uint256)"
      },
      {
        "astId": 9153,
        "contract": "contracts/next/NFTsResolver.sol:NFTsResolver",
        "label": "_addresses",
        "offset": 0,
        "slot": "2",
        "type": "t_array(t_address)dyn_storage"
      },
      {
        "astId": 9155,
        "contract": "contracts/next/NFTsResolver.sol:NFTsResolver",
        "label": "registerer",
        "offset": 0,
        "slot": "3",
        "type": "t_address"
      },
      {
        "astId": 8751,
        "contract": "contracts/next/NFTsResolver.sol:NFTsResolver",
        "label": "_ercInterfaceIds",
        "offset": 0,
        "slot": "4",
        "type": "t_array(t_bytes4)dyn_storage"
      },
      {
        "astId": 19682,
        "contract": "contracts/next/NFTsResolver.sol:NFTsResolver",
        "label": "_interfaceIds",
        "offset": 0,
        "slot": "5",
        "type": "t_array(t_bytes4)dyn_storage"
      }
    ],
    "types": {
      "t_address": {
        "encoding": "inplace",
        "label": "address",
        "numberOfBytes": "20"
      },
      "t_array(t_address)dyn_storage": {
        "base": "t_address",
        "encoding": "dynamic_array",
        "label": "address[]",
        "numberOfBytes": "32"
      },
      "t_array(t_bytes4)dyn_storage": {
        "base": "t_bytes4",
        "encoding": "dynamic_array",
        "label": "bytes4[]",
        "numberOfBytes": "32"
      },
      "t_bool": {
        "encoding": "inplace",
        "label": "bool",
        "numberOfBytes": "1"
      },
      "t_bytes4": {
        "encoding": "inplace",
        "label": "bytes4",
        "numberOfBytes": "4"
      },
      "t_mapping(t_address,t_uint256)": {
        "encoding": "mapping",
        "key": "t_address",
        "label": "mapping(address => uint256)",
        "numberOfBytes": "32",
        "value": "t_uint256"
      },
      "t_uint256": {
        "encoding": "inplace",
        "label": "uint256",
        "numberOfBytes": "32"
      }
    }
  }
}