{
  "address": "0xC7f3C65ccf9071fac39bB1EAEA44Df6a01dd8B8E",
  "abi": [
    {
      "inputs": [
        {
          "internalType": "address",
          "name": "initialOwner",
          "type": "address"
        }
      ],
      "stateMutability": "nonpayable",
      "type": "constructor"
    },
    {
      "anonymous": false,
      "inputs": [
        {
          "indexed": true,
          "internalType": "address",
          "name": "implementation",
          "type": "address"
        },
        {
          "indexed": true,
          "internalType": "address",
          "name": "creator",
          "type": "address"
        },
        {
          "indexed": false,
          "internalType": "uint256",
          "name": "index",
          "type": "uint256"
        }
      ],
      "name": "ImplementationNew",
      "type": "event"
    },
    {
      "anonymous": false,
      "inputs": [
        {
          "indexed": true,
          "internalType": "address",
          "name": "previousOwner",
          "type": "address"
        },
        {
          "indexed": true,
          "internalType": "address",
          "name": "newOwner",
          "type": "address"
        }
      ],
      "name": "OwnershipTransferred",
      "type": "event"
    },
    {
      "anonymous": false,
      "inputs": [
        {
          "indexed": true,
          "internalType": "string",
          "name": "templateName",
          "type": "string"
        },
        {
          "indexed": true,
          "internalType": "address",
          "name": "template",
          "type": "address"
        }
      ],
      "name": "TemplateSet",
      "type": "event"
    },
    {
      "inputs": [
        {
          "internalType": "address",
          "name": "addr",
          "type": "address"
        }
      ],
      "name": "balancesOf",
      "outputs": [
        {
          "components": [
            {
              "internalType": "address",
              "name": "nft",
              "type": "address"
            },
            {
              "internalType": "uint256",
              "name": "balanceOf",
              "type": "uint256"
            },
            {
              "internalType": "address",
              "name": "owner",
              "type": "address"
            },
            {
              "internalType": "string",
              "name": "name",
              "type": "string"
            },
            {
              "internalType": "string",
              "name": "symbol",
              "type": "string"
            },
            {
              "internalType": "uint256",
              "name": "totalSupply",
              "type": "uint256"
            }
          ],
          "internalType": "struct INFTsFactoryV2.NftData[]",
          "name": "nftData",
          "type": "tuple[]"
        }
      ],
      "stateMutability": "view",
      "type": "function"
    },
    {
      "inputs": [
        {
          "internalType": "string",
          "name": "name",
          "type": "string"
        },
        {
          "internalType": "string",
          "name": "symbol",
          "type": "string"
        },
        {
          "internalType": "string",
          "name": "templateName",
          "type": "string"
        },
        {
          "internalType": "bool[]",
          "name": "options",
          "type": "bool[]"
        }
      ],
      "name": "clone",
      "outputs": [
        {
          "internalType": "address",
          "name": "clone_",
          "type": "address"
        }
      ],
      "stateMutability": "nonpayable",
      "type": "function"
    },
    {
      "inputs": [
        {
          "internalType": "uint256",
          "name": "",
          "type": "uint256"
        }
      ],
      "name": "implementations",
      "outputs": [
        {
          "internalType": "address",
          "name": "",
          "type": "address"
        }
      ],
      "stateMutability": "view",
      "type": "function"
    },
    {
      "inputs": [
        {
          "internalType": "address[]",
          "name": "implementationsToAdd",
          "type": "address[]"
        }
      ],
      "name": "implementationsAdd",
      "outputs": [],
      "stateMutability": "nonpayable",
      "type": "function"
    },
    {
      "inputs": [],
      "name": "implementationsCount",
      "outputs": [
        {
          "internalType": "uint256",
          "name": "",
          "type": "uint256"
        }
      ],
      "stateMutability": "view",
      "type": "function"
    },
    {
      "inputs": [],
      "name": "owner",
      "outputs": [
        {
          "internalType": "address",
          "name": "",
          "type": "address"
        }
      ],
      "stateMutability": "view",
      "type": "function"
    },
    {
      "inputs": [],
      "name": "renounceOwnership",
      "outputs": [],
      "stateMutability": "nonpayable",
      "type": "function"
    },
    {
      "inputs": [
        {
          "internalType": "string",
          "name": "templateName",
          "type": "string"
        },
        {
          "internalType": "address",
          "name": "template",
          "type": "address"
        }
      ],
      "name": "templateSet",
      "outputs": [],
      "stateMutability": "nonpayable",
      "type": "function"
    },
    {
      "inputs": [
        {
          "internalType": "string",
          "name": "",
          "type": "string"
        }
      ],
      "name": "templates",
      "outputs": [
        {
          "internalType": "address",
          "name": "",
          "type": "address"
        }
      ],
      "stateMutability": "view",
      "type": "function"
    },
    {
      "inputs": [
        {
          "internalType": "address",
          "name": "newOwner",
          "type": "address"
        }
      ],
      "name": "transferOwnership",
      "outputs": [],
      "stateMutability": "nonpayable",
      "type": "function"
    }
  ],
  "transactionHash": "0x2b1c3f10cef8b5ddbba59df35e832f12ac5143a8a9a4d858df0bf65f319ec318",
  "args": [
    "0x6eebAe27d69fa80f0E4C0E973A2Fed218A56880c"
  ],
  "numDeployments": 4,
  "solcInputHash": "cdf3d604edda062e4a345aad00a994ed",
  "bytecode": "0x608060405234801561001057600080fd5b506040516115ba3803806115ba83398101604081905261002f91610097565b61003833610047565b61004181610047565b506100c7565b600080546001600160a01b038381166001600160a01b0319831681178455604051919092169283917f8be0079c531659141344cd1fd0a4f28419497f9722a3daafe3b4186f6b6457e09190a35050565b6000602082840312156100a957600080fd5b81516001600160a01b03811681146100c057600080fd5b9392505050565b6114e4806100d66000396000f3fe608060405234801561001057600080fd5b506004361061009e5760003560e01c80638da5cb5b116100665780638da5cb5b14610123578063b22beeda14610134578063ba6da05014610168578063c17bae4f1461017b578063f2fde38b1461018c57600080fd5b80631b6740dd146100a35780636392a51f146100d3578063715018a6146100f357806382a1db39146100fd578063845affc814610110575b600080fd5b6100b66100b1366004610f26565b61019f565b6040516001600160a01b0390911681526020015b60405180910390f35b6100e66100e136600461105c565b610219565b6040516100ca91906110d5565b6100fb6102e6565b005b6100fb61010b366004611196565b6102fa565b6100b661011e36600461120b565b610353565b6000546001600160a01b03166100b6565b6100b6610142366004611224565b80516020818301810180516002825292820191909301209152546001600160a01b031681565b6100fb610176366004611261565b61037d565b6001546040519081526020016100ca565b6100fb61019a36600461105c565b6103fa565b60006101aa83610473565b604051630a9c216960e31b81529091506001600160a01b038216906354e10b48906101df9088908890339088906004016112e4565b600060405180830381600087803b1580156101f957600080fd5b505af115801561020d573d6000803e3d6000fd5b50505050949350505050565b60015460609067ffffffffffffffff81111561023757610237610e61565b60405190808252806020026020018201604052801561027057816020015b61025d610e19565b8152602001906001900390816102555790505b50905060005b6001548110156102e0576102b1600182815481106102965761029661135f565b6000918252602090912001546001600160a01b031684610496565b8282815181106102c3576102c361135f565b60209081029190910101526102d960018261138b565b9050610276565b50919050565b6102ee6108b6565b6102f86000610910565b565b6103026108b6565b60005b8181101561034e5761033c8383838181106103225761032261135f565b9050602002016020810190610337919061105c565b610960565b61034760018261138b565b9050610305565b505050565b6001818154811061036357600080fd5b6000918252602090912001546001600160a01b0316905081565b6103856108b6565b61039e6001600160a01b03821662f7235960e21b6109bc565b6103ef5760405162461bcd60e51b815260206004820152601b60248201527f4e6f742076616c6964204f70656e4e4654732054656d706c617465000000000060448201526064015b60405180910390fd5b61034e8383836109e1565b6104026108b6565b6001600160a01b0381166104675760405162461bcd60e51b815260206004820152602660248201527f4f776e61626c653a206e6577206f776e657220697320746865207a65726f206160448201526564647265737360d01b60648201526084016103e6565b61047081610910565b50565b600061048661048183610a6d565b610b0e565b905061049181610960565b919050565b61049e610e19565b60408051600580825260c082019092526000916020820160a080368337505081519192506380ac58cd60e01b918391506000906104dd576104dd61135f565b6001600160e01b031990921660209283029190910190910152805163780e9d6360e01b90829060019081106105145761051461135f565b6001600160e01b031990921660209283029190910190910152805163780e9d6360e01b908290600290811061054b5761054b61135f565b6001600160e01b03199092166020928302919091019091015280516307f5828d60e41b90829060039081106105825761058261135f565b6001600160e01b03199092166020928302919091019091015260006105b06001600160a01b03861683610ba6565b905080600060ff16815181106105c8576105c861135f565b6020026020010151156108ae576001600160a01b038581168085526040516370a0823160e01b81529186166004830152906370a082319060240160206040518083038186803b15801561061a57600080fd5b505afa15801561062e573d6000803e3d6000fd5b505050506040513d601f19601f8201168201806040525081019061065291906113a3565b602084015280518190600190811061066c5761066c61135f565b60200260200101511561077157846001600160a01b03166306fdde036040518163ffffffff1660e01b815260040160006040518083038186803b1580156106b257600080fd5b505afa1580156106c6573d6000803e3d6000fd5b505050506040513d6000823e601f3d908101601f191682016040526106ee91908101906113bc565b8360600181905250846001600160a01b03166395d89b416040518163ffffffff1660e01b815260040160006040518083038186803b15801561072f57600080fd5b505afa158015610743573d6000803e3d6000fd5b505050506040513d6000823e601f3d908101601f1916820160405261076b91908101906113bc565b60808401525b80600260ff16815181106107875761078761135f565b60200260200101511561080b57846001600160a01b03166318160ddd6040518163ffffffff1660e01b815260040160206040518083038186803b1580156107cd57600080fd5b505afa1580156107e1573d6000803e3d6000fd5b505050506040513d601f19601f8201168201806040525081019061080591906113a3565b60a08401525b80600360ff16815181106108215761082161135f565b6020026020010151156108ae57846001600160a01b0316638da5cb5b6040518163ffffffff1660e01b815260040160206040518083038186803b15801561086757600080fd5b505afa15801561087b573d6000803e3d6000fd5b505050506040513d601f19601f8201168201806040525081019061089f9190611433565b6001600160a01b031660408401525b505092915050565b6000546001600160a01b031633146102f85760405162461bcd60e51b815260206004820181905260248201527f4f776e61626c653a2063616c6c6572206973206e6f7420746865206f776e657260448201526064016103e6565b600080546001600160a01b038381166001600160a01b0319831681178455604051919092169283917f8be0079c531659141344cd1fd0a4f28419497f9722a3daafe3b4186f6b6457e09190a35050565b61097a6001600160a01b0382166380ac58cd60e01b6109bc565b6109b35760405162461bcd60e51b815260206004820152600a6024820152694e6f742045524337323160b01b60448201526064016103e6565b61047081610c69565b60006109c783610cf9565b80156109d857506109d88383610d2c565b90505b92915050565b6109e96108b6565b80600284846040516109fc929190611450565b90815260405190819003602001812080546001600160a01b039384166001600160a01b031990911617905590821690610a389085908590611450565b604051908190038120907f2e5d1f3ab97987d0ad3ab02a382994c388a94ba99ecd499e395c29e20775ab6690600090a3505050565b6000806001600160a01b0316600283604051610a899190611460565b908152604051908190036020019020546001600160a01b03161415610adf5760405162461bcd60e51b815260206004820152600c60248201526b4261642054656d706c61746560a01b60448201526064016103e6565b600282604051610aef9190611460565b908152604051908190036020019020546001600160a01b031692915050565b6000604051733d602d80600a3d3981f3363d3d373d3d3d363d7360601b81528260601b60148201526e5af43d82803e903d91602b57fd5bf360881b60288201526037816000f09150506001600160a01b0381166104915760405162461bcd60e51b8152602060048201526016602482015275115490cc4c4d8dce8818dc99585d194819985a5b195960521b60448201526064016103e6565b60606000825167ffffffffffffffff811115610bc457610bc4610e61565b604051908082528060200260200182016040528015610bed578160200160208202803683370190505b509050610bf984610cf9565b156109d85760005b8351811015610c6157610c2d85858381518110610c2057610c2061135f565b6020026020010151610d2c565b828281518110610c3f57610c3f61135f565b9115156020928302919091019091015280610c598161147c565b915050610c01565b509392505050565b60018054808201825560008290527fb10e2d527612073b26eecdfd717e6a320cf44b4afac2b0732d9fcbe2b7fa0cf60180546001600160a01b0319166001600160a01b038416908117909155815433927fe1fd48e37080a338bebd722213e17521b8a454ab4f0ef1b1a487025d5191e7a191610ce59190611497565b60405190815260200160405180910390a350565b6000610d0c826301ffc9a760e01b610d2c565b80156109db5750610d25826001600160e01b0319610d2c565b1592915050565b604080516001600160e01b0319831660248083019190915282518083039091018152604490910182526020810180516001600160e01b03166301ffc9a760e01b179052905160009190829081906001600160a01b0387169061753090610d93908690611460565b6000604051808303818686fa925050503d8060008114610dcf576040519150601f19603f3d011682016040523d82523d6000602084013e610dd4565b606091505b5091509150602081511015610def57600093505050506109db565b818015610e0f5750600081806020019051810190610e0d91906113a3565b115b9695505050505050565b6040518060c0016040528060006001600160a01b031681526020016000815260200160006001600160a01b031681526020016060815260200160608152602001600081525090565b634e487b7160e01b600052604160045260246000fd5b604051601f8201601f1916810167ffffffffffffffff81118282101715610ea057610ea0610e61565b604052919050565b600067ffffffffffffffff821115610ec257610ec2610e61565b50601f01601f191660200190565b600082601f830112610ee157600080fd5b8135610ef4610eef82610ea8565b610e77565b818152846020838601011115610f0957600080fd5b816020850160208301376000918101602001919091529392505050565b60008060008060808587031215610f3c57600080fd5b843567ffffffffffffffff80821115610f5457600080fd5b610f6088838901610ed0565b9550602091508187013581811115610f7757600080fd5b610f8389828a01610ed0565b955050604087013581811115610f9857600080fd5b610fa489828a01610ed0565b945050606087013581811115610fb957600080fd5b8701601f81018913610fca57600080fd5b803582811115610fdc57610fdc610e61565b8060051b9250610fed848401610e77565b818152928201840192848101908b85111561100757600080fd5b928501925b84841015611037578335925082151583146110275760008081fd5b828252928501929085019061100c565b989b979a50959850505050505050565b6001600160a01b038116811461047057600080fd5b60006020828403121561106e57600080fd5b81356109d881611047565b60005b8381101561109457818101518382015260200161107c565b838111156110a3576000848401525b50505050565b600081518084526110c1816020860160208601611079565b601f01601f19169290920160200192915050565b60006020808301818452808551808352604092508286019150828160051b87010184880160005b8381101561118857888303603f19018552815180516001600160a01b039081168552888201518986015287820151168785015260608082015160c0828701819052919061114b838801826110a9565b925050506080808301518683038288015261116683826110a9565b60a09485015197909401969096525050948701949250908601906001016110fc565b509098975050505050505050565b600080602083850312156111a957600080fd5b823567ffffffffffffffff808211156111c157600080fd5b818501915085601f8301126111d557600080fd5b8135818111156111e457600080fd5b8660208260051b85010111156111f957600080fd5b60209290920196919550909350505050565b60006020828403121561121d57600080fd5b5035919050565b60006020828403121561123657600080fd5b813567ffffffffffffffff81111561124d57600080fd5b61125984828501610ed0565b949350505050565b60008060006040848603121561127657600080fd5b833567ffffffffffffffff8082111561128e57600080fd5b818601915086601f8301126112a257600080fd5b8135818111156112b157600080fd5b8760208285010111156112c357600080fd5b602092830195509350508401356112d981611047565b809150509250925092565b6080815260006112f760808301876110a9565b60208382038185015261130a82886110a9565b6001600160a01b03871660408601528481036060860152855180825282870193509082019060005b81811015611350578451151583529383019391830191600101611332565b50909998505050505050505050565b634e487b7160e01b600052603260045260246000fd5b634e487b7160e01b600052601160045260246000fd5b6000821982111561139e5761139e611375565b500190565b6000602082840312156113b557600080fd5b5051919050565b6000602082840312156113ce57600080fd5b815167ffffffffffffffff8111156113e557600080fd5b8201601f810184136113f657600080fd5b8051611404610eef82610ea8565b81815285602083850101111561141957600080fd5b61142a826020830160208601611079565b95945050505050565b60006020828403121561144557600080fd5b81516109d881611047565b8183823760009101908152919050565b60008251611472818460208701611079565b9190910192915050565b600060001982141561149057611490611375565b5060010190565b6000828210156114a9576114a9611375565b50039056fea2646970667358221220a8406a28ae8984c0a0a9933ec4ab5771d729aca4d227669d42c7714b04982cf464736f6c63430008090033",
  "devdoc": {
    "details": "is CloneFactory",
    "kind": "dev",
    "methods": {
      "balancesOf(address)": {
        "params": {
          "addr": "address of account"
        },
        "returns": {
          "nftData": "Array of nftData balances"
        }
      },
      "clone(string,string,string,bool[])": {
        "params": {
          "name": "name of Clone collection",
          "symbol": "symbol of Clone collection"
        },
        "returns": {
          "clone_": "Address of Clone collection"
        }
      },
      "implementationsAdd(address[])": {
        "params": {
          "implementationsToAdd": ": new implementations addresses"
        }
      },
      "implementationsCount()": {
        "returns": {
          "_0": "count : number of implementations"
        }
      },
      "owner()": {
        "details": "Returns the address of the current owner."
      },
      "renounceOwnership()": {
        "details": "Leaves the contract without owner. It will not be possible to call `onlyOwner` functions anymore. Can only be called by the current owner. NOTE: Renouncing ownership will leave the contract without an owner, thereby removing any functionality that is only available to the owner."
      },
      "templateSet(string,address)": {
        "params": {
          "template": "Address of the template",
          "templateName": "Name of the template"
        }
      },
      "transferOwnership(address)": {
        "details": "Transfers ownership of the contract to a new account (`newOwner`). Can only be called by the current owner."
      }
    },
    "title": "NFTsFactory smartcontract",
    "version": 1
  },
  "userdoc": {
    "events": {
      "ImplementationNew(address,address,uint256)": {
        "notice": "New Implementation Event"
      },
      "TemplateSet(string,address)": {
        "notice": "Set Template Event"
      }
    },
    "kind": "user",
    "methods": {
      "balancesOf(address)": {
        "notice": "balancesOf address for each implementations"
      },
      "clone(string,string,string,bool[])": {
        "notice": "clone template"
      },
      "implementations(uint256)": {
        "notice": "Implementations addresses"
      },
      "implementationsAdd(address[])": {
        "notice": "Add Implementations, public onlyOwner"
      },
      "implementationsCount()": {
        "notice": "Implementations count"
      },
      "templateSet(string,address)": {
        "notice": "Set Template, overrides generic CloneFactory"
      },
      "templates(string)": {
        "notice": "Named Templates"
      }
    },
    "notice": "Templates are OPEN_NFTS contractsImplementations are ERC721 contracts (including OPEN_NFTS clones)Factory can clone OPEN_NFTs templates to implementationsFactory can also add ERC721 contracts to implementations",
    "version": 1
  },
  "storageLayout": {
    "storage": [
      {
        "astId": 2518,
        "contract": "contracts/NFTsFactoryV2.sol:NFTsFactoryV2",
        "label": "_owner",
        "offset": 0,
        "slot": "0",
        "type": "t_address"
      },
      {
        "astId": 6780,
        "contract": "contracts/NFTsFactoryV2.sol:NFTsFactoryV2",
        "label": "implementations",
        "offset": 0,
        "slot": "1",
        "type": "t_array(t_address)dyn_storage"
      },
      {
        "astId": 6785,
        "contract": "contracts/NFTsFactoryV2.sol:NFTsFactoryV2",
        "label": "templates",
        "offset": 0,
        "slot": "2",
        "type": "t_mapping(t_string_memory_ptr,t_address)"
      }
    ],
    "types": {
      "t_address": {
        "encoding": "inplace",
        "label": "address",
        "numberOfBytes": "20"
      },
      "t_array(t_address)dyn_storage": {
        "base": "t_address",
        "encoding": "dynamic_array",
        "label": "address[]",
        "numberOfBytes": "32"
      },
      "t_mapping(t_string_memory_ptr,t_address)": {
        "encoding": "mapping",
        "key": "t_string_memory_ptr",
        "label": "mapping(string => address)",
        "numberOfBytes": "32",
        "value": "t_address"
      },
      "t_string_memory_ptr": {
        "encoding": "bytes",
        "label": "string",
        "numberOfBytes": "32"
      }
    }
  }
}