{
  "address": "0xd5dd015CA1d363fD705A75355C3bfbDAD1bFC94d",
  "abi": [
    {
      "inputs": [
        {
          "internalType": "address",
          "name": "owner_",
          "type": "address"
        },
        {
          "internalType": "address",
          "name": "registerer_",
          "type": "address"
        }
      ],
      "stateMutability": "nonpayable",
      "type": "constructor"
    },
    {
      "anonymous": false,
      "inputs": [
        {
          "indexed": true,
          "internalType": "address",
          "name": "previousOwner",
          "type": "address"
        },
        {
          "indexed": true,
          "internalType": "address",
          "name": "newOwner",
          "type": "address"
        }
      ],
      "name": "OwnershipTransferred",
      "type": "event"
    },
    {
      "inputs": [
        {
          "internalType": "address",
          "name": "addr",
          "type": "address"
        }
      ],
      "name": "addAddress",
      "outputs": [],
      "stateMutability": "nonpayable",
      "type": "function"
    },
    {
      "inputs": [
        {
          "internalType": "address[]",
          "name": "addrs",
          "type": "address[]"
        }
      ],
      "name": "addAddresses",
      "outputs": [],
      "stateMutability": "nonpayable",
      "type": "function"
    },
    {
      "inputs": [
        {
          "internalType": "address",
          "name": "smartcontract",
          "type": "address"
        }
      ],
      "name": "checkErcInterfaces",
      "outputs": [
        {
          "internalType": "bool[]",
          "name": "ercInterfacesChecks",
          "type": "bool[]"
        }
      ],
      "stateMutability": "view",
      "type": "function"
    },
    {
      "inputs": [
        {
          "internalType": "address",
          "name": "smartcontract",
          "type": "address"
        },
        {
          "internalType": "bool",
          "name": "erc",
          "type": "bool"
        },
        {
          "internalType": "bytes4[]",
          "name": "interfaceIds",
          "type": "bytes4[]"
        }
      ],
      "name": "checkSupportedInterfaces",
      "outputs": [
        {
          "internalType": "bool[]",
          "name": "interfaceIdsChecks",
          "type": "bool[]"
        }
      ],
      "stateMutability": "view",
      "type": "function"
    },
    {
      "inputs": [],
      "name": "countAddresses",
      "outputs": [
        {
          "internalType": "uint256",
          "name": "",
          "type": "uint256"
        }
      ],
      "stateMutability": "view",
      "type": "function"
    },
    {
      "inputs": [],
      "name": "getAddresses",
      "outputs": [
        {
          "internalType": "address[]",
          "name": "",
          "type": "address[]"
        }
      ],
      "stateMutability": "view",
      "type": "function"
    },
    {
      "inputs": [
        {
          "internalType": "address",
          "name": "collection",
          "type": "address"
        }
      ],
      "name": "getCollectionInfos",
      "outputs": [
        {
          "components": [
            {
              "internalType": "address",
              "name": "collection",
              "type": "address"
            },
            {
              "internalType": "address",
              "name": "owner",
              "type": "address"
            },
            {
              "internalType": "string",
              "name": "name",
              "type": "string"
            },
            {
              "internalType": "string",
              "name": "symbol",
              "type": "string"
            },
            {
              "internalType": "uint256",
              "name": "totalSupply",
              "type": "uint256"
            },
            {
              "internalType": "uint256",
              "name": "balanceOf",
              "type": "uint256"
            },
            {
              "internalType": "bool[]",
              "name": "supported",
              "type": "bool[]"
            }
          ],
          "internalType": "struct IERC721Infos.CollectionInfos",
          "name": "collectionInfos",
          "type": "tuple"
        }
      ],
      "stateMutability": "view",
      "type": "function"
    },
    {
      "inputs": [
        {
          "internalType": "address[]",
          "name": "collections",
          "type": "address[]"
        },
        {
          "internalType": "address",
          "name": "account",
          "type": "address"
        },
        {
          "internalType": "bytes4[]",
          "name": "interfaceIds",
          "type": "bytes4[]"
        }
      ],
      "name": "getCollectionsInfos",
      "outputs": [
        {
          "components": [
            {
              "internalType": "address",
              "name": "collection",
              "type": "address"
            },
            {
              "internalType": "address",
              "name": "owner",
              "type": "address"
            },
            {
              "internalType": "string",
              "name": "name",
              "type": "string"
            },
            {
              "internalType": "string",
              "name": "symbol",
              "type": "string"
            },
            {
              "internalType": "uint256",
              "name": "totalSupply",
              "type": "uint256"
            },
            {
              "internalType": "uint256",
              "name": "balanceOf",
              "type": "uint256"
            },
            {
              "internalType": "bool[]",
              "name": "supported",
              "type": "bool[]"
            }
          ],
          "internalType": "struct IERC721Infos.CollectionInfos[]",
          "name": "collectionsInfos",
          "type": "tuple[]"
        }
      ],
      "stateMutability": "view",
      "type": "function"
    },
    {
      "inputs": [
        {
          "internalType": "address",
          "name": "collection",
          "type": "address"
        },
        {
          "internalType": "uint256",
          "name": "tokenID",
          "type": "uint256"
        },
        {
          "internalType": "bool",
          "name": "erc721Metadata",
          "type": "bool"
        }
      ],
      "name": "getNftInfos",
      "outputs": [
        {
          "components": [
            {
              "internalType": "uint256",
              "name": "tokenID",
              "type": "uint256"
            },
            {
              "internalType": "string",
              "name": "tokenURI",
              "type": "string"
            },
            {
              "internalType": "address",
              "name": "owner",
              "type": "address"
            },
            {
              "internalType": "address",
              "name": "approved",
              "type": "address"
            }
          ],
          "internalType": "struct IERC721Infos.NftInfos",
          "name": "nftInfos",
          "type": "tuple"
        }
      ],
      "stateMutability": "view",
      "type": "function"
    },
    {
      "inputs": [
        {
          "internalType": "address",
          "name": "collection",
          "type": "address"
        },
        {
          "internalType": "address",
          "name": "account",
          "type": "address"
        },
        {
          "internalType": "uint256",
          "name": "limit",
          "type": "uint256"
        },
        {
          "internalType": "uint256",
          "name": "offset",
          "type": "uint256"
        }
      ],
      "name": "getNftsInfos",
      "outputs": [
        {
          "components": [
            {
              "internalType": "uint256",
              "name": "tokenID",
              "type": "uint256"
            },
            {
              "internalType": "string",
              "name": "tokenURI",
              "type": "string"
            },
            {
              "internalType": "address",
              "name": "owner",
              "type": "address"
            },
            {
              "internalType": "address",
              "name": "approved",
              "type": "address"
            }
          ],
          "internalType": "struct IERC721Infos.NftInfos[]",
          "name": "nftsInfos",
          "type": "tuple[]"
        },
        {
          "internalType": "uint256",
          "name": "count",
          "type": "uint256"
        },
        {
          "internalType": "uint256",
          "name": "total",
          "type": "uint256"
        }
      ],
      "stateMutability": "view",
      "type": "function"
    },
    {
      "inputs": [
        {
          "internalType": "address",
          "name": "collection",
          "type": "address"
        },
        {
          "internalType": "address",
          "name": "account",
          "type": "address"
        }
      ],
      "name": "getOpenNFTsResolverCollectionInfos",
      "outputs": [
        {
          "components": [
            {
              "components": [
                {
                  "internalType": "address",
                  "name": "collection",
                  "type": "address"
                },
                {
                  "internalType": "address",
                  "name": "owner",
                  "type": "address"
                },
                {
                  "internalType": "string",
                  "name": "name",
                  "type": "string"
                },
                {
                  "internalType": "string",
                  "name": "symbol",
                  "type": "string"
                },
                {
                  "internalType": "uint256",
                  "name": "totalSupply",
                  "type": "uint256"
                },
                {
                  "internalType": "uint256",
                  "name": "balanceOf",
                  "type": "uint256"
                },
                {
                  "internalType": "bool[]",
                  "name": "supported",
                  "type": "bool[]"
                }
              ],
              "internalType": "struct IERC721Infos.CollectionInfos",
              "name": "collectionInfos",
              "type": "tuple"
            },
            {
              "internalType": "uint256",
              "name": "version",
              "type": "uint256"
            },
            {
              "internalType": "string",
              "name": "template",
              "type": "string"
            },
            {
              "internalType": "bool",
              "name": "open",
              "type": "bool"
            }
          ],
          "internalType": "struct IOpenNFTsInfos.OpenNFTsCollectionInfos",
          "name": "openNFTs",
          "type": "tuple"
        }
      ],
      "stateMutability": "view",
      "type": "function"
    },
    {
      "inputs": [
        {
          "internalType": "address",
          "name": "account",
          "type": "address"
        }
      ],
      "name": "getOpenNFTsResolverCollectionsInfos",
      "outputs": [
        {
          "components": [
            {
              "components": [
                {
                  "internalType": "address",
                  "name": "collection",
                  "type": "address"
                },
                {
                  "internalType": "address",
                  "name": "owner",
                  "type": "address"
                },
                {
                  "internalType": "string",
                  "name": "name",
                  "type": "string"
                },
                {
                  "internalType": "string",
                  "name": "symbol",
                  "type": "string"
                },
                {
                  "internalType": "uint256",
                  "name": "totalSupply",
                  "type": "uint256"
                },
                {
                  "internalType": "uint256",
                  "name": "balanceOf",
                  "type": "uint256"
                },
                {
                  "internalType": "bool[]",
                  "name": "supported",
                  "type": "bool[]"
                }
              ],
              "internalType": "struct IERC721Infos.CollectionInfos",
              "name": "collectionInfos",
              "type": "tuple"
            },
            {
              "internalType": "uint256",
              "name": "version",
              "type": "uint256"
            },
            {
              "internalType": "string",
              "name": "template",
              "type": "string"
            },
            {
              "internalType": "bool",
              "name": "open",
              "type": "bool"
            }
          ],
          "internalType": "struct IOpenNFTsInfos.OpenNFTsCollectionInfos[]",
          "name": "openNFTs",
          "type": "tuple[]"
        }
      ],
      "stateMutability": "view",
      "type": "function"
    },
    {
      "inputs": [
        {
          "internalType": "address",
          "name": "collection",
          "type": "address"
        }
      ],
      "name": "isCollection",
      "outputs": [
        {
          "internalType": "bool",
          "name": "",
          "type": "bool"
        }
      ],
      "stateMutability": "view",
      "type": "function"
    },
    {
      "inputs": [
        {
          "internalType": "address",
          "name": "addr",
          "type": "address"
        }
      ],
      "name": "isRegistered",
      "outputs": [
        {
          "internalType": "bool",
          "name": "",
          "type": "bool"
        }
      ],
      "stateMutability": "view",
      "type": "function"
    },
    {
      "inputs": [],
      "name": "owner",
      "outputs": [
        {
          "internalType": "address",
          "name": "",
          "type": "address"
        }
      ],
      "stateMutability": "view",
      "type": "function"
    },
    {
      "inputs": [],
      "name": "registerer",
      "outputs": [
        {
          "internalType": "address",
          "name": "",
          "type": "address"
        }
      ],
      "stateMutability": "view",
      "type": "function"
    },
    {
      "inputs": [
        {
          "internalType": "address",
          "name": "addr",
          "type": "address"
        }
      ],
      "name": "removeAddress",
      "outputs": [],
      "stateMutability": "nonpayable",
      "type": "function"
    },
    {
      "inputs": [
        {
          "internalType": "address",
          "name": "registerer_",
          "type": "address"
        }
      ],
      "name": "setRegisterer",
      "outputs": [],
      "stateMutability": "nonpayable",
      "type": "function"
    },
    {
      "inputs": [
        {
          "internalType": "bytes4",
          "name": "interfaceId",
          "type": "bytes4"
        }
      ],
      "name": "supportsInterface",
      "outputs": [
        {
          "internalType": "bool",
          "name": "",
          "type": "bool"
        }
      ],
      "stateMutability": "view",
      "type": "function"
    },
    {
      "inputs": [
        {
          "internalType": "address",
          "name": "newOwner",
          "type": "address"
        }
      ],
      "name": "transferOwnership",
      "outputs": [],
      "stateMutability": "nonpayable",
      "type": "function"
    }
  ],
  "transactionHash": "0x5c8020fa7c9d066232f23d2e6c6447a1cdf526ad9021436f54f12b4e4a577cb8",
  "args": [
    "0x6eebAe27d69fa80f0E4C0E973A2Fed218A56880c",
    "0xADd751b683d76460873F3FcFE634bC7033EaE8A2"
  ],
  "numDeployments": 6,
  "solcInputHash": "413d971d2279bb0a4dc0d156e3efccb2",
  "bytecode": "0x6101e06040526001600160e01b031960809081526301ffc9a760e01b60a0526380ac58cd60e01b60c052635b5e139f60e01b60e05263780e9d6360e01b61010052630a85bd0160e11b61012052636cdb3d1360e11b610140526303a24d0760e21b61016052630271189760e51b610180526307f5828d60e41b6101a05263152a902d60e11b6101c0526200009890600490600b62000578565b5060408051600b808252610180820190925290602082016101608036833750508151620000cd92600592506020019062000578565b50348015620000db57600080fd5b5060405162002e9c38038062002e9c833981016040819052620000fe916200065f565b62000114826200049660201b620012ac1760201c565b6200012a81620004fd60201b620013091760201c565b630c38761960e41b600560008154811062000149576200014962000697565b90600052602060002090600891828204019190066004026101000a81548163ffffffff021916908360e01c0217905550631fea36bd60e21b600560018154811062000198576200019862000697565b90600052602060002090600891828204019190066004026101000a81548163ffffffff021916908360e01c0217905550632e5e69fd60e01b6005600281548110620001e757620001e762000697565b90600052602060002090600891828204019190066004026101000a81548163ffffffff021916908360e01c0217905550638351879960e01b600560038154811062000236576200023662000697565b90600052602060002090600891828204019190066004026101000a81548163ffffffff021916908360e01c02179055506398396bd360e01b600560048154811062000285576200028562000697565b90600052602060002090600891828204019190066004026101000a81548163ffffffff021916908360e01c0217905550634b68d43160e01b60058081548110620002d357620002d362000697565b90600052602060002090600891828204019190066004026101000a81548163ffffffff021916908360e01c0217905550633ab2af8560e21b600560068154811062000322576200032262000697565b90600052602060002090600891828204019190066004026101000a81548163ffffffff021916908360e01c0217905550636ca50ed960e11b600560078154811062000371576200037162000697565b90600052602060002090600891828204019190066004026101000a81548163ffffffff021916908360e01c0217905550635f5f00ef60e01b6005600881548110620003c057620003c062000697565b90600052602060002090600891828204019190066004026101000a81548163ffffffff021916908360e01c02179055506330323f1960e01b60056009815481106200040f576200040f62000697565b90600052602060002090600891828204019190066004026101000a81548163ffffffff021916908360e01c02179055506317812f2360e11b6005600a815481106200045e576200045e62000697565b90600052602060002090600891828204019190066004026101000a81548163ffffffff021916908360e01c02179055505050620006ad565b60005460ff1615620004e25760405162461bcd60e51b8152602060048201526011602482015270125b9a5d08185b1c9958591e4818d85b1b607a1b604482015260640160405180910390fd5b6000805460ff19166001179055620004fa816200051f565b50565b600380546001600160a01b0319166001600160a01b0392909216919091179055565b600080546001600160a01b03838116610100818102610100600160a81b0319851617855560405193049190911692909183917f8be0079c531659141344cd1fd0a4f28419497f9722a3daafe3b4186f6b6457e091a35050565b82805482825590600052602060002090600701600890048101928215620006195791602002820160005b83821115620005e557835183826101000a81548163ffffffff021916908360e01c02179055509260200192600401602081600301049283019260010302620005a2565b8015620006175782816101000a81549063ffffffff0219169055600401602081600301049283019260010302620005e5565b505b50620006279291506200062b565b5090565b5b808211156200062757600081556001016200062c565b80516001600160a01b03811681146200065a57600080fd5b919050565b600080604083850312156200067357600080fd5b6200067e8362000642565b91506200068e6020840162000642565b90509250929050565b634e487b7160e01b600052603260045260246000fd5b6127df80620006bd6000396000f3fe608060405234801561001057600080fd5b506004361061012c5760003560e01c80636970e32f116100ad578063c3c5a54711610071578063c3c5a547146102bf578063cdaafcd6146102ed578063d5acd8031461030f578063ec530de61461032f578063f2fde38b1461034057600080fd5b80636970e32f1461022d5780637600c24c1461024d5780638da5cb5b1461026d578063a39fac1214610297578063a8e719ce146102ac57600080fd5b80634ba79dfe116100f45780634ba79dfe146101c157806350da677b146101d45780635ee9a1d2146101f45780635fa15ebb14610207578063690682a41461021a57600080fd5b806301ffc9a7146101315780631178e994146101595780633628731c1461017957806338eada1c1461018e578063490f06eb146101a1575b600080fd5b61014461013f366004611f41565b610353565b60405190151581526020015b60405180910390f35b61016c610167366004611f7f565b61037e565b604051610150919061206a565b61018c61018736600461215c565b61051f565b005b61018c61019c366004612199565b610563565b6101b46101af366004612199565b61056f565b60405161015091906121b6565b61018c6101cf366004612199565b6105a8565b6101e76101e236600461225e565b6105b1565b6040516101509190612380565b61018c610202366004612199565b610671565b610144610215366004612199565b6106ca565b6101b46102283660046123e2565b610761565b61024061023b366004612199565b6109d8565b604051610150919061248b565b61026061025b366004612199565b610cca565b60405161015091906124e0565b60005461010090046001600160a01b03165b6040516001600160a01b039091168152602001610150565b61029f610cee565b60405161015091906124f3565b60035461027f906001600160a01b031681565b6101446102cd366004612199565b6001600160a01b0316600090815260016020819052604090912054101590565b6103006102fb366004612534565b610d50565b6040516101509392919061257a565b61032261031d3660046125ea565b611198565b6040516101509190612623565b600254604051908152602001610150565b61018c61034e366004612199565b611258565b60006001600160e01b03198216632f370ecb60e21b148061037857506103788261132b565b92915050565b610386611e6b565b82815260405163020604bf60e21b8152600481018490526001600160a01b0385169063081812fc9060240160206040518083038186803b1580156103c957600080fd5b505afa1580156103dd573d6000803e3d6000fd5b505050506040513d601f19601f820116820180604052508101906104019190612636565b6001600160a01b0390811660608301526040516331a9108f60e11b81526004810185905290851690636352211e9060240160206040518083038186803b15801561044a57600080fd5b505afa15801561045e573d6000803e3d6000fd5b505050506040513d601f19601f820116820180604052508101906104829190612636565b6001600160a01b0316604082015281156105185760405163c87b56dd60e01b8152600481018490526001600160a01b0385169063c87b56dd9060240160006040518083038186803b1580156104d657600080fd5b505afa1580156104ea573d6000803e3d6000fd5b505050506040513d6000823e601f3d908101601f191682016040526105129190810190612653565b60208201525b9392505050565b60005b815181101561055f5761054d828281518110610540576105406126e7565b6020026020010151611350565b8061055781612713565b915050610522565b5050565b61056c81611350565b50565b606061037882600160006040519080825280602002602001820160405280156105a2578160200160208202803683370190505b50610761565b61056c8161149c565b6060835167ffffffffffffffff8111156105cd576105cd61207d565b60405190808252806020026020018201604052801561060657816020015b6105f3611ea5565b8152602001906001900390816105eb5790505b50905060005b84518110156106695761063985828151811061062a5761062a6126e7565b6020026020010151858561167e565b82828151811061064b5761064b6126e7565b6020026020010181905250808061066190612713565b91505061060c565b509392505050565b60005461010090046001600160a01b031633146106c15760405162461bcd60e51b81526020600482015260096024820152682737ba1037bbb732b960b91b60448201526064015b60405180910390fd5b61056c81611309565b6000806106d68361056f565b9050806000815181106106eb576106eb6126e7565b602002602001015115801561071757508060018151811061070e5761070e6126e7565b60200260200101515b8015610518575080600281518110610731576107316126e7565b602002602001015180610518575080600681518110610752576107526126e7565b60200260200101519392505050565b6060600080835185610774576000610778565b6004545b610782919061272e565b90508067ffffffffffffffff81111561079d5761079d61207d565b6040519080825280602002602001820160405280156107c6578160200160208202803683370190505b50925084156108de5760005b6004548110156108dc57866001600160a01b03166301ffc9a7600483815481106107fe576107fe6126e7565b90600052602060002090600891828204019190066004029054906101000a900460e01b6040518263ffffffff1660e01b815260040161084d91906001600160e01b031991909116815260200190565b60206040518083038186803b15801561086557600080fd5b505afa158015610879573d6000803e3d6000fd5b505050506040513d601f19601f8201168201806040525081019061089d9190612746565b84846108a881612713565b9550815181106108ba576108ba6126e7565b91151560209283029190910190910152806108d481612713565b9150506107d2565b505b60005b84518110156109ce57866001600160a01b03166301ffc9a786838151811061090b5761090b6126e7565b60200260200101516040518263ffffffff1660e01b815260040161093f91906001600160e01b031991909116815260200190565b60206040518083038186803b15801561095757600080fd5b505afa15801561096b573d6000803e3d6000fd5b505050506040513d601f19601f8201168201806040525081019061098f9190612746565b848461099a81612713565b9550815181106109ac576109ac6126e7565b91151560209283029190910190910152806109c681612713565b9150506108e1565b5050509392505050565b60606000610a6b6109e7610cee565b846005805480602002602001604051908101604052809291908181526020018280548015610a6157602002820191906000526020600020906000905b82829054906101000a900460e01b6001600160e01b03191681526020019060040190602082600301049283019260010382029150808411610a235790505b50505050506105b1565b90506000805b8251811015610af9576000838281518110610a8e57610a8e6126e7565b602002602001015160a001511180610ad45750846001600160a01b0316838281518110610abd57610abd6126e7565b6020026020010151602001516001600160a01b0316145b15610ae75781610ae381612713565b9250505b80610af181612713565b915050610a71565b508067ffffffffffffffff811115610b1357610b1361207d565b604051908082528060200260200182016040528015610b4c57816020015b610b39611ef4565b815260200190600190039081610b315790505b5092506000805b8351811015610cc1576000848281518110610b7057610b706126e7565b602002602001015160a001511180610bb65750856001600160a01b0316848281518110610b9f57610b9f6126e7565b6020026020010151602001516001600160a01b0316145b15610caf57838181518110610bcd57610bcd6126e7565b6020026020010151858381518110610be757610be76126e7565b602002602001015160000181905250610c3a848281518110610c0b57610c0b6126e7565b602002602001015160000151858381518110610c2957610c296126e7565b602002602001015160c00151611af5565b878581518110610c4c57610c4c6126e7565b6020026020010151602001888681518110610c6957610c696126e7565b6020026020010151604001898781518110610c8657610c866126e7565b60209081029190910101519215156060909301929092529190525281610cab81612713565b9250505b80610cb981612713565b915050610b53565b50505050919050565b610cd2611ea5565b604080516000815260208101909152610378908390339061167e565b60606002805480602002602001604051908101604052809291908181526020018280548015610d4657602002820191906000526020600020905b81546001600160a01b03168152600190910190602001808311610d28575b5050505050905090565b60606000806000610d608861056f565b905080600281518110610d7557610d756126e7565b60200260200101518015610da0575080600481518110610d9757610d976126e7565b60200260200101515b1561118d576001600160a01b038716610fcc57876001600160a01b03166318160ddd6040518163ffffffff1660e01b815260040160206040518083038186803b158015610dec57600080fd5b505afa158015610e00573d6000803e3d6000fd5b505050506040513d601f19601f82011682018060405250810190610e249190612763565b915081851115610e675760405162461bcd60e51b815260206004820152600e60248201526d125b9d985b1a59081bd9999cd95d60921b60448201526064016106b8565b81610e72878761272e565b1115610e8757610e82858361277c565b610e89565b855b92508267ffffffffffffffff811115610ea457610ea461207d565b604051908082528060200260200182016040528015610edd57816020015b610eca611e6b565b815260200190600190039081610ec25790505b50935060005b83811015610fc657610f96896001600160a01b038116634f6ccce7610f08858b61272e565b6040518263ffffffff1660e01b8152600401610f2691815260200190565b60206040518083038186803b158015610f3e57600080fd5b505afa158015610f52573d6000803e3d6000fd5b505050506040513d601f19601f82011682018060405250810190610f769190612763565b84600381518110610f8957610f896126e7565b602002602001015161037e565b858281518110610fa857610fa86126e7565b60200260200101819052508080610fbe90612713565b915050610ee3565b5061118d565b6040516370a0823160e01b81526001600160a01b0388811660048301528916906370a082319060240160206040518083038186803b15801561100d57600080fd5b505afa158015611021573d6000803e3d6000fd5b505050506040513d601f19601f820116820180604052508101906110459190612763565b9150818511156110885760405162461bcd60e51b815260206004820152600e60248201526d125b9d985b1a59081bd9999cd95d60921b60448201526064016106b8565b81611093878761272e565b11156110a8576110a3858361277c565b6110aa565b855b92508267ffffffffffffffff8111156110c5576110c561207d565b6040519080825280602002602001820160405280156110fe57816020015b6110eb611e6b565b8152602001906001900390816110e35790505b50935060005b8381101561118b5761115b896001600160a01b038116632f745c598b61112a868c61272e565b6040516001600160e01b031960e085901b1681526001600160a01b0390921660048301526024820152604401610f26565b85828151811061116d5761116d6126e7565b6020026020010181905250808061118390612713565b915050611104565b505b509450945094915050565b6111a0611ef4565b600061122a8484600580548060200260200160405190810160405280929190818152602001828054801561122057602002820191906000526020600020906000905b82829054906101000a900460e01b6001600160e01b031916815260200190600401906020826003010492830192600103820291508084116111e25790505b505050505061167e565b80835260c0810151909150611240908590611af5565b15156060850152604084015260208301525092915050565b60005461010090046001600160a01b031633146112a35760405162461bcd60e51b81526020600482015260096024820152682737ba1037bbb732b960b91b60448201526064016106b8565b61056c81611d7d565b60005460ff16156112f35760405162461bcd60e51b8152602060048201526011602482015270125b9a5d08185b1c9958591e4818d85b1b607a1b60448201526064016106b8565b6000805460ff1916600117905561056c81611d7d565b600380546001600160a01b0319166001600160a01b0392909216919091179055565b60006001600160e01b031982166350da677b60e01b1480610378575061037882611dd6565b60005461010090046001600160a01b03166001600160a01b0316336001600160a01b0316148061138a57506003546001600160a01b031633145b6113d15760405162461bcd60e51b81526020600482015260186024820152772737ba103932b3b4b9ba32b932b9103737b91037bbb732b960411b60448201526064016106b8565b806113db816106ca565b6114185760405162461bcd60e51b815260206004820152600e60248201526d2737ba1021b7b63632b1ba34b7b760911b60448201526064016106b8565b6001600160a01b038216600090815260016020819052604090912054101561055f575060028054600180820183557f405787fa12a823e0f2b7631cc41b3ba8828b3321ca811111fa75cd3aa3bb5ace90910180546001600160a01b0319166001600160a01b0394909416938417905590546000928352602091909152604090912055565b60005461010090046001600160a01b03166001600160a01b0316336001600160a01b031614806114d657506003546001600160a01b031633145b61151d5760405162461bcd60e51b81526020600482015260186024820152772737ba103932b3b4b9ba32b932b9103737b91037bbb732b960411b60448201526064016106b8565b6001600160a01b03811660009081526001602081905260409091205410156115785760405162461bcd60e51b815260206004820152600e60248201526d139bdd081c9959da5cdd195c995960921b60448201526064016106b8565b6001600160a01b038116600090815260016020526040902054600254811461162e5760028054600091906115ae9060019061277c565b815481106115be576115be6126e7565b6000918252602090912001546001600160a01b031690508060026115e360018561277c565b815481106115f3576115f36126e7565b600091825260208083209190910180546001600160a01b0319166001600160a01b039485161790559290911681526001909152604090208190555b6001600160a01b038216600090815260016020526040812055600280548061165857611658612793565b600082815260209020810160001990810180546001600160a01b03191690550190555050565b611686611ea5565b6001600160a01b0384163b6116d15760405162461bcd60e51b8152602060048201526011602482015270139bdd081cdb585c9d18dbdb9d1c9858dd607a1b60448201526064016106b8565b60006116df85600185610761565b9050808260c00181905250806000815181106116fd576116fd6126e7565b6020026020010151158015611729575080600181518110611720576117206126e7565b60200260200101515b6117625760405162461bcd60e51b815260206004820152600a6024820152694e6f742045524331363560b01b60448201526064016106b8565b80600281518110611775576117756126e7565b60200260200101518061179f575080600681518110611796576117966126e7565b60200260200101515b6117e35760405162461bcd60e51b8152602060048201526015602482015274139bdd08139195081cdb585c9d18dbdb9d1c9858dd605a1b60448201526064016106b8565b6001600160a01b0385168252805181906009908110611804576118046126e7565b60200260200101511561189157846001600160a01b0316638da5cb5b6040518163ffffffff1660e01b815260040160206040518083038186803b15801561184a57600080fd5b505afa15801561185e573d6000803e3d6000fd5b505050506040513d601f19601f820116820180604052508101906118829190612636565b6001600160a01b031660208301525b806002815181106118a4576118a46126e7565b60200260200101511561066957806003815181106118c4576118c46126e7565b6020026020010151156119c957846001600160a01b03166306fdde036040518163ffffffff1660e01b815260040160006040518083038186803b15801561190a57600080fd5b505afa15801561191e573d6000803e3d6000fd5b505050506040513d6000823e601f3d908101601f191682016040526119469190810190612653565b8260400181905250846001600160a01b03166395d89b416040518163ffffffff1660e01b815260040160006040518083038186803b15801561198757600080fd5b505afa15801561199b573d6000803e3d6000fd5b505050506040513d6000823e601f3d908101601f191682016040526119c39190810190612653565b60608301525b806004815181106119dc576119dc6126e7565b602002602001015115611a6057846001600160a01b03166318160ddd6040518163ffffffff1660e01b815260040160206040518083038186803b158015611a2257600080fd5b505afa158015611a36573d6000803e3d6000fd5b505050506040513d601f19601f82011682018060405250810190611a5a9190612763565b60808301525b6001600160a01b03841615610669576040516370a0823160e01b81526001600160a01b0385811660048301528616906370a082319060240160206040518083038186803b158015611ab057600080fd5b505afa158015611ac4573d6000803e3d6000fd5b505050506040513d601f19601f82011682018060405250810190611ae89190612763565b60a0830152509392505050565b60006060600083600d81518110611b0e57611b0e6126e7565b602002602001015115611c7d57846001600160a01b03166354fd4d506040518163ffffffff1660e01b815260040160206040518083038186803b158015611b5457600080fd5b505afa158015611b68573d6000803e3d6000fd5b505050506040513d601f19601f82011682018060405250810190611b8c9190612763565b9250846001600160a01b0316636f2ddd936040518163ffffffff1660e01b815260040160006040518083038186803b158015611bc757600080fd5b505afa158015611bdb573d6000803e3d6000fd5b505050506040513d6000823e601f3d908101601f19168201604052611c039190810190612653565b9150846001600160a01b031663fcfff16f6040518163ffffffff1660e01b815260040160206040518083038186803b158015611c3e57600080fd5b505afa158015611c52573d6000803e3d6000fd5b505050506040513d601f19601f82011682018060405250810190611c769190612746565b9050611d76565b83601381518110611c9057611c906126e7565b602002602001015115611cff57600392506040518060400160405280600a8152602001694f70656e4e465473563360b01b8152509150846001600160a01b031663fcfff16f6040518163ffffffff1660e01b815260040160206040518083038186803b158015611c3e57600080fd5b83601281518110611d1257611d126126e7565b602002602001015115611d285760029250611d76565b83601181518110611d3b57611d3b6126e7565b602002602001015115611d515760019250611d76565b83601081518110611d6457611d646126e7565b602002602001015115611d7657600092505b9250925092565b600080546001600160a01b03838116610100818102610100600160a81b0319851617855560405193049190911692909183917f8be0079c531659141344cd1fd0a4f28419497f9722a3daafe3b4186f6b6457e091a35050565b60006001600160e01b031982166355696b8760e11b148061037857506103788260006001600160e01b03198216631fea36bd60e21b148061037857506103788260006001600160e01b03198216633f62885160e01b148061037857506103788260006307f5828d60e41b6001600160e01b03198316148061037857506001600160e01b031982166301ffc9a760e01b14610378565b6040518060800160405280600081526020016060815260200160006001600160a01b0316815260200160006001600160a01b031681525090565b6040518060e0016040528060006001600160a01b0316815260200160006001600160a01b0316815260200160608152602001606081526020016000815260200160008152602001606081525090565b6040518060800160405280611f07611ea5565b815260200160008152602001606081526020016000151581525090565b80356001600160e01b031981168114611f3c57600080fd5b919050565b600060208284031215611f5357600080fd5b61051882611f24565b6001600160a01b038116811461056c57600080fd5b801515811461056c57600080fd5b600080600060608486031215611f9457600080fd5b8335611f9f81611f5c565b9250602084013591506040840135611fb681611f71565b809150509250925092565b60005b83811015611fdc578181015183820152602001611fc4565b83811115611feb576000848401525b50505050565b60008151808452612009816020860160208601611fc1565b601f01601f19169290920160200192915050565b80518252600060208201516080602085015261203c6080850182611ff1565b6040848101516001600160a01b03908116918701919091526060948501511693909401929092525090919050565b602081526000610518602083018461201d565b634e487b7160e01b600052604160045260246000fd5b604051601f8201601f1916810167ffffffffffffffff811182821017156120bc576120bc61207d565b604052919050565b600067ffffffffffffffff8211156120de576120de61207d565b5060051b60200190565b600082601f8301126120f957600080fd5b8135602061210e612109836120c4565b612093565b82815260059290921b8401810191818101908684111561212d57600080fd5b8286015b8481101561215157803561214481611f5c565b8352918301918301612131565b509695505050505050565b60006020828403121561216e57600080fd5b813567ffffffffffffffff81111561218557600080fd5b612191848285016120e8565b949350505050565b6000602082840312156121ab57600080fd5b813561051881611f5c565b6020808252825182820181905260009190848201906040850190845b818110156121f05783511515835292840192918401916001016121d2565b50909695505050505050565b600082601f83011261220d57600080fd5b8135602061221d612109836120c4565b82815260059290921b8401810191818101908684111561223c57600080fd5b8286015b848110156121515761225181611f24565b8352918301918301612240565b60008060006060848603121561227357600080fd5b833567ffffffffffffffff8082111561228b57600080fd5b612297878388016120e8565b9450602086013591506122a982611f5c565b909250604085013590808211156122bf57600080fd5b506122cc868287016121fc565b9150509250925092565b600060018060a01b038083511684526020818185015116818601526040840151915060e0604086015261230c60e0860183611ff1565b9150606084015185830360608701526123258382611ff1565b9250506080840151608086015260a084015160a086015260c084015185830360c087015282815180855283850191508383019450600092505b808310156121515784511515825293830193600192909201919083019061235e565b6000602080830181845280855180835260408601915060408160051b870101925083870160005b828110156123d557603f198886030184526123c38583516122d6565b945092850192908501906001016123a7565b5092979650505050505050565b6000806000606084860312156123f757600080fd5b833561240281611f5c565b9250602084013561241281611f71565b9150604084013567ffffffffffffffff81111561242e57600080fd5b6122cc868287016121fc565b600081516080845261244f60808501826122d6565b905060208301516020850152604083015184820360408601526124728282611ff1565b9150506060830151151560608501528091505092915050565b6000602080830181845280855180835260408601915060408160051b870101925083870160005b828110156123d557603f198886030184526124ce85835161243a565b945092850192908501906001016124b2565b60208152600061051860208301846122d6565b6020808252825182820181905260009190848201906040850190845b818110156121f05783516001600160a01b03168352928401929184019160010161250f565b6000806000806080858703121561254a57600080fd5b843561255581611f5c565b9350602085013561256581611f5c565b93969395505050506040820135916060013590565b6000606082016060835280865180835260808501915060808160051b8601019250602080890160005b838110156125d157607f198887030185526125bf86835161201d565b955093820193908201906001016125a3565b5050850196909652506040909201929092529392505050565b600080604083850312156125fd57600080fd5b823561260881611f5c565b9150602083013561261881611f5c565b809150509250929050565b602081526000610518602083018461243a565b60006020828403121561264857600080fd5b815161051881611f5c565b60006020828403121561266557600080fd5b815167ffffffffffffffff8082111561267d57600080fd5b818401915084601f83011261269157600080fd5b8151818111156126a3576126a361207d565b6126b6601f8201601f1916602001612093565b91508082528560208285010111156126cd57600080fd5b6126de816020840160208601611fc1565b50949350505050565b634e487b7160e01b600052603260045260246000fd5b634e487b7160e01b600052601160045260246000fd5b6000600019821415612727576127276126fd565b5060010190565b60008219821115612741576127416126fd565b500190565b60006020828403121561275857600080fd5b815161051881611f71565b60006020828403121561277557600080fd5b5051919050565b60008282101561278e5761278e6126fd565b500390565b634e487b7160e01b600052603160045260246000fdfea26469706673582212200dbd8e2f89d060a2b742a21d82c96d1f2fc52eb5ec96e272d851d61ffdc9259b64736f6c63430008090033",
  "devdoc": {
    "kind": "dev",
    "methods": {},
    "version": 1
  },
  "userdoc": {
    "kind": "user",
    "methods": {},
    "version": 1
  },
  "storageLayout": {
    "storage": [
      {
        "astId": 6531,
        "contract": "contracts/next/OpenNFTsResolver.sol:OpenNFTsResolver",
        "label": "_openERC173Initialized",
        "offset": 0,
        "slot": "0",
        "type": "t_bool"
      },
      {
        "astId": 6533,
        "contract": "contracts/next/OpenNFTsResolver.sol:OpenNFTsResolver",
        "label": "_owner",
        "offset": 1,
        "slot": "0",
        "type": "t_address"
      },
      {
        "astId": 9390,
        "contract": "contracts/next/OpenNFTsResolver.sol:OpenNFTsResolver",
        "label": "_numAddress",
        "offset": 0,
        "slot": "1",
        "type": "t_mapping(t_address,t_uint256)"
      },
      {
        "astId": 9393,
        "contract": "contracts/next/OpenNFTsResolver.sol:OpenNFTsResolver",
        "label": "_addresses",
        "offset": 0,
        "slot": "2",
        "type": "t_array(t_address)dyn_storage"
      },
      {
        "astId": 9395,
        "contract": "contracts/next/OpenNFTsResolver.sol:OpenNFTsResolver",
        "label": "registerer",
        "offset": 0,
        "slot": "3",
        "type": "t_address"
      },
      {
        "astId": 8751,
        "contract": "contracts/next/OpenNFTsResolver.sol:OpenNFTsResolver",
        "label": "_ercInterfaceIds",
        "offset": 0,
        "slot": "4",
        "type": "t_array(t_bytes4)dyn_storage"
      },
      {
        "astId": 20210,
        "contract": "contracts/next/OpenNFTsResolver.sol:OpenNFTsResolver",
        "label": "_interfaceIds",
        "offset": 0,
        "slot": "5",
        "type": "t_array(t_bytes4)dyn_storage"
      }
    ],
    "types": {
      "t_address": {
        "encoding": "inplace",
        "label": "address",
        "numberOfBytes": "20"
      },
      "t_array(t_address)dyn_storage": {
        "base": "t_address",
        "encoding": "dynamic_array",
        "label": "address[]",
        "numberOfBytes": "32"
      },
      "t_array(t_bytes4)dyn_storage": {
        "base": "t_bytes4",
        "encoding": "dynamic_array",
        "label": "bytes4[]",
        "numberOfBytes": "32"
      },
      "t_bool": {
        "encoding": "inplace",
        "label": "bool",
        "numberOfBytes": "1"
      },
      "t_bytes4": {
        "encoding": "inplace",
        "label": "bytes4",
        "numberOfBytes": "4"
      },
      "t_mapping(t_address,t_uint256)": {
        "encoding": "mapping",
        "key": "t_address",
        "label": "mapping(address => uint256)",
        "numberOfBytes": "32",
        "value": "t_uint256"
      },
      "t_uint256": {
        "encoding": "inplace",
        "label": "uint256",
        "numberOfBytes": "32"
      }
    }
  }
}