{
  "address": "0xC9D75c6dC5A75315ff68A4CB6fba5c53aBed82d0",
  "abi": [
    {
      "inputs": [
        {
          "internalType": "string",
          "name": "name",
          "type": "string"
        },
        {
          "internalType": "string",
          "name": "symbol",
          "type": "string"
        }
      ],
      "stateMutability": "nonpayable",
      "type": "constructor"
    },
    {
      "anonymous": false,
      "inputs": [
        {
          "indexed": true,
          "internalType": "address",
          "name": "owner",
          "type": "address"
        },
        {
          "indexed": true,
          "internalType": "address",
          "name": "approved",
          "type": "address"
        },
        {
          "indexed": true,
          "internalType": "uint256",
          "name": "tokenId",
          "type": "uint256"
        }
      ],
      "name": "Approval",
      "type": "event"
    },
    {
      "anonymous": false,
      "inputs": [
        {
          "indexed": true,
          "internalType": "address",
          "name": "owner",
          "type": "address"
        },
        {
          "indexed": true,
          "internalType": "address",
          "name": "operator",
          "type": "address"
        },
        {
          "indexed": false,
          "internalType": "bool",
          "name": "approved",
          "type": "bool"
        }
      ],
      "name": "ApprovalForAll",
      "type": "event"
    },
    {
      "anonymous": false,
      "inputs": [
        {
          "indexed": true,
          "internalType": "address",
          "name": "previousOwner",
          "type": "address"
        },
        {
          "indexed": true,
          "internalType": "address",
          "name": "newOwner",
          "type": "address"
        }
      ],
      "name": "OwnershipTransferred",
      "type": "event"
    },
    {
      "anonymous": false,
      "inputs": [
        {
          "indexed": true,
          "internalType": "address",
          "name": "from",
          "type": "address"
        },
        {
          "indexed": true,
          "internalType": "address",
          "name": "to",
          "type": "address"
        },
        {
          "indexed": true,
          "internalType": "uint256",
          "name": "tokenId",
          "type": "uint256"
        }
      ],
      "name": "Transfer",
      "type": "event"
    },
    {
      "inputs": [
        {
          "internalType": "address",
          "name": "to",
          "type": "address"
        },
        {
          "internalType": "uint256",
          "name": "tokenId",
          "type": "uint256"
        }
      ],
      "name": "approve",
      "outputs": [],
      "stateMutability": "nonpayable",
      "type": "function"
    },
    {
      "inputs": [
        {
          "internalType": "address",
          "name": "owner",
          "type": "address"
        }
      ],
      "name": "balanceOf",
      "outputs": [
        {
          "internalType": "uint256",
          "name": "",
          "type": "uint256"
        }
      ],
      "stateMutability": "view",
      "type": "function"
    },
    {
      "inputs": [
        {
          "internalType": "uint256",
          "name": "tokenId",
          "type": "uint256"
        }
      ],
      "name": "claim",
      "outputs": [],
      "stateMutability": "nonpayable",
      "type": "function"
    },
    {
      "inputs": [
        {
          "internalType": "uint256",
          "name": "tokenId",
          "type": "uint256"
        }
      ],
      "name": "exists",
      "outputs": [
        {
          "internalType": "bool",
          "name": "",
          "type": "bool"
        }
      ],
      "stateMutability": "view",
      "type": "function"
    },
    {
      "inputs": [
        {
          "internalType": "uint256",
          "name": "tokenId",
          "type": "uint256"
        }
      ],
      "name": "getApproved",
      "outputs": [
        {
          "internalType": "address",
          "name": "",
          "type": "address"
        }
      ],
      "stateMutability": "view",
      "type": "function"
    },
    {
      "inputs": [
        {
          "internalType": "address",
          "name": "owner",
          "type": "address"
        },
        {
          "internalType": "address",
          "name": "operator",
          "type": "address"
        }
      ],
      "name": "isApprovedForAll",
      "outputs": [
        {
          "internalType": "bool",
          "name": "",
          "type": "bool"
        }
      ],
      "stateMutability": "view",
      "type": "function"
    },
    {
      "inputs": [],
      "name": "name",
      "outputs": [
        {
          "internalType": "string",
          "name": "",
          "type": "string"
        }
      ],
      "stateMutability": "view",
      "type": "function"
    },
    {
      "inputs": [],
      "name": "owner",
      "outputs": [
        {
          "internalType": "address",
          "name": "",
          "type": "address"
        }
      ],
      "stateMutability": "view",
      "type": "function"
    },
    {
      "inputs": [
        {
          "internalType": "uint256",
          "name": "tokenId",
          "type": "uint256"
        }
      ],
      "name": "ownerOf",
      "outputs": [
        {
          "internalType": "address",
          "name": "",
          "type": "address"
        }
      ],
      "stateMutability": "view",
      "type": "function"
    },
    {
      "inputs": [],
      "name": "renounceOwnership",
      "outputs": [],
      "stateMutability": "nonpayable",
      "type": "function"
    },
    {
      "inputs": [
        {
          "internalType": "address",
          "name": "from",
          "type": "address"
        },
        {
          "internalType": "address",
          "name": "to",
          "type": "address"
        },
        {
          "internalType": "uint256",
          "name": "tokenId",
          "type": "uint256"
        }
      ],
      "name": "safeTransferFrom",
      "outputs": [],
      "stateMutability": "nonpayable",
      "type": "function"
    },
    {
      "inputs": [
        {
          "internalType": "address",
          "name": "from",
          "type": "address"
        },
        {
          "internalType": "address",
          "name": "to",
          "type": "address"
        },
        {
          "internalType": "uint256",
          "name": "tokenId",
          "type": "uint256"
        },
        {
          "internalType": "bytes",
          "name": "data",
          "type": "bytes"
        }
      ],
      "name": "safeTransferFrom",
      "outputs": [],
      "stateMutability": "nonpayable",
      "type": "function"
    },
    {
      "inputs": [
        {
          "internalType": "address",
          "name": "operator",
          "type": "address"
        },
        {
          "internalType": "bool",
          "name": "approved",
          "type": "bool"
        }
      ],
      "name": "setApprovalForAll",
      "outputs": [],
      "stateMutability": "nonpayable",
      "type": "function"
    },
    {
      "inputs": [
        {
          "internalType": "bytes4",
          "name": "interfaceId",
          "type": "bytes4"
        }
      ],
      "name": "supportsInterface",
      "outputs": [
        {
          "internalType": "bool",
          "name": "",
          "type": "bool"
        }
      ],
      "stateMutability": "view",
      "type": "function"
    },
    {
      "inputs": [],
      "name": "symbol",
      "outputs": [
        {
          "internalType": "string",
          "name": "",
          "type": "string"
        }
      ],
      "stateMutability": "view",
      "type": "function"
    },
    {
      "inputs": [
        {
          "internalType": "uint256",
          "name": "index",
          "type": "uint256"
        }
      ],
      "name": "tokenByIndex",
      "outputs": [
        {
          "internalType": "uint256",
          "name": "",
          "type": "uint256"
        }
      ],
      "stateMutability": "view",
      "type": "function"
    },
    {
      "inputs": [
        {
          "internalType": "address",
          "name": "owner",
          "type": "address"
        },
        {
          "internalType": "uint256",
          "name": "index",
          "type": "uint256"
        }
      ],
      "name": "tokenOfOwnerByIndex",
      "outputs": [
        {
          "internalType": "uint256",
          "name": "",
          "type": "uint256"
        }
      ],
      "stateMutability": "view",
      "type": "function"
    },
    {
      "inputs": [
        {
          "internalType": "uint256",
          "name": "tokenId",
          "type": "uint256"
        }
      ],
      "name": "tokenURI",
      "outputs": [
        {
          "internalType": "string",
          "name": "",
          "type": "string"
        }
      ],
      "stateMutability": "view",
      "type": "function"
    },
    {
      "inputs": [],
      "name": "totalSupply",
      "outputs": [
        {
          "internalType": "uint256",
          "name": "",
          "type": "uint256"
        }
      ],
      "stateMutability": "view",
      "type": "function"
    },
    {
      "inputs": [
        {
          "internalType": "address",
          "name": "from",
          "type": "address"
        },
        {
          "internalType": "address",
          "name": "to",
          "type": "address"
        },
        {
          "internalType": "uint256",
          "name": "tokenId",
          "type": "uint256"
        }
      ],
      "name": "transferFrom",
      "outputs": [],
      "stateMutability": "nonpayable",
      "type": "function"
    },
    {
      "inputs": [
        {
          "internalType": "address",
          "name": "newOwner",
          "type": "address"
        }
      ],
      "name": "transferOwnership",
      "outputs": [],
      "stateMutability": "nonpayable",
      "type": "function"
    }
  ],
  "transactionHash": "0x2c85de91569846568b0c86a9f1704e8583224b00f56c85da54d2fc3bd6c40394",
  "args": [
    "OpenMulti",
    "MULTI"
  ],
  "numDeployments": 2,
  "solcInputHash": "cdf3d604edda062e4a345aad00a994ed",
  "bytecode": "0x60806040523480156200001157600080fd5b5060405162001cb638038062001cb6833981016040819052620000349162000251565b8151829082906200004d906000906020850190620000de565b50805162000063906001906020840190620000de565b505050620000806200007a6200008860201b60201c565b6200008c565b5050620002f8565b3390565b600a80546001600160a01b038381166001600160a01b0319831681179093556040519116919082907f8be0079c531659141344cd1fd0a4f28419497f9722a3daafe3b4186f6b6457e090600090a35050565b828054620000ec90620002bb565b90600052602060002090601f0160209004810192826200011057600085556200015b565b82601f106200012b57805160ff19168380011785556200015b565b828001600101855582156200015b579182015b828111156200015b5782518255916020019190600101906200013e565b50620001699291506200016d565b5090565b5b808211156200016957600081556001016200016e565b634e487b7160e01b600052604160045260246000fd5b600082601f830112620001ac57600080fd5b81516001600160401b0380821115620001c957620001c962000184565b604051601f8301601f19908116603f01168101908282118183101715620001f457620001f462000184565b816040528381526020925086838588010111156200021157600080fd5b600091505b8382101562000235578582018301518183018401529082019062000216565b83821115620002475760008385830101525b9695505050505050565b600080604083850312156200026557600080fd5b82516001600160401b03808211156200027d57600080fd5b6200028b868387016200019a565b93506020850151915080821115620002a257600080fd5b50620002b1858286016200019a565b9150509250929050565b600181811c90821680620002d057607f821691505b60208210811415620002f257634e487b7160e01b600052602260045260246000fd5b50919050565b6119ae80620003086000396000f3fe608060405234801561001057600080fd5b50600436106101375760003560e01c80634f6ccce7116100b857806395d89b411161007c57806395d89b411461027c578063a22cb46514610284578063b88d4fde14610297578063c87b56dd146102aa578063e985e9c5146102bd578063f2fde38b146102f957600080fd5b80634f6ccce71461022a5780636352211e1461023d57806370a0823114610250578063715018a6146102635780638da5cb5b1461026b57600080fd5b806323b872dd116100ff57806323b872dd146101cb5780632f745c59146101de578063379607f5146101f157806342842e0e146102045780634f558e791461021757600080fd5b806301ffc9a71461013c57806306fdde0314610164578063081812fc14610179578063095ea7b3146101a457806318160ddd146101b9575b600080fd5b61014f61014a3660046114b7565b61030c565b60405190151581526020015b60405180910390f35b61016c610352565b60405161015b9190611533565b61018c610187366004611546565b6103e4565b6040516001600160a01b03909116815260200161015b565b6101b76101b236600461157b565b61040b565b005b6008545b60405190815260200161015b565b6101b76101d93660046115a5565b610526565b6101bd6101ec36600461157b565b610557565b6101b76101ff366004611546565b6105ed565b6101b76102123660046115a5565b6105fa565b61014f610225366004611546565b610615565b6101bd610238366004611546565b610634565b61018c61024b366004611546565b6106c7565b6101bd61025e3660046115e1565b610727565b6101b76107ad565b600a546001600160a01b031661018c565b61016c6107c1565b6101b76102923660046115fc565b6107d0565b6101b76102a536600461164e565b6107df565b61016c6102b8366004611546565b610817565b61014f6102cb36600461172a565b6001600160a01b03918216600090815260056020908152604080832093909416825291909152205460ff1690565b6101b76103073660046115e1565b6108dc565b60006001600160e01b03198216631e30e26360e21b148061033d57506001600160e01b031982166307f5828d60e41b145b8061034c575061034c82610952565b92915050565b6060600080546103619061175d565b80601f016020809104026020016040519081016040528092919081815260200182805461038d9061175d565b80156103da5780601f106103af576101008083540402835291602001916103da565b820191906000526020600020905b8154815290600101906020018083116103bd57829003601f168201915b5050505050905090565b60006103ef82610977565b506000908152600460205260409020546001600160a01b031690565b6000610416826106c7565b9050806001600160a01b0316836001600160a01b031614156104895760405162461bcd60e51b815260206004820152602160248201527f4552433732313a20617070726f76616c20746f2063757272656e74206f776e656044820152603960f91b60648201526084015b60405180910390fd5b336001600160a01b03821614806104a557506104a581336102cb565b6105175760405162461bcd60e51b815260206004820152603e60248201527f4552433732313a20617070726f76652063616c6c6572206973206e6f7420746f60448201527f6b656e206f776e6572206e6f7220617070726f76656420666f7220616c6c00006064820152608401610480565b61052183836109d6565b505050565b6105303382610a44565b61054c5760405162461bcd60e51b815260040161048090611798565b610521838383610ac3565b600061056283610727565b82106105c45760405162461bcd60e51b815260206004820152602b60248201527f455243373231456e756d657261626c653a206f776e657220696e646578206f7560448201526a74206f6620626f756e647360a81b6064820152608401610480565b506001600160a01b03919091166000908152600660209081526040808320938352929052205490565b6105f73382610c6a565b50565b610521838383604051806020016040528060008152506107df565b6000818152600260205260408120546001600160a01b0316151561034c565b600061063f60085490565b82106106a25760405162461bcd60e51b815260206004820152602c60248201527f455243373231456e756d657261626c653a20676c6f62616c20696e646578206f60448201526b7574206f6620626f756e647360a01b6064820152608401610480565b600882815481106106b5576106b56117e6565b90600052602060002001549050919050565b6000818152600260205260408120546001600160a01b03168061034c5760405162461bcd60e51b8152602060048201526018602482015277115490cdcc8c4e881a5b9d985b1a59081d1bdad95b88125160421b6044820152606401610480565b60006001600160a01b0382166107915760405162461bcd60e51b815260206004820152602960248201527f4552433732313a2061646472657373207a65726f206973206e6f7420612076616044820152683634b21037bbb732b960b91b6064820152608401610480565b506001600160a01b031660009081526003602052604090205490565b6107b5610c84565b6107bf6000610cde565b565b6060600180546103619061175d565b6107db338383610d30565b5050565b6107e93383610a44565b6108055760405162461bcd60e51b815260040161048090611798565b61081184848484610dff565b50505050565b6000818152600260205260409020546060906001600160a01b031661087e5760405162461bcd60e51b815260206004820152601c60248201527f4552433732313a20746f6b656e20646f65736e277420657869737473000000006044820152606401610480565b6040518060400160405280601581526020017468747470733a2f2f697066732e696f2f697066732f60581b8152506108b583610e32565b6040516020016108c69291906117fc565b6040516020818303038152906040529050919050565b6108e4610c84565b6001600160a01b0381166109495760405162461bcd60e51b815260206004820152602660248201527f4f776e61626c653a206e6577206f776e657220697320746865207a65726f206160448201526564647265737360d01b6064820152608401610480565b6105f781610cde565b60006001600160e01b0319821663780e9d6360e01b148061034c575061034c82610f70565b6000818152600260205260409020546001600160a01b03166105f75760405162461bcd60e51b8152602060048201526018602482015277115490cdcc8c4e881a5b9d985b1a59081d1bdad95b88125160421b6044820152606401610480565b600081815260046020526040902080546001600160a01b0319166001600160a01b0384169081179091558190610a0b826106c7565b6001600160a01b03167f8c5be1e5ebec7d5bd14f71427d1e84f3dd0314c0f7b2291e5b200ac8c7c3b92560405160405180910390a45050565b600080610a50836106c7565b9050806001600160a01b0316846001600160a01b03161480610a9757506001600160a01b0380821660009081526005602090815260408083209388168352929052205460ff165b80610abb5750836001600160a01b0316610ab0846103e4565b6001600160a01b0316145b949350505050565b826001600160a01b0316610ad6826106c7565b6001600160a01b031614610b3a5760405162461bcd60e51b815260206004820152602560248201527f4552433732313a207472616e736665722066726f6d20696e636f72726563742060448201526437bbb732b960d91b6064820152608401610480565b6001600160a01b038216610b9c5760405162461bcd60e51b8152602060048201526024808201527f4552433732313a207472616e7366657220746f20746865207a65726f206164646044820152637265737360e01b6064820152608401610480565b610ba7838383610fc0565b610bb26000826109d6565b6001600160a01b0383166000908152600360205260408120805460019290610bdb908490611841565b90915550506001600160a01b0382166000908152600360205260408120805460019290610c09908490611858565b909155505060008181526002602052604080822080546001600160a01b0319166001600160a01b0386811691821790925591518493918716917fddf252ad1be2c89b69c2b068fc378daa952ba7f163c4a11628f55a4df523b3ef91a4505050565b6107db828260405180602001604052806000815250610fcb565b600a546001600160a01b031633146107bf5760405162461bcd60e51b815260206004820181905260248201527f4f776e61626c653a2063616c6c6572206973206e6f7420746865206f776e65726044820152606401610480565b600a80546001600160a01b038381166001600160a01b0319831681179093556040519116919082907f8be0079c531659141344cd1fd0a4f28419497f9722a3daafe3b4186f6b6457e090600090a35050565b816001600160a01b0316836001600160a01b03161415610d925760405162461bcd60e51b815260206004820152601960248201527f4552433732313a20617070726f766520746f2063616c6c6572000000000000006044820152606401610480565b6001600160a01b03838116600081815260056020908152604080832094871680845294825291829020805460ff191686151590811790915591519182527f17307eab39ab6107e8899845ad3d59bd9653f200f220920489ca2b5937696c31910160405180910390a3505050565b610e0a848484610ac3565b610e1684848484610ffe565b6108115760405162461bcd60e51b815260040161048090611870565b60408051603480825260608281019093526000919060208201818036833701905050905060fd83901c7f6162636465666768696a6b6c6d6e6f707172737475767778797a3233343536378160208110610e8d57610e8d6117e6565b1a60f81b82600081518110610ea457610ea46117e6565b60200101906001600160f81b031916908160001a90535060029390931b9260335b8015610f46577f6162636465666768696a6b6c6d6e6f707172737475767778797a32333435363785601f1660208110610f0057610f006117e6565b1a60f81b838281518110610f1657610f166117e6565b60200101906001600160f81b031916908160001a90535060059490941c9380610f3e816118c2565b915050610ec5565b5081604051602001610f5891906118d9565b60405160208183030381529060405292505050919050565b60006001600160e01b031982166380ac58cd60e01b1480610fa157506001600160e01b03198216635b5e139f60e01b145b8061034c57506301ffc9a760e01b6001600160e01b031983161461034c565b61052183838361110b565b610fd583836111c3565b610fe26000848484610ffe565b6105215760405162461bcd60e51b815260040161048090611870565b60006001600160a01b0384163b1561110057604051630a85bd0160e11b81526001600160a01b0385169063150b7a0290611042903390899088908890600401611908565b602060405180830381600087803b15801561105c57600080fd5b505af192505050801561108c575060408051601f3d908101601f1916820190925261108991810190611945565b60015b6110e6573d8080156110ba576040519150601f19603f3d011682016040523d82523d6000602084013e6110bf565b606091505b5080516110de5760405162461bcd60e51b815260040161048090611870565b805181602001fd5b6001600160e01b031916630a85bd0160e11b149050610abb565b506001949350505050565b6001600160a01b0383166111665761116181600880546000838152600960205260408120829055600182018355919091527ff3f7a9fe364faab93b216da50a3214154f22a0a2b415b23a84c8169e8b636ee30155565b611189565b816001600160a01b0316836001600160a01b031614611189576111898382611311565b6001600160a01b0382166111a057610521816113ae565b826001600160a01b0316826001600160a01b03161461052157610521828261145d565b6001600160a01b0382166112195760405162461bcd60e51b815260206004820181905260248201527f4552433732313a206d696e7420746f20746865207a65726f20616464726573736044820152606401610480565b6000818152600260205260409020546001600160a01b03161561127e5760405162461bcd60e51b815260206004820152601c60248201527f4552433732313a20746f6b656e20616c7265616479206d696e746564000000006044820152606401610480565b61128a60008383610fc0565b6001600160a01b03821660009081526003602052604081208054600192906112b3908490611858565b909155505060008181526002602052604080822080546001600160a01b0319166001600160a01b03861690811790915590518392907fddf252ad1be2c89b69c2b068fc378daa952ba7f163c4a11628f55a4df523b3ef908290a45050565b6000600161131e84610727565b6113289190611841565b60008381526007602052604090205490915080821461137b576001600160a01b03841660009081526006602090815260408083208584528252808320548484528184208190558352600790915290208190555b5060009182526007602090815260408084208490556001600160a01b039094168352600681528383209183525290812055565b6008546000906113c090600190611841565b600083815260096020526040812054600880549394509092849081106113e8576113e86117e6565b906000526020600020015490508060088381548110611409576114096117e6565b600091825260208083209091019290925582815260099091526040808220849055858252812055600880548061144157611441611962565b6001900381819060005260206000200160009055905550505050565b600061146883610727565b6001600160a01b039093166000908152600660209081526040808320868452825280832085905593825260079052919091209190915550565b6001600160e01b0319811681146105f757600080fd5b6000602082840312156114c957600080fd5b81356114d4816114a1565b9392505050565b60005b838110156114f65781810151838201526020016114de565b838111156108115750506000910152565b6000815180845261151f8160208601602086016114db565b601f01601f19169290920160200192915050565b6020815260006114d46020830184611507565b60006020828403121561155857600080fd5b5035919050565b80356001600160a01b038116811461157657600080fd5b919050565b6000806040838503121561158e57600080fd5b6115978361155f565b946020939093013593505050565b6000806000606084860312156115ba57600080fd5b6115c38461155f565b92506115d16020850161155f565b9150604084013590509250925092565b6000602082840312156115f357600080fd5b6114d48261155f565b6000806040838503121561160f57600080fd5b6116188361155f565b91506020830135801515811461162d57600080fd5b809150509250929050565b634e487b7160e01b600052604160045260246000fd5b6000806000806080858703121561166457600080fd5b61166d8561155f565b935061167b6020860161155f565b925060408501359150606085013567ffffffffffffffff8082111561169f57600080fd5b818701915087601f8301126116b357600080fd5b8135818111156116c5576116c5611638565b604051601f8201601f19908116603f011681019083821181831017156116ed576116ed611638565b816040528281528a602084870101111561170657600080fd5b82602086016020830137600060208483010152809550505050505092959194509250565b6000806040838503121561173d57600080fd5b6117468361155f565b91506117546020840161155f565b90509250929050565b600181811c9082168061177157607f821691505b6020821081141561179257634e487b7160e01b600052602260045260246000fd5b50919050565b6020808252602e908201527f4552433732313a2063616c6c6572206973206e6f7420746f6b656e206f776e6560408201526d1c881b9bdc88185c1c1c9bdd995960921b606082015260800190565b634e487b7160e01b600052603260045260246000fd5b6000835161180e8184602088016114db565b8351908301906118228183602088016114db565b01949350505050565b634e487b7160e01b600052601160045260246000fd5b6000828210156118535761185361182b565b500390565b6000821982111561186b5761186b61182b565b500190565b60208082526032908201527f4552433732313a207472616e7366657220746f206e6f6e20455243373231526560408201527131b2b4bb32b91034b6b83632b6b2b73a32b960711b606082015260800190565b6000816118d1576118d161182b565b506000190190565b666261666b72656960c81b8152600082516118fb8160078501602087016114db565b9190910160070192915050565b6001600160a01b038581168252841660208201526040810183905260806060820181905260009061193b90830184611507565b9695505050505050565b60006020828403121561195757600080fd5b81516114d4816114a1565b634e487b7160e01b600052603160045260246000fdfea264697066735822122015bb0bd2394a77421c32c56751aa05989c8689cd226c047bf3f157333a33b1ff64736f6c63430008090033",
  "libraries": {
    "Bafkrei": "0xaA1615BFFc7A213ca672E8457A9D9c599556D081"
  },
  "devdoc": {
    "kind": "dev",
    "methods": {
      "approve(address,uint256)": {
        "details": "See {IERC721-approve}."
      },
      "balanceOf(address)": {
        "details": "See {IERC721-balanceOf}."
      },
      "getApproved(uint256)": {
        "details": "See {IERC721-getApproved}."
      },
      "isApprovedForAll(address,address)": {
        "details": "See {IERC721-isApprovedForAll}."
      },
      "name()": {
        "details": "See {IERC721Metadata-name}."
      },
      "owner()": {
        "details": "Returns the address of the current owner."
      },
      "ownerOf(uint256)": {
        "details": "See {IERC721-ownerOf}."
      },
      "renounceOwnership()": {
        "details": "Leaves the contract without owner. It will not be possible to call `onlyOwner` functions anymore. Can only be called by the current owner. NOTE: Renouncing ownership will leave the contract without an owner, thereby removing any functionality that is only available to the owner."
      },
      "safeTransferFrom(address,address,uint256)": {
        "details": "See {IERC721-safeTransferFrom}."
      },
      "safeTransferFrom(address,address,uint256,bytes)": {
        "details": "See {IERC721-safeTransferFrom}."
      },
      "setApprovalForAll(address,bool)": {
        "details": "See {IERC721-setApprovalForAll}."
      },
      "symbol()": {
        "details": "See {IERC721Metadata-symbol}."
      },
      "tokenByIndex(uint256)": {
        "details": "See {IERC721Enumerable-tokenByIndex}."
      },
      "tokenOfOwnerByIndex(address,uint256)": {
        "details": "See {IERC721Enumerable-tokenOfOwnerByIndex}."
      },
      "tokenURI(uint256)": {
        "details": "See {IERC721Metadata-tokenURI}."
      },
      "totalSupply()": {
        "details": "See {IERC721Enumerable-totalSupply}."
      },
      "transferFrom(address,address,uint256)": {
        "details": "See {IERC721-transferFrom}."
      },
      "transferOwnership(address)": {
        "details": "Transfers ownership of the contract to a new account (`newOwner`). Can only be called by the current owner."
      }
    },
    "version": 1
  },
  "userdoc": {
    "kind": "user",
    "methods": {},
    "version": 1
  },
  "storageLayout": {
    "storage": [
      {
        "astId": 4130,
        "contract": "contracts/dev/OpenMulti.sol:OpenMulti",
        "label": "_name",
        "offset": 0,
        "slot": "0",
        "type": "t_string_storage"
      },
      {
        "astId": 4132,
        "contract": "contracts/dev/OpenMulti.sol:OpenMulti",
        "label": "_symbol",
        "offset": 0,
        "slot": "1",
        "type": "t_string_storage"
      },
      {
        "astId": 4136,
        "contract": "contracts/dev/OpenMulti.sol:OpenMulti",
        "label": "_owners",
        "offset": 0,
        "slot": "2",
        "type": "t_mapping(t_uint256,t_address)"
      },
      {
        "astId": 4140,
        "contract": "contracts/dev/OpenMulti.sol:OpenMulti",
        "label": "_balances",
        "offset": 0,
        "slot": "3",
        "type": "t_mapping(t_address,t_uint256)"
      },
      {
        "astId": 4144,
        "contract": "contracts/dev/OpenMulti.sol:OpenMulti",
        "label": "_tokenApprovals",
        "offset": 0,
        "slot": "4",
        "type": "t_mapping(t_uint256,t_address)"
      },
      {
        "astId": 4150,
        "contract": "contracts/dev/OpenMulti.sol:OpenMulti",
        "label": "_operatorApprovals",
        "offset": 0,
        "slot": "5",
        "type": "t_mapping(t_address,t_mapping(t_address,t_bool))"
      },
      {
        "astId": 5150,
        "contract": "contracts/dev/OpenMulti.sol:OpenMulti",
        "label": "_ownedTokens",
        "offset": 0,
        "slot": "6",
        "type": "t_mapping(t_address,t_mapping(t_uint256,t_uint256))"
      },
      {
        "astId": 5154,
        "contract": "contracts/dev/OpenMulti.sol:OpenMulti",
        "label": "_ownedTokensIndex",
        "offset": 0,
        "slot": "7",
        "type": "t_mapping(t_uint256,t_uint256)"
      },
      {
        "astId": 5157,
        "contract": "contracts/dev/OpenMulti.sol:OpenMulti",
        "label": "_allTokens",
        "offset": 0,
        "slot": "8",
        "type": "t_array(t_uint256)dyn_storage"
      },
      {
        "astId": 5161,
        "contract": "contracts/dev/OpenMulti.sol:OpenMulti",
        "label": "_allTokensIndex",
        "offset": 0,
        "slot": "9",
        "type": "t_mapping(t_uint256,t_uint256)"
      },
      {
        "astId": 2518,
        "contract": "contracts/dev/OpenMulti.sol:OpenMulti",
        "label": "_owner",
        "offset": 0,
        "slot": "10",
        "type": "t_address"
      }
    ],
    "types": {
      "t_address": {
        "encoding": "inplace",
        "label": "address",
        "numberOfBytes": "20"
      },
      "t_array(t_uint256)dyn_storage": {
        "base": "t_uint256",
        "encoding": "dynamic_array",
        "label": "uint256[]",
        "numberOfBytes": "32"
      },
      "t_bool": {
        "encoding": "inplace",
        "label": "bool",
        "numberOfBytes": "1"
      },
      "t_mapping(t_address,t_bool)": {
        "encoding": "mapping",
        "key": "t_address",
        "label": "mapping(address => bool)",
        "numberOfBytes": "32",
        "value": "t_bool"
      },
      "t_mapping(t_address,t_mapping(t_address,t_bool))": {
        "encoding": "mapping",
        "key": "t_address",
        "label": "mapping(address => mapping(address => bool))",
        "numberOfBytes": "32",
        "value": "t_mapping(t_address,t_bool)"
      },
      "t_mapping(t_address,t_mapping(t_uint256,t_uint256))": {
        "encoding": "mapping",
        "key": "t_address",
        "label": "mapping(address => mapping(uint256 => uint256))",
        "numberOfBytes": "32",
        "value": "t_mapping(t_uint256,t_uint256)"
      },
      "t_mapping(t_address,t_uint256)": {
        "encoding": "mapping",
        "key": "t_address",
        "label": "mapping(address => uint256)",
        "numberOfBytes": "32",
        "value": "t_uint256"
      },
      "t_mapping(t_uint256,t_address)": {
        "encoding": "mapping",
        "key": "t_uint256",
        "label": "mapping(uint256 => address)",
        "numberOfBytes": "32",
        "value": "t_address"
      },
      "t_mapping(t_uint256,t_uint256)": {
        "encoding": "mapping",
        "key": "t_uint256",
        "label": "mapping(uint256 => uint256)",
        "numberOfBytes": "32",
        "value": "t_uint256"
      },
      "t_string_storage": {
        "encoding": "bytes",
        "label": "string",
        "numberOfBytes": "32"
      },
      "t_uint256": {
        "encoding": "inplace",
        "label": "uint256",
        "numberOfBytes": "32"
      }
    }
  }
}