{
  "address": "0x215890506F31EB0E573d7E75108C2E169c7B0EE7",
  "abi": [
    {
      "inputs": [
        {
          "internalType": "string",
          "name": "name",
          "type": "string"
        },
        {
          "internalType": "string",
          "name": "symbol",
          "type": "string"
        },
        {
          "internalType": "uint256",
          "name": "maxSupply_",
          "type": "uint256"
        }
      ],
      "stateMutability": "nonpayable",
      "type": "constructor"
    },
    {
      "anonymous": false,
      "inputs": [
        {
          "indexed": true,
          "internalType": "address",
          "name": "owner",
          "type": "address"
        },
        {
          "indexed": true,
          "internalType": "address",
          "name": "approved",
          "type": "address"
        },
        {
          "indexed": true,
          "internalType": "uint256",
          "name": "tokenId",
          "type": "uint256"
        }
      ],
      "name": "Approval",
      "type": "event"
    },
    {
      "anonymous": false,
      "inputs": [
        {
          "indexed": true,
          "internalType": "address",
          "name": "owner",
          "type": "address"
        },
        {
          "indexed": true,
          "internalType": "address",
          "name": "operator",
          "type": "address"
        },
        {
          "indexed": false,
          "internalType": "bool",
          "name": "approved",
          "type": "bool"
        }
      ],
      "name": "ApprovalForAll",
      "type": "event"
    },
    {
      "anonymous": false,
      "inputs": [
        {
          "indexed": true,
          "internalType": "address",
          "name": "from",
          "type": "address"
        },
        {
          "indexed": true,
          "internalType": "address",
          "name": "to",
          "type": "address"
        },
        {
          "indexed": true,
          "internalType": "uint256",
          "name": "tokenId",
          "type": "uint256"
        }
      ],
      "name": "Transfer",
      "type": "event"
    },
    {
      "inputs": [
        {
          "internalType": "address",
          "name": "to",
          "type": "address"
        },
        {
          "internalType": "uint256",
          "name": "tokenId",
          "type": "uint256"
        }
      ],
      "name": "approve",
      "outputs": [],
      "stateMutability": "nonpayable",
      "type": "function"
    },
    {
      "inputs": [
        {
          "internalType": "address",
          "name": "owner",
          "type": "address"
        }
      ],
      "name": "balanceOf",
      "outputs": [
        {
          "internalType": "uint256",
          "name": "",
          "type": "uint256"
        }
      ],
      "stateMutability": "view",
      "type": "function"
    },
    {
      "inputs": [
        {
          "internalType": "uint256",
          "name": "tokenID",
          "type": "uint256"
        }
      ],
      "name": "burn",
      "outputs": [],
      "stateMutability": "nonpayable",
      "type": "function"
    },
    {
      "inputs": [
        {
          "internalType": "uint256",
          "name": "tokenId",
          "type": "uint256"
        }
      ],
      "name": "getApproved",
      "outputs": [
        {
          "internalType": "address",
          "name": "",
          "type": "address"
        }
      ],
      "stateMutability": "view",
      "type": "function"
    },
    {
      "inputs": [
        {
          "internalType": "uint256",
          "name": "CID",
          "type": "uint256"
        },
        {
          "internalType": "address",
          "name": "addr",
          "type": "address"
        }
      ],
      "name": "getTokenID",
      "outputs": [
        {
          "internalType": "uint256",
          "name": "",
          "type": "uint256"
        }
      ],
      "stateMutability": "pure",
      "type": "function"
    },
    {
      "inputs": [
        {
          "internalType": "address",
          "name": "owner",
          "type": "address"
        },
        {
          "internalType": "address",
          "name": "operator",
          "type": "address"
        }
      ],
      "name": "isApprovedForAll",
      "outputs": [
        {
          "internalType": "bool",
          "name": "",
          "type": "bool"
        }
      ],
      "stateMutability": "view",
      "type": "function"
    },
    {
      "inputs": [],
      "name": "maxSupply",
      "outputs": [
        {
          "internalType": "uint256",
          "name": "",
          "type": "uint256"
        }
      ],
      "stateMutability": "view",
      "type": "function"
    },
    {
      "inputs": [
        {
          "internalType": "uint256",
          "name": "CID",
          "type": "uint256"
        }
      ],
      "name": "mint",
      "outputs": [
        {
          "internalType": "uint256",
          "name": "",
          "type": "uint256"
        }
      ],
      "stateMutability": "nonpayable",
      "type": "function"
    },
    {
      "inputs": [],
      "name": "name",
      "outputs": [
        {
          "internalType": "string",
          "name": "",
          "type": "string"
        }
      ],
      "stateMutability": "view",
      "type": "function"
    },
    {
      "inputs": [
        {
          "internalType": "uint256",
          "name": "tokenId",
          "type": "uint256"
        }
      ],
      "name": "ownerOf",
      "outputs": [
        {
          "internalType": "address",
          "name": "",
          "type": "address"
        }
      ],
      "stateMutability": "view",
      "type": "function"
    },
    {
      "inputs": [
        {
          "internalType": "address",
          "name": "from",
          "type": "address"
        },
        {
          "internalType": "address",
          "name": "to",
          "type": "address"
        },
        {
          "internalType": "uint256",
          "name": "tokenId",
          "type": "uint256"
        }
      ],
      "name": "safeTransferFrom",
      "outputs": [],
      "stateMutability": "nonpayable",
      "type": "function"
    },
    {
      "inputs": [
        {
          "internalType": "address",
          "name": "from",
          "type": "address"
        },
        {
          "internalType": "address",
          "name": "to",
          "type": "address"
        },
        {
          "internalType": "uint256",
          "name": "tokenId",
          "type": "uint256"
        },
        {
          "internalType": "bytes",
          "name": "_data",
          "type": "bytes"
        }
      ],
      "name": "safeTransferFrom",
      "outputs": [],
      "stateMutability": "nonpayable",
      "type": "function"
    },
    {
      "inputs": [
        {
          "internalType": "address",
          "name": "operator",
          "type": "address"
        },
        {
          "internalType": "bool",
          "name": "approved",
          "type": "bool"
        }
      ],
      "name": "setApprovalForAll",
      "outputs": [],
      "stateMutability": "nonpayable",
      "type": "function"
    },
    {
      "inputs": [
        {
          "internalType": "bytes4",
          "name": "interfaceId",
          "type": "bytes4"
        }
      ],
      "name": "supportsInterface",
      "outputs": [
        {
          "internalType": "bool",
          "name": "",
          "type": "bool"
        }
      ],
      "stateMutability": "view",
      "type": "function"
    },
    {
      "inputs": [],
      "name": "symbol",
      "outputs": [
        {
          "internalType": "string",
          "name": "",
          "type": "string"
        }
      ],
      "stateMutability": "view",
      "type": "function"
    },
    {
      "inputs": [
        {
          "internalType": "uint256",
          "name": "index",
          "type": "uint256"
        }
      ],
      "name": "tokenByIndex",
      "outputs": [
        {
          "internalType": "uint256",
          "name": "",
          "type": "uint256"
        }
      ],
      "stateMutability": "view",
      "type": "function"
    },
    {
      "inputs": [
        {
          "internalType": "address",
          "name": "owner",
          "type": "address"
        },
        {
          "internalType": "uint256",
          "name": "index",
          "type": "uint256"
        }
      ],
      "name": "tokenOfOwnerByIndex",
      "outputs": [
        {
          "internalType": "uint256",
          "name": "",
          "type": "uint256"
        }
      ],
      "stateMutability": "view",
      "type": "function"
    },
    {
      "inputs": [
        {
          "internalType": "uint256",
          "name": "tokenID",
          "type": "uint256"
        }
      ],
      "name": "tokenURI",
      "outputs": [
        {
          "internalType": "string",
          "name": "",
          "type": "string"
        }
      ],
      "stateMutability": "view",
      "type": "function"
    },
    {
      "inputs": [],
      "name": "totalSupply",
      "outputs": [
        {
          "internalType": "uint256",
          "name": "",
          "type": "uint256"
        }
      ],
      "stateMutability": "view",
      "type": "function"
    },
    {
      "inputs": [
        {
          "internalType": "address",
          "name": "from",
          "type": "address"
        },
        {
          "internalType": "address",
          "name": "to",
          "type": "address"
        },
        {
          "internalType": "uint256",
          "name": "tokenId",
          "type": "uint256"
        }
      ],
      "name": "transferFrom",
      "outputs": [],
      "stateMutability": "nonpayable",
      "type": "function"
    }
  ],
  "transactionHash": "0x7818d4671e8b7dca4e402fcbf3c5ad9944817c21636045352b6f57c18d47523c",
  "args": [
    "OpenBound",
    "BOUND",
    12
  ],
  "numDeployments": 1,
  "solcInputHash": "7bf59bee49c3c8274010d756559d65d4",
  "bytecode": "0x60806040523480156200001157600080fd5b5060405162001c8f38038062001c8f8339810160408190526200003491620001e5565b8251839083906200004d90600090602085019062000072565b5080516200006390600190602084019062000072565b50505060065550620002959050565b828054620000809062000258565b90600052602060002090601f016020900481019282620000a45760008555620000ef565b82601f10620000bf57805160ff1916838001178555620000ef565b82800160010185558215620000ef579182015b82811115620000ef578251825591602001919060010190620000d2565b50620000fd92915062000101565b5090565b5b80821115620000fd576000815560010162000102565b634e487b7160e01b600052604160045260246000fd5b600082601f8301126200014057600080fd5b81516001600160401b03808211156200015d576200015d62000118565b604051601f8301601f19908116603f0116810190828211818310171562000188576200018862000118565b81604052838152602092508683858801011115620001a557600080fd5b600091505b83821015620001c95785820183015181830184015290820190620001aa565b83821115620001db5760008385830101525b9695505050505050565b600080600060608486031215620001fb57600080fd5b83516001600160401b03808211156200021357600080fd5b62000221878388016200012e565b945060208601519150808211156200023857600080fd5b5062000247868287016200012e565b925050604084015190509250925092565b600181811c908216806200026d57607f821691505b602082108114156200028f57634e487b7160e01b600052602260045260246000fd5b50919050565b6119ea80620002a56000396000f3fe608060405234801561001057600080fd5b506004361061012c5760003560e01c80636352211e116100ad578063b88d4fde11610071578063b88d4fde14610273578063c4fb2e4b14610286578063c87b56dd14610299578063d5abeb01146102ac578063e985e9c5146102b557600080fd5b80636352211e1461021f57806370a082311461023257806395d89b4114610245578063a0712d681461024d578063a22cb4651461026057600080fd5b806323b872dd116100f457806323b872dd146101c05780632f745c59146101d357806342842e0e146101e657806342966c68146101f95780634f6ccce71461020c57600080fd5b806301ffc9a71461013157806306fdde0314610159578063081812fc1461016e578063095ea7b31461019957806318160ddd146101ae575b600080fd5b61014461013f3660046114d4565b6102f1565b60405190151581526020015b60405180910390f35b610161610336565b6040516101509190611549565b61018161017c36600461155c565b6103c8565b6040516001600160a01b039091168152602001610150565b6101ac6101a7366004611591565b610462565b005b600a545b604051908152602001610150565b6101ac6101ce3660046115bb565b610578565b6101b26101e1366004611591565b6105a9565b6101ac6101f43660046115bb565b61061a565b6101ac61020736600461155c565b610635565b6101b261021a36600461155c565b6107a6565b61018161022d36600461155c565b61080f565b6101b26102403660046115f7565b610886565b61016161090d565b6101b261025b36600461155c565b61091c565b6101ac61026e366004611612565b610a55565b6101ac610281366004611664565b610a64565b6101b2610294366004611740565b610a9c565b6101616102a736600461155c565b610aaf565b6101b260065481565b6101446102c336600461176c565b6001600160a01b03918216600090815260056020908152604080832093909416825291909152205460ff1690565b60006001600160e01b0319821662e2e74160e81b148061032157506001600160e01b0319821663780e9d6360e01b145b80610330575061033082610b6e565b92915050565b60606000805461034590611796565b80601f016020809104026020016040519081016040528092919081815260200182805461037190611796565b80156103be5780601f10610393576101008083540402835291602001916103be565b820191906000526020600020905b8154815290600101906020018083116103a157829003601f168201915b5050505050905090565b6000818152600260205260408120546001600160a01b03166104465760405162461bcd60e51b815260206004820152602c60248201527f4552433732313a20617070726f76656420717565727920666f72206e6f6e657860448201526b34b9ba32b73a103a37b5b2b760a11b60648201526084015b60405180910390fd5b506000908152600460205260409020546001600160a01b031690565b600061046d8261080f565b9050806001600160a01b0316836001600160a01b031614156104db5760405162461bcd60e51b815260206004820152602160248201527f4552433732313a20617070726f76616c20746f2063757272656e74206f776e656044820152603960f91b606482015260840161043d565b336001600160a01b03821614806104f757506104f781336102c3565b6105695760405162461bcd60e51b815260206004820152603860248201527f4552433732313a20617070726f76652063616c6c6572206973206e6f74206f7760448201527f6e6572206e6f7220617070726f76656420666f7220616c6c0000000000000000606482015260840161043d565b6105738383610bbe565b505050565b6105823382610c2c565b61059e5760405162461bcd60e51b815260040161043d906117d1565b610573838383610d23565b6000811580156105c157506105bd83610886565b6001145b6105fd5760405162461bcd60e51b815260206004820152600d60248201526c092dcecc2d8d2c840d2dcc8caf609b1b604482015260640161043d565b50506001600160a01b031660009081526007602052604090205490565b61057383838360405180602001604052806000815250610a64565b60006106408261080f565b90506001600160a01b03811633146106865760405162461bcd60e51b81526020600482015260096024820152682737ba1037bbb732b960b91b604482015260640161043d565b6001600160a01b038116600090815260086020526040812054600a549091906106b190600190611838565b90506106bc84610eca565b80821461074857600a81815481106106d6576106d661184f565b9060005260206000200154600a83815481106106f4576106f461184f565b9060005260206000200181905550816008600061072d600a858154811061071d5761071d61184f565b906000526020600020015461080f565b6001600160a01b031681526020810191909152604001600020555b600a80548061075957610759611865565b6000828152602080822083016000199081018390559092019092559481526009855260408082208290556001600160a01b0390941681526008855283812081905560079094525050812055565b600a5460009082106107ea5760405162461bcd60e51b815260206004820152600d60248201526c092dcecc2d8d2c840d2dcc8caf609b1b604482015260640161043d565b600a82815481106107fd576107fd61184f565b90600052602060002001549050919050565b6000818152600260205260408120546001600160a01b0316806103305760405162461bcd60e51b815260206004820152602960248201527f4552433732313a206f776e657220717565727920666f72206e6f6e657869737460448201526832b73a103a37b5b2b760b91b606482015260840161043d565b60006001600160a01b0382166108f15760405162461bcd60e51b815260206004820152602a60248201527f4552433732313a2062616c616e636520717565727920666f7220746865207a65604482015269726f206164647265737360b01b606482015260840161043d565b506001600160a01b031660009081526003602052604090205490565b60606001805461034590611796565b6000600654600014806109325750600654600a54105b6109735760405162461bcd60e51b815260206004820152601260248201527113585e081cdd5c1c1b1e481c995858da195960721b604482015260640161043d565b61097c33610886565b156109c95760405162461bcd60e51b815260206004820152601960248201527f416c7265616479206d696e746564206f7220636c61696d656400000000000000604482015260640161043d565b60006109d58333610f71565b600a8054600181810183557fc65a7bb8d6351c1cf70c95a316cc6a92839c986682d98bc35f958f4883f9d2a89091018390553360009081526007602052604090208390559054919250610a2791611838565b3360008181526008602090815260408083209490945584825260099052919091208490556103309082610fc0565b610a6033838361110e565b5050565b610a6e3383610c2c565b610a8a5760405162461bcd60e51b815260040161043d906117d1565b610a96848484846111dd565b50505050565b6000610aa88383610f71565b9392505050565b6000818152600260205260409020546060906001600160a01b0316610b0b5760405162461bcd60e51b81526020600482015260126024820152714e465420646f65736e27742065786973747360701b604482015260640161043d565b60405180604001604052806007815260200166697066733a2f2f60c81b815250610b476009600085815260200190815260200160002054611210565b604051602001610b5892919061187b565b6040516020818303038152906040529050919050565b60006001600160e01b031982166380ac58cd60e01b1480610b9f57506001600160e01b03198216635b5e139f60e01b145b8061033057506301ffc9a760e01b6001600160e01b0319831614610330565b600081815260046020526040902080546001600160a01b0319166001600160a01b0384169081179091558190610bf38261080f565b6001600160a01b03167f8c5be1e5ebec7d5bd14f71427d1e84f3dd0314c0f7b2291e5b200ac8c7c3b92560405160405180910390a45050565b6000818152600260205260408120546001600160a01b0316610ca55760405162461bcd60e51b815260206004820152602c60248201527f4552433732313a206f70657261746f7220717565727920666f72206e6f6e657860448201526b34b9ba32b73a103a37b5b2b760a11b606482015260840161043d565b6000610cb08361080f565b9050806001600160a01b0316846001600160a01b03161480610cf757506001600160a01b0380821660009081526005602090815260408083209388168352929052205460ff165b80610d1b5750836001600160a01b0316610d10846103c8565b6001600160a01b0316145b949350505050565b826001600160a01b0316610d368261080f565b6001600160a01b031614610d9a5760405162461bcd60e51b815260206004820152602560248201527f4552433732313a207472616e736665722066726f6d20696e636f72726563742060448201526437bbb732b960d91b606482015260840161043d565b6001600160a01b038216610dfc5760405162461bcd60e51b8152602060048201526024808201527f4552433732313a207472616e7366657220746f20746865207a65726f206164646044820152637265737360e01b606482015260840161043d565b610e0783838361134e565b610e12600082610bbe565b6001600160a01b0383166000908152600360205260408120805460019290610e3b908490611838565b90915550506001600160a01b0382166000908152600360205260408120805460019290610e699084906118aa565b909155505060008181526002602052604080822080546001600160a01b0319166001600160a01b0386811691821790925591518493918716917fddf252ad1be2c89b69c2b068fc378daa952ba7f163c4a11628f55a4df523b3ef91a4505050565b6000610ed58261080f565b9050610ee38160008461134e565b610eee600083610bbe565b6001600160a01b0381166000908152600360205260408120805460019290610f17908490611838565b909155505060008281526002602052604080822080546001600160a01b0319169055518391906001600160a01b038416907fddf252ad1be2c89b69c2b068fc378daa952ba7f163c4a11628f55a4df523b3ef908390a45050565b60008282604051602001610fa192919091825260601b6bffffffffffffffffffffffff1916602082015260340190565b60408051601f1981840301815291905280516020909101209392505050565b6001600160a01b0382166110165760405162461bcd60e51b815260206004820181905260248201527f4552433732313a206d696e7420746f20746865207a65726f2061646472657373604482015260640161043d565b6000818152600260205260409020546001600160a01b03161561107b5760405162461bcd60e51b815260206004820152601c60248201527f4552433732313a20746f6b656e20616c7265616479206d696e74656400000000604482015260640161043d565b6110876000838361134e565b6001600160a01b03821660009081526003602052604081208054600192906110b09084906118aa565b909155505060008181526002602052604080822080546001600160a01b0319166001600160a01b03861690811790915590518392907fddf252ad1be2c89b69c2b068fc378daa952ba7f163c4a11628f55a4df523b3ef908290a45050565b816001600160a01b0316836001600160a01b031614156111705760405162461bcd60e51b815260206004820152601960248201527f4552433732313a20617070726f766520746f2063616c6c657200000000000000604482015260640161043d565b6001600160a01b03838116600081815260056020908152604080832094871680845294825291829020805460ff191686151590811790915591519182527f17307eab39ab6107e8899845ad3d59bd9653f200f220920489ca2b5937696c31910160405180910390a3505050565b6111e8848484610d23565b6111f4848484846113ae565b610a965760405162461bcd60e51b815260040161043d906118c2565b60408051603480825260608281019093526000919060208201818036833701905050905060fd83901c7f6162636465666768696a6b6c6d6e6f707172737475767778797a323334353637816020811061126b5761126b61184f565b1a60f81b826000815181106112825761128261184f565b60200101906001600160f81b031916908160001a90535060029390931b9260335b8015611324577f6162636465666768696a6b6c6d6e6f707172737475767778797a32333435363785601f16602081106112de576112de61184f565b1a60f81b8382815181106112f4576112f461184f565b60200101906001600160f81b031916908160001a90535060059490941c938061131c81611914565b9150506112a3565b5081604051602001611336919061192b565b60405160208183030381529060405292505050919050565b6001600160a01b038316158061136b57506001600160a01b038216155b6105735760405162461bcd60e51b8152602060048201526014602482015273139bdb881d1c985b9cd9995c98589b194813919560621b604482015260640161043d565b60006001600160a01b0384163b156114b057604051630a85bd0160e11b81526001600160a01b0385169063150b7a02906113f290339089908890889060040161195a565b602060405180830381600087803b15801561140c57600080fd5b505af192505050801561143c575060408051601f3d908101601f1916820190925261143991810190611997565b60015b611496573d80801561146a576040519150601f19603f3d011682016040523d82523d6000602084013e61146f565b606091505b50805161148e5760405162461bcd60e51b815260040161043d906118c2565b805181602001fd5b6001600160e01b031916630a85bd0160e11b149050610d1b565b506001949350505050565b6001600160e01b0319811681146114d157600080fd5b50565b6000602082840312156114e657600080fd5b8135610aa8816114bb565b60005b8381101561150c5781810151838201526020016114f4565b83811115610a965750506000910152565b600081518084526115358160208601602086016114f1565b601f01601f19169290920160200192915050565b602081526000610aa8602083018461151d565b60006020828403121561156e57600080fd5b5035919050565b80356001600160a01b038116811461158c57600080fd5b919050565b600080604083850312156115a457600080fd5b6115ad83611575565b946020939093013593505050565b6000806000606084860312156115d057600080fd5b6115d984611575565b92506115e760208501611575565b9150604084013590509250925092565b60006020828403121561160957600080fd5b610aa882611575565b6000806040838503121561162557600080fd5b61162e83611575565b91506020830135801515811461164357600080fd5b809150509250929050565b634e487b7160e01b600052604160045260246000fd5b6000806000806080858703121561167a57600080fd5b61168385611575565b935061169160208601611575565b925060408501359150606085013567ffffffffffffffff808211156116b557600080fd5b818701915087601f8301126116c957600080fd5b8135818111156116db576116db61164e565b604051601f8201601f19908116603f011681019083821181831017156117035761170361164e565b816040528281528a602084870101111561171c57600080fd5b82602086016020830137600060208483010152809550505050505092959194509250565b6000806040838503121561175357600080fd5b8235915061176360208401611575565b90509250929050565b6000806040838503121561177f57600080fd5b61178883611575565b915061176360208401611575565b600181811c908216806117aa57607f821691505b602082108114156117cb57634e487b7160e01b600052602260045260246000fd5b50919050565b60208082526031908201527f4552433732313a207472616e736665722063616c6c6572206973206e6f74206f6040820152701ddb995c881b9bdc88185c1c1c9bdd9959607a1b606082015260800190565b634e487b7160e01b600052601160045260246000fd5b60008282101561184a5761184a611822565b500390565b634e487b7160e01b600052603260045260246000fd5b634e487b7160e01b600052603160045260246000fd5b6000835161188d8184602088016114f1565b8351908301906118a18183602088016114f1565b01949350505050565b600082198211156118bd576118bd611822565b500190565b60208082526032908201527f4552433732313a207472616e7366657220746f206e6f6e20455243373231526560408201527131b2b4bb32b91034b6b83632b6b2b73a32b960711b606082015260800190565b60008161192357611923611822565b506000190190565b666261666b72656960c81b81526000825161194d8160078501602087016114f1565b9190910160070192915050565b6001600160a01b038581168252841660208201526040810183905260806060820181905260009061198d9083018461151d565b9695505050505050565b6000602082840312156119a957600080fd5b8151610aa8816114bb56fea2646970667358221220e5aca563ba557cc0415622dfc5b338074bae8f77f69a79f70b4b7fe207e8376864736f6c63430008090033",
  "devdoc": {
    "kind": "dev",
    "methods": {
      "approve(address,uint256)": {
        "details": "See {IERC721-approve}."
      },
      "balanceOf(address)": {
        "details": "See {IERC721-balanceOf}."
      },
      "getApproved(uint256)": {
        "details": "See {IERC721-getApproved}."
      },
      "isApprovedForAll(address,address)": {
        "details": "See {IERC721-isApprovedForAll}."
      },
      "name()": {
        "details": "See {IERC721Metadata-name}."
      },
      "ownerOf(uint256)": {
        "details": "See {IERC721-ownerOf}."
      },
      "safeTransferFrom(address,address,uint256)": {
        "details": "See {IERC721-safeTransferFrom}."
      },
      "safeTransferFrom(address,address,uint256,bytes)": {
        "details": "See {IERC721-safeTransferFrom}."
      },
      "setApprovalForAll(address,bool)": {
        "details": "See {IERC721-setApprovalForAll}."
      },
      "supportsInterface(bytes4)": {
        "details": "See {IERC165-supportsInterface}."
      },
      "symbol()": {
        "details": "See {IERC721Metadata-symbol}."
      },
      "transferFrom(address,address,uint256)": {
        "details": "See {IERC721-transferFrom}."
      }
    },
    "title": "OpenBound smartcontract",
    "version": 1
  },
  "userdoc": {
    "kind": "user",
    "methods": {},
    "version": 1
  },
  "storageLayout": {
    "storage": [
      {
        "astId": 4084,
        "contract": "contracts/dev/OpenBound.sol:OpenBound",
        "label": "_name",
        "offset": 0,
        "slot": "0",
        "type": "t_string_storage"
      },
      {
        "astId": 4086,
        "contract": "contracts/dev/OpenBound.sol:OpenBound",
        "label": "_symbol",
        "offset": 0,
        "slot": "1",
        "type": "t_string_storage"
      },
      {
        "astId": 4090,
        "contract": "contracts/dev/OpenBound.sol:OpenBound",
        "label": "_owners",
        "offset": 0,
        "slot": "2",
        "type": "t_mapping(t_uint256,t_address)"
      },
      {
        "astId": 4094,
        "contract": "contracts/dev/OpenBound.sol:OpenBound",
        "label": "_balances",
        "offset": 0,
        "slot": "3",
        "type": "t_mapping(t_address,t_uint256)"
      },
      {
        "astId": 4098,
        "contract": "contracts/dev/OpenBound.sol:OpenBound",
        "label": "_tokenApprovals",
        "offset": 0,
        "slot": "4",
        "type": "t_mapping(t_uint256,t_address)"
      },
      {
        "astId": 4104,
        "contract": "contracts/dev/OpenBound.sol:OpenBound",
        "label": "_operatorApprovals",
        "offset": 0,
        "slot": "5",
        "type": "t_mapping(t_address,t_mapping(t_address,t_bool))"
      },
      {
        "astId": 8429,
        "contract": "contracts/dev/OpenBound.sol:OpenBound",
        "label": "maxSupply",
        "offset": 0,
        "slot": "6",
        "type": "t_uint256"
      },
      {
        "astId": 8433,
        "contract": "contracts/dev/OpenBound.sol:OpenBound",
        "label": "_tokenOfOwner",
        "offset": 0,
        "slot": "7",
        "type": "t_mapping(t_address,t_uint256)"
      },
      {
        "astId": 8437,
        "contract": "contracts/dev/OpenBound.sol:OpenBound",
        "label": "_tokenIndexOfOwner",
        "offset": 0,
        "slot": "8",
        "type": "t_mapping(t_address,t_uint256)"
      },
      {
        "astId": 8441,
        "contract": "contracts/dev/OpenBound.sol:OpenBound",
        "label": "_cidOfToken",
        "offset": 0,
        "slot": "9",
        "type": "t_mapping(t_uint256,t_uint256)"
      },
      {
        "astId": 8444,
        "contract": "contracts/dev/OpenBound.sol:OpenBound",
        "label": "_tokens",
        "offset": 0,
        "slot": "10",
        "type": "t_array(t_uint256)dyn_storage"
      }
    ],
    "types": {
      "t_address": {
        "encoding": "inplace",
        "label": "address",
        "numberOfBytes": "20"
      },
      "t_array(t_uint256)dyn_storage": {
        "base": "t_uint256",
        "encoding": "dynamic_array",
        "label": "uint256[]",
        "numberOfBytes": "32"
      },
      "t_bool": {
        "encoding": "inplace",
        "label": "bool",
        "numberOfBytes": "1"
      },
      "t_mapping(t_address,t_bool)": {
        "encoding": "mapping",
        "key": "t_address",
        "label": "mapping(address => bool)",
        "numberOfBytes": "32",
        "value": "t_bool"
      },
      "t_mapping(t_address,t_mapping(t_address,t_bool))": {
        "encoding": "mapping",
        "key": "t_address",
        "label": "mapping(address => mapping(address => bool))",
        "numberOfBytes": "32",
        "value": "t_mapping(t_address,t_bool)"
      },
      "t_mapping(t_address,t_uint256)": {
        "encoding": "mapping",
        "key": "t_address",
        "label": "mapping(address => uint256)",
        "numberOfBytes": "32",
        "value": "t_uint256"
      },
      "t_mapping(t_uint256,t_address)": {
        "encoding": "mapping",
        "key": "t_uint256",
        "label": "mapping(uint256 => address)",
        "numberOfBytes": "32",
        "value": "t_address"
      },
      "t_mapping(t_uint256,t_uint256)": {
        "encoding": "mapping",
        "key": "t_uint256",
        "label": "mapping(uint256 => uint256)",
        "numberOfBytes": "32",
        "value": "t_uint256"
      },
      "t_string_storage": {
        "encoding": "bytes",
        "label": "string",
        "numberOfBytes": "32"
      },
      "t_uint256": {
        "encoding": "inplace",
        "label": "uint256",
        "numberOfBytes": "32"
      }
    }
  }
}