{
  "address": "0x7d95F0a5EDD65EE4Ac9c2B4310402630B24Eec3c",
  "abi": [
    {
      "inputs": [
        {
          "internalType": "address",
          "name": "owner_",
          "type": "address"
        },
        {
          "internalType": "address",
          "name": "registerer_",
          "type": "address"
        }
      ],
      "stateMutability": "nonpayable",
      "type": "constructor"
    },
    {
      "anonymous": false,
      "inputs": [
        {
          "indexed": true,
          "internalType": "address",
          "name": "previousOwner",
          "type": "address"
        },
        {
          "indexed": true,
          "internalType": "address",
          "name": "newOwner",
          "type": "address"
        }
      ],
      "name": "OwnershipTransferred",
      "type": "event"
    },
    {
      "inputs": [
        {
          "internalType": "address",
          "name": "addr",
          "type": "address"
        }
      ],
      "name": "addAddress",
      "outputs": [],
      "stateMutability": "nonpayable",
      "type": "function"
    },
    {
      "inputs": [
        {
          "internalType": "address[]",
          "name": "addrs",
          "type": "address[]"
        }
      ],
      "name": "addAddresses",
      "outputs": [],
      "stateMutability": "nonpayable",
      "type": "function"
    },
    {
      "inputs": [
        {
          "internalType": "address",
          "name": "smartcontract",
          "type": "address"
        }
      ],
      "name": "checkErcInterfaces",
      "outputs": [
        {
          "internalType": "bool[]",
          "name": "ercInterfacesChecks",
          "type": "bool[]"
        }
      ],
      "stateMutability": "view",
      "type": "function"
    },
    {
      "inputs": [
        {
          "internalType": "address",
          "name": "smartcontract",
          "type": "address"
        },
        {
          "internalType": "bool",
          "name": "erc",
          "type": "bool"
        },
        {
          "internalType": "bytes4[]",
          "name": "interfaceIds",
          "type": "bytes4[]"
        }
      ],
      "name": "checkSupportedInterfaces",
      "outputs": [
        {
          "internalType": "bool[]",
          "name": "interfaceIdsChecks",
          "type": "bool[]"
        }
      ],
      "stateMutability": "view",
      "type": "function"
    },
    {
      "inputs": [],
      "name": "countAddresses",
      "outputs": [
        {
          "internalType": "uint256",
          "name": "",
          "type": "uint256"
        }
      ],
      "stateMutability": "view",
      "type": "function"
    },
    {
      "inputs": [],
      "name": "getAddresses",
      "outputs": [
        {
          "internalType": "address[]",
          "name": "",
          "type": "address[]"
        }
      ],
      "stateMutability": "view",
      "type": "function"
    },
    {
      "inputs": [
        {
          "internalType": "address",
          "name": "collection",
          "type": "address"
        }
      ],
      "name": "getCollectionInfos",
      "outputs": [
        {
          "components": [
            {
              "internalType": "address",
              "name": "collection",
              "type": "address"
            },
            {
              "internalType": "address",
              "name": "owner",
              "type": "address"
            },
            {
              "internalType": "string",
              "name": "name",
              "type": "string"
            },
            {
              "internalType": "string",
              "name": "symbol",
              "type": "string"
            },
            {
              "internalType": "uint256",
              "name": "totalSupply",
              "type": "uint256"
            },
            {
              "internalType": "uint256",
              "name": "balanceOf",
              "type": "uint256"
            },
            {
              "internalType": "bool[]",
              "name": "supported",
              "type": "bool[]"
            }
          ],
          "internalType": "struct IERC721Infos.CollectionInfos",
          "name": "collectionInfos",
          "type": "tuple"
        }
      ],
      "stateMutability": "view",
      "type": "function"
    },
    {
      "inputs": [
        {
          "internalType": "address[]",
          "name": "collections",
          "type": "address[]"
        },
        {
          "internalType": "address",
          "name": "account",
          "type": "address"
        },
        {
          "internalType": "bytes4[]",
          "name": "interfaceIds",
          "type": "bytes4[]"
        }
      ],
      "name": "getCollectionsInfos",
      "outputs": [
        {
          "components": [
            {
              "internalType": "address",
              "name": "collection",
              "type": "address"
            },
            {
              "internalType": "address",
              "name": "owner",
              "type": "address"
            },
            {
              "internalType": "string",
              "name": "name",
              "type": "string"
            },
            {
              "internalType": "string",
              "name": "symbol",
              "type": "string"
            },
            {
              "internalType": "uint256",
              "name": "totalSupply",
              "type": "uint256"
            },
            {
              "internalType": "uint256",
              "name": "balanceOf",
              "type": "uint256"
            },
            {
              "internalType": "bool[]",
              "name": "supported",
              "type": "bool[]"
            }
          ],
          "internalType": "struct IERC721Infos.CollectionInfos[]",
          "name": "collectionsInfos",
          "type": "tuple[]"
        }
      ],
      "stateMutability": "view",
      "type": "function"
    },
    {
      "inputs": [
        {
          "internalType": "address",
          "name": "collection",
          "type": "address"
        },
        {
          "internalType": "address",
          "name": "account",
          "type": "address"
        }
      ],
      "name": "getOpenNFTsResolverCollectionInfos",
      "outputs": [
        {
          "components": [
            {
              "components": [
                {
                  "internalType": "address",
                  "name": "collection",
                  "type": "address"
                },
                {
                  "internalType": "address",
                  "name": "owner",
                  "type": "address"
                },
                {
                  "internalType": "string",
                  "name": "name",
                  "type": "string"
                },
                {
                  "internalType": "string",
                  "name": "symbol",
                  "type": "string"
                },
                {
                  "internalType": "uint256",
                  "name": "totalSupply",
                  "type": "uint256"
                },
                {
                  "internalType": "uint256",
                  "name": "balanceOf",
                  "type": "uint256"
                },
                {
                  "internalType": "bool[]",
                  "name": "supported",
                  "type": "bool[]"
                }
              ],
              "internalType": "struct IERC721Infos.CollectionInfos",
              "name": "collectionInfos",
              "type": "tuple"
            },
            {
              "internalType": "uint256",
              "name": "version",
              "type": "uint256"
            },
            {
              "internalType": "string",
              "name": "template",
              "type": "string"
            },
            {
              "internalType": "bool",
              "name": "open",
              "type": "bool"
            }
          ],
          "internalType": "struct IOpenNFTsInfos.OpenNFTsCollectionInfos",
          "name": "openNFTs",
          "type": "tuple"
        }
      ],
      "stateMutability": "view",
      "type": "function"
    },
    {
      "inputs": [
        {
          "internalType": "address",
          "name": "account",
          "type": "address"
        }
      ],
      "name": "getOpenNFTsResolverCollectionsInfos",
      "outputs": [
        {
          "components": [
            {
              "components": [
                {
                  "internalType": "address",
                  "name": "collection",
                  "type": "address"
                },
                {
                  "internalType": "address",
                  "name": "owner",
                  "type": "address"
                },
                {
                  "internalType": "string",
                  "name": "name",
                  "type": "string"
                },
                {
                  "internalType": "string",
                  "name": "symbol",
                  "type": "string"
                },
                {
                  "internalType": "uint256",
                  "name": "totalSupply",
                  "type": "uint256"
                },
                {
                  "internalType": "uint256",
                  "name": "balanceOf",
                  "type": "uint256"
                },
                {
                  "internalType": "bool[]",
                  "name": "supported",
                  "type": "bool[]"
                }
              ],
              "internalType": "struct IERC721Infos.CollectionInfos",
              "name": "collectionInfos",
              "type": "tuple"
            },
            {
              "internalType": "uint256",
              "name": "version",
              "type": "uint256"
            },
            {
              "internalType": "string",
              "name": "template",
              "type": "string"
            },
            {
              "internalType": "bool",
              "name": "open",
              "type": "bool"
            }
          ],
          "internalType": "struct IOpenNFTsInfos.OpenNFTsCollectionInfos[]",
          "name": "openNFTs",
          "type": "tuple[]"
        }
      ],
      "stateMutability": "view",
      "type": "function"
    },
    {
      "inputs": [
        {
          "internalType": "address",
          "name": "collection",
          "type": "address"
        }
      ],
      "name": "isCollection",
      "outputs": [
        {
          "internalType": "bool",
          "name": "",
          "type": "bool"
        }
      ],
      "stateMutability": "view",
      "type": "function"
    },
    {
      "inputs": [
        {
          "internalType": "address",
          "name": "addr",
          "type": "address"
        }
      ],
      "name": "isRegistered",
      "outputs": [
        {
          "internalType": "bool",
          "name": "",
          "type": "bool"
        }
      ],
      "stateMutability": "view",
      "type": "function"
    },
    {
      "inputs": [],
      "name": "owner",
      "outputs": [
        {
          "internalType": "address",
          "name": "",
          "type": "address"
        }
      ],
      "stateMutability": "view",
      "type": "function"
    },
    {
      "inputs": [],
      "name": "registerer",
      "outputs": [
        {
          "internalType": "address",
          "name": "",
          "type": "address"
        }
      ],
      "stateMutability": "view",
      "type": "function"
    },
    {
      "inputs": [
        {
          "internalType": "address",
          "name": "addr",
          "type": "address"
        }
      ],
      "name": "removeAddress",
      "outputs": [],
      "stateMutability": "nonpayable",
      "type": "function"
    },
    {
      "inputs": [
        {
          "internalType": "address",
          "name": "registerer_",
          "type": "address"
        }
      ],
      "name": "setRegisterer",
      "outputs": [],
      "stateMutability": "nonpayable",
      "type": "function"
    },
    {
      "inputs": [
        {
          "internalType": "bytes4",
          "name": "interfaceId",
          "type": "bytes4"
        }
      ],
      "name": "supportsInterface",
      "outputs": [
        {
          "internalType": "bool",
          "name": "",
          "type": "bool"
        }
      ],
      "stateMutability": "view",
      "type": "function"
    },
    {
      "inputs": [
        {
          "internalType": "address",
          "name": "newOwner",
          "type": "address"
        }
      ],
      "name": "transferOwnership",
      "outputs": [],
      "stateMutability": "nonpayable",
      "type": "function"
    }
  ],
  "transactionHash": "0x4ddd19f898a0884f6abbd0c4adf491ef954dfc7e7e3c9044589ab5afa649a923",
  "args": [
    "0x6eebAe27d69fa80f0E4C0E973A2Fed218A56880c",
    "0x28864b3aE279Ac7864d0795b3Abe49e1a831a4A0"
  ],
  "numDeployments": 2,
  "solcInputHash": "c4975b1cb644100463e3cf634f1e877d",
  "bytecode": "0x6101e06040526001600160e01b031960809081526301ffc9a760e01b60a0526380ac58cd60e01b60c052635b5e139f60e01b60e05263780e9d6360e01b61010052630a85bd0160e11b61012052636cdb3d1360e11b610140526303a24d0760e21b61016052630271189760e51b610180526307f5828d60e41b6101a05263152a902d60e11b6101c0526200009890600490600b62000578565b5060408051600b808252610180820190925290602082016101608036833750508151620000cd92600592506020019062000578565b50348015620000db57600080fd5b50604051620026ca380380620026ca833981016040819052620000fe916200065f565b62000114826200049660201b62000c6c1760201c565b6200012a81620004fd60201b62000cc91760201c565b630c38761960e41b600560008154811062000149576200014962000697565b90600052602060002090600891828204019190066004026101000a81548163ffffffff021916908360e01c0217905550631fea36bd60e21b600560018154811062000198576200019862000697565b90600052602060002090600891828204019190066004026101000a81548163ffffffff021916908360e01c0217905550632e5e69fd60e01b6005600281548110620001e757620001e762000697565b90600052602060002090600891828204019190066004026101000a81548163ffffffff021916908360e01c0217905550638351879960e01b600560038154811062000236576200023662000697565b90600052602060002090600891828204019190066004026101000a81548163ffffffff021916908360e01c02179055506398396bd360e01b600560048154811062000285576200028562000697565b90600052602060002090600891828204019190066004026101000a81548163ffffffff021916908360e01c0217905550634b68d43160e01b60058081548110620002d357620002d362000697565b90600052602060002090600891828204019190066004026101000a81548163ffffffff021916908360e01c0217905550633ab2af8560e21b600560068154811062000322576200032262000697565b90600052602060002090600891828204019190066004026101000a81548163ffffffff021916908360e01c0217905550636ca50ed960e11b600560078154811062000371576200037162000697565b90600052602060002090600891828204019190066004026101000a81548163ffffffff021916908360e01c0217905550635f5f00ef60e01b6005600881548110620003c057620003c062000697565b90600052602060002090600891828204019190066004026101000a81548163ffffffff021916908360e01c02179055506330323f1960e01b60056009815481106200040f576200040f62000697565b90600052602060002090600891828204019190066004026101000a81548163ffffffff021916908360e01c02179055506317812f2360e11b6005600a815481106200045e576200045e62000697565b90600052602060002090600891828204019190066004026101000a81548163ffffffff021916908360e01c02179055505050620006ad565b60005460ff1615620004e25760405162461bcd60e51b8152602060048201526011602482015270125b9a5d08185b1c9958591e4818d85b1b607a1b604482015260640160405180910390fd5b6000805460ff19166001179055620004fa816200051f565b50565b600380546001600160a01b0319166001600160a01b0392909216919091179055565b600080546001600160a01b03838116610100818102610100600160a81b0319851617855560405193049190911692909183917f8be0079c531659141344cd1fd0a4f28419497f9722a3daafe3b4186f6b6457e091a35050565b82805482825590600052602060002090600701600890048101928215620006195791602002820160005b83821115620005e557835183826101000a81548163ffffffff021916908360e01c02179055509260200192600401602081600301049283019260010302620005a2565b8015620006175782816101000a81549063ffffffff0219169055600401602081600301049283019260010302620005e5565b505b50620006279291506200062b565b5090565b5b808211156200062757600081556001016200062c565b80516001600160a01b03811681146200065a57600080fd5b919050565b600080604083850312156200067357600080fd5b6200067e8362000642565b91506200068e6020840162000642565b90509250929050565b634e487b7160e01b600052603260045260246000fd5b61200d80620006bd6000396000f3fe608060405234801561001057600080fd5b50600436106101165760003560e01c80636970e32f116100a2578063a8e719ce11610071578063a8e719ce14610276578063c3c5a54714610289578063d5acd803146102b7578063ec530de6146102d7578063f2fde38b146102e857600080fd5b80636970e32f146101f75780637600c24c146102175780638da5cb5b14610237578063a39fac121461026157600080fd5b80634ba79dfe116100e95780634ba79dfe1461018b57806350da677b1461019e5780635ee9a1d2146101be5780635fa15ebb146101d1578063690682a4146101e457600080fd5b806301ffc9a71461011b5780633628731c1461014357806338eada1c14610158578063490f06eb1461016b575b600080fd5b61012e6101293660046118c7565b6102fb565b60405190151581526020015b60405180910390f35b6101566101513660046119d6565b610326565b005b610156610166366004611a13565b61036a565b61017e610179366004611a13565b610376565b60405161013a9190611a30565b610156610199366004611a13565b6103af565b6101b16101ac366004611ad8565b6103b8565b60405161013a9190611c56565b6101566101cc366004611a13565b610478565b61012e6101df366004611a13565b6104d1565b61017e6101f2366004611cc6565b610569565b61020a610205366004611a13565b6107e0565b60405161013a9190611d6f565b61022a610225366004611a13565b610ad2565b60405161013a9190611dc4565b60005461010090046001600160a01b03165b6040516001600160a01b03909116815260200161013a565b610269610af6565b60405161013a9190611dd7565b600354610249906001600160a01b031681565b61012e610297366004611a13565b6001600160a01b0316600090815260016020819052604090912054101590565b6102ca6102c5366004611e18565b610b58565b60405161013a9190611e51565b60025460405190815260200161013a565b6101566102f6366004611a13565b610c18565b60006001600160e01b03198216632f370ecb60e21b1480610320575061032082610ceb565b92915050565b60005b81518110156103665761035482828151811061034757610347611e64565b6020026020010151610d10565b8061035e81611e90565b915050610329565b5050565b61037381610d10565b50565b606061032082600160006040519080825280602002602001820160405280156103a9578160200160208202803683370190505b50610569565b61037381610e5c565b6060835167ffffffffffffffff8111156103d4576103d46118e2565b60405190808252806020026020018201604052801561040d57816020015b6103fa61182b565b8152602001906001900390816103f25790505b50905060005b84518110156104705761044085828151811061043157610431611e64565b6020026020010151858561103e565b82828151811061045257610452611e64565b6020026020010181905250808061046890611e90565b915050610413565b509392505050565b60005461010090046001600160a01b031633146104c85760405162461bcd60e51b81526020600482015260096024820152682737ba1037bbb732b960b91b60448201526064015b60405180910390fd5b61037381610cc9565b6000806104dd83610376565b9050806000815181106104f2576104f2611e64565b602002602001015115801561051e57508060018151811061051557610515611e64565b60200260200101515b801561056257508060028151811061053857610538611e64565b60200260200101518061056257508060068151811061055957610559611e64565b60200260200101515b9392505050565b606060008083518561057c576000610580565b6004545b61058a9190611eab565b90508067ffffffffffffffff8111156105a5576105a56118e2565b6040519080825280602002602001820160405280156105ce578160200160208202803683370190505b50925084156106e65760005b6004548110156106e457866001600160a01b03166301ffc9a76004838154811061060657610606611e64565b90600052602060002090600891828204019190066004029054906101000a900460e01b6040518263ffffffff1660e01b815260040161065591906001600160e01b031991909116815260200190565b60206040518083038186803b15801561066d57600080fd5b505afa158015610681573d6000803e3d6000fd5b505050506040513d601f19601f820116820180604052508101906106a59190611ec3565b84846106b081611e90565b9550815181106106c2576106c2611e64565b91151560209283029190910190910152806106dc81611e90565b9150506105da565b505b60005b84518110156107d657866001600160a01b03166301ffc9a786838151811061071357610713611e64565b60200260200101516040518263ffffffff1660e01b815260040161074791906001600160e01b031991909116815260200190565b60206040518083038186803b15801561075f57600080fd5b505afa158015610773573d6000803e3d6000fd5b505050506040513d601f19601f820116820180604052508101906107979190611ec3565b84846107a281611e90565b9550815181106107b4576107b4611e64565b91151560209283029190910190910152806107ce81611e90565b9150506106e9565b5050509392505050565b606060006108736107ef610af6565b84600580548060200260200160405190810160405280929190818152602001828054801561086957602002820191906000526020600020906000905b82829054906101000a900460e01b6001600160e01b0319168152602001906004019060208260030104928301926001038202915080841161082b5790505b50505050506103b8565b90506000805b825181101561090157600083828151811061089657610896611e64565b602002602001015160a0015111806108dc5750846001600160a01b03168382815181106108c5576108c5611e64565b6020026020010151602001516001600160a01b0316145b156108ef57816108eb81611e90565b9250505b806108f981611e90565b915050610879565b508067ffffffffffffffff81111561091b5761091b6118e2565b60405190808252806020026020018201604052801561095457816020015b61094161187a565b8152602001906001900390816109395790505b5092506000805b8351811015610ac957600084828151811061097857610978611e64565b602002602001015160a0015111806109be5750856001600160a01b03168482815181106109a7576109a7611e64565b6020026020010151602001516001600160a01b0316145b15610ab7578381815181106109d5576109d5611e64565b60200260200101518583815181106109ef576109ef611e64565b602002602001015160000181905250610a42848281518110610a1357610a13611e64565b602002602001015160000151858381518110610a3157610a31611e64565b602002602001015160c001516114b5565b878581518110610a5457610a54611e64565b6020026020010151602001888681518110610a7157610a71611e64565b6020026020010151604001898781518110610a8e57610a8e611e64565b60209081029190910101519215156060909301929092529190525281610ab381611e90565b9250505b80610ac181611e90565b91505061095b565b50505050919050565b610ada61182b565b604080516000815260208101909152610320908390339061103e565b60606002805480602002602001604051908101604052809291908181526020018280548015610b4e57602002820191906000526020600020905b81546001600160a01b03168152600190910190602001808311610b30575b5050505050905090565b610b6061187a565b6000610bea84846005805480602002602001604051908101604052809291908181526020018280548015610be057602002820191906000526020600020906000905b82829054906101000a900460e01b6001600160e01b03191681526020019060040190602082600301049283019260010382029150808411610ba25790505b505050505061103e565b80835260c0810151909150610c009085906114b5565b15156060850152604084015260208301525092915050565b60005461010090046001600160a01b03163314610c635760405162461bcd60e51b81526020600482015260096024820152682737ba1037bbb732b960b91b60448201526064016104bf565b6103738161173d565b60005460ff1615610cb35760405162461bcd60e51b8152602060048201526011602482015270125b9a5d08185b1c9958591e4818d85b1b607a1b60448201526064016104bf565b6000805460ff191660011790556103738161173d565b600380546001600160a01b0319166001600160a01b0392909216919091179055565b60006001600160e01b031982166350da677b60e01b1480610320575061032082611796565b60005461010090046001600160a01b03166001600160a01b0316336001600160a01b03161480610d4a57506003546001600160a01b031633145b610d915760405162461bcd60e51b81526020600482015260186024820152772737ba103932b3b4b9ba32b932b9103737b91037bbb732b960411b60448201526064016104bf565b80610d9b816104d1565b610dd85760405162461bcd60e51b815260206004820152600e60248201526d2737ba1021b7b63632b1ba34b7b760911b60448201526064016104bf565b6001600160a01b0382166000908152600160208190526040909120541015610366575060028054600180820183557f405787fa12a823e0f2b7631cc41b3ba8828b3321ca811111fa75cd3aa3bb5ace90910180546001600160a01b0319166001600160a01b0394909416938417905590546000928352602091909152604090912055565b60005461010090046001600160a01b03166001600160a01b0316336001600160a01b03161480610e9657506003546001600160a01b031633145b610edd5760405162461bcd60e51b81526020600482015260186024820152772737ba103932b3b4b9ba32b932b9103737b91037bbb732b960411b60448201526064016104bf565b6001600160a01b0381166000908152600160208190526040909120541015610f385760405162461bcd60e51b815260206004820152600e60248201526d139bdd081c9959da5cdd195c995960921b60448201526064016104bf565b6001600160a01b0381166000908152600160205260409020546002548114610fee576002805460009190610f6e90600190611ee0565b81548110610f7e57610f7e611e64565b6000918252602090912001546001600160a01b03169050806002610fa3600185611ee0565b81548110610fb357610fb3611e64565b600091825260208083209190910180546001600160a01b0319166001600160a01b039485161790559290911681526001909152604090208190555b6001600160a01b038216600090815260016020526040812055600280548061101857611018611ef7565b600082815260209020810160001990810180546001600160a01b03191690550190555050565b61104661182b565b6001600160a01b0384163b6110915760405162461bcd60e51b8152602060048201526011602482015270139bdd081cdb585c9d18dbdb9d1c9858dd607a1b60448201526064016104bf565b600061109f85600185610569565b9050808260c00181905250806000815181106110bd576110bd611e64565b60200260200101511580156110e95750806001815181106110e0576110e0611e64565b60200260200101515b6111225760405162461bcd60e51b815260206004820152600a6024820152694e6f742045524331363560b01b60448201526064016104bf565b8060028151811061113557611135611e64565b60200260200101518061115f57508060068151811061115657611156611e64565b60200260200101515b6111a35760405162461bcd60e51b8152602060048201526015602482015274139bdd08139195081cdb585c9d18dbdb9d1c9858dd605a1b60448201526064016104bf565b6001600160a01b03851682528051819060099081106111c4576111c4611e64565b60200260200101511561125157846001600160a01b0316638da5cb5b6040518163ffffffff1660e01b815260040160206040518083038186803b15801561120a57600080fd5b505afa15801561121e573d6000803e3d6000fd5b505050506040513d601f19601f820116820180604052508101906112429190611f0d565b6001600160a01b031660208301525b8060028151811061126457611264611e64565b602002602001015115610470578060038151811061128457611284611e64565b60200260200101511561138957846001600160a01b03166306fdde036040518163ffffffff1660e01b815260040160006040518083038186803b1580156112ca57600080fd5b505afa1580156112de573d6000803e3d6000fd5b505050506040513d6000823e601f3d908101601f191682016040526113069190810190611f2a565b8260400181905250846001600160a01b03166395d89b416040518163ffffffff1660e01b815260040160006040518083038186803b15801561134757600080fd5b505afa15801561135b573d6000803e3d6000fd5b505050506040513d6000823e601f3d908101601f191682016040526113839190810190611f2a565b60608301525b8060048151811061139c5761139c611e64565b60200260200101511561142057846001600160a01b03166318160ddd6040518163ffffffff1660e01b815260040160206040518083038186803b1580156113e257600080fd5b505afa1580156113f6573d6000803e3d6000fd5b505050506040513d601f19601f8201168201806040525081019061141a9190611fbe565b60808301525b6001600160a01b03841615610470576040516370a0823160e01b81526001600160a01b0385811660048301528616906370a082319060240160206040518083038186803b15801561147057600080fd5b505afa158015611484573d6000803e3d6000fd5b505050506040513d601f19601f820116820180604052508101906114a89190611fbe565b60a0830152509392505050565b60006060600083600d815181106114ce576114ce611e64565b60200260200101511561163d57846001600160a01b03166354fd4d506040518163ffffffff1660e01b815260040160206040518083038186803b15801561151457600080fd5b505afa158015611528573d6000803e3d6000fd5b505050506040513d601f19601f8201168201806040525081019061154c9190611fbe565b9250846001600160a01b0316636f2ddd936040518163ffffffff1660e01b815260040160006040518083038186803b15801561158757600080fd5b505afa15801561159b573d6000803e3d6000fd5b505050506040513d6000823e601f3d908101601f191682016040526115c39190810190611f2a565b9150846001600160a01b031663fcfff16f6040518163ffffffff1660e01b815260040160206040518083038186803b1580156115fe57600080fd5b505afa158015611612573d6000803e3d6000fd5b505050506040513d601f19601f820116820180604052508101906116369190611ec3565b9050611736565b8360138151811061165057611650611e64565b6020026020010151156116bf57600392506040518060400160405280600a8152602001694f70656e4e465473563360b01b8152509150846001600160a01b031663fcfff16f6040518163ffffffff1660e01b815260040160206040518083038186803b1580156115fe57600080fd5b836012815181106116d2576116d2611e64565b6020026020010151156116e85760029250611736565b836011815181106116fb576116fb611e64565b6020026020010151156117115760019250611736565b8360108151811061172457611724611e64565b60200260200101511561173657600092505b9250925092565b600080546001600160a01b03838116610100818102610100600160a81b0319851617855560405193049190911692909183917f8be0079c531659141344cd1fd0a4f28419497f9722a3daafe3b4186f6b6457e091a35050565b60006001600160e01b03198216631d80309360e21b148061032057506103208260006001600160e01b03198216631fea36bd60e21b148061032057506103208260006001600160e01b03198216633f62885160e01b148061032057506103208260006307f5828d60e41b6001600160e01b03198316148061032057506001600160e01b031982166301ffc9a760e01b14610320565b6040518060e0016040528060006001600160a01b0316815260200160006001600160a01b0316815260200160608152602001606081526020016000815260200160008152602001606081525090565b604051806080016040528061188d61182b565b815260200160008152602001606081526020016000151581525090565b80356001600160e01b0319811681146118c257600080fd5b919050565b6000602082840312156118d957600080fd5b610562826118aa565b634e487b7160e01b600052604160045260246000fd5b604051601f8201601f1916810167ffffffffffffffff81118282101715611921576119216118e2565b604052919050565b600067ffffffffffffffff821115611943576119436118e2565b5060051b60200190565b6001600160a01b038116811461037357600080fd5b600082601f83011261197357600080fd5b8135602061198861198383611929565b6118f8565b82815260059290921b840181019181810190868411156119a757600080fd5b8286015b848110156119cb5780356119be8161194d565b83529183019183016119ab565b509695505050505050565b6000602082840312156119e857600080fd5b813567ffffffffffffffff8111156119ff57600080fd5b611a0b84828501611962565b949350505050565b600060208284031215611a2557600080fd5b81356105628161194d565b6020808252825182820181905260009190848201906040850190845b81811015611a6a578351151583529284019291840191600101611a4c565b50909695505050505050565b600082601f830112611a8757600080fd5b81356020611a9761198383611929565b82815260059290921b84018101918181019086841115611ab657600080fd5b8286015b848110156119cb57611acb816118aa565b8352918301918301611aba565b600080600060608486031215611aed57600080fd5b833567ffffffffffffffff80821115611b0557600080fd5b611b1187838801611962565b945060208601359150611b238261194d565b90925060408501359080821115611b3957600080fd5b50611b4686828701611a76565b9150509250925092565b60005b83811015611b6b578181015183820152602001611b53565b83811115611b7a576000848401525b50505050565b60008151808452611b98816020860160208601611b50565b601f01601f19169290920160200192915050565b600060018060a01b038083511684526020818185015116818601526040840151915060e06040860152611be260e0860183611b80565b915060608401518583036060870152611bfb8382611b80565b9250506080840151608086015260a084015160a086015260c084015185830360c087015282815180855283850191508383019450600092505b808310156119cb57845115158252938301936001929092019190830190611c34565b6000602080830181845280855180835260408601915060408160051b870101925083870160005b82811015611cab57603f19888603018452611c99858351611bac565b94509285019290850190600101611c7d565b5092979650505050505050565b801515811461037357600080fd5b600080600060608486031215611cdb57600080fd5b8335611ce68161194d565b92506020840135611cf681611cb8565b9150604084013567ffffffffffffffff811115611d1257600080fd5b611b4686828701611a76565b6000815160808452611d336080850182611bac565b90506020830151602085015260408301518482036040860152611d568282611b80565b9150506060830151151560608501528091505092915050565b6000602080830181845280855180835260408601915060408160051b870101925083870160005b82811015611cab57603f19888603018452611db2858351611d1e565b94509285019290850190600101611d96565b6020815260006105626020830184611bac565b6020808252825182820181905260009190848201906040850190845b81811015611a6a5783516001600160a01b031683529284019291840191600101611df3565b60008060408385031215611e2b57600080fd5b8235611e368161194d565b91506020830135611e468161194d565b809150509250929050565b6020815260006105626020830184611d1e565b634e487b7160e01b600052603260045260246000fd5b634e487b7160e01b600052601160045260246000fd5b6000600019821415611ea457611ea4611e7a565b5060010190565b60008219821115611ebe57611ebe611e7a565b500190565b600060208284031215611ed557600080fd5b815161056281611cb8565b600082821015611ef257611ef2611e7a565b500390565b634e487b7160e01b600052603160045260246000fd5b600060208284031215611f1f57600080fd5b81516105628161194d565b600060208284031215611f3c57600080fd5b815167ffffffffffffffff80821115611f5457600080fd5b818401915084601f830112611f6857600080fd5b815181811115611f7a57611f7a6118e2565b611f8d601f8201601f19166020016118f8565b9150808252856020828501011115611fa457600080fd5b611fb5816020840160208601611b50565b50949350505050565b600060208284031215611fd057600080fd5b505191905056fea2646970667358221220433dee35a377389ff4ce93637c40913d0803151ac986831c4937b36564f8127a64736f6c63430008090033",
  "devdoc": {
    "kind": "dev",
    "methods": {},
    "version": 1
  },
  "userdoc": {
    "kind": "user",
    "methods": {},
    "version": 1
  },
  "storageLayout": {
    "storage": [
      {
        "astId": 6531,
        "contract": "contracts/next/OpenNFTsResolver.sol:OpenNFTsResolver",
        "label": "_openERC173Initialized",
        "offset": 0,
        "slot": "0",
        "type": "t_bool"
      },
      {
        "astId": 6533,
        "contract": "contracts/next/OpenNFTsResolver.sol:OpenNFTsResolver",
        "label": "_owner",
        "offset": 1,
        "slot": "0",
        "type": "t_address"
      },
      {
        "astId": 9150,
        "contract": "contracts/next/OpenNFTsResolver.sol:OpenNFTsResolver",
        "label": "_numAddress",
        "offset": 0,
        "slot": "1",
        "type": "t_mapping(t_address,t_uint256)"
      },
      {
        "astId": 9153,
        "contract": "contracts/next/OpenNFTsResolver.sol:OpenNFTsResolver",
        "label": "_addresses",
        "offset": 0,
        "slot": "2",
        "type": "t_array(t_address)dyn_storage"
      },
      {
        "astId": 9155,
        "contract": "contracts/next/OpenNFTsResolver.sol:OpenNFTsResolver",
        "label": "registerer",
        "offset": 0,
        "slot": "3",
        "type": "t_address"
      },
      {
        "astId": 8751,
        "contract": "contracts/next/OpenNFTsResolver.sol:OpenNFTsResolver",
        "label": "_ercInterfaceIds",
        "offset": 0,
        "slot": "4",
        "type": "t_array(t_bytes4)dyn_storage"
      },
      {
        "astId": 19930,
        "contract": "contracts/next/OpenNFTsResolver.sol:OpenNFTsResolver",
        "label": "_interfaceIds",
        "offset": 0,
        "slot": "5",
        "type": "t_array(t_bytes4)dyn_storage"
      }
    ],
    "types": {
      "t_address": {
        "encoding": "inplace",
        "label": "address",
        "numberOfBytes": "20"
      },
      "t_array(t_address)dyn_storage": {
        "base": "t_address",
        "encoding": "dynamic_array",
        "label": "address[]",
        "numberOfBytes": "32"
      },
      "t_array(t_bytes4)dyn_storage": {
        "base": "t_bytes4",
        "encoding": "dynamic_array",
        "label": "bytes4[]",
        "numberOfBytes": "32"
      },
      "t_bool": {
        "encoding": "inplace",
        "label": "bool",
        "numberOfBytes": "1"
      },
      "t_bytes4": {
        "encoding": "inplace",
        "label": "bytes4",
        "numberOfBytes": "4"
      },
      "t_mapping(t_address,t_uint256)": {
        "encoding": "mapping",
        "key": "t_address",
        "label": "mapping(address => uint256)",
        "numberOfBytes": "32",
        "value": "t_uint256"
      },
      "t_uint256": {
        "encoding": "inplace",
        "label": "uint256",
        "numberOfBytes": "32"
      }
    }
  }
}