{
  "address": "0x735EA6855F98601fCe5139c9d79745cfc49A1EA2",
  "abi": [
    {
      "anonymous": false,
      "inputs": [
        {
          "indexed": true,
          "internalType": "address",
          "name": "owner",
          "type": "address"
        },
        {
          "indexed": true,
          "internalType": "address",
          "name": "approved",
          "type": "address"
        },
        {
          "indexed": true,
          "internalType": "uint256",
          "name": "tokenId",
          "type": "uint256"
        }
      ],
      "name": "Approval",
      "type": "event"
    },
    {
      "anonymous": false,
      "inputs": [
        {
          "indexed": true,
          "internalType": "address",
          "name": "owner",
          "type": "address"
        },
        {
          "indexed": true,
          "internalType": "address",
          "name": "operator",
          "type": "address"
        },
        {
          "indexed": false,
          "internalType": "bool",
          "name": "approved",
          "type": "bool"
        }
      ],
      "name": "ApprovalForAll",
      "type": "event"
    },
    {
      "anonymous": false,
      "inputs": [
        {
          "indexed": true,
          "internalType": "address",
          "name": "previousOwner",
          "type": "address"
        },
        {
          "indexed": true,
          "internalType": "address",
          "name": "newOwner",
          "type": "address"
        }
      ],
      "name": "OwnershipTransferred",
      "type": "event"
    },
    {
      "anonymous": false,
      "inputs": [
        {
          "indexed": false,
          "internalType": "uint256",
          "name": "tokenID",
          "type": "uint256"
        },
        {
          "indexed": false,
          "internalType": "uint256",
          "name": "price",
          "type": "uint256"
        },
        {
          "indexed": false,
          "internalType": "address",
          "name": "seller",
          "type": "address"
        },
        {
          "indexed": false,
          "internalType": "uint256",
          "name": "paid",
          "type": "uint256"
        },
        {
          "indexed": false,
          "internalType": "address",
          "name": "receiver",
          "type": "address"
        },
        {
          "indexed": false,
          "internalType": "uint256",
          "name": "royalties",
          "type": "uint256"
        },
        {
          "indexed": false,
          "internalType": "address",
          "name": "buyer",
          "type": "address"
        },
        {
          "indexed": false,
          "internalType": "uint256",
          "name": "unspent",
          "type": "uint256"
        }
      ],
      "name": "Pay",
      "type": "event"
    },
    {
      "anonymous": false,
      "inputs": [
        {
          "indexed": false,
          "internalType": "uint256",
          "name": "price",
          "type": "uint256"
        }
      ],
      "name": "SetDefaultPrice",
      "type": "event"
    },
    {
      "anonymous": false,
      "inputs": [
        {
          "indexed": false,
          "internalType": "address",
          "name": "receiver",
          "type": "address"
        },
        {
          "indexed": false,
          "internalType": "uint96",
          "name": "fee",
          "type": "uint96"
        }
      ],
      "name": "SetDefaultRoyalty",
      "type": "event"
    },
    {
      "anonymous": false,
      "inputs": [
        {
          "indexed": true,
          "internalType": "bool",
          "name": "paused",
          "type": "bool"
        },
        {
          "indexed": true,
          "internalType": "address",
          "name": "account",
          "type": "address"
        }
      ],
      "name": "SetPaused",
      "type": "event"
    },
    {
      "anonymous": false,
      "inputs": [
        {
          "indexed": false,
          "internalType": "uint256",
          "name": "tokenID",
          "type": "uint256"
        },
        {
          "indexed": false,
          "internalType": "uint256",
          "name": "price",
          "type": "uint256"
        }
      ],
      "name": "SetTokenPrice",
      "type": "event"
    },
    {
      "anonymous": false,
      "inputs": [
        {
          "indexed": false,
          "internalType": "uint256",
          "name": "tokenID",
          "type": "uint256"
        },
        {
          "indexed": false,
          "internalType": "address",
          "name": "receiver",
          "type": "address"
        },
        {
          "indexed": false,
          "internalType": "uint96",
          "name": "fee",
          "type": "uint96"
        }
      ],
      "name": "SetTokenRoyalty",
      "type": "event"
    },
    {
      "anonymous": false,
      "inputs": [
        {
          "indexed": true,
          "internalType": "address",
          "name": "from",
          "type": "address"
        },
        {
          "indexed": true,
          "internalType": "address",
          "name": "to",
          "type": "address"
        },
        {
          "indexed": true,
          "internalType": "uint256",
          "name": "tokenId",
          "type": "uint256"
        }
      ],
      "name": "Transfer",
      "type": "event"
    },
    {
      "inputs": [
        {
          "internalType": "address",
          "name": "spender",
          "type": "address"
        },
        {
          "internalType": "uint256",
          "name": "tokenID",
          "type": "uint256"
        }
      ],
      "name": "approve",
      "outputs": [],
      "stateMutability": "nonpayable",
      "type": "function"
    },
    {
      "inputs": [
        {
          "internalType": "address",
          "name": "owner",
          "type": "address"
        }
      ],
      "name": "balanceOf",
      "outputs": [
        {
          "internalType": "uint256",
          "name": "",
          "type": "uint256"
        }
      ],
      "stateMutability": "view",
      "type": "function"
    },
    {
      "inputs": [
        {
          "internalType": "uint256",
          "name": "tokenID",
          "type": "uint256"
        }
      ],
      "name": "burn",
      "outputs": [],
      "stateMutability": "nonpayable",
      "type": "function"
    },
    {
      "inputs": [
        {
          "internalType": "uint256",
          "name": "tokenID",
          "type": "uint256"
        }
      ],
      "name": "buy",
      "outputs": [],
      "stateMutability": "payable",
      "type": "function"
    },
    {
      "inputs": [],
      "name": "defaultPrice",
      "outputs": [
        {
          "internalType": "uint256",
          "name": "",
          "type": "uint256"
        }
      ],
      "stateMutability": "view",
      "type": "function"
    },
    {
      "inputs": [
        {
          "internalType": "uint256",
          "name": "tokenID",
          "type": "uint256"
        }
      ],
      "name": "getApproved",
      "outputs": [
        {
          "internalType": "address",
          "name": "",
          "type": "address"
        }
      ],
      "stateMutability": "view",
      "type": "function"
    },
    {
      "inputs": [],
      "name": "getDefaultRoyalty",
      "outputs": [
        {
          "internalType": "address",
          "name": "receiver",
          "type": "address"
        },
        {
          "internalType": "uint96",
          "name": "fee",
          "type": "uint96"
        }
      ],
      "stateMutability": "view",
      "type": "function"
    },
    {
      "inputs": [
        {
          "internalType": "uint256",
          "name": "tokenID",
          "type": "uint256"
        }
      ],
      "name": "getTokenRoyalty",
      "outputs": [
        {
          "internalType": "address",
          "name": "receiver",
          "type": "address"
        },
        {
          "internalType": "uint96",
          "name": "fee",
          "type": "uint96"
        }
      ],
      "stateMutability": "view",
      "type": "function"
    },
    {
      "inputs": [
        {
          "internalType": "string",
          "name": "name_",
          "type": "string"
        },
        {
          "internalType": "string",
          "name": "symbol_",
          "type": "string"
        },
        {
          "internalType": "address",
          "name": "owner_",
          "type": "address"
        },
        {
          "internalType": "uint256",
          "name": "defaultPrice_",
          "type": "uint256"
        },
        {
          "internalType": "address",
          "name": "receiver_",
          "type": "address"
        },
        {
          "internalType": "uint96",
          "name": "fee_",
          "type": "uint96"
        },
        {
          "internalType": "bool[]",
          "name": "options",
          "type": "bool[]"
        }
      ],
      "name": "initialize",
      "outputs": [],
      "stateMutability": "nonpayable",
      "type": "function"
    },
    {
      "inputs": [],
      "name": "initialized",
      "outputs": [
        {
          "internalType": "bool",
          "name": "",
          "type": "bool"
        }
      ],
      "stateMutability": "view",
      "type": "function"
    },
    {
      "inputs": [
        {
          "internalType": "address",
          "name": "owner",
          "type": "address"
        },
        {
          "internalType": "address",
          "name": "operator",
          "type": "address"
        }
      ],
      "name": "isApprovedForAll",
      "outputs": [
        {
          "internalType": "bool",
          "name": "",
          "type": "bool"
        }
      ],
      "stateMutability": "view",
      "type": "function"
    },
    {
      "inputs": [
        {
          "internalType": "address",
          "name": "minter_",
          "type": "address"
        },
        {
          "internalType": "string",
          "name": "tokenURI_",
          "type": "string"
        },
        {
          "internalType": "uint256",
          "name": "tokenPrice_",
          "type": "uint256"
        },
        {
          "internalType": "address",
          "name": "receiver_",
          "type": "address"
        },
        {
          "internalType": "uint96",
          "name": "fee_",
          "type": "uint96"
        }
      ],
      "name": "mint",
      "outputs": [
        {
          "internalType": "uint256",
          "name": "tokenID",
          "type": "uint256"
        }
      ],
      "stateMutability": "payable",
      "type": "function"
    },
    {
      "inputs": [
        {
          "internalType": "address",
          "name": "minter",
          "type": "address"
        },
        {
          "internalType": "string",
          "name": "tokenURI",
          "type": "string"
        }
      ],
      "name": "mint",
      "outputs": [
        {
          "internalType": "uint256",
          "name": "tokenID",
          "type": "uint256"
        }
      ],
      "stateMutability": "nonpayable",
      "type": "function"
    },
    {
      "inputs": [
        {
          "internalType": "string",
          "name": "tokenURI",
          "type": "string"
        }
      ],
      "name": "mint",
      "outputs": [
        {
          "internalType": "uint256",
          "name": "tokenID",
          "type": "uint256"
        }
      ],
      "stateMutability": "nonpayable",
      "type": "function"
    },
    {
      "inputs": [],
      "name": "name",
      "outputs": [
        {
          "internalType": "string",
          "name": "",
          "type": "string"
        }
      ],
      "stateMutability": "view",
      "type": "function"
    },
    {
      "inputs": [],
      "name": "open",
      "outputs": [
        {
          "internalType": "bool",
          "name": "",
          "type": "bool"
        }
      ],
      "stateMutability": "view",
      "type": "function"
    },
    {
      "inputs": [],
      "name": "owner",
      "outputs": [
        {
          "internalType": "address",
          "name": "",
          "type": "address"
        }
      ],
      "stateMutability": "view",
      "type": "function"
    },
    {
      "inputs": [
        {
          "internalType": "uint256",
          "name": "tokenID",
          "type": "uint256"
        }
      ],
      "name": "ownerOf",
      "outputs": [
        {
          "internalType": "address",
          "name": "",
          "type": "address"
        }
      ],
      "stateMutability": "view",
      "type": "function"
    },
    {
      "inputs": [],
      "name": "parent",
      "outputs": [
        {
          "internalType": "address",
          "name": "parent_",
          "type": "address"
        }
      ],
      "stateMutability": "view",
      "type": "function"
    },
    {
      "inputs": [],
      "name": "paused",
      "outputs": [
        {
          "internalType": "bool",
          "name": "",
          "type": "bool"
        }
      ],
      "stateMutability": "view",
      "type": "function"
    },
    {
      "inputs": [
        {
          "internalType": "uint256",
          "name": "tokenID",
          "type": "uint256"
        },
        {
          "internalType": "uint256",
          "name": "price",
          "type": "uint256"
        }
      ],
      "name": "royaltyInfo",
      "outputs": [
        {
          "internalType": "address",
          "name": "receiver",
          "type": "address"
        },
        {
          "internalType": "uint256",
          "name": "royaltyAmount",
          "type": "uint256"
        }
      ],
      "stateMutability": "view",
      "type": "function"
    },
    {
      "inputs": [
        {
          "internalType": "address",
          "name": "from",
          "type": "address"
        },
        {
          "internalType": "address",
          "name": "to",
          "type": "address"
        },
        {
          "internalType": "uint256",
          "name": "tokenID",
          "type": "uint256"
        }
      ],
      "name": "safeTransferFrom",
      "outputs": [],
      "stateMutability": "payable",
      "type": "function"
    },
    {
      "inputs": [
        {
          "internalType": "address",
          "name": "from",
          "type": "address"
        },
        {
          "internalType": "address",
          "name": "to",
          "type": "address"
        },
        {
          "internalType": "uint256",
          "name": "tokenID",
          "type": "uint256"
        },
        {
          "internalType": "bytes",
          "name": "data",
          "type": "bytes"
        }
      ],
      "name": "safeTransferFrom",
      "outputs": [],
      "stateMutability": "payable",
      "type": "function"
    },
    {
      "inputs": [
        {
          "internalType": "address",
          "name": "operator",
          "type": "address"
        },
        {
          "internalType": "bool",
          "name": "approved",
          "type": "bool"
        }
      ],
      "name": "setApprovalForAll",
      "outputs": [],
      "stateMutability": "nonpayable",
      "type": "function"
    },
    {
      "inputs": [
        {
          "internalType": "uint256",
          "name": "price",
          "type": "uint256"
        }
      ],
      "name": "setDefaultPrice",
      "outputs": [],
      "stateMutability": "nonpayable",
      "type": "function"
    },
    {
      "inputs": [
        {
          "internalType": "address",
          "name": "receiver",
          "type": "address"
        },
        {
          "internalType": "uint96",
          "name": "fee",
          "type": "uint96"
        }
      ],
      "name": "setDefaultRoyalty",
      "outputs": [],
      "stateMutability": "nonpayable",
      "type": "function"
    },
    {
      "inputs": [
        {
          "internalType": "uint256",
          "name": "tokenID",
          "type": "uint256"
        },
        {
          "internalType": "uint256",
          "name": "price",
          "type": "uint256"
        }
      ],
      "name": "setTokenPrice",
      "outputs": [],
      "stateMutability": "nonpayable",
      "type": "function"
    },
    {
      "inputs": [
        {
          "internalType": "uint256",
          "name": "tokenID",
          "type": "uint256"
        },
        {
          "internalType": "address",
          "name": "receiver",
          "type": "address"
        },
        {
          "internalType": "uint96",
          "name": "fee",
          "type": "uint96"
        }
      ],
      "name": "setTokenRoyalty",
      "outputs": [],
      "stateMutability": "nonpayable",
      "type": "function"
    },
    {
      "inputs": [
        {
          "internalType": "uint256",
          "name": "tokenID",
          "type": "uint256"
        },
        {
          "internalType": "address",
          "name": "receiver",
          "type": "address"
        }
      ],
      "name": "setTokenRoyaltyReceiver",
      "outputs": [],
      "stateMutability": "nonpayable",
      "type": "function"
    },
    {
      "inputs": [
        {
          "internalType": "bytes4",
          "name": "interfaceId",
          "type": "bytes4"
        }
      ],
      "name": "supportsInterface",
      "outputs": [
        {
          "internalType": "bool",
          "name": "",
          "type": "bool"
        }
      ],
      "stateMutability": "view",
      "type": "function"
    },
    {
      "inputs": [],
      "name": "symbol",
      "outputs": [
        {
          "internalType": "string",
          "name": "",
          "type": "string"
        }
      ],
      "stateMutability": "view",
      "type": "function"
    },
    {
      "inputs": [],
      "name": "template",
      "outputs": [
        {
          "internalType": "string",
          "name": "",
          "type": "string"
        }
      ],
      "stateMutability": "view",
      "type": "function"
    },
    {
      "inputs": [],
      "name": "togglePause",
      "outputs": [],
      "stateMutability": "nonpayable",
      "type": "function"
    },
    {
      "inputs": [
        {
          "internalType": "uint256",
          "name": "index",
          "type": "uint256"
        }
      ],
      "name": "tokenByIndex",
      "outputs": [
        {
          "internalType": "uint256",
          "name": "",
          "type": "uint256"
        }
      ],
      "stateMutability": "view",
      "type": "function"
    },
    {
      "inputs": [],
      "name": "tokenIdNext",
      "outputs": [
        {
          "internalType": "uint256",
          "name": "",
          "type": "uint256"
        }
      ],
      "stateMutability": "view",
      "type": "function"
    },
    {
      "inputs": [
        {
          "internalType": "address",
          "name": "owner",
          "type": "address"
        },
        {
          "internalType": "uint256",
          "name": "index",
          "type": "uint256"
        }
      ],
      "name": "tokenOfOwnerByIndex",
      "outputs": [
        {
          "internalType": "uint256",
          "name": "",
          "type": "uint256"
        }
      ],
      "stateMutability": "view",
      "type": "function"
    },
    {
      "inputs": [
        {
          "internalType": "uint256",
          "name": "",
          "type": "uint256"
        }
      ],
      "name": "tokenPrice",
      "outputs": [
        {
          "internalType": "uint256",
          "name": "",
          "type": "uint256"
        }
      ],
      "stateMutability": "view",
      "type": "function"
    },
    {
      "inputs": [
        {
          "internalType": "uint256",
          "name": "tokenID",
          "type": "uint256"
        }
      ],
      "name": "tokenURI",
      "outputs": [
        {
          "internalType": "string",
          "name": "",
          "type": "string"
        }
      ],
      "stateMutability": "view",
      "type": "function"
    },
    {
      "inputs": [],
      "name": "totalSupply",
      "outputs": [
        {
          "internalType": "uint256",
          "name": "",
          "type": "uint256"
        }
      ],
      "stateMutability": "view",
      "type": "function"
    },
    {
      "inputs": [
        {
          "internalType": "address",
          "name": "from",
          "type": "address"
        },
        {
          "internalType": "address",
          "name": "to",
          "type": "address"
        },
        {
          "internalType": "uint256",
          "name": "tokenID",
          "type": "uint256"
        }
      ],
      "name": "transferFrom",
      "outputs": [],
      "stateMutability": "payable",
      "type": "function"
    },
    {
      "inputs": [
        {
          "internalType": "address",
          "name": "newOwner",
          "type": "address"
        }
      ],
      "name": "transferOwnership",
      "outputs": [],
      "stateMutability": "nonpayable",
      "type": "function"
    },
    {
      "inputs": [],
      "name": "version",
      "outputs": [
        {
          "internalType": "uint256",
          "name": "",
          "type": "uint256"
        }
      ],
      "stateMutability": "view",
      "type": "function"
    },
    {
      "inputs": [],
      "name": "withdraw",
      "outputs": [],
      "stateMutability": "nonpayable",
      "type": "function"
    },
    {
      "inputs": [
        {
          "internalType": "address",
          "name": "token",
          "type": "address"
        }
      ],
      "name": "withdraw",
      "outputs": [],
      "stateMutability": "nonpayable",
      "type": "function"
    },
    {
      "stateMutability": "payable",
      "type": "receive"
    }
  ],
  "transactionHash": "0xe3a977de34cab58ce8bb516f8d0a8383b11cdb6df20df56c1aceda9c380d9cbd",
  "args": [],
  "numDeployments": 2,
  "solcInputHash": "a02a6ceb1d35e4d4b69ade54b878b116",
  "bytecode": "0x608060405234801561001057600080fd5b5061330e806100206000396000f3fe60806040526004361061026b5760003560e01c80636d3c7ec511610144578063c87b56dd116100b6578063e69e04b31161007a578063e69e04b314610761578063e97186ef14610777578063e985e9c514610797578063eb685c47146107e0578063f2fde38b14610800578063fcfff16f1461082057600080fd5b8063c87b56dd146106c1578063d0def521146106e1578063d4ddce8a14610701578063d85d3d271461072e578063d96a094a1461074e57600080fd5b80638cabe05a116101085780638cabe05a146106115780638da5cb5b1461064157806395d89b4114610664578063a22cb46514610679578063b88d4fde14610699578063c4ae3168146106ac57600080fd5b80636d3c7ec5146105365780636f2ddd931461055657806370a082311461056b578063833b7b781461058b5780638bbf58b3146105fb57600080fd5b80633ccfd60b116101dd57806351cff8d9116101a157806351cff8d91461049357806354fd4d50146104b35780635944c753146104c95780635c975abb146104e957806360f96a8f146105015780636352211e1461051657600080fd5b80633ccfd60b1461041857806342842e0e1461042d57806342966c68146104405780634472167b146104605780634f6ccce71461047357600080fd5b80630c5597e41161022f5780630c5597e414610348578063158ef93e1461036857806318160ddd1461038757806323b872dd146103a65780632a55205a146103b95780632f745c59146103f857600080fd5b806301ffc9a71461027757806304634d8d146102ac57806306fdde03146102ce578063081812fc146102f0578063095ea7b31461032857600080fd5b3661027257005b600080fd5b34801561028357600080fd5b50610297610292366004612a5b565b61083a565b60405190151581526020015b60405180910390f35b3480156102b857600080fd5b506102cc6102c7366004612aab565b610865565b005b3480156102da57600080fd5b506102e36108ab565b6040516102a39190612b2b565b3480156102fc57600080fd5b5061031061030b366004612b3e565b61093d565b6040516001600160a01b0390911681526020016102a3565b34801561033457600080fd5b506102cc610343366004612b57565b610994565b34801561035457600080fd5b506102cc610363366004612b81565b610a58565b34801561037457600080fd5b5060125461029790610100900460ff1681565b34801561039357600080fd5b506008545b6040519081526020016102a3565b6102cc6103b4366004612ba4565b610aec565b3480156103c557600080fd5b506103d96103d4366004612be0565b610afc565b604080516001600160a01b0390931683526020830191909152016102a3565b34801561040457600080fd5b50610398610413366004612b57565b610bca565b34801561042457600080fd5b506102cc610c51565b6102cc61043b366004612ba4565b610caf565b34801561044c57600080fd5b506102cc61045b366004612b3e565b610cca565b61039861046e366004612cc1565b610cfa565b34801561047f57600080fd5b5061039861048e366004612b3e565b610dbe565b34801561049f57600080fd5b506102cc6104ae366004612d3a565b610e28565b3480156104bf57600080fd5b5061039860145481565b3480156104d557600080fd5b506102cc6104e4366004612d55565b610f94565b3480156104f557600080fd5b5060125460ff16610297565b34801561050d57600080fd5b50610310611032565b34801561052257600080fd5b50610310610531366004612b3e565b61107b565b34801561054257600080fd5b506102cc610551366004612b3e565b6110ce565b34801561056257600080fd5b506102e3611106565b34801561057757600080fd5b50610398610586366004612d3a565b611194565b34801561059757600080fd5b506105d46105a6366004612b3e565b6000908152600e60205260409020546001600160a01b03811691600160a01b9091046001600160601b031690565b604080516001600160a01b0390931683526001600160601b039091166020830152016102a3565b34801561060757600080fd5b5061039860155481565b34801561061d57600080fd5b50600d546001600160a01b03811690600160a01b90046001600160601b03166105d4565b34801561064d57600080fd5b50600c5461010090046001600160a01b0316610310565b34801561067057600080fd5b506102e36111ff565b34801561068557600080fd5b506102cc610694366004612d9f565b61120e565b6102cc6106a7366004612dd6565b61127a565b3480156106b857600080fd5b506102cc61128c565b3480156106cd57600080fd5b506102e36106dc366004612b3e565b6112cd565b3480156106ed57600080fd5b506103986106fc366004612e52565b6113a5565b34801561070d57600080fd5b5061039861071c366004612b3e565b60106020526000908152604090205481565b34801561073a57600080fd5b50610398610749366004612ea0565b611423565b6102cc61075c366004612b3e565b611434565b34801561076d57600080fd5b5061039860115481565b34801561078357600080fd5b506102cc610792366004612ed5565b6115f7565b3480156107a357600080fd5b506102976107b236600461300a565b6001600160a01b03918216600090815260036020908152604080832093909416825291909152205460ff1690565b3480156107ec57600080fd5b506102cc6107fb366004612be0565b611652565b34801561080c57600080fd5b506102cc61081b366004612d3a565b611683565b34801561082c57600080fd5b506016546102979060ff1681565b60006001600160e01b03198216632865aacb60e11b148061085f575061085f826116bb565b92915050565b600c5461010090046001600160a01b0316331461089d5760405162461bcd60e51b815260040161089490613034565b60405180910390fd5b6108a782826116e3565b5050565b6060600580546108ba90613057565b80601f01602080910402602001604051908101604052809291908181526020018280546108e690613057565b80156109335780601f1061090857610100808354040283529160200191610933565b820191906000526020600020905b81548152906001019060200180831161091657829003601f168201915b5050505050905090565b60008181526020819052604081205482906001600160a01b03166109735760405162461bcd60e51b81526004016108949061308c565b6000838152600260205260409020546001600160a01b031691505b50919050565b61099e33826117ab565b6109ea5760405162461bcd60e51b815260206004820152601c60248201527f4e6f7420746f6b656e206f776e6572206e6f72206f70657261746f72000000006044820152606401610894565b600081815260026020526040902080546001600160a01b0319166001600160a01b0384169081179091558190610a1f8261107b565b6001600160a01b03167f8c5be1e5ebec7d5bd14f71427d1e84f3dd0314c0f7b2291e5b200ac8c7c3b92560405160405180910390a45050565b60008281526020819052604090205482906001600160a01b0316610a8e5760405162461bcd60e51b81526004016108949061308c565b600c5461010090046001600160a01b03163314610abd5760405162461bcd60e51b815260040161089490613034565b506000918252600e602052604090912080546001600160a01b0319166001600160a01b03909216919091179055565b610af7838383611806565b505050565b60008082600160801b8110610b235760405162461bcd60e51b8152600401610894906130b6565b6000858152600e60209081526040918290208251808401909352546001600160a01b038116808452600160a01b9091046001600160601b031691830191909152610b97575060408051808201909152600d546001600160a01b0381168252600160a01b90046001600160601b031660208201525b602081015161271090610bb3906001600160601b0316876130f3565b610bbd9190613112565b9051969095509350505050565b6000610bd583611194565b8210610c145760405162461bcd60e51b815260206004820152600e60248201526d496e76616c696420696e6465782160901b6044820152606401610894565b6001600160a01b0383166000908152600960205260409020805483908110610c3e57610c3e613134565b9060005260206000200154905092915050565b600c5461010090046001600160a01b03163314610c805760405162461bcd60e51b815260040161089490613034565b60405133904780156108fc02916000818181858888f19350505050158015610cac573d6000803e3d6000fd5b50565b610af783838360405180602001604052806000815250611a3c565b80610cd53382611a94565b610cf15760405162461bcd60e51b81526004016108949061314a565b6108a782611acb565b60165460009060ff1680610d1e5750600c546001600160a01b036101009091041633145b610d575760405162461bcd60e51b815260206004820152600a6024820152692737ba1036b4b73a32b960b11b6044820152606401610894565b60125460ff1615610d945760405162461bcd60e51b81526020600482015260076024820152665061757365642160c81b6044820152606401610894565b610d9e86866113a5565b9050610daa8185611ad4565b610db5818484611b40565b95945050505050565b6008546000908210610e035760405162461bcd60e51b815260206004820152600e60248201526d496e76616c696420696e6465782160901b6044820152606401610894565b60088281548110610e1657610e16613134565b90600052602060002001549050919050565b600c5461010090046001600160a01b03163314610e575760405162461bcd60e51b815260040161089490613034565b6040516370a0823160e01b81523060048201526001600160a01b0382169063a9059cbb90339083906370a082319060240160206040518083038186803b158015610ea057600080fd5b505afa158015610eb4573d6000803e3d6000fd5b505050506040513d601f19601f82011682018060405250810190610ed89190613181565b6040516001600160e01b031960e085901b1681526001600160a01b0390921660048301526024820152604401602060405180830381600087803b158015610f1e57600080fd5b505af1158015610f32573d6000803e3d6000fd5b505050506040513d601f19601f82011682018060405250810190610f56919061319a565b610cac5760405162461bcd60e51b815260206004820152600f60248201526e15da5d1a191c985dc819985a5b1959608a1b6044820152606401610894565b60008381526020819052604090205483906001600160a01b0316610fca5760405162461bcd60e51b81526004016108949061308c565b600c5461010090046001600160a01b03163314610ff95760405162461bcd60e51b815260040161089490613034565b836110043382611a94565b6110205760405162461bcd60e51b81526004016108949061314a565b61102b858585611b40565b5050505050565b6000602d303b146110435750600090565b6010306001600160a01b0316803b806020016040519081016040528181526000908060200190933c611074906131b7565b901c905090565b60008181526020819052604081205482906001600160a01b03166110b15760405162461bcd60e51b81526004016108949061308c565b50506000908152602081905260409020546001600160a01b031690565b600c5461010090046001600160a01b031633146110fd5760405162461bcd60e51b815260040161089490613034565b610cac81611c25565b6013805461111390613057565b80601f016020809104026020016040519081016040528092919081815260200182805461113f90613057565b801561118c5780601f106111615761010080835404028352916020019161118c565b820191906000526020600020905b81548152906001019060200180831161116f57829003601f168201915b505050505081565b60006001600160a01b0382166111e35760405162461bcd60e51b8152602060048201526014602482015273496e76616c6964207a65726f206164647265737360601b6044820152606401610894565b506001600160a01b031660009081526001602052604090205490565b6060600680546108ba90613057565b3360008181526003602090815260408083206001600160a01b03871680855290835292819020805460ff191686151590811790915590519081529192917f17307eab39ab6107e8899845ad3d59bd9653f200f220920489ca2b5937696c31910160405180910390a35050565b61128684848484611a3c565b50505050565b600c5461010090046001600160a01b031633146112bb5760405162461bcd60e51b815260040161089490613034565b6012546112cb9060ff1615611c85565b565b60008181526020819052604090205460609082906001600160a01b03166113065760405162461bcd60e51b81526004016108949061308c565b6000838152600760205260409020805461131f90613057565b80601f016020809104026020016040519081016040528092919081815260200182805461134b90613057565b80156113985780601f1061136d57610100808354040283529160200191611398565b820191906000526020600020905b81548152906001019060200180831161137b57829003601f168201915b5050505050915050919050565b60165460009060ff16806113c95750600c546001600160a01b036101009091041633145b6114025760405162461bcd60e51b815260206004820152600a6024820152692737ba1036b4b73a32b960b11b6044820152606401610894565b60158054906000611412836131db565b91905055905061085f838383611cca565b600061085f33836000806000610cfa565b60008181526020819052604090205481906001600160a01b031661146a5760405162461bcd60e51b81526004016108949061308c565b600082815260106020526040902054806114b45760405162461bcd60e51b815260206004820152600b60248201526a139bdd081d1bc81cd95b1b60aa1b6044820152606401610894565b803410156114f75760405162461bcd60e51b815260206004820152601060248201526f4e6f7420656e6f7567682066756e647360801b6044820152606401610894565b60006115028461107b565b90506001600160a01b03811661151a5761151a6131f6565b6001600160a01b03811633141561156a5760405162461bcd60e51b8152602060048201526014602482015273416c726561647920746f6b656e206f776e65722160601b6044820152606401610894565b604051635c46a7ef60e11b81526001600160a01b0382166004820152336024820152604481018590526080606482015260006084820152309063b88d4fde90349060a4016000604051808303818588803b1580156115c757600080fd5b505af11580156115db573d6000803e3d6000fd5b5050506000958652505060106020525050604082209190915550565b611602878787611cd5565b8060008151811061161557611615613134565b6020026020010151601660006101000a81548160ff02191690831515021790555061163f84611c25565b61164983836116e3565b50505050505050565b8161165d3382611a94565b6116795760405162461bcd60e51b81526004016108949061314a565b610af78383611ad4565b600c5461010090046001600160a01b031633146116b25760405162461bcd60e51b815260040161089490613034565b610cac81611d17565b60006001600160e01b03198216600162b7486560e01b0319148061085f575061085f82611d71565b6001600160601b03811661271081111561173a5760405162461bcd60e51b8152602060048201526018602482015277526f79616c7479206665652065786365656420707269636560401b6044820152606401610894565b6040805180820182526001600160a01b0385168082526001600160601b0385166020928301819052600160a01b81028217600d558351918252918101919091527fa1edde4ed5c1392c90dccd8e051a4080b761850e49a24c77d826348a51e1f8dc91015b60405180910390a1505050565b6000806117b78361107b565b9050836001600160a01b0316816001600160a01b031614806117fe57506001600160a01b0380821660009081526003602090815260408083209388168352929052205460ff165b949350505050565b806118113382611a94565b61182d5760405162461bcd60e51b81526004016108949061314a565b6001600160a01b0384166118835760405162461bcd60e51b815260206004820152601a60248201527f5472616e736665722066726f6d207a65726f20616464726573730000000000006044820152606401610894565b6001600160a01b0383166118d95760405162461bcd60e51b815260206004820152601860248201527f5472616e7366657220746f207a65726f206164647265737300000000000000006044820152606401610894565b6118e28261107b565b6001600160a01b0316846001600160a01b0316146119335760405162461bcd60e51b815260206004820152600e60248201526d233937b6903737ba1037bbb732b960911b6044820152606401610894565b61193e848484611d96565b600082815260026020526040902080546001600160a01b03191690556001600160a01b03848116908416146119f5576001600160a01b0384166000908152600160208190526040822080549192909161199890849061320c565b90915550506001600160a01b038316600090815260016020819052604082208054919290916119c8908490613223565b9091555050600082815260208190526040902080546001600160a01b0319166001600160a01b0385161790555b81836001600160a01b0316856001600160a01b03167fddf252ad1be2c89b69c2b068fc378daa952ba7f163c4a11628f55a4df523b3ef60405160405180910390a450505050565b611a47848484611806565b611a5384848484611da1565b6112865760405162461bcd60e51b81526020600482015260126024820152712737ba1022a9219b9918a932b1b2b4bb32b960711b6044820152606401610894565b6000611aa083836117ab565b80611ac45750826001600160a01b0316611ab98361093d565b6001600160a01b0316145b9392505050565b610cac81611e4f565b80600160801b8110611af85760405162461bcd60e51b8152600401610894906130b6565b60008381526010602090815260409182902084905581518581529081018490527f2f8c61aa79deaa9c961d54f640a154df4960a56a5989d25df0148be783dc3f5b910161179e565b6001600160601b038116612710811115611b975760405162461bcd60e51b8152602060048201526018602482015277526f79616c7479206665652065786365656420707269636560401b6044820152606401610894565b6040805180820182526001600160a01b038581168083526001600160601b03868116602080860182815260008c8152600e835288902096519051909316600160a01b029290941691909117909355835188815291820152918201527f2595213009f64247e2789cf9981bcc53ee736a6aa52042a651aa1549ae6fff619060600160405180910390a150505050565b80600160801b8110611c495760405162461bcd60e51b8152600401610894906130b6565b60118290556040518281527f9f7a6492db3843bc01c0adb23cd27be964155c1d45c566f2ee32f28faf4eb6059060200160405180910390a15050565b6012805460ff1916821515908117909155604051339160ff161515907f8b265f737315073a655a642868ed756ba7e3b6c391b06dbbf70370aab7f7f06890600090a350565b610af7838383611e74565b60016015556040805180820190915260088152674f70656e4e46547360c01b6020820152611d04906004611ecd565b611d0e8383611f1e565b610af781611f75565b600c80546001600160a01b03838116610100818102610100600160a81b031985161790945560405193909204169182907f8be0079c531659141344cd1fd0a4f28419497f9722a3daafe3b4186f6b6457e090600090a35050565b60006001600160e01b0319821663275381b960e11b148061085f575061085f82611fae565b610af7838383611fd3565b60006001600160a01b0384163b1580610db55750604051630a85bd0160e11b808252906001600160a01b0386169063150b7a0290611de99033908a908990899060040161323b565b602060405180830381600087803b158015611e0357600080fd5b505af1158015611e17573d6000803e3d6000fd5b505050506040513d601f19601f82011682018060405250810190611e3b9190613278565b6001600160e01b0319161495945050505050565b6000818152600e602090815260408083208390556010909152812055610cac8161200c565b600d54611e9d9082906001600160a01b03811690600160a01b90046001600160601b0316611b40565b611ec28160115485611ebd600c546001600160a01b036101009091041690565b6120d7565b610af7838383612417565b601254610100900460ff1615611ef55760405162461bcd60e51b815260040161089490613295565b6012805461ff0019166101001790558151611f17906013906020850190612976565b5060145550565b60045460ff1615611f415760405162461bcd60e51b815260040161089490613295565b6004805460ff191660011790558151611f61906005906020850190612976565b508051610af7906006906020840190612976565b600c5460ff1615611f985760405162461bcd60e51b815260040161089490613295565b600c805460ff19166001179055610cac81611d17565b60006001600160e01b031982166398396bd360e01b148061085f575061085f82612470565b600081815260106020526040902054611ff290829084611ebd8361107b565b600081815260106020526040812055610af7838383612495565b60006120178261107b565b905061202381836124a9565b6000828152600b60205260408120546008549091906120449060019061320c565b905060006008828154811061205b5761205b613134565b6000918252602080832090910154808352600b90915260408083208690558783528220919091556008805491925082918590811061209b5761209b613134565b60009182526020909120015560088054806120b8576120b86132c2565b6001900381819060005260206000200160009055905561102b856125b7565b600f5460ff16156121195760405162461bcd60e51b815260206004820152600c60248201526b4e6f2072652d656e7472792160a01b6044820152606401610894565b600f805460ff19166001179055348311156121695760405162461bcd60e51b815260206004820152601060248201526f4e6f7420656e6f7567682066756e647360801b6044820152606401610894565b3461217357612407565b6001600160a01b0382166121b95760405162461bcd60e51b815260206004820152600d60248201526c24b73b30b634b210313abcb2b960991b6044820152606401610894565b6001600160a01b0381166122005760405162461bcd60e51b815260206004820152600e60248201526d24b73b30b634b21039b2b63632b960911b6044820152606401610894565b600080803486158015906122265750846001600160a01b0316866001600160a01b031614155b15612333576122358888610afc565b90945092506001600160a01b03841661224d57600092505b868311156122915760405162461bcd60e51b8152602060048201526011602482015270496e76616c696420726f79616c7469657360781b6044820152606401610894565b61229b838861320c565b915081156122e8576122ad828261320c565b6040519091506001600160a01b0386169083156108fc029084906000818181858888f193505050501580156122e6573d6000803e3d6000fd5b505b8215612333576122f8838261320c565b6040519091506001600160a01b0385169084156108fc029085906000818181858888f19350505050158015612331573d6000803e3d6000fd5b505b348161233f8585613223565b6123499190613223565b14612356576123566131f6565b8015612394576040516001600160a01b0387169082156108fc029083906000818181858888f19350505050158015612392573d6000803e3d6000fd5b505b60408051898152602081018990526001600160a01b038781168284015260608201859052868116608083015260a08201869052881660c082015260e0810183905290517f746889be52a242154dfc6d4e1c55b36e2f81cfc340b11f28ef86b142ca25d937918190036101000190a1505050505b5050600f805460ff191690555050565b61242183826125d7565b600880546000838152600b60205260408120829055600182018355919091527ff3f7a9fe364faab93b216da50a3214154f22a0a2b415b23a84c8169e8b636ee301819055610af7838383612615565b60006001600160e01b0319821663eaf56ea360e01b148061085f575061085f82612640565b61249f83826124a9565b610af782826125d7565b6000818152600a60205260408120549060016124c485611194565b6124ce919061320c565b9050808214612565576001600160a01b038416600090815260096020526040812080548390811061250157612501613134565b906000526020600020015490508060096000876001600160a01b03166001600160a01b03168152602001908152602001600020848154811061254557612545613134565b6000918252602080832090910192909255918252600a9052604090208290555b6000838152600a602090815260408083208390556001600160a01b03871683526009909152902080548061259b5761259b6132c2565b6001900381819060005260206000200160009055905550505050565b60008181526007602052604081206125ce916129fa565b610cac81612665565b6001600160a01b0390911660009081526009602081815260408084208054868652600a84529185208290559282526001810183559183529091200155565b6000818152600760209081526040909120835161263492850190612976565b50610af7838383612756565b600063152a902d60e11b6001600160e01b03198316148061085f575061085f826128e1565b60006126708261107b565b90506001600160a01b0381166126985760405162461bcd60e51b81526004016108949061308c565b6001600160a01b0381166000908152600160205260409020546126bd576126bd6131f6565b6001600160a01b038116600090815260016020819052604082208054919290916126e890849061320c565b9091555050600082815260026020908152604080832080546001600160a01b0319908116909155918390528083208054909216909155518391906001600160a01b038416907fddf252ad1be2c89b69c2b068fc378daa952ba7f163c4a11628f55a4df523b3ef908390a45050565b6001600160a01b0383166127a35760405162461bcd60e51b81526020600482015260146024820152734d696e7420746f207a65726f206164647265737360601b6044820152606401610894565b6000818152602081905260409020546001600160a01b0316156127ff5760405162461bcd60e51b8152602060048201526014602482015273151bdad95b88185b1c9958591e481b5a5b9d195960621b6044820152606401610894565b6001600160a01b0383166000908152600160208190526040822080549192909161282a908490613223565b909155505060008181526020819052604080822080546001600160a01b0319166001600160a01b03871690811790915590518392907fddf252ad1be2c89b69c2b068fc378daa952ba7f163c4a11628f55a4df523b3ef908290a46128a06000848360405180602001604052806000815250611da1565b610af75760405162461bcd60e51b8152602060048201526012602482015271139bdd08115490cdcc8c549958d95a5d995960721b6044820152606401610894565b60006307f5828d60e41b6001600160e01b03198316148061085f575061085f82600063780e9d6360e01b6001600160e01b03198316148061085f575061085f826000635b5e139f60e01b6001600160e01b03198316148061085f575061085f8260006380ac58cd60e01b6001600160e01b03198316148061085f57506001600160e01b031982166301ffc9a760e01b1461085f565b82805461298290613057565b90600052602060002090601f0160209004810192826129a457600085556129ea565b82601f106129bd57805160ff19168380011785556129ea565b828001600101855582156129ea579182015b828111156129ea5782518255916020019190600101906129cf565b506129f6929150612a30565b5090565b508054612a0690613057565b6000825580601f10612a16575050565b601f016020900490600052602060002090810190610cac91905b5b808211156129f65760008155600101612a31565b6001600160e01b031981168114610cac57600080fd5b600060208284031215612a6d57600080fd5b8135611ac481612a45565b80356001600160a01b0381168114612a8f57600080fd5b919050565b80356001600160601b0381168114612a8f57600080fd5b60008060408385031215612abe57600080fd5b612ac783612a78565b9150612ad560208401612a94565b90509250929050565b6000815180845260005b81811015612b0457602081850181015186830182015201612ae8565b81811115612b16576000602083870101525b50601f01601f19169290920160200192915050565b602081526000611ac46020830184612ade565b600060208284031215612b5057600080fd5b5035919050565b60008060408385031215612b6a57600080fd5b612b7383612a78565b946020939093013593505050565b60008060408385031215612b9457600080fd5b82359150612ad560208401612a78565b600080600060608486031215612bb957600080fd5b612bc284612a78565b9250612bd060208501612a78565b9150604084013590509250925092565b60008060408385031215612bf357600080fd5b50508035926020909101359150565b634e487b7160e01b600052604160045260246000fd5b604051601f8201601f1916810167ffffffffffffffff81118282101715612c4157612c41612c02565b604052919050565b600067ffffffffffffffff831115612c6357612c63612c02565b612c76601f8401601f1916602001612c18565b9050828152838383011115612c8a57600080fd5b828260208301376000602084830101529392505050565b600082601f830112612cb257600080fd5b611ac483833560208501612c49565b600080600080600060a08688031215612cd957600080fd5b612ce286612a78565b9450602086013567ffffffffffffffff811115612cfe57600080fd5b612d0a88828901612ca1565b94505060408601359250612d2060608701612a78565b9150612d2e60808701612a94565b90509295509295909350565b600060208284031215612d4c57600080fd5b611ac482612a78565b600080600060608486031215612d6a57600080fd5b83359250612d7a60208501612a78565b9150612d8860408501612a94565b90509250925092565b8015158114610cac57600080fd5b60008060408385031215612db257600080fd5b612dbb83612a78565b91506020830135612dcb81612d91565b809150509250929050565b60008060008060808587031215612dec57600080fd5b612df585612a78565b9350612e0360208601612a78565b925060408501359150606085013567ffffffffffffffff811115612e2657600080fd5b8501601f81018713612e3757600080fd5b612e4687823560208401612c49565b91505092959194509250565b60008060408385031215612e6557600080fd5b612e6e83612a78565b9150602083013567ffffffffffffffff811115612e8a57600080fd5b612e9685828601612ca1565b9150509250929050565b600060208284031215612eb257600080fd5b813567ffffffffffffffff811115612ec957600080fd5b6117fe84828501612ca1565b600080600080600080600060e0888a031215612ef057600080fd5b873567ffffffffffffffff80821115612f0857600080fd5b612f148b838c01612ca1565b985060209150818a013581811115612f2b57600080fd5b612f378c828d01612ca1565b985050612f4660408b01612a78565b965060608a01359550612f5b60808b01612a78565b9450612f6960a08b01612a94565b935060c08a013581811115612f7d57600080fd5b8a01601f81018c13612f8e57600080fd5b803582811115612fa057612fa0612c02565b8060051b9250612fb1848401612c18565b818152928201840192848101908e851115612fcb57600080fd5b928501925b84841015612ff55783359250612fe583612d91565b8282529285019290850190612fd0565b80965050505050505092959891949750929550565b6000806040838503121561301d57600080fd5b61302683612a78565b9150612ad560208401612a78565b6020808252600990820152682737ba1037bbb732b960b91b604082015260600190565b600181811c9082168061306b57607f821691505b6020821081141561098e57634e487b7160e01b600052602260045260246000fd5b60208082526010908201526f125b9d985b1a59081d1bdad95b88125160821b604082015260600190565b6020808252600d908201526c546f6f20657870656e7369766560981b604082015260600190565b634e487b7160e01b600052601160045260246000fd5b600081600019048311821515161561310d5761310d6130dd565b500290565b60008261312f57634e487b7160e01b600052601260045260246000fd5b500490565b634e487b7160e01b600052603260045260246000fd5b6020808252601c908201527f4e6f7420746f6b656e206f776e6572206e6f7220617070726f76656400000000604082015260600190565b60006020828403121561319357600080fd5b5051919050565b6000602082840312156131ac57600080fd5b8151611ac481612d91565b8051602080830151919081101561098e5760001960209190910360031b1b16919050565b60006000198214156131ef576131ef6130dd565b5060010190565b634e487b7160e01b600052600160045260246000fd5b60008282101561321e5761321e6130dd565b500390565b60008219821115613236576132366130dd565b500190565b6001600160a01b038581168252841660208201526040810183905260806060820181905260009061326e90830184612ade565b9695505050505050565b60006020828403121561328a57600080fd5b8151611ac481612a45565b602080825260139082015272105b1c9958591e481a5b9a5d1a585b1a5e9959606a1b604082015260600190565b634e487b7160e01b600052603160045260246000fdfea2646970667358221220ec4ae13d6f877619cfd5e0bd3f87364d8ff4c8493827c1ceeef45dc330c70d6264736f6c63430008090033",
  "devdoc": {
    "kind": "dev",
    "methods": {
      "burn(uint256)": {
        "params": {
          "tokenID": "tokenID of NFT to burn"
        }
      },
      "getDefaultRoyalty()": {
        "returns": {
          "fee": ": fee Numerator, less than 10_000",
          "receiver": ": address of the royalty receiver, or address(0) to reset"
        }
      },
      "getTokenRoyalty(uint256)": {
        "params": {
          "tokenID": ": token ID"
        },
        "returns": {
          "fee": ": fee Numerator, less than 10_000",
          "receiver": ": address of the royalty receiver, or address(0) to reset"
        }
      },
      "setDefaultPrice(uint256)": {
        "params": {
          "price": ": default price in wei"
        }
      },
      "setDefaultRoyalty(address,uint96)": {
        "params": {
          "fee": ": fee Numerator, less than 10000",
          "receiver": ": address of the royalty receiver, or address(0) to reset"
        }
      },
      "setTokenPrice(uint256,uint256)": {
        "params": {
          "price": ": token price in wei",
          "tokenID": ": token ID"
        }
      },
      "setTokenRoyalty(uint256,address,uint96)": {
        "params": {
          "fee": ": fee Numerator, less than 10_000",
          "receiver": ": address of the royalty receiver, or address(0) to reset",
          "tokenID": ": token ID"
        }
      },
      "setTokenRoyaltyReceiver(uint256,address)": {
        "params": {
          "receiver": ": address of the royalty receiver, or address(0) to reset",
          "tokenID": ": token ID"
        }
      },
      "supportsInterface(bytes4)": {
        "params": {
          "interfaceId": "interfaceId to test"
        }
      }
    },
    "title": "OpenNFTs smartcontract",
    "version": 1
  },
  "userdoc": {
    "kind": "user",
    "methods": {
      "burn(uint256)": {
        "notice": "burn NFT"
      },
      "getDefaultRoyalty()": {
        "notice": "GET default royalty info"
      },
      "getTokenRoyalty(uint256)": {
        "notice": "GET token royalty info"
      },
      "open()": {
        "notice": "Mint NFT allowed to everyone or only collection owner"
      },
      "setDefaultPrice(uint256)": {
        "notice": "SET default mint price"
      },
      "setDefaultRoyalty(address,uint96)": {
        "notice": "SET default royalty info"
      },
      "setTokenPrice(uint256,uint256)": {
        "notice": "SET token price"
      },
      "setTokenRoyalty(uint256,address,uint96)": {
        "notice": "SET token royalty info"
      },
      "setTokenRoyaltyReceiver(uint256,address)": {
        "notice": "SET token royalty receiver"
      },
      "supportsInterface(bytes4)": {
        "notice": "test if this interface is supported"
      },
      "tokenIdNext()": {
        "notice": "tokenID of next minted NFT"
      },
      "withdraw()": {
        "notice": "withdraw eth"
      },
      "withdraw(address)": {
        "notice": "withdraw token"
      }
    },
    "version": 1
  },
  "storageLayout": {
    "storage": [
      {
        "astId": 5240,
        "contract": "contracts/next/OpenAutoMarket.sol:OpenAutoMarket",
        "label": "_owners",
        "offset": 0,
        "slot": "0",
        "type": "t_mapping(t_uint256,t_address)"
      },
      {
        "astId": 5244,
        "contract": "contracts/next/OpenAutoMarket.sol:OpenAutoMarket",
        "label": "_balances",
        "offset": 0,
        "slot": "1",
        "type": "t_mapping(t_address,t_uint256)"
      },
      {
        "astId": 5248,
        "contract": "contracts/next/OpenAutoMarket.sol:OpenAutoMarket",
        "label": "_tokenApprovals",
        "offset": 0,
        "slot": "2",
        "type": "t_mapping(t_uint256,t_address)"
      },
      {
        "astId": 5254,
        "contract": "contracts/next/OpenAutoMarket.sol:OpenAutoMarket",
        "label": "_operatorApprovals",
        "offset": 0,
        "slot": "3",
        "type": "t_mapping(t_address,t_mapping(t_address,t_bool))"
      },
      {
        "astId": 6163,
        "contract": "contracts/next/OpenAutoMarket.sol:OpenAutoMarket",
        "label": "_openERC721MetadataInitialized",
        "offset": 0,
        "slot": "4",
        "type": "t_bool"
      },
      {
        "astId": 6165,
        "contract": "contracts/next/OpenAutoMarket.sol:OpenAutoMarket",
        "label": "_name",
        "offset": 0,
        "slot": "5",
        "type": "t_string_storage"
      },
      {
        "astId": 6167,
        "contract": "contracts/next/OpenAutoMarket.sol:OpenAutoMarket",
        "label": "_symbol",
        "offset": 0,
        "slot": "6",
        "type": "t_string_storage"
      },
      {
        "astId": 6171,
        "contract": "contracts/next/OpenAutoMarket.sol:OpenAutoMarket",
        "label": "_tokenURIs",
        "offset": 0,
        "slot": "7",
        "type": "t_mapping(t_uint256,t_string_storage)"
      },
      {
        "astId": 5840,
        "contract": "contracts/next/OpenAutoMarket.sol:OpenAutoMarket",
        "label": "_allTokens",
        "offset": 0,
        "slot": "8",
        "type": "t_array(t_uint256)dyn_storage"
      },
      {
        "astId": 5845,
        "contract": "contracts/next/OpenAutoMarket.sol:OpenAutoMarket",
        "label": "_ownedTokens",
        "offset": 0,
        "slot": "9",
        "type": "t_mapping(t_address,t_array(t_uint256)dyn_storage)"
      },
      {
        "astId": 5849,
        "contract": "contracts/next/OpenAutoMarket.sol:OpenAutoMarket",
        "label": "_ownedTokensIndex",
        "offset": 0,
        "slot": "10",
        "type": "t_mapping(t_uint256,t_uint256)"
      },
      {
        "astId": 5853,
        "contract": "contracts/next/OpenAutoMarket.sol:OpenAutoMarket",
        "label": "_allTokensIndex",
        "offset": 0,
        "slot": "11",
        "type": "t_mapping(t_uint256,t_uint256)"
      },
      {
        "astId": 5005,
        "contract": "contracts/next/OpenAutoMarket.sol:OpenAutoMarket",
        "label": "_openERC173Initialized",
        "offset": 0,
        "slot": "12",
        "type": "t_bool"
      },
      {
        "astId": 5007,
        "contract": "contracts/next/OpenAutoMarket.sol:OpenAutoMarket",
        "label": "_owner",
        "offset": 1,
        "slot": "12",
        "type": "t_address"
      },
      {
        "astId": 5119,
        "contract": "contracts/next/OpenAutoMarket.sol:OpenAutoMarket",
        "label": "_defaultRoyaltyInfo",
        "offset": 0,
        "slot": "13",
        "type": "t_struct(RoyaltyInfo)5116_storage"
      },
      {
        "astId": 5124,
        "contract": "contracts/next/OpenAutoMarket.sol:OpenAutoMarket",
        "label": "_tokenRoyaltyInfo",
        "offset": 0,
        "slot": "14",
        "type": "t_mapping(t_uint256,t_struct(RoyaltyInfo)5116_storage)"
      },
      {
        "astId": 6439,
        "contract": "contracts/next/OpenAutoMarket.sol:OpenAutoMarket",
        "label": "_locked",
        "offset": 0,
        "slot": "15",
        "type": "t_bool"
      },
      {
        "astId": 6479,
        "contract": "contracts/next/OpenAutoMarket.sol:OpenAutoMarket",
        "label": "tokenPrice",
        "offset": 0,
        "slot": "16",
        "type": "t_mapping(t_uint256,t_uint256)"
      },
      {
        "astId": 6481,
        "contract": "contracts/next/OpenAutoMarket.sol:OpenAutoMarket",
        "label": "defaultPrice",
        "offset": 0,
        "slot": "17",
        "type": "t_uint256"
      },
      {
        "astId": 7295,
        "contract": "contracts/next/OpenAutoMarket.sol:OpenAutoMarket",
        "label": "_paused",
        "offset": 0,
        "slot": "18",
        "type": "t_bool"
      },
      {
        "astId": 6339,
        "contract": "contracts/next/OpenAutoMarket.sol:OpenAutoMarket",
        "label": "initialized",
        "offset": 1,
        "slot": "18",
        "type": "t_bool"
      },
      {
        "astId": 6341,
        "contract": "contracts/next/OpenAutoMarket.sol:OpenAutoMarket",
        "label": "template",
        "offset": 0,
        "slot": "19",
        "type": "t_string_storage"
      },
      {
        "astId": 6343,
        "contract": "contracts/next/OpenAutoMarket.sol:OpenAutoMarket",
        "label": "version",
        "offset": 0,
        "slot": "20",
        "type": "t_uint256"
      },
      {
        "astId": 7053,
        "contract": "contracts/next/OpenAutoMarket.sol:OpenAutoMarket",
        "label": "tokenIdNext",
        "offset": 0,
        "slot": "21",
        "type": "t_uint256"
      },
      {
        "astId": 18667,
        "contract": "contracts/next/OpenAutoMarket.sol:OpenAutoMarket",
        "label": "open",
        "offset": 0,
        "slot": "22",
        "type": "t_bool"
      }
    ],
    "types": {
      "t_address": {
        "encoding": "inplace",
        "label": "address",
        "numberOfBytes": "20"
      },
      "t_array(t_uint256)dyn_storage": {
        "base": "t_uint256",
        "encoding": "dynamic_array",
        "label": "uint256[]",
        "numberOfBytes": "32"
      },
      "t_bool": {
        "encoding": "inplace",
        "label": "bool",
        "numberOfBytes": "1"
      },
      "t_mapping(t_address,t_array(t_uint256)dyn_storage)": {
        "encoding": "mapping",
        "key": "t_address",
        "label": "mapping(address => uint256[])",
        "numberOfBytes": "32",
        "value": "t_array(t_uint256)dyn_storage"
      },
      "t_mapping(t_address,t_bool)": {
        "encoding": "mapping",
        "key": "t_address",
        "label": "mapping(address => bool)",
        "numberOfBytes": "32",
        "value": "t_bool"
      },
      "t_mapping(t_address,t_mapping(t_address,t_bool))": {
        "encoding": "mapping",
        "key": "t_address",
        "label": "mapping(address => mapping(address => bool))",
        "numberOfBytes": "32",
        "value": "t_mapping(t_address,t_bool)"
      },
      "t_mapping(t_address,t_uint256)": {
        "encoding": "mapping",
        "key": "t_address",
        "label": "mapping(address => uint256)",
        "numberOfBytes": "32",
        "value": "t_uint256"
      },
      "t_mapping(t_uint256,t_address)": {
        "encoding": "mapping",
        "key": "t_uint256",
        "label": "mapping(uint256 => address)",
        "numberOfBytes": "32",
        "value": "t_address"
      },
      "t_mapping(t_uint256,t_string_storage)": {
        "encoding": "mapping",
        "key": "t_uint256",
        "label": "mapping(uint256 => string)",
        "numberOfBytes": "32",
        "value": "t_string_storage"
      },
      "t_mapping(t_uint256,t_struct(RoyaltyInfo)5116_storage)": {
        "encoding": "mapping",
        "key": "t_uint256",
        "label": "mapping(uint256 => struct OpenERC2981.RoyaltyInfo)",
        "numberOfBytes": "32",
        "value": "t_struct(RoyaltyInfo)5116_storage"
      },
      "t_mapping(t_uint256,t_uint256)": {
        "encoding": "mapping",
        "key": "t_uint256",
        "label": "mapping(uint256 => uint256)",
        "numberOfBytes": "32",
        "value": "t_uint256"
      },
      "t_string_storage": {
        "encoding": "bytes",
        "label": "string",
        "numberOfBytes": "32"
      },
      "t_struct(RoyaltyInfo)5116_storage": {
        "encoding": "inplace",
        "label": "struct OpenERC2981.RoyaltyInfo",
        "members": [
          {
            "astId": 5113,
            "contract": "contracts/next/OpenAutoMarket.sol:OpenAutoMarket",
            "label": "receiver",
            "offset": 0,
            "slot": "0",
            "type": "t_address"
          },
          {
            "astId": 5115,
            "contract": "contracts/next/OpenAutoMarket.sol:OpenAutoMarket",
            "label": "fee",
            "offset": 20,
            "slot": "0",
            "type": "t_uint96"
          }
        ],
        "numberOfBytes": "32"
      },
      "t_uint256": {
        "encoding": "inplace",
        "label": "uint256",
        "numberOfBytes": "32"
      },
      "t_uint96": {
        "encoding": "inplace",
        "label": "uint96",
        "numberOfBytes": "12"
      }
    }
  }
}