{
  "address": "0xbD28b49cCeFBf420443c1302D8529034D197A265",
  "abi": [
    {
      "inputs": [
        {
          "internalType": "address",
          "name": "initialOwner",
          "type": "address"
        }
      ],
      "stateMutability": "nonpayable",
      "type": "constructor"
    },
    {
      "anonymous": false,
      "inputs": [
        {
          "indexed": true,
          "internalType": "string",
          "name": "templateName",
          "type": "string"
        },
        {
          "indexed": true,
          "internalType": "address",
          "name": "clone",
          "type": "address"
        },
        {
          "indexed": true,
          "internalType": "string",
          "name": "name",
          "type": "string"
        },
        {
          "indexed": false,
          "internalType": "string",
          "name": "symbol",
          "type": "string"
        }
      ],
      "name": "Clone",
      "type": "event"
    },
    {
      "anonymous": false,
      "inputs": [
        {
          "indexed": true,
          "internalType": "address",
          "name": "previousOwner",
          "type": "address"
        },
        {
          "indexed": true,
          "internalType": "address",
          "name": "newOwner",
          "type": "address"
        }
      ],
      "name": "OwnershipTransferred",
      "type": "event"
    },
    {
      "anonymous": false,
      "inputs": [
        {
          "indexed": true,
          "internalType": "address",
          "name": "resolver",
          "type": "address"
        }
      ],
      "name": "SetResolver",
      "type": "event"
    },
    {
      "anonymous": false,
      "inputs": [
        {
          "indexed": true,
          "internalType": "string",
          "name": "templateName",
          "type": "string"
        },
        {
          "indexed": true,
          "internalType": "address",
          "name": "template",
          "type": "address"
        },
        {
          "indexed": false,
          "internalType": "uint256",
          "name": "index",
          "type": "uint256"
        }
      ],
      "name": "SetTemplate",
      "type": "event"
    },
    {
      "inputs": [
        {
          "internalType": "string",
          "name": "name",
          "type": "string"
        },
        {
          "internalType": "string",
          "name": "symbol",
          "type": "string"
        },
        {
          "internalType": "string",
          "name": "templateName",
          "type": "string"
        },
        {
          "internalType": "bytes",
          "name": "params",
          "type": "bytes"
        }
      ],
      "name": "clone",
      "outputs": [
        {
          "internalType": "address",
          "name": "clone_",
          "type": "address"
        }
      ],
      "stateMutability": "nonpayable",
      "type": "function"
    },
    {
      "inputs": [
        {
          "internalType": "address",
          "name": "template_",
          "type": "address"
        }
      ],
      "name": "clone",
      "outputs": [
        {
          "internalType": "address",
          "name": "clone_",
          "type": "address"
        }
      ],
      "stateMutability": "nonpayable",
      "type": "function"
    },
    {
      "inputs": [],
      "name": "countTemplates",
      "outputs": [
        {
          "internalType": "uint256",
          "name": "count",
          "type": "uint256"
        }
      ],
      "stateMutability": "view",
      "type": "function"
    },
    {
      "inputs": [],
      "name": "nftsResolver",
      "outputs": [
        {
          "internalType": "address",
          "name": "",
          "type": "address"
        }
      ],
      "stateMutability": "view",
      "type": "function"
    },
    {
      "inputs": [],
      "name": "owner",
      "outputs": [
        {
          "internalType": "address",
          "name": "",
          "type": "address"
        }
      ],
      "stateMutability": "view",
      "type": "function"
    },
    {
      "inputs": [
        {
          "internalType": "address",
          "name": "resolver_",
          "type": "address"
        }
      ],
      "name": "setResolver",
      "outputs": [],
      "stateMutability": "nonpayable",
      "type": "function"
    },
    {
      "inputs": [
        {
          "internalType": "string",
          "name": "templateName_",
          "type": "string"
        },
        {
          "internalType": "address",
          "name": "template_",
          "type": "address"
        }
      ],
      "name": "setTemplate",
      "outputs": [],
      "stateMutability": "nonpayable",
      "type": "function"
    },
    {
      "inputs": [
        {
          "internalType": "bytes4",
          "name": "interfaceId",
          "type": "bytes4"
        }
      ],
      "name": "supportsInterface",
      "outputs": [
        {
          "internalType": "bool",
          "name": "",
          "type": "bool"
        }
      ],
      "stateMutability": "view",
      "type": "function"
    },
    {
      "inputs": [
        {
          "internalType": "string",
          "name": "templateName",
          "type": "string"
        }
      ],
      "name": "template",
      "outputs": [
        {
          "internalType": "address",
          "name": "template_",
          "type": "address"
        }
      ],
      "stateMutability": "view",
      "type": "function"
    },
    {
      "inputs": [
        {
          "internalType": "uint256",
          "name": "",
          "type": "uint256"
        }
      ],
      "name": "templates",
      "outputs": [
        {
          "internalType": "address",
          "name": "",
          "type": "address"
        }
      ],
      "stateMutability": "view",
      "type": "function"
    },
    {
      "inputs": [
        {
          "internalType": "address",
          "name": "newOwner",
          "type": "address"
        }
      ],
      "name": "transferOwnership",
      "outputs": [],
      "stateMutability": "nonpayable",
      "type": "function"
    }
  ],
  "transactionHash": "0x4adcbc597220d09963150d642806f2fdd605e40e821fffe1609a17548a9318b7",
  "args": [
    "0x6eebAe27d69fa80f0E4C0E973A2Fed218A56880c"
  ],
  "numDeployments": 7,
  "solcInputHash": "87817576fa665de692e5560b83fa47b8",
  "bytecode": "0x608060405234801561001057600080fd5b50604051610e93380380610e9383398101604081905261002f916100a1565b6100428161004860201b6108e71760201c565b506100d1565b600080546001600160a01b03838116610100818102610100600160a81b0319851617855560405193049190911692909183917f8be0079c531659141344cd1fd0a4f28419497f9722a3daafe3b4186f6b6457e091a35050565b6000602082840312156100b357600080fd5b81516001600160a01b03811681146100ca57600080fd5b9392505050565b610db3806100e06000396000f3fe608060405234801561001057600080fd5b50600436106100a95760003560e01c806370e141951161007157806370e141951461013a5780638124b78e1461014d578063848ec03c146101605780638da5cb5b14610173578063bc52565214610189578063f2fde38b1461019c57600080fd5b806301ffc9a7146100ae57806307caa21e146100d65780631ada40fb146100eb5780632cad0014146100fc5780634e543b2614610127575b600080fd5b6100c16100bc366004610995565b6101af565b60405190151581526020015b60405180910390f35b6100e96100e4366004610a89565b6101da565b005b6002546040519081526020016100cd565b61010f61010a366004610ad7565b61057f565b6040516001600160a01b0390911681526020016100cd565b6100e9610135366004610b98565b6106c8565b61010f610148366004610bb3565b610741565b61010f61015b366004610b98565b61081e565b60035461010f906001600160a01b031681565b60005461010090046001600160a01b031661010f565b61010f610197366004610bf0565b610882565b6100e96101aa366004610b98565b6108ac565b60006001600160e01b03198216630b35ace160e41b14806101d457506101d482610940565b92915050565b60005461010090046001600160a01b031633146102125760405162461bcd60e51b815260040161020990610c09565b60405180910390fd5b6040516301ffc9a760e01b81526350130d5360e01b60048201526001600160a01b038216906301ffc9a79060240160206040518083038186803b15801561025857600080fd5b505afa15801561026c573d6000803e3d6000fd5b505050506040513d601f19601f820116820180604052508101906102909190610c2c565b6102d05760405162461bcd60e51b81526020600482015260116024820152704e6f74204f70656e436c6f6e6561626c6560781b6044820152606401610209565b806001600160a01b031663158ef93e6040518163ffffffff1660e01b815260040160206040518083038186803b15801561030957600080fd5b505afa15801561031d573d6000803e3d6000fd5b505050506040513d601f19601f820116820180604052508101906103419190610c2c565b61037f5760405162461bcd60e51b815260206004820152600f60248201526e139bdd081a5b9a5d1a585b1a5e9959608a1b6044820152606401610209565b806001600160a01b03163b602d14156103da5760405162461bcd60e51b815260206004820152601860248201527f436c6f6e65206e6f742076616c69642074656d706c61746500000000000000006044820152606401610209565b60006001836040516103ec9190610c7e565b90815260200160405180910390205490506001811061045657816002610413600184610c9a565b8154811061042357610423610cbf565b9060005260206000200160006101000a8154816001600160a01b0302191690836001600160a01b031602179055506104c9565b50600280546001808201835560008390527f405787fa12a823e0f2b7631cc41b3ba8828b3321ca811111fa75cd3aa3bb5ace90910180546001600160a01b0319166001600160a01b0385161790559054604051909182916104b8908690610c7e565b908152604051908190036020019020555b600354604051630e3ab68760e21b81526001600160a01b038481166004830152909116906338eada1c90602401600060405180830381600087803b15801561051057600080fd5b505af1158015610524573d6000803e3d6000fd5b50505050816001600160a01b0316836040516105409190610c7e565b604051908190038120838252907f9a1bc68d29ae4a678ea14888c65dd019ada583b85f33e2483dae925e470d0d709060200160405180910390a3505050565b600061058d61015b84610741565b604051631eb40e2160e01b81529091506001600160a01b03821690631eb40e21906105c2908890889033908890600401610d01565b600060405180830381600087803b1580156105dc57600080fd5b505af11580156105f0573d6000803e3d6000fd5b5050600354604051630e3ab68760e21b81526001600160a01b03858116600483015290911692506338eada1c9150602401600060405180830381600087803b15801561063b57600080fd5b505af115801561064f573d6000803e3d6000fd5b50505050846040516106619190610c7e565b6040518091039020816001600160a01b0316846040516106819190610c7e565b60405180910390207f58689b2920c59f090416ecf8b77869a3026ebcdf93291be87ff14cc7739565e9876040516106b89190610d54565b60405180910390a4949350505050565b60005461010090046001600160a01b031633146106f75760405162461bcd60e51b815260040161020990610c09565b600380546001600160a01b0319166001600160a01b0383169081179091556040517ff811902d0aa96fa0dd89bebe8fc3818fa2132b9437abc92ed35639cc82da6d7c90600090a250565b6000806001836040516107549190610c7e565b908152602001604051809103902054905060018110156107a95760405162461bcd60e51b815260206004820152601060248201526f496e76616c69642054656d706c61746560801b6044820152606401610209565b60026107b6600183610c9a565b815481106107c6576107c6610cbf565b6000918252602090912001546001600160a01b03169150816108185760405162461bcd60e51b815260206004820152600b60248201526a4e6f2054656d706c61746560a81b6044820152606401610209565b50919050565b6000604051733d602d80600a3d3981f3363d3d373d3d3d363d7360601b81528260601b60148201526e5af43d82803e903d91602b57fd5bf360881b60288201526037816000f09150506001600160a01b03811661087d5761087d610d67565b919050565b6002818154811061089257600080fd5b6000918252602090912001546001600160a01b0316905081565b60005461010090046001600160a01b031633146108db5760405162461bcd60e51b815260040161020990610c09565b6108e4816108e7565b50565b600080546001600160a01b03838116610100818102610100600160a81b0319851617855560405193049190911692909183917f8be0079c531659141344cd1fd0a4f28419497f9722a3daafe3b4186f6b6457e091a35050565b60006001600160e01b031982166340925bc760e11b14806101d457506101d48260006307f5828d60e41b6001600160e01b0319831614806101d457506001600160e01b031982166301ffc9a760e01b146101d4565b6000602082840312156109a757600080fd5b81356001600160e01b0319811681146109bf57600080fd5b9392505050565b634e487b7160e01b600052604160045260246000fd5b600067ffffffffffffffff808411156109f7576109f76109c6565b604051601f8501601f19908116603f01168101908282118183101715610a1f57610a1f6109c6565b81604052809350858152868686011115610a3857600080fd5b858560208301376000602087830101525050509392505050565b600082601f830112610a6357600080fd5b6109bf838335602085016109dc565b80356001600160a01b038116811461087d57600080fd5b60008060408385031215610a9c57600080fd5b823567ffffffffffffffff811115610ab357600080fd5b610abf85828601610a52565b925050610ace60208401610a72565b90509250929050565b60008060008060808587031215610aed57600080fd5b843567ffffffffffffffff80821115610b0557600080fd5b610b1188838901610a52565b95506020870135915080821115610b2757600080fd5b610b3388838901610a52565b94506040870135915080821115610b4957600080fd5b610b5588838901610a52565b93506060870135915080821115610b6b57600080fd5b508501601f81018713610b7d57600080fd5b610b8c878235602084016109dc565b91505092959194509250565b600060208284031215610baa57600080fd5b6109bf82610a72565b600060208284031215610bc557600080fd5b813567ffffffffffffffff811115610bdc57600080fd5b610be884828501610a52565b949350505050565b600060208284031215610c0257600080fd5b5035919050565b6020808252600990820152682737ba1037bbb732b960b91b604082015260600190565b600060208284031215610c3e57600080fd5b815180151581146109bf57600080fd5b60005b83811015610c69578181015183820152602001610c51565b83811115610c78576000848401525b50505050565b60008251610c90818460208701610c4e565b9190910192915050565b600082821015610cba57634e487b7160e01b600052601160045260246000fd5b500390565b634e487b7160e01b600052603260045260246000fd5b60008151808452610ced816020860160208601610c4e565b601f01601f19169290920160200192915050565b608081526000610d146080830187610cd5565b8281036020840152610d268187610cd5565b6001600160a01b038616604085015283810360608501529050610d498185610cd5565b979650505050505050565b6020815260006109bf6020830184610cd5565b634e487b7160e01b600052600160045260246000fdfea264697066735822122067306ff84016a5e2affb381a1c7e6fa3e94e6e7208ca687ba88110ec9fda9f0a64736f6c63430008090033",
  "devdoc": {
    "kind": "dev",
    "methods": {
      "clone(address)": {
        "params": {
          "template_": ": template address"
        },
        "returns": {
          "clone_": ": clone address"
        }
      },
      "clone(string,string,string,bytes)": {
        "params": {
          "name": "name of Clone collection",
          "symbol": "symbol of Clone collection"
        },
        "returns": {
          "clone_": "Address of Clone collection"
        }
      },
      "setTemplate(string,address)": {
        "params": {
          "templateName_": "Name of the template",
          "template_": "Address of the template"
        }
      },
      "template(string)": {
        "params": {
          "templateName": ": template name"
        },
        "returns": {
          "template_": ": template address"
        }
      }
    },
    "title": "OpenFactory smartcontract",
    "version": 1
  },
  "userdoc": {
    "kind": "user",
    "methods": {
      "clone(address)": {
        "notice": "Clone template (via EIP-1167)"
      },
      "clone(string,string,string,bytes)": {
        "notice": "clone template"
      },
      "setTemplate(string,address)": {
        "notice": "Set Template by Name"
      },
      "template(string)": {
        "notice": "Get Template"
      }
    },
    "notice": "Factory for NFTs contracts: ERC721 or ERC1155Create new NFTs Collections smartcontracts by cloning templates",
    "version": 1
  },
  "storageLayout": {
    "storage": [
      {
        "astId": 5174,
        "contract": "contracts/next/OpenFactoryV3.sol:OpenFactoryV3",
        "label": "_openERC173Initialized",
        "offset": 0,
        "slot": "0",
        "type": "t_bool"
      },
      {
        "astId": 5176,
        "contract": "contracts/next/OpenFactoryV3.sol:OpenFactoryV3",
        "label": "_owner",
        "offset": 1,
        "slot": "0",
        "type": "t_address"
      },
      {
        "astId": 19849,
        "contract": "contracts/next/OpenFactoryV3.sol:OpenFactoryV3",
        "label": "_numTemplates",
        "offset": 0,
        "slot": "1",
        "type": "t_mapping(t_string_memory_ptr,t_uint256)"
      },
      {
        "astId": 19852,
        "contract": "contracts/next/OpenFactoryV3.sol:OpenFactoryV3",
        "label": "templates",
        "offset": 0,
        "slot": "2",
        "type": "t_array(t_address)dyn_storage"
      },
      {
        "astId": 19854,
        "contract": "contracts/next/OpenFactoryV3.sol:OpenFactoryV3",
        "label": "nftsResolver",
        "offset": 0,
        "slot": "3",
        "type": "t_address"
      }
    ],
    "types": {
      "t_address": {
        "encoding": "inplace",
        "label": "address",
        "numberOfBytes": "20"
      },
      "t_array(t_address)dyn_storage": {
        "base": "t_address",
        "encoding": "dynamic_array",
        "label": "address[]",
        "numberOfBytes": "32"
      },
      "t_bool": {
        "encoding": "inplace",
        "label": "bool",
        "numberOfBytes": "1"
      },
      "t_mapping(t_string_memory_ptr,t_uint256)": {
        "encoding": "mapping",
        "key": "t_string_memory_ptr",
        "label": "mapping(string => uint256)",
        "numberOfBytes": "32",
        "value": "t_uint256"
      },
      "t_string_memory_ptr": {
        "encoding": "bytes",
        "label": "string",
        "numberOfBytes": "32"
      },
      "t_uint256": {
        "encoding": "inplace",
        "label": "uint256",
        "numberOfBytes": "32"
      }
    }
  }
}