{
  "address": "0x6283DFffa6C5c74569B449BDF21e7624760B258A",
  "abi": [
    {
      "anonymous": false,
      "inputs": [
        {
          "indexed": true,
          "internalType": "address",
          "name": "owner",
          "type": "address"
        },
        {
          "indexed": true,
          "internalType": "address",
          "name": "approved",
          "type": "address"
        },
        {
          "indexed": true,
          "internalType": "uint256",
          "name": "tokenId",
          "type": "uint256"
        }
      ],
      "name": "Approval",
      "type": "event"
    },
    {
      "anonymous": false,
      "inputs": [
        {
          "indexed": true,
          "internalType": "address",
          "name": "owner",
          "type": "address"
        },
        {
          "indexed": true,
          "internalType": "address",
          "name": "operator",
          "type": "address"
        },
        {
          "indexed": false,
          "internalType": "bool",
          "name": "approved",
          "type": "bool"
        }
      ],
      "name": "ApprovalForAll",
      "type": "event"
    },
    {
      "anonymous": false,
      "inputs": [
        {
          "indexed": true,
          "internalType": "address",
          "name": "previousOwner",
          "type": "address"
        },
        {
          "indexed": true,
          "internalType": "address",
          "name": "newOwner",
          "type": "address"
        }
      ],
      "name": "OwnershipTransferred",
      "type": "event"
    },
    {
      "anonymous": false,
      "inputs": [
        {
          "indexed": false,
          "internalType": "uint256",
          "name": "tokenID",
          "type": "uint256"
        },
        {
          "indexed": false,
          "internalType": "uint256",
          "name": "price",
          "type": "uint256"
        },
        {
          "indexed": false,
          "internalType": "address",
          "name": "seller",
          "type": "address"
        },
        {
          "indexed": false,
          "internalType": "uint256",
          "name": "paid",
          "type": "uint256"
        },
        {
          "indexed": false,
          "internalType": "address",
          "name": "receiver",
          "type": "address"
        },
        {
          "indexed": false,
          "internalType": "uint256",
          "name": "royalties",
          "type": "uint256"
        },
        {
          "indexed": false,
          "internalType": "uint256",
          "name": "fee",
          "type": "uint256"
        },
        {
          "indexed": false,
          "internalType": "address",
          "name": "buyer",
          "type": "address"
        },
        {
          "indexed": false,
          "internalType": "uint256",
          "name": "unspent",
          "type": "uint256"
        }
      ],
      "name": "Pay",
      "type": "event"
    },
    {
      "anonymous": false,
      "inputs": [
        {
          "indexed": false,
          "internalType": "uint256",
          "name": "price",
          "type": "uint256"
        }
      ],
      "name": "SetDefaultPrice",
      "type": "event"
    },
    {
      "anonymous": false,
      "inputs": [
        {
          "indexed": false,
          "internalType": "address",
          "name": "receiver",
          "type": "address"
        },
        {
          "indexed": false,
          "internalType": "uint96",
          "name": "fee",
          "type": "uint96"
        }
      ],
      "name": "SetDefaultRoyalty",
      "type": "event"
    },
    {
      "anonymous": false,
      "inputs": [
        {
          "indexed": true,
          "internalType": "bool",
          "name": "paused",
          "type": "bool"
        },
        {
          "indexed": true,
          "internalType": "address",
          "name": "account",
          "type": "address"
        }
      ],
      "name": "SetPaused",
      "type": "event"
    },
    {
      "anonymous": false,
      "inputs": [
        {
          "indexed": false,
          "internalType": "uint256",
          "name": "tokenID",
          "type": "uint256"
        },
        {
          "indexed": false,
          "internalType": "uint256",
          "name": "price",
          "type": "uint256"
        }
      ],
      "name": "SetTokenPrice",
      "type": "event"
    },
    {
      "anonymous": false,
      "inputs": [
        {
          "indexed": false,
          "internalType": "uint256",
          "name": "tokenID",
          "type": "uint256"
        },
        {
          "indexed": false,
          "internalType": "address",
          "name": "receiver",
          "type": "address"
        },
        {
          "indexed": false,
          "internalType": "uint96",
          "name": "fee",
          "type": "uint96"
        }
      ],
      "name": "SetTokenRoyalty",
      "type": "event"
    },
    {
      "anonymous": false,
      "inputs": [
        {
          "indexed": true,
          "internalType": "address",
          "name": "from",
          "type": "address"
        },
        {
          "indexed": true,
          "internalType": "address",
          "name": "to",
          "type": "address"
        },
        {
          "indexed": true,
          "internalType": "uint256",
          "name": "tokenId",
          "type": "uint256"
        }
      ],
      "name": "Transfer",
      "type": "event"
    },
    {
      "inputs": [
        {
          "internalType": "address",
          "name": "spender",
          "type": "address"
        },
        {
          "internalType": "uint256",
          "name": "tokenID",
          "type": "uint256"
        }
      ],
      "name": "approve",
      "outputs": [],
      "stateMutability": "nonpayable",
      "type": "function"
    },
    {
      "inputs": [
        {
          "internalType": "address",
          "name": "owner",
          "type": "address"
        }
      ],
      "name": "balanceOf",
      "outputs": [
        {
          "internalType": "uint256",
          "name": "",
          "type": "uint256"
        }
      ],
      "stateMutability": "view",
      "type": "function"
    },
    {
      "inputs": [
        {
          "internalType": "uint256",
          "name": "tokenID",
          "type": "uint256"
        }
      ],
      "name": "burn",
      "outputs": [],
      "stateMutability": "nonpayable",
      "type": "function"
    },
    {
      "inputs": [
        {
          "internalType": "uint256",
          "name": "tokenID",
          "type": "uint256"
        }
      ],
      "name": "buy",
      "outputs": [],
      "stateMutability": "payable",
      "type": "function"
    },
    {
      "inputs": [
        {
          "internalType": "uint256",
          "name": "tokenID",
          "type": "uint256"
        }
      ],
      "name": "getApproved",
      "outputs": [
        {
          "internalType": "address",
          "name": "",
          "type": "address"
        }
      ],
      "stateMutability": "view",
      "type": "function"
    },
    {
      "inputs": [],
      "name": "getDefaultPrice",
      "outputs": [
        {
          "internalType": "uint256",
          "name": "",
          "type": "uint256"
        }
      ],
      "stateMutability": "view",
      "type": "function"
    },
    {
      "inputs": [],
      "name": "getDefaultRoyalty",
      "outputs": [
        {
          "internalType": "address",
          "name": "receiver",
          "type": "address"
        },
        {
          "internalType": "uint96",
          "name": "fee",
          "type": "uint96"
        }
      ],
      "stateMutability": "view",
      "type": "function"
    },
    {
      "inputs": [
        {
          "internalType": "uint256",
          "name": "tokenID",
          "type": "uint256"
        }
      ],
      "name": "getTokenPrice",
      "outputs": [
        {
          "internalType": "uint256",
          "name": "",
          "type": "uint256"
        }
      ],
      "stateMutability": "view",
      "type": "function"
    },
    {
      "inputs": [
        {
          "internalType": "uint256",
          "name": "tokenID",
          "type": "uint256"
        }
      ],
      "name": "getTokenRoyalty",
      "outputs": [
        {
          "internalType": "address",
          "name": "receiver",
          "type": "address"
        },
        {
          "internalType": "uint96",
          "name": "fee",
          "type": "uint96"
        }
      ],
      "stateMutability": "view",
      "type": "function"
    },
    {
      "inputs": [
        {
          "internalType": "string",
          "name": "name_",
          "type": "string"
        },
        {
          "internalType": "string",
          "name": "symbol_",
          "type": "string"
        },
        {
          "internalType": "address",
          "name": "owner_",
          "type": "address"
        },
        {
          "internalType": "bytes",
          "name": "params_",
          "type": "bytes"
        }
      ],
      "name": "initialize",
      "outputs": [],
      "stateMutability": "nonpayable",
      "type": "function"
    },
    {
      "inputs": [],
      "name": "initialized",
      "outputs": [
        {
          "internalType": "bool",
          "name": "",
          "type": "bool"
        }
      ],
      "stateMutability": "view",
      "type": "function"
    },
    {
      "inputs": [
        {
          "internalType": "address",
          "name": "owner",
          "type": "address"
        },
        {
          "internalType": "address",
          "name": "operator",
          "type": "address"
        }
      ],
      "name": "isApprovedForAll",
      "outputs": [
        {
          "internalType": "bool",
          "name": "",
          "type": "bool"
        }
      ],
      "stateMutability": "view",
      "type": "function"
    },
    {
      "inputs": [
        {
          "internalType": "address",
          "name": "minter_",
          "type": "address"
        },
        {
          "internalType": "string",
          "name": "tokenURI_",
          "type": "string"
        },
        {
          "internalType": "uint256",
          "name": "tokenPrice_",
          "type": "uint256"
        },
        {
          "internalType": "address",
          "name": "receiver_",
          "type": "address"
        },
        {
          "internalType": "uint96",
          "name": "fee_",
          "type": "uint96"
        }
      ],
      "name": "mint",
      "outputs": [
        {
          "internalType": "uint256",
          "name": "tokenID",
          "type": "uint256"
        }
      ],
      "stateMutability": "payable",
      "type": "function"
    },
    {
      "inputs": [
        {
          "internalType": "address",
          "name": "minter",
          "type": "address"
        },
        {
          "internalType": "string",
          "name": "tokenURI",
          "type": "string"
        }
      ],
      "name": "mint",
      "outputs": [
        {
          "internalType": "uint256",
          "name": "tokenID",
          "type": "uint256"
        }
      ],
      "stateMutability": "nonpayable",
      "type": "function"
    },
    {
      "inputs": [
        {
          "internalType": "string",
          "name": "tokenURI",
          "type": "string"
        }
      ],
      "name": "mint",
      "outputs": [
        {
          "internalType": "uint256",
          "name": "tokenID",
          "type": "uint256"
        }
      ],
      "stateMutability": "nonpayable",
      "type": "function"
    },
    {
      "inputs": [],
      "name": "name",
      "outputs": [
        {
          "internalType": "string",
          "name": "",
          "type": "string"
        }
      ],
      "stateMutability": "view",
      "type": "function"
    },
    {
      "inputs": [],
      "name": "open",
      "outputs": [
        {
          "internalType": "bool",
          "name": "",
          "type": "bool"
        }
      ],
      "stateMutability": "view",
      "type": "function"
    },
    {
      "inputs": [],
      "name": "owner",
      "outputs": [
        {
          "internalType": "address",
          "name": "",
          "type": "address"
        }
      ],
      "stateMutability": "view",
      "type": "function"
    },
    {
      "inputs": [
        {
          "internalType": "uint256",
          "name": "tokenID",
          "type": "uint256"
        }
      ],
      "name": "ownerOf",
      "outputs": [
        {
          "internalType": "address",
          "name": "",
          "type": "address"
        }
      ],
      "stateMutability": "view",
      "type": "function"
    },
    {
      "inputs": [],
      "name": "parent",
      "outputs": [
        {
          "internalType": "address",
          "name": "parent_",
          "type": "address"
        }
      ],
      "stateMutability": "view",
      "type": "function"
    },
    {
      "inputs": [],
      "name": "paused",
      "outputs": [
        {
          "internalType": "bool",
          "name": "",
          "type": "bool"
        }
      ],
      "stateMutability": "view",
      "type": "function"
    },
    {
      "inputs": [
        {
          "internalType": "uint256",
          "name": "tokenID",
          "type": "uint256"
        },
        {
          "internalType": "uint256",
          "name": "price",
          "type": "uint256"
        }
      ],
      "name": "royaltyInfo",
      "outputs": [
        {
          "internalType": "address",
          "name": "receiver",
          "type": "address"
        },
        {
          "internalType": "uint256",
          "name": "royaltyAmount",
          "type": "uint256"
        }
      ],
      "stateMutability": "view",
      "type": "function"
    },
    {
      "inputs": [
        {
          "internalType": "address",
          "name": "from",
          "type": "address"
        },
        {
          "internalType": "address",
          "name": "to",
          "type": "address"
        },
        {
          "internalType": "uint256",
          "name": "tokenID",
          "type": "uint256"
        }
      ],
      "name": "safeTransferFrom",
      "outputs": [],
      "stateMutability": "payable",
      "type": "function"
    },
    {
      "inputs": [
        {
          "internalType": "address",
          "name": "from",
          "type": "address"
        },
        {
          "internalType": "address",
          "name": "to",
          "type": "address"
        },
        {
          "internalType": "uint256",
          "name": "tokenID",
          "type": "uint256"
        },
        {
          "internalType": "bytes",
          "name": "data",
          "type": "bytes"
        }
      ],
      "name": "safeTransferFrom",
      "outputs": [],
      "stateMutability": "payable",
      "type": "function"
    },
    {
      "inputs": [
        {
          "internalType": "address",
          "name": "operator",
          "type": "address"
        },
        {
          "internalType": "bool",
          "name": "approved",
          "type": "bool"
        }
      ],
      "name": "setApprovalForAll",
      "outputs": [],
      "stateMutability": "nonpayable",
      "type": "function"
    },
    {
      "inputs": [
        {
          "internalType": "uint256",
          "name": "price",
          "type": "uint256"
        }
      ],
      "name": "setDefaultPrice",
      "outputs": [],
      "stateMutability": "nonpayable",
      "type": "function"
    },
    {
      "inputs": [
        {
          "internalType": "address",
          "name": "receiver",
          "type": "address"
        },
        {
          "internalType": "uint96",
          "name": "fee",
          "type": "uint96"
        }
      ],
      "name": "setDefaultRoyalty",
      "outputs": [],
      "stateMutability": "nonpayable",
      "type": "function"
    },
    {
      "inputs": [
        {
          "internalType": "uint256",
          "name": "tokenID",
          "type": "uint256"
        },
        {
          "internalType": "uint256",
          "name": "price",
          "type": "uint256"
        }
      ],
      "name": "setTokenPrice",
      "outputs": [],
      "stateMutability": "nonpayable",
      "type": "function"
    },
    {
      "inputs": [
        {
          "internalType": "uint256",
          "name": "tokenID",
          "type": "uint256"
        },
        {
          "internalType": "uint256",
          "name": "price",
          "type": "uint256"
        },
        {
          "internalType": "address",
          "name": "approved",
          "type": "address"
        },
        {
          "internalType": "enum IOpenMarketable.Approve",
          "name": "approveType",
          "type": "uint8"
        }
      ],
      "name": "setTokenPrice",
      "outputs": [],
      "stateMutability": "nonpayable",
      "type": "function"
    },
    {
      "inputs": [
        {
          "internalType": "uint256",
          "name": "tokenID",
          "type": "uint256"
        },
        {
          "internalType": "address",
          "name": "receiver",
          "type": "address"
        },
        {
          "internalType": "uint96",
          "name": "fee",
          "type": "uint96"
        }
      ],
      "name": "setTokenRoyalty",
      "outputs": [],
      "stateMutability": "nonpayable",
      "type": "function"
    },
    {
      "inputs": [
        {
          "internalType": "uint256",
          "name": "tokenID",
          "type": "uint256"
        },
        {
          "internalType": "address",
          "name": "receiver",
          "type": "address"
        }
      ],
      "name": "setTokenRoyaltyReceiver",
      "outputs": [],
      "stateMutability": "nonpayable",
      "type": "function"
    },
    {
      "inputs": [
        {
          "internalType": "bytes4",
          "name": "interfaceId",
          "type": "bytes4"
        }
      ],
      "name": "supportsInterface",
      "outputs": [
        {
          "internalType": "bool",
          "name": "",
          "type": "bool"
        }
      ],
      "stateMutability": "view",
      "type": "function"
    },
    {
      "inputs": [],
      "name": "symbol",
      "outputs": [
        {
          "internalType": "string",
          "name": "",
          "type": "string"
        }
      ],
      "stateMutability": "view",
      "type": "function"
    },
    {
      "inputs": [],
      "name": "template",
      "outputs": [
        {
          "internalType": "string",
          "name": "",
          "type": "string"
        }
      ],
      "stateMutability": "view",
      "type": "function"
    },
    {
      "inputs": [],
      "name": "togglePause",
      "outputs": [],
      "stateMutability": "nonpayable",
      "type": "function"
    },
    {
      "inputs": [
        {
          "internalType": "uint256",
          "name": "index",
          "type": "uint256"
        }
      ],
      "name": "tokenByIndex",
      "outputs": [
        {
          "internalType": "uint256",
          "name": "",
          "type": "uint256"
        }
      ],
      "stateMutability": "view",
      "type": "function"
    },
    {
      "inputs": [],
      "name": "tokenIdNext",
      "outputs": [
        {
          "internalType": "uint256",
          "name": "",
          "type": "uint256"
        }
      ],
      "stateMutability": "view",
      "type": "function"
    },
    {
      "inputs": [
        {
          "internalType": "address",
          "name": "owner",
          "type": "address"
        },
        {
          "internalType": "uint256",
          "name": "index",
          "type": "uint256"
        }
      ],
      "name": "tokenOfOwnerByIndex",
      "outputs": [
        {
          "internalType": "uint256",
          "name": "",
          "type": "uint256"
        }
      ],
      "stateMutability": "view",
      "type": "function"
    },
    {
      "inputs": [
        {
          "internalType": "uint256",
          "name": "tokenID",
          "type": "uint256"
        }
      ],
      "name": "tokenURI",
      "outputs": [
        {
          "internalType": "string",
          "name": "",
          "type": "string"
        }
      ],
      "stateMutability": "view",
      "type": "function"
    },
    {
      "inputs": [],
      "name": "totalSupply",
      "outputs": [
        {
          "internalType": "uint256",
          "name": "",
          "type": "uint256"
        }
      ],
      "stateMutability": "view",
      "type": "function"
    },
    {
      "inputs": [
        {
          "internalType": "address",
          "name": "to",
          "type": "address"
        },
        {
          "internalType": "uint256",
          "name": "tokenID",
          "type": "uint256"
        }
      ],
      "name": "transfer",
      "outputs": [],
      "stateMutability": "nonpayable",
      "type": "function"
    },
    {
      "inputs": [
        {
          "internalType": "address",
          "name": "from",
          "type": "address"
        },
        {
          "internalType": "address",
          "name": "to",
          "type": "address"
        },
        {
          "internalType": "uint256",
          "name": "tokenID",
          "type": "uint256"
        }
      ],
      "name": "transferFrom",
      "outputs": [],
      "stateMutability": "payable",
      "type": "function"
    },
    {
      "inputs": [
        {
          "internalType": "address",
          "name": "newOwner",
          "type": "address"
        }
      ],
      "name": "transferOwnership",
      "outputs": [],
      "stateMutability": "nonpayable",
      "type": "function"
    },
    {
      "inputs": [],
      "name": "version",
      "outputs": [
        {
          "internalType": "uint256",
          "name": "",
          "type": "uint256"
        }
      ],
      "stateMutability": "view",
      "type": "function"
    },
    {
      "inputs": [],
      "name": "withdraw",
      "outputs": [],
      "stateMutability": "nonpayable",
      "type": "function"
    },
    {
      "stateMutability": "payable",
      "type": "receive"
    }
  ],
  "transactionHash": "0xe0e10e44caf9136bb6255086d7902196b907ae51045bee2f175d39dfb25306d4",
  "args": [],
  "numDeployments": 13,
  "solcInputHash": "9ce8de54bb244d6f599acc5616a734ea",
  "bytecode": "0x608060405234801561001057600080fd5b506134c8806100206000396000f3fe6080604052600436106102765760003560e01c80636d3c7ec51161014f578063b88d4fde116100c1578063d96a094a1161007a578063d96a094a1461078e578063e985e9c5146107a1578063eb685c47146107ea578063ee8c8b631461080a578063f2fde38b1461082a578063fcfff16f1461084a57600080fd5b8063b88d4fde146106d9578063c457fb37146106ec578063c4ae316814610719578063c87b56dd1461072e578063d0def5211461074e578063d85d3d271461076e57600080fd5b80638cabe05a116101135780638cabe05a1461061c5780638da5cb5b1461064c57806395d89b411461066f578063a22cb46514610684578063a9059cbb146106a4578063b086613c146106c457600080fd5b80636d3c7ec5146105415780636f2ddd931461056157806370a0823114610576578063833b7b78146105965780638bbf58b31461060657600080fd5b80632f745c59116101e85780634f6ccce7116101ac5780634f6ccce71461049e57806354fd4d50146104be5780635944c753146104d45780635c975abb146104f457806360f96a8f1461050c5780636352211e1461052157600080fd5b80632f745c59146104235780633ccfd60b1461044357806342842e0e1461045857806342966c681461046b5780634472167b1461048b57600080fd5b80630c5597e41161023a5780630c5597e414610353578063158ef93e1461037357806318160ddd146103925780631eb40e21146103b157806323b872dd146103d15780632a55205a146103e457600080fd5b806301ffc9a71461028257806304634d8d146102b757806306fdde03146102d9578063081812fc146102fb578063095ea7b31461033357600080fd5b3661027d57005b600080fd5b34801561028e57600080fd5b506102a261029d366004612afe565b610864565b60405190151581526020015b60405180910390f35b3480156102c357600080fd5b506102d76102d2366004612b45565b61088f565b005b3480156102e557600080fd5b506102ee6108d5565b6040516102ae9190612bd6565b34801561030757600080fd5b5061031b610316366004612be9565b610967565b6040516001600160a01b0390911681526020016102ae565b34801561033f57600080fd5b506102d761034e366004612c02565b6109be565b34801561035f57600080fd5b506102d761036e366004612c2e565b610a82565b34801561037f57600080fd5b506013546102a290610100900460ff1681565b34801561039e57600080fd5b506008545b6040519081526020016102ae565b3480156103bd57600080fd5b506102d76103cc366004612d18565b610b16565b6102d76103df366004612db5565b610ba8565b3480156103f057600080fd5b506104046103ff366004612df6565b610bb8565b604080516001600160a01b0390931683526020830191909152016102ae565b34801561042f57600080fd5b506103a361043e366004612c02565b610c6e565b34801561044f57600080fd5b506102d7610cf5565b6102d7610466366004612db5565b610d53565b34801561047757600080fd5b506102d7610486366004612be9565b610d6e565b6103a3610499366004612e18565b610d9e565b3480156104aa57600080fd5b506103a36104b9366004612be9565b610e62565b3480156104ca57600080fd5b506103a360155481565b3480156104e057600080fd5b506102d76104ef366004612e99565b610ecc565b34801561050057600080fd5b5060135460ff166102a2565b34801561051857600080fd5b5061031b610f6a565b34801561052d57600080fd5b5061031b61053c366004612be9565b610fb3565b34801561054d57600080fd5b506102d761055c366004612be9565b611006565b34801561056d57600080fd5b506102ee61103e565b34801561058257600080fd5b506103a3610591366004612edb565b6110cc565b3480156105a257600080fd5b506105df6105b1366004612be9565b6000908152600f60205260409020546001600160a01b03811691600160a01b9091046001600160601b031690565b604080516001600160a01b0390931683526001600160601b039091166020830152016102ae565b34801561061257600080fd5b506103a360165481565b34801561062857600080fd5b50600e546001600160a01b03811690600160a01b90046001600160601b03166105df565b34801561065857600080fd5b50600c5461010090046001600160a01b031661031b565b34801561067b57600080fd5b506102ee611137565b34801561069057600080fd5b506102d761069f366004612f06565b611146565b3480156106b057600080fd5b506102d76106bf366004612c02565b6111b2565b3480156106d057600080fd5b50600d546103a3565b6102d76106e7366004612f34565b6111fe565b3480156106f857600080fd5b506103a3610707366004612be9565b60009081526011602052604090205490565b34801561072557600080fd5b506102d7611210565b34801561073a57600080fd5b506102ee610749366004612be9565b611251565b34801561075a57600080fd5b506103a3610769366004612f94565b611329565b34801561077a57600080fd5b506103a3610789366004612fe4565b6113a7565b6102d761079c366004612be9565b6113b8565b3480156107ad57600080fd5b506102a26107bc366004613019565b6001600160a01b03918216600090815260036020908152604080832093909416825291909152205460ff1690565b3480156107f657600080fd5b506102d7610805366004612df6565b611564565b34801561081657600080fd5b506102d7610825366004613047565b611594565b34801561083657600080fd5b506102d7610845366004612edb565b611613565b34801561085657600080fd5b506017546102a29060ff1681565b60006001600160e01b0319821663085fa7e160e11b148061088957506108898261164b565b92915050565b600c5461010090046001600160a01b031633146108c75760405162461bcd60e51b81526004016108be90613095565b60405180910390fd5b6108d18282611670565b5050565b6060600580546108e4906130b8565b80601f0160208091040260200160405190810160405280929190818152602001828054610910906130b8565b801561095d5780601f106109325761010080835404028352916020019161095d565b820191906000526020600020905b81548152906001019060200180831161094057829003601f168201915b5050505050905090565b60008181526020819052604081205482906001600160a01b031661099d5760405162461bcd60e51b81526004016108be906130ed565b6000838152600260205260409020546001600160a01b031691505b50919050565b6109c83382611738565b610a145760405162461bcd60e51b815260206004820152601c60248201527f4e6f7420746f6b656e206f776e6572206e6f72206f70657261746f720000000060448201526064016108be565b600081815260026020526040902080546001600160a01b0319166001600160a01b0384169081179091558190610a4982610fb3565b6001600160a01b03167f8c5be1e5ebec7d5bd14f71427d1e84f3dd0314c0f7b2291e5b200ac8c7c3b92560405160405180910390a45050565b60008281526020819052604090205482906001600160a01b0316610ab85760405162461bcd60e51b81526004016108be906130ed565b600c5461010090046001600160a01b03163314610ae75760405162461bcd60e51b81526004016108be90613095565b506000918252600f602052604090912080546001600160a01b0319166001600160a01b03909216919091179055565b600080600083806020019051810190610b2f9190613117565b92509250925060008060008086806020019051810190610b4f91906131ad565b935093509350935080600081518110610b6a57610b6a613290565b6020026020010151601760006101000a81548160ff021916908315150217905550610b9b8b8b8b8787878c8c611793565b5050505050505050505050565b610bb3838383611837565b505050565b60008082600160801b8110610bdf5760405162461bcd60e51b81526004016108be906132a6565b6000858152600f60209081526040918290208251808401909352546001600160a01b038116808452600160a01b9091046001600160601b031691830191909152610c53575060408051808201909152600e546001600160a01b0381168252600160a01b90046001600160601b031660208201525b610c61858260200151611a6d565b9051969095509350505050565b6000610c79836110cc565b8210610cb85760405162461bcd60e51b815260206004820152600e60248201526d496e76616c696420696e6465782160901b60448201526064016108be565b6001600160a01b0383166000908152600960205260409020805483908110610ce257610ce2613290565b9060005260206000200154905092915050565b600c5461010090046001600160a01b03163314610d245760405162461bcd60e51b81526004016108be90613095565b60405133904780156108fc02916000818181858888f19350505050158015610d50573d6000803e3d6000fd5b50565b610bb383838360405180602001604052806000815250611a96565b80610d793382611aee565b610d955760405162461bcd60e51b81526004016108be906132cd565b6108d182611b24565b60175460009060ff1680610dc25750600c546001600160a01b036101009091041633145b610dfb5760405162461bcd60e51b815260206004820152600a6024820152692737ba1036b4b73a32b960b11b60448201526064016108be565b60135460ff1615610e385760405162461bcd60e51b81526020600482015260076024820152665061757365642160c81b60448201526064016108be565b610e428686611329565b9050610e4e8185611b2d565b610e59818484611b99565b95945050505050565b6008546000908210610ea75760405162461bcd60e51b815260206004820152600e60248201526d496e76616c696420696e6465782160901b60448201526064016108be565b60088281548110610eba57610eba613290565b90600052602060002001549050919050565b60008381526020819052604090205483906001600160a01b0316610f025760405162461bcd60e51b81526004016108be906130ed565b600c5461010090046001600160a01b03163314610f315760405162461bcd60e51b81526004016108be90613095565b83610f3c3382611aee565b610f585760405162461bcd60e51b81526004016108be906132cd565b610f63858585611b99565b5050505050565b6000602d303b14610f7b5750600090565b6010306001600160a01b0316803b806020016040519081016040528181526000908060200190933c610fac90613304565b901c905090565b60008181526020819052604081205482906001600160a01b0316610fe95760405162461bcd60e51b81526004016108be906130ed565b50506000908152602081905260409020546001600160a01b031690565b600c5461010090046001600160a01b031633146110355760405162461bcd60e51b81526004016108be90613095565b610d5081611c7e565b6014805461104b906130b8565b80601f0160208091040260200160405190810160405280929190818152602001828054611077906130b8565b80156110c45780601f10611099576101008083540402835291602001916110c4565b820191906000526020600020905b8154815290600101906020018083116110a757829003601f168201915b505050505081565b60006001600160a01b03821661111b5760405162461bcd60e51b8152602060048201526014602482015273496e76616c6964207a65726f206164647265737360601b60448201526064016108be565b506001600160a01b031660009081526001602052604090205490565b6060600680546108e4906130b8565b3360008181526003602090815260408083206001600160a01b03871680855290835292819020805460ff191686151590811790915590519081529192917f17307eab39ab6107e8899845ad3d59bd9653f200f220920489ca2b5937696c31910160405180910390a35050565b60008181526020819052604090205481906001600160a01b03166111e85760405162461bcd60e51b81526004016108be906130ed565b6111f3826000611564565b610bb3338484610d53565b61120a84848484611a96565b50505050565b600c5461010090046001600160a01b0316331461123f5760405162461bcd60e51b81526004016108be90613095565b60135461124f9060ff1615611cde565b565b60008181526020819052604090205460609082906001600160a01b031661128a5760405162461bcd60e51b81526004016108be906130ed565b600083815260076020526040902080546112a3906130b8565b80601f01602080910402602001604051908101604052809291908181526020018280546112cf906130b8565b801561131c5780601f106112f15761010080835404028352916020019161131c565b820191906000526020600020905b8154815290600101906020018083116112ff57829003601f168201915b5050505050915050919050565b60175460009060ff168061134d5750600c546001600160a01b036101009091041633145b6113865760405162461bcd60e51b815260206004820152600a6024820152692737ba1036b4b73a32b960b11b60448201526064016108be565b601680549060006113968361333e565b919050559050610889838383611d23565b600061088933836000806000610d9e565b60008181526020819052604090205481906001600160a01b03166113ee5760405162461bcd60e51b81526004016108be906130ed565b600082815260116020526040902054806114385760405162461bcd60e51b815260206004820152600b60248201526a139bdd081d1bc81cd95b1b60aa1b60448201526064016108be565b8034101561147b5760405162461bcd60e51b815260206004820152601060248201526f4e6f7420656e6f7567682066756e647360801b60448201526064016108be565b600061148684610fb3565b90506001600160a01b03811661149e5761149e613359565b6001600160a01b0381163314156114ee5760405162461bcd60e51b8152602060048201526014602482015273416c726561647920746f6b656e206f776e65722160601b60448201526064016108be565b60405163095ea7b360e01b815233600482015260248101859052309063095ea7b390604401600060405180830381600087803b15801561152d57600080fd5b505af1158015611541573d6000803e3d6000fd5b50505050611550813386610d53565b505050600090815260116020526040812055565b8161156f3382611aee565b61158b5760405162461bcd60e51b81526004016108be906132cd565b610bb383836000805b8361159f3382611aee565b6115bb5760405162461bcd60e51b81526004016108be906132cd565b6115c58585611b2d565b60028260028111156115d9576115d961336f565b14156115ef576115ea836001611146565b610f63565b60018260028111156116035761160361336f565b1415610f6357610f6383866109be565b600c5461010090046001600160a01b031633146116425760405162461bcd60e51b81526004016108be90613095565b610d5081611d2e565b60006001600160e01b03198216639248994960e01b1480610889575061088982611d88565b6001600160601b0381166127108111156116c75760405162461bcd60e51b8152602060048201526018602482015277526f79616c7479206665652065786365656420707269636560401b60448201526064016108be565b6040805180820182526001600160a01b0385168082526001600160601b0385166020928301819052600160a01b81028217600e558351918252918101919091527fa1edde4ed5c1392c90dccd8e051a4080b761850e49a24c77d826348a51e1f8dc91015b60405180910390a1505050565b60008061174483610fb3565b9050836001600160a01b0316816001600160a01b0316148061178b57506001600160a01b0380821660009081526003602090815260408083209388168352929052205460ff165b949350505050565b60016016556040805180820190915260088152674f70656e4e46547360c01b60208201526117c2906004611dad565b6117cc8888611dfe565b6117d586611e55565b600d949094556040805180820182526001600160a01b039485168082526001600160601b039485166020928301819052600160a01b908102909117600e5582518084019093529290941680825294909216919092018190520217601255505050565b806118423382611aee565b61185e5760405162461bcd60e51b81526004016108be906132cd565b6001600160a01b0384166118b45760405162461bcd60e51b815260206004820152601a60248201527f5472616e736665722066726f6d207a65726f206164647265737300000000000060448201526064016108be565b6001600160a01b03831661190a5760405162461bcd60e51b815260206004820152601860248201527f5472616e7366657220746f207a65726f2061646472657373000000000000000060448201526064016108be565b61191382610fb3565b6001600160a01b0316846001600160a01b0316146119645760405162461bcd60e51b815260206004820152600e60248201526d233937b6903737ba1037bbb732b960911b60448201526064016108be565b61196f848484611e8e565b600082815260026020526040902080546001600160a01b03191690556001600160a01b0384811690841614611a26576001600160a01b038416600090815260016020819052604082208054919290916119c9908490613385565b90915550506001600160a01b038316600090815260016020819052604082208054919290916119f990849061339c565b9091555050600082815260208190526040902080546001600160a01b0319166001600160a01b0385161790555b81836001600160a01b0316856001600160a01b03167fddf252ad1be2c89b69c2b068fc378daa952ba7f163c4a11628f55a4df523b3ef60405160405180910390a450505050565b6000612710611a856001600160601b038416856133b4565b611a8f91906133d3565b9392505050565b611aa1848484611837565b611aad84848484611e99565b61120a5760405162461bcd60e51b81526020600482015260126024820152712737ba1022a9219b9918a932b1b2b4bb32b960711b60448201526064016108be565b6000611afa8383611738565b80611a8f5750826001600160a01b0316611b1383610967565b6001600160a01b0316149392505050565b610d5081611f47565b80600160801b8110611b515760405162461bcd60e51b81526004016108be906132a6565b60008381526011602090815260409182902084905581518581529081018490527f2f8c61aa79deaa9c961d54f640a154df4960a56a5989d25df0148be783dc3f5b910161172b565b6001600160601b038116612710811115611bf05760405162461bcd60e51b8152602060048201526018602482015277526f79616c7479206665652065786365656420707269636560401b60448201526064016108be565b6040805180820182526001600160a01b038581168083526001600160601b03868116602080860182815260008c8152600f835288902096519051909316600160a01b029290941691909117909355835188815291820152918201527f2595213009f64247e2789cf9981bcc53ee736a6aa52042a651aa1549ae6fff619060600160405180910390a150505050565b80600160801b8110611ca25760405162461bcd60e51b81526004016108be906132a6565b600d8290556040518281527f9f7a6492db3843bc01c0adb23cd27be964155c1d45c566f2ee32f28faf4eb6059060200160405180910390a15050565b6013805460ff1916821515908117909155604051339160ff161515907f8b265f737315073a655a642868ed756ba7e3b6c391b06dbbf70370aab7f7f06890600090a350565b610bb3838383611f6c565b600c80546001600160a01b03838116610100818102610100600160a81b031985161790945560405193909204169182907f8be0079c531659141344cd1fd0a4f28419497f9722a3daafe3b4186f6b6457e090600090a35050565b60006001600160e01b031982166350130d5360e01b1480610889575061088982611fc5565b601354610100900460ff1615611dd55760405162461bcd60e51b81526004016108be906133f5565b6013805461ff0019166101001790558151611df7906014906020850190612a19565b5060155550565b60045460ff1615611e215760405162461bcd60e51b81526004016108be906133f5565b6004805460ff191660011790558151611e41906005906020850190612a19565b508051610bb3906006906020840190612a19565b600c5460ff1615611e785760405162461bcd60e51b81526004016108be906133f5565b600c805460ff19166001179055610d5081611d2e565b610bb3838383611fea565b60006001600160a01b0384163b1580610e595750604051630a85bd0160e11b808252906001600160a01b0386169063150b7a0290611ee19033908a9089908990600401613422565b602060405180830381600087803b158015611efb57600080fd5b505af1158015611f0f573d6000803e3d6000fd5b505050506040513d601f19601f82011682018060405250810190611f33919061345f565b6001600160e01b0319161495945050505050565b6000818152600f602090815260408083208390556011909152812055610d5081612023565b600e54611f959082906001600160a01b03811690600160a01b90046001600160601b0316611b99565b611fba81600d5485611fb5600c546001600160a01b036101009091041690565b6120ee565b610bb38383836124ba565b60006001600160e01b031982166398396bd360e01b1480610889575061088982612513565b60008181526011602052604090205461200990829084611fb583610fb3565b600081815260116020526040812055610bb3838383612538565b600061202e82610fb3565b905061203a818361254c565b6000828152600b602052604081205460085490919061205b90600190613385565b905060006008828154811061207257612072613290565b6000918252602080832090910154808352600b9091526040808320869055878352822091909155600880549192508291859081106120b2576120b2613290565b60009182526020909120015560088054806120cf576120cf61347c565b60019003818190600052602060002001600090559055610f638561265a565b60105460ff16156121305760405162461bcd60e51b815260206004820152600c60248201526b4e6f2072652d656e7472792160a01b60448201526064016108be565b6010805460ff191660011790556001600160a01b0382166121835760405162461bcd60e51b815260206004820152600d60248201526c24b73b30b634b210313abcb2b960991b60448201526064016108be565b6001600160a01b0381166121ca5760405162461bcd60e51b815260206004820152600e60248201526d24b73b30b634b21039b2b63632b960911b60448201526064016108be565b6000808080348715806121ee5750856001600160a01b0316876001600160a01b0316145b6123c357873410156122355760405162461bcd60e51b815260206004820152601060248201526f4e6f7420656e6f7567682066756e647360801b60448201526064016108be565b34156123c357601254612259908990600160a01b90046001600160601b0316611a6d565b92506122658989610bb8565b90955093506001600160a01b03851661227d57600093505b87612288848661339c565b11156122ca5760405162461bcd60e51b8152602060048201526011602482015270496e76616c696420726f79616c7469657360781b60448201526064016108be565b6122d4838561339c565b6122de9089613385565b9150811561232b576122f08282613385565b6040519091506001600160a01b0387169083156108fc029084906000818181858888f19350505050158015612329573d6000803e3d6000fd5b505b83156123765761233b8482613385565b6040519091506001600160a01b0386169085156108fc029086906000818181858888f19350505050158015612374573d6000803e3d6000fd5b505b82156123c3576123868382613385565b6012546040519192506001600160a01b03169084156108fc029085906000818181858888f193505050501580156123c1573d6000803e3d6000fd5b505b3481846123d0878661339c565b6123da919061339c565b6123e4919061339c565b146123f1576123f1613359565b801561242f576040516001600160a01b0388169082156108fc029083906000818181858888f1935050505015801561242d573d6000803e3d6000fd5b505b604080518a8152602081018a90526001600160a01b038881168284015260608201859052878116608083015260a0820187905260c08201869052891660e0820152610100810183905290517f3fd8cbcd9af698ecb35353cccbfbb5f149fbcfcfe43f043bbfc95c3feb2307b8918190036101200190a150506010805460ff1916905550505050505050565b6124c4838261267a565b600880546000838152600b60205260408120829055600182018355919091527ff3f7a9fe364faab93b216da50a3214154f22a0a2b415b23a84c8169e8b636ee301819055610bb38383836126b8565b60006001600160e01b03198216637e2463f960e01b14806108895750610889826126e3565b612542838261254c565b610bb3828261267a565b6000818152600a6020526040812054906001612567856110cc565b6125719190613385565b9050808214612608576001600160a01b03841660009081526009602052604081208054839081106125a4576125a4613290565b906000526020600020015490508060096000876001600160a01b03166001600160a01b0316815260200190815260200160002084815481106125e8576125e8613290565b6000918252602080832090910192909255918252600a9052604090208290555b6000838152600a602090815260408083208390556001600160a01b03871683526009909152902080548061263e5761263e61347c565b6001900381819060005260206000200160009055905550505050565b600081815260076020526040812061267191612a9d565b610d5081612708565b6001600160a01b0390911660009081526009602081815260408084208054868652600a84529185208290559282526001810183559183529091200155565b600081815260076020908152604090912083516126d792850190612a19565b50610bb38383836127f9565b600063152a902d60e11b6001600160e01b031983161480610889575061088982612984565b600061271382610fb3565b90506001600160a01b03811661273b5760405162461bcd60e51b81526004016108be906130ed565b6001600160a01b03811660009081526001602052604090205461276057612760613359565b6001600160a01b0381166000908152600160208190526040822080549192909161278b908490613385565b9091555050600082815260026020908152604080832080546001600160a01b0319908116909155918390528083208054909216909155518391906001600160a01b038416907fddf252ad1be2c89b69c2b068fc378daa952ba7f163c4a11628f55a4df523b3ef908390a45050565b6001600160a01b0383166128465760405162461bcd60e51b81526020600482015260146024820152734d696e7420746f207a65726f206164647265737360601b60448201526064016108be565b6000818152602081905260409020546001600160a01b0316156128a25760405162461bcd60e51b8152602060048201526014602482015273151bdad95b88185b1c9958591e481b5a5b9d195960621b60448201526064016108be565b6001600160a01b038316600090815260016020819052604082208054919290916128cd90849061339c565b909155505060008181526020819052604080822080546001600160a01b0319166001600160a01b03871690811790915590518392907fddf252ad1be2c89b69c2b068fc378daa952ba7f163c4a11628f55a4df523b3ef908290a46129436000848360405180602001604052806000815250611e99565b610bb35760405162461bcd60e51b8152602060048201526012602482015271139bdd08115490cdcc8c549958d95a5d995960721b60448201526064016108be565b60006307f5828d60e41b6001600160e01b031983161480610889575061088982600063780e9d6360e01b6001600160e01b0319831614806108895750610889826000635b5e139f60e01b6001600160e01b03198316148061088957506108898260006380ac58cd60e01b6001600160e01b03198316148061088957506001600160e01b031982166301ffc9a760e01b14610889565b828054612a25906130b8565b90600052602060002090601f016020900481019282612a475760008555612a8d565b82601f10612a6057805160ff1916838001178555612a8d565b82800160010185558215612a8d579182015b82811115612a8d578251825591602001919060010190612a72565b50612a99929150612ad3565b5090565b508054612aa9906130b8565b6000825580601f10612ab9575050565b601f016020900490600052602060002090810190610d5091905b5b80821115612a995760008155600101612ad4565b6001600160e01b031981168114610d5057600080fd5b600060208284031215612b1057600080fd5b8135611a8f81612ae8565b6001600160a01b0381168114610d5057600080fd5b6001600160601b0381168114610d5057600080fd5b60008060408385031215612b5857600080fd5b8235612b6381612b1b565b91506020830135612b7381612b30565b809150509250929050565b60005b83811015612b99578181015183820152602001612b81565b8381111561120a5750506000910152565b60008151808452612bc2816020860160208601612b7e565b601f01601f19169290920160200192915050565b602081526000611a8f6020830184612baa565b600060208284031215612bfb57600080fd5b5035919050565b60008060408385031215612c1557600080fd5b8235612c2081612b1b565b946020939093013593505050565b60008060408385031215612c4157600080fd5b823591506020830135612b7381612b1b565b634e487b7160e01b600052604160045260246000fd5b604051601f8201601f1916810167ffffffffffffffff81118282101715612c9257612c92612c53565b604052919050565b600067ffffffffffffffff821115612cb457612cb4612c53565b50601f01601f191660200190565b600082601f830112612cd357600080fd5b8135612ce6612ce182612c9a565b612c69565b818152846020838601011115612cfb57600080fd5b816020850160208301376000918101602001919091529392505050565b60008060008060808587031215612d2e57600080fd5b843567ffffffffffffffff80821115612d4657600080fd5b612d5288838901612cc2565b95506020870135915080821115612d6857600080fd5b612d7488838901612cc2565b945060408701359150612d8682612b1b565b90925060608601359080821115612d9c57600080fd5b50612da987828801612cc2565b91505092959194509250565b600080600060608486031215612dca57600080fd5b8335612dd581612b1b565b92506020840135612de581612b1b565b929592945050506040919091013590565b60008060408385031215612e0957600080fd5b50508035926020909101359150565b600080600080600060a08688031215612e3057600080fd5b8535612e3b81612b1b565b9450602086013567ffffffffffffffff811115612e5757600080fd5b612e6388828901612cc2565b945050604086013592506060860135612e7b81612b1b565b91506080860135612e8b81612b30565b809150509295509295909350565b600080600060608486031215612eae57600080fd5b833592506020840135612ec081612b1b565b91506040840135612ed081612b30565b809150509250925092565b600060208284031215612eed57600080fd5b8135611a8f81612b1b565b8015158114610d5057600080fd5b60008060408385031215612f1957600080fd5b8235612f2481612b1b565b91506020830135612b7381612ef8565b60008060008060808587031215612f4a57600080fd5b8435612f5581612b1b565b93506020850135612f6581612b1b565b925060408501359150606085013567ffffffffffffffff811115612f8857600080fd5b612da987828801612cc2565b60008060408385031215612fa757600080fd5b8235612fb281612b1b565b9150602083013567ffffffffffffffff811115612fce57600080fd5b612fda85828601612cc2565b9150509250929050565b600060208284031215612ff657600080fd5b813567ffffffffffffffff81111561300d57600080fd5b61178b84828501612cc2565b6000806040838503121561302c57600080fd5b823561303781612b1b565b91506020830135612b7381612b1b565b6000806000806080858703121561305d57600080fd5b8435935060208501359250604085013561307681612b1b565b915060608501356003811061308a57600080fd5b939692955090935050565b6020808252600990820152682737ba1037bbb732b960b91b604082015260600190565b600181811c908216806130cc57607f821691505b602082108114156109b857634e487b7160e01b600052602260045260246000fd5b60208082526010908201526f125b9d985b1a59081d1bdad95b88125160821b604082015260600190565b60008060006060848603121561312c57600080fd5b835167ffffffffffffffff81111561314357600080fd5b8401601f8101861361315457600080fd5b8051613162612ce182612c9a565b81815287602083850101111561317757600080fd5b613188826020830160208601612b7e565b809550505050602084015161319c81612b1b565b6040850151909250612ed081612b30565b600080600080608085870312156131c357600080fd5b845193506020808601516131d681612b1b565b60408701519094506131e781612b30565b606087015190935067ffffffffffffffff8082111561320557600080fd5b818801915088601f83011261321957600080fd5b81518181111561322b5761322b612c53565b8060051b915061323c848301612c69565b818152918301840191848101908b84111561325657600080fd5b938501935b83851015613280578451925061327083612ef8565b828252938501939085019061325b565b989b979a50959850505050505050565b634e487b7160e01b600052603260045260246000fd5b6020808252600d908201526c546f6f20657870656e7369766560981b604082015260600190565b6020808252601c908201527f4e6f7420746f6b656e206f776e6572206e6f7220617070726f76656400000000604082015260600190565b805160208083015191908110156109b85760001960209190910360031b1b16919050565b634e487b7160e01b600052601160045260246000fd5b600060001982141561335257613352613328565b5060010190565b634e487b7160e01b600052600160045260246000fd5b634e487b7160e01b600052602160045260246000fd5b60008282101561339757613397613328565b500390565b600082198211156133af576133af613328565b500190565b60008160001904831182151516156133ce576133ce613328565b500290565b6000826133f057634e487b7160e01b600052601260045260246000fd5b500490565b602080825260139082015272105b1c9958591e481a5b9a5d1a585b1a5e9959606a1b604082015260600190565b6001600160a01b038581168252841660208201526040810183905260806060820181905260009061345590830184612baa565b9695505050505050565b60006020828403121561347157600080fd5b8151611a8f81612ae8565b634e487b7160e01b600052603160045260246000fdfea26469706673582212206dceffe3b2b6a4149e361fdf9e8b0f67f03dc7aece7e31e856e7861dae75273b64736f6c63430008090033",
  "devdoc": {
    "kind": "dev",
    "methods": {
      "burn(uint256)": {
        "params": {
          "tokenID": "tokenID of NFT to burn"
        }
      },
      "getDefaultRoyalty()": {
        "returns": {
          "fee": ": fee Numerator, less than 10_000",
          "receiver": ": address of the royalty receiver, or address(0) to reset"
        }
      },
      "getTokenRoyalty(uint256)": {
        "params": {
          "tokenID": ": token ID"
        },
        "returns": {
          "fee": ": fee Numerator, less than 10_000",
          "receiver": ": address of the royalty receiver, or address(0) to reset"
        }
      },
      "setDefaultPrice(uint256)": {
        "params": {
          "price": ": default price in wei"
        }
      },
      "setDefaultRoyalty(address,uint96)": {
        "params": {
          "fee": ": fee Numerator, less than 10000",
          "receiver": ": address of the royalty receiver, or address(0) to reset"
        }
      },
      "setTokenPrice(uint256,uint256)": {
        "params": {
          "price": ": token price in wei",
          "tokenID": ": token ID"
        }
      },
      "setTokenPrice(uint256,uint256,address,uint8)": {
        "params": {
          "price": ": token price in wei",
          "tokenID": ": token ID"
        }
      },
      "setTokenRoyalty(uint256,address,uint96)": {
        "params": {
          "fee": ": fee Numerator, less than 10_000",
          "receiver": ": address of the royalty receiver, or address(0) to reset",
          "tokenID": ": token ID"
        }
      },
      "setTokenRoyaltyReceiver(uint256,address)": {
        "params": {
          "receiver": ": address of the royalty receiver, or address(0) to reset",
          "tokenID": ": token ID"
        }
      },
      "supportsInterface(bytes4)": {
        "params": {
          "interfaceId": "interfaceId to test"
        }
      }
    },
    "title": "OpenNFTs smartcontract",
    "version": 1
  },
  "userdoc": {
    "kind": "user",
    "methods": {
      "burn(uint256)": {
        "notice": "burn NFT"
      },
      "getDefaultRoyalty()": {
        "notice": "GET default royalty info"
      },
      "getTokenRoyalty(uint256)": {
        "notice": "GET token royalty info"
      },
      "open()": {
        "notice": "Mint NFT allowed to everyone or only collection owner"
      },
      "setDefaultPrice(uint256)": {
        "notice": "SET default mint price"
      },
      "setDefaultRoyalty(address,uint96)": {
        "notice": "SET default royalty info"
      },
      "setTokenPrice(uint256,uint256)": {
        "notice": "SET token price"
      },
      "setTokenPrice(uint256,uint256,address,uint8)": {
        "notice": "SET token price"
      },
      "setTokenRoyalty(uint256,address,uint96)": {
        "notice": "SET token royalty info"
      },
      "setTokenRoyaltyReceiver(uint256,address)": {
        "notice": "SET token royalty receiver"
      },
      "supportsInterface(bytes4)": {
        "notice": "test if this interface is supported"
      },
      "tokenIdNext()": {
        "notice": "tokenID of next minted NFT"
      },
      "withdraw()": {
        "notice": "withdraw eth"
      }
    },
    "version": 1
  },
  "storageLayout": {
    "storage": [
      {
        "astId": 5426,
        "contract": "contracts/next/OpenAutoMarket.sol:OpenAutoMarket",
        "label": "_owners",
        "offset": 0,
        "slot": "0",
        "type": "t_mapping(t_uint256,t_address)"
      },
      {
        "astId": 5430,
        "contract": "contracts/next/OpenAutoMarket.sol:OpenAutoMarket",
        "label": "_balances",
        "offset": 0,
        "slot": "1",
        "type": "t_mapping(t_address,t_uint256)"
      },
      {
        "astId": 5434,
        "contract": "contracts/next/OpenAutoMarket.sol:OpenAutoMarket",
        "label": "_tokenApprovals",
        "offset": 0,
        "slot": "2",
        "type": "t_mapping(t_uint256,t_address)"
      },
      {
        "astId": 5440,
        "contract": "contracts/next/OpenAutoMarket.sol:OpenAutoMarket",
        "label": "_operatorApprovals",
        "offset": 0,
        "slot": "3",
        "type": "t_mapping(t_address,t_mapping(t_address,t_bool))"
      },
      {
        "astId": 6349,
        "contract": "contracts/next/OpenAutoMarket.sol:OpenAutoMarket",
        "label": "_openERC721MetadataInitialized",
        "offset": 0,
        "slot": "4",
        "type": "t_bool"
      },
      {
        "astId": 6351,
        "contract": "contracts/next/OpenAutoMarket.sol:OpenAutoMarket",
        "label": "_name",
        "offset": 0,
        "slot": "5",
        "type": "t_string_storage"
      },
      {
        "astId": 6353,
        "contract": "contracts/next/OpenAutoMarket.sol:OpenAutoMarket",
        "label": "_symbol",
        "offset": 0,
        "slot": "6",
        "type": "t_string_storage"
      },
      {
        "astId": 6357,
        "contract": "contracts/next/OpenAutoMarket.sol:OpenAutoMarket",
        "label": "_tokenURIs",
        "offset": 0,
        "slot": "7",
        "type": "t_mapping(t_uint256,t_string_storage)"
      },
      {
        "astId": 6026,
        "contract": "contracts/next/OpenAutoMarket.sol:OpenAutoMarket",
        "label": "_allTokens",
        "offset": 0,
        "slot": "8",
        "type": "t_array(t_uint256)dyn_storage"
      },
      {
        "astId": 6031,
        "contract": "contracts/next/OpenAutoMarket.sol:OpenAutoMarket",
        "label": "_ownedTokens",
        "offset": 0,
        "slot": "9",
        "type": "t_mapping(t_address,t_array(t_uint256)dyn_storage)"
      },
      {
        "astId": 6035,
        "contract": "contracts/next/OpenAutoMarket.sol:OpenAutoMarket",
        "label": "_ownedTokensIndex",
        "offset": 0,
        "slot": "10",
        "type": "t_mapping(t_uint256,t_uint256)"
      },
      {
        "astId": 6039,
        "contract": "contracts/next/OpenAutoMarket.sol:OpenAutoMarket",
        "label": "_allTokensIndex",
        "offset": 0,
        "slot": "11",
        "type": "t_mapping(t_uint256,t_uint256)"
      },
      {
        "astId": 5174,
        "contract": "contracts/next/OpenAutoMarket.sol:OpenAutoMarket",
        "label": "_openERC173Initialized",
        "offset": 0,
        "slot": "12",
        "type": "t_bool"
      },
      {
        "astId": 5176,
        "contract": "contracts/next/OpenAutoMarket.sol:OpenAutoMarket",
        "label": "_owner",
        "offset": 1,
        "slot": "12",
        "type": "t_address"
      },
      {
        "astId": 5287,
        "contract": "contracts/next/OpenAutoMarket.sol:OpenAutoMarket",
        "label": "_defaultPrice",
        "offset": 0,
        "slot": "13",
        "type": "t_uint256"
      },
      {
        "astId": 5290,
        "contract": "contracts/next/OpenAutoMarket.sol:OpenAutoMarket",
        "label": "_defaultRoyalty",
        "offset": 0,
        "slot": "14",
        "type": "t_struct(Receiver)5285_storage"
      },
      {
        "astId": 5295,
        "contract": "contracts/next/OpenAutoMarket.sol:OpenAutoMarket",
        "label": "_tokenRoyalty",
        "offset": 0,
        "slot": "15",
        "type": "t_mapping(t_uint256,t_struct(Receiver)5285_storage)"
      },
      {
        "astId": 6519,
        "contract": "contracts/next/OpenAutoMarket.sol:OpenAutoMarket",
        "label": "_locked",
        "offset": 0,
        "slot": "16",
        "type": "t_bool"
      },
      {
        "astId": 6559,
        "contract": "contracts/next/OpenAutoMarket.sol:OpenAutoMarket",
        "label": "_tokenPrice",
        "offset": 0,
        "slot": "17",
        "type": "t_mapping(t_uint256,t_uint256)"
      },
      {
        "astId": 6562,
        "contract": "contracts/next/OpenAutoMarket.sol:OpenAutoMarket",
        "label": "_treasury",
        "offset": 0,
        "slot": "18",
        "type": "t_struct(Receiver)5285_storage"
      },
      {
        "astId": 7512,
        "contract": "contracts/next/OpenAutoMarket.sol:OpenAutoMarket",
        "label": "_paused",
        "offset": 0,
        "slot": "19",
        "type": "t_bool"
      },
      {
        "astId": 4987,
        "contract": "contracts/next/OpenAutoMarket.sol:OpenAutoMarket",
        "label": "initialized",
        "offset": 1,
        "slot": "19",
        "type": "t_bool"
      },
      {
        "astId": 4989,
        "contract": "contracts/next/OpenAutoMarket.sol:OpenAutoMarket",
        "label": "template",
        "offset": 0,
        "slot": "20",
        "type": "t_string_storage"
      },
      {
        "astId": 4991,
        "contract": "contracts/next/OpenAutoMarket.sol:OpenAutoMarket",
        "label": "version",
        "offset": 0,
        "slot": "21",
        "type": "t_uint256"
      },
      {
        "astId": 7303,
        "contract": "contracts/next/OpenAutoMarket.sol:OpenAutoMarket",
        "label": "tokenIdNext",
        "offset": 0,
        "slot": "22",
        "type": "t_uint256"
      },
      {
        "astId": 19143,
        "contract": "contracts/next/OpenAutoMarket.sol:OpenAutoMarket",
        "label": "open",
        "offset": 0,
        "slot": "23",
        "type": "t_bool"
      }
    ],
    "types": {
      "t_address": {
        "encoding": "inplace",
        "label": "address",
        "numberOfBytes": "20"
      },
      "t_array(t_uint256)dyn_storage": {
        "base": "t_uint256",
        "encoding": "dynamic_array",
        "label": "uint256[]",
        "numberOfBytes": "32"
      },
      "t_bool": {
        "encoding": "inplace",
        "label": "bool",
        "numberOfBytes": "1"
      },
      "t_mapping(t_address,t_array(t_uint256)dyn_storage)": {
        "encoding": "mapping",
        "key": "t_address",
        "label": "mapping(address => uint256[])",
        "numberOfBytes": "32",
        "value": "t_array(t_uint256)dyn_storage"
      },
      "t_mapping(t_address,t_bool)": {
        "encoding": "mapping",
        "key": "t_address",
        "label": "mapping(address => bool)",
        "numberOfBytes": "32",
        "value": "t_bool"
      },
      "t_mapping(t_address,t_mapping(t_address,t_bool))": {
        "encoding": "mapping",
        "key": "t_address",
        "label": "mapping(address => mapping(address => bool))",
        "numberOfBytes": "32",
        "value": "t_mapping(t_address,t_bool)"
      },
      "t_mapping(t_address,t_uint256)": {
        "encoding": "mapping",
        "key": "t_address",
        "label": "mapping(address => uint256)",
        "numberOfBytes": "32",
        "value": "t_uint256"
      },
      "t_mapping(t_uint256,t_address)": {
        "encoding": "mapping",
        "key": "t_uint256",
        "label": "mapping(uint256 => address)",
        "numberOfBytes": "32",
        "value": "t_address"
      },
      "t_mapping(t_uint256,t_string_storage)": {
        "encoding": "mapping",
        "key": "t_uint256",
        "label": "mapping(uint256 => string)",
        "numberOfBytes": "32",
        "value": "t_string_storage"
      },
      "t_mapping(t_uint256,t_struct(Receiver)5285_storage)": {
        "encoding": "mapping",
        "key": "t_uint256",
        "label": "mapping(uint256 => struct OpenERC2981.Receiver)",
        "numberOfBytes": "32",
        "value": "t_struct(Receiver)5285_storage"
      },
      "t_mapping(t_uint256,t_uint256)": {
        "encoding": "mapping",
        "key": "t_uint256",
        "label": "mapping(uint256 => uint256)",
        "numberOfBytes": "32",
        "value": "t_uint256"
      },
      "t_string_storage": {
        "encoding": "bytes",
        "label": "string",
        "numberOfBytes": "32"
      },
      "t_struct(Receiver)5285_storage": {
        "encoding": "inplace",
        "label": "struct OpenERC2981.Receiver",
        "members": [
          {
            "astId": 5282,
            "contract": "contracts/next/OpenAutoMarket.sol:OpenAutoMarket",
            "label": "account",
            "offset": 0,
            "slot": "0",
            "type": "t_address"
          },
          {
            "astId": 5284,
            "contract": "contracts/next/OpenAutoMarket.sol:OpenAutoMarket",
            "label": "fee",
            "offset": 20,
            "slot": "0",
            "type": "t_uint96"
          }
        ],
        "numberOfBytes": "32"
      },
      "t_uint256": {
        "encoding": "inplace",
        "label": "uint256",
        "numberOfBytes": "32"
      },
      "t_uint96": {
        "encoding": "inplace",
        "label": "uint96",
        "numberOfBytes": "12"
      }
    }
  }
}