{
  "address": "0x39F3Ad85CAbba0630E2875379c8334Ee3C5F87b2",
  "abi": [
    {
      "anonymous": false,
      "inputs": [
        {
          "indexed": true,
          "internalType": "address",
          "name": "owner",
          "type": "address"
        },
        {
          "indexed": true,
          "internalType": "address",
          "name": "approved",
          "type": "address"
        },
        {
          "indexed": true,
          "internalType": "uint256",
          "name": "tokenId",
          "type": "uint256"
        }
      ],
      "name": "Approval",
      "type": "event"
    },
    {
      "anonymous": false,
      "inputs": [
        {
          "indexed": true,
          "internalType": "address",
          "name": "owner",
          "type": "address"
        },
        {
          "indexed": true,
          "internalType": "address",
          "name": "operator",
          "type": "address"
        },
        {
          "indexed": false,
          "internalType": "bool",
          "name": "approved",
          "type": "bool"
        }
      ],
      "name": "ApprovalForAll",
      "type": "event"
    },
    {
      "anonymous": false,
      "inputs": [
        {
          "indexed": true,
          "internalType": "address",
          "name": "previousOwner",
          "type": "address"
        },
        {
          "indexed": true,
          "internalType": "address",
          "name": "newOwner",
          "type": "address"
        }
      ],
      "name": "OwnershipTransferred",
      "type": "event"
    },
    {
      "anonymous": false,
      "inputs": [
        {
          "indexed": true,
          "internalType": "bool",
          "name": "paused",
          "type": "bool"
        },
        {
          "indexed": true,
          "internalType": "address",
          "name": "account",
          "type": "address"
        }
      ],
      "name": "SetPaused",
      "type": "event"
    },
    {
      "anonymous": false,
      "inputs": [
        {
          "indexed": true,
          "internalType": "address",
          "name": "from",
          "type": "address"
        },
        {
          "indexed": true,
          "internalType": "address",
          "name": "to",
          "type": "address"
        },
        {
          "indexed": true,
          "internalType": "uint256",
          "name": "tokenId",
          "type": "uint256"
        }
      ],
      "name": "Transfer",
      "type": "event"
    },
    {
      "inputs": [
        {
          "internalType": "address",
          "name": "spender",
          "type": "address"
        },
        {
          "internalType": "uint256",
          "name": "tokenID",
          "type": "uint256"
        }
      ],
      "name": "approve",
      "outputs": [],
      "stateMutability": "nonpayable",
      "type": "function"
    },
    {
      "inputs": [
        {
          "internalType": "address",
          "name": "owner",
          "type": "address"
        }
      ],
      "name": "balanceOf",
      "outputs": [
        {
          "internalType": "uint256",
          "name": "",
          "type": "uint256"
        }
      ],
      "stateMutability": "view",
      "type": "function"
    },
    {
      "inputs": [
        {
          "internalType": "uint256",
          "name": "tokenID",
          "type": "uint256"
        }
      ],
      "name": "burn",
      "outputs": [],
      "stateMutability": "nonpayable",
      "type": "function"
    },
    {
      "inputs": [
        {
          "internalType": "uint256",
          "name": "tokenID",
          "type": "uint256"
        },
        {
          "internalType": "uint256",
          "name": "cid",
          "type": "uint256"
        }
      ],
      "name": "claim",
      "outputs": [],
      "stateMutability": "nonpayable",
      "type": "function"
    },
    {
      "inputs": [
        {
          "internalType": "uint256",
          "name": "tokenID",
          "type": "uint256"
        }
      ],
      "name": "getApproved",
      "outputs": [
        {
          "internalType": "address",
          "name": "",
          "type": "address"
        }
      ],
      "stateMutability": "view",
      "type": "function"
    },
    {
      "inputs": [
        {
          "internalType": "uint256",
          "name": "tokenID",
          "type": "uint256"
        }
      ],
      "name": "getCID",
      "outputs": [
        {
          "internalType": "uint256",
          "name": "cid",
          "type": "uint256"
        }
      ],
      "stateMutability": "view",
      "type": "function"
    },
    {
      "inputs": [
        {
          "internalType": "uint256",
          "name": "cid",
          "type": "uint256"
        }
      ],
      "name": "getMyTokenID",
      "outputs": [
        {
          "internalType": "uint256",
          "name": "myTokenID",
          "type": "uint256"
        }
      ],
      "stateMutability": "view",
      "type": "function"
    },
    {
      "inputs": [],
      "name": "getTemplate",
      "outputs": [
        {
          "internalType": "string",
          "name": "",
          "type": "string"
        }
      ],
      "stateMutability": "view",
      "type": "function"
    },
    {
      "inputs": [],
      "name": "getVersion",
      "outputs": [
        {
          "internalType": "uint256",
          "name": "",
          "type": "uint256"
        }
      ],
      "stateMutability": "view",
      "type": "function"
    },
    {
      "inputs": [
        {
          "internalType": "string",
          "name": "name_",
          "type": "string"
        },
        {
          "internalType": "string",
          "name": "symbol_",
          "type": "string"
        },
        {
          "internalType": "address",
          "name": "owner_",
          "type": "address"
        },
        {
          "internalType": "uint256",
          "name": "maxSupply_",
          "type": "uint256"
        }
      ],
      "name": "initialize",
      "outputs": [],
      "stateMutability": "nonpayable",
      "type": "function"
    },
    {
      "inputs": [
        {
          "internalType": "address",
          "name": "owner",
          "type": "address"
        },
        {
          "internalType": "address",
          "name": "operator",
          "type": "address"
        }
      ],
      "name": "isApprovedForAll",
      "outputs": [
        {
          "internalType": "bool",
          "name": "",
          "type": "bool"
        }
      ],
      "stateMutability": "view",
      "type": "function"
    },
    {
      "inputs": [],
      "name": "maxSupply",
      "outputs": [
        {
          "internalType": "uint256",
          "name": "",
          "type": "uint256"
        }
      ],
      "stateMutability": "view",
      "type": "function"
    },
    {
      "inputs": [
        {
          "internalType": "uint256",
          "name": "cid",
          "type": "uint256"
        }
      ],
      "name": "mint",
      "outputs": [
        {
          "internalType": "uint256",
          "name": "tokenID",
          "type": "uint256"
        }
      ],
      "stateMutability": "nonpayable",
      "type": "function"
    },
    {
      "inputs": [],
      "name": "name",
      "outputs": [
        {
          "internalType": "string",
          "name": "",
          "type": "string"
        }
      ],
      "stateMutability": "view",
      "type": "function"
    },
    {
      "inputs": [],
      "name": "owner",
      "outputs": [
        {
          "internalType": "address",
          "name": "",
          "type": "address"
        }
      ],
      "stateMutability": "view",
      "type": "function"
    },
    {
      "inputs": [
        {
          "internalType": "uint256",
          "name": "tokenID",
          "type": "uint256"
        }
      ],
      "name": "ownerOf",
      "outputs": [
        {
          "internalType": "address",
          "name": "owner",
          "type": "address"
        }
      ],
      "stateMutability": "view",
      "type": "function"
    },
    {
      "inputs": [],
      "name": "paused",
      "outputs": [
        {
          "internalType": "bool",
          "name": "",
          "type": "bool"
        }
      ],
      "stateMutability": "view",
      "type": "function"
    },
    {
      "inputs": [
        {
          "internalType": "address",
          "name": "from",
          "type": "address"
        },
        {
          "internalType": "address",
          "name": "to",
          "type": "address"
        },
        {
          "internalType": "uint256",
          "name": "tokenID",
          "type": "uint256"
        }
      ],
      "name": "safeTransferFrom",
      "outputs": [],
      "stateMutability": "nonpayable",
      "type": "function"
    },
    {
      "inputs": [
        {
          "internalType": "address",
          "name": "from",
          "type": "address"
        },
        {
          "internalType": "address",
          "name": "to",
          "type": "address"
        },
        {
          "internalType": "uint256",
          "name": "tokenID",
          "type": "uint256"
        },
        {
          "internalType": "bytes",
          "name": "data",
          "type": "bytes"
        }
      ],
      "name": "safeTransferFrom",
      "outputs": [],
      "stateMutability": "nonpayable",
      "type": "function"
    },
    {
      "inputs": [
        {
          "internalType": "address",
          "name": "operator",
          "type": "address"
        },
        {
          "internalType": "bool",
          "name": "approved",
          "type": "bool"
        }
      ],
      "name": "setApprovalForAll",
      "outputs": [],
      "stateMutability": "nonpayable",
      "type": "function"
    },
    {
      "inputs": [
        {
          "internalType": "bytes4",
          "name": "interfaceId",
          "type": "bytes4"
        }
      ],
      "name": "supportsInterface",
      "outputs": [
        {
          "internalType": "bool",
          "name": "",
          "type": "bool"
        }
      ],
      "stateMutability": "view",
      "type": "function"
    },
    {
      "inputs": [],
      "name": "symbol",
      "outputs": [
        {
          "internalType": "string",
          "name": "",
          "type": "string"
        }
      ],
      "stateMutability": "view",
      "type": "function"
    },
    {
      "inputs": [],
      "name": "togglePause",
      "outputs": [],
      "stateMutability": "nonpayable",
      "type": "function"
    },
    {
      "inputs": [
        {
          "internalType": "uint256",
          "name": "index",
          "type": "uint256"
        }
      ],
      "name": "tokenByIndex",
      "outputs": [
        {
          "internalType": "uint256",
          "name": "tokenID",
          "type": "uint256"
        }
      ],
      "stateMutability": "view",
      "type": "function"
    },
    {
      "inputs": [
        {
          "internalType": "address",
          "name": "tokenOwner",
          "type": "address"
        },
        {
          "internalType": "uint256",
          "name": "index",
          "type": "uint256"
        }
      ],
      "name": "tokenOfOwnerByIndex",
      "outputs": [
        {
          "internalType": "uint256",
          "name": "tokenID",
          "type": "uint256"
        }
      ],
      "stateMutability": "view",
      "type": "function"
    },
    {
      "inputs": [
        {
          "internalType": "uint256",
          "name": "tokenID",
          "type": "uint256"
        }
      ],
      "name": "tokenURI",
      "outputs": [
        {
          "internalType": "string",
          "name": "",
          "type": "string"
        }
      ],
      "stateMutability": "view",
      "type": "function"
    },
    {
      "inputs": [],
      "name": "totalSupply",
      "outputs": [
        {
          "internalType": "uint256",
          "name": "tokensLength",
          "type": "uint256"
        }
      ],
      "stateMutability": "view",
      "type": "function"
    },
    {
      "inputs": [
        {
          "internalType": "address",
          "name": "from",
          "type": "address"
        },
        {
          "internalType": "address",
          "name": "to",
          "type": "address"
        },
        {
          "internalType": "uint256",
          "name": "tokenID",
          "type": "uint256"
        }
      ],
      "name": "transferFrom",
      "outputs": [],
      "stateMutability": "nonpayable",
      "type": "function"
    },
    {
      "inputs": [
        {
          "internalType": "address",
          "name": "newOwner",
          "type": "address"
        }
      ],
      "name": "transferOwnership",
      "outputs": [],
      "stateMutability": "nonpayable",
      "type": "function"
    }
  ],
  "transactionHash": "0x7b14c4436609e9a625f9560a59c54301c146c5c0ab4c2d7d217ed226f58e4b7a",
  "args": [],
  "numDeployments": 4,
  "solcInputHash": "ee0c301fcce9b7a705c621c909f3418c",
  "bytecode": "0x608060405234801561001057600080fd5b50611ef7806100206000396000f3fe608060405234801561001057600080fd5b50600436106101cf5760003560e01c80636352211e11610104578063b88d4fde116100a2578063d5abeb0111610071578063d5abeb01146103c2578063e985e9c5146103cb578063f2fde38b14610407578063f542033f1461041a57600080fd5b8063b88d4fde14610381578063c349026314610394578063c4ae3168146103a7578063c87b56dd146103af57600080fd5b8063913a2ffe116100de578063913a2ffe1461033357806395d89b4114610353578063a0712d681461035b578063a22cb4651461036e57600080fd5b80636352211e146102f757806370a082311461030a5780638da5cb5b1461031d57600080fd5b80632f745c591161017157806342966c681161014b57806342966c68146102ac5780634f6ccce7146102bf5780635615f604146102d25780635c975abb146102e557600080fd5b80632f745c591461027e578063321c48f21461029157806342842e0e1461029957600080fd5b8063095ea7b3116101ad578063095ea7b31461023c5780630d8e6e2c1461025157806318160ddd1461026357806323b872dd1461026b57600080fd5b806301ffc9a7146101d457806306fdde03146101fc578063081812fc14610211575b600080fd5b6101e76101e236600461199f565b61042d565b60405190151581526020015b60405180910390f35b6102046104a8565b6040516101f39190611a14565b61022461021f366004611a27565b610536565b6040516001600160a01b0390911681526020016101f3565b61024f61024a366004611a57565b6105ae565b005b6002545b6040519081526020016101f3565b600e54610255565b61024f610279366004611a81565b610672565b61025561028c366004611a57565b610682565b6102046106f3565b61024f6102a7366004611a81565b610785565b61024f6102ba366004611a27565b6107a0565b6102556102cd366004611a27565b6107e2565b6102556102e0366004611a27565b61084b565b600754600160a81b900460ff166101e7565b610224610305366004611a27565b610857565b610255610318366004611abd565b6108b4565b60075461010090046001600160a01b0316610224565b610255610341366004611a27565b6000908152600d602052604090205490565b610204610928565b610255610369366004611a27565b610935565b61024f61037c366004611ad8565b610986565b61024f61038f366004611ba0565b6109f2565b61024f6103a2366004611c1c565b610a50565b61024f610ac6565b6102046103bd366004611a27565b610b0e565b61025560085481565b6101e76103d9366004611c3e565b6001600160a01b03918216600090815260066020908152604080832093909416825291909152205460ff1690565b61024f610415366004611abd565b610bcd565b61024f610428366004611c91565b610c08565b60006001600160e01b0319821662f7235960e21b148061045d57506001600160e01b031982166309e1ccd360e11b145b8061047857506001600160e01b03198216635b5e139f60e01b145b8061049357506001600160e01b0319821663780e9d6360e01b145b806104a257506104a282610c6d565b92915050565b600980546104b590611d0d565b80601f01602080910402602001604051908101604052809291908181526020018280546104e190611d0d565b801561052e5780601f106105035761010080835404028352916020019161052e565b820191906000526020600020905b81548152906001019060200180831161051157829003601f168201915b505050505081565b6000818152600360205260408120546001600160a01b03166105925760405162461bcd60e51b815260206004820152601060248201526f125b9d985b1a59081d1bdad95b88125160821b60448201526064015b60405180910390fd5b506000908152600560205260409020546001600160a01b031690565b6105b83382610c92565b6106045760405162461bcd60e51b815260206004820152601c60248201527f4e6f7420746f6b656e206f776e6572206e6f72206f70657261746f72000000006044820152606401610589565b600081815260056020526040902080546001600160a01b0319166001600160a01b038416908117909155819061063982610857565b6001600160a01b03167f8c5be1e5ebec7d5bd14f71427d1e84f3dd0314c0f7b2291e5b200ac8c7c3b92560405160405180910390a45050565b61067d838383610ced565b505050565b60008115801561069a5750610696836108b4565b6001145b6106d65760405162461bcd60e51b815260206004820152600d60248201526c092dcecc2d8d2c840d2dcc8caf609b1b6044820152606401610589565b50506001600160a01b03166000908152600b602052604090205490565b60606001805461070290611d0d565b80601f016020809104026020016040519081016040528092919081815260200182805461072e90611d0d565b801561077b5780601f106107505761010080835404028352916020019161077b565b820191906000526020600020905b81548152906001019060200180831161075e57829003601f168201915b5050505050905090565b61067d838383604051806020016040528060008152506109f2565b60006107ab82610857565b90506001600160a01b03811633146107d55760405162461bcd60e51b815260040161058990611d48565b6107de82610f4f565b5050565b600e5460009082106108265760405162461bcd60e51b815260206004820152600d60248201526c092dcecc2d8d2c840d2dcc8caf609b1b6044820152606401610589565b600e828154811061083957610839611d6b565b90600052602060002001549050919050565b60006104a23383610f61565b6000818152600360205260409020546001600160a01b0316806108af5760405162461bcd60e51b815260206004820152601060248201526f125b9d985b1a59081d1bdad95b88125160821b6044820152606401610589565b919050565b60006001600160a01b03821661090c5760405162461bcd60e51b815260206004820152601c60248201527f5a65726f2061646472657373206e6f742076616c6964206f776e6572000000006044820152606401610589565b506001600160a01b031660009081526004602052604090205490565b600a80546104b590611d0d565b600754600090600160a81b900460ff161561097c5760405162461bcd60e51b81526020600482015260076024820152665061757365642160c81b6044820152606401610589565b6104a23383610fb0565b3360008181526006602090815260408083206001600160a01b03871680855290835292819020805460ff191686151590811790915590519081529192917f17307eab39ab6107e8899845ad3d59bd9653f200f220920489ca2b5937696c31910160405180910390a35050565b6109fd848484610ced565b610a098484848461107e565b610a4a5760405162461bcd60e51b8152602060048201526012602482015271139bdd08115490cdcc8c549958d95a5d995960721b6044820152606401610589565b50505050565b600754600160a81b900460ff1615610a945760405162461bcd60e51b81526020600482015260076024820152665061757365642160c81b6044820152606401610589565b610a9e3382610f61565b8214610abc5760405162461bcd60e51b815260040161058990611d48565b61067d3382610fb0565b60075461010090046001600160a01b03163314610af55760405162461bcd60e51b815260040161058990611d48565b600754610b0c90600160a81b900460ff161561112d565b565b6000818152600360205260409020546060906001600160a01b0316610b6a5760405162461bcd60e51b81526020600482015260126024820152714e465420646f65736e27742065786973747360701b6044820152606401610589565b60405180604001604052806007815260200166697066733a2f2f60c81b815250610ba6600d600085815260200190815260200160002054611184565b604051602001610bb7929190611d81565b6040516020818303038152906040529050919050565b60075461010090046001600160a01b03163314610bfc5760405162461bcd60e51b815260040161058990611d48565b610c05816112c2565b50565b610c346040518060400160405280600981526020016813dc195b909bdd5b9960ba1b815250600161131c565b610c3d82611384565b8351610c509060099060208701906118f0565b508251610c6490600a9060208601906118f0565b50600855505050565b60006001600160e01b031982166398396bd360e01b14806104a257506104a2826113e1565b600080610c9e83610857565b9050836001600160a01b0316816001600160a01b03161480610ce557506001600160a01b0380821660009081526006602090815260408083209388168352929052205460ff165b949350505050565b80610cf83382611406565b610d445760405162461bcd60e51b815260206004820152601c60248201527f4e6f7420746f6b656e206f776e6572206e6f7220617070726f766564000000006044820152606401610589565b610d4d82610857565b6001600160a01b0316846001600160a01b031614610d9e5760405162461bcd60e51b815260206004820152600e60248201526d233937b6903737ba1037bbb732b960911b6044820152606401610589565b6001600160a01b038416610df45760405162461bcd60e51b815260206004820152601a60248201527f5472616e736665722066726f6d207a65726f20616464726573730000000000006044820152606401610589565b6001600160a01b038316610e4a5760405162461bcd60e51b815260206004820152601860248201527f5472616e7366657220746f207a65726f206164647265737300000000000000006044820152606401610589565b610e5584848461143d565b600082815260056020526040902080546001600160a01b03191690556001600160a01b0384811690841614610f08576001600160a01b0384166000908152600460205260408120805460019290610ead908490611dc6565b90915550506001600160a01b0383166000908152600460205260408120805460019290610edb908490611ddd565b9091555050600082815260036020526040902080546001600160a01b0319166001600160a01b0385161790555b81836001600160a01b0316856001600160a01b03167fddf252ad1be2c89b69c2b068fc378daa952ba7f163c4a11628f55a4df523b3ef60405160405180910390a450505050565b610f588161149d565b610c05816115c0565b60008183604051602001610f9192919091825260601b6bffffffffffffffffffffffff1916602082015260340190565b60408051601f1981840301815291905280516020909101209392505050565b600060085460001480610fc65750600854600e54105b6110075760405162461bcd60e51b815260206004820152601260248201527113585e081cdd5c1c1b1e481c995858da195960721b6044820152606401610589565b611010836108b4565b1561105d5760405162461bcd60e51b815260206004820152601960248201527f416c7265616479206d696e746564206f7220636c61696d6564000000000000006044820152606401610589565b6110678383610f61565b905061107483828461168b565b6104a28382611712565b60006001600160a01b0384163b15806111245750604051630a85bd0160e11b808252906001600160a01b0386169063150b7a02906110c69033908a9089908990600401611df5565b602060405180830381600087803b1580156110e057600080fd5b505af11580156110f4573d6000803e3d6000fd5b505050506040513d601f19601f820116820180604052508101906111189190611e32565b6001600160e01b031916145b95945050505050565b6007805460ff60a81b1916600160a81b83151581029190911791829055604051339260ff929004919091161515907f8b265f737315073a655a642868ed756ba7e3b6c391b06dbbf70370aab7f7f06890600090a350565b60408051603480825260608281019093526000919060208201818036833701905050905060fd83901c7f6162636465666768696a6b6c6d6e6f707172737475767778797a32333435363781602081106111df576111df611d6b565b1a60f81b826000815181106111f6576111f6611d6b565b60200101906001600160f81b031916908160001a90535060029390931b9260335b8015611298577f6162636465666768696a6b6c6d6e6f707172737475767778797a32333435363785601f166020811061125257611252611d6b565b1a60f81b83828151811061126857611268611d6b565b60200101906001600160f81b031916908160001a90535060059490941c938061129081611e4f565b915050611217565b50816040516020016112aa9190611e66565b60405160208183030381529060405292505050919050565b600780546001600160a01b03838116610100818102610100600160a81b031985161790945560405193909204169182907f8be0079c531659141344cd1fd0a4f28419497f9722a3daafe3b4186f6b6457e090600090a35050565b60005460ff161561135c5760405162461bcd60e51b815260206004820152600a6024820152694f6e6c79206f6e63652160b01b6044820152606401610589565b6000805460ff19166001908117909155825161137d919060208501906118f0565b5060025550565b60075460ff16156113cb5760405162461bcd60e51b8152602060048201526011602482015270125b9a5d08185b1c9958591e4818d85b1b607a1b6044820152606401610589565b6007805460ff19166001179055610c05816112c2565b60006307f5828d60e41b6001600160e01b0319831614806104a257506104a28261189b565b60006114128383610c92565b806114365750826001600160a01b031661142b83610536565b6001600160a01b0316145b9392505050565b6001600160a01b038316158061145a57506001600160a01b038216155b61067d5760405162461bcd60e51b8152602060048201526014602482015273139bdb881d1c985b9cd9995c98589b194813919560621b6044820152606401610589565b60006114a882610857565b6001600160a01b0381166000908152600c6020526040812054600e54929350916114d490600190611dc6565b905080821461156257600e81815481106114f0576114f0611d6b565b9060005260206000200154600e838154811061150e5761150e611d6b565b906000526020600020018190555081600c6000611547600e858154811061153757611537611d6b565b9060005260206000200154610857565b6001600160a01b031681526020810191909152604001600020555b600e80548061157357611573611e95565b600082815260208082208301600019908101839055909201909255948152600d855260408082208290556001600160a01b039094168152600c8552838120819055600b9094525050812055565b60006115cb82610857565b6001600160a01b0381166000908152600460205260409020549091506115f3576115f3611eab565b6001600160a01b038116600090815260046020526040812080546001929061161c908490611dc6565b9091555050600082815260056020908152604080832080546001600160a01b031990811690915560039092528083208054909216909155518391906001600160a01b038416907fddf252ad1be2c89b69c2b068fc378daa952ba7f163c4a11628f55a4df523b3ef908390a45050565b600e8054600181810183557fbb7b4a454dc3493923482f07822329ed19e8244eff582cc204f8554c3620c3fd9091018490556001600160a01b0385166000908152600b6020526040902084905590546116e49190611dc6565b6001600160a01b039093166000908152600c6020908152604080832095909555928152600d90925291902055565b6001600160a01b03821661175f5760405162461bcd60e51b81526020600482015260146024820152734d696e7420746f207a65726f206164647265737360601b6044820152606401610589565b6000818152600360205260409020546001600160a01b0316156117bb5760405162461bcd60e51b8152602060048201526014602482015273151bdad95b88185b1c9958591e481b5a5b9d195960621b6044820152606401610589565b6001600160a01b03821660009081526004602052604081208054600192906117e4908490611ddd565b909155505060008181526003602052604080822080546001600160a01b0319166001600160a01b03861690811790915590518392907fddf252ad1be2c89b69c2b068fc378daa952ba7f163c4a11628f55a4df523b3ef908290a461185a600083836040518060200160405280600081525061107e565b6107de5760405162461bcd60e51b8152602060048201526012602482015271139bdd08115490cdcc8c549958d95a5d995960721b6044820152606401610589565b60006380ac58cd60e01b6001600160e01b0319831614806104a257506104a28260006001600160e01b03198216631fc9136f60e11b14806104a257506001600160e01b031982166301ffc9a760e01b146104a2565b8280546118fc90611d0d565b90600052602060002090601f01602090048101928261191e5760008555611964565b82601f1061193757805160ff1916838001178555611964565b82800160010185558215611964579182015b82811115611964578251825591602001919060010190611949565b50611970929150611974565b5090565b5b808211156119705760008155600101611975565b6001600160e01b031981168114610c0557600080fd5b6000602082840312156119b157600080fd5b813561143681611989565b60005b838110156119d75781810151838201526020016119bf565b83811115610a4a5750506000910152565b60008151808452611a008160208601602086016119bc565b601f01601f19169290920160200192915050565b60208152600061143660208301846119e8565b600060208284031215611a3957600080fd5b5035919050565b80356001600160a01b03811681146108af57600080fd5b60008060408385031215611a6a57600080fd5b611a7383611a40565b946020939093013593505050565b600080600060608486031215611a9657600080fd5b611a9f84611a40565b9250611aad60208501611a40565b9150604084013590509250925092565b600060208284031215611acf57600080fd5b61143682611a40565b60008060408385031215611aeb57600080fd5b611af483611a40565b915060208301358015158114611b0957600080fd5b809150509250929050565b634e487b7160e01b600052604160045260246000fd5b600067ffffffffffffffff80841115611b4557611b45611b14565b604051601f8501601f19908116603f01168101908282118183101715611b6d57611b6d611b14565b81604052809350858152868686011115611b8657600080fd5b858560208301376000602087830101525050509392505050565b60008060008060808587031215611bb657600080fd5b611bbf85611a40565b9350611bcd60208601611a40565b925060408501359150606085013567ffffffffffffffff811115611bf057600080fd5b8501601f81018713611c0157600080fd5b611c1087823560208401611b2a565b91505092959194509250565b60008060408385031215611c2f57600080fd5b50508035926020909101359150565b60008060408385031215611c5157600080fd5b611c5a83611a40565b9150611c6860208401611a40565b90509250929050565b600082601f830112611c8257600080fd5b61143683833560208501611b2a565b60008060008060808587031215611ca757600080fd5b843567ffffffffffffffff80821115611cbf57600080fd5b611ccb88838901611c71565b95506020870135915080821115611ce157600080fd5b50611cee87828801611c71565b935050611cfd60408601611a40565b9396929550929360600135925050565b600181811c90821680611d2157607f821691505b60208210811415611d4257634e487b7160e01b600052602260045260246000fd5b50919050565b6020808252600990820152682737ba1037bbb732b960b91b604082015260600190565b634e487b7160e01b600052603260045260246000fd5b60008351611d938184602088016119bc565b835190830190611da78183602088016119bc565b01949350505050565b634e487b7160e01b600052601160045260246000fd5b600082821015611dd857611dd8611db0565b500390565b60008219821115611df057611df0611db0565b500190565b6001600160a01b0385811682528416602082015260408101839052608060608201819052600090611e28908301846119e8565b9695505050505050565b600060208284031215611e4457600080fd5b815161143681611989565b600081611e5e57611e5e611db0565b506000190190565b666261666b72656960c81b815260008251611e888160078501602087016119bc565b9190910160070192915050565b634e487b7160e01b600052603160045260246000fd5b634e487b7160e01b600052600160045260246000fdfea264697066735822122050bfcbfc07997daea305c8eb8f2adf8a89d439002afdb9cf66f80b33991900d764736f6c63430008090033",
  "devdoc": {
    "kind": "dev",
    "methods": {},
    "title": "OpenBound smartcontract",
    "version": 1
  },
  "userdoc": {
    "kind": "user",
    "methods": {
      "initialize(string,string,address,uint256)": {
        "notice": "IOpenBound"
      },
      "supportsInterface(bytes4)": {
        "notice": "IERC165"
      },
      "tokenURI(uint256)": {
        "notice": "IERC721Metadata"
      },
      "totalSupply()": {
        "notice": "IERC721Enumerable"
      }
    },
    "version": 1
  },
  "storageLayout": {
    "storage": [
      {
        "astId": 11130,
        "contract": "contracts/templates/OpenBound.sol:OpenBound",
        "label": "_once",
        "offset": 0,
        "slot": "0",
        "type": "t_bool"
      },
      {
        "astId": 11132,
        "contract": "contracts/templates/OpenBound.sol:OpenBound",
        "label": "_template",
        "offset": 0,
        "slot": "1",
        "type": "t_string_storage"
      },
      {
        "astId": 11134,
        "contract": "contracts/templates/OpenBound.sol:OpenBound",
        "label": "_version",
        "offset": 0,
        "slot": "2",
        "type": "t_uint256"
      },
      {
        "astId": 11445,
        "contract": "contracts/templates/OpenBound.sol:OpenBound",
        "label": "_owners",
        "offset": 0,
        "slot": "3",
        "type": "t_mapping(t_uint256,t_address)"
      },
      {
        "astId": 11449,
        "contract": "contracts/templates/OpenBound.sol:OpenBound",
        "label": "_balances",
        "offset": 0,
        "slot": "4",
        "type": "t_mapping(t_address,t_uint256)"
      },
      {
        "astId": 11453,
        "contract": "contracts/templates/OpenBound.sol:OpenBound",
        "label": "_tokenApprovals",
        "offset": 0,
        "slot": "5",
        "type": "t_mapping(t_uint256,t_address)"
      },
      {
        "astId": 11459,
        "contract": "contracts/templates/OpenBound.sol:OpenBound",
        "label": "_operatorApprovals",
        "offset": 0,
        "slot": "6",
        "type": "t_mapping(t_address,t_mapping(t_address,t_bool))"
      },
      {
        "astId": 11232,
        "contract": "contracts/templates/OpenBound.sol:OpenBound",
        "label": "_openERC173Initialized",
        "offset": 0,
        "slot": "7",
        "type": "t_bool"
      },
      {
        "astId": 11234,
        "contract": "contracts/templates/OpenBound.sol:OpenBound",
        "label": "_owner",
        "offset": 1,
        "slot": "7",
        "type": "t_address"
      },
      {
        "astId": 12726,
        "contract": "contracts/templates/OpenBound.sol:OpenBound",
        "label": "_paused",
        "offset": 21,
        "slot": "7",
        "type": "t_bool"
      },
      {
        "astId": 12822,
        "contract": "contracts/templates/OpenBound.sol:OpenBound",
        "label": "maxSupply",
        "offset": 0,
        "slot": "8",
        "type": "t_uint256"
      },
      {
        "astId": 12824,
        "contract": "contracts/templates/OpenBound.sol:OpenBound",
        "label": "name",
        "offset": 0,
        "slot": "9",
        "type": "t_string_storage"
      },
      {
        "astId": 12826,
        "contract": "contracts/templates/OpenBound.sol:OpenBound",
        "label": "symbol",
        "offset": 0,
        "slot": "10",
        "type": "t_string_storage"
      },
      {
        "astId": 12830,
        "contract": "contracts/templates/OpenBound.sol:OpenBound",
        "label": "_tokenOfOwner",
        "offset": 0,
        "slot": "11",
        "type": "t_mapping(t_address,t_uint256)"
      },
      {
        "astId": 12834,
        "contract": "contracts/templates/OpenBound.sol:OpenBound",
        "label": "_tokenIndexOfOwner",
        "offset": 0,
        "slot": "12",
        "type": "t_mapping(t_address,t_uint256)"
      },
      {
        "astId": 12838,
        "contract": "contracts/templates/OpenBound.sol:OpenBound",
        "label": "_cidOfToken",
        "offset": 0,
        "slot": "13",
        "type": "t_mapping(t_uint256,t_uint256)"
      },
      {
        "astId": 12841,
        "contract": "contracts/templates/OpenBound.sol:OpenBound",
        "label": "_tokens",
        "offset": 0,
        "slot": "14",
        "type": "t_array(t_uint256)dyn_storage"
      }
    ],
    "types": {
      "t_address": {
        "encoding": "inplace",
        "label": "address",
        "numberOfBytes": "20"
      },
      "t_array(t_uint256)dyn_storage": {
        "base": "t_uint256",
        "encoding": "dynamic_array",
        "label": "uint256[]",
        "numberOfBytes": "32"
      },
      "t_bool": {
        "encoding": "inplace",
        "label": "bool",
        "numberOfBytes": "1"
      },
      "t_mapping(t_address,t_bool)": {
        "encoding": "mapping",
        "key": "t_address",
        "label": "mapping(address => bool)",
        "numberOfBytes": "32",
        "value": "t_bool"
      },
      "t_mapping(t_address,t_mapping(t_address,t_bool))": {
        "encoding": "mapping",
        "key": "t_address",
        "label": "mapping(address => mapping(address => bool))",
        "numberOfBytes": "32",
        "value": "t_mapping(t_address,t_bool)"
      },
      "t_mapping(t_address,t_uint256)": {
        "encoding": "mapping",
        "key": "t_address",
        "label": "mapping(address => uint256)",
        "numberOfBytes": "32",
        "value": "t_uint256"
      },
      "t_mapping(t_uint256,t_address)": {
        "encoding": "mapping",
        "key": "t_uint256",
        "label": "mapping(uint256 => address)",
        "numberOfBytes": "32",
        "value": "t_address"
      },
      "t_mapping(t_uint256,t_uint256)": {
        "encoding": "mapping",
        "key": "t_uint256",
        "label": "mapping(uint256 => uint256)",
        "numberOfBytes": "32",
        "value": "t_uint256"
      },
      "t_string_storage": {
        "encoding": "bytes",
        "label": "string",
        "numberOfBytes": "32"
      },
      "t_uint256": {
        "encoding": "inplace",
        "label": "uint256",
        "numberOfBytes": "32"
      }
    }
  }
}