{
  "address": "0x8331F7Ca1F790141Efd77de4D58A97e506B22068",
  "abi": [
    {
      "anonymous": false,
      "inputs": [
        {
          "indexed": true,
          "internalType": "address",
          "name": "owner",
          "type": "address"
        },
        {
          "indexed": true,
          "internalType": "address",
          "name": "approved",
          "type": "address"
        },
        {
          "indexed": true,
          "internalType": "uint256",
          "name": "tokenId",
          "type": "uint256"
        }
      ],
      "name": "Approval",
      "type": "event"
    },
    {
      "anonymous": false,
      "inputs": [
        {
          "indexed": true,
          "internalType": "address",
          "name": "owner",
          "type": "address"
        },
        {
          "indexed": true,
          "internalType": "address",
          "name": "operator",
          "type": "address"
        },
        {
          "indexed": false,
          "internalType": "bool",
          "name": "approved",
          "type": "bool"
        }
      ],
      "name": "ApprovalForAll",
      "type": "event"
    },
    {
      "anonymous": false,
      "inputs": [
        {
          "indexed": true,
          "internalType": "address",
          "name": "previousOwner",
          "type": "address"
        },
        {
          "indexed": true,
          "internalType": "address",
          "name": "newOwner",
          "type": "address"
        }
      ],
      "name": "OwnershipTransferred",
      "type": "event"
    },
    {
      "anonymous": false,
      "inputs": [
        {
          "indexed": false,
          "internalType": "uint256",
          "name": "tokenID",
          "type": "uint256"
        },
        {
          "indexed": false,
          "internalType": "uint256",
          "name": "price",
          "type": "uint256"
        },
        {
          "indexed": false,
          "internalType": "address",
          "name": "seller",
          "type": "address"
        },
        {
          "indexed": false,
          "internalType": "uint256",
          "name": "paid",
          "type": "uint256"
        },
        {
          "indexed": false,
          "internalType": "address",
          "name": "receiver",
          "type": "address"
        },
        {
          "indexed": false,
          "internalType": "uint256",
          "name": "royalties",
          "type": "uint256"
        },
        {
          "indexed": false,
          "internalType": "address",
          "name": "buyer",
          "type": "address"
        },
        {
          "indexed": false,
          "internalType": "uint256",
          "name": "unspent",
          "type": "uint256"
        }
      ],
      "name": "Pay",
      "type": "event"
    },
    {
      "anonymous": false,
      "inputs": [
        {
          "indexed": false,
          "internalType": "uint256",
          "name": "price",
          "type": "uint256"
        }
      ],
      "name": "SetDefaultPrice",
      "type": "event"
    },
    {
      "anonymous": false,
      "inputs": [
        {
          "indexed": false,
          "internalType": "address",
          "name": "receiver",
          "type": "address"
        },
        {
          "indexed": false,
          "internalType": "uint96",
          "name": "fee",
          "type": "uint96"
        }
      ],
      "name": "SetDefaultRoyalty",
      "type": "event"
    },
    {
      "anonymous": false,
      "inputs": [
        {
          "indexed": true,
          "internalType": "bool",
          "name": "paused",
          "type": "bool"
        },
        {
          "indexed": true,
          "internalType": "address",
          "name": "account",
          "type": "address"
        }
      ],
      "name": "SetPaused",
      "type": "event"
    },
    {
      "anonymous": false,
      "inputs": [
        {
          "indexed": false,
          "internalType": "uint256",
          "name": "tokenID",
          "type": "uint256"
        },
        {
          "indexed": false,
          "internalType": "uint256",
          "name": "price",
          "type": "uint256"
        }
      ],
      "name": "SetTokenPrice",
      "type": "event"
    },
    {
      "anonymous": false,
      "inputs": [
        {
          "indexed": false,
          "internalType": "uint256",
          "name": "tokenID",
          "type": "uint256"
        },
        {
          "indexed": false,
          "internalType": "address",
          "name": "receiver",
          "type": "address"
        },
        {
          "indexed": false,
          "internalType": "uint96",
          "name": "fee",
          "type": "uint96"
        }
      ],
      "name": "SetTokenRoyalty",
      "type": "event"
    },
    {
      "anonymous": false,
      "inputs": [
        {
          "indexed": true,
          "internalType": "address",
          "name": "from",
          "type": "address"
        },
        {
          "indexed": true,
          "internalType": "address",
          "name": "to",
          "type": "address"
        },
        {
          "indexed": true,
          "internalType": "uint256",
          "name": "tokenId",
          "type": "uint256"
        }
      ],
      "name": "Transfer",
      "type": "event"
    },
    {
      "inputs": [
        {
          "internalType": "address",
          "name": "spender",
          "type": "address"
        },
        {
          "internalType": "uint256",
          "name": "tokenID",
          "type": "uint256"
        }
      ],
      "name": "approve",
      "outputs": [],
      "stateMutability": "nonpayable",
      "type": "function"
    },
    {
      "inputs": [
        {
          "internalType": "address",
          "name": "owner",
          "type": "address"
        }
      ],
      "name": "balanceOf",
      "outputs": [
        {
          "internalType": "uint256",
          "name": "",
          "type": "uint256"
        }
      ],
      "stateMutability": "view",
      "type": "function"
    },
    {
      "inputs": [
        {
          "internalType": "uint256",
          "name": "tokenID",
          "type": "uint256"
        }
      ],
      "name": "burn",
      "outputs": [],
      "stateMutability": "nonpayable",
      "type": "function"
    },
    {
      "inputs": [
        {
          "internalType": "uint256",
          "name": "tokenID",
          "type": "uint256"
        }
      ],
      "name": "buy",
      "outputs": [],
      "stateMutability": "payable",
      "type": "function"
    },
    {
      "inputs": [
        {
          "internalType": "uint256",
          "name": "tokenID",
          "type": "uint256"
        }
      ],
      "name": "getApproved",
      "outputs": [
        {
          "internalType": "address",
          "name": "",
          "type": "address"
        }
      ],
      "stateMutability": "view",
      "type": "function"
    },
    {
      "inputs": [],
      "name": "getDefaultPrice",
      "outputs": [
        {
          "internalType": "uint256",
          "name": "",
          "type": "uint256"
        }
      ],
      "stateMutability": "view",
      "type": "function"
    },
    {
      "inputs": [],
      "name": "getDefaultRoyalty",
      "outputs": [
        {
          "internalType": "address",
          "name": "receiver",
          "type": "address"
        },
        {
          "internalType": "uint96",
          "name": "fee",
          "type": "uint96"
        }
      ],
      "stateMutability": "view",
      "type": "function"
    },
    {
      "inputs": [
        {
          "internalType": "uint256",
          "name": "tokenID",
          "type": "uint256"
        }
      ],
      "name": "getTokenPrice",
      "outputs": [
        {
          "internalType": "uint256",
          "name": "",
          "type": "uint256"
        }
      ],
      "stateMutability": "view",
      "type": "function"
    },
    {
      "inputs": [
        {
          "internalType": "uint256",
          "name": "tokenID",
          "type": "uint256"
        }
      ],
      "name": "getTokenRoyalty",
      "outputs": [
        {
          "internalType": "address",
          "name": "receiver",
          "type": "address"
        },
        {
          "internalType": "uint96",
          "name": "fee",
          "type": "uint96"
        }
      ],
      "stateMutability": "view",
      "type": "function"
    },
    {
      "inputs": [
        {
          "internalType": "string",
          "name": "name_",
          "type": "string"
        },
        {
          "internalType": "string",
          "name": "symbol_",
          "type": "string"
        },
        {
          "internalType": "address",
          "name": "owner_",
          "type": "address"
        },
        {
          "internalType": "bytes",
          "name": "params_",
          "type": "bytes"
        }
      ],
      "name": "initialize",
      "outputs": [],
      "stateMutability": "nonpayable",
      "type": "function"
    },
    {
      "inputs": [
        {
          "internalType": "string",
          "name": "name_",
          "type": "string"
        },
        {
          "internalType": "string",
          "name": "symbol_",
          "type": "string"
        },
        {
          "internalType": "address",
          "name": "owner_",
          "type": "address"
        },
        {
          "internalType": "uint256",
          "name": "defaultPrice_",
          "type": "uint256"
        },
        {
          "internalType": "address",
          "name": "receiver_",
          "type": "address"
        },
        {
          "internalType": "uint96",
          "name": "fee_",
          "type": "uint96"
        },
        {
          "internalType": "bool[]",
          "name": "options",
          "type": "bool[]"
        }
      ],
      "name": "initialize",
      "outputs": [],
      "stateMutability": "nonpayable",
      "type": "function"
    },
    {
      "inputs": [],
      "name": "initialized",
      "outputs": [
        {
          "internalType": "bool",
          "name": "",
          "type": "bool"
        }
      ],
      "stateMutability": "view",
      "type": "function"
    },
    {
      "inputs": [
        {
          "internalType": "address",
          "name": "owner",
          "type": "address"
        },
        {
          "internalType": "address",
          "name": "operator",
          "type": "address"
        }
      ],
      "name": "isApprovedForAll",
      "outputs": [
        {
          "internalType": "bool",
          "name": "",
          "type": "bool"
        }
      ],
      "stateMutability": "view",
      "type": "function"
    },
    {
      "inputs": [
        {
          "internalType": "address",
          "name": "minter_",
          "type": "address"
        },
        {
          "internalType": "string",
          "name": "tokenURI_",
          "type": "string"
        },
        {
          "internalType": "uint256",
          "name": "tokenPrice_",
          "type": "uint256"
        },
        {
          "internalType": "address",
          "name": "receiver_",
          "type": "address"
        },
        {
          "internalType": "uint96",
          "name": "fee_",
          "type": "uint96"
        }
      ],
      "name": "mint",
      "outputs": [
        {
          "internalType": "uint256",
          "name": "tokenID",
          "type": "uint256"
        }
      ],
      "stateMutability": "payable",
      "type": "function"
    },
    {
      "inputs": [
        {
          "internalType": "address",
          "name": "minter",
          "type": "address"
        },
        {
          "internalType": "string",
          "name": "tokenURI",
          "type": "string"
        }
      ],
      "name": "mint",
      "outputs": [
        {
          "internalType": "uint256",
          "name": "tokenID",
          "type": "uint256"
        }
      ],
      "stateMutability": "nonpayable",
      "type": "function"
    },
    {
      "inputs": [
        {
          "internalType": "string",
          "name": "tokenURI",
          "type": "string"
        }
      ],
      "name": "mint",
      "outputs": [
        {
          "internalType": "uint256",
          "name": "tokenID",
          "type": "uint256"
        }
      ],
      "stateMutability": "nonpayable",
      "type": "function"
    },
    {
      "inputs": [],
      "name": "name",
      "outputs": [
        {
          "internalType": "string",
          "name": "",
          "type": "string"
        }
      ],
      "stateMutability": "view",
      "type": "function"
    },
    {
      "inputs": [],
      "name": "open",
      "outputs": [
        {
          "internalType": "bool",
          "name": "",
          "type": "bool"
        }
      ],
      "stateMutability": "view",
      "type": "function"
    },
    {
      "inputs": [],
      "name": "owner",
      "outputs": [
        {
          "internalType": "address",
          "name": "",
          "type": "address"
        }
      ],
      "stateMutability": "view",
      "type": "function"
    },
    {
      "inputs": [
        {
          "internalType": "uint256",
          "name": "tokenID",
          "type": "uint256"
        }
      ],
      "name": "ownerOf",
      "outputs": [
        {
          "internalType": "address",
          "name": "",
          "type": "address"
        }
      ],
      "stateMutability": "view",
      "type": "function"
    },
    {
      "inputs": [],
      "name": "parent",
      "outputs": [
        {
          "internalType": "address",
          "name": "parent_",
          "type": "address"
        }
      ],
      "stateMutability": "view",
      "type": "function"
    },
    {
      "inputs": [],
      "name": "paused",
      "outputs": [
        {
          "internalType": "bool",
          "name": "",
          "type": "bool"
        }
      ],
      "stateMutability": "view",
      "type": "function"
    },
    {
      "inputs": [
        {
          "internalType": "uint256",
          "name": "tokenID",
          "type": "uint256"
        },
        {
          "internalType": "uint256",
          "name": "price",
          "type": "uint256"
        }
      ],
      "name": "royaltyInfo",
      "outputs": [
        {
          "internalType": "address",
          "name": "receiver",
          "type": "address"
        },
        {
          "internalType": "uint256",
          "name": "royaltyAmount",
          "type": "uint256"
        }
      ],
      "stateMutability": "view",
      "type": "function"
    },
    {
      "inputs": [
        {
          "internalType": "address",
          "name": "from",
          "type": "address"
        },
        {
          "internalType": "address",
          "name": "to",
          "type": "address"
        },
        {
          "internalType": "uint256",
          "name": "tokenID",
          "type": "uint256"
        }
      ],
      "name": "safeTransferFrom",
      "outputs": [],
      "stateMutability": "payable",
      "type": "function"
    },
    {
      "inputs": [
        {
          "internalType": "address",
          "name": "from",
          "type": "address"
        },
        {
          "internalType": "address",
          "name": "to",
          "type": "address"
        },
        {
          "internalType": "uint256",
          "name": "tokenID",
          "type": "uint256"
        },
        {
          "internalType": "bytes",
          "name": "data",
          "type": "bytes"
        }
      ],
      "name": "safeTransferFrom",
      "outputs": [],
      "stateMutability": "payable",
      "type": "function"
    },
    {
      "inputs": [
        {
          "internalType": "address",
          "name": "operator",
          "type": "address"
        },
        {
          "internalType": "bool",
          "name": "approved",
          "type": "bool"
        }
      ],
      "name": "setApprovalForAll",
      "outputs": [],
      "stateMutability": "nonpayable",
      "type": "function"
    },
    {
      "inputs": [
        {
          "internalType": "uint256",
          "name": "price",
          "type": "uint256"
        }
      ],
      "name": "setDefaultPrice",
      "outputs": [],
      "stateMutability": "nonpayable",
      "type": "function"
    },
    {
      "inputs": [
        {
          "internalType": "address",
          "name": "receiver",
          "type": "address"
        },
        {
          "internalType": "uint96",
          "name": "fee",
          "type": "uint96"
        }
      ],
      "name": "setDefaultRoyalty",
      "outputs": [],
      "stateMutability": "nonpayable",
      "type": "function"
    },
    {
      "inputs": [
        {
          "internalType": "uint256",
          "name": "tokenID",
          "type": "uint256"
        },
        {
          "internalType": "uint256",
          "name": "price",
          "type": "uint256"
        }
      ],
      "name": "setTokenPrice",
      "outputs": [],
      "stateMutability": "nonpayable",
      "type": "function"
    },
    {
      "inputs": [
        {
          "internalType": "uint256",
          "name": "tokenID",
          "type": "uint256"
        },
        {
          "internalType": "uint256",
          "name": "price",
          "type": "uint256"
        },
        {
          "internalType": "address",
          "name": "approved",
          "type": "address"
        },
        {
          "internalType": "enum IOpenMarketable.Approve",
          "name": "approveType",
          "type": "uint8"
        }
      ],
      "name": "setTokenPrice",
      "outputs": [],
      "stateMutability": "nonpayable",
      "type": "function"
    },
    {
      "inputs": [
        {
          "internalType": "uint256",
          "name": "tokenID",
          "type": "uint256"
        },
        {
          "internalType": "address",
          "name": "receiver",
          "type": "address"
        },
        {
          "internalType": "uint96",
          "name": "fee",
          "type": "uint96"
        }
      ],
      "name": "setTokenRoyalty",
      "outputs": [],
      "stateMutability": "nonpayable",
      "type": "function"
    },
    {
      "inputs": [
        {
          "internalType": "uint256",
          "name": "tokenID",
          "type": "uint256"
        },
        {
          "internalType": "address",
          "name": "receiver",
          "type": "address"
        }
      ],
      "name": "setTokenRoyaltyReceiver",
      "outputs": [],
      "stateMutability": "nonpayable",
      "type": "function"
    },
    {
      "inputs": [
        {
          "internalType": "bytes4",
          "name": "interfaceId",
          "type": "bytes4"
        }
      ],
      "name": "supportsInterface",
      "outputs": [
        {
          "internalType": "bool",
          "name": "",
          "type": "bool"
        }
      ],
      "stateMutability": "view",
      "type": "function"
    },
    {
      "inputs": [],
      "name": "symbol",
      "outputs": [
        {
          "internalType": "string",
          "name": "",
          "type": "string"
        }
      ],
      "stateMutability": "view",
      "type": "function"
    },
    {
      "inputs": [],
      "name": "template",
      "outputs": [
        {
          "internalType": "string",
          "name": "",
          "type": "string"
        }
      ],
      "stateMutability": "view",
      "type": "function"
    },
    {
      "inputs": [],
      "name": "togglePause",
      "outputs": [],
      "stateMutability": "nonpayable",
      "type": "function"
    },
    {
      "inputs": [
        {
          "internalType": "uint256",
          "name": "index",
          "type": "uint256"
        }
      ],
      "name": "tokenByIndex",
      "outputs": [
        {
          "internalType": "uint256",
          "name": "",
          "type": "uint256"
        }
      ],
      "stateMutability": "view",
      "type": "function"
    },
    {
      "inputs": [],
      "name": "tokenIdNext",
      "outputs": [
        {
          "internalType": "uint256",
          "name": "",
          "type": "uint256"
        }
      ],
      "stateMutability": "view",
      "type": "function"
    },
    {
      "inputs": [
        {
          "internalType": "address",
          "name": "owner",
          "type": "address"
        },
        {
          "internalType": "uint256",
          "name": "index",
          "type": "uint256"
        }
      ],
      "name": "tokenOfOwnerByIndex",
      "outputs": [
        {
          "internalType": "uint256",
          "name": "",
          "type": "uint256"
        }
      ],
      "stateMutability": "view",
      "type": "function"
    },
    {
      "inputs": [
        {
          "internalType": "uint256",
          "name": "tokenID",
          "type": "uint256"
        }
      ],
      "name": "tokenURI",
      "outputs": [
        {
          "internalType": "string",
          "name": "",
          "type": "string"
        }
      ],
      "stateMutability": "view",
      "type": "function"
    },
    {
      "inputs": [],
      "name": "totalSupply",
      "outputs": [
        {
          "internalType": "uint256",
          "name": "",
          "type": "uint256"
        }
      ],
      "stateMutability": "view",
      "type": "function"
    },
    {
      "inputs": [
        {
          "internalType": "address",
          "name": "from",
          "type": "address"
        },
        {
          "internalType": "address",
          "name": "to",
          "type": "address"
        },
        {
          "internalType": "uint256",
          "name": "tokenID",
          "type": "uint256"
        }
      ],
      "name": "transferFrom",
      "outputs": [],
      "stateMutability": "payable",
      "type": "function"
    },
    {
      "inputs": [
        {
          "internalType": "address",
          "name": "newOwner",
          "type": "address"
        }
      ],
      "name": "transferOwnership",
      "outputs": [],
      "stateMutability": "nonpayable",
      "type": "function"
    },
    {
      "inputs": [],
      "name": "version",
      "outputs": [
        {
          "internalType": "uint256",
          "name": "",
          "type": "uint256"
        }
      ],
      "stateMutability": "view",
      "type": "function"
    },
    {
      "inputs": [],
      "name": "withdraw",
      "outputs": [],
      "stateMutability": "nonpayable",
      "type": "function"
    },
    {
      "inputs": [
        {
          "internalType": "address",
          "name": "token",
          "type": "address"
        }
      ],
      "name": "withdraw",
      "outputs": [],
      "stateMutability": "nonpayable",
      "type": "function"
    },
    {
      "stateMutability": "payable",
      "type": "receive"
    }
  ],
  "transactionHash": "0x7cde9a66c61446f4b2d5c8b2870fa6d1f138715c5040b96ac429015d3610446b",
  "args": [],
  "numDeployments": 5,
  "solcInputHash": "ea97d28e0c363bcd85ce074365bc5ad6",
  "bytecode": "0x608060405234801561001057600080fd5b50613627806100206000396000f3fe6080604052600436106102815760003560e01c80636d3c7ec51161014f578063c457fb37116100c1578063e97186ef1161007a578063e97186ef146107ac578063e985e9c5146107cc578063eb685c4714610815578063ee8c8b6314610835578063f2fde38b14610855578063fcfff16f1461087557600080fd5b8063c457fb37146106f7578063c4ae316814610724578063c87b56dd14610739578063d0def52114610759578063d85d3d2714610779578063d96a094a1461079957600080fd5b80638cabe05a116101135780638cabe05a146106475780638da5cb5b1461067757806395d89b411461069a578063a22cb465146106af578063b086613c146106cf578063b88d4fde146106e457600080fd5b80636d3c7ec51461056c5780636f2ddd931461058c57806370a08231146105a1578063833b7b78146105c15780638bbf58b31461063157600080fd5b80632f745c59116101f357806351cff8d9116101ac57806351cff8d9146104c957806354fd4d50146104e95780635944c753146104ff5780635c975abb1461051f57806360f96a8f146105375780636352211e1461054c57600080fd5b80632f745c591461042e5780633ccfd60b1461044e57806342842e0e1461046357806342966c68146104765780634472167b146104965780634f6ccce7146104a957600080fd5b80630c5597e4116102455780630c5597e41461035e578063158ef93e1461037e57806318160ddd1461039d5780631eb40e21146103bc57806323b872dd146103dc5780632a55205a146103ef57600080fd5b806301ffc9a71461028d57806304634d8d146102c257806306fdde03146102e4578063081812fc14610306578063095ea7b31461033e57600080fd5b3661028857005b600080fd5b34801561029957600080fd5b506102ad6102a8366004612b79565b61088f565b60405190151581526020015b60405180910390f35b3480156102ce57600080fd5b506102e26102dd366004612bd0565b6108ba565b005b3480156102f057600080fd5b506102f9610900565b6040516102b99190612c56565b34801561031257600080fd5b50610326610321366004612c69565b610992565b6040516001600160a01b0390911681526020016102b9565b34801561034a57600080fd5b506102e2610359366004612c82565b6109e9565b34801561036a57600080fd5b506102e2610379366004612cae565b610aad565b34801561038a57600080fd5b506012546102ad90610100900460ff1681565b3480156103a957600080fd5b506008545b6040519081526020016102b9565b3480156103c857600080fd5b506102e26103d7366004612d8a565b610b41565b6102e26103ea366004612e27565b610b7c565b3480156103fb57600080fd5b5061040f61040a366004612e68565b610b8c565b604080516001600160a01b0390931683526020830191909152016102b9565b34801561043a57600080fd5b506103ae610449366004612c82565b610c6a565b34801561045a57600080fd5b506102e2610cf1565b6102e2610471366004612e27565b610d4f565b34801561048257600080fd5b506102e2610491366004612c69565b610d6a565b6103ae6104a4366004612e8a565b610d9a565b3480156104b557600080fd5b506103ae6104c4366004612c69565b610e5e565b3480156104d557600080fd5b506102e26104e4366004612f0b565b610ec8565b3480156104f557600080fd5b506103ae60145481565b34801561050b57600080fd5b506102e261051a366004612f28565b611034565b34801561052b57600080fd5b5060125460ff166102ad565b34801561054357600080fd5b506103266110d2565b34801561055857600080fd5b50610326610567366004612c69565b61111b565b34801561057857600080fd5b506102e2610587366004612c69565b61116e565b34801561059857600080fd5b506102f96111a6565b3480156105ad57600080fd5b506103ae6105bc366004612f0b565b611234565b3480156105cd57600080fd5b5061060a6105dc366004612c69565b6000908152600f60205260409020546001600160a01b03811691600160a01b9091046001600160601b031690565b604080516001600160a01b0390931683526001600160601b039091166020830152016102b9565b34801561063d57600080fd5b506103ae60155481565b34801561065357600080fd5b50600e546001600160a01b03811690600160a01b90046001600160601b031661060a565b34801561068357600080fd5b50600c5461010090046001600160a01b0316610326565b3480156106a657600080fd5b506102f961129f565b3480156106bb57600080fd5b506102e26106ca366004612f78565b6112ae565b3480156106db57600080fd5b50600d546103ae565b6102e26106f2366004612fa6565b61131a565b34801561070357600080fd5b506103ae610712366004612c69565b60009081526011602052604090205490565b34801561073057600080fd5b506102e261132c565b34801561074557600080fd5b506102f9610754366004612c69565b61136d565b34801561076557600080fd5b506103ae610774366004613006565b611445565b34801561078557600080fd5b506103ae610794366004613056565b6114c3565b6102e26107a7366004612c69565b6114d4565b3480156107b857600080fd5b506102e26107c7366004613123565b611697565b3480156107d857600080fd5b506102ad6107e73660046131f0565b6001600160a01b03918216600090815260036020908152604080832093909416825291909152205460ff1690565b34801561082157600080fd5b506102e2610830366004612e68565b6116f2565b34801561084157600080fd5b506102e261085036600461321e565b611722565b34801561086157600080fd5b506102e2610870366004612f0b565b6117a1565b34801561088157600080fd5b506016546102ad9060ff1681565b60006001600160e01b03198216632865aacb60e11b14806108b457506108b4826117d9565b92915050565b600c5461010090046001600160a01b031633146108f25760405162461bcd60e51b81526004016108e99061326c565b60405180910390fd5b6108fc8282611801565b5050565b60606005805461090f9061328f565b80601f016020809104026020016040519081016040528092919081815260200182805461093b9061328f565b80156109885780601f1061095d57610100808354040283529160200191610988565b820191906000526020600020905b81548152906001019060200180831161096b57829003601f168201915b5050505050905090565b60008181526020819052604081205482906001600160a01b03166109c85760405162461bcd60e51b81526004016108e9906132c4565b6000838152600260205260409020546001600160a01b031691505b50919050565b6109f333826118c9565b610a3f5760405162461bcd60e51b815260206004820152601c60248201527f4e6f7420746f6b656e206f776e6572206e6f72206f70657261746f720000000060448201526064016108e9565b600081815260026020526040902080546001600160a01b0319166001600160a01b0384169081179091558190610a748261111b565b6001600160a01b03167f8c5be1e5ebec7d5bd14f71427d1e84f3dd0314c0f7b2291e5b200ac8c7c3b92560405160405180910390a45050565b60008281526020819052604090205482906001600160a01b0316610ae35760405162461bcd60e51b81526004016108e9906132c4565b600c5461010090046001600160a01b03163314610b125760405162461bcd60e51b81526004016108e99061326c565b506000918252600f602052604090912080546001600160a01b0319166001600160a01b03909216919091179055565b60008060008084806020019051810190610b5b91906132ee565b9350935093509350610b7288888887878787611697565b5050505050505050565b610b87838383611924565b505050565b60008082600160801b8110610bb35760405162461bcd60e51b81526004016108e9906133b9565b6000858152600f60209081526040918290208251808401909352546001600160a01b038116808452600160a01b9091046001600160601b031691830191909152610c27575060408051808201909152600e546001600160a01b0381168252600160a01b90046001600160601b031660208201525b600d54851015610c3757600d5494505b602081015161271090610c53906001600160601b0316876133f6565b610c5d9190613415565b9051969095509350505050565b6000610c7583611234565b8210610cb45760405162461bcd60e51b815260206004820152600e60248201526d496e76616c696420696e6465782160901b60448201526064016108e9565b6001600160a01b0383166000908152600960205260409020805483908110610cde57610cde613437565b9060005260206000200154905092915050565b600c5461010090046001600160a01b03163314610d205760405162461bcd60e51b81526004016108e99061326c565b60405133904780156108fc02916000818181858888f19350505050158015610d4c573d6000803e3d6000fd5b50565b610b8783838360405180602001604052806000815250611b5a565b80610d753382611bb2565b610d915760405162461bcd60e51b81526004016108e99061344d565b6108fc82611be9565b60165460009060ff1680610dbe5750600c546001600160a01b036101009091041633145b610df75760405162461bcd60e51b815260206004820152600a6024820152692737ba1036b4b73a32b960b11b60448201526064016108e9565b60125460ff1615610e345760405162461bcd60e51b81526020600482015260076024820152665061757365642160c81b60448201526064016108e9565b610e3e8686611445565b9050610e4a8185611bf2565b610e55818484611c5e565b95945050505050565b6008546000908210610ea35760405162461bcd60e51b815260206004820152600e60248201526d496e76616c696420696e6465782160901b60448201526064016108e9565b60088281548110610eb657610eb6613437565b90600052602060002001549050919050565b600c5461010090046001600160a01b03163314610ef75760405162461bcd60e51b81526004016108e99061326c565b6040516370a0823160e01b81523060048201526001600160a01b0382169063a9059cbb90339083906370a082319060240160206040518083038186803b158015610f4057600080fd5b505afa158015610f54573d6000803e3d6000fd5b505050506040513d601f19601f82011682018060405250810190610f789190613484565b6040516001600160e01b031960e085901b1681526001600160a01b0390921660048301526024820152604401602060405180830381600087803b158015610fbe57600080fd5b505af1158015610fd2573d6000803e3d6000fd5b505050506040513d601f19601f82011682018060405250810190610ff6919061349d565b610d4c5760405162461bcd60e51b815260206004820152600f60248201526e15da5d1a191c985dc819985a5b1959608a1b60448201526064016108e9565b60008381526020819052604090205483906001600160a01b031661106a5760405162461bcd60e51b81526004016108e9906132c4565b600c5461010090046001600160a01b031633146110995760405162461bcd60e51b81526004016108e99061326c565b836110a43382611bb2565b6110c05760405162461bcd60e51b81526004016108e99061344d565b6110cb858585611c5e565b5050505050565b6000602d303b146110e35750600090565b6010306001600160a01b0316803b806020016040519081016040528181526000908060200190933c611114906134ba565b901c905090565b60008181526020819052604081205482906001600160a01b03166111515760405162461bcd60e51b81526004016108e9906132c4565b50506000908152602081905260409020546001600160a01b031690565b600c5461010090046001600160a01b0316331461119d5760405162461bcd60e51b81526004016108e99061326c565b610d4c81611d43565b601380546111b39061328f565b80601f01602080910402602001604051908101604052809291908181526020018280546111df9061328f565b801561122c5780601f106112015761010080835404028352916020019161122c565b820191906000526020600020905b81548152906001019060200180831161120f57829003601f168201915b505050505081565b60006001600160a01b0382166112835760405162461bcd60e51b8152602060048201526014602482015273496e76616c6964207a65726f206164647265737360601b60448201526064016108e9565b506001600160a01b031660009081526001602052604090205490565b60606006805461090f9061328f565b3360008181526003602090815260408083206001600160a01b03871680855290835292819020805460ff191686151590811790915590519081529192917f17307eab39ab6107e8899845ad3d59bd9653f200f220920489ca2b5937696c31910160405180910390a35050565b61132684848484611b5a565b50505050565b600c5461010090046001600160a01b0316331461135b5760405162461bcd60e51b81526004016108e99061326c565b60125461136b9060ff1615611da3565b565b60008181526020819052604090205460609082906001600160a01b03166113a65760405162461bcd60e51b81526004016108e9906132c4565b600083815260076020526040902080546113bf9061328f565b80601f01602080910402602001604051908101604052809291908181526020018280546113eb9061328f565b80156114385780601f1061140d57610100808354040283529160200191611438565b820191906000526020600020905b81548152906001019060200180831161141b57829003601f168201915b5050505050915050919050565b60165460009060ff16806114695750600c546001600160a01b036101009091041633145b6114a25760405162461bcd60e51b815260206004820152600a6024820152692737ba1036b4b73a32b960b11b60448201526064016108e9565b601580549060006114b2836134de565b9190505590506108b4838383611de8565b60006108b433836000806000610d9a565b60008181526020819052604090205481906001600160a01b031661150a5760405162461bcd60e51b81526004016108e9906132c4565b600082815260116020526040902054806115545760405162461bcd60e51b815260206004820152600b60248201526a139bdd081d1bc81cd95b1b60aa1b60448201526064016108e9565b803410156115975760405162461bcd60e51b815260206004820152601060248201526f4e6f7420656e6f7567682066756e647360801b60448201526064016108e9565b60006115a28461111b565b90506001600160a01b0381166115ba576115ba6134f9565b6001600160a01b03811633141561160a5760405162461bcd60e51b8152602060048201526014602482015273416c726561647920746f6b656e206f776e65722160601b60448201526064016108e9565b604051635c46a7ef60e11b81526001600160a01b0382166004820152336024820152604481018590526080606482015260006084820152309063b88d4fde90349060a4016000604051808303818588803b15801561166757600080fd5b505af115801561167b573d6000803e3d6000fd5b5050506000958652505060116020525050604082209190915550565b6116a2878787611df3565b806000815181106116b5576116b5613437565b6020026020010151601660006101000a81548160ff0219169083151502179055506116df84611d43565b6116e98383611801565b50505050505050565b816116fd3382611bb2565b6117195760405162461bcd60e51b81526004016108e99061344d565b610b8783836000805b8361172d3382611bb2565b6117495760405162461bcd60e51b81526004016108e99061344d565b6117538585611bf2565b60028260028111156117675761176761350f565b141561177d576117788360016112ae565b6110cb565b60018260028111156117915761179161350f565b14156110cb576110cb83866109e9565b600c5461010090046001600160a01b031633146117d05760405162461bcd60e51b81526004016108e99061326c565b610d4c81611e35565b60006001600160e01b03198216600162b7486560e01b031914806108b457506108b482611e8f565b6001600160601b0381166127108111156118585760405162461bcd60e51b8152602060048201526018602482015277526f79616c7479206665652065786365656420707269636560401b60448201526064016108e9565b6040805180820182526001600160a01b0385168082526001600160601b0385166020928301819052600160a01b81028217600e558351918252918101919091527fa1edde4ed5c1392c90dccd8e051a4080b761850e49a24c77d826348a51e1f8dc91015b60405180910390a1505050565b6000806118d58361111b565b9050836001600160a01b0316816001600160a01b0316148061191c57506001600160a01b0380821660009081526003602090815260408083209388168352929052205460ff165b949350505050565b8061192f3382611bb2565b61194b5760405162461bcd60e51b81526004016108e99061344d565b6001600160a01b0384166119a15760405162461bcd60e51b815260206004820152601a60248201527f5472616e736665722066726f6d207a65726f206164647265737300000000000060448201526064016108e9565b6001600160a01b0383166119f75760405162461bcd60e51b815260206004820152601860248201527f5472616e7366657220746f207a65726f2061646472657373000000000000000060448201526064016108e9565b611a008261111b565b6001600160a01b0316846001600160a01b031614611a515760405162461bcd60e51b815260206004820152600e60248201526d233937b6903737ba1037bbb732b960911b60448201526064016108e9565b611a5c848484611eb4565b600082815260026020526040902080546001600160a01b03191690556001600160a01b0384811690841614611b13576001600160a01b03841660009081526001602081905260408220805491929091611ab6908490613525565b90915550506001600160a01b03831660009081526001602081905260408220805491929091611ae690849061353c565b9091555050600082815260208190526040902080546001600160a01b0319166001600160a01b0385161790555b81836001600160a01b0316856001600160a01b03167fddf252ad1be2c89b69c2b068fc378daa952ba7f163c4a11628f55a4df523b3ef60405160405180910390a450505050565b611b65848484611924565b611b7184848484611ebf565b6113265760405162461bcd60e51b81526020600482015260126024820152712737ba1022a9219b9918a932b1b2b4bb32b960711b60448201526064016108e9565b6000611bbe83836118c9565b80611be25750826001600160a01b0316611bd783610992565b6001600160a01b0316145b9392505050565b610d4c81611f6d565b80600160801b8110611c165760405162461bcd60e51b81526004016108e9906133b9565b60008381526011602090815260409182902084905581518581529081018490527f2f8c61aa79deaa9c961d54f640a154df4960a56a5989d25df0148be783dc3f5b91016118bc565b6001600160601b038116612710811115611cb55760405162461bcd60e51b8152602060048201526018602482015277526f79616c7479206665652065786365656420707269636560401b60448201526064016108e9565b6040805180820182526001600160a01b038581168083526001600160601b03868116602080860182815260008c8152600f835288902096519051909316600160a01b029290941691909117909355835188815291820152918201527f2595213009f64247e2789cf9981bcc53ee736a6aa52042a651aa1549ae6fff619060600160405180910390a150505050565b80600160801b8110611d675760405162461bcd60e51b81526004016108e9906133b9565b600d8290556040518281527f9f7a6492db3843bc01c0adb23cd27be964155c1d45c566f2ee32f28faf4eb6059060200160405180910390a15050565b6012805460ff1916821515908117909155604051339160ff161515907f8b265f737315073a655a642868ed756ba7e3b6c391b06dbbf70370aab7f7f06890600090a350565b610b87838383611f92565b60016015556040805180820190915260088152674f70656e4e46547360c01b6020820152611e22906004611feb565b611e2c838361203c565b610b8781612093565b600c80546001600160a01b03838116610100818102610100600160a81b031985161790945560405193909204169182907f8be0079c531659141344cd1fd0a4f28419497f9722a3daafe3b4186f6b6457e090600090a35050565b60006001600160e01b031982166350130d5360e01b14806108b457506108b4826120cc565b610b878383836120f1565b60006001600160a01b0384163b1580610e555750604051630a85bd0160e11b808252906001600160a01b0386169063150b7a0290611f079033908a9089908990600401613554565b602060405180830381600087803b158015611f2157600080fd5b505af1158015611f35573d6000803e3d6000fd5b505050506040513d601f19601f82011682018060405250810190611f599190613591565b6001600160e01b0319161495945050505050565b6000818152600f602090815260408083208390556011909152812055610d4c8161212a565b600e54611fbb9082906001600160a01b03811690600160a01b90046001600160601b0316611c5e565b611fe081600d5485611fdb600c546001600160a01b036101009091041690565b6121f5565b610b87838383612535565b601254610100900460ff16156120135760405162461bcd60e51b81526004016108e9906135ae565b6012805461ff0019166101001790558151612035906013906020850190612a94565b5060145550565b60045460ff161561205f5760405162461bcd60e51b81526004016108e9906135ae565b6004805460ff19166001179055815161207f906005906020850190612a94565b508051610b87906006906020840190612a94565b600c5460ff16156120b65760405162461bcd60e51b81526004016108e9906135ae565b600c805460ff19166001179055610d4c81611e35565b60006001600160e01b031982166398396bd360e01b14806108b457506108b48261258e565b60008181526011602052604090205461211090829084611fdb8361111b565b600081815260116020526040812055610b878383836125b3565b60006121358261111b565b905061214181836125c7565b6000828152600b602052604081205460085490919061216290600190613525565b905060006008828154811061217957612179613437565b6000918252602080832090910154808352600b9091526040808320869055878352822091909155600880549192508291859081106121b9576121b9613437565b60009182526020909120015560088054806121d6576121d66135db565b600190038181906000526020600020016000905590556110cb856126d5565b60105460ff16156122375760405162461bcd60e51b815260206004820152600c60248201526b4e6f2072652d656e7472792160a01b60448201526064016108e9565b6010805460ff19166001179055348311156122875760405162461bcd60e51b815260206004820152601060248201526f4e6f7420656e6f7567682066756e647360801b60448201526064016108e9565b3461229157612525565b6001600160a01b0382166122d75760405162461bcd60e51b815260206004820152600d60248201526c24b73b30b634b210313abcb2b960991b60448201526064016108e9565b6001600160a01b03811661231e5760405162461bcd60e51b815260206004820152600e60248201526d24b73b30b634b21039b2b63632b960911b60448201526064016108e9565b600080803486158015906123445750846001600160a01b0316866001600160a01b031614155b15612451576123538888610b8c565b90945092506001600160a01b03841661236b57600092505b868311156123af5760405162461bcd60e51b8152602060048201526011602482015270496e76616c696420726f79616c7469657360781b60448201526064016108e9565b6123b98388613525565b91508115612406576123cb8282613525565b6040519091506001600160a01b0386169083156108fc029084906000818181858888f19350505050158015612404573d6000803e3d6000fd5b505b8215612451576124168382613525565b6040519091506001600160a01b0385169084156108fc029085906000818181858888f1935050505015801561244f573d6000803e3d6000fd5b505b348161245d858561353c565b612467919061353c565b14612474576124746134f9565b80156124b2576040516001600160a01b0387169082156108fc029083906000818181858888f193505050501580156124b0573d6000803e3d6000fd5b505b60408051898152602081018990526001600160a01b038781168284015260608201859052868116608083015260a08201869052881660c082015260e0810183905290517f746889be52a242154dfc6d4e1c55b36e2f81cfc340b11f28ef86b142ca25d937918190036101000190a1505050505b50506010805460ff191690555050565b61253f83826126f5565b600880546000838152600b60205260408120829055600182018355919091527ff3f7a9fe364faab93b216da50a3214154f22a0a2b415b23a84c8169e8b636ee301819055610b87838383612733565b60006001600160e01b03198216632175daf960e11b14806108b457506108b48261275e565b6125bd83826125c7565b610b8782826126f5565b6000818152600a60205260408120549060016125e285611234565b6125ec9190613525565b9050808214612683576001600160a01b038416600090815260096020526040812080548390811061261f5761261f613437565b906000526020600020015490508060096000876001600160a01b03166001600160a01b03168152602001908152602001600020848154811061266357612663613437565b6000918252602080832090910192909255918252600a9052604090208290555b6000838152600a602090815260408083208390556001600160a01b0387168352600990915290208054806126b9576126b96135db565b6001900381819060005260206000200160009055905550505050565b60008181526007602052604081206126ec91612b18565b610d4c81612783565b6001600160a01b0390911660009081526009602081815260408084208054868652600a84529185208290559282526001810183559183529091200155565b6000818152600760209081526040909120835161275292850190612a94565b50610b87838383612874565b600063152a902d60e11b6001600160e01b0319831614806108b457506108b4826129ff565b600061278e8261111b565b90506001600160a01b0381166127b65760405162461bcd60e51b81526004016108e9906132c4565b6001600160a01b0381166000908152600160205260409020546127db576127db6134f9565b6001600160a01b03811660009081526001602081905260408220805491929091612806908490613525565b9091555050600082815260026020908152604080832080546001600160a01b0319908116909155918390528083208054909216909155518391906001600160a01b038416907fddf252ad1be2c89b69c2b068fc378daa952ba7f163c4a11628f55a4df523b3ef908390a45050565b6001600160a01b0383166128c15760405162461bcd60e51b81526020600482015260146024820152734d696e7420746f207a65726f206164647265737360601b60448201526064016108e9565b6000818152602081905260409020546001600160a01b03161561291d5760405162461bcd60e51b8152602060048201526014602482015273151bdad95b88185b1c9958591e481b5a5b9d195960621b60448201526064016108e9565b6001600160a01b0383166000908152600160208190526040822080549192909161294890849061353c565b909155505060008181526020819052604080822080546001600160a01b0319166001600160a01b03871690811790915590518392907fddf252ad1be2c89b69c2b068fc378daa952ba7f163c4a11628f55a4df523b3ef908290a46129be6000848360405180602001604052806000815250611ebf565b610b875760405162461bcd60e51b8152602060048201526012602482015271139bdd08115490cdcc8c549958d95a5d995960721b60448201526064016108e9565b60006307f5828d60e41b6001600160e01b0319831614806108b457506108b482600063780e9d6360e01b6001600160e01b0319831614806108b457506108b4826000635b5e139f60e01b6001600160e01b0319831614806108b457506108b48260006380ac58cd60e01b6001600160e01b0319831614806108b457506001600160e01b031982166301ffc9a760e01b146108b4565b828054612aa09061328f565b90600052602060002090601f016020900481019282612ac25760008555612b08565b82601f10612adb57805160ff1916838001178555612b08565b82800160010185558215612b08579182015b82811115612b08578251825591602001919060010190612aed565b50612b14929150612b4e565b5090565b508054612b249061328f565b6000825580601f10612b34575050565b601f016020900490600052602060002090810190610d4c91905b5b80821115612b145760008155600101612b4f565b6001600160e01b031981168114610d4c57600080fd5b600060208284031215612b8b57600080fd5b8135611be281612b63565b6001600160a01b0381168114610d4c57600080fd5b6001600160601b0381168114610d4c57600080fd5b8035612bcb81612bab565b919050565b60008060408385031215612be357600080fd5b8235612bee81612b96565b91506020830135612bfe81612bab565b809150509250929050565b6000815180845260005b81811015612c2f57602081850181015186830182015201612c13565b81811115612c41576000602083870101525b50601f01601f19169290920160200192915050565b602081526000611be26020830184612c09565b600060208284031215612c7b57600080fd5b5035919050565b60008060408385031215612c9557600080fd5b8235612ca081612b96565b946020939093013593505050565b60008060408385031215612cc157600080fd5b823591506020830135612bfe81612b96565b634e487b7160e01b600052604160045260246000fd5b604051601f8201601f1916810167ffffffffffffffff81118282101715612d1257612d12612cd3565b604052919050565b600082601f830112612d2b57600080fd5b813567ffffffffffffffff811115612d4557612d45612cd3565b612d58601f8201601f1916602001612ce9565b818152846020838601011115612d6d57600080fd5b816020850160208301376000918101602001919091529392505050565b60008060008060808587031215612da057600080fd5b843567ffffffffffffffff80821115612db857600080fd5b612dc488838901612d1a565b95506020870135915080821115612dda57600080fd5b612de688838901612d1a565b945060408701359150612df882612b96565b90925060608601359080821115612e0e57600080fd5b50612e1b87828801612d1a565b91505092959194509250565b600080600060608486031215612e3c57600080fd5b8335612e4781612b96565b92506020840135612e5781612b96565b929592945050506040919091013590565b60008060408385031215612e7b57600080fd5b50508035926020909101359150565b600080600080600060a08688031215612ea257600080fd5b8535612ead81612b96565b9450602086013567ffffffffffffffff811115612ec957600080fd5b612ed588828901612d1a565b945050604086013592506060860135612eed81612b96565b91506080860135612efd81612bab565b809150509295509295909350565b600060208284031215612f1d57600080fd5b8135611be281612b96565b600080600060608486031215612f3d57600080fd5b833592506020840135612f4f81612b96565b91506040840135612f5f81612bab565b809150509250925092565b8015158114610d4c57600080fd5b60008060408385031215612f8b57600080fd5b8235612f9681612b96565b91506020830135612bfe81612f6a565b60008060008060808587031215612fbc57600080fd5b8435612fc781612b96565b93506020850135612fd781612b96565b925060408501359150606085013567ffffffffffffffff811115612ffa57600080fd5b612e1b87828801612d1a565b6000806040838503121561301957600080fd5b823561302481612b96565b9150602083013567ffffffffffffffff81111561304057600080fd5b61304c85828601612d1a565b9150509250929050565b60006020828403121561306857600080fd5b813567ffffffffffffffff81111561307f57600080fd5b61191c84828501612d1a565b600067ffffffffffffffff8211156130a5576130a5612cd3565b5060051b60200190565b600082601f8301126130c057600080fd5b813560206130d56130d08361308b565b612ce9565b82815260059290921b840181019181810190868411156130f457600080fd5b8286015b8481101561311857803561310b81612f6a565b83529183019183016130f8565b509695505050505050565b600080600080600080600060e0888a03121561313e57600080fd5b873567ffffffffffffffff8082111561315657600080fd5b6131628b838c01612d1a565b985060208a013591508082111561317857600080fd5b6131848b838c01612d1a565b975060408a0135915061319682612b96565b909550606089013594506080890135906131af82612b96565b8194506131be60a08b01612bc0565b935060c08a01359150808211156131d457600080fd5b506131e18a828b016130af565b91505092959891949750929550565b6000806040838503121561320357600080fd5b823561320e81612b96565b91506020830135612bfe81612b96565b6000806000806080858703121561323457600080fd5b8435935060208501359250604085013561324d81612b96565b915060608501356003811061326157600080fd5b939692955090935050565b6020808252600990820152682737ba1037bbb732b960b91b604082015260600190565b600181811c908216806132a357607f821691505b602082108114156109e357634e487b7160e01b600052602260045260246000fd5b60208082526010908201526f125b9d985b1a59081d1bdad95b88125160821b604082015260600190565b6000806000806080858703121561330457600080fd5b8451935060208086015161331781612b96565b604087015190945061332881612bab565b606087015190935067ffffffffffffffff81111561334557600080fd5b8601601f8101881361335657600080fd5b80516133646130d08261308b565b81815260059190911b8201830190838101908a83111561338357600080fd5b928401925b828410156133aa57835161339b81612f6a565b82529284019290840190613388565b979a9699509497505050505050565b6020808252600d908201526c546f6f20657870656e7369766560981b604082015260600190565b634e487b7160e01b600052601160045260246000fd5b6000816000190483118215151615613410576134106133e0565b500290565b60008261343257634e487b7160e01b600052601260045260246000fd5b500490565b634e487b7160e01b600052603260045260246000fd5b6020808252601c908201527f4e6f7420746f6b656e206f776e6572206e6f7220617070726f76656400000000604082015260600190565b60006020828403121561349657600080fd5b5051919050565b6000602082840312156134af57600080fd5b8151611be281612f6a565b805160208083015191908110156109e35760001960209190910360031b1b16919050565b60006000198214156134f2576134f26133e0565b5060010190565b634e487b7160e01b600052600160045260246000fd5b634e487b7160e01b600052602160045260246000fd5b600082821015613537576135376133e0565b500390565b6000821982111561354f5761354f6133e0565b500190565b6001600160a01b038581168252841660208201526040810183905260806060820181905260009061358790830184612c09565b9695505050505050565b6000602082840312156135a357600080fd5b8151611be281612b63565b602080825260139082015272105b1c9958591e481a5b9a5d1a585b1a5e9959606a1b604082015260600190565b634e487b7160e01b600052603160045260246000fdfea2646970667358221220d7c118c603b69c90663a64819b2c87c1fa5748cf2ccdf29d8dbd05973a39634764736f6c63430008090033",
  "devdoc": {
    "kind": "dev",
    "methods": {
      "burn(uint256)": {
        "params": {
          "tokenID": "tokenID of NFT to burn"
        }
      },
      "getDefaultRoyalty()": {
        "returns": {
          "fee": ": fee Numerator, less than 10_000",
          "receiver": ": address of the royalty receiver, or address(0) to reset"
        }
      },
      "getTokenRoyalty(uint256)": {
        "params": {
          "tokenID": ": token ID"
        },
        "returns": {
          "fee": ": fee Numerator, less than 10_000",
          "receiver": ": address of the royalty receiver, or address(0) to reset"
        }
      },
      "setDefaultPrice(uint256)": {
        "params": {
          "price": ": default price in wei"
        }
      },
      "setDefaultRoyalty(address,uint96)": {
        "params": {
          "fee": ": fee Numerator, less than 10000",
          "receiver": ": address of the royalty receiver, or address(0) to reset"
        }
      },
      "setTokenPrice(uint256,uint256)": {
        "params": {
          "price": ": token price in wei",
          "tokenID": ": token ID"
        }
      },
      "setTokenPrice(uint256,uint256,address,uint8)": {
        "params": {
          "price": ": token price in wei",
          "tokenID": ": token ID"
        }
      },
      "setTokenRoyalty(uint256,address,uint96)": {
        "params": {
          "fee": ": fee Numerator, less than 10_000",
          "receiver": ": address of the royalty receiver, or address(0) to reset",
          "tokenID": ": token ID"
        }
      },
      "setTokenRoyaltyReceiver(uint256,address)": {
        "params": {
          "receiver": ": address of the royalty receiver, or address(0) to reset",
          "tokenID": ": token ID"
        }
      },
      "supportsInterface(bytes4)": {
        "params": {
          "interfaceId": "interfaceId to test"
        }
      }
    },
    "title": "OpenNFTs smartcontract",
    "version": 1
  },
  "userdoc": {
    "kind": "user",
    "methods": {
      "burn(uint256)": {
        "notice": "burn NFT"
      },
      "getDefaultRoyalty()": {
        "notice": "GET default royalty info"
      },
      "getTokenRoyalty(uint256)": {
        "notice": "GET token royalty info"
      },
      "open()": {
        "notice": "Mint NFT allowed to everyone or only collection owner"
      },
      "setDefaultPrice(uint256)": {
        "notice": "SET default mint price"
      },
      "setDefaultRoyalty(address,uint96)": {
        "notice": "SET default royalty info"
      },
      "setTokenPrice(uint256,uint256)": {
        "notice": "SET token price"
      },
      "setTokenPrice(uint256,uint256,address,uint8)": {
        "notice": "SET token price"
      },
      "setTokenRoyalty(uint256,address,uint96)": {
        "notice": "SET token royalty info"
      },
      "setTokenRoyaltyReceiver(uint256,address)": {
        "notice": "SET token royalty receiver"
      },
      "supportsInterface(bytes4)": {
        "notice": "test if this interface is supported"
      },
      "tokenIdNext()": {
        "notice": "tokenID of next minted NFT"
      },
      "withdraw()": {
        "notice": "withdraw eth"
      },
      "withdraw(address)": {
        "notice": "withdraw token"
      }
    },
    "version": 1
  },
  "storageLayout": {
    "storage": [
      {
        "astId": 5420,
        "contract": "contracts/next/OpenAutoMarket.sol:OpenAutoMarket",
        "label": "_owners",
        "offset": 0,
        "slot": "0",
        "type": "t_mapping(t_uint256,t_address)"
      },
      {
        "astId": 5424,
        "contract": "contracts/next/OpenAutoMarket.sol:OpenAutoMarket",
        "label": "_balances",
        "offset": 0,
        "slot": "1",
        "type": "t_mapping(t_address,t_uint256)"
      },
      {
        "astId": 5428,
        "contract": "contracts/next/OpenAutoMarket.sol:OpenAutoMarket",
        "label": "_tokenApprovals",
        "offset": 0,
        "slot": "2",
        "type": "t_mapping(t_uint256,t_address)"
      },
      {
        "astId": 5434,
        "contract": "contracts/next/OpenAutoMarket.sol:OpenAutoMarket",
        "label": "_operatorApprovals",
        "offset": 0,
        "slot": "3",
        "type": "t_mapping(t_address,t_mapping(t_address,t_bool))"
      },
      {
        "astId": 6343,
        "contract": "contracts/next/OpenAutoMarket.sol:OpenAutoMarket",
        "label": "_openERC721MetadataInitialized",
        "offset": 0,
        "slot": "4",
        "type": "t_bool"
      },
      {
        "astId": 6345,
        "contract": "contracts/next/OpenAutoMarket.sol:OpenAutoMarket",
        "label": "_name",
        "offset": 0,
        "slot": "5",
        "type": "t_string_storage"
      },
      {
        "astId": 6347,
        "contract": "contracts/next/OpenAutoMarket.sol:OpenAutoMarket",
        "label": "_symbol",
        "offset": 0,
        "slot": "6",
        "type": "t_string_storage"
      },
      {
        "astId": 6351,
        "contract": "contracts/next/OpenAutoMarket.sol:OpenAutoMarket",
        "label": "_tokenURIs",
        "offset": 0,
        "slot": "7",
        "type": "t_mapping(t_uint256,t_string_storage)"
      },
      {
        "astId": 6020,
        "contract": "contracts/next/OpenAutoMarket.sol:OpenAutoMarket",
        "label": "_allTokens",
        "offset": 0,
        "slot": "8",
        "type": "t_array(t_uint256)dyn_storage"
      },
      {
        "astId": 6025,
        "contract": "contracts/next/OpenAutoMarket.sol:OpenAutoMarket",
        "label": "_ownedTokens",
        "offset": 0,
        "slot": "9",
        "type": "t_mapping(t_address,t_array(t_uint256)dyn_storage)"
      },
      {
        "astId": 6029,
        "contract": "contracts/next/OpenAutoMarket.sol:OpenAutoMarket",
        "label": "_ownedTokensIndex",
        "offset": 0,
        "slot": "10",
        "type": "t_mapping(t_uint256,t_uint256)"
      },
      {
        "astId": 6033,
        "contract": "contracts/next/OpenAutoMarket.sol:OpenAutoMarket",
        "label": "_allTokensIndex",
        "offset": 0,
        "slot": "11",
        "type": "t_mapping(t_uint256,t_uint256)"
      },
      {
        "astId": 5174,
        "contract": "contracts/next/OpenAutoMarket.sol:OpenAutoMarket",
        "label": "_openERC173Initialized",
        "offset": 0,
        "slot": "12",
        "type": "t_bool"
      },
      {
        "astId": 5176,
        "contract": "contracts/next/OpenAutoMarket.sol:OpenAutoMarket",
        "label": "_owner",
        "offset": 1,
        "slot": "12",
        "type": "t_address"
      },
      {
        "astId": 5287,
        "contract": "contracts/next/OpenAutoMarket.sol:OpenAutoMarket",
        "label": "_defaultPrice",
        "offset": 0,
        "slot": "13",
        "type": "t_uint256"
      },
      {
        "astId": 5290,
        "contract": "contracts/next/OpenAutoMarket.sol:OpenAutoMarket",
        "label": "_defaultRoyaltyInfo",
        "offset": 0,
        "slot": "14",
        "type": "t_struct(RoyaltyInfo)5285_storage"
      },
      {
        "astId": 5295,
        "contract": "contracts/next/OpenAutoMarket.sol:OpenAutoMarket",
        "label": "_tokenRoyaltyInfo",
        "offset": 0,
        "slot": "15",
        "type": "t_mapping(t_uint256,t_struct(RoyaltyInfo)5285_storage)"
      },
      {
        "astId": 6513,
        "contract": "contracts/next/OpenAutoMarket.sol:OpenAutoMarket",
        "label": "_locked",
        "offset": 0,
        "slot": "16",
        "type": "t_bool"
      },
      {
        "astId": 6553,
        "contract": "contracts/next/OpenAutoMarket.sol:OpenAutoMarket",
        "label": "_tokenPrice",
        "offset": 0,
        "slot": "17",
        "type": "t_mapping(t_uint256,t_uint256)"
      },
      {
        "astId": 7443,
        "contract": "contracts/next/OpenAutoMarket.sol:OpenAutoMarket",
        "label": "_paused",
        "offset": 0,
        "slot": "18",
        "type": "t_bool"
      },
      {
        "astId": 4987,
        "contract": "contracts/next/OpenAutoMarket.sol:OpenAutoMarket",
        "label": "initialized",
        "offset": 1,
        "slot": "18",
        "type": "t_bool"
      },
      {
        "astId": 4989,
        "contract": "contracts/next/OpenAutoMarket.sol:OpenAutoMarket",
        "label": "template",
        "offset": 0,
        "slot": "19",
        "type": "t_string_storage"
      },
      {
        "astId": 4991,
        "contract": "contracts/next/OpenAutoMarket.sol:OpenAutoMarket",
        "label": "version",
        "offset": 0,
        "slot": "20",
        "type": "t_uint256"
      },
      {
        "astId": 7201,
        "contract": "contracts/next/OpenAutoMarket.sol:OpenAutoMarket",
        "label": "tokenIdNext",
        "offset": 0,
        "slot": "21",
        "type": "t_uint256"
      },
      {
        "astId": 18926,
        "contract": "contracts/next/OpenAutoMarket.sol:OpenAutoMarket",
        "label": "open",
        "offset": 0,
        "slot": "22",
        "type": "t_bool"
      }
    ],
    "types": {
      "t_address": {
        "encoding": "inplace",
        "label": "address",
        "numberOfBytes": "20"
      },
      "t_array(t_uint256)dyn_storage": {
        "base": "t_uint256",
        "encoding": "dynamic_array",
        "label": "uint256[]",
        "numberOfBytes": "32"
      },
      "t_bool": {
        "encoding": "inplace",
        "label": "bool",
        "numberOfBytes": "1"
      },
      "t_mapping(t_address,t_array(t_uint256)dyn_storage)": {
        "encoding": "mapping",
        "key": "t_address",
        "label": "mapping(address => uint256[])",
        "numberOfBytes": "32",
        "value": "t_array(t_uint256)dyn_storage"
      },
      "t_mapping(t_address,t_bool)": {
        "encoding": "mapping",
        "key": "t_address",
        "label": "mapping(address => bool)",
        "numberOfBytes": "32",
        "value": "t_bool"
      },
      "t_mapping(t_address,t_mapping(t_address,t_bool))": {
        "encoding": "mapping",
        "key": "t_address",
        "label": "mapping(address => mapping(address => bool))",
        "numberOfBytes": "32",
        "value": "t_mapping(t_address,t_bool)"
      },
      "t_mapping(t_address,t_uint256)": {
        "encoding": "mapping",
        "key": "t_address",
        "label": "mapping(address => uint256)",
        "numberOfBytes": "32",
        "value": "t_uint256"
      },
      "t_mapping(t_uint256,t_address)": {
        "encoding": "mapping",
        "key": "t_uint256",
        "label": "mapping(uint256 => address)",
        "numberOfBytes": "32",
        "value": "t_address"
      },
      "t_mapping(t_uint256,t_string_storage)": {
        "encoding": "mapping",
        "key": "t_uint256",
        "label": "mapping(uint256 => string)",
        "numberOfBytes": "32",
        "value": "t_string_storage"
      },
      "t_mapping(t_uint256,t_struct(RoyaltyInfo)5285_storage)": {
        "encoding": "mapping",
        "key": "t_uint256",
        "label": "mapping(uint256 => struct OpenERC2981.RoyaltyInfo)",
        "numberOfBytes": "32",
        "value": "t_struct(RoyaltyInfo)5285_storage"
      },
      "t_mapping(t_uint256,t_uint256)": {
        "encoding": "mapping",
        "key": "t_uint256",
        "label": "mapping(uint256 => uint256)",
        "numberOfBytes": "32",
        "value": "t_uint256"
      },
      "t_string_storage": {
        "encoding": "bytes",
        "label": "string",
        "numberOfBytes": "32"
      },
      "t_struct(RoyaltyInfo)5285_storage": {
        "encoding": "inplace",
        "label": "struct OpenERC2981.RoyaltyInfo",
        "members": [
          {
            "astId": 5282,
            "contract": "contracts/next/OpenAutoMarket.sol:OpenAutoMarket",
            "label": "receiver",
            "offset": 0,
            "slot": "0",
            "type": "t_address"
          },
          {
            "astId": 5284,
            "contract": "contracts/next/OpenAutoMarket.sol:OpenAutoMarket",
            "label": "fee",
            "offset": 20,
            "slot": "0",
            "type": "t_uint96"
          }
        ],
        "numberOfBytes": "32"
      },
      "t_uint256": {
        "encoding": "inplace",
        "label": "uint256",
        "numberOfBytes": "32"
      },
      "t_uint96": {
        "encoding": "inplace",
        "label": "uint96",
        "numberOfBytes": "12"
      }
    }
  }
}