{
  "address": "0x9a5642c32e4115fEb205dC0057cE087eB97c202c",
  "abi": [
    {
      "anonymous": false,
      "inputs": [
        {
          "indexed": true,
          "internalType": "address",
          "name": "owner",
          "type": "address"
        },
        {
          "indexed": true,
          "internalType": "address",
          "name": "approved",
          "type": "address"
        },
        {
          "indexed": true,
          "internalType": "uint256",
          "name": "tokenId",
          "type": "uint256"
        }
      ],
      "name": "Approval",
      "type": "event"
    },
    {
      "anonymous": false,
      "inputs": [
        {
          "indexed": true,
          "internalType": "address",
          "name": "owner",
          "type": "address"
        },
        {
          "indexed": true,
          "internalType": "address",
          "name": "operator",
          "type": "address"
        },
        {
          "indexed": false,
          "internalType": "bool",
          "name": "approved",
          "type": "bool"
        }
      ],
      "name": "ApprovalForAll",
      "type": "event"
    },
    {
      "anonymous": false,
      "inputs": [
        {
          "indexed": false,
          "internalType": "uint8",
          "name": "version",
          "type": "uint8"
        }
      ],
      "name": "Initialized",
      "type": "event"
    },
    {
      "anonymous": false,
      "inputs": [
        {
          "indexed": true,
          "internalType": "address",
          "name": "previousOwner",
          "type": "address"
        },
        {
          "indexed": true,
          "internalType": "address",
          "name": "newOwner",
          "type": "address"
        }
      ],
      "name": "OwnershipTransferred",
      "type": "event"
    },
    {
      "anonymous": false,
      "inputs": [
        {
          "indexed": false,
          "internalType": "address",
          "name": "receiver",
          "type": "address"
        },
        {
          "indexed": false,
          "internalType": "uint96",
          "name": "feeNumerator",
          "type": "uint96"
        }
      ],
      "name": "SetRoyalty",
      "type": "event"
    },
    {
      "anonymous": false,
      "inputs": [
        {
          "indexed": false,
          "internalType": "uint256",
          "name": "tokenID",
          "type": "uint256"
        },
        {
          "indexed": false,
          "internalType": "address",
          "name": "receiver",
          "type": "address"
        },
        {
          "indexed": false,
          "internalType": "uint96",
          "name": "feeNumerator",
          "type": "uint96"
        }
      ],
      "name": "SetTokenRoyalty",
      "type": "event"
    },
    {
      "anonymous": false,
      "inputs": [
        {
          "indexed": true,
          "internalType": "address",
          "name": "from",
          "type": "address"
        },
        {
          "indexed": true,
          "internalType": "address",
          "name": "to",
          "type": "address"
        },
        {
          "indexed": true,
          "internalType": "uint256",
          "name": "tokenId",
          "type": "uint256"
        }
      ],
      "name": "Transfer",
      "type": "event"
    },
    {
      "inputs": [
        {
          "internalType": "address",
          "name": "to",
          "type": "address"
        },
        {
          "internalType": "uint256",
          "name": "tokenId",
          "type": "uint256"
        }
      ],
      "name": "approve",
      "outputs": [],
      "stateMutability": "nonpayable",
      "type": "function"
    },
    {
      "inputs": [
        {
          "internalType": "address",
          "name": "owner",
          "type": "address"
        }
      ],
      "name": "balanceOf",
      "outputs": [
        {
          "internalType": "uint256",
          "name": "",
          "type": "uint256"
        }
      ],
      "stateMutability": "view",
      "type": "function"
    },
    {
      "inputs": [
        {
          "internalType": "uint256",
          "name": "tokenID",
          "type": "uint256"
        }
      ],
      "name": "burn",
      "outputs": [],
      "stateMutability": "nonpayable",
      "type": "function"
    },
    {
      "inputs": [
        {
          "internalType": "uint256",
          "name": "tokenID",
          "type": "uint256"
        }
      ],
      "name": "buy",
      "outputs": [],
      "stateMutability": "payable",
      "type": "function"
    },
    {
      "inputs": [],
      "name": "floorPrice",
      "outputs": [
        {
          "internalType": "uint256",
          "name": "",
          "type": "uint256"
        }
      ],
      "stateMutability": "view",
      "type": "function"
    },
    {
      "inputs": [
        {
          "internalType": "uint256",
          "name": "tokenId",
          "type": "uint256"
        }
      ],
      "name": "getApproved",
      "outputs": [
        {
          "internalType": "address",
          "name": "",
          "type": "address"
        }
      ],
      "stateMutability": "view",
      "type": "function"
    },
    {
      "inputs": [
        {
          "internalType": "string",
          "name": "name",
          "type": "string"
        },
        {
          "internalType": "string",
          "name": "symbol",
          "type": "string"
        },
        {
          "internalType": "address",
          "name": "owner",
          "type": "address"
        },
        {
          "internalType": "bool[]",
          "name": "options",
          "type": "bool[]"
        }
      ],
      "name": "initialize",
      "outputs": [],
      "stateMutability": "nonpayable",
      "type": "function"
    },
    {
      "inputs": [
        {
          "internalType": "address",
          "name": "owner",
          "type": "address"
        },
        {
          "internalType": "address",
          "name": "operator",
          "type": "address"
        }
      ],
      "name": "isApprovedForAll",
      "outputs": [
        {
          "internalType": "bool",
          "name": "",
          "type": "bool"
        }
      ],
      "stateMutability": "view",
      "type": "function"
    },
    {
      "inputs": [
        {
          "internalType": "address",
          "name": "to",
          "type": "address"
        },
        {
          "internalType": "string",
          "name": "jsonURI",
          "type": "string"
        }
      ],
      "name": "mint",
      "outputs": [
        {
          "internalType": "uint256",
          "name": "",
          "type": "uint256"
        }
      ],
      "stateMutability": "nonpayable",
      "type": "function"
    },
    {
      "inputs": [
        {
          "internalType": "string",
          "name": "jsonURI",
          "type": "string"
        }
      ],
      "name": "mint",
      "outputs": [
        {
          "internalType": "uint256",
          "name": "",
          "type": "uint256"
        }
      ],
      "stateMutability": "nonpayable",
      "type": "function"
    },
    {
      "inputs": [],
      "name": "name",
      "outputs": [
        {
          "internalType": "string",
          "name": "",
          "type": "string"
        }
      ],
      "stateMutability": "view",
      "type": "function"
    },
    {
      "inputs": [],
      "name": "open",
      "outputs": [
        {
          "internalType": "bool",
          "name": "",
          "type": "bool"
        }
      ],
      "stateMutability": "view",
      "type": "function"
    },
    {
      "inputs": [],
      "name": "owner",
      "outputs": [
        {
          "internalType": "address",
          "name": "",
          "type": "address"
        }
      ],
      "stateMutability": "view",
      "type": "function"
    },
    {
      "inputs": [
        {
          "internalType": "uint256",
          "name": "tokenId",
          "type": "uint256"
        }
      ],
      "name": "ownerOf",
      "outputs": [
        {
          "internalType": "address",
          "name": "",
          "type": "address"
        }
      ],
      "stateMutability": "view",
      "type": "function"
    },
    {
      "inputs": [],
      "name": "renounceOwnership",
      "outputs": [],
      "stateMutability": "nonpayable",
      "type": "function"
    },
    {
      "inputs": [],
      "name": "resetDefaultRoyalty",
      "outputs": [],
      "stateMutability": "nonpayable",
      "type": "function"
    },
    {
      "inputs": [
        {
          "internalType": "uint256",
          "name": "tokenID",
          "type": "uint256"
        }
      ],
      "name": "resetRoyalty",
      "outputs": [],
      "stateMutability": "nonpayable",
      "type": "function"
    },
    {
      "inputs": [
        {
          "internalType": "uint256",
          "name": "_tokenId",
          "type": "uint256"
        },
        {
          "internalType": "uint256",
          "name": "_salePrice",
          "type": "uint256"
        }
      ],
      "name": "royaltyInfo",
      "outputs": [
        {
          "internalType": "address",
          "name": "",
          "type": "address"
        },
        {
          "internalType": "uint256",
          "name": "",
          "type": "uint256"
        }
      ],
      "stateMutability": "view",
      "type": "function"
    },
    {
      "inputs": [
        {
          "internalType": "address",
          "name": "from",
          "type": "address"
        },
        {
          "internalType": "address",
          "name": "to",
          "type": "address"
        },
        {
          "internalType": "uint256",
          "name": "tokenID",
          "type": "uint256"
        }
      ],
      "name": "safeTransferFrom",
      "outputs": [],
      "stateMutability": "nonpayable",
      "type": "function"
    },
    {
      "inputs": [
        {
          "internalType": "address",
          "name": "from",
          "type": "address"
        },
        {
          "internalType": "address",
          "name": "to",
          "type": "address"
        },
        {
          "internalType": "uint256",
          "name": "tokenId",
          "type": "uint256"
        },
        {
          "internalType": "bytes",
          "name": "_data",
          "type": "bytes"
        }
      ],
      "name": "safeTransferFrom",
      "outputs": [],
      "stateMutability": "nonpayable",
      "type": "function"
    },
    {
      "inputs": [
        {
          "internalType": "address",
          "name": "operator",
          "type": "address"
        },
        {
          "internalType": "bool",
          "name": "approved",
          "type": "bool"
        }
      ],
      "name": "setApprovalForAll",
      "outputs": [],
      "stateMutability": "nonpayable",
      "type": "function"
    },
    {
      "inputs": [
        {
          "internalType": "address",
          "name": "receiver",
          "type": "address"
        },
        {
          "internalType": "uint96",
          "name": "feeNumerator",
          "type": "uint96"
        }
      ],
      "name": "setDefaultRoyalty",
      "outputs": [],
      "stateMutability": "nonpayable",
      "type": "function"
    },
    {
      "inputs": [
        {
          "internalType": "uint256",
          "name": "tokenID",
          "type": "uint256"
        },
        {
          "internalType": "uint256",
          "name": "price",
          "type": "uint256"
        }
      ],
      "name": "setTokenPrice",
      "outputs": [],
      "stateMutability": "nonpayable",
      "type": "function"
    },
    {
      "inputs": [
        {
          "internalType": "uint256",
          "name": "tokenID",
          "type": "uint256"
        },
        {
          "internalType": "address",
          "name": "receiver",
          "type": "address"
        },
        {
          "internalType": "uint96",
          "name": "feeNumerator",
          "type": "uint96"
        }
      ],
      "name": "setTokenRoyalty",
      "outputs": [],
      "stateMutability": "nonpayable",
      "type": "function"
    },
    {
      "inputs": [
        {
          "internalType": "bytes4",
          "name": "interfaceId",
          "type": "bytes4"
        }
      ],
      "name": "supportsInterface",
      "outputs": [
        {
          "internalType": "bool",
          "name": "",
          "type": "bool"
        }
      ],
      "stateMutability": "view",
      "type": "function"
    },
    {
      "inputs": [],
      "name": "symbol",
      "outputs": [
        {
          "internalType": "string",
          "name": "",
          "type": "string"
        }
      ],
      "stateMutability": "view",
      "type": "function"
    },
    {
      "inputs": [
        {
          "internalType": "uint256",
          "name": "index",
          "type": "uint256"
        }
      ],
      "name": "tokenByIndex",
      "outputs": [
        {
          "internalType": "uint256",
          "name": "",
          "type": "uint256"
        }
      ],
      "stateMutability": "view",
      "type": "function"
    },
    {
      "inputs": [
        {
          "internalType": "address",
          "name": "owner",
          "type": "address"
        },
        {
          "internalType": "uint256",
          "name": "index",
          "type": "uint256"
        }
      ],
      "name": "tokenOfOwnerByIndex",
      "outputs": [
        {
          "internalType": "uint256",
          "name": "",
          "type": "uint256"
        }
      ],
      "stateMutability": "view",
      "type": "function"
    },
    {
      "inputs": [
        {
          "internalType": "uint256",
          "name": "",
          "type": "uint256"
        }
      ],
      "name": "tokenPrice",
      "outputs": [
        {
          "internalType": "uint256",
          "name": "",
          "type": "uint256"
        }
      ],
      "stateMutability": "view",
      "type": "function"
    },
    {
      "inputs": [
        {
          "internalType": "uint256",
          "name": "tokenID",
          "type": "uint256"
        }
      ],
      "name": "tokenURI",
      "outputs": [
        {
          "internalType": "string",
          "name": "tokenURI_",
          "type": "string"
        }
      ],
      "stateMutability": "view",
      "type": "function"
    },
    {
      "inputs": [],
      "name": "totalSupply",
      "outputs": [
        {
          "internalType": "uint256",
          "name": "",
          "type": "uint256"
        }
      ],
      "stateMutability": "view",
      "type": "function"
    },
    {
      "inputs": [
        {
          "internalType": "address",
          "name": "from",
          "type": "address"
        },
        {
          "internalType": "address",
          "name": "to",
          "type": "address"
        },
        {
          "internalType": "uint256",
          "name": "tokenId",
          "type": "uint256"
        }
      ],
      "name": "transferFrom",
      "outputs": [],
      "stateMutability": "nonpayable",
      "type": "function"
    },
    {
      "inputs": [
        {
          "internalType": "address",
          "name": "newOwner",
          "type": "address"
        }
      ],
      "name": "transferOwnership",
      "outputs": [],
      "stateMutability": "nonpayable",
      "type": "function"
    }
  ],
  "transactionHash": "0xe5e0e4e326bfe1cec3806714c3d327b4ace3cdd7ee21a3364dc0b5ff5632f6ad",
  "args": [],
  "numDeployments": 1,
  "solcInputHash": "8cf155cc6500a2027834980060a89c64",
  "bytecode": "0x608060405234801561001057600080fd5b50612ea7806100206000396000f3fe6080604052600436106101ee5760003560e01c8063715018a61161010d578063d4ddce8a116100a0578063eb685c471161006f578063eb685c47146105cc578063ee437dae146105ec578063f2fde38b14610601578063f6e257c714610621578063fcfff16f1461064157600080fd5b8063d4ddce8a14610522578063d85d3d2714610550578063d96a094a14610570578063e985e9c51461058357600080fd5b8063a22cb465116100dc578063a22cb465146104a2578063b88d4fde146104c2578063c87b56dd146104e2578063d0def5211461050257600080fd5b8063715018a6146104425780638da5cb5b146104575780639363c8121461047657806395d89b411461048d57600080fd5b80632f745c591161018557806354e10b481161015457806354e10b48146103c25780635944c753146103e25780636352211e1461040257806370a082311461042257600080fd5b80632f745c591461034257806342842e0e1461036257806342966c68146103825780634f6ccce7146103a257600080fd5b8063095ea7b3116101c1578063095ea7b3146102a457806318160ddd146102c457806323b872dd146102e35780632a55205a1461030357600080fd5b806301ffc9a7146101f357806304634d8d1461022857806306fdde031461024a578063081812fc1461026c575b600080fd5b3480156101ff57600080fd5b5061021361020e3660046125c4565b61065c565b60405190151581526020015b60405180910390f35b34801561023457600080fd5b5061024861024336600461260f565b6106a2565b005b34801561025657600080fd5b5061025f61072f565b60405161021f919061269a565b34801561027857600080fd5b5061028c6102873660046126ad565b6107c1565b6040516001600160a01b03909116815260200161021f565b3480156102b057600080fd5b506102486102bf3660046126c6565b610849565b3480156102d057600080fd5b506099545b60405190815260200161021f565b3480156102ef57600080fd5b506102486102fe3660046126f0565b61095f565b34801561030f57600080fd5b5061032361031e36600461272c565b610990565b604080516001600160a01b03909316835260208301919091520161021f565b34801561034e57600080fd5b506102d561035d3660046126c6565b610a3c565b34801561036e57600080fd5b5061024861037d3660046126f0565b610ad2565b34801561038e57600080fd5b5061024861039d3660046126ad565b610aed565b3480156103ae57600080fd5b506102d56103bd3660046126ad565b610af9565b3480156103ce57600080fd5b506102486103dd36600461281d565b610b8c565b3480156103ee57600080fd5b506102486103fd366004612920565b610c4d565b34801561040e57600080fd5b5061028c61041d3660046126ad565b610cdf565b34801561042e57600080fd5b506102d561043d36600461295c565b610d56565b34801561044e57600080fd5b50610248610ddd565b34801561046357600080fd5b5061012d546001600160a01b031661028c565b34801561048257600080fd5b506102d56101615481565b34801561049957600080fd5b5061025f610e14565b3480156104ae57600080fd5b506102486104bd366004612977565b610e23565b3480156104ce57600080fd5b506102486104dd3660046129a1565b610e32565b3480156104ee57600080fd5b5061025f6104fd3660046126ad565b610e6a565b34801561050e57600080fd5b506102d561051d366004612a1d565b610e75565b34801561052e57600080fd5b506102d561053d3660046126ad565b6101606020526000908152604090205481565b34801561055c57600080fd5b506102d561056b366004612a6b565b610eb4565b61024861057e3660046126ad565b610f1c565b34801561058f57600080fd5b5061021361059e366004612aa0565b6001600160a01b039182166000908152606a6020908152604080832093909416825291909152205460ff1690565b3480156105d857600080fd5b506102486105e736600461272c565b6110e8565b3480156105f857600080fd5b5061024861112d565b34801561060d57600080fd5b5061024861061c36600461295c565b6111c8565b34801561062d57600080fd5b5061024861063c3660046126ad565b611261565b34801561064d57600080fd5b50610162546102139060ff1681565b60006001600160e01b0319821663c16ea0bb60e01b148061068d57506001600160e01b031982166307f5828d60e41b145b8061069c575061069c826112e2565b92915050565b61012d546001600160a01b031633146106d65760405162461bcd60e51b81526004016106cd90612aca565b60405180910390fd5b6106e08282611307565b604080516001600160a01b03841681526001600160601b03831660208201527f9468d3b471de0b6cdb1448e57f72866ad8cc544a2a711a4587e5dbb2ef82988391015b60405180910390a15050565b60606065805461073e90612aff565b80601f016020809104026020016040519081016040528092919081815260200182805461076a90612aff565b80156107b75780601f1061078c576101008083540402835291602001916107b7565b820191906000526020600020905b81548152906001019060200180831161079a57829003601f168201915b5050505050905090565b60006107cc826113c1565b61082d5760405162461bcd60e51b815260206004820152602c60248201527f4552433732313a20617070726f76656420717565727920666f72206e6f6e657860448201526b34b9ba32b73a103a37b5b2b760a11b60648201526084016106cd565b506000908152606960205260409020546001600160a01b031690565b600061085482610cdf565b9050806001600160a01b0316836001600160a01b031614156108c25760405162461bcd60e51b815260206004820152602160248201527f4552433732313a20617070726f76616c20746f2063757272656e74206f776e656044820152603960f91b60648201526084016106cd565b336001600160a01b03821614806108de57506108de813361059e565b6109505760405162461bcd60e51b815260206004820152603860248201527f4552433732313a20617070726f76652063616c6c6572206973206e6f74206f7760448201527f6e6572206e6f7220617070726f76656420666f7220616c6c000000000000000060648201526084016106cd565b61095a83836113de565b505050565b610969338261144c565b6109855760405162461bcd60e51b81526004016106cd90612b3a565b61095a83838361146a565b600082815260fc602090815260408083208151808301909252546001600160a01b038116808352600160a01b9091046001600160601b0316928201929092528291610a0557506040805180820190915260fb546001600160a01b0381168252600160a01b90046001600160601b031660208201525b602081015160009061271090610a24906001600160601b031687612ba1565b610a2e9190612bd6565b915196919550909350505050565b6000610a4783610d56565b8210610aa95760405162461bcd60e51b815260206004820152602b60248201527f455243373231456e756d657261626c653a206f776e657220696e646578206f7560448201526a74206f6620626f756e647360a81b60648201526084016106cd565b506001600160a01b03919091166000908152609760209081526040808320938352929052205490565b61095a83838360405180602001604052806000815250610e32565b610af681611611565b50565b6000610b0460995490565b8210610b675760405162461bcd60e51b815260206004820152602c60248201527f455243373231456e756d657261626c653a20676c6f62616c20696e646578206f60448201526b7574206f6620626f756e647360a01b60648201526084016106cd565b60998281548110610b7a57610b7a612bea565b90600052602060002001549050919050565b6000610b98600161161a565b90508015610bb0576000805461ff0019166101001790555b610bb86116a2565b610bc285856116d1565b610bcb836111c8565b81600081518110610bde57610bde612bea565b602002602001015161016260006101000a81548160ff0219169083151502179055508015610c46576000805461ff0019169055604051600181527f7f26b83ff96e1f2b6a682f133852f6798a09c465da95921460cefb38474024989060200160405180910390a15b5050505050565b8233610c5882610cdf565b6001600160a01b031614610c7e5760405162461bcd60e51b81526004016106cd90612c00565b610c89848484611702565b604080518581526001600160a01b03851660208201526001600160601b0384168183015290517f2595213009f64247e2789cf9981bcc53ee736a6aa52042a651aa1549ae6fff619181900360600190a150505050565b6000818152606760205260408120546001600160a01b03168061069c5760405162461bcd60e51b815260206004820152602960248201527f4552433732313a206f776e657220717565727920666f72206e6f6e657869737460448201526832b73a103a37b5b2b760b91b60648201526084016106cd565b60006001600160a01b038216610dc15760405162461bcd60e51b815260206004820152602a60248201527f4552433732313a2062616c616e636520717565727920666f7220746865207a65604482015269726f206164647265737360b01b60648201526084016106cd565b506001600160a01b031660009081526068602052604090205490565b61012d546001600160a01b03163314610e085760405162461bcd60e51b81526004016106cd90612aca565b610e1260006117cd565b565b60606066805461073e90612aff565b610e2e338383611820565b5050565b610e3c338361144c565b610e585760405162461bcd60e51b81526004016106cd90612b3a565b610e64848484846118ef565b50505050565b606061069c82611922565b61012d546000906001600160a01b03163314610ea35760405162461bcd60e51b81526004016106cd90612aca565b610ead8383611a99565b9392505050565b6101625460009060ff1680610ed4575061012d546001600160a01b031633145b610f0d5760405162461bcd60e51b815260206004820152600a6024820152692737ba1036b4b73a32b960b11b60448201526064016106cd565b61069c3383611a99565b919050565b6000818152610160602052604090205480610f675760405162461bcd60e51b815260206004820152600b60248201526a139bdd081d1bc81cd95b1b60aa1b60448201526064016106cd565b80341015610faa5760405162461bcd60e51b815260206004820152601060248201526f4e6f7420656e6f7567682066756e647360801b60448201526064016106cd565b6000610fb583610cdf565b90506001600160a01b038116610fcd57610fcd612c29565b600083815261016060205260408082209190915551632142170760e11b81526001600160a01b03821660048201523360248201526044810184905230906342842e0e90606401600060405180830381600087803b15801561102d57600080fd5b505af1158015611041573d6000803e3d6000fd5b505050506000806110528585610990565b915091508381111561106657611066612c29565b6040516001600160a01b0383169082156108fc029083906000818181858888f1935050505015801561109c573d6000803e3d6000fd5b5060006110a98534612c3f565b905080156110e057604051339082156108fc029083906000818181858888f193505050501580156110de573d6000803e3d6000fd5b505b505050505050565b81336110f382610cdf565b6001600160a01b0316146111195760405162461bcd60e51b81526004016106cd90612c00565b506000918252610160602052604090912055565b6101625460ff168061114a575061012d546001600160a01b031633145b6111835760405162461bcd60e51b815260206004820152600a6024820152692737ba1036b4b73a32b960b11b60448201526064016106cd565b61118d600060fb55565b60408051600080825260208201527f9468d3b471de0b6cdb1448e57f72866ad8cc544a2a711a4587e5dbb2ef829883910160405180910390a1565b61012d546001600160a01b031633146111f35760405162461bcd60e51b81526004016106cd90612aca565b6001600160a01b0381166112585760405162461bcd60e51b815260206004820152602660248201527f4f776e61626c653a206e6577206f776e657220697320746865207a65726f206160448201526564647265737360d01b60648201526084016106cd565b610af6816117cd565b803361126c82610cdf565b6001600160a01b0316146112925760405162461bcd60e51b81526004016106cd90612c00565b600082815260fc602052604081205560408051838152600060208201819052918101919091527f2595213009f64247e2789cf9981bcc53ee736a6aa52042a651aa1549ae6fff6190606001610723565b60006001600160e01b0319821663152a902d60e11b148061069c575061069c82611acc565b6127106001600160601b03821611156113325760405162461bcd60e51b81526004016106cd90612c56565b6001600160a01b0382166113885760405162461bcd60e51b815260206004820152601960248201527f455243323938313a20696e76616c69642072656365697665720000000000000060448201526064016106cd565b604080518082019091526001600160a01b039092168083526001600160601b039091166020909201829052600160a01b9091021760fb55565b6000908152606760205260409020546001600160a01b0316151590565b600081815260696020526040902080546001600160a01b0319166001600160a01b038416908117909155819061141382610cdf565b6001600160a01b03167f8c5be1e5ebec7d5bd14f71427d1e84f3dd0314c0f7b2291e5b200ac8c7c3b92560405160405180910390a45050565b60006001600160a01b038316301480610ead5750610ead8383611af1565b826001600160a01b031661147d82610cdf565b6001600160a01b0316146114e15760405162461bcd60e51b815260206004820152602560248201527f4552433732313a207472616e736665722066726f6d20696e636f72726563742060448201526437bbb732b960d91b60648201526084016106cd565b6001600160a01b0382166115435760405162461bcd60e51b8152602060048201526024808201527f4552433732313a207472616e7366657220746f20746865207a65726f206164646044820152637265737360e01b60648201526084016106cd565b61154e838383611bda565b6115596000826113de565b6001600160a01b0383166000908152606860205260408120805460019290611582908490612c3f565b90915550506001600160a01b03821660009081526068602052604081208054600192906115b0908490612ca0565b909155505060008181526067602052604080822080546001600160a01b0319166001600160a01b0386811691821790925591518493918716917fddf252ad1be2c89b69c2b068fc378daa952ba7f163c4a11628f55a4df523b3ef91a4505050565b610af681611be5565b60008054610100900460ff1615611661578160ff16600114801561163d5750303b155b6116595760405162461bcd60e51b81526004016106cd90612cb8565b506000919050565b60005460ff8084169116106116885760405162461bcd60e51b81526004016106cd90612cb8565b506000805460ff191660ff92909216919091179055600190565b600054610100900460ff166116c95760405162461bcd60e51b81526004016106cd90612d06565b610e12611c25565b600054610100900460ff166116f85760405162461bcd60e51b81526004016106cd90612d06565b610e2e8282611c55565b6127106001600160601b038216111561172d5760405162461bcd60e51b81526004016106cd90612c56565b6001600160a01b0382166117835760405162461bcd60e51b815260206004820152601b60248201527f455243323938313a20496e76616c696420706172616d6574657273000000000060448201526064016106cd565b6040805180820182526001600160a01b0393841681526001600160601b039283166020808301918252600096875260fc90529190942093519051909116600160a01b029116179055565b61012d80546001600160a01b038381166001600160a01b0319831681179093556040519116919082907f8be0079c531659141344cd1fd0a4f28419497f9722a3daafe3b4186f6b6457e090600090a35050565b816001600160a01b0316836001600160a01b031614156118825760405162461bcd60e51b815260206004820152601960248201527f4552433732313a20617070726f766520746f2063616c6c65720000000000000060448201526064016106cd565b6001600160a01b038381166000818152606a6020908152604080832094871680845294825291829020805460ff191686151590811790915591519182527f17307eab39ab6107e8899845ad3d59bd9653f200f220920489ca2b5937696c31910160405180910390a3505050565b6118fa84848461146a565b61190684848484611ca3565b610e645760405162461bcd60e51b81526004016106cd90612d51565b606061192d826113c1565b6119935760405162461bcd60e51b815260206004820152603160248201527f45524337323155524953746f726167653a2055524920717565727920666f72206044820152703737b732bc34b9ba32b73a103a37b5b2b760791b60648201526084016106cd565b600082815260c96020526040812080546119ac90612aff565b80601f01602080910402602001604051908101604052809291908181526020018280546119d890612aff565b8015611a255780601f106119fa57610100808354040283529160200191611a25565b820191906000526020600020905b815481529060010190602001808311611a0857829003601f168201915b505050505090506000611a4360408051602081019091526000815290565b9050805160001415611a56575092915050565b815115611a88578082604051602001611a70929190612da3565b60405160208183030381529060405292505050919050565b611a9184611db0565b949350505050565b6000611aaa61015f80546001019055565b6000611ab661015f5490565b9050611ac28482611e87565b610ead8184611ea1565b60006001600160e01b0319821663780e9d6360e01b148061069c575061069c82611f2c565b6000611afc826113c1565b611b5d5760405162461bcd60e51b815260206004820152602c60248201527f4552433732313a206f70657261746f7220717565727920666f72206e6f6e657860448201526b34b9ba32b73a103a37b5b2b760a11b60648201526084016106cd565b6000611b6883610cdf565b9050806001600160a01b0316846001600160a01b03161480611baf57506001600160a01b038082166000908152606a602090815260408083209388168352929052205460ff165b80611a915750836001600160a01b0316611bc8846107c1565b6001600160a01b031614949350505050565b61095a838383611f7c565b611bee81612034565b600081815260c9602052604090208054611c0790612aff565b159050610af657600081815260c960205260408120610af6916124db565b600054610100900460ff16611c4c5760405162461bcd60e51b81526004016106cd90612d06565b610e12336117cd565b600054610100900460ff16611c7c5760405162461bcd60e51b81526004016106cd90612d06565b8151611c8f906065906020850190612515565b50805161095a906066906020840190612515565b60006001600160a01b0384163b15611da557604051630a85bd0160e11b81526001600160a01b0385169063150b7a0290611ce7903390899088908890600401612dd2565b602060405180830381600087803b158015611d0157600080fd5b505af1925050508015611d31575060408051601f3d908101601f19168201909252611d2e91810190612e0f565b60015b611d8b573d808015611d5f576040519150601f19603f3d011682016040523d82523d6000602084013e611d64565b606091505b508051611d835760405162461bcd60e51b81526004016106cd90612d51565b805181602001fd5b6001600160e01b031916630a85bd0160e11b149050611a91565b506001949350505050565b6060611dbb826113c1565b611e1f5760405162461bcd60e51b815260206004820152602f60248201527f4552433732314d657461646174613a2055524920717565727920666f72206e6f60448201526e3732bc34b9ba32b73a103a37b5b2b760891b60648201526084016106cd565b6000611e3660408051602081019091526000815290565b90506000815111611e565760405180602001604052806000815250610ead565b80611e60846120db565b604051602001611e71929190612da3565b6040516020818303038152906040529392505050565b610e2e8282604051806020016040528060008152506121d9565b611eaa826113c1565b611f0d5760405162461bcd60e51b815260206004820152602e60248201527f45524337323155524953746f726167653a2055524920736574206f66206e6f6e60448201526d32bc34b9ba32b73a103a37b5b2b760911b60648201526084016106cd565b600082815260c960209081526040909120825161095a92840190612515565b60006001600160e01b031982166380ac58cd60e01b1480611f5d57506001600160e01b03198216635b5e139f60e01b145b8061069c57506301ffc9a760e01b6001600160e01b031983161461069c565b6001600160a01b038316611fd757611fd281609980546000838152609a60205260408120829055600182018355919091527f72a152ddfb8e864297c917af52ea6c1c68aead0fee1a62673fcc7e0c94979d000155565b611ffa565b816001600160a01b0316836001600160a01b031614611ffa57611ffa838261220c565b6001600160a01b0382166120115761095a816122a9565b826001600160a01b0316826001600160a01b03161461095a5761095a8282612358565b600061203f82610cdf565b905061204d81600084611bda565b6120586000836113de565b6001600160a01b0381166000908152606860205260408120805460019290612081908490612c3f565b909155505060008281526067602052604080822080546001600160a01b0319169055518391906001600160a01b038416907fddf252ad1be2c89b69c2b068fc378daa952ba7f163c4a11628f55a4df523b3ef908390a45050565b6060816120ff5750506040805180820190915260018152600360fc1b602082015290565b8160005b8115612129578061211381612e2c565b91506121229050600a83612bd6565b9150612103565b60008167ffffffffffffffff8111156121445761214461274e565b6040519080825280601f01601f19166020018201604052801561216e576020820181803683370190505b5090505b8415611a9157612183600183612c3f565b9150612190600a86612e47565b61219b906030612ca0565b60f81b8183815181106121b0576121b0612bea565b60200101906001600160f81b031916908160001a9053506121d2600a86612bd6565b9450612172565b6121e3838361239c565b6121f06000848484611ca3565b61095a5760405162461bcd60e51b81526004016106cd90612d51565b6000600161221984610d56565b6122239190612c3f565b600083815260986020526040902054909150808214612276576001600160a01b03841660009081526097602090815260408083208584528252808320548484528184208190558352609890915290208190555b5060009182526098602090815260408084208490556001600160a01b039094168352609781528383209183525290812055565b6099546000906122bb90600190612c3f565b6000838152609a6020526040812054609980549394509092849081106122e3576122e3612bea565b90600052602060002001549050806099838154811061230457612304612bea565b6000918252602080832090910192909255828152609a9091526040808220849055858252812055609980548061233c5761233c612e5b565b6001900381819060005260206000200160009055905550505050565b600061236383610d56565b6001600160a01b039093166000908152609760209081526040808320868452825280832085905593825260989052919091209190915550565b6001600160a01b0382166123f25760405162461bcd60e51b815260206004820181905260248201527f4552433732313a206d696e7420746f20746865207a65726f206164647265737360448201526064016106cd565b6123fb816113c1565b156124485760405162461bcd60e51b815260206004820152601c60248201527f4552433732313a20746f6b656e20616c7265616479206d696e7465640000000060448201526064016106cd565b61245460008383611bda565b6001600160a01b038216600090815260686020526040812080546001929061247d908490612ca0565b909155505060008181526067602052604080822080546001600160a01b0319166001600160a01b03861690811790915590518392907fddf252ad1be2c89b69c2b068fc378daa952ba7f163c4a11628f55a4df523b3ef908290a45050565b5080546124e790612aff565b6000825580601f106124f7575050565b601f016020900490600052602060002090810190610af69190612599565b82805461252190612aff565b90600052602060002090601f0160209004810192826125435760008555612589565b82601f1061255c57805160ff1916838001178555612589565b82800160010185558215612589579182015b8281111561258957825182559160200191906001019061256e565b50612595929150612599565b5090565b5b80821115612595576000815560010161259a565b6001600160e01b031981168114610af657600080fd5b6000602082840312156125d657600080fd5b8135610ead816125ae565b80356001600160a01b0381168114610f1757600080fd5b80356001600160601b0381168114610f1757600080fd5b6000806040838503121561262257600080fd5b61262b836125e1565b9150612639602084016125f8565b90509250929050565b60005b8381101561265d578181015183820152602001612645565b83811115610e645750506000910152565b60008151808452612686816020860160208601612642565b601f01601f19169290920160200192915050565b602081526000610ead602083018461266e565b6000602082840312156126bf57600080fd5b5035919050565b600080604083850312156126d957600080fd5b6126e2836125e1565b946020939093013593505050565b60008060006060848603121561270557600080fd5b61270e846125e1565b925061271c602085016125e1565b9150604084013590509250925092565b6000806040838503121561273f57600080fd5b50508035926020909101359150565b634e487b7160e01b600052604160045260246000fd5b604051601f8201601f1916810167ffffffffffffffff8111828210171561278d5761278d61274e565b604052919050565b600067ffffffffffffffff8311156127af576127af61274e565b6127c2601f8401601f1916602001612764565b90508281528383830111156127d657600080fd5b828260208301376000602084830101529392505050565b600082601f8301126127fe57600080fd5b610ead83833560208501612795565b80358015158114610f1757600080fd5b6000806000806080858703121561283357600080fd5b843567ffffffffffffffff8082111561284b57600080fd5b612857888389016127ed565b955060209150818701358181111561286e57600080fd5b61287a89828a016127ed565b955050612889604088016125e1565b935060608701358181111561289d57600080fd5b8701601f810189136128ae57600080fd5b8035828111156128c0576128c061274e565b8060051b92506128d1848401612764565b818152928201840192848101908b8511156128eb57600080fd5b928501925b84841015612910576129018461280d565b825292850192908501906128f0565b989b979a50959850505050505050565b60008060006060848603121561293557600080fd5b83359250612945602085016125e1565b9150612953604085016125f8565b90509250925092565b60006020828403121561296e57600080fd5b610ead826125e1565b6000806040838503121561298a57600080fd5b612993836125e1565b91506126396020840161280d565b600080600080608085870312156129b757600080fd5b6129c0856125e1565b93506129ce602086016125e1565b925060408501359150606085013567ffffffffffffffff8111156129f157600080fd5b8501601f81018713612a0257600080fd5b612a1187823560208401612795565b91505092959194509250565b60008060408385031215612a3057600080fd5b612a39836125e1565b9150602083013567ffffffffffffffff811115612a5557600080fd5b612a61858286016127ed565b9150509250929050565b600060208284031215612a7d57600080fd5b813567ffffffffffffffff811115612a9457600080fd5b611a91848285016127ed565b60008060408385031215612ab357600080fd5b612abc836125e1565b9150612639602084016125e1565b6020808252818101527f4f776e61626c653a2063616c6c6572206973206e6f7420746865206f776e6572604082015260600190565b600181811c90821680612b1357607f821691505b60208210811415612b3457634e487b7160e01b600052602260045260246000fd5b50919050565b60208082526031908201527f4552433732313a207472616e736665722063616c6c6572206973206e6f74206f6040820152701ddb995c881b9bdc88185c1c1c9bdd9959607a1b606082015260800190565b634e487b7160e01b600052601160045260246000fd5b6000816000190483118215151615612bbb57612bbb612b8b565b500290565b634e487b7160e01b600052601260045260246000fd5b600082612be557612be5612bc0565b500490565b634e487b7160e01b600052603260045260246000fd5b6020808252600f908201526e2737ba103a37b5b2b71037bbb732b960891b604082015260600190565b634e487b7160e01b600052600160045260246000fd5b600082821015612c5157612c51612b8b565b500390565b6020808252602a908201527f455243323938313a20726f79616c7479206665652077696c6c206578636565646040820152692073616c65507269636560b01b606082015260800190565b60008219821115612cb357612cb3612b8b565b500190565b6020808252602e908201527f496e697469616c697a61626c653a20636f6e747261637420697320616c72656160408201526d191e481a5b9a5d1a585b1a5e995960921b606082015260800190565b6020808252602b908201527f496e697469616c697a61626c653a20636f6e7472616374206973206e6f74206960408201526a6e697469616c697a696e6760a81b606082015260800190565b60208082526032908201527f4552433732313a207472616e7366657220746f206e6f6e20455243373231526560408201527131b2b4bb32b91034b6b83632b6b2b73a32b960711b606082015260800190565b60008351612db5818460208801612642565b835190830190612dc9818360208801612642565b01949350505050565b6001600160a01b0385811682528416602082015260408101839052608060608201819052600090612e059083018461266e565b9695505050505050565b600060208284031215612e2157600080fd5b8151610ead816125ae565b6000600019821415612e4057612e40612b8b565b5060010190565b600082612e5657612e56612bc0565b500690565b634e487b7160e01b600052603160045260246000fdfea2646970667358221220153330316fb20bcdbfa68a1fdabf9da3c5b5762a8650ec54a412a5679bf72cc664736f6c63430008090033",
  "devdoc": {
    "kind": "dev",
    "methods": {
      "approve(address,uint256)": {
        "details": "See {IERC721-approve}."
      },
      "balanceOf(address)": {
        "details": "See {IERC721-balanceOf}."
      },
      "burn(uint256)": {
        "params": {
          "tokenID": "tokenID of NFT to burn"
        }
      },
      "getApproved(uint256)": {
        "details": "See {IERC721-getApproved}."
      },
      "initialize(string,string,address,bool[])": {
        "params": {
          "name": "name of the NFT Collection",
          "options": "select minting open to everyone or only owner",
          "owner": "owner of the NFT Collection",
          "symbol": "symbol of the NFT Collection"
        }
      },
      "isApprovedForAll(address,address)": {
        "details": "See {IERC721-isApprovedForAll}."
      },
      "name()": {
        "details": "See {IERC721Metadata-name}."
      },
      "owner()": {
        "details": "Returns the address of the current owner."
      },
      "ownerOf(uint256)": {
        "details": "See {IERC721-ownerOf}."
      },
      "renounceOwnership()": {
        "details": "Leaves the contract without owner. It will not be possible to call `onlyOwner` functions anymore. Can only be called by the current owner. NOTE: Renouncing ownership will leave the contract without an owner, thereby removing any functionality that is only available to the owner."
      },
      "resetRoyalty(uint256)": {
        "params": {
          "tokenID": ": token ID"
        }
      },
      "royaltyInfo(uint256,uint256)": {
        "details": "Returns how much royalty is owed and to whom, based on a sale price that may be denominated in any unit of exchange. The royalty amount is denominated and should be paid in that same unit of exchange."
      },
      "safeTransferFrom(address,address,uint256,bytes)": {
        "details": "See {IERC721-safeTransferFrom}."
      },
      "setApprovalForAll(address,bool)": {
        "details": "See {IERC721-setApprovalForAll}."
      },
      "setDefaultRoyalty(address,uint96)": {
        "params": {
          "feeNumerator": ": fee Numerator, over 10000",
          "receiver": ": address of the royalty receiver"
        }
      },
      "setTokenRoyalty(uint256,address,uint96)": {
        "params": {
          "feeNumerator": ": fee Numerator, over 10000",
          "receiver": ": address of the royalty receiver",
          "tokenID": ": token ID"
        }
      },
      "supportsInterface(bytes4)": {
        "params": {
          "interfaceId": "interfaceId to test"
        }
      },
      "symbol()": {
        "details": "See {IERC721Metadata-symbol}."
      },
      "tokenByIndex(uint256)": {
        "details": "See {IERC721Enumerable-tokenByIndex}."
      },
      "tokenOfOwnerByIndex(address,uint256)": {
        "details": "See {IERC721Enumerable-tokenOfOwnerByIndex}."
      },
      "tokenURI(uint256)": {
        "params": {
          "tokenID": "tokenID of NFT",
          "tokenURI_": "token URI of NFT"
        }
      },
      "totalSupply()": {
        "details": "See {IERC721Enumerable-totalSupply}."
      },
      "transferFrom(address,address,uint256)": {
        "details": "See {IERC721-transferFrom}."
      },
      "transferOwnership(address)": {
        "details": "Transfers ownership of the contract to a new account (`newOwner`). Can only be called by the current owner."
      }
    },
    "title": "OpenNFTs smartcontract",
    "version": 1
  },
  "userdoc": {
    "kind": "user",
    "methods": {
      "burn(uint256)": {
        "notice": "burn NFT"
      },
      "initialize(string,string,address,bool[])": {
        "notice": "initialize"
      },
      "open()": {
        "notice": "Mint NFT allowed to everyone or only collection owner"
      },
      "resetDefaultRoyalty()": {
        "notice": "DELETE default royalty configuration"
      },
      "resetRoyalty(uint256)": {
        "notice": "RESET token royalty configuration"
      },
      "setDefaultRoyalty(address,uint96)": {
        "notice": "SET default royalty configuration"
      },
      "setTokenRoyalty(uint256,address,uint96)": {
        "notice": "SET token royalty configuration"
      },
      "supportsInterface(bytes4)": {
        "notice": "test if this interface is supported"
      },
      "tokenURI(uint256)": {
        "notice": "Get tokenURI"
      }
    },
    "version": 1
  },
  "storageLayout": {
    "storage": [
      {
        "astId": 149,
        "contract": "contracts/dev/OpenNFTsV4.sol:OpenNFTsV4",
        "label": "_initialized",
        "offset": 0,
        "slot": "0",
        "type": "t_uint8"
      },
      {
        "astId": 152,
        "contract": "contracts/dev/OpenNFTsV4.sol:OpenNFTsV4",
        "label": "_initializing",
        "offset": 1,
        "slot": "0",
        "type": "t_bool"
      },
      {
        "astId": 2375,
        "contract": "contracts/dev/OpenNFTsV4.sol:OpenNFTsV4",
        "label": "__gap",
        "offset": 0,
        "slot": "1",
        "type": "t_array(t_uint256)50_storage"
      },
      {
        "astId": 2696,
        "contract": "contracts/dev/OpenNFTsV4.sol:OpenNFTsV4",
        "label": "__gap",
        "offset": 0,
        "slot": "51",
        "type": "t_array(t_uint256)50_storage"
      },
      {
        "astId": 313,
        "contract": "contracts/dev/OpenNFTsV4.sol:OpenNFTsV4",
        "label": "_name",
        "offset": 0,
        "slot": "101",
        "type": "t_string_storage"
      },
      {
        "astId": 315,
        "contract": "contracts/dev/OpenNFTsV4.sol:OpenNFTsV4",
        "label": "_symbol",
        "offset": 0,
        "slot": "102",
        "type": "t_string_storage"
      },
      {
        "astId": 319,
        "contract": "contracts/dev/OpenNFTsV4.sol:OpenNFTsV4",
        "label": "_owners",
        "offset": 0,
        "slot": "103",
        "type": "t_mapping(t_uint256,t_address)"
      },
      {
        "astId": 323,
        "contract": "contracts/dev/OpenNFTsV4.sol:OpenNFTsV4",
        "label": "_balances",
        "offset": 0,
        "slot": "104",
        "type": "t_mapping(t_address,t_uint256)"
      },
      {
        "astId": 327,
        "contract": "contracts/dev/OpenNFTsV4.sol:OpenNFTsV4",
        "label": "_tokenApprovals",
        "offset": 0,
        "slot": "105",
        "type": "t_mapping(t_uint256,t_address)"
      },
      {
        "astId": 333,
        "contract": "contracts/dev/OpenNFTsV4.sol:OpenNFTsV4",
        "label": "_operatorApprovals",
        "offset": 0,
        "slot": "106",
        "type": "t_mapping(t_address,t_mapping(t_address,t_bool))"
      },
      {
        "astId": 1174,
        "contract": "contracts/dev/OpenNFTsV4.sol:OpenNFTsV4",
        "label": "__gap",
        "offset": 0,
        "slot": "107",
        "type": "t_array(t_uint256)44_storage"
      },
      {
        "astId": 1339,
        "contract": "contracts/dev/OpenNFTsV4.sol:OpenNFTsV4",
        "label": "_ownedTokens",
        "offset": 0,
        "slot": "151",
        "type": "t_mapping(t_address,t_mapping(t_uint256,t_uint256))"
      },
      {
        "astId": 1343,
        "contract": "contracts/dev/OpenNFTsV4.sol:OpenNFTsV4",
        "label": "_ownedTokensIndex",
        "offset": 0,
        "slot": "152",
        "type": "t_mapping(t_uint256,t_uint256)"
      },
      {
        "astId": 1346,
        "contract": "contracts/dev/OpenNFTsV4.sol:OpenNFTsV4",
        "label": "_allTokens",
        "offset": 0,
        "slot": "153",
        "type": "t_array(t_uint256)dyn_storage"
      },
      {
        "astId": 1350,
        "contract": "contracts/dev/OpenNFTsV4.sol:OpenNFTsV4",
        "label": "_allTokensIndex",
        "offset": 0,
        "slot": "154",
        "type": "t_mapping(t_uint256,t_uint256)"
      },
      {
        "astId": 1666,
        "contract": "contracts/dev/OpenNFTsV4.sol:OpenNFTsV4",
        "label": "__gap",
        "offset": 0,
        "slot": "155",
        "type": "t_array(t_uint256)46_storage"
      },
      {
        "astId": 1695,
        "contract": "contracts/dev/OpenNFTsV4.sol:OpenNFTsV4",
        "label": "_tokenURIs",
        "offset": 0,
        "slot": "201",
        "type": "t_mapping(t_uint256,t_string_storage)"
      },
      {
        "astId": 1814,
        "contract": "contracts/dev/OpenNFTsV4.sol:OpenNFTsV4",
        "label": "__gap",
        "offset": 0,
        "slot": "202",
        "type": "t_array(t_uint256)49_storage"
      },
      {
        "astId": 1905,
        "contract": "contracts/dev/OpenNFTsV4.sol:OpenNFTsV4",
        "label": "_defaultRoyaltyInfo",
        "offset": 0,
        "slot": "251",
        "type": "t_struct(RoyaltyInfo)1902_storage"
      },
      {
        "astId": 1910,
        "contract": "contracts/dev/OpenNFTsV4.sol:OpenNFTsV4",
        "label": "_tokenRoyaltyInfo",
        "offset": 0,
        "slot": "252",
        "type": "t_mapping(t_uint256,t_struct(RoyaltyInfo)1902_storage)"
      },
      {
        "astId": 2090,
        "contract": "contracts/dev/OpenNFTsV4.sol:OpenNFTsV4",
        "label": "__gap",
        "offset": 0,
        "slot": "253",
        "type": "t_array(t_uint256)48_storage"
      },
      {
        "astId": 10,
        "contract": "contracts/dev/OpenNFTsV4.sol:OpenNFTsV4",
        "label": "_owner",
        "offset": 0,
        "slot": "301",
        "type": "t_address"
      },
      {
        "astId": 122,
        "contract": "contracts/dev/OpenNFTsV4.sol:OpenNFTsV4",
        "label": "__gap",
        "offset": 0,
        "slot": "302",
        "type": "t_array(t_uint256)49_storage"
      },
      {
        "astId": 8226,
        "contract": "contracts/dev/OpenNFTsV4.sol:OpenNFTsV4",
        "label": "_tokenIds",
        "offset": 0,
        "slot": "351",
        "type": "t_struct(Counter)2382_storage"
      },
      {
        "astId": 8230,
        "contract": "contracts/dev/OpenNFTsV4.sol:OpenNFTsV4",
        "label": "tokenPrice",
        "offset": 0,
        "slot": "352",
        "type": "t_mapping(t_uint256,t_uint256)"
      },
      {
        "astId": 8232,
        "contract": "contracts/dev/OpenNFTsV4.sol:OpenNFTsV4",
        "label": "floorPrice",
        "offset": 0,
        "slot": "353",
        "type": "t_uint256"
      },
      {
        "astId": 8235,
        "contract": "contracts/dev/OpenNFTsV4.sol:OpenNFTsV4",
        "label": "open",
        "offset": 0,
        "slot": "354",
        "type": "t_bool"
      }
    ],
    "types": {
      "t_address": {
        "encoding": "inplace",
        "label": "address",
        "numberOfBytes": "20"
      },
      "t_array(t_uint256)44_storage": {
        "base": "t_uint256",
        "encoding": "inplace",
        "label": "uint256[44]",
        "numberOfBytes": "1408"
      },
      "t_array(t_uint256)46_storage": {
        "base": "t_uint256",
        "encoding": "inplace",
        "label": "uint256[46]",
        "numberOfBytes": "1472"
      },
      "t_array(t_uint256)48_storage": {
        "base": "t_uint256",
        "encoding": "inplace",
        "label": "uint256[48]",
        "numberOfBytes": "1536"
      },
      "t_array(t_uint256)49_storage": {
        "base": "t_uint256",
        "encoding": "inplace",
        "label": "uint256[49]",
        "numberOfBytes": "1568"
      },
      "t_array(t_uint256)50_storage": {
        "base": "t_uint256",
        "encoding": "inplace",
        "label": "uint256[50]",
        "numberOfBytes": "1600"
      },
      "t_array(t_uint256)dyn_storage": {
        "base": "t_uint256",
        "encoding": "dynamic_array",
        "label": "uint256[]",
        "numberOfBytes": "32"
      },
      "t_bool": {
        "encoding": "inplace",
        "label": "bool",
        "numberOfBytes": "1"
      },
      "t_mapping(t_address,t_bool)": {
        "encoding": "mapping",
        "key": "t_address",
        "label": "mapping(address => bool)",
        "numberOfBytes": "32",
        "value": "t_bool"
      },
      "t_mapping(t_address,t_mapping(t_address,t_bool))": {
        "encoding": "mapping",
        "key": "t_address",
        "label": "mapping(address => mapping(address => bool))",
        "numberOfBytes": "32",
        "value": "t_mapping(t_address,t_bool)"
      },
      "t_mapping(t_address,t_mapping(t_uint256,t_uint256))": {
        "encoding": "mapping",
        "key": "t_address",
        "label": "mapping(address => mapping(uint256 => uint256))",
        "numberOfBytes": "32",
        "value": "t_mapping(t_uint256,t_uint256)"
      },
      "t_mapping(t_address,t_uint256)": {
        "encoding": "mapping",
        "key": "t_address",
        "label": "mapping(address => uint256)",
        "numberOfBytes": "32",
        "value": "t_uint256"
      },
      "t_mapping(t_uint256,t_address)": {
        "encoding": "mapping",
        "key": "t_uint256",
        "label": "mapping(uint256 => address)",
        "numberOfBytes": "32",
        "value": "t_address"
      },
      "t_mapping(t_uint256,t_string_storage)": {
        "encoding": "mapping",
        "key": "t_uint256",
        "label": "mapping(uint256 => string)",
        "numberOfBytes": "32",
        "value": "t_string_storage"
      },
      "t_mapping(t_uint256,t_struct(RoyaltyInfo)1902_storage)": {
        "encoding": "mapping",
        "key": "t_uint256",
        "label": "mapping(uint256 => struct ERC2981Upgradeable.RoyaltyInfo)",
        "numberOfBytes": "32",
        "value": "t_struct(RoyaltyInfo)1902_storage"
      },
      "t_mapping(t_uint256,t_uint256)": {
        "encoding": "mapping",
        "key": "t_uint256",
        "label": "mapping(uint256 => uint256)",
        "numberOfBytes": "32",
        "value": "t_uint256"
      },
      "t_string_storage": {
        "encoding": "bytes",
        "label": "string",
        "numberOfBytes": "32"
      },
      "t_struct(Counter)2382_storage": {
        "encoding": "inplace",
        "label": "struct CountersUpgradeable.Counter",
        "members": [
          {
            "astId": 2381,
            "contract": "contracts/dev/OpenNFTsV4.sol:OpenNFTsV4",
            "label": "_value",
            "offset": 0,
            "slot": "0",
            "type": "t_uint256"
          }
        ],
        "numberOfBytes": "32"
      },
      "t_struct(RoyaltyInfo)1902_storage": {
        "encoding": "inplace",
        "label": "struct ERC2981Upgradeable.RoyaltyInfo",
        "members": [
          {
            "astId": 1899,
            "contract": "contracts/dev/OpenNFTsV4.sol:OpenNFTsV4",
            "label": "receiver",
            "offset": 0,
            "slot": "0",
            "type": "t_address"
          },
          {
            "astId": 1901,
            "contract": "contracts/dev/OpenNFTsV4.sol:OpenNFTsV4",
            "label": "royaltyFraction",
            "offset": 20,
            "slot": "0",
            "type": "t_uint96"
          }
        ],
        "numberOfBytes": "32"
      },
      "t_uint256": {
        "encoding": "inplace",
        "label": "uint256",
        "numberOfBytes": "32"
      },
      "t_uint8": {
        "encoding": "inplace",
        "label": "uint8",
        "numberOfBytes": "1"
      },
      "t_uint96": {
        "encoding": "inplace",
        "label": "uint96",
        "numberOfBytes": "12"
      }
    }
  }
}