{
  "address": "0xeDA29c74a44a60b401a587486B60c413c94c00d4",
  "abi": [
    {
      "anonymous": false,
      "inputs": [
        {
          "indexed": true,
          "internalType": "address",
          "name": "owner",
          "type": "address"
        },
        {
          "indexed": true,
          "internalType": "address",
          "name": "approved",
          "type": "address"
        },
        {
          "indexed": true,
          "internalType": "uint256",
          "name": "tokenId",
          "type": "uint256"
        }
      ],
      "name": "Approval",
      "type": "event"
    },
    {
      "anonymous": false,
      "inputs": [
        {
          "indexed": true,
          "internalType": "address",
          "name": "owner",
          "type": "address"
        },
        {
          "indexed": true,
          "internalType": "address",
          "name": "operator",
          "type": "address"
        },
        {
          "indexed": false,
          "internalType": "bool",
          "name": "approved",
          "type": "bool"
        }
      ],
      "name": "ApprovalForAll",
      "type": "event"
    },
    {
      "anonymous": false,
      "inputs": [
        {
          "indexed": true,
          "internalType": "address",
          "name": "previousOwner",
          "type": "address"
        },
        {
          "indexed": true,
          "internalType": "address",
          "name": "newOwner",
          "type": "address"
        }
      ],
      "name": "OwnershipTransferred",
      "type": "event"
    },
    {
      "anonymous": false,
      "inputs": [
        {
          "indexed": true,
          "internalType": "address",
          "name": "from",
          "type": "address"
        },
        {
          "indexed": true,
          "internalType": "address",
          "name": "to",
          "type": "address"
        },
        {
          "indexed": true,
          "internalType": "uint256",
          "name": "tokenId",
          "type": "uint256"
        }
      ],
      "name": "Transfer",
      "type": "event"
    },
    {
      "inputs": [
        {
          "internalType": "address",
          "name": "spender",
          "type": "address"
        },
        {
          "internalType": "uint256",
          "name": "tokenID",
          "type": "uint256"
        }
      ],
      "name": "approve",
      "outputs": [],
      "stateMutability": "nonpayable",
      "type": "function"
    },
    {
      "inputs": [
        {
          "internalType": "address",
          "name": "owner",
          "type": "address"
        }
      ],
      "name": "balanceOf",
      "outputs": [
        {
          "internalType": "uint256",
          "name": "",
          "type": "uint256"
        }
      ],
      "stateMutability": "view",
      "type": "function"
    },
    {
      "inputs": [
        {
          "internalType": "uint256",
          "name": "tokenID",
          "type": "uint256"
        }
      ],
      "name": "burn",
      "outputs": [],
      "stateMutability": "nonpayable",
      "type": "function"
    },
    {
      "inputs": [
        {
          "internalType": "uint256",
          "name": "tokenID",
          "type": "uint256"
        }
      ],
      "name": "getApproved",
      "outputs": [
        {
          "internalType": "address",
          "name": "",
          "type": "address"
        }
      ],
      "stateMutability": "view",
      "type": "function"
    },
    {
      "inputs": [
        {
          "internalType": "string",
          "name": "name_",
          "type": "string"
        },
        {
          "internalType": "string",
          "name": "symbol_",
          "type": "string"
        },
        {
          "internalType": "address",
          "name": "owner_",
          "type": "address"
        },
        {
          "internalType": "bytes",
          "name": "params_",
          "type": "bytes"
        }
      ],
      "name": "initialize",
      "outputs": [],
      "stateMutability": "nonpayable",
      "type": "function"
    },
    {
      "inputs": [
        {
          "internalType": "string",
          "name": "name_",
          "type": "string"
        },
        {
          "internalType": "string",
          "name": "symbol_",
          "type": "string"
        },
        {
          "internalType": "address",
          "name": "owner_",
          "type": "address"
        },
        {
          "internalType": "bool[]",
          "name": "options_",
          "type": "bool[]"
        }
      ],
      "name": "initialize",
      "outputs": [],
      "stateMutability": "nonpayable",
      "type": "function"
    },
    {
      "inputs": [],
      "name": "initialized",
      "outputs": [
        {
          "internalType": "bool",
          "name": "",
          "type": "bool"
        }
      ],
      "stateMutability": "view",
      "type": "function"
    },
    {
      "inputs": [
        {
          "internalType": "address",
          "name": "owner",
          "type": "address"
        },
        {
          "internalType": "address",
          "name": "operator",
          "type": "address"
        }
      ],
      "name": "isApprovedForAll",
      "outputs": [
        {
          "internalType": "bool",
          "name": "",
          "type": "bool"
        }
      ],
      "stateMutability": "view",
      "type": "function"
    },
    {
      "inputs": [
        {
          "internalType": "address",
          "name": "minter",
          "type": "address"
        },
        {
          "internalType": "string",
          "name": "tokenURI_",
          "type": "string"
        }
      ],
      "name": "mint",
      "outputs": [
        {
          "internalType": "uint256",
          "name": "tokenID",
          "type": "uint256"
        }
      ],
      "stateMutability": "nonpayable",
      "type": "function"
    },
    {
      "inputs": [
        {
          "internalType": "string",
          "name": "tokenURI_",
          "type": "string"
        }
      ],
      "name": "mint",
      "outputs": [
        {
          "internalType": "uint256",
          "name": "tokenID",
          "type": "uint256"
        }
      ],
      "stateMutability": "nonpayable",
      "type": "function"
    },
    {
      "inputs": [],
      "name": "name",
      "outputs": [
        {
          "internalType": "string",
          "name": "",
          "type": "string"
        }
      ],
      "stateMutability": "view",
      "type": "function"
    },
    {
      "inputs": [],
      "name": "open",
      "outputs": [
        {
          "internalType": "bool",
          "name": "",
          "type": "bool"
        }
      ],
      "stateMutability": "view",
      "type": "function"
    },
    {
      "inputs": [],
      "name": "owner",
      "outputs": [
        {
          "internalType": "address",
          "name": "",
          "type": "address"
        }
      ],
      "stateMutability": "view",
      "type": "function"
    },
    {
      "inputs": [
        {
          "internalType": "uint256",
          "name": "tokenID",
          "type": "uint256"
        }
      ],
      "name": "ownerOf",
      "outputs": [
        {
          "internalType": "address",
          "name": "",
          "type": "address"
        }
      ],
      "stateMutability": "view",
      "type": "function"
    },
    {
      "inputs": [],
      "name": "parent",
      "outputs": [
        {
          "internalType": "address",
          "name": "parent_",
          "type": "address"
        }
      ],
      "stateMutability": "view",
      "type": "function"
    },
    {
      "inputs": [
        {
          "internalType": "address",
          "name": "from",
          "type": "address"
        },
        {
          "internalType": "address",
          "name": "to",
          "type": "address"
        },
        {
          "internalType": "uint256",
          "name": "tokenID",
          "type": "uint256"
        }
      ],
      "name": "safeTransferFrom",
      "outputs": [],
      "stateMutability": "payable",
      "type": "function"
    },
    {
      "inputs": [
        {
          "internalType": "address",
          "name": "from",
          "type": "address"
        },
        {
          "internalType": "address",
          "name": "to",
          "type": "address"
        },
        {
          "internalType": "uint256",
          "name": "tokenID",
          "type": "uint256"
        },
        {
          "internalType": "bytes",
          "name": "data",
          "type": "bytes"
        }
      ],
      "name": "safeTransferFrom",
      "outputs": [],
      "stateMutability": "payable",
      "type": "function"
    },
    {
      "inputs": [
        {
          "internalType": "address",
          "name": "operator",
          "type": "address"
        },
        {
          "internalType": "bool",
          "name": "approved",
          "type": "bool"
        }
      ],
      "name": "setApprovalForAll",
      "outputs": [],
      "stateMutability": "nonpayable",
      "type": "function"
    },
    {
      "inputs": [
        {
          "internalType": "bytes4",
          "name": "interfaceId",
          "type": "bytes4"
        }
      ],
      "name": "supportsInterface",
      "outputs": [
        {
          "internalType": "bool",
          "name": "",
          "type": "bool"
        }
      ],
      "stateMutability": "view",
      "type": "function"
    },
    {
      "inputs": [],
      "name": "symbol",
      "outputs": [
        {
          "internalType": "string",
          "name": "",
          "type": "string"
        }
      ],
      "stateMutability": "view",
      "type": "function"
    },
    {
      "inputs": [],
      "name": "template",
      "outputs": [
        {
          "internalType": "string",
          "name": "",
          "type": "string"
        }
      ],
      "stateMutability": "view",
      "type": "function"
    },
    {
      "inputs": [
        {
          "internalType": "uint256",
          "name": "index",
          "type": "uint256"
        }
      ],
      "name": "tokenByIndex",
      "outputs": [
        {
          "internalType": "uint256",
          "name": "",
          "type": "uint256"
        }
      ],
      "stateMutability": "view",
      "type": "function"
    },
    {
      "inputs": [],
      "name": "tokenIdNext",
      "outputs": [
        {
          "internalType": "uint256",
          "name": "",
          "type": "uint256"
        }
      ],
      "stateMutability": "view",
      "type": "function"
    },
    {
      "inputs": [
        {
          "internalType": "address",
          "name": "owner",
          "type": "address"
        },
        {
          "internalType": "uint256",
          "name": "index",
          "type": "uint256"
        }
      ],
      "name": "tokenOfOwnerByIndex",
      "outputs": [
        {
          "internalType": "uint256",
          "name": "",
          "type": "uint256"
        }
      ],
      "stateMutability": "view",
      "type": "function"
    },
    {
      "inputs": [
        {
          "internalType": "uint256",
          "name": "tokenID",
          "type": "uint256"
        }
      ],
      "name": "tokenURI",
      "outputs": [
        {
          "internalType": "string",
          "name": "",
          "type": "string"
        }
      ],
      "stateMutability": "view",
      "type": "function"
    },
    {
      "inputs": [],
      "name": "totalSupply",
      "outputs": [
        {
          "internalType": "uint256",
          "name": "",
          "type": "uint256"
        }
      ],
      "stateMutability": "view",
      "type": "function"
    },
    {
      "inputs": [
        {
          "internalType": "address",
          "name": "from",
          "type": "address"
        },
        {
          "internalType": "address",
          "name": "to",
          "type": "address"
        },
        {
          "internalType": "uint256",
          "name": "tokenID",
          "type": "uint256"
        }
      ],
      "name": "transferFrom",
      "outputs": [],
      "stateMutability": "payable",
      "type": "function"
    },
    {
      "inputs": [
        {
          "internalType": "address",
          "name": "newOwner",
          "type": "address"
        }
      ],
      "name": "transferOwnership",
      "outputs": [],
      "stateMutability": "nonpayable",
      "type": "function"
    },
    {
      "inputs": [],
      "name": "version",
      "outputs": [
        {
          "internalType": "uint256",
          "name": "",
          "type": "uint256"
        }
      ],
      "stateMutability": "view",
      "type": "function"
    }
  ],
  "transactionHash": "0x92e9fb840b6e7592660e95e4acf6ccf3a5a558d73e4b696aa7926a8b83ed6f8d",
  "args": [],
  "numDeployments": 4,
  "solcInputHash": "ccacb8999b2f2350b24ab8aadca075e0",
  "bytecode": "0x608060405234801561001057600080fd5b506121f7806100206000396000f3fe6080604052600436106101c25760003560e01c806360f96a8f116100f7578063a22cb46511610095578063d85d3d2711610064578063d85d3d27146104bf578063e985e9c5146104df578063f2fde38b14610528578063fcfff16f1461054857600080fd5b8063a22cb4651461044c578063b88d4fde1461046c578063c87b56dd1461047f578063d0def5211461049f57600080fd5b806370a08231116100d157806370a08231146103de5780638bbf58b3146103fe5780638da5cb5b1461041457806395d89b411461043757600080fd5b806360f96a8f146103945780636352211e146103a95780636f2ddd93146103c957600080fd5b806323b872dd1161016457806342966c681161013e57806342966c681461031e5780634f6ccce71461033e57806354e10b481461035e57806354fd4d501461037e57600080fd5b806323b872dd146102d85780632f745c59146102eb57806342842e0e1461030b57600080fd5b8063095ea7b3116101a0578063095ea7b314610256578063158ef93e1461027857806318160ddd146102995780631eb40e21146102b857600080fd5b806301ffc9a7146101c757806306fdde03146101fc578063081812fc1461021e575b600080fd5b3480156101d357600080fd5b506101e76101e23660046119b1565b610562565b60405190151581526020015b60405180910390f35b34801561020857600080fd5b5061021161058d565b6040516101f39190611a26565b34801561022a57600080fd5b5061023e610239366004611a39565b61061f565b6040516001600160a01b0390911681526020016101f3565b34801561026257600080fd5b50610276610271366004611a67565b61067f565b005b34801561028457600080fd5b50600c546101e790600160a81b900460ff1681565b3480156102a557600080fd5b506008545b6040519081526020016101f3565b3480156102c457600080fd5b506102766102d3366004611b58565b610743565b6102766102e6366004611bf5565b61077e565b3480156102f757600080fd5b506102aa610306366004611a67565b61078e565b610276610319366004611bf5565b610815565b34801561032a57600080fd5b50610276610339366004611a39565b610830565b34801561034a57600080fd5b506102aa610359366004611a39565b610894565b34801561036a57600080fd5b50610276610379366004611c68565b6108fe565b34801561038a57600080fd5b506102aa600e5481565b3480156103a057600080fd5b5061023e61097c565b3480156103b557600080fd5b5061023e6103c4366004611a39565b6109c5565b3480156103d557600080fd5b50610211610a18565b3480156103ea57600080fd5b506102aa6103f9366004611d60565b610aa6565b34801561040a57600080fd5b506102aa600f5481565b34801561042057600080fd5b50600c5461010090046001600160a01b031661023e565b34801561044357600080fd5b50610211610b11565b34801561045857600080fd5b50610276610467366004611d7d565b610b20565b61027661047a366004611db6565b610b8c565b34801561048b57600080fd5b5061021161049a366004611a39565b610b9e565b3480156104ab57600080fd5b506102aa6104ba366004611e16565b610c76565b3480156104cb57600080fd5b506102aa6104da366004611e66565b610cd5565b3480156104eb57600080fd5b506101e76104fa366004611e9b565b6001600160a01b03918216600090815260036020908152604080832093909416825291909152205460ff1690565b34801561053457600080fd5b50610276610543366004611d60565b610ce1565b34801561055457600080fd5b506010546101e79060ff1681565b60006001600160e01b0319821663e20b5e4960e01b1480610587575061058782610d38565b92915050565b60606005805461059c90611ec9565b80601f01602080910402602001604051908101604052809291908181526020018280546105c890611ec9565b80156106155780601f106105ea57610100808354040283529160200191610615565b820191906000526020600020905b8154815290600101906020018083116105f857829003601f168201915b5050505050905090565b60008181526020819052604081205482906001600160a01b031661065e5760405162461bcd60e51b815260040161065590611efe565b60405180910390fd5b6000838152600260205260409020546001600160a01b031691505b50919050565b6106893382610d5d565b6106d55760405162461bcd60e51b815260206004820152601c60248201527f4e6f7420746f6b656e206f776e6572206e6f72206f70657261746f72000000006044820152606401610655565b600081815260026020526040902080546001600160a01b0319166001600160a01b038416908117909155819061070a826109c5565b6001600160a01b03167f8c5be1e5ebec7d5bd14f71427d1e84f3dd0314c0f7b2291e5b200ac8c7c3b92560405160405180910390a45050565b6000818060200190518101906107599190611f28565b50509050610777858585848060200190518101906103799190611fda565b5050505050565b610789838383610db8565b505050565b600061079983610aa6565b82106107d85760405162461bcd60e51b815260206004820152600e60248201526d496e76616c696420696e6465782160901b6044820152606401610655565b6001600160a01b038316600090815260096020526040902080548390811061080257610802612074565b9060005260206000200154905092915050565b6107898383836040518060200160405280600081525061101e565b8061083b3382611076565b6108875760405162461bcd60e51b815260206004820152601c60248201527f4e6f7420746f6b656e206f776e6572206e6f7220617070726f766564000000006044820152606401610655565b610890826110ac565b5050565b60085460009082106108d95760405162461bcd60e51b815260206004820152600e60248201526d496e76616c696420696e6465782160901b6044820152606401610655565b600882815481106108ec576108ec612074565b90600052602060002001549050919050565b6001600f5560408051808201909152600a81526913dc195b9391951cd58d60b21b602082015261092f9060046110b5565b610939848461110c565b61094282611163565b8060008151811061095557610955612074565b6020026020010151601060006101000a81548160ff02191690831515021790555050505050565b6000602d303b1461098d5750600090565b6010306001600160a01b0316803b806020016040519081016040528181526000908060200190933c6109be9061208a565b901c905090565b60008181526020819052604081205482906001600160a01b03166109fb5760405162461bcd60e51b815260040161065590611efe565b50506000908152602081905260409020546001600160a01b031690565b600d8054610a2590611ec9565b80601f0160208091040260200160405190810160405280929190818152602001828054610a5190611ec9565b8015610a9e5780601f10610a7357610100808354040283529160200191610a9e565b820191906000526020600020905b815481529060010190602001808311610a8157829003601f168201915b505050505081565b60006001600160a01b038216610af55760405162461bcd60e51b8152602060048201526014602482015273496e76616c6964207a65726f206164647265737360601b6044820152606401610655565b506001600160a01b031660009081526001602052604090205490565b60606006805461059c90611ec9565b3360008181526003602090815260408083206001600160a01b03871680855290835292819020805460ff191686151590811790915590519081529192917f17307eab39ab6107e8899845ad3d59bd9653f200f220920489ca2b5937696c31910160405180910390a35050565b610b988484848461101e565b50505050565b60008181526020819052604090205460609082906001600160a01b0316610bd75760405162461bcd60e51b815260040161065590611efe565b60008381526007602052604090208054610bf090611ec9565b80601f0160208091040260200160405190810160405280929190818152602001828054610c1c90611ec9565b8015610c695780601f10610c3e57610100808354040283529160200191610c69565b820191906000526020600020905b815481529060010190602001808311610c4c57829003601f168201915b5050505050915050919050565b600c5460009061010090046001600160a01b03163314610cc45760405162461bcd60e51b81526020600482015260096024820152682737ba1037bbb732b960b91b6044820152606401610655565b610cce838361119c565b9392505050565b6000610587338361119c565b600c5461010090046001600160a01b03163314610d2c5760405162461bcd60e51b81526020600482015260096024820152682737ba1037bbb732b960b91b6044820152606401610655565b610d35816111be565b50565b60006001600160e01b031982166350130d5360e01b1480610587575061058782611218565b600080610d69836109c5565b9050836001600160a01b0316816001600160a01b03161480610db057506001600160a01b0380821660009081526003602090815260408083209388168352929052205460ff165b949350505050565b80610dc33382611076565b610e0f5760405162461bcd60e51b815260206004820152601c60248201527f4e6f7420746f6b656e206f776e6572206e6f7220617070726f766564000000006044820152606401610655565b6001600160a01b038416610e655760405162461bcd60e51b815260206004820152601a60248201527f5472616e736665722066726f6d207a65726f20616464726573730000000000006044820152606401610655565b6001600160a01b038316610ebb5760405162461bcd60e51b815260206004820152601860248201527f5472616e7366657220746f207a65726f206164647265737300000000000000006044820152606401610655565b610ec4826109c5565b6001600160a01b0316846001600160a01b031614610f155760405162461bcd60e51b815260206004820152600e60248201526d233937b6903737ba1037bbb732b960911b6044820152606401610655565b610f2084848461123d565b600082815260026020526040902080546001600160a01b03191690556001600160a01b0384811690841614610fd7576001600160a01b03841660009081526001602081905260408220805491929091610f7a9084906120c4565b90915550506001600160a01b03831660009081526001602081905260408220805491929091610faa9084906120db565b9091555050600082815260208190526040902080546001600160a01b0319166001600160a01b0385161790555b81836001600160a01b0316856001600160a01b03167fddf252ad1be2c89b69c2b068fc378daa952ba7f163c4a11628f55a4df523b3ef60405160405180910390a450505050565b611029848484610db8565b61103584848484611248565b610b985760405162461bcd60e51b81526020600482015260126024820152712737ba1022a9219b9918a932b1b2b4bb32b960711b6044820152606401610655565b60006110828383610d5d565b80610cce5750826001600160a01b031661109b8361061f565b6001600160a01b0316149392505050565b610d35816112f7565b600c54600160a81b900460ff16156110df5760405162461bcd60e51b8152600401610655906120f3565b600c805460ff60a81b1916600160a81b179055815161110590600d9060208501906118cc565b50600e5550565b60045460ff161561112f5760405162461bcd60e51b8152600401610655906120f3565b6004805460ff19166001179055815161114f9060059060208501906118cc565b5080516107899060069060208401906118cc565b600c5460ff16156111865760405162461bcd60e51b8152600401610655906120f3565b600c805460ff19166001179055610d35816111be565b600f8054600091826111ad83612120565b9190505590506105878383836113c2565b600c80546001600160a01b03838116610100818102610100600160a81b031985161790945560405193909204169182907f8be0079c531659141344cd1fd0a4f28419497f9722a3daafe3b4186f6b6457e090600090a35050565b60006307f5828d60e41b6001600160e01b0319831614806105875750610587826113cd565b6107898383836113f2565b60006001600160a01b0384163b15806112ee5750604051630a85bd0160e11b808252906001600160a01b0386169063150b7a02906112909033908a908990899060040161213b565b602060405180830381600087803b1580156112aa57600080fd5b505af11580156112be573d6000803e3d6000fd5b505050506040513d601f19601f820116820180604052508101906112e29190612178565b6001600160e01b031916145b95945050505050565b6000611302826109c5565b905061130e8183611406565b6000828152600b602052604081205460085490919061132f906001906120c4565b905060006008828154811061134657611346612074565b6000918252602080832090910154808352600b90915260408083208690558783528220919091556008805491925082918590811061138657611386612074565b60009182526020909120015560088054806113a3576113a3612195565b6001900381819060005260206000200160009055905561077785611514565b610789838383611534565b600063780e9d6360e01b6001600160e01b03198316148061058757506105878261158d565b6113fc8382611406565b61078982826115b2565b6000818152600a602052604081205490600161142185610aa6565b61142b91906120c4565b90508082146114c2576001600160a01b038416600090815260096020526040812080548390811061145e5761145e612074565b906000526020600020015490508060096000876001600160a01b03166001600160a01b0316815260200190815260200160002084815481106114a2576114a2612074565b6000918252602080832090910192909255918252600a9052604090208290555b6000838152600a602090815260408083208390556001600160a01b0387168352600990915290208054806114f8576114f8612195565b6001900381819060005260206000200160009055905550505050565b600081815260076020526040812061152b91611950565b610d35816115f0565b61153e83826115b2565b600880546000838152600b60205260408120829055600182018355919091527ff3f7a9fe364faab93b216da50a3214154f22a0a2b415b23a84c8169e8b636ee3018190556107898383836116e1565b6000635b5e139f60e01b6001600160e01b03198316148061058757506105878261170c565b6001600160a01b0390911660009081526009602081815260408084208054868652600a84529185208290559282526001810183559183529091200155565b60006115fb826109c5565b90506001600160a01b0381166116235760405162461bcd60e51b815260040161065590611efe565b6001600160a01b038116600090815260016020526040902054611648576116486121ab565b6001600160a01b038116600090815260016020819052604082208054919290916116739084906120c4565b9091555050600082815260026020908152604080832080546001600160a01b0319908116909155918390528083208054909216909155518391906001600160a01b038416907fddf252ad1be2c89b69c2b068fc378daa952ba7f163c4a11628f55a4df523b3ef908390a45050565b60008181526007602090815260409091208351611700928501906118cc565b50610789838383611741565b60006380ac58cd60e01b6001600160e01b03198316148061058757506001600160e01b031982166301ffc9a760e01b14610587565b6001600160a01b03831661178e5760405162461bcd60e51b81526020600482015260146024820152734d696e7420746f207a65726f206164647265737360601b6044820152606401610655565b6000818152602081905260409020546001600160a01b0316156117ea5760405162461bcd60e51b8152602060048201526014602482015273151bdad95b88185b1c9958591e481b5a5b9d195960621b6044820152606401610655565b6001600160a01b038316600090815260016020819052604082208054919290916118159084906120db565b909155505060008181526020819052604080822080546001600160a01b0319166001600160a01b03871690811790915590518392907fddf252ad1be2c89b69c2b068fc378daa952ba7f163c4a11628f55a4df523b3ef908290a461188b6000848360405180602001604052806000815250611248565b6107895760405162461bcd60e51b8152602060048201526012602482015271139bdd08115490cdcc8c549958d95a5d995960721b6044820152606401610655565b8280546118d890611ec9565b90600052602060002090601f0160209004810192826118fa5760008555611940565b82601f1061191357805160ff1916838001178555611940565b82800160010185558215611940579182015b82811115611940578251825591602001919060010190611925565b5061194c929150611986565b5090565b50805461195c90611ec9565b6000825580601f1061196c575050565b601f016020900490600052602060002090810190610d3591905b5b8082111561194c5760008155600101611987565b6001600160e01b031981168114610d3557600080fd5b6000602082840312156119c357600080fd5b8135610cce8161199b565b60005b838110156119e95781810151838201526020016119d1565b83811115610b985750506000910152565b60008151808452611a128160208601602086016119ce565b601f01601f19169290920160200192915050565b602081526000610cce60208301846119fa565b600060208284031215611a4b57600080fd5b5035919050565b6001600160a01b0381168114610d3557600080fd5b60008060408385031215611a7a57600080fd5b8235611a8581611a52565b946020939093013593505050565b634e487b7160e01b600052604160045260246000fd5b604051601f8201601f1916810167ffffffffffffffff81118282101715611ad257611ad2611a93565b604052919050565b600067ffffffffffffffff821115611af457611af4611a93565b50601f01601f191660200190565b600082601f830112611b1357600080fd5b8135611b26611b2182611ada565b611aa9565b818152846020838601011115611b3b57600080fd5b816020850160208301376000918101602001919091529392505050565b60008060008060808587031215611b6e57600080fd5b843567ffffffffffffffff80821115611b8657600080fd5b611b9288838901611b02565b95506020870135915080821115611ba857600080fd5b611bb488838901611b02565b945060408701359150611bc682611a52565b90925060608601359080821115611bdc57600080fd5b50611be987828801611b02565b91505092959194509250565b600080600060608486031215611c0a57600080fd5b8335611c1581611a52565b92506020840135611c2581611a52565b929592945050506040919091013590565b600067ffffffffffffffff821115611c5057611c50611a93565b5060051b60200190565b8015158114610d3557600080fd5b60008060008060808587031215611c7e57600080fd5b843567ffffffffffffffff80821115611c9657600080fd5b611ca288838901611b02565b9550602091508187013581811115611cb957600080fd5b611cc589828a01611b02565b9550506040870135611cd681611a52565b9350606087013581811115611cea57600080fd5b87019050601f81018813611cfd57600080fd5b8035611d0b611b2182611c36565b81815260059190911b8201830190838101908a831115611d2a57600080fd5b928401925b82841015611d51578335611d4281611c5a565b82529284019290840190611d2f565b979a9699509497505050505050565b600060208284031215611d7257600080fd5b8135610cce81611a52565b60008060408385031215611d9057600080fd5b8235611d9b81611a52565b91506020830135611dab81611c5a565b809150509250929050565b60008060008060808587031215611dcc57600080fd5b8435611dd781611a52565b93506020850135611de781611a52565b925060408501359150606085013567ffffffffffffffff811115611e0a57600080fd5b611be987828801611b02565b60008060408385031215611e2957600080fd5b8235611e3481611a52565b9150602083013567ffffffffffffffff811115611e5057600080fd5b611e5c85828601611b02565b9150509250929050565b600060208284031215611e7857600080fd5b813567ffffffffffffffff811115611e8f57600080fd5b610db084828501611b02565b60008060408385031215611eae57600080fd5b8235611eb981611a52565b91506020830135611dab81611a52565b600181811c90821680611edd57607f821691505b6020821081141561067957634e487b7160e01b600052602260045260246000fd5b60208082526010908201526f125b9d985b1a59081d1bdad95b88125160821b604082015260600190565b600080600060608486031215611f3d57600080fd5b835167ffffffffffffffff811115611f5457600080fd5b8401601f81018613611f6557600080fd5b8051611f73611b2182611ada565b818152876020838501011115611f8857600080fd5b611f998260208301602086016119ce565b8095505050506020840151611fad81611a52565b60408501519092506bffffffffffffffffffffffff81168114611fcf57600080fd5b809150509250925092565b60006020808385031215611fed57600080fd5b825167ffffffffffffffff81111561200457600080fd5b8301601f8101851361201557600080fd5b8051612023611b2182611c36565b81815260059190911b8201830190838101908783111561204257600080fd5b928401925b8284101561206957835161205a81611c5a565b82529284019290840190612047565b979650505050505050565b634e487b7160e01b600052603260045260246000fd5b805160208083015191908110156106795760001960209190910360031b1b16919050565b634e487b7160e01b600052601160045260246000fd5b6000828210156120d6576120d66120ae565b500390565b600082198211156120ee576120ee6120ae565b500190565b602080825260139082015272105b1c9958591e481a5b9a5d1a585b1a5e9959606a1b604082015260600190565b6000600019821415612134576121346120ae565b5060010190565b6001600160a01b038581168252841660208201526040810183905260806060820181905260009061216e908301846119fa565b9695505050505050565b60006020828403121561218a57600080fd5b8151610cce8161199b565b634e487b7160e01b600052603160045260246000fd5b634e487b7160e01b600052600160045260246000fdfea2646970667358221220de0efa1ee466fe24ea12fde87d08f3a0fcb9bca1eb6a9d24ec856e81a1305c0d64736f6c63430008090033",
  "devdoc": {
    "kind": "dev",
    "methods": {
      "burn(uint256)": {
        "params": {
          "tokenID": "tokenID of NFT to burn"
        }
      }
    },
    "title": "OpenNFTs smartcontract",
    "version": 1
  },
  "userdoc": {
    "kind": "user",
    "methods": {
      "burn(uint256)": {
        "notice": "burn NFT"
      },
      "open()": {
        "notice": "Mint NFT allowed to everyone or only collection owner"
      },
      "tokenIdNext()": {
        "notice": "tokenID of next minted NFT"
      }
    },
    "version": 1
  },
  "storageLayout": {
    "storage": [
      {
        "astId": 5426,
        "contract": "contracts/next/OpenNFTsV4.sol:OpenNFTsV4",
        "label": "_owners",
        "offset": 0,
        "slot": "0",
        "type": "t_mapping(t_uint256,t_address)"
      },
      {
        "astId": 5430,
        "contract": "contracts/next/OpenNFTsV4.sol:OpenNFTsV4",
        "label": "_balances",
        "offset": 0,
        "slot": "1",
        "type": "t_mapping(t_address,t_uint256)"
      },
      {
        "astId": 5434,
        "contract": "contracts/next/OpenNFTsV4.sol:OpenNFTsV4",
        "label": "_tokenApprovals",
        "offset": 0,
        "slot": "2",
        "type": "t_mapping(t_uint256,t_address)"
      },
      {
        "astId": 5440,
        "contract": "contracts/next/OpenNFTsV4.sol:OpenNFTsV4",
        "label": "_operatorApprovals",
        "offset": 0,
        "slot": "3",
        "type": "t_mapping(t_address,t_mapping(t_address,t_bool))"
      },
      {
        "astId": 6349,
        "contract": "contracts/next/OpenNFTsV4.sol:OpenNFTsV4",
        "label": "_openERC721MetadataInitialized",
        "offset": 0,
        "slot": "4",
        "type": "t_bool"
      },
      {
        "astId": 6351,
        "contract": "contracts/next/OpenNFTsV4.sol:OpenNFTsV4",
        "label": "_name",
        "offset": 0,
        "slot": "5",
        "type": "t_string_storage"
      },
      {
        "astId": 6353,
        "contract": "contracts/next/OpenNFTsV4.sol:OpenNFTsV4",
        "label": "_symbol",
        "offset": 0,
        "slot": "6",
        "type": "t_string_storage"
      },
      {
        "astId": 6357,
        "contract": "contracts/next/OpenNFTsV4.sol:OpenNFTsV4",
        "label": "_tokenURIs",
        "offset": 0,
        "slot": "7",
        "type": "t_mapping(t_uint256,t_string_storage)"
      },
      {
        "astId": 6026,
        "contract": "contracts/next/OpenNFTsV4.sol:OpenNFTsV4",
        "label": "_allTokens",
        "offset": 0,
        "slot": "8",
        "type": "t_array(t_uint256)dyn_storage"
      },
      {
        "astId": 6031,
        "contract": "contracts/next/OpenNFTsV4.sol:OpenNFTsV4",
        "label": "_ownedTokens",
        "offset": 0,
        "slot": "9",
        "type": "t_mapping(t_address,t_array(t_uint256)dyn_storage)"
      },
      {
        "astId": 6035,
        "contract": "contracts/next/OpenNFTsV4.sol:OpenNFTsV4",
        "label": "_ownedTokensIndex",
        "offset": 0,
        "slot": "10",
        "type": "t_mapping(t_uint256,t_uint256)"
      },
      {
        "astId": 6039,
        "contract": "contracts/next/OpenNFTsV4.sol:OpenNFTsV4",
        "label": "_allTokensIndex",
        "offset": 0,
        "slot": "11",
        "type": "t_mapping(t_uint256,t_uint256)"
      },
      {
        "astId": 5174,
        "contract": "contracts/next/OpenNFTsV4.sol:OpenNFTsV4",
        "label": "_openERC173Initialized",
        "offset": 0,
        "slot": "12",
        "type": "t_bool"
      },
      {
        "astId": 5176,
        "contract": "contracts/next/OpenNFTsV4.sol:OpenNFTsV4",
        "label": "_owner",
        "offset": 1,
        "slot": "12",
        "type": "t_address"
      },
      {
        "astId": 4987,
        "contract": "contracts/next/OpenNFTsV4.sol:OpenNFTsV4",
        "label": "initialized",
        "offset": 21,
        "slot": "12",
        "type": "t_bool"
      },
      {
        "astId": 4989,
        "contract": "contracts/next/OpenNFTsV4.sol:OpenNFTsV4",
        "label": "template",
        "offset": 0,
        "slot": "13",
        "type": "t_string_storage"
      },
      {
        "astId": 4991,
        "contract": "contracts/next/OpenNFTsV4.sol:OpenNFTsV4",
        "label": "version",
        "offset": 0,
        "slot": "14",
        "type": "t_uint256"
      },
      {
        "astId": 21265,
        "contract": "contracts/next/OpenNFTsV4.sol:OpenNFTsV4",
        "label": "tokenIdNext",
        "offset": 0,
        "slot": "15",
        "type": "t_uint256"
      },
      {
        "astId": 21268,
        "contract": "contracts/next/OpenNFTsV4.sol:OpenNFTsV4",
        "label": "open",
        "offset": 0,
        "slot": "16",
        "type": "t_bool"
      }
    ],
    "types": {
      "t_address": {
        "encoding": "inplace",
        "label": "address",
        "numberOfBytes": "20"
      },
      "t_array(t_uint256)dyn_storage": {
        "base": "t_uint256",
        "encoding": "dynamic_array",
        "label": "uint256[]",
        "numberOfBytes": "32"
      },
      "t_bool": {
        "encoding": "inplace",
        "label": "bool",
        "numberOfBytes": "1"
      },
      "t_mapping(t_address,t_array(t_uint256)dyn_storage)": {
        "encoding": "mapping",
        "key": "t_address",
        "label": "mapping(address => uint256[])",
        "numberOfBytes": "32",
        "value": "t_array(t_uint256)dyn_storage"
      },
      "t_mapping(t_address,t_bool)": {
        "encoding": "mapping",
        "key": "t_address",
        "label": "mapping(address => bool)",
        "numberOfBytes": "32",
        "value": "t_bool"
      },
      "t_mapping(t_address,t_mapping(t_address,t_bool))": {
        "encoding": "mapping",
        "key": "t_address",
        "label": "mapping(address => mapping(address => bool))",
        "numberOfBytes": "32",
        "value": "t_mapping(t_address,t_bool)"
      },
      "t_mapping(t_address,t_uint256)": {
        "encoding": "mapping",
        "key": "t_address",
        "label": "mapping(address => uint256)",
        "numberOfBytes": "32",
        "value": "t_uint256"
      },
      "t_mapping(t_uint256,t_address)": {
        "encoding": "mapping",
        "key": "t_uint256",
        "label": "mapping(uint256 => address)",
        "numberOfBytes": "32",
        "value": "t_address"
      },
      "t_mapping(t_uint256,t_string_storage)": {
        "encoding": "mapping",
        "key": "t_uint256",
        "label": "mapping(uint256 => string)",
        "numberOfBytes": "32",
        "value": "t_string_storage"
      },
      "t_mapping(t_uint256,t_uint256)": {
        "encoding": "mapping",
        "key": "t_uint256",
        "label": "mapping(uint256 => uint256)",
        "numberOfBytes": "32",
        "value": "t_uint256"
      },
      "t_string_storage": {
        "encoding": "bytes",
        "label": "string",
        "numberOfBytes": "32"
      },
      "t_uint256": {
        "encoding": "inplace",
        "label": "uint256",
        "numberOfBytes": "32"
      }
    }
  }
}