{
  "address": "0x125a966B4cAd87c3310906b293DDA9C0a90eC66c",
  "abi": [
    {
      "anonymous": false,
      "inputs": [
        {
          "indexed": true,
          "internalType": "address",
          "name": "owner",
          "type": "address"
        },
        {
          "indexed": true,
          "internalType": "address",
          "name": "approved",
          "type": "address"
        },
        {
          "indexed": true,
          "internalType": "uint256",
          "name": "tokenId",
          "type": "uint256"
        }
      ],
      "name": "Approval",
      "type": "event"
    },
    {
      "anonymous": false,
      "inputs": [
        {
          "indexed": true,
          "internalType": "address",
          "name": "owner",
          "type": "address"
        },
        {
          "indexed": true,
          "internalType": "address",
          "name": "operator",
          "type": "address"
        },
        {
          "indexed": false,
          "internalType": "bool",
          "name": "approved",
          "type": "bool"
        }
      ],
      "name": "ApprovalForAll",
      "type": "event"
    },
    {
      "anonymous": false,
      "inputs": [
        {
          "indexed": true,
          "internalType": "address",
          "name": "previousOwner",
          "type": "address"
        },
        {
          "indexed": true,
          "internalType": "address",
          "name": "newOwner",
          "type": "address"
        }
      ],
      "name": "OwnershipTransferred",
      "type": "event"
    },
    {
      "anonymous": false,
      "inputs": [
        {
          "indexed": true,
          "internalType": "bool",
          "name": "paused",
          "type": "bool"
        },
        {
          "indexed": true,
          "internalType": "address",
          "name": "account",
          "type": "address"
        }
      ],
      "name": "SetPaused",
      "type": "event"
    },
    {
      "anonymous": false,
      "inputs": [
        {
          "indexed": true,
          "internalType": "address",
          "name": "from",
          "type": "address"
        },
        {
          "indexed": true,
          "internalType": "address",
          "name": "to",
          "type": "address"
        },
        {
          "indexed": true,
          "internalType": "uint256",
          "name": "tokenId",
          "type": "uint256"
        }
      ],
      "name": "Transfer",
      "type": "event"
    },
    {
      "inputs": [
        {
          "internalType": "address",
          "name": "spender",
          "type": "address"
        },
        {
          "internalType": "uint256",
          "name": "tokenID",
          "type": "uint256"
        }
      ],
      "name": "approve",
      "outputs": [],
      "stateMutability": "payable",
      "type": "function"
    },
    {
      "inputs": [
        {
          "internalType": "address",
          "name": "owner",
          "type": "address"
        }
      ],
      "name": "balanceOf",
      "outputs": [
        {
          "internalType": "uint256",
          "name": "",
          "type": "uint256"
        }
      ],
      "stateMutability": "view",
      "type": "function"
    },
    {
      "inputs": [
        {
          "internalType": "uint256",
          "name": "tokenID",
          "type": "uint256"
        }
      ],
      "name": "burn",
      "outputs": [],
      "stateMutability": "nonpayable",
      "type": "function"
    },
    {
      "inputs": [
        {
          "internalType": "bytes4[]",
          "name": "interfaceIds",
          "type": "bytes4[]"
        }
      ],
      "name": "checkSupportedInterfaces",
      "outputs": [
        {
          "internalType": "bool[]",
          "name": "interfaceIdsChecker",
          "type": "bool[]"
        }
      ],
      "stateMutability": "view",
      "type": "function"
    },
    {
      "inputs": [
        {
          "internalType": "uint256",
          "name": "tokenID",
          "type": "uint256"
        },
        {
          "internalType": "uint256",
          "name": "cid",
          "type": "uint256"
        }
      ],
      "name": "claim",
      "outputs": [],
      "stateMutability": "nonpayable",
      "type": "function"
    },
    {
      "inputs": [
        {
          "internalType": "uint256",
          "name": "tokenID",
          "type": "uint256"
        }
      ],
      "name": "getApproved",
      "outputs": [
        {
          "internalType": "address",
          "name": "",
          "type": "address"
        }
      ],
      "stateMutability": "view",
      "type": "function"
    },
    {
      "inputs": [
        {
          "internalType": "uint256",
          "name": "tokenID",
          "type": "uint256"
        }
      ],
      "name": "getCID",
      "outputs": [
        {
          "internalType": "uint256",
          "name": "cid",
          "type": "uint256"
        }
      ],
      "stateMutability": "view",
      "type": "function"
    },
    {
      "inputs": [
        {
          "internalType": "uint256",
          "name": "cid",
          "type": "uint256"
        }
      ],
      "name": "getMyTokenID",
      "outputs": [
        {
          "internalType": "uint256",
          "name": "myTokenID",
          "type": "uint256"
        }
      ],
      "stateMutability": "view",
      "type": "function"
    },
    {
      "inputs": [],
      "name": "getTemplate",
      "outputs": [
        {
          "internalType": "string",
          "name": "",
          "type": "string"
        }
      ],
      "stateMutability": "view",
      "type": "function"
    },
    {
      "inputs": [
        {
          "internalType": "address",
          "name": "addr",
          "type": "address"
        },
        {
          "internalType": "uint256",
          "name": "cid",
          "type": "uint256"
        }
      ],
      "name": "getTokenID",
      "outputs": [
        {
          "internalType": "uint256",
          "name": "tokenID",
          "type": "uint256"
        }
      ],
      "stateMutability": "pure",
      "type": "function"
    },
    {
      "inputs": [],
      "name": "getVersion",
      "outputs": [
        {
          "internalType": "uint256",
          "name": "",
          "type": "uint256"
        }
      ],
      "stateMutability": "view",
      "type": "function"
    },
    {
      "inputs": [
        {
          "internalType": "string",
          "name": "name_",
          "type": "string"
        },
        {
          "internalType": "string",
          "name": "symbol_",
          "type": "string"
        },
        {
          "internalType": "address",
          "name": "owner_",
          "type": "address"
        },
        {
          "internalType": "uint256",
          "name": "maxSupply_",
          "type": "uint256"
        }
      ],
      "name": "initialize",
      "outputs": [],
      "stateMutability": "nonpayable",
      "type": "function"
    },
    {
      "inputs": [
        {
          "internalType": "address",
          "name": "owner",
          "type": "address"
        },
        {
          "internalType": "address",
          "name": "operator",
          "type": "address"
        }
      ],
      "name": "isApprovedForAll",
      "outputs": [
        {
          "internalType": "bool",
          "name": "",
          "type": "bool"
        }
      ],
      "stateMutability": "view",
      "type": "function"
    },
    {
      "inputs": [],
      "name": "maxSupply",
      "outputs": [
        {
          "internalType": "uint256",
          "name": "",
          "type": "uint256"
        }
      ],
      "stateMutability": "view",
      "type": "function"
    },
    {
      "inputs": [
        {
          "internalType": "uint256",
          "name": "cid",
          "type": "uint256"
        }
      ],
      "name": "mint",
      "outputs": [
        {
          "internalType": "uint256",
          "name": "tokenID",
          "type": "uint256"
        }
      ],
      "stateMutability": "nonpayable",
      "type": "function"
    },
    {
      "inputs": [],
      "name": "name",
      "outputs": [
        {
          "internalType": "string",
          "name": "",
          "type": "string"
        }
      ],
      "stateMutability": "view",
      "type": "function"
    },
    {
      "inputs": [],
      "name": "owner",
      "outputs": [
        {
          "internalType": "address",
          "name": "",
          "type": "address"
        }
      ],
      "stateMutability": "view",
      "type": "function"
    },
    {
      "inputs": [
        {
          "internalType": "uint256",
          "name": "tokenID",
          "type": "uint256"
        }
      ],
      "name": "ownerOf",
      "outputs": [
        {
          "internalType": "address",
          "name": "owner",
          "type": "address"
        }
      ],
      "stateMutability": "view",
      "type": "function"
    },
    {
      "inputs": [],
      "name": "paused",
      "outputs": [
        {
          "internalType": "bool",
          "name": "",
          "type": "bool"
        }
      ],
      "stateMutability": "view",
      "type": "function"
    },
    {
      "inputs": [
        {
          "internalType": "address",
          "name": "from",
          "type": "address"
        },
        {
          "internalType": "address",
          "name": "to",
          "type": "address"
        },
        {
          "internalType": "uint256",
          "name": "tokenID",
          "type": "uint256"
        }
      ],
      "name": "safeTransferFrom",
      "outputs": [],
      "stateMutability": "payable",
      "type": "function"
    },
    {
      "inputs": [
        {
          "internalType": "address",
          "name": "from",
          "type": "address"
        },
        {
          "internalType": "address",
          "name": "to",
          "type": "address"
        },
        {
          "internalType": "uint256",
          "name": "tokenID",
          "type": "uint256"
        },
        {
          "internalType": "bytes",
          "name": "data",
          "type": "bytes"
        }
      ],
      "name": "safeTransferFrom",
      "outputs": [],
      "stateMutability": "payable",
      "type": "function"
    },
    {
      "inputs": [
        {
          "internalType": "address",
          "name": "operator",
          "type": "address"
        },
        {
          "internalType": "bool",
          "name": "approved",
          "type": "bool"
        }
      ],
      "name": "setApprovalForAll",
      "outputs": [],
      "stateMutability": "nonpayable",
      "type": "function"
    },
    {
      "inputs": [
        {
          "internalType": "bytes4",
          "name": "interfaceId",
          "type": "bytes4"
        }
      ],
      "name": "supportsInterface",
      "outputs": [
        {
          "internalType": "bool",
          "name": "",
          "type": "bool"
        }
      ],
      "stateMutability": "view",
      "type": "function"
    },
    {
      "inputs": [],
      "name": "symbol",
      "outputs": [
        {
          "internalType": "string",
          "name": "",
          "type": "string"
        }
      ],
      "stateMutability": "view",
      "type": "function"
    },
    {
      "inputs": [],
      "name": "togglePause",
      "outputs": [],
      "stateMutability": "nonpayable",
      "type": "function"
    },
    {
      "inputs": [
        {
          "internalType": "uint256",
          "name": "index",
          "type": "uint256"
        }
      ],
      "name": "tokenByIndex",
      "outputs": [
        {
          "internalType": "uint256",
          "name": "tokenID",
          "type": "uint256"
        }
      ],
      "stateMutability": "view",
      "type": "function"
    },
    {
      "inputs": [
        {
          "internalType": "address",
          "name": "tokenOwner",
          "type": "address"
        },
        {
          "internalType": "uint256",
          "name": "index",
          "type": "uint256"
        }
      ],
      "name": "tokenOfOwnerByIndex",
      "outputs": [
        {
          "internalType": "uint256",
          "name": "tokenID",
          "type": "uint256"
        }
      ],
      "stateMutability": "view",
      "type": "function"
    },
    {
      "inputs": [
        {
          "internalType": "uint256",
          "name": "tokenID",
          "type": "uint256"
        }
      ],
      "name": "tokenURI",
      "outputs": [
        {
          "internalType": "string",
          "name": "",
          "type": "string"
        }
      ],
      "stateMutability": "view",
      "type": "function"
    },
    {
      "inputs": [],
      "name": "totalSupply",
      "outputs": [
        {
          "internalType": "uint256",
          "name": "tokensLength",
          "type": "uint256"
        }
      ],
      "stateMutability": "view",
      "type": "function"
    },
    {
      "inputs": [
        {
          "internalType": "address",
          "name": "from",
          "type": "address"
        },
        {
          "internalType": "address",
          "name": "to",
          "type": "address"
        },
        {
          "internalType": "uint256",
          "name": "tokenID",
          "type": "uint256"
        }
      ],
      "name": "transferFrom",
      "outputs": [],
      "stateMutability": "payable",
      "type": "function"
    },
    {
      "inputs": [
        {
          "internalType": "address",
          "name": "newOwner",
          "type": "address"
        }
      ],
      "name": "transferOwnership",
      "outputs": [],
      "stateMutability": "nonpayable",
      "type": "function"
    }
  ],
  "transactionHash": "0xcc048e89726a9a70bbb227e4e0a8db8ce10e4130723126bfb992179354b49e77",
  "args": [],
  "numDeployments": 6,
  "solcInputHash": "35e1d325737c2b722d37a6e343071486",
  "bytecode": "0x608060405234801561001057600080fd5b506122e6806100206000396000f3fe6080604052600436106101d85760003560e01c80636352211e11610102578063b88d4fde11610095578063d5abeb0111610064578063d5abeb0114610529578063e985e9c51461053f578063f2fde38b14610588578063f542033f146105a857600080fd5b8063b88d4fde146104c1578063c3490263146104d4578063c4ae3168146104f4578063c87b56dd1461050957600080fd5b8063913a2ffe116100d1578063913a2ffe1461043f57806395d89b411461046c578063a0712d6814610481578063a22cb465146104a157600080fd5b80636352211e146103af5780636a050668146103cf57806370a08231146103fc5780638da5cb5b1461041c57600080fd5b80632f745c591161017a57806342966c681161014957806342966c68146103305780634f6ccce7146103505780635615f604146103705780635c975abb1461039057600080fd5b80632f745c59146102c8578063321c48f2146102e85780633cc1c7e0146102fd57806342842e0e1461031d57600080fd5b8063095ea7b3116101b6578063095ea7b31461026c5780630d8e6e2c1461028157806318160ddd146102a057806323b872dd146102b557600080fd5b806301ffc9a7146101dd57806306fdde0314610212578063081812fc14610234575b600080fd5b3480156101e957600080fd5b506101fd6101f8366004611c6e565b6105c8565b60405190151581526020015b60405180910390f35b34801561021e57600080fd5b50610227610643565b6040516102099190611ce3565b34801561024057600080fd5b5061025461024f366004611cf6565b6106d1565b6040516001600160a01b039091168152602001610209565b61027f61027a366004611d26565b610749565b005b34801561028d57600080fd5b506002545b604051908152602001610209565b3480156102ac57600080fd5b50600e54610292565b61027f6102c3366004611d50565b61080d565b3480156102d457600080fd5b506102926102e3366004611d26565b61081d565b3480156102f457600080fd5b5061022761088e565b34801561030957600080fd5b50610292610318366004611d26565b610920565b61027f61032b366004611d50565b610933565b34801561033c57600080fd5b5061027f61034b366004611cf6565b61094e565b34801561035c57600080fd5b5061029261036b366004611cf6565b610990565b34801561037c57600080fd5b5061029261038b366004611cf6565b6109f9565b34801561039c57600080fd5b50600354600160a81b900460ff166101fd565b3480156103bb57600080fd5b506102546103ca366004611cf6565b610a05565b3480156103db57600080fd5b506103ef6103ea366004611dd3565b610a62565b6040516102099190611e85565b34801561040857600080fd5b50610292610417366004611ecb565b610b12565b34801561042857600080fd5b5060035461010090046001600160a01b0316610254565b34801561044b57600080fd5b5061029261045a366004611cf6565b6000908152600d602052604090205490565b34801561047857600080fd5b50610227610b7d565b34801561048d57600080fd5b5061029261049c366004611cf6565b610b8a565b3480156104ad57600080fd5b5061027f6104bc366004611ee6565b610bdb565b61027f6104cf366004611f7a565b610c47565b3480156104e057600080fd5b5061027f6104ef366004611ff6565b610ca5565b34801561050057600080fd5b5061027f610d1b565b34801561051557600080fd5b50610227610524366004611cf6565b610d63565b34801561053557600080fd5b5061029260085481565b34801561054b57600080fd5b506101fd61055a366004612018565b6001600160a01b03918216600090815260076020908152604080832093909416825291909152205460ff1690565b34801561059457600080fd5b5061027f6105a3366004611ecb565b610dd7565b3480156105b457600080fd5b5061027f6105c336600461206b565b610e12565b60006001600160e01b031982166317812f2360e11b14806105f857506001600160e01b0319821662f7235960e21b145b8061061357506001600160e01b03198216635b5e139f60e01b145b8061062e57506001600160e01b0319821663780e9d6360e01b145b8061063d575061063d82610e77565b92915050565b60098054610650906120e7565b80601f016020809104026020016040519081016040528092919081815260200182805461067c906120e7565b80156106c95780601f1061069e576101008083540402835291602001916106c9565b820191906000526020600020905b8154815290600101906020018083116106ac57829003601f168201915b505050505081565b6000818152600460205260408120546001600160a01b031661072d5760405162461bcd60e51b815260206004820152601060248201526f125b9d985b1a59081d1bdad95b88125160821b60448201526064015b60405180910390fd5b506000908152600660205260409020546001600160a01b031690565b6107533382610e9c565b61079f5760405162461bcd60e51b815260206004820152601c60248201527f4e6f7420746f6b656e206f776e6572206e6f72206f70657261746f72000000006044820152606401610724565b600081815260066020526040902080546001600160a01b0319166001600160a01b03841690811790915581906107d482610a05565b6001600160a01b03167f8c5be1e5ebec7d5bd14f71427d1e84f3dd0314c0f7b2291e5b200ac8c7c3b92560405160405180910390a45050565b610818838383610ef7565b505050565b600081158015610835575061083183610b12565b6001145b6108715760405162461bcd60e51b815260206004820152600d60248201526c092dcecc2d8d2c840d2dcc8caf609b1b6044820152606401610724565b50506001600160a01b03166000908152600b602052604090205490565b60606001805461089d906120e7565b80601f01602080910402602001604051908101604052809291908181526020018280546108c9906120e7565b80156109165780601f106108eb57610100808354040283529160200191610916565b820191906000526020600020905b8154815290600101906020018083116108f957829003601f168201915b5050505050905090565b600061092c8383611159565b9392505050565b610818838383604051806020016040528060008152506111a8565b600061095982610a05565b90506001600160a01b03811633146109835760405162461bcd60e51b81526004016107249061211c565b61098c82611200565b5050565b600e5460009082106109d45760405162461bcd60e51b815260206004820152600d60248201526c092dcecc2d8d2c840d2dcc8caf609b1b6044820152606401610724565b600e82815481106109e7576109e761213f565b90600052602060002001549050919050565b600061063d3383611159565b6000818152600460205260409020546001600160a01b031680610a5d5760405162461bcd60e51b815260206004820152601060248201526f125b9d985b1a59081d1bdad95b88125160821b6044820152606401610724565b919050565b6060815167ffffffffffffffff811115610a7e57610a7e611d8c565b604051908082528060200260200182016040528015610aa7578160200160208202803683370190505b50905060005b8251811015610b0c57610ad8838281518110610acb57610acb61213f565b60200260200101516105c8565b828281518110610aea57610aea61213f565b9115156020928302919091019091015280610b048161216b565b915050610aad565b50919050565b60006001600160a01b038216610b615760405162461bcd60e51b8152602060048201526014602482015273496e76616c6964207a65726f206164647265737360601b6044820152606401610724565b506001600160a01b031660009081526005602052604090205490565b600a8054610650906120e7565b600354600090600160a81b900460ff1615610bd15760405162461bcd60e51b81526020600482015260076024820152665061757365642160c81b6044820152606401610724565b61063d3383611327565b3360008181526007602090815260408083206001600160a01b03871680855290835292819020805460ff191686151590811790915590519081529192917f17307eab39ab6107e8899845ad3d59bd9653f200f220920489ca2b5937696c31910160405180910390a35050565b610c52848484610ef7565b610c5e84848484611476565b610c9f5760405162461bcd60e51b8152602060048201526012602482015271139bdd08115490cdcc8c549958d95a5d995960721b6044820152606401610724565b50505050565b600354600160a81b900460ff1615610ce95760405162461bcd60e51b81526020600482015260076024820152665061757365642160c81b6044820152606401610724565b610cf33382611159565b8214610d115760405162461bcd60e51b81526004016107249061211c565b6108183382611327565b60035461010090046001600160a01b03163314610d4a5760405162461bcd60e51b81526004016107249061211c565b600354610d6190600160a81b900460ff1615611525565b565b6000818152600460205260409020546060906001600160a01b0316610dbf5760405162461bcd60e51b81526020600482015260126024820152714e465420646f65736e27742065786973747360701b6044820152606401610724565b6000828152600d602052604090205461063d9061157c565b60035461010090046001600160a01b03163314610e065760405162461bcd60e51b81526004016107249061211c565b610e0f816115ce565b50565b610e3e6040518060400160405280600981526020016813dc195b909bdd5b9960ba1b8152506001611628565b610e4782611690565b8351610e5a906009906020870190611bbf565b508251610e6e90600a906020860190611bbf565b50600855505050565b60006380ac58cd60e01b6001600160e01b03198316148061063d575061063d826116ed565b600080610ea883610a05565b9050836001600160a01b0316816001600160a01b03161480610eef57506001600160a01b0380821660009081526007602090815260408083209388168352929052205460ff165b949350505050565b80610f023382611712565b610f4e5760405162461bcd60e51b815260206004820152601c60248201527f4e6f7420746f6b656e206f776e6572206e6f7220617070726f766564000000006044820152606401610724565b610f5782610a05565b6001600160a01b0316846001600160a01b031614610fa85760405162461bcd60e51b815260206004820152600e60248201526d233937b6903737ba1037bbb732b960911b6044820152606401610724565b6001600160a01b038416610ffe5760405162461bcd60e51b815260206004820152601a60248201527f5472616e736665722066726f6d207a65726f20616464726573730000000000006044820152606401610724565b6001600160a01b0383166110545760405162461bcd60e51b815260206004820152601860248201527f5472616e7366657220746f207a65726f206164647265737300000000000000006044820152606401610724565b61105f848484611748565b600082815260066020526040902080546001600160a01b03191690556001600160a01b0384811690841614611112576001600160a01b03841660009081526005602052604081208054600192906110b7908490612186565b90915550506001600160a01b03831660009081526005602052604081208054600192906110e590849061219d565b9091555050600082815260046020526040902080546001600160a01b0319166001600160a01b0385161790555b81836001600160a01b0316856001600160a01b03167fddf252ad1be2c89b69c2b068fc378daa952ba7f163c4a11628f55a4df523b3ef60405160405180910390a450505050565b6000818360405160200161118992919091825260601b6bffffffffffffffffffffffff1916602082015260340190565b60408051601f1981840301815291905280516020909101209392505050565b6111b3848484610ef7565b6111bf84848484611476565b610c9f5760405162461bcd60e51b81526020600482015260126024820152712737ba1022a9219b9918a932b1b2b4bb32b960711b6044820152606401610724565b600061120b82610a05565b6001600160a01b0381166000908152600c6020526040812054600e549293509161123790600190612186565b90508082146112c557600e81815481106112535761125361213f565b9060005260206000200154600e83815481106112715761127161213f565b906000526020600020018190555081600c60006112aa600e858154811061129a5761129a61213f565b9060005260206000200154610a05565b6001600160a01b031681526020810191909152604001600020555b600e8054806112d6576112d66121b5565b600082815260208082208301600019908101839055909201909255858252600d815260408083208390556001600160a01b0386168352600c8252808320839055600b909152812055610c9f846117a8565b60006008546000148061133d5750600854600e54105b61137e5760405162461bcd60e51b815260206004820152601260248201527113585e081cdd5c1c1b1e481c995858da195960721b6044820152606401610724565b61138783610b12565b156113d45760405162461bcd60e51b815260206004820152601960248201527f416c7265616479206d696e746564206f7220636c61696d6564000000000000006044820152606401610724565b6113de8383611159565b600e8054600181810183557fbb7b4a454dc3493923482f07822329ed19e8244eff582cc204f8554c3620c3fd9091018390556001600160a01b0386166000908152600b60205260409020839055905491925061143991612186565b6001600160a01b0384166000908152600c6020908152604080832093909355838252600d90522082905561063d836114708461157c565b83611873565b60006001600160a01b0384163b158061151c5750604051630a85bd0160e11b808252906001600160a01b0386169063150b7a02906114be9033908a90899089906004016121cb565b602060405180830381600087803b1580156114d857600080fd5b505af11580156114ec573d6000803e3d6000fd5b505050506040513d601f19601f820116820180604052508101906115109190612208565b6001600160e01b031916145b95945050505050565b6003805460ff60a81b1916600160a81b83151581029190911791829055604051339260ff929004919091161515907f8b265f737315073a655a642868ed756ba7e3b6c391b06dbbf70370aab7f7f06890600090a350565b606060405180604001604052806007815260200166697066733a2f2f60c81b8152506115a78361187e565b6040516020016115b8929190612225565b6040516020818303038152906040529050919050565b600380546001600160a01b03838116610100818102610100600160a81b031985161790945560405193909204169182907f8be0079c531659141344cd1fd0a4f28419497f9722a3daafe3b4186f6b6457e090600090a35050565b60005460ff16156116685760405162461bcd60e51b815260206004820152600a6024820152694f6e6c79206f6e63652160b01b6044820152606401610724565b6000805460ff19166001908117909155825161168991906020850190611bbf565b5060025550565b60035460ff16156116d75760405162461bcd60e51b8152602060048201526011602482015270125b9a5d08185b1c9958591e4818d85b1b607a1b6044820152606401610724565b6003805460ff19166001179055610e0f816115ce565b60006001600160e01b031982166398396bd360e01b148061063d575061063d826119bc565b600061171e8383610e9c565b8061092c5750826001600160a01b0316611737836106d1565b6001600160a01b0316149392505050565b6001600160a01b038316158061176557506001600160a01b038216155b6108185760405162461bcd60e51b8152602060048201526014602482015273139bdb881d1c985b9cd9995c98589b194813919560621b6044820152606401610724565b60006117b382610a05565b6001600160a01b0381166000908152600560205260409020549091506117db576117db612254565b6001600160a01b0381166000908152600560205260408120805460019290611804908490612186565b9091555050600082815260066020908152604080832080546001600160a01b031990811690915560049092528083208054909216909155518391906001600160a01b038416907fddf252ad1be2c89b69c2b068fc378daa952ba7f163c4a11628f55a4df523b3ef908390a45050565b6108188383836119e1565b60408051603480825260608281019093526000919060208201818036833701905050905060fd83901c7f6162636465666768696a6b6c6d6e6f707172737475767778797a32333435363781602081106118d9576118d961213f565b1a60f81b826000815181106118f0576118f061213f565b60200101906001600160f81b031916908160001a90535060029390931b9260335b8015611992577f6162636465666768696a6b6c6d6e6f707172737475767778797a32333435363785601f166020811061194c5761194c61213f565b1a60f81b8382815181106119625761196261213f565b60200101906001600160f81b031916908160001a90535060059490941c938061198a8161226a565b915050611911565b50816040516020016119a49190612281565b60405160208183030381529060405292505050919050565b60006307f5828d60e41b6001600160e01b03198316148061063d575061063d82611b6a565b6001600160a01b038316611a2e5760405162461bcd60e51b81526020600482015260146024820152734d696e7420746f207a65726f206164647265737360601b6044820152606401610724565b6000818152600460205260409020546001600160a01b031615611a8a5760405162461bcd60e51b8152602060048201526014602482015273151bdad95b88185b1c9958591e481b5a5b9d195960621b6044820152606401610724565b6001600160a01b0383166000908152600560205260408120805460019290611ab390849061219d565b909155505060008181526004602052604080822080546001600160a01b0319166001600160a01b03871690811790915590518392907fddf252ad1be2c89b69c2b068fc378daa952ba7f163c4a11628f55a4df523b3ef908290a4611b296000848360405180602001604052806000815250611476565b6108185760405162461bcd60e51b8152602060048201526012602482015271139bdd08115490cdcc8c549958d95a5d995960721b6044820152606401610724565b60006001600160e01b03198216630d40a0cd60e31b148061063d575061063d8260006001600160e01b03198216631fc9136f60e11b148061063d57506001600160e01b031982166301ffc9a760e01b1461063d565b828054611bcb906120e7565b90600052602060002090601f016020900481019282611bed5760008555611c33565b82601f10611c0657805160ff1916838001178555611c33565b82800160010185558215611c33579182015b82811115611c33578251825591602001919060010190611c18565b50611c3f929150611c43565b5090565b5b80821115611c3f5760008155600101611c44565b6001600160e01b031981168114610e0f57600080fd5b600060208284031215611c8057600080fd5b813561092c81611c58565b60005b83811015611ca6578181015183820152602001611c8e565b83811115610c9f5750506000910152565b60008151808452611ccf816020860160208601611c8b565b601f01601f19169290920160200192915050565b60208152600061092c6020830184611cb7565b600060208284031215611d0857600080fd5b5035919050565b80356001600160a01b0381168114610a5d57600080fd5b60008060408385031215611d3957600080fd5b611d4283611d0f565b946020939093013593505050565b600080600060608486031215611d6557600080fd5b611d6e84611d0f565b9250611d7c60208501611d0f565b9150604084013590509250925092565b634e487b7160e01b600052604160045260246000fd5b604051601f8201601f1916810167ffffffffffffffff81118282101715611dcb57611dcb611d8c565b604052919050565b60006020808385031215611de657600080fd5b823567ffffffffffffffff80821115611dfe57600080fd5b818501915085601f830112611e1257600080fd5b813581811115611e2457611e24611d8c565b8060051b9150611e35848301611da2565b8181529183018401918481019088841115611e4f57600080fd5b938501935b83851015611e795784359250611e6983611c58565b8282529385019390850190611e54565b98975050505050505050565b6020808252825182820181905260009190848201906040850190845b81811015611ebf578351151583529284019291840191600101611ea1565b50909695505050505050565b600060208284031215611edd57600080fd5b61092c82611d0f565b60008060408385031215611ef957600080fd5b611f0283611d0f565b915060208301358015158114611f1757600080fd5b809150509250929050565b600067ffffffffffffffff831115611f3c57611f3c611d8c565b611f4f601f8401601f1916602001611da2565b9050828152838383011115611f6357600080fd5b828260208301376000602084830101529392505050565b60008060008060808587031215611f9057600080fd5b611f9985611d0f565b9350611fa760208601611d0f565b925060408501359150606085013567ffffffffffffffff811115611fca57600080fd5b8501601f81018713611fdb57600080fd5b611fea87823560208401611f22565b91505092959194509250565b6000806040838503121561200957600080fd5b50508035926020909101359150565b6000806040838503121561202b57600080fd5b61203483611d0f565b915061204260208401611d0f565b90509250929050565b600082601f83011261205c57600080fd5b61092c83833560208501611f22565b6000806000806080858703121561208157600080fd5b843567ffffffffffffffff8082111561209957600080fd5b6120a58883890161204b565b955060208701359150808211156120bb57600080fd5b506120c88782880161204b565b9350506120d760408601611d0f565b9396929550929360600135925050565b600181811c908216806120fb57607f821691505b60208210811415610b0c57634e487b7160e01b600052602260045260246000fd5b6020808252600990820152682737ba1037bbb732b960b91b604082015260600190565b634e487b7160e01b600052603260045260246000fd5b634e487b7160e01b600052601160045260246000fd5b600060001982141561217f5761217f612155565b5060010190565b60008282101561219857612198612155565b500390565b600082198211156121b0576121b0612155565b500190565b634e487b7160e01b600052603160045260246000fd5b6001600160a01b03858116825284166020820152604081018390526080606082018190526000906121fe90830184611cb7565b9695505050505050565b60006020828403121561221a57600080fd5b815161092c81611c58565b60008351612237818460208801611c8b565b83519083019061224b818360208801611c8b565b01949350505050565b634e487b7160e01b600052600160045260246000fd5b60008161227957612279612155565b506000190190565b666261666b72656960c81b8152600082516122a3816007850160208701611c8b565b919091016007019291505056fea2646970667358221220d28f27c4011b39811eb08e4fbd9335670633450f003bc4a31756521b93b1396164736f6c63430008090033",
  "devdoc": {
    "kind": "dev",
    "methods": {},
    "title": "OpenBound smartcontract limited to one nft per address",
    "version": 1
  },
  "userdoc": {
    "kind": "user",
    "methods": {
      "initialize(string,string,address,uint256)": {
        "notice": "IOpenBound"
      },
      "supportsInterface(bytes4)": {
        "notice": "IERC165"
      },
      "tokenURI(uint256)": {
        "notice": "IERC721Metadata"
      },
      "totalSupply()": {
        "notice": "IERC721Enumerable"
      }
    },
    "version": 1
  },
  "storageLayout": {
    "storage": [
      {
        "astId": 6586,
        "contract": "contracts/templates/OpenBound.sol:OpenBound",
        "label": "_openCloneableInitialized",
        "offset": 0,
        "slot": "0",
        "type": "t_bool"
      },
      {
        "astId": 6588,
        "contract": "contracts/templates/OpenBound.sol:OpenBound",
        "label": "_template",
        "offset": 0,
        "slot": "1",
        "type": "t_string_storage"
      },
      {
        "astId": 6590,
        "contract": "contracts/templates/OpenBound.sol:OpenBound",
        "label": "_version",
        "offset": 0,
        "slot": "2",
        "type": "t_uint256"
      },
      {
        "astId": 6688,
        "contract": "contracts/templates/OpenBound.sol:OpenBound",
        "label": "_openERC173Initialized",
        "offset": 0,
        "slot": "3",
        "type": "t_bool"
      },
      {
        "astId": 6690,
        "contract": "contracts/templates/OpenBound.sol:OpenBound",
        "label": "_owner",
        "offset": 1,
        "slot": "3",
        "type": "t_address"
      },
      {
        "astId": 8680,
        "contract": "contracts/templates/OpenBound.sol:OpenBound",
        "label": "_paused",
        "offset": 21,
        "slot": "3",
        "type": "t_bool"
      },
      {
        "astId": 6923,
        "contract": "contracts/templates/OpenBound.sol:OpenBound",
        "label": "_owners",
        "offset": 0,
        "slot": "4",
        "type": "t_mapping(t_uint256,t_address)"
      },
      {
        "astId": 6927,
        "contract": "contracts/templates/OpenBound.sol:OpenBound",
        "label": "_balances",
        "offset": 0,
        "slot": "5",
        "type": "t_mapping(t_address,t_uint256)"
      },
      {
        "astId": 6931,
        "contract": "contracts/templates/OpenBound.sol:OpenBound",
        "label": "_tokenApprovals",
        "offset": 0,
        "slot": "6",
        "type": "t_mapping(t_uint256,t_address)"
      },
      {
        "astId": 6937,
        "contract": "contracts/templates/OpenBound.sol:OpenBound",
        "label": "_operatorApprovals",
        "offset": 0,
        "slot": "7",
        "type": "t_mapping(t_address,t_mapping(t_address,t_bool))"
      },
      {
        "astId": 18078,
        "contract": "contracts/templates/OpenBound.sol:OpenBound",
        "label": "maxSupply",
        "offset": 0,
        "slot": "8",
        "type": "t_uint256"
      },
      {
        "astId": 18080,
        "contract": "contracts/templates/OpenBound.sol:OpenBound",
        "label": "name",
        "offset": 0,
        "slot": "9",
        "type": "t_string_storage"
      },
      {
        "astId": 18082,
        "contract": "contracts/templates/OpenBound.sol:OpenBound",
        "label": "symbol",
        "offset": 0,
        "slot": "10",
        "type": "t_string_storage"
      },
      {
        "astId": 18086,
        "contract": "contracts/templates/OpenBound.sol:OpenBound",
        "label": "_tokenOfOwner",
        "offset": 0,
        "slot": "11",
        "type": "t_mapping(t_address,t_uint256)"
      },
      {
        "astId": 18090,
        "contract": "contracts/templates/OpenBound.sol:OpenBound",
        "label": "_tokenIndexOfOwner",
        "offset": 0,
        "slot": "12",
        "type": "t_mapping(t_address,t_uint256)"
      },
      {
        "astId": 18094,
        "contract": "contracts/templates/OpenBound.sol:OpenBound",
        "label": "_cidOfToken",
        "offset": 0,
        "slot": "13",
        "type": "t_mapping(t_uint256,t_uint256)"
      },
      {
        "astId": 18097,
        "contract": "contracts/templates/OpenBound.sol:OpenBound",
        "label": "_tokens",
        "offset": 0,
        "slot": "14",
        "type": "t_array(t_uint256)dyn_storage"
      }
    ],
    "types": {
      "t_address": {
        "encoding": "inplace",
        "label": "address",
        "numberOfBytes": "20"
      },
      "t_array(t_uint256)dyn_storage": {
        "base": "t_uint256",
        "encoding": "dynamic_array",
        "label": "uint256[]",
        "numberOfBytes": "32"
      },
      "t_bool": {
        "encoding": "inplace",
        "label": "bool",
        "numberOfBytes": "1"
      },
      "t_mapping(t_address,t_bool)": {
        "encoding": "mapping",
        "key": "t_address",
        "label": "mapping(address => bool)",
        "numberOfBytes": "32",
        "value": "t_bool"
      },
      "t_mapping(t_address,t_mapping(t_address,t_bool))": {
        "encoding": "mapping",
        "key": "t_address",
        "label": "mapping(address => mapping(address => bool))",
        "numberOfBytes": "32",
        "value": "t_mapping(t_address,t_bool)"
      },
      "t_mapping(t_address,t_uint256)": {
        "encoding": "mapping",
        "key": "t_address",
        "label": "mapping(address => uint256)",
        "numberOfBytes": "32",
        "value": "t_uint256"
      },
      "t_mapping(t_uint256,t_address)": {
        "encoding": "mapping",
        "key": "t_uint256",
        "label": "mapping(uint256 => address)",
        "numberOfBytes": "32",
        "value": "t_address"
      },
      "t_mapping(t_uint256,t_uint256)": {
        "encoding": "mapping",
        "key": "t_uint256",
        "label": "mapping(uint256 => uint256)",
        "numberOfBytes": "32",
        "value": "t_uint256"
      },
      "t_string_storage": {
        "encoding": "bytes",
        "label": "string",
        "numberOfBytes": "32"
      },
      "t_uint256": {
        "encoding": "inplace",
        "label": "uint256",
        "numberOfBytes": "32"
      }
    }
  }
}