{
  "address": "0xF6A8209849F965EFB493DD0419F5577702014064",
  "abi": [
    {
      "anonymous": false,
      "inputs": [
        {
          "indexed": true,
          "internalType": "address",
          "name": "owner",
          "type": "address"
        },
        {
          "indexed": true,
          "internalType": "address",
          "name": "approved",
          "type": "address"
        },
        {
          "indexed": true,
          "internalType": "uint256",
          "name": "tokenId",
          "type": "uint256"
        }
      ],
      "name": "Approval",
      "type": "event"
    },
    {
      "anonymous": false,
      "inputs": [
        {
          "indexed": true,
          "internalType": "address",
          "name": "owner",
          "type": "address"
        },
        {
          "indexed": true,
          "internalType": "address",
          "name": "operator",
          "type": "address"
        },
        {
          "indexed": false,
          "internalType": "bool",
          "name": "approved",
          "type": "bool"
        }
      ],
      "name": "ApprovalForAll",
      "type": "event"
    },
    {
      "anonymous": false,
      "inputs": [
        {
          "indexed": true,
          "internalType": "address",
          "name": "previousOwner",
          "type": "address"
        },
        {
          "indexed": true,
          "internalType": "address",
          "name": "newOwner",
          "type": "address"
        }
      ],
      "name": "OwnershipTransferred",
      "type": "event"
    },
    {
      "anonymous": false,
      "inputs": [
        {
          "indexed": false,
          "internalType": "address",
          "name": "receiver",
          "type": "address"
        },
        {
          "indexed": false,
          "internalType": "uint96",
          "name": "fee",
          "type": "uint96"
        }
      ],
      "name": "SetDefaultRoyalty",
      "type": "event"
    },
    {
      "anonymous": false,
      "inputs": [
        {
          "indexed": true,
          "internalType": "bool",
          "name": "paused",
          "type": "bool"
        },
        {
          "indexed": true,
          "internalType": "address",
          "name": "account",
          "type": "address"
        }
      ],
      "name": "SetPaused",
      "type": "event"
    },
    {
      "anonymous": false,
      "inputs": [
        {
          "indexed": false,
          "internalType": "uint256",
          "name": "tokenID",
          "type": "uint256"
        },
        {
          "indexed": false,
          "internalType": "address",
          "name": "receiver",
          "type": "address"
        },
        {
          "indexed": false,
          "internalType": "uint96",
          "name": "fee",
          "type": "uint96"
        }
      ],
      "name": "SetTokenRoyalty",
      "type": "event"
    },
    {
      "anonymous": false,
      "inputs": [
        {
          "indexed": true,
          "internalType": "address",
          "name": "from",
          "type": "address"
        },
        {
          "indexed": true,
          "internalType": "address",
          "name": "to",
          "type": "address"
        },
        {
          "indexed": true,
          "internalType": "uint256",
          "name": "tokenId",
          "type": "uint256"
        }
      ],
      "name": "Transfer",
      "type": "event"
    },
    {
      "inputs": [
        {
          "internalType": "address",
          "name": "spender",
          "type": "address"
        },
        {
          "internalType": "uint256",
          "name": "tokenID",
          "type": "uint256"
        }
      ],
      "name": "approve",
      "outputs": [],
      "stateMutability": "nonpayable",
      "type": "function"
    },
    {
      "inputs": [
        {
          "internalType": "address",
          "name": "owner",
          "type": "address"
        }
      ],
      "name": "balanceOf",
      "outputs": [
        {
          "internalType": "uint256",
          "name": "",
          "type": "uint256"
        }
      ],
      "stateMutability": "view",
      "type": "function"
    },
    {
      "inputs": [
        {
          "internalType": "uint256",
          "name": "tokenID",
          "type": "uint256"
        }
      ],
      "name": "burn",
      "outputs": [],
      "stateMutability": "nonpayable",
      "type": "function"
    },
    {
      "inputs": [
        {
          "internalType": "uint256",
          "name": "tokenID",
          "type": "uint256"
        }
      ],
      "name": "buy",
      "outputs": [],
      "stateMutability": "payable",
      "type": "function"
    },
    {
      "inputs": [
        {
          "internalType": "bytes4[]",
          "name": "interfaceIds",
          "type": "bytes4[]"
        }
      ],
      "name": "checkSupportedInterfaces",
      "outputs": [
        {
          "internalType": "bool[]",
          "name": "interfaceIdsChecker",
          "type": "bool[]"
        }
      ],
      "stateMutability": "view",
      "type": "function"
    },
    {
      "inputs": [],
      "name": "defaultPrice",
      "outputs": [
        {
          "internalType": "uint256",
          "name": "",
          "type": "uint256"
        }
      ],
      "stateMutability": "view",
      "type": "function"
    },
    {
      "inputs": [
        {
          "internalType": "uint256",
          "name": "tokenID",
          "type": "uint256"
        }
      ],
      "name": "getApproved",
      "outputs": [
        {
          "internalType": "address",
          "name": "",
          "type": "address"
        }
      ],
      "stateMutability": "view",
      "type": "function"
    },
    {
      "inputs": [],
      "name": "getTemplate",
      "outputs": [
        {
          "internalType": "string",
          "name": "",
          "type": "string"
        }
      ],
      "stateMutability": "view",
      "type": "function"
    },
    {
      "inputs": [],
      "name": "getVersion",
      "outputs": [
        {
          "internalType": "uint256",
          "name": "",
          "type": "uint256"
        }
      ],
      "stateMutability": "view",
      "type": "function"
    },
    {
      "inputs": [
        {
          "internalType": "string",
          "name": "name_",
          "type": "string"
        },
        {
          "internalType": "string",
          "name": "symbol_",
          "type": "string"
        },
        {
          "internalType": "address",
          "name": "owner_",
          "type": "address"
        },
        {
          "internalType": "bool[]",
          "name": "options",
          "type": "bool[]"
        }
      ],
      "name": "initialize",
      "outputs": [],
      "stateMutability": "nonpayable",
      "type": "function"
    },
    {
      "inputs": [
        {
          "internalType": "address",
          "name": "owner",
          "type": "address"
        },
        {
          "internalType": "address",
          "name": "operator",
          "type": "address"
        }
      ],
      "name": "isApprovedForAll",
      "outputs": [
        {
          "internalType": "bool",
          "name": "",
          "type": "bool"
        }
      ],
      "stateMutability": "view",
      "type": "function"
    },
    {
      "inputs": [
        {
          "internalType": "address",
          "name": "to",
          "type": "address"
        },
        {
          "internalType": "string",
          "name": "jsonURI",
          "type": "string"
        }
      ],
      "name": "mint",
      "outputs": [
        {
          "internalType": "uint256",
          "name": "",
          "type": "uint256"
        }
      ],
      "stateMutability": "nonpayable",
      "type": "function"
    },
    {
      "inputs": [
        {
          "internalType": "string",
          "name": "jsonURI",
          "type": "string"
        }
      ],
      "name": "mint",
      "outputs": [
        {
          "internalType": "uint256",
          "name": "",
          "type": "uint256"
        }
      ],
      "stateMutability": "nonpayable",
      "type": "function"
    },
    {
      "inputs": [],
      "name": "name",
      "outputs": [
        {
          "internalType": "string",
          "name": "",
          "type": "string"
        }
      ],
      "stateMutability": "view",
      "type": "function"
    },
    {
      "inputs": [],
      "name": "open",
      "outputs": [
        {
          "internalType": "bool",
          "name": "",
          "type": "bool"
        }
      ],
      "stateMutability": "view",
      "type": "function"
    },
    {
      "inputs": [],
      "name": "owner",
      "outputs": [
        {
          "internalType": "address",
          "name": "",
          "type": "address"
        }
      ],
      "stateMutability": "view",
      "type": "function"
    },
    {
      "inputs": [
        {
          "internalType": "uint256",
          "name": "tokenID",
          "type": "uint256"
        }
      ],
      "name": "ownerOf",
      "outputs": [
        {
          "internalType": "address",
          "name": "owner",
          "type": "address"
        }
      ],
      "stateMutability": "view",
      "type": "function"
    },
    {
      "inputs": [],
      "name": "paused",
      "outputs": [
        {
          "internalType": "bool",
          "name": "",
          "type": "bool"
        }
      ],
      "stateMutability": "view",
      "type": "function"
    },
    {
      "inputs": [
        {
          "internalType": "uint256",
          "name": "tokenID",
          "type": "uint256"
        },
        {
          "internalType": "uint256",
          "name": "salePrice",
          "type": "uint256"
        }
      ],
      "name": "royaltyInfo",
      "outputs": [
        {
          "internalType": "address",
          "name": "receiver",
          "type": "address"
        },
        {
          "internalType": "uint256",
          "name": "royaltyAmount",
          "type": "uint256"
        }
      ],
      "stateMutability": "view",
      "type": "function"
    },
    {
      "inputs": [
        {
          "internalType": "address",
          "name": "from",
          "type": "address"
        },
        {
          "internalType": "address",
          "name": "to",
          "type": "address"
        },
        {
          "internalType": "uint256",
          "name": "tokenID",
          "type": "uint256"
        }
      ],
      "name": "safeTransferFrom",
      "outputs": [],
      "stateMutability": "nonpayable",
      "type": "function"
    },
    {
      "inputs": [
        {
          "internalType": "address",
          "name": "from",
          "type": "address"
        },
        {
          "internalType": "address",
          "name": "to",
          "type": "address"
        },
        {
          "internalType": "uint256",
          "name": "tokenID",
          "type": "uint256"
        },
        {
          "internalType": "bytes",
          "name": "data",
          "type": "bytes"
        }
      ],
      "name": "safeTransferFrom",
      "outputs": [],
      "stateMutability": "nonpayable",
      "type": "function"
    },
    {
      "inputs": [
        {
          "internalType": "address",
          "name": "operator",
          "type": "address"
        },
        {
          "internalType": "bool",
          "name": "approved",
          "type": "bool"
        }
      ],
      "name": "setApprovalForAll",
      "outputs": [],
      "stateMutability": "nonpayable",
      "type": "function"
    },
    {
      "inputs": [
        {
          "internalType": "uint256",
          "name": "price",
          "type": "uint256"
        }
      ],
      "name": "setDefaultPrice",
      "outputs": [],
      "stateMutability": "nonpayable",
      "type": "function"
    },
    {
      "inputs": [
        {
          "internalType": "address",
          "name": "receiver",
          "type": "address"
        },
        {
          "internalType": "uint96",
          "name": "fee",
          "type": "uint96"
        }
      ],
      "name": "setDefaultRoyalty",
      "outputs": [],
      "stateMutability": "nonpayable",
      "type": "function"
    },
    {
      "inputs": [
        {
          "internalType": "uint256",
          "name": "tokenID",
          "type": "uint256"
        }
      ],
      "name": "setTokenPrice",
      "outputs": [],
      "stateMutability": "nonpayable",
      "type": "function"
    },
    {
      "inputs": [
        {
          "internalType": "uint256",
          "name": "tokenID",
          "type": "uint256"
        },
        {
          "internalType": "uint256",
          "name": "price",
          "type": "uint256"
        }
      ],
      "name": "setTokenPrice",
      "outputs": [],
      "stateMutability": "nonpayable",
      "type": "function"
    },
    {
      "inputs": [
        {
          "internalType": "uint256",
          "name": "tokenID",
          "type": "uint256"
        },
        {
          "internalType": "address",
          "name": "receiver",
          "type": "address"
        },
        {
          "internalType": "uint96",
          "name": "fee",
          "type": "uint96"
        }
      ],
      "name": "setTokenRoyalty",
      "outputs": [],
      "stateMutability": "nonpayable",
      "type": "function"
    },
    {
      "inputs": [
        {
          "internalType": "bytes4",
          "name": "interfaceId",
          "type": "bytes4"
        }
      ],
      "name": "supportsInterface",
      "outputs": [
        {
          "internalType": "bool",
          "name": "",
          "type": "bool"
        }
      ],
      "stateMutability": "view",
      "type": "function"
    },
    {
      "inputs": [],
      "name": "symbol",
      "outputs": [
        {
          "internalType": "string",
          "name": "",
          "type": "string"
        }
      ],
      "stateMutability": "view",
      "type": "function"
    },
    {
      "inputs": [],
      "name": "togglePause",
      "outputs": [],
      "stateMutability": "nonpayable",
      "type": "function"
    },
    {
      "inputs": [
        {
          "internalType": "uint256",
          "name": "index",
          "type": "uint256"
        }
      ],
      "name": "tokenByIndex",
      "outputs": [
        {
          "internalType": "uint256",
          "name": "",
          "type": "uint256"
        }
      ],
      "stateMutability": "view",
      "type": "function"
    },
    {
      "inputs": [],
      "name": "tokenIdNext",
      "outputs": [
        {
          "internalType": "uint256",
          "name": "",
          "type": "uint256"
        }
      ],
      "stateMutability": "view",
      "type": "function"
    },
    {
      "inputs": [
        {
          "internalType": "address",
          "name": "owner",
          "type": "address"
        },
        {
          "internalType": "uint256",
          "name": "index",
          "type": "uint256"
        }
      ],
      "name": "tokenOfOwnerByIndex",
      "outputs": [
        {
          "internalType": "uint256",
          "name": "",
          "type": "uint256"
        }
      ],
      "stateMutability": "view",
      "type": "function"
    },
    {
      "inputs": [
        {
          "internalType": "uint256",
          "name": "",
          "type": "uint256"
        }
      ],
      "name": "tokenPrice",
      "outputs": [
        {
          "internalType": "uint256",
          "name": "",
          "type": "uint256"
        }
      ],
      "stateMutability": "view",
      "type": "function"
    },
    {
      "inputs": [
        {
          "internalType": "uint256",
          "name": "tokenID",
          "type": "uint256"
        }
      ],
      "name": "tokenURI",
      "outputs": [
        {
          "internalType": "string",
          "name": "",
          "type": "string"
        }
      ],
      "stateMutability": "view",
      "type": "function"
    },
    {
      "inputs": [],
      "name": "totalSupply",
      "outputs": [
        {
          "internalType": "uint256",
          "name": "",
          "type": "uint256"
        }
      ],
      "stateMutability": "view",
      "type": "function"
    },
    {
      "inputs": [
        {
          "internalType": "address",
          "name": "from",
          "type": "address"
        },
        {
          "internalType": "address",
          "name": "to",
          "type": "address"
        },
        {
          "internalType": "uint256",
          "name": "tokenID",
          "type": "uint256"
        }
      ],
      "name": "transferFrom",
      "outputs": [],
      "stateMutability": "nonpayable",
      "type": "function"
    },
    {
      "inputs": [
        {
          "internalType": "address",
          "name": "newOwner",
          "type": "address"
        }
      ],
      "name": "transferOwnership",
      "outputs": [],
      "stateMutability": "nonpayable",
      "type": "function"
    },
    {
      "inputs": [
        {
          "internalType": "address",
          "name": "to",
          "type": "address"
        }
      ],
      "name": "withdraw",
      "outputs": [],
      "stateMutability": "nonpayable",
      "type": "function"
    },
    {
      "inputs": [
        {
          "internalType": "address",
          "name": "token",
          "type": "address"
        }
      ],
      "name": "withdrawErc20",
      "outputs": [],
      "stateMutability": "nonpayable",
      "type": "function"
    }
  ],
  "transactionHash": "0xf730ab9975d4f742f5b59cc4162840f35c08bb95bfaf13bfe6ec43f037a3a674",
  "args": [],
  "numDeployments": 6,
  "solcInputHash": "8adcb0a7060b9626bf10f4eca40d8aa4",
  "bytecode": "0x6080604052600160155534801561001557600080fd5b50612d62806100256000396000f3fe60806040526004361061023b5760003560e01c80636a61e5fc1161012e578063c87b56dd116100ab578063e69e04b31161006f578063e69e04b3146106c1578063e985e9c5146106d7578063eb685c4714610720578063f2fde38b14610740578063fcfff16f1461076057600080fd5b8063c87b56dd14610621578063d0def52114610641578063d4ddce8a14610661578063d85d3d271461068e578063d96a094a146106ae57600080fd5b806395d89b41116100f257806395d89b4114610597578063a22cb465146105ac578063b88d4fde146105cc578063c4ae3168146105ec578063c7e42b1b1461060157600080fd5b80636a61e5fc146104fe5780636d3c7ec51461051e57806370a082311461053e5780638bbf58b31461055e5780638da5cb5b1461057457600080fd5b8063321c48f2116101bc57806354e10b481161018057806354e10b48146104595780635944c753146104795780635c975abb146104995780636352211e146104b15780636a050668146104d157600080fd5b8063321c48f2146103c457806342842e0e146103d957806342966c68146103f95780634f6ccce71461041957806351cff8d91461043957600080fd5b80630d8e6e2c116102035780630d8e6e2c1461031157806318160ddd1461033057806323b872dd146103455780632a55205a146103655780632f745c59146103a457600080fd5b806301ffc9a71461024057806304634d8d1461027557806306fdde0314610297578063081812fc146102b9578063095ea7b3146102f1575b600080fd5b34801561024c57600080fd5b5061026061025b366004612501565b61077a565b60405190151581526020015b60405180910390f35b34801561028157600080fd5b5061029561029036600461254c565b6107bf565b005b3480156102a357600080fd5b506102ac6108bf565b60405161026c91906125cc565b3480156102c557600080fd5b506102d96102d43660046125df565b610951565b6040516001600160a01b03909116815260200161026c565b3480156102fd57600080fd5b5061029561030c3660046125f8565b6109c4565b34801561031d57600080fd5b506002545b60405190815260200161026c565b34801561033c57600080fd5b50600754610322565b34801561035157600080fd5b50610295610360366004612622565b610a88565b34801561037157600080fd5b5061038561038036600461265e565b610a98565b604080516001600160a01b03909316835260208301919091520161026c565b3480156103b057600080fd5b506103226103bf3660046125f8565b610b64565b3480156103d057600080fd5b506102ac610beb565b3480156103e557600080fd5b506102956103f4366004612622565b610bfa565b34801561040557600080fd5b506102956104143660046125df565b610c15565b34801561042557600080fd5b506103226104343660046125df565b610c49565b34801561044557600080fd5b50610295610454366004612680565b610cb3565b34801561046557600080fd5b5061029561047436600461278c565b610d6d565b34801561048557600080fd5b50610295610494366004612887565b610de5565b3480156104a557600080fd5b5060125460ff16610260565b3480156104bd57600080fd5b506102d96104cc3660046125df565b610e75565b3480156104dd57600080fd5b506104f16104ec3660046128c3565b610ed2565b60405161026c919061295d565b34801561050a57600080fd5b506102956105193660046125df565b610f82565b34801561052a57600080fd5b506102956105393660046125df565b610f91565b34801561054a57600080fd5b50610322610559366004612680565b610fea565b34801561056a57600080fd5b5061032260155481565b34801561058057600080fd5b50600f5461010090046001600160a01b03166102d9565b3480156105a357600080fd5b506102ac61105e565b3480156105b857600080fd5b506102956105c73660046129a3565b61106d565b3480156105d857600080fd5b506102956105e73660046129da565b6110d9565b3480156105f857600080fd5b50610295611137565b34801561060d57600080fd5b5061029561061c366004612680565b611178565b34801561062d57600080fd5b506102ac61063c3660046125df565b6112e4565b34801561064d57600080fd5b5061032261065c366004612a56565b611386565b34801561066d57600080fd5b5061032261067c3660046125df565b60136020526000908152604090205481565b34801561069a57600080fd5b506103226106a9366004612aa4565b6113c9565b6102956106bc3660046125df565b61146d565b3480156106cd57600080fd5b5061032260145481565b3480156106e357600080fd5b506102606106f2366004612ad9565b6001600160a01b03918216600090815260066020908152604080832093909416825291909152205460ff1690565b34801561072c57600080fd5b5061029561073b36600461265e565b6116f7565b34801561074c57600080fd5b5061029561075b366004612680565b611758565b34801561076c57600080fd5b506016546102609060ff1681565b60006001600160e01b0319821662f7235960e21b14806107aa57506001600160e01b0319821663ad4a84c160e01b145b806107b957506107b982611790565b92915050565b600f5461010090046001600160a01b031633146107f75760405162461bcd60e51b81526004016107ee90612b03565b60405180910390fd5b6001600160601b03811661271081111561084e5760405162461bcd60e51b8152602060048201526018602482015277526f79616c7479206665652065786365656420707269636560401b60448201526064016107ee565b6040805180820182526001600160a01b0385168082526001600160601b0385166020928301819052600160a01b810282176010558351918252918101919091527fa1edde4ed5c1392c90dccd8e051a4080b761850e49a24c77d826348a51e1f8dc91015b60405180910390a1505050565b6060600c80546108ce90612b26565b80601f01602080910402602001604051908101604052809291908181526020018280546108fa90612b26565b80156109475780601f1061091c57610100808354040283529160200191610947565b820191906000526020600020905b81548152906001019060200180831161092a57829003601f168201915b5050505050905090565b6000818152600360205260408120546001600160a01b03166109a85760405162461bcd60e51b815260206004820152601060248201526f125b9d985b1a59081d1bdad95b88125160821b60448201526064016107ee565b506000908152600560205260409020546001600160a01b031690565b6109ce33826117b5565b610a1a5760405162461bcd60e51b815260206004820152601c60248201527f4e6f7420746f6b656e206f776e6572206e6f72206f70657261746f720000000060448201526064016107ee565b600081815260056020526040902080546001600160a01b0319166001600160a01b0384169081179091558190610a4f82610e75565b6001600160a01b03167f8c5be1e5ebec7d5bd14f71427d1e84f3dd0314c0f7b2291e5b200ac8c7c3b92560405160405180910390a45050565b610a93838383611810565b505050565b600080600160801b8310610abe5760405162461bcd60e51b81526004016107ee90612b5b565b6000848152601160209081526040918290208251808401909352546001600160a01b038116808452600160a01b9091046001600160601b031691830191909152610b325750604080518082019091526010546001600160a01b0381168252600160a01b90046001600160601b031660208201525b602081015161271090610b4e906001600160601b031686612b98565b610b589190612bb7565b90519590945092505050565b6000610b6f83610fea565b8210610bae5760405162461bcd60e51b815260206004820152600e60248201526d496e76616c696420696e6465782160901b60448201526064016107ee565b6001600160a01b0383166000908152600860205260409020805483908110610bd857610bd8612bd9565b9060005260206000200154905092915050565b6060600180546108ce90612b26565b610a93838383604051806020016040528060008152506110d9565b80610c203382611a42565b610c3c5760405162461bcd60e51b81526004016107ee90612bef565b610c4582611a78565b5050565b6007546000908210610c8e5760405162461bcd60e51b815260206004820152600e60248201526d496e76616c696420696e6465782160901b60448201526064016107ee565b60078281548110610ca157610ca1612bd9565b90600052602060002001549050919050565b600f5461010090046001600160a01b03163314610ce25760405162461bcd60e51b81526004016107ee90612b03565b6001600160a01b038116610d385760405162461bcd60e51b815260206004820152601860248201527f446f6e2774207468726f7720796f7572206d6f6e65792021000000000000000060448201526064016107ee565b6040516001600160a01b038216904780156108fc02916000818181858888f19350505050158015610c45573d6000803e3d6000fd5b610d98604051806040016040528060088152602001674f70656e4e46547360c01b8152506004611aaf565b610da28484611b17565b610dab82611b8b565b80600081518110610dbe57610dbe612bd9565b6020026020010151601660006101000a81548160ff02191690831515021790555050505050565b82610df03382611a42565b610e0c5760405162461bcd60e51b81526004016107ee90612bef565b6001600160601b038216612710811115610e635760405162461bcd60e51b8152602060048201526018602482015277526f79616c7479206665652065786365656420707269636560401b60448201526064016107ee565b610e6e858585611be8565b5050505050565b6000818152600360205260409020546001600160a01b031680610ecd5760405162461bcd60e51b815260206004820152601060248201526f125b9d985b1a59081d1bdad95b88125160821b60448201526064016107ee565b919050565b6060815167ffffffffffffffff811115610eee57610eee61269b565b604051908082528060200260200182016040528015610f17578160200160208202803683370190505b50905060005b8251811015610f7c57610f48838281518110610f3b57610f3b612bd9565b602002602001015161077a565b828281518110610f5a57610f5a612bd9565b9115156020928302919091019091015280610f7481612c26565b915050610f1d565b50919050565b610f8e816014546116f7565b50565b600f5461010090046001600160a01b03163314610fc05760405162461bcd60e51b81526004016107ee90612b03565b80600160801b8110610fe45760405162461bcd60e51b81526004016107ee90612b5b565b50601455565b60006001600160a01b0382166110425760405162461bcd60e51b815260206004820152601c60248201527f5a65726f2061646472657373206e6f742076616c6964206f776e65720000000060448201526064016107ee565b506001600160a01b031660009081526004602052604090205490565b6060600d80546108ce90612b26565b3360008181526006602090815260408083206001600160a01b03871680855290835292819020805460ff191686151590811790915590519081529192917f17307eab39ab6107e8899845ad3d59bd9653f200f220920489ca2b5937696c31910160405180910390a35050565b6110e4848484611810565b6110f084848484611c6d565b6111315760405162461bcd60e51b8152602060048201526012602482015271139bdd08115490cdcc8c549958d95a5d995960721b60448201526064016107ee565b50505050565b600f5461010090046001600160a01b031633146111665760405162461bcd60e51b81526004016107ee90612b03565b6012546111769060ff1615611d1c565b565b600f5461010090046001600160a01b031633146111a75760405162461bcd60e51b81526004016107ee90612b03565b6040516370a0823160e01b81523060048201526001600160a01b0382169063a9059cbb90339083906370a082319060240160206040518083038186803b1580156111f057600080fd5b505afa158015611204573d6000803e3d6000fd5b505050506040513d601f19601f820116820180604052508101906112289190612c41565b6040516001600160e01b031960e085901b1681526001600160a01b0390921660048301526024820152604401602060405180830381600087803b15801561126e57600080fd5b505af1158015611282573d6000803e3d6000fd5b505050506040513d601f19601f820116820180604052508101906112a69190612c5a565b610f8e5760405162461bcd60e51b815260206004820152600f60248201526e15da5d1a191c985dc819985a5b1959608a1b60448201526064016107ee565b6000818152600e6020526040902080546060919061130190612b26565b80601f016020809104026020016040519081016040528092919081815260200182805461132d90612b26565b801561137a5780601f1061134f5761010080835404028352916020019161137a565b820191906000526020600020905b81548152906001019060200180831161135d57829003601f168201915b50505050509050919050565b600f5460009061010090046001600160a01b031633146113b85760405162461bcd60e51b81526004016107ee90612b03565b6113c28383611d61565b9392505050565b60165460009060ff16806113ed5750600f546001600160a01b036101009091041633145b6114265760405162461bcd60e51b815260206004820152600a6024820152692737ba1036b4b73a32b960b11b60448201526064016107ee565b60125460ff16156114635760405162461bcd60e51b81526020600482015260076024820152665061757365642160c81b60448201526064016107ee565b6107b93383611d61565b600081815260136020526040902054806114b75760405162461bcd60e51b815260206004820152600b60248201526a139bdd081d1bc81cd95b1b60aa1b60448201526064016107ee565b803410156114fa5760405162461bcd60e51b815260206004820152601060248201526f4e6f7420656e6f7567682066756e647360801b60448201526064016107ee565b600061150583610e75565b90506001600160a01b03811661151d5761151d612c77565b6001600160a01b03811633141561156d5760405162461bcd60e51b8152602060048201526014602482015273416c726561647920746f6b656e206f776e65722160601b60448201526064016107ee565b6000838152601360205260408082209190915551632142170760e11b81526001600160a01b03821660048201523360248201526044810184905230906342842e0e90606401600060405180830381600087803b1580156115cc57600080fd5b505af11580156115e0573d6000803e3d6000fd5b505050506000806115f18585610a98565b915091508084101561160557611605612c77565b60006116118286612c8d565b9050600061161f8634612c8d565b9050348161162d8585612ca4565b6116379190612ca4565b1461164457611644612c77565b6040516001600160a01b0386169083156108fc029084906000818181858888f1935050505015801561167a573d6000803e3d6000fd5b5082156116b9576040516001600160a01b0385169084156108fc029085906000818181858888f193505050501580156116b7573d6000803e3d6000fd5b505b80156116ee57604051339082156108fc029083906000818181858888f193505050501580156116ec573d6000803e3d6000fd5b505b50505050505050565b816117023382611a42565b61171e5760405162461bcd60e51b81526004016107ee90612bef565b81600160801b81106117425760405162461bcd60e51b81526004016107ee90612b5b565b6000848152601360205260409020839055611131565b600f5461010090046001600160a01b031633146117875760405162461bcd60e51b81526004016107ee90612b03565b610f8e81611d96565b60006001600160e01b031982166332e7c19560e11b14806107b957506107b982611df0565b6000806117c183610e75565b9050836001600160a01b0316816001600160a01b0316148061180857506001600160a01b0380821660009081526006602090815260408083209388168352929052205460ff165b949350505050565b8061181b3382611a42565b6118375760405162461bcd60e51b81526004016107ee90612bef565b61184082610e75565b6001600160a01b0316846001600160a01b0316146118915760405162461bcd60e51b815260206004820152600e60248201526d233937b6903737ba1037bbb732b960911b60448201526064016107ee565b6001600160a01b0384166118e75760405162461bcd60e51b815260206004820152601a60248201527f5472616e736665722066726f6d207a65726f206164647265737300000000000060448201526064016107ee565b6001600160a01b03831661193d5760405162461bcd60e51b815260206004820152601860248201527f5472616e7366657220746f207a65726f2061646472657373000000000000000060448201526064016107ee565b611948848484611e15565b600082815260056020526040902080546001600160a01b03191690556001600160a01b03848116908416146119fb576001600160a01b03841660009081526004602052604081208054600192906119a0908490612c8d565b90915550506001600160a01b03831660009081526004602052604081208054600192906119ce908490612ca4565b9091555050600082815260036020526040902080546001600160a01b0319166001600160a01b0385161790555b81836001600160a01b0316856001600160a01b03167fddf252ad1be2c89b69c2b068fc378daa952ba7f163c4a11628f55a4df523b3ef60405160405180910390a450505050565b6000611a4e83836117b5565b806113c25750826001600160a01b0316611a6783610951565b6001600160a01b0316149392505050565b60008181526011602090815260408083208390556013909152812055611a9d81611e20565b611aa681611e37565b610f8e81611f00565b60005460ff1615611aef5760405162461bcd60e51b815260206004820152600a6024820152694f6e6c79206f6e63652160b01b60448201526064016107ee565b6000805460ff191660019081179091558251611b109190602085019061241c565b5060025550565b600b5460ff1615611b575760405162461bcd60e51b815260206004820152600a6024820152694f6e6c79206f6e63652160b01b60448201526064016107ee565b600b805460ff191660011790558151611b7790600c90602085019061241c565b508051610a9390600d90602084019061241c565b600f5460ff1615611bd25760405162461bcd60e51b8152602060048201526011602482015270125b9a5d08185b1c9958591e4818d85b1b607a1b60448201526064016107ee565b600f805460ff19166001179055610f8e81611d96565b6040805180820182526001600160a01b038481168083526001600160601b03858116602080860182815260008b81526011835288902096519051909316600160a01b029290941691909117909355835187815291820152918201527f2595213009f64247e2789cf9981bcc53ee736a6aa52042a651aa1549ae6fff61906060016108b2565b60006001600160a01b0384163b1580611d135750604051630a85bd0160e11b808252906001600160a01b0386169063150b7a0290611cb59033908a9089908990600401612cbc565b602060405180830381600087803b158015611ccf57600080fd5b505af1158015611ce3573d6000803e3d6000fd5b505050506040513d601f19601f82011682018060405250810190611d079190612cf9565b6001600160e01b031916145b95945050505050565b6012805460ff1916821515908117909155604051339160ff161515907f8b265f737315073a655a642868ed756ba7e3b6c391b06dbbf70370aab7f7f06890600090a350565b6015805460009182611d7283612c26565b919050559050611d828183611fcb565b611d8c8382611fea565b6107b98382612039565b600f80546001600160a01b03838116610100818102610100600160a81b031985161790945560405193909204169182907f8be0079c531659141344cd1fd0a4f28419497f9722a3daafe3b4186f6b6457e090600090a35050565b60006001600160e01b031982166398396bd360e01b14806107b957506107b9826121c2565b610a938383836121e7565b6000818152600e60205260408120610f8e916124a0565b6000611e4282610e75565b9050611e4e81836121fb565b6000828152600a6020526040812054600754909190611e6f90600190612c8d565b9050600060078281548110611e8657611e86612bd9565b6000918252602080832090910154808352600a909152604080832086905587835282209190915560078054919250829185908110611ec657611ec6612bd9565b6000918252602090912001556007805480611ee357611ee3612d16565b600190038181906000526020600020016000905590555050505050565b6000611f0b82610e75565b6001600160a01b038116600090815260046020526040902054909150611f3357611f33612c77565b6001600160a01b0381166000908152600460205260408120805460019290611f5c908490612c8d565b9091555050600082815260056020908152604080832080546001600160a01b031990811690915560039092528083208054909216909155518391906001600160a01b038416907fddf252ad1be2c89b69c2b068fc378daa952ba7f163c4a11628f55a4df523b3ef908390a45050565b6000828152600e602090815260409091208251610a939284019061241c565b611ff48282612309565b600780546000838152600a60205260408120829055600182018355919091527fa66cc928b5edb82af9bd49922954155ab7b0942694bea4ce44661d9a8736c688015550565b6001600160a01b0382166120865760405162461bcd60e51b81526020600482015260146024820152734d696e7420746f207a65726f206164647265737360601b60448201526064016107ee565b6000818152600360205260409020546001600160a01b0316156120e25760405162461bcd60e51b8152602060048201526014602482015273151bdad95b88185b1c9958591e481b5a5b9d195960621b60448201526064016107ee565b6001600160a01b038216600090815260046020526040812080546001929061210b908490612ca4565b909155505060008181526003602052604080822080546001600160a01b0319166001600160a01b03861690811790915590518392907fddf252ad1be2c89b69c2b068fc378daa952ba7f163c4a11628f55a4df523b3ef908290a46121816000838360405180602001604052806000815250611c6d565b610c455760405162461bcd60e51b8152602060048201526012602482015271139bdd08115490cdcc8c549958d95a5d995960721b60448201526064016107ee565b600063152a902d60e11b6001600160e01b0319831614806107b957506107b982612347565b6121f183826121fb565b610a938282612309565b60008181526009602052604081205490600161221685610fea565b6122209190612c8d565b90508082146122b7576001600160a01b038416600090815260086020526040812080548390811061225357612253612bd9565b906000526020600020015490508060086000876001600160a01b03166001600160a01b03168152602001908152602001600020848154811061229757612297612bd9565b600091825260208083209091019290925591825260099052604090208290555b60008381526009602090815260408083208390556001600160a01b0387168352600890915290208054806122ed576122ed612d16565b6001900381819060005260206000200160009055905550505050565b6001600160a01b0390911660009081526008602081815260408084208054868652600984529185208290559282526001810183559183529091200155565b60006307f5828d60e41b6001600160e01b0319831614806107b957506107b9826000635b5e139f60e01b6001600160e01b0319831614806107b957506107b982600063780e9d6360e01b6001600160e01b0319831614806107b957506107b98260006380ac58cd60e01b6001600160e01b0319831614806107b957506107b98260006001600160e01b03198216630d40a0cd60e31b14806107b957506107b98260006001600160e01b03198216631fc9136f60e11b14806107b957506001600160e01b031982166301ffc9a760e01b146107b9565b82805461242890612b26565b90600052602060002090601f01602090048101928261244a5760008555612490565b82601f1061246357805160ff1916838001178555612490565b82800160010185558215612490579182015b82811115612490578251825591602001919060010190612475565b5061249c9291506124d6565b5090565b5080546124ac90612b26565b6000825580601f106124bc575050565b601f016020900490600052602060002090810190610f8e91905b5b8082111561249c57600081556001016124d7565b6001600160e01b031981168114610f8e57600080fd5b60006020828403121561251357600080fd5b81356113c2816124eb565b80356001600160a01b0381168114610ecd57600080fd5b80356001600160601b0381168114610ecd57600080fd5b6000806040838503121561255f57600080fd5b6125688361251e565b915061257660208401612535565b90509250929050565b6000815180845260005b818110156125a557602081850181015186830182015201612589565b818111156125b7576000602083870101525b50601f01601f19169290920160200192915050565b6020815260006113c2602083018461257f565b6000602082840312156125f157600080fd5b5035919050565b6000806040838503121561260b57600080fd5b6126148361251e565b946020939093013593505050565b60008060006060848603121561263757600080fd5b6126408461251e565b925061264e6020850161251e565b9150604084013590509250925092565b6000806040838503121561267157600080fd5b50508035926020909101359150565b60006020828403121561269257600080fd5b6113c28261251e565b634e487b7160e01b600052604160045260246000fd5b604051601f8201601f1916810167ffffffffffffffff811182821017156126da576126da61269b565b604052919050565b600067ffffffffffffffff8311156126fc576126fc61269b565b61270f601f8401601f19166020016126b1565b905082815283838301111561272357600080fd5b828260208301376000602084830101529392505050565b600082601f83011261274b57600080fd5b6113c2838335602085016126e2565b600067ffffffffffffffff8211156127745761277461269b565b5060051b60200190565b8015158114610f8e57600080fd5b600080600080608085870312156127a257600080fd5b843567ffffffffffffffff808211156127ba57600080fd5b6127c68883890161273a565b95506020915081870135818111156127dd57600080fd5b6127e989828a0161273a565b9550506127f86040880161251e565b935060608701358181111561280c57600080fd5b87019050601f8101881361281f57600080fd5b803561283261282d8261275a565b6126b1565b81815260059190911b8201830190838101908a83111561285157600080fd5b928401925b828410156128785783356128698161277e565b82529284019290840190612856565b979a9699509497505050505050565b60008060006060848603121561289c57600080fd5b833592506128ac6020850161251e565b91506128ba60408501612535565b90509250925092565b600060208083850312156128d657600080fd5b823567ffffffffffffffff8111156128ed57600080fd5b8301601f810185136128fe57600080fd5b803561290c61282d8261275a565b81815260059190911b8201830190838101908783111561292b57600080fd5b928401925b82841015612952578335612943816124eb565b82529284019290840190612930565b979650505050505050565b6020808252825182820181905260009190848201906040850190845b81811015612997578351151583529284019291840191600101612979565b50909695505050505050565b600080604083850312156129b657600080fd5b6129bf8361251e565b915060208301356129cf8161277e565b809150509250929050565b600080600080608085870312156129f057600080fd5b6129f98561251e565b9350612a076020860161251e565b925060408501359150606085013567ffffffffffffffff811115612a2a57600080fd5b8501601f81018713612a3b57600080fd5b612a4a878235602084016126e2565b91505092959194509250565b60008060408385031215612a6957600080fd5b612a728361251e565b9150602083013567ffffffffffffffff811115612a8e57600080fd5b612a9a8582860161273a565b9150509250929050565b600060208284031215612ab657600080fd5b813567ffffffffffffffff811115612acd57600080fd5b6118088482850161273a565b60008060408385031215612aec57600080fd5b612af58361251e565b91506125766020840161251e565b6020808252600990820152682737ba1037bbb732b960b91b604082015260600190565b600181811c90821680612b3a57607f821691505b60208210811415610f7c57634e487b7160e01b600052602260045260246000fd5b6020808252600d908201526c546f6f20657870656e7369766560981b604082015260600190565b634e487b7160e01b600052601160045260246000fd5b6000816000190483118215151615612bb257612bb2612b82565b500290565b600082612bd457634e487b7160e01b600052601260045260246000fd5b500490565b634e487b7160e01b600052603260045260246000fd5b6020808252601c908201527f4e6f7420746f6b656e206f776e6572206e6f7220617070726f76656400000000604082015260600190565b6000600019821415612c3a57612c3a612b82565b5060010190565b600060208284031215612c5357600080fd5b5051919050565b600060208284031215612c6c57600080fd5b81516113c28161277e565b634e487b7160e01b600052600160045260246000fd5b600082821015612c9f57612c9f612b82565b500390565b60008219821115612cb757612cb7612b82565b500190565b6001600160a01b0385811682528416602082015260408101839052608060608201819052600090612cef9083018461257f565b9695505050505050565b600060208284031215612d0b57600080fd5b81516113c2816124eb565b634e487b7160e01b600052603160045260246000fdfea26469706673582212207ca1fc7728ff0c4d764e38a6bcc43e0173ab3528e751e6776c29fb0e0b6fbb2a64736f6c63430008090033",
  "devdoc": {
    "kind": "dev",
    "methods": {
      "burn(uint256)": {
        "params": {
          "tokenID": "tokenID of NFT to burn"
        }
      },
      "initialize(string,string,address,bool[])": {
        "params": {
          "name_": "name of the NFT Collection",
          "options": "select minting open to everyone or only owner",
          "owner_": "owner of the NFT Collection",
          "symbol_": "symbol of the NFT Collection"
        }
      },
      "setDefaultRoyalty(address,uint96)": {
        "params": {
          "fee": ": fee Numerator, less than 10000",
          "receiver": ": address of the royalty receiver, or address(0) to reset"
        }
      },
      "setTokenRoyalty(uint256,address,uint96)": {
        "params": {
          "fee": ": fee Numerator, less than 10000",
          "receiver": ": address of the royalty receiver, or address(0) to reset",
          "tokenID": ": token ID"
        }
      },
      "supportsInterface(bytes4)": {
        "params": {
          "interfaceId": "interfaceId to test"
        }
      }
    },
    "title": "OpenNFTs smartcontract",
    "version": 1
  },
  "userdoc": {
    "kind": "user",
    "methods": {
      "burn(uint256)": {
        "notice": "burn NFT"
      },
      "initialize(string,string,address,bool[])": {
        "notice": "initialize"
      },
      "open()": {
        "notice": "Mint NFT allowed to everyone or only collection owner"
      },
      "setDefaultRoyalty(address,uint96)": {
        "notice": "SET default royalty configuration"
      },
      "setTokenRoyalty(uint256,address,uint96)": {
        "notice": "SET token royalty configuration"
      },
      "supportsInterface(bytes4)": {
        "notice": "test if this interface is supported"
      },
      "tokenIdNext()": {
        "notice": "tokenID of next minted NFT"
      }
    },
    "version": 1
  },
  "storageLayout": {
    "storage": [
      {
        "astId": 6586,
        "contract": "contracts/templates/OpenNFTsV4.sol:OpenNFTsV4",
        "label": "_once",
        "offset": 0,
        "slot": "0",
        "type": "t_bool"
      },
      {
        "astId": 6588,
        "contract": "contracts/templates/OpenNFTsV4.sol:OpenNFTsV4",
        "label": "_template",
        "offset": 0,
        "slot": "1",
        "type": "t_string_storage"
      },
      {
        "astId": 6590,
        "contract": "contracts/templates/OpenNFTsV4.sol:OpenNFTsV4",
        "label": "_version",
        "offset": 0,
        "slot": "2",
        "type": "t_uint256"
      },
      {
        "astId": 6901,
        "contract": "contracts/templates/OpenNFTsV4.sol:OpenNFTsV4",
        "label": "_owners",
        "offset": 0,
        "slot": "3",
        "type": "t_mapping(t_uint256,t_address)"
      },
      {
        "astId": 6905,
        "contract": "contracts/templates/OpenNFTsV4.sol:OpenNFTsV4",
        "label": "_balances",
        "offset": 0,
        "slot": "4",
        "type": "t_mapping(t_address,t_uint256)"
      },
      {
        "astId": 6909,
        "contract": "contracts/templates/OpenNFTsV4.sol:OpenNFTsV4",
        "label": "_tokenApprovals",
        "offset": 0,
        "slot": "5",
        "type": "t_mapping(t_uint256,t_address)"
      },
      {
        "astId": 6915,
        "contract": "contracts/templates/OpenNFTsV4.sol:OpenNFTsV4",
        "label": "_operatorApprovals",
        "offset": 0,
        "slot": "6",
        "type": "t_mapping(t_address,t_mapping(t_address,t_bool))"
      },
      {
        "astId": 7471,
        "contract": "contracts/templates/OpenNFTsV4.sol:OpenNFTsV4",
        "label": "_allTokens",
        "offset": 0,
        "slot": "7",
        "type": "t_array(t_uint256)dyn_storage"
      },
      {
        "astId": 7476,
        "contract": "contracts/templates/OpenNFTsV4.sol:OpenNFTsV4",
        "label": "_ownedTokens",
        "offset": 0,
        "slot": "8",
        "type": "t_mapping(t_address,t_array(t_uint256)dyn_storage)"
      },
      {
        "astId": 7480,
        "contract": "contracts/templates/OpenNFTsV4.sol:OpenNFTsV4",
        "label": "_ownedTokensIndex",
        "offset": 0,
        "slot": "9",
        "type": "t_mapping(t_uint256,t_uint256)"
      },
      {
        "astId": 7484,
        "contract": "contracts/templates/OpenNFTsV4.sol:OpenNFTsV4",
        "label": "_allTokensIndex",
        "offset": 0,
        "slot": "10",
        "type": "t_mapping(t_uint256,t_uint256)"
      },
      {
        "astId": 7766,
        "contract": "contracts/templates/OpenNFTsV4.sol:OpenNFTsV4",
        "label": "_openERC721MetadataInitialized",
        "offset": 0,
        "slot": "11",
        "type": "t_bool"
      },
      {
        "astId": 7768,
        "contract": "contracts/templates/OpenNFTsV4.sol:OpenNFTsV4",
        "label": "_name",
        "offset": 0,
        "slot": "12",
        "type": "t_string_storage"
      },
      {
        "astId": 7770,
        "contract": "contracts/templates/OpenNFTsV4.sol:OpenNFTsV4",
        "label": "_symbol",
        "offset": 0,
        "slot": "13",
        "type": "t_string_storage"
      },
      {
        "astId": 7774,
        "contract": "contracts/templates/OpenNFTsV4.sol:OpenNFTsV4",
        "label": "_tokenURIs",
        "offset": 0,
        "slot": "14",
        "type": "t_mapping(t_uint256,t_string_storage)"
      },
      {
        "astId": 6688,
        "contract": "contracts/templates/OpenNFTsV4.sol:OpenNFTsV4",
        "label": "_openERC173Initialized",
        "offset": 0,
        "slot": "15",
        "type": "t_bool"
      },
      {
        "astId": 6690,
        "contract": "contracts/templates/OpenNFTsV4.sol:OpenNFTsV4",
        "label": "_owner",
        "offset": 1,
        "slot": "15",
        "type": "t_address"
      },
      {
        "astId": 6802,
        "contract": "contracts/templates/OpenNFTsV4.sol:OpenNFTsV4",
        "label": "_royaltyInfo",
        "offset": 0,
        "slot": "16",
        "type": "t_struct(RoyaltyInfo)6799_storage"
      },
      {
        "astId": 6807,
        "contract": "contracts/templates/OpenNFTsV4.sol:OpenNFTsV4",
        "label": "_tokenRoyaltyInfo",
        "offset": 0,
        "slot": "17",
        "type": "t_mapping(t_uint256,t_struct(RoyaltyInfo)6799_storage)"
      },
      {
        "astId": 8182,
        "contract": "contracts/templates/OpenNFTsV4.sol:OpenNFTsV4",
        "label": "_paused",
        "offset": 0,
        "slot": "18",
        "type": "t_bool"
      },
      {
        "astId": 7936,
        "contract": "contracts/templates/OpenNFTsV4.sol:OpenNFTsV4",
        "label": "tokenPrice",
        "offset": 0,
        "slot": "19",
        "type": "t_mapping(t_uint256,t_uint256)"
      },
      {
        "astId": 7938,
        "contract": "contracts/templates/OpenNFTsV4.sol:OpenNFTsV4",
        "label": "defaultPrice",
        "offset": 0,
        "slot": "20",
        "type": "t_uint256"
      },
      {
        "astId": 18070,
        "contract": "contracts/templates/OpenNFTsV4.sol:OpenNFTsV4",
        "label": "tokenIdNext",
        "offset": 0,
        "slot": "21",
        "type": "t_uint256"
      },
      {
        "astId": 18073,
        "contract": "contracts/templates/OpenNFTsV4.sol:OpenNFTsV4",
        "label": "open",
        "offset": 0,
        "slot": "22",
        "type": "t_bool"
      }
    ],
    "types": {
      "t_address": {
        "encoding": "inplace",
        "label": "address",
        "numberOfBytes": "20"
      },
      "t_array(t_uint256)dyn_storage": {
        "base": "t_uint256",
        "encoding": "dynamic_array",
        "label": "uint256[]",
        "numberOfBytes": "32"
      },
      "t_bool": {
        "encoding": "inplace",
        "label": "bool",
        "numberOfBytes": "1"
      },
      "t_mapping(t_address,t_array(t_uint256)dyn_storage)": {
        "encoding": "mapping",
        "key": "t_address",
        "label": "mapping(address => uint256[])",
        "numberOfBytes": "32",
        "value": "t_array(t_uint256)dyn_storage"
      },
      "t_mapping(t_address,t_bool)": {
        "encoding": "mapping",
        "key": "t_address",
        "label": "mapping(address => bool)",
        "numberOfBytes": "32",
        "value": "t_bool"
      },
      "t_mapping(t_address,t_mapping(t_address,t_bool))": {
        "encoding": "mapping",
        "key": "t_address",
        "label": "mapping(address => mapping(address => bool))",
        "numberOfBytes": "32",
        "value": "t_mapping(t_address,t_bool)"
      },
      "t_mapping(t_address,t_uint256)": {
        "encoding": "mapping",
        "key": "t_address",
        "label": "mapping(address => uint256)",
        "numberOfBytes": "32",
        "value": "t_uint256"
      },
      "t_mapping(t_uint256,t_address)": {
        "encoding": "mapping",
        "key": "t_uint256",
        "label": "mapping(uint256 => address)",
        "numberOfBytes": "32",
        "value": "t_address"
      },
      "t_mapping(t_uint256,t_string_storage)": {
        "encoding": "mapping",
        "key": "t_uint256",
        "label": "mapping(uint256 => string)",
        "numberOfBytes": "32",
        "value": "t_string_storage"
      },
      "t_mapping(t_uint256,t_struct(RoyaltyInfo)6799_storage)": {
        "encoding": "mapping",
        "key": "t_uint256",
        "label": "mapping(uint256 => struct OpenERC2981.RoyaltyInfo)",
        "numberOfBytes": "32",
        "value": "t_struct(RoyaltyInfo)6799_storage"
      },
      "t_mapping(t_uint256,t_uint256)": {
        "encoding": "mapping",
        "key": "t_uint256",
        "label": "mapping(uint256 => uint256)",
        "numberOfBytes": "32",
        "value": "t_uint256"
      },
      "t_string_storage": {
        "encoding": "bytes",
        "label": "string",
        "numberOfBytes": "32"
      },
      "t_struct(RoyaltyInfo)6799_storage": {
        "encoding": "inplace",
        "label": "struct OpenERC2981.RoyaltyInfo",
        "members": [
          {
            "astId": 6796,
            "contract": "contracts/templates/OpenNFTsV4.sol:OpenNFTsV4",
            "label": "receiver",
            "offset": 0,
            "slot": "0",
            "type": "t_address"
          },
          {
            "astId": 6798,
            "contract": "contracts/templates/OpenNFTsV4.sol:OpenNFTsV4",
            "label": "fraction",
            "offset": 20,
            "slot": "0",
            "type": "t_uint96"
          }
        ],
        "numberOfBytes": "32"
      },
      "t_uint256": {
        "encoding": "inplace",
        "label": "uint256",
        "numberOfBytes": "32"
      },
      "t_uint96": {
        "encoding": "inplace",
        "label": "uint96",
        "numberOfBytes": "12"
      }
    }
  }
}