{
  "address": "0x5Cf67C52eD5608B9841238bCc2bDe012263b7111",
  "abi": [
    {
      "anonymous": false,
      "inputs": [
        {
          "indexed": true,
          "internalType": "address",
          "name": "owner",
          "type": "address"
        },
        {
          "indexed": true,
          "internalType": "address",
          "name": "approved",
          "type": "address"
        },
        {
          "indexed": true,
          "internalType": "uint256",
          "name": "tokenId",
          "type": "uint256"
        }
      ],
      "name": "Approval",
      "type": "event"
    },
    {
      "anonymous": false,
      "inputs": [
        {
          "indexed": true,
          "internalType": "address",
          "name": "owner",
          "type": "address"
        },
        {
          "indexed": true,
          "internalType": "address",
          "name": "operator",
          "type": "address"
        },
        {
          "indexed": false,
          "internalType": "bool",
          "name": "approved",
          "type": "bool"
        }
      ],
      "name": "ApprovalForAll",
      "type": "event"
    },
    {
      "anonymous": false,
      "inputs": [
        {
          "indexed": true,
          "internalType": "address",
          "name": "previousOwner",
          "type": "address"
        },
        {
          "indexed": true,
          "internalType": "address",
          "name": "newOwner",
          "type": "address"
        }
      ],
      "name": "OwnershipTransferred",
      "type": "event"
    },
    {
      "anonymous": false,
      "inputs": [
        {
          "indexed": true,
          "internalType": "address",
          "name": "from",
          "type": "address"
        },
        {
          "indexed": true,
          "internalType": "address",
          "name": "to",
          "type": "address"
        },
        {
          "indexed": true,
          "internalType": "uint256",
          "name": "tokenId",
          "type": "uint256"
        }
      ],
      "name": "Transfer",
      "type": "event"
    },
    {
      "inputs": [
        {
          "internalType": "address",
          "name": "spender",
          "type": "address"
        },
        {
          "internalType": "uint256",
          "name": "tokenID",
          "type": "uint256"
        }
      ],
      "name": "approve",
      "outputs": [],
      "stateMutability": "nonpayable",
      "type": "function"
    },
    {
      "inputs": [
        {
          "internalType": "address",
          "name": "owner",
          "type": "address"
        }
      ],
      "name": "balanceOf",
      "outputs": [
        {
          "internalType": "uint256",
          "name": "",
          "type": "uint256"
        }
      ],
      "stateMutability": "view",
      "type": "function"
    },
    {
      "inputs": [
        {
          "internalType": "uint256",
          "name": "tokenID",
          "type": "uint256"
        }
      ],
      "name": "burn",
      "outputs": [],
      "stateMutability": "nonpayable",
      "type": "function"
    },
    {
      "inputs": [
        {
          "internalType": "uint256",
          "name": "tokenID",
          "type": "uint256"
        }
      ],
      "name": "getApproved",
      "outputs": [
        {
          "internalType": "address",
          "name": "",
          "type": "address"
        }
      ],
      "stateMutability": "view",
      "type": "function"
    },
    {
      "inputs": [
        {
          "internalType": "string",
          "name": "name_",
          "type": "string"
        },
        {
          "internalType": "string",
          "name": "symbol_",
          "type": "string"
        },
        {
          "internalType": "address",
          "name": "owner_",
          "type": "address"
        },
        {
          "internalType": "bool[]",
          "name": "options",
          "type": "bool[]"
        }
      ],
      "name": "initialize",
      "outputs": [],
      "stateMutability": "nonpayable",
      "type": "function"
    },
    {
      "inputs": [],
      "name": "initialized",
      "outputs": [
        {
          "internalType": "bool",
          "name": "",
          "type": "bool"
        }
      ],
      "stateMutability": "view",
      "type": "function"
    },
    {
      "inputs": [
        {
          "internalType": "address",
          "name": "owner",
          "type": "address"
        },
        {
          "internalType": "address",
          "name": "operator",
          "type": "address"
        }
      ],
      "name": "isApprovedForAll",
      "outputs": [
        {
          "internalType": "bool",
          "name": "",
          "type": "bool"
        }
      ],
      "stateMutability": "view",
      "type": "function"
    },
    {
      "inputs": [
        {
          "internalType": "address",
          "name": "minter",
          "type": "address"
        },
        {
          "internalType": "string",
          "name": "tokenURI_",
          "type": "string"
        }
      ],
      "name": "mint",
      "outputs": [
        {
          "internalType": "uint256",
          "name": "tokenID",
          "type": "uint256"
        }
      ],
      "stateMutability": "nonpayable",
      "type": "function"
    },
    {
      "inputs": [
        {
          "internalType": "string",
          "name": "tokenURI_",
          "type": "string"
        }
      ],
      "name": "mint",
      "outputs": [
        {
          "internalType": "uint256",
          "name": "tokenID",
          "type": "uint256"
        }
      ],
      "stateMutability": "nonpayable",
      "type": "function"
    },
    {
      "inputs": [],
      "name": "name",
      "outputs": [
        {
          "internalType": "string",
          "name": "",
          "type": "string"
        }
      ],
      "stateMutability": "view",
      "type": "function"
    },
    {
      "inputs": [],
      "name": "open",
      "outputs": [
        {
          "internalType": "bool",
          "name": "",
          "type": "bool"
        }
      ],
      "stateMutability": "view",
      "type": "function"
    },
    {
      "inputs": [],
      "name": "owner",
      "outputs": [
        {
          "internalType": "address",
          "name": "",
          "type": "address"
        }
      ],
      "stateMutability": "view",
      "type": "function"
    },
    {
      "inputs": [
        {
          "internalType": "uint256",
          "name": "tokenID",
          "type": "uint256"
        }
      ],
      "name": "ownerOf",
      "outputs": [
        {
          "internalType": "address",
          "name": "",
          "type": "address"
        }
      ],
      "stateMutability": "view",
      "type": "function"
    },
    {
      "inputs": [],
      "name": "parent",
      "outputs": [
        {
          "internalType": "address",
          "name": "parent_",
          "type": "address"
        }
      ],
      "stateMutability": "view",
      "type": "function"
    },
    {
      "inputs": [
        {
          "internalType": "address",
          "name": "from",
          "type": "address"
        },
        {
          "internalType": "address",
          "name": "to",
          "type": "address"
        },
        {
          "internalType": "uint256",
          "name": "tokenID",
          "type": "uint256"
        }
      ],
      "name": "safeTransferFrom",
      "outputs": [],
      "stateMutability": "payable",
      "type": "function"
    },
    {
      "inputs": [
        {
          "internalType": "address",
          "name": "from",
          "type": "address"
        },
        {
          "internalType": "address",
          "name": "to",
          "type": "address"
        },
        {
          "internalType": "uint256",
          "name": "tokenID",
          "type": "uint256"
        },
        {
          "internalType": "bytes",
          "name": "data",
          "type": "bytes"
        }
      ],
      "name": "safeTransferFrom",
      "outputs": [],
      "stateMutability": "payable",
      "type": "function"
    },
    {
      "inputs": [
        {
          "internalType": "address",
          "name": "operator",
          "type": "address"
        },
        {
          "internalType": "bool",
          "name": "approved",
          "type": "bool"
        }
      ],
      "name": "setApprovalForAll",
      "outputs": [],
      "stateMutability": "nonpayable",
      "type": "function"
    },
    {
      "inputs": [
        {
          "internalType": "bytes4",
          "name": "interfaceId",
          "type": "bytes4"
        }
      ],
      "name": "supportsInterface",
      "outputs": [
        {
          "internalType": "bool",
          "name": "",
          "type": "bool"
        }
      ],
      "stateMutability": "view",
      "type": "function"
    },
    {
      "inputs": [],
      "name": "symbol",
      "outputs": [
        {
          "internalType": "string",
          "name": "",
          "type": "string"
        }
      ],
      "stateMutability": "view",
      "type": "function"
    },
    {
      "inputs": [],
      "name": "template",
      "outputs": [
        {
          "internalType": "string",
          "name": "",
          "type": "string"
        }
      ],
      "stateMutability": "view",
      "type": "function"
    },
    {
      "inputs": [
        {
          "internalType": "uint256",
          "name": "index",
          "type": "uint256"
        }
      ],
      "name": "tokenByIndex",
      "outputs": [
        {
          "internalType": "uint256",
          "name": "",
          "type": "uint256"
        }
      ],
      "stateMutability": "view",
      "type": "function"
    },
    {
      "inputs": [],
      "name": "tokenIdNext",
      "outputs": [
        {
          "internalType": "uint256",
          "name": "",
          "type": "uint256"
        }
      ],
      "stateMutability": "view",
      "type": "function"
    },
    {
      "inputs": [
        {
          "internalType": "address",
          "name": "owner",
          "type": "address"
        },
        {
          "internalType": "uint256",
          "name": "index",
          "type": "uint256"
        }
      ],
      "name": "tokenOfOwnerByIndex",
      "outputs": [
        {
          "internalType": "uint256",
          "name": "",
          "type": "uint256"
        }
      ],
      "stateMutability": "view",
      "type": "function"
    },
    {
      "inputs": [
        {
          "internalType": "uint256",
          "name": "tokenID",
          "type": "uint256"
        }
      ],
      "name": "tokenURI",
      "outputs": [
        {
          "internalType": "string",
          "name": "",
          "type": "string"
        }
      ],
      "stateMutability": "view",
      "type": "function"
    },
    {
      "inputs": [],
      "name": "totalSupply",
      "outputs": [
        {
          "internalType": "uint256",
          "name": "",
          "type": "uint256"
        }
      ],
      "stateMutability": "view",
      "type": "function"
    },
    {
      "inputs": [
        {
          "internalType": "address",
          "name": "from",
          "type": "address"
        },
        {
          "internalType": "address",
          "name": "to",
          "type": "address"
        },
        {
          "internalType": "uint256",
          "name": "tokenID",
          "type": "uint256"
        }
      ],
      "name": "transferFrom",
      "outputs": [],
      "stateMutability": "payable",
      "type": "function"
    },
    {
      "inputs": [
        {
          "internalType": "address",
          "name": "newOwner",
          "type": "address"
        }
      ],
      "name": "transferOwnership",
      "outputs": [],
      "stateMutability": "nonpayable",
      "type": "function"
    },
    {
      "inputs": [],
      "name": "version",
      "outputs": [
        {
          "internalType": "uint256",
          "name": "",
          "type": "uint256"
        }
      ],
      "stateMutability": "view",
      "type": "function"
    }
  ],
  "transactionHash": "0x4d6be4e6d8de1ac37ce50a9f102cddba0684fc5743da565dc331d6bf4b928a69",
  "args": [],
  "numDeployments": 1,
  "solcInputHash": "e87b8f7ec7038486538b2da4556f4309",
  "bytecode": "0x608060405234801561001057600080fd5b50611f95806100206000396000f3fe6080604052600436106101b75760003560e01c80636352211e116100ec578063b88d4fde1161008a578063d85d3d2711610064578063d85d3d2714610494578063e985e9c5146104b4578063f2fde38b146104fd578063fcfff16f1461051d57600080fd5b8063b88d4fde14610441578063c87b56dd14610454578063d0def5211461047457600080fd5b80638bbf58b3116100c65780638bbf58b3146103d35780638da5cb5b146103e957806395d89b411461040c578063a22cb4651461042157600080fd5b80636352211e1461037e5780636f2ddd931461039e57806370a08231146103b357600080fd5b80632f745c59116101595780634f6ccce7116101335780634f6ccce71461031357806354e10b481461033357806354fd4d501461035357806360f96a8f1461036957600080fd5b80632f745c59146102c057806342842e0e146102e057806342966c68146102f357600080fd5b8063095ea7b311610195578063095ea7b31461024b578063158ef93e1461026d57806318160ddd1461028e57806323b872dd146102ad57600080fd5b806301ffc9a7146101bc57806306fdde03146101f1578063081812fc14610213575b600080fd5b3480156101c857600080fd5b506101dc6101d7366004611952565b610537565b60405190151581526020015b60405180910390f35b3480156101fd57600080fd5b50610206610562565b6040516101e891906119bc565b34801561021f57600080fd5b5061023361022e3660046119cf565b6105f4565b6040516001600160a01b0390911681526020016101e8565b34801561025757600080fd5b5061026b610266366004611a04565b610654565b005b34801561027957600080fd5b50600c546101dc90600160a81b900460ff1681565b34801561029a57600080fd5b506008545b6040519081526020016101e8565b61026b6102bb366004611a2e565b610718565b3480156102cc57600080fd5b5061029f6102db366004611a04565b610728565b61026b6102ee366004611a2e565b6107af565b3480156102ff57600080fd5b5061026b61030e3660046119cf565b6107ca565b34801561031f57600080fd5b5061029f61032e3660046119cf565b61082e565b34801561033f57600080fd5b5061026b61034e366004611b39565b610898565b34801561035f57600080fd5b5061029f600e5481565b34801561037557600080fd5b50610233610916565b34801561038a57600080fd5b506102336103993660046119cf565b61095f565b3480156103aa57600080fd5b506102066109b2565b3480156103bf57600080fd5b5061029f6103ce366004611c3c565b610a40565b3480156103df57600080fd5b5061029f600f5481565b3480156103f557600080fd5b50600c5461010090046001600160a01b0316610233565b34801561041857600080fd5b50610206610aab565b34801561042d57600080fd5b5061026b61043c366004611c57565b610aba565b61026b61044f366004611c8a565b610b26565b34801561046057600080fd5b5061020661046f3660046119cf565b610b38565b34801561048057600080fd5b5061029f61048f366004611d06565b610c10565b3480156104a057600080fd5b5061029f6104af366004611d54565b610c6f565b3480156104c057600080fd5b506101dc6104cf366004611d89565b6001600160a01b03918216600090815260036020908152604080832093909416825291909152205460ff1690565b34801561050957600080fd5b5061026b610518366004611c3c565b610c7b565b34801561052957600080fd5b506010546101dc9060ff1681565b60006001600160e01b0319821663e20b5e4960e01b148061055c575061055c82610cd2565b92915050565b60606005805461057190611db3565b80601f016020809104026020016040519081016040528092919081815260200182805461059d90611db3565b80156105ea5780601f106105bf576101008083540402835291602001916105ea565b820191906000526020600020905b8154815290600101906020018083116105cd57829003601f168201915b5050505050905090565b60008181526020819052604081205482906001600160a01b03166106335760405162461bcd60e51b815260040161062a90611de8565b60405180910390fd5b6000838152600260205260409020546001600160a01b031691505b50919050565b61065e3382610cf7565b6106aa5760405162461bcd60e51b815260206004820152601c60248201527f4e6f7420746f6b656e206f776e6572206e6f72206f70657261746f7200000000604482015260640161062a565b600081815260026020526040902080546001600160a01b0319166001600160a01b03841690811790915581906106df8261095f565b6001600160a01b03167f8c5be1e5ebec7d5bd14f71427d1e84f3dd0314c0f7b2291e5b200ac8c7c3b92560405160405180910390a45050565b610723838383610d52565b505050565b600061073383610a40565b82106107725760405162461bcd60e51b815260206004820152600e60248201526d496e76616c696420696e6465782160901b604482015260640161062a565b6001600160a01b038316600090815260096020526040902080548390811061079c5761079c611e12565b9060005260206000200154905092915050565b61072383838360405180602001604052806000815250610fb8565b806107d53382611010565b6108215760405162461bcd60e51b815260206004820152601c60248201527f4e6f7420746f6b656e206f776e6572206e6f7220617070726f76656400000000604482015260640161062a565b61082a82611046565b5050565b60085460009082106108735760405162461bcd60e51b815260206004820152600e60248201526d496e76616c696420696e6465782160901b604482015260640161062a565b6008828154811061088657610886611e12565b90600052602060002001549050919050565b6001600f5560408051808201909152600a81526913dc195b9391951cd58d60b21b60208201526108c990600461104f565b6108d384846110a6565b6108dc826110fd565b806000815181106108ef576108ef611e12565b6020026020010151601060006101000a81548160ff02191690831515021790555050505050565b6000602d303b146109275750600090565b6010306001600160a01b0316803b806020016040519081016040528181526000908060200190933c61095890611e28565b901c905090565b60008181526020819052604081205482906001600160a01b03166109955760405162461bcd60e51b815260040161062a90611de8565b50506000908152602081905260409020546001600160a01b031690565b600d80546109bf90611db3565b80601f01602080910402602001604051908101604052809291908181526020018280546109eb90611db3565b8015610a385780601f10610a0d57610100808354040283529160200191610a38565b820191906000526020600020905b815481529060010190602001808311610a1b57829003601f168201915b505050505081565b60006001600160a01b038216610a8f5760405162461bcd60e51b8152602060048201526014602482015273496e76616c6964207a65726f206164647265737360601b604482015260640161062a565b506001600160a01b031660009081526001602052604090205490565b60606006805461057190611db3565b3360008181526003602090815260408083206001600160a01b03871680855290835292819020805460ff191686151590811790915590519081529192917f17307eab39ab6107e8899845ad3d59bd9653f200f220920489ca2b5937696c31910160405180910390a35050565b610b3284848484610fb8565b50505050565b60008181526020819052604090205460609082906001600160a01b0316610b715760405162461bcd60e51b815260040161062a90611de8565b60008381526007602052604090208054610b8a90611db3565b80601f0160208091040260200160405190810160405280929190818152602001828054610bb690611db3565b8015610c035780601f10610bd857610100808354040283529160200191610c03565b820191906000526020600020905b815481529060010190602001808311610be657829003601f168201915b5050505050915050919050565b600c5460009061010090046001600160a01b03163314610c5e5760405162461bcd60e51b81526020600482015260096024820152682737ba1037bbb732b960b91b604482015260640161062a565b610c688383611136565b9392505050565b600061055c3383611136565b600c5461010090046001600160a01b03163314610cc65760405162461bcd60e51b81526020600482015260096024820152682737ba1037bbb732b960b91b604482015260640161062a565b610ccf81611158565b50565b60006001600160e01b0319821663275381b960e11b148061055c575061055c826111b2565b600080610d038361095f565b9050836001600160a01b0316816001600160a01b03161480610d4a57506001600160a01b0380821660009081526003602090815260408083209388168352929052205460ff165b949350505050565b80610d5d3382611010565b610da95760405162461bcd60e51b815260206004820152601c60248201527f4e6f7420746f6b656e206f776e6572206e6f7220617070726f76656400000000604482015260640161062a565b6001600160a01b038416610dff5760405162461bcd60e51b815260206004820152601a60248201527f5472616e736665722066726f6d207a65726f2061646472657373000000000000604482015260640161062a565b6001600160a01b038316610e555760405162461bcd60e51b815260206004820152601860248201527f5472616e7366657220746f207a65726f20616464726573730000000000000000604482015260640161062a565b610e5e8261095f565b6001600160a01b0316846001600160a01b031614610eaf5760405162461bcd60e51b815260206004820152600e60248201526d233937b6903737ba1037bbb732b960911b604482015260640161062a565b610eba8484846111d7565b600082815260026020526040902080546001600160a01b03191690556001600160a01b0384811690841614610f71576001600160a01b03841660009081526001602081905260408220805491929091610f14908490611e62565b90915550506001600160a01b03831660009081526001602081905260408220805491929091610f44908490611e79565b9091555050600082815260208190526040902080546001600160a01b0319166001600160a01b0385161790555b81836001600160a01b0316856001600160a01b03167fddf252ad1be2c89b69c2b068fc378daa952ba7f163c4a11628f55a4df523b3ef60405160405180910390a450505050565b610fc3848484610d52565b610fcf848484846111e2565b610b325760405162461bcd60e51b81526020600482015260126024820152712737ba1022a9219b9918a932b1b2b4bb32b960711b604482015260640161062a565b600061101c8383610cf7565b80610c685750826001600160a01b0316611035836105f4565b6001600160a01b0316149392505050565b610ccf81611291565b600c54600160a81b900460ff16156110795760405162461bcd60e51b815260040161062a90611e91565b600c805460ff60a81b1916600160a81b179055815161109f90600d90602085019061186d565b50600e5550565b60045460ff16156110c95760405162461bcd60e51b815260040161062a90611e91565b6004805460ff1916600117905581516110e990600590602085019061186d565b50805161072390600690602084019061186d565b600c5460ff16156111205760405162461bcd60e51b815260040161062a90611e91565b600c805460ff19166001179055610ccf81611158565b600f80546000918261114783611ebe565b91905055905061055c838383611363565b600c80546001600160a01b03838116610100818102610100600160a81b031985161790945560405193909204169182907f8be0079c531659141344cd1fd0a4f28419497f9722a3daafe3b4186f6b6457e090600090a35050565b60006307f5828d60e41b6001600160e01b03198316148061055c575061055c8261136e565b610723838383611393565b60006001600160a01b0384163b15806112885750604051630a85bd0160e11b808252906001600160a01b0386169063150b7a029061122a9033908a9089908990600401611ed9565b602060405180830381600087803b15801561124457600080fd5b505af1158015611258573d6000803e3d6000fd5b505050506040513d601f19601f8201168201806040525081019061127c9190611f16565b6001600160e01b031916145b95945050505050565b600061129c8261095f565b90506112a881836113a7565b6000828152600b60205260408120546008549091906112c990600190611e62565b90506000600882815481106112e0576112e0611e12565b6000918252602080832090910154808352600b90915260408083208690558783528220919091556008805491925082918590811061132057611320611e12565b600091825260209091200155600880548061133d5761133d611f33565b6001900381819060005260206000200160009055905561135c856114b5565b5050505050565b6107238383836114d5565b600063780e9d6360e01b6001600160e01b03198316148061055c575061055c8261152e565b61139d83826113a7565b6107238282611553565b6000818152600a60205260408120549060016113c285610a40565b6113cc9190611e62565b9050808214611463576001600160a01b03841660009081526009602052604081208054839081106113ff576113ff611e12565b906000526020600020015490508060096000876001600160a01b03166001600160a01b03168152602001908152602001600020848154811061144357611443611e12565b6000918252602080832090910192909255918252600a9052604090208290555b6000838152600a602090815260408083208390556001600160a01b03871683526009909152902080548061149957611499611f33565b6001900381819060005260206000200160009055905550505050565b60008181526007602052604081206114cc916118f1565b610ccf81611591565b6114df8382611553565b600880546000838152600b60205260408120829055600182018355919091527ff3f7a9fe364faab93b216da50a3214154f22a0a2b415b23a84c8169e8b636ee301819055610723838383611682565b6000635b5e139f60e01b6001600160e01b03198316148061055c575061055c826116ad565b6001600160a01b0390911660009081526009602081815260408084208054868652600a84529185208290559282526001810183559183529091200155565b600061159c8261095f565b90506001600160a01b0381166115c45760405162461bcd60e51b815260040161062a90611de8565b6001600160a01b0381166000908152600160205260409020546115e9576115e9611f49565b6001600160a01b03811660009081526001602081905260408220805491929091611614908490611e62565b9091555050600082815260026020908152604080832080546001600160a01b0319908116909155918390528083208054909216909155518391906001600160a01b038416907fddf252ad1be2c89b69c2b068fc378daa952ba7f163c4a11628f55a4df523b3ef908390a45050565b600081815260076020908152604090912083516116a19285019061186d565b506107238383836116e2565b60006380ac58cd60e01b6001600160e01b03198316148061055c57506001600160e01b031982166301ffc9a760e01b1461055c565b6001600160a01b03831661172f5760405162461bcd60e51b81526020600482015260146024820152734d696e7420746f207a65726f206164647265737360601b604482015260640161062a565b6000818152602081905260409020546001600160a01b03161561178b5760405162461bcd60e51b8152602060048201526014602482015273151bdad95b88185b1c9958591e481b5a5b9d195960621b604482015260640161062a565b6001600160a01b038316600090815260016020819052604082208054919290916117b6908490611e79565b909155505060008181526020819052604080822080546001600160a01b0319166001600160a01b03871690811790915590518392907fddf252ad1be2c89b69c2b068fc378daa952ba7f163c4a11628f55a4df523b3ef908290a461182c60008483604051806020016040528060008152506111e2565b6107235760405162461bcd60e51b8152602060048201526012602482015271139bdd08115490cdcc8c549958d95a5d995960721b604482015260640161062a565b82805461187990611db3565b90600052602060002090601f01602090048101928261189b57600085556118e1565b82601f106118b457805160ff19168380011785556118e1565b828001600101855582156118e1579182015b828111156118e15782518255916020019190600101906118c6565b506118ed929150611927565b5090565b5080546118fd90611db3565b6000825580601f1061190d575050565b601f016020900490600052602060002090810190610ccf91905b5b808211156118ed5760008155600101611928565b6001600160e01b031981168114610ccf57600080fd5b60006020828403121561196457600080fd5b8135610c688161193c565b6000815180845260005b8181101561199557602081850181015186830182015201611979565b818111156119a7576000602083870101525b50601f01601f19169290920160200192915050565b602081526000610c68602083018461196f565b6000602082840312156119e157600080fd5b5035919050565b80356001600160a01b03811681146119ff57600080fd5b919050565b60008060408385031215611a1757600080fd5b611a20836119e8565b946020939093013593505050565b600080600060608486031215611a4357600080fd5b611a4c846119e8565b9250611a5a602085016119e8565b9150604084013590509250925092565b634e487b7160e01b600052604160045260246000fd5b604051601f8201601f1916810167ffffffffffffffff81118282101715611aa957611aa9611a6a565b604052919050565b600067ffffffffffffffff831115611acb57611acb611a6a565b611ade601f8401601f1916602001611a80565b9050828152838383011115611af257600080fd5b828260208301376000602084830101529392505050565b600082601f830112611b1a57600080fd5b610c6883833560208501611ab1565b803580151581146119ff57600080fd5b60008060008060808587031215611b4f57600080fd5b843567ffffffffffffffff80821115611b6757600080fd5b611b7388838901611b09565b9550602091508187013581811115611b8a57600080fd5b611b9689828a01611b09565b955050611ba5604088016119e8565b9350606087013581811115611bb957600080fd5b8701601f81018913611bca57600080fd5b803582811115611bdc57611bdc611a6a565b8060051b9250611bed848401611a80565b818152928201840192848101908b851115611c0757600080fd5b928501925b84841015611c2c57611c1d84611b29565b82529285019290850190611c0c565b989b979a50959850505050505050565b600060208284031215611c4e57600080fd5b610c68826119e8565b60008060408385031215611c6a57600080fd5b611c73836119e8565b9150611c8160208401611b29565b90509250929050565b60008060008060808587031215611ca057600080fd5b611ca9856119e8565b9350611cb7602086016119e8565b925060408501359150606085013567ffffffffffffffff811115611cda57600080fd5b8501601f81018713611ceb57600080fd5b611cfa87823560208401611ab1565b91505092959194509250565b60008060408385031215611d1957600080fd5b611d22836119e8565b9150602083013567ffffffffffffffff811115611d3e57600080fd5b611d4a85828601611b09565b9150509250929050565b600060208284031215611d6657600080fd5b813567ffffffffffffffff811115611d7d57600080fd5b610d4a84828501611b09565b60008060408385031215611d9c57600080fd5b611da5836119e8565b9150611c81602084016119e8565b600181811c90821680611dc757607f821691505b6020821081141561064e57634e487b7160e01b600052602260045260246000fd5b60208082526010908201526f125b9d985b1a59081d1bdad95b88125160821b604082015260600190565b634e487b7160e01b600052603260045260246000fd5b8051602080830151919081101561064e5760001960209190910360031b1b16919050565b634e487b7160e01b600052601160045260246000fd5b600082821015611e7457611e74611e4c565b500390565b60008219821115611e8c57611e8c611e4c565b500190565b602080825260139082015272105b1c9958591e481a5b9a5d1a585b1a5e9959606a1b604082015260600190565b6000600019821415611ed257611ed2611e4c565b5060010190565b6001600160a01b0385811682528416602082015260408101839052608060608201819052600090611f0c9083018461196f565b9695505050505050565b600060208284031215611f2857600080fd5b8151610c688161193c565b634e487b7160e01b600052603160045260246000fd5b634e487b7160e01b600052600160045260246000fdfea2646970667358221220d2eb57badd0c31a52c9e9fdda91ca72c144b4d472c133497f587e721bf9059a364736f6c63430008090033",
  "devdoc": {
    "kind": "dev",
    "methods": {
      "burn(uint256)": {
        "params": {
          "tokenID": "tokenID of NFT to burn"
        }
      }
    },
    "title": "OpenNFTs smartcontract",
    "version": 1
  },
  "userdoc": {
    "kind": "user",
    "methods": {
      "burn(uint256)": {
        "notice": "burn NFT"
      },
      "open()": {
        "notice": "Mint NFT allowed to everyone or only collection owner"
      },
      "tokenIdNext()": {
        "notice": "tokenID of next minted NFT"
      }
    },
    "version": 1
  },
  "storageLayout": {
    "storage": [
      {
        "astId": 5240,
        "contract": "contracts/next/OpenNFTsV4.sol:OpenNFTsV4",
        "label": "_owners",
        "offset": 0,
        "slot": "0",
        "type": "t_mapping(t_uint256,t_address)"
      },
      {
        "astId": 5244,
        "contract": "contracts/next/OpenNFTsV4.sol:OpenNFTsV4",
        "label": "_balances",
        "offset": 0,
        "slot": "1",
        "type": "t_mapping(t_address,t_uint256)"
      },
      {
        "astId": 5248,
        "contract": "contracts/next/OpenNFTsV4.sol:OpenNFTsV4",
        "label": "_tokenApprovals",
        "offset": 0,
        "slot": "2",
        "type": "t_mapping(t_uint256,t_address)"
      },
      {
        "astId": 5254,
        "contract": "contracts/next/OpenNFTsV4.sol:OpenNFTsV4",
        "label": "_operatorApprovals",
        "offset": 0,
        "slot": "3",
        "type": "t_mapping(t_address,t_mapping(t_address,t_bool))"
      },
      {
        "astId": 6163,
        "contract": "contracts/next/OpenNFTsV4.sol:OpenNFTsV4",
        "label": "_openERC721MetadataInitialized",
        "offset": 0,
        "slot": "4",
        "type": "t_bool"
      },
      {
        "astId": 6165,
        "contract": "contracts/next/OpenNFTsV4.sol:OpenNFTsV4",
        "label": "_name",
        "offset": 0,
        "slot": "5",
        "type": "t_string_storage"
      },
      {
        "astId": 6167,
        "contract": "contracts/next/OpenNFTsV4.sol:OpenNFTsV4",
        "label": "_symbol",
        "offset": 0,
        "slot": "6",
        "type": "t_string_storage"
      },
      {
        "astId": 6171,
        "contract": "contracts/next/OpenNFTsV4.sol:OpenNFTsV4",
        "label": "_tokenURIs",
        "offset": 0,
        "slot": "7",
        "type": "t_mapping(t_uint256,t_string_storage)"
      },
      {
        "astId": 5840,
        "contract": "contracts/next/OpenNFTsV4.sol:OpenNFTsV4",
        "label": "_allTokens",
        "offset": 0,
        "slot": "8",
        "type": "t_array(t_uint256)dyn_storage"
      },
      {
        "astId": 5845,
        "contract": "contracts/next/OpenNFTsV4.sol:OpenNFTsV4",
        "label": "_ownedTokens",
        "offset": 0,
        "slot": "9",
        "type": "t_mapping(t_address,t_array(t_uint256)dyn_storage)"
      },
      {
        "astId": 5849,
        "contract": "contracts/next/OpenNFTsV4.sol:OpenNFTsV4",
        "label": "_ownedTokensIndex",
        "offset": 0,
        "slot": "10",
        "type": "t_mapping(t_uint256,t_uint256)"
      },
      {
        "astId": 5853,
        "contract": "contracts/next/OpenNFTsV4.sol:OpenNFTsV4",
        "label": "_allTokensIndex",
        "offset": 0,
        "slot": "11",
        "type": "t_mapping(t_uint256,t_uint256)"
      },
      {
        "astId": 5005,
        "contract": "contracts/next/OpenNFTsV4.sol:OpenNFTsV4",
        "label": "_openERC173Initialized",
        "offset": 0,
        "slot": "12",
        "type": "t_bool"
      },
      {
        "astId": 5007,
        "contract": "contracts/next/OpenNFTsV4.sol:OpenNFTsV4",
        "label": "_owner",
        "offset": 1,
        "slot": "12",
        "type": "t_address"
      },
      {
        "astId": 6339,
        "contract": "contracts/next/OpenNFTsV4.sol:OpenNFTsV4",
        "label": "initialized",
        "offset": 21,
        "slot": "12",
        "type": "t_bool"
      },
      {
        "astId": 6341,
        "contract": "contracts/next/OpenNFTsV4.sol:OpenNFTsV4",
        "label": "template",
        "offset": 0,
        "slot": "13",
        "type": "t_string_storage"
      },
      {
        "astId": 6343,
        "contract": "contracts/next/OpenNFTsV4.sol:OpenNFTsV4",
        "label": "version",
        "offset": 0,
        "slot": "14",
        "type": "t_uint256"
      },
      {
        "astId": 20629,
        "contract": "contracts/next/OpenNFTsV4.sol:OpenNFTsV4",
        "label": "tokenIdNext",
        "offset": 0,
        "slot": "15",
        "type": "t_uint256"
      },
      {
        "astId": 20632,
        "contract": "contracts/next/OpenNFTsV4.sol:OpenNFTsV4",
        "label": "open",
        "offset": 0,
        "slot": "16",
        "type": "t_bool"
      }
    ],
    "types": {
      "t_address": {
        "encoding": "inplace",
        "label": "address",
        "numberOfBytes": "20"
      },
      "t_array(t_uint256)dyn_storage": {
        "base": "t_uint256",
        "encoding": "dynamic_array",
        "label": "uint256[]",
        "numberOfBytes": "32"
      },
      "t_bool": {
        "encoding": "inplace",
        "label": "bool",
        "numberOfBytes": "1"
      },
      "t_mapping(t_address,t_array(t_uint256)dyn_storage)": {
        "encoding": "mapping",
        "key": "t_address",
        "label": "mapping(address => uint256[])",
        "numberOfBytes": "32",
        "value": "t_array(t_uint256)dyn_storage"
      },
      "t_mapping(t_address,t_bool)": {
        "encoding": "mapping",
        "key": "t_address",
        "label": "mapping(address => bool)",
        "numberOfBytes": "32",
        "value": "t_bool"
      },
      "t_mapping(t_address,t_mapping(t_address,t_bool))": {
        "encoding": "mapping",
        "key": "t_address",
        "label": "mapping(address => mapping(address => bool))",
        "numberOfBytes": "32",
        "value": "t_mapping(t_address,t_bool)"
      },
      "t_mapping(t_address,t_uint256)": {
        "encoding": "mapping",
        "key": "t_address",
        "label": "mapping(address => uint256)",
        "numberOfBytes": "32",
        "value": "t_uint256"
      },
      "t_mapping(t_uint256,t_address)": {
        "encoding": "mapping",
        "key": "t_uint256",
        "label": "mapping(uint256 => address)",
        "numberOfBytes": "32",
        "value": "t_address"
      },
      "t_mapping(t_uint256,t_string_storage)": {
        "encoding": "mapping",
        "key": "t_uint256",
        "label": "mapping(uint256 => string)",
        "numberOfBytes": "32",
        "value": "t_string_storage"
      },
      "t_mapping(t_uint256,t_uint256)": {
        "encoding": "mapping",
        "key": "t_uint256",
        "label": "mapping(uint256 => uint256)",
        "numberOfBytes": "32",
        "value": "t_uint256"
      },
      "t_string_storage": {
        "encoding": "bytes",
        "label": "string",
        "numberOfBytes": "32"
      },
      "t_uint256": {
        "encoding": "inplace",
        "label": "uint256",
        "numberOfBytes": "32"
      }
    }
  }
}