{
  "address": "0xbb11b96D2Cd1B52F677cf9cf30b3Cea4B5040533",
  "abi": [
    {
      "anonymous": false,
      "inputs": [
        {
          "indexed": true,
          "internalType": "address",
          "name": "owner",
          "type": "address"
        },
        {
          "indexed": true,
          "internalType": "address",
          "name": "approved",
          "type": "address"
        },
        {
          "indexed": true,
          "internalType": "uint256",
          "name": "tokenId",
          "type": "uint256"
        }
      ],
      "name": "Approval",
      "type": "event"
    },
    {
      "anonymous": false,
      "inputs": [
        {
          "indexed": true,
          "internalType": "address",
          "name": "owner",
          "type": "address"
        },
        {
          "indexed": true,
          "internalType": "address",
          "name": "operator",
          "type": "address"
        },
        {
          "indexed": false,
          "internalType": "bool",
          "name": "approved",
          "type": "bool"
        }
      ],
      "name": "ApprovalForAll",
      "type": "event"
    },
    {
      "anonymous": false,
      "inputs": [
        {
          "indexed": true,
          "internalType": "address",
          "name": "previousOwner",
          "type": "address"
        },
        {
          "indexed": true,
          "internalType": "address",
          "name": "newOwner",
          "type": "address"
        }
      ],
      "name": "OwnershipTransferred",
      "type": "event"
    },
    {
      "anonymous": false,
      "inputs": [
        {
          "indexed": false,
          "internalType": "uint256",
          "name": "tokenID",
          "type": "uint256"
        },
        {
          "indexed": false,
          "internalType": "uint256",
          "name": "price",
          "type": "uint256"
        },
        {
          "indexed": false,
          "internalType": "address",
          "name": "payer",
          "type": "address"
        },
        {
          "indexed": false,
          "internalType": "address",
          "name": "payee",
          "type": "address"
        }
      ],
      "name": "Pay",
      "type": "event"
    },
    {
      "anonymous": false,
      "inputs": [
        {
          "indexed": false,
          "internalType": "uint256",
          "name": "price",
          "type": "uint256"
        }
      ],
      "name": "SetDefaultPrice",
      "type": "event"
    },
    {
      "anonymous": false,
      "inputs": [
        {
          "indexed": false,
          "internalType": "address",
          "name": "receiver",
          "type": "address"
        },
        {
          "indexed": false,
          "internalType": "uint96",
          "name": "fee",
          "type": "uint96"
        }
      ],
      "name": "SetDefaultRoyalty",
      "type": "event"
    },
    {
      "anonymous": false,
      "inputs": [
        {
          "indexed": true,
          "internalType": "bool",
          "name": "paused",
          "type": "bool"
        },
        {
          "indexed": true,
          "internalType": "address",
          "name": "account",
          "type": "address"
        }
      ],
      "name": "SetPaused",
      "type": "event"
    },
    {
      "anonymous": false,
      "inputs": [
        {
          "indexed": false,
          "internalType": "uint256",
          "name": "tokenID",
          "type": "uint256"
        },
        {
          "indexed": false,
          "internalType": "uint256",
          "name": "price",
          "type": "uint256"
        }
      ],
      "name": "SetTokenPrice",
      "type": "event"
    },
    {
      "anonymous": false,
      "inputs": [
        {
          "indexed": false,
          "internalType": "uint256",
          "name": "tokenID",
          "type": "uint256"
        },
        {
          "indexed": false,
          "internalType": "address",
          "name": "receiver",
          "type": "address"
        },
        {
          "indexed": false,
          "internalType": "uint96",
          "name": "fee",
          "type": "uint96"
        }
      ],
      "name": "SetTokenRoyalty",
      "type": "event"
    },
    {
      "anonymous": false,
      "inputs": [
        {
          "indexed": true,
          "internalType": "address",
          "name": "from",
          "type": "address"
        },
        {
          "indexed": true,
          "internalType": "address",
          "name": "to",
          "type": "address"
        },
        {
          "indexed": true,
          "internalType": "uint256",
          "name": "tokenId",
          "type": "uint256"
        }
      ],
      "name": "Transfer",
      "type": "event"
    },
    {
      "inputs": [
        {
          "internalType": "address",
          "name": "spender",
          "type": "address"
        },
        {
          "internalType": "uint256",
          "name": "tokenID",
          "type": "uint256"
        }
      ],
      "name": "approve",
      "outputs": [],
      "stateMutability": "payable",
      "type": "function"
    },
    {
      "inputs": [
        {
          "internalType": "address",
          "name": "owner",
          "type": "address"
        }
      ],
      "name": "balanceOf",
      "outputs": [
        {
          "internalType": "uint256",
          "name": "",
          "type": "uint256"
        }
      ],
      "stateMutability": "view",
      "type": "function"
    },
    {
      "inputs": [
        {
          "internalType": "uint256",
          "name": "tokenID",
          "type": "uint256"
        }
      ],
      "name": "burn",
      "outputs": [],
      "stateMutability": "nonpayable",
      "type": "function"
    },
    {
      "inputs": [
        {
          "internalType": "uint256",
          "name": "tokenID",
          "type": "uint256"
        }
      ],
      "name": "buy",
      "outputs": [],
      "stateMutability": "payable",
      "type": "function"
    },
    {
      "inputs": [],
      "name": "defaultPrice",
      "outputs": [
        {
          "internalType": "uint256",
          "name": "",
          "type": "uint256"
        }
      ],
      "stateMutability": "view",
      "type": "function"
    },
    {
      "inputs": [
        {
          "internalType": "uint256",
          "name": "tokenID",
          "type": "uint256"
        }
      ],
      "name": "getApproved",
      "outputs": [
        {
          "internalType": "address",
          "name": "",
          "type": "address"
        }
      ],
      "stateMutability": "view",
      "type": "function"
    },
    {
      "inputs": [],
      "name": "getTemplate",
      "outputs": [
        {
          "internalType": "string",
          "name": "",
          "type": "string"
        }
      ],
      "stateMutability": "view",
      "type": "function"
    },
    {
      "inputs": [],
      "name": "getVersion",
      "outputs": [
        {
          "internalType": "uint256",
          "name": "",
          "type": "uint256"
        }
      ],
      "stateMutability": "view",
      "type": "function"
    },
    {
      "inputs": [
        {
          "internalType": "string",
          "name": "name_",
          "type": "string"
        },
        {
          "internalType": "string",
          "name": "symbol_",
          "type": "string"
        },
        {
          "internalType": "address",
          "name": "owner_",
          "type": "address"
        },
        {
          "internalType": "bool[]",
          "name": "options",
          "type": "bool[]"
        }
      ],
      "name": "initialize",
      "outputs": [],
      "stateMutability": "nonpayable",
      "type": "function"
    },
    {
      "inputs": [
        {
          "internalType": "address",
          "name": "owner",
          "type": "address"
        },
        {
          "internalType": "address",
          "name": "operator",
          "type": "address"
        }
      ],
      "name": "isApprovedForAll",
      "outputs": [
        {
          "internalType": "bool",
          "name": "",
          "type": "bool"
        }
      ],
      "stateMutability": "view",
      "type": "function"
    },
    {
      "inputs": [
        {
          "internalType": "address",
          "name": "minter",
          "type": "address"
        },
        {
          "internalType": "string",
          "name": "tokenURI",
          "type": "string"
        },
        {
          "internalType": "uint256",
          "name": "price",
          "type": "uint256"
        },
        {
          "internalType": "address",
          "name": "receiver",
          "type": "address"
        },
        {
          "internalType": "uint96",
          "name": "fee",
          "type": "uint96"
        }
      ],
      "name": "mint",
      "outputs": [
        {
          "internalType": "uint256",
          "name": "tokenID",
          "type": "uint256"
        }
      ],
      "stateMutability": "payable",
      "type": "function"
    },
    {
      "inputs": [
        {
          "internalType": "address",
          "name": "minter",
          "type": "address"
        },
        {
          "internalType": "string",
          "name": "tokenURI",
          "type": "string"
        }
      ],
      "name": "mint",
      "outputs": [
        {
          "internalType": "uint256",
          "name": "tokenID",
          "type": "uint256"
        }
      ],
      "stateMutability": "nonpayable",
      "type": "function"
    },
    {
      "inputs": [
        {
          "internalType": "string",
          "name": "tokenURI",
          "type": "string"
        }
      ],
      "name": "mint",
      "outputs": [
        {
          "internalType": "uint256",
          "name": "tokenID",
          "type": "uint256"
        }
      ],
      "stateMutability": "nonpayable",
      "type": "function"
    },
    {
      "inputs": [],
      "name": "name",
      "outputs": [
        {
          "internalType": "string",
          "name": "",
          "type": "string"
        }
      ],
      "stateMutability": "view",
      "type": "function"
    },
    {
      "inputs": [],
      "name": "open",
      "outputs": [
        {
          "internalType": "bool",
          "name": "",
          "type": "bool"
        }
      ],
      "stateMutability": "view",
      "type": "function"
    },
    {
      "inputs": [],
      "name": "owner",
      "outputs": [
        {
          "internalType": "address",
          "name": "",
          "type": "address"
        }
      ],
      "stateMutability": "view",
      "type": "function"
    },
    {
      "inputs": [
        {
          "internalType": "uint256",
          "name": "tokenID",
          "type": "uint256"
        }
      ],
      "name": "ownerOf",
      "outputs": [
        {
          "internalType": "address",
          "name": "owner",
          "type": "address"
        }
      ],
      "stateMutability": "view",
      "type": "function"
    },
    {
      "inputs": [],
      "name": "paused",
      "outputs": [
        {
          "internalType": "bool",
          "name": "",
          "type": "bool"
        }
      ],
      "stateMutability": "view",
      "type": "function"
    },
    {
      "inputs": [
        {
          "internalType": "uint256",
          "name": "tokenID",
          "type": "uint256"
        },
        {
          "internalType": "uint256",
          "name": "price",
          "type": "uint256"
        }
      ],
      "name": "royaltyInfo",
      "outputs": [
        {
          "internalType": "address",
          "name": "receiver",
          "type": "address"
        },
        {
          "internalType": "uint256",
          "name": "royaltyAmount",
          "type": "uint256"
        }
      ],
      "stateMutability": "view",
      "type": "function"
    },
    {
      "inputs": [
        {
          "internalType": "address",
          "name": "from",
          "type": "address"
        },
        {
          "internalType": "address",
          "name": "to",
          "type": "address"
        },
        {
          "internalType": "uint256",
          "name": "tokenID",
          "type": "uint256"
        }
      ],
      "name": "safeTransferFrom",
      "outputs": [],
      "stateMutability": "payable",
      "type": "function"
    },
    {
      "inputs": [
        {
          "internalType": "address",
          "name": "from",
          "type": "address"
        },
        {
          "internalType": "address",
          "name": "to",
          "type": "address"
        },
        {
          "internalType": "uint256",
          "name": "tokenID",
          "type": "uint256"
        },
        {
          "internalType": "bytes",
          "name": "data",
          "type": "bytes"
        }
      ],
      "name": "safeTransferFrom",
      "outputs": [],
      "stateMutability": "payable",
      "type": "function"
    },
    {
      "inputs": [
        {
          "internalType": "address",
          "name": "operator",
          "type": "address"
        },
        {
          "internalType": "bool",
          "name": "approved",
          "type": "bool"
        }
      ],
      "name": "setApprovalForAll",
      "outputs": [],
      "stateMutability": "nonpayable",
      "type": "function"
    },
    {
      "inputs": [
        {
          "internalType": "uint256",
          "name": "price",
          "type": "uint256"
        }
      ],
      "name": "setDefaultPrice",
      "outputs": [],
      "stateMutability": "nonpayable",
      "type": "function"
    },
    {
      "inputs": [
        {
          "internalType": "address",
          "name": "receiver",
          "type": "address"
        },
        {
          "internalType": "uint96",
          "name": "fee",
          "type": "uint96"
        }
      ],
      "name": "setDefaultRoyalty",
      "outputs": [],
      "stateMutability": "nonpayable",
      "type": "function"
    },
    {
      "inputs": [
        {
          "internalType": "uint256",
          "name": "tokenID",
          "type": "uint256"
        }
      ],
      "name": "setTokenPrice",
      "outputs": [],
      "stateMutability": "nonpayable",
      "type": "function"
    },
    {
      "inputs": [
        {
          "internalType": "uint256",
          "name": "tokenID",
          "type": "uint256"
        },
        {
          "internalType": "uint256",
          "name": "price",
          "type": "uint256"
        }
      ],
      "name": "setTokenPrice",
      "outputs": [],
      "stateMutability": "nonpayable",
      "type": "function"
    },
    {
      "inputs": [
        {
          "internalType": "uint256",
          "name": "tokenID",
          "type": "uint256"
        },
        {
          "internalType": "address",
          "name": "receiver",
          "type": "address"
        },
        {
          "internalType": "uint96",
          "name": "fee",
          "type": "uint96"
        }
      ],
      "name": "setTokenRoyalty",
      "outputs": [],
      "stateMutability": "nonpayable",
      "type": "function"
    },
    {
      "inputs": [
        {
          "internalType": "bytes4",
          "name": "interfaceId",
          "type": "bytes4"
        }
      ],
      "name": "supportsInterface",
      "outputs": [
        {
          "internalType": "bool",
          "name": "",
          "type": "bool"
        }
      ],
      "stateMutability": "view",
      "type": "function"
    },
    {
      "inputs": [],
      "name": "symbol",
      "outputs": [
        {
          "internalType": "string",
          "name": "",
          "type": "string"
        }
      ],
      "stateMutability": "view",
      "type": "function"
    },
    {
      "inputs": [],
      "name": "togglePause",
      "outputs": [],
      "stateMutability": "nonpayable",
      "type": "function"
    },
    {
      "inputs": [
        {
          "internalType": "uint256",
          "name": "index",
          "type": "uint256"
        }
      ],
      "name": "tokenByIndex",
      "outputs": [
        {
          "internalType": "uint256",
          "name": "",
          "type": "uint256"
        }
      ],
      "stateMutability": "view",
      "type": "function"
    },
    {
      "inputs": [],
      "name": "tokenIdNext",
      "outputs": [
        {
          "internalType": "uint256",
          "name": "",
          "type": "uint256"
        }
      ],
      "stateMutability": "view",
      "type": "function"
    },
    {
      "inputs": [
        {
          "internalType": "address",
          "name": "owner",
          "type": "address"
        },
        {
          "internalType": "uint256",
          "name": "index",
          "type": "uint256"
        }
      ],
      "name": "tokenOfOwnerByIndex",
      "outputs": [
        {
          "internalType": "uint256",
          "name": "",
          "type": "uint256"
        }
      ],
      "stateMutability": "view",
      "type": "function"
    },
    {
      "inputs": [
        {
          "internalType": "uint256",
          "name": "",
          "type": "uint256"
        }
      ],
      "name": "tokenPrice",
      "outputs": [
        {
          "internalType": "uint256",
          "name": "",
          "type": "uint256"
        }
      ],
      "stateMutability": "view",
      "type": "function"
    },
    {
      "inputs": [
        {
          "internalType": "uint256",
          "name": "tokenID",
          "type": "uint256"
        }
      ],
      "name": "tokenURI",
      "outputs": [
        {
          "internalType": "string",
          "name": "",
          "type": "string"
        }
      ],
      "stateMutability": "view",
      "type": "function"
    },
    {
      "inputs": [],
      "name": "totalSupply",
      "outputs": [
        {
          "internalType": "uint256",
          "name": "",
          "type": "uint256"
        }
      ],
      "stateMutability": "view",
      "type": "function"
    },
    {
      "inputs": [
        {
          "internalType": "address",
          "name": "from",
          "type": "address"
        },
        {
          "internalType": "address",
          "name": "to",
          "type": "address"
        },
        {
          "internalType": "uint256",
          "name": "tokenID",
          "type": "uint256"
        }
      ],
      "name": "transferFrom",
      "outputs": [],
      "stateMutability": "payable",
      "type": "function"
    },
    {
      "inputs": [
        {
          "internalType": "address",
          "name": "newOwner",
          "type": "address"
        }
      ],
      "name": "transferOwnership",
      "outputs": [],
      "stateMutability": "nonpayable",
      "type": "function"
    },
    {
      "inputs": [
        {
          "internalType": "address",
          "name": "token",
          "type": "address"
        }
      ],
      "name": "withdraw",
      "outputs": [],
      "stateMutability": "nonpayable",
      "type": "function"
    },
    {
      "stateMutability": "payable",
      "type": "receive"
    }
  ],
  "transactionHash": "0x4f600b0fe5bf26f0e6947088d013257178cbc0d9169acb49895d1091fe75f8e4",
  "args": [],
  "numDeployments": 15,
  "solcInputHash": "070f4379795a469940c78a0d0290b82e",
  "bytecode": "0x6080604052600160145534801561001557600080fd5b50612edb806100256000396000f3fe6080604052600436106102345760003560e01c80636352211e1161012e578063c87b56dd116100ab578063e69e04b31161006f578063e69e04b314610653578063e985e9c514610669578063eb685c47146106b2578063f2fde38b146106d2578063fcfff16f146106f257600080fd5b8063c87b56dd146105b3578063d0def521146105d3578063d4ddce8a146105f3578063d85d3d2714610620578063d96a094a1461064057600080fd5b80638da5cb5b116100f25780638da5cb5b1461053357806395d89b4114610556578063a22cb4651461056b578063b88d4fde1461058b578063c4ae31681461059e57600080fd5b80636352211e1461049d5780636a61e5fc146104bd5780636d3c7ec5146104dd57806370a08231146104fd5780638bbf58b31461051d57600080fd5b80632f745c59116101bc5780634f6ccce7116101805780634f6ccce71461040557806351cff8d91461042557806354e10b48146104455780635944c753146104655780635c975abb1461048557600080fd5b80632f745c591461038a578063321c48f2146103aa57806342842e0e146103bf57806342966c68146103d25780634472167b146103f257600080fd5b8063095ea7b311610203578063095ea7b3146102f15780630d8e6e2c1461030457806318160ddd1461032357806323b872dd146103385780632a55205a1461034b57600080fd5b806301ffc9a71461024057806304634d8d1461027557806306fdde0314610297578063081812fc146102b957600080fd5b3661023b57005b600080fd5b34801561024c57600080fd5b5061026061025b3660046126f2565b61070c565b60405190151581526020015b60405180910390f35b34801561028157600080fd5b5061029561029036600461273d565b610751565b005b3480156102a357600080fd5b506102ac610851565b60405161026c91906127bd565b3480156102c557600080fd5b506102d96102d43660046127d0565b6108e3565b6040516001600160a01b03909116815260200161026c565b6102956102ff3660046127e9565b610956565b34801561031057600080fd5b506013545b60405190815260200161026c565b34801561032f57600080fd5b50600854610315565b610295610346366004612813565b610a1a565b34801561035757600080fd5b5061036b61036636600461284f565b610a2a565b604080516001600160a01b03909316835260208301919091520161026c565b34801561039657600080fd5b506103156103a53660046127e9565b610af8565b3480156103b657600080fd5b506102ac610b7f565b6102956103cd366004612813565b610b8e565b3480156103de57600080fd5b506102956103ed3660046127d0565b610ba9565b610315610400366004612930565b610bdd565b34801561041157600080fd5b506103156104203660046127d0565b610ccd565b34801561043157600080fd5b506102956104403660046129a9565b610d37565b34801561045157600080fd5b506102956104603660046129d2565b610f69565b34801561047157600080fd5b50610295610480366004612ada565b610fae565b34801561049157600080fd5b5060115460ff16610260565b3480156104a957600080fd5b506102d96104b83660046127d0565b61103e565b3480156104c957600080fd5b506102956104d83660046127d0565b61109b565b3480156104e957600080fd5b506102956104f83660046127d0565b6110a7565b34801561050957600080fd5b506103156105183660046129a9565b611137565b34801561052957600080fd5b5061031560145481565b34801561053f57600080fd5b50600c5461010090046001600160a01b03166102d9565b34801561056257600080fd5b506102ac6111a2565b34801561057757600080fd5b50610295610586366004612b16565b6111b1565b610295610599366004612b4d565b61121d565b3480156105aa57600080fd5b5061029561127b565b3480156105bf57600080fd5b506102ac6105ce3660046127d0565b6112bc565b3480156105df57600080fd5b506103156105ee366004612bc9565b61135e565b3480156105ff57600080fd5b5061031561060e3660046127d0565b600f6020526000908152604090205481565b34801561062c57600080fd5b5061031561063b366004612c17565b6113dc565b61029561064e3660046127d0565b6113ed565b34801561065f57600080fd5b5061031560105481565b34801561067557600080fd5b50610260610684366004612c4c565b6001600160a01b03918216600090815260036020908152604080832093909416825291909152205460ff1690565b3480156106be57600080fd5b506102956106cd36600461284f565b6115cf565b3480156106de57600080fd5b506102956106ed3660046129a9565b611624565b3480156106fe57600080fd5b506015546102609060ff1681565b60006001600160e01b0319821663ed5bd83160e01b148061073c57506001600160e01b0319821662f7235960e21b145b8061074b575061074b8261165c565b92915050565b600c5461010090046001600160a01b031633146107895760405162461bcd60e51b815260040161078090612c76565b60405180910390fd5b6001600160601b0381166127108111156107e05760405162461bcd60e51b8152602060048201526018602482015277526f79616c7479206665652065786365656420707269636560401b6044820152606401610780565b6040805180820182526001600160a01b0385168082526001600160601b0385166020928301819052600160a01b81028217600d558351918252918101919091527fa1edde4ed5c1392c90dccd8e051a4080b761850e49a24c77d826348a51e1f8dc91015b60405180910390a1505050565b60606005805461086090612c99565b80601f016020809104026020016040519081016040528092919081815260200182805461088c90612c99565b80156108d95780601f106108ae576101008083540402835291602001916108d9565b820191906000526020600020905b8154815290600101906020018083116108bc57829003601f168201915b5050505050905090565b6000818152602081905260408120546001600160a01b031661093a5760405162461bcd60e51b815260206004820152601060248201526f125b9d985b1a59081d1bdad95b88125160821b6044820152606401610780565b506000908152600260205260409020546001600160a01b031690565b6109603382611681565b6109ac5760405162461bcd60e51b815260206004820152601c60248201527f4e6f7420746f6b656e206f776e6572206e6f72206f70657261746f72000000006044820152606401610780565b600081815260026020526040902080546001600160a01b0319166001600160a01b03841690811790915581906109e18261103e565b6001600160a01b03167f8c5be1e5ebec7d5bd14f71427d1e84f3dd0314c0f7b2291e5b200ac8c7c3b92560405160405180910390a45050565b610a258383836116dc565b505050565b60008082600160801b8110610a515760405162461bcd60e51b815260040161078090612cd4565b6000858152600e60209081526040918290208251808401909352546001600160a01b038116808452600160a01b9091046001600160601b031691830191909152610ac5575060408051808201909152600d546001600160a01b0381168252600160a01b90046001600160601b031660208201525b602081015161271090610ae1906001600160601b031687612d11565b610aeb9190612d30565b9051969095509350505050565b6000610b0383611137565b8210610b425760405162461bcd60e51b815260206004820152600e60248201526d496e76616c696420696e6465782160901b6044820152606401610780565b6001600160a01b0383166000908152600960205260409020805483908110610b6c57610b6c612d52565b9060005260206000200154905092915050565b60606012805461086090612c99565b610a2583838360405180602001604052806000815250611912565b80610bb4338261196a565b610bd05760405162461bcd60e51b815260040161078090612d68565b610bd9826119a1565b5050565b60155460009060ff1680610c015750600c546001600160a01b036101009091041633145b610c3a5760405162461bcd60e51b815260206004820152600a6024820152692737ba1036b4b73a32b960b11b6044820152606401610780565b60115460ff1615610c775760405162461bcd60e51b81526020600482015260076024820152665061757365642160c81b6044820152606401610780565b610c81868661135e565b90508315610c9357610c9381856115cf565b6001600160a01b03831615801590610cb457506000826001600160601b0316115b15610cc457610cc4818484610fae565b95945050505050565b6008546000908210610d125760405162461bcd60e51b815260206004820152600e60248201526d496e76616c696420696e6465782160901b6044820152606401610780565b60088281548110610d2557610d25612d52565b90600052602060002001549050919050565b600c5461010090046001600160a01b03163314610d665760405162461bcd60e51b815260040161078090612c76565b6001600160a01b0381163b15801590610df857506040516301ffc9a760e01b81526336372b0760e01b60048201526001600160a01b038216906301ffc9a79060240160206040518083038186803b158015610dc057600080fd5b505afa158015610dd4573d6000803e3d6000fd5b505050506040513d601f19601f82011682018060405250810190610df89190612d9f565b15610f3d576040516370a0823160e01b81523060048201526001600160a01b0382169063a9059cbb90339083906370a082319060240160206040518083038186803b158015610e4657600080fd5b505afa158015610e5a573d6000803e3d6000fd5b505050506040513d601f19601f82011682018060405250810190610e7e9190612dbc565b6040516001600160e01b031960e085901b1681526001600160a01b0390921660048301526024820152604401602060405180830381600087803b158015610ec457600080fd5b505af1158015610ed8573d6000803e3d6000fd5b505050506040513d601f19601f82011682018060405250810190610efc9190612d9f565b610f3a5760405162461bcd60e51b815260206004820152600f60248201526e15da5d1a191c985dc819985a5b1959608a1b6044820152606401610780565b50565b60405133904780156108fc02916000818181858888f19350505050158015610bd9573d6000803e3d6000fd5b610f748484846119aa565b80600081518110610f8757610f87612d52565b6020026020010151601560006101000a81548160ff02191690831515021790555050505050565b82610fb9338261196a565b610fd55760405162461bcd60e51b815260040161078090612d68565b6001600160601b03821661271081111561102c5760405162461bcd60e51b8152602060048201526018602482015277526f79616c7479206665652065786365656420707269636560401b6044820152606401610780565b6110378585856119e8565b5050505050565b6000818152602081905260409020546001600160a01b0316806110965760405162461bcd60e51b815260206004820152601060248201526f125b9d985b1a59081d1bdad95b88125160821b6044820152606401610780565b919050565b610f3a816010546115cf565b600c5461010090046001600160a01b031633146110d65760405162461bcd60e51b815260040161078090612c76565b80600160801b81106110fa5760405162461bcd60e51b815260040161078090612cd4565b60108290556040518281527f9f7a6492db3843bc01c0adb23cd27be964155c1d45c566f2ee32f28faf4eb605906020015b60405180910390a15050565b60006001600160a01b0382166111865760405162461bcd60e51b8152602060048201526014602482015273496e76616c6964207a65726f206164647265737360601b6044820152606401610780565b506001600160a01b031660009081526001602052604090205490565b60606006805461086090612c99565b3360008181526003602090815260408083206001600160a01b03871680855290835292819020805460ff191686151590811790915590519081529192917f17307eab39ab6107e8899845ad3d59bd9653f200f220920489ca2b5937696c31910160405180910390a35050565b6112288484846116dc565b61123484848484611a6d565b6112755760405162461bcd60e51b8152602060048201526012602482015271139bdd08115490cdcc8c549958d95a5d995960721b6044820152606401610780565b50505050565b600c5461010090046001600160a01b031633146112aa5760405162461bcd60e51b815260040161078090612c76565b6011546112ba9060ff1615611b1b565b565b60008181526007602052604090208054606091906112d990612c99565b80601f016020809104026020016040519081016040528092919081815260200182805461130590612c99565b80156113525780601f1061132757610100808354040283529160200191611352565b820191906000526020600020905b81548152906001019060200180831161133557829003601f168201915b50505050509050919050565b60155460009060ff16806113825750600c546001600160a01b036101009091041633145b6113bb5760405162461bcd60e51b815260206004820152600a6024820152692737ba1036b4b73a32b960b11b6044820152606401610780565b601480549060006113cb83612dd5565b91905055905061074b838383611b60565b600061074b33836000806000610bdd565b6000818152602081905260409020546001600160a01b03166114465760405162461bcd60e51b81526020600482015260126024820152714e465420646f65736e27742065786973747360701b6044820152606401610780565b6000818152600f6020526040902054806114905760405162461bcd60e51b815260206004820152600b60248201526a139bdd081d1bc81cd95b1b60aa1b6044820152606401610780565b803410156114d35760405162461bcd60e51b815260206004820152601060248201526f4e6f7420656e6f7567682066756e647360801b6044820152606401610780565b60006114de8361103e565b90506001600160a01b0381166114f6576114f6612df0565b6001600160a01b0381163314156115465760405162461bcd60e51b8152602060048201526014602482015273416c726561647920746f6b656e206f776e65722160601b6044820152606401610780565b604051635c46a7ef60e11b81526001600160a01b0382166004820152336024820152604481018490526080606482015260006084820152309063b88d4fde90349060a4016000604051808303818588803b1580156115a357600080fd5b505af11580156115b7573d6000803e3d6000fd5b50505060009485525050600f60205250506040812055565b816115da338261196a565b6115f65760405162461bcd60e51b815260040161078090612d68565b81600160801b811061161a5760405162461bcd60e51b815260040161078090612cd4565b6112758484611b6b565b600c5461010090046001600160a01b031633146116535760405162461bcd60e51b815260040161078090612c76565b610f3a81611bb3565b60006001600160e01b03198216630c38761960e41b148061074b575061074b82611c0d565b60008061168d8361103e565b9050836001600160a01b0316816001600160a01b031614806116d457506001600160a01b0380821660009081526003602090815260408083209388168352929052205460ff165b949350505050565b806116e7338261196a565b6117035760405162461bcd60e51b815260040161078090612d68565b61170c8261103e565b6001600160a01b0316846001600160a01b03161461175d5760405162461bcd60e51b815260206004820152600e60248201526d233937b6903737ba1037bbb732b960911b6044820152606401610780565b6001600160a01b0384166117b35760405162461bcd60e51b815260206004820152601a60248201527f5472616e736665722066726f6d207a65726f20616464726573730000000000006044820152606401610780565b6001600160a01b0383166118095760405162461bcd60e51b815260206004820152601860248201527f5472616e7366657220746f207a65726f206164647265737300000000000000006044820152606401610780565b611814848484611c32565b600082815260026020526040902080546001600160a01b03191690556001600160a01b03848116908416146118cb576001600160a01b0384166000908152600160208190526040822080549192909161186e908490612e06565b90915550506001600160a01b0383166000908152600160208190526040822080549192909161189e908490612e1d565b9091555050600082815260208190526040902080546001600160a01b0319166001600160a01b0385161790555b81836001600160a01b0316856001600160a01b03167fddf252ad1be2c89b69c2b068fc378daa952ba7f163c4a11628f55a4df523b3ef60405160405180910390a450505050565b61191d8484846116dc565b61192984848484611a6d565b6112755760405162461bcd60e51b81526020600482015260126024820152712737ba1022a9219b9918a932b1b2b4bb32b960711b6044820152606401610780565b60006119768383611681565b8061199a5750826001600160a01b031661198f836108e3565b6001600160a01b0316145b9392505050565b610f3a81611c3d565b6119d5604051806040016040528060088152602001674f70656e4e46547360c01b8152506004611c62565b6119df8383611cd0565b610a2581611d44565b6040805180820182526001600160a01b038481168083526001600160601b03858116602080860182815260008b8152600e835288902096519051909316600160a01b029290941691909117909355835187815291820152918201527f2595213009f64247e2789cf9981bcc53ee736a6aa52042a651aa1549ae6fff6190606001610844565b60006001600160a01b0384163b1580610cc45750604051630a85bd0160e11b808252906001600160a01b0386169063150b7a0290611ab59033908a9089908990600401612e35565b602060405180830381600087803b158015611acf57600080fd5b505af1158015611ae3573d6000803e3d6000fd5b505050506040513d601f19601f82011682018060405250810190611b079190612e72565b6001600160e01b0319161495945050505050565b6011805460ff1916821515908117909155604051339160ff161515907f8b265f737315073a655a642868ed756ba7e3b6c391b06dbbf70370aab7f7f06890600090a350565b610a25838383611da1565b6000828152600f602090815260409182902083905581518481529081018390527f2f8c61aa79deaa9c961d54f640a154df4960a56a5989d25df0148be783dc3f5b910161112b565b600c80546001600160a01b03838116610100818102610100600160a81b031985161790945560405193909204169182907f8be0079c531659141344cd1fd0a4f28419497f9722a3daafe3b4186f6b6457e090600090a35050565b60006001600160e01b03198216631fc9136f60e11b148061074b575061074b82611dd1565b610a25838383611df6565b6000818152600e60209081526040808320839055600f909152812055610f3a81611e2f565b601154610100900460ff1615611ca75760405162461bcd60e51b815260206004820152600a6024820152694f6e6c79206f6e63652160b01b6044820152606401610780565b6011805461ff0019166101001790558151611cc990601290602085019061260d565b5060135550565b60045460ff1615611d105760405162461bcd60e51b815260206004820152600a6024820152694f6e6c79206f6e63652160b01b6044820152606401610780565b6004805460ff191660011790558151611d3090600590602085019061260d565b508051610a2590600690602084019061260d565b600c5460ff1615611d8b5760405162461bcd60e51b8152602060048201526011602482015270125b9a5d08185b1c9958591e4818d85b1b607a1b6044820152606401610780565b600c805460ff19166001179055610f3a81611bb3565b611dac838383611efa565b610a258160105485611dcc600c546001600160a01b036101009091041690565b611f53565b60006001600160e01b031982166398396bd360e01b148061074b575061074b8261212c565b6000818152600f6020526040902054611e1590829084611dcc8361103e565b6000818152600f6020526040812055610a25838383612151565b6000611e3a8261103e565b9050611e468183612165565b6000828152600b6020526040812054600854909190611e6790600190612e06565b9050600060088281548110611e7e57611e7e612d52565b6000918252602080832090910154808352600b909152604080832086905587835282209190915560088054919250829185908110611ebe57611ebe612d52565b6000918252602090912001556008805480611edb57611edb612e8f565b6001900381819060005260206000200160009055905561103785612273565b611f048382612293565b600880546000838152600b60205260408120829055600182018355919091527ff3f7a9fe364faab93b216da50a3214154f22a0a2b415b23a84c8169e8b636ee301819055610a258383836122d1565b3483156120e85783811015611f9d5760405162461bcd60e51b815260206004820152601060248201526f4e6f7420656e6f7567682066756e647360801b6044820152606401610780565b600080611faa8787610a2a565b9150915085811115611ff25760405162461bcd60e51b8152602060048201526011602482015270496e76616c696420726f79616c7469657360781b6044820152606401610780565b6000611ffe8288612e06565b9050801561204a576040516001600160a01b0386169082156108fc029083906000818181858888f1935050505015801561203c573d6000803e3d6000fd5b506120478185612e06565b93505b8115612094576040516001600160a01b0384169083156108fc029084906000818181858888f19350505050158015612086573d6000803e3d6000fd5b506120918285612e06565b93505b60408051898152602081018990526001600160a01b03888116828401528716606082015290517f3914c8962f5e7241220aedc853d15ae456e87f9f156489c7d0d1f682e69f98ce9181900360800190a15050505b8015611037576040516001600160a01b0384169082156108fc029083906000818181858888f19350505050158015612124573d6000803e3d6000fd5b505050505050565b60006001600160e01b03198216638351879960e01b148061074b575061074b826122fc565b61215b8382612165565b610a258282612293565b6000818152600a602052604081205490600161218085611137565b61218a9190612e06565b9050808214612221576001600160a01b03841660009081526009602052604081208054839081106121bd576121bd612d52565b906000526020600020015490508060096000876001600160a01b03166001600160a01b03168152602001908152602001600020848154811061220157612201612d52565b6000918252602080832090910192909255918252600a9052604090208290555b6000838152600a602090815260408083208390556001600160a01b03871683526009909152902080548061225757612257612e8f565b6001900381819060005260206000200160009055905550505050565b600081815260076020526040812061228a91612691565b610f3a81612321565b6001600160a01b0390911660009081526009602081815260408084208054868652600a84529185208290559282526001810183559183529091200155565b600081815260076020908152604090912083516122f09285019061260d565b50610a258383836123ed565b600063152a902d60e11b6001600160e01b03198316148061074b575061074b82612578565b600061232c8261103e565b6001600160a01b03811660009081526001602052604090205490915061235457612354612df0565b6001600160a01b0381166000908152600160208190526040822080549192909161237f908490612e06565b9091555050600082815260026020908152604080832080546001600160a01b0319908116909155918390528083208054909216909155518391906001600160a01b038416907fddf252ad1be2c89b69c2b068fc378daa952ba7f163c4a11628f55a4df523b3ef908390a45050565b6001600160a01b03831661243a5760405162461bcd60e51b81526020600482015260146024820152734d696e7420746f207a65726f206164647265737360601b6044820152606401610780565b6000818152602081905260409020546001600160a01b0316156124965760405162461bcd60e51b8152602060048201526014602482015273151bdad95b88185b1c9958591e481b5a5b9d195960621b6044820152606401610780565b6001600160a01b038316600090815260016020819052604082208054919290916124c1908490612e1d565b909155505060008181526020819052604080822080546001600160a01b0319166001600160a01b03871690811790915590518392907fddf252ad1be2c89b69c2b068fc378daa952ba7f163c4a11628f55a4df523b3ef908290a46125376000848360405180602001604052806000815250611a6d565b610a255760405162461bcd60e51b8152602060048201526012602482015271139bdd08115490cdcc8c549958d95a5d995960721b6044820152606401610780565b60006307f5828d60e41b6001600160e01b03198316148061074b575061074b82600063780e9d6360e01b6001600160e01b03198316148061074b575061074b826000635b5e139f60e01b6001600160e01b03198316148061074b575061074b8260006380ac58cd60e01b6001600160e01b03198316148061074b57506001600160e01b031982166301ffc9a760e01b1461074b565b82805461261990612c99565b90600052602060002090601f01602090048101928261263b5760008555612681565b82601f1061265457805160ff1916838001178555612681565b82800160010185558215612681579182015b82811115612681578251825591602001919060010190612666565b5061268d9291506126c7565b5090565b50805461269d90612c99565b6000825580601f106126ad575050565b601f016020900490600052602060002090810190610f3a91905b5b8082111561268d57600081556001016126c8565b6001600160e01b031981168114610f3a57600080fd5b60006020828403121561270457600080fd5b813561199a816126dc565b80356001600160a01b038116811461109657600080fd5b80356001600160601b038116811461109657600080fd5b6000806040838503121561275057600080fd5b6127598361270f565b915061276760208401612726565b90509250929050565b6000815180845260005b818110156127965760208185018101518683018201520161277a565b818111156127a8576000602083870101525b50601f01601f19169290920160200192915050565b60208152600061199a6020830184612770565b6000602082840312156127e257600080fd5b5035919050565b600080604083850312156127fc57600080fd5b6128058361270f565b946020939093013593505050565b60008060006060848603121561282857600080fd5b6128318461270f565b925061283f6020850161270f565b9150604084013590509250925092565b6000806040838503121561286257600080fd5b50508035926020909101359150565b634e487b7160e01b600052604160045260246000fd5b604051601f8201601f1916810167ffffffffffffffff811182821017156128b0576128b0612871565b604052919050565b600067ffffffffffffffff8311156128d2576128d2612871565b6128e5601f8401601f1916602001612887565b90508281528383830111156128f957600080fd5b828260208301376000602084830101529392505050565b600082601f83011261292157600080fd5b61199a838335602085016128b8565b600080600080600060a0868803121561294857600080fd5b6129518661270f565b9450602086013567ffffffffffffffff81111561296d57600080fd5b61297988828901612910565b9450506040860135925061298f6060870161270f565b915061299d60808701612726565b90509295509295909350565b6000602082840312156129bb57600080fd5b61199a8261270f565b8015158114610f3a57600080fd5b600080600080608085870312156129e857600080fd5b843567ffffffffffffffff80821115612a0057600080fd5b612a0c88838901612910565b9550602091508187013581811115612a2357600080fd5b612a2f89828a01612910565b955050612a3e6040880161270f565b9350606087013581811115612a5257600080fd5b8701601f81018913612a6357600080fd5b803582811115612a7557612a75612871565b8060051b9250612a86848401612887565b818152928201840192848101908b851115612aa057600080fd5b928501925b84841015612aca5783359250612aba836129c4565b8282529285019290850190612aa5565b989b979a50959850505050505050565b600080600060608486031215612aef57600080fd5b83359250612aff6020850161270f565b9150612b0d60408501612726565b90509250925092565b60008060408385031215612b2957600080fd5b612b328361270f565b91506020830135612b42816129c4565b809150509250929050565b60008060008060808587031215612b6357600080fd5b612b6c8561270f565b9350612b7a6020860161270f565b925060408501359150606085013567ffffffffffffffff811115612b9d57600080fd5b8501601f81018713612bae57600080fd5b612bbd878235602084016128b8565b91505092959194509250565b60008060408385031215612bdc57600080fd5b612be58361270f565b9150602083013567ffffffffffffffff811115612c0157600080fd5b612c0d85828601612910565b9150509250929050565b600060208284031215612c2957600080fd5b813567ffffffffffffffff811115612c4057600080fd5b6116d484828501612910565b60008060408385031215612c5f57600080fd5b612c688361270f565b91506127676020840161270f565b6020808252600990820152682737ba1037bbb732b960b91b604082015260600190565b600181811c90821680612cad57607f821691505b60208210811415612cce57634e487b7160e01b600052602260045260246000fd5b50919050565b6020808252600d908201526c546f6f20657870656e7369766560981b604082015260600190565b634e487b7160e01b600052601160045260246000fd5b6000816000190483118215151615612d2b57612d2b612cfb565b500290565b600082612d4d57634e487b7160e01b600052601260045260246000fd5b500490565b634e487b7160e01b600052603260045260246000fd5b6020808252601c908201527f4e6f7420746f6b656e206f776e6572206e6f7220617070726f76656400000000604082015260600190565b600060208284031215612db157600080fd5b815161199a816129c4565b600060208284031215612dce57600080fd5b5051919050565b6000600019821415612de957612de9612cfb565b5060010190565b634e487b7160e01b600052600160045260246000fd5b600082821015612e1857612e18612cfb565b500390565b60008219821115612e3057612e30612cfb565b500190565b6001600160a01b0385811682528416602082015260408101839052608060608201819052600090612e6890830184612770565b9695505050505050565b600060208284031215612e8457600080fd5b815161199a816126dc565b634e487b7160e01b600052603160045260246000fdfea2646970667358221220d37df089f5cc4496f3ae03836edb85b37e361e0cdb83c7812a52272fea82d51f64736f6c63430008090033",
  "devdoc": {
    "kind": "dev",
    "methods": {
      "burn(uint256)": {
        "params": {
          "tokenID": "tokenID of NFT to burn"
        }
      },
      "setDefaultRoyalty(address,uint96)": {
        "params": {
          "fee": ": fee Numerator, less than 10000",
          "receiver": ": address of the royalty receiver, or address(0) to reset"
        }
      },
      "setTokenRoyalty(uint256,address,uint96)": {
        "params": {
          "fee": ": fee Numerator, less than 10000",
          "receiver": ": address of the royalty receiver, or address(0) to reset",
          "tokenID": ": token ID"
        }
      },
      "supportsInterface(bytes4)": {
        "params": {
          "interfaceId": "interfaceId to test"
        }
      }
    },
    "title": "OpenNFTs smartcontract",
    "version": 1
  },
  "userdoc": {
    "kind": "user",
    "methods": {
      "burn(uint256)": {
        "notice": "burn NFT"
      },
      "open()": {
        "notice": "Mint NFT allowed to everyone or only collection owner"
      },
      "setDefaultRoyalty(address,uint96)": {
        "notice": "SET default royalty configuration"
      },
      "setTokenRoyalty(uint256,address,uint96)": {
        "notice": "SET token royalty configuration"
      },
      "supportsInterface(bytes4)": {
        "notice": "test if this interface is supported"
      },
      "tokenIdNext()": {
        "notice": "tokenID of next minted NFT"
      },
      "withdraw(address)": {
        "notice": "withdraw token otherwise eth"
      }
    },
    "version": 1
  },
  "storageLayout": {
    "storage": [
      {
        "astId": 6766,
        "contract": "contracts/next/OpenNFTsV4.sol:OpenNFTsV4",
        "label": "_owners",
        "offset": 0,
        "slot": "0",
        "type": "t_mapping(t_uint256,t_address)"
      },
      {
        "astId": 6770,
        "contract": "contracts/next/OpenNFTsV4.sol:OpenNFTsV4",
        "label": "_balances",
        "offset": 0,
        "slot": "1",
        "type": "t_mapping(t_address,t_uint256)"
      },
      {
        "astId": 6774,
        "contract": "contracts/next/OpenNFTsV4.sol:OpenNFTsV4",
        "label": "_tokenApprovals",
        "offset": 0,
        "slot": "2",
        "type": "t_mapping(t_uint256,t_address)"
      },
      {
        "astId": 6780,
        "contract": "contracts/next/OpenNFTsV4.sol:OpenNFTsV4",
        "label": "_operatorApprovals",
        "offset": 0,
        "slot": "3",
        "type": "t_mapping(t_address,t_mapping(t_address,t_bool))"
      },
      {
        "astId": 7697,
        "contract": "contracts/next/OpenNFTsV4.sol:OpenNFTsV4",
        "label": "_openERC721MetadataInitialized",
        "offset": 0,
        "slot": "4",
        "type": "t_bool"
      },
      {
        "astId": 7699,
        "contract": "contracts/next/OpenNFTsV4.sol:OpenNFTsV4",
        "label": "_name",
        "offset": 0,
        "slot": "5",
        "type": "t_string_storage"
      },
      {
        "astId": 7701,
        "contract": "contracts/next/OpenNFTsV4.sol:OpenNFTsV4",
        "label": "_symbol",
        "offset": 0,
        "slot": "6",
        "type": "t_string_storage"
      },
      {
        "astId": 7705,
        "contract": "contracts/next/OpenNFTsV4.sol:OpenNFTsV4",
        "label": "_tokenURIs",
        "offset": 0,
        "slot": "7",
        "type": "t_mapping(t_uint256,t_string_storage)"
      },
      {
        "astId": 7374,
        "contract": "contracts/next/OpenNFTsV4.sol:OpenNFTsV4",
        "label": "_allTokens",
        "offset": 0,
        "slot": "8",
        "type": "t_array(t_uint256)dyn_storage"
      },
      {
        "astId": 7379,
        "contract": "contracts/next/OpenNFTsV4.sol:OpenNFTsV4",
        "label": "_ownedTokens",
        "offset": 0,
        "slot": "9",
        "type": "t_mapping(t_address,t_array(t_uint256)dyn_storage)"
      },
      {
        "astId": 7383,
        "contract": "contracts/next/OpenNFTsV4.sol:OpenNFTsV4",
        "label": "_ownedTokensIndex",
        "offset": 0,
        "slot": "10",
        "type": "t_mapping(t_uint256,t_uint256)"
      },
      {
        "astId": 7387,
        "contract": "contracts/next/OpenNFTsV4.sol:OpenNFTsV4",
        "label": "_allTokensIndex",
        "offset": 0,
        "slot": "11",
        "type": "t_mapping(t_uint256,t_uint256)"
      },
      {
        "astId": 6531,
        "contract": "contracts/next/OpenNFTsV4.sol:OpenNFTsV4",
        "label": "_openERC173Initialized",
        "offset": 0,
        "slot": "12",
        "type": "t_bool"
      },
      {
        "astId": 6533,
        "contract": "contracts/next/OpenNFTsV4.sol:OpenNFTsV4",
        "label": "_owner",
        "offset": 1,
        "slot": "12",
        "type": "t_address"
      },
      {
        "astId": 6645,
        "contract": "contracts/next/OpenNFTsV4.sol:OpenNFTsV4",
        "label": "_royaltyInfo",
        "offset": 0,
        "slot": "13",
        "type": "t_struct(RoyaltyInfo)6642_storage"
      },
      {
        "astId": 6650,
        "contract": "contracts/next/OpenNFTsV4.sol:OpenNFTsV4",
        "label": "_tokenRoyaltyInfo",
        "offset": 0,
        "slot": "14",
        "type": "t_mapping(t_uint256,t_struct(RoyaltyInfo)6642_storage)"
      },
      {
        "astId": 7962,
        "contract": "contracts/next/OpenNFTsV4.sol:OpenNFTsV4",
        "label": "tokenPrice",
        "offset": 0,
        "slot": "15",
        "type": "t_mapping(t_uint256,t_uint256)"
      },
      {
        "astId": 7964,
        "contract": "contracts/next/OpenNFTsV4.sol:OpenNFTsV4",
        "label": "defaultPrice",
        "offset": 0,
        "slot": "16",
        "type": "t_uint256"
      },
      {
        "astId": 8619,
        "contract": "contracts/next/OpenNFTsV4.sol:OpenNFTsV4",
        "label": "_paused",
        "offset": 0,
        "slot": "17",
        "type": "t_bool"
      },
      {
        "astId": 7870,
        "contract": "contracts/next/OpenNFTsV4.sol:OpenNFTsV4",
        "label": "_openCloneableInitialized",
        "offset": 1,
        "slot": "17",
        "type": "t_bool"
      },
      {
        "astId": 7872,
        "contract": "contracts/next/OpenNFTsV4.sol:OpenNFTsV4",
        "label": "_template",
        "offset": 0,
        "slot": "18",
        "type": "t_string_storage"
      },
      {
        "astId": 7874,
        "contract": "contracts/next/OpenNFTsV4.sol:OpenNFTsV4",
        "label": "_version",
        "offset": 0,
        "slot": "19",
        "type": "t_uint256"
      },
      {
        "astId": 8370,
        "contract": "contracts/next/OpenNFTsV4.sol:OpenNFTsV4",
        "label": "tokenIdNext",
        "offset": 0,
        "slot": "20",
        "type": "t_uint256"
      },
      {
        "astId": 19577,
        "contract": "contracts/next/OpenNFTsV4.sol:OpenNFTsV4",
        "label": "open",
        "offset": 0,
        "slot": "21",
        "type": "t_bool"
      }
    ],
    "types": {
      "t_address": {
        "encoding": "inplace",
        "label": "address",
        "numberOfBytes": "20"
      },
      "t_array(t_uint256)dyn_storage": {
        "base": "t_uint256",
        "encoding": "dynamic_array",
        "label": "uint256[]",
        "numberOfBytes": "32"
      },
      "t_bool": {
        "encoding": "inplace",
        "label": "bool",
        "numberOfBytes": "1"
      },
      "t_mapping(t_address,t_array(t_uint256)dyn_storage)": {
        "encoding": "mapping",
        "key": "t_address",
        "label": "mapping(address => uint256[])",
        "numberOfBytes": "32",
        "value": "t_array(t_uint256)dyn_storage"
      },
      "t_mapping(t_address,t_bool)": {
        "encoding": "mapping",
        "key": "t_address",
        "label": "mapping(address => bool)",
        "numberOfBytes": "32",
        "value": "t_bool"
      },
      "t_mapping(t_address,t_mapping(t_address,t_bool))": {
        "encoding": "mapping",
        "key": "t_address",
        "label": "mapping(address => mapping(address => bool))",
        "numberOfBytes": "32",
        "value": "t_mapping(t_address,t_bool)"
      },
      "t_mapping(t_address,t_uint256)": {
        "encoding": "mapping",
        "key": "t_address",
        "label": "mapping(address => uint256)",
        "numberOfBytes": "32",
        "value": "t_uint256"
      },
      "t_mapping(t_uint256,t_address)": {
        "encoding": "mapping",
        "key": "t_uint256",
        "label": "mapping(uint256 => address)",
        "numberOfBytes": "32",
        "value": "t_address"
      },
      "t_mapping(t_uint256,t_string_storage)": {
        "encoding": "mapping",
        "key": "t_uint256",
        "label": "mapping(uint256 => string)",
        "numberOfBytes": "32",
        "value": "t_string_storage"
      },
      "t_mapping(t_uint256,t_struct(RoyaltyInfo)6642_storage)": {
        "encoding": "mapping",
        "key": "t_uint256",
        "label": "mapping(uint256 => struct OpenERC2981.RoyaltyInfo)",
        "numberOfBytes": "32",
        "value": "t_struct(RoyaltyInfo)6642_storage"
      },
      "t_mapping(t_uint256,t_uint256)": {
        "encoding": "mapping",
        "key": "t_uint256",
        "label": "mapping(uint256 => uint256)",
        "numberOfBytes": "32",
        "value": "t_uint256"
      },
      "t_string_storage": {
        "encoding": "bytes",
        "label": "string",
        "numberOfBytes": "32"
      },
      "t_struct(RoyaltyInfo)6642_storage": {
        "encoding": "inplace",
        "label": "struct OpenERC2981.RoyaltyInfo",
        "members": [
          {
            "astId": 6639,
            "contract": "contracts/next/OpenNFTsV4.sol:OpenNFTsV4",
            "label": "receiver",
            "offset": 0,
            "slot": "0",
            "type": "t_address"
          },
          {
            "astId": 6641,
            "contract": "contracts/next/OpenNFTsV4.sol:OpenNFTsV4",
            "label": "fraction",
            "offset": 20,
            "slot": "0",
            "type": "t_uint96"
          }
        ],
        "numberOfBytes": "32"
      },
      "t_uint256": {
        "encoding": "inplace",
        "label": "uint256",
        "numberOfBytes": "32"
      },
      "t_uint96": {
        "encoding": "inplace",
        "label": "uint96",
        "numberOfBytes": "12"
      }
    }
  }
}