{
  "address": "0xa118eEFe6D5373B34bF2Fb7b04875F83e77EE6ef",
  "abi": [
    {
      "anonymous": false,
      "inputs": [
        {
          "indexed": true,
          "internalType": "address",
          "name": "owner",
          "type": "address"
        },
        {
          "indexed": true,
          "internalType": "address",
          "name": "approved",
          "type": "address"
        },
        {
          "indexed": true,
          "internalType": "uint256",
          "name": "tokenId",
          "type": "uint256"
        }
      ],
      "name": "Approval",
      "type": "event"
    },
    {
      "anonymous": false,
      "inputs": [
        {
          "indexed": true,
          "internalType": "address",
          "name": "owner",
          "type": "address"
        },
        {
          "indexed": true,
          "internalType": "address",
          "name": "operator",
          "type": "address"
        },
        {
          "indexed": false,
          "internalType": "bool",
          "name": "approved",
          "type": "bool"
        }
      ],
      "name": "ApprovalForAll",
      "type": "event"
    },
    {
      "anonymous": false,
      "inputs": [
        {
          "indexed": true,
          "internalType": "address",
          "name": "previousOwner",
          "type": "address"
        },
        {
          "indexed": true,
          "internalType": "address",
          "name": "newOwner",
          "type": "address"
        }
      ],
      "name": "OwnershipTransferred",
      "type": "event"
    },
    {
      "anonymous": false,
      "inputs": [
        {
          "indexed": false,
          "internalType": "uint256",
          "name": "tokenID",
          "type": "uint256"
        },
        {
          "indexed": false,
          "internalType": "uint256",
          "name": "price",
          "type": "uint256"
        },
        {
          "indexed": false,
          "internalType": "address",
          "name": "payer",
          "type": "address"
        },
        {
          "indexed": false,
          "internalType": "address",
          "name": "payee",
          "type": "address"
        }
      ],
      "name": "Pay",
      "type": "event"
    },
    {
      "anonymous": false,
      "inputs": [
        {
          "indexed": false,
          "internalType": "uint256",
          "name": "price",
          "type": "uint256"
        }
      ],
      "name": "SetDefaultPrice",
      "type": "event"
    },
    {
      "anonymous": false,
      "inputs": [
        {
          "indexed": false,
          "internalType": "address",
          "name": "receiver",
          "type": "address"
        },
        {
          "indexed": false,
          "internalType": "uint96",
          "name": "fee",
          "type": "uint96"
        }
      ],
      "name": "SetDefaultRoyalty",
      "type": "event"
    },
    {
      "anonymous": false,
      "inputs": [
        {
          "indexed": true,
          "internalType": "bool",
          "name": "paused",
          "type": "bool"
        },
        {
          "indexed": true,
          "internalType": "address",
          "name": "account",
          "type": "address"
        }
      ],
      "name": "SetPaused",
      "type": "event"
    },
    {
      "anonymous": false,
      "inputs": [
        {
          "indexed": false,
          "internalType": "uint256",
          "name": "tokenID",
          "type": "uint256"
        },
        {
          "indexed": false,
          "internalType": "uint256",
          "name": "price",
          "type": "uint256"
        }
      ],
      "name": "SetTokenPrice",
      "type": "event"
    },
    {
      "anonymous": false,
      "inputs": [
        {
          "indexed": false,
          "internalType": "uint256",
          "name": "tokenID",
          "type": "uint256"
        },
        {
          "indexed": false,
          "internalType": "address",
          "name": "receiver",
          "type": "address"
        },
        {
          "indexed": false,
          "internalType": "uint96",
          "name": "fee",
          "type": "uint96"
        }
      ],
      "name": "SetTokenRoyalty",
      "type": "event"
    },
    {
      "anonymous": false,
      "inputs": [
        {
          "indexed": true,
          "internalType": "address",
          "name": "from",
          "type": "address"
        },
        {
          "indexed": true,
          "internalType": "address",
          "name": "to",
          "type": "address"
        },
        {
          "indexed": true,
          "internalType": "uint256",
          "name": "tokenId",
          "type": "uint256"
        }
      ],
      "name": "Transfer",
      "type": "event"
    },
    {
      "inputs": [
        {
          "internalType": "address",
          "name": "spender",
          "type": "address"
        },
        {
          "internalType": "uint256",
          "name": "tokenID",
          "type": "uint256"
        }
      ],
      "name": "approve",
      "outputs": [],
      "stateMutability": "nonpayable",
      "type": "function"
    },
    {
      "inputs": [
        {
          "internalType": "address",
          "name": "owner",
          "type": "address"
        }
      ],
      "name": "balanceOf",
      "outputs": [
        {
          "internalType": "uint256",
          "name": "",
          "type": "uint256"
        }
      ],
      "stateMutability": "view",
      "type": "function"
    },
    {
      "inputs": [
        {
          "internalType": "uint256",
          "name": "tokenID",
          "type": "uint256"
        }
      ],
      "name": "burn",
      "outputs": [],
      "stateMutability": "nonpayable",
      "type": "function"
    },
    {
      "inputs": [
        {
          "internalType": "uint256",
          "name": "tokenID",
          "type": "uint256"
        }
      ],
      "name": "buy",
      "outputs": [],
      "stateMutability": "payable",
      "type": "function"
    },
    {
      "inputs": [],
      "name": "defaultPrice",
      "outputs": [
        {
          "internalType": "uint256",
          "name": "",
          "type": "uint256"
        }
      ],
      "stateMutability": "view",
      "type": "function"
    },
    {
      "inputs": [
        {
          "internalType": "uint256",
          "name": "tokenID",
          "type": "uint256"
        }
      ],
      "name": "getApproved",
      "outputs": [
        {
          "internalType": "address",
          "name": "",
          "type": "address"
        }
      ],
      "stateMutability": "view",
      "type": "function"
    },
    {
      "inputs": [
        {
          "internalType": "string",
          "name": "name_",
          "type": "string"
        },
        {
          "internalType": "string",
          "name": "symbol_",
          "type": "string"
        },
        {
          "internalType": "address",
          "name": "owner_",
          "type": "address"
        },
        {
          "internalType": "uint256",
          "name": "defaultPrice_",
          "type": "uint256"
        },
        {
          "internalType": "address",
          "name": "receiver_",
          "type": "address"
        },
        {
          "internalType": "uint96",
          "name": "fee_",
          "type": "uint96"
        },
        {
          "internalType": "bool[]",
          "name": "options",
          "type": "bool[]"
        }
      ],
      "name": "initialize",
      "outputs": [],
      "stateMutability": "nonpayable",
      "type": "function"
    },
    {
      "inputs": [],
      "name": "initialized",
      "outputs": [
        {
          "internalType": "bool",
          "name": "",
          "type": "bool"
        }
      ],
      "stateMutability": "view",
      "type": "function"
    },
    {
      "inputs": [
        {
          "internalType": "address",
          "name": "owner",
          "type": "address"
        },
        {
          "internalType": "address",
          "name": "operator",
          "type": "address"
        }
      ],
      "name": "isApprovedForAll",
      "outputs": [
        {
          "internalType": "bool",
          "name": "",
          "type": "bool"
        }
      ],
      "stateMutability": "view",
      "type": "function"
    },
    {
      "inputs": [
        {
          "internalType": "address",
          "name": "minter_",
          "type": "address"
        },
        {
          "internalType": "string",
          "name": "tokenURI_",
          "type": "string"
        },
        {
          "internalType": "uint256",
          "name": "tokenPrice_",
          "type": "uint256"
        },
        {
          "internalType": "address",
          "name": "receiver_",
          "type": "address"
        },
        {
          "internalType": "uint96",
          "name": "fee_",
          "type": "uint96"
        }
      ],
      "name": "mint",
      "outputs": [
        {
          "internalType": "uint256",
          "name": "tokenID",
          "type": "uint256"
        }
      ],
      "stateMutability": "payable",
      "type": "function"
    },
    {
      "inputs": [
        {
          "internalType": "address",
          "name": "minter",
          "type": "address"
        },
        {
          "internalType": "string",
          "name": "tokenURI",
          "type": "string"
        }
      ],
      "name": "mint",
      "outputs": [
        {
          "internalType": "uint256",
          "name": "tokenID",
          "type": "uint256"
        }
      ],
      "stateMutability": "nonpayable",
      "type": "function"
    },
    {
      "inputs": [
        {
          "internalType": "string",
          "name": "tokenURI",
          "type": "string"
        }
      ],
      "name": "mint",
      "outputs": [
        {
          "internalType": "uint256",
          "name": "tokenID",
          "type": "uint256"
        }
      ],
      "stateMutability": "nonpayable",
      "type": "function"
    },
    {
      "inputs": [],
      "name": "name",
      "outputs": [
        {
          "internalType": "string",
          "name": "",
          "type": "string"
        }
      ],
      "stateMutability": "view",
      "type": "function"
    },
    {
      "inputs": [],
      "name": "open",
      "outputs": [
        {
          "internalType": "bool",
          "name": "",
          "type": "bool"
        }
      ],
      "stateMutability": "view",
      "type": "function"
    },
    {
      "inputs": [],
      "name": "owner",
      "outputs": [
        {
          "internalType": "address",
          "name": "",
          "type": "address"
        }
      ],
      "stateMutability": "view",
      "type": "function"
    },
    {
      "inputs": [
        {
          "internalType": "uint256",
          "name": "tokenID",
          "type": "uint256"
        }
      ],
      "name": "ownerOf",
      "outputs": [
        {
          "internalType": "address",
          "name": "owner",
          "type": "address"
        }
      ],
      "stateMutability": "view",
      "type": "function"
    },
    {
      "inputs": [],
      "name": "parent",
      "outputs": [
        {
          "internalType": "address",
          "name": "parent_",
          "type": "address"
        }
      ],
      "stateMutability": "view",
      "type": "function"
    },
    {
      "inputs": [],
      "name": "paused",
      "outputs": [
        {
          "internalType": "bool",
          "name": "",
          "type": "bool"
        }
      ],
      "stateMutability": "view",
      "type": "function"
    },
    {
      "inputs": [
        {
          "internalType": "uint256",
          "name": "tokenID",
          "type": "uint256"
        },
        {
          "internalType": "uint256",
          "name": "price",
          "type": "uint256"
        }
      ],
      "name": "royaltyInfo",
      "outputs": [
        {
          "internalType": "address",
          "name": "receiver",
          "type": "address"
        },
        {
          "internalType": "uint256",
          "name": "royaltyAmount",
          "type": "uint256"
        }
      ],
      "stateMutability": "view",
      "type": "function"
    },
    {
      "inputs": [
        {
          "internalType": "address",
          "name": "from",
          "type": "address"
        },
        {
          "internalType": "address",
          "name": "to",
          "type": "address"
        },
        {
          "internalType": "uint256",
          "name": "tokenID",
          "type": "uint256"
        }
      ],
      "name": "safeTransferFrom",
      "outputs": [],
      "stateMutability": "payable",
      "type": "function"
    },
    {
      "inputs": [
        {
          "internalType": "address",
          "name": "from",
          "type": "address"
        },
        {
          "internalType": "address",
          "name": "to",
          "type": "address"
        },
        {
          "internalType": "uint256",
          "name": "tokenID",
          "type": "uint256"
        },
        {
          "internalType": "bytes",
          "name": "data",
          "type": "bytes"
        }
      ],
      "name": "safeTransferFrom",
      "outputs": [],
      "stateMutability": "payable",
      "type": "function"
    },
    {
      "inputs": [
        {
          "internalType": "address",
          "name": "operator",
          "type": "address"
        },
        {
          "internalType": "bool",
          "name": "approved",
          "type": "bool"
        }
      ],
      "name": "setApprovalForAll",
      "outputs": [],
      "stateMutability": "nonpayable",
      "type": "function"
    },
    {
      "inputs": [
        {
          "internalType": "uint256",
          "name": "price",
          "type": "uint256"
        }
      ],
      "name": "setDefaultPrice",
      "outputs": [],
      "stateMutability": "nonpayable",
      "type": "function"
    },
    {
      "inputs": [
        {
          "internalType": "address",
          "name": "receiver",
          "type": "address"
        },
        {
          "internalType": "uint96",
          "name": "fee",
          "type": "uint96"
        }
      ],
      "name": "setDefaultRoyalty",
      "outputs": [],
      "stateMutability": "nonpayable",
      "type": "function"
    },
    {
      "inputs": [
        {
          "internalType": "uint256",
          "name": "tokenID",
          "type": "uint256"
        }
      ],
      "name": "setTokenPrice",
      "outputs": [],
      "stateMutability": "nonpayable",
      "type": "function"
    },
    {
      "inputs": [
        {
          "internalType": "uint256",
          "name": "tokenID",
          "type": "uint256"
        },
        {
          "internalType": "uint256",
          "name": "price",
          "type": "uint256"
        }
      ],
      "name": "setTokenPrice",
      "outputs": [],
      "stateMutability": "nonpayable",
      "type": "function"
    },
    {
      "inputs": [
        {
          "internalType": "uint256",
          "name": "tokenID",
          "type": "uint256"
        },
        {
          "internalType": "address",
          "name": "receiver",
          "type": "address"
        },
        {
          "internalType": "uint96",
          "name": "fee",
          "type": "uint96"
        }
      ],
      "name": "setTokenRoyalty",
      "outputs": [],
      "stateMutability": "nonpayable",
      "type": "function"
    },
    {
      "inputs": [
        {
          "internalType": "bytes4",
          "name": "interfaceId",
          "type": "bytes4"
        }
      ],
      "name": "supportsInterface",
      "outputs": [
        {
          "internalType": "bool",
          "name": "",
          "type": "bool"
        }
      ],
      "stateMutability": "view",
      "type": "function"
    },
    {
      "inputs": [],
      "name": "symbol",
      "outputs": [
        {
          "internalType": "string",
          "name": "",
          "type": "string"
        }
      ],
      "stateMutability": "view",
      "type": "function"
    },
    {
      "inputs": [],
      "name": "template",
      "outputs": [
        {
          "internalType": "string",
          "name": "",
          "type": "string"
        }
      ],
      "stateMutability": "view",
      "type": "function"
    },
    {
      "inputs": [],
      "name": "togglePause",
      "outputs": [],
      "stateMutability": "nonpayable",
      "type": "function"
    },
    {
      "inputs": [
        {
          "internalType": "uint256",
          "name": "index",
          "type": "uint256"
        }
      ],
      "name": "tokenByIndex",
      "outputs": [
        {
          "internalType": "uint256",
          "name": "",
          "type": "uint256"
        }
      ],
      "stateMutability": "view",
      "type": "function"
    },
    {
      "inputs": [],
      "name": "tokenIdNext",
      "outputs": [
        {
          "internalType": "uint256",
          "name": "",
          "type": "uint256"
        }
      ],
      "stateMutability": "view",
      "type": "function"
    },
    {
      "inputs": [
        {
          "internalType": "address",
          "name": "owner",
          "type": "address"
        },
        {
          "internalType": "uint256",
          "name": "index",
          "type": "uint256"
        }
      ],
      "name": "tokenOfOwnerByIndex",
      "outputs": [
        {
          "internalType": "uint256",
          "name": "",
          "type": "uint256"
        }
      ],
      "stateMutability": "view",
      "type": "function"
    },
    {
      "inputs": [
        {
          "internalType": "uint256",
          "name": "",
          "type": "uint256"
        }
      ],
      "name": "tokenPrice",
      "outputs": [
        {
          "internalType": "uint256",
          "name": "",
          "type": "uint256"
        }
      ],
      "stateMutability": "view",
      "type": "function"
    },
    {
      "inputs": [
        {
          "internalType": "uint256",
          "name": "tokenID",
          "type": "uint256"
        }
      ],
      "name": "tokenURI",
      "outputs": [
        {
          "internalType": "string",
          "name": "",
          "type": "string"
        }
      ],
      "stateMutability": "view",
      "type": "function"
    },
    {
      "inputs": [],
      "name": "totalSupply",
      "outputs": [
        {
          "internalType": "uint256",
          "name": "",
          "type": "uint256"
        }
      ],
      "stateMutability": "view",
      "type": "function"
    },
    {
      "inputs": [
        {
          "internalType": "address",
          "name": "from",
          "type": "address"
        },
        {
          "internalType": "address",
          "name": "to",
          "type": "address"
        },
        {
          "internalType": "uint256",
          "name": "tokenID",
          "type": "uint256"
        }
      ],
      "name": "transferFrom",
      "outputs": [],
      "stateMutability": "payable",
      "type": "function"
    },
    {
      "inputs": [
        {
          "internalType": "address",
          "name": "newOwner",
          "type": "address"
        }
      ],
      "name": "transferOwnership",
      "outputs": [],
      "stateMutability": "nonpayable",
      "type": "function"
    },
    {
      "inputs": [],
      "name": "version",
      "outputs": [
        {
          "internalType": "uint256",
          "name": "",
          "type": "uint256"
        }
      ],
      "stateMutability": "view",
      "type": "function"
    },
    {
      "inputs": [
        {
          "internalType": "address",
          "name": "token",
          "type": "address"
        }
      ],
      "name": "withdraw",
      "outputs": [],
      "stateMutability": "nonpayable",
      "type": "function"
    },
    {
      "stateMutability": "payable",
      "type": "receive"
    }
  ],
  "transactionHash": "0x2ffcc79958290fe7647b5ed20b85359b33023e56592ae9baf9779647426320bb",
  "args": [],
  "numDeployments": 2,
  "solcInputHash": "3789fdb502de651c8e903f044c0d64cc",
  "bytecode": "0x6080604052600160145534801561001557600080fd5b50613051806100256000396000f3fe60806040526004361061024a5760003560e01c80636a61e5fc11610139578063c87b56dd116100b6578063e69e04b31161007a578063e69e04b31461068b578063e97186ef146106a1578063e985e9c5146106c1578063eb685c471461070a578063f2fde38b1461072a578063fcfff16f1461074a57600080fd5b8063c87b56dd146105eb578063d0def5211461060b578063d4ddce8a1461062b578063d85d3d2714610658578063d96a094a1461067857600080fd5b80638da5cb5b116100fd5780638da5cb5b1461056b57806395d89b411461058e578063a22cb465146105a3578063b88d4fde146105c3578063c4ae3168146105d657600080fd5b80636a61e5fc146104e05780636d3c7ec5146105005780636f2ddd931461052057806370a08231146105355780638bbf58b31461055557600080fd5b806342842e0e116101c757806354fd4d501161018b57806354fd4d501461045d5780635944c753146104735780635c975abb1461049357806360f96a8f146104ab5780636352211e146104c057600080fd5b806342842e0e146103d757806342966c68146103ea5780634472167b1461040a5780634f6ccce71461041d57806351cff8d91461043d57600080fd5b8063158ef93e1161020e578063158ef93e1461032757806318160ddd1461034657806323b872dd146103655780632a55205a146103785780632f745c59146103b757600080fd5b806301ffc9a71461025657806304634d8d1461028b57806306fdde03146102ad578063081812fc146102cf578063095ea7b31461030757600080fd5b3661025157005b600080fd5b34801561026257600080fd5b50610276610271366004612817565b610764565b60405190151581526020015b60405180910390f35b34801561029757600080fd5b506102ab6102a6366004612862565b6107a9565b005b3480156102b957600080fd5b506102c26107ef565b60405161028291906128e2565b3480156102db57600080fd5b506102ef6102ea3660046128f5565b610881565b6040516001600160a01b039091168152602001610282565b34801561031357600080fd5b506102ab61032236600461290e565b6108f4565b34801561033357600080fd5b5060115461027690610100900460ff1681565b34801561035257600080fd5b506008545b604051908152602001610282565b6102ab610373366004612938565b6109b8565b34801561038457600080fd5b50610398610393366004612974565b6109c8565b604080516001600160a01b039093168352602083019190915201610282565b3480156103c357600080fd5b506103576103d236600461290e565b610a96565b6102ab6103e5366004612938565b610b1d565b3480156103f657600080fd5b506102ab6104053660046128f5565b610b38565b610357610418366004612a55565b610b68565b34801561042957600080fd5b506103576104383660046128f5565b610c2c565b34801561044957600080fd5b506102ab610458366004612ace565b610c96565b34801561046957600080fd5b5061035760135481565b34801561047f57600080fd5b506102ab61048e366004612ae9565b610ec8565b34801561049f57600080fd5b5060115460ff16610276565b3480156104b757600080fd5b506102ef610f00565b3480156104cc57600080fd5b506102ef6104db3660046128f5565b610f49565b3480156104ec57600080fd5b506102ab6104fb3660046128f5565b610fa6565b34801561050c57600080fd5b506102ab61051b3660046128f5565b610fb2565b34801561052c57600080fd5b506102c2610fea565b34801561054157600080fd5b50610357610550366004612ace565b611078565b34801561056157600080fd5b5061035760145481565b34801561057757600080fd5b50600c5461010090046001600160a01b03166102ef565b34801561059a57600080fd5b506102c26110e3565b3480156105af57600080fd5b506102ab6105be366004612b33565b6110f2565b6102ab6105d1366004612b6a565b61115e565b3480156105e257600080fd5b506102ab6111b6565b3480156105f757600080fd5b506102c26106063660046128f5565b6111f7565b34801561061757600080fd5b50610357610626366004612be6565b611299565b34801561063757600080fd5b506103576106463660046128f5565b600f6020526000908152604090205481565b34801561066457600080fd5b50610357610673366004612c34565b611317565b6102ab6106863660046128f5565b611328565b34801561069757600080fd5b5061035760105481565b3480156106ad57600080fd5b506102ab6106bc366004612c69565b61150a565b3480156106cd57600080fd5b506102766106dc366004612d9e565b6001600160a01b03918216600090815260036020908152604080832093909416825291909152205460ff1690565b34801561071657600080fd5b506102ab610725366004612974565b611565565b34801561073657600080fd5b506102ab610745366004612ace565b611596565b34801561075657600080fd5b506015546102769060ff1681565b60006001600160e01b031982166330323f1960e01b148061079457506001600160e01b0319821662f7235960e21b145b806107a357506107a3826115ce565b92915050565b600c5461010090046001600160a01b031633146107e15760405162461bcd60e51b81526004016107d890612dc8565b60405180910390fd5b6107eb82826115f3565b5050565b6060600580546107fe90612deb565b80601f016020809104026020016040519081016040528092919081815260200182805461082a90612deb565b80156108775780601f1061084c57610100808354040283529160200191610877565b820191906000526020600020905b81548152906001019060200180831161085a57829003601f168201915b5050505050905090565b6000818152602081905260408120546001600160a01b03166108d85760405162461bcd60e51b815260206004820152601060248201526f125b9d985b1a59081d1bdad95b88125160821b60448201526064016107d8565b506000908152600260205260409020546001600160a01b031690565b6108fe33826116bb565b61094a5760405162461bcd60e51b815260206004820152601c60248201527f4e6f7420746f6b656e206f776e6572206e6f72206f70657261746f720000000060448201526064016107d8565b600081815260026020526040902080546001600160a01b0319166001600160a01b038416908117909155819061097f82610f49565b6001600160a01b03167f8c5be1e5ebec7d5bd14f71427d1e84f3dd0314c0f7b2291e5b200ac8c7c3b92560405160405180910390a45050565b6109c3838383611716565b505050565b60008082600160801b81106109ef5760405162461bcd60e51b81526004016107d890612e26565b6000858152600e60209081526040918290208251808401909352546001600160a01b038116808452600160a01b9091046001600160601b031691830191909152610a63575060408051808201909152600d546001600160a01b0381168252600160a01b90046001600160601b031660208201525b602081015161271090610a7f906001600160601b031687612e63565b610a899190612e82565b9051969095509350505050565b6000610aa183611078565b8210610ae05760405162461bcd60e51b815260206004820152600e60248201526d496e76616c696420696e6465782160901b60448201526064016107d8565b6001600160a01b0383166000908152600960205260409020805483908110610b0a57610b0a612ea4565b9060005260206000200154905092915050565b6109c38383836040518060200160405280600081525061194c565b80610b4333826119a4565b610b5f5760405162461bcd60e51b81526004016107d890612eba565b6107eb826119db565b60155460009060ff1680610b8c5750600c546001600160a01b036101009091041633145b610bc55760405162461bcd60e51b815260206004820152600a6024820152692737ba1036b4b73a32b960b11b60448201526064016107d8565b60115460ff1615610c025760405162461bcd60e51b81526020600482015260076024820152665061757365642160c81b60448201526064016107d8565b610c0c8686611299565b9050610c1881856119e4565b610c23818484611a50565b95945050505050565b6008546000908210610c715760405162461bcd60e51b815260206004820152600e60248201526d496e76616c696420696e6465782160901b60448201526064016107d8565b60088281548110610c8457610c84612ea4565b90600052602060002001549050919050565b600c5461010090046001600160a01b03163314610cc55760405162461bcd60e51b81526004016107d890612dc8565b6001600160a01b0381163b15801590610d5757506040516301ffc9a760e01b81526336372b0760e01b60048201526001600160a01b038216906301ffc9a79060240160206040518083038186803b158015610d1f57600080fd5b505afa158015610d33573d6000803e3d6000fd5b505050506040513d601f19601f82011682018060405250810190610d579190612ef1565b15610e9c576040516370a0823160e01b81523060048201526001600160a01b0382169063a9059cbb90339083906370a082319060240160206040518083038186803b158015610da557600080fd5b505afa158015610db9573d6000803e3d6000fd5b505050506040513d601f19601f82011682018060405250810190610ddd9190612f0e565b6040516001600160e01b031960e085901b1681526001600160a01b0390921660048301526024820152604401602060405180830381600087803b158015610e2357600080fd5b505af1158015610e37573d6000803e3d6000fd5b505050506040513d601f19601f82011682018060405250810190610e5b9190612ef1565b610e995760405162461bcd60e51b815260206004820152600f60248201526e15da5d1a191c985dc819985a5b1959608a1b60448201526064016107d8565b50565b60405133904780156108fc02916000818181858888f193505050501580156107eb573d6000803e3d6000fd5b82610ed333826119a4565b610eef5760405162461bcd60e51b81526004016107d890612eba565b610efa848484611a50565b50505050565b6000602d303b14610f115750600090565b6010306001600160a01b0316803b806020016040519081016040528181526000908060200190933c610f4290612f27565b901c905090565b6000818152602081905260409020546001600160a01b031680610fa15760405162461bcd60e51b815260206004820152601060248201526f125b9d985b1a59081d1bdad95b88125160821b60448201526064016107d8565b919050565b610e9981601054611565565b600c5461010090046001600160a01b03163314610fe15760405162461bcd60e51b81526004016107d890612dc8565b610e9981611b35565b60128054610ff790612deb565b80601f016020809104026020016040519081016040528092919081815260200182805461102390612deb565b80156110705780601f1061104557610100808354040283529160200191611070565b820191906000526020600020905b81548152906001019060200180831161105357829003601f168201915b505050505081565b60006001600160a01b0382166110c75760405162461bcd60e51b8152602060048201526014602482015273496e76616c6964207a65726f206164647265737360601b60448201526064016107d8565b506001600160a01b031660009081526001602052604090205490565b6060600680546107fe90612deb565b3360008181526003602090815260408083206001600160a01b03871680855290835292819020805460ff191686151590811790915590519081529192917f17307eab39ab6107e8899845ad3d59bd9653f200f220920489ca2b5937696c31910160405180910390a35050565b611169848484611716565b61117584848484611b95565b610efa5760405162461bcd60e51b8152602060048201526012602482015271139bdd08115490cdcc8c549958d95a5d995960721b60448201526064016107d8565b600c5461010090046001600160a01b031633146111e55760405162461bcd60e51b81526004016107d890612dc8565b6011546111f59060ff1615611c43565b565b600081815260076020526040902080546060919061121490612deb565b80601f016020809104026020016040519081016040528092919081815260200182805461124090612deb565b801561128d5780601f106112625761010080835404028352916020019161128d565b820191906000526020600020905b81548152906001019060200180831161127057829003601f168201915b50505050509050919050565b60155460009060ff16806112bd5750600c546001600160a01b036101009091041633145b6112f65760405162461bcd60e51b815260206004820152600a6024820152692737ba1036b4b73a32b960b11b60448201526064016107d8565b6014805490600061130683612f4b565b9190505590506107a3838383611c88565b60006107a333836000806000610b68565b6000818152602081905260409020546001600160a01b03166113815760405162461bcd60e51b81526020600482015260126024820152714e465420646f65736e27742065786973747360701b60448201526064016107d8565b6000818152600f6020526040902054806113cb5760405162461bcd60e51b815260206004820152600b60248201526a139bdd081d1bc81cd95b1b60aa1b60448201526064016107d8565b8034101561140e5760405162461bcd60e51b815260206004820152601060248201526f4e6f7420656e6f7567682066756e647360801b60448201526064016107d8565b600061141983610f49565b90506001600160a01b03811661143157611431612f66565b6001600160a01b0381163314156114815760405162461bcd60e51b8152602060048201526014602482015273416c726561647920746f6b656e206f776e65722160601b60448201526064016107d8565b604051635c46a7ef60e11b81526001600160a01b0382166004820152336024820152604481018490526080606482015260006084820152309063b88d4fde90349060a4016000604051808303818588803b1580156114de57600080fd5b505af11580156114f2573d6000803e3d6000fd5b50505060009485525050600f60205250506040812055565b611515878787611c93565b8060008151811061152857611528612ea4565b6020026020010151601560006101000a81548160ff02191690831515021790555061155284611b35565b61155c83836115f3565b50505050505050565b8161157033826119a4565b61158c5760405162461bcd60e51b81526004016107d890612eba565b6109c383836119e4565b600c5461010090046001600160a01b031633146115c55760405162461bcd60e51b81526004016107d890612dc8565b610e9981611cd1565b60006001600160e01b03198216630c38761960e41b14806107a357506107a382611d2b565b6001600160601b03811661271081111561164a5760405162461bcd60e51b8152602060048201526018602482015277526f79616c7479206665652065786365656420707269636560401b60448201526064016107d8565b6040805180820182526001600160a01b0385168082526001600160601b0385166020928301819052600160a01b81028217600d558351918252918101919091527fa1edde4ed5c1392c90dccd8e051a4080b761850e49a24c77d826348a51e1f8dc91015b60405180910390a1505050565b6000806116c783610f49565b9050836001600160a01b0316816001600160a01b0316148061170e57506001600160a01b0380821660009081526003602090815260408083209388168352929052205460ff165b949350505050565b8061172133826119a4565b61173d5760405162461bcd60e51b81526004016107d890612eba565b61174682610f49565b6001600160a01b0316846001600160a01b0316146117975760405162461bcd60e51b815260206004820152600e60248201526d233937b6903737ba1037bbb732b960911b60448201526064016107d8565b6001600160a01b0384166117ed5760405162461bcd60e51b815260206004820152601a60248201527f5472616e736665722066726f6d207a65726f206164647265737300000000000060448201526064016107d8565b6001600160a01b0383166118435760405162461bcd60e51b815260206004820152601860248201527f5472616e7366657220746f207a65726f2061646472657373000000000000000060448201526064016107d8565b61184e848484611d50565b600082815260026020526040902080546001600160a01b03191690556001600160a01b0384811690841614611905576001600160a01b038416600090815260016020819052604082208054919290916118a8908490612f7c565b90915550506001600160a01b038316600090815260016020819052604082208054919290916118d8908490612f93565b9091555050600082815260208190526040902080546001600160a01b0319166001600160a01b0385161790555b81836001600160a01b0316856001600160a01b03167fddf252ad1be2c89b69c2b068fc378daa952ba7f163c4a11628f55a4df523b3ef60405160405180910390a450505050565b611957848484611716565b61196384848484611b95565b610efa5760405162461bcd60e51b81526020600482015260126024820152712737ba1022a9219b9918a932b1b2b4bb32b960711b60448201526064016107d8565b60006119b083836116bb565b806119d45750826001600160a01b03166119c983610881565b6001600160a01b0316145b9392505050565b610e9981611d5b565b80600160801b8110611a085760405162461bcd60e51b81526004016107d890612e26565b6000838152600f602090815260409182902084905581518581529081018490527f2f8c61aa79deaa9c961d54f640a154df4960a56a5989d25df0148be783dc3f5b91016116ae565b6001600160601b038116612710811115611aa75760405162461bcd60e51b8152602060048201526018602482015277526f79616c7479206665652065786365656420707269636560401b60448201526064016107d8565b6040805180820182526001600160a01b038581168083526001600160601b03868116602080860182815260008c8152600e835288902096519051909316600160a01b029290941691909117909355835188815291820152918201527f2595213009f64247e2789cf9981bcc53ee736a6aa52042a651aa1549ae6fff619060600160405180910390a150505050565b80600160801b8110611b595760405162461bcd60e51b81526004016107d890612e26565b60108290556040518281527f9f7a6492db3843bc01c0adb23cd27be964155c1d45c566f2ee32f28faf4eb6059060200160405180910390a15050565b60006001600160a01b0384163b1580610c235750604051630a85bd0160e11b808252906001600160a01b0386169063150b7a0290611bdd9033908a9089908990600401612fab565b602060405180830381600087803b158015611bf757600080fd5b505af1158015611c0b573d6000803e3d6000fd5b505050506040513d601f19601f82011682018060405250810190611c2f9190612fe8565b6001600160e01b0319161495945050505050565b6011805460ff1916821515908117909155604051339160ff161515907f8b265f737315073a655a642868ed756ba7e3b6c391b06dbbf70370aab7f7f06890600090a350565b6109c3838383611d80565b611cbe604051806040016040528060088152602001674f70656e4e46547360c01b8152506004611db0565b611cc88383611e1e565b6109c381611e92565b600c80546001600160a01b03838116610100818102610100600160a81b031985161790945560405193909204169182907f8be0079c531659141344cd1fd0a4f28419497f9722a3daafe3b4186f6b6457e090600090a35050565b60006001600160e01b03198216632e5e69fd60e01b14806107a357506107a382611eef565b6109c3838383611f14565b6000818152600e60209081526040808320839055600f909152812055610e9981611f4d565b611d8b83838361201f565b6109c38160105485611dab600c546001600160a01b036101009091041690565b612078565b601154610100900460ff1615611df55760405162461bcd60e51b815260206004820152600a6024820152694f6e6c79206f6e63652160b01b60448201526064016107d8565b6011805461ff0019166101001790558151611e17906012906020850190612732565b5060135550565b60045460ff1615611e5e5760405162461bcd60e51b815260206004820152600a6024820152694f6e6c79206f6e63652160b01b60448201526064016107d8565b6004805460ff191660011790558151611e7e906005906020850190612732565b5080516109c3906006906020840190612732565b600c5460ff1615611ed95760405162461bcd60e51b8152602060048201526011602482015270125b9a5d08185b1c9958591e4818d85b1b607a1b60448201526064016107d8565b600c805460ff19166001179055610e9981611cd1565b60006001600160e01b031982166398396bd360e01b14806107a357506107a382612251565b6000818152600f6020526040902054611f3390829084611dab83610f49565b6000818152600f60205260408120556109c3838383612276565b6000611f5882610f49565b9050611f64818361228a565b6000828152600b6020526040812054600854909190611f8590600190612f7c565b9050600060088281548110611f9c57611f9c612ea4565b6000918252602080832090910154808352600b909152604080832086905587835282209190915560088054919250829185908110611fdc57611fdc612ea4565b6000918252602090912001556008805480611ff957611ff9613005565b6001900381819060005260206000200160009055905561201885612398565b5050505050565b61202983826123b8565b600880546000838152600b60205260408120829055600182018355919091527ff3f7a9fe364faab93b216da50a3214154f22a0a2b415b23a84c8169e8b636ee3018190556109c38383836123f6565b34831561220d57838110156120c25760405162461bcd60e51b815260206004820152601060248201526f4e6f7420656e6f7567682066756e647360801b60448201526064016107d8565b6000806120cf87876109c8565b91509150858111156121175760405162461bcd60e51b8152602060048201526011602482015270496e76616c696420726f79616c7469657360781b60448201526064016107d8565b60006121238288612f7c565b9050801561216f576040516001600160a01b0386169082156108fc029083906000818181858888f19350505050158015612161573d6000803e3d6000fd5b5061216c8185612f7c565b93505b81156121b9576040516001600160a01b0384169083156108fc029084906000818181858888f193505050501580156121ab573d6000803e3d6000fd5b506121b68285612f7c565b93505b60408051898152602081018990526001600160a01b03888116828401528716606082015290517f3914c8962f5e7241220aedc853d15ae456e87f9f156489c7d0d1f682e69f98ce9181900360800190a15050505b8015612018576040516001600160a01b0384169082156108fc029083906000818181858888f19350505050158015612249573d6000803e3d6000fd5b505050505050565b60006001600160e01b03198216638351879960e01b14806107a357506107a382612421565b612280838261228a565b6109c382826123b8565b6000818152600a60205260408120549060016122a585611078565b6122af9190612f7c565b9050808214612346576001600160a01b03841660009081526009602052604081208054839081106122e2576122e2612ea4565b906000526020600020015490508060096000876001600160a01b03166001600160a01b03168152602001908152602001600020848154811061232657612326612ea4565b6000918252602080832090910192909255918252600a9052604090208290555b6000838152600a602090815260408083208390556001600160a01b03871683526009909152902080548061237c5761237c613005565b6001900381819060005260206000200160009055905550505050565b60008181526007602052604081206123af916127b6565b610e9981612446565b6001600160a01b0390911660009081526009602081815260408084208054868652600a84529185208290559282526001810183559183529091200155565b6000818152600760209081526040909120835161241592850190612732565b506109c3838383612512565b600063152a902d60e11b6001600160e01b0319831614806107a357506107a38261269d565b600061245182610f49565b6001600160a01b03811660009081526001602052604090205490915061247957612479612f66565b6001600160a01b038116600090815260016020819052604082208054919290916124a4908490612f7c565b9091555050600082815260026020908152604080832080546001600160a01b0319908116909155918390528083208054909216909155518391906001600160a01b038416907fddf252ad1be2c89b69c2b068fc378daa952ba7f163c4a11628f55a4df523b3ef908390a45050565b6001600160a01b03831661255f5760405162461bcd60e51b81526020600482015260146024820152734d696e7420746f207a65726f206164647265737360601b60448201526064016107d8565b6000818152602081905260409020546001600160a01b0316156125bb5760405162461bcd60e51b8152602060048201526014602482015273151bdad95b88185b1c9958591e481b5a5b9d195960621b60448201526064016107d8565b6001600160a01b038316600090815260016020819052604082208054919290916125e6908490612f93565b909155505060008181526020819052604080822080546001600160a01b0319166001600160a01b03871690811790915590518392907fddf252ad1be2c89b69c2b068fc378daa952ba7f163c4a11628f55a4df523b3ef908290a461265c6000848360405180602001604052806000815250611b95565b6109c35760405162461bcd60e51b8152602060048201526012602482015271139bdd08115490cdcc8c549958d95a5d995960721b60448201526064016107d8565b60006307f5828d60e41b6001600160e01b0319831614806107a357506107a382600063780e9d6360e01b6001600160e01b0319831614806107a357506107a3826000635b5e139f60e01b6001600160e01b0319831614806107a357506107a38260006380ac58cd60e01b6001600160e01b0319831614806107a357506001600160e01b031982166301ffc9a760e01b146107a3565b82805461273e90612deb565b90600052602060002090601f01602090048101928261276057600085556127a6565b82601f1061277957805160ff19168380011785556127a6565b828001600101855582156127a6579182015b828111156127a657825182559160200191906001019061278b565b506127b29291506127ec565b5090565b5080546127c290612deb565b6000825580601f106127d2575050565b601f016020900490600052602060002090810190610e9991905b5b808211156127b257600081556001016127ed565b6001600160e01b031981168114610e9957600080fd5b60006020828403121561282957600080fd5b81356119d481612801565b80356001600160a01b0381168114610fa157600080fd5b80356001600160601b0381168114610fa157600080fd5b6000806040838503121561287557600080fd5b61287e83612834565b915061288c6020840161284b565b90509250929050565b6000815180845260005b818110156128bb5760208185018101518683018201520161289f565b818111156128cd576000602083870101525b50601f01601f19169290920160200192915050565b6020815260006119d46020830184612895565b60006020828403121561290757600080fd5b5035919050565b6000806040838503121561292157600080fd5b61292a83612834565b946020939093013593505050565b60008060006060848603121561294d57600080fd5b61295684612834565b925061296460208501612834565b9150604084013590509250925092565b6000806040838503121561298757600080fd5b50508035926020909101359150565b634e487b7160e01b600052604160045260246000fd5b604051601f8201601f1916810167ffffffffffffffff811182821017156129d5576129d5612996565b604052919050565b600067ffffffffffffffff8311156129f7576129f7612996565b612a0a601f8401601f19166020016129ac565b9050828152838383011115612a1e57600080fd5b828260208301376000602084830101529392505050565b600082601f830112612a4657600080fd5b6119d4838335602085016129dd565b600080600080600060a08688031215612a6d57600080fd5b612a7686612834565b9450602086013567ffffffffffffffff811115612a9257600080fd5b612a9e88828901612a35565b94505060408601359250612ab460608701612834565b9150612ac26080870161284b565b90509295509295909350565b600060208284031215612ae057600080fd5b6119d482612834565b600080600060608486031215612afe57600080fd5b83359250612b0e60208501612834565b9150612b1c6040850161284b565b90509250925092565b8015158114610e9957600080fd5b60008060408385031215612b4657600080fd5b612b4f83612834565b91506020830135612b5f81612b25565b809150509250929050565b60008060008060808587031215612b8057600080fd5b612b8985612834565b9350612b9760208601612834565b925060408501359150606085013567ffffffffffffffff811115612bba57600080fd5b8501601f81018713612bcb57600080fd5b612bda878235602084016129dd565b91505092959194509250565b60008060408385031215612bf957600080fd5b612c0283612834565b9150602083013567ffffffffffffffff811115612c1e57600080fd5b612c2a85828601612a35565b9150509250929050565b600060208284031215612c4657600080fd5b813567ffffffffffffffff811115612c5d57600080fd5b61170e84828501612a35565b600080600080600080600060e0888a031215612c8457600080fd5b873567ffffffffffffffff80821115612c9c57600080fd5b612ca88b838c01612a35565b985060209150818a013581811115612cbf57600080fd5b612ccb8c828d01612a35565b985050612cda60408b01612834565b965060608a01359550612cef60808b01612834565b9450612cfd60a08b0161284b565b935060c08a013581811115612d1157600080fd5b8a01601f81018c13612d2257600080fd5b803582811115612d3457612d34612996565b8060051b9250612d458484016129ac565b818152928201840192848101908e851115612d5f57600080fd5b928501925b84841015612d895783359250612d7983612b25565b8282529285019290850190612d64565b80965050505050505092959891949750929550565b60008060408385031215612db157600080fd5b612dba83612834565b915061288c60208401612834565b6020808252600990820152682737ba1037bbb732b960b91b604082015260600190565b600181811c90821680612dff57607f821691505b60208210811415612e2057634e487b7160e01b600052602260045260246000fd5b50919050565b6020808252600d908201526c546f6f20657870656e7369766560981b604082015260600190565b634e487b7160e01b600052601160045260246000fd5b6000816000190483118215151615612e7d57612e7d612e4d565b500290565b600082612e9f57634e487b7160e01b600052601260045260246000fd5b500490565b634e487b7160e01b600052603260045260246000fd5b6020808252601c908201527f4e6f7420746f6b656e206f776e6572206e6f7220617070726f76656400000000604082015260600190565b600060208284031215612f0357600080fd5b81516119d481612b25565b600060208284031215612f2057600080fd5b5051919050565b80516020808301519190811015612e205760001960209190910360031b1b16919050565b6000600019821415612f5f57612f5f612e4d565b5060010190565b634e487b7160e01b600052600160045260246000fd5b600082821015612f8e57612f8e612e4d565b500390565b60008219821115612fa657612fa6612e4d565b500190565b6001600160a01b0385811682528416602082015260408101839052608060608201819052600090612fde90830184612895565b9695505050505050565b600060208284031215612ffa57600080fd5b81516119d481612801565b634e487b7160e01b600052603160045260246000fdfea2646970667358221220eb3695f371e6b395dca066477740481b20bd7824cc267e0d385edfcadafc820064736f6c63430008090033",
  "devdoc": {
    "kind": "dev",
    "methods": {
      "burn(uint256)": {
        "params": {
          "tokenID": "tokenID of NFT to burn"
        }
      },
      "setDefaultRoyalty(address,uint96)": {
        "params": {
          "fee": ": fee Numerator, less than 10000",
          "receiver": ": address of the royalty receiver, or address(0) to reset"
        }
      },
      "setTokenRoyalty(uint256,address,uint96)": {
        "params": {
          "fee": ": fee Numerator, less than 10000",
          "receiver": ": address of the royalty receiver, or address(0) to reset",
          "tokenID": ": token ID"
        }
      },
      "supportsInterface(bytes4)": {
        "params": {
          "interfaceId": "interfaceId to test"
        }
      }
    },
    "title": "OpenNFTs smartcontract",
    "version": 1
  },
  "userdoc": {
    "kind": "user",
    "methods": {
      "burn(uint256)": {
        "notice": "burn NFT"
      },
      "open()": {
        "notice": "Mint NFT allowed to everyone or only collection owner"
      },
      "setDefaultRoyalty(address,uint96)": {
        "notice": "SET default royalty configuration"
      },
      "setTokenRoyalty(uint256,address,uint96)": {
        "notice": "SET token royalty configuration"
      },
      "supportsInterface(bytes4)": {
        "notice": "test if this interface is supported"
      },
      "tokenIdNext()": {
        "notice": "tokenID of next minted NFT"
      },
      "withdraw(address)": {
        "notice": "withdraw token otherwise eth"
      }
    },
    "version": 1
  },
  "storageLayout": {
    "storage": [
      {
        "astId": 6766,
        "contract": "contracts/next/OpenNFTsV4.sol:OpenNFTsV4",
        "label": "_owners",
        "offset": 0,
        "slot": "0",
        "type": "t_mapping(t_uint256,t_address)"
      },
      {
        "astId": 6770,
        "contract": "contracts/next/OpenNFTsV4.sol:OpenNFTsV4",
        "label": "_balances",
        "offset": 0,
        "slot": "1",
        "type": "t_mapping(t_address,t_uint256)"
      },
      {
        "astId": 6774,
        "contract": "contracts/next/OpenNFTsV4.sol:OpenNFTsV4",
        "label": "_tokenApprovals",
        "offset": 0,
        "slot": "2",
        "type": "t_mapping(t_uint256,t_address)"
      },
      {
        "astId": 6780,
        "contract": "contracts/next/OpenNFTsV4.sol:OpenNFTsV4",
        "label": "_operatorApprovals",
        "offset": 0,
        "slot": "3",
        "type": "t_mapping(t_address,t_mapping(t_address,t_bool))"
      },
      {
        "astId": 7697,
        "contract": "contracts/next/OpenNFTsV4.sol:OpenNFTsV4",
        "label": "_openERC721MetadataInitialized",
        "offset": 0,
        "slot": "4",
        "type": "t_bool"
      },
      {
        "astId": 7699,
        "contract": "contracts/next/OpenNFTsV4.sol:OpenNFTsV4",
        "label": "_name",
        "offset": 0,
        "slot": "5",
        "type": "t_string_storage"
      },
      {
        "astId": 7701,
        "contract": "contracts/next/OpenNFTsV4.sol:OpenNFTsV4",
        "label": "_symbol",
        "offset": 0,
        "slot": "6",
        "type": "t_string_storage"
      },
      {
        "astId": 7705,
        "contract": "contracts/next/OpenNFTsV4.sol:OpenNFTsV4",
        "label": "_tokenURIs",
        "offset": 0,
        "slot": "7",
        "type": "t_mapping(t_uint256,t_string_storage)"
      },
      {
        "astId": 7374,
        "contract": "contracts/next/OpenNFTsV4.sol:OpenNFTsV4",
        "label": "_allTokens",
        "offset": 0,
        "slot": "8",
        "type": "t_array(t_uint256)dyn_storage"
      },
      {
        "astId": 7379,
        "contract": "contracts/next/OpenNFTsV4.sol:OpenNFTsV4",
        "label": "_ownedTokens",
        "offset": 0,
        "slot": "9",
        "type": "t_mapping(t_address,t_array(t_uint256)dyn_storage)"
      },
      {
        "astId": 7383,
        "contract": "contracts/next/OpenNFTsV4.sol:OpenNFTsV4",
        "label": "_ownedTokensIndex",
        "offset": 0,
        "slot": "10",
        "type": "t_mapping(t_uint256,t_uint256)"
      },
      {
        "astId": 7387,
        "contract": "contracts/next/OpenNFTsV4.sol:OpenNFTsV4",
        "label": "_allTokensIndex",
        "offset": 0,
        "slot": "11",
        "type": "t_mapping(t_uint256,t_uint256)"
      },
      {
        "astId": 6531,
        "contract": "contracts/next/OpenNFTsV4.sol:OpenNFTsV4",
        "label": "_openERC173Initialized",
        "offset": 0,
        "slot": "12",
        "type": "t_bool"
      },
      {
        "astId": 6533,
        "contract": "contracts/next/OpenNFTsV4.sol:OpenNFTsV4",
        "label": "_owner",
        "offset": 1,
        "slot": "12",
        "type": "t_address"
      },
      {
        "astId": 6645,
        "contract": "contracts/next/OpenNFTsV4.sol:OpenNFTsV4",
        "label": "_royaltyInfo",
        "offset": 0,
        "slot": "13",
        "type": "t_struct(RoyaltyInfo)6642_storage"
      },
      {
        "astId": 6650,
        "contract": "contracts/next/OpenNFTsV4.sol:OpenNFTsV4",
        "label": "_tokenRoyaltyInfo",
        "offset": 0,
        "slot": "14",
        "type": "t_mapping(t_uint256,t_struct(RoyaltyInfo)6642_storage)"
      },
      {
        "astId": 7942,
        "contract": "contracts/next/OpenNFTsV4.sol:OpenNFTsV4",
        "label": "tokenPrice",
        "offset": 0,
        "slot": "15",
        "type": "t_mapping(t_uint256,t_uint256)"
      },
      {
        "astId": 7944,
        "contract": "contracts/next/OpenNFTsV4.sol:OpenNFTsV4",
        "label": "defaultPrice",
        "offset": 0,
        "slot": "16",
        "type": "t_uint256"
      },
      {
        "astId": 8622,
        "contract": "contracts/next/OpenNFTsV4.sol:OpenNFTsV4",
        "label": "_paused",
        "offset": 0,
        "slot": "17",
        "type": "t_bool"
      },
      {
        "astId": 7870,
        "contract": "contracts/next/OpenNFTsV4.sol:OpenNFTsV4",
        "label": "initialized",
        "offset": 1,
        "slot": "17",
        "type": "t_bool"
      },
      {
        "astId": 7872,
        "contract": "contracts/next/OpenNFTsV4.sol:OpenNFTsV4",
        "label": "template",
        "offset": 0,
        "slot": "18",
        "type": "t_string_storage"
      },
      {
        "astId": 7874,
        "contract": "contracts/next/OpenNFTsV4.sol:OpenNFTsV4",
        "label": "version",
        "offset": 0,
        "slot": "19",
        "type": "t_uint256"
      },
      {
        "astId": 8373,
        "contract": "contracts/next/OpenNFTsV4.sol:OpenNFTsV4",
        "label": "tokenIdNext",
        "offset": 0,
        "slot": "20",
        "type": "t_uint256"
      },
      {
        "astId": 20498,
        "contract": "contracts/next/OpenNFTsV4.sol:OpenNFTsV4",
        "label": "open",
        "offset": 0,
        "slot": "21",
        "type": "t_bool"
      }
    ],
    "types": {
      "t_address": {
        "encoding": "inplace",
        "label": "address",
        "numberOfBytes": "20"
      },
      "t_array(t_uint256)dyn_storage": {
        "base": "t_uint256",
        "encoding": "dynamic_array",
        "label": "uint256[]",
        "numberOfBytes": "32"
      },
      "t_bool": {
        "encoding": "inplace",
        "label": "bool",
        "numberOfBytes": "1"
      },
      "t_mapping(t_address,t_array(t_uint256)dyn_storage)": {
        "encoding": "mapping",
        "key": "t_address",
        "label": "mapping(address => uint256[])",
        "numberOfBytes": "32",
        "value": "t_array(t_uint256)dyn_storage"
      },
      "t_mapping(t_address,t_bool)": {
        "encoding": "mapping",
        "key": "t_address",
        "label": "mapping(address => bool)",
        "numberOfBytes": "32",
        "value": "t_bool"
      },
      "t_mapping(t_address,t_mapping(t_address,t_bool))": {
        "encoding": "mapping",
        "key": "t_address",
        "label": "mapping(address => mapping(address => bool))",
        "numberOfBytes": "32",
        "value": "t_mapping(t_address,t_bool)"
      },
      "t_mapping(t_address,t_uint256)": {
        "encoding": "mapping",
        "key": "t_address",
        "label": "mapping(address => uint256)",
        "numberOfBytes": "32",
        "value": "t_uint256"
      },
      "t_mapping(t_uint256,t_address)": {
        "encoding": "mapping",
        "key": "t_uint256",
        "label": "mapping(uint256 => address)",
        "numberOfBytes": "32",
        "value": "t_address"
      },
      "t_mapping(t_uint256,t_string_storage)": {
        "encoding": "mapping",
        "key": "t_uint256",
        "label": "mapping(uint256 => string)",
        "numberOfBytes": "32",
        "value": "t_string_storage"
      },
      "t_mapping(t_uint256,t_struct(RoyaltyInfo)6642_storage)": {
        "encoding": "mapping",
        "key": "t_uint256",
        "label": "mapping(uint256 => struct OpenERC2981.RoyaltyInfo)",
        "numberOfBytes": "32",
        "value": "t_struct(RoyaltyInfo)6642_storage"
      },
      "t_mapping(t_uint256,t_uint256)": {
        "encoding": "mapping",
        "key": "t_uint256",
        "label": "mapping(uint256 => uint256)",
        "numberOfBytes": "32",
        "value": "t_uint256"
      },
      "t_string_storage": {
        "encoding": "bytes",
        "label": "string",
        "numberOfBytes": "32"
      },
      "t_struct(RoyaltyInfo)6642_storage": {
        "encoding": "inplace",
        "label": "struct OpenERC2981.RoyaltyInfo",
        "members": [
          {
            "astId": 6639,
            "contract": "contracts/next/OpenNFTsV4.sol:OpenNFTsV4",
            "label": "receiver",
            "offset": 0,
            "slot": "0",
            "type": "t_address"
          },
          {
            "astId": 6641,
            "contract": "contracts/next/OpenNFTsV4.sol:OpenNFTsV4",
            "label": "fraction",
            "offset": 20,
            "slot": "0",
            "type": "t_uint96"
          }
        ],
        "numberOfBytes": "32"
      },
      "t_uint256": {
        "encoding": "inplace",
        "label": "uint256",
        "numberOfBytes": "32"
      },
      "t_uint96": {
        "encoding": "inplace",
        "label": "uint96",
        "numberOfBytes": "12"
      }
    }
  }
}