{
  "address": "0x746052CA8273E4B0dD6A355eEB2C81683c2C40a0",
  "abi": [
    {
      "inputs": [],
      "stateMutability": "nonpayable",
      "type": "constructor"
    },
    {
      "anonymous": false,
      "inputs": [
        {
          "indexed": true,
          "internalType": "address",
          "name": "owner",
          "type": "address"
        },
        {
          "indexed": true,
          "internalType": "address",
          "name": "approved",
          "type": "address"
        },
        {
          "indexed": true,
          "internalType": "uint256",
          "name": "tokenId",
          "type": "uint256"
        }
      ],
      "name": "Approval",
      "type": "event"
    },
    {
      "anonymous": false,
      "inputs": [
        {
          "indexed": true,
          "internalType": "address",
          "name": "owner",
          "type": "address"
        },
        {
          "indexed": true,
          "internalType": "address",
          "name": "operator",
          "type": "address"
        },
        {
          "indexed": false,
          "internalType": "bool",
          "name": "approved",
          "type": "bool"
        }
      ],
      "name": "ApprovalForAll",
      "type": "event"
    },
    {
      "anonymous": false,
      "inputs": [
        {
          "indexed": true,
          "internalType": "address",
          "name": "from",
          "type": "address"
        },
        {
          "indexed": true,
          "internalType": "address",
          "name": "to",
          "type": "address"
        },
        {
          "indexed": true,
          "internalType": "uint256",
          "name": "tokenId",
          "type": "uint256"
        }
      ],
      "name": "Transfer",
      "type": "event"
    },
    {
      "inputs": [
        {
          "internalType": "address",
          "name": "minter",
          "type": "address"
        },
        {
          "internalType": "string",
          "name": "jsonURI",
          "type": "string"
        }
      ],
      "name": "adddUser",
      "outputs": [
        {
          "internalType": "uint256",
          "name": "",
          "type": "uint256"
        }
      ],
      "stateMutability": "nonpayable",
      "type": "function"
    },
    {
      "inputs": [
        {
          "internalType": "address",
          "name": "to",
          "type": "address"
        },
        {
          "internalType": "uint256",
          "name": "tokenId",
          "type": "uint256"
        }
      ],
      "name": "approve",
      "outputs": [],
      "stateMutability": "nonpayable",
      "type": "function"
    },
    {
      "inputs": [
        {
          "internalType": "address",
          "name": "owner",
          "type": "address"
        }
      ],
      "name": "balanceOf",
      "outputs": [
        {
          "internalType": "uint256",
          "name": "",
          "type": "uint256"
        }
      ],
      "stateMutability": "view",
      "type": "function"
    },
    {
      "inputs": [
        {
          "internalType": "uint256",
          "name": "tokenId",
          "type": "uint256"
        }
      ],
      "name": "getApproved",
      "outputs": [
        {
          "internalType": "address",
          "name": "",
          "type": "address"
        }
      ],
      "stateMutability": "view",
      "type": "function"
    },
    {
      "inputs": [
        {
          "internalType": "address",
          "name": "owner",
          "type": "address"
        },
        {
          "internalType": "address",
          "name": "operator",
          "type": "address"
        }
      ],
      "name": "isApprovedForAll",
      "outputs": [
        {
          "internalType": "bool",
          "name": "",
          "type": "bool"
        }
      ],
      "stateMutability": "view",
      "type": "function"
    },
    {
      "inputs": [],
      "name": "name",
      "outputs": [
        {
          "internalType": "string",
          "name": "",
          "type": "string"
        }
      ],
      "stateMutability": "view",
      "type": "function"
    },
    {
      "inputs": [
        {
          "internalType": "uint256",
          "name": "tokenId",
          "type": "uint256"
        }
      ],
      "name": "ownerOf",
      "outputs": [
        {
          "internalType": "address",
          "name": "",
          "type": "address"
        }
      ],
      "stateMutability": "view",
      "type": "function"
    },
    {
      "inputs": [
        {
          "internalType": "address",
          "name": "from",
          "type": "address"
        },
        {
          "internalType": "address",
          "name": "to",
          "type": "address"
        },
        {
          "internalType": "uint256",
          "name": "tokenId",
          "type": "uint256"
        }
      ],
      "name": "safeTransferFrom",
      "outputs": [],
      "stateMutability": "nonpayable",
      "type": "function"
    },
    {
      "inputs": [
        {
          "internalType": "address",
          "name": "from",
          "type": "address"
        },
        {
          "internalType": "address",
          "name": "to",
          "type": "address"
        },
        {
          "internalType": "uint256",
          "name": "tokenId",
          "type": "uint256"
        },
        {
          "internalType": "bytes",
          "name": "_data",
          "type": "bytes"
        }
      ],
      "name": "safeTransferFrom",
      "outputs": [],
      "stateMutability": "nonpayable",
      "type": "function"
    },
    {
      "inputs": [
        {
          "internalType": "address",
          "name": "operator",
          "type": "address"
        },
        {
          "internalType": "bool",
          "name": "approved",
          "type": "bool"
        }
      ],
      "name": "setApprovalForAll",
      "outputs": [],
      "stateMutability": "nonpayable",
      "type": "function"
    },
    {
      "inputs": [
        {
          "internalType": "bytes4",
          "name": "interfaceId",
          "type": "bytes4"
        }
      ],
      "name": "supportsInterface",
      "outputs": [
        {
          "internalType": "bool",
          "name": "",
          "type": "bool"
        }
      ],
      "stateMutability": "view",
      "type": "function"
    },
    {
      "inputs": [],
      "name": "symbol",
      "outputs": [
        {
          "internalType": "string",
          "name": "",
          "type": "string"
        }
      ],
      "stateMutability": "view",
      "type": "function"
    },
    {
      "inputs": [
        {
          "internalType": "uint256",
          "name": "index",
          "type": "uint256"
        }
      ],
      "name": "tokenByIndex",
      "outputs": [
        {
          "internalType": "uint256",
          "name": "",
          "type": "uint256"
        }
      ],
      "stateMutability": "view",
      "type": "function"
    },
    {
      "inputs": [
        {
          "internalType": "address",
          "name": "owner",
          "type": "address"
        },
        {
          "internalType": "uint256",
          "name": "index",
          "type": "uint256"
        }
      ],
      "name": "tokenOfOwnerByIndex",
      "outputs": [
        {
          "internalType": "uint256",
          "name": "",
          "type": "uint256"
        }
      ],
      "stateMutability": "view",
      "type": "function"
    },
    {
      "inputs": [
        {
          "internalType": "uint256",
          "name": "tokenId",
          "type": "uint256"
        }
      ],
      "name": "tokenURI",
      "outputs": [
        {
          "internalType": "string",
          "name": "",
          "type": "string"
        }
      ],
      "stateMutability": "view",
      "type": "function"
    },
    {
      "inputs": [],
      "name": "totalSupply",
      "outputs": [
        {
          "internalType": "uint256",
          "name": "",
          "type": "uint256"
        }
      ],
      "stateMutability": "view",
      "type": "function"
    },
    {
      "inputs": [
        {
          "internalType": "address",
          "name": "from",
          "type": "address"
        },
        {
          "internalType": "address",
          "name": "to",
          "type": "address"
        },
        {
          "internalType": "uint256",
          "name": "tokenId",
          "type": "uint256"
        }
      ],
      "name": "transferFrom",
      "outputs": [],
      "stateMutability": "nonpayable",
      "type": "function"
    }
  ],
  "transactionHash": "0xb69ede0173133792505ad3c170629dc24e752841c166a4270324b48d74e9a6de",
  "args": [],
  "numDeployments": 1,
  "solcInputHash": "74eaeb64232a20aeb887fb8f129b825f",
  "bytecode": "0x60806040523480156200001157600080fd5b5060408051808201825260098152684f70656e204e46547360b81b60208083019182528351808501909452600384526213919560ea1b9084015281519192916200005e916000916200007d565b508051620000749060019060208401906200007d565b50505062000160565b8280546200008b9062000123565b90600052602060002090601f016020900481019282620000af5760008555620000fa565b82601f10620000ca57805160ff1916838001178555620000fa565b82800160010185558215620000fa579182015b82811115620000fa578251825591602001919060010190620000dd565b50620001089291506200010c565b5090565b5b808211156200010857600081556001016200010d565b600181811c908216806200013857607f821691505b602082108114156200015a57634e487b7160e01b600052602260045260246000fd5b50919050565b611b7180620001706000396000f3fe608060405234801561001057600080fd5b506004361061010b5760003560e01c80634f6ccce7116100a257806395d89b411161007157806395d89b4114610224578063a22cb4651461022c578063b88d4fde1461023f578063c87b56dd14610252578063e985e9c51461026557600080fd5b80634f6ccce7146101d8578063547b2cb2146101eb5780636352211e146101fe57806370a082311461021157600080fd5b806318160ddd116100de57806318160ddd1461018d57806323b872dd1461019f5780632f745c59146101b257806342842e0e146101c557600080fd5b806301ffc9a71461011057806306fdde0314610138578063081812fc1461014d578063095ea7b314610178575b600080fd5b61012361011e3660046115f3565b6102a1565b60405190151581526020015b60405180910390f35b6101406102b2565b60405161012f9190611668565b61016061015b36600461167b565b610344565b6040516001600160a01b03909116815260200161012f565b61018b6101863660046116b0565b6103d1565b005b6008545b60405190815260200161012f565b61018b6101ad3660046116da565b6104e7565b6101916101c03660046116b0565b610518565b61018b6101d33660046116da565b6105ae565b6101916101e636600461167b565b6105c9565b6101916101f93660046117a2565b61065c565b61016061020c36600461167b565b610694565b61019161021f366004611804565b61070b565b610140610792565b61018b61023a36600461181f565b6107a1565b61018b61024d36600461185b565b6107b0565b61014061026036600461167b565b6107e8565b6101236102733660046118d7565b6001600160a01b03918216600090815260056020908152604080832093909416825291909152205460ff1690565b60006102ac826107f3565b92915050565b6060600080546102c19061190a565b80601f01602080910402602001604051908101604052809291908181526020018280546102ed9061190a565b801561033a5780601f1061030f5761010080835404028352916020019161033a565b820191906000526020600020905b81548152906001019060200180831161031d57829003601f168201915b5050505050905090565b600061034f82610818565b6103b55760405162461bcd60e51b815260206004820152602c60248201527f4552433732313a20617070726f76656420717565727920666f72206e6f6e657860448201526b34b9ba32b73a103a37b5b2b760a11b60648201526084015b60405180910390fd5b506000908152600460205260409020546001600160a01b031690565b60006103dc82610694565b9050806001600160a01b0316836001600160a01b0316141561044a5760405162461bcd60e51b815260206004820152602160248201527f4552433732313a20617070726f76616c20746f2063757272656e74206f776e656044820152603960f91b60648201526084016103ac565b336001600160a01b038216148061046657506104668133610273565b6104d85760405162461bcd60e51b815260206004820152603860248201527f4552433732313a20617070726f76652063616c6c6572206973206e6f74206f7760448201527f6e6572206e6f7220617070726f76656420666f7220616c6c000000000000000060648201526084016103ac565b6104e28383610835565b505050565b6104f133826108a3565b61050d5760405162461bcd60e51b81526004016103ac90611945565b6104e283838361098d565b60006105238361070b565b82106105855760405162461bcd60e51b815260206004820152602b60248201527f455243373231456e756d657261626c653a206f776e657220696e646578206f7560448201526a74206f6620626f756e647360a81b60648201526084016103ac565b506001600160a01b03919091166000908152600660209081526040808320938352929052205490565b6104e2838383604051806020016040528060008152506107b0565b60006105d460085490565b82106106375760405162461bcd60e51b815260206004820152602c60248201527f455243373231456e756d657261626c653a20676c6f62616c20696e646578206f60448201526b7574206f6620626f756e647360a01b60648201526084016103ac565b6008828154811061064a5761064a611996565b90600052602060002001549050919050565b600061066c600b80546001019055565b6000610677600b5490565b90506106838482610b34565b61068d8184610b4e565b9392505050565b6000818152600260205260408120546001600160a01b0316806102ac5760405162461bcd60e51b815260206004820152602960248201527f4552433732313a206f776e657220717565727920666f72206e6f6e657869737460448201526832b73a103a37b5b2b760b91b60648201526084016103ac565b60006001600160a01b0382166107765760405162461bcd60e51b815260206004820152602a60248201527f4552433732313a2062616c616e636520717565727920666f7220746865207a65604482015269726f206164647265737360b01b60648201526084016103ac565b506001600160a01b031660009081526003602052604090205490565b6060600180546102c19061190a565b6107ac338383610bd9565b5050565b6107ba33836108a3565b6107d65760405162461bcd60e51b81526004016103ac90611945565b6107e284848484610ca8565b50505050565b60606102ac82610cdb565b60006001600160e01b0319821663780e9d6360e01b14806102ac57506102ac82610e4a565b6000908152600260205260409020546001600160a01b0316151590565b600081815260046020526040902080546001600160a01b0319166001600160a01b038416908117909155819061086a82610694565b6001600160a01b03167f8c5be1e5ebec7d5bd14f71427d1e84f3dd0314c0f7b2291e5b200ac8c7c3b92560405160405180910390a45050565b60006108ae82610818565b61090f5760405162461bcd60e51b815260206004820152602c60248201527f4552433732313a206f70657261746f7220717565727920666f72206e6f6e657860448201526b34b9ba32b73a103a37b5b2b760a11b60648201526084016103ac565b600061091a83610694565b9050806001600160a01b0316846001600160a01b0316148061096157506001600160a01b0380821660009081526005602090815260408083209388168352929052205460ff165b806109855750836001600160a01b031661097a84610344565b6001600160a01b0316145b949350505050565b826001600160a01b03166109a082610694565b6001600160a01b031614610a045760405162461bcd60e51b815260206004820152602560248201527f4552433732313a207472616e736665722066726f6d20696e636f72726563742060448201526437bbb732b960d91b60648201526084016103ac565b6001600160a01b038216610a665760405162461bcd60e51b8152602060048201526024808201527f4552433732313a207472616e7366657220746f20746865207a65726f206164646044820152637265737360e01b60648201526084016103ac565b610a71838383610e9a565b610a7c600082610835565b6001600160a01b0383166000908152600360205260408120805460019290610aa59084906119c2565b90915550506001600160a01b0382166000908152600360205260408120805460019290610ad39084906119d9565b909155505060008181526002602052604080822080546001600160a01b0319166001600160a01b0386811691821790925591518493918716917fddf252ad1be2c89b69c2b068fc378daa952ba7f163c4a11628f55a4df523b3ef91a4505050565b6107ac828260405180602001604052806000815250610ea5565b610b5782610818565b610bba5760405162461bcd60e51b815260206004820152602e60248201527f45524337323155524953746f726167653a2055524920736574206f66206e6f6e60448201526d32bc34b9ba32b73a103a37b5b2b760911b60648201526084016103ac565b6000828152600a6020908152604090912082516104e292840190611541565b816001600160a01b0316836001600160a01b03161415610c3b5760405162461bcd60e51b815260206004820152601960248201527f4552433732313a20617070726f766520746f2063616c6c65720000000000000060448201526064016103ac565b6001600160a01b03838116600081815260056020908152604080832094871680845294825291829020805460ff191686151590811790915591519182527f17307eab39ab6107e8899845ad3d59bd9653f200f220920489ca2b5937696c31910160405180910390a3505050565b610cb384848461098d565b610cbf84848484610ed8565b6107e25760405162461bcd60e51b81526004016103ac906119f1565b6060610ce682610818565b610d4c5760405162461bcd60e51b815260206004820152603160248201527f45524337323155524953746f726167653a2055524920717565727920666f72206044820152703737b732bc34b9ba32b73a103a37b5b2b760791b60648201526084016103ac565b6000828152600a602052604081208054610d659061190a565b80601f0160208091040260200160405190810160405280929190818152602001828054610d919061190a565b8015610dde5780601f10610db357610100808354040283529160200191610dde565b820191906000526020600020905b815481529060010190602001808311610dc157829003601f168201915b505050505090506000610dfc60408051602081019091526000815290565b9050805160001415610e0f575092915050565b815115610e41578082604051602001610e29929190611a43565b60405160208183030381529060405292505050919050565b61098584610fe5565b60006001600160e01b031982166380ac58cd60e01b1480610e7b57506001600160e01b03198216635b5e139f60e01b145b806102ac57506301ffc9a760e01b6001600160e01b03198316146102ac565b6104e28383836110bc565b610eaf8383611174565b610ebc6000848484610ed8565b6104e25760405162461bcd60e51b81526004016103ac906119f1565b60006001600160a01b0384163b15610fda57604051630a85bd0160e11b81526001600160a01b0385169063150b7a0290610f1c903390899088908890600401611a72565b602060405180830381600087803b158015610f3657600080fd5b505af1925050508015610f66575060408051601f3d908101601f19168201909252610f6391810190611aaf565b60015b610fc0573d808015610f94576040519150601f19603f3d011682016040523d82523d6000602084013e610f99565b606091505b508051610fb85760405162461bcd60e51b81526004016103ac906119f1565b805181602001fd5b6001600160e01b031916630a85bd0160e11b149050610985565b506001949350505050565b6060610ff082610818565b6110545760405162461bcd60e51b815260206004820152602f60248201527f4552433732314d657461646174613a2055524920717565727920666f72206e6f60448201526e3732bc34b9ba32b73a103a37b5b2b760891b60648201526084016103ac565b600061106b60408051602081019091526000815290565b9050600081511161108b576040518060200160405280600081525061068d565b80611095846112b3565b6040516020016110a6929190611a43565b6040516020818303038152906040529392505050565b6001600160a01b0383166111175761111281600880546000838152600960205260408120829055600182018355919091527ff3f7a9fe364faab93b216da50a3214154f22a0a2b415b23a84c8169e8b636ee30155565b61113a565b816001600160a01b0316836001600160a01b03161461113a5761113a83826113b1565b6001600160a01b038216611151576104e28161144e565b826001600160a01b0316826001600160a01b0316146104e2576104e282826114fd565b6001600160a01b0382166111ca5760405162461bcd60e51b815260206004820181905260248201527f4552433732313a206d696e7420746f20746865207a65726f206164647265737360448201526064016103ac565b6111d381610818565b156112205760405162461bcd60e51b815260206004820152601c60248201527f4552433732313a20746f6b656e20616c7265616479206d696e7465640000000060448201526064016103ac565b61122c60008383610e9a565b6001600160a01b03821660009081526003602052604081208054600192906112559084906119d9565b909155505060008181526002602052604080822080546001600160a01b0319166001600160a01b03861690811790915590518392907fddf252ad1be2c89b69c2b068fc378daa952ba7f163c4a11628f55a4df523b3ef908290a45050565b6060816112d75750506040805180820190915260018152600360fc1b602082015290565b8160005b811561130157806112eb81611acc565b91506112fa9050600a83611afd565b91506112db565b60008167ffffffffffffffff81111561131c5761131c611716565b6040519080825280601f01601f191660200182016040528015611346576020820181803683370190505b5090505b84156109855761135b6001836119c2565b9150611368600a86611b11565b6113739060306119d9565b60f81b81838151811061138857611388611996565b60200101906001600160f81b031916908160001a9053506113aa600a86611afd565b945061134a565b600060016113be8461070b565b6113c891906119c2565b60008381526007602052604090205490915080821461141b576001600160a01b03841660009081526006602090815260408083208584528252808320548484528184208190558352600790915290208190555b5060009182526007602090815260408084208490556001600160a01b039094168352600681528383209183525290812055565b600854600090611460906001906119c2565b6000838152600960205260408120546008805493945090928490811061148857611488611996565b9060005260206000200154905080600883815481106114a9576114a9611996565b60009182526020808320909101929092558281526009909152604080822084905585825281205560088054806114e1576114e1611b25565b6001900381819060005260206000200160009055905550505050565b60006115088361070b565b6001600160a01b039093166000908152600660209081526040808320868452825280832085905593825260079052919091209190915550565b82805461154d9061190a565b90600052602060002090601f01602090048101928261156f57600085556115b5565b82601f1061158857805160ff19168380011785556115b5565b828001600101855582156115b5579182015b828111156115b557825182559160200191906001019061159a565b506115c19291506115c5565b5090565b5b808211156115c157600081556001016115c6565b6001600160e01b0319811681146115f057600080fd5b50565b60006020828403121561160557600080fd5b813561068d816115da565b60005b8381101561162b578181015183820152602001611613565b838111156107e25750506000910152565b60008151808452611654816020860160208601611610565b601f01601f19169290920160200192915050565b60208152600061068d602083018461163c565b60006020828403121561168d57600080fd5b5035919050565b80356001600160a01b03811681146116ab57600080fd5b919050565b600080604083850312156116c357600080fd5b6116cc83611694565b946020939093013593505050565b6000806000606084860312156116ef57600080fd5b6116f884611694565b925061170660208501611694565b9150604084013590509250925092565b634e487b7160e01b600052604160045260246000fd5b600067ffffffffffffffff8084111561174757611747611716565b604051601f8501601f19908116603f0116810190828211818310171561176f5761176f611716565b8160405280935085815286868601111561178857600080fd5b858560208301376000602087830101525050509392505050565b600080604083850312156117b557600080fd5b6117be83611694565b9150602083013567ffffffffffffffff8111156117da57600080fd5b8301601f810185136117eb57600080fd5b6117fa8582356020840161172c565b9150509250929050565b60006020828403121561181657600080fd5b61068d82611694565b6000806040838503121561183257600080fd5b61183b83611694565b91506020830135801515811461185057600080fd5b809150509250929050565b6000806000806080858703121561187157600080fd5b61187a85611694565b935061188860208601611694565b925060408501359150606085013567ffffffffffffffff8111156118ab57600080fd5b8501601f810187136118bc57600080fd5b6118cb8782356020840161172c565b91505092959194509250565b600080604083850312156118ea57600080fd5b6118f383611694565b915061190160208401611694565b90509250929050565b600181811c9082168061191e57607f821691505b6020821081141561193f57634e487b7160e01b600052602260045260246000fd5b50919050565b60208082526031908201527f4552433732313a207472616e736665722063616c6c6572206973206e6f74206f6040820152701ddb995c881b9bdc88185c1c1c9bdd9959607a1b606082015260800190565b634e487b7160e01b600052603260045260246000fd5b634e487b7160e01b600052601160045260246000fd5b6000828210156119d4576119d46119ac565b500390565b600082198211156119ec576119ec6119ac565b500190565b60208082526032908201527f4552433732313a207472616e7366657220746f206e6f6e20455243373231526560408201527131b2b4bb32b91034b6b83632b6b2b73a32b960711b606082015260800190565b60008351611a55818460208801611610565b835190830190611a69818360208801611610565b01949350505050565b6001600160a01b0385811682528416602082015260408101839052608060608201819052600090611aa59083018461163c565b9695505050505050565b600060208284031215611ac157600080fd5b815161068d816115da565b6000600019821415611ae057611ae06119ac565b5060010190565b634e487b7160e01b600052601260045260246000fd5b600082611b0c57611b0c611ae7565b500490565b600082611b2057611b20611ae7565b500690565b634e487b7160e01b600052603160045260246000fdfea2646970667358221220dff5635e534029d255e8cf4c8c0b109a18bdfe2c3982cbd3eec6f5386475d2eb64736f6c63430008090033",
  "devdoc": {
    "kind": "dev",
    "methods": {
      "approve(address,uint256)": {
        "details": "See {IERC721-approve}."
      },
      "balanceOf(address)": {
        "details": "See {IERC721-balanceOf}."
      },
      "getApproved(uint256)": {
        "details": "See {IERC721-getApproved}."
      },
      "isApprovedForAll(address,address)": {
        "details": "See {IERC721-isApprovedForAll}."
      },
      "name()": {
        "details": "See {IERC721Metadata-name}."
      },
      "ownerOf(uint256)": {
        "details": "See {IERC721-ownerOf}."
      },
      "safeTransferFrom(address,address,uint256)": {
        "details": "See {IERC721-safeTransferFrom}."
      },
      "safeTransferFrom(address,address,uint256,bytes)": {
        "details": "See {IERC721-safeTransferFrom}."
      },
      "setApprovalForAll(address,bool)": {
        "details": "See {IERC721-setApprovalForAll}."
      },
      "symbol()": {
        "details": "See {IERC721Metadata-symbol}."
      },
      "tokenByIndex(uint256)": {
        "details": "See {IERC721Enumerable-tokenByIndex}."
      },
      "tokenOfOwnerByIndex(address,uint256)": {
        "details": "See {IERC721Enumerable-tokenOfOwnerByIndex}."
      },
      "totalSupply()": {
        "details": "See {IERC721Enumerable-totalSupply}."
      },
      "transferFrom(address,address,uint256)": {
        "details": "See {IERC721-transferFrom}."
      }
    },
    "version": 1
  },
  "userdoc": {
    "kind": "user",
    "methods": {},
    "version": 1
  },
  "storageLayout": {
    "storage": [
      {
        "astId": 3098,
        "contract": "contracts/OpenNFTsV0.sol:OpenNFTsV0",
        "label": "_name",
        "offset": 0,
        "slot": "0",
        "type": "t_string_storage"
      },
      {
        "astId": 3100,
        "contract": "contracts/OpenNFTsV0.sol:OpenNFTsV0",
        "label": "_symbol",
        "offset": 0,
        "slot": "1",
        "type": "t_string_storage"
      },
      {
        "astId": 3104,
        "contract": "contracts/OpenNFTsV0.sol:OpenNFTsV0",
        "label": "_owners",
        "offset": 0,
        "slot": "2",
        "type": "t_mapping(t_uint256,t_address)"
      },
      {
        "astId": 3108,
        "contract": "contracts/OpenNFTsV0.sol:OpenNFTsV0",
        "label": "_balances",
        "offset": 0,
        "slot": "3",
        "type": "t_mapping(t_address,t_uint256)"
      },
      {
        "astId": 3112,
        "contract": "contracts/OpenNFTsV0.sol:OpenNFTsV0",
        "label": "_tokenApprovals",
        "offset": 0,
        "slot": "4",
        "type": "t_mapping(t_uint256,t_address)"
      },
      {
        "astId": 3118,
        "contract": "contracts/OpenNFTsV0.sol:OpenNFTsV0",
        "label": "_operatorApprovals",
        "offset": 0,
        "slot": "5",
        "type": "t_mapping(t_address,t_mapping(t_address,t_bool))"
      },
      {
        "astId": 4117,
        "contract": "contracts/OpenNFTsV0.sol:OpenNFTsV0",
        "label": "_ownedTokens",
        "offset": 0,
        "slot": "6",
        "type": "t_mapping(t_address,t_mapping(t_uint256,t_uint256))"
      },
      {
        "astId": 4121,
        "contract": "contracts/OpenNFTsV0.sol:OpenNFTsV0",
        "label": "_ownedTokensIndex",
        "offset": 0,
        "slot": "7",
        "type": "t_mapping(t_uint256,t_uint256)"
      },
      {
        "astId": 4124,
        "contract": "contracts/OpenNFTsV0.sol:OpenNFTsV0",
        "label": "_allTokens",
        "offset": 0,
        "slot": "8",
        "type": "t_array(t_uint256)dyn_storage"
      },
      {
        "astId": 4128,
        "contract": "contracts/OpenNFTsV0.sol:OpenNFTsV0",
        "label": "_allTokensIndex",
        "offset": 0,
        "slot": "9",
        "type": "t_mapping(t_uint256,t_uint256)"
      },
      {
        "astId": 4453,
        "contract": "contracts/OpenNFTsV0.sol:OpenNFTsV0",
        "label": "_tokenURIs",
        "offset": 0,
        "slot": "10",
        "type": "t_mapping(t_uint256,t_string_storage)"
      },
      {
        "astId": 6530,
        "contract": "contracts/OpenNFTsV0.sol:OpenNFTsV0",
        "label": "_tokenIds",
        "offset": 0,
        "slot": "11",
        "type": "t_struct(Counter)4949_storage"
      }
    ],
    "types": {
      "t_address": {
        "encoding": "inplace",
        "label": "address",
        "numberOfBytes": "20"
      },
      "t_array(t_uint256)dyn_storage": {
        "base": "t_uint256",
        "encoding": "dynamic_array",
        "label": "uint256[]",
        "numberOfBytes": "32"
      },
      "t_bool": {
        "encoding": "inplace",
        "label": "bool",
        "numberOfBytes": "1"
      },
      "t_mapping(t_address,t_bool)": {
        "encoding": "mapping",
        "key": "t_address",
        "label": "mapping(address => bool)",
        "numberOfBytes": "32",
        "value": "t_bool"
      },
      "t_mapping(t_address,t_mapping(t_address,t_bool))": {
        "encoding": "mapping",
        "key": "t_address",
        "label": "mapping(address => mapping(address => bool))",
        "numberOfBytes": "32",
        "value": "t_mapping(t_address,t_bool)"
      },
      "t_mapping(t_address,t_mapping(t_uint256,t_uint256))": {
        "encoding": "mapping",
        "key": "t_address",
        "label": "mapping(address => mapping(uint256 => uint256))",
        "numberOfBytes": "32",
        "value": "t_mapping(t_uint256,t_uint256)"
      },
      "t_mapping(t_address,t_uint256)": {
        "encoding": "mapping",
        "key": "t_address",
        "label": "mapping(address => uint256)",
        "numberOfBytes": "32",
        "value": "t_uint256"
      },
      "t_mapping(t_uint256,t_address)": {
        "encoding": "mapping",
        "key": "t_uint256",
        "label": "mapping(uint256 => address)",
        "numberOfBytes": "32",
        "value": "t_address"
      },
      "t_mapping(t_uint256,t_string_storage)": {
        "encoding": "mapping",
        "key": "t_uint256",
        "label": "mapping(uint256 => string)",
        "numberOfBytes": "32",
        "value": "t_string_storage"
      },
      "t_mapping(t_uint256,t_uint256)": {
        "encoding": "mapping",
        "key": "t_uint256",
        "label": "mapping(uint256 => uint256)",
        "numberOfBytes": "32",
        "value": "t_uint256"
      },
      "t_string_storage": {
        "encoding": "bytes",
        "label": "string",
        "numberOfBytes": "32"
      },
      "t_struct(Counter)4949_storage": {
        "encoding": "inplace",
        "label": "struct Counters.Counter",
        "members": [
          {
            "astId": 4948,
            "contract": "contracts/OpenNFTsV0.sol:OpenNFTsV0",
            "label": "_value",
            "offset": 0,
            "slot": "0",
            "type": "t_uint256"
          }
        ],
        "numberOfBytes": "32"
      },
      "t_uint256": {
        "encoding": "inplace",
        "label": "uint256",
        "numberOfBytes": "32"
      }
    }
  }
}