{
  "address": "0x2F08Ac39B1e77F58f2A6734bd76755620E178d09",
  "abi": [
    {
      "anonymous": false,
      "inputs": [
        {
          "indexed": true,
          "internalType": "address",
          "name": "owner",
          "type": "address"
        },
        {
          "indexed": true,
          "internalType": "address",
          "name": "approved",
          "type": "address"
        },
        {
          "indexed": true,
          "internalType": "uint256",
          "name": "tokenId",
          "type": "uint256"
        }
      ],
      "name": "Approval",
      "type": "event"
    },
    {
      "anonymous": false,
      "inputs": [
        {
          "indexed": true,
          "internalType": "address",
          "name": "owner",
          "type": "address"
        },
        {
          "indexed": true,
          "internalType": "address",
          "name": "operator",
          "type": "address"
        },
        {
          "indexed": false,
          "internalType": "bool",
          "name": "approved",
          "type": "bool"
        }
      ],
      "name": "ApprovalForAll",
      "type": "event"
    },
    {
      "anonymous": false,
      "inputs": [
        {
          "indexed": true,
          "internalType": "address",
          "name": "previousOwner",
          "type": "address"
        },
        {
          "indexed": true,
          "internalType": "address",
          "name": "newOwner",
          "type": "address"
        }
      ],
      "name": "OwnershipTransferred",
      "type": "event"
    },
    {
      "anonymous": false,
      "inputs": [
        {
          "indexed": false,
          "internalType": "uint256",
          "name": "tokenID",
          "type": "uint256"
        },
        {
          "indexed": false,
          "internalType": "uint256",
          "name": "price",
          "type": "uint256"
        },
        {
          "indexed": false,
          "internalType": "address",
          "name": "payer",
          "type": "address"
        },
        {
          "indexed": false,
          "internalType": "address",
          "name": "payee",
          "type": "address"
        }
      ],
      "name": "Pay",
      "type": "event"
    },
    {
      "anonymous": false,
      "inputs": [
        {
          "indexed": false,
          "internalType": "uint256",
          "name": "price",
          "type": "uint256"
        }
      ],
      "name": "SetDefaultPrice",
      "type": "event"
    },
    {
      "anonymous": false,
      "inputs": [
        {
          "indexed": false,
          "internalType": "address",
          "name": "receiver",
          "type": "address"
        },
        {
          "indexed": false,
          "internalType": "uint96",
          "name": "fee",
          "type": "uint96"
        }
      ],
      "name": "SetDefaultRoyalty",
      "type": "event"
    },
    {
      "anonymous": false,
      "inputs": [
        {
          "indexed": true,
          "internalType": "bool",
          "name": "paused",
          "type": "bool"
        },
        {
          "indexed": true,
          "internalType": "address",
          "name": "account",
          "type": "address"
        }
      ],
      "name": "SetPaused",
      "type": "event"
    },
    {
      "anonymous": false,
      "inputs": [
        {
          "indexed": false,
          "internalType": "uint256",
          "name": "tokenID",
          "type": "uint256"
        },
        {
          "indexed": false,
          "internalType": "uint256",
          "name": "price",
          "type": "uint256"
        }
      ],
      "name": "SetTokenPrice",
      "type": "event"
    },
    {
      "anonymous": false,
      "inputs": [
        {
          "indexed": false,
          "internalType": "uint256",
          "name": "tokenID",
          "type": "uint256"
        },
        {
          "indexed": false,
          "internalType": "address",
          "name": "receiver",
          "type": "address"
        },
        {
          "indexed": false,
          "internalType": "uint96",
          "name": "fee",
          "type": "uint96"
        }
      ],
      "name": "SetTokenRoyalty",
      "type": "event"
    },
    {
      "anonymous": false,
      "inputs": [
        {
          "indexed": true,
          "internalType": "address",
          "name": "from",
          "type": "address"
        },
        {
          "indexed": true,
          "internalType": "address",
          "name": "to",
          "type": "address"
        },
        {
          "indexed": true,
          "internalType": "uint256",
          "name": "tokenId",
          "type": "uint256"
        }
      ],
      "name": "Transfer",
      "type": "event"
    },
    {
      "inputs": [
        {
          "internalType": "address",
          "name": "spender",
          "type": "address"
        },
        {
          "internalType": "uint256",
          "name": "tokenID",
          "type": "uint256"
        }
      ],
      "name": "approve",
      "outputs": [],
      "stateMutability": "payable",
      "type": "function"
    },
    {
      "inputs": [
        {
          "internalType": "address",
          "name": "owner",
          "type": "address"
        }
      ],
      "name": "balanceOf",
      "outputs": [
        {
          "internalType": "uint256",
          "name": "",
          "type": "uint256"
        }
      ],
      "stateMutability": "view",
      "type": "function"
    },
    {
      "inputs": [
        {
          "internalType": "uint256",
          "name": "tokenID",
          "type": "uint256"
        }
      ],
      "name": "burn",
      "outputs": [],
      "stateMutability": "nonpayable",
      "type": "function"
    },
    {
      "inputs": [
        {
          "internalType": "uint256",
          "name": "tokenID",
          "type": "uint256"
        }
      ],
      "name": "buy",
      "outputs": [],
      "stateMutability": "payable",
      "type": "function"
    },
    {
      "inputs": [
        {
          "internalType": "address",
          "name": "account",
          "type": "address"
        },
        {
          "internalType": "bytes4[]",
          "name": "interfaceIds",
          "type": "bytes4[]"
        }
      ],
      "name": "checkSupportedInterfaces",
      "outputs": [
        {
          "internalType": "bool[]",
          "name": "interfaceIdsChecker",
          "type": "bool[]"
        }
      ],
      "stateMutability": "view",
      "type": "function"
    },
    {
      "inputs": [],
      "name": "defaultPrice",
      "outputs": [
        {
          "internalType": "uint256",
          "name": "",
          "type": "uint256"
        }
      ],
      "stateMutability": "view",
      "type": "function"
    },
    {
      "inputs": [
        {
          "internalType": "uint256",
          "name": "tokenID",
          "type": "uint256"
        }
      ],
      "name": "getApproved",
      "outputs": [
        {
          "internalType": "address",
          "name": "",
          "type": "address"
        }
      ],
      "stateMutability": "view",
      "type": "function"
    },
    {
      "inputs": [],
      "name": "getTemplate",
      "outputs": [
        {
          "internalType": "string",
          "name": "",
          "type": "string"
        }
      ],
      "stateMutability": "view",
      "type": "function"
    },
    {
      "inputs": [],
      "name": "getVersion",
      "outputs": [
        {
          "internalType": "uint256",
          "name": "",
          "type": "uint256"
        }
      ],
      "stateMutability": "view",
      "type": "function"
    },
    {
      "inputs": [
        {
          "internalType": "string",
          "name": "name_",
          "type": "string"
        },
        {
          "internalType": "string",
          "name": "symbol_",
          "type": "string"
        },
        {
          "internalType": "address",
          "name": "owner_",
          "type": "address"
        },
        {
          "internalType": "bool[]",
          "name": "options",
          "type": "bool[]"
        }
      ],
      "name": "initialize",
      "outputs": [],
      "stateMutability": "nonpayable",
      "type": "function"
    },
    {
      "inputs": [
        {
          "internalType": "address",
          "name": "owner",
          "type": "address"
        },
        {
          "internalType": "address",
          "name": "operator",
          "type": "address"
        }
      ],
      "name": "isApprovedForAll",
      "outputs": [
        {
          "internalType": "bool",
          "name": "",
          "type": "bool"
        }
      ],
      "stateMutability": "view",
      "type": "function"
    },
    {
      "inputs": [
        {
          "internalType": "string",
          "name": "tokenURI",
          "type": "string"
        },
        {
          "internalType": "uint256",
          "name": "price",
          "type": "uint256"
        },
        {
          "internalType": "address",
          "name": "receiver",
          "type": "address"
        },
        {
          "internalType": "uint96",
          "name": "fee",
          "type": "uint96"
        }
      ],
      "name": "mint",
      "outputs": [
        {
          "internalType": "uint256",
          "name": "tokenID",
          "type": "uint256"
        }
      ],
      "stateMutability": "payable",
      "type": "function"
    },
    {
      "inputs": [
        {
          "internalType": "address",
          "name": "minter",
          "type": "address"
        },
        {
          "internalType": "string",
          "name": "tokenURI",
          "type": "string"
        }
      ],
      "name": "mint",
      "outputs": [
        {
          "internalType": "uint256",
          "name": "tokenID",
          "type": "uint256"
        }
      ],
      "stateMutability": "nonpayable",
      "type": "function"
    },
    {
      "inputs": [
        {
          "internalType": "string",
          "name": "tokenURI",
          "type": "string"
        }
      ],
      "name": "mint",
      "outputs": [
        {
          "internalType": "uint256",
          "name": "tokenID",
          "type": "uint256"
        }
      ],
      "stateMutability": "nonpayable",
      "type": "function"
    },
    {
      "inputs": [],
      "name": "name",
      "outputs": [
        {
          "internalType": "string",
          "name": "",
          "type": "string"
        }
      ],
      "stateMutability": "view",
      "type": "function"
    },
    {
      "inputs": [],
      "name": "open",
      "outputs": [
        {
          "internalType": "bool",
          "name": "",
          "type": "bool"
        }
      ],
      "stateMutability": "view",
      "type": "function"
    },
    {
      "inputs": [],
      "name": "owner",
      "outputs": [
        {
          "internalType": "address",
          "name": "",
          "type": "address"
        }
      ],
      "stateMutability": "view",
      "type": "function"
    },
    {
      "inputs": [
        {
          "internalType": "uint256",
          "name": "tokenID",
          "type": "uint256"
        }
      ],
      "name": "ownerOf",
      "outputs": [
        {
          "internalType": "address",
          "name": "owner",
          "type": "address"
        }
      ],
      "stateMutability": "view",
      "type": "function"
    },
    {
      "inputs": [],
      "name": "paused",
      "outputs": [
        {
          "internalType": "bool",
          "name": "",
          "type": "bool"
        }
      ],
      "stateMutability": "view",
      "type": "function"
    },
    {
      "inputs": [
        {
          "internalType": "uint256",
          "name": "tokenID",
          "type": "uint256"
        },
        {
          "internalType": "uint256",
          "name": "price",
          "type": "uint256"
        }
      ],
      "name": "royaltyInfo",
      "outputs": [
        {
          "internalType": "address",
          "name": "receiver",
          "type": "address"
        },
        {
          "internalType": "uint256",
          "name": "royaltyAmount",
          "type": "uint256"
        }
      ],
      "stateMutability": "view",
      "type": "function"
    },
    {
      "inputs": [
        {
          "internalType": "address",
          "name": "from",
          "type": "address"
        },
        {
          "internalType": "address",
          "name": "to",
          "type": "address"
        },
        {
          "internalType": "uint256",
          "name": "tokenID",
          "type": "uint256"
        }
      ],
      "name": "safeTransferFrom",
      "outputs": [],
      "stateMutability": "payable",
      "type": "function"
    },
    {
      "inputs": [
        {
          "internalType": "address",
          "name": "from",
          "type": "address"
        },
        {
          "internalType": "address",
          "name": "to",
          "type": "address"
        },
        {
          "internalType": "uint256",
          "name": "tokenID",
          "type": "uint256"
        },
        {
          "internalType": "bytes",
          "name": "data",
          "type": "bytes"
        }
      ],
      "name": "safeTransferFrom",
      "outputs": [],
      "stateMutability": "payable",
      "type": "function"
    },
    {
      "inputs": [
        {
          "internalType": "address",
          "name": "operator",
          "type": "address"
        },
        {
          "internalType": "bool",
          "name": "approved",
          "type": "bool"
        }
      ],
      "name": "setApprovalForAll",
      "outputs": [],
      "stateMutability": "nonpayable",
      "type": "function"
    },
    {
      "inputs": [
        {
          "internalType": "uint256",
          "name": "price",
          "type": "uint256"
        }
      ],
      "name": "setDefaultPrice",
      "outputs": [],
      "stateMutability": "nonpayable",
      "type": "function"
    },
    {
      "inputs": [
        {
          "internalType": "address",
          "name": "receiver",
          "type": "address"
        },
        {
          "internalType": "uint96",
          "name": "fee",
          "type": "uint96"
        }
      ],
      "name": "setDefaultRoyalty",
      "outputs": [],
      "stateMutability": "nonpayable",
      "type": "function"
    },
    {
      "inputs": [
        {
          "internalType": "uint256",
          "name": "tokenID",
          "type": "uint256"
        }
      ],
      "name": "setTokenPrice",
      "outputs": [],
      "stateMutability": "nonpayable",
      "type": "function"
    },
    {
      "inputs": [
        {
          "internalType": "uint256",
          "name": "tokenID",
          "type": "uint256"
        },
        {
          "internalType": "uint256",
          "name": "price",
          "type": "uint256"
        }
      ],
      "name": "setTokenPrice",
      "outputs": [],
      "stateMutability": "nonpayable",
      "type": "function"
    },
    {
      "inputs": [
        {
          "internalType": "uint256",
          "name": "tokenID",
          "type": "uint256"
        },
        {
          "internalType": "address",
          "name": "receiver",
          "type": "address"
        },
        {
          "internalType": "uint96",
          "name": "fee",
          "type": "uint96"
        }
      ],
      "name": "setTokenRoyalty",
      "outputs": [],
      "stateMutability": "nonpayable",
      "type": "function"
    },
    {
      "inputs": [
        {
          "internalType": "bytes4",
          "name": "interfaceId",
          "type": "bytes4"
        }
      ],
      "name": "supportsInterface",
      "outputs": [
        {
          "internalType": "bool",
          "name": "",
          "type": "bool"
        }
      ],
      "stateMutability": "view",
      "type": "function"
    },
    {
      "inputs": [],
      "name": "symbol",
      "outputs": [
        {
          "internalType": "string",
          "name": "",
          "type": "string"
        }
      ],
      "stateMutability": "view",
      "type": "function"
    },
    {
      "inputs": [],
      "name": "togglePause",
      "outputs": [],
      "stateMutability": "nonpayable",
      "type": "function"
    },
    {
      "inputs": [
        {
          "internalType": "uint256",
          "name": "index",
          "type": "uint256"
        }
      ],
      "name": "tokenByIndex",
      "outputs": [
        {
          "internalType": "uint256",
          "name": "",
          "type": "uint256"
        }
      ],
      "stateMutability": "view",
      "type": "function"
    },
    {
      "inputs": [],
      "name": "tokenIdNext",
      "outputs": [
        {
          "internalType": "uint256",
          "name": "",
          "type": "uint256"
        }
      ],
      "stateMutability": "view",
      "type": "function"
    },
    {
      "inputs": [
        {
          "internalType": "address",
          "name": "owner",
          "type": "address"
        },
        {
          "internalType": "uint256",
          "name": "index",
          "type": "uint256"
        }
      ],
      "name": "tokenOfOwnerByIndex",
      "outputs": [
        {
          "internalType": "uint256",
          "name": "",
          "type": "uint256"
        }
      ],
      "stateMutability": "view",
      "type": "function"
    },
    {
      "inputs": [
        {
          "internalType": "uint256",
          "name": "",
          "type": "uint256"
        }
      ],
      "name": "tokenPrice",
      "outputs": [
        {
          "internalType": "uint256",
          "name": "",
          "type": "uint256"
        }
      ],
      "stateMutability": "view",
      "type": "function"
    },
    {
      "inputs": [
        {
          "internalType": "uint256",
          "name": "tokenID",
          "type": "uint256"
        }
      ],
      "name": "tokenURI",
      "outputs": [
        {
          "internalType": "string",
          "name": "",
          "type": "string"
        }
      ],
      "stateMutability": "view",
      "type": "function"
    },
    {
      "inputs": [],
      "name": "totalSupply",
      "outputs": [
        {
          "internalType": "uint256",
          "name": "",
          "type": "uint256"
        }
      ],
      "stateMutability": "view",
      "type": "function"
    },
    {
      "inputs": [
        {
          "internalType": "address",
          "name": "from",
          "type": "address"
        },
        {
          "internalType": "address",
          "name": "to",
          "type": "address"
        },
        {
          "internalType": "uint256",
          "name": "tokenID",
          "type": "uint256"
        }
      ],
      "name": "transferFrom",
      "outputs": [],
      "stateMutability": "payable",
      "type": "function"
    },
    {
      "inputs": [
        {
          "internalType": "address",
          "name": "newOwner",
          "type": "address"
        }
      ],
      "name": "transferOwnership",
      "outputs": [],
      "stateMutability": "nonpayable",
      "type": "function"
    },
    {
      "inputs": [
        {
          "internalType": "address",
          "name": "token",
          "type": "address"
        }
      ],
      "name": "withdraw",
      "outputs": [],
      "stateMutability": "nonpayable",
      "type": "function"
    },
    {
      "stateMutability": "payable",
      "type": "receive"
    }
  ],
  "transactionHash": "0x94dadadb68c8370243663d041c9904968f0e2b7be7dfd8504607d0a585285a16",
  "args": [],
  "numDeployments": 10,
  "solcInputHash": "f30b4001a09ad74e8ca0af56d5ac6758",
  "bytecode": "0x6080604052600160145534801561001557600080fd5b506130ff806100256000396000f3fe60806040526004361061023f5760003560e01c80636a61e5fc1161012e578063c87b56dd116100ab578063e69e04b31161006f578063e69e04b31461068b578063e985e9c5146106a1578063eb685c47146106ea578063f2fde38b1461070a578063fcfff16f1461072a57600080fd5b8063c87b56dd146105eb578063d0def5211461060b578063d4ddce8a1461062b578063d85d3d2714610658578063d96a094a1461067857600080fd5b80638da5cb5b116100f25780638da5cb5b1461056b57806395d89b411461058e578063a22cb465146105a3578063b88d4fde146105c3578063c4ae3168146105d657600080fd5b80636a61e5fc146104e25780636d3c7ec51461050257806370a08231146105225780637b8a5a2f146105425780638bbf58b31461055557600080fd5b8063321c48f2116101bc57806354e10b481161018057806354e10b481461043d5780635944c7531461045d5780635c975abb1461047d5780635fc83aae146104955780636352211e146104c257600080fd5b8063321c48f2146103b557806342842e0e146103ca57806342966c68146103dd5780634f6ccce7146103fd57806351cff8d91461041d57600080fd5b80630d8e6e2c116102035780630d8e6e2c1461030f57806318160ddd1461032e57806323b872dd146103435780632a55205a146103565780632f745c591461039557600080fd5b806301ffc9a71461024b57806304634d8d1461028057806306fdde03146102a2578063081812fc146102c4578063095ea7b3146102fc57600080fd5b3661024657005b600080fd5b34801561025757600080fd5b5061026b61026636600461281d565b610744565b60405190151581526020015b60405180910390f35b34801561028c57600080fd5b506102a061029b366004612868565b610789565b005b3480156102ae57600080fd5b506102b7610889565b60405161027791906128e8565b3480156102d057600080fd5b506102e46102df3660046128fb565b61091b565b6040516001600160a01b039091168152602001610277565b6102a061030a366004612914565b61098e565b34801561031b57600080fd5b506013545b604051908152602001610277565b34801561033a57600080fd5b50600854610320565b6102a061035136600461293e565b610a52565b34801561036257600080fd5b5061037661037136600461297a565b610a62565b604080516001600160a01b039093168352602083019190915201610277565b3480156103a157600080fd5b506103206103b0366004612914565b610b30565b3480156103c157600080fd5b506102b7610bb7565b6102a06103d836600461293e565b610bc6565b3480156103e957600080fd5b506102a06103f83660046128fb565b610be1565b34801561040957600080fd5b506103206104183660046128fb565b610c15565b34801561042957600080fd5b506102a061043836600461299c565b610c7f565b34801561044957600080fd5b506102a0610458366004612aa8565b610eb1565b34801561046957600080fd5b506102a0610478366004612ba3565b610ef6565b34801561048957600080fd5b5060115460ff1661026b565b3480156104a157600080fd5b506104b56104b0366004612bdf565b610f86565b6040516102779190612c8c565b3480156104ce57600080fd5b506102e46104dd3660046128fb565b6110ba565b3480156104ee57600080fd5b506102a06104fd3660046128fb565b611117565b34801561050e57600080fd5b506102a061051d3660046128fb565b611123565b34801561052e57600080fd5b5061032061053d36600461299c565b6111b3565b610320610550366004612cd2565b61121e565b34801561056157600080fd5b5061032060145481565b34801561057757600080fd5b50600c5461010090046001600160a01b03166102e4565b34801561059a57600080fd5b506102b761130d565b3480156105af57600080fd5b506102a06105be366004612d3a565b61131c565b6102a06105d1366004612d71565b611388565b3480156105e257600080fd5b506102a06113e6565b3480156105f757600080fd5b506102b76106063660046128fb565b611427565b34801561061757600080fd5b50610320610626366004612ded565b6114c9565b34801561063757600080fd5b506103206106463660046128fb565b600f6020526000908152604090205481565b34801561066457600080fd5b50610320610673366004612e3b565b6114eb565b6102a06106863660046128fb565b6114fb565b34801561069757600080fd5b5061032060105481565b3480156106ad57600080fd5b5061026b6106bc366004612e70565b6001600160a01b03918216600090815260036020908152604080832093909416825291909152205460ff1690565b3480156106f657600080fd5b506102a061070536600461297a565b6116dd565b34801561071657600080fd5b506102a061072536600461299c565b611732565b34801561073657600080fd5b5060155461026b9060ff1681565b60006001600160e01b0319821663d2a3946560e01b148061077457506001600160e01b0319821662f7235960e21b145b8061078357506107838261176a565b92915050565b600c5461010090046001600160a01b031633146107c15760405162461bcd60e51b81526004016107b890612e9a565b60405180910390fd5b6001600160601b0381166127108111156108185760405162461bcd60e51b8152602060048201526018602482015277526f79616c7479206665652065786365656420707269636560401b60448201526064016107b8565b6040805180820182526001600160a01b0385168082526001600160601b0385166020928301819052600160a01b81028217600d558351918252918101919091527fa1edde4ed5c1392c90dccd8e051a4080b761850e49a24c77d826348a51e1f8dc91015b60405180910390a1505050565b60606005805461089890612ebd565b80601f01602080910402602001604051908101604052809291908181526020018280546108c490612ebd565b80156109115780601f106108e657610100808354040283529160200191610911565b820191906000526020600020905b8154815290600101906020018083116108f457829003601f168201915b5050505050905090565b6000818152602081905260408120546001600160a01b03166109725760405162461bcd60e51b815260206004820152601060248201526f125b9d985b1a59081d1bdad95b88125160821b60448201526064016107b8565b506000908152600260205260409020546001600160a01b031690565b610998338261178f565b6109e45760405162461bcd60e51b815260206004820152601c60248201527f4e6f7420746f6b656e206f776e6572206e6f72206f70657261746f720000000060448201526064016107b8565b600081815260026020526040902080546001600160a01b0319166001600160a01b0384169081179091558190610a19826110ba565b6001600160a01b03167f8c5be1e5ebec7d5bd14f71427d1e84f3dd0314c0f7b2291e5b200ac8c7c3b92560405160405180910390a45050565b610a5d8383836117e6565b505050565b60008082600160801b8110610a895760405162461bcd60e51b81526004016107b890612ef8565b6000858152600e60209081526040918290208251808401909352546001600160a01b038116808452600160a01b9091046001600160601b031691830191909152610afd575060408051808201909152600d546001600160a01b0381168252600160a01b90046001600160601b031660208201525b602081015161271090610b19906001600160601b031687612f35565b610b239190612f54565b9051969095509350505050565b6000610b3b836111b3565b8210610b7a5760405162461bcd60e51b815260206004820152600e60248201526d496e76616c696420696e6465782160901b60448201526064016107b8565b6001600160a01b0383166000908152600960205260409020805483908110610ba457610ba4612f76565b9060005260206000200154905092915050565b60606012805461089890612ebd565b610a5d83838360405180602001604052806000815250611a1c565b80610bec3382611a74565b610c085760405162461bcd60e51b81526004016107b890612f8c565b610c1182611aab565b5050565b6008546000908210610c5a5760405162461bcd60e51b815260206004820152600e60248201526d496e76616c696420696e6465782160901b60448201526064016107b8565b60088281548110610c6d57610c6d612f76565b90600052602060002001549050919050565b600c5461010090046001600160a01b03163314610cae5760405162461bcd60e51b81526004016107b890612e9a565b6001600160a01b0381163b15801590610d4057506040516301ffc9a760e01b81526336372b0760e01b60048201526001600160a01b038216906301ffc9a79060240160206040518083038186803b158015610d0857600080fd5b505afa158015610d1c573d6000803e3d6000fd5b505050506040513d601f19601f82011682018060405250810190610d409190612fc3565b15610e85576040516370a0823160e01b81523060048201526001600160a01b0382169063a9059cbb90339083906370a082319060240160206040518083038186803b158015610d8e57600080fd5b505afa158015610da2573d6000803e3d6000fd5b505050506040513d601f19601f82011682018060405250810190610dc69190612fe0565b6040516001600160e01b031960e085901b1681526001600160a01b0390921660048301526024820152604401602060405180830381600087803b158015610e0c57600080fd5b505af1158015610e20573d6000803e3d6000fd5b505050506040513d601f19601f82011682018060405250810190610e449190612fc3565b610e825760405162461bcd60e51b815260206004820152600f60248201526e15da5d1a191c985dc819985a5b1959608a1b60448201526064016107b8565b50565b60405133904780156108fc02916000818181858888f19350505050158015610c11573d6000803e3d6000fd5b610ebc848484611ab4565b80600081518110610ecf57610ecf612f76565b6020026020010151601560006101000a81548160ff02191690831515021790555050505050565b82610f013382611a74565b610f1d5760405162461bcd60e51b81526004016107b890612f8c565b6001600160601b038216612710811115610f745760405162461bcd60e51b8152602060048201526018602482015277526f79616c7479206665652065786365656420707269636560401b60448201526064016107b8565b610f7f858585611af2565b5050505050565b6060815167ffffffffffffffff811115610fa257610fa26129b7565b604051908082528060200260200182016040528015610fcb578160200160208202803683370190505b50905060005b82518110156110b357836001600160a01b03166301ffc9a7848381518110610ffb57610ffb612f76565b60200260200101516040518263ffffffff1660e01b815260040161102f91906001600160e01b031991909116815260200190565b60206040518083038186803b15801561104757600080fd5b505afa15801561105b573d6000803e3d6000fd5b505050506040513d601f19601f8201168201806040525081019061107f9190612fc3565b82828151811061109157611091612f76565b91151560209283029190910190910152806110ab81612ff9565b915050610fd1565b5092915050565b6000818152602081905260409020546001600160a01b0316806111125760405162461bcd60e51b815260206004820152601060248201526f125b9d985b1a59081d1bdad95b88125160821b60448201526064016107b8565b919050565b610e82816010546116dd565b600c5461010090046001600160a01b031633146111525760405162461bcd60e51b81526004016107b890612e9a565b80600160801b81106111765760405162461bcd60e51b81526004016107b890612ef8565b60108290556040518281527f9f7a6492db3843bc01c0adb23cd27be964155c1d45c566f2ee32f28faf4eb605906020015b60405180910390a15050565b60006001600160a01b0382166112025760405162461bcd60e51b8152602060048201526014602482015273496e76616c6964207a65726f206164647265737360601b60448201526064016107b8565b506001600160a01b031660009081526001602052604090205490565b60155460009060ff16806112425750600c546001600160a01b036101009091041633145b61127b5760405162461bcd60e51b815260206004820152600a6024820152692737ba1036b4b73a32b960b11b60448201526064016107b8565b60115460ff16156112b85760405162461bcd60e51b81526020600482015260076024820152665061757365642160c81b60448201526064016107b8565b6112c233866114c9565b905083156112d4576112d481856116dd565b6001600160a01b038316158015906112f557506000826001600160601b0316115b1561130557611305818484610ef6565b949350505050565b60606006805461089890612ebd565b3360008181526003602090815260408083206001600160a01b03871680855290835292819020805460ff191686151590811790915590519081529192917f17307eab39ab6107e8899845ad3d59bd9653f200f220920489ca2b5937696c31910160405180910390a35050565b6113938484846117e6565b61139f84848484611b77565b6113e05760405162461bcd60e51b8152602060048201526012602482015271139bdd08115490cdcc8c549958d95a5d995960721b60448201526064016107b8565b50505050565b600c5461010090046001600160a01b031633146114155760405162461bcd60e51b81526004016107b890612e9a565b6011546114259060ff1615611c26565b565b600081815260076020526040902080546060919061144490612ebd565b80601f016020809104026020016040519081016040528092919081815260200182805461147090612ebd565b80156114bd5780601f10611492576101008083540402835291602001916114bd565b820191906000526020600020905b8154815290600101906020018083116114a057829003601f168201915b50505050509050919050565b60148054600091826114da83612ff9565b919050559050610783838383611c6b565b600061078382600080600061121e565b6000818152602081905260409020546001600160a01b03166115545760405162461bcd60e51b81526020600482015260126024820152714e465420646f65736e27742065786973747360701b60448201526064016107b8565b6000818152600f60205260409020548061159e5760405162461bcd60e51b815260206004820152600b60248201526a139bdd081d1bc81cd95b1b60aa1b60448201526064016107b8565b803410156115e15760405162461bcd60e51b815260206004820152601060248201526f4e6f7420656e6f7567682066756e647360801b60448201526064016107b8565b60006115ec836110ba565b90506001600160a01b03811661160457611604613014565b6001600160a01b0381163314156116545760405162461bcd60e51b8152602060048201526014602482015273416c726561647920746f6b656e206f776e65722160601b60448201526064016107b8565b604051635c46a7ef60e11b81526001600160a01b0382166004820152336024820152604481018490526080606482015260006084820152309063b88d4fde90349060a4016000604051808303818588803b1580156116b157600080fd5b505af11580156116c5573d6000803e3d6000fd5b50505060009485525050600f60205250506040812055565b816116e83382611a74565b6117045760405162461bcd60e51b81526004016107b890612f8c565b81600160801b81106117285760405162461bcd60e51b81526004016107b890612ef8565b6113e08484611c76565b600c5461010090046001600160a01b031633146117615760405162461bcd60e51b81526004016107b890612e9a565b610e8281611cbe565b60006001600160e01b03198216630c38761960e41b1480610783575061078382611d18565b60008061179b836110ba565b9050836001600160a01b0316816001600160a01b0316148061130557506001600160a01b0380821660009081526003602090815260408083209388168352929052205460ff16611305565b806117f13382611a74565b61180d5760405162461bcd60e51b81526004016107b890612f8c565b611816826110ba565b6001600160a01b0316846001600160a01b0316146118675760405162461bcd60e51b815260206004820152600e60248201526d233937b6903737ba1037bbb732b960911b60448201526064016107b8565b6001600160a01b0384166118bd5760405162461bcd60e51b815260206004820152601a60248201527f5472616e736665722066726f6d207a65726f206164647265737300000000000060448201526064016107b8565b6001600160a01b0383166119135760405162461bcd60e51b815260206004820152601860248201527f5472616e7366657220746f207a65726f2061646472657373000000000000000060448201526064016107b8565b61191e848484611d3d565b600082815260026020526040902080546001600160a01b03191690556001600160a01b03848116908416146119d5576001600160a01b0384166000908152600160208190526040822080549192909161197890849061302a565b90915550506001600160a01b038316600090815260016020819052604082208054919290916119a8908490613041565b9091555050600082815260208190526040902080546001600160a01b0319166001600160a01b0385161790555b81836001600160a01b0316856001600160a01b03167fddf252ad1be2c89b69c2b068fc378daa952ba7f163c4a11628f55a4df523b3ef60405160405180910390a450505050565b611a278484846117e6565b611a3384848484611b77565b6113e05760405162461bcd60e51b81526020600482015260126024820152712737ba1022a9219b9918a932b1b2b4bb32b960711b60448201526064016107b8565b6000611a80838361178f565b80611aa45750826001600160a01b0316611a998361091b565b6001600160a01b0316145b9392505050565b610e8281611d48565b611adf604051806040016040528060088152602001674f70656e4e46547360c01b8152506004611d6d565b611ae98383611ddb565b610a5d81611e4f565b6040805180820182526001600160a01b038481168083526001600160601b03858116602080860182815260008b8152600e835288902096519051909316600160a01b029290941691909117909355835187815291820152918201527f2595213009f64247e2789cf9981bcc53ee736a6aa52042a651aa1549ae6fff619060600161087c565b60006001600160a01b0384163b1580611c1d5750604051630a85bd0160e11b808252906001600160a01b0386169063150b7a0290611bbf9033908a9089908990600401613059565b602060405180830381600087803b158015611bd957600080fd5b505af1158015611bed573d6000803e3d6000fd5b505050506040513d601f19601f82011682018060405250810190611c119190613096565b6001600160e01b031916145b95945050505050565b6011805460ff1916821515908117909155604051339160ff161515907f8b265f737315073a655a642868ed756ba7e3b6c391b06dbbf70370aab7f7f06890600090a350565b610a5d838383611eac565b6000828152600f602090815260409182902083905581518481529081018390527f2f8c61aa79deaa9c961d54f640a154df4960a56a5989d25df0148be783dc3f5b91016111a7565b600c80546001600160a01b03838116610100818102610100600160a81b031985161790945560405193909204169182907f8be0079c531659141344cd1fd0a4f28419497f9722a3daafe3b4186f6b6457e090600090a35050565b60006001600160e01b03198216631fc9136f60e11b1480610783575061078382611edc565b610a5d838383611f01565b6000818152600e60209081526040808320839055600f909152812055610e8281611f3a565b601154610100900460ff1615611db25760405162461bcd60e51b815260206004820152600a6024820152694f6e6c79206f6e63652160b01b60448201526064016107b8565b6011805461ff0019166101001790558151611dd4906012906020850190612738565b5060135550565b60045460ff1615611e1b5760405162461bcd60e51b815260206004820152600a6024820152694f6e6c79206f6e63652160b01b60448201526064016107b8565b6004805460ff191660011790558151611e3b906005906020850190612738565b508051610a5d906006906020840190612738565b600c5460ff1615611e965760405162461bcd60e51b8152602060048201526011602482015270125b9a5d08185b1c9958591e4818d85b1b607a1b60448201526064016107b8565b600c805460ff19166001179055610e8281611cbe565b611eb7838383612005565b610a5d8160105485611ed7600c546001600160a01b036101009091041690565b61205e565b60006001600160e01b03198216632fe41d5760e11b1480610783575061078382612237565b6000818152600f6020526040902054611f2090829084611ed7836110ba565b6000818152600f6020526040812055610a5d83838361225c565b6000611f45826110ba565b9050611f518183612270565b6000828152600b6020526040812054600854909190611f729060019061302a565b9050600060088281548110611f8957611f89612f76565b6000918252602080832090910154808352600b909152604080832086905587835282209190915560088054919250829185908110611fc957611fc9612f76565b6000918252602090912001556008805480611fe657611fe66130b3565b60019003818190600052602060002001600090559055610f7f8561237e565b61200f838261239e565b600880546000838152600b60205260408120829055600182018355919091527ff3f7a9fe364faab93b216da50a3214154f22a0a2b415b23a84c8169e8b636ee301819055610a5d8383836123dc565b3483156121f357838110156120a85760405162461bcd60e51b815260206004820152601060248201526f4e6f7420656e6f7567682066756e647360801b60448201526064016107b8565b6000806120b58787610a62565b91509150858111156120fd5760405162461bcd60e51b8152602060048201526011602482015270496e76616c696420726f79616c7469657360781b60448201526064016107b8565b6000612109828861302a565b90508015612155576040516001600160a01b0386169082156108fc029083906000818181858888f19350505050158015612147573d6000803e3d6000fd5b50612152818561302a565b93505b811561219f576040516001600160a01b0384169083156108fc029084906000818181858888f19350505050158015612191573d6000803e3d6000fd5b5061219c828561302a565b93505b60408051898152602081018990526001600160a01b03888116828401528716606082015290517f3914c8962f5e7241220aedc853d15ae456e87f9f156489c7d0d1f682e69f98ce9181900360800190a15050505b8015610f7f576040516001600160a01b0384169082156108fc029083906000818181858888f1935050505015801561222f573d6000803e3d6000fd5b505050505050565b60006001600160e01b031982166398396bd360e01b1480610783575061078382612407565b6122668382612270565b610a5d828261239e565b6000818152600a602052604081205490600161228b856111b3565b612295919061302a565b905080821461232c576001600160a01b03841660009081526009602052604081208054839081106122c8576122c8612f76565b906000526020600020015490508060096000876001600160a01b03166001600160a01b03168152602001908152602001600020848154811061230c5761230c612f76565b6000918252602080832090910192909255918252600a9052604090208290555b6000838152600a602090815260408083208390556001600160a01b038716835260099091529020805480612362576123626130b3565b6001900381819060005260206000200160009055905550505050565b6000818152600760205260408120612395916127bc565b610e828161242c565b6001600160a01b0390911660009081526009602081815260408084208054868652600a84529185208290559282526001810183559183529091200155565b600081815260076020908152604090912083516123fb92850190612738565b50610a5d8383836124f8565b60006001600160e01b03198216638351879960e01b1480610783575061078382612683565b6000612437826110ba565b6001600160a01b03811660009081526001602052604090205490915061245f5761245f613014565b6001600160a01b0381166000908152600160208190526040822080549192909161248a90849061302a565b9091555050600082815260026020908152604080832080546001600160a01b0319908116909155918390528083208054909216909155518391906001600160a01b038416907fddf252ad1be2c89b69c2b068fc378daa952ba7f163c4a11628f55a4df523b3ef908390a45050565b6001600160a01b0383166125455760405162461bcd60e51b81526020600482015260146024820152734d696e7420746f207a65726f206164647265737360601b60448201526064016107b8565b6000818152602081905260409020546001600160a01b0316156125a15760405162461bcd60e51b8152602060048201526014602482015273151bdad95b88185b1c9958591e481b5a5b9d195960621b60448201526064016107b8565b6001600160a01b038316600090815260016020819052604082208054919290916125cc908490613041565b909155505060008181526020819052604080822080546001600160a01b0319166001600160a01b03871690811790915590518392907fddf252ad1be2c89b69c2b068fc378daa952ba7f163c4a11628f55a4df523b3ef908290a46126426000848360405180602001604052806000815250611b77565b610a5d5760405162461bcd60e51b8152602060048201526012602482015271139bdd08115490cdcc8c549958d95a5d995960721b60448201526064016107b8565b600063152a902d60e11b6001600160e01b03198316148061078357506107838260006307f5828d60e41b6001600160e01b031983161480610783575061078382600063780e9d6360e01b6001600160e01b0319831614806107835750610783826000635b5e139f60e01b6001600160e01b03198316148061078357506107838260006380ac58cd60e01b6001600160e01b03198316148061078357506001600160e01b031982166301ffc9a760e01b14610783565b82805461274490612ebd565b90600052602060002090601f01602090048101928261276657600085556127ac565b82601f1061277f57805160ff19168380011785556127ac565b828001600101855582156127ac579182015b828111156127ac578251825591602001919060010190612791565b506127b89291506127f2565b5090565b5080546127c890612ebd565b6000825580601f106127d8575050565b601f016020900490600052602060002090810190610e8291905b5b808211156127b857600081556001016127f3565b6001600160e01b031981168114610e8257600080fd5b60006020828403121561282f57600080fd5b8135611aa481612807565b80356001600160a01b038116811461111257600080fd5b80356001600160601b038116811461111257600080fd5b6000806040838503121561287b57600080fd5b6128848361283a565b915061289260208401612851565b90509250929050565b6000815180845260005b818110156128c1576020818501810151868301820152016128a5565b818111156128d3576000602083870101525b50601f01601f19169290920160200192915050565b602081526000611aa4602083018461289b565b60006020828403121561290d57600080fd5b5035919050565b6000806040838503121561292757600080fd5b6129308361283a565b946020939093013593505050565b60008060006060848603121561295357600080fd5b61295c8461283a565b925061296a6020850161283a565b9150604084013590509250925092565b6000806040838503121561298d57600080fd5b50508035926020909101359150565b6000602082840312156129ae57600080fd5b611aa48261283a565b634e487b7160e01b600052604160045260246000fd5b604051601f8201601f1916810167ffffffffffffffff811182821017156129f6576129f66129b7565b604052919050565b600067ffffffffffffffff831115612a1857612a186129b7565b612a2b601f8401601f19166020016129cd565b9050828152838383011115612a3f57600080fd5b828260208301376000602084830101529392505050565b600082601f830112612a6757600080fd5b611aa4838335602085016129fe565b600067ffffffffffffffff821115612a9057612a906129b7565b5060051b60200190565b8015158114610e8257600080fd5b60008060008060808587031215612abe57600080fd5b843567ffffffffffffffff80821115612ad657600080fd5b612ae288838901612a56565b9550602091508187013581811115612af957600080fd5b612b0589828a01612a56565b955050612b146040880161283a565b9350606087013581811115612b2857600080fd5b87019050601f81018813612b3b57600080fd5b8035612b4e612b4982612a76565b6129cd565b81815260059190911b8201830190838101908a831115612b6d57600080fd5b928401925b82841015612b94578335612b8581612a9a565b82529284019290840190612b72565b979a9699509497505050505050565b600080600060608486031215612bb857600080fd5b83359250612bc86020850161283a565b9150612bd660408501612851565b90509250925092565b60008060408385031215612bf257600080fd5b612bfb8361283a565b915060208084013567ffffffffffffffff811115612c1857600080fd5b8401601f81018613612c2957600080fd5b8035612c37612b4982612a76565b81815260059190911b82018301908381019088831115612c5657600080fd5b928401925b82841015612c7d578335612c6e81612807565b82529284019290840190612c5b565b80955050505050509250929050565b6020808252825182820181905260009190848201906040850190845b81811015612cc6578351151583529284019291840191600101612ca8565b50909695505050505050565b60008060008060808587031215612ce857600080fd5b843567ffffffffffffffff811115612cff57600080fd5b612d0b87828801612a56565b94505060208501359250612d216040860161283a565b9150612d2f60608601612851565b905092959194509250565b60008060408385031215612d4d57600080fd5b612d568361283a565b91506020830135612d6681612a9a565b809150509250929050565b60008060008060808587031215612d8757600080fd5b612d908561283a565b9350612d9e6020860161283a565b925060408501359150606085013567ffffffffffffffff811115612dc157600080fd5b8501601f81018713612dd257600080fd5b612de1878235602084016129fe565b91505092959194509250565b60008060408385031215612e0057600080fd5b612e098361283a565b9150602083013567ffffffffffffffff811115612e2557600080fd5b612e3185828601612a56565b9150509250929050565b600060208284031215612e4d57600080fd5b813567ffffffffffffffff811115612e6457600080fd5b61130584828501612a56565b60008060408385031215612e8357600080fd5b612e8c8361283a565b91506128926020840161283a565b6020808252600990820152682737ba1037bbb732b960b91b604082015260600190565b600181811c90821680612ed157607f821691505b60208210811415612ef257634e487b7160e01b600052602260045260246000fd5b50919050565b6020808252600d908201526c546f6f20657870656e7369766560981b604082015260600190565b634e487b7160e01b600052601160045260246000fd5b6000816000190483118215151615612f4f57612f4f612f1f565b500290565b600082612f7157634e487b7160e01b600052601260045260246000fd5b500490565b634e487b7160e01b600052603260045260246000fd5b6020808252601c908201527f4e6f7420746f6b656e206f776e6572206e6f7220617070726f76656400000000604082015260600190565b600060208284031215612fd557600080fd5b8151611aa481612a9a565b600060208284031215612ff257600080fd5b5051919050565b600060001982141561300d5761300d612f1f565b5060010190565b634e487b7160e01b600052600160045260246000fd5b60008282101561303c5761303c612f1f565b500390565b6000821982111561305457613054612f1f565b500190565b6001600160a01b038581168252841660208201526040810183905260806060820181905260009061308c9083018461289b565b9695505050505050565b6000602082840312156130a857600080fd5b8151611aa481612807565b634e487b7160e01b600052603160045260246000fdfea2646970667358221220df3c3d69db67f9f7856f59c8bde61446a9a9a07ceb65d4127c55fb1d04ee685364736f6c63430008090033",
  "devdoc": {
    "kind": "dev",
    "methods": {
      "burn(uint256)": {
        "params": {
          "tokenID": "tokenID of NFT to burn"
        }
      },
      "setDefaultRoyalty(address,uint96)": {
        "params": {
          "fee": ": fee Numerator, less than 10000",
          "receiver": ": address of the royalty receiver, or address(0) to reset"
        }
      },
      "setTokenRoyalty(uint256,address,uint96)": {
        "params": {
          "fee": ": fee Numerator, less than 10000",
          "receiver": ": address of the royalty receiver, or address(0) to reset",
          "tokenID": ": token ID"
        }
      },
      "supportsInterface(bytes4)": {
        "params": {
          "interfaceId": "interfaceId to test"
        }
      }
    },
    "title": "OpenNFTs smartcontract",
    "version": 1
  },
  "userdoc": {
    "kind": "user",
    "methods": {
      "burn(uint256)": {
        "notice": "burn NFT"
      },
      "open()": {
        "notice": "Mint NFT allowed to everyone or only collection owner"
      },
      "setDefaultRoyalty(address,uint96)": {
        "notice": "SET default royalty configuration"
      },
      "setTokenRoyalty(uint256,address,uint96)": {
        "notice": "SET token royalty configuration"
      },
      "supportsInterface(bytes4)": {
        "notice": "test if this interface is supported"
      },
      "tokenIdNext()": {
        "notice": "tokenID of next minted NFT"
      },
      "withdraw(address)": {
        "notice": "withdraw token otherwise eth"
      }
    },
    "version": 1
  },
  "storageLayout": {
    "storage": [
      {
        "astId": 6766,
        "contract": "contracts/templates/OpenNFTsV4.sol:OpenNFTsV4",
        "label": "_owners",
        "offset": 0,
        "slot": "0",
        "type": "t_mapping(t_uint256,t_address)"
      },
      {
        "astId": 6770,
        "contract": "contracts/templates/OpenNFTsV4.sol:OpenNFTsV4",
        "label": "_balances",
        "offset": 0,
        "slot": "1",
        "type": "t_mapping(t_address,t_uint256)"
      },
      {
        "astId": 6774,
        "contract": "contracts/templates/OpenNFTsV4.sol:OpenNFTsV4",
        "label": "_tokenApprovals",
        "offset": 0,
        "slot": "2",
        "type": "t_mapping(t_uint256,t_address)"
      },
      {
        "astId": 6780,
        "contract": "contracts/templates/OpenNFTsV4.sol:OpenNFTsV4",
        "label": "_operatorApprovals",
        "offset": 0,
        "slot": "3",
        "type": "t_mapping(t_address,t_mapping(t_address,t_bool))"
      },
      {
        "astId": 7697,
        "contract": "contracts/templates/OpenNFTsV4.sol:OpenNFTsV4",
        "label": "_openERC721MetadataInitialized",
        "offset": 0,
        "slot": "4",
        "type": "t_bool"
      },
      {
        "astId": 7699,
        "contract": "contracts/templates/OpenNFTsV4.sol:OpenNFTsV4",
        "label": "_name",
        "offset": 0,
        "slot": "5",
        "type": "t_string_storage"
      },
      {
        "astId": 7701,
        "contract": "contracts/templates/OpenNFTsV4.sol:OpenNFTsV4",
        "label": "_symbol",
        "offset": 0,
        "slot": "6",
        "type": "t_string_storage"
      },
      {
        "astId": 7705,
        "contract": "contracts/templates/OpenNFTsV4.sol:OpenNFTsV4",
        "label": "_tokenURIs",
        "offset": 0,
        "slot": "7",
        "type": "t_mapping(t_uint256,t_string_storage)"
      },
      {
        "astId": 7374,
        "contract": "contracts/templates/OpenNFTsV4.sol:OpenNFTsV4",
        "label": "_allTokens",
        "offset": 0,
        "slot": "8",
        "type": "t_array(t_uint256)dyn_storage"
      },
      {
        "astId": 7379,
        "contract": "contracts/templates/OpenNFTsV4.sol:OpenNFTsV4",
        "label": "_ownedTokens",
        "offset": 0,
        "slot": "9",
        "type": "t_mapping(t_address,t_array(t_uint256)dyn_storage)"
      },
      {
        "astId": 7383,
        "contract": "contracts/templates/OpenNFTsV4.sol:OpenNFTsV4",
        "label": "_ownedTokensIndex",
        "offset": 0,
        "slot": "10",
        "type": "t_mapping(t_uint256,t_uint256)"
      },
      {
        "astId": 7387,
        "contract": "contracts/templates/OpenNFTsV4.sol:OpenNFTsV4",
        "label": "_allTokensIndex",
        "offset": 0,
        "slot": "11",
        "type": "t_mapping(t_uint256,t_uint256)"
      },
      {
        "astId": 6531,
        "contract": "contracts/templates/OpenNFTsV4.sol:OpenNFTsV4",
        "label": "_openERC173Initialized",
        "offset": 0,
        "slot": "12",
        "type": "t_bool"
      },
      {
        "astId": 6533,
        "contract": "contracts/templates/OpenNFTsV4.sol:OpenNFTsV4",
        "label": "_owner",
        "offset": 1,
        "slot": "12",
        "type": "t_address"
      },
      {
        "astId": 6645,
        "contract": "contracts/templates/OpenNFTsV4.sol:OpenNFTsV4",
        "label": "_royaltyInfo",
        "offset": 0,
        "slot": "13",
        "type": "t_struct(RoyaltyInfo)6642_storage"
      },
      {
        "astId": 6650,
        "contract": "contracts/templates/OpenNFTsV4.sol:OpenNFTsV4",
        "label": "_tokenRoyaltyInfo",
        "offset": 0,
        "slot": "14",
        "type": "t_mapping(t_uint256,t_struct(RoyaltyInfo)6642_storage)"
      },
      {
        "astId": 7962,
        "contract": "contracts/templates/OpenNFTsV4.sol:OpenNFTsV4",
        "label": "tokenPrice",
        "offset": 0,
        "slot": "15",
        "type": "t_mapping(t_uint256,t_uint256)"
      },
      {
        "astId": 7964,
        "contract": "contracts/templates/OpenNFTsV4.sol:OpenNFTsV4",
        "label": "defaultPrice",
        "offset": 0,
        "slot": "16",
        "type": "t_uint256"
      },
      {
        "astId": 8607,
        "contract": "contracts/templates/OpenNFTsV4.sol:OpenNFTsV4",
        "label": "_paused",
        "offset": 0,
        "slot": "17",
        "type": "t_bool"
      },
      {
        "astId": 7870,
        "contract": "contracts/templates/OpenNFTsV4.sol:OpenNFTsV4",
        "label": "_openCloneableInitialized",
        "offset": 1,
        "slot": "17",
        "type": "t_bool"
      },
      {
        "astId": 7872,
        "contract": "contracts/templates/OpenNFTsV4.sol:OpenNFTsV4",
        "label": "_template",
        "offset": 0,
        "slot": "18",
        "type": "t_string_storage"
      },
      {
        "astId": 7874,
        "contract": "contracts/templates/OpenNFTsV4.sol:OpenNFTsV4",
        "label": "_version",
        "offset": 0,
        "slot": "19",
        "type": "t_uint256"
      },
      {
        "astId": 8373,
        "contract": "contracts/templates/OpenNFTsV4.sol:OpenNFTsV4",
        "label": "tokenIdNext",
        "offset": 0,
        "slot": "20",
        "type": "t_uint256"
      },
      {
        "astId": 19663,
        "contract": "contracts/templates/OpenNFTsV4.sol:OpenNFTsV4",
        "label": "open",
        "offset": 0,
        "slot": "21",
        "type": "t_bool"
      }
    ],
    "types": {
      "t_address": {
        "encoding": "inplace",
        "label": "address",
        "numberOfBytes": "20"
      },
      "t_array(t_uint256)dyn_storage": {
        "base": "t_uint256",
        "encoding": "dynamic_array",
        "label": "uint256[]",
        "numberOfBytes": "32"
      },
      "t_bool": {
        "encoding": "inplace",
        "label": "bool",
        "numberOfBytes": "1"
      },
      "t_mapping(t_address,t_array(t_uint256)dyn_storage)": {
        "encoding": "mapping",
        "key": "t_address",
        "label": "mapping(address => uint256[])",
        "numberOfBytes": "32",
        "value": "t_array(t_uint256)dyn_storage"
      },
      "t_mapping(t_address,t_bool)": {
        "encoding": "mapping",
        "key": "t_address",
        "label": "mapping(address => bool)",
        "numberOfBytes": "32",
        "value": "t_bool"
      },
      "t_mapping(t_address,t_mapping(t_address,t_bool))": {
        "encoding": "mapping",
        "key": "t_address",
        "label": "mapping(address => mapping(address => bool))",
        "numberOfBytes": "32",
        "value": "t_mapping(t_address,t_bool)"
      },
      "t_mapping(t_address,t_uint256)": {
        "encoding": "mapping",
        "key": "t_address",
        "label": "mapping(address => uint256)",
        "numberOfBytes": "32",
        "value": "t_uint256"
      },
      "t_mapping(t_uint256,t_address)": {
        "encoding": "mapping",
        "key": "t_uint256",
        "label": "mapping(uint256 => address)",
        "numberOfBytes": "32",
        "value": "t_address"
      },
      "t_mapping(t_uint256,t_string_storage)": {
        "encoding": "mapping",
        "key": "t_uint256",
        "label": "mapping(uint256 => string)",
        "numberOfBytes": "32",
        "value": "t_string_storage"
      },
      "t_mapping(t_uint256,t_struct(RoyaltyInfo)6642_storage)": {
        "encoding": "mapping",
        "key": "t_uint256",
        "label": "mapping(uint256 => struct OpenERC2981.RoyaltyInfo)",
        "numberOfBytes": "32",
        "value": "t_struct(RoyaltyInfo)6642_storage"
      },
      "t_mapping(t_uint256,t_uint256)": {
        "encoding": "mapping",
        "key": "t_uint256",
        "label": "mapping(uint256 => uint256)",
        "numberOfBytes": "32",
        "value": "t_uint256"
      },
      "t_string_storage": {
        "encoding": "bytes",
        "label": "string",
        "numberOfBytes": "32"
      },
      "t_struct(RoyaltyInfo)6642_storage": {
        "encoding": "inplace",
        "label": "struct OpenERC2981.RoyaltyInfo",
        "members": [
          {
            "astId": 6639,
            "contract": "contracts/templates/OpenNFTsV4.sol:OpenNFTsV4",
            "label": "receiver",
            "offset": 0,
            "slot": "0",
            "type": "t_address"
          },
          {
            "astId": 6641,
            "contract": "contracts/templates/OpenNFTsV4.sol:OpenNFTsV4",
            "label": "fraction",
            "offset": 20,
            "slot": "0",
            "type": "t_uint96"
          }
        ],
        "numberOfBytes": "32"
      },
      "t_uint256": {
        "encoding": "inplace",
        "label": "uint256",
        "numberOfBytes": "32"
      },
      "t_uint96": {
        "encoding": "inplace",
        "label": "uint96",
        "numberOfBytes": "12"
      }
    }
  }
}