{
  "address": "0xE69839D34c54f3DE810cAf9d66C9f6d46aDd962E",
  "abi": [
    {
      "anonymous": false,
      "inputs": [
        {
          "indexed": true,
          "internalType": "address",
          "name": "owner",
          "type": "address"
        },
        {
          "indexed": true,
          "internalType": "address",
          "name": "approved",
          "type": "address"
        },
        {
          "indexed": true,
          "internalType": "uint256",
          "name": "tokenId",
          "type": "uint256"
        }
      ],
      "name": "Approval",
      "type": "event"
    },
    {
      "anonymous": false,
      "inputs": [
        {
          "indexed": true,
          "internalType": "address",
          "name": "owner",
          "type": "address"
        },
        {
          "indexed": true,
          "internalType": "address",
          "name": "operator",
          "type": "address"
        },
        {
          "indexed": false,
          "internalType": "bool",
          "name": "approved",
          "type": "bool"
        }
      ],
      "name": "ApprovalForAll",
      "type": "event"
    },
    {
      "anonymous": false,
      "inputs": [
        {
          "indexed": true,
          "internalType": "address",
          "name": "previousOwner",
          "type": "address"
        },
        {
          "indexed": true,
          "internalType": "address",
          "name": "newOwner",
          "type": "address"
        }
      ],
      "name": "OwnershipTransferred",
      "type": "event"
    },
    {
      "anonymous": false,
      "inputs": [
        {
          "indexed": false,
          "internalType": "uint256",
          "name": "tokenID",
          "type": "uint256"
        },
        {
          "indexed": false,
          "internalType": "uint256",
          "name": "price",
          "type": "uint256"
        },
        {
          "indexed": false,
          "internalType": "address",
          "name": "seller",
          "type": "address"
        },
        {
          "indexed": false,
          "internalType": "uint256",
          "name": "paid",
          "type": "uint256"
        },
        {
          "indexed": false,
          "internalType": "address",
          "name": "receiver",
          "type": "address"
        },
        {
          "indexed": false,
          "internalType": "uint256",
          "name": "royalties",
          "type": "uint256"
        },
        {
          "indexed": false,
          "internalType": "address",
          "name": "buyer",
          "type": "address"
        },
        {
          "indexed": false,
          "internalType": "uint256",
          "name": "unspent",
          "type": "uint256"
        }
      ],
      "name": "Pay",
      "type": "event"
    },
    {
      "anonymous": false,
      "inputs": [
        {
          "indexed": false,
          "internalType": "uint256",
          "name": "price",
          "type": "uint256"
        }
      ],
      "name": "SetDefaultPrice",
      "type": "event"
    },
    {
      "anonymous": false,
      "inputs": [
        {
          "indexed": false,
          "internalType": "address",
          "name": "receiver",
          "type": "address"
        },
        {
          "indexed": false,
          "internalType": "uint96",
          "name": "fee",
          "type": "uint96"
        }
      ],
      "name": "SetDefaultRoyalty",
      "type": "event"
    },
    {
      "anonymous": false,
      "inputs": [
        {
          "indexed": true,
          "internalType": "bool",
          "name": "paused",
          "type": "bool"
        },
        {
          "indexed": true,
          "internalType": "address",
          "name": "account",
          "type": "address"
        }
      ],
      "name": "SetPaused",
      "type": "event"
    },
    {
      "anonymous": false,
      "inputs": [
        {
          "indexed": false,
          "internalType": "uint256",
          "name": "tokenID",
          "type": "uint256"
        },
        {
          "indexed": false,
          "internalType": "uint256",
          "name": "price",
          "type": "uint256"
        }
      ],
      "name": "SetTokenPrice",
      "type": "event"
    },
    {
      "anonymous": false,
      "inputs": [
        {
          "indexed": false,
          "internalType": "uint256",
          "name": "tokenID",
          "type": "uint256"
        },
        {
          "indexed": false,
          "internalType": "address",
          "name": "receiver",
          "type": "address"
        },
        {
          "indexed": false,
          "internalType": "uint96",
          "name": "fee",
          "type": "uint96"
        }
      ],
      "name": "SetTokenRoyalty",
      "type": "event"
    },
    {
      "anonymous": false,
      "inputs": [
        {
          "indexed": true,
          "internalType": "address",
          "name": "from",
          "type": "address"
        },
        {
          "indexed": true,
          "internalType": "address",
          "name": "to",
          "type": "address"
        },
        {
          "indexed": true,
          "internalType": "uint256",
          "name": "tokenId",
          "type": "uint256"
        }
      ],
      "name": "Transfer",
      "type": "event"
    },
    {
      "inputs": [
        {
          "internalType": "address",
          "name": "spender",
          "type": "address"
        },
        {
          "internalType": "uint256",
          "name": "tokenID",
          "type": "uint256"
        }
      ],
      "name": "approve",
      "outputs": [],
      "stateMutability": "nonpayable",
      "type": "function"
    },
    {
      "inputs": [
        {
          "internalType": "address",
          "name": "owner",
          "type": "address"
        }
      ],
      "name": "balanceOf",
      "outputs": [
        {
          "internalType": "uint256",
          "name": "",
          "type": "uint256"
        }
      ],
      "stateMutability": "view",
      "type": "function"
    },
    {
      "inputs": [
        {
          "internalType": "uint256",
          "name": "tokenID",
          "type": "uint256"
        }
      ],
      "name": "burn",
      "outputs": [],
      "stateMutability": "nonpayable",
      "type": "function"
    },
    {
      "inputs": [
        {
          "internalType": "uint256",
          "name": "tokenID",
          "type": "uint256"
        }
      ],
      "name": "buy",
      "outputs": [],
      "stateMutability": "payable",
      "type": "function"
    },
    {
      "inputs": [
        {
          "internalType": "uint256",
          "name": "tokenID",
          "type": "uint256"
        }
      ],
      "name": "getApproved",
      "outputs": [
        {
          "internalType": "address",
          "name": "",
          "type": "address"
        }
      ],
      "stateMutability": "view",
      "type": "function"
    },
    {
      "inputs": [],
      "name": "getDefaultPrice",
      "outputs": [
        {
          "internalType": "uint256",
          "name": "",
          "type": "uint256"
        }
      ],
      "stateMutability": "view",
      "type": "function"
    },
    {
      "inputs": [],
      "name": "getDefaultRoyalty",
      "outputs": [
        {
          "internalType": "address",
          "name": "receiver",
          "type": "address"
        },
        {
          "internalType": "uint96",
          "name": "fee",
          "type": "uint96"
        }
      ],
      "stateMutability": "view",
      "type": "function"
    },
    {
      "inputs": [
        {
          "internalType": "uint256",
          "name": "tokenID",
          "type": "uint256"
        }
      ],
      "name": "getTokenPrice",
      "outputs": [
        {
          "internalType": "uint256",
          "name": "",
          "type": "uint256"
        }
      ],
      "stateMutability": "view",
      "type": "function"
    },
    {
      "inputs": [
        {
          "internalType": "uint256",
          "name": "tokenID",
          "type": "uint256"
        }
      ],
      "name": "getTokenRoyalty",
      "outputs": [
        {
          "internalType": "address",
          "name": "receiver",
          "type": "address"
        },
        {
          "internalType": "uint96",
          "name": "fee",
          "type": "uint96"
        }
      ],
      "stateMutability": "view",
      "type": "function"
    },
    {
      "inputs": [
        {
          "internalType": "string",
          "name": "name_",
          "type": "string"
        },
        {
          "internalType": "string",
          "name": "symbol_",
          "type": "string"
        },
        {
          "internalType": "address",
          "name": "owner_",
          "type": "address"
        },
        {
          "internalType": "bytes",
          "name": "params_",
          "type": "bytes"
        }
      ],
      "name": "initialize",
      "outputs": [],
      "stateMutability": "nonpayable",
      "type": "function"
    },
    {
      "inputs": [
        {
          "internalType": "string",
          "name": "name_",
          "type": "string"
        },
        {
          "internalType": "string",
          "name": "symbol_",
          "type": "string"
        },
        {
          "internalType": "address",
          "name": "owner_",
          "type": "address"
        },
        {
          "internalType": "uint256",
          "name": "defaultPrice_",
          "type": "uint256"
        },
        {
          "internalType": "address",
          "name": "receiver_",
          "type": "address"
        },
        {
          "internalType": "uint96",
          "name": "fee_",
          "type": "uint96"
        },
        {
          "internalType": "bool[]",
          "name": "options",
          "type": "bool[]"
        }
      ],
      "name": "initialize",
      "outputs": [],
      "stateMutability": "nonpayable",
      "type": "function"
    },
    {
      "inputs": [],
      "name": "initialized",
      "outputs": [
        {
          "internalType": "bool",
          "name": "",
          "type": "bool"
        }
      ],
      "stateMutability": "view",
      "type": "function"
    },
    {
      "inputs": [
        {
          "internalType": "address",
          "name": "owner",
          "type": "address"
        },
        {
          "internalType": "address",
          "name": "operator",
          "type": "address"
        }
      ],
      "name": "isApprovedForAll",
      "outputs": [
        {
          "internalType": "bool",
          "name": "",
          "type": "bool"
        }
      ],
      "stateMutability": "view",
      "type": "function"
    },
    {
      "inputs": [
        {
          "internalType": "address",
          "name": "minter_",
          "type": "address"
        },
        {
          "internalType": "string",
          "name": "tokenURI_",
          "type": "string"
        },
        {
          "internalType": "uint256",
          "name": "tokenPrice_",
          "type": "uint256"
        },
        {
          "internalType": "address",
          "name": "receiver_",
          "type": "address"
        },
        {
          "internalType": "uint96",
          "name": "fee_",
          "type": "uint96"
        }
      ],
      "name": "mint",
      "outputs": [
        {
          "internalType": "uint256",
          "name": "tokenID",
          "type": "uint256"
        }
      ],
      "stateMutability": "payable",
      "type": "function"
    },
    {
      "inputs": [
        {
          "internalType": "address",
          "name": "minter",
          "type": "address"
        },
        {
          "internalType": "string",
          "name": "tokenURI",
          "type": "string"
        }
      ],
      "name": "mint",
      "outputs": [
        {
          "internalType": "uint256",
          "name": "tokenID",
          "type": "uint256"
        }
      ],
      "stateMutability": "nonpayable",
      "type": "function"
    },
    {
      "inputs": [
        {
          "internalType": "string",
          "name": "tokenURI",
          "type": "string"
        }
      ],
      "name": "mint",
      "outputs": [
        {
          "internalType": "uint256",
          "name": "tokenID",
          "type": "uint256"
        }
      ],
      "stateMutability": "nonpayable",
      "type": "function"
    },
    {
      "inputs": [],
      "name": "name",
      "outputs": [
        {
          "internalType": "string",
          "name": "",
          "type": "string"
        }
      ],
      "stateMutability": "view",
      "type": "function"
    },
    {
      "inputs": [],
      "name": "open",
      "outputs": [
        {
          "internalType": "bool",
          "name": "",
          "type": "bool"
        }
      ],
      "stateMutability": "view",
      "type": "function"
    },
    {
      "inputs": [],
      "name": "owner",
      "outputs": [
        {
          "internalType": "address",
          "name": "",
          "type": "address"
        }
      ],
      "stateMutability": "view",
      "type": "function"
    },
    {
      "inputs": [
        {
          "internalType": "uint256",
          "name": "tokenID",
          "type": "uint256"
        }
      ],
      "name": "ownerOf",
      "outputs": [
        {
          "internalType": "address",
          "name": "",
          "type": "address"
        }
      ],
      "stateMutability": "view",
      "type": "function"
    },
    {
      "inputs": [],
      "name": "parent",
      "outputs": [
        {
          "internalType": "address",
          "name": "parent_",
          "type": "address"
        }
      ],
      "stateMutability": "view",
      "type": "function"
    },
    {
      "inputs": [],
      "name": "paused",
      "outputs": [
        {
          "internalType": "bool",
          "name": "",
          "type": "bool"
        }
      ],
      "stateMutability": "view",
      "type": "function"
    },
    {
      "inputs": [
        {
          "internalType": "uint256",
          "name": "tokenID",
          "type": "uint256"
        },
        {
          "internalType": "uint256",
          "name": "price",
          "type": "uint256"
        }
      ],
      "name": "royaltyInfo",
      "outputs": [
        {
          "internalType": "address",
          "name": "receiver",
          "type": "address"
        },
        {
          "internalType": "uint256",
          "name": "royaltyAmount",
          "type": "uint256"
        }
      ],
      "stateMutability": "view",
      "type": "function"
    },
    {
      "inputs": [
        {
          "internalType": "address",
          "name": "from",
          "type": "address"
        },
        {
          "internalType": "address",
          "name": "to",
          "type": "address"
        },
        {
          "internalType": "uint256",
          "name": "tokenID",
          "type": "uint256"
        }
      ],
      "name": "safeTransferFrom",
      "outputs": [],
      "stateMutability": "payable",
      "type": "function"
    },
    {
      "inputs": [
        {
          "internalType": "address",
          "name": "from",
          "type": "address"
        },
        {
          "internalType": "address",
          "name": "to",
          "type": "address"
        },
        {
          "internalType": "uint256",
          "name": "tokenID",
          "type": "uint256"
        },
        {
          "internalType": "bytes",
          "name": "data",
          "type": "bytes"
        }
      ],
      "name": "safeTransferFrom",
      "outputs": [],
      "stateMutability": "payable",
      "type": "function"
    },
    {
      "inputs": [
        {
          "internalType": "address",
          "name": "operator",
          "type": "address"
        },
        {
          "internalType": "bool",
          "name": "approved",
          "type": "bool"
        }
      ],
      "name": "setApprovalForAll",
      "outputs": [],
      "stateMutability": "nonpayable",
      "type": "function"
    },
    {
      "inputs": [
        {
          "internalType": "uint256",
          "name": "price",
          "type": "uint256"
        }
      ],
      "name": "setDefaultPrice",
      "outputs": [],
      "stateMutability": "nonpayable",
      "type": "function"
    },
    {
      "inputs": [
        {
          "internalType": "address",
          "name": "receiver",
          "type": "address"
        },
        {
          "internalType": "uint96",
          "name": "fee",
          "type": "uint96"
        }
      ],
      "name": "setDefaultRoyalty",
      "outputs": [],
      "stateMutability": "nonpayable",
      "type": "function"
    },
    {
      "inputs": [
        {
          "internalType": "uint256",
          "name": "tokenID",
          "type": "uint256"
        },
        {
          "internalType": "uint256",
          "name": "price",
          "type": "uint256"
        }
      ],
      "name": "setTokenPrice",
      "outputs": [],
      "stateMutability": "nonpayable",
      "type": "function"
    },
    {
      "inputs": [
        {
          "internalType": "uint256",
          "name": "tokenID",
          "type": "uint256"
        },
        {
          "internalType": "uint256",
          "name": "price",
          "type": "uint256"
        },
        {
          "internalType": "address",
          "name": "approved",
          "type": "address"
        },
        {
          "internalType": "enum IOpenMarketable.Approve",
          "name": "approveType",
          "type": "uint8"
        }
      ],
      "name": "setTokenPrice",
      "outputs": [],
      "stateMutability": "nonpayable",
      "type": "function"
    },
    {
      "inputs": [
        {
          "internalType": "uint256",
          "name": "tokenID",
          "type": "uint256"
        },
        {
          "internalType": "address",
          "name": "receiver",
          "type": "address"
        },
        {
          "internalType": "uint96",
          "name": "fee",
          "type": "uint96"
        }
      ],
      "name": "setTokenRoyalty",
      "outputs": [],
      "stateMutability": "nonpayable",
      "type": "function"
    },
    {
      "inputs": [
        {
          "internalType": "uint256",
          "name": "tokenID",
          "type": "uint256"
        },
        {
          "internalType": "address",
          "name": "receiver",
          "type": "address"
        }
      ],
      "name": "setTokenRoyaltyReceiver",
      "outputs": [],
      "stateMutability": "nonpayable",
      "type": "function"
    },
    {
      "inputs": [
        {
          "internalType": "bytes4",
          "name": "interfaceId",
          "type": "bytes4"
        }
      ],
      "name": "supportsInterface",
      "outputs": [
        {
          "internalType": "bool",
          "name": "",
          "type": "bool"
        }
      ],
      "stateMutability": "view",
      "type": "function"
    },
    {
      "inputs": [],
      "name": "symbol",
      "outputs": [
        {
          "internalType": "string",
          "name": "",
          "type": "string"
        }
      ],
      "stateMutability": "view",
      "type": "function"
    },
    {
      "inputs": [],
      "name": "template",
      "outputs": [
        {
          "internalType": "string",
          "name": "",
          "type": "string"
        }
      ],
      "stateMutability": "view",
      "type": "function"
    },
    {
      "inputs": [],
      "name": "togglePause",
      "outputs": [],
      "stateMutability": "nonpayable",
      "type": "function"
    },
    {
      "inputs": [
        {
          "internalType": "uint256",
          "name": "index",
          "type": "uint256"
        }
      ],
      "name": "tokenByIndex",
      "outputs": [
        {
          "internalType": "uint256",
          "name": "",
          "type": "uint256"
        }
      ],
      "stateMutability": "view",
      "type": "function"
    },
    {
      "inputs": [],
      "name": "tokenIdNext",
      "outputs": [
        {
          "internalType": "uint256",
          "name": "",
          "type": "uint256"
        }
      ],
      "stateMutability": "view",
      "type": "function"
    },
    {
      "inputs": [
        {
          "internalType": "address",
          "name": "owner",
          "type": "address"
        },
        {
          "internalType": "uint256",
          "name": "index",
          "type": "uint256"
        }
      ],
      "name": "tokenOfOwnerByIndex",
      "outputs": [
        {
          "internalType": "uint256",
          "name": "",
          "type": "uint256"
        }
      ],
      "stateMutability": "view",
      "type": "function"
    },
    {
      "inputs": [
        {
          "internalType": "uint256",
          "name": "tokenID",
          "type": "uint256"
        }
      ],
      "name": "tokenURI",
      "outputs": [
        {
          "internalType": "string",
          "name": "",
          "type": "string"
        }
      ],
      "stateMutability": "view",
      "type": "function"
    },
    {
      "inputs": [],
      "name": "totalSupply",
      "outputs": [
        {
          "internalType": "uint256",
          "name": "",
          "type": "uint256"
        }
      ],
      "stateMutability": "view",
      "type": "function"
    },
    {
      "inputs": [
        {
          "internalType": "address",
          "name": "to",
          "type": "address"
        },
        {
          "internalType": "uint256",
          "name": "tokenID",
          "type": "uint256"
        }
      ],
      "name": "transfer",
      "outputs": [],
      "stateMutability": "nonpayable",
      "type": "function"
    },
    {
      "inputs": [
        {
          "internalType": "address",
          "name": "from",
          "type": "address"
        },
        {
          "internalType": "address",
          "name": "to",
          "type": "address"
        },
        {
          "internalType": "uint256",
          "name": "tokenID",
          "type": "uint256"
        }
      ],
      "name": "transferFrom",
      "outputs": [],
      "stateMutability": "payable",
      "type": "function"
    },
    {
      "inputs": [
        {
          "internalType": "address",
          "name": "newOwner",
          "type": "address"
        }
      ],
      "name": "transferOwnership",
      "outputs": [],
      "stateMutability": "nonpayable",
      "type": "function"
    },
    {
      "inputs": [],
      "name": "version",
      "outputs": [
        {
          "internalType": "uint256",
          "name": "",
          "type": "uint256"
        }
      ],
      "stateMutability": "view",
      "type": "function"
    },
    {
      "inputs": [],
      "name": "withdraw",
      "outputs": [],
      "stateMutability": "nonpayable",
      "type": "function"
    },
    {
      "inputs": [
        {
          "internalType": "address",
          "name": "token",
          "type": "address"
        }
      ],
      "name": "withdraw",
      "outputs": [],
      "stateMutability": "nonpayable",
      "type": "function"
    },
    {
      "stateMutability": "payable",
      "type": "receive"
    }
  ],
  "transactionHash": "0x2b027a0457f6529c42a8b8497ab61943ba98aad66047466571df2644320664f8",
  "args": [],
  "numDeployments": 8,
  "solcInputHash": "87817576fa665de692e5560b83fa47b8",
  "bytecode": "0x608060405234801561001057600080fd5b50613677806100206000396000f3fe60806040526004361061028c5760003560e01c80636d3c7ec51161015a578063c457fb37116100c1578063e97186ef1161007a578063e97186ef146107d7578063e985e9c5146107f7578063eb685c4714610840578063ee8c8b6314610860578063f2fde38b14610880578063fcfff16f146108a057600080fd5b8063c457fb3714610722578063c4ae31681461074f578063c87b56dd14610764578063d0def52114610784578063d85d3d27146107a4578063d96a094a146107c457600080fd5b80638da5cb5b116101135780638da5cb5b1461068257806395d89b41146106a5578063a22cb465146106ba578063a9059cbb146106da578063b086613c146106fa578063b88d4fde1461070f57600080fd5b80636d3c7ec5146105775780636f2ddd931461059757806370a08231146105ac578063833b7b78146105cc5780638bbf58b31461063c5780638cabe05a1461065257600080fd5b80632f745c59116101fe57806351cff8d9116101b757806351cff8d9146104d457806354fd4d50146104f45780635944c7531461050a5780635c975abb1461052a57806360f96a8f146105425780636352211e1461055757600080fd5b80632f745c59146104395780633ccfd60b1461045957806342842e0e1461046e57806342966c68146104815780634472167b146104a15780634f6ccce7146104b457600080fd5b80630c5597e4116102505780630c5597e414610369578063158ef93e1461038957806318160ddd146103a85780631eb40e21146103c757806323b872dd146103e75780632a55205a146103fa57600080fd5b806301ffc9a71461029857806304634d8d146102cd57806306fdde03146102ef578063081812fc14610311578063095ea7b31461034957600080fd5b3661029357005b600080fd5b3480156102a457600080fd5b506102b86102b3366004612bc9565b6108ba565b60405190151581526020015b60405180910390f35b3480156102d957600080fd5b506102ed6102e8366004612c20565b6108e5565b005b3480156102fb57600080fd5b5061030461092b565b6040516102c49190612ca6565b34801561031d57600080fd5b5061033161032c366004612cb9565b6109bd565b6040516001600160a01b0390911681526020016102c4565b34801561035557600080fd5b506102ed610364366004612cd2565b610a14565b34801561037557600080fd5b506102ed610384366004612cfe565b610ad8565b34801561039557600080fd5b506012546102b890610100900460ff1681565b3480156103b457600080fd5b506008545b6040519081526020016102c4565b3480156103d357600080fd5b506102ed6103e2366004612dda565b610b6c565b6102ed6103f5366004612e77565b610ba7565b34801561040657600080fd5b5061041a610415366004612eb8565b610bb7565b604080516001600160a01b0390931683526020830191909152016102c4565b34801561044557600080fd5b506103b9610454366004612cd2565b610c85565b34801561046557600080fd5b506102ed610d0c565b6102ed61047c366004612e77565b610d6a565b34801561048d57600080fd5b506102ed61049c366004612cb9565b610d85565b6103b96104af366004612eda565b610db5565b3480156104c057600080fd5b506103b96104cf366004612cb9565b610e79565b3480156104e057600080fd5b506102ed6104ef366004612f5b565b610ee3565b34801561050057600080fd5b506103b960145481565b34801561051657600080fd5b506102ed610525366004612f78565b61104f565b34801561053657600080fd5b5060125460ff166102b8565b34801561054e57600080fd5b506103316110ed565b34801561056357600080fd5b50610331610572366004612cb9565b611136565b34801561058357600080fd5b506102ed610592366004612cb9565b611189565b3480156105a357600080fd5b506103046111c1565b3480156105b857600080fd5b506103b96105c7366004612f5b565b61124f565b3480156105d857600080fd5b506106156105e7366004612cb9565b6000908152600f60205260409020546001600160a01b03811691600160a01b9091046001600160601b031690565b604080516001600160a01b0390931683526001600160601b039091166020830152016102c4565b34801561064857600080fd5b506103b960155481565b34801561065e57600080fd5b50600e546001600160a01b03811690600160a01b90046001600160601b0316610615565b34801561068e57600080fd5b50600c5461010090046001600160a01b0316610331565b3480156106b157600080fd5b506103046112ba565b3480156106c657600080fd5b506102ed6106d5366004612fc8565b6112c9565b3480156106e657600080fd5b506102ed6106f5366004612cd2565b611335565b34801561070657600080fd5b50600d546103b9565b6102ed61071d366004612ff6565b611381565b34801561072e57600080fd5b506103b961073d366004612cb9565b60009081526011602052604090205490565b34801561075b57600080fd5b506102ed611393565b34801561077057600080fd5b5061030461077f366004612cb9565b6113d4565b34801561079057600080fd5b506103b961079f366004613056565b6114ac565b3480156107b057600080fd5b506103b96107bf3660046130a6565b61152a565b6102ed6107d2366004612cb9565b61153b565b3480156107e357600080fd5b506102ed6107f2366004613173565b6116e7565b34801561080357600080fd5b506102b8610812366004613240565b6001600160a01b03918216600090815260036020908152604080832093909416825291909152205460ff1690565b34801561084c57600080fd5b506102ed61085b366004612eb8565b611742565b34801561086c57600080fd5b506102ed61087b36600461326e565b611772565b34801561088c57600080fd5b506102ed61089b366004612f5b565b6117f1565b3480156108ac57600080fd5b506016546102b89060ff1681565b60006001600160e01b0319821663f9cec92d60e01b14806108df57506108df82611829565b92915050565b600c5461010090046001600160a01b0316331461091d5760405162461bcd60e51b8152600401610914906132bc565b60405180910390fd5b6109278282611851565b5050565b60606005805461093a906132df565b80601f0160208091040260200160405190810160405280929190818152602001828054610966906132df565b80156109b35780601f10610988576101008083540402835291602001916109b3565b820191906000526020600020905b81548152906001019060200180831161099657829003601f168201915b5050505050905090565b60008181526020819052604081205482906001600160a01b03166109f35760405162461bcd60e51b815260040161091490613314565b6000838152600260205260409020546001600160a01b031691505b50919050565b610a1e3382611919565b610a6a5760405162461bcd60e51b815260206004820152601c60248201527f4e6f7420746f6b656e206f776e6572206e6f72206f70657261746f72000000006044820152606401610914565b600081815260026020526040902080546001600160a01b0319166001600160a01b0384169081179091558190610a9f82611136565b6001600160a01b03167f8c5be1e5ebec7d5bd14f71427d1e84f3dd0314c0f7b2291e5b200ac8c7c3b92560405160405180910390a45050565b60008281526020819052604090205482906001600160a01b0316610b0e5760405162461bcd60e51b815260040161091490613314565b600c5461010090046001600160a01b03163314610b3d5760405162461bcd60e51b8152600401610914906132bc565b506000918252600f602052604090912080546001600160a01b0319166001600160a01b03909216919091179055565b60008060008084806020019051810190610b86919061333e565b9350935093509350610b9d888888878787876116e7565b5050505050505050565b610bb2838383611974565b505050565b60008082600160801b8110610bde5760405162461bcd60e51b815260040161091490613409565b6000858152600f60209081526040918290208251808401909352546001600160a01b038116808452600160a01b9091046001600160601b031691830191909152610c52575060408051808201909152600e546001600160a01b0381168252600160a01b90046001600160601b031660208201525b602081015161271090610c6e906001600160601b031687613446565b610c789190613465565b9051969095509350505050565b6000610c908361124f565b8210610ccf5760405162461bcd60e51b815260206004820152600e60248201526d496e76616c696420696e6465782160901b6044820152606401610914565b6001600160a01b0383166000908152600960205260409020805483908110610cf957610cf9613487565b9060005260206000200154905092915050565b600c5461010090046001600160a01b03163314610d3b5760405162461bcd60e51b8152600401610914906132bc565b60405133904780156108fc02916000818181858888f19350505050158015610d67573d6000803e3d6000fd5b50565b610bb283838360405180602001604052806000815250611baa565b80610d903382611c02565b610dac5760405162461bcd60e51b81526004016109149061349d565b61092782611c39565b60165460009060ff1680610dd95750600c546001600160a01b036101009091041633145b610e125760405162461bcd60e51b815260206004820152600a6024820152692737ba1036b4b73a32b960b11b6044820152606401610914565b60125460ff1615610e4f5760405162461bcd60e51b81526020600482015260076024820152665061757365642160c81b6044820152606401610914565b610e5986866114ac565b9050610e658185611c42565b610e70818484611cae565b95945050505050565b6008546000908210610ebe5760405162461bcd60e51b815260206004820152600e60248201526d496e76616c696420696e6465782160901b6044820152606401610914565b60088281548110610ed157610ed1613487565b90600052602060002001549050919050565b600c5461010090046001600160a01b03163314610f125760405162461bcd60e51b8152600401610914906132bc565b6040516370a0823160e01b81523060048201526001600160a01b0382169063a9059cbb90339083906370a082319060240160206040518083038186803b158015610f5b57600080fd5b505afa158015610f6f573d6000803e3d6000fd5b505050506040513d601f19601f82011682018060405250810190610f9391906134d4565b6040516001600160e01b031960e085901b1681526001600160a01b0390921660048301526024820152604401602060405180830381600087803b158015610fd957600080fd5b505af1158015610fed573d6000803e3d6000fd5b505050506040513d601f19601f8201168201806040525081019061101191906134ed565b610d675760405162461bcd60e51b815260206004820152600f60248201526e15da5d1a191c985dc819985a5b1959608a1b6044820152606401610914565b60008381526020819052604090205483906001600160a01b03166110855760405162461bcd60e51b815260040161091490613314565b600c5461010090046001600160a01b031633146110b45760405162461bcd60e51b8152600401610914906132bc565b836110bf3382611c02565b6110db5760405162461bcd60e51b81526004016109149061349d565b6110e6858585611cae565b5050505050565b6000602d303b146110fe5750600090565b6010306001600160a01b0316803b806020016040519081016040528181526000908060200190933c61112f9061350a565b901c905090565b60008181526020819052604081205482906001600160a01b031661116c5760405162461bcd60e51b815260040161091490613314565b50506000908152602081905260409020546001600160a01b031690565b600c5461010090046001600160a01b031633146111b85760405162461bcd60e51b8152600401610914906132bc565b610d6781611d93565b601380546111ce906132df565b80601f01602080910402602001604051908101604052809291908181526020018280546111fa906132df565b80156112475780601f1061121c57610100808354040283529160200191611247565b820191906000526020600020905b81548152906001019060200180831161122a57829003601f168201915b505050505081565b60006001600160a01b03821661129e5760405162461bcd60e51b8152602060048201526014602482015273496e76616c6964207a65726f206164647265737360601b6044820152606401610914565b506001600160a01b031660009081526001602052604090205490565b60606006805461093a906132df565b3360008181526003602090815260408083206001600160a01b03871680855290835292819020805460ff191686151590811790915590519081529192917f17307eab39ab6107e8899845ad3d59bd9653f200f220920489ca2b5937696c31910160405180910390a35050565b60008181526020819052604090205481906001600160a01b031661136b5760405162461bcd60e51b815260040161091490613314565b611376826000611742565b610bb2338484610d6a565b61138d84848484611baa565b50505050565b600c5461010090046001600160a01b031633146113c25760405162461bcd60e51b8152600401610914906132bc565b6012546113d29060ff1615611df3565b565b60008181526020819052604090205460609082906001600160a01b031661140d5760405162461bcd60e51b815260040161091490613314565b60008381526007602052604090208054611426906132df565b80601f0160208091040260200160405190810160405280929190818152602001828054611452906132df565b801561149f5780601f106114745761010080835404028352916020019161149f565b820191906000526020600020905b81548152906001019060200180831161148257829003601f168201915b5050505050915050919050565b60165460009060ff16806114d05750600c546001600160a01b036101009091041633145b6115095760405162461bcd60e51b815260206004820152600a6024820152692737ba1036b4b73a32b960b11b6044820152606401610914565b601580549060006115198361352e565b9190505590506108df838383611e38565b60006108df33836000806000610db5565b60008181526020819052604090205481906001600160a01b03166115715760405162461bcd60e51b815260040161091490613314565b600082815260116020526040902054806115bb5760405162461bcd60e51b815260206004820152600b60248201526a139bdd081d1bc81cd95b1b60aa1b6044820152606401610914565b803410156115fe5760405162461bcd60e51b815260206004820152601060248201526f4e6f7420656e6f7567682066756e647360801b6044820152606401610914565b600061160984611136565b90506001600160a01b03811661162157611621613549565b6001600160a01b0381163314156116715760405162461bcd60e51b8152602060048201526014602482015273416c726561647920746f6b656e206f776e65722160601b6044820152606401610914565b60405163095ea7b360e01b815233600482015260248101859052309063095ea7b390604401600060405180830381600087803b1580156116b057600080fd5b505af11580156116c4573d6000803e3d6000fd5b505050506116d3813386610d6a565b505050600090815260116020526040812055565b6116f2878787611e43565b8060008151811061170557611705613487565b6020026020010151601660006101000a81548160ff02191690831515021790555061172f84611d93565b6117398383611851565b50505050505050565b8161174d3382611c02565b6117695760405162461bcd60e51b81526004016109149061349d565b610bb283836000805b8361177d3382611c02565b6117995760405162461bcd60e51b81526004016109149061349d565b6117a38585611c42565b60028260028111156117b7576117b761355f565b14156117cd576117c88360016112c9565b6110e6565b60018260028111156117e1576117e161355f565b14156110e6576110e68386610a14565b600c5461010090046001600160a01b031633146118205760405162461bcd60e51b8152600401610914906132bc565b610d6781611e85565b60006001600160e01b03198216600162b7486560e01b031914806108df57506108df82611edf565b6001600160601b0381166127108111156118a85760405162461bcd60e51b8152602060048201526018602482015277526f79616c7479206665652065786365656420707269636560401b6044820152606401610914565b6040805180820182526001600160a01b0385168082526001600160601b0385166020928301819052600160a01b81028217600e558351918252918101919091527fa1edde4ed5c1392c90dccd8e051a4080b761850e49a24c77d826348a51e1f8dc91015b60405180910390a1505050565b60008061192583611136565b9050836001600160a01b0316816001600160a01b0316148061196c57506001600160a01b0380821660009081526003602090815260408083209388168352929052205460ff165b949350505050565b8061197f3382611c02565b61199b5760405162461bcd60e51b81526004016109149061349d565b6001600160a01b0384166119f15760405162461bcd60e51b815260206004820152601a60248201527f5472616e736665722066726f6d207a65726f20616464726573730000000000006044820152606401610914565b6001600160a01b038316611a475760405162461bcd60e51b815260206004820152601860248201527f5472616e7366657220746f207a65726f206164647265737300000000000000006044820152606401610914565b611a5082611136565b6001600160a01b0316846001600160a01b031614611aa15760405162461bcd60e51b815260206004820152600e60248201526d233937b6903737ba1037bbb732b960911b6044820152606401610914565b611aac848484611f04565b600082815260026020526040902080546001600160a01b03191690556001600160a01b0384811690841614611b63576001600160a01b03841660009081526001602081905260408220805491929091611b06908490613575565b90915550506001600160a01b03831660009081526001602081905260408220805491929091611b3690849061358c565b9091555050600082815260208190526040902080546001600160a01b0319166001600160a01b0385161790555b81836001600160a01b0316856001600160a01b03167fddf252ad1be2c89b69c2b068fc378daa952ba7f163c4a11628f55a4df523b3ef60405160405180910390a450505050565b611bb5848484611974565b611bc184848484611f0f565b61138d5760405162461bcd60e51b81526020600482015260126024820152712737ba1022a9219b9918a932b1b2b4bb32b960711b6044820152606401610914565b6000611c0e8383611919565b80611c325750826001600160a01b0316611c27836109bd565b6001600160a01b0316145b9392505050565b610d6781611fbd565b80600160801b8110611c665760405162461bcd60e51b815260040161091490613409565b60008381526011602090815260409182902084905581518581529081018490527f2f8c61aa79deaa9c961d54f640a154df4960a56a5989d25df0148be783dc3f5b910161190c565b6001600160601b038116612710811115611d055760405162461bcd60e51b8152602060048201526018602482015277526f79616c7479206665652065786365656420707269636560401b6044820152606401610914565b6040805180820182526001600160a01b038581168083526001600160601b03868116602080860182815260008c8152600f835288902096519051909316600160a01b029290941691909117909355835188815291820152918201527f2595213009f64247e2789cf9981bcc53ee736a6aa52042a651aa1549ae6fff619060600160405180910390a150505050565b80600160801b8110611db75760405162461bcd60e51b815260040161091490613409565b600d8290556040518281527f9f7a6492db3843bc01c0adb23cd27be964155c1d45c566f2ee32f28faf4eb6059060200160405180910390a15050565b6012805460ff1916821515908117909155604051339160ff161515907f8b265f737315073a655a642868ed756ba7e3b6c391b06dbbf70370aab7f7f06890600090a350565b610bb2838383611fe2565b60016015556040805180820190915260088152674f70656e4e46547360c01b6020820152611e7290600461203b565b611e7c838361208c565b610bb2816120e3565b600c80546001600160a01b03838116610100818102610100600160a81b031985161790945560405193909204169182907f8be0079c531659141344cd1fd0a4f28419497f9722a3daafe3b4186f6b6457e090600090a35050565b60006001600160e01b031982166350130d5360e01b14806108df57506108df8261211c565b610bb2838383612141565b60006001600160a01b0384163b1580610e705750604051630a85bd0160e11b808252906001600160a01b0386169063150b7a0290611f579033908a90899089906004016135a4565b602060405180830381600087803b158015611f7157600080fd5b505af1158015611f85573d6000803e3d6000fd5b505050506040513d601f19601f82011682018060405250810190611fa991906135e1565b6001600160e01b0319161495945050505050565b6000818152600f602090815260408083208390556011909152812055610d678161217a565b600e5461200b9082906001600160a01b03811690600160a01b90046001600160601b0316611cae565b61203081600d548561202b600c546001600160a01b036101009091041690565b612245565b610bb2838383612585565b601254610100900460ff16156120635760405162461bcd60e51b8152600401610914906135fe565b6012805461ff0019166101001790558151612085906013906020850190612ae4565b5060145550565b60045460ff16156120af5760405162461bcd60e51b8152600401610914906135fe565b6004805460ff1916600117905581516120cf906005906020850190612ae4565b508051610bb2906006906020840190612ae4565b600c5460ff16156121065760405162461bcd60e51b8152600401610914906135fe565b600c805460ff19166001179055610d6781611e85565b60006001600160e01b031982166398396bd360e01b14806108df57506108df826125de565b6000818152601160205260409020546121609082908461202b83611136565b600081815260116020526040812055610bb2838383612603565b600061218582611136565b90506121918183612617565b6000828152600b60205260408120546008549091906121b290600190613575565b90506000600882815481106121c9576121c9613487565b6000918252602080832090910154808352600b90915260408083208690558783528220919091556008805491925082918590811061220957612209613487565b60009182526020909120015560088054806122265761222661362b565b600190038181906000526020600020016000905590556110e685612725565b60105460ff16156122875760405162461bcd60e51b815260206004820152600c60248201526b4e6f2072652d656e7472792160a01b6044820152606401610914565b6010805460ff19166001179055348311156122d75760405162461bcd60e51b815260206004820152601060248201526f4e6f7420656e6f7567682066756e647360801b6044820152606401610914565b346122e157612575565b6001600160a01b0382166123275760405162461bcd60e51b815260206004820152600d60248201526c24b73b30b634b210313abcb2b960991b6044820152606401610914565b6001600160a01b03811661236e5760405162461bcd60e51b815260206004820152600e60248201526d24b73b30b634b21039b2b63632b960911b6044820152606401610914565b600080803486158015906123945750846001600160a01b0316866001600160a01b031614155b156124a1576123a38888610bb7565b90945092506001600160a01b0384166123bb57600092505b868311156123ff5760405162461bcd60e51b8152602060048201526011602482015270496e76616c696420726f79616c7469657360781b6044820152606401610914565b6124098388613575565b915081156124565761241b8282613575565b6040519091506001600160a01b0386169083156108fc029084906000818181858888f19350505050158015612454573d6000803e3d6000fd5b505b82156124a1576124668382613575565b6040519091506001600160a01b0385169084156108fc029085906000818181858888f1935050505015801561249f573d6000803e3d6000fd5b505b34816124ad858561358c565b6124b7919061358c565b146124c4576124c4613549565b8015612502576040516001600160a01b0387169082156108fc029083906000818181858888f19350505050158015612500573d6000803e3d6000fd5b505b60408051898152602081018990526001600160a01b038781168284015260608201859052868116608083015260a08201869052881660c082015260e0810183905290517f746889be52a242154dfc6d4e1c55b36e2f81cfc340b11f28ef86b142ca25d937918190036101000190a1505050505b50506010805460ff191690555050565b61258f8382612745565b600880546000838152600b60205260408120829055600182018355919091527ff3f7a9fe364faab93b216da50a3214154f22a0a2b415b23a84c8169e8b636ee301819055610bb2838383612783565b60006001600160e01b03198216632175daf960e11b14806108df57506108df826127ae565b61260d8382612617565b610bb28282612745565b6000818152600a60205260408120549060016126328561124f565b61263c9190613575565b90508082146126d3576001600160a01b038416600090815260096020526040812080548390811061266f5761266f613487565b906000526020600020015490508060096000876001600160a01b03166001600160a01b0316815260200190815260200160002084815481106126b3576126b3613487565b6000918252602080832090910192909255918252600a9052604090208290555b6000838152600a602090815260408083208390556001600160a01b0387168352600990915290208054806127095761270961362b565b6001900381819060005260206000200160009055905550505050565b600081815260076020526040812061273c91612b68565b610d67816127d3565b6001600160a01b0390911660009081526009602081815260408084208054868652600a84529185208290559282526001810183559183529091200155565b600081815260076020908152604090912083516127a292850190612ae4565b50610bb28383836128c4565b600063152a902d60e11b6001600160e01b0319831614806108df57506108df82612a4f565b60006127de82611136565b90506001600160a01b0381166128065760405162461bcd60e51b815260040161091490613314565b6001600160a01b03811660009081526001602052604090205461282b5761282b613549565b6001600160a01b03811660009081526001602081905260408220805491929091612856908490613575565b9091555050600082815260026020908152604080832080546001600160a01b0319908116909155918390528083208054909216909155518391906001600160a01b038416907fddf252ad1be2c89b69c2b068fc378daa952ba7f163c4a11628f55a4df523b3ef908390a45050565b6001600160a01b0383166129115760405162461bcd60e51b81526020600482015260146024820152734d696e7420746f207a65726f206164647265737360601b6044820152606401610914565b6000818152602081905260409020546001600160a01b03161561296d5760405162461bcd60e51b8152602060048201526014602482015273151bdad95b88185b1c9958591e481b5a5b9d195960621b6044820152606401610914565b6001600160a01b0383166000908152600160208190526040822080549192909161299890849061358c565b909155505060008181526020819052604080822080546001600160a01b0319166001600160a01b03871690811790915590518392907fddf252ad1be2c89b69c2b068fc378daa952ba7f163c4a11628f55a4df523b3ef908290a4612a0e6000848360405180602001604052806000815250611f0f565b610bb25760405162461bcd60e51b8152602060048201526012602482015271139bdd08115490cdcc8c549958d95a5d995960721b6044820152606401610914565b60006307f5828d60e41b6001600160e01b0319831614806108df57506108df82600063780e9d6360e01b6001600160e01b0319831614806108df57506108df826000635b5e139f60e01b6001600160e01b0319831614806108df57506108df8260006380ac58cd60e01b6001600160e01b0319831614806108df57506001600160e01b031982166301ffc9a760e01b146108df565b828054612af0906132df565b90600052602060002090601f016020900481019282612b125760008555612b58565b82601f10612b2b57805160ff1916838001178555612b58565b82800160010185558215612b58579182015b82811115612b58578251825591602001919060010190612b3d565b50612b64929150612b9e565b5090565b508054612b74906132df565b6000825580601f10612b84575050565b601f016020900490600052602060002090810190610d6791905b5b80821115612b645760008155600101612b9f565b6001600160e01b031981168114610d6757600080fd5b600060208284031215612bdb57600080fd5b8135611c3281612bb3565b6001600160a01b0381168114610d6757600080fd5b6001600160601b0381168114610d6757600080fd5b8035612c1b81612bfb565b919050565b60008060408385031215612c3357600080fd5b8235612c3e81612be6565b91506020830135612c4e81612bfb565b809150509250929050565b6000815180845260005b81811015612c7f57602081850181015186830182015201612c63565b81811115612c91576000602083870101525b50601f01601f19169290920160200192915050565b602081526000611c326020830184612c59565b600060208284031215612ccb57600080fd5b5035919050565b60008060408385031215612ce557600080fd5b8235612cf081612be6565b946020939093013593505050565b60008060408385031215612d1157600080fd5b823591506020830135612c4e81612be6565b634e487b7160e01b600052604160045260246000fd5b604051601f8201601f1916810167ffffffffffffffff81118282101715612d6257612d62612d23565b604052919050565b600082601f830112612d7b57600080fd5b813567ffffffffffffffff811115612d9557612d95612d23565b612da8601f8201601f1916602001612d39565b818152846020838601011115612dbd57600080fd5b816020850160208301376000918101602001919091529392505050565b60008060008060808587031215612df057600080fd5b843567ffffffffffffffff80821115612e0857600080fd5b612e1488838901612d6a565b95506020870135915080821115612e2a57600080fd5b612e3688838901612d6a565b945060408701359150612e4882612be6565b90925060608601359080821115612e5e57600080fd5b50612e6b87828801612d6a565b91505092959194509250565b600080600060608486031215612e8c57600080fd5b8335612e9781612be6565b92506020840135612ea781612be6565b929592945050506040919091013590565b60008060408385031215612ecb57600080fd5b50508035926020909101359150565b600080600080600060a08688031215612ef257600080fd5b8535612efd81612be6565b9450602086013567ffffffffffffffff811115612f1957600080fd5b612f2588828901612d6a565b945050604086013592506060860135612f3d81612be6565b91506080860135612f4d81612bfb565b809150509295509295909350565b600060208284031215612f6d57600080fd5b8135611c3281612be6565b600080600060608486031215612f8d57600080fd5b833592506020840135612f9f81612be6565b91506040840135612faf81612bfb565b809150509250925092565b8015158114610d6757600080fd5b60008060408385031215612fdb57600080fd5b8235612fe681612be6565b91506020830135612c4e81612fba565b6000806000806080858703121561300c57600080fd5b843561301781612be6565b9350602085013561302781612be6565b925060408501359150606085013567ffffffffffffffff81111561304a57600080fd5b612e6b87828801612d6a565b6000806040838503121561306957600080fd5b823561307481612be6565b9150602083013567ffffffffffffffff81111561309057600080fd5b61309c85828601612d6a565b9150509250929050565b6000602082840312156130b857600080fd5b813567ffffffffffffffff8111156130cf57600080fd5b61196c84828501612d6a565b600067ffffffffffffffff8211156130f5576130f5612d23565b5060051b60200190565b600082601f83011261311057600080fd5b81356020613125613120836130db565b612d39565b82815260059290921b8401810191818101908684111561314457600080fd5b8286015b8481101561316857803561315b81612fba565b8352918301918301613148565b509695505050505050565b600080600080600080600060e0888a03121561318e57600080fd5b873567ffffffffffffffff808211156131a657600080fd5b6131b28b838c01612d6a565b985060208a01359150808211156131c857600080fd5b6131d48b838c01612d6a565b975060408a013591506131e682612be6565b909550606089013594506080890135906131ff82612be6565b81945061320e60a08b01612c10565b935060c08a013591508082111561322457600080fd5b506132318a828b016130ff565b91505092959891949750929550565b6000806040838503121561325357600080fd5b823561325e81612be6565b91506020830135612c4e81612be6565b6000806000806080858703121561328457600080fd5b8435935060208501359250604085013561329d81612be6565b91506060850135600381106132b157600080fd5b939692955090935050565b6020808252600990820152682737ba1037bbb732b960b91b604082015260600190565b600181811c908216806132f357607f821691505b60208210811415610a0e57634e487b7160e01b600052602260045260246000fd5b60208082526010908201526f125b9d985b1a59081d1bdad95b88125160821b604082015260600190565b6000806000806080858703121561335457600080fd5b8451935060208086015161336781612be6565b604087015190945061337881612bfb565b606087015190935067ffffffffffffffff81111561339557600080fd5b8601601f810188136133a657600080fd5b80516133b4613120826130db565b81815260059190911b8201830190838101908a8311156133d357600080fd5b928401925b828410156133fa5783516133eb81612fba565b825292840192908401906133d8565b979a9699509497505050505050565b6020808252600d908201526c546f6f20657870656e7369766560981b604082015260600190565b634e487b7160e01b600052601160045260246000fd5b600081600019048311821515161561346057613460613430565b500290565b60008261348257634e487b7160e01b600052601260045260246000fd5b500490565b634e487b7160e01b600052603260045260246000fd5b6020808252601c908201527f4e6f7420746f6b656e206f776e6572206e6f7220617070726f76656400000000604082015260600190565b6000602082840312156134e657600080fd5b5051919050565b6000602082840312156134ff57600080fd5b8151611c3281612fba565b80516020808301519190811015610a0e5760001960209190910360031b1b16919050565b600060001982141561354257613542613430565b5060010190565b634e487b7160e01b600052600160045260246000fd5b634e487b7160e01b600052602160045260246000fd5b60008282101561358757613587613430565b500390565b6000821982111561359f5761359f613430565b500190565b6001600160a01b03858116825284166020820152604081018390526080606082018190526000906135d790830184612c59565b9695505050505050565b6000602082840312156135f357600080fd5b8151611c3281612bb3565b602080825260139082015272105b1c9958591e481a5b9a5d1a585b1a5e9959606a1b604082015260600190565b634e487b7160e01b600052603160045260246000fdfea2646970667358221220591968596318ef7b6f77343ce0ab1de56e1611e5421a97da9aa2dce94340dbaa64736f6c63430008090033",
  "devdoc": {
    "kind": "dev",
    "methods": {
      "burn(uint256)": {
        "params": {
          "tokenID": "tokenID of NFT to burn"
        }
      },
      "getDefaultRoyalty()": {
        "returns": {
          "fee": ": fee Numerator, less than 10_000",
          "receiver": ": address of the royalty receiver, or address(0) to reset"
        }
      },
      "getTokenRoyalty(uint256)": {
        "params": {
          "tokenID": ": token ID"
        },
        "returns": {
          "fee": ": fee Numerator, less than 10_000",
          "receiver": ": address of the royalty receiver, or address(0) to reset"
        }
      },
      "setDefaultPrice(uint256)": {
        "params": {
          "price": ": default price in wei"
        }
      },
      "setDefaultRoyalty(address,uint96)": {
        "params": {
          "fee": ": fee Numerator, less than 10000",
          "receiver": ": address of the royalty receiver, or address(0) to reset"
        }
      },
      "setTokenPrice(uint256,uint256)": {
        "params": {
          "price": ": token price in wei",
          "tokenID": ": token ID"
        }
      },
      "setTokenPrice(uint256,uint256,address,uint8)": {
        "params": {
          "price": ": token price in wei",
          "tokenID": ": token ID"
        }
      },
      "setTokenRoyalty(uint256,address,uint96)": {
        "params": {
          "fee": ": fee Numerator, less than 10_000",
          "receiver": ": address of the royalty receiver, or address(0) to reset",
          "tokenID": ": token ID"
        }
      },
      "setTokenRoyaltyReceiver(uint256,address)": {
        "params": {
          "receiver": ": address of the royalty receiver, or address(0) to reset",
          "tokenID": ": token ID"
        }
      },
      "supportsInterface(bytes4)": {
        "params": {
          "interfaceId": "interfaceId to test"
        }
      }
    },
    "title": "OpenNFTs smartcontract",
    "version": 1
  },
  "userdoc": {
    "kind": "user",
    "methods": {
      "burn(uint256)": {
        "notice": "burn NFT"
      },
      "getDefaultRoyalty()": {
        "notice": "GET default royalty info"
      },
      "getTokenRoyalty(uint256)": {
        "notice": "GET token royalty info"
      },
      "open()": {
        "notice": "Mint NFT allowed to everyone or only collection owner"
      },
      "setDefaultPrice(uint256)": {
        "notice": "SET default mint price"
      },
      "setDefaultRoyalty(address,uint96)": {
        "notice": "SET default royalty info"
      },
      "setTokenPrice(uint256,uint256)": {
        "notice": "SET token price"
      },
      "setTokenPrice(uint256,uint256,address,uint8)": {
        "notice": "SET token price"
      },
      "setTokenRoyalty(uint256,address,uint96)": {
        "notice": "SET token royalty info"
      },
      "setTokenRoyaltyReceiver(uint256,address)": {
        "notice": "SET token royalty receiver"
      },
      "supportsInterface(bytes4)": {
        "notice": "test if this interface is supported"
      },
      "tokenIdNext()": {
        "notice": "tokenID of next minted NFT"
      },
      "withdraw()": {
        "notice": "withdraw eth"
      },
      "withdraw(address)": {
        "notice": "withdraw token"
      }
    },
    "version": 1
  },
  "storageLayout": {
    "storage": [
      {
        "astId": 5411,
        "contract": "contracts/next/OpenAutoMarket.sol:OpenAutoMarket",
        "label": "_owners",
        "offset": 0,
        "slot": "0",
        "type": "t_mapping(t_uint256,t_address)"
      },
      {
        "astId": 5415,
        "contract": "contracts/next/OpenAutoMarket.sol:OpenAutoMarket",
        "label": "_balances",
        "offset": 0,
        "slot": "1",
        "type": "t_mapping(t_address,t_uint256)"
      },
      {
        "astId": 5419,
        "contract": "contracts/next/OpenAutoMarket.sol:OpenAutoMarket",
        "label": "_tokenApprovals",
        "offset": 0,
        "slot": "2",
        "type": "t_mapping(t_uint256,t_address)"
      },
      {
        "astId": 5425,
        "contract": "contracts/next/OpenAutoMarket.sol:OpenAutoMarket",
        "label": "_operatorApprovals",
        "offset": 0,
        "slot": "3",
        "type": "t_mapping(t_address,t_mapping(t_address,t_bool))"
      },
      {
        "astId": 6334,
        "contract": "contracts/next/OpenAutoMarket.sol:OpenAutoMarket",
        "label": "_openERC721MetadataInitialized",
        "offset": 0,
        "slot": "4",
        "type": "t_bool"
      },
      {
        "astId": 6336,
        "contract": "contracts/next/OpenAutoMarket.sol:OpenAutoMarket",
        "label": "_name",
        "offset": 0,
        "slot": "5",
        "type": "t_string_storage"
      },
      {
        "astId": 6338,
        "contract": "contracts/next/OpenAutoMarket.sol:OpenAutoMarket",
        "label": "_symbol",
        "offset": 0,
        "slot": "6",
        "type": "t_string_storage"
      },
      {
        "astId": 6342,
        "contract": "contracts/next/OpenAutoMarket.sol:OpenAutoMarket",
        "label": "_tokenURIs",
        "offset": 0,
        "slot": "7",
        "type": "t_mapping(t_uint256,t_string_storage)"
      },
      {
        "astId": 6011,
        "contract": "contracts/next/OpenAutoMarket.sol:OpenAutoMarket",
        "label": "_allTokens",
        "offset": 0,
        "slot": "8",
        "type": "t_array(t_uint256)dyn_storage"
      },
      {
        "astId": 6016,
        "contract": "contracts/next/OpenAutoMarket.sol:OpenAutoMarket",
        "label": "_ownedTokens",
        "offset": 0,
        "slot": "9",
        "type": "t_mapping(t_address,t_array(t_uint256)dyn_storage)"
      },
      {
        "astId": 6020,
        "contract": "contracts/next/OpenAutoMarket.sol:OpenAutoMarket",
        "label": "_ownedTokensIndex",
        "offset": 0,
        "slot": "10",
        "type": "t_mapping(t_uint256,t_uint256)"
      },
      {
        "astId": 6024,
        "contract": "contracts/next/OpenAutoMarket.sol:OpenAutoMarket",
        "label": "_allTokensIndex",
        "offset": 0,
        "slot": "11",
        "type": "t_mapping(t_uint256,t_uint256)"
      },
      {
        "astId": 5174,
        "contract": "contracts/next/OpenAutoMarket.sol:OpenAutoMarket",
        "label": "_openERC173Initialized",
        "offset": 0,
        "slot": "12",
        "type": "t_bool"
      },
      {
        "astId": 5176,
        "contract": "contracts/next/OpenAutoMarket.sol:OpenAutoMarket",
        "label": "_owner",
        "offset": 1,
        "slot": "12",
        "type": "t_address"
      },
      {
        "astId": 5287,
        "contract": "contracts/next/OpenAutoMarket.sol:OpenAutoMarket",
        "label": "_defaultPrice",
        "offset": 0,
        "slot": "13",
        "type": "t_uint256"
      },
      {
        "astId": 5290,
        "contract": "contracts/next/OpenAutoMarket.sol:OpenAutoMarket",
        "label": "_defaultRoyaltyInfo",
        "offset": 0,
        "slot": "14",
        "type": "t_struct(RoyaltyInfo)5285_storage"
      },
      {
        "astId": 5295,
        "contract": "contracts/next/OpenAutoMarket.sol:OpenAutoMarket",
        "label": "_tokenRoyaltyInfo",
        "offset": 0,
        "slot": "15",
        "type": "t_mapping(t_uint256,t_struct(RoyaltyInfo)5285_storage)"
      },
      {
        "astId": 6504,
        "contract": "contracts/next/OpenAutoMarket.sol:OpenAutoMarket",
        "label": "_locked",
        "offset": 0,
        "slot": "16",
        "type": "t_bool"
      },
      {
        "astId": 6544,
        "contract": "contracts/next/OpenAutoMarket.sol:OpenAutoMarket",
        "label": "_tokenPrice",
        "offset": 0,
        "slot": "17",
        "type": "t_mapping(t_uint256,t_uint256)"
      },
      {
        "astId": 7434,
        "contract": "contracts/next/OpenAutoMarket.sol:OpenAutoMarket",
        "label": "_paused",
        "offset": 0,
        "slot": "18",
        "type": "t_bool"
      },
      {
        "astId": 4987,
        "contract": "contracts/next/OpenAutoMarket.sol:OpenAutoMarket",
        "label": "initialized",
        "offset": 1,
        "slot": "18",
        "type": "t_bool"
      },
      {
        "astId": 4989,
        "contract": "contracts/next/OpenAutoMarket.sol:OpenAutoMarket",
        "label": "template",
        "offset": 0,
        "slot": "19",
        "type": "t_string_storage"
      },
      {
        "astId": 4991,
        "contract": "contracts/next/OpenAutoMarket.sol:OpenAutoMarket",
        "label": "version",
        "offset": 0,
        "slot": "20",
        "type": "t_uint256"
      },
      {
        "astId": 7192,
        "contract": "contracts/next/OpenAutoMarket.sol:OpenAutoMarket",
        "label": "tokenIdNext",
        "offset": 0,
        "slot": "21",
        "type": "t_uint256"
      },
      {
        "astId": 18893,
        "contract": "contracts/next/OpenAutoMarket.sol:OpenAutoMarket",
        "label": "open",
        "offset": 0,
        "slot": "22",
        "type": "t_bool"
      }
    ],
    "types": {
      "t_address": {
        "encoding": "inplace",
        "label": "address",
        "numberOfBytes": "20"
      },
      "t_array(t_uint256)dyn_storage": {
        "base": "t_uint256",
        "encoding": "dynamic_array",
        "label": "uint256[]",
        "numberOfBytes": "32"
      },
      "t_bool": {
        "encoding": "inplace",
        "label": "bool",
        "numberOfBytes": "1"
      },
      "t_mapping(t_address,t_array(t_uint256)dyn_storage)": {
        "encoding": "mapping",
        "key": "t_address",
        "label": "mapping(address => uint256[])",
        "numberOfBytes": "32",
        "value": "t_array(t_uint256)dyn_storage"
      },
      "t_mapping(t_address,t_bool)": {
        "encoding": "mapping",
        "key": "t_address",
        "label": "mapping(address => bool)",
        "numberOfBytes": "32",
        "value": "t_bool"
      },
      "t_mapping(t_address,t_mapping(t_address,t_bool))": {
        "encoding": "mapping",
        "key": "t_address",
        "label": "mapping(address => mapping(address => bool))",
        "numberOfBytes": "32",
        "value": "t_mapping(t_address,t_bool)"
      },
      "t_mapping(t_address,t_uint256)": {
        "encoding": "mapping",
        "key": "t_address",
        "label": "mapping(address => uint256)",
        "numberOfBytes": "32",
        "value": "t_uint256"
      },
      "t_mapping(t_uint256,t_address)": {
        "encoding": "mapping",
        "key": "t_uint256",
        "label": "mapping(uint256 => address)",
        "numberOfBytes": "32",
        "value": "t_address"
      },
      "t_mapping(t_uint256,t_string_storage)": {
        "encoding": "mapping",
        "key": "t_uint256",
        "label": "mapping(uint256 => string)",
        "numberOfBytes": "32",
        "value": "t_string_storage"
      },
      "t_mapping(t_uint256,t_struct(RoyaltyInfo)5285_storage)": {
        "encoding": "mapping",
        "key": "t_uint256",
        "label": "mapping(uint256 => struct OpenERC2981.RoyaltyInfo)",
        "numberOfBytes": "32",
        "value": "t_struct(RoyaltyInfo)5285_storage"
      },
      "t_mapping(t_uint256,t_uint256)": {
        "encoding": "mapping",
        "key": "t_uint256",
        "label": "mapping(uint256 => uint256)",
        "numberOfBytes": "32",
        "value": "t_uint256"
      },
      "t_string_storage": {
        "encoding": "bytes",
        "label": "string",
        "numberOfBytes": "32"
      },
      "t_struct(RoyaltyInfo)5285_storage": {
        "encoding": "inplace",
        "label": "struct OpenERC2981.RoyaltyInfo",
        "members": [
          {
            "astId": 5282,
            "contract": "contracts/next/OpenAutoMarket.sol:OpenAutoMarket",
            "label": "receiver",
            "offset": 0,
            "slot": "0",
            "type": "t_address"
          },
          {
            "astId": 5284,
            "contract": "contracts/next/OpenAutoMarket.sol:OpenAutoMarket",
            "label": "fee",
            "offset": 20,
            "slot": "0",
            "type": "t_uint96"
          }
        ],
        "numberOfBytes": "32"
      },
      "t_uint256": {
        "encoding": "inplace",
        "label": "uint256",
        "numberOfBytes": "32"
      },
      "t_uint96": {
        "encoding": "inplace",
        "label": "uint96",
        "numberOfBytes": "12"
      }
    }
  }
}