{
  "address": "0xEadAE683aa5Eb2e3dAE79d35aA959bfc17100aB7",
  "abi": [
    {
      "anonymous": false,
      "inputs": [
        {
          "indexed": true,
          "internalType": "address",
          "name": "owner",
          "type": "address"
        },
        {
          "indexed": true,
          "internalType": "address",
          "name": "approved",
          "type": "address"
        },
        {
          "indexed": true,
          "internalType": "uint256",
          "name": "tokenId",
          "type": "uint256"
        }
      ],
      "name": "Approval",
      "type": "event"
    },
    {
      "anonymous": false,
      "inputs": [
        {
          "indexed": true,
          "internalType": "address",
          "name": "owner",
          "type": "address"
        },
        {
          "indexed": true,
          "internalType": "address",
          "name": "operator",
          "type": "address"
        },
        {
          "indexed": false,
          "internalType": "bool",
          "name": "approved",
          "type": "bool"
        }
      ],
      "name": "ApprovalForAll",
      "type": "event"
    },
    {
      "anonymous": false,
      "inputs": [
        {
          "indexed": true,
          "internalType": "address",
          "name": "previousOwner",
          "type": "address"
        },
        {
          "indexed": true,
          "internalType": "address",
          "name": "newOwner",
          "type": "address"
        }
      ],
      "name": "OwnershipTransferred",
      "type": "event"
    },
    {
      "anonymous": false,
      "inputs": [
        {
          "indexed": false,
          "internalType": "uint256",
          "name": "tokenID",
          "type": "uint256"
        },
        {
          "indexed": false,
          "internalType": "uint256",
          "name": "price",
          "type": "uint256"
        },
        {
          "indexed": false,
          "internalType": "address",
          "name": "payer",
          "type": "address"
        },
        {
          "indexed": false,
          "internalType": "address",
          "name": "payee",
          "type": "address"
        }
      ],
      "name": "Pay",
      "type": "event"
    },
    {
      "anonymous": false,
      "inputs": [
        {
          "indexed": false,
          "internalType": "uint256",
          "name": "price",
          "type": "uint256"
        }
      ],
      "name": "SetDefaultPrice",
      "type": "event"
    },
    {
      "anonymous": false,
      "inputs": [
        {
          "indexed": false,
          "internalType": "address",
          "name": "receiver",
          "type": "address"
        },
        {
          "indexed": false,
          "internalType": "uint96",
          "name": "fee",
          "type": "uint96"
        }
      ],
      "name": "SetDefaultRoyalty",
      "type": "event"
    },
    {
      "anonymous": false,
      "inputs": [
        {
          "indexed": true,
          "internalType": "bool",
          "name": "paused",
          "type": "bool"
        },
        {
          "indexed": true,
          "internalType": "address",
          "name": "account",
          "type": "address"
        }
      ],
      "name": "SetPaused",
      "type": "event"
    },
    {
      "anonymous": false,
      "inputs": [
        {
          "indexed": false,
          "internalType": "uint256",
          "name": "tokenID",
          "type": "uint256"
        },
        {
          "indexed": false,
          "internalType": "uint256",
          "name": "price",
          "type": "uint256"
        }
      ],
      "name": "SetTokenPrice",
      "type": "event"
    },
    {
      "anonymous": false,
      "inputs": [
        {
          "indexed": false,
          "internalType": "uint256",
          "name": "tokenID",
          "type": "uint256"
        },
        {
          "indexed": false,
          "internalType": "address",
          "name": "receiver",
          "type": "address"
        },
        {
          "indexed": false,
          "internalType": "uint96",
          "name": "fee",
          "type": "uint96"
        }
      ],
      "name": "SetTokenRoyalty",
      "type": "event"
    },
    {
      "anonymous": false,
      "inputs": [
        {
          "indexed": true,
          "internalType": "address",
          "name": "from",
          "type": "address"
        },
        {
          "indexed": true,
          "internalType": "address",
          "name": "to",
          "type": "address"
        },
        {
          "indexed": true,
          "internalType": "uint256",
          "name": "tokenId",
          "type": "uint256"
        }
      ],
      "name": "Transfer",
      "type": "event"
    },
    {
      "inputs": [
        {
          "internalType": "address",
          "name": "spender",
          "type": "address"
        },
        {
          "internalType": "uint256",
          "name": "tokenID",
          "type": "uint256"
        }
      ],
      "name": "approve",
      "outputs": [],
      "stateMutability": "payable",
      "type": "function"
    },
    {
      "inputs": [
        {
          "internalType": "address",
          "name": "owner",
          "type": "address"
        }
      ],
      "name": "balanceOf",
      "outputs": [
        {
          "internalType": "uint256",
          "name": "",
          "type": "uint256"
        }
      ],
      "stateMutability": "view",
      "type": "function"
    },
    {
      "inputs": [
        {
          "internalType": "uint256",
          "name": "tokenID",
          "type": "uint256"
        }
      ],
      "name": "burn",
      "outputs": [],
      "stateMutability": "nonpayable",
      "type": "function"
    },
    {
      "inputs": [
        {
          "internalType": "uint256",
          "name": "tokenID",
          "type": "uint256"
        }
      ],
      "name": "buy",
      "outputs": [],
      "stateMutability": "payable",
      "type": "function"
    },
    {
      "inputs": [
        {
          "internalType": "address",
          "name": "account",
          "type": "address"
        },
        {
          "internalType": "bytes4[]",
          "name": "interfaceIds",
          "type": "bytes4[]"
        }
      ],
      "name": "checkSupportedInterfaces",
      "outputs": [
        {
          "internalType": "bool[]",
          "name": "interfaceIdsChecker",
          "type": "bool[]"
        }
      ],
      "stateMutability": "view",
      "type": "function"
    },
    {
      "inputs": [],
      "name": "defaultPrice",
      "outputs": [
        {
          "internalType": "uint256",
          "name": "",
          "type": "uint256"
        }
      ],
      "stateMutability": "view",
      "type": "function"
    },
    {
      "inputs": [
        {
          "internalType": "uint256",
          "name": "tokenID",
          "type": "uint256"
        }
      ],
      "name": "getApproved",
      "outputs": [
        {
          "internalType": "address",
          "name": "",
          "type": "address"
        }
      ],
      "stateMutability": "view",
      "type": "function"
    },
    {
      "inputs": [],
      "name": "getTemplate",
      "outputs": [
        {
          "internalType": "string",
          "name": "",
          "type": "string"
        }
      ],
      "stateMutability": "view",
      "type": "function"
    },
    {
      "inputs": [],
      "name": "getVersion",
      "outputs": [
        {
          "internalType": "uint256",
          "name": "",
          "type": "uint256"
        }
      ],
      "stateMutability": "view",
      "type": "function"
    },
    {
      "inputs": [
        {
          "internalType": "string",
          "name": "name_",
          "type": "string"
        },
        {
          "internalType": "string",
          "name": "symbol_",
          "type": "string"
        },
        {
          "internalType": "address",
          "name": "owner_",
          "type": "address"
        },
        {
          "internalType": "bool[]",
          "name": "options",
          "type": "bool[]"
        }
      ],
      "name": "initialize",
      "outputs": [],
      "stateMutability": "nonpayable",
      "type": "function"
    },
    {
      "inputs": [
        {
          "internalType": "address",
          "name": "owner",
          "type": "address"
        },
        {
          "internalType": "address",
          "name": "operator",
          "type": "address"
        }
      ],
      "name": "isApprovedForAll",
      "outputs": [
        {
          "internalType": "bool",
          "name": "",
          "type": "bool"
        }
      ],
      "stateMutability": "view",
      "type": "function"
    },
    {
      "inputs": [
        {
          "internalType": "address",
          "name": "minter",
          "type": "address"
        },
        {
          "internalType": "string",
          "name": "tokenURI",
          "type": "string"
        }
      ],
      "name": "mint",
      "outputs": [
        {
          "internalType": "uint256",
          "name": "tokenID",
          "type": "uint256"
        }
      ],
      "stateMutability": "nonpayable",
      "type": "function"
    },
    {
      "inputs": [
        {
          "internalType": "string",
          "name": "tokenURI",
          "type": "string"
        }
      ],
      "name": "mint",
      "outputs": [
        {
          "internalType": "uint256",
          "name": "",
          "type": "uint256"
        }
      ],
      "stateMutability": "nonpayable",
      "type": "function"
    },
    {
      "inputs": [],
      "name": "name",
      "outputs": [
        {
          "internalType": "string",
          "name": "",
          "type": "string"
        }
      ],
      "stateMutability": "view",
      "type": "function"
    },
    {
      "inputs": [],
      "name": "open",
      "outputs": [
        {
          "internalType": "bool",
          "name": "",
          "type": "bool"
        }
      ],
      "stateMutability": "view",
      "type": "function"
    },
    {
      "inputs": [],
      "name": "owner",
      "outputs": [
        {
          "internalType": "address",
          "name": "",
          "type": "address"
        }
      ],
      "stateMutability": "view",
      "type": "function"
    },
    {
      "inputs": [
        {
          "internalType": "uint256",
          "name": "tokenID",
          "type": "uint256"
        }
      ],
      "name": "ownerOf",
      "outputs": [
        {
          "internalType": "address",
          "name": "owner",
          "type": "address"
        }
      ],
      "stateMutability": "view",
      "type": "function"
    },
    {
      "inputs": [],
      "name": "paused",
      "outputs": [
        {
          "internalType": "bool",
          "name": "",
          "type": "bool"
        }
      ],
      "stateMutability": "view",
      "type": "function"
    },
    {
      "inputs": [
        {
          "internalType": "uint256",
          "name": "tokenID",
          "type": "uint256"
        },
        {
          "internalType": "uint256",
          "name": "price",
          "type": "uint256"
        }
      ],
      "name": "royaltyInfo",
      "outputs": [
        {
          "internalType": "address",
          "name": "receiver",
          "type": "address"
        },
        {
          "internalType": "uint256",
          "name": "royaltyAmount",
          "type": "uint256"
        }
      ],
      "stateMutability": "view",
      "type": "function"
    },
    {
      "inputs": [
        {
          "internalType": "address",
          "name": "from",
          "type": "address"
        },
        {
          "internalType": "address",
          "name": "to",
          "type": "address"
        },
        {
          "internalType": "uint256",
          "name": "tokenID",
          "type": "uint256"
        }
      ],
      "name": "safeTransferFrom",
      "outputs": [],
      "stateMutability": "payable",
      "type": "function"
    },
    {
      "inputs": [
        {
          "internalType": "address",
          "name": "from",
          "type": "address"
        },
        {
          "internalType": "address",
          "name": "to",
          "type": "address"
        },
        {
          "internalType": "uint256",
          "name": "tokenID",
          "type": "uint256"
        },
        {
          "internalType": "bytes",
          "name": "data",
          "type": "bytes"
        }
      ],
      "name": "safeTransferFrom",
      "outputs": [],
      "stateMutability": "payable",
      "type": "function"
    },
    {
      "inputs": [
        {
          "internalType": "address",
          "name": "operator",
          "type": "address"
        },
        {
          "internalType": "bool",
          "name": "approved",
          "type": "bool"
        }
      ],
      "name": "setApprovalForAll",
      "outputs": [],
      "stateMutability": "nonpayable",
      "type": "function"
    },
    {
      "inputs": [
        {
          "internalType": "uint256",
          "name": "price",
          "type": "uint256"
        }
      ],
      "name": "setDefaultPrice",
      "outputs": [],
      "stateMutability": "nonpayable",
      "type": "function"
    },
    {
      "inputs": [
        {
          "internalType": "address",
          "name": "receiver",
          "type": "address"
        },
        {
          "internalType": "uint96",
          "name": "fee",
          "type": "uint96"
        }
      ],
      "name": "setDefaultRoyalty",
      "outputs": [],
      "stateMutability": "nonpayable",
      "type": "function"
    },
    {
      "inputs": [
        {
          "internalType": "uint256",
          "name": "tokenID",
          "type": "uint256"
        }
      ],
      "name": "setTokenPrice",
      "outputs": [],
      "stateMutability": "nonpayable",
      "type": "function"
    },
    {
      "inputs": [
        {
          "internalType": "uint256",
          "name": "tokenID",
          "type": "uint256"
        },
        {
          "internalType": "uint256",
          "name": "price",
          "type": "uint256"
        }
      ],
      "name": "setTokenPrice",
      "outputs": [],
      "stateMutability": "nonpayable",
      "type": "function"
    },
    {
      "inputs": [
        {
          "internalType": "uint256",
          "name": "tokenID",
          "type": "uint256"
        },
        {
          "internalType": "address",
          "name": "receiver",
          "type": "address"
        },
        {
          "internalType": "uint96",
          "name": "fee",
          "type": "uint96"
        }
      ],
      "name": "setTokenRoyalty",
      "outputs": [],
      "stateMutability": "nonpayable",
      "type": "function"
    },
    {
      "inputs": [
        {
          "internalType": "bytes4",
          "name": "interfaceId",
          "type": "bytes4"
        }
      ],
      "name": "supportsInterface",
      "outputs": [
        {
          "internalType": "bool",
          "name": "",
          "type": "bool"
        }
      ],
      "stateMutability": "view",
      "type": "function"
    },
    {
      "inputs": [],
      "name": "symbol",
      "outputs": [
        {
          "internalType": "string",
          "name": "",
          "type": "string"
        }
      ],
      "stateMutability": "view",
      "type": "function"
    },
    {
      "inputs": [],
      "name": "togglePause",
      "outputs": [],
      "stateMutability": "nonpayable",
      "type": "function"
    },
    {
      "inputs": [
        {
          "internalType": "uint256",
          "name": "index",
          "type": "uint256"
        }
      ],
      "name": "tokenByIndex",
      "outputs": [
        {
          "internalType": "uint256",
          "name": "",
          "type": "uint256"
        }
      ],
      "stateMutability": "view",
      "type": "function"
    },
    {
      "inputs": [],
      "name": "tokenIdNext",
      "outputs": [
        {
          "internalType": "uint256",
          "name": "",
          "type": "uint256"
        }
      ],
      "stateMutability": "view",
      "type": "function"
    },
    {
      "inputs": [
        {
          "internalType": "address",
          "name": "owner",
          "type": "address"
        },
        {
          "internalType": "uint256",
          "name": "index",
          "type": "uint256"
        }
      ],
      "name": "tokenOfOwnerByIndex",
      "outputs": [
        {
          "internalType": "uint256",
          "name": "",
          "type": "uint256"
        }
      ],
      "stateMutability": "view",
      "type": "function"
    },
    {
      "inputs": [
        {
          "internalType": "uint256",
          "name": "",
          "type": "uint256"
        }
      ],
      "name": "tokenPrice",
      "outputs": [
        {
          "internalType": "uint256",
          "name": "",
          "type": "uint256"
        }
      ],
      "stateMutability": "view",
      "type": "function"
    },
    {
      "inputs": [
        {
          "internalType": "uint256",
          "name": "tokenID",
          "type": "uint256"
        }
      ],
      "name": "tokenURI",
      "outputs": [
        {
          "internalType": "string",
          "name": "",
          "type": "string"
        }
      ],
      "stateMutability": "view",
      "type": "function"
    },
    {
      "inputs": [],
      "name": "totalSupply",
      "outputs": [
        {
          "internalType": "uint256",
          "name": "",
          "type": "uint256"
        }
      ],
      "stateMutability": "view",
      "type": "function"
    },
    {
      "inputs": [
        {
          "internalType": "address",
          "name": "from",
          "type": "address"
        },
        {
          "internalType": "address",
          "name": "to",
          "type": "address"
        },
        {
          "internalType": "uint256",
          "name": "tokenID",
          "type": "uint256"
        }
      ],
      "name": "transferFrom",
      "outputs": [],
      "stateMutability": "payable",
      "type": "function"
    },
    {
      "inputs": [
        {
          "internalType": "address",
          "name": "newOwner",
          "type": "address"
        }
      ],
      "name": "transferOwnership",
      "outputs": [],
      "stateMutability": "nonpayable",
      "type": "function"
    },
    {
      "inputs": [
        {
          "internalType": "address",
          "name": "token",
          "type": "address"
        }
      ],
      "name": "withdraw",
      "outputs": [],
      "stateMutability": "nonpayable",
      "type": "function"
    },
    {
      "stateMutability": "payable",
      "type": "receive"
    }
  ],
  "transactionHash": "0xafed863e755bcbfaf2248ed3ce8c2de6d28596dc4f90c8c6198f9afb09b4f38e",
  "args": [],
  "numDeployments": 9,
  "solcInputHash": "f997d8441d9ebfecfbd0af11467bd0ee",
  "bytecode": "0x6080604052600160145534801561001557600080fd5b50613022806100256000396000f3fe6080604052600436106102345760003560e01c80636352211e1161012e578063c87b56dd116100ab578063e69e04b31161006f578063e69e04b31461066d578063e985e9c514610683578063eb685c47146106cc578063f2fde38b146106ec578063fcfff16f1461070c57600080fd5b8063c87b56dd146105cd578063d0def521146105ed578063d4ddce8a1461060d578063d85d3d271461063a578063d96a094a1461065a57600080fd5b80638da5cb5b116100f25780638da5cb5b1461054d57806395d89b4114610570578063a22cb46514610585578063b88d4fde146105a5578063c4ae3168146105b857600080fd5b80636352211e146104b75780636a61e5fc146104d75780636d3c7ec5146104f757806370a08231146105175780638bbf58b31461053757600080fd5b80632f745c59116101bc57806351cff8d91161018057806351cff8d91461041257806354e10b48146104325780635944c753146104525780635c975abb146104725780635fc83aae1461048a57600080fd5b80632f745c591461038a578063321c48f2146103aa57806342842e0e146103bf57806342966c68146103d25780634f6ccce7146103f257600080fd5b8063095ea7b311610203578063095ea7b3146102f15780630d8e6e2c1461030457806318160ddd1461032357806323b872dd146103385780632a55205a1461034b57600080fd5b806301ffc9a71461024057806304634d8d1461027557806306fdde0314610297578063081812fc146102b957600080fd5b3661023b57005b600080fd5b34801561024c57600080fd5b5061026061025b3660046127a8565b610726565b60405190151581526020015b60405180910390f35b34801561028157600080fd5b506102956102903660046127f3565b61076b565b005b3480156102a357600080fd5b506102ac61086b565b60405161026c9190612873565b3480156102c557600080fd5b506102d96102d4366004612886565b6108fd565b6040516001600160a01b03909116815260200161026c565b6102956102ff36600461289f565b610970565b34801561031057600080fd5b506013545b60405190815260200161026c565b34801561032f57600080fd5b50600854610315565b6102956103463660046128c9565b610a34565b34801561035757600080fd5b5061036b610366366004612905565b610a44565b604080516001600160a01b03909316835260208301919091520161026c565b34801561039657600080fd5b506103156103a536600461289f565b610b12565b3480156103b657600080fd5b506102ac610b99565b6102956103cd3660046128c9565b610ba8565b3480156103de57600080fd5b506102956103ed366004612886565b610bc3565b3480156103fe57600080fd5b5061031561040d366004612886565b610bf7565b34801561041e57600080fd5b5061029561042d366004612927565b610c61565b34801561043e57600080fd5b5061029561044d366004612a33565b610e93565b34801561045e57600080fd5b5061029561046d366004612b2e565b610ed8565b34801561047e57600080fd5b5060115460ff16610260565b34801561049657600080fd5b506104aa6104a5366004612b6a565b610f68565b60405161026c9190612c17565b3480156104c357600080fd5b506102d96104d2366004612886565b61109c565b3480156104e357600080fd5b506102956104f2366004612886565b6110f9565b34801561050357600080fd5b50610295610512366004612886565b611105565b34801561052357600080fd5b50610315610532366004612927565b611195565b34801561054357600080fd5b5061031560145481565b34801561055957600080fd5b50600c5461010090046001600160a01b03166102d9565b34801561057c57600080fd5b506102ac611200565b34801561059157600080fd5b506102956105a0366004612c5d565b61120f565b6102956105b3366004612c94565b61127b565b3480156105c457600080fd5b506102956112d9565b3480156105d957600080fd5b506102ac6105e8366004612886565b61131a565b3480156105f957600080fd5b50610315610608366004612d10565b6113bc565b34801561061957600080fd5b50610315610628366004612886565b600f6020526000908152604090205481565b34801561064657600080fd5b50610315610655366004612d5e565b6113de565b610295610668366004612886565b611482565b34801561067957600080fd5b5061031560105481565b34801561068f57600080fd5b5061026061069e366004612d93565b6001600160a01b03918216600090815260036020908152604080832093909416825291909152205460ff1690565b3480156106d857600080fd5b506102956106e7366004612905565b611664565b3480156106f857600080fd5b50610295610707366004612927565b6116b9565b34801561071857600080fd5b506015546102609060ff1681565b60006001600160e01b03198216635494e72560e11b148061075657506001600160e01b0319821662f7235960e21b145b806107655750610765826116f1565b92915050565b600c5461010090046001600160a01b031633146107a35760405162461bcd60e51b815260040161079a90612dbd565b60405180910390fd5b6001600160601b0381166127108111156107fa5760405162461bcd60e51b8152602060048201526018602482015277526f79616c7479206665652065786365656420707269636560401b604482015260640161079a565b6040805180820182526001600160a01b0385168082526001600160601b0385166020928301819052600160a01b81028217600d558351918252918101919091527fa1edde4ed5c1392c90dccd8e051a4080b761850e49a24c77d826348a51e1f8dc91015b60405180910390a1505050565b60606005805461087a90612de0565b80601f01602080910402602001604051908101604052809291908181526020018280546108a690612de0565b80156108f35780601f106108c8576101008083540402835291602001916108f3565b820191906000526020600020905b8154815290600101906020018083116108d657829003601f168201915b5050505050905090565b6000818152602081905260408120546001600160a01b03166109545760405162461bcd60e51b815260206004820152601060248201526f125b9d985b1a59081d1bdad95b88125160821b604482015260640161079a565b506000908152600260205260409020546001600160a01b031690565b61097a3382611716565b6109c65760405162461bcd60e51b815260206004820152601c60248201527f4e6f7420746f6b656e206f776e6572206e6f72206f70657261746f7200000000604482015260640161079a565b600081815260026020526040902080546001600160a01b0319166001600160a01b03841690811790915581906109fb8261109c565b6001600160a01b03167f8c5be1e5ebec7d5bd14f71427d1e84f3dd0314c0f7b2291e5b200ac8c7c3b92560405160405180910390a45050565b610a3f838383611771565b505050565b60008082600160801b8110610a6b5760405162461bcd60e51b815260040161079a90612e1b565b6000858152600e60209081526040918290208251808401909352546001600160a01b038116808452600160a01b9091046001600160601b031691830191909152610adf575060408051808201909152600d546001600160a01b0381168252600160a01b90046001600160601b031660208201525b602081015161271090610afb906001600160601b031687612e58565b610b059190612e77565b9051969095509350505050565b6000610b1d83611195565b8210610b5c5760405162461bcd60e51b815260206004820152600e60248201526d496e76616c696420696e6465782160901b604482015260640161079a565b6001600160a01b0383166000908152600960205260409020805483908110610b8657610b86612e99565b9060005260206000200154905092915050565b60606012805461087a90612de0565b610a3f838383604051806020016040528060008152506119a7565b80610bce33826119ff565b610bea5760405162461bcd60e51b815260040161079a90612eaf565b610bf382611a36565b5050565b6008546000908210610c3c5760405162461bcd60e51b815260206004820152600e60248201526d496e76616c696420696e6465782160901b604482015260640161079a565b60088281548110610c4f57610c4f612e99565b90600052602060002001549050919050565b600c5461010090046001600160a01b03163314610c905760405162461bcd60e51b815260040161079a90612dbd565b6001600160a01b0381163b15801590610d2257506040516301ffc9a760e01b81526336372b0760e01b60048201526001600160a01b038216906301ffc9a79060240160206040518083038186803b158015610cea57600080fd5b505afa158015610cfe573d6000803e3d6000fd5b505050506040513d601f19601f82011682018060405250810190610d229190612ee6565b15610e67576040516370a0823160e01b81523060048201526001600160a01b0382169063a9059cbb90339083906370a082319060240160206040518083038186803b158015610d7057600080fd5b505afa158015610d84573d6000803e3d6000fd5b505050506040513d601f19601f82011682018060405250810190610da89190612f03565b6040516001600160e01b031960e085901b1681526001600160a01b0390921660048301526024820152604401602060405180830381600087803b158015610dee57600080fd5b505af1158015610e02573d6000803e3d6000fd5b505050506040513d601f19601f82011682018060405250810190610e269190612ee6565b610e645760405162461bcd60e51b815260206004820152600f60248201526e15da5d1a191c985dc819985a5b1959608a1b604482015260640161079a565b50565b60405133904780156108fc02916000818181858888f19350505050158015610bf3573d6000803e3d6000fd5b610e9e848484611a3f565b80600081518110610eb157610eb1612e99565b6020026020010151601560006101000a81548160ff02191690831515021790555050505050565b82610ee333826119ff565b610eff5760405162461bcd60e51b815260040161079a90612eaf565b6001600160601b038216612710811115610f565760405162461bcd60e51b8152602060048201526018602482015277526f79616c7479206665652065786365656420707269636560401b604482015260640161079a565b610f61858585611a7d565b5050505050565b6060815167ffffffffffffffff811115610f8457610f84612942565b604051908082528060200260200182016040528015610fad578160200160208202803683370190505b50905060005b825181101561109557836001600160a01b03166301ffc9a7848381518110610fdd57610fdd612e99565b60200260200101516040518263ffffffff1660e01b815260040161101191906001600160e01b031991909116815260200190565b60206040518083038186803b15801561102957600080fd5b505afa15801561103d573d6000803e3d6000fd5b505050506040513d601f19601f820116820180604052508101906110619190612ee6565b82828151811061107357611073612e99565b911515602092830291909101909101528061108d81612f1c565b915050610fb3565b5092915050565b6000818152602081905260409020546001600160a01b0316806110f45760405162461bcd60e51b815260206004820152601060248201526f125b9d985b1a59081d1bdad95b88125160821b604482015260640161079a565b919050565b610e6481601054611664565b600c5461010090046001600160a01b031633146111345760405162461bcd60e51b815260040161079a90612dbd565b80600160801b81106111585760405162461bcd60e51b815260040161079a90612e1b565b60108290556040518281527f9f7a6492db3843bc01c0adb23cd27be964155c1d45c566f2ee32f28faf4eb605906020015b60405180910390a15050565b60006001600160a01b0382166111e45760405162461bcd60e51b8152602060048201526014602482015273496e76616c6964207a65726f206164647265737360601b604482015260640161079a565b506001600160a01b031660009081526001602052604090205490565b60606006805461087a90612de0565b3360008181526003602090815260408083206001600160a01b03871680855290835292819020805460ff191686151590811790915590519081529192917f17307eab39ab6107e8899845ad3d59bd9653f200f220920489ca2b5937696c31910160405180910390a35050565b611286848484611771565b61129284848484611b02565b6112d35760405162461bcd60e51b8152602060048201526012602482015271139bdd08115490cdcc8c549958d95a5d995960721b604482015260640161079a565b50505050565b600c5461010090046001600160a01b031633146113085760405162461bcd60e51b815260040161079a90612dbd565b6011546113189060ff1615611bb1565b565b600081815260076020526040902080546060919061133790612de0565b80601f016020809104026020016040519081016040528092919081815260200182805461136390612de0565b80156113b05780601f10611385576101008083540402835291602001916113b0565b820191906000526020600020905b81548152906001019060200180831161139357829003601f168201915b50505050509050919050565b60148054600091826113cd83612f1c565b919050559050610765838383611bf6565b60155460009060ff16806114025750600c546001600160a01b036101009091041633145b61143b5760405162461bcd60e51b815260206004820152600a6024820152692737ba1036b4b73a32b960b11b604482015260640161079a565b60115460ff16156114785760405162461bcd60e51b81526020600482015260076024820152665061757365642160c81b604482015260640161079a565b61076533836113bc565b6000818152602081905260409020546001600160a01b03166114db5760405162461bcd60e51b81526020600482015260126024820152714e465420646f65736e27742065786973747360701b604482015260640161079a565b6000818152600f6020526040902054806115255760405162461bcd60e51b815260206004820152600b60248201526a139bdd081d1bc81cd95b1b60aa1b604482015260640161079a565b803410156115685760405162461bcd60e51b815260206004820152601060248201526f4e6f7420656e6f7567682066756e647360801b604482015260640161079a565b60006115738361109c565b90506001600160a01b03811661158b5761158b612f37565b6001600160a01b0381163314156115db5760405162461bcd60e51b8152602060048201526014602482015273416c726561647920746f6b656e206f776e65722160601b604482015260640161079a565b604051635c46a7ef60e11b81526001600160a01b0382166004820152336024820152604481018490526080606482015260006084820152309063b88d4fde90349060a4016000604051808303818588803b15801561163857600080fd5b505af115801561164c573d6000803e3d6000fd5b50505060009485525050600f60205250506040812055565b8161166f33826119ff565b61168b5760405162461bcd60e51b815260040161079a90612eaf565b81600160801b81106116af5760405162461bcd60e51b815260040161079a90612e1b565b6112d38484611c01565b600c5461010090046001600160a01b031633146116e85760405162461bcd60e51b815260040161079a90612dbd565b610e6481611c49565b60006001600160e01b03198216630c38761960e41b1480610765575061076582611ca3565b6000806117228361109c565b9050836001600160a01b0316816001600160a01b0316148061176957506001600160a01b0380821660009081526003602090815260408083209388168352929052205460ff165b949350505050565b8061177c33826119ff565b6117985760405162461bcd60e51b815260040161079a90612eaf565b6117a18261109c565b6001600160a01b0316846001600160a01b0316146117f25760405162461bcd60e51b815260206004820152600e60248201526d233937b6903737ba1037bbb732b960911b604482015260640161079a565b6001600160a01b0384166118485760405162461bcd60e51b815260206004820152601a60248201527f5472616e736665722066726f6d207a65726f2061646472657373000000000000604482015260640161079a565b6001600160a01b03831661189e5760405162461bcd60e51b815260206004820152601860248201527f5472616e7366657220746f207a65726f20616464726573730000000000000000604482015260640161079a565b6118a9848484611cc8565b600082815260026020526040902080546001600160a01b03191690556001600160a01b0384811690841614611960576001600160a01b03841660009081526001602081905260408220805491929091611903908490612f4d565b90915550506001600160a01b03831660009081526001602081905260408220805491929091611933908490612f64565b9091555050600082815260208190526040902080546001600160a01b0319166001600160a01b0385161790555b81836001600160a01b0316856001600160a01b03167fddf252ad1be2c89b69c2b068fc378daa952ba7f163c4a11628f55a4df523b3ef60405160405180910390a450505050565b6119b2848484611771565b6119be84848484611b02565b6112d35760405162461bcd60e51b81526020600482015260126024820152712737ba1022a9219b9918a932b1b2b4bb32b960711b604482015260640161079a565b6000611a0b8383611716565b80611a2f5750826001600160a01b0316611a24836108fd565b6001600160a01b0316145b9392505050565b610e6481611cd3565b611a6a604051806040016040528060088152602001674f70656e4e46547360c01b8152506004611cf8565b611a748383611d66565b610a3f81611dda565b6040805180820182526001600160a01b038481168083526001600160601b03858116602080860182815260008b8152600e835288902096519051909316600160a01b029290941691909117909355835187815291820152918201527f2595213009f64247e2789cf9981bcc53ee736a6aa52042a651aa1549ae6fff619060600161085e565b60006001600160a01b0384163b1580611ba85750604051630a85bd0160e11b808252906001600160a01b0386169063150b7a0290611b4a9033908a9089908990600401612f7c565b602060405180830381600087803b158015611b6457600080fd5b505af1158015611b78573d6000803e3d6000fd5b505050506040513d601f19601f82011682018060405250810190611b9c9190612fb9565b6001600160e01b031916145b95945050505050565b6011805460ff1916821515908117909155604051339160ff161515907f8b265f737315073a655a642868ed756ba7e3b6c391b06dbbf70370aab7f7f06890600090a350565b610a3f838383611e37565b6000828152600f602090815260409182902083905581518481529081018390527f2f8c61aa79deaa9c961d54f640a154df4960a56a5989d25df0148be783dc3f5b9101611189565b600c80546001600160a01b03838116610100818102610100600160a81b031985161790945560405193909204169182907f8be0079c531659141344cd1fd0a4f28419497f9722a3daafe3b4186f6b6457e090600090a35050565b60006001600160e01b03198216631fc9136f60e11b1480610765575061076582611e67565b610a3f838383611e8c565b6000818152600e60209081526040808320839055600f909152812055610e6481611ec5565b601154610100900460ff1615611d3d5760405162461bcd60e51b815260206004820152600a6024820152694f6e6c79206f6e63652160b01b604482015260640161079a565b6011805461ff0019166101001790558151611d5f9060129060208501906126c3565b5060135550565b60045460ff1615611da65760405162461bcd60e51b815260206004820152600a6024820152694f6e6c79206f6e63652160b01b604482015260640161079a565b6004805460ff191660011790558151611dc69060059060208501906126c3565b508051610a3f9060069060208401906126c3565b600c5460ff1615611e215760405162461bcd60e51b8152602060048201526011602482015270125b9a5d08185b1c9958591e4818d85b1b607a1b604482015260640161079a565b600c805460ff19166001179055610e6481611c49565b611e42838383611f90565b610a3f8160105485611e62600c546001600160a01b036101009091041690565b611fe9565b60006001600160e01b03198216632fe41d5760e11b14806107655750610765826121c2565b6000818152600f6020526040902054611eab90829084611e628361109c565b6000818152600f6020526040812055610a3f8383836121e7565b6000611ed08261109c565b9050611edc81836121fb565b6000828152600b6020526040812054600854909190611efd90600190612f4d565b9050600060088281548110611f1457611f14612e99565b6000918252602080832090910154808352600b909152604080832086905587835282209190915560088054919250829185908110611f5457611f54612e99565b6000918252602090912001556008805480611f7157611f71612fd6565b60019003818190600052602060002001600090559055610f6185612309565b611f9a8382612329565b600880546000838152600b60205260408120829055600182018355919091527ff3f7a9fe364faab93b216da50a3214154f22a0a2b415b23a84c8169e8b636ee301819055610a3f838383612367565b34831561217e57838110156120335760405162461bcd60e51b815260206004820152601060248201526f4e6f7420656e6f7567682066756e647360801b604482015260640161079a565b6000806120408787610a44565b91509150858111156120885760405162461bcd60e51b8152602060048201526011602482015270496e76616c696420726f79616c7469657360781b604482015260640161079a565b60006120948288612f4d565b905080156120e0576040516001600160a01b0386169082156108fc029083906000818181858888f193505050501580156120d2573d6000803e3d6000fd5b506120dd8185612f4d565b93505b811561212a576040516001600160a01b0384169083156108fc029084906000818181858888f1935050505015801561211c573d6000803e3d6000fd5b506121278285612f4d565b93505b60408051898152602081018990526001600160a01b03888116828401528716606082015290517f3914c8962f5e7241220aedc853d15ae456e87f9f156489c7d0d1f682e69f98ce9181900360800190a15050505b8015610f61576040516001600160a01b0384169082156108fc029083906000818181858888f193505050501580156121ba573d6000803e3d6000fd5b505050505050565b60006001600160e01b031982166398396bd360e01b1480610765575061076582612392565b6121f183826121fb565b610a3f8282612329565b6000818152600a602052604081205490600161221685611195565b6122209190612f4d565b90508082146122b7576001600160a01b038416600090815260096020526040812080548390811061225357612253612e99565b906000526020600020015490508060096000876001600160a01b03166001600160a01b03168152602001908152602001600020848154811061229757612297612e99565b6000918252602080832090910192909255918252600a9052604090208290555b6000838152600a602090815260408083208390556001600160a01b0387168352600990915290208054806122ed576122ed612fd6565b6001900381819060005260206000200160009055905550505050565b600081815260076020526040812061232091612747565b610e64816123b7565b6001600160a01b0390911660009081526009602081815260408084208054868652600a84529185208290559282526001810183559183529091200155565b60008181526007602090815260409091208351612386928501906126c3565b50610a3f838383612483565b60006001600160e01b03198216638351879960e01b148061076557506107658261260e565b60006123c28261109c565b6001600160a01b0381166000908152600160205260409020549091506123ea576123ea612f37565b6001600160a01b03811660009081526001602081905260408220805491929091612415908490612f4d565b9091555050600082815260026020908152604080832080546001600160a01b0319908116909155918390528083208054909216909155518391906001600160a01b038416907fddf252ad1be2c89b69c2b068fc378daa952ba7f163c4a11628f55a4df523b3ef908390a45050565b6001600160a01b0383166124d05760405162461bcd60e51b81526020600482015260146024820152734d696e7420746f207a65726f206164647265737360601b604482015260640161079a565b6000818152602081905260409020546001600160a01b03161561252c5760405162461bcd60e51b8152602060048201526014602482015273151bdad95b88185b1c9958591e481b5a5b9d195960621b604482015260640161079a565b6001600160a01b03831660009081526001602081905260408220805491929091612557908490612f64565b909155505060008181526020819052604080822080546001600160a01b0319166001600160a01b03871690811790915590518392907fddf252ad1be2c89b69c2b068fc378daa952ba7f163c4a11628f55a4df523b3ef908290a46125cd6000848360405180602001604052806000815250611b02565b610a3f5760405162461bcd60e51b8152602060048201526012602482015271139bdd08115490cdcc8c549958d95a5d995960721b604482015260640161079a565b600063152a902d60e11b6001600160e01b03198316148061076557506107658260006307f5828d60e41b6001600160e01b031983161480610765575061076582600063780e9d6360e01b6001600160e01b0319831614806107655750610765826000635b5e139f60e01b6001600160e01b03198316148061076557506107658260006380ac58cd60e01b6001600160e01b03198316148061076557506001600160e01b031982166301ffc9a760e01b14610765565b8280546126cf90612de0565b90600052602060002090601f0160209004810192826126f15760008555612737565b82601f1061270a57805160ff1916838001178555612737565b82800160010185558215612737579182015b8281111561273757825182559160200191906001019061271c565b5061274392915061277d565b5090565b50805461275390612de0565b6000825580601f10612763575050565b601f016020900490600052602060002090810190610e6491905b5b80821115612743576000815560010161277e565b6001600160e01b031981168114610e6457600080fd5b6000602082840312156127ba57600080fd5b8135611a2f81612792565b80356001600160a01b03811681146110f457600080fd5b80356001600160601b03811681146110f457600080fd5b6000806040838503121561280657600080fd5b61280f836127c5565b915061281d602084016127dc565b90509250929050565b6000815180845260005b8181101561284c57602081850181015186830182015201612830565b8181111561285e576000602083870101525b50601f01601f19169290920160200192915050565b602081526000611a2f6020830184612826565b60006020828403121561289857600080fd5b5035919050565b600080604083850312156128b257600080fd5b6128bb836127c5565b946020939093013593505050565b6000806000606084860312156128de57600080fd5b6128e7846127c5565b92506128f5602085016127c5565b9150604084013590509250925092565b6000806040838503121561291857600080fd5b50508035926020909101359150565b60006020828403121561293957600080fd5b611a2f826127c5565b634e487b7160e01b600052604160045260246000fd5b604051601f8201601f1916810167ffffffffffffffff8111828210171561298157612981612942565b604052919050565b600067ffffffffffffffff8311156129a3576129a3612942565b6129b6601f8401601f1916602001612958565b90508281528383830111156129ca57600080fd5b828260208301376000602084830101529392505050565b600082601f8301126129f257600080fd5b611a2f83833560208501612989565b600067ffffffffffffffff821115612a1b57612a1b612942565b5060051b60200190565b8015158114610e6457600080fd5b60008060008060808587031215612a4957600080fd5b843567ffffffffffffffff80821115612a6157600080fd5b612a6d888389016129e1565b9550602091508187013581811115612a8457600080fd5b612a9089828a016129e1565b955050612a9f604088016127c5565b9350606087013581811115612ab357600080fd5b87019050601f81018813612ac657600080fd5b8035612ad9612ad482612a01565b612958565b81815260059190911b8201830190838101908a831115612af857600080fd5b928401925b82841015612b1f578335612b1081612a25565b82529284019290840190612afd565b979a9699509497505050505050565b600080600060608486031215612b4357600080fd5b83359250612b53602085016127c5565b9150612b61604085016127dc565b90509250925092565b60008060408385031215612b7d57600080fd5b612b86836127c5565b915060208084013567ffffffffffffffff811115612ba357600080fd5b8401601f81018613612bb457600080fd5b8035612bc2612ad482612a01565b81815260059190911b82018301908381019088831115612be157600080fd5b928401925b82841015612c08578335612bf981612792565b82529284019290840190612be6565b80955050505050509250929050565b6020808252825182820181905260009190848201906040850190845b81811015612c51578351151583529284019291840191600101612c33565b50909695505050505050565b60008060408385031215612c7057600080fd5b612c79836127c5565b91506020830135612c8981612a25565b809150509250929050565b60008060008060808587031215612caa57600080fd5b612cb3856127c5565b9350612cc1602086016127c5565b925060408501359150606085013567ffffffffffffffff811115612ce457600080fd5b8501601f81018713612cf557600080fd5b612d0487823560208401612989565b91505092959194509250565b60008060408385031215612d2357600080fd5b612d2c836127c5565b9150602083013567ffffffffffffffff811115612d4857600080fd5b612d54858286016129e1565b9150509250929050565b600060208284031215612d7057600080fd5b813567ffffffffffffffff811115612d8757600080fd5b611769848285016129e1565b60008060408385031215612da657600080fd5b612daf836127c5565b915061281d602084016127c5565b6020808252600990820152682737ba1037bbb732b960b91b604082015260600190565b600181811c90821680612df457607f821691505b60208210811415612e1557634e487b7160e01b600052602260045260246000fd5b50919050565b6020808252600d908201526c546f6f20657870656e7369766560981b604082015260600190565b634e487b7160e01b600052601160045260246000fd5b6000816000190483118215151615612e7257612e72612e42565b500290565b600082612e9457634e487b7160e01b600052601260045260246000fd5b500490565b634e487b7160e01b600052603260045260246000fd5b6020808252601c908201527f4e6f7420746f6b656e206f776e6572206e6f7220617070726f76656400000000604082015260600190565b600060208284031215612ef857600080fd5b8151611a2f81612a25565b600060208284031215612f1557600080fd5b5051919050565b6000600019821415612f3057612f30612e42565b5060010190565b634e487b7160e01b600052600160045260246000fd5b600082821015612f5f57612f5f612e42565b500390565b60008219821115612f7757612f77612e42565b500190565b6001600160a01b0385811682528416602082015260408101839052608060608201819052600090612faf90830184612826565b9695505050505050565b600060208284031215612fcb57600080fd5b8151611a2f81612792565b634e487b7160e01b600052603160045260246000fdfea2646970667358221220125abc4a6bae8c8be3e204233da06eed37f1f8c166904b97ca8f3f5a6fe2e1fa64736f6c63430008090033",
  "devdoc": {
    "kind": "dev",
    "methods": {
      "burn(uint256)": {
        "params": {
          "tokenID": "tokenID of NFT to burn"
        }
      },
      "setDefaultRoyalty(address,uint96)": {
        "params": {
          "fee": ": fee Numerator, less than 10000",
          "receiver": ": address of the royalty receiver, or address(0) to reset"
        }
      },
      "setTokenRoyalty(uint256,address,uint96)": {
        "params": {
          "fee": ": fee Numerator, less than 10000",
          "receiver": ": address of the royalty receiver, or address(0) to reset",
          "tokenID": ": token ID"
        }
      },
      "supportsInterface(bytes4)": {
        "params": {
          "interfaceId": "interfaceId to test"
        }
      }
    },
    "title": "OpenNFTs smartcontract",
    "version": 1
  },
  "userdoc": {
    "kind": "user",
    "methods": {
      "burn(uint256)": {
        "notice": "burn NFT"
      },
      "open()": {
        "notice": "Mint NFT allowed to everyone or only collection owner"
      },
      "setDefaultRoyalty(address,uint96)": {
        "notice": "SET default royalty configuration"
      },
      "setTokenRoyalty(uint256,address,uint96)": {
        "notice": "SET token royalty configuration"
      },
      "supportsInterface(bytes4)": {
        "notice": "test if this interface is supported"
      },
      "tokenIdNext()": {
        "notice": "tokenID of next minted NFT"
      },
      "withdraw(address)": {
        "notice": "withdraw token otherwise eth"
      }
    },
    "version": 1
  },
  "storageLayout": {
    "storage": [
      {
        "astId": 6766,
        "contract": "contracts/templates/OpenNFTsV4.sol:OpenNFTsV4",
        "label": "_owners",
        "offset": 0,
        "slot": "0",
        "type": "t_mapping(t_uint256,t_address)"
      },
      {
        "astId": 6770,
        "contract": "contracts/templates/OpenNFTsV4.sol:OpenNFTsV4",
        "label": "_balances",
        "offset": 0,
        "slot": "1",
        "type": "t_mapping(t_address,t_uint256)"
      },
      {
        "astId": 6774,
        "contract": "contracts/templates/OpenNFTsV4.sol:OpenNFTsV4",
        "label": "_tokenApprovals",
        "offset": 0,
        "slot": "2",
        "type": "t_mapping(t_uint256,t_address)"
      },
      {
        "astId": 6780,
        "contract": "contracts/templates/OpenNFTsV4.sol:OpenNFTsV4",
        "label": "_operatorApprovals",
        "offset": 0,
        "slot": "3",
        "type": "t_mapping(t_address,t_mapping(t_address,t_bool))"
      },
      {
        "astId": 7697,
        "contract": "contracts/templates/OpenNFTsV4.sol:OpenNFTsV4",
        "label": "_openERC721MetadataInitialized",
        "offset": 0,
        "slot": "4",
        "type": "t_bool"
      },
      {
        "astId": 7699,
        "contract": "contracts/templates/OpenNFTsV4.sol:OpenNFTsV4",
        "label": "_name",
        "offset": 0,
        "slot": "5",
        "type": "t_string_storage"
      },
      {
        "astId": 7701,
        "contract": "contracts/templates/OpenNFTsV4.sol:OpenNFTsV4",
        "label": "_symbol",
        "offset": 0,
        "slot": "6",
        "type": "t_string_storage"
      },
      {
        "astId": 7705,
        "contract": "contracts/templates/OpenNFTsV4.sol:OpenNFTsV4",
        "label": "_tokenURIs",
        "offset": 0,
        "slot": "7",
        "type": "t_mapping(t_uint256,t_string_storage)"
      },
      {
        "astId": 7374,
        "contract": "contracts/templates/OpenNFTsV4.sol:OpenNFTsV4",
        "label": "_allTokens",
        "offset": 0,
        "slot": "8",
        "type": "t_array(t_uint256)dyn_storage"
      },
      {
        "astId": 7379,
        "contract": "contracts/templates/OpenNFTsV4.sol:OpenNFTsV4",
        "label": "_ownedTokens",
        "offset": 0,
        "slot": "9",
        "type": "t_mapping(t_address,t_array(t_uint256)dyn_storage)"
      },
      {
        "astId": 7383,
        "contract": "contracts/templates/OpenNFTsV4.sol:OpenNFTsV4",
        "label": "_ownedTokensIndex",
        "offset": 0,
        "slot": "10",
        "type": "t_mapping(t_uint256,t_uint256)"
      },
      {
        "astId": 7387,
        "contract": "contracts/templates/OpenNFTsV4.sol:OpenNFTsV4",
        "label": "_allTokensIndex",
        "offset": 0,
        "slot": "11",
        "type": "t_mapping(t_uint256,t_uint256)"
      },
      {
        "astId": 6531,
        "contract": "contracts/templates/OpenNFTsV4.sol:OpenNFTsV4",
        "label": "_openERC173Initialized",
        "offset": 0,
        "slot": "12",
        "type": "t_bool"
      },
      {
        "astId": 6533,
        "contract": "contracts/templates/OpenNFTsV4.sol:OpenNFTsV4",
        "label": "_owner",
        "offset": 1,
        "slot": "12",
        "type": "t_address"
      },
      {
        "astId": 6645,
        "contract": "contracts/templates/OpenNFTsV4.sol:OpenNFTsV4",
        "label": "_royaltyInfo",
        "offset": 0,
        "slot": "13",
        "type": "t_struct(RoyaltyInfo)6642_storage"
      },
      {
        "astId": 6650,
        "contract": "contracts/templates/OpenNFTsV4.sol:OpenNFTsV4",
        "label": "_tokenRoyaltyInfo",
        "offset": 0,
        "slot": "14",
        "type": "t_mapping(t_uint256,t_struct(RoyaltyInfo)6642_storage)"
      },
      {
        "astId": 7962,
        "contract": "contracts/templates/OpenNFTsV4.sol:OpenNFTsV4",
        "label": "tokenPrice",
        "offset": 0,
        "slot": "15",
        "type": "t_mapping(t_uint256,t_uint256)"
      },
      {
        "astId": 7964,
        "contract": "contracts/templates/OpenNFTsV4.sol:OpenNFTsV4",
        "label": "defaultPrice",
        "offset": 0,
        "slot": "16",
        "type": "t_uint256"
      },
      {
        "astId": 8607,
        "contract": "contracts/templates/OpenNFTsV4.sol:OpenNFTsV4",
        "label": "_paused",
        "offset": 0,
        "slot": "17",
        "type": "t_bool"
      },
      {
        "astId": 7870,
        "contract": "contracts/templates/OpenNFTsV4.sol:OpenNFTsV4",
        "label": "_openCloneableInitialized",
        "offset": 1,
        "slot": "17",
        "type": "t_bool"
      },
      {
        "astId": 7872,
        "contract": "contracts/templates/OpenNFTsV4.sol:OpenNFTsV4",
        "label": "_template",
        "offset": 0,
        "slot": "18",
        "type": "t_string_storage"
      },
      {
        "astId": 7874,
        "contract": "contracts/templates/OpenNFTsV4.sol:OpenNFTsV4",
        "label": "_version",
        "offset": 0,
        "slot": "19",
        "type": "t_uint256"
      },
      {
        "astId": 8373,
        "contract": "contracts/templates/OpenNFTsV4.sol:OpenNFTsV4",
        "label": "tokenIdNext",
        "offset": 0,
        "slot": "20",
        "type": "t_uint256"
      },
      {
        "astId": 19589,
        "contract": "contracts/templates/OpenNFTsV4.sol:OpenNFTsV4",
        "label": "open",
        "offset": 0,
        "slot": "21",
        "type": "t_bool"
      }
    ],
    "types": {
      "t_address": {
        "encoding": "inplace",
        "label": "address",
        "numberOfBytes": "20"
      },
      "t_array(t_uint256)dyn_storage": {
        "base": "t_uint256",
        "encoding": "dynamic_array",
        "label": "uint256[]",
        "numberOfBytes": "32"
      },
      "t_bool": {
        "encoding": "inplace",
        "label": "bool",
        "numberOfBytes": "1"
      },
      "t_mapping(t_address,t_array(t_uint256)dyn_storage)": {
        "encoding": "mapping",
        "key": "t_address",
        "label": "mapping(address => uint256[])",
        "numberOfBytes": "32",
        "value": "t_array(t_uint256)dyn_storage"
      },
      "t_mapping(t_address,t_bool)": {
        "encoding": "mapping",
        "key": "t_address",
        "label": "mapping(address => bool)",
        "numberOfBytes": "32",
        "value": "t_bool"
      },
      "t_mapping(t_address,t_mapping(t_address,t_bool))": {
        "encoding": "mapping",
        "key": "t_address",
        "label": "mapping(address => mapping(address => bool))",
        "numberOfBytes": "32",
        "value": "t_mapping(t_address,t_bool)"
      },
      "t_mapping(t_address,t_uint256)": {
        "encoding": "mapping",
        "key": "t_address",
        "label": "mapping(address => uint256)",
        "numberOfBytes": "32",
        "value": "t_uint256"
      },
      "t_mapping(t_uint256,t_address)": {
        "encoding": "mapping",
        "key": "t_uint256",
        "label": "mapping(uint256 => address)",
        "numberOfBytes": "32",
        "value": "t_address"
      },
      "t_mapping(t_uint256,t_string_storage)": {
        "encoding": "mapping",
        "key": "t_uint256",
        "label": "mapping(uint256 => string)",
        "numberOfBytes": "32",
        "value": "t_string_storage"
      },
      "t_mapping(t_uint256,t_struct(RoyaltyInfo)6642_storage)": {
        "encoding": "mapping",
        "key": "t_uint256",
        "label": "mapping(uint256 => struct OpenERC2981.RoyaltyInfo)",
        "numberOfBytes": "32",
        "value": "t_struct(RoyaltyInfo)6642_storage"
      },
      "t_mapping(t_uint256,t_uint256)": {
        "encoding": "mapping",
        "key": "t_uint256",
        "label": "mapping(uint256 => uint256)",
        "numberOfBytes": "32",
        "value": "t_uint256"
      },
      "t_string_storage": {
        "encoding": "bytes",
        "label": "string",
        "numberOfBytes": "32"
      },
      "t_struct(RoyaltyInfo)6642_storage": {
        "encoding": "inplace",
        "label": "struct OpenERC2981.RoyaltyInfo",
        "members": [
          {
            "astId": 6639,
            "contract": "contracts/templates/OpenNFTsV4.sol:OpenNFTsV4",
            "label": "receiver",
            "offset": 0,
            "slot": "0",
            "type": "t_address"
          },
          {
            "astId": 6641,
            "contract": "contracts/templates/OpenNFTsV4.sol:OpenNFTsV4",
            "label": "fraction",
            "offset": 20,
            "slot": "0",
            "type": "t_uint96"
          }
        ],
        "numberOfBytes": "32"
      },
      "t_uint256": {
        "encoding": "inplace",
        "label": "uint256",
        "numberOfBytes": "32"
      },
      "t_uint96": {
        "encoding": "inplace",
        "label": "uint96",
        "numberOfBytes": "12"
      }
    }
  }
}