{
  "address": "0x7d7F01A09b5f89AC69D319230955412544C9D13b",
  "abi": [
    {
      "anonymous": false,
      "inputs": [
        {
          "indexed": true,
          "internalType": "address",
          "name": "owner",
          "type": "address"
        },
        {
          "indexed": true,
          "internalType": "address",
          "name": "approved",
          "type": "address"
        },
        {
          "indexed": true,
          "internalType": "uint256",
          "name": "tokenId",
          "type": "uint256"
        }
      ],
      "name": "Approval",
      "type": "event"
    },
    {
      "anonymous": false,
      "inputs": [
        {
          "indexed": true,
          "internalType": "address",
          "name": "owner",
          "type": "address"
        },
        {
          "indexed": true,
          "internalType": "address",
          "name": "operator",
          "type": "address"
        },
        {
          "indexed": false,
          "internalType": "bool",
          "name": "approved",
          "type": "bool"
        }
      ],
      "name": "ApprovalForAll",
      "type": "event"
    },
    {
      "anonymous": false,
      "inputs": [
        {
          "indexed": true,
          "internalType": "address",
          "name": "previousOwner",
          "type": "address"
        },
        {
          "indexed": true,
          "internalType": "address",
          "name": "newOwner",
          "type": "address"
        }
      ],
      "name": "OwnershipTransferred",
      "type": "event"
    },
    {
      "anonymous": false,
      "inputs": [
        {
          "indexed": false,
          "internalType": "uint256",
          "name": "tokenID",
          "type": "uint256"
        },
        {
          "indexed": false,
          "internalType": "uint256",
          "name": "price",
          "type": "uint256"
        },
        {
          "indexed": false,
          "internalType": "address",
          "name": "seller",
          "type": "address"
        },
        {
          "indexed": false,
          "internalType": "uint256",
          "name": "paid",
          "type": "uint256"
        },
        {
          "indexed": false,
          "internalType": "address",
          "name": "receiver",
          "type": "address"
        },
        {
          "indexed": false,
          "internalType": "uint256",
          "name": "royalties",
          "type": "uint256"
        },
        {
          "indexed": false,
          "internalType": "address",
          "name": "buyer",
          "type": "address"
        },
        {
          "indexed": false,
          "internalType": "uint256",
          "name": "unspent",
          "type": "uint256"
        }
      ],
      "name": "Pay",
      "type": "event"
    },
    {
      "anonymous": false,
      "inputs": [
        {
          "indexed": false,
          "internalType": "uint256",
          "name": "price",
          "type": "uint256"
        }
      ],
      "name": "SetDefaultPrice",
      "type": "event"
    },
    {
      "anonymous": false,
      "inputs": [
        {
          "indexed": false,
          "internalType": "address",
          "name": "receiver",
          "type": "address"
        },
        {
          "indexed": false,
          "internalType": "uint96",
          "name": "fee",
          "type": "uint96"
        }
      ],
      "name": "SetDefaultRoyalty",
      "type": "event"
    },
    {
      "anonymous": false,
      "inputs": [
        {
          "indexed": true,
          "internalType": "bool",
          "name": "paused",
          "type": "bool"
        },
        {
          "indexed": true,
          "internalType": "address",
          "name": "account",
          "type": "address"
        }
      ],
      "name": "SetPaused",
      "type": "event"
    },
    {
      "anonymous": false,
      "inputs": [
        {
          "indexed": false,
          "internalType": "uint256",
          "name": "tokenID",
          "type": "uint256"
        },
        {
          "indexed": false,
          "internalType": "uint256",
          "name": "price",
          "type": "uint256"
        }
      ],
      "name": "SetTokenPrice",
      "type": "event"
    },
    {
      "anonymous": false,
      "inputs": [
        {
          "indexed": false,
          "internalType": "uint256",
          "name": "tokenID",
          "type": "uint256"
        },
        {
          "indexed": false,
          "internalType": "address",
          "name": "receiver",
          "type": "address"
        },
        {
          "indexed": false,
          "internalType": "uint96",
          "name": "fee",
          "type": "uint96"
        }
      ],
      "name": "SetTokenRoyalty",
      "type": "event"
    },
    {
      "anonymous": false,
      "inputs": [
        {
          "indexed": true,
          "internalType": "address",
          "name": "from",
          "type": "address"
        },
        {
          "indexed": true,
          "internalType": "address",
          "name": "to",
          "type": "address"
        },
        {
          "indexed": true,
          "internalType": "uint256",
          "name": "tokenId",
          "type": "uint256"
        }
      ],
      "name": "Transfer",
      "type": "event"
    },
    {
      "inputs": [
        {
          "internalType": "address",
          "name": "spender",
          "type": "address"
        },
        {
          "internalType": "uint256",
          "name": "tokenID",
          "type": "uint256"
        }
      ],
      "name": "approve",
      "outputs": [],
      "stateMutability": "nonpayable",
      "type": "function"
    },
    {
      "inputs": [
        {
          "internalType": "address",
          "name": "owner",
          "type": "address"
        }
      ],
      "name": "balanceOf",
      "outputs": [
        {
          "internalType": "uint256",
          "name": "",
          "type": "uint256"
        }
      ],
      "stateMutability": "view",
      "type": "function"
    },
    {
      "inputs": [
        {
          "internalType": "uint256",
          "name": "tokenID",
          "type": "uint256"
        }
      ],
      "name": "burn",
      "outputs": [],
      "stateMutability": "nonpayable",
      "type": "function"
    },
    {
      "inputs": [
        {
          "internalType": "uint256",
          "name": "tokenID",
          "type": "uint256"
        }
      ],
      "name": "buy",
      "outputs": [],
      "stateMutability": "payable",
      "type": "function"
    },
    {
      "inputs": [],
      "name": "defaultPrice",
      "outputs": [
        {
          "internalType": "uint256",
          "name": "",
          "type": "uint256"
        }
      ],
      "stateMutability": "view",
      "type": "function"
    },
    {
      "inputs": [
        {
          "internalType": "uint256",
          "name": "tokenID",
          "type": "uint256"
        }
      ],
      "name": "getApproved",
      "outputs": [
        {
          "internalType": "address",
          "name": "",
          "type": "address"
        }
      ],
      "stateMutability": "view",
      "type": "function"
    },
    {
      "inputs": [],
      "name": "getDefaultRoyalty",
      "outputs": [
        {
          "internalType": "address",
          "name": "receiver",
          "type": "address"
        },
        {
          "internalType": "uint96",
          "name": "fee",
          "type": "uint96"
        }
      ],
      "stateMutability": "view",
      "type": "function"
    },
    {
      "inputs": [
        {
          "internalType": "uint256",
          "name": "tokenID",
          "type": "uint256"
        }
      ],
      "name": "getTokenRoyalty",
      "outputs": [
        {
          "internalType": "address",
          "name": "receiver",
          "type": "address"
        },
        {
          "internalType": "uint96",
          "name": "fee",
          "type": "uint96"
        }
      ],
      "stateMutability": "view",
      "type": "function"
    },
    {
      "inputs": [
        {
          "internalType": "string",
          "name": "name_",
          "type": "string"
        },
        {
          "internalType": "string",
          "name": "symbol_",
          "type": "string"
        },
        {
          "internalType": "address",
          "name": "owner_",
          "type": "address"
        },
        {
          "internalType": "bytes",
          "name": "params_",
          "type": "bytes"
        }
      ],
      "name": "initialize",
      "outputs": [],
      "stateMutability": "nonpayable",
      "type": "function"
    },
    {
      "inputs": [
        {
          "internalType": "string",
          "name": "name_",
          "type": "string"
        },
        {
          "internalType": "string",
          "name": "symbol_",
          "type": "string"
        },
        {
          "internalType": "address",
          "name": "owner_",
          "type": "address"
        },
        {
          "internalType": "uint256",
          "name": "defaultPrice_",
          "type": "uint256"
        },
        {
          "internalType": "address",
          "name": "receiver_",
          "type": "address"
        },
        {
          "internalType": "uint96",
          "name": "fee_",
          "type": "uint96"
        },
        {
          "internalType": "bool[]",
          "name": "options",
          "type": "bool[]"
        }
      ],
      "name": "initialize",
      "outputs": [],
      "stateMutability": "nonpayable",
      "type": "function"
    },
    {
      "inputs": [],
      "name": "initialized",
      "outputs": [
        {
          "internalType": "bool",
          "name": "",
          "type": "bool"
        }
      ],
      "stateMutability": "view",
      "type": "function"
    },
    {
      "inputs": [
        {
          "internalType": "address",
          "name": "owner",
          "type": "address"
        },
        {
          "internalType": "address",
          "name": "operator",
          "type": "address"
        }
      ],
      "name": "isApprovedForAll",
      "outputs": [
        {
          "internalType": "bool",
          "name": "",
          "type": "bool"
        }
      ],
      "stateMutability": "view",
      "type": "function"
    },
    {
      "inputs": [
        {
          "internalType": "address",
          "name": "minter_",
          "type": "address"
        },
        {
          "internalType": "string",
          "name": "tokenURI_",
          "type": "string"
        },
        {
          "internalType": "uint256",
          "name": "tokenPrice_",
          "type": "uint256"
        },
        {
          "internalType": "address",
          "name": "receiver_",
          "type": "address"
        },
        {
          "internalType": "uint96",
          "name": "fee_",
          "type": "uint96"
        }
      ],
      "name": "mint",
      "outputs": [
        {
          "internalType": "uint256",
          "name": "tokenID",
          "type": "uint256"
        }
      ],
      "stateMutability": "payable",
      "type": "function"
    },
    {
      "inputs": [
        {
          "internalType": "address",
          "name": "minter",
          "type": "address"
        },
        {
          "internalType": "string",
          "name": "tokenURI",
          "type": "string"
        }
      ],
      "name": "mint",
      "outputs": [
        {
          "internalType": "uint256",
          "name": "tokenID",
          "type": "uint256"
        }
      ],
      "stateMutability": "nonpayable",
      "type": "function"
    },
    {
      "inputs": [
        {
          "internalType": "string",
          "name": "tokenURI",
          "type": "string"
        }
      ],
      "name": "mint",
      "outputs": [
        {
          "internalType": "uint256",
          "name": "tokenID",
          "type": "uint256"
        }
      ],
      "stateMutability": "nonpayable",
      "type": "function"
    },
    {
      "inputs": [],
      "name": "name",
      "outputs": [
        {
          "internalType": "string",
          "name": "",
          "type": "string"
        }
      ],
      "stateMutability": "view",
      "type": "function"
    },
    {
      "inputs": [],
      "name": "open",
      "outputs": [
        {
          "internalType": "bool",
          "name": "",
          "type": "bool"
        }
      ],
      "stateMutability": "view",
      "type": "function"
    },
    {
      "inputs": [],
      "name": "owner",
      "outputs": [
        {
          "internalType": "address",
          "name": "",
          "type": "address"
        }
      ],
      "stateMutability": "view",
      "type": "function"
    },
    {
      "inputs": [
        {
          "internalType": "uint256",
          "name": "tokenID",
          "type": "uint256"
        }
      ],
      "name": "ownerOf",
      "outputs": [
        {
          "internalType": "address",
          "name": "",
          "type": "address"
        }
      ],
      "stateMutability": "view",
      "type": "function"
    },
    {
      "inputs": [],
      "name": "parent",
      "outputs": [
        {
          "internalType": "address",
          "name": "parent_",
          "type": "address"
        }
      ],
      "stateMutability": "view",
      "type": "function"
    },
    {
      "inputs": [],
      "name": "paused",
      "outputs": [
        {
          "internalType": "bool",
          "name": "",
          "type": "bool"
        }
      ],
      "stateMutability": "view",
      "type": "function"
    },
    {
      "inputs": [
        {
          "internalType": "uint256",
          "name": "tokenID",
          "type": "uint256"
        },
        {
          "internalType": "uint256",
          "name": "price",
          "type": "uint256"
        }
      ],
      "name": "royaltyInfo",
      "outputs": [
        {
          "internalType": "address",
          "name": "receiver",
          "type": "address"
        },
        {
          "internalType": "uint256",
          "name": "royaltyAmount",
          "type": "uint256"
        }
      ],
      "stateMutability": "view",
      "type": "function"
    },
    {
      "inputs": [
        {
          "internalType": "address",
          "name": "from",
          "type": "address"
        },
        {
          "internalType": "address",
          "name": "to",
          "type": "address"
        },
        {
          "internalType": "uint256",
          "name": "tokenID",
          "type": "uint256"
        }
      ],
      "name": "safeTransferFrom",
      "outputs": [],
      "stateMutability": "payable",
      "type": "function"
    },
    {
      "inputs": [
        {
          "internalType": "address",
          "name": "from",
          "type": "address"
        },
        {
          "internalType": "address",
          "name": "to",
          "type": "address"
        },
        {
          "internalType": "uint256",
          "name": "tokenID",
          "type": "uint256"
        },
        {
          "internalType": "bytes",
          "name": "data",
          "type": "bytes"
        }
      ],
      "name": "safeTransferFrom",
      "outputs": [],
      "stateMutability": "payable",
      "type": "function"
    },
    {
      "inputs": [
        {
          "internalType": "address",
          "name": "operator",
          "type": "address"
        },
        {
          "internalType": "bool",
          "name": "approved",
          "type": "bool"
        }
      ],
      "name": "setApprovalForAll",
      "outputs": [],
      "stateMutability": "nonpayable",
      "type": "function"
    },
    {
      "inputs": [
        {
          "internalType": "uint256",
          "name": "price",
          "type": "uint256"
        }
      ],
      "name": "setDefaultPrice",
      "outputs": [],
      "stateMutability": "nonpayable",
      "type": "function"
    },
    {
      "inputs": [
        {
          "internalType": "address",
          "name": "receiver",
          "type": "address"
        },
        {
          "internalType": "uint96",
          "name": "fee",
          "type": "uint96"
        }
      ],
      "name": "setDefaultRoyalty",
      "outputs": [],
      "stateMutability": "nonpayable",
      "type": "function"
    },
    {
      "inputs": [
        {
          "internalType": "uint256",
          "name": "tokenID",
          "type": "uint256"
        },
        {
          "internalType": "uint256",
          "name": "price",
          "type": "uint256"
        }
      ],
      "name": "setTokenPrice",
      "outputs": [],
      "stateMutability": "nonpayable",
      "type": "function"
    },
    {
      "inputs": [
        {
          "internalType": "uint256",
          "name": "tokenID",
          "type": "uint256"
        },
        {
          "internalType": "address",
          "name": "receiver",
          "type": "address"
        },
        {
          "internalType": "uint96",
          "name": "fee",
          "type": "uint96"
        }
      ],
      "name": "setTokenRoyalty",
      "outputs": [],
      "stateMutability": "nonpayable",
      "type": "function"
    },
    {
      "inputs": [
        {
          "internalType": "uint256",
          "name": "tokenID",
          "type": "uint256"
        },
        {
          "internalType": "address",
          "name": "receiver",
          "type": "address"
        }
      ],
      "name": "setTokenRoyaltyReceiver",
      "outputs": [],
      "stateMutability": "nonpayable",
      "type": "function"
    },
    {
      "inputs": [
        {
          "internalType": "bytes4",
          "name": "interfaceId",
          "type": "bytes4"
        }
      ],
      "name": "supportsInterface",
      "outputs": [
        {
          "internalType": "bool",
          "name": "",
          "type": "bool"
        }
      ],
      "stateMutability": "view",
      "type": "function"
    },
    {
      "inputs": [],
      "name": "symbol",
      "outputs": [
        {
          "internalType": "string",
          "name": "",
          "type": "string"
        }
      ],
      "stateMutability": "view",
      "type": "function"
    },
    {
      "inputs": [],
      "name": "template",
      "outputs": [
        {
          "internalType": "string",
          "name": "",
          "type": "string"
        }
      ],
      "stateMutability": "view",
      "type": "function"
    },
    {
      "inputs": [],
      "name": "togglePause",
      "outputs": [],
      "stateMutability": "nonpayable",
      "type": "function"
    },
    {
      "inputs": [
        {
          "internalType": "uint256",
          "name": "index",
          "type": "uint256"
        }
      ],
      "name": "tokenByIndex",
      "outputs": [
        {
          "internalType": "uint256",
          "name": "",
          "type": "uint256"
        }
      ],
      "stateMutability": "view",
      "type": "function"
    },
    {
      "inputs": [],
      "name": "tokenIdNext",
      "outputs": [
        {
          "internalType": "uint256",
          "name": "",
          "type": "uint256"
        }
      ],
      "stateMutability": "view",
      "type": "function"
    },
    {
      "inputs": [
        {
          "internalType": "address",
          "name": "owner",
          "type": "address"
        },
        {
          "internalType": "uint256",
          "name": "index",
          "type": "uint256"
        }
      ],
      "name": "tokenOfOwnerByIndex",
      "outputs": [
        {
          "internalType": "uint256",
          "name": "",
          "type": "uint256"
        }
      ],
      "stateMutability": "view",
      "type": "function"
    },
    {
      "inputs": [
        {
          "internalType": "uint256",
          "name": "",
          "type": "uint256"
        }
      ],
      "name": "tokenPrice",
      "outputs": [
        {
          "internalType": "uint256",
          "name": "",
          "type": "uint256"
        }
      ],
      "stateMutability": "view",
      "type": "function"
    },
    {
      "inputs": [
        {
          "internalType": "uint256",
          "name": "tokenID",
          "type": "uint256"
        }
      ],
      "name": "tokenURI",
      "outputs": [
        {
          "internalType": "string",
          "name": "",
          "type": "string"
        }
      ],
      "stateMutability": "view",
      "type": "function"
    },
    {
      "inputs": [],
      "name": "totalSupply",
      "outputs": [
        {
          "internalType": "uint256",
          "name": "",
          "type": "uint256"
        }
      ],
      "stateMutability": "view",
      "type": "function"
    },
    {
      "inputs": [
        {
          "internalType": "address",
          "name": "from",
          "type": "address"
        },
        {
          "internalType": "address",
          "name": "to",
          "type": "address"
        },
        {
          "internalType": "uint256",
          "name": "tokenID",
          "type": "uint256"
        }
      ],
      "name": "transferFrom",
      "outputs": [],
      "stateMutability": "payable",
      "type": "function"
    },
    {
      "inputs": [
        {
          "internalType": "address",
          "name": "newOwner",
          "type": "address"
        }
      ],
      "name": "transferOwnership",
      "outputs": [],
      "stateMutability": "nonpayable",
      "type": "function"
    },
    {
      "inputs": [],
      "name": "version",
      "outputs": [
        {
          "internalType": "uint256",
          "name": "",
          "type": "uint256"
        }
      ],
      "stateMutability": "view",
      "type": "function"
    },
    {
      "inputs": [],
      "name": "withdraw",
      "outputs": [],
      "stateMutability": "nonpayable",
      "type": "function"
    },
    {
      "inputs": [
        {
          "internalType": "address",
          "name": "token",
          "type": "address"
        }
      ],
      "name": "withdraw",
      "outputs": [],
      "stateMutability": "nonpayable",
      "type": "function"
    },
    {
      "stateMutability": "payable",
      "type": "receive"
    }
  ],
  "transactionHash": "0x4d0596b772b60c66bd4db78b5385d247a5fa6a7a8b202b4dcb884cf9014fbebc",
  "args": [],
  "numDeployments": 3,
  "solcInputHash": "e5e0b86adcd33eb082dbf8372c97ba2f",
  "bytecode": "0x608060405234801561001057600080fd5b5061350b806100206000396000f3fe6080604052600436106102765760003560e01c80636352211e1161014f578063c4ae3168116100c1578063e69e04b31161007a578063e69e04b31461078c578063e97186ef146107a2578063e985e9c5146107c2578063eb685c471461080b578063f2fde38b1461082b578063fcfff16f1461084b57600080fd5b8063c4ae3168146106d7578063c87b56dd146106ec578063d0def5211461070c578063d4ddce8a1461072c578063d85d3d2714610759578063d96a094a1461077957600080fd5b80638bbf58b3116101135780638bbf58b3146106265780638cabe05a1461063c5780638da5cb5b1461066c57806395d89b411461068f578063a22cb465146106a4578063b88d4fde146106c457600080fd5b80636352211e146105415780636d3c7ec5146105615780636f2ddd931461058157806370a0823114610596578063833b7b78146105b657600080fd5b80632f745c59116101e85780634f6ccce7116101ac5780634f6ccce71461049e57806351cff8d9146104be57806354fd4d50146104de5780635944c753146104f45780635c975abb1461051457806360f96a8f1461052c57600080fd5b80632f745c59146104235780633ccfd60b1461044357806342842e0e1461045857806342966c681461046b5780634472167b1461048b57600080fd5b80630c5597e41161023a5780630c5597e414610353578063158ef93e1461037357806318160ddd146103925780631eb40e21146103b157806323b872dd146103d15780632a55205a146103e457600080fd5b806301ffc9a71461028257806304634d8d146102b757806306fdde03146102d9578063081812fc146102fb578063095ea7b31461033357600080fd5b3661027d57005b600080fd5b34801561028e57600080fd5b506102a261029d366004612ac1565b610865565b60405190151581526020015b60405180910390f35b3480156102c357600080fd5b506102d76102d2366004612b18565b610890565b005b3480156102e557600080fd5b506102ee6108d6565b6040516102ae9190612b9e565b34801561030757600080fd5b5061031b610316366004612bb1565b610968565b6040516001600160a01b0390911681526020016102ae565b34801561033f57600080fd5b506102d761034e366004612bca565b6109bf565b34801561035f57600080fd5b506102d761036e366004612bf6565b610a83565b34801561037f57600080fd5b506012546102a290610100900460ff1681565b34801561039e57600080fd5b506008545b6040519081526020016102ae565b3480156103bd57600080fd5b506102d76103cc366004612cd2565b610b17565b6102d76103df366004612d6f565b610b52565b3480156103f057600080fd5b506104046103ff366004612db0565b610b62565b604080516001600160a01b0390931683526020830191909152016102ae565b34801561042f57600080fd5b506103a361043e366004612bca565b610c30565b34801561044f57600080fd5b506102d7610cb7565b6102d7610466366004612d6f565b610d15565b34801561047757600080fd5b506102d7610486366004612bb1565b610d30565b6103a3610499366004612dd2565b610d60565b3480156104aa57600080fd5b506103a36104b9366004612bb1565b610e24565b3480156104ca57600080fd5b506102d76104d9366004612e53565b610e8e565b3480156104ea57600080fd5b506103a360145481565b34801561050057600080fd5b506102d761050f366004612e70565b610ffa565b34801561052057600080fd5b5060125460ff166102a2565b34801561053857600080fd5b5061031b611098565b34801561054d57600080fd5b5061031b61055c366004612bb1565b6110e1565b34801561056d57600080fd5b506102d761057c366004612bb1565b611134565b34801561058d57600080fd5b506102ee61116c565b3480156105a257600080fd5b506103a36105b1366004612e53565b6111fa565b3480156105c257600080fd5b506105ff6105d1366004612bb1565b6000908152600e60205260409020546001600160a01b03811691600160a01b9091046001600160601b031690565b604080516001600160a01b0390931683526001600160601b039091166020830152016102ae565b34801561063257600080fd5b506103a360155481565b34801561064857600080fd5b50600d546001600160a01b03811690600160a01b90046001600160601b03166105ff565b34801561067857600080fd5b50600c5461010090046001600160a01b031661031b565b34801561069b57600080fd5b506102ee611265565b3480156106b057600080fd5b506102d76106bf366004612ec0565b611274565b6102d76106d2366004612eee565b6112e0565b3480156106e357600080fd5b506102d76112f2565b3480156106f857600080fd5b506102ee610707366004612bb1565b611333565b34801561071857600080fd5b506103a3610727366004612f4e565b61140b565b34801561073857600080fd5b506103a3610747366004612bb1565b60106020526000908152604090205481565b34801561076557600080fd5b506103a3610774366004612f9e565b611489565b6102d7610787366004612bb1565b61149a565b34801561079857600080fd5b506103a360115481565b3480156107ae57600080fd5b506102d76107bd36600461306b565b61165d565b3480156107ce57600080fd5b506102a26107dd366004613138565b6001600160a01b03918216600090815260036020908152604080832093909416825291909152205460ff1690565b34801561081757600080fd5b506102d7610826366004612db0565b6116b8565b34801561083757600080fd5b506102d7610846366004612e53565b6116e9565b34801561085757600080fd5b506016546102a29060ff1681565b60006001600160e01b03198216632865aacb60e11b148061088a575061088a82611721565b92915050565b600c5461010090046001600160a01b031633146108c85760405162461bcd60e51b81526004016108bf90613166565b60405180910390fd5b6108d28282611749565b5050565b6060600580546108e590613189565b80601f016020809104026020016040519081016040528092919081815260200182805461091190613189565b801561095e5780601f106109335761010080835404028352916020019161095e565b820191906000526020600020905b81548152906001019060200180831161094157829003601f168201915b5050505050905090565b60008181526020819052604081205482906001600160a01b031661099e5760405162461bcd60e51b81526004016108bf906131be565b6000838152600260205260409020546001600160a01b031691505b50919050565b6109c93382611811565b610a155760405162461bcd60e51b815260206004820152601c60248201527f4e6f7420746f6b656e206f776e6572206e6f72206f70657261746f720000000060448201526064016108bf565b600081815260026020526040902080546001600160a01b0319166001600160a01b0384169081179091558190610a4a826110e1565b6001600160a01b03167f8c5be1e5ebec7d5bd14f71427d1e84f3dd0314c0f7b2291e5b200ac8c7c3b92560405160405180910390a45050565b60008281526020819052604090205482906001600160a01b0316610ab95760405162461bcd60e51b81526004016108bf906131be565b600c5461010090046001600160a01b03163314610ae85760405162461bcd60e51b81526004016108bf90613166565b506000918252600e602052604090912080546001600160a01b0319166001600160a01b03909216919091179055565b60008060008084806020019051810190610b3191906131e8565b9350935093509350610b488888888787878761165d565b5050505050505050565b610b5d83838361186c565b505050565b60008082600160801b8110610b895760405162461bcd60e51b81526004016108bf906132b3565b6000858152600e60209081526040918290208251808401909352546001600160a01b038116808452600160a01b9091046001600160601b031691830191909152610bfd575060408051808201909152600d546001600160a01b0381168252600160a01b90046001600160601b031660208201525b602081015161271090610c19906001600160601b0316876132f0565b610c23919061330f565b9051969095509350505050565b6000610c3b836111fa565b8210610c7a5760405162461bcd60e51b815260206004820152600e60248201526d496e76616c696420696e6465782160901b60448201526064016108bf565b6001600160a01b0383166000908152600960205260409020805483908110610ca457610ca4613331565b9060005260206000200154905092915050565b600c5461010090046001600160a01b03163314610ce65760405162461bcd60e51b81526004016108bf90613166565b60405133904780156108fc02916000818181858888f19350505050158015610d12573d6000803e3d6000fd5b50565b610b5d83838360405180602001604052806000815250611aa2565b80610d3b3382611afa565b610d575760405162461bcd60e51b81526004016108bf90613347565b6108d282611b31565b60165460009060ff1680610d845750600c546001600160a01b036101009091041633145b610dbd5760405162461bcd60e51b815260206004820152600a6024820152692737ba1036b4b73a32b960b11b60448201526064016108bf565b60125460ff1615610dfa5760405162461bcd60e51b81526020600482015260076024820152665061757365642160c81b60448201526064016108bf565b610e04868661140b565b9050610e108185611b3a565b610e1b818484611ba6565b95945050505050565b6008546000908210610e695760405162461bcd60e51b815260206004820152600e60248201526d496e76616c696420696e6465782160901b60448201526064016108bf565b60088281548110610e7c57610e7c613331565b90600052602060002001549050919050565b600c5461010090046001600160a01b03163314610ebd5760405162461bcd60e51b81526004016108bf90613166565b6040516370a0823160e01b81523060048201526001600160a01b0382169063a9059cbb90339083906370a082319060240160206040518083038186803b158015610f0657600080fd5b505afa158015610f1a573d6000803e3d6000fd5b505050506040513d601f19601f82011682018060405250810190610f3e919061337e565b6040516001600160e01b031960e085901b1681526001600160a01b0390921660048301526024820152604401602060405180830381600087803b158015610f8457600080fd5b505af1158015610f98573d6000803e3d6000fd5b505050506040513d601f19601f82011682018060405250810190610fbc9190613397565b610d125760405162461bcd60e51b815260206004820152600f60248201526e15da5d1a191c985dc819985a5b1959608a1b60448201526064016108bf565b60008381526020819052604090205483906001600160a01b03166110305760405162461bcd60e51b81526004016108bf906131be565b600c5461010090046001600160a01b0316331461105f5760405162461bcd60e51b81526004016108bf90613166565b8361106a3382611afa565b6110865760405162461bcd60e51b81526004016108bf90613347565b611091858585611ba6565b5050505050565b6000602d303b146110a95750600090565b6010306001600160a01b0316803b806020016040519081016040528181526000908060200190933c6110da906133b4565b901c905090565b60008181526020819052604081205482906001600160a01b03166111175760405162461bcd60e51b81526004016108bf906131be565b50506000908152602081905260409020546001600160a01b031690565b600c5461010090046001600160a01b031633146111635760405162461bcd60e51b81526004016108bf90613166565b610d1281611c8b565b6013805461117990613189565b80601f01602080910402602001604051908101604052809291908181526020018280546111a590613189565b80156111f25780601f106111c7576101008083540402835291602001916111f2565b820191906000526020600020905b8154815290600101906020018083116111d557829003601f168201915b505050505081565b60006001600160a01b0382166112495760405162461bcd60e51b8152602060048201526014602482015273496e76616c6964207a65726f206164647265737360601b60448201526064016108bf565b506001600160a01b031660009081526001602052604090205490565b6060600680546108e590613189565b3360008181526003602090815260408083206001600160a01b03871680855290835292819020805460ff191686151590811790915590519081529192917f17307eab39ab6107e8899845ad3d59bd9653f200f220920489ca2b5937696c31910160405180910390a35050565b6112ec84848484611aa2565b50505050565b600c5461010090046001600160a01b031633146113215760405162461bcd60e51b81526004016108bf90613166565b6012546113319060ff1615611ceb565b565b60008181526020819052604090205460609082906001600160a01b031661136c5760405162461bcd60e51b81526004016108bf906131be565b6000838152600760205260409020805461138590613189565b80601f01602080910402602001604051908101604052809291908181526020018280546113b190613189565b80156113fe5780601f106113d3576101008083540402835291602001916113fe565b820191906000526020600020905b8154815290600101906020018083116113e157829003601f168201915b5050505050915050919050565b60165460009060ff168061142f5750600c546001600160a01b036101009091041633145b6114685760405162461bcd60e51b815260206004820152600a6024820152692737ba1036b4b73a32b960b11b60448201526064016108bf565b60158054906000611478836133d8565b91905055905061088a838383611d30565b600061088a33836000806000610d60565b60008181526020819052604090205481906001600160a01b03166114d05760405162461bcd60e51b81526004016108bf906131be565b6000828152601060205260409020548061151a5760405162461bcd60e51b815260206004820152600b60248201526a139bdd081d1bc81cd95b1b60aa1b60448201526064016108bf565b8034101561155d5760405162461bcd60e51b815260206004820152601060248201526f4e6f7420656e6f7567682066756e647360801b60448201526064016108bf565b6000611568846110e1565b90506001600160a01b038116611580576115806133f3565b6001600160a01b0381163314156115d05760405162461bcd60e51b8152602060048201526014602482015273416c726561647920746f6b656e206f776e65722160601b60448201526064016108bf565b604051635c46a7ef60e11b81526001600160a01b0382166004820152336024820152604481018590526080606482015260006084820152309063b88d4fde90349060a4016000604051808303818588803b15801561162d57600080fd5b505af1158015611641573d6000803e3d6000fd5b5050506000958652505060106020525050604082209190915550565b611668878787611d3b565b8060008151811061167b5761167b613331565b6020026020010151601660006101000a81548160ff0219169083151502179055506116a584611c8b565b6116af8383611749565b50505050505050565b816116c33382611afa565b6116df5760405162461bcd60e51b81526004016108bf90613347565b610b5d8383611b3a565b600c5461010090046001600160a01b031633146117185760405162461bcd60e51b81526004016108bf90613166565b610d1281611d7d565b60006001600160e01b03198216600162b7486560e01b0319148061088a575061088a82611dd7565b6001600160601b0381166127108111156117a05760405162461bcd60e51b8152602060048201526018602482015277526f79616c7479206665652065786365656420707269636560401b60448201526064016108bf565b6040805180820182526001600160a01b0385168082526001600160601b0385166020928301819052600160a01b81028217600d558351918252918101919091527fa1edde4ed5c1392c90dccd8e051a4080b761850e49a24c77d826348a51e1f8dc91015b60405180910390a1505050565b60008061181d836110e1565b9050836001600160a01b0316816001600160a01b0316148061186457506001600160a01b0380821660009081526003602090815260408083209388168352929052205460ff165b949350505050565b806118773382611afa565b6118935760405162461bcd60e51b81526004016108bf90613347565b6001600160a01b0384166118e95760405162461bcd60e51b815260206004820152601a60248201527f5472616e736665722066726f6d207a65726f206164647265737300000000000060448201526064016108bf565b6001600160a01b03831661193f5760405162461bcd60e51b815260206004820152601860248201527f5472616e7366657220746f207a65726f2061646472657373000000000000000060448201526064016108bf565b611948826110e1565b6001600160a01b0316846001600160a01b0316146119995760405162461bcd60e51b815260206004820152600e60248201526d233937b6903737ba1037bbb732b960911b60448201526064016108bf565b6119a4848484611dfc565b600082815260026020526040902080546001600160a01b03191690556001600160a01b0384811690841614611a5b576001600160a01b038416600090815260016020819052604082208054919290916119fe908490613409565b90915550506001600160a01b03831660009081526001602081905260408220805491929091611a2e908490613420565b9091555050600082815260208190526040902080546001600160a01b0319166001600160a01b0385161790555b81836001600160a01b0316856001600160a01b03167fddf252ad1be2c89b69c2b068fc378daa952ba7f163c4a11628f55a4df523b3ef60405160405180910390a450505050565b611aad84848461186c565b611ab984848484611e07565b6112ec5760405162461bcd60e51b81526020600482015260126024820152712737ba1022a9219b9918a932b1b2b4bb32b960711b60448201526064016108bf565b6000611b068383611811565b80611b2a5750826001600160a01b0316611b1f83610968565b6001600160a01b0316145b9392505050565b610d1281611eb5565b80600160801b8110611b5e5760405162461bcd60e51b81526004016108bf906132b3565b60008381526010602090815260409182902084905581518581529081018490527f2f8c61aa79deaa9c961d54f640a154df4960a56a5989d25df0148be783dc3f5b9101611804565b6001600160601b038116612710811115611bfd5760405162461bcd60e51b8152602060048201526018602482015277526f79616c7479206665652065786365656420707269636560401b60448201526064016108bf565b6040805180820182526001600160a01b038581168083526001600160601b03868116602080860182815260008c8152600e835288902096519051909316600160a01b029290941691909117909355835188815291820152918201527f2595213009f64247e2789cf9981bcc53ee736a6aa52042a651aa1549ae6fff619060600160405180910390a150505050565b80600160801b8110611caf5760405162461bcd60e51b81526004016108bf906132b3565b60118290556040518281527f9f7a6492db3843bc01c0adb23cd27be964155c1d45c566f2ee32f28faf4eb6059060200160405180910390a15050565b6012805460ff1916821515908117909155604051339160ff161515907f8b265f737315073a655a642868ed756ba7e3b6c391b06dbbf70370aab7f7f06890600090a350565b610b5d838383611eda565b60016015556040805180820190915260088152674f70656e4e46547360c01b6020820152611d6a906004611f33565b611d748383611f84565b610b5d81611fdb565b600c80546001600160a01b03838116610100818102610100600160a81b031985161790945560405193909204169182907f8be0079c531659141344cd1fd0a4f28419497f9722a3daafe3b4186f6b6457e090600090a35050565b60006001600160e01b031982166350130d5360e01b148061088a575061088a82612014565b610b5d838383612039565b60006001600160a01b0384163b1580610e1b5750604051630a85bd0160e11b808252906001600160a01b0386169063150b7a0290611e4f9033908a9089908990600401613438565b602060405180830381600087803b158015611e6957600080fd5b505af1158015611e7d573d6000803e3d6000fd5b505050506040513d601f19601f82011682018060405250810190611ea19190613475565b6001600160e01b0319161495945050505050565b6000818152600e602090815260408083208390556010909152812055610d1281612072565b600d54611f039082906001600160a01b03811690600160a01b90046001600160601b0316611ba6565b611f288160115485611f23600c546001600160a01b036101009091041690565b61213d565b610b5d83838361247d565b601254610100900460ff1615611f5b5760405162461bcd60e51b81526004016108bf90613492565b6012805461ff0019166101001790558151611f7d9060139060208501906129dc565b5060145550565b60045460ff1615611fa75760405162461bcd60e51b81526004016108bf90613492565b6004805460ff191660011790558151611fc79060059060208501906129dc565b508051610b5d9060069060208401906129dc565b600c5460ff1615611ffe5760405162461bcd60e51b81526004016108bf90613492565b600c805460ff19166001179055610d1281611d7d565b60006001600160e01b031982166398396bd360e01b148061088a575061088a826124d6565b60008181526010602052604090205461205890829084611f23836110e1565b600081815260106020526040812055610b5d8383836124fb565b600061207d826110e1565b9050612089818361250f565b6000828152600b60205260408120546008549091906120aa90600190613409565b90506000600882815481106120c1576120c1613331565b6000918252602080832090910154808352600b90915260408083208690558783528220919091556008805491925082918590811061210157612101613331565b600091825260209091200155600880548061211e5761211e6134bf565b600190038181906000526020600020016000905590556110918561261d565b600f5460ff161561217f5760405162461bcd60e51b815260206004820152600c60248201526b4e6f2072652d656e7472792160a01b60448201526064016108bf565b600f805460ff19166001179055348311156121cf5760405162461bcd60e51b815260206004820152601060248201526f4e6f7420656e6f7567682066756e647360801b60448201526064016108bf565b346121d95761246d565b6001600160a01b03821661221f5760405162461bcd60e51b815260206004820152600d60248201526c24b73b30b634b210313abcb2b960991b60448201526064016108bf565b6001600160a01b0381166122665760405162461bcd60e51b815260206004820152600e60248201526d24b73b30b634b21039b2b63632b960911b60448201526064016108bf565b6000808034861580159061228c5750846001600160a01b0316866001600160a01b031614155b156123995761229b8888610b62565b90945092506001600160a01b0384166122b357600092505b868311156122f75760405162461bcd60e51b8152602060048201526011602482015270496e76616c696420726f79616c7469657360781b60448201526064016108bf565b6123018388613409565b9150811561234e576123138282613409565b6040519091506001600160a01b0386169083156108fc029084906000818181858888f1935050505015801561234c573d6000803e3d6000fd5b505b82156123995761235e8382613409565b6040519091506001600160a01b0385169084156108fc029085906000818181858888f19350505050158015612397573d6000803e3d6000fd5b505b34816123a58585613420565b6123af9190613420565b146123bc576123bc6133f3565b80156123fa576040516001600160a01b0387169082156108fc029083906000818181858888f193505050501580156123f8573d6000803e3d6000fd5b505b60408051898152602081018990526001600160a01b038781168284015260608201859052868116608083015260a08201869052881660c082015260e0810183905290517f746889be52a242154dfc6d4e1c55b36e2f81cfc340b11f28ef86b142ca25d937918190036101000190a1505050505b5050600f805460ff191690555050565b612487838261263d565b600880546000838152600b60205260408120829055600182018355919091527ff3f7a9fe364faab93b216da50a3214154f22a0a2b415b23a84c8169e8b636ee301819055610b5d83838361267b565b60006001600160e01b0319821663eaf56ea360e01b148061088a575061088a826126a6565b612505838261250f565b610b5d828261263d565b6000818152600a602052604081205490600161252a856111fa565b6125349190613409565b90508082146125cb576001600160a01b038416600090815260096020526040812080548390811061256757612567613331565b906000526020600020015490508060096000876001600160a01b03166001600160a01b0316815260200190815260200160002084815481106125ab576125ab613331565b6000918252602080832090910192909255918252600a9052604090208290555b6000838152600a602090815260408083208390556001600160a01b038716835260099091529020805480612601576126016134bf565b6001900381819060005260206000200160009055905550505050565b600081815260076020526040812061263491612a60565b610d12816126cb565b6001600160a01b0390911660009081526009602081815260408084208054868652600a84529185208290559282526001810183559183529091200155565b6000818152600760209081526040909120835161269a928501906129dc565b50610b5d8383836127bc565b600063152a902d60e11b6001600160e01b03198316148061088a575061088a82612947565b60006126d6826110e1565b90506001600160a01b0381166126fe5760405162461bcd60e51b81526004016108bf906131be565b6001600160a01b038116600090815260016020526040902054612723576127236133f3565b6001600160a01b0381166000908152600160208190526040822080549192909161274e908490613409565b9091555050600082815260026020908152604080832080546001600160a01b0319908116909155918390528083208054909216909155518391906001600160a01b038416907fddf252ad1be2c89b69c2b068fc378daa952ba7f163c4a11628f55a4df523b3ef908390a45050565b6001600160a01b0383166128095760405162461bcd60e51b81526020600482015260146024820152734d696e7420746f207a65726f206164647265737360601b60448201526064016108bf565b6000818152602081905260409020546001600160a01b0316156128655760405162461bcd60e51b8152602060048201526014602482015273151bdad95b88185b1c9958591e481b5a5b9d195960621b60448201526064016108bf565b6001600160a01b03831660009081526001602081905260408220805491929091612890908490613420565b909155505060008181526020819052604080822080546001600160a01b0319166001600160a01b03871690811790915590518392907fddf252ad1be2c89b69c2b068fc378daa952ba7f163c4a11628f55a4df523b3ef908290a46129066000848360405180602001604052806000815250611e07565b610b5d5760405162461bcd60e51b8152602060048201526012602482015271139bdd08115490cdcc8c549958d95a5d995960721b60448201526064016108bf565b60006307f5828d60e41b6001600160e01b03198316148061088a575061088a82600063780e9d6360e01b6001600160e01b03198316148061088a575061088a826000635b5e139f60e01b6001600160e01b03198316148061088a575061088a8260006380ac58cd60e01b6001600160e01b03198316148061088a57506001600160e01b031982166301ffc9a760e01b1461088a565b8280546129e890613189565b90600052602060002090601f016020900481019282612a0a5760008555612a50565b82601f10612a2357805160ff1916838001178555612a50565b82800160010185558215612a50579182015b82811115612a50578251825591602001919060010190612a35565b50612a5c929150612a96565b5090565b508054612a6c90613189565b6000825580601f10612a7c575050565b601f016020900490600052602060002090810190610d1291905b5b80821115612a5c5760008155600101612a97565b6001600160e01b031981168114610d1257600080fd5b600060208284031215612ad357600080fd5b8135611b2a81612aab565b6001600160a01b0381168114610d1257600080fd5b6001600160601b0381168114610d1257600080fd5b8035612b1381612af3565b919050565b60008060408385031215612b2b57600080fd5b8235612b3681612ade565b91506020830135612b4681612af3565b809150509250929050565b6000815180845260005b81811015612b7757602081850181015186830182015201612b5b565b81811115612b89576000602083870101525b50601f01601f19169290920160200192915050565b602081526000611b2a6020830184612b51565b600060208284031215612bc357600080fd5b5035919050565b60008060408385031215612bdd57600080fd5b8235612be881612ade565b946020939093013593505050565b60008060408385031215612c0957600080fd5b823591506020830135612b4681612ade565b634e487b7160e01b600052604160045260246000fd5b604051601f8201601f1916810167ffffffffffffffff81118282101715612c5a57612c5a612c1b565b604052919050565b600082601f830112612c7357600080fd5b813567ffffffffffffffff811115612c8d57612c8d612c1b565b612ca0601f8201601f1916602001612c31565b818152846020838601011115612cb557600080fd5b816020850160208301376000918101602001919091529392505050565b60008060008060808587031215612ce857600080fd5b843567ffffffffffffffff80821115612d0057600080fd5b612d0c88838901612c62565b95506020870135915080821115612d2257600080fd5b612d2e88838901612c62565b945060408701359150612d4082612ade565b90925060608601359080821115612d5657600080fd5b50612d6387828801612c62565b91505092959194509250565b600080600060608486031215612d8457600080fd5b8335612d8f81612ade565b92506020840135612d9f81612ade565b929592945050506040919091013590565b60008060408385031215612dc357600080fd5b50508035926020909101359150565b600080600080600060a08688031215612dea57600080fd5b8535612df581612ade565b9450602086013567ffffffffffffffff811115612e1157600080fd5b612e1d88828901612c62565b945050604086013592506060860135612e3581612ade565b91506080860135612e4581612af3565b809150509295509295909350565b600060208284031215612e6557600080fd5b8135611b2a81612ade565b600080600060608486031215612e8557600080fd5b833592506020840135612e9781612ade565b91506040840135612ea781612af3565b809150509250925092565b8015158114610d1257600080fd5b60008060408385031215612ed357600080fd5b8235612ede81612ade565b91506020830135612b4681612eb2565b60008060008060808587031215612f0457600080fd5b8435612f0f81612ade565b93506020850135612f1f81612ade565b925060408501359150606085013567ffffffffffffffff811115612f4257600080fd5b612d6387828801612c62565b60008060408385031215612f6157600080fd5b8235612f6c81612ade565b9150602083013567ffffffffffffffff811115612f8857600080fd5b612f9485828601612c62565b9150509250929050565b600060208284031215612fb057600080fd5b813567ffffffffffffffff811115612fc757600080fd5b61186484828501612c62565b600067ffffffffffffffff821115612fed57612fed612c1b565b5060051b60200190565b600082601f83011261300857600080fd5b8135602061301d61301883612fd3565b612c31565b82815260059290921b8401810191818101908684111561303c57600080fd5b8286015b8481101561306057803561305381612eb2565b8352918301918301613040565b509695505050505050565b600080600080600080600060e0888a03121561308657600080fd5b873567ffffffffffffffff8082111561309e57600080fd5b6130aa8b838c01612c62565b985060208a01359150808211156130c057600080fd5b6130cc8b838c01612c62565b975060408a013591506130de82612ade565b909550606089013594506080890135906130f782612ade565b81945061310660a08b01612b08565b935060c08a013591508082111561311c57600080fd5b506131298a828b01612ff7565b91505092959891949750929550565b6000806040838503121561314b57600080fd5b823561315681612ade565b91506020830135612b4681612ade565b6020808252600990820152682737ba1037bbb732b960b91b604082015260600190565b600181811c9082168061319d57607f821691505b602082108114156109b957634e487b7160e01b600052602260045260246000fd5b60208082526010908201526f125b9d985b1a59081d1bdad95b88125160821b604082015260600190565b600080600080608085870312156131fe57600080fd5b8451935060208086015161321181612ade565b604087015190945061322281612af3565b606087015190935067ffffffffffffffff81111561323f57600080fd5b8601601f8101881361325057600080fd5b805161325e61301882612fd3565b81815260059190911b8201830190838101908a83111561327d57600080fd5b928401925b828410156132a457835161329581612eb2565b82529284019290840190613282565b979a9699509497505050505050565b6020808252600d908201526c546f6f20657870656e7369766560981b604082015260600190565b634e487b7160e01b600052601160045260246000fd5b600081600019048311821515161561330a5761330a6132da565b500290565b60008261332c57634e487b7160e01b600052601260045260246000fd5b500490565b634e487b7160e01b600052603260045260246000fd5b6020808252601c908201527f4e6f7420746f6b656e206f776e6572206e6f7220617070726f76656400000000604082015260600190565b60006020828403121561339057600080fd5b5051919050565b6000602082840312156133a957600080fd5b8151611b2a81612eb2565b805160208083015191908110156109b95760001960209190910360031b1b16919050565b60006000198214156133ec576133ec6132da565b5060010190565b634e487b7160e01b600052600160045260246000fd5b60008282101561341b5761341b6132da565b500390565b60008219821115613433576134336132da565b500190565b6001600160a01b038581168252841660208201526040810183905260806060820181905260009061346b90830184612b51565b9695505050505050565b60006020828403121561348757600080fd5b8151611b2a81612aab565b602080825260139082015272105b1c9958591e481a5b9a5d1a585b1a5e9959606a1b604082015260600190565b634e487b7160e01b600052603160045260246000fdfea264697066735822122021f6a9bc5a2ea6c31c3280bf4d09827d16bbfa65c377a20220117faa1e33d1e364736f6c63430008090033",
  "devdoc": {
    "kind": "dev",
    "methods": {
      "burn(uint256)": {
        "params": {
          "tokenID": "tokenID of NFT to burn"
        }
      },
      "getDefaultRoyalty()": {
        "returns": {
          "fee": ": fee Numerator, less than 10_000",
          "receiver": ": address of the royalty receiver, or address(0) to reset"
        }
      },
      "getTokenRoyalty(uint256)": {
        "params": {
          "tokenID": ": token ID"
        },
        "returns": {
          "fee": ": fee Numerator, less than 10_000",
          "receiver": ": address of the royalty receiver, or address(0) to reset"
        }
      },
      "setDefaultPrice(uint256)": {
        "params": {
          "price": ": default price in wei"
        }
      },
      "setDefaultRoyalty(address,uint96)": {
        "params": {
          "fee": ": fee Numerator, less than 10000",
          "receiver": ": address of the royalty receiver, or address(0) to reset"
        }
      },
      "setTokenPrice(uint256,uint256)": {
        "params": {
          "price": ": token price in wei",
          "tokenID": ": token ID"
        }
      },
      "setTokenRoyalty(uint256,address,uint96)": {
        "params": {
          "fee": ": fee Numerator, less than 10_000",
          "receiver": ": address of the royalty receiver, or address(0) to reset",
          "tokenID": ": token ID"
        }
      },
      "setTokenRoyaltyReceiver(uint256,address)": {
        "params": {
          "receiver": ": address of the royalty receiver, or address(0) to reset",
          "tokenID": ": token ID"
        }
      },
      "supportsInterface(bytes4)": {
        "params": {
          "interfaceId": "interfaceId to test"
        }
      }
    },
    "title": "OpenNFTs smartcontract",
    "version": 1
  },
  "userdoc": {
    "kind": "user",
    "methods": {
      "burn(uint256)": {
        "notice": "burn NFT"
      },
      "getDefaultRoyalty()": {
        "notice": "GET default royalty info"
      },
      "getTokenRoyalty(uint256)": {
        "notice": "GET token royalty info"
      },
      "open()": {
        "notice": "Mint NFT allowed to everyone or only collection owner"
      },
      "setDefaultPrice(uint256)": {
        "notice": "SET default mint price"
      },
      "setDefaultRoyalty(address,uint96)": {
        "notice": "SET default royalty info"
      },
      "setTokenPrice(uint256,uint256)": {
        "notice": "SET token price"
      },
      "setTokenRoyalty(uint256,address,uint96)": {
        "notice": "SET token royalty info"
      },
      "setTokenRoyaltyReceiver(uint256,address)": {
        "notice": "SET token royalty receiver"
      },
      "supportsInterface(bytes4)": {
        "notice": "test if this interface is supported"
      },
      "tokenIdNext()": {
        "notice": "tokenID of next minted NFT"
      },
      "withdraw()": {
        "notice": "withdraw eth"
      },
      "withdraw(address)": {
        "notice": "withdraw token"
      }
    },
    "version": 1
  },
  "storageLayout": {
    "storage": [
      {
        "astId": 5409,
        "contract": "contracts/next/OpenAutoMarket.sol:OpenAutoMarket",
        "label": "_owners",
        "offset": 0,
        "slot": "0",
        "type": "t_mapping(t_uint256,t_address)"
      },
      {
        "astId": 5413,
        "contract": "contracts/next/OpenAutoMarket.sol:OpenAutoMarket",
        "label": "_balances",
        "offset": 0,
        "slot": "1",
        "type": "t_mapping(t_address,t_uint256)"
      },
      {
        "astId": 5417,
        "contract": "contracts/next/OpenAutoMarket.sol:OpenAutoMarket",
        "label": "_tokenApprovals",
        "offset": 0,
        "slot": "2",
        "type": "t_mapping(t_uint256,t_address)"
      },
      {
        "astId": 5423,
        "contract": "contracts/next/OpenAutoMarket.sol:OpenAutoMarket",
        "label": "_operatorApprovals",
        "offset": 0,
        "slot": "3",
        "type": "t_mapping(t_address,t_mapping(t_address,t_bool))"
      },
      {
        "astId": 6332,
        "contract": "contracts/next/OpenAutoMarket.sol:OpenAutoMarket",
        "label": "_openERC721MetadataInitialized",
        "offset": 0,
        "slot": "4",
        "type": "t_bool"
      },
      {
        "astId": 6334,
        "contract": "contracts/next/OpenAutoMarket.sol:OpenAutoMarket",
        "label": "_name",
        "offset": 0,
        "slot": "5",
        "type": "t_string_storage"
      },
      {
        "astId": 6336,
        "contract": "contracts/next/OpenAutoMarket.sol:OpenAutoMarket",
        "label": "_symbol",
        "offset": 0,
        "slot": "6",
        "type": "t_string_storage"
      },
      {
        "astId": 6340,
        "contract": "contracts/next/OpenAutoMarket.sol:OpenAutoMarket",
        "label": "_tokenURIs",
        "offset": 0,
        "slot": "7",
        "type": "t_mapping(t_uint256,t_string_storage)"
      },
      {
        "astId": 6009,
        "contract": "contracts/next/OpenAutoMarket.sol:OpenAutoMarket",
        "label": "_allTokens",
        "offset": 0,
        "slot": "8",
        "type": "t_array(t_uint256)dyn_storage"
      },
      {
        "astId": 6014,
        "contract": "contracts/next/OpenAutoMarket.sol:OpenAutoMarket",
        "label": "_ownedTokens",
        "offset": 0,
        "slot": "9",
        "type": "t_mapping(t_address,t_array(t_uint256)dyn_storage)"
      },
      {
        "astId": 6018,
        "contract": "contracts/next/OpenAutoMarket.sol:OpenAutoMarket",
        "label": "_ownedTokensIndex",
        "offset": 0,
        "slot": "10",
        "type": "t_mapping(t_uint256,t_uint256)"
      },
      {
        "astId": 6022,
        "contract": "contracts/next/OpenAutoMarket.sol:OpenAutoMarket",
        "label": "_allTokensIndex",
        "offset": 0,
        "slot": "11",
        "type": "t_mapping(t_uint256,t_uint256)"
      },
      {
        "astId": 5174,
        "contract": "contracts/next/OpenAutoMarket.sol:OpenAutoMarket",
        "label": "_openERC173Initialized",
        "offset": 0,
        "slot": "12",
        "type": "t_bool"
      },
      {
        "astId": 5176,
        "contract": "contracts/next/OpenAutoMarket.sol:OpenAutoMarket",
        "label": "_owner",
        "offset": 1,
        "slot": "12",
        "type": "t_address"
      },
      {
        "astId": 5288,
        "contract": "contracts/next/OpenAutoMarket.sol:OpenAutoMarket",
        "label": "_defaultRoyaltyInfo",
        "offset": 0,
        "slot": "13",
        "type": "t_struct(RoyaltyInfo)5285_storage"
      },
      {
        "astId": 5293,
        "contract": "contracts/next/OpenAutoMarket.sol:OpenAutoMarket",
        "label": "_tokenRoyaltyInfo",
        "offset": 0,
        "slot": "14",
        "type": "t_mapping(t_uint256,t_struct(RoyaltyInfo)5285_storage)"
      },
      {
        "astId": 6502,
        "contract": "contracts/next/OpenAutoMarket.sol:OpenAutoMarket",
        "label": "_locked",
        "offset": 0,
        "slot": "15",
        "type": "t_bool"
      },
      {
        "astId": 6542,
        "contract": "contracts/next/OpenAutoMarket.sol:OpenAutoMarket",
        "label": "tokenPrice",
        "offset": 0,
        "slot": "16",
        "type": "t_mapping(t_uint256,t_uint256)"
      },
      {
        "astId": 6544,
        "contract": "contracts/next/OpenAutoMarket.sol:OpenAutoMarket",
        "label": "defaultPrice",
        "offset": 0,
        "slot": "17",
        "type": "t_uint256"
      },
      {
        "astId": 7358,
        "contract": "contracts/next/OpenAutoMarket.sol:OpenAutoMarket",
        "label": "_paused",
        "offset": 0,
        "slot": "18",
        "type": "t_bool"
      },
      {
        "astId": 4987,
        "contract": "contracts/next/OpenAutoMarket.sol:OpenAutoMarket",
        "label": "initialized",
        "offset": 1,
        "slot": "18",
        "type": "t_bool"
      },
      {
        "astId": 4989,
        "contract": "contracts/next/OpenAutoMarket.sol:OpenAutoMarket",
        "label": "template",
        "offset": 0,
        "slot": "19",
        "type": "t_string_storage"
      },
      {
        "astId": 4991,
        "contract": "contracts/next/OpenAutoMarket.sol:OpenAutoMarket",
        "label": "version",
        "offset": 0,
        "slot": "20",
        "type": "t_uint256"
      },
      {
        "astId": 7116,
        "contract": "contracts/next/OpenAutoMarket.sol:OpenAutoMarket",
        "label": "tokenIdNext",
        "offset": 0,
        "slot": "21",
        "type": "t_uint256"
      },
      {
        "astId": 18775,
        "contract": "contracts/next/OpenAutoMarket.sol:OpenAutoMarket",
        "label": "open",
        "offset": 0,
        "slot": "22",
        "type": "t_bool"
      }
    ],
    "types": {
      "t_address": {
        "encoding": "inplace",
        "label": "address",
        "numberOfBytes": "20"
      },
      "t_array(t_uint256)dyn_storage": {
        "base": "t_uint256",
        "encoding": "dynamic_array",
        "label": "uint256[]",
        "numberOfBytes": "32"
      },
      "t_bool": {
        "encoding": "inplace",
        "label": "bool",
        "numberOfBytes": "1"
      },
      "t_mapping(t_address,t_array(t_uint256)dyn_storage)": {
        "encoding": "mapping",
        "key": "t_address",
        "label": "mapping(address => uint256[])",
        "numberOfBytes": "32",
        "value": "t_array(t_uint256)dyn_storage"
      },
      "t_mapping(t_address,t_bool)": {
        "encoding": "mapping",
        "key": "t_address",
        "label": "mapping(address => bool)",
        "numberOfBytes": "32",
        "value": "t_bool"
      },
      "t_mapping(t_address,t_mapping(t_address,t_bool))": {
        "encoding": "mapping",
        "key": "t_address",
        "label": "mapping(address => mapping(address => bool))",
        "numberOfBytes": "32",
        "value": "t_mapping(t_address,t_bool)"
      },
      "t_mapping(t_address,t_uint256)": {
        "encoding": "mapping",
        "key": "t_address",
        "label": "mapping(address => uint256)",
        "numberOfBytes": "32",
        "value": "t_uint256"
      },
      "t_mapping(t_uint256,t_address)": {
        "encoding": "mapping",
        "key": "t_uint256",
        "label": "mapping(uint256 => address)",
        "numberOfBytes": "32",
        "value": "t_address"
      },
      "t_mapping(t_uint256,t_string_storage)": {
        "encoding": "mapping",
        "key": "t_uint256",
        "label": "mapping(uint256 => string)",
        "numberOfBytes": "32",
        "value": "t_string_storage"
      },
      "t_mapping(t_uint256,t_struct(RoyaltyInfo)5285_storage)": {
        "encoding": "mapping",
        "key": "t_uint256",
        "label": "mapping(uint256 => struct OpenERC2981.RoyaltyInfo)",
        "numberOfBytes": "32",
        "value": "t_struct(RoyaltyInfo)5285_storage"
      },
      "t_mapping(t_uint256,t_uint256)": {
        "encoding": "mapping",
        "key": "t_uint256",
        "label": "mapping(uint256 => uint256)",
        "numberOfBytes": "32",
        "value": "t_uint256"
      },
      "t_string_storage": {
        "encoding": "bytes",
        "label": "string",
        "numberOfBytes": "32"
      },
      "t_struct(RoyaltyInfo)5285_storage": {
        "encoding": "inplace",
        "label": "struct OpenERC2981.RoyaltyInfo",
        "members": [
          {
            "astId": 5282,
            "contract": "contracts/next/OpenAutoMarket.sol:OpenAutoMarket",
            "label": "receiver",
            "offset": 0,
            "slot": "0",
            "type": "t_address"
          },
          {
            "astId": 5284,
            "contract": "contracts/next/OpenAutoMarket.sol:OpenAutoMarket",
            "label": "fee",
            "offset": 20,
            "slot": "0",
            "type": "t_uint96"
          }
        ],
        "numberOfBytes": "32"
      },
      "t_uint256": {
        "encoding": "inplace",
        "label": "uint256",
        "numberOfBytes": "32"
      },
      "t_uint96": {
        "encoding": "inplace",
        "label": "uint96",
        "numberOfBytes": "12"
      }
    }
  }
}