{
  "address": "0xa9592621973364eE0c90788589b4FA4025041Fd2",
  "abi": [
    {
      "anonymous": false,
      "inputs": [
        {
          "indexed": true,
          "internalType": "address",
          "name": "owner",
          "type": "address"
        },
        {
          "indexed": true,
          "internalType": "address",
          "name": "approved",
          "type": "address"
        },
        {
          "indexed": true,
          "internalType": "uint256",
          "name": "tokenId",
          "type": "uint256"
        }
      ],
      "name": "Approval",
      "type": "event"
    },
    {
      "anonymous": false,
      "inputs": [
        {
          "indexed": true,
          "internalType": "address",
          "name": "owner",
          "type": "address"
        },
        {
          "indexed": true,
          "internalType": "address",
          "name": "operator",
          "type": "address"
        },
        {
          "indexed": false,
          "internalType": "bool",
          "name": "approved",
          "type": "bool"
        }
      ],
      "name": "ApprovalForAll",
      "type": "event"
    },
    {
      "anonymous": false,
      "inputs": [
        {
          "indexed": true,
          "internalType": "address",
          "name": "previousOwner",
          "type": "address"
        },
        {
          "indexed": true,
          "internalType": "address",
          "name": "newOwner",
          "type": "address"
        }
      ],
      "name": "OwnershipTransferred",
      "type": "event"
    },
    {
      "anonymous": false,
      "inputs": [
        {
          "indexed": false,
          "internalType": "uint256",
          "name": "tokenID",
          "type": "uint256"
        },
        {
          "indexed": false,
          "internalType": "uint256",
          "name": "price",
          "type": "uint256"
        },
        {
          "indexed": false,
          "internalType": "address",
          "name": "payer",
          "type": "address"
        },
        {
          "indexed": false,
          "internalType": "address",
          "name": "payee",
          "type": "address"
        }
      ],
      "name": "Pay",
      "type": "event"
    },
    {
      "anonymous": false,
      "inputs": [
        {
          "indexed": false,
          "internalType": "uint256",
          "name": "price",
          "type": "uint256"
        }
      ],
      "name": "SetDefaultPrice",
      "type": "event"
    },
    {
      "anonymous": false,
      "inputs": [
        {
          "indexed": false,
          "internalType": "address",
          "name": "receiver",
          "type": "address"
        },
        {
          "indexed": false,
          "internalType": "uint96",
          "name": "fee",
          "type": "uint96"
        }
      ],
      "name": "SetDefaultRoyalty",
      "type": "event"
    },
    {
      "anonymous": false,
      "inputs": [
        {
          "indexed": true,
          "internalType": "bool",
          "name": "paused",
          "type": "bool"
        },
        {
          "indexed": true,
          "internalType": "address",
          "name": "account",
          "type": "address"
        }
      ],
      "name": "SetPaused",
      "type": "event"
    },
    {
      "anonymous": false,
      "inputs": [
        {
          "indexed": false,
          "internalType": "uint256",
          "name": "tokenID",
          "type": "uint256"
        },
        {
          "indexed": false,
          "internalType": "uint256",
          "name": "price",
          "type": "uint256"
        }
      ],
      "name": "SetTokenPrice",
      "type": "event"
    },
    {
      "anonymous": false,
      "inputs": [
        {
          "indexed": false,
          "internalType": "uint256",
          "name": "tokenID",
          "type": "uint256"
        },
        {
          "indexed": false,
          "internalType": "address",
          "name": "receiver",
          "type": "address"
        },
        {
          "indexed": false,
          "internalType": "uint96",
          "name": "fee",
          "type": "uint96"
        }
      ],
      "name": "SetTokenRoyalty",
      "type": "event"
    },
    {
      "anonymous": false,
      "inputs": [
        {
          "indexed": true,
          "internalType": "address",
          "name": "from",
          "type": "address"
        },
        {
          "indexed": true,
          "internalType": "address",
          "name": "to",
          "type": "address"
        },
        {
          "indexed": true,
          "internalType": "uint256",
          "name": "tokenId",
          "type": "uint256"
        }
      ],
      "name": "Transfer",
      "type": "event"
    },
    {
      "inputs": [
        {
          "internalType": "address",
          "name": "spender",
          "type": "address"
        },
        {
          "internalType": "uint256",
          "name": "tokenID",
          "type": "uint256"
        }
      ],
      "name": "approve",
      "outputs": [],
      "stateMutability": "nonpayable",
      "type": "function"
    },
    {
      "inputs": [
        {
          "internalType": "address",
          "name": "owner",
          "type": "address"
        }
      ],
      "name": "balanceOf",
      "outputs": [
        {
          "internalType": "uint256",
          "name": "",
          "type": "uint256"
        }
      ],
      "stateMutability": "view",
      "type": "function"
    },
    {
      "inputs": [
        {
          "internalType": "uint256",
          "name": "tokenID",
          "type": "uint256"
        }
      ],
      "name": "burn",
      "outputs": [],
      "stateMutability": "nonpayable",
      "type": "function"
    },
    {
      "inputs": [
        {
          "internalType": "uint256",
          "name": "tokenID",
          "type": "uint256"
        }
      ],
      "name": "buy",
      "outputs": [],
      "stateMutability": "payable",
      "type": "function"
    },
    {
      "inputs": [],
      "name": "defaultPrice",
      "outputs": [
        {
          "internalType": "uint256",
          "name": "",
          "type": "uint256"
        }
      ],
      "stateMutability": "view",
      "type": "function"
    },
    {
      "inputs": [
        {
          "internalType": "uint256",
          "name": "tokenID",
          "type": "uint256"
        }
      ],
      "name": "getApproved",
      "outputs": [
        {
          "internalType": "address",
          "name": "",
          "type": "address"
        }
      ],
      "stateMutability": "view",
      "type": "function"
    },
    {
      "inputs": [],
      "name": "getTemplate",
      "outputs": [
        {
          "internalType": "string",
          "name": "",
          "type": "string"
        }
      ],
      "stateMutability": "view",
      "type": "function"
    },
    {
      "inputs": [],
      "name": "getVersion",
      "outputs": [
        {
          "internalType": "uint256",
          "name": "",
          "type": "uint256"
        }
      ],
      "stateMutability": "view",
      "type": "function"
    },
    {
      "inputs": [
        {
          "internalType": "string",
          "name": "name_",
          "type": "string"
        },
        {
          "internalType": "string",
          "name": "symbol_",
          "type": "string"
        },
        {
          "internalType": "address",
          "name": "owner_",
          "type": "address"
        },
        {
          "internalType": "bool[]",
          "name": "options",
          "type": "bool[]"
        }
      ],
      "name": "initialize",
      "outputs": [],
      "stateMutability": "nonpayable",
      "type": "function"
    },
    {
      "inputs": [
        {
          "internalType": "address",
          "name": "owner",
          "type": "address"
        },
        {
          "internalType": "address",
          "name": "operator",
          "type": "address"
        }
      ],
      "name": "isApprovedForAll",
      "outputs": [
        {
          "internalType": "bool",
          "name": "",
          "type": "bool"
        }
      ],
      "stateMutability": "view",
      "type": "function"
    },
    {
      "inputs": [
        {
          "internalType": "address",
          "name": "minter",
          "type": "address"
        },
        {
          "internalType": "string",
          "name": "tokenURI",
          "type": "string"
        },
        {
          "internalType": "uint256",
          "name": "price",
          "type": "uint256"
        },
        {
          "internalType": "address",
          "name": "receiver",
          "type": "address"
        },
        {
          "internalType": "uint96",
          "name": "fee",
          "type": "uint96"
        }
      ],
      "name": "mint",
      "outputs": [
        {
          "internalType": "uint256",
          "name": "tokenID",
          "type": "uint256"
        }
      ],
      "stateMutability": "payable",
      "type": "function"
    },
    {
      "inputs": [
        {
          "internalType": "address",
          "name": "minter",
          "type": "address"
        },
        {
          "internalType": "string",
          "name": "tokenURI",
          "type": "string"
        }
      ],
      "name": "mint",
      "outputs": [
        {
          "internalType": "uint256",
          "name": "tokenID",
          "type": "uint256"
        }
      ],
      "stateMutability": "nonpayable",
      "type": "function"
    },
    {
      "inputs": [
        {
          "internalType": "string",
          "name": "tokenURI",
          "type": "string"
        }
      ],
      "name": "mint",
      "outputs": [
        {
          "internalType": "uint256",
          "name": "tokenID",
          "type": "uint256"
        }
      ],
      "stateMutability": "nonpayable",
      "type": "function"
    },
    {
      "inputs": [],
      "name": "name",
      "outputs": [
        {
          "internalType": "string",
          "name": "",
          "type": "string"
        }
      ],
      "stateMutability": "view",
      "type": "function"
    },
    {
      "inputs": [],
      "name": "open",
      "outputs": [
        {
          "internalType": "bool",
          "name": "",
          "type": "bool"
        }
      ],
      "stateMutability": "view",
      "type": "function"
    },
    {
      "inputs": [],
      "name": "owner",
      "outputs": [
        {
          "internalType": "address",
          "name": "",
          "type": "address"
        }
      ],
      "stateMutability": "view",
      "type": "function"
    },
    {
      "inputs": [
        {
          "internalType": "uint256",
          "name": "tokenID",
          "type": "uint256"
        }
      ],
      "name": "ownerOf",
      "outputs": [
        {
          "internalType": "address",
          "name": "owner",
          "type": "address"
        }
      ],
      "stateMutability": "view",
      "type": "function"
    },
    {
      "inputs": [],
      "name": "paused",
      "outputs": [
        {
          "internalType": "bool",
          "name": "",
          "type": "bool"
        }
      ],
      "stateMutability": "view",
      "type": "function"
    },
    {
      "inputs": [
        {
          "internalType": "uint256",
          "name": "tokenID",
          "type": "uint256"
        },
        {
          "internalType": "uint256",
          "name": "price",
          "type": "uint256"
        }
      ],
      "name": "royaltyInfo",
      "outputs": [
        {
          "internalType": "address",
          "name": "receiver",
          "type": "address"
        },
        {
          "internalType": "uint256",
          "name": "royaltyAmount",
          "type": "uint256"
        }
      ],
      "stateMutability": "view",
      "type": "function"
    },
    {
      "inputs": [
        {
          "internalType": "address",
          "name": "from",
          "type": "address"
        },
        {
          "internalType": "address",
          "name": "to",
          "type": "address"
        },
        {
          "internalType": "uint256",
          "name": "tokenID",
          "type": "uint256"
        }
      ],
      "name": "safeTransferFrom",
      "outputs": [],
      "stateMutability": "payable",
      "type": "function"
    },
    {
      "inputs": [
        {
          "internalType": "address",
          "name": "from",
          "type": "address"
        },
        {
          "internalType": "address",
          "name": "to",
          "type": "address"
        },
        {
          "internalType": "uint256",
          "name": "tokenID",
          "type": "uint256"
        },
        {
          "internalType": "bytes",
          "name": "data",
          "type": "bytes"
        }
      ],
      "name": "safeTransferFrom",
      "outputs": [],
      "stateMutability": "payable",
      "type": "function"
    },
    {
      "inputs": [
        {
          "internalType": "address",
          "name": "operator",
          "type": "address"
        },
        {
          "internalType": "bool",
          "name": "approved",
          "type": "bool"
        }
      ],
      "name": "setApprovalForAll",
      "outputs": [],
      "stateMutability": "nonpayable",
      "type": "function"
    },
    {
      "inputs": [
        {
          "internalType": "uint256",
          "name": "price",
          "type": "uint256"
        }
      ],
      "name": "setDefaultPrice",
      "outputs": [],
      "stateMutability": "nonpayable",
      "type": "function"
    },
    {
      "inputs": [
        {
          "internalType": "address",
          "name": "receiver",
          "type": "address"
        },
        {
          "internalType": "uint96",
          "name": "fee",
          "type": "uint96"
        }
      ],
      "name": "setDefaultRoyalty",
      "outputs": [],
      "stateMutability": "nonpayable",
      "type": "function"
    },
    {
      "inputs": [
        {
          "internalType": "uint256",
          "name": "tokenID",
          "type": "uint256"
        }
      ],
      "name": "setTokenPrice",
      "outputs": [],
      "stateMutability": "nonpayable",
      "type": "function"
    },
    {
      "inputs": [
        {
          "internalType": "uint256",
          "name": "tokenID",
          "type": "uint256"
        },
        {
          "internalType": "uint256",
          "name": "price",
          "type": "uint256"
        }
      ],
      "name": "setTokenPrice",
      "outputs": [],
      "stateMutability": "nonpayable",
      "type": "function"
    },
    {
      "inputs": [
        {
          "internalType": "uint256",
          "name": "tokenID",
          "type": "uint256"
        },
        {
          "internalType": "address",
          "name": "receiver",
          "type": "address"
        },
        {
          "internalType": "uint96",
          "name": "fee",
          "type": "uint96"
        }
      ],
      "name": "setTokenRoyalty",
      "outputs": [],
      "stateMutability": "nonpayable",
      "type": "function"
    },
    {
      "inputs": [
        {
          "internalType": "bytes4",
          "name": "interfaceId",
          "type": "bytes4"
        }
      ],
      "name": "supportsInterface",
      "outputs": [
        {
          "internalType": "bool",
          "name": "",
          "type": "bool"
        }
      ],
      "stateMutability": "view",
      "type": "function"
    },
    {
      "inputs": [],
      "name": "symbol",
      "outputs": [
        {
          "internalType": "string",
          "name": "",
          "type": "string"
        }
      ],
      "stateMutability": "view",
      "type": "function"
    },
    {
      "inputs": [],
      "name": "togglePause",
      "outputs": [],
      "stateMutability": "nonpayable",
      "type": "function"
    },
    {
      "inputs": [
        {
          "internalType": "uint256",
          "name": "index",
          "type": "uint256"
        }
      ],
      "name": "tokenByIndex",
      "outputs": [
        {
          "internalType": "uint256",
          "name": "",
          "type": "uint256"
        }
      ],
      "stateMutability": "view",
      "type": "function"
    },
    {
      "inputs": [],
      "name": "tokenIdNext",
      "outputs": [
        {
          "internalType": "uint256",
          "name": "",
          "type": "uint256"
        }
      ],
      "stateMutability": "view",
      "type": "function"
    },
    {
      "inputs": [
        {
          "internalType": "address",
          "name": "owner",
          "type": "address"
        },
        {
          "internalType": "uint256",
          "name": "index",
          "type": "uint256"
        }
      ],
      "name": "tokenOfOwnerByIndex",
      "outputs": [
        {
          "internalType": "uint256",
          "name": "",
          "type": "uint256"
        }
      ],
      "stateMutability": "view",
      "type": "function"
    },
    {
      "inputs": [
        {
          "internalType": "uint256",
          "name": "",
          "type": "uint256"
        }
      ],
      "name": "tokenPrice",
      "outputs": [
        {
          "internalType": "uint256",
          "name": "",
          "type": "uint256"
        }
      ],
      "stateMutability": "view",
      "type": "function"
    },
    {
      "inputs": [
        {
          "internalType": "uint256",
          "name": "tokenID",
          "type": "uint256"
        }
      ],
      "name": "tokenURI",
      "outputs": [
        {
          "internalType": "string",
          "name": "",
          "type": "string"
        }
      ],
      "stateMutability": "view",
      "type": "function"
    },
    {
      "inputs": [],
      "name": "totalSupply",
      "outputs": [
        {
          "internalType": "uint256",
          "name": "",
          "type": "uint256"
        }
      ],
      "stateMutability": "view",
      "type": "function"
    },
    {
      "inputs": [
        {
          "internalType": "address",
          "name": "from",
          "type": "address"
        },
        {
          "internalType": "address",
          "name": "to",
          "type": "address"
        },
        {
          "internalType": "uint256",
          "name": "tokenID",
          "type": "uint256"
        }
      ],
      "name": "transferFrom",
      "outputs": [],
      "stateMutability": "payable",
      "type": "function"
    },
    {
      "inputs": [
        {
          "internalType": "address",
          "name": "newOwner",
          "type": "address"
        }
      ],
      "name": "transferOwnership",
      "outputs": [],
      "stateMutability": "nonpayable",
      "type": "function"
    },
    {
      "inputs": [
        {
          "internalType": "address",
          "name": "token",
          "type": "address"
        }
      ],
      "name": "withdraw",
      "outputs": [],
      "stateMutability": "nonpayable",
      "type": "function"
    },
    {
      "stateMutability": "payable",
      "type": "receive"
    }
  ],
  "transactionHash": "0xe7c9f28aaf40927bd590689acb3d270213469c92a5ebb62d7e1a9adfa26dc94b",
  "args": [],
  "numDeployments": 16,
  "solcInputHash": "3aa988bbdb276ef28bb44ea12d95b9ad",
  "bytecode": "0x6080604052600160145534801561001557600080fd5b50612ee8806100256000396000f3fe6080604052600436106102345760003560e01c80636352211e1161012e578063c87b56dd116100ab578063e69e04b31161006f578063e69e04b314610660578063e985e9c514610676578063eb685c47146106bf578063f2fde38b146106df578063fcfff16f146106ff57600080fd5b8063c87b56dd146105c0578063d0def521146105e0578063d4ddce8a14610600578063d85d3d271461062d578063d96a094a1461064d57600080fd5b80638da5cb5b116100f25780638da5cb5b1461054057806395d89b4114610563578063a22cb46514610578578063b88d4fde14610598578063c4ae3168146105ab57600080fd5b80636352211e146104aa5780636a61e5fc146104ca5780636d3c7ec5146104ea57806370a082311461050a5780638bbf58b31461052a57600080fd5b80632f745c59116101bc5780634f6ccce7116101805780634f6ccce71461041257806351cff8d91461043257806354e10b48146104525780635944c753146104725780635c975abb1461049257600080fd5b80632f745c5914610397578063321c48f2146103b757806342842e0e146103cc57806342966c68146103df5780634472167b146103ff57600080fd5b8063095ea7b311610203578063095ea7b3146102f15780630d8e6e2c1461031157806318160ddd1461033057806323b872dd146103455780632a55205a1461035857600080fd5b806301ffc9a71461024057806304634d8d1461027557806306fdde0314610297578063081812fc146102b957600080fd5b3661023b57005b600080fd5b34801561024c57600080fd5b5061026061025b3660046126ff565b610719565b60405190151581526020015b60405180910390f35b34801561028157600080fd5b5061029561029036600461274a565b61075e565b005b3480156102a357600080fd5b506102ac61085e565b60405161026c91906127ca565b3480156102c557600080fd5b506102d96102d43660046127dd565b6108f0565b6040516001600160a01b03909116815260200161026c565b3480156102fd57600080fd5b5061029561030c3660046127f6565b610963565b34801561031d57600080fd5b506013545b60405190815260200161026c565b34801561033c57600080fd5b50600854610322565b610295610353366004612820565b610a27565b34801561036457600080fd5b5061037861037336600461285c565b610a37565b604080516001600160a01b03909316835260208301919091520161026c565b3480156103a357600080fd5b506103226103b23660046127f6565b610b05565b3480156103c357600080fd5b506102ac610b8c565b6102956103da366004612820565b610b9b565b3480156103eb57600080fd5b506102956103fa3660046127dd565b610bb6565b61032261040d36600461293d565b610bea565b34801561041e57600080fd5b5061032261042d3660046127dd565b610cda565b34801561043e57600080fd5b5061029561044d3660046129b6565b610d44565b34801561045e57600080fd5b5061029561046d3660046129df565b610f76565b34801561047e57600080fd5b5061029561048d366004612ae7565b610fbb565b34801561049e57600080fd5b5060115460ff16610260565b3480156104b657600080fd5b506102d96104c53660046127dd565b61104b565b3480156104d657600080fd5b506102956104e53660046127dd565b6110a8565b3480156104f657600080fd5b506102956105053660046127dd565b6110b4565b34801561051657600080fd5b506103226105253660046129b6565b611144565b34801561053657600080fd5b5061032260145481565b34801561054c57600080fd5b50600c5461010090046001600160a01b03166102d9565b34801561056f57600080fd5b506102ac6111af565b34801561058457600080fd5b50610295610593366004612b23565b6111be565b6102956105a6366004612b5a565b61122a565b3480156105b757600080fd5b50610295611288565b3480156105cc57600080fd5b506102ac6105db3660046127dd565b6112c9565b3480156105ec57600080fd5b506103226105fb366004612bd6565b61136b565b34801561060c57600080fd5b5061032261061b3660046127dd565b600f6020526000908152604090205481565b34801561063957600080fd5b50610322610648366004612c24565b6113e9565b61029561065b3660046127dd565b6113fa565b34801561066c57600080fd5b5061032260105481565b34801561068257600080fd5b50610260610691366004612c59565b6001600160a01b03918216600090815260036020908152604080832093909416825291909152205460ff1690565b3480156106cb57600080fd5b506102956106da36600461285c565b6115dc565b3480156106eb57600080fd5b506102956106fa3660046129b6565b611631565b34801561070b57600080fd5b506015546102609060ff1681565b60006001600160e01b0319821663ed5bd83160e01b148061074957506001600160e01b0319821662f7235960e21b145b80610758575061075882611669565b92915050565b600c5461010090046001600160a01b031633146107965760405162461bcd60e51b815260040161078d90612c83565b60405180910390fd5b6001600160601b0381166127108111156107ed5760405162461bcd60e51b8152602060048201526018602482015277526f79616c7479206665652065786365656420707269636560401b604482015260640161078d565b6040805180820182526001600160a01b0385168082526001600160601b0385166020928301819052600160a01b81028217600d558351918252918101919091527fa1edde4ed5c1392c90dccd8e051a4080b761850e49a24c77d826348a51e1f8dc91015b60405180910390a1505050565b60606005805461086d90612ca6565b80601f016020809104026020016040519081016040528092919081815260200182805461089990612ca6565b80156108e65780601f106108bb576101008083540402835291602001916108e6565b820191906000526020600020905b8154815290600101906020018083116108c957829003601f168201915b5050505050905090565b6000818152602081905260408120546001600160a01b03166109475760405162461bcd60e51b815260206004820152601060248201526f125b9d985b1a59081d1bdad95b88125160821b604482015260640161078d565b506000908152600260205260409020546001600160a01b031690565b61096d338261168e565b6109b95760405162461bcd60e51b815260206004820152601c60248201527f4e6f7420746f6b656e206f776e6572206e6f72206f70657261746f7200000000604482015260640161078d565b600081815260026020526040902080546001600160a01b0319166001600160a01b03841690811790915581906109ee8261104b565b6001600160a01b03167f8c5be1e5ebec7d5bd14f71427d1e84f3dd0314c0f7b2291e5b200ac8c7c3b92560405160405180910390a45050565b610a328383836116e9565b505050565b60008082600160801b8110610a5e5760405162461bcd60e51b815260040161078d90612ce1565b6000858152600e60209081526040918290208251808401909352546001600160a01b038116808452600160a01b9091046001600160601b031691830191909152610ad2575060408051808201909152600d546001600160a01b0381168252600160a01b90046001600160601b031660208201525b602081015161271090610aee906001600160601b031687612d1e565b610af89190612d3d565b9051969095509350505050565b6000610b1083611144565b8210610b4f5760405162461bcd60e51b815260206004820152600e60248201526d496e76616c696420696e6465782160901b604482015260640161078d565b6001600160a01b0383166000908152600960205260409020805483908110610b7957610b79612d5f565b9060005260206000200154905092915050565b60606012805461086d90612ca6565b610a328383836040518060200160405280600081525061191f565b80610bc13382611977565b610bdd5760405162461bcd60e51b815260040161078d90612d75565b610be6826119ae565b5050565b60155460009060ff1680610c0e5750600c546001600160a01b036101009091041633145b610c475760405162461bcd60e51b815260206004820152600a6024820152692737ba1036b4b73a32b960b11b604482015260640161078d565b60115460ff1615610c845760405162461bcd60e51b81526020600482015260076024820152665061757365642160c81b604482015260640161078d565b610c8e868661136b565b90508315610ca057610ca081856115dc565b6001600160a01b03831615801590610cc157506000826001600160601b0316115b15610cd157610cd1818484610fbb565b95945050505050565b6008546000908210610d1f5760405162461bcd60e51b815260206004820152600e60248201526d496e76616c696420696e6465782160901b604482015260640161078d565b60088281548110610d3257610d32612d5f565b90600052602060002001549050919050565b600c5461010090046001600160a01b03163314610d735760405162461bcd60e51b815260040161078d90612c83565b6001600160a01b0381163b15801590610e0557506040516301ffc9a760e01b81526336372b0760e01b60048201526001600160a01b038216906301ffc9a79060240160206040518083038186803b158015610dcd57600080fd5b505afa158015610de1573d6000803e3d6000fd5b505050506040513d601f19601f82011682018060405250810190610e059190612dac565b15610f4a576040516370a0823160e01b81523060048201526001600160a01b0382169063a9059cbb90339083906370a082319060240160206040518083038186803b158015610e5357600080fd5b505afa158015610e67573d6000803e3d6000fd5b505050506040513d601f19601f82011682018060405250810190610e8b9190612dc9565b6040516001600160e01b031960e085901b1681526001600160a01b0390921660048301526024820152604401602060405180830381600087803b158015610ed157600080fd5b505af1158015610ee5573d6000803e3d6000fd5b505050506040513d601f19601f82011682018060405250810190610f099190612dac565b610f475760405162461bcd60e51b815260206004820152600f60248201526e15da5d1a191c985dc819985a5b1959608a1b604482015260640161078d565b50565b60405133904780156108fc02916000818181858888f19350505050158015610be6573d6000803e3d6000fd5b610f818484846119b7565b80600081518110610f9457610f94612d5f565b6020026020010151601560006101000a81548160ff02191690831515021790555050505050565b82610fc63382611977565b610fe25760405162461bcd60e51b815260040161078d90612d75565b6001600160601b0382166127108111156110395760405162461bcd60e51b8152602060048201526018602482015277526f79616c7479206665652065786365656420707269636560401b604482015260640161078d565b6110448585856119f5565b5050505050565b6000818152602081905260409020546001600160a01b0316806110a35760405162461bcd60e51b815260206004820152601060248201526f125b9d985b1a59081d1bdad95b88125160821b604482015260640161078d565b919050565b610f47816010546115dc565b600c5461010090046001600160a01b031633146110e35760405162461bcd60e51b815260040161078d90612c83565b80600160801b81106111075760405162461bcd60e51b815260040161078d90612ce1565b60108290556040518281527f9f7a6492db3843bc01c0adb23cd27be964155c1d45c566f2ee32f28faf4eb605906020015b60405180910390a15050565b60006001600160a01b0382166111935760405162461bcd60e51b8152602060048201526014602482015273496e76616c6964207a65726f206164647265737360601b604482015260640161078d565b506001600160a01b031660009081526001602052604090205490565b60606006805461086d90612ca6565b3360008181526003602090815260408083206001600160a01b03871680855290835292819020805460ff191686151590811790915590519081529192917f17307eab39ab6107e8899845ad3d59bd9653f200f220920489ca2b5937696c31910160405180910390a35050565b6112358484846116e9565b61124184848484611a7a565b6112825760405162461bcd60e51b8152602060048201526012602482015271139bdd08115490cdcc8c549958d95a5d995960721b604482015260640161078d565b50505050565b600c5461010090046001600160a01b031633146112b75760405162461bcd60e51b815260040161078d90612c83565b6011546112c79060ff1615611b28565b565b60008181526007602052604090208054606091906112e690612ca6565b80601f016020809104026020016040519081016040528092919081815260200182805461131290612ca6565b801561135f5780601f106113345761010080835404028352916020019161135f565b820191906000526020600020905b81548152906001019060200180831161134257829003601f168201915b50505050509050919050565b60155460009060ff168061138f5750600c546001600160a01b036101009091041633145b6113c85760405162461bcd60e51b815260206004820152600a6024820152692737ba1036b4b73a32b960b11b604482015260640161078d565b601480549060006113d883612de2565b919050559050610758838383611b6d565b600061075833836000806000610bea565b6000818152602081905260409020546001600160a01b03166114535760405162461bcd60e51b81526020600482015260126024820152714e465420646f65736e27742065786973747360701b604482015260640161078d565b6000818152600f60205260409020548061149d5760405162461bcd60e51b815260206004820152600b60248201526a139bdd081d1bc81cd95b1b60aa1b604482015260640161078d565b803410156114e05760405162461bcd60e51b815260206004820152601060248201526f4e6f7420656e6f7567682066756e647360801b604482015260640161078d565b60006114eb8361104b565b90506001600160a01b03811661150357611503612dfd565b6001600160a01b0381163314156115535760405162461bcd60e51b8152602060048201526014602482015273416c726561647920746f6b656e206f776e65722160601b604482015260640161078d565b604051635c46a7ef60e11b81526001600160a01b0382166004820152336024820152604481018490526080606482015260006084820152309063b88d4fde90349060a4016000604051808303818588803b1580156115b057600080fd5b505af11580156115c4573d6000803e3d6000fd5b50505060009485525050600f60205250506040812055565b816115e73382611977565b6116035760405162461bcd60e51b815260040161078d90612d75565b81600160801b81106116275760405162461bcd60e51b815260040161078d90612ce1565b6112828484611b78565b600c5461010090046001600160a01b031633146116605760405162461bcd60e51b815260040161078d90612c83565b610f4781611bc0565b60006001600160e01b03198216630c38761960e41b1480610758575061075882611c1a565b60008061169a8361104b565b9050836001600160a01b0316816001600160a01b031614806116e157506001600160a01b0380821660009081526003602090815260408083209388168352929052205460ff165b949350505050565b806116f43382611977565b6117105760405162461bcd60e51b815260040161078d90612d75565b6117198261104b565b6001600160a01b0316846001600160a01b03161461176a5760405162461bcd60e51b815260206004820152600e60248201526d233937b6903737ba1037bbb732b960911b604482015260640161078d565b6001600160a01b0384166117c05760405162461bcd60e51b815260206004820152601a60248201527f5472616e736665722066726f6d207a65726f2061646472657373000000000000604482015260640161078d565b6001600160a01b0383166118165760405162461bcd60e51b815260206004820152601860248201527f5472616e7366657220746f207a65726f20616464726573730000000000000000604482015260640161078d565b611821848484611c3f565b600082815260026020526040902080546001600160a01b03191690556001600160a01b03848116908416146118d8576001600160a01b0384166000908152600160208190526040822080549192909161187b908490612e13565b90915550506001600160a01b038316600090815260016020819052604082208054919290916118ab908490612e2a565b9091555050600082815260208190526040902080546001600160a01b0319166001600160a01b0385161790555b81836001600160a01b0316856001600160a01b03167fddf252ad1be2c89b69c2b068fc378daa952ba7f163c4a11628f55a4df523b3ef60405160405180910390a450505050565b61192a8484846116e9565b61193684848484611a7a565b6112825760405162461bcd60e51b81526020600482015260126024820152712737ba1022a9219b9918a932b1b2b4bb32b960711b604482015260640161078d565b6000611983838361168e565b806119a75750826001600160a01b031661199c836108f0565b6001600160a01b0316145b9392505050565b610f4781611c4a565b6119e2604051806040016040528060088152602001674f70656e4e46547360c01b8152506004611c6f565b6119ec8383611cdd565b610a3281611d51565b6040805180820182526001600160a01b038481168083526001600160601b03858116602080860182815260008b8152600e835288902096519051909316600160a01b029290941691909117909355835187815291820152918201527f2595213009f64247e2789cf9981bcc53ee736a6aa52042a651aa1549ae6fff6190606001610851565b60006001600160a01b0384163b1580610cd15750604051630a85bd0160e11b808252906001600160a01b0386169063150b7a0290611ac29033908a9089908990600401612e42565b602060405180830381600087803b158015611adc57600080fd5b505af1158015611af0573d6000803e3d6000fd5b505050506040513d601f19601f82011682018060405250810190611b149190612e7f565b6001600160e01b0319161495945050505050565b6011805460ff1916821515908117909155604051339160ff161515907f8b265f737315073a655a642868ed756ba7e3b6c391b06dbbf70370aab7f7f06890600090a350565b610a32838383611dae565b6000828152600f602090815260409182902083905581518481529081018390527f2f8c61aa79deaa9c961d54f640a154df4960a56a5989d25df0148be783dc3f5b9101611138565b600c80546001600160a01b03838116610100818102610100600160a81b031985161790945560405193909204169182907f8be0079c531659141344cd1fd0a4f28419497f9722a3daafe3b4186f6b6457e090600090a35050565b60006001600160e01b03198216631fc9136f60e11b1480610758575061075882611dde565b610a32838383611e03565b6000818152600e60209081526040808320839055600f909152812055610f4781611e3c565b601154610100900460ff1615611cb45760405162461bcd60e51b815260206004820152600a6024820152694f6e6c79206f6e63652160b01b604482015260640161078d565b6011805461ff0019166101001790558151611cd690601290602085019061261a565b5060135550565b60045460ff1615611d1d5760405162461bcd60e51b815260206004820152600a6024820152694f6e6c79206f6e63652160b01b604482015260640161078d565b6004805460ff191660011790558151611d3d90600590602085019061261a565b508051610a3290600690602084019061261a565b600c5460ff1615611d985760405162461bcd60e51b8152602060048201526011602482015270125b9a5d08185b1c9958591e4818d85b1b607a1b604482015260640161078d565b600c805460ff19166001179055610f4781611bc0565b611db9838383611f07565b610a328160105485611dd9600c546001600160a01b036101009091041690565b611f60565b60006001600160e01b031982166398396bd360e01b1480610758575061075882612139565b6000818152600f6020526040902054611e2290829084611dd98361104b565b6000818152600f6020526040812055610a3283838361215e565b6000611e478261104b565b9050611e538183612172565b6000828152600b6020526040812054600854909190611e7490600190612e13565b9050600060088281548110611e8b57611e8b612d5f565b6000918252602080832090910154808352600b909152604080832086905587835282209190915560088054919250829185908110611ecb57611ecb612d5f565b6000918252602090912001556008805480611ee857611ee8612e9c565b6001900381819060005260206000200160009055905561104485612280565b611f1183826122a0565b600880546000838152600b60205260408120829055600182018355919091527ff3f7a9fe364faab93b216da50a3214154f22a0a2b415b23a84c8169e8b636ee301819055610a328383836122de565b3483156120f55783811015611faa5760405162461bcd60e51b815260206004820152601060248201526f4e6f7420656e6f7567682066756e647360801b604482015260640161078d565b600080611fb78787610a37565b9150915085811115611fff5760405162461bcd60e51b8152602060048201526011602482015270496e76616c696420726f79616c7469657360781b604482015260640161078d565b600061200b8288612e13565b90508015612057576040516001600160a01b0386169082156108fc029083906000818181858888f19350505050158015612049573d6000803e3d6000fd5b506120548185612e13565b93505b81156120a1576040516001600160a01b0384169083156108fc029084906000818181858888f19350505050158015612093573d6000803e3d6000fd5b5061209e8285612e13565b93505b60408051898152602081018990526001600160a01b03888116828401528716606082015290517f3914c8962f5e7241220aedc853d15ae456e87f9f156489c7d0d1f682e69f98ce9181900360800190a15050505b8015611044576040516001600160a01b0384169082156108fc029083906000818181858888f19350505050158015612131573d6000803e3d6000fd5b505050505050565b60006001600160e01b03198216638351879960e01b1480610758575061075882612309565b6121688382612172565b610a3282826122a0565b6000818152600a602052604081205490600161218d85611144565b6121979190612e13565b905080821461222e576001600160a01b03841660009081526009602052604081208054839081106121ca576121ca612d5f565b906000526020600020015490508060096000876001600160a01b03166001600160a01b03168152602001908152602001600020848154811061220e5761220e612d5f565b6000918252602080832090910192909255918252600a9052604090208290555b6000838152600a602090815260408083208390556001600160a01b03871683526009909152902080548061226457612264612e9c565b6001900381819060005260206000200160009055905550505050565b60008181526007602052604081206122979161269e565b610f478161232e565b6001600160a01b0390911660009081526009602081815260408084208054868652600a84529185208290559282526001810183559183529091200155565b600081815260076020908152604090912083516122fd9285019061261a565b50610a328383836123fa565b600063152a902d60e11b6001600160e01b031983161480610758575061075882612585565b60006123398261104b565b6001600160a01b03811660009081526001602052604090205490915061236157612361612dfd565b6001600160a01b0381166000908152600160208190526040822080549192909161238c908490612e13565b9091555050600082815260026020908152604080832080546001600160a01b0319908116909155918390528083208054909216909155518391906001600160a01b038416907fddf252ad1be2c89b69c2b068fc378daa952ba7f163c4a11628f55a4df523b3ef908390a45050565b6001600160a01b0383166124475760405162461bcd60e51b81526020600482015260146024820152734d696e7420746f207a65726f206164647265737360601b604482015260640161078d565b6000818152602081905260409020546001600160a01b0316156124a35760405162461bcd60e51b8152602060048201526014602482015273151bdad95b88185b1c9958591e481b5a5b9d195960621b604482015260640161078d565b6001600160a01b038316600090815260016020819052604082208054919290916124ce908490612e2a565b909155505060008181526020819052604080822080546001600160a01b0319166001600160a01b03871690811790915590518392907fddf252ad1be2c89b69c2b068fc378daa952ba7f163c4a11628f55a4df523b3ef908290a46125446000848360405180602001604052806000815250611a7a565b610a325760405162461bcd60e51b8152602060048201526012602482015271139bdd08115490cdcc8c549958d95a5d995960721b604482015260640161078d565b60006307f5828d60e41b6001600160e01b031983161480610758575061075882600063780e9d6360e01b6001600160e01b0319831614806107585750610758826000635b5e139f60e01b6001600160e01b03198316148061075857506107588260006380ac58cd60e01b6001600160e01b03198316148061075857506001600160e01b031982166301ffc9a760e01b14610758565b82805461262690612ca6565b90600052602060002090601f016020900481019282612648576000855561268e565b82601f1061266157805160ff191683800117855561268e565b8280016001018555821561268e579182015b8281111561268e578251825591602001919060010190612673565b5061269a9291506126d4565b5090565b5080546126aa90612ca6565b6000825580601f106126ba575050565b601f016020900490600052602060002090810190610f4791905b5b8082111561269a57600081556001016126d5565b6001600160e01b031981168114610f4757600080fd5b60006020828403121561271157600080fd5b81356119a7816126e9565b80356001600160a01b03811681146110a357600080fd5b80356001600160601b03811681146110a357600080fd5b6000806040838503121561275d57600080fd5b6127668361271c565b915061277460208401612733565b90509250929050565b6000815180845260005b818110156127a357602081850181015186830182015201612787565b818111156127b5576000602083870101525b50601f01601f19169290920160200192915050565b6020815260006119a7602083018461277d565b6000602082840312156127ef57600080fd5b5035919050565b6000806040838503121561280957600080fd5b6128128361271c565b946020939093013593505050565b60008060006060848603121561283557600080fd5b61283e8461271c565b925061284c6020850161271c565b9150604084013590509250925092565b6000806040838503121561286f57600080fd5b50508035926020909101359150565b634e487b7160e01b600052604160045260246000fd5b604051601f8201601f1916810167ffffffffffffffff811182821017156128bd576128bd61287e565b604052919050565b600067ffffffffffffffff8311156128df576128df61287e565b6128f2601f8401601f1916602001612894565b905082815283838301111561290657600080fd5b828260208301376000602084830101529392505050565b600082601f83011261292e57600080fd5b6119a7838335602085016128c5565b600080600080600060a0868803121561295557600080fd5b61295e8661271c565b9450602086013567ffffffffffffffff81111561297a57600080fd5b6129868882890161291d565b9450506040860135925061299c6060870161271c565b91506129aa60808701612733565b90509295509295909350565b6000602082840312156129c857600080fd5b6119a78261271c565b8015158114610f4757600080fd5b600080600080608085870312156129f557600080fd5b843567ffffffffffffffff80821115612a0d57600080fd5b612a198883890161291d565b9550602091508187013581811115612a3057600080fd5b612a3c89828a0161291d565b955050612a4b6040880161271c565b9350606087013581811115612a5f57600080fd5b8701601f81018913612a7057600080fd5b803582811115612a8257612a8261287e565b8060051b9250612a93848401612894565b818152928201840192848101908b851115612aad57600080fd5b928501925b84841015612ad75783359250612ac7836129d1565b8282529285019290850190612ab2565b989b979a50959850505050505050565b600080600060608486031215612afc57600080fd5b83359250612b0c6020850161271c565b9150612b1a60408501612733565b90509250925092565b60008060408385031215612b3657600080fd5b612b3f8361271c565b91506020830135612b4f816129d1565b809150509250929050565b60008060008060808587031215612b7057600080fd5b612b798561271c565b9350612b876020860161271c565b925060408501359150606085013567ffffffffffffffff811115612baa57600080fd5b8501601f81018713612bbb57600080fd5b612bca878235602084016128c5565b91505092959194509250565b60008060408385031215612be957600080fd5b612bf28361271c565b9150602083013567ffffffffffffffff811115612c0e57600080fd5b612c1a8582860161291d565b9150509250929050565b600060208284031215612c3657600080fd5b813567ffffffffffffffff811115612c4d57600080fd5b6116e18482850161291d565b60008060408385031215612c6c57600080fd5b612c758361271c565b91506127746020840161271c565b6020808252600990820152682737ba1037bbb732b960b91b604082015260600190565b600181811c90821680612cba57607f821691505b60208210811415612cdb57634e487b7160e01b600052602260045260246000fd5b50919050565b6020808252600d908201526c546f6f20657870656e7369766560981b604082015260600190565b634e487b7160e01b600052601160045260246000fd5b6000816000190483118215151615612d3857612d38612d08565b500290565b600082612d5a57634e487b7160e01b600052601260045260246000fd5b500490565b634e487b7160e01b600052603260045260246000fd5b6020808252601c908201527f4e6f7420746f6b656e206f776e6572206e6f7220617070726f76656400000000604082015260600190565b600060208284031215612dbe57600080fd5b81516119a7816129d1565b600060208284031215612ddb57600080fd5b5051919050565b6000600019821415612df657612df6612d08565b5060010190565b634e487b7160e01b600052600160045260246000fd5b600082821015612e2557612e25612d08565b500390565b60008219821115612e3d57612e3d612d08565b500190565b6001600160a01b0385811682528416602082015260408101839052608060608201819052600090612e759083018461277d565b9695505050505050565b600060208284031215612e9157600080fd5b81516119a7816126e9565b634e487b7160e01b600052603160045260246000fdfea26469706673582212207f7c995c707574b6801661c773792f09b179add695b021b26334f6d1c9f414cf64736f6c63430008090033",
  "devdoc": {
    "kind": "dev",
    "methods": {
      "burn(uint256)": {
        "params": {
          "tokenID": "tokenID of NFT to burn"
        }
      },
      "setDefaultRoyalty(address,uint96)": {
        "params": {
          "fee": ": fee Numerator, less than 10000",
          "receiver": ": address of the royalty receiver, or address(0) to reset"
        }
      },
      "setTokenRoyalty(uint256,address,uint96)": {
        "params": {
          "fee": ": fee Numerator, less than 10000",
          "receiver": ": address of the royalty receiver, or address(0) to reset",
          "tokenID": ": token ID"
        }
      },
      "supportsInterface(bytes4)": {
        "params": {
          "interfaceId": "interfaceId to test"
        }
      }
    },
    "title": "OpenNFTs smartcontract",
    "version": 1
  },
  "userdoc": {
    "kind": "user",
    "methods": {
      "burn(uint256)": {
        "notice": "burn NFT"
      },
      "open()": {
        "notice": "Mint NFT allowed to everyone or only collection owner"
      },
      "setDefaultRoyalty(address,uint96)": {
        "notice": "SET default royalty configuration"
      },
      "setTokenRoyalty(uint256,address,uint96)": {
        "notice": "SET token royalty configuration"
      },
      "supportsInterface(bytes4)": {
        "notice": "test if this interface is supported"
      },
      "tokenIdNext()": {
        "notice": "tokenID of next minted NFT"
      },
      "withdraw(address)": {
        "notice": "withdraw token otherwise eth"
      }
    },
    "version": 1
  },
  "storageLayout": {
    "storage": [
      {
        "astId": 6766,
        "contract": "contracts/next/OpenNFTsV4.sol:OpenNFTsV4",
        "label": "_owners",
        "offset": 0,
        "slot": "0",
        "type": "t_mapping(t_uint256,t_address)"
      },
      {
        "astId": 6770,
        "contract": "contracts/next/OpenNFTsV4.sol:OpenNFTsV4",
        "label": "_balances",
        "offset": 0,
        "slot": "1",
        "type": "t_mapping(t_address,t_uint256)"
      },
      {
        "astId": 6774,
        "contract": "contracts/next/OpenNFTsV4.sol:OpenNFTsV4",
        "label": "_tokenApprovals",
        "offset": 0,
        "slot": "2",
        "type": "t_mapping(t_uint256,t_address)"
      },
      {
        "astId": 6780,
        "contract": "contracts/next/OpenNFTsV4.sol:OpenNFTsV4",
        "label": "_operatorApprovals",
        "offset": 0,
        "slot": "3",
        "type": "t_mapping(t_address,t_mapping(t_address,t_bool))"
      },
      {
        "astId": 7697,
        "contract": "contracts/next/OpenNFTsV4.sol:OpenNFTsV4",
        "label": "_openERC721MetadataInitialized",
        "offset": 0,
        "slot": "4",
        "type": "t_bool"
      },
      {
        "astId": 7699,
        "contract": "contracts/next/OpenNFTsV4.sol:OpenNFTsV4",
        "label": "_name",
        "offset": 0,
        "slot": "5",
        "type": "t_string_storage"
      },
      {
        "astId": 7701,
        "contract": "contracts/next/OpenNFTsV4.sol:OpenNFTsV4",
        "label": "_symbol",
        "offset": 0,
        "slot": "6",
        "type": "t_string_storage"
      },
      {
        "astId": 7705,
        "contract": "contracts/next/OpenNFTsV4.sol:OpenNFTsV4",
        "label": "_tokenURIs",
        "offset": 0,
        "slot": "7",
        "type": "t_mapping(t_uint256,t_string_storage)"
      },
      {
        "astId": 7374,
        "contract": "contracts/next/OpenNFTsV4.sol:OpenNFTsV4",
        "label": "_allTokens",
        "offset": 0,
        "slot": "8",
        "type": "t_array(t_uint256)dyn_storage"
      },
      {
        "astId": 7379,
        "contract": "contracts/next/OpenNFTsV4.sol:OpenNFTsV4",
        "label": "_ownedTokens",
        "offset": 0,
        "slot": "9",
        "type": "t_mapping(t_address,t_array(t_uint256)dyn_storage)"
      },
      {
        "astId": 7383,
        "contract": "contracts/next/OpenNFTsV4.sol:OpenNFTsV4",
        "label": "_ownedTokensIndex",
        "offset": 0,
        "slot": "10",
        "type": "t_mapping(t_uint256,t_uint256)"
      },
      {
        "astId": 7387,
        "contract": "contracts/next/OpenNFTsV4.sol:OpenNFTsV4",
        "label": "_allTokensIndex",
        "offset": 0,
        "slot": "11",
        "type": "t_mapping(t_uint256,t_uint256)"
      },
      {
        "astId": 6531,
        "contract": "contracts/next/OpenNFTsV4.sol:OpenNFTsV4",
        "label": "_openERC173Initialized",
        "offset": 0,
        "slot": "12",
        "type": "t_bool"
      },
      {
        "astId": 6533,
        "contract": "contracts/next/OpenNFTsV4.sol:OpenNFTsV4",
        "label": "_owner",
        "offset": 1,
        "slot": "12",
        "type": "t_address"
      },
      {
        "astId": 6645,
        "contract": "contracts/next/OpenNFTsV4.sol:OpenNFTsV4",
        "label": "_royaltyInfo",
        "offset": 0,
        "slot": "13",
        "type": "t_struct(RoyaltyInfo)6642_storage"
      },
      {
        "astId": 6650,
        "contract": "contracts/next/OpenNFTsV4.sol:OpenNFTsV4",
        "label": "_tokenRoyaltyInfo",
        "offset": 0,
        "slot": "14",
        "type": "t_mapping(t_uint256,t_struct(RoyaltyInfo)6642_storage)"
      },
      {
        "astId": 7962,
        "contract": "contracts/next/OpenNFTsV4.sol:OpenNFTsV4",
        "label": "tokenPrice",
        "offset": 0,
        "slot": "15",
        "type": "t_mapping(t_uint256,t_uint256)"
      },
      {
        "astId": 7964,
        "contract": "contracts/next/OpenNFTsV4.sol:OpenNFTsV4",
        "label": "defaultPrice",
        "offset": 0,
        "slot": "16",
        "type": "t_uint256"
      },
      {
        "astId": 8619,
        "contract": "contracts/next/OpenNFTsV4.sol:OpenNFTsV4",
        "label": "_paused",
        "offset": 0,
        "slot": "17",
        "type": "t_bool"
      },
      {
        "astId": 7870,
        "contract": "contracts/next/OpenNFTsV4.sol:OpenNFTsV4",
        "label": "_openCloneableInitialized",
        "offset": 1,
        "slot": "17",
        "type": "t_bool"
      },
      {
        "astId": 7872,
        "contract": "contracts/next/OpenNFTsV4.sol:OpenNFTsV4",
        "label": "_template",
        "offset": 0,
        "slot": "18",
        "type": "t_string_storage"
      },
      {
        "astId": 7874,
        "contract": "contracts/next/OpenNFTsV4.sol:OpenNFTsV4",
        "label": "_version",
        "offset": 0,
        "slot": "19",
        "type": "t_uint256"
      },
      {
        "astId": 8370,
        "contract": "contracts/next/OpenNFTsV4.sol:OpenNFTsV4",
        "label": "tokenIdNext",
        "offset": 0,
        "slot": "20",
        "type": "t_uint256"
      },
      {
        "astId": 19577,
        "contract": "contracts/next/OpenNFTsV4.sol:OpenNFTsV4",
        "label": "open",
        "offset": 0,
        "slot": "21",
        "type": "t_bool"
      }
    ],
    "types": {
      "t_address": {
        "encoding": "inplace",
        "label": "address",
        "numberOfBytes": "20"
      },
      "t_array(t_uint256)dyn_storage": {
        "base": "t_uint256",
        "encoding": "dynamic_array",
        "label": "uint256[]",
        "numberOfBytes": "32"
      },
      "t_bool": {
        "encoding": "inplace",
        "label": "bool",
        "numberOfBytes": "1"
      },
      "t_mapping(t_address,t_array(t_uint256)dyn_storage)": {
        "encoding": "mapping",
        "key": "t_address",
        "label": "mapping(address => uint256[])",
        "numberOfBytes": "32",
        "value": "t_array(t_uint256)dyn_storage"
      },
      "t_mapping(t_address,t_bool)": {
        "encoding": "mapping",
        "key": "t_address",
        "label": "mapping(address => bool)",
        "numberOfBytes": "32",
        "value": "t_bool"
      },
      "t_mapping(t_address,t_mapping(t_address,t_bool))": {
        "encoding": "mapping",
        "key": "t_address",
        "label": "mapping(address => mapping(address => bool))",
        "numberOfBytes": "32",
        "value": "t_mapping(t_address,t_bool)"
      },
      "t_mapping(t_address,t_uint256)": {
        "encoding": "mapping",
        "key": "t_address",
        "label": "mapping(address => uint256)",
        "numberOfBytes": "32",
        "value": "t_uint256"
      },
      "t_mapping(t_uint256,t_address)": {
        "encoding": "mapping",
        "key": "t_uint256",
        "label": "mapping(uint256 => address)",
        "numberOfBytes": "32",
        "value": "t_address"
      },
      "t_mapping(t_uint256,t_string_storage)": {
        "encoding": "mapping",
        "key": "t_uint256",
        "label": "mapping(uint256 => string)",
        "numberOfBytes": "32",
        "value": "t_string_storage"
      },
      "t_mapping(t_uint256,t_struct(RoyaltyInfo)6642_storage)": {
        "encoding": "mapping",
        "key": "t_uint256",
        "label": "mapping(uint256 => struct OpenERC2981.RoyaltyInfo)",
        "numberOfBytes": "32",
        "value": "t_struct(RoyaltyInfo)6642_storage"
      },
      "t_mapping(t_uint256,t_uint256)": {
        "encoding": "mapping",
        "key": "t_uint256",
        "label": "mapping(uint256 => uint256)",
        "numberOfBytes": "32",
        "value": "t_uint256"
      },
      "t_string_storage": {
        "encoding": "bytes",
        "label": "string",
        "numberOfBytes": "32"
      },
      "t_struct(RoyaltyInfo)6642_storage": {
        "encoding": "inplace",
        "label": "struct OpenERC2981.RoyaltyInfo",
        "members": [
          {
            "astId": 6639,
            "contract": "contracts/next/OpenNFTsV4.sol:OpenNFTsV4",
            "label": "receiver",
            "offset": 0,
            "slot": "0",
            "type": "t_address"
          },
          {
            "astId": 6641,
            "contract": "contracts/next/OpenNFTsV4.sol:OpenNFTsV4",
            "label": "fraction",
            "offset": 20,
            "slot": "0",
            "type": "t_uint96"
          }
        ],
        "numberOfBytes": "32"
      },
      "t_uint256": {
        "encoding": "inplace",
        "label": "uint256",
        "numberOfBytes": "32"
      },
      "t_uint96": {
        "encoding": "inplace",
        "label": "uint96",
        "numberOfBytes": "12"
      }
    }
  }
}