{
  "address": "0x5e5dec61E036A181bfe64227AFc43f5B2cE66773",
  "abi": [
    {
      "inputs": [
        {
          "internalType": "address",
          "name": "initialOwner",
          "type": "address"
        }
      ],
      "stateMutability": "nonpayable",
      "type": "constructor"
    },
    {
      "anonymous": false,
      "inputs": [
        {
          "indexed": true,
          "internalType": "string",
          "name": "templateName",
          "type": "string"
        },
        {
          "indexed": true,
          "internalType": "address",
          "name": "clone",
          "type": "address"
        },
        {
          "indexed": true,
          "internalType": "string",
          "name": "name",
          "type": "string"
        },
        {
          "indexed": false,
          "internalType": "string",
          "name": "symbol",
          "type": "string"
        },
        {
          "indexed": false,
          "internalType": "bool[]",
          "name": "options",
          "type": "bool[]"
        }
      ],
      "name": "Clone",
      "type": "event"
    },
    {
      "anonymous": false,
      "inputs": [
        {
          "indexed": true,
          "internalType": "address",
          "name": "previousOwner",
          "type": "address"
        },
        {
          "indexed": true,
          "internalType": "address",
          "name": "newOwner",
          "type": "address"
        }
      ],
      "name": "OwnershipTransferred",
      "type": "event"
    },
    {
      "anonymous": false,
      "inputs": [
        {
          "indexed": true,
          "internalType": "address",
          "name": "resolver",
          "type": "address"
        }
      ],
      "name": "SetResolver",
      "type": "event"
    },
    {
      "anonymous": false,
      "inputs": [
        {
          "indexed": true,
          "internalType": "string",
          "name": "templateName",
          "type": "string"
        },
        {
          "indexed": true,
          "internalType": "address",
          "name": "template",
          "type": "address"
        },
        {
          "indexed": false,
          "internalType": "uint256",
          "name": "index",
          "type": "uint256"
        }
      ],
      "name": "SetTemplate",
      "type": "event"
    },
    {
      "inputs": [
        {
          "internalType": "string",
          "name": "name",
          "type": "string"
        },
        {
          "internalType": "string",
          "name": "symbol",
          "type": "string"
        },
        {
          "internalType": "string",
          "name": "templateName",
          "type": "string"
        },
        {
          "internalType": "bool[]",
          "name": "options",
          "type": "bool[]"
        }
      ],
      "name": "clone",
      "outputs": [
        {
          "internalType": "address",
          "name": "clone_",
          "type": "address"
        }
      ],
      "stateMutability": "nonpayable",
      "type": "function"
    },
    {
      "inputs": [],
      "name": "countTemplates",
      "outputs": [
        {
          "internalType": "uint256",
          "name": "count",
          "type": "uint256"
        }
      ],
      "stateMutability": "view",
      "type": "function"
    },
    {
      "inputs": [],
      "name": "nftsResolver",
      "outputs": [
        {
          "internalType": "address",
          "name": "",
          "type": "address"
        }
      ],
      "stateMutability": "view",
      "type": "function"
    },
    {
      "inputs": [],
      "name": "owner",
      "outputs": [
        {
          "internalType": "address",
          "name": "",
          "type": "address"
        }
      ],
      "stateMutability": "view",
      "type": "function"
    },
    {
      "inputs": [
        {
          "internalType": "address",
          "name": "resolver_",
          "type": "address"
        }
      ],
      "name": "setResolver",
      "outputs": [],
      "stateMutability": "nonpayable",
      "type": "function"
    },
    {
      "inputs": [
        {
          "internalType": "string",
          "name": "templateName_",
          "type": "string"
        },
        {
          "internalType": "address",
          "name": "template_",
          "type": "address"
        }
      ],
      "name": "setTemplate",
      "outputs": [],
      "stateMutability": "nonpayable",
      "type": "function"
    },
    {
      "inputs": [
        {
          "internalType": "bytes4",
          "name": "interfaceId",
          "type": "bytes4"
        }
      ],
      "name": "supportsInterface",
      "outputs": [
        {
          "internalType": "bool",
          "name": "",
          "type": "bool"
        }
      ],
      "stateMutability": "view",
      "type": "function"
    },
    {
      "inputs": [
        {
          "internalType": "string",
          "name": "templateName",
          "type": "string"
        }
      ],
      "name": "template",
      "outputs": [
        {
          "internalType": "address",
          "name": "template_",
          "type": "address"
        }
      ],
      "stateMutability": "view",
      "type": "function"
    },
    {
      "inputs": [
        {
          "internalType": "uint256",
          "name": "",
          "type": "uint256"
        }
      ],
      "name": "templates",
      "outputs": [
        {
          "internalType": "address",
          "name": "",
          "type": "address"
        }
      ],
      "stateMutability": "view",
      "type": "function"
    },
    {
      "inputs": [
        {
          "internalType": "address",
          "name": "newOwner",
          "type": "address"
        }
      ],
      "name": "transferOwnership",
      "outputs": [],
      "stateMutability": "nonpayable",
      "type": "function"
    }
  ],
  "transactionHash": "0x48c0c6e46045c41ce56ebb7c5ac29947b739952e84c8cf8cc27bfcc5c34426cb",
  "args": [
    "0x6eebAe27d69fa80f0E4C0E973A2Fed218A56880c"
  ],
  "numDeployments": 4,
  "solcInputHash": "a02a6ceb1d35e4d4b69ade54b878b116",
  "bytecode": "0x608060405234801561001057600080fd5b5060405161108538038061108583398101604081905261002f916100a1565b6100428161004860201b61098b1760201c565b506100d1565b600080546001600160a01b03838116610100818102610100600160a81b0319851617855560405193049190911692909183917f8be0079c531659141344cd1fd0a4f28419497f9722a3daafe3b4186f6b6457e091a35050565b6000602082840312156100b357600080fd5b81516001600160a01b03811681146100ca57600080fd5b9392505050565b610fa5806100e06000396000f3fe608060405234801561001057600080fd5b506004361061009e5760003560e01c806370e141951161006657806370e141951461012f578063848ec03c146101425780638da5cb5b14610155578063bc5256521461016b578063f2fde38b1461017e57600080fd5b806301ffc9a7146100a357806307caa21e146100cb5780631ada40fb146100e05780631b6740dd146100f15780634e543b261461011c575b600080fd5b6100b66100b1366004610a48565b610191565b60405190151581526020015b60405180910390f35b6100de6100d9366004610b47565b6101c8565b005b6002546040519081526020016100c2565b6101046100ff366004610ba3565b61056d565b6040516001600160a01b0390911681526020016100c2565b6100de61012a366004610cbe565b6107d0565b61010461013d366004610cd9565b610849565b600354610104906001600160a01b031681565b60005461010090046001600160a01b0316610104565b610104610179366004610d16565b610926565b6100de61018c366004610cbe565b610950565b60006307f5828d60e41b6001600160e01b0319831614806101c257506001600160e01b031982166301ffc9a760e01b145b92915050565b60005461010090046001600160a01b031633146102005760405162461bcd60e51b81526004016101f790610d2f565b60405180910390fd5b6040516301ffc9a760e01b815263275381b960e11b60048201526001600160a01b038216906301ffc9a79060240160206040518083038186803b15801561024657600080fd5b505afa15801561025a573d6000803e3d6000fd5b505050506040513d601f19601f8201168201806040525081019061027e9190610d52565b6102be5760405162461bcd60e51b81526020600482015260116024820152704e6f74204f70656e436c6f6e6561626c6560781b60448201526064016101f7565b806001600160a01b031663158ef93e6040518163ffffffff1660e01b815260040160206040518083038186803b1580156102f757600080fd5b505afa15801561030b573d6000803e3d6000fd5b505050506040513d601f19601f8201168201806040525081019061032f9190610d52565b61036d5760405162461bcd60e51b815260206004820152600f60248201526e139bdd081a5b9a5d1a585b1a5e9959608a1b60448201526064016101f7565b806001600160a01b03163b602d14156103c85760405162461bcd60e51b815260206004820152601860248201527f436c6f6e65206e6f742076616c69642074656d706c617465000000000000000060448201526064016101f7565b60006001836040516103da9190610d9f565b90815260200160405180910390205490506001811061044457816002610401600184610dbb565b8154811061041157610411610de0565b9060005260206000200160006101000a8154816001600160a01b0302191690836001600160a01b031602179055506104b7565b50600280546001808201835560008390527f405787fa12a823e0f2b7631cc41b3ba8828b3321ca811111fa75cd3aa3bb5ace90910180546001600160a01b0319166001600160a01b0385161790559054604051909182916104a6908690610d9f565b908152604051908190036020019020555b600354604051630e3ab68760e21b81526001600160a01b038481166004830152909116906338eada1c90602401600060405180830381600087803b1580156104fe57600080fd5b505af1158015610512573d6000803e3d6000fd5b50505050816001600160a01b03168360405161052e9190610d9f565b604051908190038120838252907f9a1bc68d29ae4a678ea14888c65dd019ada583b85f33e2483dae925e470d0d709060200160405180910390a3505050565b600061058061057b84610849565b6109e4565b60408051808201909152600a81526913dc195b9391951cd58d60b21b6020918201528451908501209091507fe772596a5aee685e9c81b86e0bc9a596465addbf9ff75eea03c0ade4806fd548141561063b57604051630a9c216960e31b81526001600160a01b038216906354e10b4890610604908890889033908890600401610e5f565b600060405180830381600087803b15801561061e57600080fd5b505af1158015610632573d6000803e3d6000fd5b505050506106fa565b60408051808201909152600e81526d13dc195b905d5d1bd3585c9ad95d60921b6020918201528351908401207f50b6f549bc3325c45f87be668d9c95e2b83d836bb3b40d3fbb4e10df72d607d414156106fa5760405163e97186ef60e01b81526001600160a01b0382169063e97186ef906106c790889088903390600090819081908b90600401610eb2565b600060405180830381600087803b1580156106e157600080fd5b505af11580156106f5573d6000803e3d6000fd5b505050505b600354604051630e3ab68760e21b81526001600160a01b038381166004830152909116906338eada1c90602401600060405180830381600087803b15801561074157600080fd5b505af1158015610755573d6000803e3d6000fd5b50505050846040516107679190610d9f565b6040518091039020816001600160a01b0316846040516107879190610d9f565b60405180910390207f47dffa4abe4944e571737fcce75f2945226cf091ddb792b72a5794fa67450a6887866040516107c0929190610f2b565b60405180910390a4949350505050565b60005461010090046001600160a01b031633146107ff5760405162461bcd60e51b81526004016101f790610d2f565b600380546001600160a01b0319166001600160a01b0383169081179091556040517ff811902d0aa96fa0dd89bebe8fc3818fa2132b9437abc92ed35639cc82da6d7c90600090a250565b60008060018360405161085c9190610d9f565b908152602001604051809103902054905060018110156108b15760405162461bcd60e51b815260206004820152601060248201526f496e76616c69642054656d706c61746560801b60448201526064016101f7565b60026108be600183610dbb565b815481106108ce576108ce610de0565b6000918252602090912001546001600160a01b03169150816109205760405162461bcd60e51b815260206004820152600b60248201526a4e6f2054656d706c61746560a81b60448201526064016101f7565b50919050565b6002818154811061093657600080fd5b6000918252602090912001546001600160a01b0316905081565b60005461010090046001600160a01b0316331461097f5760405162461bcd60e51b81526004016101f790610d2f565b6109888161098b565b50565b600080546001600160a01b03838116610100818102610100600160a81b0319851617855560405193049190911692909183917f8be0079c531659141344cd1fd0a4f28419497f9722a3daafe3b4186f6b6457e091a35050565b6000604051733d602d80600a3d3981f3363d3d373d3d3d363d7360601b81528260601b60148201526e5af43d82803e903d91602b57fd5bf360881b60288201526037816000f09150506001600160a01b038116610a4357610a43610f59565b919050565b600060208284031215610a5a57600080fd5b81356001600160e01b031981168114610a7257600080fd5b9392505050565b634e487b7160e01b600052604160045260246000fd5b604051601f8201601f1916810167ffffffffffffffff81118282101715610ab857610ab8610a79565b604052919050565b600082601f830112610ad157600080fd5b813567ffffffffffffffff811115610aeb57610aeb610a79565b610afe601f8201601f1916602001610a8f565b818152846020838601011115610b1357600080fd5b816020850160208301376000918101602001919091529392505050565b80356001600160a01b0381168114610a4357600080fd5b60008060408385031215610b5a57600080fd5b823567ffffffffffffffff811115610b7157600080fd5b610b7d85828601610ac0565b925050610b8c60208401610b30565b90509250929050565b801515811461098857600080fd5b60008060008060808587031215610bb957600080fd5b843567ffffffffffffffff80821115610bd157600080fd5b610bdd88838901610ac0565b9550602091508187013581811115610bf457600080fd5b610c0089828a01610ac0565b955050604087013581811115610c1557600080fd5b610c2189828a01610ac0565b945050606087013581811115610c3657600080fd5b8701601f81018913610c4757600080fd5b803582811115610c5957610c59610a79565b8060051b9250610c6a848401610a8f565b818152928201840192848101908b851115610c8457600080fd5b928501925b84841015610cae5783359250610c9e83610b95565b8282529285019290850190610c89565b989b979a50959850505050505050565b600060208284031215610cd057600080fd5b610a7282610b30565b600060208284031215610ceb57600080fd5b813567ffffffffffffffff811115610d0257600080fd5b610d0e84828501610ac0565b949350505050565b600060208284031215610d2857600080fd5b5035919050565b6020808252600990820152682737ba1037bbb732b960b91b604082015260600190565b600060208284031215610d6457600080fd5b8151610a7281610b95565b60005b83811015610d8a578181015183820152602001610d72565b83811115610d99576000848401525b50505050565b60008251610db1818460208701610d6f565b9190910192915050565b600082821015610ddb57634e487b7160e01b600052601160045260246000fd5b500390565b634e487b7160e01b600052603260045260246000fd5b60008151808452610e0e816020860160208601610d6f565b601f01601f19169290920160200192915050565b600081518084526020808501945080840160005b83811015610e54578151151587529582019590820190600101610e36565b509495945050505050565b608081526000610e726080830187610df6565b8281036020840152610e848187610df6565b6001600160a01b038616604085015283810360608501529050610ea78185610e22565b979650505050505050565b60e081526000610ec560e083018a610df6565b8281036020840152610ed7818a610df6565b6001600160a01b03898116604086015260608501899052871660808501526bffffffffffffffffffffffff861660a085015283810360c08501529050610f1d8185610e22565b9a9950505050505050505050565b604081526000610f3e6040830185610df6565b8281036020840152610f508185610e22565b95945050505050565b634e487b7160e01b600052600160045260246000fdfea26469706673582212200e74432394cb22b1554ba835f064f2f0a447f85bd056fc2fa9bdfa001210a6ee64736f6c63430008090033",
  "devdoc": {
    "details": "is CloneFactory",
    "kind": "dev",
    "methods": {
      "clone(string,string,string,bool[])": {
        "params": {
          "name": "name of Clone collection",
          "symbol": "symbol of Clone collection"
        },
        "returns": {
          "clone_": "Address of Clone collection"
        }
      },
      "setTemplate(string,address)": {
        "params": {
          "templateName_": "Name of the template",
          "template_": "Address of the template"
        }
      },
      "template(string)": {
        "params": {
          "templateName": ": template name"
        },
        "returns": {
          "template_": ": template address"
        }
      }
    },
    "title": "NFTsFactory smartcontract",
    "version": 1
  },
  "userdoc": {
    "kind": "user",
    "methods": {
      "clone(string,string,string,bool[])": {
        "notice": "clone template"
      },
      "setTemplate(string,address)": {
        "notice": "Set Template by Name"
      },
      "template(string)": {
        "notice": "Get Template"
      }
    },
    "notice": "Templates are OPEN_NFTS contractsImplementations are ERC721 contracts (including OPEN_NFTS clones)Factory can clone OPEN_NFTs templates to implementationsFactory can also add ERC721 contracts to implementations",
    "version": 1
  },
  "storageLayout": {
    "storage": [
      {
        "astId": 5005,
        "contract": "contracts/next/OpenFactoryV3.sol:OpenFactoryV3",
        "label": "_openERC173Initialized",
        "offset": 0,
        "slot": "0",
        "type": "t_bool"
      },
      {
        "astId": 5007,
        "contract": "contracts/next/OpenFactoryV3.sol:OpenFactoryV3",
        "label": "_owner",
        "offset": 1,
        "slot": "0",
        "type": "t_address"
      },
      {
        "astId": 19519,
        "contract": "contracts/next/OpenFactoryV3.sol:OpenFactoryV3",
        "label": "_numTemplates",
        "offset": 0,
        "slot": "1",
        "type": "t_mapping(t_string_memory_ptr,t_uint256)"
      },
      {
        "astId": 19522,
        "contract": "contracts/next/OpenFactoryV3.sol:OpenFactoryV3",
        "label": "templates",
        "offset": 0,
        "slot": "2",
        "type": "t_array(t_address)dyn_storage"
      },
      {
        "astId": 19524,
        "contract": "contracts/next/OpenFactoryV3.sol:OpenFactoryV3",
        "label": "nftsResolver",
        "offset": 0,
        "slot": "3",
        "type": "t_address"
      }
    ],
    "types": {
      "t_address": {
        "encoding": "inplace",
        "label": "address",
        "numberOfBytes": "20"
      },
      "t_array(t_address)dyn_storage": {
        "base": "t_address",
        "encoding": "dynamic_array",
        "label": "address[]",
        "numberOfBytes": "32"
      },
      "t_bool": {
        "encoding": "inplace",
        "label": "bool",
        "numberOfBytes": "1"
      },
      "t_mapping(t_string_memory_ptr,t_uint256)": {
        "encoding": "mapping",
        "key": "t_string_memory_ptr",
        "label": "mapping(string => uint256)",
        "numberOfBytes": "32",
        "value": "t_uint256"
      },
      "t_string_memory_ptr": {
        "encoding": "bytes",
        "label": "string",
        "numberOfBytes": "32"
      },
      "t_uint256": {
        "encoding": "inplace",
        "label": "uint256",
        "numberOfBytes": "32"
      }
    }
  }
}