{
  "address": "0x421c797c1Ca9233633484b64B156bc613a7388b2",
  "abi": [
    {
      "anonymous": false,
      "inputs": [
        {
          "indexed": true,
          "internalType": "address",
          "name": "owner",
          "type": "address"
        },
        {
          "indexed": true,
          "internalType": "address",
          "name": "approved",
          "type": "address"
        },
        {
          "indexed": true,
          "internalType": "uint256",
          "name": "tokenId",
          "type": "uint256"
        }
      ],
      "name": "Approval",
      "type": "event"
    },
    {
      "anonymous": false,
      "inputs": [
        {
          "indexed": true,
          "internalType": "address",
          "name": "owner",
          "type": "address"
        },
        {
          "indexed": true,
          "internalType": "address",
          "name": "operator",
          "type": "address"
        },
        {
          "indexed": false,
          "internalType": "bool",
          "name": "approved",
          "type": "bool"
        }
      ],
      "name": "ApprovalForAll",
      "type": "event"
    },
    {
      "anonymous": false,
      "inputs": [
        {
          "indexed": true,
          "internalType": "address",
          "name": "previousOwner",
          "type": "address"
        },
        {
          "indexed": true,
          "internalType": "address",
          "name": "newOwner",
          "type": "address"
        }
      ],
      "name": "OwnershipTransferred",
      "type": "event"
    },
    {
      "anonymous": false,
      "inputs": [
        {
          "indexed": true,
          "internalType": "address",
          "name": "from",
          "type": "address"
        },
        {
          "indexed": true,
          "internalType": "address",
          "name": "to",
          "type": "address"
        },
        {
          "indexed": true,
          "internalType": "uint256",
          "name": "tokenId",
          "type": "uint256"
        }
      ],
      "name": "Transfer",
      "type": "event"
    },
    {
      "inputs": [
        {
          "internalType": "address",
          "name": "spender",
          "type": "address"
        },
        {
          "internalType": "uint256",
          "name": "tokenID",
          "type": "uint256"
        }
      ],
      "name": "approve",
      "outputs": [],
      "stateMutability": "nonpayable",
      "type": "function"
    },
    {
      "inputs": [
        {
          "internalType": "address",
          "name": "owner",
          "type": "address"
        }
      ],
      "name": "balanceOf",
      "outputs": [
        {
          "internalType": "uint256",
          "name": "",
          "type": "uint256"
        }
      ],
      "stateMutability": "view",
      "type": "function"
    },
    {
      "inputs": [
        {
          "internalType": "uint256",
          "name": "tokenID",
          "type": "uint256"
        }
      ],
      "name": "burn",
      "outputs": [],
      "stateMutability": "nonpayable",
      "type": "function"
    },
    {
      "inputs": [
        {
          "internalType": "uint256",
          "name": "tokenID",
          "type": "uint256"
        }
      ],
      "name": "getApproved",
      "outputs": [
        {
          "internalType": "address",
          "name": "",
          "type": "address"
        }
      ],
      "stateMutability": "view",
      "type": "function"
    },
    {
      "inputs": [
        {
          "internalType": "string",
          "name": "name_",
          "type": "string"
        },
        {
          "internalType": "string",
          "name": "symbol_",
          "type": "string"
        },
        {
          "internalType": "address",
          "name": "owner_",
          "type": "address"
        },
        {
          "internalType": "bytes",
          "name": "params_",
          "type": "bytes"
        }
      ],
      "name": "initialize",
      "outputs": [],
      "stateMutability": "nonpayable",
      "type": "function"
    },
    {
      "inputs": [
        {
          "internalType": "string",
          "name": "name_",
          "type": "string"
        },
        {
          "internalType": "string",
          "name": "symbol_",
          "type": "string"
        },
        {
          "internalType": "address",
          "name": "owner_",
          "type": "address"
        },
        {
          "internalType": "bool[]",
          "name": "options_",
          "type": "bool[]"
        }
      ],
      "name": "initialize",
      "outputs": [],
      "stateMutability": "nonpayable",
      "type": "function"
    },
    {
      "inputs": [],
      "name": "initialized",
      "outputs": [
        {
          "internalType": "bool",
          "name": "",
          "type": "bool"
        }
      ],
      "stateMutability": "view",
      "type": "function"
    },
    {
      "inputs": [
        {
          "internalType": "address",
          "name": "owner",
          "type": "address"
        },
        {
          "internalType": "address",
          "name": "operator",
          "type": "address"
        }
      ],
      "name": "isApprovedForAll",
      "outputs": [
        {
          "internalType": "bool",
          "name": "",
          "type": "bool"
        }
      ],
      "stateMutability": "view",
      "type": "function"
    },
    {
      "inputs": [
        {
          "internalType": "address",
          "name": "minter",
          "type": "address"
        },
        {
          "internalType": "string",
          "name": "tokenURI_",
          "type": "string"
        }
      ],
      "name": "mint",
      "outputs": [
        {
          "internalType": "uint256",
          "name": "tokenID",
          "type": "uint256"
        }
      ],
      "stateMutability": "nonpayable",
      "type": "function"
    },
    {
      "inputs": [
        {
          "internalType": "string",
          "name": "tokenURI_",
          "type": "string"
        }
      ],
      "name": "mint",
      "outputs": [
        {
          "internalType": "uint256",
          "name": "tokenID",
          "type": "uint256"
        }
      ],
      "stateMutability": "nonpayable",
      "type": "function"
    },
    {
      "inputs": [],
      "name": "name",
      "outputs": [
        {
          "internalType": "string",
          "name": "",
          "type": "string"
        }
      ],
      "stateMutability": "view",
      "type": "function"
    },
    {
      "inputs": [],
      "name": "open",
      "outputs": [
        {
          "internalType": "bool",
          "name": "",
          "type": "bool"
        }
      ],
      "stateMutability": "view",
      "type": "function"
    },
    {
      "inputs": [],
      "name": "owner",
      "outputs": [
        {
          "internalType": "address",
          "name": "",
          "type": "address"
        }
      ],
      "stateMutability": "view",
      "type": "function"
    },
    {
      "inputs": [
        {
          "internalType": "uint256",
          "name": "tokenID",
          "type": "uint256"
        }
      ],
      "name": "ownerOf",
      "outputs": [
        {
          "internalType": "address",
          "name": "",
          "type": "address"
        }
      ],
      "stateMutability": "view",
      "type": "function"
    },
    {
      "inputs": [],
      "name": "parent",
      "outputs": [
        {
          "internalType": "address",
          "name": "parent_",
          "type": "address"
        }
      ],
      "stateMutability": "view",
      "type": "function"
    },
    {
      "inputs": [
        {
          "internalType": "address",
          "name": "from",
          "type": "address"
        },
        {
          "internalType": "address",
          "name": "to",
          "type": "address"
        },
        {
          "internalType": "uint256",
          "name": "tokenID",
          "type": "uint256"
        }
      ],
      "name": "safeTransferFrom",
      "outputs": [],
      "stateMutability": "payable",
      "type": "function"
    },
    {
      "inputs": [
        {
          "internalType": "address",
          "name": "from",
          "type": "address"
        },
        {
          "internalType": "address",
          "name": "to",
          "type": "address"
        },
        {
          "internalType": "uint256",
          "name": "tokenID",
          "type": "uint256"
        },
        {
          "internalType": "bytes",
          "name": "data",
          "type": "bytes"
        }
      ],
      "name": "safeTransferFrom",
      "outputs": [],
      "stateMutability": "payable",
      "type": "function"
    },
    {
      "inputs": [
        {
          "internalType": "address",
          "name": "operator",
          "type": "address"
        },
        {
          "internalType": "bool",
          "name": "approved",
          "type": "bool"
        }
      ],
      "name": "setApprovalForAll",
      "outputs": [],
      "stateMutability": "nonpayable",
      "type": "function"
    },
    {
      "inputs": [
        {
          "internalType": "bytes4",
          "name": "interfaceId",
          "type": "bytes4"
        }
      ],
      "name": "supportsInterface",
      "outputs": [
        {
          "internalType": "bool",
          "name": "",
          "type": "bool"
        }
      ],
      "stateMutability": "view",
      "type": "function"
    },
    {
      "inputs": [],
      "name": "symbol",
      "outputs": [
        {
          "internalType": "string",
          "name": "",
          "type": "string"
        }
      ],
      "stateMutability": "view",
      "type": "function"
    },
    {
      "inputs": [],
      "name": "template",
      "outputs": [
        {
          "internalType": "string",
          "name": "",
          "type": "string"
        }
      ],
      "stateMutability": "view",
      "type": "function"
    },
    {
      "inputs": [
        {
          "internalType": "uint256",
          "name": "index",
          "type": "uint256"
        }
      ],
      "name": "tokenByIndex",
      "outputs": [
        {
          "internalType": "uint256",
          "name": "",
          "type": "uint256"
        }
      ],
      "stateMutability": "view",
      "type": "function"
    },
    {
      "inputs": [],
      "name": "tokenIdNext",
      "outputs": [
        {
          "internalType": "uint256",
          "name": "",
          "type": "uint256"
        }
      ],
      "stateMutability": "view",
      "type": "function"
    },
    {
      "inputs": [
        {
          "internalType": "address",
          "name": "owner",
          "type": "address"
        },
        {
          "internalType": "uint256",
          "name": "index",
          "type": "uint256"
        }
      ],
      "name": "tokenOfOwnerByIndex",
      "outputs": [
        {
          "internalType": "uint256",
          "name": "",
          "type": "uint256"
        }
      ],
      "stateMutability": "view",
      "type": "function"
    },
    {
      "inputs": [
        {
          "internalType": "uint256",
          "name": "tokenID",
          "type": "uint256"
        }
      ],
      "name": "tokenURI",
      "outputs": [
        {
          "internalType": "string",
          "name": "",
          "type": "string"
        }
      ],
      "stateMutability": "view",
      "type": "function"
    },
    {
      "inputs": [],
      "name": "totalSupply",
      "outputs": [
        {
          "internalType": "uint256",
          "name": "",
          "type": "uint256"
        }
      ],
      "stateMutability": "view",
      "type": "function"
    },
    {
      "inputs": [
        {
          "internalType": "address",
          "name": "from",
          "type": "address"
        },
        {
          "internalType": "address",
          "name": "to",
          "type": "address"
        },
        {
          "internalType": "uint256",
          "name": "tokenID",
          "type": "uint256"
        }
      ],
      "name": "transferFrom",
      "outputs": [],
      "stateMutability": "payable",
      "type": "function"
    },
    {
      "inputs": [
        {
          "internalType": "address",
          "name": "newOwner",
          "type": "address"
        }
      ],
      "name": "transferOwnership",
      "outputs": [],
      "stateMutability": "nonpayable",
      "type": "function"
    },
    {
      "inputs": [],
      "name": "version",
      "outputs": [
        {
          "internalType": "uint256",
          "name": "",
          "type": "uint256"
        }
      ],
      "stateMutability": "view",
      "type": "function"
    }
  ],
  "transactionHash": "0xe6005ea0b3077458508e252cac093373cf942621d34be724a193e2ac6f0e7c3c",
  "args": [],
  "numDeployments": 1,
  "solcInputHash": "e5e0b86adcd33eb082dbf8372c97ba2f",
  "bytecode": "0x608060405234801561001057600080fd5b5061210c806100206000396000f3fe6080604052600436106101c25760003560e01c806360f96a8f116100f7578063a22cb46511610095578063d85d3d2711610064578063d85d3d27146104bf578063e985e9c5146104df578063f2fde38b14610528578063fcfff16f1461054857600080fd5b8063a22cb4651461044c578063b88d4fde1461046c578063c87b56dd1461047f578063d0def5211461049f57600080fd5b806370a08231116100d157806370a08231146103de5780638bbf58b3146103fe5780638da5cb5b1461041457806395d89b411461043757600080fd5b806360f96a8f146103945780636352211e146103a95780636f2ddd93146103c957600080fd5b806323b872dd1161016457806342966c681161013e57806342966c681461031e5780634f6ccce71461033e57806354e10b481461035e57806354fd4d501461037e57600080fd5b806323b872dd146102d85780632f745c59146102eb57806342842e0e1461030b57600080fd5b8063095ea7b3116101a0578063095ea7b314610256578063158ef93e1461027857806318160ddd146102995780631eb40e21146102b857600080fd5b806301ffc9a7146101c757806306fdde03146101fc578063081812fc1461021e575b600080fd5b3480156101d357600080fd5b506101e76101e2366004611997565b610562565b60405190151581526020015b60405180910390f35b34801561020857600080fd5b5061021161058d565b6040516101f39190611a01565b34801561022a57600080fd5b5061023e610239366004611a14565b61061f565b6040516001600160a01b0390911681526020016101f3565b34801561026257600080fd5b50610276610271366004611a49565b61067f565b005b34801561028457600080fd5b50600c546101e790600160a81b900460ff1681565b3480156102a557600080fd5b506008545b6040519081526020016101f3565b3480156102c457600080fd5b506102766102d3366004611b2a565b610743565b6102766102e6366004611bc3565b610763565b3480156102f757600080fd5b506102aa610306366004611a49565b610773565b610276610319366004611bc3565b6107fa565b34801561032a57600080fd5b50610276610339366004611a14565b610815565b34801561034a57600080fd5b506102aa610359366004611a14565b610879565b34801561036a57600080fd5b50610276610379366004611c31565b6108e3565b34801561038a57600080fd5b506102aa600e5481565b3480156103a057600080fd5b5061023e610961565b3480156103b557600080fd5b5061023e6103c4366004611a14565b6109aa565b3480156103d557600080fd5b506102116109fd565b3480156103ea57600080fd5b506102aa6103f9366004611d2c565b610a8b565b34801561040a57600080fd5b506102aa600f5481565b34801561042057600080fd5b50600c5461010090046001600160a01b031661023e565b34801561044357600080fd5b50610211610af6565b34801561045857600080fd5b50610276610467366004611d47565b610b05565b61027661047a366004611d7e565b610b71565b34801561048b57600080fd5b5061021161049a366004611a14565b610b7d565b3480156104ab57600080fd5b506102aa6104ba366004611dda565b610c55565b3480156104cb57600080fd5b506102aa6104da366004611e28565b610cb4565b3480156104eb57600080fd5b506101e76104fa366004611e5d565b6001600160a01b03918216600090815260036020908152604080832093909416825291909152205460ff1690565b34801561053457600080fd5b50610276610543366004611d2c565b610cc0565b34801561055457600080fd5b506010546101e79060ff1681565b60006001600160e01b0319821663e20b5e4960e01b1480610587575061058782610d17565b92915050565b60606005805461059c90611e90565b80601f01602080910402602001604051908101604052809291908181526020018280546105c890611e90565b80156106155780601f106105ea57610100808354040283529160200191610615565b820191906000526020600020905b8154815290600101906020018083116105f857829003601f168201915b5050505050905090565b60008181526020819052604081205482906001600160a01b031661065e5760405162461bcd60e51b815260040161065590611ec5565b60405180910390fd5b6000838152600260205260409020546001600160a01b031691505b50919050565b6106893382610d3c565b6106d55760405162461bcd60e51b815260206004820152601c60248201527f4e6f7420746f6b656e206f776e6572206e6f72206f70657261746f72000000006044820152606401610655565b600081815260026020526040902080546001600160a01b0319166001600160a01b038416908117909155819061070a826109aa565b6001600160a01b03167f8c5be1e5ebec7d5bd14f71427d1e84f3dd0314c0f7b2291e5b200ac8c7c3b92560405160405180910390a45050565b61075d848484848060200190518101906103799190611eef565b50505050565b61076e838383610d97565b505050565b600061077e83610a8b565b82106107bd5760405162461bcd60e51b815260206004820152600e60248201526d496e76616c696420696e6465782160901b6044820152606401610655565b6001600160a01b03831660009081526009602052604090208054839081106107e7576107e7611f89565b9060005260206000200154905092915050565b61076e83838360405180602001604052806000815250610ffd565b806108203382611055565b61086c5760405162461bcd60e51b815260206004820152601c60248201527f4e6f7420746f6b656e206f776e6572206e6f7220617070726f766564000000006044820152606401610655565b6108758261108b565b5050565b60085460009082106108be5760405162461bcd60e51b815260206004820152600e60248201526d496e76616c696420696e6465782160901b6044820152606401610655565b600882815481106108d1576108d1611f89565b90600052602060002001549050919050565b6001600f5560408051808201909152600a81526913dc195b9391951cd58d60b21b6020820152610914906004611094565b61091e84846110eb565b61092782611142565b8060008151811061093a5761093a611f89565b6020026020010151601060006101000a81548160ff02191690831515021790555050505050565b6000602d303b146109725750600090565b6010306001600160a01b0316803b806020016040519081016040528181526000908060200190933c6109a390611f9f565b901c905090565b60008181526020819052604081205482906001600160a01b03166109e05760405162461bcd60e51b815260040161065590611ec5565b50506000908152602081905260409020546001600160a01b031690565b600d8054610a0a90611e90565b80601f0160208091040260200160405190810160405280929190818152602001828054610a3690611e90565b8015610a835780601f10610a5857610100808354040283529160200191610a83565b820191906000526020600020905b815481529060010190602001808311610a6657829003601f168201915b505050505081565b60006001600160a01b038216610ada5760405162461bcd60e51b8152602060048201526014602482015273496e76616c6964207a65726f206164647265737360601b6044820152606401610655565b506001600160a01b031660009081526001602052604090205490565b60606006805461059c90611e90565b3360008181526003602090815260408083206001600160a01b03871680855290835292819020805460ff191686151590811790915590519081529192917f17307eab39ab6107e8899845ad3d59bd9653f200f220920489ca2b5937696c31910160405180910390a35050565b61075d84848484610ffd565b60008181526020819052604090205460609082906001600160a01b0316610bb65760405162461bcd60e51b815260040161065590611ec5565b60008381526007602052604090208054610bcf90611e90565b80601f0160208091040260200160405190810160405280929190818152602001828054610bfb90611e90565b8015610c485780601f10610c1d57610100808354040283529160200191610c48565b820191906000526020600020905b815481529060010190602001808311610c2b57829003601f168201915b5050505050915050919050565b600c5460009061010090046001600160a01b03163314610ca35760405162461bcd60e51b81526020600482015260096024820152682737ba1037bbb732b960b91b6044820152606401610655565b610cad838361117b565b9392505050565b6000610587338361117b565b600c5461010090046001600160a01b03163314610d0b5760405162461bcd60e51b81526020600482015260096024820152682737ba1037bbb732b960b91b6044820152606401610655565b610d148161119d565b50565b60006001600160e01b031982166350130d5360e01b14806105875750610587826111f7565b600080610d48836109aa565b9050836001600160a01b0316816001600160a01b03161480610d8f57506001600160a01b0380821660009081526003602090815260408083209388168352929052205460ff165b949350505050565b80610da23382611055565b610dee5760405162461bcd60e51b815260206004820152601c60248201527f4e6f7420746f6b656e206f776e6572206e6f7220617070726f766564000000006044820152606401610655565b6001600160a01b038416610e445760405162461bcd60e51b815260206004820152601a60248201527f5472616e736665722066726f6d207a65726f20616464726573730000000000006044820152606401610655565b6001600160a01b038316610e9a5760405162461bcd60e51b815260206004820152601860248201527f5472616e7366657220746f207a65726f206164647265737300000000000000006044820152606401610655565b610ea3826109aa565b6001600160a01b0316846001600160a01b031614610ef45760405162461bcd60e51b815260206004820152600e60248201526d233937b6903737ba1037bbb732b960911b6044820152606401610655565b610eff84848461121c565b600082815260026020526040902080546001600160a01b03191690556001600160a01b0384811690841614610fb6576001600160a01b03841660009081526001602081905260408220805491929091610f59908490611fd9565b90915550506001600160a01b03831660009081526001602081905260408220805491929091610f89908490611ff0565b9091555050600082815260208190526040902080546001600160a01b0319166001600160a01b0385161790555b81836001600160a01b0316856001600160a01b03167fddf252ad1be2c89b69c2b068fc378daa952ba7f163c4a11628f55a4df523b3ef60405160405180910390a450505050565b611008848484610d97565b61101484848484611227565b61075d5760405162461bcd60e51b81526020600482015260126024820152712737ba1022a9219b9918a932b1b2b4bb32b960711b6044820152606401610655565b60006110618383610d3c565b80610cad5750826001600160a01b031661107a8361061f565b6001600160a01b0316149392505050565b610d14816112d6565b600c54600160a81b900460ff16156110be5760405162461bcd60e51b815260040161065590612008565b600c805460ff60a81b1916600160a81b17905581516110e490600d9060208501906118b2565b50600e5550565b60045460ff161561110e5760405162461bcd60e51b815260040161065590612008565b6004805460ff19166001179055815161112e9060059060208501906118b2565b50805161076e9060069060208401906118b2565b600c5460ff16156111655760405162461bcd60e51b815260040161065590612008565b600c805460ff19166001179055610d148161119d565b600f80546000918261118c83612035565b9190505590506105878383836113a8565b600c80546001600160a01b03838116610100818102610100600160a81b031985161790945560405193909204169182907f8be0079c531659141344cd1fd0a4f28419497f9722a3daafe3b4186f6b6457e090600090a35050565b60006307f5828d60e41b6001600160e01b0319831614806105875750610587826113b3565b61076e8383836113d8565b60006001600160a01b0384163b15806112cd5750604051630a85bd0160e11b808252906001600160a01b0386169063150b7a029061126f9033908a9089908990600401612050565b602060405180830381600087803b15801561128957600080fd5b505af115801561129d573d6000803e3d6000fd5b505050506040513d601f19601f820116820180604052508101906112c1919061208d565b6001600160e01b031916145b95945050505050565b60006112e1826109aa565b90506112ed81836113ec565b6000828152600b602052604081205460085490919061130e90600190611fd9565b905060006008828154811061132557611325611f89565b6000918252602080832090910154808352600b90915260408083208690558783528220919091556008805491925082918590811061136557611365611f89565b6000918252602090912001556008805480611382576113826120aa565b600190038181906000526020600020016000905590556113a1856114fa565b5050505050565b61076e83838361151a565b600063780e9d6360e01b6001600160e01b031983161480610587575061058782611573565b6113e283826113ec565b61076e8282611598565b6000818152600a602052604081205490600161140785610a8b565b6114119190611fd9565b90508082146114a8576001600160a01b038416600090815260096020526040812080548390811061144457611444611f89565b906000526020600020015490508060096000876001600160a01b03166001600160a01b03168152602001908152602001600020848154811061148857611488611f89565b6000918252602080832090910192909255918252600a9052604090208290555b6000838152600a602090815260408083208390556001600160a01b0387168352600990915290208054806114de576114de6120aa565b6001900381819060005260206000200160009055905550505050565b600081815260076020526040812061151191611936565b610d14816115d6565b6115248382611598565b600880546000838152600b60205260408120829055600182018355919091527ff3f7a9fe364faab93b216da50a3214154f22a0a2b415b23a84c8169e8b636ee30181905561076e8383836116c7565b6000635b5e139f60e01b6001600160e01b0319831614806105875750610587826116f2565b6001600160a01b0390911660009081526009602081815260408084208054868652600a84529185208290559282526001810183559183529091200155565b60006115e1826109aa565b90506001600160a01b0381166116095760405162461bcd60e51b815260040161065590611ec5565b6001600160a01b03811660009081526001602052604090205461162e5761162e6120c0565b6001600160a01b03811660009081526001602081905260408220805491929091611659908490611fd9565b9091555050600082815260026020908152604080832080546001600160a01b0319908116909155918390528083208054909216909155518391906001600160a01b038416907fddf252ad1be2c89b69c2b068fc378daa952ba7f163c4a11628f55a4df523b3ef908390a45050565b600081815260076020908152604090912083516116e6928501906118b2565b5061076e838383611727565b60006380ac58cd60e01b6001600160e01b03198316148061058757506001600160e01b031982166301ffc9a760e01b14610587565b6001600160a01b0383166117745760405162461bcd60e51b81526020600482015260146024820152734d696e7420746f207a65726f206164647265737360601b6044820152606401610655565b6000818152602081905260409020546001600160a01b0316156117d05760405162461bcd60e51b8152602060048201526014602482015273151bdad95b88185b1c9958591e481b5a5b9d195960621b6044820152606401610655565b6001600160a01b038316600090815260016020819052604082208054919290916117fb908490611ff0565b909155505060008181526020819052604080822080546001600160a01b0319166001600160a01b03871690811790915590518392907fddf252ad1be2c89b69c2b068fc378daa952ba7f163c4a11628f55a4df523b3ef908290a46118716000848360405180602001604052806000815250611227565b61076e5760405162461bcd60e51b8152602060048201526012602482015271139bdd08115490cdcc8c549958d95a5d995960721b6044820152606401610655565b8280546118be90611e90565b90600052602060002090601f0160209004810192826118e05760008555611926565b82601f106118f957805160ff1916838001178555611926565b82800160010185558215611926579182015b8281111561192657825182559160200191906001019061190b565b5061193292915061196c565b5090565b50805461194290611e90565b6000825580601f10611952575050565b601f016020900490600052602060002090810190610d1491905b5b80821115611932576000815560010161196d565b6001600160e01b031981168114610d1457600080fd5b6000602082840312156119a957600080fd5b8135610cad81611981565b6000815180845260005b818110156119da576020818501810151868301820152016119be565b818111156119ec576000602083870101525b50601f01601f19169290920160200192915050565b602081526000610cad60208301846119b4565b600060208284031215611a2657600080fd5b5035919050565b80356001600160a01b0381168114611a4457600080fd5b919050565b60008060408385031215611a5c57600080fd5b611a6583611a2d565b946020939093013593505050565b634e487b7160e01b600052604160045260246000fd5b604051601f8201601f1916810167ffffffffffffffff81118282101715611ab257611ab2611a73565b604052919050565b600082601f830112611acb57600080fd5b813567ffffffffffffffff811115611ae557611ae5611a73565b611af8601f8201601f1916602001611a89565b818152846020838601011115611b0d57600080fd5b816020850160208301376000918101602001919091529392505050565b60008060008060808587031215611b4057600080fd5b843567ffffffffffffffff80821115611b5857600080fd5b611b6488838901611aba565b95506020870135915080821115611b7a57600080fd5b611b8688838901611aba565b9450611b9460408801611a2d565b93506060870135915080821115611baa57600080fd5b50611bb787828801611aba565b91505092959194509250565b600080600060608486031215611bd857600080fd5b611be184611a2d565b9250611bef60208501611a2d565b9150604084013590509250925092565b600067ffffffffffffffff821115611c1957611c19611a73565b5060051b60200190565b8015158114610d1457600080fd5b60008060008060808587031215611c4757600080fd5b843567ffffffffffffffff80821115611c5f57600080fd5b611c6b88838901611aba565b9550602091508187013581811115611c8257600080fd5b611c8e89828a01611aba565b955050611c9d60408801611a2d565b9350606087013581811115611cb157600080fd5b87019050601f81018813611cc457600080fd5b8035611cd7611cd282611bff565b611a89565b81815260059190911b8201830190838101908a831115611cf657600080fd5b928401925b82841015611d1d578335611d0e81611c23565b82529284019290840190611cfb565b979a9699509497505050505050565b600060208284031215611d3e57600080fd5b610cad82611a2d565b60008060408385031215611d5a57600080fd5b611d6383611a2d565b91506020830135611d7381611c23565b809150509250929050565b60008060008060808587031215611d9457600080fd5b611d9d85611a2d565b9350611dab60208601611a2d565b925060408501359150606085013567ffffffffffffffff811115611dce57600080fd5b611bb787828801611aba565b60008060408385031215611ded57600080fd5b611df683611a2d565b9150602083013567ffffffffffffffff811115611e1257600080fd5b611e1e85828601611aba565b9150509250929050565b600060208284031215611e3a57600080fd5b813567ffffffffffffffff811115611e5157600080fd5b610d8f84828501611aba565b60008060408385031215611e7057600080fd5b611e7983611a2d565b9150611e8760208401611a2d565b90509250929050565b600181811c90821680611ea457607f821691505b6020821081141561067957634e487b7160e01b600052602260045260246000fd5b60208082526010908201526f125b9d985b1a59081d1bdad95b88125160821b604082015260600190565b60006020808385031215611f0257600080fd5b825167ffffffffffffffff811115611f1957600080fd5b8301601f81018513611f2a57600080fd5b8051611f38611cd282611bff565b81815260059190911b82018301908381019087831115611f5757600080fd5b928401925b82841015611f7e578351611f6f81611c23565b82529284019290840190611f5c565b979650505050505050565b634e487b7160e01b600052603260045260246000fd5b805160208083015191908110156106795760001960209190910360031b1b16919050565b634e487b7160e01b600052601160045260246000fd5b600082821015611feb57611feb611fc3565b500390565b6000821982111561200357612003611fc3565b500190565b602080825260139082015272105b1c9958591e481a5b9a5d1a585b1a5e9959606a1b604082015260600190565b600060001982141561204957612049611fc3565b5060010190565b6001600160a01b0385811682528416602082015260408101839052608060608201819052600090612083908301846119b4565b9695505050505050565b60006020828403121561209f57600080fd5b8151610cad81611981565b634e487b7160e01b600052603160045260246000fd5b634e487b7160e01b600052600160045260246000fdfea264697066735822122076171418319dbcb861663952c341936bac4b3732e49671609b56ecf7ec6a293b64736f6c63430008090033",
  "devdoc": {
    "kind": "dev",
    "methods": {
      "burn(uint256)": {
        "params": {
          "tokenID": "tokenID of NFT to burn"
        }
      }
    },
    "title": "OpenNFTs smartcontract",
    "version": 1
  },
  "userdoc": {
    "kind": "user",
    "methods": {
      "burn(uint256)": {
        "notice": "burn NFT"
      },
      "open()": {
        "notice": "Mint NFT allowed to everyone or only collection owner"
      },
      "tokenIdNext()": {
        "notice": "tokenID of next minted NFT"
      }
    },
    "version": 1
  },
  "storageLayout": {
    "storage": [
      {
        "astId": 5409,
        "contract": "contracts/next/OpenNFTsV4.sol:OpenNFTsV4",
        "label": "_owners",
        "offset": 0,
        "slot": "0",
        "type": "t_mapping(t_uint256,t_address)"
      },
      {
        "astId": 5413,
        "contract": "contracts/next/OpenNFTsV4.sol:OpenNFTsV4",
        "label": "_balances",
        "offset": 0,
        "slot": "1",
        "type": "t_mapping(t_address,t_uint256)"
      },
      {
        "astId": 5417,
        "contract": "contracts/next/OpenNFTsV4.sol:OpenNFTsV4",
        "label": "_tokenApprovals",
        "offset": 0,
        "slot": "2",
        "type": "t_mapping(t_uint256,t_address)"
      },
      {
        "astId": 5423,
        "contract": "contracts/next/OpenNFTsV4.sol:OpenNFTsV4",
        "label": "_operatorApprovals",
        "offset": 0,
        "slot": "3",
        "type": "t_mapping(t_address,t_mapping(t_address,t_bool))"
      },
      {
        "astId": 6332,
        "contract": "contracts/next/OpenNFTsV4.sol:OpenNFTsV4",
        "label": "_openERC721MetadataInitialized",
        "offset": 0,
        "slot": "4",
        "type": "t_bool"
      },
      {
        "astId": 6334,
        "contract": "contracts/next/OpenNFTsV4.sol:OpenNFTsV4",
        "label": "_name",
        "offset": 0,
        "slot": "5",
        "type": "t_string_storage"
      },
      {
        "astId": 6336,
        "contract": "contracts/next/OpenNFTsV4.sol:OpenNFTsV4",
        "label": "_symbol",
        "offset": 0,
        "slot": "6",
        "type": "t_string_storage"
      },
      {
        "astId": 6340,
        "contract": "contracts/next/OpenNFTsV4.sol:OpenNFTsV4",
        "label": "_tokenURIs",
        "offset": 0,
        "slot": "7",
        "type": "t_mapping(t_uint256,t_string_storage)"
      },
      {
        "astId": 6009,
        "contract": "contracts/next/OpenNFTsV4.sol:OpenNFTsV4",
        "label": "_allTokens",
        "offset": 0,
        "slot": "8",
        "type": "t_array(t_uint256)dyn_storage"
      },
      {
        "astId": 6014,
        "contract": "contracts/next/OpenNFTsV4.sol:OpenNFTsV4",
        "label": "_ownedTokens",
        "offset": 0,
        "slot": "9",
        "type": "t_mapping(t_address,t_array(t_uint256)dyn_storage)"
      },
      {
        "astId": 6018,
        "contract": "contracts/next/OpenNFTsV4.sol:OpenNFTsV4",
        "label": "_ownedTokensIndex",
        "offset": 0,
        "slot": "10",
        "type": "t_mapping(t_uint256,t_uint256)"
      },
      {
        "astId": 6022,
        "contract": "contracts/next/OpenNFTsV4.sol:OpenNFTsV4",
        "label": "_allTokensIndex",
        "offset": 0,
        "slot": "11",
        "type": "t_mapping(t_uint256,t_uint256)"
      },
      {
        "astId": 5174,
        "contract": "contracts/next/OpenNFTsV4.sol:OpenNFTsV4",
        "label": "_openERC173Initialized",
        "offset": 0,
        "slot": "12",
        "type": "t_bool"
      },
      {
        "astId": 5176,
        "contract": "contracts/next/OpenNFTsV4.sol:OpenNFTsV4",
        "label": "_owner",
        "offset": 1,
        "slot": "12",
        "type": "t_address"
      },
      {
        "astId": 4987,
        "contract": "contracts/next/OpenNFTsV4.sol:OpenNFTsV4",
        "label": "initialized",
        "offset": 21,
        "slot": "12",
        "type": "t_bool"
      },
      {
        "astId": 4989,
        "contract": "contracts/next/OpenNFTsV4.sol:OpenNFTsV4",
        "label": "template",
        "offset": 0,
        "slot": "13",
        "type": "t_string_storage"
      },
      {
        "astId": 4991,
        "contract": "contracts/next/OpenNFTsV4.sol:OpenNFTsV4",
        "label": "version",
        "offset": 0,
        "slot": "14",
        "type": "t_uint256"
      },
      {
        "astId": 20838,
        "contract": "contracts/next/OpenNFTsV4.sol:OpenNFTsV4",
        "label": "tokenIdNext",
        "offset": 0,
        "slot": "15",
        "type": "t_uint256"
      },
      {
        "astId": 20841,
        "contract": "contracts/next/OpenNFTsV4.sol:OpenNFTsV4",
        "label": "open",
        "offset": 0,
        "slot": "16",
        "type": "t_bool"
      }
    ],
    "types": {
      "t_address": {
        "encoding": "inplace",
        "label": "address",
        "numberOfBytes": "20"
      },
      "t_array(t_uint256)dyn_storage": {
        "base": "t_uint256",
        "encoding": "dynamic_array",
        "label": "uint256[]",
        "numberOfBytes": "32"
      },
      "t_bool": {
        "encoding": "inplace",
        "label": "bool",
        "numberOfBytes": "1"
      },
      "t_mapping(t_address,t_array(t_uint256)dyn_storage)": {
        "encoding": "mapping",
        "key": "t_address",
        "label": "mapping(address => uint256[])",
        "numberOfBytes": "32",
        "value": "t_array(t_uint256)dyn_storage"
      },
      "t_mapping(t_address,t_bool)": {
        "encoding": "mapping",
        "key": "t_address",
        "label": "mapping(address => bool)",
        "numberOfBytes": "32",
        "value": "t_bool"
      },
      "t_mapping(t_address,t_mapping(t_address,t_bool))": {
        "encoding": "mapping",
        "key": "t_address",
        "label": "mapping(address => mapping(address => bool))",
        "numberOfBytes": "32",
        "value": "t_mapping(t_address,t_bool)"
      },
      "t_mapping(t_address,t_uint256)": {
        "encoding": "mapping",
        "key": "t_address",
        "label": "mapping(address => uint256)",
        "numberOfBytes": "32",
        "value": "t_uint256"
      },
      "t_mapping(t_uint256,t_address)": {
        "encoding": "mapping",
        "key": "t_uint256",
        "label": "mapping(uint256 => address)",
        "numberOfBytes": "32",
        "value": "t_address"
      },
      "t_mapping(t_uint256,t_string_storage)": {
        "encoding": "mapping",
        "key": "t_uint256",
        "label": "mapping(uint256 => string)",
        "numberOfBytes": "32",
        "value": "t_string_storage"
      },
      "t_mapping(t_uint256,t_uint256)": {
        "encoding": "mapping",
        "key": "t_uint256",
        "label": "mapping(uint256 => uint256)",
        "numberOfBytes": "32",
        "value": "t_uint256"
      },
      "t_string_storage": {
        "encoding": "bytes",
        "label": "string",
        "numberOfBytes": "32"
      },
      "t_uint256": {
        "encoding": "inplace",
        "label": "uint256",
        "numberOfBytes": "32"
      }
    }
  }
}