{
  "address": "0x515Dc99838Aef972CF893f597eE4FA30e7FfE659",
  "abi": [
    {
      "inputs": [
        {
          "internalType": "address",
          "name": "initialOwner",
          "type": "address"
        }
      ],
      "stateMutability": "nonpayable",
      "type": "constructor"
    },
    {
      "anonymous": false,
      "inputs": [
        {
          "indexed": true,
          "internalType": "address",
          "name": "implementation",
          "type": "address"
        },
        {
          "indexed": true,
          "internalType": "address",
          "name": "creator",
          "type": "address"
        },
        {
          "indexed": false,
          "internalType": "uint256",
          "name": "index",
          "type": "uint256"
        }
      ],
      "name": "ImplementationNew",
      "type": "event"
    },
    {
      "anonymous": false,
      "inputs": [
        {
          "indexed": true,
          "internalType": "address",
          "name": "previousOwner",
          "type": "address"
        },
        {
          "indexed": true,
          "internalType": "address",
          "name": "newOwner",
          "type": "address"
        }
      ],
      "name": "OwnershipTransferred",
      "type": "event"
    },
    {
      "anonymous": false,
      "inputs": [
        {
          "indexed": true,
          "internalType": "string",
          "name": "templateName",
          "type": "string"
        },
        {
          "indexed": true,
          "internalType": "address",
          "name": "template",
          "type": "address"
        }
      ],
      "name": "TemplateSet",
      "type": "event"
    },
    {
      "inputs": [],
      "name": "VERSION",
      "outputs": [
        {
          "internalType": "uint8",
          "name": "",
          "type": "uint8"
        }
      ],
      "stateMutability": "view",
      "type": "function"
    },
    {
      "inputs": [
        {
          "internalType": "address",
          "name": "addr",
          "type": "address"
        }
      ],
      "name": "balancesOf",
      "outputs": [
        {
          "components": [
            {
              "internalType": "address",
              "name": "nft",
              "type": "address"
            },
            {
              "internalType": "uint256",
              "name": "balanceOf",
              "type": "uint256"
            },
            {
              "internalType": "address",
              "name": "owner",
              "type": "address"
            },
            {
              "internalType": "string",
              "name": "name",
              "type": "string"
            },
            {
              "internalType": "string",
              "name": "symbol",
              "type": "string"
            },
            {
              "internalType": "uint256",
              "name": "totalSupply",
              "type": "uint256"
            }
          ],
          "internalType": "struct INFTsFactoryV2.NftData[]",
          "name": "nftData",
          "type": "tuple[]"
        }
      ],
      "stateMutability": "view",
      "type": "function"
    },
    {
      "inputs": [
        {
          "internalType": "string",
          "name": "name",
          "type": "string"
        },
        {
          "internalType": "string",
          "name": "symbol",
          "type": "string"
        },
        {
          "internalType": "string",
          "name": "templateName",
          "type": "string"
        },
        {
          "internalType": "bool[]",
          "name": "options",
          "type": "bool[]"
        }
      ],
      "name": "clone",
      "outputs": [
        {
          "internalType": "address",
          "name": "clone_",
          "type": "address"
        }
      ],
      "stateMutability": "nonpayable",
      "type": "function"
    },
    {
      "inputs": [
        {
          "internalType": "uint256",
          "name": "",
          "type": "uint256"
        }
      ],
      "name": "implementations",
      "outputs": [
        {
          "internalType": "address",
          "name": "",
          "type": "address"
        }
      ],
      "stateMutability": "view",
      "type": "function"
    },
    {
      "inputs": [
        {
          "internalType": "address[]",
          "name": "implementationsToAdd",
          "type": "address[]"
        }
      ],
      "name": "implementationsAdd",
      "outputs": [],
      "stateMutability": "nonpayable",
      "type": "function"
    },
    {
      "inputs": [],
      "name": "implementationsCount",
      "outputs": [
        {
          "internalType": "uint256",
          "name": "",
          "type": "uint256"
        }
      ],
      "stateMutability": "view",
      "type": "function"
    },
    {
      "inputs": [],
      "name": "owner",
      "outputs": [
        {
          "internalType": "address",
          "name": "",
          "type": "address"
        }
      ],
      "stateMutability": "view",
      "type": "function"
    },
    {
      "inputs": [],
      "name": "renounceOwnership",
      "outputs": [],
      "stateMutability": "nonpayable",
      "type": "function"
    },
    {
      "inputs": [
        {
          "internalType": "string",
          "name": "templateName",
          "type": "string"
        },
        {
          "internalType": "address",
          "name": "template",
          "type": "address"
        }
      ],
      "name": "templateSet",
      "outputs": [],
      "stateMutability": "nonpayable",
      "type": "function"
    },
    {
      "inputs": [
        {
          "internalType": "string",
          "name": "",
          "type": "string"
        }
      ],
      "name": "templates",
      "outputs": [
        {
          "internalType": "address",
          "name": "",
          "type": "address"
        }
      ],
      "stateMutability": "view",
      "type": "function"
    },
    {
      "inputs": [
        {
          "internalType": "address",
          "name": "newOwner",
          "type": "address"
        }
      ],
      "name": "transferOwnership",
      "outputs": [],
      "stateMutability": "nonpayable",
      "type": "function"
    }
  ],
  "transactionHash": "0x787aea8eefb777f3d43a1551ee6986f6c454264f82b6d3c2d058e3e4dcaefff2",
  "args": [
    "0x6eebAe27d69fa80f0E4C0E973A2Fed218A56880c"
  ],
  "numDeployments": 4,
  "solcInputHash": "5ddfd5463b03e204f7d8070ff8a8f1ab",
  "bytecode": "0x608060405234801561001057600080fd5b506040516200168c3803806200168c83398101604081905261003191610099565b61003a33610049565b61004381610049565b506100c9565b600080546001600160a01b038381166001600160a01b0319831681178455604051919092169283917f8be0079c531659141344cd1fd0a4f28419497f9722a3daafe3b4186f6b6457e09190a35050565b6000602082840312156100ab57600080fd5b81516001600160a01b03811681146100c257600080fd5b9392505050565b6115b380620000d96000396000f3fe608060405234801561001057600080fd5b50600436106100a95760003560e01c80638da5cb5b116100715780638da5cb5b1461012e578063b22beeda1461013f578063ba6da05014610173578063c17bae4f14610186578063f2fde38b14610197578063ffa1ad74146101aa57600080fd5b80631b6740dd146100ae5780636392a51f146100de578063715018a6146100fe57806382a1db3914610108578063845affc81461011b575b600080fd5b6100c16100bc366004610fa9565b6101c4565b6040516001600160a01b0390911681526020015b60405180910390f35b6100f16100ec3660046110d9565b61023e565b6040516100d59190611152565b61010661030b565b005b610106610116366004611213565b61034a565b6100c1610129366004611288565b6103c5565b6000546001600160a01b03166100c1565b6100c161014d3660046112a1565b80516020818301810180516002825292820191909301209152546001600160a01b031681565b6101066101813660046112de565b6103ef565b6001546040519081526020016100d5565b6101066101a53660046110d9565b610489565b6101b2600281565b60405160ff90911681526020016100d5565b60006101cf83610524565b604051630a9c216960e31b81529091506001600160a01b038216906354e10b4890610204908890889033908890600401611361565b600060405180830381600087803b15801561021e57600080fd5b505af1158015610232573d6000803e3d6000fd5b50505050949350505050565b60015460609067ffffffffffffffff81111561025c5761025c610ed6565b60405190808252806020026020018201604052801561029557816020015b610282610e8e565b81526020019060019003908161027a5790505b50905060005b600154811015610305576102d6600182815481106102bb576102bb6113dc565b6000918252602090912001546001600160a01b031684610547565b8282815181106102e8576102e86113dc565b60209081029190910101526102fe600182611408565b905061029b565b50919050565b6000546001600160a01b0316331461033e5760405162461bcd60e51b815260040161033590611420565b60405180910390fd5b6103486000610967565b565b6000546001600160a01b031633146103745760405162461bcd60e51b815260040161033590611420565b60005b818110156103c0576103ae838383818110610394576103946113dc565b90506020020160208101906103a991906110d9565b6109b7565b6103b9600182611408565b9050610377565b505050565b600181815481106103d557600080fd5b6000918252602090912001546001600160a01b0316905081565b6000546001600160a01b031633146104195760405162461bcd60e51b815260040161033590611420565b6104326001600160a01b03821662f7235960e21b610a13565b61047e5760405162461bcd60e51b815260206004820152601b60248201527f4e6f742076616c6964204f70656e4e4654732054656d706c61746500000000006044820152606401610335565b6103c0838383610a38565b6000546001600160a01b031633146104b35760405162461bcd60e51b815260040161033590611420565b6001600160a01b0381166105185760405162461bcd60e51b815260206004820152602660248201527f4f776e61626c653a206e6577206f776e657220697320746865207a65726f206160448201526564647265737360d01b6064820152608401610335565b61052181610967565b50565b600061053761053283610ae6565b610b87565b9050610542816109b7565b919050565b61054f610e8e565b60408051600580825260c082019092526000916020820160a080368337505081519192506380ac58cd60e01b9183915060009061058e5761058e6113dc565b6001600160e01b031990921660209283029190910190910152805163780e9d6360e01b90829060019081106105c5576105c56113dc565b6001600160e01b031990921660209283029190910190910152805163780e9d6360e01b90829060029081106105fc576105fc6113dc565b6001600160e01b03199092166020928302919091019091015280516307f5828d60e41b9082906003908110610633576106336113dc565b6001600160e01b03199092166020928302919091019091015260006106616001600160a01b03861683610c1f565b905080600060ff1681518110610679576106796113dc565b60200260200101511561095f576001600160a01b038581168085526040516370a0823160e01b81529186166004830152906370a082319060240160206040518083038186803b1580156106cb57600080fd5b505afa1580156106df573d6000803e3d6000fd5b505050506040513d601f19601f820116820180604052508101906107039190611455565b602084015280518190600190811061071d5761071d6113dc565b60200260200101511561082257846001600160a01b03166306fdde036040518163ffffffff1660e01b815260040160006040518083038186803b15801561076357600080fd5b505afa158015610777573d6000803e3d6000fd5b505050506040513d6000823e601f3d908101601f1916820160405261079f919081019061146e565b8360600181905250846001600160a01b03166395d89b416040518163ffffffff1660e01b815260040160006040518083038186803b1580156107e057600080fd5b505afa1580156107f4573d6000803e3d6000fd5b505050506040513d6000823e601f3d908101601f1916820160405261081c919081019061146e565b60808401525b80600260ff1681518110610838576108386113dc565b6020026020010151156108bc57846001600160a01b03166318160ddd6040518163ffffffff1660e01b815260040160206040518083038186803b15801561087e57600080fd5b505afa158015610892573d6000803e3d6000fd5b505050506040513d601f19601f820116820180604052508101906108b69190611455565b60a08401525b80600360ff16815181106108d2576108d26113dc565b60200260200101511561095f57846001600160a01b0316638da5cb5b6040518163ffffffff1660e01b815260040160206040518083038186803b15801561091857600080fd5b505afa15801561092c573d6000803e3d6000fd5b505050506040513d601f19601f8201168201806040525081019061095091906114e5565b6001600160a01b031660408401525b505092915050565b600080546001600160a01b038381166001600160a01b0319831681178455604051919092169283917f8be0079c531659141344cd1fd0a4f28419497f9722a3daafe3b4186f6b6457e09190a35050565b6109d16001600160a01b0382166380ac58cd60e01b610a13565b610a0a5760405162461bcd60e51b815260206004820152600a6024820152694e6f742045524337323160b01b6044820152606401610335565b61052181610ce2565b6000610a1e83610d72565b8015610a2f5750610a2f8383610da5565b90505b92915050565b6000546001600160a01b03163314610a625760405162461bcd60e51b815260040161033590611420565b8060028484604051610a75929190611502565b90815260405190819003602001812080546001600160a01b039384166001600160a01b031990911617905590821690610ab19085908590611502565b604051908190038120907f2e5d1f3ab97987d0ad3ab02a382994c388a94ba99ecd499e395c29e20775ab6690600090a3505050565b6000806001600160a01b0316600283604051610b029190611512565b908152604051908190036020019020546001600160a01b03161415610b585760405162461bcd60e51b815260206004820152600c60248201526b4261642054656d706c61746560a01b6044820152606401610335565b600282604051610b689190611512565b908152604051908190036020019020546001600160a01b031692915050565b6000604051733d602d80600a3d3981f3363d3d373d3d3d363d7360601b81528260601b60148201526e5af43d82803e903d91602b57fd5bf360881b60288201526037816000f09150506001600160a01b0381166105425760405162461bcd60e51b8152602060048201526016602482015275115490cc4c4d8dce8818dc99585d194819985a5b195960521b6044820152606401610335565b60606000825167ffffffffffffffff811115610c3d57610c3d610ed6565b604051908082528060200260200182016040528015610c66578160200160208202803683370190505b509050610c7284610d72565b15610a2f5760005b8351811015610cda57610ca685858381518110610c9957610c996113dc565b6020026020010151610da5565b828281518110610cb857610cb86113dc565b9115156020928302919091019091015280610cd28161152e565b915050610c7a565b509392505050565b60018054808201825560008290527fb10e2d527612073b26eecdfd717e6a320cf44b4afac2b0732d9fcbe2b7fa0cf60180546001600160a01b0319166001600160a01b038416908117909155815433927fe1fd48e37080a338bebd722213e17521b8a454ab4f0ef1b1a487025d5191e7a191610d5e9190611549565b60405190815260200160405180910390a350565b6000610d85826301ffc9a760e01b610da5565b8015610a325750610d9e826001600160e01b0319610da5565b1592915050565b604080516001600160e01b0319831660248083019190915282518083039091018152604490910182526020810180516001600160e01b03166301ffc9a760e01b179052905160009190829081906001600160a01b0387169061753090610e0c908690611512565b6000604051808303818686fa925050503d8060008114610e48576040519150601f19603f3d011682016040523d82523d6000602084013e610e4d565b606091505b5091509150602081511015610e685760009350505050610a32565b818015610e84575080806020019051810190610e849190611560565b9695505050505050565b6040518060c0016040528060006001600160a01b031681526020016000815260200160006001600160a01b031681526020016060815260200160608152602001600081525090565b634e487b7160e01b600052604160045260246000fd5b604051601f8201601f1916810167ffffffffffffffff81118282101715610f1557610f15610ed6565b604052919050565b600067ffffffffffffffff821115610f3757610f37610ed6565b50601f01601f191660200190565b600082601f830112610f5657600080fd5b8135610f69610f6482610f1d565b610eec565b818152846020838601011115610f7e57600080fd5b816020850160208301376000918101602001919091529392505050565b801515811461052157600080fd5b60008060008060808587031215610fbf57600080fd5b843567ffffffffffffffff80821115610fd757600080fd5b610fe388838901610f45565b9550602091508187013581811115610ffa57600080fd5b61100689828a01610f45565b95505060408701358181111561101b57600080fd5b61102789828a01610f45565b94505060608701358181111561103c57600080fd5b8701601f8101891361104d57600080fd5b80358281111561105f5761105f610ed6565b8060051b9250611070848401610eec565b818152928201840192848101908b85111561108a57600080fd5b928501925b848410156110b457833592506110a483610f9b565b828252928501929085019061108f565b989b979a50959850505050505050565b6001600160a01b038116811461052157600080fd5b6000602082840312156110eb57600080fd5b8135610a2f816110c4565b60005b838110156111115781810151838201526020016110f9565b83811115611120576000848401525b50505050565b6000815180845261113e8160208601602086016110f6565b601f01601f19169290920160200192915050565b60006020808301818452808551808352604092508286019150828160051b87010184880160005b8381101561120557888303603f19018552815180516001600160a01b039081168552888201518986015287820151168785015260608082015160c082870181905291906111c883880182611126565b92505050608080830151868303828801526111e38382611126565b60a0948501519790940196909652505094870194925090860190600101611179565b509098975050505050505050565b6000806020838503121561122657600080fd5b823567ffffffffffffffff8082111561123e57600080fd5b818501915085601f83011261125257600080fd5b81358181111561126157600080fd5b8660208260051b850101111561127657600080fd5b60209290920196919550909350505050565b60006020828403121561129a57600080fd5b5035919050565b6000602082840312156112b357600080fd5b813567ffffffffffffffff8111156112ca57600080fd5b6112d684828501610f45565b949350505050565b6000806000604084860312156112f357600080fd5b833567ffffffffffffffff8082111561130b57600080fd5b818601915086601f83011261131f57600080fd5b81358181111561132e57600080fd5b87602082850101111561134057600080fd5b60209283019550935050840135611356816110c4565b809150509250925092565b6080815260006113746080830187611126565b6020838203818501526113878288611126565b6001600160a01b03871660408601528481036060860152855180825282870193509082019060005b818110156113cd5784511515835293830193918301916001016113af565b50909998505050505050505050565b634e487b7160e01b600052603260045260246000fd5b634e487b7160e01b600052601160045260246000fd5b6000821982111561141b5761141b6113f2565b500190565b6020808252818101527f4f776e61626c653a2063616c6c6572206973206e6f7420746865206f776e6572604082015260600190565b60006020828403121561146757600080fd5b5051919050565b60006020828403121561148057600080fd5b815167ffffffffffffffff81111561149757600080fd5b8201601f810184136114a857600080fd5b80516114b6610f6482610f1d565b8181528560208385010111156114cb57600080fd5b6114dc8260208301602086016110f6565b95945050505050565b6000602082840312156114f757600080fd5b8151610a2f816110c4565b8183823760009101908152919050565b600082516115248184602087016110f6565b9190910192915050565b6000600019821415611542576115426113f2565b5060010190565b60008282101561155b5761155b6113f2565b500390565b60006020828403121561157257600080fd5b8151610a2f81610f9b56fea264697066735822122046aacbbc3aa7410dac0fb438f4763e645bbeba3c81b12e1b469c8a608e91d13664736f6c63430008090033",
  "devdoc": {
    "details": "is CloneFactory",
    "kind": "dev",
    "methods": {
      "balancesOf(address)": {
        "params": {
          "addr": "address of account"
        },
        "returns": {
          "nftData": "Array of nftData balances"
        }
      },
      "clone(string,string,string,bool[])": {
        "params": {
          "name": "name of Clone collection",
          "symbol": "symbol of Clone collection"
        },
        "returns": {
          "clone_": "Address of Clone collection"
        }
      },
      "implementationsAdd(address[])": {
        "params": {
          "implementationsToAdd": ": new implementations addresses"
        }
      },
      "implementationsCount()": {
        "returns": {
          "_0": "count : number of implementations"
        }
      },
      "owner()": {
        "details": "Returns the address of the current owner."
      },
      "renounceOwnership()": {
        "details": "Leaves the contract without owner. It will not be possible to call `onlyOwner` functions anymore. Can only be called by the current owner. NOTE: Renouncing ownership will leave the contract without an owner, thereby removing any functionality that is only available to the owner."
      },
      "templateSet(string,address)": {
        "params": {
          "template": "Address of the template",
          "templateName": "Name of the template"
        }
      },
      "transferOwnership(address)": {
        "details": "Transfers ownership of the contract to a new account (`newOwner`). Can only be called by the current owner."
      }
    },
    "title": "NFTsFactory smartcontract",
    "version": 1
  },
  "userdoc": {
    "events": {
      "ImplementationNew(address,address,uint256)": {
        "notice": "New Implementation Event"
      },
      "TemplateSet(string,address)": {
        "notice": "Set Template Event"
      }
    },
    "kind": "user",
    "methods": {
      "balancesOf(address)": {
        "notice": "balancesOf address for each implementations"
      },
      "clone(string,string,string,bool[])": {
        "notice": "clone template"
      },
      "implementations(uint256)": {
        "notice": "Implementations addresses"
      },
      "implementationsAdd(address[])": {
        "notice": "Add Implementations, public onlyOwner"
      },
      "implementationsCount()": {
        "notice": "Implementations count"
      },
      "templateSet(string,address)": {
        "notice": "Set Template, overrides generic CloneFactory"
      },
      "templates(string)": {
        "notice": "Named Templates"
      }
    },
    "notice": "Templates are OPEN_NFTS contractsImplementations are ERC721 contracts (including OPEN_NFTS clones)Factory can clone OPEN_NFTs templates to implementationsFactory can also add ERC721 contracts to implementations",
    "version": 1
  },
  "storageLayout": {
    "storage": [
      {
        "astId": 2412,
        "contract": "contracts/new/NFTsFactoryV2.sol:NFTsFactoryV2",
        "label": "_owner",
        "offset": 0,
        "slot": "0",
        "type": "t_address"
      },
      {
        "astId": 6284,
        "contract": "contracts/new/NFTsFactoryV2.sol:NFTsFactoryV2",
        "label": "implementations",
        "offset": 0,
        "slot": "1",
        "type": "t_array(t_address)dyn_storage"
      },
      {
        "astId": 6289,
        "contract": "contracts/new/NFTsFactoryV2.sol:NFTsFactoryV2",
        "label": "templates",
        "offset": 0,
        "slot": "2",
        "type": "t_mapping(t_string_memory_ptr,t_address)"
      }
    ],
    "types": {
      "t_address": {
        "encoding": "inplace",
        "label": "address",
        "numberOfBytes": "20"
      },
      "t_array(t_address)dyn_storage": {
        "base": "t_address",
        "encoding": "dynamic_array",
        "label": "address[]",
        "numberOfBytes": "32"
      },
      "t_mapping(t_string_memory_ptr,t_address)": {
        "encoding": "mapping",
        "key": "t_string_memory_ptr",
        "label": "mapping(string => address)",
        "numberOfBytes": "32",
        "value": "t_address"
      },
      "t_string_memory_ptr": {
        "encoding": "bytes",
        "label": "string",
        "numberOfBytes": "32"
      }
    }
  }
}