{
  "address": "0xA6f680a9f1faDBdb03FDDbab2107344e29830bFc",
  "abi": [
    {
      "inputs": [
        {
          "internalType": "address",
          "name": "initialOwner",
          "type": "address"
        }
      ],
      "stateMutability": "nonpayable",
      "type": "constructor"
    },
    {
      "anonymous": false,
      "inputs": [
        {
          "indexed": true,
          "internalType": "address",
          "name": "implementation",
          "type": "address"
        },
        {
          "indexed": true,
          "internalType": "address",
          "name": "creator",
          "type": "address"
        },
        {
          "indexed": false,
          "internalType": "uint256",
          "name": "count",
          "type": "uint256"
        }
      ],
      "name": "ImplementationNew",
      "type": "event"
    },
    {
      "anonymous": false,
      "inputs": [
        {
          "indexed": true,
          "internalType": "address",
          "name": "previousOwner",
          "type": "address"
        },
        {
          "indexed": true,
          "internalType": "address",
          "name": "newOwner",
          "type": "address"
        }
      ],
      "name": "OwnershipTransferred",
      "type": "event"
    },
    {
      "anonymous": false,
      "inputs": [
        {
          "indexed": true,
          "internalType": "address",
          "name": "template",
          "type": "address"
        },
        {
          "indexed": true,
          "internalType": "string",
          "name": "templateName",
          "type": "string"
        }
      ],
      "name": "TemplateNew",
      "type": "event"
    },
    {
      "inputs": [
        {
          "internalType": "address",
          "name": "addr",
          "type": "address"
        }
      ],
      "name": "balancesOf",
      "outputs": [
        {
          "components": [
            {
              "internalType": "address",
              "name": "nft",
              "type": "address"
            },
            {
              "internalType": "uint256",
              "name": "balanceOf",
              "type": "uint256"
            },
            {
              "internalType": "address",
              "name": "owner",
              "type": "address"
            },
            {
              "internalType": "string",
              "name": "name",
              "type": "string"
            },
            {
              "internalType": "string",
              "name": "symbol",
              "type": "string"
            },
            {
              "internalType": "uint256",
              "name": "totalSupply",
              "type": "uint256"
            }
          ],
          "internalType": "struct INFTsFactoryV2.NftData[]",
          "name": "nftData",
          "type": "tuple[]"
        }
      ],
      "stateMutability": "view",
      "type": "function"
    },
    {
      "inputs": [
        {
          "internalType": "string",
          "name": "name",
          "type": "string"
        },
        {
          "internalType": "string",
          "name": "symbol",
          "type": "string"
        },
        {
          "internalType": "string",
          "name": "templateName",
          "type": "string"
        }
      ],
      "name": "clone",
      "outputs": [
        {
          "internalType": "address",
          "name": "clone_",
          "type": "address"
        }
      ],
      "stateMutability": "nonpayable",
      "type": "function"
    },
    {
      "inputs": [
        {
          "internalType": "uint256",
          "name": "",
          "type": "uint256"
        }
      ],
      "name": "implementations",
      "outputs": [
        {
          "internalType": "address",
          "name": "",
          "type": "address"
        }
      ],
      "stateMutability": "view",
      "type": "function"
    },
    {
      "inputs": [
        {
          "internalType": "address[]",
          "name": "implementationsToAdd",
          "type": "address[]"
        }
      ],
      "name": "implementationsAdd",
      "outputs": [],
      "stateMutability": "nonpayable",
      "type": "function"
    },
    {
      "inputs": [],
      "name": "implementationsCount",
      "outputs": [
        {
          "internalType": "uint256",
          "name": "",
          "type": "uint256"
        }
      ],
      "stateMutability": "view",
      "type": "function"
    },
    {
      "inputs": [],
      "name": "owner",
      "outputs": [
        {
          "internalType": "address",
          "name": "",
          "type": "address"
        }
      ],
      "stateMutability": "view",
      "type": "function"
    },
    {
      "inputs": [],
      "name": "renounceOwnership",
      "outputs": [],
      "stateMutability": "nonpayable",
      "type": "function"
    },
    {
      "inputs": [
        {
          "internalType": "string",
          "name": "templateName",
          "type": "string"
        },
        {
          "internalType": "address",
          "name": "template",
          "type": "address"
        }
      ],
      "name": "templateSet",
      "outputs": [],
      "stateMutability": "nonpayable",
      "type": "function"
    },
    {
      "inputs": [
        {
          "internalType": "string",
          "name": "",
          "type": "string"
        }
      ],
      "name": "templates",
      "outputs": [
        {
          "internalType": "address",
          "name": "",
          "type": "address"
        }
      ],
      "stateMutability": "view",
      "type": "function"
    },
    {
      "inputs": [
        {
          "internalType": "address",
          "name": "newOwner",
          "type": "address"
        }
      ],
      "name": "transferOwnership",
      "outputs": [],
      "stateMutability": "nonpayable",
      "type": "function"
    },
    {
      "inputs": [],
      "name": "version",
      "outputs": [
        {
          "internalType": "uint8",
          "name": "",
          "type": "uint8"
        }
      ],
      "stateMutability": "view",
      "type": "function"
    }
  ],
  "transactionHash": "0x1ccd5a821e83b3ff1b2da7b78422714a5151fc0ef2bfdea8235b5510b944d308",
  "args": [
    "0x6eebAe27d69fa80f0E4C0E973A2Fed218A56880c"
  ],
  "numDeployments": 1,
  "solcInputHash": "98ec254a37df7be518ae7bf6722df613",
  "bytecode": "0x60806040523480156200001157600080fd5b50604051620028ff380380620028ff8339818101604052810190620000379190620001a5565b620000576200004b6200006f60201b60201c565b6200007760201b60201c565b62000068816200007760201b60201c565b50620001d7565b600033905090565b60008060009054906101000a900473ffffffffffffffffffffffffffffffffffffffff169050816000806101000a81548173ffffffffffffffffffffffffffffffffffffffff021916908373ffffffffffffffffffffffffffffffffffffffff1602179055508173ffffffffffffffffffffffffffffffffffffffff168173ffffffffffffffffffffffffffffffffffffffff167f8be0079c531659141344cd1fd0a4f28419497f9722a3daafe3b4186f6b6457e060405160405180910390a35050565b600080fd5b600073ffffffffffffffffffffffffffffffffffffffff82169050919050565b60006200016d8262000140565b9050919050565b6200017f8162000160565b81146200018b57600080fd5b50565b6000815190506200019f8162000174565b92915050565b600060208284031215620001be57620001bd6200013b565b5b6000620001ce848285016200018e565b91505092915050565b61271880620001e76000396000f3fe608060405234801561001057600080fd5b50600436106100a95760003560e01c80638da5cb5b116100715780638da5cb5b14610152578063b22beeda14610170578063ba6da050146101a0578063c17bae4f146101bc578063ddf0fc8f146101da578063f2fde38b1461020a576100a9565b806354fd4d50146100ae5780636392a51f146100cc578063715018a6146100fc57806382a1db3914610106578063845affc814610122575b600080fd5b6100b6610226565b6040516100c39190611791565b60405180910390f35b6100e660048036038101906100e1919061181e565b61022b565b6040516100f39190611a5e565b60405180910390f35b610104610318565b005b610120600480360381019061011b9190611ae5565b6103a0565b005b61013c60048036038101906101379190611b5e565b610473565b6040516101499190611b9a565b60405180910390f35b61015a6104b2565b6040516101679190611b9a565b60405180910390f35b61018a60048036038101906101859190611ce5565b6104db565b6040516101979190611b9a565b60405180910390f35b6101ba60048036038101906101b59190611d84565b610524565b005b6101c46106ce565b6040516101d19190611df3565b60405180910390f35b6101f460048036038101906101ef9190611e0e565b6106db565b6040516102019190611b9a565b60405180910390f35b610224600480360381019061021f919061181e565b6109f2565b005b600281565b606060018054905067ffffffffffffffff81111561024c5761024b611bba565b5b60405190808252806020026020018201604052801561028557816020015b610272611713565b81526020019060019003908161026a5790505b50905060005b600180549050811015610312576102e0600182815481106102af576102ae611eb5565b5b9060005260206000200160009054906101000a900473ffffffffffffffffffffffffffffffffffffffff1684610aea565b8282815181106102f3576102f2611eb5565b5b602002602001018190525060018161030b9190611f13565b905061028b565b50919050565b610320611194565b73ffffffffffffffffffffffffffffffffffffffff1661033e6104b2565b73ffffffffffffffffffffffffffffffffffffffff1614610394576040517f08c379a000000000000000000000000000000000000000000000000000000000815260040161038b90611fc6565b60405180910390fd5b61039e600061119c565b565b6103a8611194565b73ffffffffffffffffffffffffffffffffffffffff166103c66104b2565b73ffffffffffffffffffffffffffffffffffffffff161461041c576040517f08c379a000000000000000000000000000000000000000000000000000000000815260040161041390611fc6565b60405180910390fd5b60005b8282905081101561046e5761045a8383838181106104405761043f611eb5565b5b9050602002016020810190610455919061181e565b611260565b6001816104679190611f13565b905061041f565b505050565b6001818154811061048357600080fd5b906000526020600020016000915054906101000a900473ffffffffffffffffffffffffffffffffffffffff1681565b60008060009054906101000a900473ffffffffffffffffffffffffffffffffffffffff16905090565b6002818051602081018201805184825260208301602085012081835280955050505050506000915054906101000a900473ffffffffffffffffffffffffffffffffffffffff1681565b61052c611194565b73ffffffffffffffffffffffffffffffffffffffff1661054a6104b2565b73ffffffffffffffffffffffffffffffffffffffff16146105a0576040517f08c379a000000000000000000000000000000000000000000000000000000000815260040161059790611fc6565b60405180910390fd5b6105d06380ac58cd60e01b8273ffffffffffffffffffffffffffffffffffffffff166112db90919063ffffffff16565b61060f576040517f08c379a000000000000000000000000000000000000000000000000000000000815260040161060690612032565b60405180910390fd5b8060028484604051610622929190612082565b908152602001604051809103902060006101000a81548173ffffffffffffffffffffffffffffffffffffffff021916908373ffffffffffffffffffffffffffffffffffffffff160217905550828260405161067e929190612082565b60405180910390208173ffffffffffffffffffffffffffffffffffffffff167f7ef32a1c1ccb487fb9a5968c44a00b054a71860d72da8bec23ac75cfe646671260405160405180910390a3505050565b6000600180549050905090565b6000806002836040516106ee91906120cc565b908152602001604051809103902060009054906101000a900473ffffffffffffffffffffffffffffffffffffffff169050600073ffffffffffffffffffffffffffffffffffffffff168173ffffffffffffffffffffffffffffffffffffffff16141561078f576040517f08c379a00000000000000000000000000000000000000000000000000000000081526004016107869061212f565b60405180910390fd5b6107d87fd94a1db2000000000000000000000000000000000000000000000000000000008273ffffffffffffffffffffffffffffffffffffffff166112db90919063ffffffff16565b8061082857506108277f9e4ad480000000000000000000000000000000000000000000000000000000008273ffffffffffffffffffffffffffffffffffffffff166112db90919063ffffffff16565b5b610867576040517f08c379a000000000000000000000000000000000000000000000000000000000815260040161085e906121c1565b60405180910390fd5b6108ae60028460405161087a91906120cc565b908152602001604051809103902060009054906101000a900473ffffffffffffffffffffffffffffffffffffffff16611300565b91506108f97fd94a1db2000000000000000000000000000000000000000000000000000000008273ffffffffffffffffffffffffffffffffffffffff166112db90919063ffffffff16565b15610970578173ffffffffffffffffffffffffffffffffffffffff16634cd88b7686866040518363ffffffff1660e01b815260040161093992919061221a565b600060405180830381600087803b15801561095357600080fd5b505af1158015610967573d6000803e3d6000fd5b505050506109ea565b8173ffffffffffffffffffffffffffffffffffffffff16635c108a438686610996611194565b60006040518563ffffffff1660e01b81526004016109b7949392919061226c565b600060405180830381600087803b1580156109d157600080fd5b505af11580156109e5573d6000803e3d6000fd5b505050505b509392505050565b6109fa611194565b73ffffffffffffffffffffffffffffffffffffffff16610a186104b2565b73ffffffffffffffffffffffffffffffffffffffff1614610a6e576040517f08c379a0000000000000000000000000000000000000000000000000000000008152600401610a6590611fc6565b60405180910390fd5b600073ffffffffffffffffffffffffffffffffffffffff168173ffffffffffffffffffffffffffffffffffffffff161415610ade576040517f08c379a0000000000000000000000000000000000000000000000000000000008152600401610ad590612331565b60405180910390fd5b610ae78161119c565b50565b610af2611713565b6000600567ffffffffffffffff811115610b0f57610b0e611bba565b5b604051908082528060200260200182016040528015610b3d5781602001602082028036833780820191505090505b5090506380ac58cd60e01b81600060ff1681518110610b5f57610b5e611eb5565b5b60200260200101907bffffffffffffffffffffffffffffffffffffffffffffffffffffffff191690817bffffffffffffffffffffffffffffffffffffffffffffffffffffffff19168152505063780e9d6360e01b81600160ff1681518110610bca57610bc9611eb5565b5b60200260200101907bffffffffffffffffffffffffffffffffffffffffffffffffffffffff191690817bffffffffffffffffffffffffffffffffffffffffffffffffffffffff19168152505063780e9d6360e01b81600260ff1681518110610c3557610c34611eb5565b5b60200260200101907bffffffffffffffffffffffffffffffffffffffffffffffffffffffff191690817bffffffffffffffffffffffffffffffffffffffffffffffffffffffff1916815250507fd94a1db20000000000000000000000000000000000000000000000000000000081600360ff1681518110610cb957610cb8611eb5565b5b60200260200101907bffffffffffffffffffffffffffffffffffffffffffffffffffffffff191690817bffffffffffffffffffffffffffffffffffffffffffffffffffffffff1916815250507f9e4ad4800000000000000000000000000000000000000000000000000000000081600460ff1681518110610d3d57610d3c611eb5565b5b60200260200101907bffffffffffffffffffffffffffffffffffffffffffffffffffffffff191690817bffffffffffffffffffffffffffffffffffffffffffffffffffffffff1916815250506000610db4828673ffffffffffffffffffffffffffffffffffffffff1661131b90919063ffffffff16565b905080600060ff1681518110610dcd57610dcc611eb5565b5b60200260200101511561118c5784836000019073ffffffffffffffffffffffffffffffffffffffff16908173ffffffffffffffffffffffffffffffffffffffff16815250508473ffffffffffffffffffffffffffffffffffffffff166370a08231856040518263ffffffff1660e01b8152600401610e4b9190611b9a565b60206040518083038186803b158015610e6357600080fd5b505afa158015610e77573d6000803e3d6000fd5b505050506040513d601f19601f82011682018060405250810190610e9b9190612366565b83602001818152505080600160ff1681518110610ebb57610eba611eb5565b5b602002602001015115610fdf578473ffffffffffffffffffffffffffffffffffffffff166306fdde036040518163ffffffff1660e01b815260040160006040518083038186803b158015610f0e57600080fd5b505afa158015610f22573d6000803e3d6000fd5b505050506040513d6000823e3d601f19601f82011682018060405250810190610f4b9190612403565b83606001819052508473ffffffffffffffffffffffffffffffffffffffff166395d89b416040518163ffffffff1660e01b815260040160006040518083038186803b158015610f9957600080fd5b505afa158015610fad573d6000803e3d6000fd5b505050506040513d6000823e3d601f19601f82011682018060405250810190610fd69190612403565b83608001819052505b80600260ff1681518110610ff657610ff5611eb5565b5b60200260200101511561108b578473ffffffffffffffffffffffffffffffffffffffff166318160ddd6040518163ffffffff1660e01b815260040160206040518083038186803b15801561104957600080fd5b505afa15801561105d573d6000803e3d6000fd5b505050506040513d601f19601f820116820180604052508101906110819190612366565b8360a00181815250505b80600360ff16815181106110a2576110a1611eb5565b5b6020026020010151806110d0575080600460ff16815181106110c7576110c6611eb5565b5b60200260200101515b1561118b578473ffffffffffffffffffffffffffffffffffffffff16638da5cb5b6040518163ffffffff1660e01b815260040160206040518083038186803b15801561111b57600080fd5b505afa15801561112f573d6000803e3d6000fd5b505050506040513d601f19601f820116820180604052508101906111539190612461565b836040019073ffffffffffffffffffffffffffffffffffffffff16908173ffffffffffffffffffffffffffffffffffffffff16815250505b5b505092915050565b600033905090565b60008060009054906101000a900473ffffffffffffffffffffffffffffffffffffffff169050816000806101000a81548173ffffffffffffffffffffffffffffffffffffffff021916908373ffffffffffffffffffffffffffffffffffffffff1602179055508173ffffffffffffffffffffffffffffffffffffffff168173ffffffffffffffffffffffffffffffffffffffff167f8be0079c531659141344cd1fd0a4f28419497f9722a3daafe3b4186f6b6457e060405160405180910390a35050565b6112906380ac58cd60e01b8273ffffffffffffffffffffffffffffffffffffffff166112db90919063ffffffff16565b6112cf576040517f08c379a00000000000000000000000000000000000000000000000000000000081526004016112c690612500565b60405180910390fd5b6112d8816113ed565b50565b60006112e6836114c6565b80156112f857506112f78383611513565b5b905092915050565b600061130b8261163e565b9050611316816113ed565b919050565b60606000825167ffffffffffffffff81111561133a57611339611bba565b5b6040519080825280602002602001820160405280156113685781602001602082028036833780820191505090505b509050611374846114c6565b156113e35760005b83518110156113e1576113a98585838151811061139c5761139b611eb5565b5b6020026020010151611513565b8282815181106113bc576113bb611eb5565b5b60200260200101901515908115158152505080806113d990612520565b91505061137c565b505b8091505092915050565b6001819080600181540180825580915050600190039060005260206000200160009091909190916101000a81548173ffffffffffffffffffffffffffffffffffffffff021916908373ffffffffffffffffffffffffffffffffffffffff160217905550611458611194565b73ffffffffffffffffffffffffffffffffffffffff168173ffffffffffffffffffffffffffffffffffffffff167fe1fd48e37080a338bebd722213e17521b8a454ab4f0ef1b1a487025d5191e7a16114ae6106ce565b6040516114bb9190611df3565b60405180910390a350565b60006114f2827f01ffc9a700000000000000000000000000000000000000000000000000000000611513565b801561150c575061150a8263ffffffff60e01b611513565b155b9050919050565b6000806301ffc9a760e01b8360405160240161152f91906125a4565b604051602081830303815290604052907bffffffffffffffffffffffffffffffffffffffffffffffffffffffff19166020820180517bffffffffffffffffffffffffffffffffffffffffffffffffffffffff838183161783525050505090506000808573ffffffffffffffffffffffffffffffffffffffff16617530846040516115b99190612606565b6000604051808303818686fa925050503d80600081146115f5576040519150601f19603f3d011682016040523d82523d6000602084013e6115fa565b606091505b50915091506020815110156116155760009350505050611638565b8180156116325750808060200190518101906116319190612649565b5b93505050505b92915050565b60006040517f3d602d80600a3d3981f3363d3d373d3d3d363d7300000000000000000000000081528260601b60148201527f5af43d82803e903d91602b57fd5bf3000000000000000000000000000000000060288201526037816000f0915050600073ffffffffffffffffffffffffffffffffffffffff168173ffffffffffffffffffffffffffffffffffffffff16141561170e576040517f08c379a0000000000000000000000000000000000000000000000000000000008152600401611705906126c2565b60405180910390fd5b919050565b6040518060c00160405280600073ffffffffffffffffffffffffffffffffffffffff16815260200160008152602001600073ffffffffffffffffffffffffffffffffffffffff1681526020016060815260200160608152602001600081525090565b600060ff82169050919050565b61178b81611775565b82525050565b60006020820190506117a66000830184611782565b92915050565b6000604051905090565b600080fd5b600080fd5b600073ffffffffffffffffffffffffffffffffffffffff82169050919050565b60006117eb826117c0565b9050919050565b6117fb816117e0565b811461180657600080fd5b50565b600081359050611818816117f2565b92915050565b600060208284031215611834576118336117b6565b5b600061184284828501611809565b91505092915050565b600081519050919050565b600082825260208201905092915050565b6000819050602082019050919050565b611880816117e0565b82525050565b6000819050919050565b61189981611886565b82525050565b600081519050919050565b600082825260208201905092915050565b60005b838110156118d95780820151818401526020810190506118be565b838111156118e8576000848401525b50505050565b6000601f19601f8301169050919050565b600061190a8261189f565b61191481856118aa565b93506119248185602086016118bb565b61192d816118ee565b840191505092915050565b600060c0830160008301516119506000860182611877565b5060208301516119636020860182611890565b5060408301516119766040860182611877565b506060830151848203606086015261198e82826118ff565b915050608083015184820360808601526119a882826118ff565b91505060a08301516119bd60a0860182611890565b508091505092915050565b60006119d48383611938565b905092915050565b6000602082019050919050565b60006119f48261184b565b6119fe8185611856565b935083602082028501611a1085611867565b8060005b85811015611a4c5784840389528151611a2d85826119c8565b9450611a38836119dc565b925060208a01995050600181019050611a14565b50829750879550505050505092915050565b60006020820190508181036000830152611a7881846119e9565b905092915050565b600080fd5b600080fd5b600080fd5b60008083601f840112611aa557611aa4611a80565b5b8235905067ffffffffffffffff811115611ac257611ac1611a85565b5b602083019150836020820283011115611ade57611add611a8a565b5b9250929050565b60008060208385031215611afc57611afb6117b6565b5b600083013567ffffffffffffffff811115611b1a57611b196117bb565b5b611b2685828601611a8f565b92509250509250929050565b611b3b81611886565b8114611b4657600080fd5b50565b600081359050611b5881611b32565b92915050565b600060208284031215611b7457611b736117b6565b5b6000611b8284828501611b49565b91505092915050565b611b94816117e0565b82525050565b6000602082019050611baf6000830184611b8b565b92915050565b600080fd5b7f4e487b7100000000000000000000000000000000000000000000000000000000600052604160045260246000fd5b611bf2826118ee565b810181811067ffffffffffffffff82111715611c1157611c10611bba565b5b80604052505050565b6000611c246117ac565b9050611c308282611be9565b919050565b600067ffffffffffffffff821115611c5057611c4f611bba565b5b611c59826118ee565b9050602081019050919050565b82818337600083830152505050565b6000611c88611c8384611c35565b611c1a565b905082815260208101848484011115611ca457611ca3611bb5565b5b611caf848285611c66565b509392505050565b600082601f830112611ccc57611ccb611a80565b5b8135611cdc848260208601611c75565b91505092915050565b600060208284031215611cfb57611cfa6117b6565b5b600082013567ffffffffffffffff811115611d1957611d186117bb565b5b611d2584828501611cb7565b91505092915050565b60008083601f840112611d4457611d43611a80565b5b8235905067ffffffffffffffff811115611d6157611d60611a85565b5b602083019150836001820283011115611d7d57611d7c611a8a565b5b9250929050565b600080600060408486031215611d9d57611d9c6117b6565b5b600084013567ffffffffffffffff811115611dbb57611dba6117bb565b5b611dc786828701611d2e565b93509350506020611dda86828701611809565b9150509250925092565b611ded81611886565b82525050565b6000602082019050611e086000830184611de4565b92915050565b600080600060608486031215611e2757611e266117b6565b5b600084013567ffffffffffffffff811115611e4557611e446117bb565b5b611e5186828701611cb7565b935050602084013567ffffffffffffffff811115611e7257611e716117bb565b5b611e7e86828701611cb7565b925050604084013567ffffffffffffffff811115611e9f57611e9e6117bb565b5b611eab86828701611cb7565b9150509250925092565b7f4e487b7100000000000000000000000000000000000000000000000000000000600052603260045260246000fd5b7f4e487b7100000000000000000000000000000000000000000000000000000000600052601160045260246000fd5b6000611f1e82611886565b9150611f2983611886565b9250827fffffffffffffffffffffffffffffffffffffffffffffffffffffffffffffffff03821115611f5e57611f5d611ee4565b5b828201905092915050565b600082825260208201905092915050565b7f4f776e61626c653a2063616c6c6572206973206e6f7420746865206f776e6572600082015250565b6000611fb0602083611f69565b9150611fbb82611f7a565b602082019050919050565b60006020820190508181036000830152611fdf81611fa3565b9050919050565b7f54656d706c617465206e6f742045524337323120636f6e747261637400000000600082015250565b600061201c601c83611f69565b915061202782611fe6565b602082019050919050565b6000602082019050818103600083015261204b8161200f565b9050919050565b600081905092915050565b60006120698385612052565b9350612076838584611c66565b82840190509392505050565b600061208f82848661205d565b91508190509392505050565b60006120a68261189f565b6120b08185612052565b93506120c08185602086016118bb565b80840191505092915050565b60006120d8828461209b565b915081905092915050565b7f4261642054656d706c6174650000000000000000000000000000000000000000600082015250565b6000612119600c83611f69565b9150612124826120e3565b602082019050919050565b600060208201905081810360008301526121488161210c565b9050919050565b7f54656d706c617465206e6f74204f70656e4e465473205632206f72205633206360008201527f6f6e747261637400000000000000000000000000000000000000000000000000602082015250565b60006121ab602783611f69565b91506121b68261214f565b604082019050919050565b600060208201905081810360008301526121da8161219e565b9050919050565b60006121ec8261189f565b6121f68185611f69565b93506122068185602086016118bb565b61220f816118ee565b840191505092915050565b6000604082019050818103600083015261223481856121e1565b9050818103602083015261224881846121e1565b90509392505050565b60008115159050919050565b61226681612251565b82525050565b6000608082019050818103600083015261228681876121e1565b9050818103602083015261229a81866121e1565b90506122a96040830185611b8b565b6122b6606083018461225d565b95945050505050565b7f4f776e61626c653a206e6577206f776e657220697320746865207a65726f206160008201527f6464726573730000000000000000000000000000000000000000000000000000602082015250565b600061231b602683611f69565b9150612326826122bf565b604082019050919050565b6000602082019050818103600083015261234a8161230e565b9050919050565b60008151905061236081611b32565b92915050565b60006020828403121561237c5761237b6117b6565b5b600061238a84828501612351565b91505092915050565b60006123a66123a184611c35565b611c1a565b9050828152602081018484840111156123c2576123c1611bb5565b5b6123cd8482856118bb565b509392505050565b600082601f8301126123ea576123e9611a80565b5b81516123fa848260208601612393565b91505092915050565b600060208284031215612419576124186117b6565b5b600082015167ffffffffffffffff811115612437576124366117bb565b5b612443848285016123d5565b91505092915050565b60008151905061245b816117f2565b92915050565b600060208284031215612477576124766117b6565b5b60006124858482850161244c565b91505092915050565b7f496d706c656d656e746174696f6e206e6f742045524337323120636f6e74726160008201527f6374000000000000000000000000000000000000000000000000000000000000602082015250565b60006124ea602283611f69565b91506124f58261248e565b604082019050919050565b60006020820190508181036000830152612519816124dd565b9050919050565b600061252b82611886565b91507fffffffffffffffffffffffffffffffffffffffffffffffffffffffffffffffff82141561255e5761255d611ee4565b5b600182019050919050565b60007fffffffff0000000000000000000000000000000000000000000000000000000082169050919050565b61259e81612569565b82525050565b60006020820190506125b96000830184612595565b92915050565b600081519050919050565b600081905092915050565b60006125e0826125bf565b6125ea81856125ca565b93506125fa8185602086016118bb565b80840191505092915050565b600061261282846125d5565b915081905092915050565b61262681612251565b811461263157600080fd5b50565b6000815190506126438161261d565b92915050565b60006020828403121561265f5761265e6117b6565b5b600061266d84828501612634565b91505092915050565b7f455243313136373a20637265617465206661696c656400000000000000000000600082015250565b60006126ac601683611f69565b91506126b782612676565b602082019050919050565b600060208201905081810360008301526126db8161269f565b905091905056fea26469706673582212204e7b52c969c433e96bad012b8caf60f3f146adb873e065da5ad8539fc93008ab64736f6c63430008090033",
  "devdoc": {
    "details": "is CloneFactory",
    "kind": "dev",
    "methods": {
      "balancesOf(address)": {
        "params": {
          "addr": "address of account"
        },
        "returns": {
          "nftData": "Array of nftData balances"
        }
      },
      "clone(string,string,string)": {
        "params": {
          "name": "name of Clone collection",
          "symbol": "symbol of Clone collection"
        },
        "returns": {
          "clone_": "Address of Clone collection"
        }
      },
      "implementationsAdd(address[])": {
        "params": {
          "implementationsToAdd": ": new implementations addresses"
        }
      },
      "implementationsCount()": {
        "returns": {
          "_0": "count : number of implementations"
        }
      },
      "owner()": {
        "details": "Returns the address of the current owner."
      },
      "renounceOwnership()": {
        "details": "Leaves the contract without owner. It will not be possible to call `onlyOwner` functions anymore. Can only be called by the current owner. NOTE: Renouncing ownership will leave the contract without an owner, thereby removing any functionality that is only available to the owner."
      },
      "transferOwnership(address)": {
        "details": "Transfers ownership of the contract to a new account (`newOwner`). Can only be called by the current owner."
      }
    },
    "title": "NFTsFactory smartcontract",
    "version": 1
  },
  "userdoc": {
    "kind": "user",
    "methods": {
      "balancesOf(address)": {
        "notice": "balancesOf address"
      },
      "clone(string,string,string)": {
        "notice": "clone template"
      },
      "implementations(uint256)": {
        "notice": "Implementations addresses"
      },
      "implementationsAdd(address[])": {
        "notice": "ADD Implementations public onlyOwner"
      },
      "implementationsCount()": {
        "notice": "Implementations count"
      }
    },
    "version": 1
  },
  "storageLayout": {
    "storage": [
      {
        "astId": 490,
        "contract": "contracts/new/NFTsFactoryV2.sol:NFTsFactoryV2",
        "label": "_owner",
        "offset": 0,
        "slot": "0",
        "type": "t_address"
      },
      {
        "astId": 1416,
        "contract": "contracts/new/NFTsFactoryV2.sol:NFTsFactoryV2",
        "label": "implementations",
        "offset": 0,
        "slot": "1",
        "type": "t_array(t_address)dyn_storage"
      },
      {
        "astId": 1536,
        "contract": "contracts/new/NFTsFactoryV2.sol:NFTsFactoryV2",
        "label": "templates",
        "offset": 0,
        "slot": "2",
        "type": "t_mapping(t_string_memory_ptr,t_address)"
      }
    ],
    "types": {
      "t_address": {
        "encoding": "inplace",
        "label": "address",
        "numberOfBytes": "20"
      },
      "t_array(t_address)dyn_storage": {
        "base": "t_address",
        "encoding": "dynamic_array",
        "label": "address[]",
        "numberOfBytes": "32"
      },
      "t_mapping(t_string_memory_ptr,t_address)": {
        "encoding": "mapping",
        "key": "t_string_memory_ptr",
        "label": "mapping(string => address)",
        "numberOfBytes": "32",
        "value": "t_address"
      },
      "t_string_memory_ptr": {
        "encoding": "bytes",
        "label": "string",
        "numberOfBytes": "32"
      }
    }
  }
}