{
  "address": "0x21BB8f445ea850cA03d7EdE262fdC83Af913c925",
  "abi": [
    {
      "anonymous": false,
      "inputs": [
        {
          "indexed": true,
          "internalType": "address",
          "name": "owner",
          "type": "address"
        },
        {
          "indexed": true,
          "internalType": "address",
          "name": "approved",
          "type": "address"
        },
        {
          "indexed": true,
          "internalType": "uint256",
          "name": "tokenId",
          "type": "uint256"
        }
      ],
      "name": "Approval",
      "type": "event"
    },
    {
      "anonymous": false,
      "inputs": [
        {
          "indexed": true,
          "internalType": "address",
          "name": "owner",
          "type": "address"
        },
        {
          "indexed": true,
          "internalType": "address",
          "name": "operator",
          "type": "address"
        },
        {
          "indexed": false,
          "internalType": "bool",
          "name": "approved",
          "type": "bool"
        }
      ],
      "name": "ApprovalForAll",
      "type": "event"
    },
    {
      "anonymous": false,
      "inputs": [
        {
          "indexed": true,
          "internalType": "address",
          "name": "previousOwner",
          "type": "address"
        },
        {
          "indexed": true,
          "internalType": "address",
          "name": "newOwner",
          "type": "address"
        }
      ],
      "name": "OwnershipTransferred",
      "type": "event"
    },
    {
      "anonymous": false,
      "inputs": [
        {
          "indexed": true,
          "internalType": "address",
          "name": "from",
          "type": "address"
        },
        {
          "indexed": true,
          "internalType": "address",
          "name": "to",
          "type": "address"
        },
        {
          "indexed": true,
          "internalType": "uint256",
          "name": "tokenId",
          "type": "uint256"
        }
      ],
      "name": "Transfer",
      "type": "event"
    },
    {
      "inputs": [
        {
          "internalType": "address",
          "name": "to",
          "type": "address"
        },
        {
          "internalType": "uint256",
          "name": "tokenId",
          "type": "uint256"
        }
      ],
      "name": "approve",
      "outputs": [],
      "stateMutability": "nonpayable",
      "type": "function"
    },
    {
      "inputs": [
        {
          "internalType": "address",
          "name": "owner",
          "type": "address"
        }
      ],
      "name": "balanceOf",
      "outputs": [
        {
          "internalType": "uint256",
          "name": "",
          "type": "uint256"
        }
      ],
      "stateMutability": "view",
      "type": "function"
    },
    {
      "inputs": [
        {
          "internalType": "uint256",
          "name": "tokenId",
          "type": "uint256"
        }
      ],
      "name": "burnNFT",
      "outputs": [],
      "stateMutability": "nonpayable",
      "type": "function"
    },
    {
      "inputs": [
        {
          "internalType": "uint256",
          "name": "tokenId",
          "type": "uint256"
        }
      ],
      "name": "getApproved",
      "outputs": [
        {
          "internalType": "address",
          "name": "",
          "type": "address"
        }
      ],
      "stateMutability": "view",
      "type": "function"
    },
    {
      "inputs": [
        {
          "internalType": "string",
          "name": "name_",
          "type": "string"
        },
        {
          "internalType": "string",
          "name": "symbol_",
          "type": "string"
        },
        {
          "internalType": "address",
          "name": "owner_",
          "type": "address"
        },
        {
          "internalType": "bool",
          "name": "openMinting_",
          "type": "bool"
        }
      ],
      "name": "initialize",
      "outputs": [],
      "stateMutability": "nonpayable",
      "type": "function"
    },
    {
      "inputs": [
        {
          "internalType": "address",
          "name": "owner",
          "type": "address"
        },
        {
          "internalType": "address",
          "name": "operator",
          "type": "address"
        }
      ],
      "name": "isApprovedForAll",
      "outputs": [
        {
          "internalType": "bool",
          "name": "",
          "type": "bool"
        }
      ],
      "stateMutability": "view",
      "type": "function"
    },
    {
      "inputs": [
        {
          "internalType": "address",
          "name": "minter",
          "type": "address"
        },
        {
          "internalType": "string",
          "name": "jsonURI",
          "type": "string"
        }
      ],
      "name": "mintNFT",
      "outputs": [
        {
          "internalType": "uint256",
          "name": "",
          "type": "uint256"
        }
      ],
      "stateMutability": "nonpayable",
      "type": "function"
    },
    {
      "inputs": [],
      "name": "name",
      "outputs": [
        {
          "internalType": "string",
          "name": "",
          "type": "string"
        }
      ],
      "stateMutability": "view",
      "type": "function"
    },
    {
      "inputs": [],
      "name": "openMinting",
      "outputs": [
        {
          "internalType": "bool",
          "name": "",
          "type": "bool"
        }
      ],
      "stateMutability": "view",
      "type": "function"
    },
    {
      "inputs": [],
      "name": "owner",
      "outputs": [
        {
          "internalType": "address",
          "name": "",
          "type": "address"
        }
      ],
      "stateMutability": "view",
      "type": "function"
    },
    {
      "inputs": [
        {
          "internalType": "uint256",
          "name": "tokenId",
          "type": "uint256"
        }
      ],
      "name": "ownerOf",
      "outputs": [
        {
          "internalType": "address",
          "name": "",
          "type": "address"
        }
      ],
      "stateMutability": "view",
      "type": "function"
    },
    {
      "inputs": [],
      "name": "renounceOwnership",
      "outputs": [],
      "stateMutability": "nonpayable",
      "type": "function"
    },
    {
      "inputs": [
        {
          "internalType": "address",
          "name": "from",
          "type": "address"
        },
        {
          "internalType": "address",
          "name": "to",
          "type": "address"
        },
        {
          "internalType": "uint256",
          "name": "tokenId",
          "type": "uint256"
        }
      ],
      "name": "safeTransferFrom",
      "outputs": [],
      "stateMutability": "nonpayable",
      "type": "function"
    },
    {
      "inputs": [
        {
          "internalType": "address",
          "name": "from",
          "type": "address"
        },
        {
          "internalType": "address",
          "name": "to",
          "type": "address"
        },
        {
          "internalType": "uint256",
          "name": "tokenId",
          "type": "uint256"
        },
        {
          "internalType": "bytes",
          "name": "_data",
          "type": "bytes"
        }
      ],
      "name": "safeTransferFrom",
      "outputs": [],
      "stateMutability": "nonpayable",
      "type": "function"
    },
    {
      "inputs": [
        {
          "internalType": "address",
          "name": "operator",
          "type": "address"
        },
        {
          "internalType": "bool",
          "name": "approved",
          "type": "bool"
        }
      ],
      "name": "setApprovalForAll",
      "outputs": [],
      "stateMutability": "nonpayable",
      "type": "function"
    },
    {
      "inputs": [
        {
          "internalType": "bytes4",
          "name": "interfaceId",
          "type": "bytes4"
        }
      ],
      "name": "supportsInterface",
      "outputs": [
        {
          "internalType": "bool",
          "name": "",
          "type": "bool"
        }
      ],
      "stateMutability": "view",
      "type": "function"
    },
    {
      "inputs": [],
      "name": "symbol",
      "outputs": [
        {
          "internalType": "string",
          "name": "",
          "type": "string"
        }
      ],
      "stateMutability": "view",
      "type": "function"
    },
    {
      "inputs": [
        {
          "internalType": "uint256",
          "name": "index",
          "type": "uint256"
        }
      ],
      "name": "tokenByIndex",
      "outputs": [
        {
          "internalType": "uint256",
          "name": "",
          "type": "uint256"
        }
      ],
      "stateMutability": "view",
      "type": "function"
    },
    {
      "inputs": [
        {
          "internalType": "address",
          "name": "owner",
          "type": "address"
        },
        {
          "internalType": "uint256",
          "name": "index",
          "type": "uint256"
        }
      ],
      "name": "tokenOfOwnerByIndex",
      "outputs": [
        {
          "internalType": "uint256",
          "name": "",
          "type": "uint256"
        }
      ],
      "stateMutability": "view",
      "type": "function"
    },
    {
      "inputs": [
        {
          "internalType": "uint256",
          "name": "tokenId",
          "type": "uint256"
        }
      ],
      "name": "tokenURI",
      "outputs": [
        {
          "internalType": "string",
          "name": "tokenURI_",
          "type": "string"
        }
      ],
      "stateMutability": "view",
      "type": "function"
    },
    {
      "inputs": [],
      "name": "totalSupply",
      "outputs": [
        {
          "internalType": "uint256",
          "name": "",
          "type": "uint256"
        }
      ],
      "stateMutability": "view",
      "type": "function"
    },
    {
      "inputs": [
        {
          "internalType": "address",
          "name": "from",
          "type": "address"
        },
        {
          "internalType": "address",
          "name": "to",
          "type": "address"
        },
        {
          "internalType": "uint256",
          "name": "tokenId",
          "type": "uint256"
        }
      ],
      "name": "transferFrom",
      "outputs": [],
      "stateMutability": "nonpayable",
      "type": "function"
    },
    {
      "inputs": [
        {
          "internalType": "address",
          "name": "newOwner",
          "type": "address"
        }
      ],
      "name": "transferOwnership",
      "outputs": [],
      "stateMutability": "nonpayable",
      "type": "function"
    }
  ],
  "transactionHash": "0x045263860af86a816345301dcc6ea16b6f685b5e3b818564ce66739d7591ae8e",
  "args": [],
  "numDeployments": 1,
  "solcInputHash": "efecec3c52b1bd542beefbd6c6e335d8",
  "bytecode": "0x608060405234801561001057600080fd5b506140bd806100206000396000f3fe608060405234801561001057600080fd5b506004361061014d5760003560e01c80636352211e116100c3578063a22cb4651161007c578063a22cb4651461039e578063b88d4fde146103ba578063c87b56dd146103d6578063e985e9c514610406578063eacabe1414610436578063f2fde38b146104665761014d565b80636352211e146102da5780636ba9fd381461030a57806370a0823114610328578063715018a6146103585780638da5cb5b1461036257806395d89b41146103805761014d565b806323b872dd1161011557806323b872dd1461020a5780632890e0d7146102265780632f745c591461024257806342842e0e146102725780634f6ccce71461028e5780635c108a43146102be5761014d565b806301ffc9a71461015257806306fdde0314610182578063081812fc146101a0578063095ea7b3146101d057806318160ddd146101ec575b600080fd5b61016c6004803603810190610167919061299f565b610482565b60405161017991906129e7565b60405180910390f35b61018a6104fc565b6040516101979190612a9b565b60405180910390f35b6101ba60048036038101906101b59190612af3565b61058e565b6040516101c79190612b61565b60405180910390f35b6101ea60048036038101906101e59190612ba8565b610613565b005b6101f461072b565b6040516102019190612bf7565b60405180910390f35b610224600480360381019061021f9190612c12565b610738565b005b610240600480360381019061023b9190612af3565b610798565b005b61025c60048036038101906102579190612ba8565b610820565b6040516102699190612bf7565b60405180910390f35b61028c60048036038101906102879190612c12565b6108c5565b005b6102a860048036038101906102a39190612af3565b6108e5565b6040516102b59190612bf7565b60405180910390f35b6102d860048036038101906102d39190612dc6565b610956565b005b6102f460048036038101906102ef9190612af3565b610a74565b6040516103019190612b61565b60405180910390f35b610312610b26565b60405161031f91906129e7565b60405180910390f35b610342600480360381019061033d9190612e65565b610b3a565b60405161034f9190612bf7565b60405180910390f35b610360610bf2565b005b61036a610c7a565b6040516103779190612b61565b60405180910390f35b610388610ca4565b6040516103959190612a9b565b60405180910390f35b6103b860048036038101906103b39190612e92565b610d36565b005b6103d460048036038101906103cf9190612f73565b610d4c565b005b6103f060048036038101906103eb9190612af3565b610dae565b6040516103fd9190612a9b565b60405180910390f35b610420600480360381019061041b9190612ff6565b610dc0565b60405161042d91906129e7565b60405180910390f35b610450600480360381019061044b9190613036565b610e54565b60405161045d9190612bf7565b60405180910390f35b610480600480360381019061047b9190612e65565b610f22565b005b60007f9e4ad480000000000000000000000000000000000000000000000000000000007bffffffffffffffffffffffffffffffffffffffffffffffffffffffff1916827bffffffffffffffffffffffffffffffffffffffffffffffffffffffff191614806104f557506104f48261101a565b5b9050919050565b60606065805461050b906130c1565b80601f0160208091040260200160405190810160405280929190818152602001828054610537906130c1565b80156105845780601f1061055957610100808354040283529160200191610584565b820191906000526020600020905b81548152906001019060200180831161056757829003601f168201915b5050505050905090565b600061059982611094565b6105d8576040517f08c379a00000000000000000000000000000000000000000000000000000000081526004016105cf90613165565b60405180910390fd5b6069600083815260200190815260200160002060009054906101000a900473ffffffffffffffffffffffffffffffffffffffff169050919050565b600061061e82610a74565b90508073ffffffffffffffffffffffffffffffffffffffff168373ffffffffffffffffffffffffffffffffffffffff16141561068f576040517f08c379a0000000000000000000000000000000000000000000000000000000008152600401610686906131f7565b60405180910390fd5b8073ffffffffffffffffffffffffffffffffffffffff166106ae611100565b73ffffffffffffffffffffffffffffffffffffffff1614806106dd57506106dc816106d7611100565b610dc0565b5b61071c576040517f08c379a000000000000000000000000000000000000000000000000000000000815260040161071390613289565b60405180910390fd5b6107268383611108565b505050565b6000609980549050905090565b610749610743611100565b826111c1565b610788576040517f08c379a000000000000000000000000000000000000000000000000000000000815260040161077f9061331b565b60405180910390fd5b61079383838361129f565b505050565b6107a0611100565b73ffffffffffffffffffffffffffffffffffffffff166107be610c7a565b73ffffffffffffffffffffffffffffffffffffffff1614610814576040517f08c379a000000000000000000000000000000000000000000000000000000000815260040161080b90613387565b60405180910390fd5b61081d81611506565b50565b600061082b83610b3a565b821061086c576040517f08c379a000000000000000000000000000000000000000000000000000000000815260040161086390613419565b60405180910390fd5b609760008473ffffffffffffffffffffffffffffffffffffffff1673ffffffffffffffffffffffffffffffffffffffff168152602001908152602001600020600083815260200190815260200160002054905092915050565b6108e083838360405180602001604052806000815250610d4c565b505050565b60006108ef61072b565b8210610930576040517f08c379a0000000000000000000000000000000000000000000000000000000008152600401610927906134ab565b60405180910390fd5b60998281548110610944576109436134cb565b5b90600052602060002001549050919050565b600060019054906101000a900460ff1661097e5760008054906101000a900460ff1615610987565b610986611512565b5b6109c6576040517f08c379a00000000000000000000000000000000000000000000000000000000081526004016109bd9061356c565b60405180910390fd5b60008060019054906101000a900460ff161590508015610a16576001600060016101000a81548160ff02191690831515021790555060016000806101000a81548160ff0219169083151502179055505b610a1e611523565b610a28858561157c565b610a3183610f22565b8161012e60006101000a81548160ff0219169083151502179055508015610a6d5760008060016101000a81548160ff0219169083151502179055505b5050505050565b6000806067600084815260200190815260200160002060009054906101000a900473ffffffffffffffffffffffffffffffffffffffff169050600073ffffffffffffffffffffffffffffffffffffffff168173ffffffffffffffffffffffffffffffffffffffff161415610b1d576040517f08c379a0000000000000000000000000000000000000000000000000000000008152600401610b14906135fe565b60405180910390fd5b80915050919050565b61012e60009054906101000a900460ff1681565b60008073ffffffffffffffffffffffffffffffffffffffff168273ffffffffffffffffffffffffffffffffffffffff161415610bab576040517f08c379a0000000000000000000000000000000000000000000000000000000008152600401610ba290613690565b60405180910390fd5b606860008373ffffffffffffffffffffffffffffffffffffffff1673ffffffffffffffffffffffffffffffffffffffff168152602001908152602001600020549050919050565b610bfa611100565b73ffffffffffffffffffffffffffffffffffffffff16610c18610c7a565b73ffffffffffffffffffffffffffffffffffffffff1614610c6e576040517f08c379a0000000000000000000000000000000000000000000000000000000008152600401610c6590613387565b60405180910390fd5b610c7860006115d9565b565b600060fb60009054906101000a900473ffffffffffffffffffffffffffffffffffffffff16905090565b606060668054610cb3906130c1565b80601f0160208091040260200160405190810160405280929190818152602001828054610cdf906130c1565b8015610d2c5780601f10610d0157610100808354040283529160200191610d2c565b820191906000526020600020905b815481529060010190602001808311610d0f57829003601f168201915b5050505050905090565b610d48610d41611100565b838361169f565b5050565b610d5d610d57611100565b836111c1565b610d9c576040517f08c379a0000000000000000000000000000000000000000000000000000000008152600401610d939061331b565b60405180910390fd5b610da88484848461180c565b50505050565b6060610db982611868565b9050919050565b6000606a60008473ffffffffffffffffffffffffffffffffffffffff1673ffffffffffffffffffffffffffffffffffffffff16815260200190815260200160002060008373ffffffffffffffffffffffffffffffffffffffff1673ffffffffffffffffffffffffffffffffffffffff16815260200190815260200160002060009054906101000a900460ff16905092915050565b600061012e60009054906101000a900460ff1680610eab5750610e75611100565b73ffffffffffffffffffffffffffffffffffffffff16610e93610c7a565b73ffffffffffffffffffffffffffffffffffffffff16145b610eea576040517f08c379a0000000000000000000000000000000000000000000000000000000008152600401610ee1906136fc565b60405180910390fd5b610ef561012d6119ba565b6000610f0261012d6119d0565b9050610f0e84826119de565b610f1881846119fc565b8091505092915050565b610f2a611100565b73ffffffffffffffffffffffffffffffffffffffff16610f48610c7a565b73ffffffffffffffffffffffffffffffffffffffff1614610f9e576040517f08c379a0000000000000000000000000000000000000000000000000000000008152600401610f9590613387565b60405180910390fd5b600073ffffffffffffffffffffffffffffffffffffffff168173ffffffffffffffffffffffffffffffffffffffff16141561100e576040517f08c379a00000000000000000000000000000000000000000000000000000000081526004016110059061378e565b60405180910390fd5b611017816115d9565b50565b60007f780e9d63000000000000000000000000000000000000000000000000000000007bffffffffffffffffffffffffffffffffffffffffffffffffffffffff1916827bffffffffffffffffffffffffffffffffffffffffffffffffffffffff1916148061108d575061108c82611a70565b5b9050919050565b60008073ffffffffffffffffffffffffffffffffffffffff166067600084815260200190815260200160002060009054906101000a900473ffffffffffffffffffffffffffffffffffffffff1673ffffffffffffffffffffffffffffffffffffffff1614159050919050565b600033905090565b816069600083815260200190815260200160002060006101000a81548173ffffffffffffffffffffffffffffffffffffffff021916908373ffffffffffffffffffffffffffffffffffffffff160217905550808273ffffffffffffffffffffffffffffffffffffffff1661117b83610a74565b73ffffffffffffffffffffffffffffffffffffffff167f8c5be1e5ebec7d5bd14f71427d1e84f3dd0314c0f7b2291e5b200ac8c7c3b92560405160405180910390a45050565b60006111cc82611094565b61120b576040517f08c379a000000000000000000000000000000000000000000000000000000000815260040161120290613820565b60405180910390fd5b600061121683610a74565b90508073ffffffffffffffffffffffffffffffffffffffff168473ffffffffffffffffffffffffffffffffffffffff16148061128557508373ffffffffffffffffffffffffffffffffffffffff1661126d8461058e565b73ffffffffffffffffffffffffffffffffffffffff16145b8061129657506112958185610dc0565b5b91505092915050565b8273ffffffffffffffffffffffffffffffffffffffff166112bf82610a74565b73ffffffffffffffffffffffffffffffffffffffff1614611315576040517f08c379a000000000000000000000000000000000000000000000000000000000815260040161130c906138b2565b60405180910390fd5b600073ffffffffffffffffffffffffffffffffffffffff168273ffffffffffffffffffffffffffffffffffffffff161415611385576040517f08c379a000000000000000000000000000000000000000000000000000000000815260040161137c90613944565b60405180910390fd5b611390838383611b52565b61139b600082611108565b6001606860008573ffffffffffffffffffffffffffffffffffffffff1673ffffffffffffffffffffffffffffffffffffffff16815260200190815260200160002060008282546113eb9190613993565b925050819055506001606860008473ffffffffffffffffffffffffffffffffffffffff1673ffffffffffffffffffffffffffffffffffffffff168152602001908152602001600020600082825461144291906139c7565b92505081905550816067600083815260200190815260200160002060006101000a81548173ffffffffffffffffffffffffffffffffffffffff021916908373ffffffffffffffffffffffffffffffffffffffff160217905550808273ffffffffffffffffffffffffffffffffffffffff168473ffffffffffffffffffffffffffffffffffffffff167fddf252ad1be2c89b69c2b068fc378daa952ba7f163c4a11628f55a4df523b3ef60405160405180910390a4611501838383611b62565b505050565b61150f81611b67565b50565b600061151d30611bba565b15905090565b600060019054906101000a900460ff16611572576040517f08c379a000000000000000000000000000000000000000000000000000000000815260040161156990613a8f565b60405180910390fd5b61157a611bdd565b565b600060019054906101000a900460ff166115cb576040517f08c379a00000000000000000000000000000000000000000000000000000000081526004016115c290613a8f565b60405180910390fd5b6115d58282611c3e565b5050565b600060fb60009054906101000a900473ffffffffffffffffffffffffffffffffffffffff1690508160fb60006101000a81548173ffffffffffffffffffffffffffffffffffffffff021916908373ffffffffffffffffffffffffffffffffffffffff1602179055508173ffffffffffffffffffffffffffffffffffffffff168173ffffffffffffffffffffffffffffffffffffffff167f8be0079c531659141344cd1fd0a4f28419497f9722a3daafe3b4186f6b6457e060405160405180910390a35050565b8173ffffffffffffffffffffffffffffffffffffffff168373ffffffffffffffffffffffffffffffffffffffff16141561170e576040517f08c379a000000000000000000000000000000000000000000000000000000000815260040161170590613afb565b60405180910390fd5b80606a60008573ffffffffffffffffffffffffffffffffffffffff1673ffffffffffffffffffffffffffffffffffffffff16815260200190815260200160002060008473ffffffffffffffffffffffffffffffffffffffff1673ffffffffffffffffffffffffffffffffffffffff16815260200190815260200160002060006101000a81548160ff0219169083151502179055508173ffffffffffffffffffffffffffffffffffffffff168373ffffffffffffffffffffffffffffffffffffffff167f17307eab39ab6107e8899845ad3d59bd9653f200f220920489ca2b5937696c31836040516117ff91906129e7565b60405180910390a3505050565b61181784848461129f565b61182384848484611cbf565b611862576040517f08c379a000000000000000000000000000000000000000000000000000000000815260040161185990613b8d565b60405180910390fd5b50505050565b606061187382611094565b6118b2576040517f08c379a00000000000000000000000000000000000000000000000000000000081526004016118a990613c1f565b60405180910390fd5b600060c9600084815260200190815260200160002080546118d2906130c1565b80601f01602080910402602001604051908101604052809291908181526020018280546118fe906130c1565b801561194b5780601f106119205761010080835404028352916020019161194b565b820191906000526020600020905b81548152906001019060200180831161192e57829003601f168201915b50505050509050600061195c611e56565b90506000815114156119725781925050506119b5565b6000825111156119a757808260405160200161198f929190613c7b565b604051602081830303815290604052925050506119b5565b6119b084611e6d565b925050505b919050565b6001816000016000828254019250508190555050565b600081600001549050919050565b6119f8828260405180602001604052806000815250611f14565b5050565b611a0582611094565b611a44576040517f08c379a0000000000000000000000000000000000000000000000000000000008152600401611a3b90613d11565b60405180910390fd5b8060c960008481526020019081526020016000209080519060200190611a6b929190612850565b505050565b60007f80ac58cd000000000000000000000000000000000000000000000000000000007bffffffffffffffffffffffffffffffffffffffffffffffffffffffff1916827bffffffffffffffffffffffffffffffffffffffffffffffffffffffff19161480611b3b57507f5b5e139f000000000000000000000000000000000000000000000000000000007bffffffffffffffffffffffffffffffffffffffffffffffffffffffff1916827bffffffffffffffffffffffffffffffffffffffffffffffffffffffff1916145b80611b4b5750611b4a82611f6f565b5b9050919050565b611b5d838383611fd9565b505050565b505050565b611b70816120ed565b600060c960008381526020019081526020016000208054611b90906130c1565b905014611bb75760c960008281526020019081526020016000206000611bb691906128d6565b5b50565b6000808273ffffffffffffffffffffffffffffffffffffffff163b119050919050565b600060019054906101000a900460ff16611c2c576040517f08c379a0000000000000000000000000000000000000000000000000000000008152600401611c2390613a8f565b60405180910390fd5b611c3c611c37611100565b6115d9565b565b600060019054906101000a900460ff16611c8d576040517f08c379a0000000000000000000000000000000000000000000000000000000008152600401611c8490613a8f565b60405180910390fd5b8160659080519060200190611ca3929190612850565b508060669080519060200190611cba929190612850565b505050565b6000611ce08473ffffffffffffffffffffffffffffffffffffffff16611bba565b15611e49578373ffffffffffffffffffffffffffffffffffffffff1663150b7a02611d09611100565b8786866040518563ffffffff1660e01b8152600401611d2b9493929190613d86565b602060405180830381600087803b158015611d4557600080fd5b505af1925050508015611d7657506040513d601f19601f82011682018060405250810190611d739190613de7565b60015b611df9573d8060008114611da6576040519150601f19603f3d011682016040523d82523d6000602084013e611dab565b606091505b50600081511415611df1576040517f08c379a0000000000000000000000000000000000000000000000000000000008152600401611de890613b8d565b60405180910390fd5b805181602001fd5b63150b7a0260e01b7bffffffffffffffffffffffffffffffffffffffffffffffffffffffff1916817bffffffffffffffffffffffffffffffffffffffffffffffffffffffff191614915050611e4e565b600190505b949350505050565b606060405180602001604052806000815250905090565b6060611e7882611094565b611eb7576040517f08c379a0000000000000000000000000000000000000000000000000000000008152600401611eae90613e86565b60405180910390fd5b6000611ec1611e56565b90506000815111611ee15760405180602001604052806000815250611f0c565b80611eeb8461220a565b604051602001611efc929190613c7b565b6040516020818303038152906040525b915050919050565b611f1e838361236b565b611f2b6000848484611cbf565b611f6a576040517f08c379a0000000000000000000000000000000000000000000000000000000008152600401611f6190613b8d565b60405180910390fd5b505050565b60007f01ffc9a7000000000000000000000000000000000000000000000000000000007bffffffffffffffffffffffffffffffffffffffffffffffffffffffff1916827bffffffffffffffffffffffffffffffffffffffffffffffffffffffff1916149050919050565b611fe4838383612545565b600073ffffffffffffffffffffffffffffffffffffffff168373ffffffffffffffffffffffffffffffffffffffff161415612027576120228161254a565b612066565b8173ffffffffffffffffffffffffffffffffffffffff168373ffffffffffffffffffffffffffffffffffffffff1614612065576120648382612593565b5b5b600073ffffffffffffffffffffffffffffffffffffffff168273ffffffffffffffffffffffffffffffffffffffff1614156120a9576120a481612700565b6120e8565b8273ffffffffffffffffffffffffffffffffffffffff168273ffffffffffffffffffffffffffffffffffffffff16146120e7576120e682826127d1565b5b5b505050565b60006120f882610a74565b905061210681600084611b52565b612111600083611108565b6001606860008373ffffffffffffffffffffffffffffffffffffffff1673ffffffffffffffffffffffffffffffffffffffff16815260200190815260200160002060008282546121619190613993565b925050819055506067600083815260200190815260200160002060006101000a81549073ffffffffffffffffffffffffffffffffffffffff021916905581600073ffffffffffffffffffffffffffffffffffffffff168273ffffffffffffffffffffffffffffffffffffffff167fddf252ad1be2c89b69c2b068fc378daa952ba7f163c4a11628f55a4df523b3ef60405160405180910390a461220681600084611b62565b5050565b60606000821415612252576040518060400160405280600181526020017f30000000000000000000000000000000000000000000000000000000000000008152509050612366565b600082905060005b6000821461228457808061226d90613ea6565b915050600a8261227d9190613f1e565b915061225a565b60008167ffffffffffffffff8111156122a05761229f612c6f565b5b6040519080825280601f01601f1916602001820160405280156122d25781602001600182028036833780820191505090505b5090505b6000851461235f576001826122eb9190613993565b9150600a856122fa9190613f4f565b603061230691906139c7565b60f81b81838151811061231c5761231b6134cb565b5b60200101907effffffffffffffffffffffffffffffffffffffffffffffffffffffffffffff1916908160001a905350600a856123589190613f1e565b94506122d6565b8093505050505b919050565b600073ffffffffffffffffffffffffffffffffffffffff168273ffffffffffffffffffffffffffffffffffffffff1614156123db576040517f08c379a00000000000000000000000000000000000000000000000000000000081526004016123d290613fcc565b60405180910390fd5b6123e481611094565b15612424576040517f08c379a000000000000000000000000000000000000000000000000000000000815260040161241b90614038565b60405180910390fd5b61243060008383611b52565b6001606860008473ffffffffffffffffffffffffffffffffffffffff1673ffffffffffffffffffffffffffffffffffffffff168152602001908152602001600020600082825461248091906139c7565b92505081905550816067600083815260200190815260200160002060006101000a81548173ffffffffffffffffffffffffffffffffffffffff021916908373ffffffffffffffffffffffffffffffffffffffff160217905550808273ffffffffffffffffffffffffffffffffffffffff16600073ffffffffffffffffffffffffffffffffffffffff167fddf252ad1be2c89b69c2b068fc378daa952ba7f163c4a11628f55a4df523b3ef60405160405180910390a461254160008383611b62565b5050565b505050565b609980549050609a600083815260200190815260200160002081905550609981908060018154018082558091505060019003906000526020600020016000909190919091505550565b600060016125a084610b3a565b6125aa9190613993565b905060006098600084815260200190815260200160002054905081811461268f576000609760008673ffffffffffffffffffffffffffffffffffffffff1673ffffffffffffffffffffffffffffffffffffffff168152602001908152602001600020600084815260200190815260200160002054905080609760008773ffffffffffffffffffffffffffffffffffffffff1673ffffffffffffffffffffffffffffffffffffffff168152602001908152602001600020600084815260200190815260200160002081905550816098600083815260200190815260200160002081905550505b6098600084815260200190815260200160002060009055609760008573ffffffffffffffffffffffffffffffffffffffff1673ffffffffffffffffffffffffffffffffffffffff16815260200190815260200160002060008381526020019081526020016000206000905550505050565b600060016099805490506127149190613993565b90506000609a6000848152602001908152602001600020549050600060998381548110612744576127436134cb565b5b906000526020600020015490508060998381548110612766576127656134cb565b5b906000526020600020018190555081609a600083815260200190815260200160002081905550609a60008581526020019081526020016000206000905560998054806127b5576127b4614058565b5b6001900381819060005260206000200160009055905550505050565b60006127dc83610b3a565b905081609760008573ffffffffffffffffffffffffffffffffffffffff1673ffffffffffffffffffffffffffffffffffffffff168152602001908152602001600020600083815260200190815260200160002081905550806098600084815260200190815260200160002081905550505050565b82805461285c906130c1565b90600052602060002090601f01602090048101928261287e57600085556128c5565b82601f1061289757805160ff19168380011785556128c5565b828001600101855582156128c5579182015b828111156128c45782518255916020019190600101906128a9565b5b5090506128d29190612916565b5090565b5080546128e2906130c1565b6000825580601f106128f45750612913565b601f0160209004906000526020600020908101906129129190612916565b5b50565b5b8082111561292f576000816000905550600101612917565b5090565b6000604051905090565b600080fd5b600080fd5b60007fffffffff0000000000000000000000000000000000000000000000000000000082169050919050565b61297c81612947565b811461298757600080fd5b50565b60008135905061299981612973565b92915050565b6000602082840312156129b5576129b461293d565b5b60006129c38482850161298a565b91505092915050565b60008115159050919050565b6129e1816129cc565b82525050565b60006020820190506129fc60008301846129d8565b92915050565b600081519050919050565b600082825260208201905092915050565b60005b83811015612a3c578082015181840152602081019050612a21565b83811115612a4b576000848401525b50505050565b6000601f19601f8301169050919050565b6000612a6d82612a02565b612a778185612a0d565b9350612a87818560208601612a1e565b612a9081612a51565b840191505092915050565b60006020820190508181036000830152612ab58184612a62565b905092915050565b6000819050919050565b612ad081612abd565b8114612adb57600080fd5b50565b600081359050612aed81612ac7565b92915050565b600060208284031215612b0957612b0861293d565b5b6000612b1784828501612ade565b91505092915050565b600073ffffffffffffffffffffffffffffffffffffffff82169050919050565b6000612b4b82612b20565b9050919050565b612b5b81612b40565b82525050565b6000602082019050612b766000830184612b52565b92915050565b612b8581612b40565b8114612b9057600080fd5b50565b600081359050612ba281612b7c565b92915050565b60008060408385031215612bbf57612bbe61293d565b5b6000612bcd85828601612b93565b9250506020612bde85828601612ade565b9150509250929050565b612bf181612abd565b82525050565b6000602082019050612c0c6000830184612be8565b92915050565b600080600060608486031215612c2b57612c2a61293d565b5b6000612c3986828701612b93565b9350506020612c4a86828701612b93565b9250506040612c5b86828701612ade565b9150509250925092565b600080fd5b600080fd5b7f4e487b7100000000000000000000000000000000000000000000000000000000600052604160045260246000fd5b612ca782612a51565b810181811067ffffffffffffffff82111715612cc657612cc5612c6f565b5b80604052505050565b6000612cd9612933565b9050612ce58282612c9e565b919050565b600067ffffffffffffffff821115612d0557612d04612c6f565b5b612d0e82612a51565b9050602081019050919050565b82818337600083830152505050565b6000612d3d612d3884612cea565b612ccf565b905082815260208101848484011115612d5957612d58612c6a565b5b612d64848285612d1b565b509392505050565b600082601f830112612d8157612d80612c65565b5b8135612d91848260208601612d2a565b91505092915050565b612da3816129cc565b8114612dae57600080fd5b50565b600081359050612dc081612d9a565b92915050565b60008060008060808587031215612de057612ddf61293d565b5b600085013567ffffffffffffffff811115612dfe57612dfd612942565b5b612e0a87828801612d6c565b945050602085013567ffffffffffffffff811115612e2b57612e2a612942565b5b612e3787828801612d6c565b9350506040612e4887828801612b93565b9250506060612e5987828801612db1565b91505092959194509250565b600060208284031215612e7b57612e7a61293d565b5b6000612e8984828501612b93565b91505092915050565b60008060408385031215612ea957612ea861293d565b5b6000612eb785828601612b93565b9250506020612ec885828601612db1565b9150509250929050565b600067ffffffffffffffff821115612eed57612eec612c6f565b5b612ef682612a51565b9050602081019050919050565b6000612f16612f1184612ed2565b612ccf565b905082815260208101848484011115612f3257612f31612c6a565b5b612f3d848285612d1b565b509392505050565b600082601f830112612f5a57612f59612c65565b5b8135612f6a848260208601612f03565b91505092915050565b60008060008060808587031215612f8d57612f8c61293d565b5b6000612f9b87828801612b93565b9450506020612fac87828801612b93565b9350506040612fbd87828801612ade565b925050606085013567ffffffffffffffff811115612fde57612fdd612942565b5b612fea87828801612f45565b91505092959194509250565b6000806040838503121561300d5761300c61293d565b5b600061301b85828601612b93565b925050602061302c85828601612b93565b9150509250929050565b6000806040838503121561304d5761304c61293d565b5b600061305b85828601612b93565b925050602083013567ffffffffffffffff81111561307c5761307b612942565b5b61308885828601612d6c565b9150509250929050565b7f4e487b7100000000000000000000000000000000000000000000000000000000600052602260045260246000fd5b600060028204905060018216806130d957607f821691505b602082108114156130ed576130ec613092565b5b50919050565b7f4552433732313a20617070726f76656420717565727920666f72206e6f6e657860008201527f697374656e7420746f6b656e0000000000000000000000000000000000000000602082015250565b600061314f602c83612a0d565b915061315a826130f3565b604082019050919050565b6000602082019050818103600083015261317e81613142565b9050919050565b7f4552433732313a20617070726f76616c20746f2063757272656e74206f776e6560008201527f7200000000000000000000000000000000000000000000000000000000000000602082015250565b60006131e1602183612a0d565b91506131ec82613185565b604082019050919050565b60006020820190508181036000830152613210816131d4565b9050919050565b7f4552433732313a20617070726f76652063616c6c6572206973206e6f74206f7760008201527f6e6572206e6f7220617070726f76656420666f7220616c6c0000000000000000602082015250565b6000613273603883612a0d565b915061327e82613217565b604082019050919050565b600060208201905081810360008301526132a281613266565b9050919050565b7f4552433732313a207472616e736665722063616c6c6572206973206e6f74206f60008201527f776e6572206e6f7220617070726f766564000000000000000000000000000000602082015250565b6000613305603183612a0d565b9150613310826132a9565b604082019050919050565b60006020820190508181036000830152613334816132f8565b9050919050565b7f4f776e61626c653a2063616c6c6572206973206e6f7420746865206f776e6572600082015250565b6000613371602083612a0d565b915061337c8261333b565b602082019050919050565b600060208201905081810360008301526133a081613364565b9050919050565b7f455243373231456e756d657261626c653a206f776e657220696e646578206f7560008201527f74206f6620626f756e6473000000000000000000000000000000000000000000602082015250565b6000613403602b83612a0d565b915061340e826133a7565b604082019050919050565b60006020820190508181036000830152613432816133f6565b9050919050565b7f455243373231456e756d657261626c653a20676c6f62616c20696e646578206f60008201527f7574206f6620626f756e64730000000000000000000000000000000000000000602082015250565b6000613495602c83612a0d565b91506134a082613439565b604082019050919050565b600060208201905081810360008301526134c481613488565b9050919050565b7f4e487b7100000000000000000000000000000000000000000000000000000000600052603260045260246000fd5b7f496e697469616c697a61626c653a20636f6e747261637420697320616c72656160008201527f647920696e697469616c697a6564000000000000000000000000000000000000602082015250565b6000613556602e83612a0d565b9150613561826134fa565b604082019050919050565b6000602082019050818103600083015261358581613549565b9050919050565b7f4552433732313a206f776e657220717565727920666f72206e6f6e657869737460008201527f656e7420746f6b656e0000000000000000000000000000000000000000000000602082015250565b60006135e8602983612a0d565b91506135f38261358c565b604082019050919050565b60006020820190508181036000830152613617816135db565b9050919050565b7f4552433732313a2062616c616e636520717565727920666f7220746865207a6560008201527f726f206164647265737300000000000000000000000000000000000000000000602082015250565b600061367a602a83612a0d565b91506136858261361e565b604082019050919050565b600060208201905081810360008301526136a98161366d565b9050919050565b7f4e6f74206d696e74657200000000000000000000000000000000000000000000600082015250565b60006136e6600a83612a0d565b91506136f1826136b0565b602082019050919050565b60006020820190508181036000830152613715816136d9565b9050919050565b7f4f776e61626c653a206e6577206f776e657220697320746865207a65726f206160008201527f6464726573730000000000000000000000000000000000000000000000000000602082015250565b6000613778602683612a0d565b91506137838261371c565b604082019050919050565b600060208201905081810360008301526137a78161376b565b9050919050565b7f4552433732313a206f70657261746f7220717565727920666f72206e6f6e657860008201527f697374656e7420746f6b656e0000000000000000000000000000000000000000602082015250565b600061380a602c83612a0d565b9150613815826137ae565b604082019050919050565b60006020820190508181036000830152613839816137fd565b9050919050565b7f4552433732313a207472616e736665722066726f6d20696e636f72726563742060008201527f6f776e6572000000000000000000000000000000000000000000000000000000602082015250565b600061389c602583612a0d565b91506138a782613840565b604082019050919050565b600060208201905081810360008301526138cb8161388f565b9050919050565b7f4552433732313a207472616e7366657220746f20746865207a65726f2061646460008201527f7265737300000000000000000000000000000000000000000000000000000000602082015250565b600061392e602483612a0d565b9150613939826138d2565b604082019050919050565b6000602082019050818103600083015261395d81613921565b9050919050565b7f4e487b7100000000000000000000000000000000000000000000000000000000600052601160045260246000fd5b600061399e82612abd565b91506139a983612abd565b9250828210156139bc576139bb613964565b5b828203905092915050565b60006139d282612abd565b91506139dd83612abd565b9250827fffffffffffffffffffffffffffffffffffffffffffffffffffffffffffffffff03821115613a1257613a11613964565b5b828201905092915050565b7f496e697469616c697a61626c653a20636f6e7472616374206973206e6f74206960008201527f6e697469616c697a696e67000000000000000000000000000000000000000000602082015250565b6000613a79602b83612a0d565b9150613a8482613a1d565b604082019050919050565b60006020820190508181036000830152613aa881613a6c565b9050919050565b7f4552433732313a20617070726f766520746f2063616c6c657200000000000000600082015250565b6000613ae5601983612a0d565b9150613af082613aaf565b602082019050919050565b60006020820190508181036000830152613b1481613ad8565b9050919050565b7f4552433732313a207472616e7366657220746f206e6f6e20455243373231526560008201527f63656976657220696d706c656d656e7465720000000000000000000000000000602082015250565b6000613b77603283612a0d565b9150613b8282613b1b565b604082019050919050565b60006020820190508181036000830152613ba681613b6a565b9050919050565b7f45524337323155524953746f726167653a2055524920717565727920666f722060008201527f6e6f6e6578697374656e7420746f6b656e000000000000000000000000000000602082015250565b6000613c09603183612a0d565b9150613c1482613bad565b604082019050919050565b60006020820190508181036000830152613c3881613bfc565b9050919050565b600081905092915050565b6000613c5582612a02565b613c5f8185613c3f565b9350613c6f818560208601612a1e565b80840191505092915050565b6000613c878285613c4a565b9150613c938284613c4a565b91508190509392505050565b7f45524337323155524953746f726167653a2055524920736574206f66206e6f6e60008201527f6578697374656e7420746f6b656e000000000000000000000000000000000000602082015250565b6000613cfb602e83612a0d565b9150613d0682613c9f565b604082019050919050565b60006020820190508181036000830152613d2a81613cee565b9050919050565b600081519050919050565b600082825260208201905092915050565b6000613d5882613d31565b613d628185613d3c565b9350613d72818560208601612a1e565b613d7b81612a51565b840191505092915050565b6000608082019050613d9b6000830187612b52565b613da86020830186612b52565b613db56040830185612be8565b8181036060830152613dc78184613d4d565b905095945050505050565b600081519050613de181612973565b92915050565b600060208284031215613dfd57613dfc61293d565b5b6000613e0b84828501613dd2565b91505092915050565b7f4552433732314d657461646174613a2055524920717565727920666f72206e6f60008201527f6e6578697374656e7420746f6b656e0000000000000000000000000000000000602082015250565b6000613e70602f83612a0d565b9150613e7b82613e14565b604082019050919050565b60006020820190508181036000830152613e9f81613e63565b9050919050565b6000613eb182612abd565b91507fffffffffffffffffffffffffffffffffffffffffffffffffffffffffffffffff821415613ee457613ee3613964565b5b600182019050919050565b7f4e487b7100000000000000000000000000000000000000000000000000000000600052601260045260246000fd5b6000613f2982612abd565b9150613f3483612abd565b925082613f4457613f43613eef565b5b828204905092915050565b6000613f5a82612abd565b9150613f6583612abd565b925082613f7557613f74613eef565b5b828206905092915050565b7f4552433732313a206d696e7420746f20746865207a65726f2061646472657373600082015250565b6000613fb6602083612a0d565b9150613fc182613f80565b602082019050919050565b60006020820190508181036000830152613fe581613fa9565b9050919050565b7f4552433732313a20746f6b656e20616c7265616479206d696e74656400000000600082015250565b6000614022601c83612a0d565b915061402d82613fec565b602082019050919050565b6000602082019050818103600083015261405181614015565b9050919050565b7f4e487b7100000000000000000000000000000000000000000000000000000000600052603160045260246000fdfea264697066735822122054a5618b46f68c5198ad345861a49c02a4c804ff7637e6236ab81953bfd4e1ec64736f6c63430008090033",
  "devdoc": {
    "kind": "dev",
    "methods": {
      "approve(address,uint256)": {
        "details": "See {IERC721-approve}."
      },
      "balanceOf(address)": {
        "details": "See {IERC721-balanceOf}."
      },
      "burnNFT(uint256)": {
        "params": {
          "tokenId": "tokenID of NFT to burn"
        }
      },
      "getApproved(uint256)": {
        "details": "See {IERC721-getApproved}."
      },
      "initialize(string,string,address,bool)": {
        "params": {
          "name_": "name of the NFT Collection",
          "openMinting_": "select minting open to everyone or only owner",
          "owner_": "owner of the NFT Collection",
          "symbol_": "symbol of the NFT Collection"
        }
      },
      "isApprovedForAll(address,address)": {
        "details": "See {IERC721-isApprovedForAll}."
      },
      "mintNFT(address,string)": {
        "params": {
          "jsonURI": "json URI of NFT metadata",
          "minter": "address of minter"
        }
      },
      "name()": {
        "details": "See {IERC721Metadata-name}."
      },
      "owner()": {
        "details": "Returns the address of the current owner."
      },
      "ownerOf(uint256)": {
        "details": "See {IERC721-ownerOf}."
      },
      "renounceOwnership()": {
        "details": "Leaves the contract without owner. It will not be possible to call `onlyOwner` functions anymore. Can only be called by the current owner. NOTE: Renouncing ownership will leave the contract without an owner, thereby removing any functionality that is only available to the owner."
      },
      "safeTransferFrom(address,address,uint256)": {
        "details": "See {IERC721-safeTransferFrom}."
      },
      "safeTransferFrom(address,address,uint256,bytes)": {
        "details": "See {IERC721-safeTransferFrom}."
      },
      "setApprovalForAll(address,bool)": {
        "details": "See {IERC721-setApprovalForAll}."
      },
      "supportsInterface(bytes4)": {
        "params": {
          "interfaceId": "interfaceId to test"
        }
      },
      "symbol()": {
        "details": "See {IERC721Metadata-symbol}."
      },
      "tokenByIndex(uint256)": {
        "details": "See {IERC721Enumerable-tokenByIndex}."
      },
      "tokenOfOwnerByIndex(address,uint256)": {
        "details": "See {IERC721Enumerable-tokenOfOwnerByIndex}."
      },
      "tokenURI(uint256)": {
        "params": {
          "tokenId": "tokenId of NFT",
          "tokenURI_": "token URI of NFT"
        }
      },
      "totalSupply()": {
        "details": "See {IERC721Enumerable-totalSupply}."
      },
      "transferFrom(address,address,uint256)": {
        "details": "See {IERC721-transferFrom}."
      },
      "transferOwnership(address)": {
        "details": "Transfers ownership of the contract to a new account (`newOwner`). Can only be called by the current owner."
      }
    },
    "title": "OpenNFTs smartcontract",
    "version": 1
  },
  "userdoc": {
    "kind": "user",
    "methods": {
      "burnNFT(uint256)": {
        "notice": "burn NFT"
      },
      "initialize(string,string,address,bool)": {
        "notice": "initialize"
      },
      "mintNFT(address,string)": {
        "notice": "mint"
      },
      "openMinting()": {
        "notice": "whether minting open to everyone (true) or only owner (false)"
      },
      "supportsInterface(bytes4)": {
        "notice": "test if this interface is supported"
      },
      "tokenURI(uint256)": {
        "notice": "Get tokenURI"
      }
    },
    "version": 1
  },
  "storageLayout": {
    "storage": [
      {
        "astId": 130,
        "contract": "contracts/new/OpenNFTsV3.sol:OpenNFTsV3",
        "label": "_initialized",
        "offset": 0,
        "slot": "0",
        "type": "t_bool"
      },
      {
        "astId": 133,
        "contract": "contracts/new/OpenNFTsV3.sol:OpenNFTsV3",
        "label": "_initializing",
        "offset": 1,
        "slot": "0",
        "type": "t_bool"
      },
      {
        "astId": 2070,
        "contract": "contracts/new/OpenNFTsV3.sol:OpenNFTsV3",
        "label": "__gap",
        "offset": 0,
        "slot": "1",
        "type": "t_array(t_uint256)50_storage"
      },
      {
        "astId": 2391,
        "contract": "contracts/new/OpenNFTsV3.sol:OpenNFTsV3",
        "label": "__gap",
        "offset": 0,
        "slot": "51",
        "type": "t_array(t_uint256)50_storage"
      },
      {
        "astId": 226,
        "contract": "contracts/new/OpenNFTsV3.sol:OpenNFTsV3",
        "label": "_name",
        "offset": 0,
        "slot": "101",
        "type": "t_string_storage"
      },
      {
        "astId": 228,
        "contract": "contracts/new/OpenNFTsV3.sol:OpenNFTsV3",
        "label": "_symbol",
        "offset": 0,
        "slot": "102",
        "type": "t_string_storage"
      },
      {
        "astId": 232,
        "contract": "contracts/new/OpenNFTsV3.sol:OpenNFTsV3",
        "label": "_owners",
        "offset": 0,
        "slot": "103",
        "type": "t_mapping(t_uint256,t_address)"
      },
      {
        "astId": 236,
        "contract": "contracts/new/OpenNFTsV3.sol:OpenNFTsV3",
        "label": "_balances",
        "offset": 0,
        "slot": "104",
        "type": "t_mapping(t_address,t_uint256)"
      },
      {
        "astId": 240,
        "contract": "contracts/new/OpenNFTsV3.sol:OpenNFTsV3",
        "label": "_tokenApprovals",
        "offset": 0,
        "slot": "105",
        "type": "t_mapping(t_uint256,t_address)"
      },
      {
        "astId": 246,
        "contract": "contracts/new/OpenNFTsV3.sol:OpenNFTsV3",
        "label": "_operatorApprovals",
        "offset": 0,
        "slot": "106",
        "type": "t_mapping(t_address,t_mapping(t_address,t_bool))"
      },
      {
        "astId": 1087,
        "contract": "contracts/new/OpenNFTsV3.sol:OpenNFTsV3",
        "label": "__gap",
        "offset": 0,
        "slot": "107",
        "type": "t_array(t_uint256)44_storage"
      },
      {
        "astId": 1252,
        "contract": "contracts/new/OpenNFTsV3.sol:OpenNFTsV3",
        "label": "_ownedTokens",
        "offset": 0,
        "slot": "151",
        "type": "t_mapping(t_address,t_mapping(t_uint256,t_uint256))"
      },
      {
        "astId": 1256,
        "contract": "contracts/new/OpenNFTsV3.sol:OpenNFTsV3",
        "label": "_ownedTokensIndex",
        "offset": 0,
        "slot": "152",
        "type": "t_mapping(t_uint256,t_uint256)"
      },
      {
        "astId": 1259,
        "contract": "contracts/new/OpenNFTsV3.sol:OpenNFTsV3",
        "label": "_allTokens",
        "offset": 0,
        "slot": "153",
        "type": "t_array(t_uint256)dyn_storage"
      },
      {
        "astId": 1263,
        "contract": "contracts/new/OpenNFTsV3.sol:OpenNFTsV3",
        "label": "_allTokensIndex",
        "offset": 0,
        "slot": "154",
        "type": "t_mapping(t_uint256,t_uint256)"
      },
      {
        "astId": 1579,
        "contract": "contracts/new/OpenNFTsV3.sol:OpenNFTsV3",
        "label": "__gap",
        "offset": 0,
        "slot": "155",
        "type": "t_array(t_uint256)46_storage"
      },
      {
        "astId": 1608,
        "contract": "contracts/new/OpenNFTsV3.sol:OpenNFTsV3",
        "label": "_tokenURIs",
        "offset": 0,
        "slot": "201",
        "type": "t_mapping(t_uint256,t_string_storage)"
      },
      {
        "astId": 1727,
        "contract": "contracts/new/OpenNFTsV3.sol:OpenNFTsV3",
        "label": "__gap",
        "offset": 0,
        "slot": "202",
        "type": "t_array(t_uint256)49_storage"
      },
      {
        "astId": 10,
        "contract": "contracts/new/OpenNFTsV3.sol:OpenNFTsV3",
        "label": "_owner",
        "offset": 0,
        "slot": "251",
        "type": "t_address"
      },
      {
        "astId": 122,
        "contract": "contracts/new/OpenNFTsV3.sol:OpenNFTsV3",
        "label": "__gap",
        "offset": 0,
        "slot": "252",
        "type": "t_array(t_uint256)49_storage"
      },
      {
        "astId": 4335,
        "contract": "contracts/new/OpenNFTsV3.sol:OpenNFTsV3",
        "label": "_tokenIds",
        "offset": 0,
        "slot": "301",
        "type": "t_struct(Counter)2077_storage"
      },
      {
        "astId": 4338,
        "contract": "contracts/new/OpenNFTsV3.sol:OpenNFTsV3",
        "label": "openMinting",
        "offset": 0,
        "slot": "302",
        "type": "t_bool"
      }
    ],
    "types": {
      "t_address": {
        "encoding": "inplace",
        "label": "address",
        "numberOfBytes": "20"
      },
      "t_array(t_uint256)44_storage": {
        "base": "t_uint256",
        "encoding": "inplace",
        "label": "uint256[44]",
        "numberOfBytes": "1408"
      },
      "t_array(t_uint256)46_storage": {
        "base": "t_uint256",
        "encoding": "inplace",
        "label": "uint256[46]",
        "numberOfBytes": "1472"
      },
      "t_array(t_uint256)49_storage": {
        "base": "t_uint256",
        "encoding": "inplace",
        "label": "uint256[49]",
        "numberOfBytes": "1568"
      },
      "t_array(t_uint256)50_storage": {
        "base": "t_uint256",
        "encoding": "inplace",
        "label": "uint256[50]",
        "numberOfBytes": "1600"
      },
      "t_array(t_uint256)dyn_storage": {
        "base": "t_uint256",
        "encoding": "dynamic_array",
        "label": "uint256[]",
        "numberOfBytes": "32"
      },
      "t_bool": {
        "encoding": "inplace",
        "label": "bool",
        "numberOfBytes": "1"
      },
      "t_mapping(t_address,t_bool)": {
        "encoding": "mapping",
        "key": "t_address",
        "label": "mapping(address => bool)",
        "numberOfBytes": "32",
        "value": "t_bool"
      },
      "t_mapping(t_address,t_mapping(t_address,t_bool))": {
        "encoding": "mapping",
        "key": "t_address",
        "label": "mapping(address => mapping(address => bool))",
        "numberOfBytes": "32",
        "value": "t_mapping(t_address,t_bool)"
      },
      "t_mapping(t_address,t_mapping(t_uint256,t_uint256))": {
        "encoding": "mapping",
        "key": "t_address",
        "label": "mapping(address => mapping(uint256 => uint256))",
        "numberOfBytes": "32",
        "value": "t_mapping(t_uint256,t_uint256)"
      },
      "t_mapping(t_address,t_uint256)": {
        "encoding": "mapping",
        "key": "t_address",
        "label": "mapping(address => uint256)",
        "numberOfBytes": "32",
        "value": "t_uint256"
      },
      "t_mapping(t_uint256,t_address)": {
        "encoding": "mapping",
        "key": "t_uint256",
        "label": "mapping(uint256 => address)",
        "numberOfBytes": "32",
        "value": "t_address"
      },
      "t_mapping(t_uint256,t_string_storage)": {
        "encoding": "mapping",
        "key": "t_uint256",
        "label": "mapping(uint256 => string)",
        "numberOfBytes": "32",
        "value": "t_string_storage"
      },
      "t_mapping(t_uint256,t_uint256)": {
        "encoding": "mapping",
        "key": "t_uint256",
        "label": "mapping(uint256 => uint256)",
        "numberOfBytes": "32",
        "value": "t_uint256"
      },
      "t_string_storage": {
        "encoding": "bytes",
        "label": "string",
        "numberOfBytes": "32"
      },
      "t_struct(Counter)2077_storage": {
        "encoding": "inplace",
        "label": "struct CountersUpgradeable.Counter",
        "members": [
          {
            "astId": 2076,
            "contract": "contracts/new/OpenNFTsV3.sol:OpenNFTsV3",
            "label": "_value",
            "offset": 0,
            "slot": "0",
            "type": "t_uint256"
          }
        ],
        "numberOfBytes": "32"
      },
      "t_uint256": {
        "encoding": "inplace",
        "label": "uint256",
        "numberOfBytes": "32"
      }
    }
  }
}