{
  "address": "0xF4669798867d6b3784F58E8800824a51B236cB9a",
  "abi": [
    {
      "inputs": [
        {
          "internalType": "address[]",
          "name": "addrs",
          "type": "address[]"
        }
      ],
      "name": "addAddresses",
      "outputs": [],
      "stateMutability": "nonpayable",
      "type": "function"
    },
    {
      "inputs": [
        {
          "internalType": "uint256",
          "name": "",
          "type": "uint256"
        }
      ],
      "name": "addresses",
      "outputs": [
        {
          "internalType": "address",
          "name": "",
          "type": "address"
        }
      ],
      "stateMutability": "view",
      "type": "function"
    },
    {
      "inputs": [
        {
          "internalType": "address",
          "name": "account",
          "type": "address"
        },
        {
          "internalType": "bytes4[]",
          "name": "interfaceIds",
          "type": "bytes4[]"
        }
      ],
      "name": "checkSupportedInterfaces",
      "outputs": [
        {
          "internalType": "bool[]",
          "name": "interfaceIdsChecker",
          "type": "bool[]"
        }
      ],
      "stateMutability": "view",
      "type": "function"
    },
    {
      "inputs": [],
      "name": "countAddresses",
      "outputs": [
        {
          "internalType": "uint256",
          "name": "",
          "type": "uint256"
        }
      ],
      "stateMutability": "view",
      "type": "function"
    },
    {
      "inputs": [
        {
          "internalType": "address[]",
          "name": "collections",
          "type": "address[]"
        },
        {
          "internalType": "address",
          "name": "account",
          "type": "address"
        }
      ],
      "name": "getCollectionsInfos",
      "outputs": [
        {
          "components": [
            {
              "internalType": "address",
              "name": "collection",
              "type": "address"
            },
            {
              "internalType": "address",
              "name": "owner",
              "type": "address"
            },
            {
              "internalType": "string",
              "name": "name",
              "type": "string"
            },
            {
              "internalType": "string",
              "name": "symbol",
              "type": "string"
            },
            {
              "internalType": "uint256",
              "name": "totalSupply",
              "type": "uint256"
            },
            {
              "internalType": "uint256",
              "name": "balanceOf",
              "type": "uint256"
            }
          ],
          "internalType": "struct IERC721Infos.CollectionInfos[]",
          "name": "collectionsInfo",
          "type": "tuple[]"
        }
      ],
      "stateMutability": "view",
      "type": "function"
    },
    {
      "inputs": [
        {
          "internalType": "address",
          "name": "account",
          "type": "address"
        }
      ],
      "name": "openResolver",
      "outputs": [
        {
          "components": [
            {
              "internalType": "address",
              "name": "collection",
              "type": "address"
            },
            {
              "internalType": "address",
              "name": "owner",
              "type": "address"
            },
            {
              "internalType": "string",
              "name": "name",
              "type": "string"
            },
            {
              "internalType": "string",
              "name": "symbol",
              "type": "string"
            },
            {
              "internalType": "uint256",
              "name": "totalSupply",
              "type": "uint256"
            },
            {
              "internalType": "uint256",
              "name": "balanceOf",
              "type": "uint256"
            }
          ],
          "internalType": "struct IERC721Infos.CollectionInfos[]",
          "name": "",
          "type": "tuple[]"
        }
      ],
      "stateMutability": "view",
      "type": "function"
    },
    {
      "inputs": [
        {
          "internalType": "bytes4",
          "name": "interfaceId",
          "type": "bytes4"
        }
      ],
      "name": "supportsInterface",
      "outputs": [
        {
          "internalType": "bool",
          "name": "",
          "type": "bool"
        }
      ],
      "stateMutability": "view",
      "type": "function"
    }
  ],
  "transactionHash": "0xae57d51dea4845258077b77b96b0f134bdd6ed330be7e41733c2ea082b50a98c",
  "args": [],
  "numDeployments": 1,
  "solcInputHash": "a03cdf8ceee8478430c32c8480eadb44",
  "bytecode": "0x6101606040526301ffc9a760e01b60809081526001600160e01b031960a0526307f5828d60e41b60c052636cdb3d1360e11b60e0526380ac58cd60e01b61010052635b5e139f60e01b6101205263780e9d6360e01b61014052610066906001906007610079565b5034801561007357600080fd5b5061013a565b828054828255906000526020600020906007016008900481019282156101155791602002820160005b838211156100e357835183826101000a81548163ffffffff021916908360e01c021790555092602001926004016020816003010492830192600103026100a2565b80156101135782816101000a81549063ffffffff02191690556004016020816003010492830192600103026100e3565b505b50610121929150610125565b5090565b5b808211156101215760008155600101610126565b610fa8806101496000396000f3fe608060405234801561001057600080fd5b506004361061007d5760003560e01c806340b8d0291161005b57806340b8d029146100df5780635fc83aae146100f2578063ec530de614610112578063edf26d9b1461012357600080fd5b806301ffc9a71461008257806307fda8e7146100aa5780633628731c146100ca575b600080fd5b610095610090366004610a5c565b61014e565b60405190151581526020015b60405180910390f35b6100bd6100b8366004610a96565b61015f565b6040516100a19190610b0f565b6100dd6100d8366004610cac565b6101c5565b005b6100bd6100ed366004610ce9565b610236565b610105610100366004610d3b565b6102f4565b6040516100a19190610de8565b6000546040519081526020016100a1565b610136610131366004610e2e565b610421565b6040516001600160a01b0390911681526020016100a1565b60006101598261044b565b92915050565b606061015960008054806020026020016040519081016040528092919081815260200182805480156101ba57602002820191906000526020600020905b81546001600160a01b0316815260019091019060200180831161019c575b505050505083610236565b60005b81518110156102325760008282815181106101e5576101e5610e47565b60209081029190910181015182546001810184556000938452919092200180546001600160a01b0319166001600160a01b039092169190911790558061022a81610e5d565b9150506101c8565b5050565b6060825167ffffffffffffffff81111561025257610252610bcd565b60405190808252806020026020018201604052801561028b57816020015b6102786109f7565b8152602001906001900390816102705790505b50905060005b83518110156102ed576102bd8482815181106102af576102af610e47565b602002602001015184610470565b8282815181106102cf576102cf610e47565b602002602001018190525080806102e590610e5d565b915050610291565b5092915050565b6060815167ffffffffffffffff81111561031057610310610bcd565b604051908082528060200260200182016040528015610339578160200160208202803683370190505b50905060005b82518110156102ed57836001600160a01b03166301ffc9a784838151811061036957610369610e47565b60200260200101516040518263ffffffff1660e01b815260040161039d91906001600160e01b031991909116815260200190565b60206040518083038186803b1580156103b557600080fd5b505afa1580156103c9573d6000803e3d6000fd5b505050506040513d601f19601f820116820180604052508101906103ed9190610e86565b8282815181106103ff576103ff610e47565b911515602092830291909101909101528061041981610e5d565b91505061033f565b6000818154811061043157600080fd5b6000918252602090912001546001600160a01b0316905081565b60006001600160e01b031982166307fda8e760e01b1480610159575061015982610982565b6104786109f7565b6001600160a01b0383163b6104c85760405162461bcd60e51b8152602060048201526011602482015270139bdd081cdb585c9d18dbdb9d1c9858dd607a1b60448201526064015b60405180910390fd5b60408051600480825260a082019092526000916020820160808036833701905050905061057284600180548060200260200160405190810160405280929190818152602001828054801561056857602002820191906000526020600020906000905b82829054906101000a900460e01b6001600160e01b0319168152602001906004019060208260030104928301926001038202915080841161052a5790505b50505050506102f4565b90508060008151811061058757610587610e47565b602002602001015180156105b35750806001815181106105a9576105a9610e47565b6020026020010151155b6105ec5760405162461bcd60e51b815260206004820152600a6024820152694e6f742045524331363560b01b60448201526064016104bf565b806003815181106105ff576105ff610e47565b60200260200101518061062957508060048151811061062057610620610e47565b60200260200101515b61066d5760405162461bcd60e51b8152602060048201526015602482015274139bdd08139195081cdb585c9d18dbdb9d1c9858dd605a1b60448201526064016104bf565b6001600160a01b03831661067f573392505b6001600160a01b03841682528051819060049081106106a0576106a0610e47565b6020026020010151156108dc576040516370a0823160e01b81526001600160a01b0384811660048301528516906370a082319060240160206040518083038186803b1580156106ee57600080fd5b505afa158015610702573d6000803e3d6000fd5b505050506040513d601f19601f820116820180604052508101906107269190610ea8565b60a083015280518190600590811061074057610740610e47565b60200260200101511561084557836001600160a01b03166306fdde036040518163ffffffff1660e01b815260040160006040518083038186803b15801561078657600080fd5b505afa15801561079a573d6000803e3d6000fd5b505050506040513d6000823e601f3d908101601f191682016040526107c29190810190610ec1565b8260400181905250836001600160a01b03166395d89b416040518163ffffffff1660e01b815260040160006040518083038186803b15801561080357600080fd5b505afa158015610817573d6000803e3d6000fd5b505050506040513d6000823e601f3d908101601f1916820160405261083f9190810190610ec1565b60608301525b8060068151811061085857610858610e47565b6020026020010151156108dc57836001600160a01b03166318160ddd6040518163ffffffff1660e01b815260040160206040518083038186803b15801561089e57600080fd5b505afa1580156108b2573d6000803e3d6000fd5b505050506040513d601f19601f820116820180604052508101906108d69190610ea8565b60808301525b806002815181106108ef576108ef610e47565b6020026020010151156102ed57836001600160a01b0316638da5cb5b6040518163ffffffff1660e01b815260040160206040518083038186803b15801561093557600080fd5b505afa158015610949573d6000803e3d6000fd5b505050506040513d601f19601f8201168201806040525081019061096d9190610f55565b6001600160a01b031660208301525092915050565b60006001600160e01b031982166340b8d02960e01b148061015957506101598260006001600160e01b03198216632fe41d5760e11b148061015957506101598260006001600160e01b03198216633789136160e01b148061015957506001600160e01b031982166301ffc9a760e01b14610159565b6040518060c0016040528060006001600160a01b0316815260200160006001600160a01b03168152602001606081526020016060815260200160008152602001600081525090565b80356001600160e01b031981168114610a5757600080fd5b919050565b600060208284031215610a6e57600080fd5b610a7782610a3f565b9392505050565b6001600160a01b0381168114610a9357600080fd5b50565b600060208284031215610aa857600080fd5b8135610a7781610a7e565b60005b83811015610ace578181015183820152602001610ab6565b83811115610add576000848401525b50505050565b60008151808452610afb816020860160208601610ab3565b601f01601f19169290920160200192915050565b60006020808301818452808551808352604092508286019150828160051b87010184880160005b83811015610bbf57888303603f19018552815180516001600160a01b0390811685528882015116888501528681015160c088860181905290610b7a82870182610ae3565b91505060608083015186830382880152610b948382610ae3565b6080858101519089015260a09485015194909701939093525050509386019390860190600101610b36565b509098975050505050505050565b634e487b7160e01b600052604160045260246000fd5b604051601f8201601f1916810167ffffffffffffffff81118282101715610c0c57610c0c610bcd565b604052919050565b600067ffffffffffffffff821115610c2e57610c2e610bcd565b5060051b60200190565b600082601f830112610c4957600080fd5b81356020610c5e610c5983610c14565b610be3565b82815260059290921b84018101918181019086841115610c7d57600080fd5b8286015b84811015610ca1578035610c9481610a7e565b8352918301918301610c81565b509695505050505050565b600060208284031215610cbe57600080fd5b813567ffffffffffffffff811115610cd557600080fd5b610ce184828501610c38565b949350505050565b60008060408385031215610cfc57600080fd5b823567ffffffffffffffff811115610d1357600080fd5b610d1f85828601610c38565b9250506020830135610d3081610a7e565b809150509250929050565b60008060408385031215610d4e57600080fd5b8235610d5981610a7e565b915060208381013567ffffffffffffffff811115610d7657600080fd5b8401601f81018613610d8757600080fd5b8035610d95610c5982610c14565b81815260059190911b82018301908381019088831115610db457600080fd5b928401925b82841015610dd957610dca84610a3f565b82529284019290840190610db9565b80955050505050509250929050565b6020808252825182820181905260009190848201906040850190845b81811015610e22578351151583529284019291840191600101610e04565b50909695505050505050565b600060208284031215610e4057600080fd5b5035919050565b634e487b7160e01b600052603260045260246000fd5b6000600019821415610e7f57634e487b7160e01b600052601160045260246000fd5b5060010190565b600060208284031215610e9857600080fd5b81518015158114610a7757600080fd5b600060208284031215610eba57600080fd5b5051919050565b600060208284031215610ed357600080fd5b815167ffffffffffffffff80821115610eeb57600080fd5b818401915084601f830112610eff57600080fd5b815181811115610f1157610f11610bcd565b610f24601f8201601f1916602001610be3565b9150808252856020828501011115610f3b57600080fd5b610f4c816020840160208601610ab3565b50949350505050565b600060208284031215610f6757600080fd5b8151610a7781610a7e56fea26469706673582212209418946754a49ac8c1978fef4f9c99c0cf546eb089bd028269f1d212d72f161164736f6c63430008090033",
  "devdoc": {
    "kind": "dev",
    "methods": {},
    "version": 1
  },
  "userdoc": {
    "kind": "user",
    "methods": {},
    "version": 1
  },
  "storageLayout": {
    "storage": [
      {
        "astId": 9050,
        "contract": "contracts/templates/NFTsResolver.sol:NFTsResolver",
        "label": "addresses",
        "offset": 0,
        "slot": "0",
        "type": "t_array(t_address)dyn_storage"
      },
      {
        "astId": 8817,
        "contract": "contracts/templates/NFTsResolver.sol:NFTsResolver",
        "label": "_ids",
        "offset": 0,
        "slot": "1",
        "type": "t_array(t_bytes4)dyn_storage"
      }
    ],
    "types": {
      "t_address": {
        "encoding": "inplace",
        "label": "address",
        "numberOfBytes": "20"
      },
      "t_array(t_address)dyn_storage": {
        "base": "t_address",
        "encoding": "dynamic_array",
        "label": "address[]",
        "numberOfBytes": "32"
      },
      "t_array(t_bytes4)dyn_storage": {
        "base": "t_bytes4",
        "encoding": "dynamic_array",
        "label": "bytes4[]",
        "numberOfBytes": "32"
      },
      "t_bytes4": {
        "encoding": "inplace",
        "label": "bytes4",
        "numberOfBytes": "4"
      }
    }
  }
}