{
  "address": "0x1D46171dd534Ce50981FcA77E5CD7cA52Ff95D13",
  "abi": [
    {
      "anonymous": false,
      "inputs": [
        {
          "indexed": true,
          "internalType": "address",
          "name": "previousOwner",
          "type": "address"
        },
        {
          "indexed": true,
          "internalType": "address",
          "name": "newOwner",
          "type": "address"
        }
      ],
      "name": "OwnershipTransferred",
      "type": "event"
    },
    {
      "inputs": [
        {
          "internalType": "address",
          "name": "addr",
          "type": "address"
        }
      ],
      "name": "addAddress",
      "outputs": [],
      "stateMutability": "nonpayable",
      "type": "function"
    },
    {
      "inputs": [
        {
          "internalType": "address[]",
          "name": "addrs",
          "type": "address[]"
        }
      ],
      "name": "addAddresses",
      "outputs": [],
      "stateMutability": "nonpayable",
      "type": "function"
    },
    {
      "inputs": [
        {
          "internalType": "uint256",
          "name": "index",
          "type": "uint256"
        }
      ],
      "name": "burnAddress",
      "outputs": [],
      "stateMutability": "nonpayable",
      "type": "function"
    },
    {
      "inputs": [
        {
          "internalType": "address",
          "name": "smartcontract",
          "type": "address"
        }
      ],
      "name": "checkErcInterfaces",
      "outputs": [
        {
          "internalType": "bool[]",
          "name": "ercInterfacesChecks",
          "type": "bool[]"
        }
      ],
      "stateMutability": "view",
      "type": "function"
    },
    {
      "inputs": [
        {
          "internalType": "address",
          "name": "smartcontract",
          "type": "address"
        },
        {
          "internalType": "bool",
          "name": "erc",
          "type": "bool"
        },
        {
          "internalType": "bytes4[]",
          "name": "interfaceIds",
          "type": "bytes4[]"
        }
      ],
      "name": "checkSupportedInterfaces",
      "outputs": [
        {
          "internalType": "bool[]",
          "name": "interfaceIdsChecks",
          "type": "bool[]"
        }
      ],
      "stateMutability": "view",
      "type": "function"
    },
    {
      "inputs": [],
      "name": "countAddresses",
      "outputs": [
        {
          "internalType": "uint256",
          "name": "",
          "type": "uint256"
        }
      ],
      "stateMutability": "view",
      "type": "function"
    },
    {
      "inputs": [],
      "name": "getAddresses",
      "outputs": [
        {
          "internalType": "address[]",
          "name": "",
          "type": "address[]"
        }
      ],
      "stateMutability": "view",
      "type": "function"
    },
    {
      "inputs": [
        {
          "internalType": "address",
          "name": "collection",
          "type": "address"
        }
      ],
      "name": "getCollectionInfos",
      "outputs": [
        {
          "components": [
            {
              "internalType": "address",
              "name": "collection",
              "type": "address"
            },
            {
              "internalType": "address",
              "name": "owner",
              "type": "address"
            },
            {
              "internalType": "string",
              "name": "name",
              "type": "string"
            },
            {
              "internalType": "string",
              "name": "symbol",
              "type": "string"
            },
            {
              "internalType": "uint256",
              "name": "totalSupply",
              "type": "uint256"
            },
            {
              "internalType": "uint256",
              "name": "balanceOf",
              "type": "uint256"
            },
            {
              "internalType": "bool[]",
              "name": "supported",
              "type": "bool[]"
            }
          ],
          "internalType": "struct IERC721Infos.CollectionInfos",
          "name": "collectionInfos",
          "type": "tuple"
        }
      ],
      "stateMutability": "view",
      "type": "function"
    },
    {
      "inputs": [
        {
          "internalType": "address[]",
          "name": "collections",
          "type": "address[]"
        },
        {
          "internalType": "address",
          "name": "account",
          "type": "address"
        },
        {
          "internalType": "bytes4[]",
          "name": "interfaceIds",
          "type": "bytes4[]"
        }
      ],
      "name": "getCollectionsInfos",
      "outputs": [
        {
          "components": [
            {
              "internalType": "address",
              "name": "collection",
              "type": "address"
            },
            {
              "internalType": "address",
              "name": "owner",
              "type": "address"
            },
            {
              "internalType": "string",
              "name": "name",
              "type": "string"
            },
            {
              "internalType": "string",
              "name": "symbol",
              "type": "string"
            },
            {
              "internalType": "uint256",
              "name": "totalSupply",
              "type": "uint256"
            },
            {
              "internalType": "uint256",
              "name": "balanceOf",
              "type": "uint256"
            },
            {
              "internalType": "bool[]",
              "name": "supported",
              "type": "bool[]"
            }
          ],
          "internalType": "struct IERC721Infos.CollectionInfos[]",
          "name": "collectionsInfos",
          "type": "tuple[]"
        }
      ],
      "stateMutability": "view",
      "type": "function"
    },
    {
      "inputs": [
        {
          "internalType": "address",
          "name": "collection",
          "type": "address"
        },
        {
          "internalType": "address",
          "name": "account",
          "type": "address"
        }
      ],
      "name": "getNFTsResolverCollectionInfos",
      "outputs": [
        {
          "components": [
            {
              "internalType": "address",
              "name": "collection",
              "type": "address"
            },
            {
              "internalType": "address",
              "name": "owner",
              "type": "address"
            },
            {
              "internalType": "string",
              "name": "name",
              "type": "string"
            },
            {
              "internalType": "string",
              "name": "symbol",
              "type": "string"
            },
            {
              "internalType": "uint256",
              "name": "totalSupply",
              "type": "uint256"
            },
            {
              "internalType": "uint256",
              "name": "balanceOf",
              "type": "uint256"
            },
            {
              "internalType": "bool[]",
              "name": "supported",
              "type": "bool[]"
            }
          ],
          "internalType": "struct IERC721Infos.CollectionInfos",
          "name": "collectionInfos",
          "type": "tuple"
        }
      ],
      "stateMutability": "view",
      "type": "function"
    },
    {
      "inputs": [
        {
          "internalType": "address",
          "name": "account",
          "type": "address"
        }
      ],
      "name": "getNFTsResolverCollectionsInfos",
      "outputs": [
        {
          "components": [
            {
              "internalType": "address",
              "name": "collection",
              "type": "address"
            },
            {
              "internalType": "address",
              "name": "owner",
              "type": "address"
            },
            {
              "internalType": "string",
              "name": "name",
              "type": "string"
            },
            {
              "internalType": "string",
              "name": "symbol",
              "type": "string"
            },
            {
              "internalType": "uint256",
              "name": "totalSupply",
              "type": "uint256"
            },
            {
              "internalType": "uint256",
              "name": "balanceOf",
              "type": "uint256"
            },
            {
              "internalType": "bool[]",
              "name": "supported",
              "type": "bool[]"
            }
          ],
          "internalType": "struct IERC721Infos.CollectionInfos[]",
          "name": "collectionsInfos",
          "type": "tuple[]"
        }
      ],
      "stateMutability": "view",
      "type": "function"
    },
    {
      "inputs": [
        {
          "internalType": "address",
          "name": "owner_",
          "type": "address"
        }
      ],
      "name": "initialize",
      "outputs": [],
      "stateMutability": "nonpayable",
      "type": "function"
    },
    {
      "inputs": [],
      "name": "owner",
      "outputs": [
        {
          "internalType": "address",
          "name": "",
          "type": "address"
        }
      ],
      "stateMutability": "view",
      "type": "function"
    },
    {
      "inputs": [
        {
          "internalType": "bytes4",
          "name": "interfaceId",
          "type": "bytes4"
        }
      ],
      "name": "supportsInterface",
      "outputs": [
        {
          "internalType": "bool",
          "name": "",
          "type": "bool"
        }
      ],
      "stateMutability": "view",
      "type": "function"
    },
    {
      "inputs": [
        {
          "internalType": "address",
          "name": "newOwner",
          "type": "address"
        }
      ],
      "name": "transferOwnership",
      "outputs": [],
      "stateMutability": "nonpayable",
      "type": "function"
    }
  ],
  "transactionHash": "0xd778392fb0cc80e40b3ef18a84d1d6a754b2f544ad1c9b89b2cdf2a6ed69683b",
  "args": [],
  "numDeployments": 6,
  "solcInputHash": "16a7c9d5e800e733b199924852ecb559",
  "bytecode": "0x6101e06040526001600160e01b031960809081526301ffc9a760e01b60a0526380ac58cd60e01b60c052635b5e139f60e01b60e05263780e9d6360e01b61010052630a85bd0160e11b61012052636cdb3d1360e11b610140526303a24d0760e21b61016052630271189760e51b610180526307f5828d60e41b6101a05263152a902d60e11b6101c0526200009890600290600b620000e2565b5060408051600b808252610180820190925290602082016101608036833750508151620000cd926003925060200190620000e2565b50348015620000db57600080fd5b50620001ac565b82805482825590600052602060002090600701600890048101928215620001835791602002820160005b838211156200014f57835183826101000a81548163ffffffff021916908360e01c021790555092602001926004016020816003010492830192600103026200010c565b8015620001815782816101000a81549063ffffffff02191690556004016020816003010492830192600103026200014f565b505b506200019192915062000195565b5090565b5b8082111562000191576000815560010162000196565b611d9780620001bc6000396000f3fe608060405234801561001057600080fd5b50600436106100f55760003560e01c8063570cd8aa11610097578063a39fac1211610066578063a39fac121461021f578063c4d66de814610234578063ec530de614610247578063f2fde38b1461025857600080fd5b8063570cd8aa146101bd578063690682a4146101d05780637600c24c146101e35780638da5cb5b146101f657600080fd5b80633628731c116100d35780633628731c1461015757806338eada1c1461016a578063490f06eb1461017d57806350da677b1461019d57600080fd5b806301ffc9a7146100fa578063043f5cbb1461012257806314e8b07914610137575b600080fd5b61010d6101083660046116c9565b61026b565b60405190151581526020015b60405180910390f35b6101356101303660046116e4565b610296565b005b61014a610145366004611712565b6103e5565b604051610119919061185c565b610135610165366004611943565b61047c565b610135610178366004611980565b61052e565b61019061018b366004611980565b6105c0565b604051610119919061199d565b6101b06101ab366004611a45565b6105f9565b6040516101199190611abd565b6101b06101cb366004611980565b6106b9565b6101906101de366004611b2d565b610742565b61014a6101f1366004611980565b6109b9565b60005461010090046001600160a01b03166040516001600160a01b039091168152602001610119565b6102276109dd565b6040516101199190611b85565b610135610242366004611980565b610a3f565b600154604051908152602001610119565b610135610266366004611980565b610e0a565b60006001600160e01b03198216638732053b60e01b1480610290575061029082610e61565b92915050565b60005461010090046001600160a01b03166001600160a01b0316336001600160a01b0316146102e05760405162461bcd60e51b81526004016102d790611bc6565b60405180910390fd5b60015481106103215760405162461bcd60e51b815260206004820152600d60248201526c092dcecc2d8d2c840d2dcc8caf609b1b60448201526064016102d7565b6001805461032f9190611c04565b81146103af5760018054610344908290611c04565b8154811061035457610354611c1b565b600091825260209091200154600180546001600160a01b03909216918390811061038057610380611c1b565b9060005260206000200160006101000a8154816001600160a01b0302191690836001600160a01b031602179055505b60018054806103c0576103c0611c31565b600082815260209020810160001990810180546001600160a01b031916905501905550565b6103ed61165d565b6104758383600380548060200260200160405190810160405280929190818152602001828054801561046b57602002820191906000526020600020906000905b82829054906101000a900460e01b6001600160e01b0319168152602001906004019060208260030104928301926001038202915080841161042d5790505b5050505050610e86565b9392505050565b60005461010090046001600160a01b03166001600160a01b0316336001600160a01b0316146104bd5760405162461bcd60e51b81526004016102d790611bc6565b60005b815181101561052a5760018282815181106104dd576104dd611c1b565b60209081029190910181015182546001810184556000938452919092200180546001600160a01b0319166001600160a01b039092169190911790558061052281611c47565b9150506104c0565b5050565b60005461010090046001600160a01b03166001600160a01b0316336001600160a01b03161461056f5760405162461bcd60e51b81526004016102d790611bc6565b6001805480820182556000919091527fb10e2d527612073b26eecdfd717e6a320cf44b4afac2b0732d9fcbe2b7fa0cf60180546001600160a01b0319166001600160a01b0392909216919091179055565b606061029082600160006040519080825280602002602001820160405280156105f3578160200160208202803683370190505b50610742565b6060835167ffffffffffffffff8111156106155761061561186f565b60405190808252806020026020018201604052801561064e57816020015b61063b61165d565b8152602001906001900390816106335790505b50905060005b84518110156106b15761068185828151811061067257610672611c1b565b60200260200101518585610e86565b82828151811061069357610693611c1b565b602002602001018190525080806106a990611c47565b915050610654565b509392505050565b606061029082600380548060200260200160405190810160405280929190818152602001828054801561073857602002820191906000526020600020906000905b82829054906101000a900460e01b6001600160e01b031916815260200190600401906020826003010492830192600103820291508084116106fa5790505b50505050506112fd565b6060600080835185610755576000610759565b6002545b6107639190611c62565b90508067ffffffffffffffff81111561077e5761077e61186f565b6040519080825280602002602001820160405280156107a7578160200160208202803683370190505b50925084156108bf5760005b6002548110156108bd57866001600160a01b03166301ffc9a7600283815481106107df576107df611c1b565b90600052602060002090600891828204019190066004029054906101000a900460e01b6040518263ffffffff1660e01b815260040161082e91906001600160e01b031991909116815260200190565b60206040518083038186803b15801561084657600080fd5b505afa15801561085a573d6000803e3d6000fd5b505050506040513d601f19601f8201168201806040525081019061087e9190611c7a565b848461088981611c47565b95508151811061089b5761089b611c1b565b91151560209283029190910190910152806108b581611c47565b9150506107b3565b505b60005b84518110156109af57866001600160a01b03166301ffc9a78683815181106108ec576108ec611c1b565b60200260200101516040518263ffffffff1660e01b815260040161092091906001600160e01b031991909116815260200190565b60206040518083038186803b15801561093857600080fd5b505afa15801561094c573d6000803e3d6000fd5b505050506040513d601f19601f820116820180604052508101906109709190611c7a565b848461097b81611c47565b95508151811061098d5761098d611c1b565b91151560209283029190910190910152806109a781611c47565b9150506108c2565b5050509392505050565b6109c161165d565b6040805160008152602081019091526102909083903390610e86565b60606001805480602002602001604051908101604052809291908181526020018280548015610a3557602002820191906000526020600020905b81546001600160a01b03168152600190910190602001808311610a17575b5050505050905090565b610a4881611516565b6000630c38761960e41b600382610a5e81611c47565b935081548110610a7057610a70611c1b565b90600052602060002090600891828204019190066004026101000a81548163ffffffff021916908360e01c0217905550632009844f60e01b60038280610ab590611c47565b935081548110610ac757610ac7611c1b565b90600052602060002090600891828204019190066004026101000a81548163ffffffff021916908360e01c0217905550631fc9136f60e11b60038280610b0c90611c47565b935081548110610b1e57610b1e611c1b565b90600052602060002090600891828204019190066004026101000a81548163ffffffff021916908360e01c0217905550638351879960e01b60038280610b6390611c47565b935081548110610b7557610b75611c1b565b90600052602060002090600891828204019190066004026101000a81548163ffffffff021916908360e01c02179055506398396bd360e01b60038280610bba90611c47565b935081548110610bcc57610bcc611c1b565b90600052602060002090600891828204019190066004026101000a81548163ffffffff021916908360e01c0217905550634b68d43160e01b60038280610c1190611c47565b935081548110610c2357610c23611c1b565b90600052602060002090600891828204019190066004026101000a81548163ffffffff021916908360e01c0217905550633ab2af8560e21b60038280610c6890611c47565b935081548110610c7a57610c7a611c1b565b90600052602060002090600891828204019190066004026101000a81548163ffffffff021916908360e01c0217905550636ca50ed960e11b60038280610cbf90611c47565b935081548110610cd157610cd1611c1b565b90600052602060002090600891828204019190066004026101000a81548163ffffffff021916908360e01c0217905550635f5f00ef60e01b60038280610d1690611c47565b935081548110610d2857610d28611c1b565b90600052602060002090600891828204019190066004026101000a81548163ffffffff021916908360e01c0217905550632865aacb60e11b60038280610d6d90611c47565b935081548110610d7f57610d7f611c1b565b90600052602060002090600891828204019190066004026101000a81548163ffffffff021916908360e01c02179055506317812f2360e11b60038280610dc490611c47565b935081548110610dd657610dd6611c1b565b90600052602060002090600891828204019190066004026101000a81548163ffffffff021916908360e01c02179055505050565b60005461010090046001600160a01b03163314610e555760405162461bcd60e51b81526020600482015260096024820152682737ba1037bbb732b960b91b60448201526064016102d7565b610e5e8161156f565b50565b60006001600160e01b031982166350da677b60e01b14806102905750610290826115c8565b610e8e61165d565b6001600160a01b0384163b610ed95760405162461bcd60e51b8152602060048201526011602482015270139bdd081cdb585c9d18dbdb9d1c9858dd607a1b60448201526064016102d7565b6000610ee785600185610742565b9050808260c0018190525080600081518110610f0557610f05611c1b565b6020026020010151158015610f31575080600181518110610f2857610f28611c1b565b60200260200101515b610f6a5760405162461bcd60e51b815260206004820152600a6024820152694e6f742045524331363560b01b60448201526064016102d7565b80600281518110610f7d57610f7d611c1b565b602002602001015180610fa7575080600681518110610f9e57610f9e611c1b565b60200260200101515b610feb5760405162461bcd60e51b8152602060048201526015602482015274139bdd08139195081cdb585c9d18dbdb9d1c9858dd605a1b60448201526064016102d7565b6001600160a01b038516825280518190600990811061100c5761100c611c1b565b60200260200101511561109957846001600160a01b0316638da5cb5b6040518163ffffffff1660e01b815260040160206040518083038186803b15801561105257600080fd5b505afa158015611066573d6000803e3d6000fd5b505050506040513d601f19601f8201168201806040525081019061108a9190611c97565b6001600160a01b031660208301525b806002815181106110ac576110ac611c1b565b6020026020010151156106b157806003815181106110cc576110cc611c1b565b6020026020010151156111d157846001600160a01b03166306fdde036040518163ffffffff1660e01b815260040160006040518083038186803b15801561111257600080fd5b505afa158015611126573d6000803e3d6000fd5b505050506040513d6000823e601f3d908101601f1916820160405261114e9190810190611cb4565b8260400181905250846001600160a01b03166395d89b416040518163ffffffff1660e01b815260040160006040518083038186803b15801561118f57600080fd5b505afa1580156111a3573d6000803e3d6000fd5b505050506040513d6000823e601f3d908101601f191682016040526111cb9190810190611cb4565b60608301525b806004815181106111e4576111e4611c1b565b60200260200101511561126857846001600160a01b03166318160ddd6040518163ffffffff1660e01b815260040160206040518083038186803b15801561122a57600080fd5b505afa15801561123e573d6000803e3d6000fd5b505050506040513d601f19601f820116820180604052508101906112629190611d48565b60808301525b6001600160a01b038416156106b1576040516370a0823160e01b81526001600160a01b0385811660048301528616906370a082319060240160206040518083038186803b1580156112b857600080fd5b505afa1580156112cc573d6000803e3d6000fd5b505050506040513d601f19601f820116820180604052508101906112f09190611d48565b60a0830152509392505050565b60606000611366600180548060200260200160405190810160405280929190818152602001828054801561135a57602002820191906000526020600020905b81546001600160a01b0316815260019091019060200180831161133c575b505050505085856105f9565b90506000805b82518110156113f457600083828151811061138957611389611c1b565b602002602001015160a0015111806113cf5750856001600160a01b03168382815181106113b8576113b8611c1b565b6020026020010151602001516001600160a01b0316145b156113e257816113de81611c47565b9250505b806113ec81611c47565b91505061136c565b508067ffffffffffffffff81111561140e5761140e61186f565b60405190808252806020026020018201604052801561144757816020015b61143461165d565b81526020019060019003908161142c5790505b5092506000805b835181101561150c57600084828151811061146b5761146b611c1b565b602002602001015160a0015111806114b15750866001600160a01b031684828151811061149a5761149a611c1b565b6020026020010151602001516001600160a01b0316145b156114fa578381815181106114c8576114c8611c1b565b60200260200101518583806114dc90611c47565b9450815181106114ee576114ee611c1b565b60200260200101819052505b8061150481611c47565b91505061144e565b5050505092915050565b60005460ff161561155d5760405162461bcd60e51b8152602060048201526011602482015270125b9a5d08185b1c9958591e4818d85b1b607a1b60448201526064016102d7565b6000805460ff19166001179055610e5e815b600080546001600160a01b03838116610100818102610100600160a81b0319851617855560405193049190911692909183917f8be0079c531659141344cd1fd0a4f28419497f9722a3daafe3b4186f6b6457e091a35050565b60006001600160e01b03198216631d80309360e21b148061029057506102908260006001600160e01b03198216632009844f60e01b148061029057506102908260006001600160e01b03198216634531544f60e01b148061029057506102908260006307f5828d60e41b6001600160e01b03198316148061029057506001600160e01b031982166301ffc9a760e01b14610290565b6040518060e0016040528060006001600160a01b0316815260200160006001600160a01b0316815260200160608152602001606081526020016000815260200160008152602001606081525090565b80356001600160e01b0319811681146116c457600080fd5b919050565b6000602082840312156116db57600080fd5b610475826116ac565b6000602082840312156116f657600080fd5b5035919050565b6001600160a01b0381168114610e5e57600080fd5b6000806040838503121561172557600080fd5b8235611730816116fd565b91506020830135611740816116fd565b809150509250929050565b60005b8381101561176657818101518382015260200161174e565b83811115611775576000848401525b50505050565b6000815180845261179381602086016020860161174b565b601f01601f19169290920160200192915050565b600060018060a01b038083511684526020818185015116818601526040840151915060e060408601526117dd60e086018361177b565b9150606084015185830360608701526117f6838261177b565b9250506080840151608086015260a084015160a086015260c084015185830360c087015282815180855283850191508383019450600092505b808310156118515784511515825293830193600192909201919083019061182f565b509695505050505050565b60208152600061047560208301846117a7565b634e487b7160e01b600052604160045260246000fd5b604051601f8201601f1916810167ffffffffffffffff811182821017156118ae576118ae61186f565b604052919050565b600067ffffffffffffffff8211156118d0576118d061186f565b5060051b60200190565b600082601f8301126118eb57600080fd5b813560206119006118fb836118b6565b611885565b82815260059290921b8401810191818101908684111561191f57600080fd5b8286015b84811015611851578035611936816116fd565b8352918301918301611923565b60006020828403121561195557600080fd5b813567ffffffffffffffff81111561196c57600080fd5b611978848285016118da565b949350505050565b60006020828403121561199257600080fd5b8135610475816116fd565b6020808252825182820181905260009190848201906040850190845b818110156119d75783511515835292840192918401916001016119b9565b50909695505050505050565b600082601f8301126119f457600080fd5b81356020611a046118fb836118b6565b82815260059290921b84018101918181019086841115611a2357600080fd5b8286015b8481101561185157611a38816116ac565b8352918301918301611a27565b600080600060608486031215611a5a57600080fd5b833567ffffffffffffffff80821115611a7257600080fd5b611a7e878388016118da565b945060208601359150611a90826116fd565b90925060408501359080821115611aa657600080fd5b50611ab3868287016119e3565b9150509250925092565b6000602080830181845280855180835260408601915060408160051b870101925083870160005b82811015611b1257603f19888603018452611b008583516117a7565b94509285019290850190600101611ae4565b5092979650505050505050565b8015158114610e5e57600080fd5b600080600060608486031215611b4257600080fd5b8335611b4d816116fd565b92506020840135611b5d81611b1f565b9150604084013567ffffffffffffffff811115611b7957600080fd5b611ab3868287016119e3565b6020808252825182820181905260009190848201906040850190845b818110156119d75783516001600160a01b031683529284019291840191600101611ba1565b6020808252600e908201526d2737ba103932b3b4b9ba32b932b960911b604082015260600190565b634e487b7160e01b600052601160045260246000fd5b600082821015611c1657611c16611bee565b500390565b634e487b7160e01b600052603260045260246000fd5b634e487b7160e01b600052603160045260246000fd5b6000600019821415611c5b57611c5b611bee565b5060010190565b60008219821115611c7557611c75611bee565b500190565b600060208284031215611c8c57600080fd5b815161047581611b1f565b600060208284031215611ca957600080fd5b8151610475816116fd565b600060208284031215611cc657600080fd5b815167ffffffffffffffff80821115611cde57600080fd5b818401915084601f830112611cf257600080fd5b815181811115611d0457611d0461186f565b611d17601f8201601f1916602001611885565b9150808252856020828501011115611d2e57600080fd5b611d3f81602084016020860161174b565b50949350505050565b600060208284031215611d5a57600080fd5b505191905056fea26469706673582212205f1ce083f6c97fceeb54bfc7c9ed152780da616003e4e1611592f3b9a54d986464736f6c63430008090033",
  "devdoc": {
    "kind": "dev",
    "methods": {},
    "version": 1
  },
  "userdoc": {
    "kind": "user",
    "methods": {},
    "version": 1
  },
  "storageLayout": {
    "storage": [
      {
        "astId": 6531,
        "contract": "contracts/next/NFTsResolver.sol:NFTsResolver",
        "label": "_openERC173Initialized",
        "offset": 0,
        "slot": "0",
        "type": "t_bool"
      },
      {
        "astId": 6533,
        "contract": "contracts/next/NFTsResolver.sol:NFTsResolver",
        "label": "_owner",
        "offset": 1,
        "slot": "0",
        "type": "t_address"
      },
      {
        "astId": 9109,
        "contract": "contracts/next/NFTsResolver.sol:NFTsResolver",
        "label": "_addresses",
        "offset": 0,
        "slot": "1",
        "type": "t_array(t_address)dyn_storage"
      },
      {
        "astId": 8748,
        "contract": "contracts/next/NFTsResolver.sol:NFTsResolver",
        "label": "_ercInterfaceIds",
        "offset": 0,
        "slot": "2",
        "type": "t_array(t_bytes4)dyn_storage"
      },
      {
        "astId": 19342,
        "contract": "contracts/next/NFTsResolver.sol:NFTsResolver",
        "label": "interfaceIds",
        "offset": 0,
        "slot": "3",
        "type": "t_array(t_bytes4)dyn_storage"
      }
    ],
    "types": {
      "t_address": {
        "encoding": "inplace",
        "label": "address",
        "numberOfBytes": "20"
      },
      "t_array(t_address)dyn_storage": {
        "base": "t_address",
        "encoding": "dynamic_array",
        "label": "address[]",
        "numberOfBytes": "32"
      },
      "t_array(t_bytes4)dyn_storage": {
        "base": "t_bytes4",
        "encoding": "dynamic_array",
        "label": "bytes4[]",
        "numberOfBytes": "32"
      },
      "t_bool": {
        "encoding": "inplace",
        "label": "bool",
        "numberOfBytes": "1"
      },
      "t_bytes4": {
        "encoding": "inplace",
        "label": "bytes4",
        "numberOfBytes": "4"
      }
    }
  }
}