{
  "address": "0xbe884a85632634700117acb35aed25ad305a4c18",
  "abi": [
    {
      "anonymous": false,
      "inputs": [
        {
          "indexed": true,
          "internalType": "address",
          "name": "previousOwner",
          "type": "address"
        },
        {
          "indexed": true,
          "internalType": "address",
          "name": "newOwner",
          "type": "address"
        }
      ],
      "name": "OwnershipTransferred",
      "type": "event"
    },
    {
      "inputs": [
        {
          "internalType": "address[]",
          "name": "addrs",
          "type": "address[]"
        }
      ],
      "name": "addAddresses",
      "outputs": [],
      "stateMutability": "nonpayable",
      "type": "function"
    },
    {
      "inputs": [
        {
          "internalType": "uint256",
          "name": "index",
          "type": "uint256"
        }
      ],
      "name": "burnAddress",
      "outputs": [],
      "stateMutability": "nonpayable",
      "type": "function"
    },
    {
      "inputs": [
        {
          "internalType": "address",
          "name": "smartcontract",
          "type": "address"
        }
      ],
      "name": "checkErcInterfaces",
      "outputs": [
        {
          "internalType": "bool[]",
          "name": "interfaceIdsChecker",
          "type": "bool[]"
        }
      ],
      "stateMutability": "view",
      "type": "function"
    },
    {
      "inputs": [
        {
          "internalType": "address",
          "name": "smartcontract",
          "type": "address"
        },
        {
          "internalType": "bytes4[]",
          "name": "interfaceIds",
          "type": "bytes4[]"
        }
      ],
      "name": "checkSupportedInterfaces",
      "outputs": [
        {
          "internalType": "bool[]",
          "name": "interfaceIdsChecker",
          "type": "bool[]"
        }
      ],
      "stateMutability": "view",
      "type": "function"
    },
    {
      "inputs": [],
      "name": "countAddresses",
      "outputs": [
        {
          "internalType": "uint256",
          "name": "",
          "type": "uint256"
        }
      ],
      "stateMutability": "view",
      "type": "function"
    },
    {
      "inputs": [],
      "name": "getAddresses",
      "outputs": [
        {
          "internalType": "address[]",
          "name": "",
          "type": "address[]"
        }
      ],
      "stateMutability": "view",
      "type": "function"
    },
    {
      "inputs": [
        {
          "internalType": "address",
          "name": "collection",
          "type": "address"
        }
      ],
      "name": "getCollectionInfos",
      "outputs": [
        {
          "components": [
            {
              "internalType": "address",
              "name": "collection",
              "type": "address"
            },
            {
              "internalType": "address",
              "name": "owner",
              "type": "address"
            },
            {
              "internalType": "string",
              "name": "name",
              "type": "string"
            },
            {
              "internalType": "string",
              "name": "symbol",
              "type": "string"
            },
            {
              "internalType": "uint256",
              "name": "totalSupply",
              "type": "uint256"
            },
            {
              "internalType": "uint256",
              "name": "balanceOf",
              "type": "uint256"
            },
            {
              "internalType": "bool[]",
              "name": "supported",
              "type": "bool[]"
            }
          ],
          "internalType": "struct IERC721Infos.CollectionInfos",
          "name": "collectionInfos",
          "type": "tuple"
        }
      ],
      "stateMutability": "view",
      "type": "function"
    },
    {
      "inputs": [
        {
          "internalType": "address[]",
          "name": "collections",
          "type": "address[]"
        },
        {
          "internalType": "address",
          "name": "account",
          "type": "address"
        }
      ],
      "name": "getCollectionsInfos",
      "outputs": [
        {
          "components": [
            {
              "internalType": "address",
              "name": "collection",
              "type": "address"
            },
            {
              "internalType": "address",
              "name": "owner",
              "type": "address"
            },
            {
              "internalType": "string",
              "name": "name",
              "type": "string"
            },
            {
              "internalType": "string",
              "name": "symbol",
              "type": "string"
            },
            {
              "internalType": "uint256",
              "name": "totalSupply",
              "type": "uint256"
            },
            {
              "internalType": "uint256",
              "name": "balanceOf",
              "type": "uint256"
            },
            {
              "internalType": "bool[]",
              "name": "supported",
              "type": "bool[]"
            }
          ],
          "internalType": "struct IERC721Infos.CollectionInfos[]",
          "name": "collectionsInfos",
          "type": "tuple[]"
        }
      ],
      "stateMutability": "view",
      "type": "function"
    },
    {
      "inputs": [
        {
          "internalType": "address",
          "name": "owner_",
          "type": "address"
        }
      ],
      "name": "initialize",
      "outputs": [],
      "stateMutability": "nonpayable",
      "type": "function"
    },
    {
      "inputs": [
        {
          "internalType": "address",
          "name": "account",
          "type": "address"
        }
      ],
      "name": "openResolver",
      "outputs": [
        {
          "components": [
            {
              "internalType": "address",
              "name": "collection",
              "type": "address"
            },
            {
              "internalType": "address",
              "name": "owner",
              "type": "address"
            },
            {
              "internalType": "string",
              "name": "name",
              "type": "string"
            },
            {
              "internalType": "string",
              "name": "symbol",
              "type": "string"
            },
            {
              "internalType": "uint256",
              "name": "totalSupply",
              "type": "uint256"
            },
            {
              "internalType": "uint256",
              "name": "balanceOf",
              "type": "uint256"
            },
            {
              "internalType": "bool[]",
              "name": "supported",
              "type": "bool[]"
            }
          ],
          "internalType": "struct IERC721Infos.CollectionInfos[]",
          "name": "collectionsInfos",
          "type": "tuple[]"
        }
      ],
      "stateMutability": "view",
      "type": "function"
    },
    {
      "inputs": [],
      "name": "owner",
      "outputs": [
        {
          "internalType": "address",
          "name": "",
          "type": "address"
        }
      ],
      "stateMutability": "view",
      "type": "function"
    },
    {
      "inputs": [
        {
          "internalType": "bytes4",
          "name": "interfaceId",
          "type": "bytes4"
        }
      ],
      "name": "supportsInterface",
      "outputs": [
        {
          "internalType": "bool",
          "name": "",
          "type": "bool"
        }
      ],
      "stateMutability": "view",
      "type": "function"
    },
    {
      "inputs": [
        {
          "internalType": "address",
          "name": "newOwner",
          "type": "address"
        }
      ],
      "name": "transferOwnership",
      "outputs": [],
      "stateMutability": "nonpayable",
      "type": "function"
    }
  ],
  "transactionHash": "0x3c8f9d8150c69451ae7725c991e5ae96d7b37aa36f26039c1451a23c7aef740d",
  "args": [],
  "numDeployments": 5,
  "solcInputHash": "a7174941393122ae4fb22516f51f97d3",
  "bytecode": "0x6101e06040526001600160e01b031960809081526301ffc9a760e01b60a0526380ac58cd60e01b60c052635b5e139f60e01b60e05263780e9d6360e01b61010052630a85bd0160e11b61012052636cdb3d1360e11b610140526303a24d0760e21b61016052630271189760e51b610180526307f5828d60e41b6101a05263152a902d60e11b6101c0526200009890600290600b620000ad565b50348015620000a657600080fd5b5062000177565b828054828255906000526020600020906007016008900481019282156200014e5791602002820160005b838211156200011a57835183826101000a81548163ffffffff021916908360e01c02179055509260200192600401602081600301049283019260010302620000d7565b80156200014c5782816101000a81549063ffffffff02191690556004016020816003010492830192600103026200011a565b505b506200015c92915062000160565b5090565b5b808211156200015c576000815560010162000161565b6115dd80620001876000396000f3fe608060405234801561001057600080fd5b50600436106100cf5760003560e01c80635fc83aae1161008c578063a39fac1211610066578063a39fac12146101d3578063c4d66de8146101e8578063ec530de6146101fb578063f2fde38b1461020c57600080fd5b80635fc83aae146101775780637600c24c1461018a5780638da5cb5b146101aa57600080fd5b806301ffc9a7146100d4578063043f5cbb146100fc57806307fda8e7146101115780633628731c1461013157806340b8d02914610144578063490f06eb14610157575b600080fd5b6100e76100e2366004610fbd565b61021f565b60405190151581526020015b60405180910390f35b61010f61010a366004610fdf565b61024a565b005b61012461011f36600461100d565b6103b6565b6040516100f3919061113b565b61010f61013f366004611271565b61055b565b6101246101523660046112ae565b61062e565b61016a61016536600461100d565b6106ec565b6040516100f39190611300565b61016a610185366004611346565b610771565b61019d61019836600461100d565b61089e565b6040516100f391906113f3565b60005461010090046001600160a01b03166040516001600160a01b0390911681526020016100f3565b6101db6108b0565b6040516100f39190611406565b61010f6101f636600461100d565b610912565b6001546040519081526020016100f3565b61010f61021a36600461100d565b61091e565b60006001600160e01b0319821663189acdbd60e31b1480610244575061024482610972565b92915050565b60005461010090046001600160a01b03166001600160a01b0316336001600160a01b0316146102b15760405162461bcd60e51b815260206004820152600e60248201526d2737ba103932b3b4b9ba32b932b960911b60448201526064015b60405180910390fd5b60015481106102f25760405162461bcd60e51b815260206004820152600d60248201526c092dcecc2d8d2c840d2dcc8caf609b1b60448201526064016102a8565b60018054610300919061145d565b8114610380576001805461031590829061145d565b8154811061032557610325611474565b600091825260209091200154600180546001600160a01b03909216918390811061035157610351611474565b9060005260206000200160006101000a8154816001600160a01b0302191690836001600160a01b031602179055505b60018054806103915761039161148a565b600082815260209020810160001990810180546001600160a01b031916905501905550565b6060600061041e600180548060200260200160405190810160405280929190818152602001828054801561041357602002820191906000526020600020905b81546001600160a01b031681526001909101906020018083116103f5575b50505050508461062e565b90506000805b825181101561047357600083828151811061044157610441611474565b602002602001015160a001511115610461578161045d816114a0565b9250505b8061046b816114a0565b915050610424565b508067ffffffffffffffff81111561048d5761048d61119d565b6040519080825280602002602001820160405280156104c657816020015b6104b3610f51565b8152602001906001900390816104ab5790505b5092506000805b83518110156105525760008482815181106104ea576104ea611474565b602002602001015160a0015111156105405783818151811061050e5761050e611474565b6020026020010151858380610522906114a0565b94508151811061053457610534611474565b60200260200101819052505b8061054a816114a0565b9150506104cd565b50505050919050565b60005461010090046001600160a01b03166001600160a01b0316336001600160a01b0316146105bd5760405162461bcd60e51b815260206004820152600e60248201526d2737ba103932b3b4b9ba32b932b960911b60448201526064016102a8565b60005b815181101561062a5760018282815181106105dd576105dd611474565b60209081029190910181015182546001810184556000938452919092200180546001600160a01b0319166001600160a01b0390921691909117905580610622816114a0565b9150506105c0565b5050565b6060825167ffffffffffffffff81111561064a5761064a61119d565b60405190808252806020026020018201604052801561068357816020015b610670610f51565b8152602001906001900390816106685790505b50905060005b83518110156106e5576106b58482815181106106a7576106a7611474565b602002602001015184610997565b8282815181106106c7576106c7611474565b602002602001018190525080806106dd906114a0565b915050610689565b5092915050565b606061024482600280548060200260200160405190810160405280929190818152602001828054801561076b57602002820191906000526020600020906000905b82829054906101000a900460e01b6001600160e01b0319168152602001906004019060208260030104928301926001038202915080841161072d5790505b50505050505b6060815167ffffffffffffffff81111561078d5761078d61119d565b6040519080825280602002602001820160405280156107b6578160200160208202803683370190505b50905060005b82518110156106e557836001600160a01b03166301ffc9a78483815181106107e6576107e6611474565b60200260200101516040518263ffffffff1660e01b815260040161081a91906001600160e01b031991909116815260200190565b60206040518083038186803b15801561083257600080fd5b505afa158015610846573d6000803e3d6000fd5b505050506040513d601f19601f8201168201806040525081019061086a91906114bb565b82828151811061087c5761087c611474565b9115156020928302919091019091015280610896816114a0565b9150506107bc565b6108a6610f51565b6102448233610997565b6060600180548060200260200160405190810160405280929190818152602001828054801561090857602002820191906000526020600020905b81546001600160a01b031681526001909101906020018083116108ea575b5050505050905090565b61091b81610e0a565b50565b60005461010090046001600160a01b031633146109695760405162461bcd60e51b81526020600482015260096024820152682737ba1037bbb732b960b91b60448201526064016102a8565b61091b81610e63565b60006001600160e01b031982166307fda8e760e01b1480610244575061024482610ebc565b61099f610f51565b6001600160a01b0383163b6109ea5760405162461bcd60e51b8152602060048201526011602482015270139bdd081cdb585c9d18dbdb9d1c9858dd607a1b60448201526064016102a8565b60006109f5846106ec565b9050808260c0018190525080600081518110610a1357610a13611474565b6020026020010151158015610a3f575080600181518110610a3657610a36611474565b60200260200101515b610a785760405162461bcd60e51b815260206004820152600a6024820152694e6f742045524331363560b01b60448201526064016102a8565b80600281518110610a8b57610a8b611474565b602002602001015180610ab5575080600681518110610aac57610aac611474565b60200260200101515b610af95760405162461bcd60e51b8152602060048201526015602482015274139bdd08139195081cdb585c9d18dbdb9d1c9858dd605a1b60448201526064016102a8565b6001600160a01b0384168252805181906009908110610b1a57610b1a611474565b602002602001015115610ba757836001600160a01b0316638da5cb5b6040518163ffffffff1660e01b815260040160206040518083038186803b158015610b6057600080fd5b505afa158015610b74573d6000803e3d6000fd5b505050506040513d601f19601f82011682018060405250810190610b9891906114dd565b6001600160a01b031660208301525b80600281518110610bba57610bba611474565b6020026020010151156106e55780600381518110610bda57610bda611474565b602002602001015115610cdf57836001600160a01b03166306fdde036040518163ffffffff1660e01b815260040160006040518083038186803b158015610c2057600080fd5b505afa158015610c34573d6000803e3d6000fd5b505050506040513d6000823e601f3d908101601f19168201604052610c5c91908101906114fa565b8260400181905250836001600160a01b03166395d89b416040518163ffffffff1660e01b815260040160006040518083038186803b158015610c9d57600080fd5b505afa158015610cb1573d6000803e3d6000fd5b505050506040513d6000823e601f3d908101601f19168201604052610cd991908101906114fa565b60608301525b80600481518110610cf257610cf2611474565b602002602001015115610d7657836001600160a01b03166318160ddd6040518163ffffffff1660e01b815260040160206040518083038186803b158015610d3857600080fd5b505afa158015610d4c573d6000803e3d6000fd5b505050506040513d601f19601f82011682018060405250810190610d70919061158e565b60808301525b6001600160a01b038316156106e5576040516370a0823160e01b81526001600160a01b0384811660048301528516906370a082319060240160206040518083038186803b158015610dc657600080fd5b505afa158015610dda573d6000803e3d6000fd5b505050506040513d601f19601f82011682018060405250810190610dfe919061158e565b60a08301525092915050565b60005460ff1615610e515760405162461bcd60e51b8152602060048201526011602482015270125b9a5d08185b1c9958591e4818d85b1b607a1b60448201526064016102a8565b6000805460ff1916600117905561091b815b600080546001600160a01b03838116610100818102610100600160a81b0319851617855560405193049190911692909183917f8be0079c531659141344cd1fd0a4f28419497f9722a3daafe3b4186f6b6457e091a35050565b60006001600160e01b031982166336b8126560e01b148061024457506102448260006001600160e01b031982166316c73c4560e01b148061024457506102448260006001600160e01b03198216637ddb8e5360e01b148061024457506102448260006307f5828d60e41b6001600160e01b03198316148061024457506001600160e01b031982166301ffc9a760e01b14610244565b6040518060e0016040528060006001600160a01b0316815260200160006001600160a01b0316815260200160608152602001606081526020016000815260200160008152602001606081525090565b80356001600160e01b031981168114610fb857600080fd5b919050565b600060208284031215610fcf57600080fd5b610fd882610fa0565b9392505050565b600060208284031215610ff157600080fd5b5035919050565b6001600160a01b038116811461091b57600080fd5b60006020828403121561101f57600080fd5b8135610fd881610ff8565b60005b8381101561104557818101518382015260200161102d565b83811115611054576000848401525b50505050565b6000815180845261107281602086016020860161102a565b601f01601f19169290920160200192915050565b600060018060a01b038083511684526020818185015116818601526040840151915060e060408601526110bc60e086018361105a565b9150606084015185830360608701526110d5838261105a565b9250506080840151608086015260a084015160a086015260c084015185830360c087015282815180855283850191508383019450600092505b808310156111305784511515825293830193600192909201919083019061110e565b509695505050505050565b6000602080830181845280855180835260408601915060408160051b870101925083870160005b8281101561119057603f1988860301845261117e858351611086565b94509285019290850190600101611162565b5092979650505050505050565b634e487b7160e01b600052604160045260246000fd5b604051601f8201601f1916810167ffffffffffffffff811182821017156111dc576111dc61119d565b604052919050565b600067ffffffffffffffff8211156111fe576111fe61119d565b5060051b60200190565b600082601f83011261121957600080fd5b8135602061122e611229836111e4565b6111b3565b82815260059290921b8401810191818101908684111561124d57600080fd5b8286015b8481101561113057803561126481610ff8565b8352918301918301611251565b60006020828403121561128357600080fd5b813567ffffffffffffffff81111561129a57600080fd5b6112a684828501611208565b949350505050565b600080604083850312156112c157600080fd5b823567ffffffffffffffff8111156112d857600080fd5b6112e485828601611208565b92505060208301356112f581610ff8565b809150509250929050565b6020808252825182820181905260009190848201906040850190845b8181101561133a57835115158352928401929184019160010161131c565b50909695505050505050565b6000806040838503121561135957600080fd5b823561136481610ff8565b915060208381013567ffffffffffffffff81111561138157600080fd5b8401601f8101861361139257600080fd5b80356113a0611229826111e4565b81815260059190911b820183019083810190888311156113bf57600080fd5b928401925b828410156113e4576113d584610fa0565b825292840192908401906113c4565b80955050505050509250929050565b602081526000610fd86020830184611086565b6020808252825182820181905260009190848201906040850190845b8181101561133a5783516001600160a01b031683529284019291840191600101611422565b634e487b7160e01b600052601160045260246000fd5b60008282101561146f5761146f611447565b500390565b634e487b7160e01b600052603260045260246000fd5b634e487b7160e01b600052603160045260246000fd5b60006000198214156114b4576114b4611447565b5060010190565b6000602082840312156114cd57600080fd5b81518015158114610fd857600080fd5b6000602082840312156114ef57600080fd5b8151610fd881610ff8565b60006020828403121561150c57600080fd5b815167ffffffffffffffff8082111561152457600080fd5b818401915084601f83011261153857600080fd5b81518181111561154a5761154a61119d565b61155d601f8201601f19166020016111b3565b915080825285602082850101111561157457600080fd5b61158581602084016020860161102a565b50949350505050565b6000602082840312156115a057600080fd5b505191905056fea26469706673582212209ca434f5e8a9025ce16018528fbbd4d44c5355bd7f626bb3cf16ec28eb8dc8b364736f6c63430008090033",
  "devdoc": {
    "kind": "dev",
    "methods": {
      "checkErcInterfaces(address)": {
        "params": {
          "smartcontract": "smartcontract to check _ercInterfaceIds : ERC interfacesIds 0xffffffff :  O Invalid 0x01ffc9a7 :  1 ERC165 0x80ac58cd :  2 ERC721 0x5b5e139f :  3 ERC721Metadata 0x780e9d63 :  4 ERC721Enumerable 0x150b7a02 :  5 ERC721TokenReceiver 0xd9b67a26 :  6 ERC1155 0x0e89341c :  7 ERC1155MetadataURI 0x4e2312e0 :  8 ERC1155TokenReceiver 0x7f5828d0 :  9 ERC173 0x2a55205a : 10 ERC2981"
        }
      }
    },
    "version": 1
  },
  "userdoc": {
    "kind": "user",
    "methods": {
      "checkErcInterfaces(address)": {
        "notice": "checkSupportedInterfaces"
      }
    },
    "version": 1
  },
  "storageLayout": {
    "storage": [
      {
        "astId": 6531,
        "contract": "contracts/templates/NFTsResolver.sol:NFTsResolver",
        "label": "_openERC173Initialized",
        "offset": 0,
        "slot": "0",
        "type": "t_bool"
      },
      {
        "astId": 6533,
        "contract": "contracts/templates/NFTsResolver.sol:NFTsResolver",
        "label": "_owner",
        "offset": 1,
        "slot": "0",
        "type": "t_address"
      },
      {
        "astId": 9088,
        "contract": "contracts/templates/NFTsResolver.sol:NFTsResolver",
        "label": "_addresses",
        "offset": 0,
        "slot": "1",
        "type": "t_array(t_address)dyn_storage"
      },
      {
        "astId": 8747,
        "contract": "contracts/templates/NFTsResolver.sol:NFTsResolver",
        "label": "_ercInterfaceIds",
        "offset": 0,
        "slot": "2",
        "type": "t_array(t_bytes4)dyn_storage"
      }
    ],
    "types": {
      "t_address": {
        "encoding": "inplace",
        "label": "address",
        "numberOfBytes": "20"
      },
      "t_array(t_address)dyn_storage": {
        "base": "t_address",
        "encoding": "dynamic_array",
        "label": "address[]",
        "numberOfBytes": "32"
      },
      "t_array(t_bytes4)dyn_storage": {
        "base": "t_bytes4",
        "encoding": "dynamic_array",
        "label": "bytes4[]",
        "numberOfBytes": "32"
      },
      "t_bool": {
        "encoding": "inplace",
        "label": "bool",
        "numberOfBytes": "1"
      },
      "t_bytes4": {
        "encoding": "inplace",
        "label": "bytes4",
        "numberOfBytes": "4"
      }
    }
  }
}