{
  "address": "0xc11112aE2ADee906adC039D8096b351A61db3Ecc",
  "abi": [
    {
      "inputs": [
        {
          "internalType": "address",
          "name": "owner_",
          "type": "address"
        },
        {
          "internalType": "address",
          "name": "registerer_",
          "type": "address"
        }
      ],
      "stateMutability": "nonpayable",
      "type": "constructor"
    },
    {
      "anonymous": false,
      "inputs": [
        {
          "indexed": true,
          "internalType": "address",
          "name": "previousOwner",
          "type": "address"
        },
        {
          "indexed": true,
          "internalType": "address",
          "name": "newOwner",
          "type": "address"
        }
      ],
      "name": "OwnershipTransferred",
      "type": "event"
    },
    {
      "inputs": [
        {
          "internalType": "address",
          "name": "addr",
          "type": "address"
        }
      ],
      "name": "addAddress",
      "outputs": [],
      "stateMutability": "nonpayable",
      "type": "function"
    },
    {
      "inputs": [
        {
          "internalType": "address[]",
          "name": "addrs",
          "type": "address[]"
        }
      ],
      "name": "addAddresses",
      "outputs": [],
      "stateMutability": "nonpayable",
      "type": "function"
    },
    {
      "inputs": [
        {
          "internalType": "address",
          "name": "smartcontract",
          "type": "address"
        }
      ],
      "name": "checkErcInterfaces",
      "outputs": [
        {
          "internalType": "bool[]",
          "name": "ercInterfacesChecks",
          "type": "bool[]"
        }
      ],
      "stateMutability": "view",
      "type": "function"
    },
    {
      "inputs": [
        {
          "internalType": "address",
          "name": "smartcontract",
          "type": "address"
        },
        {
          "internalType": "bool",
          "name": "erc",
          "type": "bool"
        },
        {
          "internalType": "bytes4[]",
          "name": "interfaceIds",
          "type": "bytes4[]"
        }
      ],
      "name": "checkSupportedInterfaces",
      "outputs": [
        {
          "internalType": "bool[]",
          "name": "interfaceIdsChecks",
          "type": "bool[]"
        }
      ],
      "stateMutability": "view",
      "type": "function"
    },
    {
      "inputs": [],
      "name": "countAddresses",
      "outputs": [
        {
          "internalType": "uint256",
          "name": "",
          "type": "uint256"
        }
      ],
      "stateMutability": "view",
      "type": "function"
    },
    {
      "inputs": [],
      "name": "getAddresses",
      "outputs": [
        {
          "internalType": "address[]",
          "name": "",
          "type": "address[]"
        }
      ],
      "stateMutability": "view",
      "type": "function"
    },
    {
      "inputs": [
        {
          "internalType": "address",
          "name": "collection",
          "type": "address"
        }
      ],
      "name": "getCollectionInfos",
      "outputs": [
        {
          "components": [
            {
              "internalType": "address",
              "name": "collection",
              "type": "address"
            },
            {
              "internalType": "address",
              "name": "owner",
              "type": "address"
            },
            {
              "internalType": "string",
              "name": "name",
              "type": "string"
            },
            {
              "internalType": "string",
              "name": "symbol",
              "type": "string"
            },
            {
              "internalType": "uint256",
              "name": "totalSupply",
              "type": "uint256"
            },
            {
              "internalType": "uint256",
              "name": "balanceOf",
              "type": "uint256"
            },
            {
              "internalType": "bool[]",
              "name": "supported",
              "type": "bool[]"
            }
          ],
          "internalType": "struct IERC721Infos.CollectionInfos",
          "name": "collectionInfos",
          "type": "tuple"
        }
      ],
      "stateMutability": "view",
      "type": "function"
    },
    {
      "inputs": [
        {
          "internalType": "address[]",
          "name": "collections",
          "type": "address[]"
        },
        {
          "internalType": "address",
          "name": "account",
          "type": "address"
        },
        {
          "internalType": "bytes4[]",
          "name": "interfaceIds",
          "type": "bytes4[]"
        }
      ],
      "name": "getCollectionsInfos",
      "outputs": [
        {
          "components": [
            {
              "internalType": "address",
              "name": "collection",
              "type": "address"
            },
            {
              "internalType": "address",
              "name": "owner",
              "type": "address"
            },
            {
              "internalType": "string",
              "name": "name",
              "type": "string"
            },
            {
              "internalType": "string",
              "name": "symbol",
              "type": "string"
            },
            {
              "internalType": "uint256",
              "name": "totalSupply",
              "type": "uint256"
            },
            {
              "internalType": "uint256",
              "name": "balanceOf",
              "type": "uint256"
            },
            {
              "internalType": "bool[]",
              "name": "supported",
              "type": "bool[]"
            }
          ],
          "internalType": "struct IERC721Infos.CollectionInfos[]",
          "name": "collectionsInfos",
          "type": "tuple[]"
        }
      ],
      "stateMutability": "view",
      "type": "function"
    },
    {
      "inputs": [
        {
          "internalType": "address",
          "name": "collection",
          "type": "address"
        },
        {
          "internalType": "uint256",
          "name": "tokenID",
          "type": "uint256"
        }
      ],
      "name": "getNftInfos",
      "outputs": [
        {
          "components": [
            {
              "internalType": "uint256",
              "name": "tokenID",
              "type": "uint256"
            },
            {
              "internalType": "string",
              "name": "tokenURI",
              "type": "string"
            },
            {
              "internalType": "address",
              "name": "owner",
              "type": "address"
            },
            {
              "internalType": "address",
              "name": "approved",
              "type": "address"
            }
          ],
          "internalType": "struct IERC721Infos.NftInfos",
          "name": "nftInfos",
          "type": "tuple"
        }
      ],
      "stateMutability": "view",
      "type": "function"
    },
    {
      "inputs": [
        {
          "internalType": "address",
          "name": "collection",
          "type": "address"
        },
        {
          "internalType": "uint256[]",
          "name": "tokenIDs",
          "type": "uint256[]"
        }
      ],
      "name": "getNftsInfos",
      "outputs": [
        {
          "components": [
            {
              "internalType": "uint256",
              "name": "tokenID",
              "type": "uint256"
            },
            {
              "internalType": "string",
              "name": "tokenURI",
              "type": "string"
            },
            {
              "internalType": "address",
              "name": "owner",
              "type": "address"
            },
            {
              "internalType": "address",
              "name": "approved",
              "type": "address"
            }
          ],
          "internalType": "struct IERC721Infos.NftInfos[]",
          "name": "nftsInfos",
          "type": "tuple[]"
        }
      ],
      "stateMutability": "view",
      "type": "function"
    },
    {
      "inputs": [
        {
          "internalType": "address",
          "name": "collection",
          "type": "address"
        },
        {
          "internalType": "address",
          "name": "account",
          "type": "address"
        },
        {
          "internalType": "uint256",
          "name": "limit",
          "type": "uint256"
        },
        {
          "internalType": "uint256",
          "name": "offset",
          "type": "uint256"
        }
      ],
      "name": "getNftsInfos",
      "outputs": [
        {
          "components": [
            {
              "internalType": "uint256",
              "name": "tokenID",
              "type": "uint256"
            },
            {
              "internalType": "string",
              "name": "tokenURI",
              "type": "string"
            },
            {
              "internalType": "address",
              "name": "owner",
              "type": "address"
            },
            {
              "internalType": "address",
              "name": "approved",
              "type": "address"
            }
          ],
          "internalType": "struct IERC721Infos.NftInfos[]",
          "name": "nftsInfos",
          "type": "tuple[]"
        },
        {
          "internalType": "uint256",
          "name": "count",
          "type": "uint256"
        },
        {
          "internalType": "uint256",
          "name": "total",
          "type": "uint256"
        }
      ],
      "stateMutability": "view",
      "type": "function"
    },
    {
      "inputs": [
        {
          "internalType": "address",
          "name": "collection",
          "type": "address"
        },
        {
          "internalType": "address",
          "name": "account",
          "type": "address"
        }
      ],
      "name": "getOpenNFTsCollectionInfos",
      "outputs": [
        {
          "components": [
            {
              "internalType": "address",
              "name": "collection",
              "type": "address"
            },
            {
              "internalType": "address",
              "name": "owner",
              "type": "address"
            },
            {
              "internalType": "string",
              "name": "name",
              "type": "string"
            },
            {
              "internalType": "string",
              "name": "symbol",
              "type": "string"
            },
            {
              "internalType": "uint256",
              "name": "totalSupply",
              "type": "uint256"
            },
            {
              "internalType": "uint256",
              "name": "balanceOf",
              "type": "uint256"
            },
            {
              "internalType": "bool[]",
              "name": "supported",
              "type": "bool[]"
            }
          ],
          "internalType": "struct IERC721Infos.CollectionInfos",
          "name": "collectionInfos",
          "type": "tuple"
        },
        {
          "components": [
            {
              "internalType": "uint256",
              "name": "version",
              "type": "uint256"
            },
            {
              "internalType": "string",
              "name": "template",
              "type": "string"
            },
            {
              "internalType": "bool",
              "name": "open",
              "type": "bool"
            },
            {
              "internalType": "uint256",
              "name": "price",
              "type": "uint256"
            },
            {
              "internalType": "address",
              "name": "receiver",
              "type": "address"
            },
            {
              "internalType": "uint96",
              "name": "fraction",
              "type": "uint96"
            }
          ],
          "internalType": "struct IOpenNFTsInfos.OpenNFTsCollectionInfos",
          "name": "openNTFscollectionInfos",
          "type": "tuple"
        }
      ],
      "stateMutability": "view",
      "type": "function"
    },
    {
      "inputs": [
        {
          "internalType": "address",
          "name": "account",
          "type": "address"
        }
      ],
      "name": "getOpenNFTsCollectionsInfos",
      "outputs": [
        {
          "components": [
            {
              "internalType": "address",
              "name": "collection",
              "type": "address"
            },
            {
              "internalType": "address",
              "name": "owner",
              "type": "address"
            },
            {
              "internalType": "string",
              "name": "name",
              "type": "string"
            },
            {
              "internalType": "string",
              "name": "symbol",
              "type": "string"
            },
            {
              "internalType": "uint256",
              "name": "totalSupply",
              "type": "uint256"
            },
            {
              "internalType": "uint256",
              "name": "balanceOf",
              "type": "uint256"
            },
            {
              "internalType": "bool[]",
              "name": "supported",
              "type": "bool[]"
            }
          ],
          "internalType": "struct IERC721Infos.CollectionInfos[]",
          "name": "collectionsInfos",
          "type": "tuple[]"
        },
        {
          "components": [
            {
              "internalType": "uint256",
              "name": "version",
              "type": "uint256"
            },
            {
              "internalType": "string",
              "name": "template",
              "type": "string"
            },
            {
              "internalType": "bool",
              "name": "open",
              "type": "bool"
            },
            {
              "internalType": "uint256",
              "name": "price",
              "type": "uint256"
            },
            {
              "internalType": "address",
              "name": "receiver",
              "type": "address"
            },
            {
              "internalType": "uint96",
              "name": "fraction",
              "type": "uint96"
            }
          ],
          "internalType": "struct IOpenNFTsInfos.OpenNFTsCollectionInfos[]",
          "name": "openNFTsCollectionsInfos",
          "type": "tuple[]"
        },
        {
          "internalType": "uint256",
          "name": "count",
          "type": "uint256"
        },
        {
          "internalType": "uint256",
          "name": "total",
          "type": "uint256"
        }
      ],
      "stateMutability": "view",
      "type": "function"
    },
    {
      "inputs": [
        {
          "internalType": "address",
          "name": "collection",
          "type": "address"
        },
        {
          "internalType": "uint256",
          "name": "tokenID",
          "type": "uint256"
        }
      ],
      "name": "getOpenNFTsNftInfos",
      "outputs": [
        {
          "components": [
            {
              "internalType": "uint256",
              "name": "tokenID",
              "type": "uint256"
            },
            {
              "internalType": "string",
              "name": "tokenURI",
              "type": "string"
            },
            {
              "internalType": "address",
              "name": "owner",
              "type": "address"
            },
            {
              "internalType": "address",
              "name": "approved",
              "type": "address"
            }
          ],
          "internalType": "struct IERC721Infos.NftInfos",
          "name": "nftInfos",
          "type": "tuple"
        },
        {
          "components": [
            {
              "internalType": "uint256",
              "name": "price",
              "type": "uint256"
            },
            {
              "internalType": "address",
              "name": "receiver",
              "type": "address"
            },
            {
              "internalType": "uint96",
              "name": "fraction",
              "type": "uint96"
            }
          ],
          "internalType": "struct IOpenNFTsInfos.OpenNFTsNftInfos",
          "name": "openNTFsNftInfos",
          "type": "tuple"
        },
        {
          "components": [
            {
              "internalType": "address",
              "name": "collection",
              "type": "address"
            },
            {
              "internalType": "address",
              "name": "owner",
              "type": "address"
            },
            {
              "internalType": "string",
              "name": "name",
              "type": "string"
            },
            {
              "internalType": "string",
              "name": "symbol",
              "type": "string"
            },
            {
              "internalType": "uint256",
              "name": "totalSupply",
              "type": "uint256"
            },
            {
              "internalType": "uint256",
              "name": "balanceOf",
              "type": "uint256"
            },
            {
              "internalType": "bool[]",
              "name": "supported",
              "type": "bool[]"
            }
          ],
          "internalType": "struct IERC721Infos.CollectionInfos",
          "name": "collectionInfos",
          "type": "tuple"
        }
      ],
      "stateMutability": "view",
      "type": "function"
    },
    {
      "inputs": [
        {
          "internalType": "address",
          "name": "collection",
          "type": "address"
        },
        {
          "internalType": "uint256[]",
          "name": "tokenIDs",
          "type": "uint256[]"
        }
      ],
      "name": "getOpenNFTsNftsInfos",
      "outputs": [
        {
          "components": [
            {
              "internalType": "uint256",
              "name": "tokenID",
              "type": "uint256"
            },
            {
              "internalType": "string",
              "name": "tokenURI",
              "type": "string"
            },
            {
              "internalType": "address",
              "name": "owner",
              "type": "address"
            },
            {
              "internalType": "address",
              "name": "approved",
              "type": "address"
            }
          ],
          "internalType": "struct IERC721Infos.NftInfos[]",
          "name": "nftInfos",
          "type": "tuple[]"
        },
        {
          "components": [
            {
              "internalType": "uint256",
              "name": "price",
              "type": "uint256"
            },
            {
              "internalType": "address",
              "name": "receiver",
              "type": "address"
            },
            {
              "internalType": "uint96",
              "name": "fraction",
              "type": "uint96"
            }
          ],
          "internalType": "struct IOpenNFTsInfos.OpenNFTsNftInfos[]",
          "name": "openNTFsNftInfos",
          "type": "tuple[]"
        },
        {
          "components": [
            {
              "internalType": "address",
              "name": "collection",
              "type": "address"
            },
            {
              "internalType": "address",
              "name": "owner",
              "type": "address"
            },
            {
              "internalType": "string",
              "name": "name",
              "type": "string"
            },
            {
              "internalType": "string",
              "name": "symbol",
              "type": "string"
            },
            {
              "internalType": "uint256",
              "name": "totalSupply",
              "type": "uint256"
            },
            {
              "internalType": "uint256",
              "name": "balanceOf",
              "type": "uint256"
            },
            {
              "internalType": "bool[]",
              "name": "supported",
              "type": "bool[]"
            }
          ],
          "internalType": "struct IERC721Infos.CollectionInfos",
          "name": "collectionInfos",
          "type": "tuple"
        }
      ],
      "stateMutability": "view",
      "type": "function"
    },
    {
      "inputs": [
        {
          "internalType": "address",
          "name": "collection",
          "type": "address"
        },
        {
          "internalType": "address",
          "name": "account",
          "type": "address"
        },
        {
          "internalType": "uint256",
          "name": "limit",
          "type": "uint256"
        },
        {
          "internalType": "uint256",
          "name": "offset",
          "type": "uint256"
        }
      ],
      "name": "getOpenNFTsNftsInfos",
      "outputs": [
        {
          "components": [
            {
              "internalType": "uint256",
              "name": "tokenID",
              "type": "uint256"
            },
            {
              "internalType": "string",
              "name": "tokenURI",
              "type": "string"
            },
            {
              "internalType": "address",
              "name": "owner",
              "type": "address"
            },
            {
              "internalType": "address",
              "name": "approved",
              "type": "address"
            }
          ],
          "internalType": "struct IERC721Infos.NftInfos[]",
          "name": "nftInfos",
          "type": "tuple[]"
        },
        {
          "components": [
            {
              "internalType": "uint256",
              "name": "price",
              "type": "uint256"
            },
            {
              "internalType": "address",
              "name": "receiver",
              "type": "address"
            },
            {
              "internalType": "uint96",
              "name": "fraction",
              "type": "uint96"
            }
          ],
          "internalType": "struct IOpenNFTsInfos.OpenNFTsNftInfos[]",
          "name": "openNTFsNftInfos",
          "type": "tuple[]"
        },
        {
          "components": [
            {
              "internalType": "address",
              "name": "collection",
              "type": "address"
            },
            {
              "internalType": "address",
              "name": "owner",
              "type": "address"
            },
            {
              "internalType": "string",
              "name": "name",
              "type": "string"
            },
            {
              "internalType": "string",
              "name": "symbol",
              "type": "string"
            },
            {
              "internalType": "uint256",
              "name": "totalSupply",
              "type": "uint256"
            },
            {
              "internalType": "uint256",
              "name": "balanceOf",
              "type": "uint256"
            },
            {
              "internalType": "bool[]",
              "name": "supported",
              "type": "bool[]"
            }
          ],
          "internalType": "struct IERC721Infos.CollectionInfos",
          "name": "collectionInfos",
          "type": "tuple"
        },
        {
          "internalType": "uint256",
          "name": "count",
          "type": "uint256"
        },
        {
          "internalType": "uint256",
          "name": "total",
          "type": "uint256"
        }
      ],
      "stateMutability": "view",
      "type": "function"
    },
    {
      "inputs": [
        {
          "internalType": "address",
          "name": "collection",
          "type": "address"
        }
      ],
      "name": "isCollection",
      "outputs": [
        {
          "internalType": "bool",
          "name": "",
          "type": "bool"
        }
      ],
      "stateMutability": "view",
      "type": "function"
    },
    {
      "inputs": [
        {
          "internalType": "address",
          "name": "addr",
          "type": "address"
        }
      ],
      "name": "isRegistered",
      "outputs": [
        {
          "internalType": "bool",
          "name": "",
          "type": "bool"
        }
      ],
      "stateMutability": "view",
      "type": "function"
    },
    {
      "inputs": [],
      "name": "owner",
      "outputs": [
        {
          "internalType": "address",
          "name": "",
          "type": "address"
        }
      ],
      "stateMutability": "view",
      "type": "function"
    },
    {
      "inputs": [],
      "name": "registerer",
      "outputs": [
        {
          "internalType": "address",
          "name": "",
          "type": "address"
        }
      ],
      "stateMutability": "view",
      "type": "function"
    },
    {
      "inputs": [
        {
          "internalType": "address",
          "name": "addr",
          "type": "address"
        }
      ],
      "name": "removeAddress",
      "outputs": [],
      "stateMutability": "nonpayable",
      "type": "function"
    },
    {
      "inputs": [
        {
          "internalType": "address",
          "name": "registerer_",
          "type": "address"
        }
      ],
      "name": "setRegisterer",
      "outputs": [],
      "stateMutability": "nonpayable",
      "type": "function"
    },
    {
      "inputs": [
        {
          "internalType": "bytes4",
          "name": "interfaceId",
          "type": "bytes4"
        }
      ],
      "name": "supportsInterface",
      "outputs": [
        {
          "internalType": "bool",
          "name": "",
          "type": "bool"
        }
      ],
      "stateMutability": "view",
      "type": "function"
    },
    {
      "inputs": [
        {
          "internalType": "address",
          "name": "newOwner",
          "type": "address"
        }
      ],
      "name": "transferOwnership",
      "outputs": [],
      "stateMutability": "nonpayable",
      "type": "function"
    }
  ],
  "transactionHash": "0xd359d7921717f2f0b2438d48238b4786531297ae5f68bf637ff2bbbe93695cce",
  "args": [
    "0x6eebAe27d69fa80f0E4C0E973A2Fed218A56880c",
    "0x1B37c46a8c362d32b608890eE4b6fBa57d728CE5"
  ],
  "numDeployments": 2,
  "solcInputHash": "93bbc2a998ba14ea1e59dc4cb80cceab",
  "bytecode": "0x6101e06040526001600160e01b031960809081526301ffc9a760e01b60a0526380ac58cd60e01b60c052635b5e139f60e01b60e05263780e9d6360e01b61010052630a85bd0160e11b61012052636cdb3d1360e11b610140526303a24d0760e21b61016052630271189760e51b610180526307f5828d60e41b6101a05263152a902d60e11b6101c0526200009890600490600b62000578565b5060408051600b808252610180820190925290602082016101608036833750508151620000cd92600592506020019062000578565b50348015620000db57600080fd5b506040516200394d3803806200394d833981016040819052620000fe916200065f565b62000114826200049660201b620017e91760201c565b6200012a81620004fd60201b620018461760201c565b630c38761960e41b600560008154811062000149576200014962000697565b90600052602060002090600891828204019190066004026101000a81548163ffffffff021916908360e01c0217905550631fea36bd60e21b600560018154811062000198576200019862000697565b90600052602060002090600891828204019190066004026101000a81548163ffffffff021916908360e01c0217905550632e5e69fd60e01b6005600281548110620001e757620001e762000697565b90600052602060002090600891828204019190066004026101000a81548163ffffffff021916908360e01c0217905550632e103c0560e11b600560038154811062000236576200023662000697565b90600052602060002090600891828204019190066004026101000a81548163ffffffff021916908360e01c02179055506398396bd360e01b600560048154811062000285576200028562000697565b90600052602060002090600891828204019190066004026101000a81548163ffffffff021916908360e01c0217905550634b68d43160e01b60058081548110620002d357620002d362000697565b90600052602060002090600891828204019190066004026101000a81548163ffffffff021916908360e01c0217905550633ab2af8560e21b600560068154811062000322576200032262000697565b90600052602060002090600891828204019190066004026101000a81548163ffffffff021916908360e01c0217905550636ca50ed960e11b600560078154811062000371576200037162000697565b90600052602060002090600891828204019190066004026101000a81548163ffffffff021916908360e01c0217905550635f5f00ef60e01b6005600881548110620003c057620003c062000697565b90600052602060002090600891828204019190066004026101000a81548163ffffffff021916908360e01c02179055506330323f1960e01b60056009815481106200040f576200040f62000697565b90600052602060002090600891828204019190066004026101000a81548163ffffffff021916908360e01c02179055506317812f2360e11b6005600a815481106200045e576200045e62000697565b90600052602060002090600891828204019190066004026101000a81548163ffffffff021916908360e01c02179055505050620006ad565b60005460ff1615620004e25760405162461bcd60e51b8152602060048201526011602482015270125b9a5d08185b1c9958591e4818d85b1b607a1b604482015260640160405180910390fd5b6000805460ff19166001179055620004fa816200051f565b50565b600380546001600160a01b0319166001600160a01b0392909216919091179055565b600080546001600160a01b03838116610100818102610100600160a81b0319851617855560405193049190911692909183917f8be0079c531659141344cd1fd0a4f28419497f9722a3daafe3b4186f6b6457e091a35050565b82805482825590600052602060002090600701600890048101928215620006195791602002820160005b83821115620005e557835183826101000a81548163ffffffff021916908360e01c02179055509260200192600401602081600301049283019260010302620005a2565b8015620006175782816101000a81549063ffffffff0219169055600401602081600301049283019260010302620005e5565b505b50620006279291506200062b565b5090565b5b808211156200062757600081556001016200062c565b80516001600160a01b03811681146200065a57600080fd5b919050565b600080604083850312156200067357600080fd5b6200067e8362000642565b91506200068e6020840162000642565b90509250929050565b634e487b7160e01b600052603260045260246000fd5b61329080620006bd6000396000f3fe608060405234801561001057600080fd5b50600436106101585760003560e01c8063690682a4116100c3578063cdaafcd61161007c578063cdaafcd61461035d578063db668ce01461037f578063dceba604146103a2578063e47a60f6146103c3578063ec530de6146103e7578063f2fde38b146103f857600080fd5b8063690682a4146102aa5780637600c24c146102bd5780638da5cb5b146102dd578063a39fac1214610307578063a8e719ce1461031c578063c3c5a5471461032f57600080fd5b806350da677b1161011557806350da677b146102025780635d564a68146102225780635ee9a1d2146102425780635fa15ebb146102555780636049365c1461026857806361dd36f41461028a57600080fd5b806301ffc9a71461015d5780632cc27783146101855780633628731c146101a757806338eada1c146101bc578063490f06eb146101cf5780634ba79dfe146101ef575b600080fd5b61017061016b36600461275d565b61040b565b60405190151581526020015b60405180910390f35b6101986101933660046127f6565b610436565b60405161017c93929190612ac3565b6101ba6101b5366004612b75565b6105ab565b005b6101ba6101ca366004612bb1565b6105ef565b6101e26101dd366004612bb1565b6105fb565b60405161017c9190612bce565b6101ba6101fd366004612bb1565b610634565b610215610210366004612c43565b61063d565b60405161017c9190612cff565b6102356102303660046127f6565b6106fc565b60405161017c9190612d12565b6101ba610250366004612bb1565b6107b9565b610170610263366004612bb1565b610812565b61027b610276366004612d25565b6108aa565b60405161017c93929190612d51565b61029d610298366004612d25565b610965565b60405161017c9190612da9565b6101e26102b8366004612dca565b610b7e565b6102d06102cb366004612bb1565b610df4565b60405161017c9190612e21565b60005461010090046001600160a01b03165b6040516001600160a01b03909116815260200161017c565b61030f610e18565b60405161017c9190612e34565b6003546102ef906001600160a01b031681565b61017061033d366004612bb1565b6001600160a01b0316600090815260016020819052604090912054101590565b61037061036b366004612e81565b610e7a565b60405161017c93929190612ec7565b61039261038d366004612bb1565b6112a0565b60405161017c9493929190612f52565b6103b56103b0366004612fd3565b61159f565b60405161017c92919061300c565b6103d66103d1366004612e81565b61162f565b60405161017c959493929190613031565b60025460405190815260200161017c565b6101ba610406366004612bb1565b611795565b60006001600160e01b0319821663af7c0bcd60e01b1480610430575061043082611868565b92915050565b60608061044161266d565b6104ca85600060058054806020026020016040519081016040528092919081815260200182805480156104c057602002820191906000526020600020906000905b82829054906101000a900460e01b6001600160e01b031916815260200190600401906020826003010492830192600103820291508084116104825790505b505050505061188d565b90506104d685856106fc565b925083516001600160401b038111156104f1576104f161278d565b60405190808252806020026020018201604052801561053c57816020015b604080516060810182526000808252602080830182905292820152825260001990920191018161050f5790505b50915060005b84518110156105a357610573868683815181106105615761056161307f565b60200260200101518460c00151611d04565b8382815181106105855761058561307f565b6020026020010181905250808061059b906130ab565b915050610542565b509250925092565b60005b81518110156105eb576105d98282815181106105cc576105cc61307f565b6020026020010151611e84565b806105e3816130ab565b9150506105ae565b5050565b6105f881611e84565b50565b6060610430826001600060405190808252806020026020018201604052801561062e578160200160208202803683370190505b50610b7e565b6105f881611fd0565b606083516001600160401b038111156106585761065861278d565b60405190808252806020026020018201604052801561069157816020015b61067e61266d565b8152602001906001900390816106765790505b50905060005b84518110156106f4576106c48582815181106106b5576106b561307f565b6020026020010151858561188d565b8282815181106106d6576106d661307f565b602002602001018190525080806106ec906130ab565b915050610697565b509392505050565b606081516001600160401b038111156107175761071761278d565b60405190808252806020026020018201604052801561075057816020015b61073d6126bc565b8152602001906001900390816107355790505b50905060005b82518110156107b257610782848483815181106107755761077561307f565b6020026020010151610965565b8282815181106107945761079461307f565b602002602001018190525080806107aa906130ab565b915050610756565b5092915050565b60005461010090046001600160a01b031633146108095760405162461bcd60e51b81526020600482015260096024820152682737ba1037bbb732b960b91b60448201526064015b60405180910390fd5b6105f881611846565b60008061081e836105fb565b9050806000815181106108335761083361307f565b602002602001015115801561085f5750806001815181106108565761085661307f565b60200260200101515b80156108a35750806002815181106108795761087961307f565b6020026020010151806108a357508060068151811061089a5761089a61307f565b60200260200101515b9392505050565b6108b26126bc565b60408051606081018252600080825260208201819052918101919091526108d761266d565b61093f85600060058054806020026020016040519081016040528092919081815260200182805480156104c0576000918252602091829020805460e01b6001600160e01b0319168452908202830192909160049101808411610482579050505050505061188d565b905061094b8585610965565b925061095c85858360c00151611d04565b91509250925092565b61096d6126bc565b81815260405163020604bf60e21b8152600481018390526001600160a01b0384169063081812fc9060240160206040518083038186803b1580156109b057600080fd5b505afa1580156109c4573d6000803e3d6000fd5b505050506040513d601f19601f820116820180604052508101906109e891906130c6565b6001600160a01b0390811660608301526040516331a9108f60e11b81526004810184905290841690636352211e9060240160206040518083038186803b158015610a3157600080fd5b505afa158015610a45573d6000803e3d6000fd5b505050506040513d601f19601f82011682018060405250810190610a6991906130c6565b6001600160a01b03908116604083810191909152516301ffc9a760e01b8152635b5e139f60e01b6004820152908416906301ffc9a79060240160206040518083038186803b158015610aba57600080fd5b505afa158015610ace573d6000803e3d6000fd5b505050506040513d601f19601f82011682018060405250810190610af291906130e3565b156104305760405163c87b56dd60e01b8152600481018390526001600160a01b0384169063c87b56dd9060240160006040518083038186803b158015610b3757600080fd5b505afa158015610b4b573d6000803e3d6000fd5b505050506040513d6000823e601f3d908101601f19168201604052610b739190810190613100565b602082015292915050565b6060600080835185610b91576000610b95565b6004545b610b9f9190613193565b9050806001600160401b03811115610bb957610bb961278d565b604051908082528060200260200182016040528015610be2578160200160208202803683370190505b5092508415610cfa5760005b600454811015610cf857866001600160a01b03166301ffc9a760048381548110610c1a57610c1a61307f565b90600052602060002090600891828204019190066004029054906101000a900460e01b6040518263ffffffff1660e01b8152600401610c6991906001600160e01b031991909116815260200190565b60206040518083038186803b158015610c8157600080fd5b505afa158015610c95573d6000803e3d6000fd5b505050506040513d601f19601f82011682018060405250810190610cb991906130e3565b8484610cc4816130ab565b955081518110610cd657610cd661307f565b9115156020928302919091019091015280610cf0816130ab565b915050610bee565b505b60005b8451811015610dea57866001600160a01b03166301ffc9a7868381518110610d2757610d2761307f565b60200260200101516040518263ffffffff1660e01b8152600401610d5b91906001600160e01b031991909116815260200190565b60206040518083038186803b158015610d7357600080fd5b505afa158015610d87573d6000803e3d6000fd5b505050506040513d601f19601f82011682018060405250810190610dab91906130e3565b8484610db6816130ab565b955081518110610dc857610dc861307f565b9115156020928302919091019091015280610de2816130ab565b915050610cfd565b5050509392505050565b610dfc61266d565b604080516000815260208101909152610430908390339061188d565b60606002805480602002602001604051908101604052809291908181526020018280548015610e7057602002820191906000526020600020905b81546001600160a01b03168152600190910190602001808311610e52575b5050505050905090565b60606000806000610e8a886105fb565b905080600281518110610e9f57610e9f61307f565b60200260200101518015610eca575080600481518110610ec157610ec161307f565b60200260200101515b15611295576001600160a01b0387166110d557876001600160a01b03166318160ddd6040518163ffffffff1660e01b815260040160206040518083038186803b158015610f1657600080fd5b505afa158015610f2a573d6000803e3d6000fd5b505050506040513d601f19601f82011682018060405250810190610f4e91906131ab565b915081851115610f915760405162461bcd60e51b815260206004820152600e60248201526d125b9d985b1a59081bd9999cd95d60921b6044820152606401610800565b81610f9c8787613193565b1115610fb157610fac85836131c4565b610fb3565b855b9250826001600160401b03811115610fcd57610fcd61278d565b60405190808252806020026020018201604052801561100657816020015b610ff36126bc565b815260200190600190039081610feb5790505b50935060005b838110156110cf5761109f896001600160a01b038116634f6ccce7611031858b613193565b6040518263ffffffff1660e01b815260040161104f91815260200190565b60206040518083038186803b15801561106757600080fd5b505afa15801561107b573d6000803e3d6000fd5b505050506040513d601f19601f8201168201806040525081019061029891906131ab565b8582815181106110b1576110b161307f565b602002602001018190525080806110c7906130ab565b91505061100c565b50611295565b6040516370a0823160e01b81526001600160a01b0388811660048301528916906370a082319060240160206040518083038186803b15801561111657600080fd5b505afa15801561112a573d6000803e3d6000fd5b505050506040513d601f19601f8201168201806040525081019061114e91906131ab565b9150818511156111915760405162461bcd60e51b815260206004820152600e60248201526d125b9d985b1a59081bd9999cd95d60921b6044820152606401610800565b8161119c8787613193565b11156111b1576111ac85836131c4565b6111b3565b855b9250826001600160401b038111156111cd576111cd61278d565b60405190808252806020026020018201604052801561120657816020015b6111f36126bc565b8152602001906001900390816111eb5790505b50935060005b8381101561129357611263896001600160a01b038116632f745c598b611232868c613193565b6040516001600160e01b031960e085901b1681526001600160a01b039092166004830152602482015260440161104f565b8582815181106112755761127561307f565b6020026020010181905250808061128b906130ab565b91505061120c565b505b509450945094915050565b60608060008060006113376112b3610e18565b87600580548060200260200160405190810160405280929190818152602001828054801561132d57602002820191906000526020600020906000905b82829054906101000a900460e01b6001600160e01b031916815260200190600401906020826003010492830192600103820291508084116112ef5790505b505050505061063d565b90508051915060005b81518110156113c857600082828151811061135d5761135d61307f565b602002602001015160a0015111806113a35750866001600160a01b031682828151811061138c5761138c61307f565b6020026020010151602001516001600160a01b0316145b156113b657836113b2816130ab565b9450505b806113c0816130ab565b915050611340565b50826001600160401b038111156113e1576113e161278d565b60405190808252806020026020018201604052801561141a57816020015b61140761266d565b8152602001906001900390816113ff5790505b509450826001600160401b038111156114355761143561278d565b60405190808252806020026020018201604052801561146e57816020015b61145b6126f6565b8152602001906001900390816114535790505b5093506000805b838110156115955760008382815181106114915761149161307f565b602002602001015160a0015111806114d75750876001600160a01b03168382815181106114c0576114c061307f565b6020026020010151602001516001600160a01b0316145b15611583578281815181106114ee576114ee61307f565b60200260200101518783815181106115085761150861307f565b60200260200101819052506115578382815181106115285761152861307f565b6020026020010151600001518483815181106115465761154661307f565b602002602001015160c001516121b2565b8683815181106115695761156961307f565b6020026020010181905250818061157f906130ab565b9250505b8061158d816130ab565b915050611475565b5050509193509193565b6115a761266d565b6115af6126f6565b611616848460058054806020026020016040519081016040528092919081815260200182805480156104c0576000918252602091829020805460e01b6001600160e01b0319168452908202830192909160049101808411610482579050505050505061188d565b9150611626848360c001516121b2565b90509250929050565b60608061163a61266d565b6000806116a4898960058054806020026020016040519081016040528092919081815260200182805480156104c0576000918252602091829020805460e01b6001600160e01b0319168452908202830192909160049101808411610482579050505050505061188d565b92506116b289898989610e7a565b825192975090935091506001600160401b038111156116d3576116d361278d565b60405190808252806020026020018201604052801561171e57816020015b60408051606081018252600080825260208083018290529282015282526000199092019101816116f15790505b50935060005b8551811015611789576117598a8783815181106117435761174361307f565b6020026020010151600001518660c00151611d04565b85828151811061176b5761176b61307f565b60200260200101819052508080611781906130ab565b915050611724565b50945094509450945094565b60005461010090046001600160a01b031633146117e05760405162461bcd60e51b81526020600482015260096024820152682737ba1037bbb732b960b91b6044820152606401610800565b6105f88161257f565b60005460ff16156118305760405162461bcd60e51b8152602060048201526011602482015270125b9a5d08185b1c9958591e4818d85b1b607a1b6044820152606401610800565b6000805460ff191660011790556105f88161257f565b600380546001600160a01b0319166001600160a01b0392909216919091179055565b60006001600160e01b031982166350da677b60e01b14806104305750610430826125d8565b61189561266d565b6001600160a01b0384163b6118e05760405162461bcd60e51b8152602060048201526011602482015270139bdd081cdb585c9d18dbdb9d1c9858dd607a1b6044820152606401610800565b60006118ee85600185610b7e565b9050808260c001819052508060008151811061190c5761190c61307f565b602002602001015115801561193857508060018151811061192f5761192f61307f565b60200260200101515b6119715760405162461bcd60e51b815260206004820152600a6024820152694e6f742045524331363560b01b6044820152606401610800565b806002815181106119845761198461307f565b6020026020010151806119ae5750806006815181106119a5576119a561307f565b60200260200101515b6119f25760405162461bcd60e51b8152602060048201526015602482015274139bdd08139195081cdb585c9d18dbdb9d1c9858dd605a1b6044820152606401610800565b6001600160a01b0385168252805181906009908110611a1357611a1361307f565b602002602001015115611aa057846001600160a01b0316638da5cb5b6040518163ffffffff1660e01b815260040160206040518083038186803b158015611a5957600080fd5b505afa158015611a6d573d6000803e3d6000fd5b505050506040513d601f19601f82011682018060405250810190611a9191906130c6565b6001600160a01b031660208301525b80600281518110611ab357611ab361307f565b6020026020010151156106f45780600381518110611ad357611ad361307f565b602002602001015115611bd857846001600160a01b03166306fdde036040518163ffffffff1660e01b815260040160006040518083038186803b158015611b1957600080fd5b505afa158015611b2d573d6000803e3d6000fd5b505050506040513d6000823e601f3d908101601f19168201604052611b559190810190613100565b8260400181905250846001600160a01b03166395d89b416040518163ffffffff1660e01b815260040160006040518083038186803b158015611b9657600080fd5b505afa158015611baa573d6000803e3d6000fd5b505050506040513d6000823e601f3d908101601f19168201604052611bd29190810190613100565b60608301525b80600481518110611beb57611beb61307f565b602002602001015115611c6f57846001600160a01b03166318160ddd6040518163ffffffff1660e01b815260040160206040518083038186803b158015611c3157600080fd5b505afa158015611c45573d6000803e3d6000fd5b505050506040513d601f19601f82011682018060405250810190611c6991906131ab565b60808301525b6001600160a01b038416156106f4576040516370a0823160e01b81526001600160a01b0385811660048301528616906370a082319060240160206040518083038186803b158015611cbf57600080fd5b505afa158015611cd3573d6000803e3d6000fd5b505050506040513d601f19601f82011682018060405250810190611cf791906131ab565b60a0830152509392505050565b604080516060810182526000808252602082018190529181019190915281600a81518110611d3457611d3461307f565b602002602001015115611de35760405163152a902d60e11b81526004810184905261271060248201526000906001600160a01b03861690632a55205a90604401604080518083038186803b158015611d8b57600080fd5b505afa158015611d9f573d6000803e3d6000fd5b505050506040513d601f19601f82011682018060405250810190611dc391906131db565b6001600160a01b0390911660208401526001600160601b03166040830152505b81600e81518110611df657611df661307f565b6020026020010151156108a357604051636a6ee74560e11b8152600481018490526001600160a01b0385169063d4ddce8a9060240160206040518083038186803b158015611e4357600080fd5b505afa158015611e57573d6000803e3d6000fd5b505050506040513d601f19601f82011682018060405250810190611e7b91906131ab565b81529392505050565b60005461010090046001600160a01b03166001600160a01b0316336001600160a01b03161480611ebe57506003546001600160a01b031633145b611f055760405162461bcd60e51b81526020600482015260186024820152772737ba103932b3b4b9ba32b932b9103737b91037bbb732b960411b6044820152606401610800565b80611f0f81610812565b611f4c5760405162461bcd60e51b815260206004820152600e60248201526d2737ba1021b7b63632b1ba34b7b760911b6044820152606401610800565b6001600160a01b03821660009081526001602081905260409091205410156105eb575060028054600180820183557f405787fa12a823e0f2b7631cc41b3ba8828b3321ca811111fa75cd3aa3bb5ace90910180546001600160a01b0319166001600160a01b0394909416938417905590546000928352602091909152604090912055565b60005461010090046001600160a01b03166001600160a01b0316336001600160a01b0316148061200a57506003546001600160a01b031633145b6120515760405162461bcd60e51b81526020600482015260186024820152772737ba103932b3b4b9ba32b932b9103737b91037bbb732b960411b6044820152606401610800565b6001600160a01b03811660009081526001602081905260409091205410156120ac5760405162461bcd60e51b815260206004820152600e60248201526d139bdd081c9959da5cdd195c995960921b6044820152606401610800565b6001600160a01b03811660009081526001602052604090205460025481146121625760028054600091906120e2906001906131c4565b815481106120f2576120f261307f565b6000918252602090912001546001600160a01b031690508060026121176001856131c4565b815481106121275761212761307f565b600091825260208083209190910180546001600160a01b0319166001600160a01b039485161790559290911681526001909152604090208190555b6001600160a01b038216600090815260016020526040812055600280548061218c5761218c613209565b600082815260209020810160001990810180546001600160a01b03191690550190555050565b6121ba6126f6565b81600d815181106121cd576121cd61307f565b60200260200101511561234e57826001600160a01b03166354fd4d506040518163ffffffff1660e01b815260040160206040518083038186803b15801561221357600080fd5b505afa158015612227573d6000803e3d6000fd5b505050506040513d601f19601f8201168201806040525081019061224b91906131ab565b816000018181525050826001600160a01b0316636f2ddd936040518163ffffffff1660e01b815260040160006040518083038186803b15801561228d57600080fd5b505afa1580156122a1573d6000803e3d6000fd5b505050506040513d6000823e601f3d908101601f191682016040526122c99190810190613100565b8160200181905250826001600160a01b031663fcfff16f6040518163ffffffff1660e01b815260040160206040518083038186803b15801561230a57600080fd5b505afa15801561231e573d6000803e3d6000fd5b505050506040513d601f19601f8201168201806040525081019061234291906130e3565b15156040820152612454565b816013815181106123615761236161307f565b6020026020010151156123dd5760038160000181815250506040518060400160405280600a8152602001694f70656e4e465473563360b01b8152508160200181905250826001600160a01b031663fcfff16f6040518163ffffffff1660e01b815260040160206040518083038186803b15801561230a57600080fd5b816012815181106123f0576123f061307f565b6020026020010151156124065760028152612454565b816011815181106124195761241961307f565b60200260200101511561242f5760018152612454565b816010815181106124425761244261307f565b60200260200101511561245457600081525b81600e815181106124675761246761307f565b60200260200101511561043057826001600160a01b031663b24f2d396040518163ffffffff1660e01b8152600401604080518083038186803b1580156124ac57600080fd5b505afa1580156124c0573d6000803e3d6000fd5b505050506040513d601f19601f820116820180604052508101906124e4919061321f565b6001600160601b031660a08301526001600160a01b0390811660808301526040805163e69e04b360e01b815290519185169163e69e04b391600480820192602092909190829003018186803b15801561253c57600080fd5b505afa158015612550573d6000803e3d6000fd5b505050506040513d601f19601f8201168201806040525081019061257491906131ab565b606082015292915050565b600080546001600160a01b03838116610100818102610100600160a81b0319851617855560405193049190911692909183917f8be0079c531659141344cd1fd0a4f28419497f9722a3daafe3b4186f6b6457e091a35050565b60006001600160e01b03198216634390a10360e11b148061043057506104308260006001600160e01b03198216631fea36bd60e21b148061043057506104308260006001600160e01b03198216633f62885160e01b148061043057506104308260006307f5828d60e41b6001600160e01b03198316148061043057506001600160e01b031982166301ffc9a760e01b14610430565b6040518060e0016040528060006001600160a01b0316815260200160006001600160a01b0316815260200160608152602001606081526020016000815260200160008152602001606081525090565b6040518060800160405280600081526020016060815260200160006001600160a01b0316815260200160006001600160a01b031681525090565b6040518060c0016040528060008152602001606081526020016000151581526020016000815260200160006001600160a01b0316815260200160006001600160601b031681525090565b80356001600160e01b03198116811461275857600080fd5b919050565b60006020828403121561276f57600080fd5b6108a382612740565b6001600160a01b03811681146105f857600080fd5b634e487b7160e01b600052604160045260246000fd5b604051601f8201601f191681016001600160401b03811182821017156127cb576127cb61278d565b604052919050565b60006001600160401b038211156127ec576127ec61278d565b5060051b60200190565b6000806040838503121561280957600080fd5b823561281481612778565b91506020838101356001600160401b0381111561283057600080fd5b8401601f8101861361284157600080fd5b803561285461284f826127d3565b6127a3565b81815260059190911b8201830190838101908883111561287357600080fd5b928401925b8284101561289157833582529284019290840190612878565b80955050505050509250929050565b60005b838110156128bb5781810151838201526020016128a3565b838111156128ca576000848401525b50505050565b600081518084526128e88160208601602086016128a0565b601f01601f19169290920160200192915050565b80518252600060208201516080602085015261291b60808501826128d0565b6040848101516001600160a01b03908116918701919091526060948501511693909401929092525090919050565b600082825180855260208086019550808260051b84010181860160005b8481101561299457601f198684030189526129828383516128fc565b98840198925090830190600101612966565b5090979650505050505050565b600081518084526020808501945080840160005b83811015612a01576129ee878351805182526020808201516001600160a01b0316908301526040908101516001600160601b0316910152565b60609690960195908201906001016129b5565b509495945050505050565b600081518084526020808501945080840160005b83811015612a01578151151587529582019590820190600101612a20565b600060018060a01b0380835116845280602084015116602085015250604082015160e06040850152612a7360e08501826128d0565b905060608301518482036060860152612a8c82826128d0565b9150506080830151608085015260a083015160a085015260c083015184820360c0860152612aba8282612a0c565b95945050505050565b606081526000612ad66060830186612949565b8281036020840152612ae881866129a1565b90508281036040840152612afc8185612a3e565b9695505050505050565b600082601f830112612b1757600080fd5b81356020612b2761284f836127d3565b82815260059290921b84018101918181019086841115612b4657600080fd5b8286015b84811015612b6a578035612b5d81612778565b8352918301918301612b4a565b509695505050505050565b600060208284031215612b8757600080fd5b81356001600160401b03811115612b9d57600080fd5b612ba984828501612b06565b949350505050565b600060208284031215612bc357600080fd5b81356108a381612778565b6020815260006108a36020830184612a0c565b600082601f830112612bf257600080fd5b81356020612c0261284f836127d3565b82815260059290921b84018101918181019086841115612c2157600080fd5b8286015b84811015612b6a57612c3681612740565b8352918301918301612c25565b600080600060608486031215612c5857600080fd5b83356001600160401b0380821115612c6f57600080fd5b612c7b87838801612b06565b945060208601359150612c8d82612778565b90925060408501359080821115612ca357600080fd5b50612cb086828701612be1565b9150509250925092565b6000815180845260208085019450848260051b860182860160005b85811015612994578383038952612ced838351612a3e565b98850198925090840190600101612cd5565b6020815260006108a36020830184612cba565b6020815260006108a36020830184612949565b60008060408385031215612d3857600080fd5b8235612d4381612778565b946020939093013593505050565b60a081526000612d6460a08301866128fc565b612d976020840186805182526020808201516001600160a01b0316908301526040908101516001600160601b0316910152565b8281036080840152612afc8185612a3e565b6020815260006108a360208301846128fc565b80151581146105f857600080fd5b600080600060608486031215612ddf57600080fd5b8335612dea81612778565b92506020840135612dfa81612dbc565b915060408401356001600160401b03811115612e1557600080fd5b612cb086828701612be1565b6020815260006108a36020830184612a3e565b6020808252825182820181905260009190848201906040850190845b81811015612e755783516001600160a01b031683529284019291840191600101612e50565b50909695505050505050565b60008060008060808587031215612e9757600080fd5b8435612ea281612778565b93506020850135612eb281612778565b93969395505050506040820135916060013590565b606081526000612eda6060830186612949565b60208301949094525060400152919050565b805182526000602082015160c06020850152612f0b60c08501826128d0565b604084810151151590860152606080850151908601526080808501516001600160a01b03169086015260a0938401516001600160601b031693909401929092525090919050565b608081526000612f656080830187612cba565b6020838203818501528187518084528284019150828160051b850101838a0160005b83811015612fb557601f19878403018552612fa3838351612eec565b94860194925090850190600101612f87565b50506040870198909852505050506060909101919091525092915050565b60008060408385031215612fe657600080fd5b8235612ff181612778565b9150602083013561300181612778565b809150509250929050565b60408152600061301f6040830185612a3e565b8281036020840152612aba8185612eec565b60a08152600061304460a0830188612949565b828103602084015261305681886129a1565b9050828103604084015261306a8187612a3e565b60608401959095525050608001529392505050565b634e487b7160e01b600052603260045260246000fd5b634e487b7160e01b600052601160045260246000fd5b60006000198214156130bf576130bf613095565b5060010190565b6000602082840312156130d857600080fd5b81516108a381612778565b6000602082840312156130f557600080fd5b81516108a381612dbc565b60006020828403121561311257600080fd5b81516001600160401b038082111561312957600080fd5b818401915084601f83011261313d57600080fd5b81518181111561314f5761314f61278d565b613162601f8201601f19166020016127a3565b915080825285602082850101111561317957600080fd5b61318a8160208401602086016128a0565b50949350505050565b600082198211156131a6576131a6613095565b500190565b6000602082840312156131bd57600080fd5b5051919050565b6000828210156131d6576131d6613095565b500390565b600080604083850312156131ee57600080fd5b82516131f981612778565b6020939093015192949293505050565b634e487b7160e01b600052603160045260246000fd5b6000806040838503121561323257600080fd5b825161323d81612778565b60208401519092506001600160601b038116811461300157600080fdfea2646970667358221220f78adf974fff7a9785d21405e4e222c3f5507dce281dee7f80ab9aa77a0c8e6464736f6c63430008090033",
  "devdoc": {
    "kind": "dev",
    "methods": {},
    "version": 1
  },
  "userdoc": {
    "kind": "user",
    "methods": {},
    "version": 1
  },
  "storageLayout": {
    "storage": [
      {
        "astId": 6531,
        "contract": "contracts/next/OpenNFTsResolver.sol:OpenNFTsResolver",
        "label": "_openERC173Initialized",
        "offset": 0,
        "slot": "0",
        "type": "t_bool"
      },
      {
        "astId": 6533,
        "contract": "contracts/next/OpenNFTsResolver.sol:OpenNFTsResolver",
        "label": "_owner",
        "offset": 1,
        "slot": "0",
        "type": "t_address"
      },
      {
        "astId": 9486,
        "contract": "contracts/next/OpenNFTsResolver.sol:OpenNFTsResolver",
        "label": "_numAddress",
        "offset": 0,
        "slot": "1",
        "type": "t_mapping(t_address,t_uint256)"
      },
      {
        "astId": 9489,
        "contract": "contracts/next/OpenNFTsResolver.sol:OpenNFTsResolver",
        "label": "_addresses",
        "offset": 0,
        "slot": "2",
        "type": "t_array(t_address)dyn_storage"
      },
      {
        "astId": 9491,
        "contract": "contracts/next/OpenNFTsResolver.sol:OpenNFTsResolver",
        "label": "registerer",
        "offset": 0,
        "slot": "3",
        "type": "t_address"
      },
      {
        "astId": 8797,
        "contract": "contracts/next/OpenNFTsResolver.sol:OpenNFTsResolver",
        "label": "_ercInterfaceIds",
        "offset": 0,
        "slot": "4",
        "type": "t_array(t_bytes4)dyn_storage"
      },
      {
        "astId": 21951,
        "contract": "contracts/next/OpenNFTsResolver.sol:OpenNFTsResolver",
        "label": "_interfaceIds",
        "offset": 0,
        "slot": "5",
        "type": "t_array(t_bytes4)dyn_storage"
      }
    ],
    "types": {
      "t_address": {
        "encoding": "inplace",
        "label": "address",
        "numberOfBytes": "20"
      },
      "t_array(t_address)dyn_storage": {
        "base": "t_address",
        "encoding": "dynamic_array",
        "label": "address[]",
        "numberOfBytes": "32"
      },
      "t_array(t_bytes4)dyn_storage": {
        "base": "t_bytes4",
        "encoding": "dynamic_array",
        "label": "bytes4[]",
        "numberOfBytes": "32"
      },
      "t_bool": {
        "encoding": "inplace",
        "label": "bool",
        "numberOfBytes": "1"
      },
      "t_bytes4": {
        "encoding": "inplace",
        "label": "bytes4",
        "numberOfBytes": "4"
      },
      "t_mapping(t_address,t_uint256)": {
        "encoding": "mapping",
        "key": "t_address",
        "label": "mapping(address => uint256)",
        "numberOfBytes": "32",
        "value": "t_uint256"
      },
      "t_uint256": {
        "encoding": "inplace",
        "label": "uint256",
        "numberOfBytes": "32"
      }
    }
  }
}