{
  "address": "0xa963DEbcFa10A9B598251B192a6E86275A37E0Fd",
  "abi": [
    {
      "anonymous": false,
      "inputs": [
        {
          "indexed": true,
          "internalType": "address",
          "name": "owner",
          "type": "address"
        },
        {
          "indexed": true,
          "internalType": "address",
          "name": "approved",
          "type": "address"
        },
        {
          "indexed": true,
          "internalType": "uint256",
          "name": "tokenId",
          "type": "uint256"
        }
      ],
      "name": "Approval",
      "type": "event"
    },
    {
      "anonymous": false,
      "inputs": [
        {
          "indexed": true,
          "internalType": "address",
          "name": "owner",
          "type": "address"
        },
        {
          "indexed": true,
          "internalType": "address",
          "name": "operator",
          "type": "address"
        },
        {
          "indexed": false,
          "internalType": "bool",
          "name": "approved",
          "type": "bool"
        }
      ],
      "name": "ApprovalForAll",
      "type": "event"
    },
    {
      "anonymous": false,
      "inputs": [
        {
          "indexed": true,
          "internalType": "address",
          "name": "previousOwner",
          "type": "address"
        },
        {
          "indexed": true,
          "internalType": "address",
          "name": "newOwner",
          "type": "address"
        }
      ],
      "name": "OwnershipTransferred",
      "type": "event"
    },
    {
      "anonymous": false,
      "inputs": [
        {
          "indexed": false,
          "internalType": "uint256",
          "name": "tokenID",
          "type": "uint256"
        },
        {
          "indexed": false,
          "internalType": "uint256",
          "name": "price",
          "type": "uint256"
        },
        {
          "indexed": false,
          "internalType": "address",
          "name": "payer",
          "type": "address"
        },
        {
          "indexed": false,
          "internalType": "address",
          "name": "payee",
          "type": "address"
        }
      ],
      "name": "Pay",
      "type": "event"
    },
    {
      "anonymous": false,
      "inputs": [
        {
          "indexed": false,
          "internalType": "uint256",
          "name": "price",
          "type": "uint256"
        }
      ],
      "name": "SetDefaultPrice",
      "type": "event"
    },
    {
      "anonymous": false,
      "inputs": [
        {
          "indexed": false,
          "internalType": "address",
          "name": "receiver",
          "type": "address"
        },
        {
          "indexed": false,
          "internalType": "uint96",
          "name": "fee",
          "type": "uint96"
        }
      ],
      "name": "SetDefaultRoyalty",
      "type": "event"
    },
    {
      "anonymous": false,
      "inputs": [
        {
          "indexed": true,
          "internalType": "bool",
          "name": "paused",
          "type": "bool"
        },
        {
          "indexed": true,
          "internalType": "address",
          "name": "account",
          "type": "address"
        }
      ],
      "name": "SetPaused",
      "type": "event"
    },
    {
      "anonymous": false,
      "inputs": [
        {
          "indexed": false,
          "internalType": "uint256",
          "name": "tokenID",
          "type": "uint256"
        },
        {
          "indexed": false,
          "internalType": "uint256",
          "name": "price",
          "type": "uint256"
        }
      ],
      "name": "SetTokenPrice",
      "type": "event"
    },
    {
      "anonymous": false,
      "inputs": [
        {
          "indexed": false,
          "internalType": "uint256",
          "name": "tokenID",
          "type": "uint256"
        },
        {
          "indexed": false,
          "internalType": "address",
          "name": "receiver",
          "type": "address"
        },
        {
          "indexed": false,
          "internalType": "uint96",
          "name": "fee",
          "type": "uint96"
        }
      ],
      "name": "SetTokenRoyalty",
      "type": "event"
    },
    {
      "anonymous": false,
      "inputs": [
        {
          "indexed": true,
          "internalType": "address",
          "name": "from",
          "type": "address"
        },
        {
          "indexed": true,
          "internalType": "address",
          "name": "to",
          "type": "address"
        },
        {
          "indexed": true,
          "internalType": "uint256",
          "name": "tokenId",
          "type": "uint256"
        }
      ],
      "name": "Transfer",
      "type": "event"
    },
    {
      "inputs": [
        {
          "internalType": "address",
          "name": "spender",
          "type": "address"
        },
        {
          "internalType": "uint256",
          "name": "tokenID",
          "type": "uint256"
        }
      ],
      "name": "approve",
      "outputs": [],
      "stateMutability": "nonpayable",
      "type": "function"
    },
    {
      "inputs": [
        {
          "internalType": "address",
          "name": "owner",
          "type": "address"
        }
      ],
      "name": "balanceOf",
      "outputs": [
        {
          "internalType": "uint256",
          "name": "",
          "type": "uint256"
        }
      ],
      "stateMutability": "view",
      "type": "function"
    },
    {
      "inputs": [
        {
          "internalType": "uint256",
          "name": "tokenID",
          "type": "uint256"
        }
      ],
      "name": "burn",
      "outputs": [],
      "stateMutability": "nonpayable",
      "type": "function"
    },
    {
      "inputs": [
        {
          "internalType": "uint256",
          "name": "tokenID",
          "type": "uint256"
        }
      ],
      "name": "buy",
      "outputs": [],
      "stateMutability": "payable",
      "type": "function"
    },
    {
      "inputs": [],
      "name": "defaultPrice",
      "outputs": [
        {
          "internalType": "uint256",
          "name": "",
          "type": "uint256"
        }
      ],
      "stateMutability": "view",
      "type": "function"
    },
    {
      "inputs": [
        {
          "internalType": "uint256",
          "name": "tokenID",
          "type": "uint256"
        }
      ],
      "name": "getApproved",
      "outputs": [
        {
          "internalType": "address",
          "name": "",
          "type": "address"
        }
      ],
      "stateMutability": "view",
      "type": "function"
    },
    {
      "inputs": [],
      "name": "getTemplate",
      "outputs": [
        {
          "internalType": "string",
          "name": "",
          "type": "string"
        }
      ],
      "stateMutability": "view",
      "type": "function"
    },
    {
      "inputs": [],
      "name": "getVersion",
      "outputs": [
        {
          "internalType": "uint256",
          "name": "",
          "type": "uint256"
        }
      ],
      "stateMutability": "view",
      "type": "function"
    },
    {
      "inputs": [
        {
          "internalType": "string",
          "name": "name_",
          "type": "string"
        },
        {
          "internalType": "string",
          "name": "symbol_",
          "type": "string"
        },
        {
          "internalType": "address",
          "name": "owner_",
          "type": "address"
        },
        {
          "internalType": "uint256",
          "name": "defaultPrice_",
          "type": "uint256"
        },
        {
          "internalType": "address",
          "name": "receiver_",
          "type": "address"
        },
        {
          "internalType": "uint96",
          "name": "fee_",
          "type": "uint96"
        },
        {
          "internalType": "bool[]",
          "name": "options",
          "type": "bool[]"
        }
      ],
      "name": "initialize",
      "outputs": [],
      "stateMutability": "nonpayable",
      "type": "function"
    },
    {
      "inputs": [
        {
          "internalType": "address",
          "name": "owner",
          "type": "address"
        },
        {
          "internalType": "address",
          "name": "operator",
          "type": "address"
        }
      ],
      "name": "isApprovedForAll",
      "outputs": [
        {
          "internalType": "bool",
          "name": "",
          "type": "bool"
        }
      ],
      "stateMutability": "view",
      "type": "function"
    },
    {
      "inputs": [
        {
          "internalType": "address",
          "name": "minter",
          "type": "address"
        },
        {
          "internalType": "string",
          "name": "tokenURI",
          "type": "string"
        },
        {
          "internalType": "uint256",
          "name": "price",
          "type": "uint256"
        },
        {
          "internalType": "address",
          "name": "receiver",
          "type": "address"
        },
        {
          "internalType": "uint96",
          "name": "fee",
          "type": "uint96"
        }
      ],
      "name": "mint",
      "outputs": [
        {
          "internalType": "uint256",
          "name": "tokenID",
          "type": "uint256"
        }
      ],
      "stateMutability": "payable",
      "type": "function"
    },
    {
      "inputs": [
        {
          "internalType": "address",
          "name": "minter",
          "type": "address"
        },
        {
          "internalType": "string",
          "name": "tokenURI",
          "type": "string"
        }
      ],
      "name": "mint",
      "outputs": [
        {
          "internalType": "uint256",
          "name": "tokenID",
          "type": "uint256"
        }
      ],
      "stateMutability": "nonpayable",
      "type": "function"
    },
    {
      "inputs": [
        {
          "internalType": "string",
          "name": "tokenURI",
          "type": "string"
        }
      ],
      "name": "mint",
      "outputs": [
        {
          "internalType": "uint256",
          "name": "tokenID",
          "type": "uint256"
        }
      ],
      "stateMutability": "nonpayable",
      "type": "function"
    },
    {
      "inputs": [],
      "name": "name",
      "outputs": [
        {
          "internalType": "string",
          "name": "",
          "type": "string"
        }
      ],
      "stateMutability": "view",
      "type": "function"
    },
    {
      "inputs": [],
      "name": "open",
      "outputs": [
        {
          "internalType": "bool",
          "name": "",
          "type": "bool"
        }
      ],
      "stateMutability": "view",
      "type": "function"
    },
    {
      "inputs": [],
      "name": "owner",
      "outputs": [
        {
          "internalType": "address",
          "name": "",
          "type": "address"
        }
      ],
      "stateMutability": "view",
      "type": "function"
    },
    {
      "inputs": [
        {
          "internalType": "uint256",
          "name": "tokenID",
          "type": "uint256"
        }
      ],
      "name": "ownerOf",
      "outputs": [
        {
          "internalType": "address",
          "name": "owner",
          "type": "address"
        }
      ],
      "stateMutability": "view",
      "type": "function"
    },
    {
      "inputs": [],
      "name": "paused",
      "outputs": [
        {
          "internalType": "bool",
          "name": "",
          "type": "bool"
        }
      ],
      "stateMutability": "view",
      "type": "function"
    },
    {
      "inputs": [
        {
          "internalType": "uint256",
          "name": "tokenID",
          "type": "uint256"
        },
        {
          "internalType": "uint256",
          "name": "price",
          "type": "uint256"
        }
      ],
      "name": "royaltyInfo",
      "outputs": [
        {
          "internalType": "address",
          "name": "receiver",
          "type": "address"
        },
        {
          "internalType": "uint256",
          "name": "royaltyAmount",
          "type": "uint256"
        }
      ],
      "stateMutability": "view",
      "type": "function"
    },
    {
      "inputs": [
        {
          "internalType": "address",
          "name": "from",
          "type": "address"
        },
        {
          "internalType": "address",
          "name": "to",
          "type": "address"
        },
        {
          "internalType": "uint256",
          "name": "tokenID",
          "type": "uint256"
        }
      ],
      "name": "safeTransferFrom",
      "outputs": [],
      "stateMutability": "payable",
      "type": "function"
    },
    {
      "inputs": [
        {
          "internalType": "address",
          "name": "from",
          "type": "address"
        },
        {
          "internalType": "address",
          "name": "to",
          "type": "address"
        },
        {
          "internalType": "uint256",
          "name": "tokenID",
          "type": "uint256"
        },
        {
          "internalType": "bytes",
          "name": "data",
          "type": "bytes"
        }
      ],
      "name": "safeTransferFrom",
      "outputs": [],
      "stateMutability": "payable",
      "type": "function"
    },
    {
      "inputs": [
        {
          "internalType": "address",
          "name": "operator",
          "type": "address"
        },
        {
          "internalType": "bool",
          "name": "approved",
          "type": "bool"
        }
      ],
      "name": "setApprovalForAll",
      "outputs": [],
      "stateMutability": "nonpayable",
      "type": "function"
    },
    {
      "inputs": [
        {
          "internalType": "uint256",
          "name": "price",
          "type": "uint256"
        }
      ],
      "name": "setDefaultPrice",
      "outputs": [],
      "stateMutability": "nonpayable",
      "type": "function"
    },
    {
      "inputs": [
        {
          "internalType": "address",
          "name": "receiver",
          "type": "address"
        },
        {
          "internalType": "uint96",
          "name": "fee",
          "type": "uint96"
        }
      ],
      "name": "setDefaultRoyalty",
      "outputs": [],
      "stateMutability": "nonpayable",
      "type": "function"
    },
    {
      "inputs": [
        {
          "internalType": "uint256",
          "name": "tokenID",
          "type": "uint256"
        }
      ],
      "name": "setTokenPrice",
      "outputs": [],
      "stateMutability": "nonpayable",
      "type": "function"
    },
    {
      "inputs": [
        {
          "internalType": "uint256",
          "name": "tokenID",
          "type": "uint256"
        },
        {
          "internalType": "uint256",
          "name": "price",
          "type": "uint256"
        }
      ],
      "name": "setTokenPrice",
      "outputs": [],
      "stateMutability": "nonpayable",
      "type": "function"
    },
    {
      "inputs": [
        {
          "internalType": "uint256",
          "name": "tokenID",
          "type": "uint256"
        },
        {
          "internalType": "address",
          "name": "receiver",
          "type": "address"
        },
        {
          "internalType": "uint96",
          "name": "fee",
          "type": "uint96"
        }
      ],
      "name": "setTokenRoyalty",
      "outputs": [],
      "stateMutability": "nonpayable",
      "type": "function"
    },
    {
      "inputs": [
        {
          "internalType": "bytes4",
          "name": "interfaceId",
          "type": "bytes4"
        }
      ],
      "name": "supportsInterface",
      "outputs": [
        {
          "internalType": "bool",
          "name": "",
          "type": "bool"
        }
      ],
      "stateMutability": "view",
      "type": "function"
    },
    {
      "inputs": [],
      "name": "symbol",
      "outputs": [
        {
          "internalType": "string",
          "name": "",
          "type": "string"
        }
      ],
      "stateMutability": "view",
      "type": "function"
    },
    {
      "inputs": [],
      "name": "togglePause",
      "outputs": [],
      "stateMutability": "nonpayable",
      "type": "function"
    },
    {
      "inputs": [
        {
          "internalType": "uint256",
          "name": "index",
          "type": "uint256"
        }
      ],
      "name": "tokenByIndex",
      "outputs": [
        {
          "internalType": "uint256",
          "name": "",
          "type": "uint256"
        }
      ],
      "stateMutability": "view",
      "type": "function"
    },
    {
      "inputs": [],
      "name": "tokenIdNext",
      "outputs": [
        {
          "internalType": "uint256",
          "name": "",
          "type": "uint256"
        }
      ],
      "stateMutability": "view",
      "type": "function"
    },
    {
      "inputs": [
        {
          "internalType": "address",
          "name": "owner",
          "type": "address"
        },
        {
          "internalType": "uint256",
          "name": "index",
          "type": "uint256"
        }
      ],
      "name": "tokenOfOwnerByIndex",
      "outputs": [
        {
          "internalType": "uint256",
          "name": "",
          "type": "uint256"
        }
      ],
      "stateMutability": "view",
      "type": "function"
    },
    {
      "inputs": [
        {
          "internalType": "uint256",
          "name": "",
          "type": "uint256"
        }
      ],
      "name": "tokenPrice",
      "outputs": [
        {
          "internalType": "uint256",
          "name": "",
          "type": "uint256"
        }
      ],
      "stateMutability": "view",
      "type": "function"
    },
    {
      "inputs": [
        {
          "internalType": "uint256",
          "name": "tokenID",
          "type": "uint256"
        }
      ],
      "name": "tokenURI",
      "outputs": [
        {
          "internalType": "string",
          "name": "",
          "type": "string"
        }
      ],
      "stateMutability": "view",
      "type": "function"
    },
    {
      "inputs": [],
      "name": "totalSupply",
      "outputs": [
        {
          "internalType": "uint256",
          "name": "",
          "type": "uint256"
        }
      ],
      "stateMutability": "view",
      "type": "function"
    },
    {
      "inputs": [
        {
          "internalType": "address",
          "name": "from",
          "type": "address"
        },
        {
          "internalType": "address",
          "name": "to",
          "type": "address"
        },
        {
          "internalType": "uint256",
          "name": "tokenID",
          "type": "uint256"
        }
      ],
      "name": "transferFrom",
      "outputs": [],
      "stateMutability": "payable",
      "type": "function"
    },
    {
      "inputs": [
        {
          "internalType": "address",
          "name": "newOwner",
          "type": "address"
        }
      ],
      "name": "transferOwnership",
      "outputs": [],
      "stateMutability": "nonpayable",
      "type": "function"
    },
    {
      "inputs": [
        {
          "internalType": "address",
          "name": "token",
          "type": "address"
        }
      ],
      "name": "withdraw",
      "outputs": [],
      "stateMutability": "nonpayable",
      "type": "function"
    },
    {
      "stateMutability": "payable",
      "type": "receive"
    }
  ],
  "transactionHash": "0x5951bd5aaf5ae1373af577d1eaac10bfa76d2543a31d5600c20a9374290c7d54",
  "args": [],
  "numDeployments": 2,
  "solcInputHash": "16a7c9d5e800e733b199924852ecb559",
  "bytecode": "0x6080604052600160145534801561001557600080fd5b50612f2b806100256000396000f3fe6080604052600436106102345760003560e01c80636a61e5fc1161012e578063d0def521116100ab578063e97186ef1161006f578063e97186ef14610656578063e985e9c514610676578063eb685c47146106bf578063f2fde38b146106df578063fcfff16f146106ff57600080fd5b8063d0def521146105c0578063d4ddce8a146105e0578063d85d3d271461060d578063d96a094a1461062d578063e69e04b31461064057600080fd5b806395d89b41116100f257806395d89b4114610543578063a22cb46514610558578063b88d4fde14610578578063c4ae31681461058b578063c87b56dd146105a057600080fd5b80636a61e5fc146104aa5780636d3c7ec5146104ca57806370a08231146104ea5780638bbf58b31461050a5780638da5cb5b1461052057600080fd5b80632f745c59116101bc5780634f6ccce7116101805780634f6ccce71461041257806351cff8d9146104325780635944c753146104525780635c975abb146104725780636352211e1461048a57600080fd5b80632f745c5914610397578063321c48f2146103b757806342842e0e146103cc57806342966c68146103df5780634472167b146103ff57600080fd5b8063095ea7b311610203578063095ea7b3146102f15780630d8e6e2c1461031157806318160ddd1461033057806323b872dd146103455780632a55205a1461035857600080fd5b806301ffc9a71461024057806304634d8d1461027557806306fdde0314610297578063081812fc146102b957600080fd5b3661023b57005b600080fd5b34801561024c57600080fd5b5061026061025b366004612715565b610719565b60405190151581526020015b60405180910390f35b34801561028157600080fd5b50610295610290366004612760565b61075e565b005b3480156102a357600080fd5b506102ac61085e565b60405161026c91906127e0565b3480156102c557600080fd5b506102d96102d43660046127f3565b6108f0565b6040516001600160a01b03909116815260200161026c565b3480156102fd57600080fd5b5061029561030c36600461280c565b610963565b34801561031d57600080fd5b506013545b60405190815260200161026c565b34801561033c57600080fd5b50600854610322565b610295610353366004612836565b610a27565b34801561036457600080fd5b50610378610373366004612872565b610a37565b604080516001600160a01b03909316835260208301919091520161026c565b3480156103a357600080fd5b506103226103b236600461280c565b610b05565b3480156103c357600080fd5b506102ac610b8c565b6102956103da366004612836565b610b9b565b3480156103eb57600080fd5b506102956103fa3660046127f3565b610bb6565b61032261040d366004612953565b610bea565b34801561041e57600080fd5b5061032261042d3660046127f3565b610cda565b34801561043e57600080fd5b5061029561044d3660046129cc565b610d44565b34801561045e57600080fd5b5061029561046d3660046129e7565b610f76565b34801561047e57600080fd5b5060115460ff16610260565b34801561049657600080fd5b506102d96104a53660046127f3565b611006565b3480156104b657600080fd5b506102956104c53660046127f3565b611063565b3480156104d657600080fd5b506102956104e53660046127f3565b61106f565b3480156104f657600080fd5b506103226105053660046129cc565b6110ff565b34801561051657600080fd5b5061032260145481565b34801561052c57600080fd5b50600c5461010090046001600160a01b03166102d9565b34801561054f57600080fd5b506102ac61116a565b34801561056457600080fd5b50610295610573366004612a31565b611179565b610295610586366004612a68565b6111e5565b34801561059757600080fd5b50610295611243565b3480156105ac57600080fd5b506102ac6105bb3660046127f3565b611284565b3480156105cc57600080fd5b506103226105db366004612ae4565b611326565b3480156105ec57600080fd5b506103226105fb3660046127f3565b600f6020526000908152604090205481565b34801561061957600080fd5b50610322610628366004612b32565b6113a4565b61029561063b3660046127f3565b6113b5565b34801561064c57600080fd5b5061032260105481565b34801561066257600080fd5b50610295610671366004612b67565b611597565b34801561068257600080fd5b50610260610691366004612c9c565b6001600160a01b03918216600090815260036020908152604080832093909416825291909152205460ff1690565b3480156106cb57600080fd5b506102956106da366004612872565b6115f2565b3480156106eb57600080fd5b506102956106fa3660046129cc565b611647565b34801561070b57600080fd5b506015546102609060ff1681565b60006001600160e01b03198216632865aacb60e11b148061074957506001600160e01b0319821662f7235960e21b145b8061075857506107588261167f565b92915050565b600c5461010090046001600160a01b031633146107965760405162461bcd60e51b815260040161078d90612cc6565b60405180910390fd5b6001600160601b0381166127108111156107ed5760405162461bcd60e51b8152602060048201526018602482015277526f79616c7479206665652065786365656420707269636560401b604482015260640161078d565b6040805180820182526001600160a01b0385168082526001600160601b0385166020928301819052600160a01b81028217600d558351918252918101919091527fa1edde4ed5c1392c90dccd8e051a4080b761850e49a24c77d826348a51e1f8dc91015b60405180910390a1505050565b60606005805461086d90612ce9565b80601f016020809104026020016040519081016040528092919081815260200182805461089990612ce9565b80156108e65780601f106108bb576101008083540402835291602001916108e6565b820191906000526020600020905b8154815290600101906020018083116108c957829003601f168201915b5050505050905090565b6000818152602081905260408120546001600160a01b03166109475760405162461bcd60e51b815260206004820152601060248201526f125b9d985b1a59081d1bdad95b88125160821b604482015260640161078d565b506000908152600260205260409020546001600160a01b031690565b61096d33826116a4565b6109b95760405162461bcd60e51b815260206004820152601c60248201527f4e6f7420746f6b656e206f776e6572206e6f72206f70657261746f7200000000604482015260640161078d565b600081815260026020526040902080546001600160a01b0319166001600160a01b03841690811790915581906109ee82611006565b6001600160a01b03167f8c5be1e5ebec7d5bd14f71427d1e84f3dd0314c0f7b2291e5b200ac8c7c3b92560405160405180910390a45050565b610a328383836116ff565b505050565b60008082600160801b8110610a5e5760405162461bcd60e51b815260040161078d90612d24565b6000858152600e60209081526040918290208251808401909352546001600160a01b038116808452600160a01b9091046001600160601b031691830191909152610ad2575060408051808201909152600d546001600160a01b0381168252600160a01b90046001600160601b031660208201525b602081015161271090610aee906001600160601b031687612d61565b610af89190612d80565b9051969095509350505050565b6000610b10836110ff565b8210610b4f5760405162461bcd60e51b815260206004820152600e60248201526d496e76616c696420696e6465782160901b604482015260640161078d565b6001600160a01b0383166000908152600960205260409020805483908110610b7957610b79612da2565b9060005260206000200154905092915050565b60606012805461086d90612ce9565b610a3283838360405180602001604052806000815250611935565b80610bc1338261198d565b610bdd5760405162461bcd60e51b815260040161078d90612db8565b610be6826119c4565b5050565b60155460009060ff1680610c0e5750600c546001600160a01b036101009091041633145b610c475760405162461bcd60e51b815260206004820152600a6024820152692737ba1036b4b73a32b960b11b604482015260640161078d565b60115460ff1615610c845760405162461bcd60e51b81526020600482015260076024820152665061757365642160c81b604482015260640161078d565b610c8e8686611326565b90508315610ca057610ca081856115f2565b6001600160a01b03831615801590610cc157506000826001600160601b0316115b15610cd157610cd1818484610f76565b95945050505050565b6008546000908210610d1f5760405162461bcd60e51b815260206004820152600e60248201526d496e76616c696420696e6465782160901b604482015260640161078d565b60088281548110610d3257610d32612da2565b90600052602060002001549050919050565b600c5461010090046001600160a01b03163314610d735760405162461bcd60e51b815260040161078d90612cc6565b6001600160a01b0381163b15801590610e0557506040516301ffc9a760e01b81526336372b0760e01b60048201526001600160a01b038216906301ffc9a79060240160206040518083038186803b158015610dcd57600080fd5b505afa158015610de1573d6000803e3d6000fd5b505050506040513d601f19601f82011682018060405250810190610e059190612def565b15610f4a576040516370a0823160e01b81523060048201526001600160a01b0382169063a9059cbb90339083906370a082319060240160206040518083038186803b158015610e5357600080fd5b505afa158015610e67573d6000803e3d6000fd5b505050506040513d601f19601f82011682018060405250810190610e8b9190612e0c565b6040516001600160e01b031960e085901b1681526001600160a01b0390921660048301526024820152604401602060405180830381600087803b158015610ed157600080fd5b505af1158015610ee5573d6000803e3d6000fd5b505050506040513d601f19601f82011682018060405250810190610f099190612def565b610f475760405162461bcd60e51b815260206004820152600f60248201526e15da5d1a191c985dc819985a5b1959608a1b604482015260640161078d565b50565b60405133904780156108fc02916000818181858888f19350505050158015610be6573d6000803e3d6000fd5b82610f81338261198d565b610f9d5760405162461bcd60e51b815260040161078d90612db8565b6001600160601b038216612710811115610ff45760405162461bcd60e51b8152602060048201526018602482015277526f79616c7479206665652065786365656420707269636560401b604482015260640161078d565b610fff8585856119cd565b5050505050565b6000818152602081905260409020546001600160a01b03168061105e5760405162461bcd60e51b815260206004820152601060248201526f125b9d985b1a59081d1bdad95b88125160821b604482015260640161078d565b919050565b610f47816010546115f2565b600c5461010090046001600160a01b0316331461109e5760405162461bcd60e51b815260040161078d90612cc6565b80600160801b81106110c25760405162461bcd60e51b815260040161078d90612d24565b60108290556040518281527f9f7a6492db3843bc01c0adb23cd27be964155c1d45c566f2ee32f28faf4eb605906020015b60405180910390a15050565b60006001600160a01b03821661114e5760405162461bcd60e51b8152602060048201526014602482015273496e76616c6964207a65726f206164647265737360601b604482015260640161078d565b506001600160a01b031660009081526001602052604090205490565b60606006805461086d90612ce9565b3360008181526003602090815260408083206001600160a01b03871680855290835292819020805460ff191686151590811790915590519081529192917f17307eab39ab6107e8899845ad3d59bd9653f200f220920489ca2b5937696c31910160405180910390a35050565b6111f08484846116ff565b6111fc84848484611a52565b61123d5760405162461bcd60e51b8152602060048201526012602482015271139bdd08115490cdcc8c549958d95a5d995960721b604482015260640161078d565b50505050565b600c5461010090046001600160a01b031633146112725760405162461bcd60e51b815260040161078d90612cc6565b6011546112829060ff1615611b00565b565b60008181526007602052604090208054606091906112a190612ce9565b80601f01602080910402602001604051908101604052809291908181526020018280546112cd90612ce9565b801561131a5780601f106112ef5761010080835404028352916020019161131a565b820191906000526020600020905b8154815290600101906020018083116112fd57829003601f168201915b50505050509050919050565b60155460009060ff168061134a5750600c546001600160a01b036101009091041633145b6113835760405162461bcd60e51b815260206004820152600a6024820152692737ba1036b4b73a32b960b11b604482015260640161078d565b6014805490600061139383612e25565b919050559050610758838383611b45565b600061075833836000806000610bea565b6000818152602081905260409020546001600160a01b031661140e5760405162461bcd60e51b81526020600482015260126024820152714e465420646f65736e27742065786973747360701b604482015260640161078d565b6000818152600f6020526040902054806114585760405162461bcd60e51b815260206004820152600b60248201526a139bdd081d1bc81cd95b1b60aa1b604482015260640161078d565b8034101561149b5760405162461bcd60e51b815260206004820152601060248201526f4e6f7420656e6f7567682066756e647360801b604482015260640161078d565b60006114a683611006565b90506001600160a01b0381166114be576114be612e40565b6001600160a01b03811633141561150e5760405162461bcd60e51b8152602060048201526014602482015273416c726561647920746f6b656e206f776e65722160601b604482015260640161078d565b604051635c46a7ef60e11b81526001600160a01b0382166004820152336024820152604481018490526080606482015260006084820152309063b88d4fde90349060a4016000604051808303818588803b15801561156b57600080fd5b505af115801561157f573d6000803e3d6000fd5b50505060009485525050600f60205250506040812055565b6115a2878787611b50565b806000815181106115b5576115b5612da2565b6020026020010151601560006101000a81548160ff0219169083151502179055506115df8461106f565b6115e9838361075e565b50505050505050565b816115fd338261198d565b6116195760405162461bcd60e51b815260040161078d90612db8565b81600160801b811061163d5760405162461bcd60e51b815260040161078d90612d24565b61123d8484611b8e565b600c5461010090046001600160a01b031633146116765760405162461bcd60e51b815260040161078d90612cc6565b610f4781611bd6565b60006001600160e01b03198216630c38761960e41b1480610758575061075882611c30565b6000806116b083611006565b9050836001600160a01b0316816001600160a01b031614806116f757506001600160a01b0380821660009081526003602090815260408083209388168352929052205460ff165b949350505050565b8061170a338261198d565b6117265760405162461bcd60e51b815260040161078d90612db8565b61172f82611006565b6001600160a01b0316846001600160a01b0316146117805760405162461bcd60e51b815260206004820152600e60248201526d233937b6903737ba1037bbb732b960911b604482015260640161078d565b6001600160a01b0384166117d65760405162461bcd60e51b815260206004820152601a60248201527f5472616e736665722066726f6d207a65726f2061646472657373000000000000604482015260640161078d565b6001600160a01b03831661182c5760405162461bcd60e51b815260206004820152601860248201527f5472616e7366657220746f207a65726f20616464726573730000000000000000604482015260640161078d565b611837848484611c55565b600082815260026020526040902080546001600160a01b03191690556001600160a01b03848116908416146118ee576001600160a01b03841660009081526001602081905260408220805491929091611891908490612e56565b90915550506001600160a01b038316600090815260016020819052604082208054919290916118c1908490612e6d565b9091555050600082815260208190526040902080546001600160a01b0319166001600160a01b0385161790555b81836001600160a01b0316856001600160a01b03167fddf252ad1be2c89b69c2b068fc378daa952ba7f163c4a11628f55a4df523b3ef60405160405180910390a450505050565b6119408484846116ff565b61194c84848484611a52565b61123d5760405162461bcd60e51b81526020600482015260126024820152712737ba1022a9219b9918a932b1b2b4bb32b960711b604482015260640161078d565b600061199983836116a4565b806119bd5750826001600160a01b03166119b2836108f0565b6001600160a01b0316145b9392505050565b610f4781611c60565b6040805180820182526001600160a01b038481168083526001600160601b03858116602080860182815260008b8152600e835288902096519051909316600160a01b029290941691909117909355835187815291820152918201527f2595213009f64247e2789cf9981bcc53ee736a6aa52042a651aa1549ae6fff6190606001610851565b60006001600160a01b0384163b1580610cd15750604051630a85bd0160e11b808252906001600160a01b0386169063150b7a0290611a9a9033908a9089908990600401612e85565b602060405180830381600087803b158015611ab457600080fd5b505af1158015611ac8573d6000803e3d6000fd5b505050506040513d601f19601f82011682018060405250810190611aec9190612ec2565b6001600160e01b0319161495945050505050565b6011805460ff1916821515908117909155604051339160ff161515907f8b265f737315073a655a642868ed756ba7e3b6c391b06dbbf70370aab7f7f06890600090a350565b610a32838383611c85565b611b7b604051806040016040528060088152602001674f70656e4e46547360c01b8152506004611cb5565b611b858383611d23565b610a3281611d97565b6000828152600f602090815260409182902083905581518481529081018390527f2f8c61aa79deaa9c961d54f640a154df4960a56a5989d25df0148be783dc3f5b91016110f3565b600c80546001600160a01b03838116610100818102610100600160a81b031985161790945560405193909204169182907f8be0079c531659141344cd1fd0a4f28419497f9722a3daafe3b4186f6b6457e090600090a35050565b60006001600160e01b03198216631fc9136f60e11b1480610758575061075882611df4565b610a32838383611e19565b6000818152600e60209081526040808320839055600f909152812055610f4781611e52565b611c90838383611f1d565b610a328160105485611cb0600c546001600160a01b036101009091041690565b611f76565b601154610100900460ff1615611cfa5760405162461bcd60e51b815260206004820152600a6024820152694f6e6c79206f6e63652160b01b604482015260640161078d565b6011805461ff0019166101001790558151611d1c906012906020850190612630565b5060135550565b60045460ff1615611d635760405162461bcd60e51b815260206004820152600a6024820152694f6e6c79206f6e63652160b01b604482015260640161078d565b6004805460ff191660011790558151611d83906005906020850190612630565b508051610a32906006906020840190612630565b600c5460ff1615611dde5760405162461bcd60e51b8152602060048201526011602482015270125b9a5d08185b1c9958591e4818d85b1b607a1b604482015260640161078d565b600c805460ff19166001179055610f4781611bd6565b60006001600160e01b031982166398396bd360e01b148061075857506107588261214f565b6000818152600f6020526040902054611e3890829084611cb083611006565b6000818152600f6020526040812055610a32838383612174565b6000611e5d82611006565b9050611e698183612188565b6000828152600b6020526040812054600854909190611e8a90600190612e56565b9050600060088281548110611ea157611ea1612da2565b6000918252602080832090910154808352600b909152604080832086905587835282209190915560088054919250829185908110611ee157611ee1612da2565b6000918252602090912001556008805480611efe57611efe612edf565b60019003818190600052602060002001600090559055610fff85612296565b611f2783826122b6565b600880546000838152600b60205260408120829055600182018355919091527ff3f7a9fe364faab93b216da50a3214154f22a0a2b415b23a84c8169e8b636ee301819055610a328383836122f4565b34831561210b5783811015611fc05760405162461bcd60e51b815260206004820152601060248201526f4e6f7420656e6f7567682066756e647360801b604482015260640161078d565b600080611fcd8787610a37565b91509150858111156120155760405162461bcd60e51b8152602060048201526011602482015270496e76616c696420726f79616c7469657360781b604482015260640161078d565b60006120218288612e56565b9050801561206d576040516001600160a01b0386169082156108fc029083906000818181858888f1935050505015801561205f573d6000803e3d6000fd5b5061206a8185612e56565b93505b81156120b7576040516001600160a01b0384169083156108fc029084906000818181858888f193505050501580156120a9573d6000803e3d6000fd5b506120b48285612e56565b93505b60408051898152602081018990526001600160a01b03888116828401528716606082015290517f3914c8962f5e7241220aedc853d15ae456e87f9f156489c7d0d1f682e69f98ce9181900360800190a15050505b8015610fff576040516001600160a01b0384169082156108fc029083906000818181858888f19350505050158015612147573d6000803e3d6000fd5b505050505050565b60006001600160e01b03198216638351879960e01b148061075857506107588261231f565b61217e8382612188565b610a3282826122b6565b6000818152600a60205260408120549060016121a3856110ff565b6121ad9190612e56565b9050808214612244576001600160a01b03841660009081526009602052604081208054839081106121e0576121e0612da2565b906000526020600020015490508060096000876001600160a01b03166001600160a01b03168152602001908152602001600020848154811061222457612224612da2565b6000918252602080832090910192909255918252600a9052604090208290555b6000838152600a602090815260408083208390556001600160a01b03871683526009909152902080548061227a5761227a612edf565b6001900381819060005260206000200160009055905550505050565b60008181526007602052604081206122ad916126b4565b610f4781612344565b6001600160a01b0390911660009081526009602081815260408084208054868652600a84529185208290559282526001810183559183529091200155565b6000818152600760209081526040909120835161231392850190612630565b50610a32838383612410565b600063152a902d60e11b6001600160e01b03198316148061075857506107588261259b565b600061234f82611006565b6001600160a01b03811660009081526001602052604090205490915061237757612377612e40565b6001600160a01b038116600090815260016020819052604082208054919290916123a2908490612e56565b9091555050600082815260026020908152604080832080546001600160a01b0319908116909155918390528083208054909216909155518391906001600160a01b038416907fddf252ad1be2c89b69c2b068fc378daa952ba7f163c4a11628f55a4df523b3ef908390a45050565b6001600160a01b03831661245d5760405162461bcd60e51b81526020600482015260146024820152734d696e7420746f207a65726f206164647265737360601b604482015260640161078d565b6000818152602081905260409020546001600160a01b0316156124b95760405162461bcd60e51b8152602060048201526014602482015273151bdad95b88185b1c9958591e481b5a5b9d195960621b604482015260640161078d565b6001600160a01b038316600090815260016020819052604082208054919290916124e4908490612e6d565b909155505060008181526020819052604080822080546001600160a01b0319166001600160a01b03871690811790915590518392907fddf252ad1be2c89b69c2b068fc378daa952ba7f163c4a11628f55a4df523b3ef908290a461255a6000848360405180602001604052806000815250611a52565b610a325760405162461bcd60e51b8152602060048201526012602482015271139bdd08115490cdcc8c549958d95a5d995960721b604482015260640161078d565b60006307f5828d60e41b6001600160e01b031983161480610758575061075882600063780e9d6360e01b6001600160e01b0319831614806107585750610758826000635b5e139f60e01b6001600160e01b03198316148061075857506107588260006380ac58cd60e01b6001600160e01b03198316148061075857506001600160e01b031982166301ffc9a760e01b14610758565b82805461263c90612ce9565b90600052602060002090601f01602090048101928261265e57600085556126a4565b82601f1061267757805160ff19168380011785556126a4565b828001600101855582156126a4579182015b828111156126a4578251825591602001919060010190612689565b506126b09291506126ea565b5090565b5080546126c090612ce9565b6000825580601f106126d0575050565b601f016020900490600052602060002090810190610f4791905b5b808211156126b057600081556001016126eb565b6001600160e01b031981168114610f4757600080fd5b60006020828403121561272757600080fd5b81356119bd816126ff565b80356001600160a01b038116811461105e57600080fd5b80356001600160601b038116811461105e57600080fd5b6000806040838503121561277357600080fd5b61277c83612732565b915061278a60208401612749565b90509250929050565b6000815180845260005b818110156127b95760208185018101518683018201520161279d565b818111156127cb576000602083870101525b50601f01601f19169290920160200192915050565b6020815260006119bd6020830184612793565b60006020828403121561280557600080fd5b5035919050565b6000806040838503121561281f57600080fd5b61282883612732565b946020939093013593505050565b60008060006060848603121561284b57600080fd5b61285484612732565b925061286260208501612732565b9150604084013590509250925092565b6000806040838503121561288557600080fd5b50508035926020909101359150565b634e487b7160e01b600052604160045260246000fd5b604051601f8201601f1916810167ffffffffffffffff811182821017156128d3576128d3612894565b604052919050565b600067ffffffffffffffff8311156128f5576128f5612894565b612908601f8401601f19166020016128aa565b905082815283838301111561291c57600080fd5b828260208301376000602084830101529392505050565b600082601f83011261294457600080fd5b6119bd838335602085016128db565b600080600080600060a0868803121561296b57600080fd5b61297486612732565b9450602086013567ffffffffffffffff81111561299057600080fd5b61299c88828901612933565b945050604086013592506129b260608701612732565b91506129c060808701612749565b90509295509295909350565b6000602082840312156129de57600080fd5b6119bd82612732565b6000806000606084860312156129fc57600080fd5b83359250612a0c60208501612732565b9150612a1a60408501612749565b90509250925092565b8015158114610f4757600080fd5b60008060408385031215612a4457600080fd5b612a4d83612732565b91506020830135612a5d81612a23565b809150509250929050565b60008060008060808587031215612a7e57600080fd5b612a8785612732565b9350612a9560208601612732565b925060408501359150606085013567ffffffffffffffff811115612ab857600080fd5b8501601f81018713612ac957600080fd5b612ad8878235602084016128db565b91505092959194509250565b60008060408385031215612af757600080fd5b612b0083612732565b9150602083013567ffffffffffffffff811115612b1c57600080fd5b612b2885828601612933565b9150509250929050565b600060208284031215612b4457600080fd5b813567ffffffffffffffff811115612b5b57600080fd5b6116f784828501612933565b600080600080600080600060e0888a031215612b8257600080fd5b873567ffffffffffffffff80821115612b9a57600080fd5b612ba68b838c01612933565b985060209150818a013581811115612bbd57600080fd5b612bc98c828d01612933565b985050612bd860408b01612732565b965060608a01359550612bed60808b01612732565b9450612bfb60a08b01612749565b935060c08a013581811115612c0f57600080fd5b8a01601f81018c13612c2057600080fd5b803582811115612c3257612c32612894565b8060051b9250612c438484016128aa565b818152928201840192848101908e851115612c5d57600080fd5b928501925b84841015612c875783359250612c7783612a23565b8282529285019290850190612c62565b80965050505050505092959891949750929550565b60008060408385031215612caf57600080fd5b612cb883612732565b915061278a60208401612732565b6020808252600990820152682737ba1037bbb732b960b91b604082015260600190565b600181811c90821680612cfd57607f821691505b60208210811415612d1e57634e487b7160e01b600052602260045260246000fd5b50919050565b6020808252600d908201526c546f6f20657870656e7369766560981b604082015260600190565b634e487b7160e01b600052601160045260246000fd5b6000816000190483118215151615612d7b57612d7b612d4b565b500290565b600082612d9d57634e487b7160e01b600052601260045260246000fd5b500490565b634e487b7160e01b600052603260045260246000fd5b6020808252601c908201527f4e6f7420746f6b656e206f776e6572206e6f7220617070726f76656400000000604082015260600190565b600060208284031215612e0157600080fd5b81516119bd81612a23565b600060208284031215612e1e57600080fd5b5051919050565b6000600019821415612e3957612e39612d4b565b5060010190565b634e487b7160e01b600052600160045260246000fd5b600082821015612e6857612e68612d4b565b500390565b60008219821115612e8057612e80612d4b565b500190565b6001600160a01b0385811682528416602082015260408101839052608060608201819052600090612eb890830184612793565b9695505050505050565b600060208284031215612ed457600080fd5b81516119bd816126ff565b634e487b7160e01b600052603160045260246000fdfea2646970667358221220730a121425bb5626c43cdbf71f5f69aea4d1b70775d39c7077174b7fc6f8b00b64736f6c63430008090033",
  "devdoc": {
    "kind": "dev",
    "methods": {
      "burn(uint256)": {
        "params": {
          "tokenID": "tokenID of NFT to burn"
        }
      },
      "setDefaultRoyalty(address,uint96)": {
        "params": {
          "fee": ": fee Numerator, less than 10000",
          "receiver": ": address of the royalty receiver, or address(0) to reset"
        }
      },
      "setTokenRoyalty(uint256,address,uint96)": {
        "params": {
          "fee": ": fee Numerator, less than 10000",
          "receiver": ": address of the royalty receiver, or address(0) to reset",
          "tokenID": ": token ID"
        }
      },
      "supportsInterface(bytes4)": {
        "params": {
          "interfaceId": "interfaceId to test"
        }
      }
    },
    "title": "OpenNFTs smartcontract",
    "version": 1
  },
  "userdoc": {
    "kind": "user",
    "methods": {
      "burn(uint256)": {
        "notice": "burn NFT"
      },
      "open()": {
        "notice": "Mint NFT allowed to everyone or only collection owner"
      },
      "setDefaultRoyalty(address,uint96)": {
        "notice": "SET default royalty configuration"
      },
      "setTokenRoyalty(uint256,address,uint96)": {
        "notice": "SET token royalty configuration"
      },
      "supportsInterface(bytes4)": {
        "notice": "test if this interface is supported"
      },
      "tokenIdNext()": {
        "notice": "tokenID of next minted NFT"
      },
      "withdraw(address)": {
        "notice": "withdraw token otherwise eth"
      }
    },
    "version": 1
  },
  "storageLayout": {
    "storage": [
      {
        "astId": 6766,
        "contract": "contracts/next/OpenNFTsV4.sol:OpenNFTsV4",
        "label": "_owners",
        "offset": 0,
        "slot": "0",
        "type": "t_mapping(t_uint256,t_address)"
      },
      {
        "astId": 6770,
        "contract": "contracts/next/OpenNFTsV4.sol:OpenNFTsV4",
        "label": "_balances",
        "offset": 0,
        "slot": "1",
        "type": "t_mapping(t_address,t_uint256)"
      },
      {
        "astId": 6774,
        "contract": "contracts/next/OpenNFTsV4.sol:OpenNFTsV4",
        "label": "_tokenApprovals",
        "offset": 0,
        "slot": "2",
        "type": "t_mapping(t_uint256,t_address)"
      },
      {
        "astId": 6780,
        "contract": "contracts/next/OpenNFTsV4.sol:OpenNFTsV4",
        "label": "_operatorApprovals",
        "offset": 0,
        "slot": "3",
        "type": "t_mapping(t_address,t_mapping(t_address,t_bool))"
      },
      {
        "astId": 7697,
        "contract": "contracts/next/OpenNFTsV4.sol:OpenNFTsV4",
        "label": "_openERC721MetadataInitialized",
        "offset": 0,
        "slot": "4",
        "type": "t_bool"
      },
      {
        "astId": 7699,
        "contract": "contracts/next/OpenNFTsV4.sol:OpenNFTsV4",
        "label": "_name",
        "offset": 0,
        "slot": "5",
        "type": "t_string_storage"
      },
      {
        "astId": 7701,
        "contract": "contracts/next/OpenNFTsV4.sol:OpenNFTsV4",
        "label": "_symbol",
        "offset": 0,
        "slot": "6",
        "type": "t_string_storage"
      },
      {
        "astId": 7705,
        "contract": "contracts/next/OpenNFTsV4.sol:OpenNFTsV4",
        "label": "_tokenURIs",
        "offset": 0,
        "slot": "7",
        "type": "t_mapping(t_uint256,t_string_storage)"
      },
      {
        "astId": 7374,
        "contract": "contracts/next/OpenNFTsV4.sol:OpenNFTsV4",
        "label": "_allTokens",
        "offset": 0,
        "slot": "8",
        "type": "t_array(t_uint256)dyn_storage"
      },
      {
        "astId": 7379,
        "contract": "contracts/next/OpenNFTsV4.sol:OpenNFTsV4",
        "label": "_ownedTokens",
        "offset": 0,
        "slot": "9",
        "type": "t_mapping(t_address,t_array(t_uint256)dyn_storage)"
      },
      {
        "astId": 7383,
        "contract": "contracts/next/OpenNFTsV4.sol:OpenNFTsV4",
        "label": "_ownedTokensIndex",
        "offset": 0,
        "slot": "10",
        "type": "t_mapping(t_uint256,t_uint256)"
      },
      {
        "astId": 7387,
        "contract": "contracts/next/OpenNFTsV4.sol:OpenNFTsV4",
        "label": "_allTokensIndex",
        "offset": 0,
        "slot": "11",
        "type": "t_mapping(t_uint256,t_uint256)"
      },
      {
        "astId": 6531,
        "contract": "contracts/next/OpenNFTsV4.sol:OpenNFTsV4",
        "label": "_openERC173Initialized",
        "offset": 0,
        "slot": "12",
        "type": "t_bool"
      },
      {
        "astId": 6533,
        "contract": "contracts/next/OpenNFTsV4.sol:OpenNFTsV4",
        "label": "_owner",
        "offset": 1,
        "slot": "12",
        "type": "t_address"
      },
      {
        "astId": 6645,
        "contract": "contracts/next/OpenNFTsV4.sol:OpenNFTsV4",
        "label": "_royaltyInfo",
        "offset": 0,
        "slot": "13",
        "type": "t_struct(RoyaltyInfo)6642_storage"
      },
      {
        "astId": 6650,
        "contract": "contracts/next/OpenNFTsV4.sol:OpenNFTsV4",
        "label": "_tokenRoyaltyInfo",
        "offset": 0,
        "slot": "14",
        "type": "t_mapping(t_uint256,t_struct(RoyaltyInfo)6642_storage)"
      },
      {
        "astId": 7962,
        "contract": "contracts/next/OpenNFTsV4.sol:OpenNFTsV4",
        "label": "tokenPrice",
        "offset": 0,
        "slot": "15",
        "type": "t_mapping(t_uint256,t_uint256)"
      },
      {
        "astId": 7964,
        "contract": "contracts/next/OpenNFTsV4.sol:OpenNFTsV4",
        "label": "defaultPrice",
        "offset": 0,
        "slot": "16",
        "type": "t_uint256"
      },
      {
        "astId": 8619,
        "contract": "contracts/next/OpenNFTsV4.sol:OpenNFTsV4",
        "label": "_paused",
        "offset": 0,
        "slot": "17",
        "type": "t_bool"
      },
      {
        "astId": 7870,
        "contract": "contracts/next/OpenNFTsV4.sol:OpenNFTsV4",
        "label": "_openCloneableInitialized",
        "offset": 1,
        "slot": "17",
        "type": "t_bool"
      },
      {
        "astId": 7872,
        "contract": "contracts/next/OpenNFTsV4.sol:OpenNFTsV4",
        "label": "_template",
        "offset": 0,
        "slot": "18",
        "type": "t_string_storage"
      },
      {
        "astId": 7874,
        "contract": "contracts/next/OpenNFTsV4.sol:OpenNFTsV4",
        "label": "_version",
        "offset": 0,
        "slot": "19",
        "type": "t_uint256"
      },
      {
        "astId": 8370,
        "contract": "contracts/next/OpenNFTsV4.sol:OpenNFTsV4",
        "label": "tokenIdNext",
        "offset": 0,
        "slot": "20",
        "type": "t_uint256"
      },
      {
        "astId": 20148,
        "contract": "contracts/next/OpenNFTsV4.sol:OpenNFTsV4",
        "label": "open",
        "offset": 0,
        "slot": "21",
        "type": "t_bool"
      }
    ],
    "types": {
      "t_address": {
        "encoding": "inplace",
        "label": "address",
        "numberOfBytes": "20"
      },
      "t_array(t_uint256)dyn_storage": {
        "base": "t_uint256",
        "encoding": "dynamic_array",
        "label": "uint256[]",
        "numberOfBytes": "32"
      },
      "t_bool": {
        "encoding": "inplace",
        "label": "bool",
        "numberOfBytes": "1"
      },
      "t_mapping(t_address,t_array(t_uint256)dyn_storage)": {
        "encoding": "mapping",
        "key": "t_address",
        "label": "mapping(address => uint256[])",
        "numberOfBytes": "32",
        "value": "t_array(t_uint256)dyn_storage"
      },
      "t_mapping(t_address,t_bool)": {
        "encoding": "mapping",
        "key": "t_address",
        "label": "mapping(address => bool)",
        "numberOfBytes": "32",
        "value": "t_bool"
      },
      "t_mapping(t_address,t_mapping(t_address,t_bool))": {
        "encoding": "mapping",
        "key": "t_address",
        "label": "mapping(address => mapping(address => bool))",
        "numberOfBytes": "32",
        "value": "t_mapping(t_address,t_bool)"
      },
      "t_mapping(t_address,t_uint256)": {
        "encoding": "mapping",
        "key": "t_address",
        "label": "mapping(address => uint256)",
        "numberOfBytes": "32",
        "value": "t_uint256"
      },
      "t_mapping(t_uint256,t_address)": {
        "encoding": "mapping",
        "key": "t_uint256",
        "label": "mapping(uint256 => address)",
        "numberOfBytes": "32",
        "value": "t_address"
      },
      "t_mapping(t_uint256,t_string_storage)": {
        "encoding": "mapping",
        "key": "t_uint256",
        "label": "mapping(uint256 => string)",
        "numberOfBytes": "32",
        "value": "t_string_storage"
      },
      "t_mapping(t_uint256,t_struct(RoyaltyInfo)6642_storage)": {
        "encoding": "mapping",
        "key": "t_uint256",
        "label": "mapping(uint256 => struct OpenERC2981.RoyaltyInfo)",
        "numberOfBytes": "32",
        "value": "t_struct(RoyaltyInfo)6642_storage"
      },
      "t_mapping(t_uint256,t_uint256)": {
        "encoding": "mapping",
        "key": "t_uint256",
        "label": "mapping(uint256 => uint256)",
        "numberOfBytes": "32",
        "value": "t_uint256"
      },
      "t_string_storage": {
        "encoding": "bytes",
        "label": "string",
        "numberOfBytes": "32"
      },
      "t_struct(RoyaltyInfo)6642_storage": {
        "encoding": "inplace",
        "label": "struct OpenERC2981.RoyaltyInfo",
        "members": [
          {
            "astId": 6639,
            "contract": "contracts/next/OpenNFTsV4.sol:OpenNFTsV4",
            "label": "receiver",
            "offset": 0,
            "slot": "0",
            "type": "t_address"
          },
          {
            "astId": 6641,
            "contract": "contracts/next/OpenNFTsV4.sol:OpenNFTsV4",
            "label": "fraction",
            "offset": 20,
            "slot": "0",
            "type": "t_uint96"
          }
        ],
        "numberOfBytes": "32"
      },
      "t_uint256": {
        "encoding": "inplace",
        "label": "uint256",
        "numberOfBytes": "32"
      },
      "t_uint96": {
        "encoding": "inplace",
        "label": "uint96",
        "numberOfBytes": "12"
      }
    }
  }
}