{
  "address": "0xFCB230404470D6E8c373653E61404a6f5b41744f",
  "abi": [
    {
      "anonymous": false,
      "inputs": [
        {
          "indexed": true,
          "internalType": "address",
          "name": "owner",
          "type": "address"
        },
        {
          "indexed": true,
          "internalType": "address",
          "name": "approved",
          "type": "address"
        },
        {
          "indexed": true,
          "internalType": "uint256",
          "name": "tokenId",
          "type": "uint256"
        }
      ],
      "name": "Approval",
      "type": "event"
    },
    {
      "anonymous": false,
      "inputs": [
        {
          "indexed": true,
          "internalType": "address",
          "name": "owner",
          "type": "address"
        },
        {
          "indexed": true,
          "internalType": "address",
          "name": "operator",
          "type": "address"
        },
        {
          "indexed": false,
          "internalType": "bool",
          "name": "approved",
          "type": "bool"
        }
      ],
      "name": "ApprovalForAll",
      "type": "event"
    },
    {
      "anonymous": false,
      "inputs": [
        {
          "indexed": true,
          "internalType": "address",
          "name": "previousOwner",
          "type": "address"
        },
        {
          "indexed": true,
          "internalType": "address",
          "name": "newOwner",
          "type": "address"
        }
      ],
      "name": "OwnershipTransferred",
      "type": "event"
    },
    {
      "anonymous": false,
      "inputs": [
        {
          "indexed": true,
          "internalType": "address",
          "name": "from",
          "type": "address"
        },
        {
          "indexed": true,
          "internalType": "address",
          "name": "to",
          "type": "address"
        },
        {
          "indexed": true,
          "internalType": "uint256",
          "name": "tokenId",
          "type": "uint256"
        }
      ],
      "name": "Transfer",
      "type": "event"
    },
    {
      "inputs": [
        {
          "internalType": "address",
          "name": "spender",
          "type": "address"
        },
        {
          "internalType": "uint256",
          "name": "tokenID",
          "type": "uint256"
        }
      ],
      "name": "approve",
      "outputs": [],
      "stateMutability": "nonpayable",
      "type": "function"
    },
    {
      "inputs": [
        {
          "internalType": "address",
          "name": "owner",
          "type": "address"
        }
      ],
      "name": "balanceOf",
      "outputs": [
        {
          "internalType": "uint256",
          "name": "",
          "type": "uint256"
        }
      ],
      "stateMutability": "view",
      "type": "function"
    },
    {
      "inputs": [
        {
          "internalType": "uint256",
          "name": "tokenID",
          "type": "uint256"
        }
      ],
      "name": "burn",
      "outputs": [],
      "stateMutability": "nonpayable",
      "type": "function"
    },
    {
      "inputs": [
        {
          "internalType": "uint256",
          "name": "tokenID",
          "type": "uint256"
        }
      ],
      "name": "getApproved",
      "outputs": [
        {
          "internalType": "address",
          "name": "",
          "type": "address"
        }
      ],
      "stateMutability": "view",
      "type": "function"
    },
    {
      "inputs": [
        {
          "internalType": "string",
          "name": "name_",
          "type": "string"
        },
        {
          "internalType": "string",
          "name": "symbol_",
          "type": "string"
        },
        {
          "internalType": "address",
          "name": "owner_",
          "type": "address"
        },
        {
          "internalType": "bytes",
          "name": "params_",
          "type": "bytes"
        }
      ],
      "name": "initialize",
      "outputs": [],
      "stateMutability": "nonpayable",
      "type": "function"
    },
    {
      "inputs": [],
      "name": "initialized",
      "outputs": [
        {
          "internalType": "bool",
          "name": "",
          "type": "bool"
        }
      ],
      "stateMutability": "view",
      "type": "function"
    },
    {
      "inputs": [
        {
          "internalType": "address",
          "name": "owner",
          "type": "address"
        },
        {
          "internalType": "address",
          "name": "operator",
          "type": "address"
        }
      ],
      "name": "isApprovedForAll",
      "outputs": [
        {
          "internalType": "bool",
          "name": "",
          "type": "bool"
        }
      ],
      "stateMutability": "view",
      "type": "function"
    },
    {
      "inputs": [
        {
          "internalType": "address",
          "name": "minter",
          "type": "address"
        },
        {
          "internalType": "string",
          "name": "tokenURI_",
          "type": "string"
        }
      ],
      "name": "mint",
      "outputs": [
        {
          "internalType": "uint256",
          "name": "tokenID",
          "type": "uint256"
        }
      ],
      "stateMutability": "nonpayable",
      "type": "function"
    },
    {
      "inputs": [
        {
          "internalType": "string",
          "name": "tokenURI_",
          "type": "string"
        }
      ],
      "name": "mint",
      "outputs": [
        {
          "internalType": "uint256",
          "name": "tokenID",
          "type": "uint256"
        }
      ],
      "stateMutability": "nonpayable",
      "type": "function"
    },
    {
      "inputs": [],
      "name": "name",
      "outputs": [
        {
          "internalType": "string",
          "name": "",
          "type": "string"
        }
      ],
      "stateMutability": "view",
      "type": "function"
    },
    {
      "inputs": [],
      "name": "open",
      "outputs": [
        {
          "internalType": "bool",
          "name": "",
          "type": "bool"
        }
      ],
      "stateMutability": "view",
      "type": "function"
    },
    {
      "inputs": [],
      "name": "owner",
      "outputs": [
        {
          "internalType": "address",
          "name": "",
          "type": "address"
        }
      ],
      "stateMutability": "view",
      "type": "function"
    },
    {
      "inputs": [
        {
          "internalType": "uint256",
          "name": "tokenID",
          "type": "uint256"
        }
      ],
      "name": "ownerOf",
      "outputs": [
        {
          "internalType": "address",
          "name": "",
          "type": "address"
        }
      ],
      "stateMutability": "view",
      "type": "function"
    },
    {
      "inputs": [],
      "name": "parent",
      "outputs": [
        {
          "internalType": "address",
          "name": "parent_",
          "type": "address"
        }
      ],
      "stateMutability": "view",
      "type": "function"
    },
    {
      "inputs": [
        {
          "internalType": "address",
          "name": "from",
          "type": "address"
        },
        {
          "internalType": "address",
          "name": "to",
          "type": "address"
        },
        {
          "internalType": "uint256",
          "name": "tokenID",
          "type": "uint256"
        }
      ],
      "name": "safeTransferFrom",
      "outputs": [],
      "stateMutability": "payable",
      "type": "function"
    },
    {
      "inputs": [
        {
          "internalType": "address",
          "name": "from",
          "type": "address"
        },
        {
          "internalType": "address",
          "name": "to",
          "type": "address"
        },
        {
          "internalType": "uint256",
          "name": "tokenID",
          "type": "uint256"
        },
        {
          "internalType": "bytes",
          "name": "data",
          "type": "bytes"
        }
      ],
      "name": "safeTransferFrom",
      "outputs": [],
      "stateMutability": "payable",
      "type": "function"
    },
    {
      "inputs": [
        {
          "internalType": "address",
          "name": "operator",
          "type": "address"
        },
        {
          "internalType": "bool",
          "name": "approved",
          "type": "bool"
        }
      ],
      "name": "setApprovalForAll",
      "outputs": [],
      "stateMutability": "nonpayable",
      "type": "function"
    },
    {
      "inputs": [
        {
          "internalType": "bytes4",
          "name": "interfaceId",
          "type": "bytes4"
        }
      ],
      "name": "supportsInterface",
      "outputs": [
        {
          "internalType": "bool",
          "name": "",
          "type": "bool"
        }
      ],
      "stateMutability": "view",
      "type": "function"
    },
    {
      "inputs": [],
      "name": "symbol",
      "outputs": [
        {
          "internalType": "string",
          "name": "",
          "type": "string"
        }
      ],
      "stateMutability": "view",
      "type": "function"
    },
    {
      "inputs": [],
      "name": "template",
      "outputs": [
        {
          "internalType": "string",
          "name": "",
          "type": "string"
        }
      ],
      "stateMutability": "view",
      "type": "function"
    },
    {
      "inputs": [
        {
          "internalType": "uint256",
          "name": "index",
          "type": "uint256"
        }
      ],
      "name": "tokenByIndex",
      "outputs": [
        {
          "internalType": "uint256",
          "name": "",
          "type": "uint256"
        }
      ],
      "stateMutability": "view",
      "type": "function"
    },
    {
      "inputs": [],
      "name": "tokenIdNext",
      "outputs": [
        {
          "internalType": "uint256",
          "name": "",
          "type": "uint256"
        }
      ],
      "stateMutability": "view",
      "type": "function"
    },
    {
      "inputs": [
        {
          "internalType": "address",
          "name": "owner",
          "type": "address"
        },
        {
          "internalType": "uint256",
          "name": "index",
          "type": "uint256"
        }
      ],
      "name": "tokenOfOwnerByIndex",
      "outputs": [
        {
          "internalType": "uint256",
          "name": "",
          "type": "uint256"
        }
      ],
      "stateMutability": "view",
      "type": "function"
    },
    {
      "inputs": [
        {
          "internalType": "uint256",
          "name": "tokenID",
          "type": "uint256"
        }
      ],
      "name": "tokenURI",
      "outputs": [
        {
          "internalType": "string",
          "name": "",
          "type": "string"
        }
      ],
      "stateMutability": "view",
      "type": "function"
    },
    {
      "inputs": [],
      "name": "totalSupply",
      "outputs": [
        {
          "internalType": "uint256",
          "name": "",
          "type": "uint256"
        }
      ],
      "stateMutability": "view",
      "type": "function"
    },
    {
      "inputs": [
        {
          "internalType": "address",
          "name": "from",
          "type": "address"
        },
        {
          "internalType": "address",
          "name": "to",
          "type": "address"
        },
        {
          "internalType": "uint256",
          "name": "tokenID",
          "type": "uint256"
        }
      ],
      "name": "transferFrom",
      "outputs": [],
      "stateMutability": "payable",
      "type": "function"
    },
    {
      "inputs": [
        {
          "internalType": "address",
          "name": "newOwner",
          "type": "address"
        }
      ],
      "name": "transferOwnership",
      "outputs": [],
      "stateMutability": "nonpayable",
      "type": "function"
    },
    {
      "inputs": [],
      "name": "version",
      "outputs": [
        {
          "internalType": "uint256",
          "name": "",
          "type": "uint256"
        }
      ],
      "stateMutability": "view",
      "type": "function"
    }
  ],
  "transactionHash": "0xb1005814625615f3bdec7d20131a076085eb20f77042eda49da18afe8ec4ad14",
  "args": [],
  "numDeployments": 11,
  "solcInputHash": "9a3c84a759dc82190bb231b8601f6593",
  "bytecode": "0x608060405234801561001057600080fd5b506120c9806100206000396000f3fe6080604052600436106101b75760003560e01c80636352211e116100ec578063b88d4fde1161008a578063d85d3d2711610064578063d85d3d2714610494578063e985e9c5146104b4578063f2fde38b146104fd578063fcfff16f1461051d57600080fd5b8063b88d4fde14610441578063c87b56dd14610454578063d0def5211461047457600080fd5b80638bbf58b3116100c65780638bbf58b3146103d35780638da5cb5b146103e957806395d89b411461040c578063a22cb4651461042157600080fd5b80636352211e1461037e5780636f2ddd931461039e57806370a08231146103b357600080fd5b806323b872dd1161015957806342966c681161013357806342966c68146103135780634f6ccce71461033357806354fd4d501461035357806360f96a8f1461036957600080fd5b806323b872dd146102cd5780632f745c59146102e057806342842e0e1461030057600080fd5b8063095ea7b311610195578063095ea7b31461024b578063158ef93e1461026d57806318160ddd1461028e5780631eb40e21146102ad57600080fd5b806301ffc9a7146101bc57806306fdde03146101f1578063081812fc14610213575b600080fd5b3480156101c857600080fd5b506101dc6101d7366004611987565b610537565b60405190151581526020015b60405180910390f35b3480156101fd57600080fd5b50610206610562565b6040516101e891906119fc565b34801561021f57600080fd5b5061023361022e366004611a0f565b6105f4565b6040516001600160a01b0390911681526020016101e8565b34801561025757600080fd5b5061026b610266366004611a3d565b610654565b005b34801561027957600080fd5b50600c546101dc90600160a81b900460ff1681565b34801561029a57600080fd5b506008545b6040519081526020016101e8565b3480156102b957600080fd5b5061026b6102c8366004611b2e565b610718565b61026b6102db366004611bcb565b6107cb565b3480156102ec57600080fd5b5061029f6102fb366004611a3d565b6107db565b61026b61030e366004611bcb565b610862565b34801561031f57600080fd5b5061026b61032e366004611a0f565b61087d565b34801561033f57600080fd5b5061029f61034e366004611a0f565b6108e1565b34801561035f57600080fd5b5061029f600e5481565b34801561037557600080fd5b5061023361094b565b34801561038a57600080fd5b50610233610399366004611a0f565b610994565b3480156103aa57600080fd5b506102066109e7565b3480156103bf57600080fd5b5061029f6103ce366004611c0c565b610a75565b3480156103df57600080fd5b5061029f600f5481565b3480156103f557600080fd5b50600c5461010090046001600160a01b0316610233565b34801561041857600080fd5b50610206610ae0565b34801561042d57600080fd5b5061026b61043c366004611c37565b610aef565b61026b61044f366004611c70565b610b5b565b34801561046057600080fd5b5061020661046f366004611a0f565b610b6d565b34801561048057600080fd5b5061029f61048f366004611cd0565b610c45565b3480156104a057600080fd5b5061029f6104af366004611d20565b610ca4565b3480156104c057600080fd5b506101dc6104cf366004611d55565b6001600160a01b03918216600090815260036020908152604080832093909416825291909152205460ff1690565b34801561050957600080fd5b5061026b610518366004611c0c565b610cb0565b34801561052957600080fd5b506010546101dc9060ff1681565b60006001600160e01b0319821663b6ea550160e01b148061055c575061055c82610d07565b92915050565b60606005805461057190611d83565b80601f016020809104026020016040519081016040528092919081815260200182805461059d90611d83565b80156105ea5780601f106105bf576101008083540402835291602001916105ea565b820191906000526020600020905b8154815290600101906020018083116105cd57829003601f168201915b5050505050905090565b60008181526020819052604081205482906001600160a01b03166106335760405162461bcd60e51b815260040161062a90611db8565b60405180910390fd5b6000838152600260205260409020546001600160a01b031691505b50919050565b61065e3382610d2c565b6106aa5760405162461bcd60e51b815260206004820152601c60248201527f4e6f7420746f6b656e206f776e6572206e6f72206f70657261746f7200000000604482015260640161062a565b600081815260026020526040902080546001600160a01b0319166001600160a01b03841690811790915581906106df82610994565b6001600160a01b03167f8c5be1e5ebec7d5bd14f71427d1e84f3dd0314c0f7b2291e5b200ac8c7c3b92560405160405180910390a45050565b60008180602001905181019061072e9190611de2565b505090506000818060200190518101906107489190611e94565b6001600f5560408051808201909152600a81526913dc195b9391951cd58d60b21b602082015290915061077c906004610d87565b6107868686610dde565b61078f84610e35565b806000815181106107a2576107a2611f46565b6020026020010151601060006101000a81548160ff021916908315150217905550505050505050565b6107d6838383610e6e565b505050565b60006107e683610a75565b82106108255760405162461bcd60e51b815260206004820152600e60248201526d496e76616c696420696e6465782160901b604482015260640161062a565b6001600160a01b038316600090815260096020526040902080548390811061084f5761084f611f46565b9060005260206000200154905092915050565b6107d6838383604051806020016040528060008152506110d4565b80610888338261112c565b6108d45760405162461bcd60e51b815260206004820152601c60248201527f4e6f7420746f6b656e206f776e6572206e6f7220617070726f76656400000000604482015260640161062a565b6108dd82611162565b5050565b60085460009082106109265760405162461bcd60e51b815260206004820152600e60248201526d496e76616c696420696e6465782160901b604482015260640161062a565b6008828154811061093957610939611f46565b90600052602060002001549050919050565b6000602d303b1461095c5750600090565b6010306001600160a01b0316803b806020016040519081016040528181526000908060200190933c61098d90611f5c565b901c905090565b60008181526020819052604081205482906001600160a01b03166109ca5760405162461bcd60e51b815260040161062a90611db8565b50506000908152602081905260409020546001600160a01b031690565b600d80546109f490611d83565b80601f0160208091040260200160405190810160405280929190818152602001828054610a2090611d83565b8015610a6d5780601f10610a4257610100808354040283529160200191610a6d565b820191906000526020600020905b815481529060010190602001808311610a5057829003601f168201915b505050505081565b60006001600160a01b038216610ac45760405162461bcd60e51b8152602060048201526014602482015273496e76616c6964207a65726f206164647265737360601b604482015260640161062a565b506001600160a01b031660009081526001602052604090205490565b60606006805461057190611d83565b3360008181526003602090815260408083206001600160a01b03871680855290835292819020805460ff191686151590811790915590519081529192917f17307eab39ab6107e8899845ad3d59bd9653f200f220920489ca2b5937696c31910160405180910390a35050565b610b67848484846110d4565b50505050565b60008181526020819052604090205460609082906001600160a01b0316610ba65760405162461bcd60e51b815260040161062a90611db8565b60008381526007602052604090208054610bbf90611d83565b80601f0160208091040260200160405190810160405280929190818152602001828054610beb90611d83565b8015610c385780601f10610c0d57610100808354040283529160200191610c38565b820191906000526020600020905b815481529060010190602001808311610c1b57829003601f168201915b5050505050915050919050565b600c5460009061010090046001600160a01b03163314610c935760405162461bcd60e51b81526020600482015260096024820152682737ba1037bbb732b960b91b604482015260640161062a565b610c9d838361116b565b9392505050565b600061055c338361116b565b600c5461010090046001600160a01b03163314610cfb5760405162461bcd60e51b81526020600482015260096024820152682737ba1037bbb732b960b91b604482015260640161062a565b610d048161118d565b50565b60006001600160e01b031982166350130d5360e01b148061055c575061055c826111e7565b600080610d3883610994565b9050836001600160a01b0316816001600160a01b03161480610d7f57506001600160a01b0380821660009081526003602090815260408083209388168352929052205460ff165b949350505050565b600c54600160a81b900460ff1615610db15760405162461bcd60e51b815260040161062a90611f80565b600c805460ff60a81b1916600160a81b1790558151610dd790600d9060208501906118a2565b50600e5550565b60045460ff1615610e015760405162461bcd60e51b815260040161062a90611f80565b6004805460ff191660011790558151610e219060059060208501906118a2565b5080516107d69060069060208401906118a2565b600c5460ff1615610e585760405162461bcd60e51b815260040161062a90611f80565b600c805460ff19166001179055610d048161118d565b80610e79338261112c565b610ec55760405162461bcd60e51b815260206004820152601c60248201527f4e6f7420746f6b656e206f776e6572206e6f7220617070726f76656400000000604482015260640161062a565b6001600160a01b038416610f1b5760405162461bcd60e51b815260206004820152601a60248201527f5472616e736665722066726f6d207a65726f2061646472657373000000000000604482015260640161062a565b6001600160a01b038316610f715760405162461bcd60e51b815260206004820152601860248201527f5472616e7366657220746f207a65726f20616464726573730000000000000000604482015260640161062a565b610f7a82610994565b6001600160a01b0316846001600160a01b031614610fcb5760405162461bcd60e51b815260206004820152600e60248201526d233937b6903737ba1037bbb732b960911b604482015260640161062a565b610fd684848461120c565b600082815260026020526040902080546001600160a01b03191690556001600160a01b038481169084161461108d576001600160a01b03841660009081526001602081905260408220805491929091611030908490611fc3565b90915550506001600160a01b03831660009081526001602081905260408220805491929091611060908490611fda565b9091555050600082815260208190526040902080546001600160a01b0319166001600160a01b0385161790555b81836001600160a01b0316856001600160a01b03167fddf252ad1be2c89b69c2b068fc378daa952ba7f163c4a11628f55a4df523b3ef60405160405180910390a450505050565b6110df848484610e6e565b6110eb84848484611217565b610b675760405162461bcd60e51b81526020600482015260126024820152712737ba1022a9219b9918a932b1b2b4bb32b960711b604482015260640161062a565b60006111388383610d2c565b80610c9d5750826001600160a01b0316611151836105f4565b6001600160a01b0316149392505050565b610d04816112c6565b600f80546000918261117c83611ff2565b91905055905061055c838383611398565b600c80546001600160a01b03838116610100818102610100600160a81b031985161790945560405193909204169182907f8be0079c531659141344cd1fd0a4f28419497f9722a3daafe3b4186f6b6457e090600090a35050565b60006307f5828d60e41b6001600160e01b03198316148061055c575061055c826113a3565b6107d68383836113c8565b60006001600160a01b0384163b15806112bd5750604051630a85bd0160e11b808252906001600160a01b0386169063150b7a029061125f9033908a908990899060040161200d565b602060405180830381600087803b15801561127957600080fd5b505af115801561128d573d6000803e3d6000fd5b505050506040513d601f19601f820116820180604052508101906112b1919061204a565b6001600160e01b031916145b95945050505050565b60006112d182610994565b90506112dd81836113dc565b6000828152600b60205260408120546008549091906112fe90600190611fc3565b905060006008828154811061131557611315611f46565b6000918252602080832090910154808352600b90915260408083208690558783528220919091556008805491925082918590811061135557611355611f46565b600091825260209091200155600880548061137257611372612067565b60019003818190600052602060002001600090559055611391856114ea565b5050505050565b6107d683838361150a565b600063780e9d6360e01b6001600160e01b03198316148061055c575061055c82611563565b6113d283826113dc565b6107d68282611588565b6000818152600a60205260408120549060016113f785610a75565b6114019190611fc3565b9050808214611498576001600160a01b038416600090815260096020526040812080548390811061143457611434611f46565b906000526020600020015490508060096000876001600160a01b03166001600160a01b03168152602001908152602001600020848154811061147857611478611f46565b6000918252602080832090910192909255918252600a9052604090208290555b6000838152600a602090815260408083208390556001600160a01b0387168352600990915290208054806114ce576114ce612067565b6001900381819060005260206000200160009055905550505050565b600081815260076020526040812061150191611926565b610d04816115c6565b6115148382611588565b600880546000838152600b60205260408120829055600182018355919091527ff3f7a9fe364faab93b216da50a3214154f22a0a2b415b23a84c8169e8b636ee3018190556107d68383836116b7565b6000635b5e139f60e01b6001600160e01b03198316148061055c575061055c826116e2565b6001600160a01b0390911660009081526009602081815260408084208054868652600a84529185208290559282526001810183559183529091200155565b60006115d182610994565b90506001600160a01b0381166115f95760405162461bcd60e51b815260040161062a90611db8565b6001600160a01b03811660009081526001602052604090205461161e5761161e61207d565b6001600160a01b03811660009081526001602081905260408220805491929091611649908490611fc3565b9091555050600082815260026020908152604080832080546001600160a01b0319908116909155918390528083208054909216909155518391906001600160a01b038416907fddf252ad1be2c89b69c2b068fc378daa952ba7f163c4a11628f55a4df523b3ef908390a45050565b600081815260076020908152604090912083516116d6928501906118a2565b506107d6838383611717565b60006380ac58cd60e01b6001600160e01b03198316148061055c57506001600160e01b031982166301ffc9a760e01b1461055c565b6001600160a01b0383166117645760405162461bcd60e51b81526020600482015260146024820152734d696e7420746f207a65726f206164647265737360601b604482015260640161062a565b6000818152602081905260409020546001600160a01b0316156117c05760405162461bcd60e51b8152602060048201526014602482015273151bdad95b88185b1c9958591e481b5a5b9d195960621b604482015260640161062a565b6001600160a01b038316600090815260016020819052604082208054919290916117eb908490611fda565b909155505060008181526020819052604080822080546001600160a01b0319166001600160a01b03871690811790915590518392907fddf252ad1be2c89b69c2b068fc378daa952ba7f163c4a11628f55a4df523b3ef908290a46118616000848360405180602001604052806000815250611217565b6107d65760405162461bcd60e51b8152602060048201526012602482015271139bdd08115490cdcc8c549958d95a5d995960721b604482015260640161062a565b8280546118ae90611d83565b90600052602060002090601f0160209004810192826118d05760008555611916565b82601f106118e957805160ff1916838001178555611916565b82800160010185558215611916579182015b828111156119165782518255916020019190600101906118fb565b5061192292915061195c565b5090565b50805461193290611d83565b6000825580601f10611942575050565b601f016020900490600052602060002090810190610d0491905b5b80821115611922576000815560010161195d565b6001600160e01b031981168114610d0457600080fd5b60006020828403121561199957600080fd5b8135610c9d81611971565b60005b838110156119bf5781810151838201526020016119a7565b83811115610b675750506000910152565b600081518084526119e88160208601602086016119a4565b601f01601f19169290920160200192915050565b602081526000610c9d60208301846119d0565b600060208284031215611a2157600080fd5b5035919050565b6001600160a01b0381168114610d0457600080fd5b60008060408385031215611a5057600080fd5b8235611a5b81611a28565b946020939093013593505050565b634e487b7160e01b600052604160045260246000fd5b604051601f8201601f1916810167ffffffffffffffff81118282101715611aa857611aa8611a69565b604052919050565b600067ffffffffffffffff821115611aca57611aca611a69565b50601f01601f191660200190565b600082601f830112611ae957600080fd5b8135611afc611af782611ab0565b611a7f565b818152846020838601011115611b1157600080fd5b816020850160208301376000918101602001919091529392505050565b60008060008060808587031215611b4457600080fd5b843567ffffffffffffffff80821115611b5c57600080fd5b611b6888838901611ad8565b95506020870135915080821115611b7e57600080fd5b611b8a88838901611ad8565b945060408701359150611b9c82611a28565b90925060608601359080821115611bb257600080fd5b50611bbf87828801611ad8565b91505092959194509250565b600080600060608486031215611be057600080fd5b8335611beb81611a28565b92506020840135611bfb81611a28565b929592945050506040919091013590565b600060208284031215611c1e57600080fd5b8135610c9d81611a28565b8015158114610d0457600080fd5b60008060408385031215611c4a57600080fd5b8235611c5581611a28565b91506020830135611c6581611c29565b809150509250929050565b60008060008060808587031215611c8657600080fd5b8435611c9181611a28565b93506020850135611ca181611a28565b925060408501359150606085013567ffffffffffffffff811115611cc457600080fd5b611bbf87828801611ad8565b60008060408385031215611ce357600080fd5b8235611cee81611a28565b9150602083013567ffffffffffffffff811115611d0a57600080fd5b611d1685828601611ad8565b9150509250929050565b600060208284031215611d3257600080fd5b813567ffffffffffffffff811115611d4957600080fd5b610d7f84828501611ad8565b60008060408385031215611d6857600080fd5b8235611d7381611a28565b91506020830135611c6581611a28565b600181811c90821680611d9757607f821691505b6020821081141561064e57634e487b7160e01b600052602260045260246000fd5b60208082526010908201526f125b9d985b1a59081d1bdad95b88125160821b604082015260600190565b600080600060608486031215611df757600080fd5b835167ffffffffffffffff811115611e0e57600080fd5b8401601f81018613611e1f57600080fd5b8051611e2d611af782611ab0565b818152876020838501011115611e4257600080fd5b611e538260208301602086016119a4565b8095505050506020840151611e6781611a28565b60408501519092506bffffffffffffffffffffffff81168114611e8957600080fd5b809150509250925092565b60006020808385031215611ea757600080fd5b825167ffffffffffffffff80821115611ebf57600080fd5b818501915085601f830112611ed357600080fd5b815181811115611ee557611ee5611a69565b8060051b9150611ef6848301611a7f565b8181529183018401918481019088841115611f1057600080fd5b938501935b83851015611f3a5784519250611f2a83611c29565b8282529385019390850190611f15565b98975050505050505050565b634e487b7160e01b600052603260045260246000fd5b8051602080830151919081101561064e5760001960209190910360031b1b16919050565b602080825260139082015272105b1c9958591e481a5b9a5d1a585b1a5e9959606a1b604082015260600190565b634e487b7160e01b600052601160045260246000fd5b600082821015611fd557611fd5611fad565b500390565b60008219821115611fed57611fed611fad565b500190565b600060001982141561200657612006611fad565b5060010190565b6001600160a01b0385811682528416602082015260408101839052608060608201819052600090612040908301846119d0565b9695505050505050565b60006020828403121561205c57600080fd5b8151610c9d81611971565b634e487b7160e01b600052603160045260246000fd5b634e487b7160e01b600052600160045260246000fdfea26469706673582212200dbaa1edcb34f09aa2b9760d1a0c1a5994379d9289ff5cd36ad638fc33982f2e64736f6c63430008090033",
  "devdoc": {
    "kind": "dev",
    "methods": {
      "burn(uint256)": {
        "params": {
          "tokenID": "tokenID of NFT to burn"
        }
      }
    },
    "title": "OpenNFTs smartcontract",
    "version": 1
  },
  "userdoc": {
    "kind": "user",
    "methods": {
      "burn(uint256)": {
        "notice": "burn NFT"
      },
      "open()": {
        "notice": "Mint NFT allowed to everyone or only collection owner"
      },
      "tokenIdNext()": {
        "notice": "tokenID of next minted NFT"
      }
    },
    "version": 1
  },
  "storageLayout": {
    "storage": [
      {
        "astId": 5459,
        "contract": "contracts/next/OpenNFTsV4.sol:OpenNFTsV4",
        "label": "_owners",
        "offset": 0,
        "slot": "0",
        "type": "t_mapping(t_uint256,t_address)"
      },
      {
        "astId": 5463,
        "contract": "contracts/next/OpenNFTsV4.sol:OpenNFTsV4",
        "label": "_balances",
        "offset": 0,
        "slot": "1",
        "type": "t_mapping(t_address,t_uint256)"
      },
      {
        "astId": 5467,
        "contract": "contracts/next/OpenNFTsV4.sol:OpenNFTsV4",
        "label": "_tokenApprovals",
        "offset": 0,
        "slot": "2",
        "type": "t_mapping(t_uint256,t_address)"
      },
      {
        "astId": 5473,
        "contract": "contracts/next/OpenNFTsV4.sol:OpenNFTsV4",
        "label": "_operatorApprovals",
        "offset": 0,
        "slot": "3",
        "type": "t_mapping(t_address,t_mapping(t_address,t_bool))"
      },
      {
        "astId": 6382,
        "contract": "contracts/next/OpenNFTsV4.sol:OpenNFTsV4",
        "label": "_openERC721MetadataInitialized",
        "offset": 0,
        "slot": "4",
        "type": "t_bool"
      },
      {
        "astId": 6384,
        "contract": "contracts/next/OpenNFTsV4.sol:OpenNFTsV4",
        "label": "_name",
        "offset": 0,
        "slot": "5",
        "type": "t_string_storage"
      },
      {
        "astId": 6386,
        "contract": "contracts/next/OpenNFTsV4.sol:OpenNFTsV4",
        "label": "_symbol",
        "offset": 0,
        "slot": "6",
        "type": "t_string_storage"
      },
      {
        "astId": 6390,
        "contract": "contracts/next/OpenNFTsV4.sol:OpenNFTsV4",
        "label": "_tokenURIs",
        "offset": 0,
        "slot": "7",
        "type": "t_mapping(t_uint256,t_string_storage)"
      },
      {
        "astId": 6059,
        "contract": "contracts/next/OpenNFTsV4.sol:OpenNFTsV4",
        "label": "_allTokens",
        "offset": 0,
        "slot": "8",
        "type": "t_array(t_uint256)dyn_storage"
      },
      {
        "astId": 6064,
        "contract": "contracts/next/OpenNFTsV4.sol:OpenNFTsV4",
        "label": "_ownedTokens",
        "offset": 0,
        "slot": "9",
        "type": "t_mapping(t_address,t_array(t_uint256)dyn_storage)"
      },
      {
        "astId": 6068,
        "contract": "contracts/next/OpenNFTsV4.sol:OpenNFTsV4",
        "label": "_ownedTokensIndex",
        "offset": 0,
        "slot": "10",
        "type": "t_mapping(t_uint256,t_uint256)"
      },
      {
        "astId": 6072,
        "contract": "contracts/next/OpenNFTsV4.sol:OpenNFTsV4",
        "label": "_allTokensIndex",
        "offset": 0,
        "slot": "11",
        "type": "t_mapping(t_uint256,t_uint256)"
      },
      {
        "astId": 5174,
        "contract": "contracts/next/OpenNFTsV4.sol:OpenNFTsV4",
        "label": "_openERC173Initialized",
        "offset": 0,
        "slot": "12",
        "type": "t_bool"
      },
      {
        "astId": 5176,
        "contract": "contracts/next/OpenNFTsV4.sol:OpenNFTsV4",
        "label": "_owner",
        "offset": 1,
        "slot": "12",
        "type": "t_address"
      },
      {
        "astId": 4987,
        "contract": "contracts/next/OpenNFTsV4.sol:OpenNFTsV4",
        "label": "initialized",
        "offset": 21,
        "slot": "12",
        "type": "t_bool"
      },
      {
        "astId": 4989,
        "contract": "contracts/next/OpenNFTsV4.sol:OpenNFTsV4",
        "label": "template",
        "offset": 0,
        "slot": "13",
        "type": "t_string_storage"
      },
      {
        "astId": 4991,
        "contract": "contracts/next/OpenNFTsV4.sol:OpenNFTsV4",
        "label": "version",
        "offset": 0,
        "slot": "14",
        "type": "t_uint256"
      },
      {
        "astId": 21395,
        "contract": "contracts/next/OpenNFTsV4.sol:OpenNFTsV4",
        "label": "tokenIdNext",
        "offset": 0,
        "slot": "15",
        "type": "t_uint256"
      },
      {
        "astId": 21398,
        "contract": "contracts/next/OpenNFTsV4.sol:OpenNFTsV4",
        "label": "open",
        "offset": 0,
        "slot": "16",
        "type": "t_bool"
      }
    ],
    "types": {
      "t_address": {
        "encoding": "inplace",
        "label": "address",
        "numberOfBytes": "20"
      },
      "t_array(t_uint256)dyn_storage": {
        "base": "t_uint256",
        "encoding": "dynamic_array",
        "label": "uint256[]",
        "numberOfBytes": "32"
      },
      "t_bool": {
        "encoding": "inplace",
        "label": "bool",
        "numberOfBytes": "1"
      },
      "t_mapping(t_address,t_array(t_uint256)dyn_storage)": {
        "encoding": "mapping",
        "key": "t_address",
        "label": "mapping(address => uint256[])",
        "numberOfBytes": "32",
        "value": "t_array(t_uint256)dyn_storage"
      },
      "t_mapping(t_address,t_bool)": {
        "encoding": "mapping",
        "key": "t_address",
        "label": "mapping(address => bool)",
        "numberOfBytes": "32",
        "value": "t_bool"
      },
      "t_mapping(t_address,t_mapping(t_address,t_bool))": {
        "encoding": "mapping",
        "key": "t_address",
        "label": "mapping(address => mapping(address => bool))",
        "numberOfBytes": "32",
        "value": "t_mapping(t_address,t_bool)"
      },
      "t_mapping(t_address,t_uint256)": {
        "encoding": "mapping",
        "key": "t_address",
        "label": "mapping(address => uint256)",
        "numberOfBytes": "32",
        "value": "t_uint256"
      },
      "t_mapping(t_uint256,t_address)": {
        "encoding": "mapping",
        "key": "t_uint256",
        "label": "mapping(uint256 => address)",
        "numberOfBytes": "32",
        "value": "t_address"
      },
      "t_mapping(t_uint256,t_string_storage)": {
        "encoding": "mapping",
        "key": "t_uint256",
        "label": "mapping(uint256 => string)",
        "numberOfBytes": "32",
        "value": "t_string_storage"
      },
      "t_mapping(t_uint256,t_uint256)": {
        "encoding": "mapping",
        "key": "t_uint256",
        "label": "mapping(uint256 => uint256)",
        "numberOfBytes": "32",
        "value": "t_uint256"
      },
      "t_string_storage": {
        "encoding": "bytes",
        "label": "string",
        "numberOfBytes": "32"
      },
      "t_uint256": {
        "encoding": "inplace",
        "label": "uint256",
        "numberOfBytes": "32"
      }
    }
  }
}