{
  "address": "0xf294EcF0aeF506cf20cc40edb67623019e782ba2",
  "abi": [
    {
      "anonymous": false,
      "inputs": [
        {
          "indexed": true,
          "internalType": "address",
          "name": "owner",
          "type": "address"
        },
        {
          "indexed": true,
          "internalType": "address",
          "name": "approved",
          "type": "address"
        },
        {
          "indexed": true,
          "internalType": "uint256",
          "name": "tokenId",
          "type": "uint256"
        }
      ],
      "name": "Approval",
      "type": "event"
    },
    {
      "anonymous": false,
      "inputs": [
        {
          "indexed": true,
          "internalType": "address",
          "name": "owner",
          "type": "address"
        },
        {
          "indexed": true,
          "internalType": "address",
          "name": "operator",
          "type": "address"
        },
        {
          "indexed": false,
          "internalType": "bool",
          "name": "approved",
          "type": "bool"
        }
      ],
      "name": "ApprovalForAll",
      "type": "event"
    },
    {
      "anonymous": false,
      "inputs": [
        {
          "indexed": true,
          "internalType": "address",
          "name": "previousOwner",
          "type": "address"
        },
        {
          "indexed": true,
          "internalType": "address",
          "name": "newOwner",
          "type": "address"
        }
      ],
      "name": "OwnershipTransferred",
      "type": "event"
    },
    {
      "anonymous": false,
      "inputs": [
        {
          "indexed": false,
          "internalType": "uint256",
          "name": "tokenID",
          "type": "uint256"
        },
        {
          "indexed": false,
          "internalType": "uint256",
          "name": "price",
          "type": "uint256"
        },
        {
          "indexed": false,
          "internalType": "address",
          "name": "payer",
          "type": "address"
        },
        {
          "indexed": false,
          "internalType": "address",
          "name": "payee",
          "type": "address"
        }
      ],
      "name": "Pay",
      "type": "event"
    },
    {
      "anonymous": false,
      "inputs": [
        {
          "indexed": false,
          "internalType": "uint256",
          "name": "price",
          "type": "uint256"
        }
      ],
      "name": "SetDefaultPrice",
      "type": "event"
    },
    {
      "anonymous": false,
      "inputs": [
        {
          "indexed": false,
          "internalType": "address",
          "name": "receiver",
          "type": "address"
        },
        {
          "indexed": false,
          "internalType": "uint96",
          "name": "fee",
          "type": "uint96"
        }
      ],
      "name": "SetDefaultRoyalty",
      "type": "event"
    },
    {
      "anonymous": false,
      "inputs": [
        {
          "indexed": true,
          "internalType": "bool",
          "name": "paused",
          "type": "bool"
        },
        {
          "indexed": true,
          "internalType": "address",
          "name": "account",
          "type": "address"
        }
      ],
      "name": "SetPaused",
      "type": "event"
    },
    {
      "anonymous": false,
      "inputs": [
        {
          "indexed": false,
          "internalType": "uint256",
          "name": "tokenID",
          "type": "uint256"
        },
        {
          "indexed": false,
          "internalType": "uint256",
          "name": "price",
          "type": "uint256"
        }
      ],
      "name": "SetTokenPrice",
      "type": "event"
    },
    {
      "anonymous": false,
      "inputs": [
        {
          "indexed": false,
          "internalType": "uint256",
          "name": "tokenID",
          "type": "uint256"
        },
        {
          "indexed": false,
          "internalType": "address",
          "name": "receiver",
          "type": "address"
        },
        {
          "indexed": false,
          "internalType": "uint96",
          "name": "fee",
          "type": "uint96"
        }
      ],
      "name": "SetTokenRoyalty",
      "type": "event"
    },
    {
      "anonymous": false,
      "inputs": [
        {
          "indexed": true,
          "internalType": "address",
          "name": "from",
          "type": "address"
        },
        {
          "indexed": true,
          "internalType": "address",
          "name": "to",
          "type": "address"
        },
        {
          "indexed": true,
          "internalType": "uint256",
          "name": "tokenId",
          "type": "uint256"
        }
      ],
      "name": "Transfer",
      "type": "event"
    },
    {
      "inputs": [
        {
          "internalType": "address",
          "name": "spender",
          "type": "address"
        },
        {
          "internalType": "uint256",
          "name": "tokenID",
          "type": "uint256"
        }
      ],
      "name": "approve",
      "outputs": [],
      "stateMutability": "nonpayable",
      "type": "function"
    },
    {
      "inputs": [
        {
          "internalType": "address",
          "name": "owner",
          "type": "address"
        }
      ],
      "name": "balanceOf",
      "outputs": [
        {
          "internalType": "uint256",
          "name": "",
          "type": "uint256"
        }
      ],
      "stateMutability": "view",
      "type": "function"
    },
    {
      "inputs": [
        {
          "internalType": "uint256",
          "name": "tokenID",
          "type": "uint256"
        }
      ],
      "name": "burn",
      "outputs": [],
      "stateMutability": "nonpayable",
      "type": "function"
    },
    {
      "inputs": [
        {
          "internalType": "uint256",
          "name": "tokenID",
          "type": "uint256"
        }
      ],
      "name": "buy",
      "outputs": [],
      "stateMutability": "payable",
      "type": "function"
    },
    {
      "inputs": [],
      "name": "defaultPrice",
      "outputs": [
        {
          "internalType": "uint256",
          "name": "",
          "type": "uint256"
        }
      ],
      "stateMutability": "view",
      "type": "function"
    },
    {
      "inputs": [
        {
          "internalType": "uint256",
          "name": "tokenID",
          "type": "uint256"
        }
      ],
      "name": "getApproved",
      "outputs": [
        {
          "internalType": "address",
          "name": "",
          "type": "address"
        }
      ],
      "stateMutability": "view",
      "type": "function"
    },
    {
      "inputs": [
        {
          "internalType": "string",
          "name": "name_",
          "type": "string"
        },
        {
          "internalType": "string",
          "name": "symbol_",
          "type": "string"
        },
        {
          "internalType": "address",
          "name": "owner_",
          "type": "address"
        },
        {
          "internalType": "uint256",
          "name": "defaultPrice_",
          "type": "uint256"
        },
        {
          "internalType": "address",
          "name": "receiver_",
          "type": "address"
        },
        {
          "internalType": "uint96",
          "name": "fee_",
          "type": "uint96"
        },
        {
          "internalType": "bool[]",
          "name": "options",
          "type": "bool[]"
        }
      ],
      "name": "initialize",
      "outputs": [],
      "stateMutability": "nonpayable",
      "type": "function"
    },
    {
      "inputs": [],
      "name": "initialized",
      "outputs": [
        {
          "internalType": "bool",
          "name": "",
          "type": "bool"
        }
      ],
      "stateMutability": "view",
      "type": "function"
    },
    {
      "inputs": [
        {
          "internalType": "address",
          "name": "owner",
          "type": "address"
        },
        {
          "internalType": "address",
          "name": "operator",
          "type": "address"
        }
      ],
      "name": "isApprovedForAll",
      "outputs": [
        {
          "internalType": "bool",
          "name": "",
          "type": "bool"
        }
      ],
      "stateMutability": "view",
      "type": "function"
    },
    {
      "inputs": [
        {
          "internalType": "address",
          "name": "minter",
          "type": "address"
        },
        {
          "internalType": "string",
          "name": "tokenURI",
          "type": "string"
        },
        {
          "internalType": "uint256",
          "name": "price",
          "type": "uint256"
        },
        {
          "internalType": "address",
          "name": "receiver",
          "type": "address"
        },
        {
          "internalType": "uint96",
          "name": "fee",
          "type": "uint96"
        }
      ],
      "name": "mint",
      "outputs": [
        {
          "internalType": "uint256",
          "name": "tokenID",
          "type": "uint256"
        }
      ],
      "stateMutability": "payable",
      "type": "function"
    },
    {
      "inputs": [
        {
          "internalType": "address",
          "name": "minter",
          "type": "address"
        },
        {
          "internalType": "string",
          "name": "tokenURI",
          "type": "string"
        }
      ],
      "name": "mint",
      "outputs": [
        {
          "internalType": "uint256",
          "name": "tokenID",
          "type": "uint256"
        }
      ],
      "stateMutability": "nonpayable",
      "type": "function"
    },
    {
      "inputs": [
        {
          "internalType": "string",
          "name": "tokenURI",
          "type": "string"
        }
      ],
      "name": "mint",
      "outputs": [
        {
          "internalType": "uint256",
          "name": "tokenID",
          "type": "uint256"
        }
      ],
      "stateMutability": "nonpayable",
      "type": "function"
    },
    {
      "inputs": [],
      "name": "name",
      "outputs": [
        {
          "internalType": "string",
          "name": "",
          "type": "string"
        }
      ],
      "stateMutability": "view",
      "type": "function"
    },
    {
      "inputs": [],
      "name": "open",
      "outputs": [
        {
          "internalType": "bool",
          "name": "",
          "type": "bool"
        }
      ],
      "stateMutability": "view",
      "type": "function"
    },
    {
      "inputs": [],
      "name": "owner",
      "outputs": [
        {
          "internalType": "address",
          "name": "",
          "type": "address"
        }
      ],
      "stateMutability": "view",
      "type": "function"
    },
    {
      "inputs": [
        {
          "internalType": "uint256",
          "name": "tokenID",
          "type": "uint256"
        }
      ],
      "name": "ownerOf",
      "outputs": [
        {
          "internalType": "address",
          "name": "owner",
          "type": "address"
        }
      ],
      "stateMutability": "view",
      "type": "function"
    },
    {
      "inputs": [],
      "name": "parent",
      "outputs": [
        {
          "internalType": "address",
          "name": "parent_",
          "type": "address"
        }
      ],
      "stateMutability": "view",
      "type": "function"
    },
    {
      "inputs": [],
      "name": "paused",
      "outputs": [
        {
          "internalType": "bool",
          "name": "",
          "type": "bool"
        }
      ],
      "stateMutability": "view",
      "type": "function"
    },
    {
      "inputs": [
        {
          "internalType": "uint256",
          "name": "tokenID",
          "type": "uint256"
        },
        {
          "internalType": "uint256",
          "name": "price",
          "type": "uint256"
        }
      ],
      "name": "royaltyInfo",
      "outputs": [
        {
          "internalType": "address",
          "name": "receiver",
          "type": "address"
        },
        {
          "internalType": "uint256",
          "name": "royaltyAmount",
          "type": "uint256"
        }
      ],
      "stateMutability": "view",
      "type": "function"
    },
    {
      "inputs": [
        {
          "internalType": "address",
          "name": "from",
          "type": "address"
        },
        {
          "internalType": "address",
          "name": "to",
          "type": "address"
        },
        {
          "internalType": "uint256",
          "name": "tokenID",
          "type": "uint256"
        }
      ],
      "name": "safeTransferFrom",
      "outputs": [],
      "stateMutability": "payable",
      "type": "function"
    },
    {
      "inputs": [
        {
          "internalType": "address",
          "name": "from",
          "type": "address"
        },
        {
          "internalType": "address",
          "name": "to",
          "type": "address"
        },
        {
          "internalType": "uint256",
          "name": "tokenID",
          "type": "uint256"
        },
        {
          "internalType": "bytes",
          "name": "data",
          "type": "bytes"
        }
      ],
      "name": "safeTransferFrom",
      "outputs": [],
      "stateMutability": "payable",
      "type": "function"
    },
    {
      "inputs": [
        {
          "internalType": "address",
          "name": "operator",
          "type": "address"
        },
        {
          "internalType": "bool",
          "name": "approved",
          "type": "bool"
        }
      ],
      "name": "setApprovalForAll",
      "outputs": [],
      "stateMutability": "nonpayable",
      "type": "function"
    },
    {
      "inputs": [
        {
          "internalType": "uint256",
          "name": "price",
          "type": "uint256"
        }
      ],
      "name": "setDefaultPrice",
      "outputs": [],
      "stateMutability": "nonpayable",
      "type": "function"
    },
    {
      "inputs": [
        {
          "internalType": "address",
          "name": "receiver",
          "type": "address"
        },
        {
          "internalType": "uint96",
          "name": "fee",
          "type": "uint96"
        }
      ],
      "name": "setDefaultRoyalty",
      "outputs": [],
      "stateMutability": "nonpayable",
      "type": "function"
    },
    {
      "inputs": [
        {
          "internalType": "uint256",
          "name": "tokenID",
          "type": "uint256"
        }
      ],
      "name": "setTokenPrice",
      "outputs": [],
      "stateMutability": "nonpayable",
      "type": "function"
    },
    {
      "inputs": [
        {
          "internalType": "uint256",
          "name": "tokenID",
          "type": "uint256"
        },
        {
          "internalType": "uint256",
          "name": "price",
          "type": "uint256"
        }
      ],
      "name": "setTokenPrice",
      "outputs": [],
      "stateMutability": "nonpayable",
      "type": "function"
    },
    {
      "inputs": [
        {
          "internalType": "uint256",
          "name": "tokenID",
          "type": "uint256"
        },
        {
          "internalType": "address",
          "name": "receiver",
          "type": "address"
        },
        {
          "internalType": "uint96",
          "name": "fee",
          "type": "uint96"
        }
      ],
      "name": "setTokenRoyalty",
      "outputs": [],
      "stateMutability": "nonpayable",
      "type": "function"
    },
    {
      "inputs": [
        {
          "internalType": "bytes4",
          "name": "interfaceId",
          "type": "bytes4"
        }
      ],
      "name": "supportsInterface",
      "outputs": [
        {
          "internalType": "bool",
          "name": "",
          "type": "bool"
        }
      ],
      "stateMutability": "view",
      "type": "function"
    },
    {
      "inputs": [],
      "name": "symbol",
      "outputs": [
        {
          "internalType": "string",
          "name": "",
          "type": "string"
        }
      ],
      "stateMutability": "view",
      "type": "function"
    },
    {
      "inputs": [],
      "name": "template",
      "outputs": [
        {
          "internalType": "string",
          "name": "",
          "type": "string"
        }
      ],
      "stateMutability": "view",
      "type": "function"
    },
    {
      "inputs": [],
      "name": "togglePause",
      "outputs": [],
      "stateMutability": "nonpayable",
      "type": "function"
    },
    {
      "inputs": [
        {
          "internalType": "uint256",
          "name": "index",
          "type": "uint256"
        }
      ],
      "name": "tokenByIndex",
      "outputs": [
        {
          "internalType": "uint256",
          "name": "",
          "type": "uint256"
        }
      ],
      "stateMutability": "view",
      "type": "function"
    },
    {
      "inputs": [],
      "name": "tokenIdNext",
      "outputs": [
        {
          "internalType": "uint256",
          "name": "",
          "type": "uint256"
        }
      ],
      "stateMutability": "view",
      "type": "function"
    },
    {
      "inputs": [
        {
          "internalType": "address",
          "name": "owner",
          "type": "address"
        },
        {
          "internalType": "uint256",
          "name": "index",
          "type": "uint256"
        }
      ],
      "name": "tokenOfOwnerByIndex",
      "outputs": [
        {
          "internalType": "uint256",
          "name": "",
          "type": "uint256"
        }
      ],
      "stateMutability": "view",
      "type": "function"
    },
    {
      "inputs": [
        {
          "internalType": "uint256",
          "name": "",
          "type": "uint256"
        }
      ],
      "name": "tokenPrice",
      "outputs": [
        {
          "internalType": "uint256",
          "name": "",
          "type": "uint256"
        }
      ],
      "stateMutability": "view",
      "type": "function"
    },
    {
      "inputs": [
        {
          "internalType": "uint256",
          "name": "tokenID",
          "type": "uint256"
        }
      ],
      "name": "tokenURI",
      "outputs": [
        {
          "internalType": "string",
          "name": "",
          "type": "string"
        }
      ],
      "stateMutability": "view",
      "type": "function"
    },
    {
      "inputs": [],
      "name": "totalSupply",
      "outputs": [
        {
          "internalType": "uint256",
          "name": "",
          "type": "uint256"
        }
      ],
      "stateMutability": "view",
      "type": "function"
    },
    {
      "inputs": [
        {
          "internalType": "address",
          "name": "from",
          "type": "address"
        },
        {
          "internalType": "address",
          "name": "to",
          "type": "address"
        },
        {
          "internalType": "uint256",
          "name": "tokenID",
          "type": "uint256"
        }
      ],
      "name": "transferFrom",
      "outputs": [],
      "stateMutability": "payable",
      "type": "function"
    },
    {
      "inputs": [
        {
          "internalType": "address",
          "name": "newOwner",
          "type": "address"
        }
      ],
      "name": "transferOwnership",
      "outputs": [],
      "stateMutability": "nonpayable",
      "type": "function"
    },
    {
      "inputs": [],
      "name": "version",
      "outputs": [
        {
          "internalType": "uint256",
          "name": "",
          "type": "uint256"
        }
      ],
      "stateMutability": "view",
      "type": "function"
    },
    {
      "inputs": [
        {
          "internalType": "address",
          "name": "token",
          "type": "address"
        }
      ],
      "name": "withdraw",
      "outputs": [],
      "stateMutability": "nonpayable",
      "type": "function"
    },
    {
      "stateMutability": "payable",
      "type": "receive"
    }
  ],
  "transactionHash": "0x63c124a0f71e7633a1b7ac0851279ab47c84ab31b96dbbe57276acb466b57dcd",
  "args": [],
  "numDeployments": 3,
  "solcInputHash": "a23f51798f773656648d21a004e0df4d",
  "bytecode": "0x6080604052600160145534801561001557600080fd5b50613062806100256000396000f3fe60806040526004361061024a5760003560e01c80636a61e5fc11610139578063c87b56dd116100b6578063e69e04b31161007a578063e69e04b31461068b578063e97186ef146106a1578063e985e9c5146106c1578063eb685c471461070a578063f2fde38b1461072a578063fcfff16f1461074a57600080fd5b8063c87b56dd146105eb578063d0def5211461060b578063d4ddce8a1461062b578063d85d3d2714610658578063d96a094a1461067857600080fd5b80638da5cb5b116100fd5780638da5cb5b1461056b57806395d89b411461058e578063a22cb465146105a3578063b88d4fde146105c3578063c4ae3168146105d657600080fd5b80636a61e5fc146104e05780636d3c7ec5146105005780636f2ddd931461052057806370a08231146105355780638bbf58b31461055557600080fd5b806342842e0e116101c757806354fd4d501161018b57806354fd4d501461045d5780635944c753146104735780635c975abb1461049357806360f96a8f146104ab5780636352211e146104c057600080fd5b806342842e0e146103d757806342966c68146103ea5780634472167b1461040a5780634f6ccce71461041d57806351cff8d91461043d57600080fd5b8063158ef93e1161020e578063158ef93e1461032757806318160ddd1461034657806323b872dd146103655780632a55205a146103785780632f745c59146103b757600080fd5b806301ffc9a71461025657806304634d8d1461028b57806306fdde03146102ad578063081812fc146102cf578063095ea7b31461030757600080fd5b3661025157005b600080fd5b34801561026257600080fd5b50610276610271366004612828565b610764565b60405190151581526020015b60405180910390f35b34801561029757600080fd5b506102ab6102a6366004612873565b6107a9565b005b3480156102b957600080fd5b506102c26108a9565b60405161028291906128f3565b3480156102db57600080fd5b506102ef6102ea366004612906565b61093b565b6040516001600160a01b039091168152602001610282565b34801561031357600080fd5b506102ab61032236600461291f565b6109ae565b34801561033357600080fd5b5060115461027690610100900460ff1681565b34801561035257600080fd5b506008545b604051908152602001610282565b6102ab610373366004612949565b610a72565b34801561038457600080fd5b50610398610393366004612985565b610a82565b604080516001600160a01b039093168352602083019190915201610282565b3480156103c357600080fd5b506103576103d236600461291f565b610b50565b6102ab6103e5366004612949565b610bd7565b3480156103f657600080fd5b506102ab610405366004612906565b610bf2565b610357610418366004612a66565b610c26565b34801561042957600080fd5b50610357610438366004612906565b610d16565b34801561044957600080fd5b506102ab610458366004612adf565b610d80565b34801561046957600080fd5b5061035760135481565b34801561047f57600080fd5b506102ab61048e366004612afa565b610fb2565b34801561049f57600080fd5b5060115460ff16610276565b3480156104b757600080fd5b506102ef611042565b3480156104cc57600080fd5b506102ef6104db366004612906565b61108b565b3480156104ec57600080fd5b506102ab6104fb366004612906565b6110e8565b34801561050c57600080fd5b506102ab61051b366004612906565b6110f4565b34801561052c57600080fd5b506102c2611184565b34801561054157600080fd5b50610357610550366004612adf565b611212565b34801561056157600080fd5b5061035760145481565b34801561057757600080fd5b50600c5461010090046001600160a01b03166102ef565b34801561059a57600080fd5b506102c261127d565b3480156105af57600080fd5b506102ab6105be366004612b44565b61128c565b6102ab6105d1366004612b7b565b6112f8565b3480156105e257600080fd5b506102ab611356565b3480156105f757600080fd5b506102c2610606366004612906565b611397565b34801561061757600080fd5b50610357610626366004612bf7565b611439565b34801561063757600080fd5b50610357610646366004612906565b600f6020526000908152604090205481565b34801561066457600080fd5b50610357610673366004612c45565b6114b7565b6102ab610686366004612906565b6114c8565b34801561069757600080fd5b5061035760105481565b3480156106ad57600080fd5b506102ab6106bc366004612c7a565b6116aa565b3480156106cd57600080fd5b506102766106dc366004612daf565b6001600160a01b03918216600090815260036020908152604080832093909416825291909152205460ff1690565b34801561071657600080fd5b506102ab610725366004612985565b611705565b34801561073657600080fd5b506102ab610745366004612adf565b61175a565b34801561075657600080fd5b506015546102769060ff1681565b60006001600160e01b031982166330323f1960e01b148061079457506001600160e01b0319821662f7235960e21b145b806107a357506107a382611792565b92915050565b600c5461010090046001600160a01b031633146107e15760405162461bcd60e51b81526004016107d890612dd9565b60405180910390fd5b6001600160601b0381166127108111156108385760405162461bcd60e51b8152602060048201526018602482015277526f79616c7479206665652065786365656420707269636560401b60448201526064016107d8565b6040805180820182526001600160a01b0385168082526001600160601b0385166020928301819052600160a01b81028217600d558351918252918101919091527fa1edde4ed5c1392c90dccd8e051a4080b761850e49a24c77d826348a51e1f8dc91015b60405180910390a1505050565b6060600580546108b890612dfc565b80601f01602080910402602001604051908101604052809291908181526020018280546108e490612dfc565b80156109315780601f1061090657610100808354040283529160200191610931565b820191906000526020600020905b81548152906001019060200180831161091457829003601f168201915b5050505050905090565b6000818152602081905260408120546001600160a01b03166109925760405162461bcd60e51b815260206004820152601060248201526f125b9d985b1a59081d1bdad95b88125160821b60448201526064016107d8565b506000908152600260205260409020546001600160a01b031690565b6109b833826117b7565b610a045760405162461bcd60e51b815260206004820152601c60248201527f4e6f7420746f6b656e206f776e6572206e6f72206f70657261746f720000000060448201526064016107d8565b600081815260026020526040902080546001600160a01b0319166001600160a01b0384169081179091558190610a398261108b565b6001600160a01b03167f8c5be1e5ebec7d5bd14f71427d1e84f3dd0314c0f7b2291e5b200ac8c7c3b92560405160405180910390a45050565b610a7d838383611812565b505050565b60008082600160801b8110610aa95760405162461bcd60e51b81526004016107d890612e37565b6000858152600e60209081526040918290208251808401909352546001600160a01b038116808452600160a01b9091046001600160601b031691830191909152610b1d575060408051808201909152600d546001600160a01b0381168252600160a01b90046001600160601b031660208201525b602081015161271090610b39906001600160601b031687612e74565b610b439190612e93565b9051969095509350505050565b6000610b5b83611212565b8210610b9a5760405162461bcd60e51b815260206004820152600e60248201526d496e76616c696420696e6465782160901b60448201526064016107d8565b6001600160a01b0383166000908152600960205260409020805483908110610bc457610bc4612eb5565b9060005260206000200154905092915050565b610a7d83838360405180602001604052806000815250611a48565b80610bfd3382611aa0565b610c195760405162461bcd60e51b81526004016107d890612ecb565b610c2282611ad7565b5050565b60155460009060ff1680610c4a5750600c546001600160a01b036101009091041633145b610c835760405162461bcd60e51b815260206004820152600a6024820152692737ba1036b4b73a32b960b11b60448201526064016107d8565b60115460ff1615610cc05760405162461bcd60e51b81526020600482015260076024820152665061757365642160c81b60448201526064016107d8565b610cca8686611439565b90508315610cdc57610cdc8185611705565b6001600160a01b03831615801590610cfd57506000826001600160601b0316115b15610d0d57610d0d818484610fb2565b95945050505050565b6008546000908210610d5b5760405162461bcd60e51b815260206004820152600e60248201526d496e76616c696420696e6465782160901b60448201526064016107d8565b60088281548110610d6e57610d6e612eb5565b90600052602060002001549050919050565b600c5461010090046001600160a01b03163314610daf5760405162461bcd60e51b81526004016107d890612dd9565b6001600160a01b0381163b15801590610e4157506040516301ffc9a760e01b81526336372b0760e01b60048201526001600160a01b038216906301ffc9a79060240160206040518083038186803b158015610e0957600080fd5b505afa158015610e1d573d6000803e3d6000fd5b505050506040513d601f19601f82011682018060405250810190610e419190612f02565b15610f86576040516370a0823160e01b81523060048201526001600160a01b0382169063a9059cbb90339083906370a082319060240160206040518083038186803b158015610e8f57600080fd5b505afa158015610ea3573d6000803e3d6000fd5b505050506040513d601f19601f82011682018060405250810190610ec79190612f1f565b6040516001600160e01b031960e085901b1681526001600160a01b0390921660048301526024820152604401602060405180830381600087803b158015610f0d57600080fd5b505af1158015610f21573d6000803e3d6000fd5b505050506040513d601f19601f82011682018060405250810190610f459190612f02565b610f835760405162461bcd60e51b815260206004820152600f60248201526e15da5d1a191c985dc819985a5b1959608a1b60448201526064016107d8565b50565b60405133904780156108fc02916000818181858888f19350505050158015610c22573d6000803e3d6000fd5b82610fbd3382611aa0565b610fd95760405162461bcd60e51b81526004016107d890612ecb565b6001600160601b0382166127108111156110305760405162461bcd60e51b8152602060048201526018602482015277526f79616c7479206665652065786365656420707269636560401b60448201526064016107d8565b61103b858585611ae0565b5050505050565b6000602d303b146110535750600090565b6010306001600160a01b0316803b806020016040519081016040528181526000908060200190933c61108490612f38565b901c905090565b6000818152602081905260409020546001600160a01b0316806110e35760405162461bcd60e51b815260206004820152601060248201526f125b9d985b1a59081d1bdad95b88125160821b60448201526064016107d8565b919050565b610f8381601054611705565b600c5461010090046001600160a01b031633146111235760405162461bcd60e51b81526004016107d890612dd9565b80600160801b81106111475760405162461bcd60e51b81526004016107d890612e37565b60108290556040518281527f9f7a6492db3843bc01c0adb23cd27be964155c1d45c566f2ee32f28faf4eb605906020015b60405180910390a15050565b6012805461119190612dfc565b80601f01602080910402602001604051908101604052809291908181526020018280546111bd90612dfc565b801561120a5780601f106111df5761010080835404028352916020019161120a565b820191906000526020600020905b8154815290600101906020018083116111ed57829003601f168201915b505050505081565b60006001600160a01b0382166112615760405162461bcd60e51b8152602060048201526014602482015273496e76616c6964207a65726f206164647265737360601b60448201526064016107d8565b506001600160a01b031660009081526001602052604090205490565b6060600680546108b890612dfc565b3360008181526003602090815260408083206001600160a01b03871680855290835292819020805460ff191686151590811790915590519081529192917f17307eab39ab6107e8899845ad3d59bd9653f200f220920489ca2b5937696c31910160405180910390a35050565b611303848484611812565b61130f84848484611b65565b6113505760405162461bcd60e51b8152602060048201526012602482015271139bdd08115490cdcc8c549958d95a5d995960721b60448201526064016107d8565b50505050565b600c5461010090046001600160a01b031633146113855760405162461bcd60e51b81526004016107d890612dd9565b6011546113959060ff1615611c13565b565b60008181526007602052604090208054606091906113b490612dfc565b80601f01602080910402602001604051908101604052809291908181526020018280546113e090612dfc565b801561142d5780601f106114025761010080835404028352916020019161142d565b820191906000526020600020905b81548152906001019060200180831161141057829003601f168201915b50505050509050919050565b60155460009060ff168061145d5750600c546001600160a01b036101009091041633145b6114965760405162461bcd60e51b815260206004820152600a6024820152692737ba1036b4b73a32b960b11b60448201526064016107d8565b601480549060006114a683612f5c565b9190505590506107a3838383611c58565b60006107a333836000806000610c26565b6000818152602081905260409020546001600160a01b03166115215760405162461bcd60e51b81526020600482015260126024820152714e465420646f65736e27742065786973747360701b60448201526064016107d8565b6000818152600f60205260409020548061156b5760405162461bcd60e51b815260206004820152600b60248201526a139bdd081d1bc81cd95b1b60aa1b60448201526064016107d8565b803410156115ae5760405162461bcd60e51b815260206004820152601060248201526f4e6f7420656e6f7567682066756e647360801b60448201526064016107d8565b60006115b98361108b565b90506001600160a01b0381166115d1576115d1612f77565b6001600160a01b0381163314156116215760405162461bcd60e51b8152602060048201526014602482015273416c726561647920746f6b656e206f776e65722160601b60448201526064016107d8565b604051635c46a7ef60e11b81526001600160a01b0382166004820152336024820152604481018490526080606482015260006084820152309063b88d4fde90349060a4016000604051808303818588803b15801561167e57600080fd5b505af1158015611692573d6000803e3d6000fd5b50505060009485525050600f60205250506040812055565b6116b5878787611c63565b806000815181106116c8576116c8612eb5565b6020026020010151601560006101000a81548160ff0219169083151502179055506116f2846110f4565b6116fc83836107a9565b50505050505050565b816117103382611aa0565b61172c5760405162461bcd60e51b81526004016107d890612ecb565b81600160801b81106117505760405162461bcd60e51b81526004016107d890612e37565b6113508484611ca1565b600c5461010090046001600160a01b031633146117895760405162461bcd60e51b81526004016107d890612dd9565b610f8381611ce9565b60006001600160e01b03198216630c38761960e41b14806107a357506107a382611d43565b6000806117c38361108b565b9050836001600160a01b0316816001600160a01b0316148061180a57506001600160a01b0380821660009081526003602090815260408083209388168352929052205460ff165b949350505050565b8061181d3382611aa0565b6118395760405162461bcd60e51b81526004016107d890612ecb565b6118428261108b565b6001600160a01b0316846001600160a01b0316146118935760405162461bcd60e51b815260206004820152600e60248201526d233937b6903737ba1037bbb732b960911b60448201526064016107d8565b6001600160a01b0384166118e95760405162461bcd60e51b815260206004820152601a60248201527f5472616e736665722066726f6d207a65726f206164647265737300000000000060448201526064016107d8565b6001600160a01b03831661193f5760405162461bcd60e51b815260206004820152601860248201527f5472616e7366657220746f207a65726f2061646472657373000000000000000060448201526064016107d8565b61194a848484611d68565b600082815260026020526040902080546001600160a01b03191690556001600160a01b0384811690841614611a01576001600160a01b038416600090815260016020819052604082208054919290916119a4908490612f8d565b90915550506001600160a01b038316600090815260016020819052604082208054919290916119d4908490612fa4565b9091555050600082815260208190526040902080546001600160a01b0319166001600160a01b0385161790555b81836001600160a01b0316856001600160a01b03167fddf252ad1be2c89b69c2b068fc378daa952ba7f163c4a11628f55a4df523b3ef60405160405180910390a450505050565b611a53848484611812565b611a5f84848484611b65565b6113505760405162461bcd60e51b81526020600482015260126024820152712737ba1022a9219b9918a932b1b2b4bb32b960711b60448201526064016107d8565b6000611aac83836117b7565b80611ad05750826001600160a01b0316611ac58361093b565b6001600160a01b0316145b9392505050565b610f8381611d73565b6040805180820182526001600160a01b038481168083526001600160601b03858116602080860182815260008b8152600e835288902096519051909316600160a01b029290941691909117909355835187815291820152918201527f2595213009f64247e2789cf9981bcc53ee736a6aa52042a651aa1549ae6fff619060600161089c565b60006001600160a01b0384163b1580610d0d5750604051630a85bd0160e11b808252906001600160a01b0386169063150b7a0290611bad9033908a9089908990600401612fbc565b602060405180830381600087803b158015611bc757600080fd5b505af1158015611bdb573d6000803e3d6000fd5b505050506040513d601f19601f82011682018060405250810190611bff9190612ff9565b6001600160e01b0319161495945050505050565b6011805460ff1916821515908117909155604051339160ff161515907f8b265f737315073a655a642868ed756ba7e3b6c391b06dbbf70370aab7f7f06890600090a350565b610a7d838383611d98565b611c8e604051806040016040528060088152602001674f70656e4e46547360c01b8152506004611dc8565b611c988383611e36565b610a7d81611eaa565b6000828152600f602090815260409182902083905581518481529081018390527f2f8c61aa79deaa9c961d54f640a154df4960a56a5989d25df0148be783dc3f5b9101611178565b600c80546001600160a01b03838116610100818102610100600160a81b031985161790945560405193909204169182907f8be0079c531659141344cd1fd0a4f28419497f9722a3daafe3b4186f6b6457e090600090a35050565b60006001600160e01b03198216632e5e69fd60e01b14806107a357506107a382611f07565b610a7d838383611f2c565b6000818152600e60209081526040808320839055600f909152812055610f8381611f65565b611da3838383612030565b610a7d8160105485611dc3600c546001600160a01b036101009091041690565b612089565b601154610100900460ff1615611e0d5760405162461bcd60e51b815260206004820152600a6024820152694f6e6c79206f6e63652160b01b60448201526064016107d8565b6011805461ff0019166101001790558151611e2f906012906020850190612743565b5060135550565b60045460ff1615611e765760405162461bcd60e51b815260206004820152600a6024820152694f6e6c79206f6e63652160b01b60448201526064016107d8565b6004805460ff191660011790558151611e96906005906020850190612743565b508051610a7d906006906020840190612743565b600c5460ff1615611ef15760405162461bcd60e51b8152602060048201526011602482015270125b9a5d08185b1c9958591e4818d85b1b607a1b60448201526064016107d8565b600c805460ff19166001179055610f8381611ce9565b60006001600160e01b031982166398396bd360e01b14806107a357506107a382612262565b6000818152600f6020526040902054611f4b90829084611dc38361108b565b6000818152600f6020526040812055610a7d838383612287565b6000611f708261108b565b9050611f7c818361229b565b6000828152600b6020526040812054600854909190611f9d90600190612f8d565b9050600060088281548110611fb457611fb4612eb5565b6000918252602080832090910154808352600b909152604080832086905587835282209190915560088054919250829185908110611ff457611ff4612eb5565b600091825260209091200155600880548061201157612011613016565b6001900381819060005260206000200160009055905561103b856123a9565b61203a83826123c9565b600880546000838152600b60205260408120829055600182018355919091527ff3f7a9fe364faab93b216da50a3214154f22a0a2b415b23a84c8169e8b636ee301819055610a7d838383612407565b34831561221e57838110156120d35760405162461bcd60e51b815260206004820152601060248201526f4e6f7420656e6f7567682066756e647360801b60448201526064016107d8565b6000806120e08787610a82565b91509150858111156121285760405162461bcd60e51b8152602060048201526011602482015270496e76616c696420726f79616c7469657360781b60448201526064016107d8565b60006121348288612f8d565b90508015612180576040516001600160a01b0386169082156108fc029083906000818181858888f19350505050158015612172573d6000803e3d6000fd5b5061217d8185612f8d565b93505b81156121ca576040516001600160a01b0384169083156108fc029084906000818181858888f193505050501580156121bc573d6000803e3d6000fd5b506121c78285612f8d565b93505b60408051898152602081018990526001600160a01b03888116828401528716606082015290517f3914c8962f5e7241220aedc853d15ae456e87f9f156489c7d0d1f682e69f98ce9181900360800190a15050505b801561103b576040516001600160a01b0384169082156108fc029083906000818181858888f1935050505015801561225a573d6000803e3d6000fd5b505050505050565b60006001600160e01b03198216638351879960e01b14806107a357506107a382612432565b612291838261229b565b610a7d82826123c9565b6000818152600a60205260408120549060016122b685611212565b6122c09190612f8d565b9050808214612357576001600160a01b03841660009081526009602052604081208054839081106122f3576122f3612eb5565b906000526020600020015490508060096000876001600160a01b03166001600160a01b03168152602001908152602001600020848154811061233757612337612eb5565b6000918252602080832090910192909255918252600a9052604090208290555b6000838152600a602090815260408083208390556001600160a01b03871683526009909152902080548061238d5761238d613016565b6001900381819060005260206000200160009055905550505050565b60008181526007602052604081206123c0916127c7565b610f8381612457565b6001600160a01b0390911660009081526009602081815260408084208054868652600a84529185208290559282526001810183559183529091200155565b6000818152600760209081526040909120835161242692850190612743565b50610a7d838383612523565b600063152a902d60e11b6001600160e01b0319831614806107a357506107a3826126ae565b60006124628261108b565b6001600160a01b03811660009081526001602052604090205490915061248a5761248a612f77565b6001600160a01b038116600090815260016020819052604082208054919290916124b5908490612f8d565b9091555050600082815260026020908152604080832080546001600160a01b0319908116909155918390528083208054909216909155518391906001600160a01b038416907fddf252ad1be2c89b69c2b068fc378daa952ba7f163c4a11628f55a4df523b3ef908390a45050565b6001600160a01b0383166125705760405162461bcd60e51b81526020600482015260146024820152734d696e7420746f207a65726f206164647265737360601b60448201526064016107d8565b6000818152602081905260409020546001600160a01b0316156125cc5760405162461bcd60e51b8152602060048201526014602482015273151bdad95b88185b1c9958591e481b5a5b9d195960621b60448201526064016107d8565b6001600160a01b038316600090815260016020819052604082208054919290916125f7908490612fa4565b909155505060008181526020819052604080822080546001600160a01b0319166001600160a01b03871690811790915590518392907fddf252ad1be2c89b69c2b068fc378daa952ba7f163c4a11628f55a4df523b3ef908290a461266d6000848360405180602001604052806000815250611b65565b610a7d5760405162461bcd60e51b8152602060048201526012602482015271139bdd08115490cdcc8c549958d95a5d995960721b60448201526064016107d8565b60006307f5828d60e41b6001600160e01b0319831614806107a357506107a382600063780e9d6360e01b6001600160e01b0319831614806107a357506107a3826000635b5e139f60e01b6001600160e01b0319831614806107a357506107a38260006380ac58cd60e01b6001600160e01b0319831614806107a357506001600160e01b031982166301ffc9a760e01b146107a3565b82805461274f90612dfc565b90600052602060002090601f01602090048101928261277157600085556127b7565b82601f1061278a57805160ff19168380011785556127b7565b828001600101855582156127b7579182015b828111156127b757825182559160200191906001019061279c565b506127c39291506127fd565b5090565b5080546127d390612dfc565b6000825580601f106127e3575050565b601f016020900490600052602060002090810190610f8391905b5b808211156127c357600081556001016127fe565b6001600160e01b031981168114610f8357600080fd5b60006020828403121561283a57600080fd5b8135611ad081612812565b80356001600160a01b03811681146110e357600080fd5b80356001600160601b03811681146110e357600080fd5b6000806040838503121561288657600080fd5b61288f83612845565b915061289d6020840161285c565b90509250929050565b6000815180845260005b818110156128cc576020818501810151868301820152016128b0565b818111156128de576000602083870101525b50601f01601f19169290920160200192915050565b602081526000611ad060208301846128a6565b60006020828403121561291857600080fd5b5035919050565b6000806040838503121561293257600080fd5b61293b83612845565b946020939093013593505050565b60008060006060848603121561295e57600080fd5b61296784612845565b925061297560208501612845565b9150604084013590509250925092565b6000806040838503121561299857600080fd5b50508035926020909101359150565b634e487b7160e01b600052604160045260246000fd5b604051601f8201601f1916810167ffffffffffffffff811182821017156129e6576129e66129a7565b604052919050565b600067ffffffffffffffff831115612a0857612a086129a7565b612a1b601f8401601f19166020016129bd565b9050828152838383011115612a2f57600080fd5b828260208301376000602084830101529392505050565b600082601f830112612a5757600080fd5b611ad0838335602085016129ee565b600080600080600060a08688031215612a7e57600080fd5b612a8786612845565b9450602086013567ffffffffffffffff811115612aa357600080fd5b612aaf88828901612a46565b94505060408601359250612ac560608701612845565b9150612ad36080870161285c565b90509295509295909350565b600060208284031215612af157600080fd5b611ad082612845565b600080600060608486031215612b0f57600080fd5b83359250612b1f60208501612845565b9150612b2d6040850161285c565b90509250925092565b8015158114610f8357600080fd5b60008060408385031215612b5757600080fd5b612b6083612845565b91506020830135612b7081612b36565b809150509250929050565b60008060008060808587031215612b9157600080fd5b612b9a85612845565b9350612ba860208601612845565b925060408501359150606085013567ffffffffffffffff811115612bcb57600080fd5b8501601f81018713612bdc57600080fd5b612beb878235602084016129ee565b91505092959194509250565b60008060408385031215612c0a57600080fd5b612c1383612845565b9150602083013567ffffffffffffffff811115612c2f57600080fd5b612c3b85828601612a46565b9150509250929050565b600060208284031215612c5757600080fd5b813567ffffffffffffffff811115612c6e57600080fd5b61180a84828501612a46565b600080600080600080600060e0888a031215612c9557600080fd5b873567ffffffffffffffff80821115612cad57600080fd5b612cb98b838c01612a46565b985060209150818a013581811115612cd057600080fd5b612cdc8c828d01612a46565b985050612ceb60408b01612845565b965060608a01359550612d0060808b01612845565b9450612d0e60a08b0161285c565b935060c08a013581811115612d2257600080fd5b8a01601f81018c13612d3357600080fd5b803582811115612d4557612d456129a7565b8060051b9250612d568484016129bd565b818152928201840192848101908e851115612d7057600080fd5b928501925b84841015612d9a5783359250612d8a83612b36565b8282529285019290850190612d75565b80965050505050505092959891949750929550565b60008060408385031215612dc257600080fd5b612dcb83612845565b915061289d60208401612845565b6020808252600990820152682737ba1037bbb732b960b91b604082015260600190565b600181811c90821680612e1057607f821691505b60208210811415612e3157634e487b7160e01b600052602260045260246000fd5b50919050565b6020808252600d908201526c546f6f20657870656e7369766560981b604082015260600190565b634e487b7160e01b600052601160045260246000fd5b6000816000190483118215151615612e8e57612e8e612e5e565b500290565b600082612eb057634e487b7160e01b600052601260045260246000fd5b500490565b634e487b7160e01b600052603260045260246000fd5b6020808252601c908201527f4e6f7420746f6b656e206f776e6572206e6f7220617070726f76656400000000604082015260600190565b600060208284031215612f1457600080fd5b8151611ad081612b36565b600060208284031215612f3157600080fd5b5051919050565b80516020808301519190811015612e315760001960209190910360031b1b16919050565b6000600019821415612f7057612f70612e5e565b5060010190565b634e487b7160e01b600052600160045260246000fd5b600082821015612f9f57612f9f612e5e565b500390565b60008219821115612fb757612fb7612e5e565b500190565b6001600160a01b0385811682528416602082015260408101839052608060608201819052600090612fef908301846128a6565b9695505050505050565b60006020828403121561300b57600080fd5b8151611ad081612812565b634e487b7160e01b600052603160045260246000fdfea264697066735822122028c631f1eda1d483e3fb47f988cc1102beea2f541f7461c0fff349dc00c68cb564736f6c63430008090033",
  "devdoc": {
    "kind": "dev",
    "methods": {
      "burn(uint256)": {
        "params": {
          "tokenID": "tokenID of NFT to burn"
        }
      },
      "setDefaultRoyalty(address,uint96)": {
        "params": {
          "fee": ": fee Numerator, less than 10000",
          "receiver": ": address of the royalty receiver, or address(0) to reset"
        }
      },
      "setTokenRoyalty(uint256,address,uint96)": {
        "params": {
          "fee": ": fee Numerator, less than 10000",
          "receiver": ": address of the royalty receiver, or address(0) to reset",
          "tokenID": ": token ID"
        }
      },
      "supportsInterface(bytes4)": {
        "params": {
          "interfaceId": "interfaceId to test"
        }
      }
    },
    "title": "OpenNFTs smartcontract",
    "version": 1
  },
  "userdoc": {
    "kind": "user",
    "methods": {
      "burn(uint256)": {
        "notice": "burn NFT"
      },
      "open()": {
        "notice": "Mint NFT allowed to everyone or only collection owner"
      },
      "setDefaultRoyalty(address,uint96)": {
        "notice": "SET default royalty configuration"
      },
      "setTokenRoyalty(uint256,address,uint96)": {
        "notice": "SET token royalty configuration"
      },
      "supportsInterface(bytes4)": {
        "notice": "test if this interface is supported"
      },
      "tokenIdNext()": {
        "notice": "tokenID of next minted NFT"
      },
      "withdraw(address)": {
        "notice": "withdraw token otherwise eth"
      }
    },
    "version": 1
  },
  "storageLayout": {
    "storage": [
      {
        "astId": 6766,
        "contract": "contracts/next/OpenNFTsV4.sol:OpenNFTsV4",
        "label": "_owners",
        "offset": 0,
        "slot": "0",
        "type": "t_mapping(t_uint256,t_address)"
      },
      {
        "astId": 6770,
        "contract": "contracts/next/OpenNFTsV4.sol:OpenNFTsV4",
        "label": "_balances",
        "offset": 0,
        "slot": "1",
        "type": "t_mapping(t_address,t_uint256)"
      },
      {
        "astId": 6774,
        "contract": "contracts/next/OpenNFTsV4.sol:OpenNFTsV4",
        "label": "_tokenApprovals",
        "offset": 0,
        "slot": "2",
        "type": "t_mapping(t_uint256,t_address)"
      },
      {
        "astId": 6780,
        "contract": "contracts/next/OpenNFTsV4.sol:OpenNFTsV4",
        "label": "_operatorApprovals",
        "offset": 0,
        "slot": "3",
        "type": "t_mapping(t_address,t_mapping(t_address,t_bool))"
      },
      {
        "astId": 7697,
        "contract": "contracts/next/OpenNFTsV4.sol:OpenNFTsV4",
        "label": "_openERC721MetadataInitialized",
        "offset": 0,
        "slot": "4",
        "type": "t_bool"
      },
      {
        "astId": 7699,
        "contract": "contracts/next/OpenNFTsV4.sol:OpenNFTsV4",
        "label": "_name",
        "offset": 0,
        "slot": "5",
        "type": "t_string_storage"
      },
      {
        "astId": 7701,
        "contract": "contracts/next/OpenNFTsV4.sol:OpenNFTsV4",
        "label": "_symbol",
        "offset": 0,
        "slot": "6",
        "type": "t_string_storage"
      },
      {
        "astId": 7705,
        "contract": "contracts/next/OpenNFTsV4.sol:OpenNFTsV4",
        "label": "_tokenURIs",
        "offset": 0,
        "slot": "7",
        "type": "t_mapping(t_uint256,t_string_storage)"
      },
      {
        "astId": 7374,
        "contract": "contracts/next/OpenNFTsV4.sol:OpenNFTsV4",
        "label": "_allTokens",
        "offset": 0,
        "slot": "8",
        "type": "t_array(t_uint256)dyn_storage"
      },
      {
        "astId": 7379,
        "contract": "contracts/next/OpenNFTsV4.sol:OpenNFTsV4",
        "label": "_ownedTokens",
        "offset": 0,
        "slot": "9",
        "type": "t_mapping(t_address,t_array(t_uint256)dyn_storage)"
      },
      {
        "astId": 7383,
        "contract": "contracts/next/OpenNFTsV4.sol:OpenNFTsV4",
        "label": "_ownedTokensIndex",
        "offset": 0,
        "slot": "10",
        "type": "t_mapping(t_uint256,t_uint256)"
      },
      {
        "astId": 7387,
        "contract": "contracts/next/OpenNFTsV4.sol:OpenNFTsV4",
        "label": "_allTokensIndex",
        "offset": 0,
        "slot": "11",
        "type": "t_mapping(t_uint256,t_uint256)"
      },
      {
        "astId": 6531,
        "contract": "contracts/next/OpenNFTsV4.sol:OpenNFTsV4",
        "label": "_openERC173Initialized",
        "offset": 0,
        "slot": "12",
        "type": "t_bool"
      },
      {
        "astId": 6533,
        "contract": "contracts/next/OpenNFTsV4.sol:OpenNFTsV4",
        "label": "_owner",
        "offset": 1,
        "slot": "12",
        "type": "t_address"
      },
      {
        "astId": 6645,
        "contract": "contracts/next/OpenNFTsV4.sol:OpenNFTsV4",
        "label": "_royaltyInfo",
        "offset": 0,
        "slot": "13",
        "type": "t_struct(RoyaltyInfo)6642_storage"
      },
      {
        "astId": 6650,
        "contract": "contracts/next/OpenNFTsV4.sol:OpenNFTsV4",
        "label": "_tokenRoyaltyInfo",
        "offset": 0,
        "slot": "14",
        "type": "t_mapping(t_uint256,t_struct(RoyaltyInfo)6642_storage)"
      },
      {
        "astId": 7942,
        "contract": "contracts/next/OpenNFTsV4.sol:OpenNFTsV4",
        "label": "tokenPrice",
        "offset": 0,
        "slot": "15",
        "type": "t_mapping(t_uint256,t_uint256)"
      },
      {
        "astId": 7944,
        "contract": "contracts/next/OpenNFTsV4.sol:OpenNFTsV4",
        "label": "defaultPrice",
        "offset": 0,
        "slot": "16",
        "type": "t_uint256"
      },
      {
        "astId": 8599,
        "contract": "contracts/next/OpenNFTsV4.sol:OpenNFTsV4",
        "label": "_paused",
        "offset": 0,
        "slot": "17",
        "type": "t_bool"
      },
      {
        "astId": 7870,
        "contract": "contracts/next/OpenNFTsV4.sol:OpenNFTsV4",
        "label": "initialized",
        "offset": 1,
        "slot": "17",
        "type": "t_bool"
      },
      {
        "astId": 7872,
        "contract": "contracts/next/OpenNFTsV4.sol:OpenNFTsV4",
        "label": "template",
        "offset": 0,
        "slot": "18",
        "type": "t_string_storage"
      },
      {
        "astId": 7874,
        "contract": "contracts/next/OpenNFTsV4.sol:OpenNFTsV4",
        "label": "version",
        "offset": 0,
        "slot": "19",
        "type": "t_uint256"
      },
      {
        "astId": 8350,
        "contract": "contracts/next/OpenNFTsV4.sol:OpenNFTsV4",
        "label": "tokenIdNext",
        "offset": 0,
        "slot": "20",
        "type": "t_uint256"
      },
      {
        "astId": 20447,
        "contract": "contracts/next/OpenNFTsV4.sol:OpenNFTsV4",
        "label": "open",
        "offset": 0,
        "slot": "21",
        "type": "t_bool"
      }
    ],
    "types": {
      "t_address": {
        "encoding": "inplace",
        "label": "address",
        "numberOfBytes": "20"
      },
      "t_array(t_uint256)dyn_storage": {
        "base": "t_uint256",
        "encoding": "dynamic_array",
        "label": "uint256[]",
        "numberOfBytes": "32"
      },
      "t_bool": {
        "encoding": "inplace",
        "label": "bool",
        "numberOfBytes": "1"
      },
      "t_mapping(t_address,t_array(t_uint256)dyn_storage)": {
        "encoding": "mapping",
        "key": "t_address",
        "label": "mapping(address => uint256[])",
        "numberOfBytes": "32",
        "value": "t_array(t_uint256)dyn_storage"
      },
      "t_mapping(t_address,t_bool)": {
        "encoding": "mapping",
        "key": "t_address",
        "label": "mapping(address => bool)",
        "numberOfBytes": "32",
        "value": "t_bool"
      },
      "t_mapping(t_address,t_mapping(t_address,t_bool))": {
        "encoding": "mapping",
        "key": "t_address",
        "label": "mapping(address => mapping(address => bool))",
        "numberOfBytes": "32",
        "value": "t_mapping(t_address,t_bool)"
      },
      "t_mapping(t_address,t_uint256)": {
        "encoding": "mapping",
        "key": "t_address",
        "label": "mapping(address => uint256)",
        "numberOfBytes": "32",
        "value": "t_uint256"
      },
      "t_mapping(t_uint256,t_address)": {
        "encoding": "mapping",
        "key": "t_uint256",
        "label": "mapping(uint256 => address)",
        "numberOfBytes": "32",
        "value": "t_address"
      },
      "t_mapping(t_uint256,t_string_storage)": {
        "encoding": "mapping",
        "key": "t_uint256",
        "label": "mapping(uint256 => string)",
        "numberOfBytes": "32",
        "value": "t_string_storage"
      },
      "t_mapping(t_uint256,t_struct(RoyaltyInfo)6642_storage)": {
        "encoding": "mapping",
        "key": "t_uint256",
        "label": "mapping(uint256 => struct OpenERC2981.RoyaltyInfo)",
        "numberOfBytes": "32",
        "value": "t_struct(RoyaltyInfo)6642_storage"
      },
      "t_mapping(t_uint256,t_uint256)": {
        "encoding": "mapping",
        "key": "t_uint256",
        "label": "mapping(uint256 => uint256)",
        "numberOfBytes": "32",
        "value": "t_uint256"
      },
      "t_string_storage": {
        "encoding": "bytes",
        "label": "string",
        "numberOfBytes": "32"
      },
      "t_struct(RoyaltyInfo)6642_storage": {
        "encoding": "inplace",
        "label": "struct OpenERC2981.RoyaltyInfo",
        "members": [
          {
            "astId": 6639,
            "contract": "contracts/next/OpenNFTsV4.sol:OpenNFTsV4",
            "label": "receiver",
            "offset": 0,
            "slot": "0",
            "type": "t_address"
          },
          {
            "astId": 6641,
            "contract": "contracts/next/OpenNFTsV4.sol:OpenNFTsV4",
            "label": "fraction",
            "offset": 20,
            "slot": "0",
            "type": "t_uint96"
          }
        ],
        "numberOfBytes": "32"
      },
      "t_uint256": {
        "encoding": "inplace",
        "label": "uint256",
        "numberOfBytes": "32"
      },
      "t_uint96": {
        "encoding": "inplace",
        "label": "uint96",
        "numberOfBytes": "12"
      }
    }
  }
}