{
  "address": "0x134932A01f76dFD2b35a9D84bbB7bA9553080Bb1",
  "abi": [
    {
      "anonymous": false,
      "inputs": [
        {
          "indexed": true,
          "internalType": "address",
          "name": "owner",
          "type": "address"
        },
        {
          "indexed": true,
          "internalType": "address",
          "name": "approved",
          "type": "address"
        },
        {
          "indexed": true,
          "internalType": "uint256",
          "name": "tokenId",
          "type": "uint256"
        }
      ],
      "name": "Approval",
      "type": "event"
    },
    {
      "anonymous": false,
      "inputs": [
        {
          "indexed": true,
          "internalType": "address",
          "name": "owner",
          "type": "address"
        },
        {
          "indexed": true,
          "internalType": "address",
          "name": "operator",
          "type": "address"
        },
        {
          "indexed": false,
          "internalType": "bool",
          "name": "approved",
          "type": "bool"
        }
      ],
      "name": "ApprovalForAll",
      "type": "event"
    },
    {
      "anonymous": false,
      "inputs": [
        {
          "indexed": true,
          "internalType": "address",
          "name": "previousOwner",
          "type": "address"
        },
        {
          "indexed": true,
          "internalType": "address",
          "name": "newOwner",
          "type": "address"
        }
      ],
      "name": "OwnershipTransferred",
      "type": "event"
    },
    {
      "anonymous": false,
      "inputs": [
        {
          "indexed": true,
          "internalType": "address",
          "name": "from",
          "type": "address"
        },
        {
          "indexed": true,
          "internalType": "address",
          "name": "to",
          "type": "address"
        },
        {
          "indexed": true,
          "internalType": "uint256",
          "name": "tokenId",
          "type": "uint256"
        }
      ],
      "name": "Transfer",
      "type": "event"
    },
    {
      "inputs": [
        {
          "internalType": "address",
          "name": "to",
          "type": "address"
        },
        {
          "internalType": "uint256",
          "name": "tokenId",
          "type": "uint256"
        }
      ],
      "name": "approve",
      "outputs": [],
      "stateMutability": "nonpayable",
      "type": "function"
    },
    {
      "inputs": [
        {
          "internalType": "address",
          "name": "owner",
          "type": "address"
        }
      ],
      "name": "balanceOf",
      "outputs": [
        {
          "internalType": "uint256",
          "name": "",
          "type": "uint256"
        }
      ],
      "stateMutability": "view",
      "type": "function"
    },
    {
      "inputs": [
        {
          "internalType": "uint256",
          "name": "tokenId",
          "type": "uint256"
        }
      ],
      "name": "burnOpenNFT",
      "outputs": [],
      "stateMutability": "nonpayable",
      "type": "function"
    },
    {
      "inputs": [],
      "name": "burnable",
      "outputs": [
        {
          "internalType": "bool",
          "name": "",
          "type": "bool"
        }
      ],
      "stateMutability": "view",
      "type": "function"
    },
    {
      "inputs": [
        {
          "internalType": "uint256",
          "name": "tokenId",
          "type": "uint256"
        }
      ],
      "name": "getApproved",
      "outputs": [
        {
          "internalType": "address",
          "name": "",
          "type": "address"
        }
      ],
      "stateMutability": "view",
      "type": "function"
    },
    {
      "inputs": [
        {
          "internalType": "string",
          "name": "name",
          "type": "string"
        },
        {
          "internalType": "string",
          "name": "symbol",
          "type": "string"
        },
        {
          "internalType": "address",
          "name": "owner",
          "type": "address"
        },
        {
          "internalType": "bool[]",
          "name": "options",
          "type": "bool[]"
        }
      ],
      "name": "initialize",
      "outputs": [],
      "stateMutability": "nonpayable",
      "type": "function"
    },
    {
      "inputs": [
        {
          "internalType": "address",
          "name": "owner",
          "type": "address"
        },
        {
          "internalType": "address",
          "name": "operator",
          "type": "address"
        }
      ],
      "name": "isApprovedForAll",
      "outputs": [
        {
          "internalType": "bool",
          "name": "",
          "type": "bool"
        }
      ],
      "stateMutability": "view",
      "type": "function"
    },
    {
      "inputs": [
        {
          "internalType": "address",
          "name": "minter",
          "type": "address"
        },
        {
          "internalType": "string",
          "name": "jsonURI",
          "type": "string"
        }
      ],
      "name": "mintOpenNFT",
      "outputs": [
        {
          "internalType": "uint256",
          "name": "",
          "type": "uint256"
        }
      ],
      "stateMutability": "nonpayable",
      "type": "function"
    },
    {
      "inputs": [],
      "name": "name",
      "outputs": [
        {
          "internalType": "string",
          "name": "",
          "type": "string"
        }
      ],
      "stateMutability": "view",
      "type": "function"
    },
    {
      "inputs": [],
      "name": "open",
      "outputs": [
        {
          "internalType": "bool",
          "name": "",
          "type": "bool"
        }
      ],
      "stateMutability": "view",
      "type": "function"
    },
    {
      "inputs": [],
      "name": "owner",
      "outputs": [
        {
          "internalType": "address",
          "name": "",
          "type": "address"
        }
      ],
      "stateMutability": "view",
      "type": "function"
    },
    {
      "inputs": [
        {
          "internalType": "uint256",
          "name": "tokenId",
          "type": "uint256"
        }
      ],
      "name": "ownerOf",
      "outputs": [
        {
          "internalType": "address",
          "name": "",
          "type": "address"
        }
      ],
      "stateMutability": "view",
      "type": "function"
    },
    {
      "inputs": [],
      "name": "renounceOwnership",
      "outputs": [],
      "stateMutability": "nonpayable",
      "type": "function"
    },
    {
      "inputs": [
        {
          "internalType": "address",
          "name": "from",
          "type": "address"
        },
        {
          "internalType": "address",
          "name": "to",
          "type": "address"
        },
        {
          "internalType": "uint256",
          "name": "tokenId",
          "type": "uint256"
        }
      ],
      "name": "safeTransferFrom",
      "outputs": [],
      "stateMutability": "nonpayable",
      "type": "function"
    },
    {
      "inputs": [
        {
          "internalType": "address",
          "name": "from",
          "type": "address"
        },
        {
          "internalType": "address",
          "name": "to",
          "type": "address"
        },
        {
          "internalType": "uint256",
          "name": "tokenId",
          "type": "uint256"
        },
        {
          "internalType": "bytes",
          "name": "_data",
          "type": "bytes"
        }
      ],
      "name": "safeTransferFrom",
      "outputs": [],
      "stateMutability": "nonpayable",
      "type": "function"
    },
    {
      "inputs": [
        {
          "internalType": "address",
          "name": "operator",
          "type": "address"
        },
        {
          "internalType": "bool",
          "name": "approved",
          "type": "bool"
        }
      ],
      "name": "setApprovalForAll",
      "outputs": [],
      "stateMutability": "nonpayable",
      "type": "function"
    },
    {
      "inputs": [
        {
          "internalType": "bytes4",
          "name": "interfaceId",
          "type": "bytes4"
        }
      ],
      "name": "supportsInterface",
      "outputs": [
        {
          "internalType": "bool",
          "name": "",
          "type": "bool"
        }
      ],
      "stateMutability": "view",
      "type": "function"
    },
    {
      "inputs": [],
      "name": "symbol",
      "outputs": [
        {
          "internalType": "string",
          "name": "",
          "type": "string"
        }
      ],
      "stateMutability": "view",
      "type": "function"
    },
    {
      "inputs": [
        {
          "internalType": "uint256",
          "name": "index",
          "type": "uint256"
        }
      ],
      "name": "tokenByIndex",
      "outputs": [
        {
          "internalType": "uint256",
          "name": "",
          "type": "uint256"
        }
      ],
      "stateMutability": "view",
      "type": "function"
    },
    {
      "inputs": [
        {
          "internalType": "address",
          "name": "owner",
          "type": "address"
        },
        {
          "internalType": "uint256",
          "name": "index",
          "type": "uint256"
        }
      ],
      "name": "tokenOfOwnerByIndex",
      "outputs": [
        {
          "internalType": "uint256",
          "name": "",
          "type": "uint256"
        }
      ],
      "stateMutability": "view",
      "type": "function"
    },
    {
      "inputs": [
        {
          "internalType": "uint256",
          "name": "tokenId",
          "type": "uint256"
        }
      ],
      "name": "tokenURI",
      "outputs": [
        {
          "internalType": "string",
          "name": "tokenURI_",
          "type": "string"
        }
      ],
      "stateMutability": "view",
      "type": "function"
    },
    {
      "inputs": [],
      "name": "totalSupply",
      "outputs": [
        {
          "internalType": "uint256",
          "name": "",
          "type": "uint256"
        }
      ],
      "stateMutability": "view",
      "type": "function"
    },
    {
      "inputs": [
        {
          "internalType": "address",
          "name": "from",
          "type": "address"
        },
        {
          "internalType": "address",
          "name": "to",
          "type": "address"
        },
        {
          "internalType": "uint256",
          "name": "tokenId",
          "type": "uint256"
        }
      ],
      "name": "transferFrom",
      "outputs": [],
      "stateMutability": "nonpayable",
      "type": "function"
    },
    {
      "inputs": [
        {
          "internalType": "address",
          "name": "newOwner",
          "type": "address"
        }
      ],
      "name": "transferOwnership",
      "outputs": [],
      "stateMutability": "nonpayable",
      "type": "function"
    }
  ],
  "transactionHash": "0xe21bffba844a77ecf1808d56793116119fe032b2fd61b795f6e7b838dce67b79",
  "args": [],
  "numDeployments": 1,
  "solcInputHash": "5ddfd5463b03e204f7d8070ff8a8f1ab",
  "bytecode": "0x608060405234801561001057600080fd5b5061239f806100206000396000f3fe608060405234801561001057600080fd5b50600436106101585760003560e01c806370a08231116100c3578063a22cb4651161007c578063a22cb465146102cb578063b88d4fde146102de578063c87b56dd146102f1578063e985e9c514610304578063f2fde38b14610340578063fcfff16f1461035357600080fd5b806370a0823114610271578063715018a614610284578063729313851461028c5780638da5cb5b1461029f57806395d89b41146102b0578063a07c7ce4146102b857600080fd5b806325ae95a91161011557806325ae95a9146101ff5780632f745c591461021257806342842e0e146102255780634f6ccce71461023857806354e10b481461024b5780636352211e1461025e57600080fd5b806301ffc9a71461015d57806306fdde0314610185578063081812fc1461019a578063095ea7b3146101c557806318160ddd146101da57806323b872dd146101ec575b600080fd5b61017061016b366004611cb6565b610361565b60405190151581526020015b60405180910390f35b61018d6103c1565b60405161017c9190611d2b565b6101ad6101a8366004611d3e565b610453565b6040516001600160a01b03909116815260200161017c565b6101d86101d3366004611d73565b6104e0565b005b6099545b60405190815260200161017c565b6101d86101fa366004611d9d565b6105f6565b6101de61020d366004611e98565b610627565b6101de610220366004611d73565b6106b7565b6101d8610233366004611d9d565b61074d565b6101de610246366004611d3e565b610768565b6101d8610259366004611ef6565b6107fb565b6101ad61026c366004611d3e565b61093d565b6101de61027f366004611ff9565b6109b4565b6101d8610a3b565b6101d861029a366004611d3e565b610aa1565b60fb546001600160a01b03166101ad565b61018d610b3a565b61012e5461017090610100900460ff1681565b6101d86102d9366004612014565b610b49565b6101d86102ec366004612047565b610b58565b61018d6102ff366004611d3e565b610b90565b6101706103123660046120c3565b6001600160a01b039182166000908152606a6020908152604080832093909416825291909152205460ff1690565b6101d861034e366004611ff9565b610b9b565b61012e546101709060ff1681565b60006001600160e01b0319821662f7235960e21b148061039157506001600160e01b03198216635c838d8b60e01b145b806103ac57506001600160e01b031982166307f5828d60e41b145b806103bb57506103bb82610c63565b92915050565b6060606580546103d0906120ed565b80601f01602080910402602001604051908101604052809291908181526020018280546103fc906120ed565b80156104495780601f1061041e57610100808354040283529160200191610449565b820191906000526020600020905b81548152906001019060200180831161042c57829003601f168201915b5050505050905090565b600061045e82610c88565b6104c45760405162461bcd60e51b815260206004820152602c60248201527f4552433732313a20617070726f76656420717565727920666f72206e6f6e657860448201526b34b9ba32b73a103a37b5b2b760a11b60648201526084015b60405180910390fd5b506000908152606960205260409020546001600160a01b031690565b60006104eb8261093d565b9050806001600160a01b0316836001600160a01b031614156105595760405162461bcd60e51b815260206004820152602160248201527f4552433732313a20617070726f76616c20746f2063757272656e74206f776e656044820152603960f91b60648201526084016104bb565b336001600160a01b038216148061057557506105758133610312565b6105e75760405162461bcd60e51b815260206004820152603860248201527f4552433732313a20617070726f76652063616c6c6572206973206e6f74206f7760448201527f6e6572206e6f7220617070726f76656420666f7220616c6c000000000000000060648201526084016104bb565b6105f18383610ca5565b505050565b6106003382610d13565b61061c5760405162461bcd60e51b81526004016104bb90612128565b6105f1838383610dfd565b61012e5460009060ff1680610646575060fb546001600160a01b031633145b61067f5760405162461bcd60e51b815260206004820152600a6024820152692737ba1036b4b73a32b960b11b60448201526064016104bb565b61068e61012d80546001019055565b600061069a61012d5490565b90506106a68482610fa4565b6106b08184610fbe565b9392505050565b60006106c2836109b4565b82106107245760405162461bcd60e51b815260206004820152602b60248201527f455243373231456e756d657261626c653a206f776e657220696e646578206f7560448201526a74206f6620626f756e647360a81b60648201526084016104bb565b506001600160a01b03919091166000908152609760209081526040808320938352929052205490565b6105f183838360405180602001604052806000815250610b58565b600061077360995490565b82106107d65760405162461bcd60e51b815260206004820152602c60248201527f455243373231456e756d657261626c653a20676c6f62616c20696e646578206f60448201526b7574206f6620626f756e647360a01b60648201526084016104bb565b609982815481106107e9576107e9612179565b90600052602060002001549050919050565b600054610100900460ff166108165760005460ff161561081a565b303b155b61087d5760405162461bcd60e51b815260206004820152602e60248201527f496e697469616c697a61626c653a20636f6e747261637420697320616c72656160448201526d191e481a5b9a5d1a585b1a5e995960921b60648201526084016104bb565b600054610100900460ff1615801561089f576000805461ffff19166101011790555b6108a7611049565b6108b18585611078565b6108ba83610b9b565b816000815181106108cd576108cd612179565b602002602001015161012e60006101000a81548160ff0219169083151502179055508160018151811061090257610902612179565b602002602001015161012e60016101000a81548160ff0219169083151502179055508015610936576000805461ff00191690555b5050505050565b6000818152606760205260408120546001600160a01b0316806103bb5760405162461bcd60e51b815260206004820152602960248201527f4552433732313a206f776e657220717565727920666f72206e6f6e657869737460448201526832b73a103a37b5b2b760b91b60648201526084016104bb565b60006001600160a01b038216610a1f5760405162461bcd60e51b815260206004820152602a60248201527f4552433732313a2062616c616e636520717565727920666f7220746865207a65604482015269726f206164647265737360b01b60648201526084016104bb565b506001600160a01b031660009081526068602052604090205490565b60fb546001600160a01b03163314610a955760405162461bcd60e51b815260206004820181905260248201527f4f776e61626c653a2063616c6c6572206973206e6f7420746865206f776e657260448201526064016104bb565b610a9f60006110a9565b565b61012e54610100900460ff16610ae85760405162461bcd60e51b815260206004820152600c60248201526b4e6f74206275726e61626c6560a01b60448201526064016104bb565b60fb546001600160a01b03163314610b2e5760405162461bcd60e51b81526020600482015260096024820152682737ba1037bbb732b960b91b60448201526064016104bb565b610b37816110fb565b50565b6060606680546103d0906120ed565b610b54338383611104565b5050565b610b623383610d13565b610b7e5760405162461bcd60e51b81526004016104bb90612128565b610b8a848484846111d3565b50505050565b60606103bb82611206565b60fb546001600160a01b03163314610bf55760405162461bcd60e51b815260206004820181905260248201527f4f776e61626c653a2063616c6c6572206973206e6f7420746865206f776e657260448201526064016104bb565b6001600160a01b038116610c5a5760405162461bcd60e51b815260206004820152602660248201527f4f776e61626c653a206e6577206f776e657220697320746865207a65726f206160448201526564647265737360d01b60648201526084016104bb565b610b37816110a9565b60006001600160e01b0319821663780e9d6360e01b14806103bb57506103bb82611375565b6000908152606760205260409020546001600160a01b0316151590565b600081815260696020526040902080546001600160a01b0319166001600160a01b0384169081179091558190610cda8261093d565b6001600160a01b03167f8c5be1e5ebec7d5bd14f71427d1e84f3dd0314c0f7b2291e5b200ac8c7c3b92560405160405180910390a45050565b6000610d1e82610c88565b610d7f5760405162461bcd60e51b815260206004820152602c60248201527f4552433732313a206f70657261746f7220717565727920666f72206e6f6e657860448201526b34b9ba32b73a103a37b5b2b760a11b60648201526084016104bb565b6000610d8a8361093d565b9050806001600160a01b0316846001600160a01b03161480610dc55750836001600160a01b0316610dba84610453565b6001600160a01b0316145b80610df557506001600160a01b038082166000908152606a602090815260408083209388168352929052205460ff165b949350505050565b826001600160a01b0316610e108261093d565b6001600160a01b031614610e745760405162461bcd60e51b815260206004820152602560248201527f4552433732313a207472616e736665722066726f6d20696e636f72726563742060448201526437bbb732b960d91b60648201526084016104bb565b6001600160a01b038216610ed65760405162461bcd60e51b8152602060048201526024808201527f4552433732313a207472616e7366657220746f20746865207a65726f206164646044820152637265737360e01b60648201526084016104bb565b610ee18383836113c5565b610eec600082610ca5565b6001600160a01b0383166000908152606860205260408120805460019290610f159084906121a5565b90915550506001600160a01b0382166000908152606860205260408120805460019290610f439084906121bc565b909155505060008181526067602052604080822080546001600160a01b0319166001600160a01b0386811691821790925591518493918716917fddf252ad1be2c89b69c2b068fc378daa952ba7f163c4a11628f55a4df523b3ef91a4505050565b610b548282604051806020016040528060008152506113d0565b610fc782610c88565b61102a5760405162461bcd60e51b815260206004820152602e60248201527f45524337323155524953746f726167653a2055524920736574206f66206e6f6e60448201526d32bc34b9ba32b73a103a37b5b2b760911b60648201526084016104bb565b600082815260c96020908152604090912082516105f192840190611bd1565b600054610100900460ff166110705760405162461bcd60e51b81526004016104bb906121d4565b610a9f611403565b600054610100900460ff1661109f5760405162461bcd60e51b81526004016104bb906121d4565b610b548282611433565b60fb80546001600160a01b038381166001600160a01b0319831681179093556040519116919082907f8be0079c531659141344cd1fd0a4f28419497f9722a3daafe3b4186f6b6457e090600090a35050565b610b3781611481565b816001600160a01b0316836001600160a01b031614156111665760405162461bcd60e51b815260206004820152601960248201527f4552433732313a20617070726f766520746f2063616c6c65720000000000000060448201526064016104bb565b6001600160a01b038381166000818152606a6020908152604080832094871680845294825291829020805460ff191686151590811790915591519182527f17307eab39ab6107e8899845ad3d59bd9653f200f220920489ca2b5937696c31910160405180910390a3505050565b6111de848484610dfd565b6111ea848484846114c1565b610b8a5760405162461bcd60e51b81526004016104bb9061221f565b606061121182610c88565b6112775760405162461bcd60e51b815260206004820152603160248201527f45524337323155524953746f726167653a2055524920717565727920666f72206044820152703737b732bc34b9ba32b73a103a37b5b2b760791b60648201526084016104bb565b600082815260c9602052604081208054611290906120ed565b80601f01602080910402602001604051908101604052809291908181526020018280546112bc906120ed565b80156113095780601f106112de57610100808354040283529160200191611309565b820191906000526020600020905b8154815290600101906020018083116112ec57829003601f168201915b50505050509050600061132760408051602081019091526000815290565b905080516000141561133a575092915050565b81511561136c578082604051602001611354929190612271565b60405160208183030381529060405292505050919050565b610df5846115ce565b60006001600160e01b031982166380ac58cd60e01b14806113a657506001600160e01b03198216635b5e139f60e01b145b806103bb57506301ffc9a760e01b6001600160e01b03198316146103bb565b6105f18383836116a5565b6113da838361175d565b6113e760008484846114c1565b6105f15760405162461bcd60e51b81526004016104bb9061221f565b600054610100900460ff1661142a5760405162461bcd60e51b81526004016104bb906121d4565b610a9f336110a9565b600054610100900460ff1661145a5760405162461bcd60e51b81526004016104bb906121d4565b815161146d906065906020850190611bd1565b5080516105f1906066906020840190611bd1565b61148a8161189c565b600081815260c96020526040902080546114a3906120ed565b159050610b3757600081815260c960205260408120610b3791611c55565b60006001600160a01b0384163b156115c357604051630a85bd0160e11b81526001600160a01b0385169063150b7a02906115059033908990889088906004016122a0565b602060405180830381600087803b15801561151f57600080fd5b505af192505050801561154f575060408051601f3d908101601f1916820190925261154c918101906122dd565b60015b6115a9573d80801561157d576040519150601f19603f3d011682016040523d82523d6000602084013e611582565b606091505b5080516115a15760405162461bcd60e51b81526004016104bb9061221f565b805181602001fd5b6001600160e01b031916630a85bd0160e11b149050610df5565b506001949350505050565b60606115d982610c88565b61163d5760405162461bcd60e51b815260206004820152602f60248201527f4552433732314d657461646174613a2055524920717565727920666f72206e6f60448201526e3732bc34b9ba32b73a103a37b5b2b760891b60648201526084016104bb565b600061165460408051602081019091526000815290565b9050600081511161167457604051806020016040528060008152506106b0565b8061167e84611943565b60405160200161168f929190612271565b6040516020818303038152906040529392505050565b6001600160a01b038316611700576116fb81609980546000838152609a60205260408120829055600182018355919091527f72a152ddfb8e864297c917af52ea6c1c68aead0fee1a62673fcc7e0c94979d000155565b611723565b816001600160a01b0316836001600160a01b031614611723576117238382611a41565b6001600160a01b03821661173a576105f181611ade565b826001600160a01b0316826001600160a01b0316146105f1576105f18282611b8d565b6001600160a01b0382166117b35760405162461bcd60e51b815260206004820181905260248201527f4552433732313a206d696e7420746f20746865207a65726f206164647265737360448201526064016104bb565b6117bc81610c88565b156118095760405162461bcd60e51b815260206004820152601c60248201527f4552433732313a20746f6b656e20616c7265616479206d696e7465640000000060448201526064016104bb565b611815600083836113c5565b6001600160a01b038216600090815260686020526040812080546001929061183e9084906121bc565b909155505060008181526067602052604080822080546001600160a01b0319166001600160a01b03861690811790915590518392907fddf252ad1be2c89b69c2b068fc378daa952ba7f163c4a11628f55a4df523b3ef908290a45050565b60006118a78261093d565b90506118b5816000846113c5565b6118c0600083610ca5565b6001600160a01b03811660009081526068602052604081208054600192906118e99084906121a5565b909155505060008281526067602052604080822080546001600160a01b0319169055518391906001600160a01b038416907fddf252ad1be2c89b69c2b068fc378daa952ba7f163c4a11628f55a4df523b3ef908390a45050565b6060816119675750506040805180820190915260018152600360fc1b602082015290565b8160005b8115611991578061197b816122fa565b915061198a9050600a8361232b565b915061196b565b60008167ffffffffffffffff8111156119ac576119ac611dd9565b6040519080825280601f01601f1916602001820160405280156119d6576020820181803683370190505b5090505b8415610df5576119eb6001836121a5565b91506119f8600a8661233f565b611a039060306121bc565b60f81b818381518110611a1857611a18612179565b60200101906001600160f81b031916908160001a905350611a3a600a8661232b565b94506119da565b60006001611a4e846109b4565b611a5891906121a5565b600083815260986020526040902054909150808214611aab576001600160a01b03841660009081526097602090815260408083208584528252808320548484528184208190558352609890915290208190555b5060009182526098602090815260408084208490556001600160a01b039094168352609781528383209183525290812055565b609954600090611af0906001906121a5565b6000838152609a602052604081205460998054939450909284908110611b1857611b18612179565b906000526020600020015490508060998381548110611b3957611b39612179565b6000918252602080832090910192909255828152609a90915260408082208490558582528120556099805480611b7157611b71612353565b6001900381819060005260206000200160009055905550505050565b6000611b98836109b4565b6001600160a01b039093166000908152609760209081526040808320868452825280832085905593825260989052919091209190915550565b828054611bdd906120ed565b90600052602060002090601f016020900481019282611bff5760008555611c45565b82601f10611c1857805160ff1916838001178555611c45565b82800160010185558215611c45579182015b82811115611c45578251825591602001919060010190611c2a565b50611c51929150611c8b565b5090565b508054611c61906120ed565b6000825580601f10611c71575050565b601f016020900490600052602060002090810190610b3791905b5b80821115611c515760008155600101611c8c565b6001600160e01b031981168114610b3757600080fd5b600060208284031215611cc857600080fd5b81356106b081611ca0565b60005b83811015611cee578181015183820152602001611cd6565b83811115610b8a5750506000910152565b60008151808452611d17816020860160208601611cd3565b601f01601f19169290920160200192915050565b6020815260006106b06020830184611cff565b600060208284031215611d5057600080fd5b5035919050565b80356001600160a01b0381168114611d6e57600080fd5b919050565b60008060408385031215611d8657600080fd5b611d8f83611d57565b946020939093013593505050565b600080600060608486031215611db257600080fd5b611dbb84611d57565b9250611dc960208501611d57565b9150604084013590509250925092565b634e487b7160e01b600052604160045260246000fd5b604051601f8201601f1916810167ffffffffffffffff81118282101715611e1857611e18611dd9565b604052919050565b600067ffffffffffffffff831115611e3a57611e3a611dd9565b611e4d601f8401601f1916602001611def565b9050828152838383011115611e6157600080fd5b828260208301376000602084830101529392505050565b600082601f830112611e8957600080fd5b6106b083833560208501611e20565b60008060408385031215611eab57600080fd5b611eb483611d57565b9150602083013567ffffffffffffffff811115611ed057600080fd5b611edc85828601611e78565b9150509250929050565b80358015158114611d6e57600080fd5b60008060008060808587031215611f0c57600080fd5b843567ffffffffffffffff80821115611f2457600080fd5b611f3088838901611e78565b9550602091508187013581811115611f4757600080fd5b611f5389828a01611e78565b955050611f6260408801611d57565b9350606087013581811115611f7657600080fd5b8701601f81018913611f8757600080fd5b803582811115611f9957611f99611dd9565b8060051b9250611faa848401611def565b818152928201840192848101908b851115611fc457600080fd5b928501925b84841015611fe957611fda84611ee6565b82529285019290850190611fc9565b989b979a50959850505050505050565b60006020828403121561200b57600080fd5b6106b082611d57565b6000806040838503121561202757600080fd5b61203083611d57565b915061203e60208401611ee6565b90509250929050565b6000806000806080858703121561205d57600080fd5b61206685611d57565b935061207460208601611d57565b925060408501359150606085013567ffffffffffffffff81111561209757600080fd5b8501601f810187136120a857600080fd5b6120b787823560208401611e20565b91505092959194509250565b600080604083850312156120d657600080fd5b6120df83611d57565b915061203e60208401611d57565b600181811c9082168061210157607f821691505b6020821081141561212257634e487b7160e01b600052602260045260246000fd5b50919050565b60208082526031908201527f4552433732313a207472616e736665722063616c6c6572206973206e6f74206f6040820152701ddb995c881b9bdc88185c1c1c9bdd9959607a1b606082015260800190565b634e487b7160e01b600052603260045260246000fd5b634e487b7160e01b600052601160045260246000fd5b6000828210156121b7576121b761218f565b500390565b600082198211156121cf576121cf61218f565b500190565b6020808252602b908201527f496e697469616c697a61626c653a20636f6e7472616374206973206e6f74206960408201526a6e697469616c697a696e6760a81b606082015260800190565b60208082526032908201527f4552433732313a207472616e7366657220746f206e6f6e20455243373231526560408201527131b2b4bb32b91034b6b83632b6b2b73a32b960711b606082015260800190565b60008351612283818460208801611cd3565b835190830190612297818360208801611cd3565b01949350505050565b6001600160a01b03858116825284166020820152604081018390526080606082018190526000906122d390830184611cff565b9695505050505050565b6000602082840312156122ef57600080fd5b81516106b081611ca0565b600060001982141561230e5761230e61218f565b5060010190565b634e487b7160e01b600052601260045260246000fd5b60008261233a5761233a612315565b500490565b60008261234e5761234e612315565b500690565b634e487b7160e01b600052603160045260246000fdfea2646970667358221220bb96ff0227da4b17d3f2274c94906e16cb0b0feccd190159857fe06012c5dfe264736f6c63430008090033",
  "devdoc": {
    "kind": "dev",
    "methods": {
      "approve(address,uint256)": {
        "details": "See {IERC721-approve}."
      },
      "balanceOf(address)": {
        "details": "See {IERC721-balanceOf}."
      },
      "burnOpenNFT(uint256)": {
        "params": {
          "tokenId": "tokenID of NFT to burn"
        }
      },
      "getApproved(uint256)": {
        "details": "See {IERC721-getApproved}."
      },
      "initialize(string,string,address,bool[])": {
        "params": {
          "name": "name of the NFT Collection",
          "options": "select minting open to everyone or only owner",
          "owner": "owner of the NFT Collection",
          "symbol": "symbol of the NFT Collection"
        }
      },
      "isApprovedForAll(address,address)": {
        "details": "See {IERC721-isApprovedForAll}."
      },
      "mintOpenNFT(address,string)": {
        "params": {
          "jsonURI": "json URI of NFT metadata",
          "minter": "address of minter"
        }
      },
      "name()": {
        "details": "See {IERC721Metadata-name}."
      },
      "owner()": {
        "details": "Returns the address of the current owner."
      },
      "ownerOf(uint256)": {
        "details": "See {IERC721-ownerOf}."
      },
      "renounceOwnership()": {
        "details": "Leaves the contract without owner. It will not be possible to call `onlyOwner` functions anymore. Can only be called by the current owner. NOTE: Renouncing ownership will leave the contract without an owner, thereby removing any functionality that is only available to the owner."
      },
      "safeTransferFrom(address,address,uint256)": {
        "details": "See {IERC721-safeTransferFrom}."
      },
      "safeTransferFrom(address,address,uint256,bytes)": {
        "details": "See {IERC721-safeTransferFrom}."
      },
      "setApprovalForAll(address,bool)": {
        "details": "See {IERC721-setApprovalForAll}."
      },
      "supportsInterface(bytes4)": {
        "params": {
          "interfaceId": "interfaceId to test"
        }
      },
      "symbol()": {
        "details": "See {IERC721Metadata-symbol}."
      },
      "tokenByIndex(uint256)": {
        "details": "See {IERC721Enumerable-tokenByIndex}."
      },
      "tokenOfOwnerByIndex(address,uint256)": {
        "details": "See {IERC721Enumerable-tokenOfOwnerByIndex}."
      },
      "tokenURI(uint256)": {
        "params": {
          "tokenId": "tokenId of NFT",
          "tokenURI_": "token URI of NFT"
        }
      },
      "totalSupply()": {
        "details": "See {IERC721Enumerable-totalSupply}."
      },
      "transferFrom(address,address,uint256)": {
        "details": "See {IERC721-transferFrom}."
      },
      "transferOwnership(address)": {
        "details": "Transfers ownership of the contract to a new account (`newOwner`). Can only be called by the current owner."
      }
    },
    "title": "OpenNFTs smartcontract",
    "version": 1
  },
  "userdoc": {
    "kind": "user",
    "methods": {
      "burnOpenNFT(uint256)": {
        "notice": "burn NFT"
      },
      "burnable()": {
        "notice": "Burn NFT allowed or not"
      },
      "initialize(string,string,address,bool[])": {
        "notice": "initialize"
      },
      "mintOpenNFT(address,string)": {
        "notice": "mint"
      },
      "open()": {
        "notice": "Mint NFT allowed to everyone or only collection owner"
      },
      "supportsInterface(bytes4)": {
        "notice": "test if this interface is supported"
      },
      "tokenURI(uint256)": {
        "notice": "Get tokenURI"
      }
    },
    "version": 1
  },
  "storageLayout": {
    "storage": [
      {
        "astId": 130,
        "contract": "contracts/new/OpenNFTsV3.sol:OpenNFTsV3",
        "label": "_initialized",
        "offset": 0,
        "slot": "0",
        "type": "t_bool"
      },
      {
        "astId": 133,
        "contract": "contracts/new/OpenNFTsV3.sol:OpenNFTsV3",
        "label": "_initializing",
        "offset": 1,
        "slot": "0",
        "type": "t_bool"
      },
      {
        "astId": 2070,
        "contract": "contracts/new/OpenNFTsV3.sol:OpenNFTsV3",
        "label": "__gap",
        "offset": 0,
        "slot": "1",
        "type": "t_array(t_uint256)50_storage"
      },
      {
        "astId": 2391,
        "contract": "contracts/new/OpenNFTsV3.sol:OpenNFTsV3",
        "label": "__gap",
        "offset": 0,
        "slot": "51",
        "type": "t_array(t_uint256)50_storage"
      },
      {
        "astId": 226,
        "contract": "contracts/new/OpenNFTsV3.sol:OpenNFTsV3",
        "label": "_name",
        "offset": 0,
        "slot": "101",
        "type": "t_string_storage"
      },
      {
        "astId": 228,
        "contract": "contracts/new/OpenNFTsV3.sol:OpenNFTsV3",
        "label": "_symbol",
        "offset": 0,
        "slot": "102",
        "type": "t_string_storage"
      },
      {
        "astId": 232,
        "contract": "contracts/new/OpenNFTsV3.sol:OpenNFTsV3",
        "label": "_owners",
        "offset": 0,
        "slot": "103",
        "type": "t_mapping(t_uint256,t_address)"
      },
      {
        "astId": 236,
        "contract": "contracts/new/OpenNFTsV3.sol:OpenNFTsV3",
        "label": "_balances",
        "offset": 0,
        "slot": "104",
        "type": "t_mapping(t_address,t_uint256)"
      },
      {
        "astId": 240,
        "contract": "contracts/new/OpenNFTsV3.sol:OpenNFTsV3",
        "label": "_tokenApprovals",
        "offset": 0,
        "slot": "105",
        "type": "t_mapping(t_uint256,t_address)"
      },
      {
        "astId": 246,
        "contract": "contracts/new/OpenNFTsV3.sol:OpenNFTsV3",
        "label": "_operatorApprovals",
        "offset": 0,
        "slot": "106",
        "type": "t_mapping(t_address,t_mapping(t_address,t_bool))"
      },
      {
        "astId": 1087,
        "contract": "contracts/new/OpenNFTsV3.sol:OpenNFTsV3",
        "label": "__gap",
        "offset": 0,
        "slot": "107",
        "type": "t_array(t_uint256)44_storage"
      },
      {
        "astId": 1252,
        "contract": "contracts/new/OpenNFTsV3.sol:OpenNFTsV3",
        "label": "_ownedTokens",
        "offset": 0,
        "slot": "151",
        "type": "t_mapping(t_address,t_mapping(t_uint256,t_uint256))"
      },
      {
        "astId": 1256,
        "contract": "contracts/new/OpenNFTsV3.sol:OpenNFTsV3",
        "label": "_ownedTokensIndex",
        "offset": 0,
        "slot": "152",
        "type": "t_mapping(t_uint256,t_uint256)"
      },
      {
        "astId": 1259,
        "contract": "contracts/new/OpenNFTsV3.sol:OpenNFTsV3",
        "label": "_allTokens",
        "offset": 0,
        "slot": "153",
        "type": "t_array(t_uint256)dyn_storage"
      },
      {
        "astId": 1263,
        "contract": "contracts/new/OpenNFTsV3.sol:OpenNFTsV3",
        "label": "_allTokensIndex",
        "offset": 0,
        "slot": "154",
        "type": "t_mapping(t_uint256,t_uint256)"
      },
      {
        "astId": 1579,
        "contract": "contracts/new/OpenNFTsV3.sol:OpenNFTsV3",
        "label": "__gap",
        "offset": 0,
        "slot": "155",
        "type": "t_array(t_uint256)46_storage"
      },
      {
        "astId": 1608,
        "contract": "contracts/new/OpenNFTsV3.sol:OpenNFTsV3",
        "label": "_tokenURIs",
        "offset": 0,
        "slot": "201",
        "type": "t_mapping(t_uint256,t_string_storage)"
      },
      {
        "astId": 1727,
        "contract": "contracts/new/OpenNFTsV3.sol:OpenNFTsV3",
        "label": "__gap",
        "offset": 0,
        "slot": "202",
        "type": "t_array(t_uint256)49_storage"
      },
      {
        "astId": 10,
        "contract": "contracts/new/OpenNFTsV3.sol:OpenNFTsV3",
        "label": "_owner",
        "offset": 0,
        "slot": "251",
        "type": "t_address"
      },
      {
        "astId": 122,
        "contract": "contracts/new/OpenNFTsV3.sol:OpenNFTsV3",
        "label": "__gap",
        "offset": 0,
        "slot": "252",
        "type": "t_array(t_uint256)49_storage"
      },
      {
        "astId": 7008,
        "contract": "contracts/new/OpenNFTsV3.sol:OpenNFTsV3",
        "label": "_tokenIds",
        "offset": 0,
        "slot": "301",
        "type": "t_struct(Counter)2077_storage"
      },
      {
        "astId": 7011,
        "contract": "contracts/new/OpenNFTsV3.sol:OpenNFTsV3",
        "label": "open",
        "offset": 0,
        "slot": "302",
        "type": "t_bool"
      },
      {
        "astId": 7014,
        "contract": "contracts/new/OpenNFTsV3.sol:OpenNFTsV3",
        "label": "burnable",
        "offset": 1,
        "slot": "302",
        "type": "t_bool"
      }
    ],
    "types": {
      "t_address": {
        "encoding": "inplace",
        "label": "address",
        "numberOfBytes": "20"
      },
      "t_array(t_uint256)44_storage": {
        "base": "t_uint256",
        "encoding": "inplace",
        "label": "uint256[44]",
        "numberOfBytes": "1408"
      },
      "t_array(t_uint256)46_storage": {
        "base": "t_uint256",
        "encoding": "inplace",
        "label": "uint256[46]",
        "numberOfBytes": "1472"
      },
      "t_array(t_uint256)49_storage": {
        "base": "t_uint256",
        "encoding": "inplace",
        "label": "uint256[49]",
        "numberOfBytes": "1568"
      },
      "t_array(t_uint256)50_storage": {
        "base": "t_uint256",
        "encoding": "inplace",
        "label": "uint256[50]",
        "numberOfBytes": "1600"
      },
      "t_array(t_uint256)dyn_storage": {
        "base": "t_uint256",
        "encoding": "dynamic_array",
        "label": "uint256[]",
        "numberOfBytes": "32"
      },
      "t_bool": {
        "encoding": "inplace",
        "label": "bool",
        "numberOfBytes": "1"
      },
      "t_mapping(t_address,t_bool)": {
        "encoding": "mapping",
        "key": "t_address",
        "label": "mapping(address => bool)",
        "numberOfBytes": "32",
        "value": "t_bool"
      },
      "t_mapping(t_address,t_mapping(t_address,t_bool))": {
        "encoding": "mapping",
        "key": "t_address",
        "label": "mapping(address => mapping(address => bool))",
        "numberOfBytes": "32",
        "value": "t_mapping(t_address,t_bool)"
      },
      "t_mapping(t_address,t_mapping(t_uint256,t_uint256))": {
        "encoding": "mapping",
        "key": "t_address",
        "label": "mapping(address => mapping(uint256 => uint256))",
        "numberOfBytes": "32",
        "value": "t_mapping(t_uint256,t_uint256)"
      },
      "t_mapping(t_address,t_uint256)": {
        "encoding": "mapping",
        "key": "t_address",
        "label": "mapping(address => uint256)",
        "numberOfBytes": "32",
        "value": "t_uint256"
      },
      "t_mapping(t_uint256,t_address)": {
        "encoding": "mapping",
        "key": "t_uint256",
        "label": "mapping(uint256 => address)",
        "numberOfBytes": "32",
        "value": "t_address"
      },
      "t_mapping(t_uint256,t_string_storage)": {
        "encoding": "mapping",
        "key": "t_uint256",
        "label": "mapping(uint256 => string)",
        "numberOfBytes": "32",
        "value": "t_string_storage"
      },
      "t_mapping(t_uint256,t_uint256)": {
        "encoding": "mapping",
        "key": "t_uint256",
        "label": "mapping(uint256 => uint256)",
        "numberOfBytes": "32",
        "value": "t_uint256"
      },
      "t_string_storage": {
        "encoding": "bytes",
        "label": "string",
        "numberOfBytes": "32"
      },
      "t_struct(Counter)2077_storage": {
        "encoding": "inplace",
        "label": "struct CountersUpgradeable.Counter",
        "members": [
          {
            "astId": 2076,
            "contract": "contracts/new/OpenNFTsV3.sol:OpenNFTsV3",
            "label": "_value",
            "offset": 0,
            "slot": "0",
            "type": "t_uint256"
          }
        ],
        "numberOfBytes": "32"
      },
      "t_uint256": {
        "encoding": "inplace",
        "label": "uint256",
        "numberOfBytes": "32"
      }
    }
  }
}