{
  "address": "0x2434F604C891e4e68d23D11417772c56AA5D18A4",
  "abi": [
    {
      "anonymous": false,
      "inputs": [
        {
          "indexed": true,
          "internalType": "address",
          "name": "owner",
          "type": "address"
        },
        {
          "indexed": true,
          "internalType": "address",
          "name": "approved",
          "type": "address"
        },
        {
          "indexed": true,
          "internalType": "uint256",
          "name": "tokenId",
          "type": "uint256"
        }
      ],
      "name": "Approval",
      "type": "event"
    },
    {
      "anonymous": false,
      "inputs": [
        {
          "indexed": true,
          "internalType": "address",
          "name": "owner",
          "type": "address"
        },
        {
          "indexed": true,
          "internalType": "address",
          "name": "operator",
          "type": "address"
        },
        {
          "indexed": false,
          "internalType": "bool",
          "name": "approved",
          "type": "bool"
        }
      ],
      "name": "ApprovalForAll",
      "type": "event"
    },
    {
      "anonymous": false,
      "inputs": [
        {
          "indexed": true,
          "internalType": "address",
          "name": "previousOwner",
          "type": "address"
        },
        {
          "indexed": true,
          "internalType": "address",
          "name": "newOwner",
          "type": "address"
        }
      ],
      "name": "OwnershipTransferred",
      "type": "event"
    },
    {
      "anonymous": false,
      "inputs": [
        {
          "indexed": false,
          "internalType": "uint256",
          "name": "tokenID",
          "type": "uint256"
        },
        {
          "indexed": false,
          "internalType": "uint256",
          "name": "price",
          "type": "uint256"
        },
        {
          "indexed": false,
          "internalType": "address",
          "name": "seller",
          "type": "address"
        },
        {
          "indexed": false,
          "internalType": "uint256",
          "name": "paid",
          "type": "uint256"
        },
        {
          "indexed": false,
          "internalType": "address",
          "name": "receiver",
          "type": "address"
        },
        {
          "indexed": false,
          "internalType": "uint256",
          "name": "royalties",
          "type": "uint256"
        },
        {
          "indexed": false,
          "internalType": "address",
          "name": "buyer",
          "type": "address"
        },
        {
          "indexed": false,
          "internalType": "uint256",
          "name": "unspent",
          "type": "uint256"
        }
      ],
      "name": "Pay",
      "type": "event"
    },
    {
      "anonymous": false,
      "inputs": [
        {
          "indexed": false,
          "internalType": "uint256",
          "name": "price",
          "type": "uint256"
        }
      ],
      "name": "SetDefaultPrice",
      "type": "event"
    },
    {
      "anonymous": false,
      "inputs": [
        {
          "indexed": false,
          "internalType": "address",
          "name": "receiver",
          "type": "address"
        },
        {
          "indexed": false,
          "internalType": "uint96",
          "name": "fee",
          "type": "uint96"
        }
      ],
      "name": "SetDefaultRoyalty",
      "type": "event"
    },
    {
      "anonymous": false,
      "inputs": [
        {
          "indexed": true,
          "internalType": "bool",
          "name": "paused",
          "type": "bool"
        },
        {
          "indexed": true,
          "internalType": "address",
          "name": "account",
          "type": "address"
        }
      ],
      "name": "SetPaused",
      "type": "event"
    },
    {
      "anonymous": false,
      "inputs": [
        {
          "indexed": false,
          "internalType": "uint256",
          "name": "tokenID",
          "type": "uint256"
        },
        {
          "indexed": false,
          "internalType": "uint256",
          "name": "price",
          "type": "uint256"
        }
      ],
      "name": "SetTokenPrice",
      "type": "event"
    },
    {
      "anonymous": false,
      "inputs": [
        {
          "indexed": false,
          "internalType": "uint256",
          "name": "tokenID",
          "type": "uint256"
        },
        {
          "indexed": false,
          "internalType": "address",
          "name": "receiver",
          "type": "address"
        },
        {
          "indexed": false,
          "internalType": "uint96",
          "name": "fee",
          "type": "uint96"
        }
      ],
      "name": "SetTokenRoyalty",
      "type": "event"
    },
    {
      "anonymous": false,
      "inputs": [
        {
          "indexed": true,
          "internalType": "address",
          "name": "from",
          "type": "address"
        },
        {
          "indexed": true,
          "internalType": "address",
          "name": "to",
          "type": "address"
        },
        {
          "indexed": true,
          "internalType": "uint256",
          "name": "tokenId",
          "type": "uint256"
        }
      ],
      "name": "Transfer",
      "type": "event"
    },
    {
      "inputs": [
        {
          "internalType": "address",
          "name": "spender",
          "type": "address"
        },
        {
          "internalType": "uint256",
          "name": "tokenID",
          "type": "uint256"
        }
      ],
      "name": "approve",
      "outputs": [],
      "stateMutability": "nonpayable",
      "type": "function"
    },
    {
      "inputs": [
        {
          "internalType": "address",
          "name": "owner",
          "type": "address"
        }
      ],
      "name": "balanceOf",
      "outputs": [
        {
          "internalType": "uint256",
          "name": "",
          "type": "uint256"
        }
      ],
      "stateMutability": "view",
      "type": "function"
    },
    {
      "inputs": [
        {
          "internalType": "uint256",
          "name": "tokenID",
          "type": "uint256"
        }
      ],
      "name": "burn",
      "outputs": [],
      "stateMutability": "nonpayable",
      "type": "function"
    },
    {
      "inputs": [
        {
          "internalType": "uint256",
          "name": "tokenID",
          "type": "uint256"
        }
      ],
      "name": "buy",
      "outputs": [],
      "stateMutability": "payable",
      "type": "function"
    },
    {
      "inputs": [],
      "name": "defaultPrice",
      "outputs": [
        {
          "internalType": "uint256",
          "name": "",
          "type": "uint256"
        }
      ],
      "stateMutability": "view",
      "type": "function"
    },
    {
      "inputs": [
        {
          "internalType": "uint256",
          "name": "tokenID",
          "type": "uint256"
        }
      ],
      "name": "getApproved",
      "outputs": [
        {
          "internalType": "address",
          "name": "",
          "type": "address"
        }
      ],
      "stateMutability": "view",
      "type": "function"
    },
    {
      "inputs": [],
      "name": "getDefaultRoyaltyInfo",
      "outputs": [
        {
          "internalType": "address",
          "name": "receiver",
          "type": "address"
        },
        {
          "internalType": "uint96",
          "name": "fraction",
          "type": "uint96"
        }
      ],
      "stateMutability": "view",
      "type": "function"
    },
    {
      "inputs": [
        {
          "internalType": "uint256",
          "name": "tokenID",
          "type": "uint256"
        }
      ],
      "name": "getTokenRoyaltyInfo",
      "outputs": [
        {
          "internalType": "address",
          "name": "receiver",
          "type": "address"
        },
        {
          "internalType": "uint96",
          "name": "fraction",
          "type": "uint96"
        }
      ],
      "stateMutability": "view",
      "type": "function"
    },
    {
      "inputs": [
        {
          "internalType": "string",
          "name": "name_",
          "type": "string"
        },
        {
          "internalType": "string",
          "name": "symbol_",
          "type": "string"
        },
        {
          "internalType": "address",
          "name": "owner_",
          "type": "address"
        },
        {
          "internalType": "uint256",
          "name": "defaultPrice_",
          "type": "uint256"
        },
        {
          "internalType": "address",
          "name": "receiver_",
          "type": "address"
        },
        {
          "internalType": "uint96",
          "name": "fee_",
          "type": "uint96"
        },
        {
          "internalType": "bool[]",
          "name": "options",
          "type": "bool[]"
        }
      ],
      "name": "initialize",
      "outputs": [],
      "stateMutability": "nonpayable",
      "type": "function"
    },
    {
      "inputs": [],
      "name": "initialized",
      "outputs": [
        {
          "internalType": "bool",
          "name": "",
          "type": "bool"
        }
      ],
      "stateMutability": "view",
      "type": "function"
    },
    {
      "inputs": [
        {
          "internalType": "address",
          "name": "owner",
          "type": "address"
        },
        {
          "internalType": "address",
          "name": "operator",
          "type": "address"
        }
      ],
      "name": "isApprovedForAll",
      "outputs": [
        {
          "internalType": "bool",
          "name": "",
          "type": "bool"
        }
      ],
      "stateMutability": "view",
      "type": "function"
    },
    {
      "inputs": [
        {
          "internalType": "address",
          "name": "minter_",
          "type": "address"
        },
        {
          "internalType": "string",
          "name": "tokenURI_",
          "type": "string"
        },
        {
          "internalType": "uint256",
          "name": "tokenPrice_",
          "type": "uint256"
        },
        {
          "internalType": "address",
          "name": "receiver_",
          "type": "address"
        },
        {
          "internalType": "uint96",
          "name": "fee_",
          "type": "uint96"
        }
      ],
      "name": "mint",
      "outputs": [
        {
          "internalType": "uint256",
          "name": "tokenID",
          "type": "uint256"
        }
      ],
      "stateMutability": "payable",
      "type": "function"
    },
    {
      "inputs": [
        {
          "internalType": "address",
          "name": "minter",
          "type": "address"
        },
        {
          "internalType": "string",
          "name": "tokenURI",
          "type": "string"
        }
      ],
      "name": "mint",
      "outputs": [
        {
          "internalType": "uint256",
          "name": "tokenID",
          "type": "uint256"
        }
      ],
      "stateMutability": "nonpayable",
      "type": "function"
    },
    {
      "inputs": [
        {
          "internalType": "string",
          "name": "tokenURI",
          "type": "string"
        }
      ],
      "name": "mint",
      "outputs": [
        {
          "internalType": "uint256",
          "name": "tokenID",
          "type": "uint256"
        }
      ],
      "stateMutability": "nonpayable",
      "type": "function"
    },
    {
      "inputs": [],
      "name": "name",
      "outputs": [
        {
          "internalType": "string",
          "name": "",
          "type": "string"
        }
      ],
      "stateMutability": "view",
      "type": "function"
    },
    {
      "inputs": [],
      "name": "open",
      "outputs": [
        {
          "internalType": "bool",
          "name": "",
          "type": "bool"
        }
      ],
      "stateMutability": "view",
      "type": "function"
    },
    {
      "inputs": [],
      "name": "owner",
      "outputs": [
        {
          "internalType": "address",
          "name": "",
          "type": "address"
        }
      ],
      "stateMutability": "view",
      "type": "function"
    },
    {
      "inputs": [
        {
          "internalType": "uint256",
          "name": "tokenID",
          "type": "uint256"
        }
      ],
      "name": "ownerOf",
      "outputs": [
        {
          "internalType": "address",
          "name": "",
          "type": "address"
        }
      ],
      "stateMutability": "view",
      "type": "function"
    },
    {
      "inputs": [],
      "name": "parent",
      "outputs": [
        {
          "internalType": "address",
          "name": "parent_",
          "type": "address"
        }
      ],
      "stateMutability": "view",
      "type": "function"
    },
    {
      "inputs": [],
      "name": "paused",
      "outputs": [
        {
          "internalType": "bool",
          "name": "",
          "type": "bool"
        }
      ],
      "stateMutability": "view",
      "type": "function"
    },
    {
      "inputs": [
        {
          "internalType": "uint256",
          "name": "tokenID",
          "type": "uint256"
        },
        {
          "internalType": "uint256",
          "name": "price",
          "type": "uint256"
        }
      ],
      "name": "royaltyInfo",
      "outputs": [
        {
          "internalType": "address",
          "name": "receiver",
          "type": "address"
        },
        {
          "internalType": "uint256",
          "name": "royaltyAmount",
          "type": "uint256"
        }
      ],
      "stateMutability": "view",
      "type": "function"
    },
    {
      "inputs": [
        {
          "internalType": "address",
          "name": "from",
          "type": "address"
        },
        {
          "internalType": "address",
          "name": "to",
          "type": "address"
        },
        {
          "internalType": "uint256",
          "name": "tokenID",
          "type": "uint256"
        }
      ],
      "name": "safeTransferFrom",
      "outputs": [],
      "stateMutability": "payable",
      "type": "function"
    },
    {
      "inputs": [
        {
          "internalType": "address",
          "name": "from",
          "type": "address"
        },
        {
          "internalType": "address",
          "name": "to",
          "type": "address"
        },
        {
          "internalType": "uint256",
          "name": "tokenID",
          "type": "uint256"
        },
        {
          "internalType": "bytes",
          "name": "data",
          "type": "bytes"
        }
      ],
      "name": "safeTransferFrom",
      "outputs": [],
      "stateMutability": "payable",
      "type": "function"
    },
    {
      "inputs": [
        {
          "internalType": "address",
          "name": "operator",
          "type": "address"
        },
        {
          "internalType": "bool",
          "name": "approved",
          "type": "bool"
        }
      ],
      "name": "setApprovalForAll",
      "outputs": [],
      "stateMutability": "nonpayable",
      "type": "function"
    },
    {
      "inputs": [
        {
          "internalType": "uint256",
          "name": "price",
          "type": "uint256"
        }
      ],
      "name": "setDefaultPrice",
      "outputs": [],
      "stateMutability": "nonpayable",
      "type": "function"
    },
    {
      "inputs": [
        {
          "internalType": "address",
          "name": "receiver",
          "type": "address"
        },
        {
          "internalType": "uint96",
          "name": "fee",
          "type": "uint96"
        }
      ],
      "name": "setDefaultRoyalty",
      "outputs": [],
      "stateMutability": "nonpayable",
      "type": "function"
    },
    {
      "inputs": [
        {
          "internalType": "uint256",
          "name": "tokenID",
          "type": "uint256"
        }
      ],
      "name": "setTokenPrice",
      "outputs": [],
      "stateMutability": "nonpayable",
      "type": "function"
    },
    {
      "inputs": [
        {
          "internalType": "uint256",
          "name": "tokenID",
          "type": "uint256"
        },
        {
          "internalType": "uint256",
          "name": "price",
          "type": "uint256"
        }
      ],
      "name": "setTokenPrice",
      "outputs": [],
      "stateMutability": "nonpayable",
      "type": "function"
    },
    {
      "inputs": [
        {
          "internalType": "uint256",
          "name": "tokenID",
          "type": "uint256"
        },
        {
          "internalType": "address",
          "name": "receiver",
          "type": "address"
        },
        {
          "internalType": "uint96",
          "name": "fee",
          "type": "uint96"
        }
      ],
      "name": "setTokenRoyalty",
      "outputs": [],
      "stateMutability": "nonpayable",
      "type": "function"
    },
    {
      "inputs": [
        {
          "internalType": "bytes4",
          "name": "interfaceId",
          "type": "bytes4"
        }
      ],
      "name": "supportsInterface",
      "outputs": [
        {
          "internalType": "bool",
          "name": "",
          "type": "bool"
        }
      ],
      "stateMutability": "view",
      "type": "function"
    },
    {
      "inputs": [],
      "name": "symbol",
      "outputs": [
        {
          "internalType": "string",
          "name": "",
          "type": "string"
        }
      ],
      "stateMutability": "view",
      "type": "function"
    },
    {
      "inputs": [],
      "name": "template",
      "outputs": [
        {
          "internalType": "string",
          "name": "",
          "type": "string"
        }
      ],
      "stateMutability": "view",
      "type": "function"
    },
    {
      "inputs": [],
      "name": "togglePause",
      "outputs": [],
      "stateMutability": "nonpayable",
      "type": "function"
    },
    {
      "inputs": [
        {
          "internalType": "uint256",
          "name": "index",
          "type": "uint256"
        }
      ],
      "name": "tokenByIndex",
      "outputs": [
        {
          "internalType": "uint256",
          "name": "",
          "type": "uint256"
        }
      ],
      "stateMutability": "view",
      "type": "function"
    },
    {
      "inputs": [],
      "name": "tokenIdNext",
      "outputs": [
        {
          "internalType": "uint256",
          "name": "",
          "type": "uint256"
        }
      ],
      "stateMutability": "view",
      "type": "function"
    },
    {
      "inputs": [
        {
          "internalType": "address",
          "name": "owner",
          "type": "address"
        },
        {
          "internalType": "uint256",
          "name": "index",
          "type": "uint256"
        }
      ],
      "name": "tokenOfOwnerByIndex",
      "outputs": [
        {
          "internalType": "uint256",
          "name": "",
          "type": "uint256"
        }
      ],
      "stateMutability": "view",
      "type": "function"
    },
    {
      "inputs": [
        {
          "internalType": "uint256",
          "name": "",
          "type": "uint256"
        }
      ],
      "name": "tokenPrice",
      "outputs": [
        {
          "internalType": "uint256",
          "name": "",
          "type": "uint256"
        }
      ],
      "stateMutability": "view",
      "type": "function"
    },
    {
      "inputs": [
        {
          "internalType": "uint256",
          "name": "tokenID",
          "type": "uint256"
        }
      ],
      "name": "tokenURI",
      "outputs": [
        {
          "internalType": "string",
          "name": "",
          "type": "string"
        }
      ],
      "stateMutability": "view",
      "type": "function"
    },
    {
      "inputs": [],
      "name": "totalSupply",
      "outputs": [
        {
          "internalType": "uint256",
          "name": "",
          "type": "uint256"
        }
      ],
      "stateMutability": "view",
      "type": "function"
    },
    {
      "inputs": [
        {
          "internalType": "address",
          "name": "from",
          "type": "address"
        },
        {
          "internalType": "address",
          "name": "to",
          "type": "address"
        },
        {
          "internalType": "uint256",
          "name": "tokenID",
          "type": "uint256"
        }
      ],
      "name": "transferFrom",
      "outputs": [],
      "stateMutability": "payable",
      "type": "function"
    },
    {
      "inputs": [
        {
          "internalType": "address",
          "name": "newOwner",
          "type": "address"
        }
      ],
      "name": "transferOwnership",
      "outputs": [],
      "stateMutability": "nonpayable",
      "type": "function"
    },
    {
      "inputs": [],
      "name": "version",
      "outputs": [
        {
          "internalType": "uint256",
          "name": "",
          "type": "uint256"
        }
      ],
      "stateMutability": "view",
      "type": "function"
    },
    {
      "inputs": [],
      "name": "withdraw",
      "outputs": [],
      "stateMutability": "nonpayable",
      "type": "function"
    },
    {
      "inputs": [
        {
          "internalType": "address",
          "name": "token",
          "type": "address"
        }
      ],
      "name": "withdraw",
      "outputs": [],
      "stateMutability": "nonpayable",
      "type": "function"
    },
    {
      "stateMutability": "payable",
      "type": "receive"
    }
  ],
  "transactionHash": "0x3216158d59f96c4bc962669b8d86b382691560c3163e66e0c79b99d743e0b8b3",
  "args": [],
  "numDeployments": 9,
  "solcInputHash": "b4afde63fe1bc49daea17a74bf414cc8",
  "bytecode": "0x608060405234801561001057600080fd5b506131fb806100206000396000f3fe60806040526004361061026b5760003560e01c80636d3c7ec511610144578063c87b56dd116100b6578063e69e04b31161007a578063e69e04b314610761578063e97186ef14610777578063e985e9c514610797578063eb685c47146107e0578063f2fde38b14610800578063fcfff16f1461082057600080fd5b8063c87b56dd146106c1578063d0def521146106e1578063d4ddce8a14610701578063d85d3d271461072e578063d96a094a1461074e57600080fd5b80638da5cb5b116101085780638da5cb5b1461061157806395d89b4114610634578063a22cb46514610649578063b24f2d3914610669578063b88d4fde14610699578063c4ae3168146106ac57600080fd5b80636d3c7ec5146105365780636d3ed2aa146105565780636f2ddd93146105c657806370a08231146105db5780638bbf58b3146105fb57600080fd5b806342842e0e116101dd57806354fd4d50116101a157806354fd4d50146104935780635944c753146104a95780635c975abb146104c957806360f96a8f146104e15780636352211e146104f65780636a61e5fc1461051657600080fd5b806342842e0e1461040d57806342966c68146104205780634472167b146104405780634f6ccce71461045357806351cff8d91461047357600080fd5b8063158ef93e1161022f578063158ef93e1461034857806318160ddd1461036757806323b872dd146103865780632a55205a146103995780632f745c59146103d85780633ccfd60b146103f857600080fd5b806301ffc9a71461027757806304634d8d146102ac57806306fdde03146102ce578063081812fc146102f0578063095ea7b31461032857600080fd5b3661027257005b600080fd5b34801561028357600080fd5b5061029761029236600461296b565b61083a565b60405190151581526020015b60405180910390f35b3480156102b857600080fd5b506102cc6102c73660046129bb565b61087f565b005b3480156102da57600080fd5b506102e36108c5565b6040516102a39190612a3b565b3480156102fc57600080fd5b5061031061030b366004612a4e565b610957565b6040516001600160a01b0390911681526020016102a3565b34801561033457600080fd5b506102cc610343366004612a67565b6109ae565b34801561035457600080fd5b5060125461029790610100900460ff1681565b34801561037357600080fd5b506008545b6040519081526020016102a3565b6102cc610394366004612a91565b610a72565b3480156103a557600080fd5b506103b96103b4366004612acd565b610a82565b604080516001600160a01b0390931683526020830191909152016102a3565b3480156103e457600080fd5b506103786103f3366004612a67565b610b50565b34801561040457600080fd5b506102cc610bd7565b6102cc61041b366004612a91565b610c35565b34801561042c57600080fd5b506102cc61043b366004612a4e565b610c50565b61037861044e366004612bae565b610c80565b34801561045f57600080fd5b5061037861046e366004612a4e565b610d44565b34801561047f57600080fd5b506102cc61048e366004612c27565b610dae565b34801561049f57600080fd5b5061037860145481565b3480156104b557600080fd5b506102cc6104c4366004612c42565b610f1a565b3480156104d557600080fd5b5060125460ff16610297565b3480156104ed57600080fd5b50610310610f52565b34801561050257600080fd5b50610310610511366004612a4e565b610f9b565b34801561052257600080fd5b506102cc610531366004612a4e565b610fee565b34801561054257600080fd5b506102cc610551366004612a4e565b610ffa565b34801561056257600080fd5b5061059f610571366004612a4e565b6000908152600e60205260409020546001600160a01b03811691600160a01b9091046001600160601b031690565b604080516001600160a01b0390931683526001600160601b039091166020830152016102a3565b3480156105d257600080fd5b506102e3611032565b3480156105e757600080fd5b506103786105f6366004612c27565b6110c0565b34801561060757600080fd5b5061037860165481565b34801561061d57600080fd5b50600c5461010090046001600160a01b0316610310565b34801561064057600080fd5b506102e361112b565b34801561065557600080fd5b506102cc610664366004612c8c565b61113a565b34801561067557600080fd5b50600d546001600160a01b03811690600160a01b90046001600160601b031661059f565b6102cc6106a7366004612cc3565b6111a6565b3480156106b857600080fd5b506102cc6111b2565b3480156106cd57600080fd5b506102e36106dc366004612a4e565b6111f3565b3480156106ed57600080fd5b506103786106fc366004612d3f565b6112cb565b34801561070d57600080fd5b5061037861071c366004612a4e565b60106020526000908152604090205481565b34801561073a57600080fd5b50610378610749366004612d8d565b611349565b6102cc61075c366004612a4e565b61135a565b34801561076d57600080fd5b5061037860115481565b34801561078357600080fd5b506102cc610792366004612dc2565b61151d565b3480156107a357600080fd5b506102976107b2366004612ef7565b6001600160a01b03918216600090815260036020908152604080832093909416825291909152205460ff1690565b3480156107ec57600080fd5b506102cc6107fb366004612acd565b611578565b34801561080c57600080fd5b506102cc61081b366004612c27565b6115a9565b34801561082c57600080fd5b506017546102979060ff1681565b60006001600160e01b031982166330323f1960e01b148061086a57506001600160e01b0319821662f7235960e21b145b806108795750610879826115e1565b92915050565b600c5461010090046001600160a01b031633146108b75760405162461bcd60e51b81526004016108ae90612f21565b60405180910390fd5b6108c18282611609565b5050565b6060600580546108d490612f44565b80601f016020809104026020016040519081016040528092919081815260200182805461090090612f44565b801561094d5780601f106109225761010080835404028352916020019161094d565b820191906000526020600020905b81548152906001019060200180831161093057829003601f168201915b5050505050905090565b60008181526020819052604081205482906001600160a01b031661098d5760405162461bcd60e51b81526004016108ae90612f79565b6000838152600260205260409020546001600160a01b031691505b50919050565b6109b833826116d1565b610a045760405162461bcd60e51b815260206004820152601c60248201527f4e6f7420746f6b656e206f776e6572206e6f72206f70657261746f720000000060448201526064016108ae565b600081815260026020526040902080546001600160a01b0319166001600160a01b0384169081179091558190610a3982610f9b565b6001600160a01b03167f8c5be1e5ebec7d5bd14f71427d1e84f3dd0314c0f7b2291e5b200ac8c7c3b92560405160405180910390a45050565b610a7d83838361172c565b505050565b60008082600160801b8110610aa95760405162461bcd60e51b81526004016108ae90612fa3565b6000858152600e60209081526040918290208251808401909352546001600160a01b038116808452600160a01b9091046001600160601b031691830191909152610b1d575060408051808201909152600d546001600160a01b0381168252600160a01b90046001600160601b031660208201525b602081015161271090610b39906001600160601b031687612fe0565b610b439190612fff565b9051969095509350505050565b6000610b5b836110c0565b8210610b9a5760405162461bcd60e51b815260206004820152600e60248201526d496e76616c696420696e6465782160901b60448201526064016108ae565b6001600160a01b0383166000908152600960205260409020805483908110610bc457610bc4613021565b9060005260206000200154905092915050565b600c5461010090046001600160a01b03163314610c065760405162461bcd60e51b81526004016108ae90612f21565b60405133904780156108fc02916000818181858888f19350505050158015610c32573d6000803e3d6000fd5b50565b610a7d83838360405180602001604052806000815250611962565b80610c5b33826119ba565b610c775760405162461bcd60e51b81526004016108ae90613037565b6108c1826119f1565b60175460009060ff1680610ca45750600c546001600160a01b036101009091041633145b610cdd5760405162461bcd60e51b815260206004820152600a6024820152692737ba1036b4b73a32b960b11b60448201526064016108ae565b60125460ff1615610d1a5760405162461bcd60e51b81526020600482015260076024820152665061757365642160c81b60448201526064016108ae565b610d2486866112cb565b9050610d3081856119fa565b610d3b818484611a66565b95945050505050565b6008546000908210610d895760405162461bcd60e51b815260206004820152600e60248201526d496e76616c696420696e6465782160901b60448201526064016108ae565b60088281548110610d9c57610d9c613021565b90600052602060002001549050919050565b600c5461010090046001600160a01b03163314610ddd5760405162461bcd60e51b81526004016108ae90612f21565b6040516370a0823160e01b81523060048201526001600160a01b0382169063a9059cbb90339083906370a082319060240160206040518083038186803b158015610e2657600080fd5b505afa158015610e3a573d6000803e3d6000fd5b505050506040513d601f19601f82011682018060405250810190610e5e919061306e565b6040516001600160e01b031960e085901b1681526001600160a01b0390921660048301526024820152604401602060405180830381600087803b158015610ea457600080fd5b505af1158015610eb8573d6000803e3d6000fd5b505050506040513d601f19601f82011682018060405250810190610edc9190613087565b610c325760405162461bcd60e51b815260206004820152600f60248201526e15da5d1a191c985dc819985a5b1959608a1b60448201526064016108ae565b82610f2533826119ba565b610f415760405162461bcd60e51b81526004016108ae90613037565b610f4c848484611a66565b50505050565b6000602d303b14610f635750600090565b6010306001600160a01b0316803b806020016040519081016040528181526000908060200190933c610f94906130a4565b901c905090565b60008181526020819052604081205482906001600160a01b0316610fd15760405162461bcd60e51b81526004016108ae90612f79565b50506000908152602081905260409020546001600160a01b031690565b610c3281601154611578565b600c5461010090046001600160a01b031633146110295760405162461bcd60e51b81526004016108ae90612f21565b610c3281611b4b565b6013805461103f90612f44565b80601f016020809104026020016040519081016040528092919081815260200182805461106b90612f44565b80156110b85780601f1061108d576101008083540402835291602001916110b8565b820191906000526020600020905b81548152906001019060200180831161109b57829003601f168201915b505050505081565b60006001600160a01b03821661110f5760405162461bcd60e51b8152602060048201526014602482015273496e76616c6964207a65726f206164647265737360601b60448201526064016108ae565b506001600160a01b031660009081526001602052604090205490565b6060600680546108d490612f44565b3360008181526003602090815260408083206001600160a01b03871680855290835292819020805460ff191686151590811790915590519081529192917f17307eab39ab6107e8899845ad3d59bd9653f200f220920489ca2b5937696c31910160405180910390a35050565b610f4c84848484611962565b600c5461010090046001600160a01b031633146111e15760405162461bcd60e51b81526004016108ae90612f21565b6012546111f19060ff1615611bab565b565b60008181526020819052604090205460609082906001600160a01b031661122c5760405162461bcd60e51b81526004016108ae90612f79565b6000838152600760205260409020805461124590612f44565b80601f016020809104026020016040519081016040528092919081815260200182805461127190612f44565b80156112be5780601f10611293576101008083540402835291602001916112be565b820191906000526020600020905b8154815290600101906020018083116112a157829003601f168201915b5050505050915050919050565b60175460009060ff16806112ef5750600c546001600160a01b036101009091041633145b6113285760405162461bcd60e51b815260206004820152600a6024820152692737ba1036b4b73a32b960b11b60448201526064016108ae565b60168054906000611338836130c8565b919050559050610879838383611bf0565b600061087933836000806000610c80565b60008181526020819052604090205481906001600160a01b03166113905760405162461bcd60e51b81526004016108ae90612f79565b600082815260106020526040902054806113da5760405162461bcd60e51b815260206004820152600b60248201526a139bdd081d1bc81cd95b1b60aa1b60448201526064016108ae565b8034101561141d5760405162461bcd60e51b815260206004820152601060248201526f4e6f7420656e6f7567682066756e647360801b60448201526064016108ae565b600061142884610f9b565b90506001600160a01b038116611440576114406130e3565b6001600160a01b0381163314156114905760405162461bcd60e51b8152602060048201526014602482015273416c726561647920746f6b656e206f776e65722160601b60448201526064016108ae565b604051635c46a7ef60e11b81526001600160a01b0382166004820152336024820152604481018590526080606482015260006084820152309063b88d4fde90349060a4016000604051808303818588803b1580156114ed57600080fd5b505af1158015611501573d6000803e3d6000fd5b5050506000958652505060106020525050604082209190915550565b611528878787611bfb565b8060008151811061153b5761153b613021565b6020026020010151601760006101000a81548160ff02191690831515021790555061156584611b4b565b61156f8383611609565b50505050505050565b8161158333826119ba565b61159f5760405162461bcd60e51b81526004016108ae90613037565b610a7d83836119fa565b600c5461010090046001600160a01b031633146115d85760405162461bcd60e51b81526004016108ae90612f21565b610c3281611c6e565b60006001600160e01b03198216600162b7486560e01b03191480610879575061087982611cc8565b6001600160601b0381166127108111156116605760405162461bcd60e51b8152602060048201526018602482015277526f79616c7479206665652065786365656420707269636560401b60448201526064016108ae565b6040805180820182526001600160a01b0385168082526001600160601b0385166020928301819052600160a01b81028217600d558351918252918101919091527fa1edde4ed5c1392c90dccd8e051a4080b761850e49a24c77d826348a51e1f8dc91015b60405180910390a1505050565b6000806116dd83610f9b565b9050836001600160a01b0316816001600160a01b0316148061172457506001600160a01b0380821660009081526003602090815260408083209388168352929052205460ff165b949350505050565b8061173733826119ba565b6117535760405162461bcd60e51b81526004016108ae90613037565b6001600160a01b0384166117a95760405162461bcd60e51b815260206004820152601a60248201527f5472616e736665722066726f6d207a65726f206164647265737300000000000060448201526064016108ae565b6001600160a01b0383166117ff5760405162461bcd60e51b815260206004820152601860248201527f5472616e7366657220746f207a65726f2061646472657373000000000000000060448201526064016108ae565b61180882610f9b565b6001600160a01b0316846001600160a01b0316146118595760405162461bcd60e51b815260206004820152600e60248201526d233937b6903737ba1037bbb732b960911b60448201526064016108ae565b611864848484611ced565b600082815260026020526040902080546001600160a01b03191690556001600160a01b038481169084161461191b576001600160a01b038416600090815260016020819052604082208054919290916118be9084906130f9565b90915550506001600160a01b038316600090815260016020819052604082208054919290916118ee908490613110565b9091555050600082815260208190526040902080546001600160a01b0319166001600160a01b0385161790555b81836001600160a01b0316856001600160a01b03167fddf252ad1be2c89b69c2b068fc378daa952ba7f163c4a11628f55a4df523b3ef60405160405180910390a450505050565b61196d84848461172c565b61197984848484611cf8565b610f4c5760405162461bcd60e51b81526020600482015260126024820152712737ba1022a9219b9918a932b1b2b4bb32b960711b60448201526064016108ae565b60006119c683836116d1565b806119ea5750826001600160a01b03166119df83610957565b6001600160a01b0316145b9392505050565b610c3281611da6565b80600160801b8110611a1e5760405162461bcd60e51b81526004016108ae90612fa3565b60008381526010602090815260409182902084905581518581529081018490527f2f8c61aa79deaa9c961d54f640a154df4960a56a5989d25df0148be783dc3f5b91016116c4565b6001600160601b038116612710811115611abd5760405162461bcd60e51b8152602060048201526018602482015277526f79616c7479206665652065786365656420707269636560401b60448201526064016108ae565b6040805180820182526001600160a01b038581168083526001600160601b03868116602080860182815260008c8152600e835288902096519051909316600160a01b029290941691909117909355835188815291820152918201527f2595213009f64247e2789cf9981bcc53ee736a6aa52042a651aa1549ae6fff619060600160405180910390a150505050565b80600160801b8110611b6f5760405162461bcd60e51b81526004016108ae90612fa3565b60118290556040518281527f9f7a6492db3843bc01c0adb23cd27be964155c1d45c566f2ee32f28faf4eb6059060200160405180910390a15050565b6012805460ff1916821515908117909155604051339160ff161515907f8b265f737315073a655a642868ed756ba7e3b6c391b06dbbf70370aab7f7f06890600090a350565b610a7d838383611dcb565b60155460ff1615611c1e5760405162461bcd60e51b81526004016108ae90613128565b6015805460ff191660019081179091556016556040805180820190915260088152674f70656e4e46547360c01b6020820152611c5b906004611dfb565b611c658383611e4c565b610a7d81611ea3565b600c80546001600160a01b03838116610100818102610100600160a81b031985161790945560405193909204169182907f8be0079c531659141344cd1fd0a4f28419497f9722a3daafe3b4186f6b6457e090600090a35050565b60006001600160e01b03198216632e5e69fd60e01b1480610879575061087982611edc565b610a7d838383611f01565b60006001600160a01b0384163b1580610d3b5750604051630a85bd0160e11b808252906001600160a01b0386169063150b7a0290611d409033908a9089908990600401613155565b602060405180830381600087803b158015611d5a57600080fd5b505af1158015611d6e573d6000803e3d6000fd5b505050506040513d601f19601f82011682018060405250810190611d929190613192565b6001600160e01b0319161495945050505050565b6000818152600e602090815260408083208390556010909152812055610c3281611f3a565b611df08160115485611deb600c546001600160a01b036101009091041690565b61200c565b610a7d83838361234c565b601254610100900460ff1615611e235760405162461bcd60e51b81526004016108ae90613128565b6012805461ff0019166101001790558151611e45906013906020850190612886565b5060145550565b60045460ff1615611e6f5760405162461bcd60e51b81526004016108ae90613128565b6004805460ff191660011790558151611e8f906005906020850190612886565b508051610a7d906006906020840190612886565b600c5460ff1615611ec65760405162461bcd60e51b81526004016108ae90613128565b600c805460ff19166001179055610c3281611c6e565b60006001600160e01b031982166398396bd360e01b14806108795750610879826123a5565b600081815260106020526040902054611f2090829084611deb83610f9b565b600081815260106020526040812055610a7d8383836123ca565b6000611f4582610f9b565b9050611f5181836123de565b6000828152600b6020526040812054600854909190611f72906001906130f9565b9050600060088281548110611f8957611f89613021565b6000918252602080832090910154808352600b909152604080832086905587835282209190915560088054919250829185908110611fc957611fc9613021565b6000918252602090912001556008805480611fe657611fe66131af565b60019003818190600052602060002001600090559055612005856124ec565b5050505050565b600f5460ff161561204e5760405162461bcd60e51b815260206004820152600c60248201526b4e6f2072652d656e7472792160a01b60448201526064016108ae565b600f805460ff191660011790553483111561209e5760405162461bcd60e51b815260206004820152601060248201526f4e6f7420656e6f7567682066756e647360801b60448201526064016108ae565b346120a85761233c565b6001600160a01b0382166120ee5760405162461bcd60e51b815260206004820152600d60248201526c24b73b30b634b210313abcb2b960991b60448201526064016108ae565b6001600160a01b0381166121355760405162461bcd60e51b815260206004820152600e60248201526d24b73b30b634b21039b2b63632b960911b60448201526064016108ae565b6000808034861580159061215b5750846001600160a01b0316866001600160a01b031614155b156122685761216a8888610a82565b90945092506001600160a01b03841661218257600092505b868311156121c65760405162461bcd60e51b8152602060048201526011602482015270496e76616c696420726f79616c7469657360781b60448201526064016108ae565b6121d083886130f9565b9150811561221d576121e282826130f9565b6040519091506001600160a01b0386169083156108fc029084906000818181858888f1935050505015801561221b573d6000803e3d6000fd5b505b82156122685761222d83826130f9565b6040519091506001600160a01b0385169084156108fc029085906000818181858888f19350505050158015612266573d6000803e3d6000fd5b505b34816122748585613110565b61227e9190613110565b1461228b5761228b6130e3565b80156122c9576040516001600160a01b0387169082156108fc029083906000818181858888f193505050501580156122c7573d6000803e3d6000fd5b505b60408051898152602081018990526001600160a01b038781168284015260608201859052868116608083015260a08201869052881660c082015260e0810183905290517f746889be52a242154dfc6d4e1c55b36e2f81cfc340b11f28ef86b142ca25d937918190036101000190a1505050505b5050600f805460ff191690555050565b612356838261250c565b600880546000838152600b60205260408120829055600182018355919091527ff3f7a9fe364faab93b216da50a3214154f22a0a2b415b23a84c8169e8b636ee301819055610a7d83838361254a565b60006001600160e01b03198216632e103c0560e11b1480610879575061087982612575565b6123d483826123de565b610a7d828261250c565b6000818152600a60205260408120549060016123f9856110c0565b61240391906130f9565b905080821461249a576001600160a01b038416600090815260096020526040812080548390811061243657612436613021565b906000526020600020015490508060096000876001600160a01b03166001600160a01b03168152602001908152602001600020848154811061247a5761247a613021565b6000918252602080832090910192909255918252600a9052604090208290555b6000838152600a602090815260408083208390556001600160a01b0387168352600990915290208054806124d0576124d06131af565b6001900381819060005260206000200160009055905550505050565b60008181526007602052604081206125039161290a565b610c328161259a565b6001600160a01b0390911660009081526009602081815260408084208054868652600a84529185208290559282526001810183559183529091200155565b6000818152600760209081526040909120835161256992850190612886565b50610a7d838383612666565b600063152a902d60e11b6001600160e01b0319831614806108795750610879826127f1565b60006125a582610f9b565b6001600160a01b0381166000908152600160205260409020549091506125cd576125cd6130e3565b6001600160a01b038116600090815260016020819052604082208054919290916125f89084906130f9565b9091555050600082815260026020908152604080832080546001600160a01b0319908116909155918390528083208054909216909155518391906001600160a01b038416907fddf252ad1be2c89b69c2b068fc378daa952ba7f163c4a11628f55a4df523b3ef908390a45050565b6001600160a01b0383166126b35760405162461bcd60e51b81526020600482015260146024820152734d696e7420746f207a65726f206164647265737360601b60448201526064016108ae565b6000818152602081905260409020546001600160a01b03161561270f5760405162461bcd60e51b8152602060048201526014602482015273151bdad95b88185b1c9958591e481b5a5b9d195960621b60448201526064016108ae565b6001600160a01b0383166000908152600160208190526040822080549192909161273a908490613110565b909155505060008181526020819052604080822080546001600160a01b0319166001600160a01b03871690811790915590518392907fddf252ad1be2c89b69c2b068fc378daa952ba7f163c4a11628f55a4df523b3ef908290a46127b06000848360405180602001604052806000815250611cf8565b610a7d5760405162461bcd60e51b8152602060048201526012602482015271139bdd08115490cdcc8c549958d95a5d995960721b60448201526064016108ae565b60006307f5828d60e41b6001600160e01b031983161480610879575061087982600063780e9d6360e01b6001600160e01b0319831614806108795750610879826000635b5e139f60e01b6001600160e01b03198316148061087957506108798260006380ac58cd60e01b6001600160e01b03198316148061087957506001600160e01b031982166301ffc9a760e01b14610879565b82805461289290612f44565b90600052602060002090601f0160209004810192826128b457600085556128fa565b82601f106128cd57805160ff19168380011785556128fa565b828001600101855582156128fa579182015b828111156128fa5782518255916020019190600101906128df565b50612906929150612940565b5090565b50805461291690612f44565b6000825580601f10612926575050565b601f016020900490600052602060002090810190610c3291905b5b808211156129065760008155600101612941565b6001600160e01b031981168114610c3257600080fd5b60006020828403121561297d57600080fd5b81356119ea81612955565b80356001600160a01b038116811461299f57600080fd5b919050565b80356001600160601b038116811461299f57600080fd5b600080604083850312156129ce57600080fd5b6129d783612988565b91506129e5602084016129a4565b90509250929050565b6000815180845260005b81811015612a14576020818501810151868301820152016129f8565b81811115612a26576000602083870101525b50601f01601f19169290920160200192915050565b6020815260006119ea60208301846129ee565b600060208284031215612a6057600080fd5b5035919050565b60008060408385031215612a7a57600080fd5b612a8383612988565b946020939093013593505050565b600080600060608486031215612aa657600080fd5b612aaf84612988565b9250612abd60208501612988565b9150604084013590509250925092565b60008060408385031215612ae057600080fd5b50508035926020909101359150565b634e487b7160e01b600052604160045260246000fd5b604051601f8201601f1916810167ffffffffffffffff81118282101715612b2e57612b2e612aef565b604052919050565b600067ffffffffffffffff831115612b5057612b50612aef565b612b63601f8401601f1916602001612b05565b9050828152838383011115612b7757600080fd5b828260208301376000602084830101529392505050565b600082601f830112612b9f57600080fd5b6119ea83833560208501612b36565b600080600080600060a08688031215612bc657600080fd5b612bcf86612988565b9450602086013567ffffffffffffffff811115612beb57600080fd5b612bf788828901612b8e565b94505060408601359250612c0d60608701612988565b9150612c1b608087016129a4565b90509295509295909350565b600060208284031215612c3957600080fd5b6119ea82612988565b600080600060608486031215612c5757600080fd5b83359250612c6760208501612988565b9150612c75604085016129a4565b90509250925092565b8015158114610c3257600080fd5b60008060408385031215612c9f57600080fd5b612ca883612988565b91506020830135612cb881612c7e565b809150509250929050565b60008060008060808587031215612cd957600080fd5b612ce285612988565b9350612cf060208601612988565b925060408501359150606085013567ffffffffffffffff811115612d1357600080fd5b8501601f81018713612d2457600080fd5b612d3387823560208401612b36565b91505092959194509250565b60008060408385031215612d5257600080fd5b612d5b83612988565b9150602083013567ffffffffffffffff811115612d7757600080fd5b612d8385828601612b8e565b9150509250929050565b600060208284031215612d9f57600080fd5b813567ffffffffffffffff811115612db657600080fd5b61172484828501612b8e565b600080600080600080600060e0888a031215612ddd57600080fd5b873567ffffffffffffffff80821115612df557600080fd5b612e018b838c01612b8e565b985060209150818a013581811115612e1857600080fd5b612e248c828d01612b8e565b985050612e3360408b01612988565b965060608a01359550612e4860808b01612988565b9450612e5660a08b016129a4565b935060c08a013581811115612e6a57600080fd5b8a01601f81018c13612e7b57600080fd5b803582811115612e8d57612e8d612aef565b8060051b9250612e9e848401612b05565b818152928201840192848101908e851115612eb857600080fd5b928501925b84841015612ee25783359250612ed283612c7e565b8282529285019290850190612ebd565b80965050505050505092959891949750929550565b60008060408385031215612f0a57600080fd5b612f1383612988565b91506129e560208401612988565b6020808252600990820152682737ba1037bbb732b960b91b604082015260600190565b600181811c90821680612f5857607f821691505b602082108114156109a857634e487b7160e01b600052602260045260246000fd5b60208082526010908201526f125b9d985b1a59081d1bdad95b88125160821b604082015260600190565b6020808252600d908201526c546f6f20657870656e7369766560981b604082015260600190565b634e487b7160e01b600052601160045260246000fd5b6000816000190483118215151615612ffa57612ffa612fca565b500290565b60008261301c57634e487b7160e01b600052601260045260246000fd5b500490565b634e487b7160e01b600052603260045260246000fd5b6020808252601c908201527f4e6f7420746f6b656e206f776e6572206e6f7220617070726f76656400000000604082015260600190565b60006020828403121561308057600080fd5b5051919050565b60006020828403121561309957600080fd5b81516119ea81612c7e565b805160208083015191908110156109a85760001960209190910360031b1b16919050565b60006000198214156130dc576130dc612fca565b5060010190565b634e487b7160e01b600052600160045260246000fd5b60008282101561310b5761310b612fca565b500390565b6000821982111561312357613123612fca565b500190565b602080825260139082015272105b1c9958591e481a5b9a5d1a585b1a5e9959606a1b604082015260600190565b6001600160a01b0385811682528416602082015260408101839052608060608201819052600090613188908301846129ee565b9695505050505050565b6000602082840312156131a457600080fd5b81516119ea81612955565b634e487b7160e01b600052603160045260246000fdfea2646970667358221220c85fd96b4d150a3af7a1b1dc09ea43a3e2547c5368fe38b795ea049ba9d06f0964736f6c63430008090033",
  "devdoc": {
    "kind": "dev",
    "methods": {
      "burn(uint256)": {
        "params": {
          "tokenID": "tokenID of NFT to burn"
        }
      },
      "setDefaultRoyalty(address,uint96)": {
        "params": {
          "fee": ": fee Numerator, less than 10000",
          "receiver": ": address of the royalty receiver, or address(0) to reset"
        }
      },
      "setTokenRoyalty(uint256,address,uint96)": {
        "params": {
          "fee": ": fee Numerator, less than 10000",
          "receiver": ": address of the royalty receiver, or address(0) to reset",
          "tokenID": ": token ID"
        }
      },
      "supportsInterface(bytes4)": {
        "params": {
          "interfaceId": "interfaceId to test"
        }
      }
    },
    "title": "OpenNFTs smartcontract",
    "version": 1
  },
  "userdoc": {
    "kind": "user",
    "methods": {
      "burn(uint256)": {
        "notice": "burn NFT"
      },
      "open()": {
        "notice": "Mint NFT allowed to everyone or only collection owner"
      },
      "setDefaultRoyalty(address,uint96)": {
        "notice": "SET default royalty configuration"
      },
      "setTokenRoyalty(uint256,address,uint96)": {
        "notice": "SET token royalty configuration"
      },
      "supportsInterface(bytes4)": {
        "notice": "test if this interface is supported"
      },
      "tokenIdNext()": {
        "notice": "tokenID of next minted NFT"
      },
      "withdraw()": {
        "notice": "withdraw eth"
      },
      "withdraw(address)": {
        "notice": "withdraw token"
      }
    },
    "version": 1
  },
  "storageLayout": {
    "storage": [
      {
        "astId": 5365,
        "contract": "contracts/next/OpenNFTsV4.sol:OpenNFTsV4",
        "label": "_owners",
        "offset": 0,
        "slot": "0",
        "type": "t_mapping(t_uint256,t_address)"
      },
      {
        "astId": 5369,
        "contract": "contracts/next/OpenNFTsV4.sol:OpenNFTsV4",
        "label": "_balances",
        "offset": 0,
        "slot": "1",
        "type": "t_mapping(t_address,t_uint256)"
      },
      {
        "astId": 5373,
        "contract": "contracts/next/OpenNFTsV4.sol:OpenNFTsV4",
        "label": "_tokenApprovals",
        "offset": 0,
        "slot": "2",
        "type": "t_mapping(t_uint256,t_address)"
      },
      {
        "astId": 5379,
        "contract": "contracts/next/OpenNFTsV4.sol:OpenNFTsV4",
        "label": "_operatorApprovals",
        "offset": 0,
        "slot": "3",
        "type": "t_mapping(t_address,t_mapping(t_address,t_bool))"
      },
      {
        "astId": 6278,
        "contract": "contracts/next/OpenNFTsV4.sol:OpenNFTsV4",
        "label": "_openERC721MetadataInitialized",
        "offset": 0,
        "slot": "4",
        "type": "t_bool"
      },
      {
        "astId": 6280,
        "contract": "contracts/next/OpenNFTsV4.sol:OpenNFTsV4",
        "label": "_name",
        "offset": 0,
        "slot": "5",
        "type": "t_string_storage"
      },
      {
        "astId": 6282,
        "contract": "contracts/next/OpenNFTsV4.sol:OpenNFTsV4",
        "label": "_symbol",
        "offset": 0,
        "slot": "6",
        "type": "t_string_storage"
      },
      {
        "astId": 6286,
        "contract": "contracts/next/OpenNFTsV4.sol:OpenNFTsV4",
        "label": "_tokenURIs",
        "offset": 0,
        "slot": "7",
        "type": "t_mapping(t_uint256,t_string_storage)"
      },
      {
        "astId": 5955,
        "contract": "contracts/next/OpenNFTsV4.sol:OpenNFTsV4",
        "label": "_allTokens",
        "offset": 0,
        "slot": "8",
        "type": "t_array(t_uint256)dyn_storage"
      },
      {
        "astId": 5960,
        "contract": "contracts/next/OpenNFTsV4.sol:OpenNFTsV4",
        "label": "_ownedTokens",
        "offset": 0,
        "slot": "9",
        "type": "t_mapping(t_address,t_array(t_uint256)dyn_storage)"
      },
      {
        "astId": 5964,
        "contract": "contracts/next/OpenNFTsV4.sol:OpenNFTsV4",
        "label": "_ownedTokensIndex",
        "offset": 0,
        "slot": "10",
        "type": "t_mapping(t_uint256,t_uint256)"
      },
      {
        "astId": 5968,
        "contract": "contracts/next/OpenNFTsV4.sol:OpenNFTsV4",
        "label": "_allTokensIndex",
        "offset": 0,
        "slot": "11",
        "type": "t_mapping(t_uint256,t_uint256)"
      },
      {
        "astId": 5130,
        "contract": "contracts/next/OpenNFTsV4.sol:OpenNFTsV4",
        "label": "_openERC173Initialized",
        "offset": 0,
        "slot": "12",
        "type": "t_bool"
      },
      {
        "astId": 5132,
        "contract": "contracts/next/OpenNFTsV4.sol:OpenNFTsV4",
        "label": "_owner",
        "offset": 1,
        "slot": "12",
        "type": "t_address"
      },
      {
        "astId": 5244,
        "contract": "contracts/next/OpenNFTsV4.sol:OpenNFTsV4",
        "label": "_defaultRoyaltyInfo",
        "offset": 0,
        "slot": "13",
        "type": "t_struct(RoyaltyInfo)5241_storage"
      },
      {
        "astId": 5249,
        "contract": "contracts/next/OpenNFTsV4.sol:OpenNFTsV4",
        "label": "_tokenRoyaltyInfo",
        "offset": 0,
        "slot": "14",
        "type": "t_mapping(t_uint256,t_struct(RoyaltyInfo)5241_storage)"
      },
      {
        "astId": 6512,
        "contract": "contracts/next/OpenNFTsV4.sol:OpenNFTsV4",
        "label": "_locked",
        "offset": 0,
        "slot": "15",
        "type": "t_bool"
      },
      {
        "astId": 6552,
        "contract": "contracts/next/OpenNFTsV4.sol:OpenNFTsV4",
        "label": "tokenPrice",
        "offset": 0,
        "slot": "16",
        "type": "t_mapping(t_uint256,t_uint256)"
      },
      {
        "astId": 6554,
        "contract": "contracts/next/OpenNFTsV4.sol:OpenNFTsV4",
        "label": "defaultPrice",
        "offset": 0,
        "slot": "17",
        "type": "t_uint256"
      },
      {
        "astId": 7354,
        "contract": "contracts/next/OpenNFTsV4.sol:OpenNFTsV4",
        "label": "_paused",
        "offset": 0,
        "slot": "18",
        "type": "t_bool"
      },
      {
        "astId": 6454,
        "contract": "contracts/next/OpenNFTsV4.sol:OpenNFTsV4",
        "label": "initialized",
        "offset": 1,
        "slot": "18",
        "type": "t_bool"
      },
      {
        "astId": 6456,
        "contract": "contracts/next/OpenNFTsV4.sol:OpenNFTsV4",
        "label": "template",
        "offset": 0,
        "slot": "19",
        "type": "t_string_storage"
      },
      {
        "astId": 6458,
        "contract": "contracts/next/OpenNFTsV4.sol:OpenNFTsV4",
        "label": "version",
        "offset": 0,
        "slot": "20",
        "type": "t_uint256"
      },
      {
        "astId": 7098,
        "contract": "contracts/next/OpenNFTsV4.sol:OpenNFTsV4",
        "label": "_openNFTsInitialized",
        "offset": 0,
        "slot": "21",
        "type": "t_bool"
      },
      {
        "astId": 7101,
        "contract": "contracts/next/OpenNFTsV4.sol:OpenNFTsV4",
        "label": "tokenIdNext",
        "offset": 0,
        "slot": "22",
        "type": "t_uint256"
      },
      {
        "astId": 21664,
        "contract": "contracts/next/OpenNFTsV4.sol:OpenNFTsV4",
        "label": "open",
        "offset": 0,
        "slot": "23",
        "type": "t_bool"
      }
    ],
    "types": {
      "t_address": {
        "encoding": "inplace",
        "label": "address",
        "numberOfBytes": "20"
      },
      "t_array(t_uint256)dyn_storage": {
        "base": "t_uint256",
        "encoding": "dynamic_array",
        "label": "uint256[]",
        "numberOfBytes": "32"
      },
      "t_bool": {
        "encoding": "inplace",
        "label": "bool",
        "numberOfBytes": "1"
      },
      "t_mapping(t_address,t_array(t_uint256)dyn_storage)": {
        "encoding": "mapping",
        "key": "t_address",
        "label": "mapping(address => uint256[])",
        "numberOfBytes": "32",
        "value": "t_array(t_uint256)dyn_storage"
      },
      "t_mapping(t_address,t_bool)": {
        "encoding": "mapping",
        "key": "t_address",
        "label": "mapping(address => bool)",
        "numberOfBytes": "32",
        "value": "t_bool"
      },
      "t_mapping(t_address,t_mapping(t_address,t_bool))": {
        "encoding": "mapping",
        "key": "t_address",
        "label": "mapping(address => mapping(address => bool))",
        "numberOfBytes": "32",
        "value": "t_mapping(t_address,t_bool)"
      },
      "t_mapping(t_address,t_uint256)": {
        "encoding": "mapping",
        "key": "t_address",
        "label": "mapping(address => uint256)",
        "numberOfBytes": "32",
        "value": "t_uint256"
      },
      "t_mapping(t_uint256,t_address)": {
        "encoding": "mapping",
        "key": "t_uint256",
        "label": "mapping(uint256 => address)",
        "numberOfBytes": "32",
        "value": "t_address"
      },
      "t_mapping(t_uint256,t_string_storage)": {
        "encoding": "mapping",
        "key": "t_uint256",
        "label": "mapping(uint256 => string)",
        "numberOfBytes": "32",
        "value": "t_string_storage"
      },
      "t_mapping(t_uint256,t_struct(RoyaltyInfo)5241_storage)": {
        "encoding": "mapping",
        "key": "t_uint256",
        "label": "mapping(uint256 => struct OpenERC2981.RoyaltyInfo)",
        "numberOfBytes": "32",
        "value": "t_struct(RoyaltyInfo)5241_storage"
      },
      "t_mapping(t_uint256,t_uint256)": {
        "encoding": "mapping",
        "key": "t_uint256",
        "label": "mapping(uint256 => uint256)",
        "numberOfBytes": "32",
        "value": "t_uint256"
      },
      "t_string_storage": {
        "encoding": "bytes",
        "label": "string",
        "numberOfBytes": "32"
      },
      "t_struct(RoyaltyInfo)5241_storage": {
        "encoding": "inplace",
        "label": "struct OpenERC2981.RoyaltyInfo",
        "members": [
          {
            "astId": 5238,
            "contract": "contracts/next/OpenNFTsV4.sol:OpenNFTsV4",
            "label": "receiver",
            "offset": 0,
            "slot": "0",
            "type": "t_address"
          },
          {
            "astId": 5240,
            "contract": "contracts/next/OpenNFTsV4.sol:OpenNFTsV4",
            "label": "fraction",
            "offset": 20,
            "slot": "0",
            "type": "t_uint96"
          }
        ],
        "numberOfBytes": "32"
      },
      "t_uint256": {
        "encoding": "inplace",
        "label": "uint256",
        "numberOfBytes": "32"
      },
      "t_uint96": {
        "encoding": "inplace",
        "label": "uint96",
        "numberOfBytes": "12"
      }
    }
  }
}