{
  "address": "0x59Af3C30212b5B33526b02A8E9D7E29387159EAA",
  "abi": [
    {
      "inputs": [],
      "stateMutability": "nonpayable",
      "type": "constructor"
    },
    {
      "anonymous": false,
      "inputs": [
        {
          "indexed": true,
          "internalType": "address",
          "name": "clone",
          "type": "address"
        },
        {
          "indexed": true,
          "internalType": "address",
          "name": "creator",
          "type": "address"
        }
      ],
      "name": "NewKredeumNFTs",
      "type": "event"
    },
    {
      "inputs": [],
      "name": "createKredeumNFTs",
      "outputs": [
        {
          "internalType": "address",
          "name": "clone",
          "type": "address"
        }
      ],
      "stateMutability": "nonpayable",
      "type": "function"
    }
  ],
  "transactionHash": "0xb00742463471cdf8e2f3070512b7ffad93e25ae8dc6783c9c86b4b8887389b99",
  "args": [],
  "solcInputHash": "ae5e93a874b1c4a20625187eb0513180",
  "bytecode": "0x60a060405234801561001057600080fd5b5060405161001d9061004f565b604051809103906000f080158015610039573d6000803e3d6000fd5b5060601b6001600160601b03191660805261005c565b611f438061020b83390190565b60805160601c6101926100796000396000605b01526101926000f3fe608060405234801561001057600080fd5b506004361061002b5760003560e01c8063e04e8a3014610030575b600080fd5b610038610054565b6040516001600160a01b03909116815260200160405180910390f35b600061007f7f00000000000000000000000000000000000000000000000000000000000000006100bb565b60405190915033906001600160a01b038316907faa65b7066686f4f92a35572ae28faeadd54fc561ed0908d949e53c9ae0175de090600090a390565b6000604051733d602d80600a3d3981f3363d3d373d3d3d363d7360601b81528260601b60148201526e5af43d82803e903d91602b57fd5bf360881b60288201526037816000f09150506001600160a01b0381166101575760405162461bcd60e51b8152602060048201526016602482015275115490cc4c4d8dce8818dc99585d194819985a5b195960521b604482015260640160405180910390fd5b91905056fea2646970667358221220bc5297af6f10ca1cd65fcdca48b317f3709605c2fd2c7f136435c8360d9f6b3964736f6c6343000804003360806040523480156200001157600080fd5b50604080518082018252600c81526b4b72656465756d204e46547360a01b60208083019182528351808501909452600384526213919560ea1b9084015281519192916200006191600091620000f0565b50805162000077906001906020840190620000f0565b505050620000946200008e6200009a60201b60201c565b6200009e565b620001d3565b3390565b600b80546001600160a01b038381166001600160a01b0319831681179093556040519116919082907f8be0079c531659141344cd1fd0a4f28419497f9722a3daafe3b4186f6b6457e090600090a35050565b828054620000fe9062000196565b90600052602060002090601f0160209004810192826200012257600085556200016d565b82601f106200013d57805160ff19168380011785556200016d565b828001600101855582156200016d579182015b828111156200016d57825182559160200191906001019062000150565b506200017b9291506200017f565b5090565b5b808211156200017b576000815560010162000180565b600181811c90821680620001ab57607f821691505b60208210811415620001cd57634e487b7160e01b600052602260045260246000fd5b50919050565b611d6080620001e36000396000f3fe608060405234801561001057600080fd5b506004361061012c5760003560e01c806370a08231116100ad578063b88d4fde11610071578063b88d4fde14610266578063c87b56dd14610279578063e985e9c51461028c578063eacabe14146102c8578063f2fde38b146102db57600080fd5b806370a082311461021f578063715018a6146102325780638da5cb5b1461023a57806395d89b411461024b578063a22cb4651461025357600080fd5b806323b872dd116100f457806323b872dd146101c05780632f745c59146101d357806342842e0e146101e65780634f6ccce7146101f95780636352211e1461020c57600080fd5b806301ffc9a71461013157806306fdde0314610159578063081812fc1461016e578063095ea7b31461019957806318160ddd146101ae575b600080fd5b61014461013f366004611a5b565b6102ee565b60405190151581526020015b60405180910390f35b610161610319565b6040516101509190611b43565b61018161017c366004611a93565b6103ab565b6040516001600160a01b039091168152602001610150565b6101ac6101a7366004611a32565b610438565b005b6008545b604051908152602001610150565b6101ac6101ce3660046118e5565b61054e565b6101b26101e1366004611a32565b61057f565b6101ac6101f43660046118e5565b610615565b6101b2610207366004611a93565b610630565b61018161021a366004611a93565b6106d1565b6101b261022d366004611899565b610748565b6101ac6107cf565b600b546001600160a01b0316610181565b610161610835565b6101ac610261366004611999565b610844565b6101ac610274366004611920565b610909565b610161610287366004611a93565b610941565b61014461029a3660046118b3565b6001600160a01b03918216600090815260056020908152604080832093909416825291909152205460ff1690565b6101b26102d63660046119d3565b61094c565b6101ac6102e9366004611899565b610984565b60006001600160e01b03198216633ab2af8560e21b1480610313575061031382610a4f565b92915050565b60606000805461032890611c68565b80601f016020809104026020016040519081016040528092919081815260200182805461035490611c68565b80156103a15780601f10610376576101008083540402835291602001916103a1565b820191906000526020600020905b81548152906001019060200180831161038457829003601f168201915b5050505050905090565b60006103b682610a74565b61041c5760405162461bcd60e51b815260206004820152602c60248201527f4552433732313a20617070726f76656420717565727920666f72206e6f6e657860448201526b34b9ba32b73a103a37b5b2b760a11b60648201526084015b60405180910390fd5b506000908152600460205260409020546001600160a01b031690565b6000610443826106d1565b9050806001600160a01b0316836001600160a01b031614156104b15760405162461bcd60e51b815260206004820152602160248201527f4552433732313a20617070726f76616c20746f2063757272656e74206f776e656044820152603960f91b6064820152608401610413565b336001600160a01b03821614806104cd57506104cd813361029a565b61053f5760405162461bcd60e51b815260206004820152603860248201527f4552433732313a20617070726f76652063616c6c6572206973206e6f74206f7760448201527f6e6572206e6f7220617070726f76656420666f7220616c6c00000000000000006064820152608401610413565b6105498383610a91565b505050565b6105583382610aff565b6105745760405162461bcd60e51b815260040161041390611ba8565b610549838383610be9565b600061058a83610748565b82106105ec5760405162461bcd60e51b815260206004820152602b60248201527f455243373231456e756d657261626c653a206f776e657220696e646578206f7560448201526a74206f6620626f756e647360a81b6064820152608401610413565b506001600160a01b03919091166000908152600660209081526040808320938352929052205490565b61054983838360405180602001604052806000815250610909565b600061063b60085490565b821061069e5760405162461bcd60e51b815260206004820152602c60248201527f455243373231456e756d657261626c653a20676c6f62616c20696e646578206f60448201526b7574206f6620626f756e647360a01b6064820152608401610413565b600882815481106106bf57634e487b7160e01b600052603260045260246000fd5b90600052602060002001549050919050565b6000818152600260205260408120546001600160a01b0316806103135760405162461bcd60e51b815260206004820152602960248201527f4552433732313a206f776e657220717565727920666f72206e6f6e657869737460448201526832b73a103a37b5b2b760b91b6064820152608401610413565b60006001600160a01b0382166107b35760405162461bcd60e51b815260206004820152602a60248201527f4552433732313a2062616c616e636520717565727920666f7220746865207a65604482015269726f206164647265737360b01b6064820152608401610413565b506001600160a01b031660009081526003602052604090205490565b600b546001600160a01b031633146108295760405162461bcd60e51b815260206004820181905260248201527f4f776e61626c653a2063616c6c6572206973206e6f7420746865206f776e65726044820152606401610413565b6108336000610d94565b565b60606001805461032890611c68565b6001600160a01b03821633141561089d5760405162461bcd60e51b815260206004820152601960248201527f4552433732313a20617070726f766520746f2063616c6c6572000000000000006044820152606401610413565b3360008181526005602090815260408083206001600160a01b03871680855290835292819020805460ff191686151590811790915590519081529192917f17307eab39ab6107e8899845ad3d59bd9653f200f220920489ca2b5937696c31910160405180910390a35050565b6109133383610aff565b61092f5760405162461bcd60e51b815260040161041390611ba8565b61093b84848484610de6565b50505050565b606061031382610e19565b600061095c600c80546001019055565b6000610967600c5490565b90506109738482610f88565b61097d8184610fa6565b9392505050565b600b546001600160a01b031633146109de5760405162461bcd60e51b815260206004820181905260248201527f4f776e61626c653a2063616c6c6572206973206e6f7420746865206f776e65726044820152606401610413565b6001600160a01b038116610a435760405162461bcd60e51b815260206004820152602660248201527f4f776e61626c653a206e6577206f776e657220697320746865207a65726f206160448201526564647265737360d01b6064820152608401610413565b610a4c81610d94565b50565b60006001600160e01b0319821663780e9d6360e01b1480610313575061031382611031565b6000908152600260205260409020546001600160a01b0316151590565b600081815260046020526040902080546001600160a01b0319166001600160a01b0384169081179091558190610ac6826106d1565b6001600160a01b03167f8c5be1e5ebec7d5bd14f71427d1e84f3dd0314c0f7b2291e5b200ac8c7c3b92560405160405180910390a45050565b6000610b0a82610a74565b610b6b5760405162461bcd60e51b815260206004820152602c60248201527f4552433732313a206f70657261746f7220717565727920666f72206e6f6e657860448201526b34b9ba32b73a103a37b5b2b760a11b6064820152608401610413565b6000610b76836106d1565b9050806001600160a01b0316846001600160a01b03161480610bb15750836001600160a01b0316610ba6846103ab565b6001600160a01b0316145b80610be157506001600160a01b0380821660009081526005602090815260408083209388168352929052205460ff165b949350505050565b826001600160a01b0316610bfc826106d1565b6001600160a01b031614610c645760405162461bcd60e51b815260206004820152602960248201527f4552433732313a207472616e73666572206f6620746f6b656e2074686174206960448201526839903737ba1037bbb760b91b6064820152608401610413565b6001600160a01b038216610cc65760405162461bcd60e51b8152602060048201526024808201527f4552433732313a207472616e7366657220746f20746865207a65726f206164646044820152637265737360e01b6064820152608401610413565b610cd1838383611081565b610cdc600082610a91565b6001600160a01b0383166000908152600360205260408120805460019290610d05908490611c25565b90915550506001600160a01b0382166000908152600360205260408120805460019290610d33908490611bf9565b909155505060008181526002602052604080822080546001600160a01b0319166001600160a01b0386811691821790925591518493918716917fddf252ad1be2c89b69c2b068fc378daa952ba7f163c4a11628f55a4df523b3ef91a4505050565b600b80546001600160a01b038381166001600160a01b0319831681179093556040519116919082907f8be0079c531659141344cd1fd0a4f28419497f9722a3daafe3b4186f6b6457e090600090a35050565b610df1848484610be9565b610dfd8484848461108c565b61093b5760405162461bcd60e51b815260040161041390611b56565b6060610e2482610a74565b610e8a5760405162461bcd60e51b815260206004820152603160248201527f45524337323155524953746f726167653a2055524920717565727920666f72206044820152703737b732bc34b9ba32b73a103a37b5b2b760791b6064820152608401610413565b6000828152600a602052604081208054610ea390611c68565b80601f0160208091040260200160405190810160405280929190818152602001828054610ecf90611c68565b8015610f1c5780601f10610ef157610100808354040283529160200191610f1c565b820191906000526020600020905b815481529060010190602001808311610eff57829003601f168201915b505050505090506000610f3a60408051602081019091526000815290565b9050805160001415610f4d575092915050565b815115610f7f578082604051602001610f67929190611ad7565b60405160208183030381529060405292505050919050565b610be184611199565b610fa2828260405180602001604052806000815250611270565b5050565b610faf82610a74565b6110125760405162461bcd60e51b815260206004820152602e60248201527f45524337323155524953746f726167653a2055524920736574206f66206e6f6e60448201526d32bc34b9ba32b73a103a37b5b2b760911b6064820152608401610413565b6000828152600a6020908152604090912082516105499284019061176e565b60006001600160e01b031982166380ac58cd60e01b148061106257506001600160e01b03198216635b5e139f60e01b145b8061031357506301ffc9a760e01b6001600160e01b0319831614610313565b6105498383836112a3565b60006001600160a01b0384163b1561118e57604051630a85bd0160e11b81526001600160a01b0385169063150b7a02906110d0903390899088908890600401611b06565b602060405180830381600087803b1580156110ea57600080fd5b505af192505050801561111a575060408051601f3d908101601f1916820190925261111791810190611a77565b60015b611174573d808015611148576040519150601f19603f3d011682016040523d82523d6000602084013e61114d565b606091505b50805161116c5760405162461bcd60e51b815260040161041390611b56565b805181602001fd5b6001600160e01b031916630a85bd0160e11b149050610be1565b506001949350505050565b60606111a482610a74565b6112085760405162461bcd60e51b815260206004820152602f60248201527f4552433732314d657461646174613a2055524920717565727920666f72206e6f60448201526e3732bc34b9ba32b73a103a37b5b2b760891b6064820152608401610413565b600061121f60408051602081019091526000815290565b9050600081511161123f576040518060200160405280600081525061097d565b806112498461135b565b60405160200161125a929190611ad7565b6040516020818303038152906040529392505050565b61127a8383611475565b611287600084848461108c565b6105495760405162461bcd60e51b815260040161041390611b56565b6001600160a01b0383166112fe576112f981600880546000838152600960205260408120829055600182018355919091527ff3f7a9fe364faab93b216da50a3214154f22a0a2b415b23a84c8169e8b636ee30155565b611321565b816001600160a01b0316836001600160a01b0316146113215761132183826115b4565b6001600160a01b0382166113385761054981611651565b826001600160a01b0316826001600160a01b03161461054957610549828261172a565b60608161137f5750506040805180820190915260018152600360fc1b602082015290565b8160005b81156113a9578061139381611ca3565b91506113a29050600a83611c11565b9150611383565b60008167ffffffffffffffff8111156113d257634e487b7160e01b600052604160045260246000fd5b6040519080825280601f01601f1916602001820160405280156113fc576020820181803683370190505b5090505b8415610be157611411600183611c25565b915061141e600a86611cbe565b611429906030611bf9565b60f81b81838151811061144c57634e487b7160e01b600052603260045260246000fd5b60200101906001600160f81b031916908160001a90535061146e600a86611c11565b9450611400565b6001600160a01b0382166114cb5760405162461bcd60e51b815260206004820181905260248201527f4552433732313a206d696e7420746f20746865207a65726f20616464726573736044820152606401610413565b6114d481610a74565b156115215760405162461bcd60e51b815260206004820152601c60248201527f4552433732313a20746f6b656e20616c7265616479206d696e746564000000006044820152606401610413565b61152d60008383611081565b6001600160a01b0382166000908152600360205260408120805460019290611556908490611bf9565b909155505060008181526002602052604080822080546001600160a01b0319166001600160a01b03861690811790915590518392907fddf252ad1be2c89b69c2b068fc378daa952ba7f163c4a11628f55a4df523b3ef908290a45050565b600060016115c184610748565b6115cb9190611c25565b60008381526007602052604090205490915080821461161e576001600160a01b03841660009081526006602090815260408083208584528252808320548484528184208190558352600790915290208190555b5060009182526007602090815260408084208490556001600160a01b039094168352600681528383209183525290812055565b60085460009061166390600190611c25565b6000838152600960205260408120546008805493945090928490811061169957634e487b7160e01b600052603260045260246000fd5b9060005260206000200154905080600883815481106116c857634e487b7160e01b600052603260045260246000fd5b600091825260208083209091019290925582815260099091526040808220849055858252812055600880548061170e57634e487b7160e01b600052603160045260246000fd5b6001900381819060005260206000200160009055905550505050565b600061173583610748565b6001600160a01b039093166000908152600660209081526040808320868452825280832085905593825260079052919091209190915550565b82805461177a90611c68565b90600052602060002090601f01602090048101928261179c57600085556117e2565b82601f106117b557805160ff19168380011785556117e2565b828001600101855582156117e2579182015b828111156117e25782518255916020019190600101906117c7565b506117ee9291506117f2565b5090565b5b808211156117ee57600081556001016117f3565b600067ffffffffffffffff8084111561182257611822611cfe565b604051601f8501601f19908116603f0116810190828211818310171561184a5761184a611cfe565b8160405280935085815286868601111561186357600080fd5b858560208301376000602087830101525050509392505050565b80356001600160a01b038116811461189457600080fd5b919050565b6000602082840312156118aa578081fd5b61097d8261187d565b600080604083850312156118c5578081fd5b6118ce8361187d565b91506118dc6020840161187d565b90509250929050565b6000806000606084860312156118f9578081fd5b6119028461187d565b92506119106020850161187d565b9150604084013590509250925092565b60008060008060808587031215611935578081fd5b61193e8561187d565b935061194c6020860161187d565b925060408501359150606085013567ffffffffffffffff81111561196e578182fd5b8501601f8101871361197e578182fd5b61198d87823560208401611807565b91505092959194509250565b600080604083850312156119ab578182fd5b6119b48361187d565b9150602083013580151581146119c8578182fd5b809150509250929050565b600080604083850312156119e5578182fd5b6119ee8361187d565b9150602083013567ffffffffffffffff811115611a09578182fd5b8301601f81018513611a19578182fd5b611a2885823560208401611807565b9150509250929050565b60008060408385031215611a44578182fd5b611a4d8361187d565b946020939093013593505050565b600060208284031215611a6c578081fd5b813561097d81611d14565b600060208284031215611a88578081fd5b815161097d81611d14565b600060208284031215611aa4578081fd5b5035919050565b60008151808452611ac3816020860160208601611c3c565b601f01601f19169290920160200192915050565b60008351611ae9818460208801611c3c565b835190830190611afd818360208801611c3c565b01949350505050565b6001600160a01b0385811682528416602082015260408101839052608060608201819052600090611b3990830184611aab565b9695505050505050565b60208152600061097d6020830184611aab565b60208082526032908201527f4552433732313a207472616e7366657220746f206e6f6e20455243373231526560408201527131b2b4bb32b91034b6b83632b6b2b73a32b960711b606082015260800190565b60208082526031908201527f4552433732313a207472616e736665722063616c6c6572206973206e6f74206f6040820152701ddb995c881b9bdc88185c1c1c9bdd9959607a1b606082015260800190565b60008219821115611c0c57611c0c611cd2565b500190565b600082611c2057611c20611ce8565b500490565b600082821015611c3757611c37611cd2565b500390565b60005b83811015611c57578181015183820152602001611c3f565b8381111561093b5750506000910152565b600181811c90821680611c7c57607f821691505b60208210811415611c9d57634e487b7160e01b600052602260045260246000fd5b50919050565b6000600019821415611cb757611cb7611cd2565b5060010190565b600082611ccd57611ccd611ce8565b500690565b634e487b7160e01b600052601160045260246000fd5b634e487b7160e01b600052601260045260246000fd5b634e487b7160e01b600052604160045260246000fd5b6001600160e01b031981168114610a4c57600080fdfea26469706673582212206adcb4408c3559b8c82c5ef20769047cea12ffffaf54dc3c262e195e93e1b4de64736f6c63430008040033",
  "devdoc": {
    "kind": "dev",
    "methods": {},
    "version": 1
  },
  "userdoc": {
    "kind": "user",
    "methods": {},
    "version": 1
  },
  "storageLayout": {
    "storage": [],
    "types": null
  }
}