{
  "address": "0x788351A3ecBE6C2E78fb6dB9171E7602Db1d40dF",
  "abi": [
    {
      "inputs": [
        {
          "internalType": "address",
          "name": "_openNFTs",
          "type": "address"
        },
        {
          "internalType": "address",
          "name": "_contractprobe",
          "type": "address"
        }
      ],
      "stateMutability": "nonpayable",
      "type": "constructor"
    },
    {
      "anonymous": false,
      "inputs": [
        {
          "indexed": true,
          "internalType": "address",
          "name": "implementation",
          "type": "address"
        },
        {
          "indexed": true,
          "internalType": "address",
          "name": "template",
          "type": "address"
        },
        {
          "indexed": true,
          "internalType": "address",
          "name": "creator",
          "type": "address"
        }
      ],
      "name": "NewImplementation",
      "type": "event"
    },
    {
      "anonymous": false,
      "inputs": [
        {
          "indexed": true,
          "internalType": "address",
          "name": "template",
          "type": "address"
        },
        {
          "indexed": true,
          "internalType": "address",
          "name": "creator",
          "type": "address"
        }
      ],
      "name": "NewTemplate",
      "type": "event"
    },
    {
      "anonymous": false,
      "inputs": [
        {
          "indexed": true,
          "internalType": "address",
          "name": "previousOwner",
          "type": "address"
        },
        {
          "indexed": true,
          "internalType": "address",
          "name": "newOwner",
          "type": "address"
        }
      ],
      "name": "OwnershipTransferred",
      "type": "event"
    },
    {
      "inputs": [],
      "name": "ERC721",
      "outputs": [
        {
          "internalType": "uint8",
          "name": "",
          "type": "uint8"
        }
      ],
      "stateMutability": "view",
      "type": "function"
    },
    {
      "inputs": [],
      "name": "ERC721_ENUMERABLE",
      "outputs": [
        {
          "internalType": "uint8",
          "name": "",
          "type": "uint8"
        }
      ],
      "stateMutability": "view",
      "type": "function"
    },
    {
      "inputs": [],
      "name": "ERC721_ENUMERABLE_SIG",
      "outputs": [
        {
          "internalType": "bytes4",
          "name": "",
          "type": "bytes4"
        }
      ],
      "stateMutability": "view",
      "type": "function"
    },
    {
      "inputs": [],
      "name": "ERC721_METADATA",
      "outputs": [
        {
          "internalType": "uint8",
          "name": "",
          "type": "uint8"
        }
      ],
      "stateMutability": "view",
      "type": "function"
    },
    {
      "inputs": [],
      "name": "ERC721_METADATA_SIG",
      "outputs": [
        {
          "internalType": "bytes4",
          "name": "",
          "type": "bytes4"
        }
      ],
      "stateMutability": "view",
      "type": "function"
    },
    {
      "inputs": [],
      "name": "ERC721_SIG",
      "outputs": [
        {
          "internalType": "bytes4",
          "name": "",
          "type": "bytes4"
        }
      ],
      "stateMutability": "view",
      "type": "function"
    },
    {
      "inputs": [],
      "name": "OPEN_NFTS",
      "outputs": [
        {
          "internalType": "uint8",
          "name": "",
          "type": "uint8"
        }
      ],
      "stateMutability": "view",
      "type": "function"
    },
    {
      "inputs": [],
      "name": "OPEN_NFTS_SIG",
      "outputs": [
        {
          "internalType": "bytes4",
          "name": "",
          "type": "bytes4"
        }
      ],
      "stateMutability": "view",
      "type": "function"
    },
    {
      "inputs": [
        {
          "internalType": "address",
          "name": "_implementation",
          "type": "address"
        }
      ],
      "name": "addImplementation",
      "outputs": [],
      "stateMutability": "nonpayable",
      "type": "function"
    },
    {
      "inputs": [
        {
          "internalType": "address",
          "name": "nft",
          "type": "address"
        },
        {
          "internalType": "address",
          "name": "owner",
          "type": "address"
        }
      ],
      "name": "balanceOf",
      "outputs": [
        {
          "components": [
            {
              "internalType": "address",
              "name": "nft",
              "type": "address"
            },
            {
              "internalType": "uint256",
              "name": "balanceOf",
              "type": "uint256"
            },
            {
              "internalType": "address",
              "name": "owner",
              "type": "address"
            },
            {
              "internalType": "string",
              "name": "name",
              "type": "string"
            },
            {
              "internalType": "string",
              "name": "symbol",
              "type": "string"
            },
            {
              "internalType": "uint256",
              "name": "totalSupply",
              "type": "uint256"
            }
          ],
          "internalType": "struct NFTsFactory.NftData",
          "name": "nftData",
          "type": "tuple"
        }
      ],
      "stateMutability": "view",
      "type": "function"
    },
    {
      "inputs": [
        {
          "internalType": "address",
          "name": "owner",
          "type": "address"
        }
      ],
      "name": "balancesOf",
      "outputs": [
        {
          "components": [
            {
              "internalType": "address",
              "name": "nft",
              "type": "address"
            },
            {
              "internalType": "uint256",
              "name": "balanceOf",
              "type": "uint256"
            },
            {
              "internalType": "address",
              "name": "owner",
              "type": "address"
            },
            {
              "internalType": "string",
              "name": "name",
              "type": "string"
            },
            {
              "internalType": "string",
              "name": "symbol",
              "type": "string"
            },
            {
              "internalType": "uint256",
              "name": "totalSupply",
              "type": "uint256"
            }
          ],
          "internalType": "struct NFTsFactory.NftData[]",
          "name": "nftData",
          "type": "tuple[]"
        }
      ],
      "stateMutability": "view",
      "type": "function"
    },
    {
      "inputs": [
        {
          "internalType": "string",
          "name": "_name",
          "type": "string"
        },
        {
          "internalType": "string",
          "name": "_symbol",
          "type": "string"
        }
      ],
      "name": "clone",
      "outputs": [
        {
          "internalType": "address",
          "name": "clone_",
          "type": "address"
        }
      ],
      "stateMutability": "nonpayable",
      "type": "function"
    },
    {
      "inputs": [
        {
          "internalType": "uint256",
          "name": "",
          "type": "uint256"
        }
      ],
      "name": "implementations",
      "outputs": [
        {
          "internalType": "address",
          "name": "",
          "type": "address"
        }
      ],
      "stateMutability": "view",
      "type": "function"
    },
    {
      "inputs": [],
      "name": "implementationsCount",
      "outputs": [
        {
          "internalType": "uint256",
          "name": "count",
          "type": "uint256"
        }
      ],
      "stateMutability": "view",
      "type": "function"
    },
    {
      "inputs": [],
      "name": "owner",
      "outputs": [
        {
          "internalType": "address",
          "name": "",
          "type": "address"
        }
      ],
      "stateMutability": "view",
      "type": "function"
    },
    {
      "inputs": [],
      "name": "renounceOwnership",
      "outputs": [],
      "stateMutability": "nonpayable",
      "type": "function"
    },
    {
      "inputs": [
        {
          "internalType": "address",
          "name": "_template",
          "type": "address"
        }
      ],
      "name": "setDefaultTemplate",
      "outputs": [],
      "stateMutability": "nonpayable",
      "type": "function"
    },
    {
      "inputs": [],
      "name": "template",
      "outputs": [
        {
          "internalType": "address",
          "name": "",
          "type": "address"
        }
      ],
      "stateMutability": "view",
      "type": "function"
    },
    {
      "inputs": [
        {
          "internalType": "address",
          "name": "",
          "type": "address"
        }
      ],
      "name": "templates",
      "outputs": [
        {
          "internalType": "address",
          "name": "",
          "type": "address"
        }
      ],
      "stateMutability": "view",
      "type": "function"
    },
    {
      "inputs": [
        {
          "internalType": "address",
          "name": "newOwner",
          "type": "address"
        }
      ],
      "name": "transferOwnership",
      "outputs": [],
      "stateMutability": "nonpayable",
      "type": "function"
    },
    {
      "inputs": [],
      "name": "withdrawEther",
      "outputs": [],
      "stateMutability": "nonpayable",
      "type": "function"
    }
  ],
  "transactionHash": "0x8a3ad40cc990fd9e540cb329edd21d3c41b6989618f5c1e6cd2ab21627b8c669",
  "args": [
    "0x8AC7CfD35cA12762a3723C3003CEcD817EEE6174",
    "0x542bf0e2e5463916c56EdD7837FEa93F2f7B0c59"
  ],
  "solcInputHash": "a55635ebd9c24d66ef116f43e87ffa1f",
  "bytecode": "0x60806040523480156200001157600080fd5b506040516200359b3803806200359b83398181016040528101906200003791906200087b565b80620000586200004c620000b360201b60201c565b620000bb60201b60201c565b80600460006101000a81548173ffffffffffffffffffffffffffffffffffffffff021916908373ffffffffffffffffffffffffffffffffffffffff16021790555050620000ab826200017f60201b60201c565b505062000b4d565b600033905090565b60008060009054906101000a900473ffffffffffffffffffffffffffffffffffffffff169050816000806101000a81548173ffffffffffffffffffffffffffffffffffffffff021916908373ffffffffffffffffffffffffffffffffffffffff1602179055508173ffffffffffffffffffffffffffffffffffffffff168173ffffffffffffffffffffffffffffffffffffffff167f8be0079c531659141344cd1fd0a4f28419497f9722a3daafe3b4186f6b6457e060405160405180910390a35050565b6200018f620000b360201b60201c565b73ffffffffffffffffffffffffffffffffffffffff16620001b56200042360201b60201c565b73ffffffffffffffffffffffffffffffffffffffff16146200020e576040517f08c379a0000000000000000000000000000000000000000000000000000000008152600401620002059062000923565b60405180910390fd5b600073ffffffffffffffffffffffffffffffffffffffff16600360008373ffffffffffffffffffffffffffffffffffffffff1673ffffffffffffffffffffffffffffffffffffffff16815260200190815260200160002060009054906101000a900473ffffffffffffffffffffffffffffffffffffffff1673ffffffffffffffffffffffffffffffffffffffff161415620002b557620002b4816200044c60201b60201c565b5b8073ffffffffffffffffffffffffffffffffffffffff16600360008373ffffffffffffffffffffffffffffffffffffffff1673ffffffffffffffffffffffffffffffffffffffff16815260200190815260200160002060009054906101000a900473ffffffffffffffffffffffffffffffffffffffff1673ffffffffffffffffffffffffffffffffffffffff161462000385576040517f08c379a00000000000000000000000000000000000000000000000000000000081526004016200037c9062000995565b60405180910390fd5b80600260006101000a81548173ffffffffffffffffffffffffffffffffffffffff021916908373ffffffffffffffffffffffffffffffffffffffff1602179055503373ffffffffffffffffffffffffffffffffffffffff168173ffffffffffffffffffffffffffffffffffffffff167f81bbf04250a28f0d5979a401ffb6705dcebf8b354060431d672cf1ea4594fc6760405160405180910390a350565b60008060009054906101000a900473ffffffffffffffffffffffffffffffffffffffff16905090565b6200045c620000b360201b60201c565b73ffffffffffffffffffffffffffffffffffffffff16620004826200042360201b60201c565b73ffffffffffffffffffffffffffffffffffffffff1614620004db576040517f08c379a0000000000000000000000000000000000000000000000000000000008152600401620004d29062000923565b60405180910390fd5b620004ec81620004ef60201b60201c565b50565b600073ffffffffffffffffffffffffffffffffffffffff16600360008373ffffffffffffffffffffffffffffffffffffffff1673ffffffffffffffffffffffffffffffffffffffff16815260200190815260200160002060009054906101000a900473ffffffffffffffffffffffffffffffffffffffff1673ffffffffffffffffffffffffffffffffffffffff1614620005c0576040517f08c379a0000000000000000000000000000000000000000000000000000000008152600401620005b79062000a07565b60405180910390fd5b600080600460009054906101000a900473ffffffffffffffffffffffffffffffffffffffff1673ffffffffffffffffffffffffffffffffffffffff1663275e5da5846040518263ffffffff1660e01b815260040162000620919062000a3a565b604080518083038186803b1580156200063857600080fd5b505afa1580156200064d573d6000803e3d6000fd5b505050506040513d601f19601f8201168201806040525081019062000673919062000a94565b9150915081620006ba576040517f08c379a0000000000000000000000000000000000000000000000000000000008152600401620006b19062000b2b565b60405180910390fd5b6001839080600181540180825580915050600190039060005260206000200160009091909190916101000a81548173ffffffffffffffffffffffffffffffffffffffff021916908373ffffffffffffffffffffffffffffffffffffffff16021790555080600360008573ffffffffffffffffffffffffffffffffffffffff1673ffffffffffffffffffffffffffffffffffffffff16815260200190815260200160002060006101000a81548173ffffffffffffffffffffffffffffffffffffffff021916908373ffffffffffffffffffffffffffffffffffffffff1602179055503373ffffffffffffffffffffffffffffffffffffffff168173ffffffffffffffffffffffffffffffffffffffff168473ffffffffffffffffffffffffffffffffffffffff167f053585d4de2374a5e4cee65e665171098bd6777e89041c2915cdac4d567cd93f60405160405180910390a4505050565b600080fd5b600073ffffffffffffffffffffffffffffffffffffffff82169050919050565b6000620008438262000816565b9050919050565b620008558162000836565b81146200086157600080fd5b50565b60008151905062000875816200084a565b92915050565b6000806040838503121562000895576200089462000811565b5b6000620008a58582860162000864565b9250506020620008b88582860162000864565b9150509250929050565b600082825260208201905092915050565b7f4f776e61626c653a2063616c6c6572206973206e6f7420746865206f776e6572600082015250565b60006200090b602083620008c2565b91506200091882620008d3565b602082019050919050565b600060208201905081810360008301526200093e81620008fc565b9050919050565b7f54656d706c617465206973206120436c6f6e6500000000000000000000000000600082015250565b60006200097d601383620008c2565b91506200098a8262000945565b602082019050919050565b60006020820190508181036000830152620009b0816200096e565b9050919050565b7f496d706c656d656e746174696f6e20616c726561647920657869737473000000600082015250565b6000620009ef601d83620008c2565b9150620009fc82620009b7565b602082019050919050565b6000602082019050818103600083015262000a2281620009e0565b9050919050565b62000a348162000836565b82525050565b600060208201905062000a51600083018462000a29565b92915050565b60008115159050919050565b62000a6e8162000a57565b811462000a7a57600080fd5b50565b60008151905062000a8e8162000a63565b92915050565b6000806040838503121562000aae5762000aad62000811565b5b600062000abe8582860162000a7d565b925050602062000ad18582860162000864565b9150509250929050565b7f496d706c656d656e746174696f6e206973206e6f74206120436f6e7472616374600082015250565b600062000b13602083620008c2565b915062000b208262000adb565b602082019050919050565b6000602082019050818103600083015262000b468162000b04565b9050919050565b612a3e8062000b5d6000396000f3fe608060405234801561001057600080fd5b50600436106101375760003560e01c80638425abff116100b8578063c17bae4f1161007c578063c17bae4f1461031c578063c6e2a4001461033a578063d33cdd7414610356578063f2fde38b14610374578063f7888aec14610390578063f7f5d46d146103c057610137565b80638425abff14610264578063845affc8146102825780638da5cb5b146102b257806393199bcf146102d0578063b98a47481461030057610137565b80636cc41ea9116100ff5780636cc41ea9146101f65780636f2ddd9314610214578063715018a6146102325780637362377b1461023c5780637d19ec931461024657610137565b80630a7c6d191461013c57806320a99bd01461015a5780632bf0d0711461018a5780636392a51f146101a85780636bc259cc146101d8575b600080fd5b6101446103de565b6040516101519190611bab565b60405180910390f35b610174600480360381019061016f9190611c38565b6103e9565b6040516101819190611c74565b60405180910390f35b61019261041c565b60405161019f9190611cab565b60405180910390f35b6101c260048036038101906101bd9190611c38565b610421565b6040516101cf9190611ed9565b60405180910390f35b6101e061050e565b6040516101ed9190611bab565b60405180910390f35b6101fe610519565b60405161020b9190611bab565b60405180910390f35b61021c61053d565b6040516102299190611c74565b60405180910390f35b61023a610563565b005b6102446105eb565b005b61024e610716565b60405161025b9190611bab565b60405180910390f35b61026c610721565b6040516102799190611cab565b60405180910390f35b61029c60048036038101906102979190611f27565b610726565b6040516102a99190611c74565b60405180910390f35b6102ba610765565b6040516102c79190611c74565b60405180910390f35b6102ea60048036038101906102e59190612089565b61078e565b6040516102f79190611c74565b60405180910390f35b61031a60048036038101906103159190611c38565b610900565b005b610324610b85565b6040516103319190612110565b60405180910390f35b610354600480360381019061034f9190611c38565b610b92565b005b61035e610c1a565b60405161036b9190611cab565b60405180910390f35b61038e60048036038101906103899190611c38565b610c1f565b005b6103aa60048036038101906103a5919061212b565b610d17565b6040516103b791906121fb565b60405180910390f35b6103c8611317565b6040516103d59190611cab565b60405180910390f35b63780e9d6360e01b81565b60036020528060005260406000206000915054906101000a900473ffffffffffffffffffffffffffffffffffffffff1681565b600181565b606060018054905067ffffffffffffffff81111561044257610441611f5e565b5b60405190808252806020026020018201604052801561047b57816020015b610468611b0e565b8152602001906001900390816104605790505b50905060005b600180549050811015610508576104d6600182815481106104a5576104a461221d565b5b9060005260206000200160009054906101000a900473ffffffffffffffffffffffffffffffffffffffff1684610d17565b8282815181106104e9576104e861221d565b5b6020026020010181905250600181610501919061227b565b9050610481565b50919050565b6380ac58cd60e01b81565b7fd94a1db20000000000000000000000000000000000000000000000000000000081565b600260009054906101000a900473ffffffffffffffffffffffffffffffffffffffff1681565b61056b61131c565b73ffffffffffffffffffffffffffffffffffffffff16610589610765565b73ffffffffffffffffffffffffffffffffffffffff16146105df576040517f08c379a00000000000000000000000000000000000000000000000000000000081526004016105d69061232e565b60405180910390fd5b6105e96000611324565b565b6105f361131c565b73ffffffffffffffffffffffffffffffffffffffff16610611610765565b73ffffffffffffffffffffffffffffffffffffffff1614610667576040517f08c379a000000000000000000000000000000000000000000000000000000000815260040161065e9061232e565b60405180910390fd5b60003373ffffffffffffffffffffffffffffffffffffffff164760405161068d9061237f565b60006040518083038185875af1925050503d80600081146106ca576040519150601f19603f3d011682016040523d82523d6000602084013e6106cf565b606091505b5050905080610713576040517f08c379a000000000000000000000000000000000000000000000000000000000815260040161070a906123e0565b60405180910390fd5b50565b63780e9d6360e01b81565b600081565b6001818154811061073657600080fd5b906000526020600020016000915054906101000a900473ffffffffffffffffffffffffffffffffffffffff1681565b60008060009054906101000a900473ffffffffffffffffffffffffffffffffffffffff16905090565b60006107986113e8565b90506107e37fd94a1db2000000000000000000000000000000000000000000000000000000008273ffffffffffffffffffffffffffffffffffffffff166114b490919063ffffffff16565b610822576040517f08c379a00000000000000000000000000000000000000000000000000000000081526004016108199061244c565b60405180910390fd5b8073ffffffffffffffffffffffffffffffffffffffff16634cd88b7684846040518363ffffffff1660e01b815260040161085d9291906124a5565b600060405180830381600087803b15801561087757600080fd5b505af115801561088b573d6000803e3d6000fd5b505050508073ffffffffffffffffffffffffffffffffffffffff1663f2fde38b336040518263ffffffff1660e01b81526004016108c89190611c74565b600060405180830381600087803b1580156108e257600080fd5b505af11580156108f6573d6000803e3d6000fd5b5050505092915050565b61090861131c565b73ffffffffffffffffffffffffffffffffffffffff16610926610765565b73ffffffffffffffffffffffffffffffffffffffff161461097c576040517f08c379a00000000000000000000000000000000000000000000000000000000081526004016109739061232e565b60405180910390fd5b600073ffffffffffffffffffffffffffffffffffffffff16600360008373ffffffffffffffffffffffffffffffffffffffff1673ffffffffffffffffffffffffffffffffffffffff16815260200190815260200160002060009054906101000a900473ffffffffffffffffffffffffffffffffffffffff1673ffffffffffffffffffffffffffffffffffffffff161415610a1a57610a1981610b92565b5b8073ffffffffffffffffffffffffffffffffffffffff16600360008373ffffffffffffffffffffffffffffffffffffffff1673ffffffffffffffffffffffffffffffffffffffff16815260200190815260200160002060009054906101000a900473ffffffffffffffffffffffffffffffffffffffff1673ffffffffffffffffffffffffffffffffffffffff1614610ae7576040517f08c379a0000000000000000000000000000000000000000000000000000000008152600401610ade90612528565b60405180910390fd5b80600260006101000a81548173ffffffffffffffffffffffffffffffffffffffff021916908373ffffffffffffffffffffffffffffffffffffffff1602179055503373ffffffffffffffffffffffffffffffffffffffff168173ffffffffffffffffffffffffffffffffffffffff167f81bbf04250a28f0d5979a401ffb6705dcebf8b354060431d672cf1ea4594fc6760405160405180910390a350565b6000600180549050905090565b610b9a61131c565b73ffffffffffffffffffffffffffffffffffffffff16610bb8610765565b73ffffffffffffffffffffffffffffffffffffffff1614610c0e576040517f08c379a0000000000000000000000000000000000000000000000000000000008152600401610c059061232e565b60405180910390fd5b610c17816114d9565b50565b600281565b610c2761131c565b73ffffffffffffffffffffffffffffffffffffffff16610c45610765565b73ffffffffffffffffffffffffffffffffffffffff1614610c9b576040517f08c379a0000000000000000000000000000000000000000000000000000000008152600401610c929061232e565b60405180910390fd5b600073ffffffffffffffffffffffffffffffffffffffff168173ffffffffffffffffffffffffffffffffffffffff161415610d0b576040517f08c379a0000000000000000000000000000000000000000000000000000000008152600401610d02906125ba565b60405180910390fd5b610d1481611324565b50565b610d1f611b0e565b6000600467ffffffffffffffff811115610d3c57610d3b611f5e565b5b604051908082528060200260200182016040528015610d6a5781602001602082028036833780820191505090505b5090506380ac58cd60e01b81600060ff1681518110610d8c57610d8b61221d565b5b60200260200101907bffffffffffffffffffffffffffffffffffffffffffffffffffffffff191690817bffffffffffffffffffffffffffffffffffffffffffffffffffffffff19168152505063780e9d6360e01b81600160ff1681518110610df757610df661221d565b5b60200260200101907bffffffffffffffffffffffffffffffffffffffffffffffffffffffff191690817bffffffffffffffffffffffffffffffffffffffffffffffffffffffff19168152505063780e9d6360e01b81600260ff1681518110610e6257610e6161221d565b5b60200260200101907bffffffffffffffffffffffffffffffffffffffffffffffffffffffff191690817bffffffffffffffffffffffffffffffffffffffffffffffffffffffff1916815250507fd94a1db20000000000000000000000000000000000000000000000000000000081600360ff1681518110610ee657610ee561221d565b5b60200260200101907bffffffffffffffffffffffffffffffffffffffffffffffffffffffff191690817bffffffffffffffffffffffffffffffffffffffffffffffffffffffff1916815250506000610f5d828673ffffffffffffffffffffffffffffffffffffffff166117ef90919063ffffffff16565b905080600060ff1681518110610f7657610f7561221d565b5b60200260200101511561130f5784836000019073ffffffffffffffffffffffffffffffffffffffff16908173ffffffffffffffffffffffffffffffffffffffff16815250508473ffffffffffffffffffffffffffffffffffffffff166370a08231856040518263ffffffff1660e01b8152600401610ff49190611c74565b60206040518083038186803b15801561100c57600080fd5b505afa158015611020573d6000803e3d6000fd5b505050506040513d601f19601f8201168201806040525081019061104491906125ef565b83602001818152505080600160ff16815181106110645761106361221d565b5b602002602001015115611188578473ffffffffffffffffffffffffffffffffffffffff166306fdde036040518163ffffffff1660e01b815260040160006040518083038186803b1580156110b757600080fd5b505afa1580156110cb573d6000803e3d6000fd5b505050506040513d6000823e3d601f19601f820116820180604052508101906110f4919061268c565b83606001819052508473ffffffffffffffffffffffffffffffffffffffff166395d89b416040518163ffffffff1660e01b815260040160006040518083038186803b15801561114257600080fd5b505afa158015611156573d6000803e3d6000fd5b505050506040513d6000823e3d601f19601f8201168201806040525081019061117f919061268c565b83608001819052505b80600260ff168151811061119f5761119e61221d565b5b602002602001015115611234578473ffffffffffffffffffffffffffffffffffffffff166318160ddd6040518163ffffffff1660e01b815260040160206040518083038186803b1580156111f257600080fd5b505afa158015611206573d6000803e3d6000fd5b505050506040513d601f19601f8201168201806040525081019061122a91906125ef565b8360a00181815250505b80600360ff168151811061124b5761124a61221d565b5b60200260200101511561130e578473ffffffffffffffffffffffffffffffffffffffff16638da5cb5b6040518163ffffffff1660e01b815260040160206040518083038186803b15801561129e57600080fd5b505afa1580156112b2573d6000803e3d6000fd5b505050506040513d601f19601f820116820180604052508101906112d691906126ea565b836040019073ffffffffffffffffffffffffffffffffffffffff16908173ffffffffffffffffffffffffffffffffffffffff16815250505b5b505092915050565b600381565b600033905090565b60008060009054906101000a900473ffffffffffffffffffffffffffffffffffffffff169050816000806101000a81548173ffffffffffffffffffffffffffffffffffffffff021916908373ffffffffffffffffffffffffffffffffffffffff1602179055508173ffffffffffffffffffffffffffffffffffffffff168173ffffffffffffffffffffffffffffffffffffffff167f8be0079c531659141344cd1fd0a4f28419497f9722a3daafe3b4186f6b6457e060405160405180910390a35050565b60008073ffffffffffffffffffffffffffffffffffffffff16600260009054906101000a900473ffffffffffffffffffffffffffffffffffffffff1673ffffffffffffffffffffffffffffffffffffffff16141561147b576040517f08c379a000000000000000000000000000000000000000000000000000000000815260040161147290612763565b60405180910390fd5b6114a6600260009054906101000a900473ffffffffffffffffffffffffffffffffffffffff166118c1565b90506114b1816114d9565b90565b60006114bf83611996565b80156114d157506114d083836119e3565b5b905092915050565b600073ffffffffffffffffffffffffffffffffffffffff16600360008373ffffffffffffffffffffffffffffffffffffffff1673ffffffffffffffffffffffffffffffffffffffff16815260200190815260200160002060009054906101000a900473ffffffffffffffffffffffffffffffffffffffff1673ffffffffffffffffffffffffffffffffffffffff16146115a7576040517f08c379a000000000000000000000000000000000000000000000000000000000815260040161159e906127cf565b60405180910390fd5b600080600460009054906101000a900473ffffffffffffffffffffffffffffffffffffffff1673ffffffffffffffffffffffffffffffffffffffff1663275e5da5846040518263ffffffff1660e01b81526004016116059190611c74565b604080518083038186803b15801561161c57600080fd5b505afa158015611630573d6000803e3d6000fd5b505050506040513d601f19601f820116820180604052508101906116549190612827565b9150915081611698576040517f08c379a000000000000000000000000000000000000000000000000000000000815260040161168f906128b3565b60405180910390fd5b6001839080600181540180825580915050600190039060005260206000200160009091909190916101000a81548173ffffffffffffffffffffffffffffffffffffffff021916908373ffffffffffffffffffffffffffffffffffffffff16021790555080600360008573ffffffffffffffffffffffffffffffffffffffff1673ffffffffffffffffffffffffffffffffffffffff16815260200190815260200160002060006101000a81548173ffffffffffffffffffffffffffffffffffffffff021916908373ffffffffffffffffffffffffffffffffffffffff1602179055503373ffffffffffffffffffffffffffffffffffffffff168173ffffffffffffffffffffffffffffffffffffffff168473ffffffffffffffffffffffffffffffffffffffff167f053585d4de2374a5e4cee65e665171098bd6777e89041c2915cdac4d567cd93f60405160405180910390a4505050565b60606000825167ffffffffffffffff81111561180e5761180d611f5e565b5b60405190808252806020026020018201604052801561183c5781602001602082028036833780820191505090505b50905061184884611996565b156118b75760005b83518110156118b55761187d858583815181106118705761186f61221d565b5b60200260200101516119e3565b8282815181106118905761188f61221d565b5b60200260200101901515908115158152505080806118ad906128d3565b915050611850565b505b8091505092915050565b60006040517f3d602d80600a3d3981f3363d3d373d3d3d363d7300000000000000000000000081528260601b60148201527f5af43d82803e903d91602b57fd5bf3000000000000000000000000000000000060288201526037816000f0915050600073ffffffffffffffffffffffffffffffffffffffff168173ffffffffffffffffffffffffffffffffffffffff161415611991576040517f08c379a000000000000000000000000000000000000000000000000000000000815260040161198890612968565b60405180910390fd5b919050565b60006119c2827f01ffc9a7000000000000000000000000000000000000000000000000000000006119e3565b80156119dc57506119da8263ffffffff60e01b6119e3565b155b9050919050565b6000806301ffc9a760e01b836040516024016119ff9190611bab565b604051602081830303815290604052907bffffffffffffffffffffffffffffffffffffffffffffffffffffffff19166020820180517bffffffffffffffffffffffffffffffffffffffffffffffffffffffff838183161783525050505090506000808573ffffffffffffffffffffffffffffffffffffffff1661753084604051611a8991906129c4565b6000604051808303818686fa925050503d8060008114611ac5576040519150601f19603f3d011682016040523d82523d6000602084013e611aca565b606091505b5091509150602081511015611ae55760009350505050611b08565b818015611b02575080806020019051810190611b0191906129db565b5b93505050505b92915050565b6040518060c00160405280600073ffffffffffffffffffffffffffffffffffffffff16815260200160008152602001600073ffffffffffffffffffffffffffffffffffffffff1681526020016060815260200160608152602001600081525090565b60007fffffffff0000000000000000000000000000000000000000000000000000000082169050919050565b611ba581611b70565b82525050565b6000602082019050611bc06000830184611b9c565b92915050565b6000604051905090565b600080fd5b600080fd5b600073ffffffffffffffffffffffffffffffffffffffff82169050919050565b6000611c0582611bda565b9050919050565b611c1581611bfa565b8114611c2057600080fd5b50565b600081359050611c3281611c0c565b92915050565b600060208284031215611c4e57611c4d611bd0565b5b6000611c5c84828501611c23565b91505092915050565b611c6e81611bfa565b82525050565b6000602082019050611c896000830184611c65565b92915050565b600060ff82169050919050565b611ca581611c8f565b82525050565b6000602082019050611cc06000830184611c9c565b92915050565b600081519050919050565b600082825260208201905092915050565b6000819050602082019050919050565b611cfb81611bfa565b82525050565b6000819050919050565b611d1481611d01565b82525050565b600081519050919050565b600082825260208201905092915050565b60005b83811015611d54578082015181840152602081019050611d39565b83811115611d63576000848401525b50505050565b6000601f19601f8301169050919050565b6000611d8582611d1a565b611d8f8185611d25565b9350611d9f818560208601611d36565b611da881611d69565b840191505092915050565b600060c083016000830151611dcb6000860182611cf2565b506020830151611dde6020860182611d0b565b506040830151611df16040860182611cf2565b5060608301518482036060860152611e098282611d7a565b91505060808301518482036080860152611e238282611d7a565b91505060a0830151611e3860a0860182611d0b565b508091505092915050565b6000611e4f8383611db3565b905092915050565b6000602082019050919050565b6000611e6f82611cc6565b611e798185611cd1565b935083602082028501611e8b85611ce2565b8060005b85811015611ec75784840389528151611ea88582611e43565b9450611eb383611e57565b925060208a01995050600181019050611e8f565b50829750879550505050505092915050565b60006020820190508181036000830152611ef38184611e64565b905092915050565b611f0481611d01565b8114611f0f57600080fd5b50565b600081359050611f2181611efb565b92915050565b600060208284031215611f3d57611f3c611bd0565b5b6000611f4b84828501611f12565b91505092915050565b600080fd5b600080fd5b7f4e487b7100000000000000000000000000000000000000000000000000000000600052604160045260246000fd5b611f9682611d69565b810181811067ffffffffffffffff82111715611fb557611fb4611f5e565b5b80604052505050565b6000611fc8611bc6565b9050611fd48282611f8d565b919050565b600067ffffffffffffffff821115611ff457611ff3611f5e565b5b611ffd82611d69565b9050602081019050919050565b82818337600083830152505050565b600061202c61202784611fd9565b611fbe565b90508281526020810184848401111561204857612047611f59565b5b61205384828561200a565b509392505050565b600082601f8301126120705761206f611f54565b5b8135612080848260208601612019565b91505092915050565b600080604083850312156120a05761209f611bd0565b5b600083013567ffffffffffffffff8111156120be576120bd611bd5565b5b6120ca8582860161205b565b925050602083013567ffffffffffffffff8111156120eb576120ea611bd5565b5b6120f78582860161205b565b9150509250929050565b61210a81611d01565b82525050565b60006020820190506121256000830184612101565b92915050565b6000806040838503121561214257612141611bd0565b5b600061215085828601611c23565b925050602061216185828601611c23565b9150509250929050565b600060c0830160008301516121836000860182611cf2565b5060208301516121966020860182611d0b565b5060408301516121a96040860182611cf2565b50606083015184820360608601526121c18282611d7a565b915050608083015184820360808601526121db8282611d7a565b91505060a08301516121f060a0860182611d0b565b508091505092915050565b60006020820190508181036000830152612215818461216b565b905092915050565b7f4e487b7100000000000000000000000000000000000000000000000000000000600052603260045260246000fd5b7f4e487b7100000000000000000000000000000000000000000000000000000000600052601160045260246000fd5b600061228682611d01565b915061229183611d01565b9250827fffffffffffffffffffffffffffffffffffffffffffffffffffffffffffffffff038211156122c6576122c561224c565b5b828201905092915050565b600082825260208201905092915050565b7f4f776e61626c653a2063616c6c6572206973206e6f7420746865206f776e6572600082015250565b60006123186020836122d1565b9150612323826122e2565b602082019050919050565b600060208201905081810360008301526123478161230b565b9050919050565b600081905092915050565b50565b600061236960008361234e565b915061237482612359565b600082019050919050565b600061238a8261235c565b9150819050919050565b7f4661696c656420746f2077697468647261772045746865720000000000000000600082015250565b60006123ca6018836122d1565b91506123d582612394565b602082019050919050565b600060208201905081810360008301526123f9816123bd565b9050919050565b7f436c6f6e65206973206e6f74204f70656e204e46547320636f6e747261637400600082015250565b6000612436601f836122d1565b915061244182612400565b602082019050919050565b6000602082019050818103600083015261246581612429565b9050919050565b600061247782611d1a565b61248181856122d1565b9350612491818560208601611d36565b61249a81611d69565b840191505092915050565b600060408201905081810360008301526124bf818561246c565b905081810360208301526124d3818461246c565b90509392505050565b7f54656d706c617465206973206120436c6f6e6500000000000000000000000000600082015250565b60006125126013836122d1565b915061251d826124dc565b602082019050919050565b6000602082019050818103600083015261254181612505565b9050919050565b7f4f776e61626c653a206e6577206f776e657220697320746865207a65726f206160008201527f6464726573730000000000000000000000000000000000000000000000000000602082015250565b60006125a46026836122d1565b91506125af82612548565b604082019050919050565b600060208201905081810360008301526125d381612597565b9050919050565b6000815190506125e981611efb565b92915050565b60006020828403121561260557612604611bd0565b5b6000612613848285016125da565b91505092915050565b600061262f61262a84611fd9565b611fbe565b90508281526020810184848401111561264b5761264a611f59565b5b612656848285611d36565b509392505050565b600082601f83011261267357612672611f54565b5b815161268384826020860161261c565b91505092915050565b6000602082840312156126a2576126a1611bd0565b5b600082015167ffffffffffffffff8111156126c0576126bf611bd5565b5b6126cc8482850161265e565b91505092915050565b6000815190506126e481611c0c565b92915050565b600060208284031215612700576126ff611bd0565b5b600061270e848285016126d5565b91505092915050565b7f54656d706c61746520646f65736e277420657869737400000000000000000000600082015250565b600061274d6016836122d1565b915061275882612717565b602082019050919050565b6000602082019050818103600083015261277c81612740565b9050919050565b7f496d706c656d656e746174696f6e20616c726561647920657869737473000000600082015250565b60006127b9601d836122d1565b91506127c482612783565b602082019050919050565b600060208201905081810360008301526127e8816127ac565b9050919050565b60008115159050919050565b612804816127ef565b811461280f57600080fd5b50565b600081519050612821816127fb565b92915050565b6000806040838503121561283e5761283d611bd0565b5b600061284c85828601612812565b925050602061285d858286016126d5565b9150509250929050565b7f496d706c656d656e746174696f6e206973206e6f74206120436f6e7472616374600082015250565b600061289d6020836122d1565b91506128a882612867565b602082019050919050565b600060208201905081810360008301526128cc81612890565b9050919050565b60006128de82611d01565b91507fffffffffffffffffffffffffffffffffffffffffffffffffffffffffffffffff8214156129115761291061224c565b5b600182019050919050565b7f455243313136373a20637265617465206661696c656400000000000000000000600082015250565b60006129526016836122d1565b915061295d8261291c565b602082019050919050565b6000602082019050818103600083015261298181612945565b9050919050565b600081519050919050565b600061299e82612988565b6129a8818561234e565b93506129b8818560208601611d36565b80840191505092915050565b60006129d08284612993565b915081905092915050565b6000602082840312156129f1576129f0611bd0565b5b60006129ff84828501612812565b9150509291505056fea26469706673582212205a31cc51cc51a730f7fd198c7784356f21dc2c19e8832d76151dec109c0c328064736f6c63430008090033",
  "devdoc": {
    "kind": "dev",
    "methods": {
      "owner()": {
        "details": "Returns the address of the current owner."
      },
      "renounceOwnership()": {
        "details": "Leaves the contract without owner. It will not be possible to call `onlyOwner` functions anymore. Can only be called by the current owner. NOTE: Renouncing ownership will leave the contract without an owner, thereby removing any functionality that is only available to the owner."
      },
      "transferOwnership(address)": {
        "details": "Transfers ownership of the contract to a new account (`newOwner`). Can only be called by the current owner."
      }
    },
    "version": 1
  },
  "userdoc": {
    "kind": "user",
    "methods": {},
    "version": 1
  },
  "storageLayout": {
    "storage": [
      {
        "astId": 2362,
        "contract": "solidity/contracts/NFTsFactory.sol:NFTsFactory",
        "label": "_owner",
        "offset": 0,
        "slot": "0",
        "type": "t_address"
      },
      {
        "astId": 2976,
        "contract": "solidity/contracts/NFTsFactory.sol:NFTsFactory",
        "label": "implementations",
        "offset": 0,
        "slot": "1",
        "type": "t_array(t_address)dyn_storage"
      },
      {
        "astId": 2978,
        "contract": "solidity/contracts/NFTsFactory.sol:NFTsFactory",
        "label": "template",
        "offset": 0,
        "slot": "2",
        "type": "t_address"
      },
      {
        "astId": 2982,
        "contract": "solidity/contracts/NFTsFactory.sol:NFTsFactory",
        "label": "templates",
        "offset": 0,
        "slot": "3",
        "type": "t_mapping(t_address,t_address)"
      },
      {
        "astId": 2984,
        "contract": "solidity/contracts/NFTsFactory.sol:NFTsFactory",
        "label": "_contractProbe",
        "offset": 0,
        "slot": "4",
        "type": "t_address"
      }
    ],
    "types": {
      "t_address": {
        "encoding": "inplace",
        "label": "address",
        "numberOfBytes": "20"
      },
      "t_array(t_address)dyn_storage": {
        "base": "t_address",
        "encoding": "dynamic_array",
        "label": "address[]",
        "numberOfBytes": "32"
      },
      "t_mapping(t_address,t_address)": {
        "encoding": "mapping",
        "key": "t_address",
        "label": "mapping(address => address)",
        "numberOfBytes": "32",
        "value": "t_address"
      }
    }
  }
}