{
  "address": "0xe93f53292249630aB09e0408dB6D8b144E5414D1",
  "abi": [
    {
      "inputs": [
        {
          "internalType": "address",
          "name": "_openNFTs",
          "type": "address"
        },
        {
          "internalType": "address",
          "name": "_contractprobe",
          "type": "address"
        }
      ],
      "stateMutability": "nonpayable",
      "type": "constructor"
    },
    {
      "anonymous": false,
      "inputs": [
        {
          "indexed": true,
          "internalType": "address",
          "name": "implementation",
          "type": "address"
        },
        {
          "indexed": true,
          "internalType": "address",
          "name": "template",
          "type": "address"
        },
        {
          "indexed": true,
          "internalType": "address",
          "name": "creator",
          "type": "address"
        }
      ],
      "name": "NewImplementation",
      "type": "event"
    },
    {
      "anonymous": false,
      "inputs": [
        {
          "indexed": true,
          "internalType": "address",
          "name": "template",
          "type": "address"
        },
        {
          "indexed": true,
          "internalType": "address",
          "name": "creator",
          "type": "address"
        }
      ],
      "name": "NewTemplate",
      "type": "event"
    },
    {
      "anonymous": false,
      "inputs": [
        {
          "indexed": true,
          "internalType": "address",
          "name": "previousOwner",
          "type": "address"
        },
        {
          "indexed": true,
          "internalType": "address",
          "name": "newOwner",
          "type": "address"
        }
      ],
      "name": "OwnershipTransferred",
      "type": "event"
    },
    {
      "inputs": [
        {
          "internalType": "address",
          "name": "_implementation",
          "type": "address"
        }
      ],
      "name": "addImplementation",
      "outputs": [],
      "stateMutability": "nonpayable",
      "type": "function"
    },
    {
      "inputs": [
        {
          "internalType": "address",
          "name": "nft",
          "type": "address"
        },
        {
          "internalType": "address",
          "name": "owner",
          "type": "address"
        }
      ],
      "name": "balanceOf",
      "outputs": [
        {
          "components": [
            {
              "internalType": "address",
              "name": "nft",
              "type": "address"
            },
            {
              "internalType": "string",
              "name": "name",
              "type": "string"
            },
            {
              "internalType": "string",
              "name": "symbol",
              "type": "string"
            },
            {
              "internalType": "uint256",
              "name": "balance",
              "type": "uint256"
            },
            {
              "internalType": "address",
              "name": "owner",
              "type": "address"
            }
          ],
          "internalType": "struct NFTsFactory.NftData",
          "name": "nftData",
          "type": "tuple"
        }
      ],
      "stateMutability": "view",
      "type": "function"
    },
    {
      "inputs": [
        {
          "internalType": "address",
          "name": "owner",
          "type": "address"
        }
      ],
      "name": "balancesOf",
      "outputs": [
        {
          "components": [
            {
              "internalType": "address",
              "name": "nft",
              "type": "address"
            },
            {
              "internalType": "string",
              "name": "name",
              "type": "string"
            },
            {
              "internalType": "string",
              "name": "symbol",
              "type": "string"
            },
            {
              "internalType": "uint256",
              "name": "balance",
              "type": "uint256"
            },
            {
              "internalType": "address",
              "name": "owner",
              "type": "address"
            }
          ],
          "internalType": "struct NFTsFactory.NftData[]",
          "name": "nftData",
          "type": "tuple[]"
        }
      ],
      "stateMutability": "view",
      "type": "function"
    },
    {
      "inputs": [
        {
          "internalType": "string",
          "name": "_name",
          "type": "string"
        },
        {
          "internalType": "string",
          "name": "_symbol",
          "type": "string"
        }
      ],
      "name": "clone",
      "outputs": [
        {
          "internalType": "address",
          "name": "clone_",
          "type": "address"
        }
      ],
      "stateMutability": "nonpayable",
      "type": "function"
    },
    {
      "inputs": [
        {
          "internalType": "uint256",
          "name": "",
          "type": "uint256"
        }
      ],
      "name": "implementations",
      "outputs": [
        {
          "internalType": "address",
          "name": "",
          "type": "address"
        }
      ],
      "stateMutability": "view",
      "type": "function"
    },
    {
      "inputs": [],
      "name": "implementationsCount",
      "outputs": [
        {
          "internalType": "uint256",
          "name": "count",
          "type": "uint256"
        }
      ],
      "stateMutability": "view",
      "type": "function"
    },
    {
      "inputs": [],
      "name": "owner",
      "outputs": [
        {
          "internalType": "address",
          "name": "",
          "type": "address"
        }
      ],
      "stateMutability": "view",
      "type": "function"
    },
    {
      "inputs": [],
      "name": "renounceOwnership",
      "outputs": [],
      "stateMutability": "nonpayable",
      "type": "function"
    },
    {
      "inputs": [
        {
          "internalType": "address",
          "name": "_template",
          "type": "address"
        }
      ],
      "name": "setDefaultTemplate",
      "outputs": [],
      "stateMutability": "nonpayable",
      "type": "function"
    },
    {
      "inputs": [],
      "name": "template",
      "outputs": [
        {
          "internalType": "address",
          "name": "",
          "type": "address"
        }
      ],
      "stateMutability": "view",
      "type": "function"
    },
    {
      "inputs": [
        {
          "internalType": "address",
          "name": "",
          "type": "address"
        }
      ],
      "name": "templates",
      "outputs": [
        {
          "internalType": "address",
          "name": "",
          "type": "address"
        }
      ],
      "stateMutability": "view",
      "type": "function"
    },
    {
      "inputs": [
        {
          "internalType": "address",
          "name": "newOwner",
          "type": "address"
        }
      ],
      "name": "transferOwnership",
      "outputs": [],
      "stateMutability": "nonpayable",
      "type": "function"
    },
    {
      "inputs": [],
      "name": "withdrawEther",
      "outputs": [],
      "stateMutability": "nonpayable",
      "type": "function"
    }
  ],
  "transactionHash": "0x3da7d8519014426d8945c9436d3f173de7b1b921d78e95b28925bc553bbb7957",
  "args": [
    "0x94f842706ceb375BF0d2602E61D13D449c0e150f",
    "0xe5D79962aC85A131BcAE1ffeFe82CBfcF2858eB9"
  ],
  "solcInputHash": "ecac946802419f75af9ca3209c5d2e45",
  "bytecode": "0x60806040523480156200001157600080fd5b5060405162001b0538038062001b05833981016040819052620000349162000444565b80620000403362000073565b600480546001600160a01b0319166001600160a01b03929092169190911790556200006b82620000c3565b50506200049e565b600080546001600160a01b038381166001600160a01b0319831681178455604051919092169283917f8be0079c531659141344cd1fd0a4f28419497f9722a3daafe3b4186f6b6457e09190a35050565b6000546001600160a01b03163314620001125760405162461bcd60e51b8152602060048201819052602482015260008051602062001ae583398151915260448201526064015b60405180910390fd5b6001600160a01b03818116600090815260036020526040902054166200013d576200013d81620001f6565b6001600160a01b0380821660008181526003602052604090205490911614620001a95760405162461bcd60e51b815260206004820152601360248201527f54656d706c617465206973206120436c6f6e6500000000000000000000000000604482015260640162000109565b600280546001600160a01b0319166001600160a01b0383169081179091556040513391907f81bbf04250a28f0d5979a401ffb6705dcebf8b354060431d672cf1ea4594fc6790600090a350565b6000546001600160a01b03163314620002415760405162461bcd60e51b8152602060048201819052602482015260008051602062001ae5833981519152604482015260640162000109565b6200024c816200024f565b50565b6001600160a01b038181166000908152600360205260409020541615620002b95760405162461bcd60e51b815260206004820152601d60248201527f496d706c656d656e746174696f6e20616c726561647920657869737473000000604482015260640162000109565b6004805460405163275e5da560e01b81526001600160a01b03848116938201939093526000928392169063275e5da590602401604080518083038186803b1580156200030457600080fd5b505afa15801562000319573d6000803e3d6000fd5b505050506040513d601f19601f820116820180604052508101906200033f91906200047b565b9150915081620003925760405162461bcd60e51b815260206004820181905260248201527f496d706c656d656e746174696f6e206973206e6f74206120436f6e7472616374604482015260640162000109565b600180548082019091557fb10e2d527612073b26eecdfd717e6a320cf44b4afac2b0732d9fcbe2b7fa0cf60180546001600160a01b038086166001600160a01b0319928316811790935560008381526003602052604080822080549387169390941683179093559151339391927f053585d4de2374a5e4cee65e665171098bd6777e89041c2915cdac4d567cd93f91a4505050565b80516001600160a01b03811681146200043f57600080fd5b919050565b6000806040838503121562000457578182fd5b620004628362000427565b9150620004726020840162000427565b90509250929050565b600080604083850312156200048e578182fd5b8251801515811462000462578283fd5b61163780620004ae6000396000f3fe608060405234801561001057600080fd5b50600436106100cf5760003560e01c80638da5cb5b1161008c578063c17bae4f11610066578063c17bae4f146101a9578063c6e2a400146101ba578063f2fde38b146101cd578063f7888aec146101e057600080fd5b80638da5cb5b1461017257806393199bcf14610183578063b98a47481461019657600080fd5b806320a99bd0146100d45780636392a51f1461011a5780636f2ddd931461013a578063715018a61461014d5780637362377b14610157578063845affc81461015f575b600080fd5b6100fd6100e23660046111d0565b6003602052600090815260409020546001600160a01b031681565b6040516001600160a01b0390911681526020015b60405180910390f35b61012d6101283660046111d0565b610200565b6040516101119190611436565b6002546100fd906001600160a01b031681565b6101556102f7565b005b610155610336565b6100fd61016d366004611359565b6103fb565b6000546001600160a01b03166100fd565b6100fd6101913660046112f8565b610425565b6101556101a43660046111d0565b610556565b600154604051908152602001610111565b6101556101c83660046111d0565b610655565b6101556101db3660046111d0565b610688565b6101f36101ee366004611208565b610720565b60405161011191906114f1565b60015460609067ffffffffffffffff81111561022c57634e487b7160e01b600052604160045260246000fd5b60405190808252806020026020018201604052801561026557816020015b61025261112e565b81526020019060019003908161024a5790505b50905060005b6001548110156102f1576102b46001828154811061029957634e487b7160e01b600052603260045260246000fd5b6000918252602090912001546001600160a01b031684610720565b8282815181106102d457634e487b7160e01b600052603260045260246000fd5b60209081029190910101526102ea60018261155d565b905061026b565b50919050565b6000546001600160a01b0316331461032a5760405162461bcd60e51b8152600401610321906114bc565b60405180910390fd5b6103346000610bcc565b565b6000546001600160a01b031633146103605760405162461bcd60e51b8152600401610321906114bc565b604051600090339047908381818185875af1925050503d80600081146103a2576040519150601f19603f3d011682016040523d82523d6000602084013e6103a7565b606091505b50509050806103f85760405162461bcd60e51b815260206004820152601860248201527f4661696c656420746f20776974686472617720457468657200000000000000006044820152606401610321565b50565b6001818154811061040b57600080fd5b6000918252602090912001546001600160a01b0316905081565b600061042f610c1c565b905061044b6001600160a01b038216636ca50ed960e11b610c93565b6104975760405162461bcd60e51b815260206004820152601f60248201527f436c6f6e65206973206e6f74204f70656e204e46547320636f6e7472616374006044820152606401610321565b60405163266c45bb60e11b81526001600160a01b03821690634cd88b76906104c59086908690600401611497565b600060405180830381600087803b1580156104df57600080fd5b505af11580156104f3573d6000803e3d6000fd5b505060405163f2fde38b60e01b81523360048201526001600160a01b038416925063f2fde38b9150602401600060405180830381600087803b15801561053857600080fd5b505af115801561054c573d6000803e3d6000fd5b5050505092915050565b6000546001600160a01b031633146105805760405162461bcd60e51b8152600401610321906114bc565b6001600160a01b03818116600090815260036020526040902054166105a8576105a881610655565b6001600160a01b03808216600081815260036020526040902054909116146106085760405162461bcd60e51b815260206004820152601360248201527254656d706c617465206973206120436c6f6e6560681b6044820152606401610321565b600280546001600160a01b0319166001600160a01b0383169081179091556040513391907f81bbf04250a28f0d5979a401ffb6705dcebf8b354060431d672cf1ea4594fc6790600090a350565b6000546001600160a01b0316331461067f5760405162461bcd60e51b8152600401610321906114bc565b6103f881610cb8565b6000546001600160a01b031633146106b25760405162461bcd60e51b8152600401610321906114bc565b6001600160a01b0381166107175760405162461bcd60e51b815260206004820152602660248201527f4f776e61626c653a206e6577206f776e657220697320746865207a65726f206160448201526564647265737360d01b6064820152608401610321565b6103f881610bcc565b61072861112e565b60408051600480825260a0820190925260009160208201608080368337505081519192506380ac58cd60e01b9183915060009061077557634e487b7160e01b600052603260045260246000fd5b6001600160e01b031990921660209283029190910190910152805163780e9d6360e01b90829060019081106107ba57634e487b7160e01b600052603260045260246000fd5b6001600160e01b031990921660209283029190910190910152805163780e9d6360e01b90829060029081106107ff57634e487b7160e01b600052603260045260246000fd5b6001600160e01b0319909216602092830291909101909101528051636ca50ed960e11b908290600390811061084457634e487b7160e01b600052603260045260246000fd5b6001600160e01b03199092166020928302919091019091015260006108726001600160a01b03861683610e88565b905080600060ff168151811061089857634e487b7160e01b600052603260045260246000fd5b602002602001015115610bc4576001600160a01b03851683528051819060019081106108d457634e487b7160e01b600052603260045260246000fd5b6020026020010151156109d957846001600160a01b03166306fdde036040518163ffffffff1660e01b815260040160006040518083038186803b15801561091a57600080fd5b505afa15801561092e573d6000803e3d6000fd5b505050506040513d6000823e601f3d908101601f191682016040526109569190810190611285565b8360200181905250846001600160a01b03166395d89b416040518163ffffffff1660e01b815260040160006040518083038186803b15801561099757600080fd5b505afa1580156109ab573d6000803e3d6000fd5b505050506040513d6000823e601f3d908101601f191682016040526109d39190810190611285565b60408401525b6001600160a01b038416610a945780600260ff1681518110610a0b57634e487b7160e01b600052603260045260246000fd5b602002602001015115610a8f57846001600160a01b03166318160ddd6040518163ffffffff1660e01b815260040160206040518083038186803b158015610a5157600080fd5b505afa158015610a65573d6000803e3d6000fd5b505050506040513d601f19601f82011682018060405250810190610a899190611371565b60608401525b610b13565b6040516370a0823160e01b81526001600160a01b0385811660048301528616906370a082319060240160206040518083038186803b158015610ad557600080fd5b505afa158015610ae9573d6000803e3d6000fd5b505050506040513d601f19601f82011682018060405250810190610b0d9190611371565b60608401525b80600360ff1681518110610b3757634e487b7160e01b600052603260045260246000fd5b602002602001015115610bc457846001600160a01b0316638da5cb5b6040518163ffffffff1660e01b815260040160206040518083038186803b158015610b7d57600080fd5b505afa158015610b91573d6000803e3d6000fd5b505050506040513d601f19601f82011682018060405250810190610bb591906111ec565b6001600160a01b031660808401525b505092915050565b600080546001600160a01b038381166001600160a01b0319831681178455604051919092169283917f8be0079c531659141344cd1fd0a4f28419497f9722a3daafe3b4186f6b6457e09190a35050565b6002546000906001600160a01b0316610c705760405162461bcd60e51b815260206004820152601660248201527515195b5c1b185d1948191bd95cdb89dd08195e1a5cdd60521b6044820152606401610321565b600254610c85906001600160a01b0316610f75565b9050610c9081610cb8565b90565b6000610c9e83611012565b8015610caf5750610caf8383611045565b90505b92915050565b6001600160a01b038181166000908152600360205260409020541615610d205760405162461bcd60e51b815260206004820152601d60248201527f496d706c656d656e746174696f6e20616c7265616479206578697374730000006044820152606401610321565b6004805460405163275e5da560e01b81526001600160a01b03848116938201939093526000928392169063275e5da590602401604080518083038186803b158015610d6a57600080fd5b505afa158015610d7e573d6000803e3d6000fd5b505050506040513d601f19601f82011682018060405250810190610da2919061125a565b9150915081610df35760405162461bcd60e51b815260206004820181905260248201527f496d706c656d656e746174696f6e206973206e6f74206120436f6e74726163746044820152606401610321565b600180548082019091557fb10e2d527612073b26eecdfd717e6a320cf44b4afac2b0732d9fcbe2b7fa0cf60180546001600160a01b038086166001600160a01b0319928316811790935560008381526003602052604080822080549387169390941683179093559151339391927f053585d4de2374a5e4cee65e665171098bd6777e89041c2915cdac4d567cd93f91a4505050565b60606000825167ffffffffffffffff811115610eb457634e487b7160e01b600052604160045260246000fd5b604051908082528060200260200182016040528015610edd578160200160208202803683370190505b509050610ee984611012565b15610caf5760005b8351811015610f6d57610f2b85858381518110610f1e57634e487b7160e01b600052603260045260246000fd5b6020026020010151611045565b828281518110610f4b57634e487b7160e01b600052603260045260246000fd5b9115156020928302919091019091015280610f65816115a5565b915050610ef1565b509392505050565b6000604051733d602d80600a3d3981f3363d3d373d3d3d363d7360601b81528260601b60148201526e5af43d82803e903d91602b57fd5bf360881b60288201526037816000f09150506001600160a01b03811661100d5760405162461bcd60e51b8152602060048201526016602482015275115490cc4c4d8dce8818dc99585d194819985a5b195960521b6044820152606401610321565b919050565b6000611025826301ffc9a760e01b611045565b8015610cb2575061103e826001600160e01b0319611045565b1592915050565b604080516001600160e01b0319831660248083019190915282518083039091018152604490910182526020810180516001600160e01b03166301ffc9a760e01b179052905160009190829081906001600160a01b03871690617530906110ac90869061141a565b6000604051808303818686fa925050503d80600081146110e8576040519150601f19603f3d011682016040523d82523d6000602084013e6110ed565b606091505b50915091506020815110156111085760009350505050610cb2565b8180156111245750808060200190518101906111249190611240565b9695505050505050565b6040518060a0016040528060006001600160a01b0316815260200160608152602001606081526020016000815260200160006001600160a01b031681525090565b8051801515811461100d57600080fd5b600082601f83011261118f578081fd5b81356111a261119d82611535565b611504565b8181528460208386010111156111b6578283fd5b816020850160208301379081016020019190915292915050565b6000602082840312156111e1578081fd5b8135610caf816115ec565b6000602082840312156111fd578081fd5b8151610caf816115ec565b6000806040838503121561121a578081fd5b8235611225816115ec565b91506020830135611235816115ec565b809150509250929050565b600060208284031215611251578081fd5b610caf8261116f565b6000806040838503121561126c578182fd5b6112758361116f565b91506020830151611235816115ec565b600060208284031215611296578081fd5b815167ffffffffffffffff8111156112ac578182fd5b8201601f810184136112bc578182fd5b80516112ca61119d82611535565b8181528560208385010111156112de578384fd5b6112ef826020830160208601611575565b95945050505050565b6000806040838503121561130a578182fd5b823567ffffffffffffffff80821115611321578384fd5b61132d8683870161117f565b93506020850135915080821115611342578283fd5b5061134f8582860161117f565b9150509250929050565b60006020828403121561136a578081fd5b5035919050565b600060208284031215611382578081fd5b5051919050565b600081518084526113a1816020860160208601611575565b601f01601f19169290920160200192915050565b600060018060a01b03808351168452602083015160a060208601526113dd60a0860182611389565b9050604084015185820360408701526113f68282611389565b91505060608401516060860152816080850151166080860152809250505092915050565b6000825161142c818460208701611575565b9190910192915050565b6000602080830181845280855180835260408601915060408160051b8701019250838701855b8281101561148a57603f198886030184526114788583516113b5565b9450928501929085019060010161145c565b5092979650505050505050565b6040815260006114aa6040830185611389565b82810360208401526112ef8185611389565b6020808252818101527f4f776e61626c653a2063616c6c6572206973206e6f7420746865206f776e6572604082015260600190565b602081526000610caf60208301846113b5565b604051601f8201601f1916810167ffffffffffffffff8111828210171561152d5761152d6115d6565b604052919050565b600067ffffffffffffffff82111561154f5761154f6115d6565b50601f01601f191660200190565b60008219821115611570576115706115c0565b500190565b60005b83811015611590578181015183820152602001611578565b8381111561159f576000848401525b50505050565b60006000198214156115b9576115b96115c0565b5060010190565b634e487b7160e01b600052601160045260246000fd5b634e487b7160e01b600052604160045260246000fd5b6001600160a01b03811681146103f857600080fdfea2646970667358221220afdbfafa5d9ba7d3c0b86326a3019229a09f2dccd592b17b20d21b3c5c92154e64736f6c634300080400334f776e61626c653a2063616c6c6572206973206e6f7420746865206f776e6572",
  "devdoc": {
    "kind": "dev",
    "methods": {
      "owner()": {
        "details": "Returns the address of the current owner."
      },
      "renounceOwnership()": {
        "details": "Leaves the contract without owner. It will not be possible to call `onlyOwner` functions anymore. Can only be called by the current owner. NOTE: Renouncing ownership will leave the contract without an owner, thereby removing any functionality that is only available to the owner."
      },
      "transferOwnership(address)": {
        "details": "Transfers ownership of the contract to a new account (`newOwner`). Can only be called by the current owner."
      }
    },
    "version": 1
  },
  "userdoc": {
    "kind": "user",
    "methods": {},
    "version": 1
  },
  "storageLayout": {
    "storage": [
      {
        "astId": 2362,
        "contract": "solidity/contracts/NFTsFactory.sol:NFTsFactory",
        "label": "_owner",
        "offset": 0,
        "slot": "0",
        "type": "t_address"
      },
      {
        "astId": 2959,
        "contract": "solidity/contracts/NFTsFactory.sol:NFTsFactory",
        "label": "implementations",
        "offset": 0,
        "slot": "1",
        "type": "t_array(t_address)dyn_storage"
      },
      {
        "astId": 2961,
        "contract": "solidity/contracts/NFTsFactory.sol:NFTsFactory",
        "label": "template",
        "offset": 0,
        "slot": "2",
        "type": "t_address"
      },
      {
        "astId": 2965,
        "contract": "solidity/contracts/NFTsFactory.sol:NFTsFactory",
        "label": "templates",
        "offset": 0,
        "slot": "3",
        "type": "t_mapping(t_address,t_address)"
      },
      {
        "astId": 2967,
        "contract": "solidity/contracts/NFTsFactory.sol:NFTsFactory",
        "label": "contractProbe",
        "offset": 0,
        "slot": "4",
        "type": "t_address"
      }
    ],
    "types": {
      "t_address": {
        "encoding": "inplace",
        "label": "address",
        "numberOfBytes": "20"
      },
      "t_array(t_address)dyn_storage": {
        "base": "t_address",
        "encoding": "dynamic_array",
        "label": "address[]",
        "numberOfBytes": "32"
      },
      "t_mapping(t_address,t_address)": {
        "encoding": "mapping",
        "key": "t_address",
        "label": "mapping(address => address)",
        "numberOfBytes": "32",
        "value": "t_address"
      }
    }
  }
}