{
  "address": "0x7De3572Ea3ac699e6DE74f87dBdBeA5403593417",
  "abi": [
    {
      "anonymous": false,
      "inputs": [
        {
          "indexed": false,
          "internalType": "address",
          "name": "implementation",
          "type": "address"
        },
        {
          "indexed": true,
          "internalType": "uint256",
          "name": "version",
          "type": "uint256"
        },
        {
          "indexed": true,
          "internalType": "bool",
          "name": "isTemplate",
          "type": "bool"
        },
        {
          "indexed": true,
          "internalType": "address",
          "name": "creator",
          "type": "address"
        }
      ],
      "name": "NewImplementation",
      "type": "event"
    },
    {
      "anonymous": false,
      "inputs": [
        {
          "indexed": true,
          "internalType": "address",
          "name": "previousOwner",
          "type": "address"
        },
        {
          "indexed": true,
          "internalType": "address",
          "name": "newOwner",
          "type": "address"
        }
      ],
      "name": "OwnershipTransferred",
      "type": "event"
    },
    {
      "inputs": [
        {
          "internalType": "address",
          "name": "_clone",
          "type": "address"
        },
        {
          "internalType": "uint256",
          "name": "_version",
          "type": "uint256"
        },
        {
          "internalType": "address",
          "name": "_creator",
          "type": "address"
        }
      ],
      "name": "addClone",
      "outputs": [],
      "stateMutability": "nonpayable",
      "type": "function"
    },
    {
      "inputs": [
        {
          "internalType": "address",
          "name": "_template",
          "type": "address"
        }
      ],
      "name": "addTemplate",
      "outputs": [],
      "stateMutability": "nonpayable",
      "type": "function"
    },
    {
      "inputs": [
        {
          "internalType": "address",
          "name": "nft",
          "type": "address"
        },
        {
          "internalType": "address",
          "name": "owner",
          "type": "address"
        }
      ],
      "name": "balanceOf",
      "outputs": [
        {
          "components": [
            {
              "internalType": "address",
              "name": "nft",
              "type": "address"
            },
            {
              "internalType": "string",
              "name": "name",
              "type": "string"
            },
            {
              "internalType": "string",
              "name": "symbol",
              "type": "string"
            },
            {
              "internalType": "uint256",
              "name": "balance",
              "type": "uint256"
            }
          ],
          "internalType": "struct NFTsFactory.NftData",
          "name": "nftData",
          "type": "tuple"
        }
      ],
      "stateMutability": "view",
      "type": "function"
    },
    {
      "inputs": [
        {
          "internalType": "address",
          "name": "owner",
          "type": "address"
        }
      ],
      "name": "balancesOf",
      "outputs": [
        {
          "components": [
            {
              "internalType": "address",
              "name": "nft",
              "type": "address"
            },
            {
              "internalType": "string",
              "name": "name",
              "type": "string"
            },
            {
              "internalType": "string",
              "name": "symbol",
              "type": "string"
            },
            {
              "internalType": "uint256",
              "name": "balance",
              "type": "uint256"
            }
          ],
          "internalType": "struct NFTsFactory.NftData[]",
          "name": "nftData",
          "type": "tuple[]"
        }
      ],
      "stateMutability": "view",
      "type": "function"
    },
    {
      "inputs": [],
      "name": "clone",
      "outputs": [
        {
          "internalType": "address",
          "name": "_clone",
          "type": "address"
        }
      ],
      "stateMutability": "nonpayable",
      "type": "function"
    },
    {
      "inputs": [],
      "name": "implementations",
      "outputs": [
        {
          "internalType": "address[]",
          "name": "",
          "type": "address[]"
        }
      ],
      "stateMutability": "view",
      "type": "function"
    },
    {
      "inputs": [],
      "name": "owner",
      "outputs": [
        {
          "internalType": "address",
          "name": "",
          "type": "address"
        }
      ],
      "stateMutability": "view",
      "type": "function"
    },
    {
      "inputs": [],
      "name": "renounceOwnership",
      "outputs": [],
      "stateMutability": "nonpayable",
      "type": "function"
    },
    {
      "inputs": [],
      "name": "template",
      "outputs": [
        {
          "internalType": "address",
          "name": "",
          "type": "address"
        }
      ],
      "stateMutability": "view",
      "type": "function"
    },
    {
      "inputs": [],
      "name": "templates",
      "outputs": [
        {
          "internalType": "address[]",
          "name": "",
          "type": "address[]"
        }
      ],
      "stateMutability": "view",
      "type": "function"
    },
    {
      "inputs": [
        {
          "internalType": "address",
          "name": "newOwner",
          "type": "address"
        }
      ],
      "name": "transferOwnership",
      "outputs": [],
      "stateMutability": "nonpayable",
      "type": "function"
    },
    {
      "inputs": [],
      "name": "version",
      "outputs": [
        {
          "internalType": "uint256",
          "name": "",
          "type": "uint256"
        }
      ],
      "stateMutability": "view",
      "type": "function"
    }
  ],
  "transactionHash": "0x558aca215cb299b15a3b0df242276c5152d7bb066afaee4105e89e21ec274a1b",
  "args": [],
  "solcInputHash": "2a84cfbbc08ec2e7818d6b607b6a4075",
  "bytecode": "0x6080604052600380546001600160601b0319166b780e9d635b5e139f80ac58cd17905534801561002e57600080fd5b506100383361003d565b61008d565b600080546001600160a01b038381166001600160a01b0319831681178455604051919092169283917f8be0079c531659141344cd1fd0a4f28419497f9722a3daafe3b4186f6b6457e09190a35050565b6110d88061009c6000396000f3fe608060405234801561001057600080fd5b50600436106100b45760003560e01c80636392a51f116100715780636392a51f146101345780636f2ddd9314610154578063715018a61461015c5780638da5cb5b14610164578063f2fde38b14610175578063f7888aec1461018857600080fd5b806309ed4607146100b957806330e9012c146100de5780633a283d7d146100f3578063520ecdb0146100fb57806354fd4d501461011057806355b3026614610121575b600080fd5b6100c16101a8565b6040516001600160a01b0390911681526020015b60405180910390f35b6100e66101d4565b6040516100d59190610f0e565b6100e6610236565b61010e610109366004610d53565b610296565b005b6001546040519081526020016100d5565b61010e61012f366004610d07565b61031f565b610147610142366004610d07565b6103b5565b6040516100d59190610f5b565b6100c16104d8565b61010e610573565b6000546001600160a01b03166100c1565b61010e610183366004610d07565b6105a9565b61019b610196366004610d21565b610641565b6040516100d59190611004565b60006101ba6101b56104d8565b610956565b90506101d1816101c960015490565b6000336109f3565b90565b6060600280548060200260200160405190810160405280929190818152602001828054801561022c57602002820191906000526020600020905b81546001600160a01b0316815260019091019060200180831161020e575b5050505050905090565b6060600180548060200260200160405190810160405280929190818152602001828054801561022c576020028201919060005260206000209081546001600160a01b0316815260019091019060200180831161020e575050505050905090565b6000546001600160a01b031633146102c95760405162461bcd60e51b81526004016102c090610fcf565b60405180910390fd5b60018054101561030d5760405162461bcd60e51b815260206004820152600f60248201526e139bc81d195b5c1b185d19481e595d608a1b60448201526064016102c0565b61031a83836000846109f3565b505050565b6000546001600160a01b031633146103495760405162461bcd60e51b81526004016102c090610fcf565b60018054808201825560008290527fb10e2d527612073b26eecdfd717e6a320cf44b4afac2b0732d9fcbe2b7fa0cf60180546001600160a01b0319166001600160a01b038416179055546103b290829060016103ad6000546001600160a01b031690565b6109f3565b50565b60025460609067ffffffffffffffff8111156103e157634e487b7160e01b600052604160045260246000fd5b60405190808252806020026020018201604052801561044657816020015b610433604051806080016040528060006001600160a01b031681526020016060815260200160608152602001600081525090565b8152602001906001900390816103ff5790505b50905060005b6002548110156104d2576104956002828154811061047a57634e487b7160e01b600052603260045260246000fd5b6000918252602090912001546001600160a01b031684610641565b8282815181106104b557634e487b7160e01b600052603260045260246000fd5b60209081029190910101526104cb600182611017565b905061044c565b50919050565b600060016104e560015490565b10156105255760405162461bcd60e51b815260206004820152600f60248201526e139bc81d195b5c1b185d19481e595d608a1b60448201526064016102c0565b60018061053160015490565b61053b919061102f565b8154811061055957634e487b7160e01b600052603260045260246000fd5b6000918252602090912001546001600160a01b0316919050565b6000546001600160a01b0316331461059d5760405162461bcd60e51b81526004016102c090610fcf565b6105a76000610afd565b565b6000546001600160a01b031633146105d35760405162461bcd60e51b81526004016102c090610fcf565b6001600160a01b0381166106385760405162461bcd60e51b815260206004820152602660248201527f4f776e61626c653a206e6577206f776e657220697320746865207a65726f206160448201526564647265737360d01b60648201526084016102c0565b6103b281610afd565b610675604051806080016040528060006001600160a01b031681526020016060815260200160608152602001600081525090565b610697604051806040016040528060018152602001603160f81b815250610b4d565b6003546106b1906001600160a01b0385169060e01b610b90565b15610950576106d8604051806040016040528060018152602001601960f91b815250610b4d565b6001600160a01b0383168082526003546106fd9190640100000000900460e01b610b90565b156107fa57826001600160a01b03166306fdde036040518163ffffffff1660e01b815260040160006040518083038186803b15801561073b57600080fd5b505afa15801561074f573d6000803e3d6000fd5b505050506040513d6000823e601f3d908101601f191682016040526107779190810190610dae565b8160200181905250826001600160a01b03166395d89b416040518163ffffffff1660e01b815260040160006040518083038186803b1580156107b857600080fd5b505afa1580156107cc573d6000803e3d6000fd5b505050506040513d6000823e601f3d908101601f191682016040526107f49190810190610dae565b60408201525b61081c604051806040016040528060018152602001603360f81b815250610b4d565b6001600160a01b0382166108d157600354610850906001600160a01b0385169068010000000000000000900460e01b610b90565b156108cc57826001600160a01b03166318160ddd6040518163ffffffff1660e01b815260040160206040518083038186803b15801561088e57600080fd5b505afa1580156108a2573d6000803e3d6000fd5b505050506040513d601f19601f820116820180604052508101906108c69190610e57565b60608201525b610950565b6040516370a0823160e01b81526001600160a01b0383811660048301528416906370a082319060240160206040518083038186803b15801561091257600080fd5b505afa158015610926573d6000803e3d6000fd5b505050506040513d601f19601f8201168201806040525081019061094a9190610e57565b60608201525b92915050565b6000604051733d602d80600a3d3981f3363d3d373d3d3d363d7360601b81528260601b60148201526e5af43d82803e903d91602b57fd5bf360881b60288201526037816000f09150506001600160a01b0381166109ee5760405162461bcd60e51b8152602060048201526016602482015275115490cc4c4d8dce8818dc99585d194819985a5b195960521b60448201526064016102c0565b919050565b6000546001600160a01b03163314610a1d5760405162461bcd60e51b81526004016102c090610fcf565b600083118015610a2f57506001548311155b610a6b5760405162461bcd60e51b815260206004820152600d60248201526c2bb937b733903b32b939b4b7b760991b60448201526064016102c0565b600280546001810182556000919091527f405787fa12a823e0f2b7631cc41b3ba8828b3321ca811111fa75cd3aa3bb5ace0180546001600160a01b0319166001600160a01b03868116918217909255604051908152908216908315159085907f2077edebf3396cf4fba761aaf2df57f3c48736da9c066a9ca9e6475dce2a89ff9060200160405180910390a450505050565b600080546001600160a01b038381166001600160a01b0319831681178455604051919092169283917f8be0079c531659141344cd1fd0a4f28419497f9722a3daafe3b4186f6b6457e09190a35050565b6103b281604051602401610b619190610fbc565b60408051601f198184030181529190526020810180516001600160e01b031663104c13eb60e21b179052610bb3565b6000610b9b83610bd4565b8015610bac5750610bac8383610c07565b9392505050565b80516a636f6e736f6c652e6c6f67602083016000808483855afa5050505050565b6000610be7826301ffc9a760e01b610c07565b80156109505750610c00826001600160e01b0319610c07565b1592915050565b604080516001600160e01b0319831660248083019190915282518083039091018152604490910182526020810180516001600160e01b03166301ffc9a760e01b179052905160009190829081906001600160a01b0387169061753090610c6e908690610ef2565b6000604051808303818686fa925050503d8060008114610caa576040519150601f19603f3d011682016040523d82523d6000602084013e610caf565b606091505b5091509150602081511015610cca5760009350505050610950565b818015610ce6575080806020019051810190610ce69190610d8e565b9695505050505050565b80356001600160a01b03811681146109ee57600080fd5b600060208284031215610d18578081fd5b610bac82610cf0565b60008060408385031215610d33578081fd5b610d3c83610cf0565b9150610d4a60208401610cf0565b90509250929050565b600080600060608486031215610d67578081fd5b610d7084610cf0565b925060208401359150610d8560408501610cf0565b90509250925092565b600060208284031215610d9f578081fd5b81518015158114610bac578182fd5b600060208284031215610dbf578081fd5b815167ffffffffffffffff80821115610dd6578283fd5b818401915084601f830112610de9578283fd5b815181811115610dfb57610dfb61108c565b604051601f8201601f19908116603f01168101908382118183101715610e2357610e2361108c565b81604052828152876020848701011115610e3b578586fd5b610e4c836020830160208801611046565b979650505050505050565b600060208284031215610e68578081fd5b5051919050565b60008151808452610e87816020860160208601611046565b601f01601f19169290920160200192915050565b60018060a01b0381511682526000602082015160806020850152610ec26080850182610e6f565b905060408301518482036040860152610edb8282610e6f565b915050606083015160608501528091505092915050565b60008251610f04818460208701611046565b9190910192915050565b6020808252825182820181905260009190848201906040850190845b81811015610f4f5783516001600160a01b031683529284019291840191600101610f2a565b50909695505050505050565b6000602080830181845280855180835260408601915060408160051b8701019250838701855b82811015610faf57603f19888603018452610f9d858351610e9b565b94509285019290850190600101610f81565b5092979650505050505050565b602081526000610bac6020830184610e6f565b6020808252818101527f4f776e61626c653a2063616c6c6572206973206e6f7420746865206f776e6572604082015260600190565b602081526000610bac6020830184610e9b565b6000821982111561102a5761102a611076565b500190565b60008282101561104157611041611076565b500390565b60005b83811015611061578181015183820152602001611049565b83811115611070576000848401525b50505050565b634e487b7160e01b600052601160045260246000fd5b634e487b7160e01b600052604160045260246000fdfea2646970667358221220bfa4e0f3fb082a7e7b2f1ed9368c4f89c4c2ef2b81fd7359a54f04ac928950ac64736f6c63430008040033",
  "devdoc": {
    "kind": "dev",
    "methods": {
      "owner()": {
        "details": "Returns the address of the current owner."
      },
      "renounceOwnership()": {
        "details": "Leaves the contract without owner. It will not be possible to call `onlyOwner` functions anymore. Can only be called by the current owner. NOTE: Renouncing ownership will leave the contract without an owner, thereby removing any functionality that is only available to the owner."
      },
      "transferOwnership(address)": {
        "details": "Transfers ownership of the contract to a new account (`newOwner`). Can only be called by the current owner."
      }
    },
    "version": 1
  },
  "userdoc": {
    "kind": "user",
    "methods": {},
    "version": 1
  },
  "storageLayout": {
    "storage": [
      {
        "astId": 7,
        "contract": "solidity/contracts/NFTsFactory.sol:NFTsFactory",
        "label": "_owner",
        "offset": 0,
        "slot": "0",
        "type": "t_address"
      },
      {
        "astId": 8666,
        "contract": "solidity/contracts/NFTsFactory.sol:NFTsFactory",
        "label": "_templates",
        "offset": 0,
        "slot": "1",
        "type": "t_array(t_address)dyn_storage"
      },
      {
        "astId": 8669,
        "contract": "solidity/contracts/NFTsFactory.sol:NFTsFactory",
        "label": "_implementations",
        "offset": 0,
        "slot": "2",
        "type": "t_array(t_address)dyn_storage"
      },
      {
        "astId": 8860,
        "contract": "solidity/contracts/NFTsFactory.sol:NFTsFactory",
        "label": "ERC721",
        "offset": 0,
        "slot": "3",
        "type": "t_bytes4"
      },
      {
        "astId": 8863,
        "contract": "solidity/contracts/NFTsFactory.sol:NFTsFactory",
        "label": "ERC721Metadata",
        "offset": 4,
        "slot": "3",
        "type": "t_bytes4"
      },
      {
        "astId": 8866,
        "contract": "solidity/contracts/NFTsFactory.sol:NFTsFactory",
        "label": "ERC721Enumerable",
        "offset": 8,
        "slot": "3",
        "type": "t_bytes4"
      }
    ],
    "types": {
      "t_address": {
        "encoding": "inplace",
        "label": "address",
        "numberOfBytes": "20"
      },
      "t_array(t_address)dyn_storage": {
        "base": "t_address",
        "encoding": "dynamic_array",
        "label": "address[]",
        "numberOfBytes": "32"
      },
      "t_bytes4": {
        "encoding": "inplace",
        "label": "bytes4",
        "numberOfBytes": "4"
      }
    }
  }
}