{
  "address": "0x016fa6b76Fb24e651806455e58710d48880226f9",
  "abi": [
    {
      "inputs": [
        {
          "internalType": "address",
          "name": "initialOwner",
          "type": "address"
        }
      ],
      "stateMutability": "nonpayable",
      "type": "constructor"
    },
    {
      "anonymous": false,
      "inputs": [
        {
          "indexed": true,
          "internalType": "address",
          "name": "implementation",
          "type": "address"
        },
        {
          "indexed": true,
          "internalType": "address",
          "name": "creator",
          "type": "address"
        },
        {
          "indexed": false,
          "internalType": "uint256",
          "name": "index",
          "type": "uint256"
        }
      ],
      "name": "ImplementationNew",
      "type": "event"
    },
    {
      "anonymous": false,
      "inputs": [
        {
          "indexed": true,
          "internalType": "address",
          "name": "previousOwner",
          "type": "address"
        },
        {
          "indexed": true,
          "internalType": "address",
          "name": "newOwner",
          "type": "address"
        }
      ],
      "name": "OwnershipTransferred",
      "type": "event"
    },
    {
      "anonymous": false,
      "inputs": [
        {
          "indexed": true,
          "internalType": "string",
          "name": "templateName",
          "type": "string"
        },
        {
          "indexed": true,
          "internalType": "address",
          "name": "template",
          "type": "address"
        }
      ],
      "name": "TemplateSet",
      "type": "event"
    },
    {
      "inputs": [
        {
          "internalType": "address",
          "name": "addr",
          "type": "address"
        }
      ],
      "name": "balancesOf",
      "outputs": [
        {
          "components": [
            {
              "internalType": "address",
              "name": "nft",
              "type": "address"
            },
            {
              "internalType": "uint256",
              "name": "balanceOf",
              "type": "uint256"
            },
            {
              "internalType": "address",
              "name": "owner",
              "type": "address"
            },
            {
              "internalType": "string",
              "name": "name",
              "type": "string"
            },
            {
              "internalType": "string",
              "name": "symbol",
              "type": "string"
            },
            {
              "internalType": "uint256",
              "name": "totalSupply",
              "type": "uint256"
            }
          ],
          "internalType": "struct INFTsFactoryV2.NftData[]",
          "name": "nftData",
          "type": "tuple[]"
        }
      ],
      "stateMutability": "view",
      "type": "function"
    },
    {
      "inputs": [
        {
          "internalType": "string",
          "name": "name",
          "type": "string"
        },
        {
          "internalType": "string",
          "name": "symbol",
          "type": "string"
        },
        {
          "internalType": "string",
          "name": "templateName",
          "type": "string"
        },
        {
          "internalType": "bool[]",
          "name": "options",
          "type": "bool[]"
        }
      ],
      "name": "clone",
      "outputs": [
        {
          "internalType": "address",
          "name": "clone_",
          "type": "address"
        }
      ],
      "stateMutability": "nonpayable",
      "type": "function"
    },
    {
      "inputs": [
        {
          "internalType": "uint256",
          "name": "",
          "type": "uint256"
        }
      ],
      "name": "implementations",
      "outputs": [
        {
          "internalType": "address",
          "name": "",
          "type": "address"
        }
      ],
      "stateMutability": "view",
      "type": "function"
    },
    {
      "inputs": [
        {
          "internalType": "address[]",
          "name": "implementationsToAdd",
          "type": "address[]"
        }
      ],
      "name": "implementationsAdd",
      "outputs": [],
      "stateMutability": "nonpayable",
      "type": "function"
    },
    {
      "inputs": [],
      "name": "implementationsCount",
      "outputs": [
        {
          "internalType": "uint256",
          "name": "",
          "type": "uint256"
        }
      ],
      "stateMutability": "view",
      "type": "function"
    },
    {
      "inputs": [],
      "name": "owner",
      "outputs": [
        {
          "internalType": "address",
          "name": "",
          "type": "address"
        }
      ],
      "stateMutability": "view",
      "type": "function"
    },
    {
      "inputs": [],
      "name": "renounceOwnership",
      "outputs": [],
      "stateMutability": "nonpayable",
      "type": "function"
    },
    {
      "inputs": [
        {
          "internalType": "string",
          "name": "templateName",
          "type": "string"
        },
        {
          "internalType": "address",
          "name": "template",
          "type": "address"
        }
      ],
      "name": "templateSet",
      "outputs": [],
      "stateMutability": "nonpayable",
      "type": "function"
    },
    {
      "inputs": [
        {
          "internalType": "string",
          "name": "",
          "type": "string"
        }
      ],
      "name": "templates",
      "outputs": [
        {
          "internalType": "address",
          "name": "",
          "type": "address"
        }
      ],
      "stateMutability": "view",
      "type": "function"
    },
    {
      "inputs": [
        {
          "internalType": "address",
          "name": "newOwner",
          "type": "address"
        }
      ],
      "name": "transferOwnership",
      "outputs": [],
      "stateMutability": "nonpayable",
      "type": "function"
    }
  ],
  "transactionHash": "0x91d9552d11cd8182c3716d401369dbbc8d9efac10d3ee9a4ede4a14dc2391b98",
  "args": [
    "0x6eebAe27d69fa80f0E4C0E973A2Fed218A56880c"
  ],
  "numDeployments": 1,
  "solcInputHash": "a804442b6d003a07f7381a12d3292ae7",
  "bytecode": "0x608060405234801561001057600080fd5b50604051620016673803806200166783398101604081905261003191610099565b61003a33610049565b61004381610049565b506100c9565b600080546001600160a01b038381166001600160a01b0319831681178455604051919092169283917f8be0079c531659141344cd1fd0a4f28419497f9722a3daafe3b4186f6b6457e09190a35050565b6000602082840312156100ab57600080fd5b81516001600160a01b03811681146100c257600080fd5b9392505050565b61158e80620000d96000396000f3fe608060405234801561001057600080fd5b506004361061009e5760003560e01c80638da5cb5b116100665780638da5cb5b14610123578063b22beeda14610134578063ba6da05014610168578063c17bae4f1461017b578063f2fde38b1461018c57600080fd5b80631b6740dd146100a35780636392a51f146100d3578063715018a6146100f357806382a1db39146100fd578063845affc814610110575b600080fd5b6100b66100b1366004610f84565b61019f565b6040516001600160a01b0390911681526020015b60405180910390f35b6100e66100e13660046110b4565b610219565b6040516100ca919061112d565b6100fb6102e6565b005b6100fb61010b3660046111ee565b610325565b6100b661011e366004611263565b6103a0565b6000546001600160a01b03166100b6565b6100b661014236600461127c565b80516020818301810180516002825292820191909301209152546001600160a01b031681565b6100fb6101763660046112b9565b6103ca565b6001546040519081526020016100ca565b6100fb61019a3660046110b4565b610464565b60006101aa836104ff565b604051630a9c216960e31b81529091506001600160a01b038216906354e10b48906101df90889088903390889060040161133c565b600060405180830381600087803b1580156101f957600080fd5b505af115801561020d573d6000803e3d6000fd5b50505050949350505050565b60015460609067ffffffffffffffff81111561023757610237610eb1565b60405190808252806020026020018201604052801561027057816020015b61025d610e69565b8152602001906001900390816102555790505b50905060005b6001548110156102e0576102b160018281548110610296576102966113b7565b6000918252602090912001546001600160a01b031684610522565b8282815181106102c3576102c36113b7565b60209081029190910101526102d96001826113e3565b9050610276565b50919050565b6000546001600160a01b031633146103195760405162461bcd60e51b8152600401610310906113fb565b60405180910390fd5b6103236000610942565b565b6000546001600160a01b0316331461034f5760405162461bcd60e51b8152600401610310906113fb565b60005b8181101561039b5761038983838381811061036f5761036f6113b7565b905060200201602081019061038491906110b4565b610992565b6103946001826113e3565b9050610352565b505050565b600181815481106103b057600080fd5b6000918252602090912001546001600160a01b0316905081565b6000546001600160a01b031633146103f45760405162461bcd60e51b8152600401610310906113fb565b61040d6001600160a01b03821662f7235960e21b6109ee565b6104595760405162461bcd60e51b815260206004820152601b60248201527f4e6f742076616c6964204f70656e4e4654732054656d706c61746500000000006044820152606401610310565b61039b838383610a13565b6000546001600160a01b0316331461048e5760405162461bcd60e51b8152600401610310906113fb565b6001600160a01b0381166104f35760405162461bcd60e51b815260206004820152602660248201527f4f776e61626c653a206e6577206f776e657220697320746865207a65726f206160448201526564647265737360d01b6064820152608401610310565b6104fc81610942565b50565b600061051261050d83610ac1565b610b62565b905061051d81610992565b919050565b61052a610e69565b60408051600580825260c082019092526000916020820160a080368337505081519192506380ac58cd60e01b91839150600090610569576105696113b7565b6001600160e01b031990921660209283029190910190910152805163780e9d6360e01b90829060019081106105a0576105a06113b7565b6001600160e01b031990921660209283029190910190910152805163780e9d6360e01b90829060029081106105d7576105d76113b7565b6001600160e01b03199092166020928302919091019091015280516307f5828d60e41b908290600390811061060e5761060e6113b7565b6001600160e01b031990921660209283029190910190910152600061063c6001600160a01b03861683610bfa565b905080600060ff1681518110610654576106546113b7565b60200260200101511561093a576001600160a01b038581168085526040516370a0823160e01b81529186166004830152906370a082319060240160206040518083038186803b1580156106a657600080fd5b505afa1580156106ba573d6000803e3d6000fd5b505050506040513d601f19601f820116820180604052508101906106de9190611430565b60208401528051819060019081106106f8576106f86113b7565b6020026020010151156107fd57846001600160a01b03166306fdde036040518163ffffffff1660e01b815260040160006040518083038186803b15801561073e57600080fd5b505afa158015610752573d6000803e3d6000fd5b505050506040513d6000823e601f3d908101601f1916820160405261077a9190810190611449565b8360600181905250846001600160a01b03166395d89b416040518163ffffffff1660e01b815260040160006040518083038186803b1580156107bb57600080fd5b505afa1580156107cf573d6000803e3d6000fd5b505050506040513d6000823e601f3d908101601f191682016040526107f79190810190611449565b60808401525b80600260ff1681518110610813576108136113b7565b60200260200101511561089757846001600160a01b03166318160ddd6040518163ffffffff1660e01b815260040160206040518083038186803b15801561085957600080fd5b505afa15801561086d573d6000803e3d6000fd5b505050506040513d601f19601f820116820180604052508101906108919190611430565b60a08401525b80600360ff16815181106108ad576108ad6113b7565b60200260200101511561093a57846001600160a01b0316638da5cb5b6040518163ffffffff1660e01b815260040160206040518083038186803b1580156108f357600080fd5b505afa158015610907573d6000803e3d6000fd5b505050506040513d601f19601f8201168201806040525081019061092b91906114c0565b6001600160a01b031660408401525b505092915050565b600080546001600160a01b038381166001600160a01b0319831681178455604051919092169283917f8be0079c531659141344cd1fd0a4f28419497f9722a3daafe3b4186f6b6457e09190a35050565b6109ac6001600160a01b0382166380ac58cd60e01b6109ee565b6109e55760405162461bcd60e51b815260206004820152600a6024820152694e6f742045524337323160b01b6044820152606401610310565b6104fc81610cbd565b60006109f983610d4d565b8015610a0a5750610a0a8383610d80565b90505b92915050565b6000546001600160a01b03163314610a3d5760405162461bcd60e51b8152600401610310906113fb565b8060028484604051610a509291906114dd565b90815260405190819003602001812080546001600160a01b039384166001600160a01b031990911617905590821690610a8c90859085906114dd565b604051908190038120907f2e5d1f3ab97987d0ad3ab02a382994c388a94ba99ecd499e395c29e20775ab6690600090a3505050565b6000806001600160a01b0316600283604051610add91906114ed565b908152604051908190036020019020546001600160a01b03161415610b335760405162461bcd60e51b815260206004820152600c60248201526b4261642054656d706c61746560a01b6044820152606401610310565b600282604051610b4391906114ed565b908152604051908190036020019020546001600160a01b031692915050565b6000604051733d602d80600a3d3981f3363d3d373d3d3d363d7360601b81528260601b60148201526e5af43d82803e903d91602b57fd5bf360881b60288201526037816000f09150506001600160a01b03811661051d5760405162461bcd60e51b8152602060048201526016602482015275115490cc4c4d8dce8818dc99585d194819985a5b195960521b6044820152606401610310565b60606000825167ffffffffffffffff811115610c1857610c18610eb1565b604051908082528060200260200182016040528015610c41578160200160208202803683370190505b509050610c4d84610d4d565b15610a0a5760005b8351811015610cb557610c8185858381518110610c7457610c746113b7565b6020026020010151610d80565b828281518110610c9357610c936113b7565b9115156020928302919091019091015280610cad81611509565b915050610c55565b509392505050565b60018054808201825560008290527fb10e2d527612073b26eecdfd717e6a320cf44b4afac2b0732d9fcbe2b7fa0cf60180546001600160a01b0319166001600160a01b038416908117909155815433927fe1fd48e37080a338bebd722213e17521b8a454ab4f0ef1b1a487025d5191e7a191610d399190611524565b60405190815260200160405180910390a350565b6000610d60826301ffc9a760e01b610d80565b8015610a0d5750610d79826001600160e01b0319610d80565b1592915050565b604080516001600160e01b0319831660248083019190915282518083039091018152604490910182526020810180516001600160e01b03166301ffc9a760e01b179052905160009190829081906001600160a01b0387169061753090610de79086906114ed565b6000604051808303818686fa925050503d8060008114610e23576040519150601f19603f3d011682016040523d82523d6000602084013e610e28565b606091505b5091509150602081511015610e435760009350505050610a0d565b818015610e5f575080806020019051810190610e5f919061153b565b9695505050505050565b6040518060c0016040528060006001600160a01b031681526020016000815260200160006001600160a01b031681526020016060815260200160608152602001600081525090565b634e487b7160e01b600052604160045260246000fd5b604051601f8201601f1916810167ffffffffffffffff81118282101715610ef057610ef0610eb1565b604052919050565b600067ffffffffffffffff821115610f1257610f12610eb1565b50601f01601f191660200190565b600082601f830112610f3157600080fd5b8135610f44610f3f82610ef8565b610ec7565b818152846020838601011115610f5957600080fd5b816020850160208301376000918101602001919091529392505050565b80151581146104fc57600080fd5b60008060008060808587031215610f9a57600080fd5b843567ffffffffffffffff80821115610fb257600080fd5b610fbe88838901610f20565b9550602091508187013581811115610fd557600080fd5b610fe189828a01610f20565b955050604087013581811115610ff657600080fd5b61100289828a01610f20565b94505060608701358181111561101757600080fd5b8701601f8101891361102857600080fd5b80358281111561103a5761103a610eb1565b8060051b925061104b848401610ec7565b818152928201840192848101908b85111561106557600080fd5b928501925b8484101561108f578335925061107f83610f76565b828252928501929085019061106a565b989b979a50959850505050505050565b6001600160a01b03811681146104fc57600080fd5b6000602082840312156110c657600080fd5b8135610a0a8161109f565b60005b838110156110ec5781810151838201526020016110d4565b838111156110fb576000848401525b50505050565b600081518084526111198160208601602086016110d1565b601f01601f19169290920160200192915050565b60006020808301818452808551808352604092508286019150828160051b87010184880160005b838110156111e057888303603f19018552815180516001600160a01b039081168552888201518986015287820151168785015260608082015160c082870181905291906111a383880182611101565b92505050608080830151868303828801526111be8382611101565b60a0948501519790940196909652505094870194925090860190600101611154565b509098975050505050505050565b6000806020838503121561120157600080fd5b823567ffffffffffffffff8082111561121957600080fd5b818501915085601f83011261122d57600080fd5b81358181111561123c57600080fd5b8660208260051b850101111561125157600080fd5b60209290920196919550909350505050565b60006020828403121561127557600080fd5b5035919050565b60006020828403121561128e57600080fd5b813567ffffffffffffffff8111156112a557600080fd5b6112b184828501610f20565b949350505050565b6000806000604084860312156112ce57600080fd5b833567ffffffffffffffff808211156112e657600080fd5b818601915086601f8301126112fa57600080fd5b81358181111561130957600080fd5b87602082850101111561131b57600080fd5b602092830195509350508401356113318161109f565b809150509250925092565b60808152600061134f6080830187611101565b6020838203818501526113628288611101565b6001600160a01b03871660408601528481036060860152855180825282870193509082019060005b818110156113a857845115158352938301939183019160010161138a565b50909998505050505050505050565b634e487b7160e01b600052603260045260246000fd5b634e487b7160e01b600052601160045260246000fd5b600082198211156113f6576113f66113cd565b500190565b6020808252818101527f4f776e61626c653a2063616c6c6572206973206e6f7420746865206f776e6572604082015260600190565b60006020828403121561144257600080fd5b5051919050565b60006020828403121561145b57600080fd5b815167ffffffffffffffff81111561147257600080fd5b8201601f8101841361148357600080fd5b8051611491610f3f82610ef8565b8181528560208385010111156114a657600080fd5b6114b78260208301602086016110d1565b95945050505050565b6000602082840312156114d257600080fd5b8151610a0a8161109f565b8183823760009101908152919050565b600082516114ff8184602087016110d1565b9190910192915050565b600060001982141561151d5761151d6113cd565b5060010190565b600082821015611536576115366113cd565b500390565b60006020828403121561154d57600080fd5b8151610a0a81610f7656fea26469706673582212203177af4428a9f8f29faea101f2791580af12925906c409befef7d0193c3fe0c164736f6c63430008090033",
  "devdoc": {
    "details": "is CloneFactory",
    "kind": "dev",
    "methods": {
      "balancesOf(address)": {
        "params": {
          "addr": "address of account"
        },
        "returns": {
          "nftData": "Array of nftData balances"
        }
      },
      "clone(string,string,string,bool[])": {
        "params": {
          "name": "name of Clone collection",
          "symbol": "symbol of Clone collection"
        },
        "returns": {
          "clone_": "Address of Clone collection"
        }
      },
      "implementationsAdd(address[])": {
        "params": {
          "implementationsToAdd": ": new implementations addresses"
        }
      },
      "implementationsCount()": {
        "returns": {
          "_0": "count : number of implementations"
        }
      },
      "owner()": {
        "details": "Returns the address of the current owner."
      },
      "renounceOwnership()": {
        "details": "Leaves the contract without owner. It will not be possible to call `onlyOwner` functions anymore. Can only be called by the current owner. NOTE: Renouncing ownership will leave the contract without an owner, thereby removing any functionality that is only available to the owner."
      },
      "templateSet(string,address)": {
        "params": {
          "template": "Address of the template",
          "templateName": "Name of the template"
        }
      },
      "transferOwnership(address)": {
        "details": "Transfers ownership of the contract to a new account (`newOwner`). Can only be called by the current owner."
      }
    },
    "title": "NFTsFactory smartcontract",
    "version": 1
  },
  "userdoc": {
    "events": {
      "ImplementationNew(address,address,uint256)": {
        "notice": "New Implementation Event"
      },
      "TemplateSet(string,address)": {
        "notice": "Set Template Event"
      }
    },
    "kind": "user",
    "methods": {
      "balancesOf(address)": {
        "notice": "balancesOf address for each implementations"
      },
      "clone(string,string,string,bool[])": {
        "notice": "clone template"
      },
      "implementations(uint256)": {
        "notice": "Implementations addresses"
      },
      "implementationsAdd(address[])": {
        "notice": "Add Implementations, public onlyOwner"
      },
      "implementationsCount()": {
        "notice": "Implementations count"
      },
      "templateSet(string,address)": {
        "notice": "Set Template, overrides generic CloneFactory"
      },
      "templates(string)": {
        "notice": "Named Templates"
      }
    },
    "notice": "Templates are OPEN_NFTS contractsImplementations are ERC721 contracts (including OPEN_NFTS clones)Factory can clone OPEN_NFTs templates to implementationsFactory can also add ERC721 contracts to implementations",
    "version": 1
  },
  "storageLayout": {
    "storage": [
      {
        "astId": 2412,
        "contract": "contracts/new/NFTsFactoryV2.sol:NFTsFactoryV2",
        "label": "_owner",
        "offset": 0,
        "slot": "0",
        "type": "t_address"
      },
      {
        "astId": 6284,
        "contract": "contracts/new/NFTsFactoryV2.sol:NFTsFactoryV2",
        "label": "implementations",
        "offset": 0,
        "slot": "1",
        "type": "t_array(t_address)dyn_storage"
      },
      {
        "astId": 6289,
        "contract": "contracts/new/NFTsFactoryV2.sol:NFTsFactoryV2",
        "label": "templates",
        "offset": 0,
        "slot": "2",
        "type": "t_mapping(t_string_memory_ptr,t_address)"
      }
    ],
    "types": {
      "t_address": {
        "encoding": "inplace",
        "label": "address",
        "numberOfBytes": "20"
      },
      "t_array(t_address)dyn_storage": {
        "base": "t_address",
        "encoding": "dynamic_array",
        "label": "address[]",
        "numberOfBytes": "32"
      },
      "t_mapping(t_string_memory_ptr,t_address)": {
        "encoding": "mapping",
        "key": "t_string_memory_ptr",
        "label": "mapping(string => address)",
        "numberOfBytes": "32",
        "value": "t_address"
      },
      "t_string_memory_ptr": {
        "encoding": "bytes",
        "label": "string",
        "numberOfBytes": "32"
      }
    }
  }
}