{
  "address": "0x9fe67971255298DeE0e3Fb06E2dE615C424A692E",
  "abi": [
    {
      "inputs": [],
      "stateMutability": "nonpayable",
      "type": "constructor"
    },
    {
      "anonymous": false,
      "inputs": [
        {
          "indexed": false,
          "internalType": "address",
          "name": "implementation",
          "type": "address"
        },
        {
          "indexed": true,
          "internalType": "uint256",
          "name": "version",
          "type": "uint256"
        },
        {
          "indexed": true,
          "internalType": "bool",
          "name": "isTemplate",
          "type": "bool"
        },
        {
          "indexed": true,
          "internalType": "address",
          "name": "creator",
          "type": "address"
        }
      ],
      "name": "NewImplementation",
      "type": "event"
    },
    {
      "anonymous": false,
      "inputs": [
        {
          "indexed": true,
          "internalType": "address",
          "name": "previousOwner",
          "type": "address"
        },
        {
          "indexed": true,
          "internalType": "address",
          "name": "newOwner",
          "type": "address"
        }
      ],
      "name": "OwnershipTransferred",
      "type": "event"
    },
    {
      "anonymous": false,
      "inputs": [
        {
          "indexed": false,
          "internalType": "address",
          "name": "account",
          "type": "address"
        }
      ],
      "name": "Paused",
      "type": "event"
    },
    {
      "anonymous": false,
      "inputs": [
        {
          "indexed": false,
          "internalType": "address",
          "name": "account",
          "type": "address"
        }
      ],
      "name": "Unpaused",
      "type": "event"
    },
    {
      "inputs": [
        {
          "internalType": "address",
          "name": "_clone",
          "type": "address"
        },
        {
          "internalType": "uint256",
          "name": "_version",
          "type": "uint256"
        },
        {
          "internalType": "address",
          "name": "_creator",
          "type": "address"
        }
      ],
      "name": "addClone",
      "outputs": [],
      "stateMutability": "nonpayable",
      "type": "function"
    },
    {
      "inputs": [
        {
          "internalType": "address",
          "name": "_template",
          "type": "address"
        }
      ],
      "name": "addTemplate",
      "outputs": [],
      "stateMutability": "nonpayable",
      "type": "function"
    },
    {
      "inputs": [],
      "name": "clone",
      "outputs": [
        {
          "internalType": "address",
          "name": "_clone",
          "type": "address"
        }
      ],
      "stateMutability": "nonpayable",
      "type": "function"
    },
    {
      "inputs": [],
      "name": "implementations",
      "outputs": [
        {
          "internalType": "address[]",
          "name": "",
          "type": "address[]"
        }
      ],
      "stateMutability": "view",
      "type": "function"
    },
    {
      "inputs": [],
      "name": "owner",
      "outputs": [
        {
          "internalType": "address",
          "name": "",
          "type": "address"
        }
      ],
      "stateMutability": "view",
      "type": "function"
    },
    {
      "inputs": [],
      "name": "pause",
      "outputs": [],
      "stateMutability": "nonpayable",
      "type": "function"
    },
    {
      "inputs": [],
      "name": "paused",
      "outputs": [
        {
          "internalType": "bool",
          "name": "",
          "type": "bool"
        }
      ],
      "stateMutability": "view",
      "type": "function"
    },
    {
      "inputs": [],
      "name": "renounceOwnership",
      "outputs": [],
      "stateMutability": "nonpayable",
      "type": "function"
    },
    {
      "inputs": [],
      "name": "template",
      "outputs": [
        {
          "internalType": "address",
          "name": "",
          "type": "address"
        }
      ],
      "stateMutability": "view",
      "type": "function"
    },
    {
      "inputs": [],
      "name": "templates",
      "outputs": [
        {
          "internalType": "address[]",
          "name": "",
          "type": "address[]"
        }
      ],
      "stateMutability": "view",
      "type": "function"
    },
    {
      "inputs": [
        {
          "internalType": "address",
          "name": "newOwner",
          "type": "address"
        }
      ],
      "name": "transferOwnership",
      "outputs": [],
      "stateMutability": "nonpayable",
      "type": "function"
    },
    {
      "inputs": [],
      "name": "unpause",
      "outputs": [],
      "stateMutability": "nonpayable",
      "type": "function"
    },
    {
      "inputs": [],
      "name": "version",
      "outputs": [
        {
          "internalType": "uint256",
          "name": "",
          "type": "uint256"
        }
      ],
      "stateMutability": "view",
      "type": "function"
    }
  ],
  "transactionHash": "0xb998c575f320807db29a26dec9d4893e7c2c67655389d7c779d8d1f67ffd5d78",
  "args": [],
  "solcInputHash": "a30cdaca95552f2ed498948fbabf6d3b",
  "bytecode": "0x608060405234801561001057600080fd5b5061001a3361002c565b6000805460ff60a01b1916905561007c565b600080546001600160a01b038381166001600160a01b0319831681178455604051919092169283917f8be0079c531659141344cd1fd0a4f28419497f9722a3daafe3b4186f6b6457e09190a35050565b610a3c8061008b6000396000f3fe608060405234801561001057600080fd5b50600436106100cf5760003560e01c806355b302661161008c578063715018a611610066578063715018a61461017c5780638456cb59146101845780638da5cb5b1461018c578063f2fde38b1461019d57600080fd5b806355b30266146101445780635c975abb146101575780636f2ddd931461017457600080fd5b806309ed4607146100d457806330e9012c146100f95780633a283d7d1461010e5780633f4ba83a14610116578063520ecdb01461012057806354fd4d5014610133575b600080fd5b6100dc6101b0565b6040516001600160a01b0390911681526020015b60405180910390f35b61010161022d565b6040516100f09190610961565b61010161028f565b61011e6102ef565b005b61011e61012e366004610926565b610323565b6001546040519081526020016100f0565b61011e610152366004610905565b6103a3565b600054600160a01b900460ff1660405190151581526020016100f0565b6100dc610439565b61011e6104d4565b61011e610508565b6000546001600160a01b03166100dc565b61011e6101ab366004610905565b61053a565b60008054600160a01b900460ff16156102035760405162461bcd60e51b815260206004820152601060248201526f14185d5cd8589b194e881c185d5cd95960821b60448201526064015b60405180910390fd5b61021361020e610439565b6105d2565b905061022a8161022260015490565b60003361066f565b90565b6060600280548060200260200160405190810160405280929190818152602001828054801561028557602002820191906000526020600020905b81546001600160a01b03168152600190910190602001808311610267575b5050505050905090565b60606001805480602002602001604051908101604052809291908181526020018280548015610285576020028201919060005260206000209081546001600160a01b03168152600190910190602001808311610267575050505050905090565b6000546001600160a01b031633146103195760405162461bcd60e51b81526004016101fa906109ae565b610321610779565b565b6000546001600160a01b0316331461034d5760405162461bcd60e51b81526004016101fa906109ae565b6001805410156103915760405162461bcd60e51b815260206004820152600f60248201526e139bc81d195b5c1b185d19481e595d608a1b60448201526064016101fa565b61039e838360008461066f565b505050565b6000546001600160a01b031633146103cd5760405162461bcd60e51b81526004016101fa906109ae565b60018054808201825560008290527fb10e2d527612073b26eecdfd717e6a320cf44b4afac2b0732d9fcbe2b7fa0cf60180546001600160a01b0319166001600160a01b0384161790555461043690829060016104316000546001600160a01b031690565b61066f565b50565b6000600161044660015490565b10156104865760405162461bcd60e51b815260206004820152600f60248201526e139bc81d195b5c1b185d19481e595d608a1b60448201526064016101fa565b60018061049260015490565b61049c91906109e3565b815481106104ba57634e487b7160e01b600052603260045260246000fd5b6000918252602090912001546001600160a01b0316919050565b6000546001600160a01b031633146104fe5760405162461bcd60e51b81526004016101fa906109ae565b6103216000610816565b6000546001600160a01b031633146105325760405162461bcd60e51b81526004016101fa906109ae565b610321610866565b6000546001600160a01b031633146105645760405162461bcd60e51b81526004016101fa906109ae565b6001600160a01b0381166105c95760405162461bcd60e51b815260206004820152602660248201527f4f776e61626c653a206e6577206f776e657220697320746865207a65726f206160448201526564647265737360d01b60648201526084016101fa565b61043681610816565b6000604051733d602d80600a3d3981f3363d3d373d3d3d363d7360601b81528260601b60148201526e5af43d82803e903d91602b57fd5bf360881b60288201526037816000f09150506001600160a01b03811661066a5760405162461bcd60e51b8152602060048201526016602482015275115490cc4c4d8dce8818dc99585d194819985a5b195960521b60448201526064016101fa565b919050565b6000546001600160a01b031633146106995760405162461bcd60e51b81526004016101fa906109ae565b6000831180156106ab57506001548311155b6106e75760405162461bcd60e51b815260206004820152600d60248201526c2bb937b733903b32b939b4b7b760991b60448201526064016101fa565b600280546001810182556000919091527f405787fa12a823e0f2b7631cc41b3ba8828b3321ca811111fa75cd3aa3bb5ace0180546001600160a01b0319166001600160a01b03868116918217909255604051908152908216908315159085907f2077edebf3396cf4fba761aaf2df57f3c48736da9c066a9ca9e6475dce2a89ff9060200160405180910390a450505050565b600054600160a01b900460ff166107c95760405162461bcd60e51b815260206004820152601460248201527314185d5cd8589b194e881b9bdd081c185d5cd95960621b60448201526064016101fa565b6000805460ff60a01b191690557f5db9ee0a495bf2e6ff9c91a7834c1ba4fdd244a5e8aa4e537bd38aeae4b073aa335b6040516001600160a01b03909116815260200160405180910390a1565b600080546001600160a01b038381166001600160a01b0319831681178455604051919092169283917f8be0079c531659141344cd1fd0a4f28419497f9722a3daafe3b4186f6b6457e09190a35050565b600054600160a01b900460ff16156108b35760405162461bcd60e51b815260206004820152601060248201526f14185d5cd8589b194e881c185d5cd95960821b60448201526064016101fa565b6000805460ff60a01b1916600160a01b1790557f62e78cea01bee320cd4e420270b5ea74000d11b0c9f74754ebdbfc544b05a2586107f93390565b80356001600160a01b038116811461066a57600080fd5b600060208284031215610916578081fd5b61091f826108ee565b9392505050565b60008060006060848603121561093a578182fd5b610943846108ee565b925060208401359150610958604085016108ee565b90509250925092565b6020808252825182820181905260009190848201906040850190845b818110156109a25783516001600160a01b03168352928401929184019160010161097d565b50909695505050505050565b6020808252818101527f4f776e61626c653a2063616c6c6572206973206e6f7420746865206f776e6572604082015260600190565b600082821015610a0157634e487b7160e01b81526011600452602481fd5b50039056fea264697066735822122085d6d954357b9e347940d22216412da77329361c6d630715e2481c9f82f292ea64736f6c63430008040033",
  "devdoc": {
    "kind": "dev",
    "methods": {
      "owner()": {
        "details": "Returns the address of the current owner."
      },
      "pause()": {
        "details": "Triggers paused state."
      },
      "paused()": {
        "details": "Returns true if the contract is paused, and false otherwise."
      },
      "renounceOwnership()": {
        "details": "Leaves the contract without owner. It will not be possible to call `onlyOwner` functions anymore. Can only be called by the current owner. NOTE: Renouncing ownership will leave the contract without an owner, thereby removing any functionality that is only available to the owner."
      },
      "transferOwnership(address)": {
        "details": "Transfers ownership of the contract to a new account (`newOwner`). Can only be called by the current owner."
      },
      "unpause()": {
        "details": "Returns to normal state."
      }
    },
    "version": 1
  },
  "userdoc": {
    "kind": "user",
    "methods": {},
    "version": 1
  },
  "storageLayout": {
    "storage": [
      {
        "astId": 7,
        "contract": "solidity/contracts/CloneFactory.sol:CloneFactory",
        "label": "_owner",
        "offset": 0,
        "slot": "0",
        "type": "t_address"
      },
      {
        "astId": 201,
        "contract": "solidity/contracts/CloneFactory.sol:CloneFactory",
        "label": "_paused",
        "offset": 20,
        "slot": "0",
        "type": "t_bool"
      },
      {
        "astId": 4363,
        "contract": "solidity/contracts/CloneFactory.sol:CloneFactory",
        "label": "_templates",
        "offset": 0,
        "slot": "1",
        "type": "t_array(t_address)dyn_storage"
      },
      {
        "astId": 4366,
        "contract": "solidity/contracts/CloneFactory.sol:CloneFactory",
        "label": "_implementations",
        "offset": 0,
        "slot": "2",
        "type": "t_array(t_address)dyn_storage"
      }
    ],
    "types": {
      "t_address": {
        "encoding": "inplace",
        "label": "address",
        "numberOfBytes": "20"
      },
      "t_array(t_address)dyn_storage": {
        "base": "t_address",
        "encoding": "dynamic_array",
        "label": "address[]",
        "numberOfBytes": "32"
      },
      "t_bool": {
        "encoding": "inplace",
        "label": "bool",
        "numberOfBytes": "1"
      }
    }
  }
}