{
  "address": "0x477f9e7F4c71b2C99aeC41c58D5CB786dCbB5Cf2",
  "abi": [
    {
      "inputs": [],
      "stateMutability": "nonpayable",
      "type": "constructor"
    },
    {
      "anonymous": false,
      "inputs": [
        {
          "indexed": false,
          "internalType": "address",
          "name": "implementation",
          "type": "address"
        },
        {
          "indexed": true,
          "internalType": "uint256",
          "name": "version",
          "type": "uint256"
        },
        {
          "indexed": true,
          "internalType": "bool",
          "name": "isTemplate",
          "type": "bool"
        },
        {
          "indexed": true,
          "internalType": "address",
          "name": "creator",
          "type": "address"
        }
      ],
      "name": "NewImplementation",
      "type": "event"
    },
    {
      "anonymous": false,
      "inputs": [
        {
          "indexed": true,
          "internalType": "address",
          "name": "previousOwner",
          "type": "address"
        },
        {
          "indexed": true,
          "internalType": "address",
          "name": "newOwner",
          "type": "address"
        }
      ],
      "name": "OwnershipTransferred",
      "type": "event"
    },
    {
      "inputs": [
        {
          "internalType": "address",
          "name": "_clone",
          "type": "address"
        },
        {
          "internalType": "uint256",
          "name": "_version",
          "type": "uint256"
        },
        {
          "internalType": "address",
          "name": "_creator",
          "type": "address"
        }
      ],
      "name": "addClone",
      "outputs": [],
      "stateMutability": "nonpayable",
      "type": "function"
    },
    {
      "inputs": [
        {
          "internalType": "address",
          "name": "_template",
          "type": "address"
        }
      ],
      "name": "addTemplate",
      "outputs": [],
      "stateMutability": "nonpayable",
      "type": "function"
    },
    {
      "inputs": [],
      "name": "clone",
      "outputs": [
        {
          "internalType": "address",
          "name": "_clone",
          "type": "address"
        }
      ],
      "stateMutability": "nonpayable",
      "type": "function"
    },
    {
      "inputs": [],
      "name": "implementations",
      "outputs": [
        {
          "internalType": "address[]",
          "name": "",
          "type": "address[]"
        }
      ],
      "stateMutability": "view",
      "type": "function"
    },
    {
      "inputs": [],
      "name": "owner",
      "outputs": [
        {
          "internalType": "address",
          "name": "",
          "type": "address"
        }
      ],
      "stateMutability": "view",
      "type": "function"
    },
    {
      "inputs": [],
      "name": "renounceOwnership",
      "outputs": [],
      "stateMutability": "nonpayable",
      "type": "function"
    },
    {
      "inputs": [],
      "name": "template",
      "outputs": [
        {
          "internalType": "address",
          "name": "",
          "type": "address"
        }
      ],
      "stateMutability": "view",
      "type": "function"
    },
    {
      "inputs": [],
      "name": "templates",
      "outputs": [
        {
          "internalType": "address[]",
          "name": "",
          "type": "address[]"
        }
      ],
      "stateMutability": "view",
      "type": "function"
    },
    {
      "inputs": [
        {
          "internalType": "address",
          "name": "newOwner",
          "type": "address"
        }
      ],
      "name": "transferOwnership",
      "outputs": [],
      "stateMutability": "nonpayable",
      "type": "function"
    },
    {
      "inputs": [],
      "name": "version",
      "outputs": [
        {
          "internalType": "uint256",
          "name": "",
          "type": "uint256"
        }
      ],
      "stateMutability": "view",
      "type": "function"
    }
  ],
  "transactionHash": "0x6f268329ed8c9bdd2e5d97cbb9dff68221297632ff4e1313ad522c72c30a42b3",
  "args": [],
  "solcInputHash": "ae5e93a874b1c4a20625187eb0513180",
  "bytecode": "0x608060405234801561001057600080fd5b5061001a3361001f565b61006f565b600080546001600160a01b038381166001600160a01b0319831681178455604051919092169283917f8be0079c531659141344cd1fd0a4f28419497f9722a3daafe3b4186f6b6457e09190a35050565b61080d8061007e6000396000f3fe608060405234801561001057600080fd5b506004361061009e5760003560e01c806355b302661161006657806355b302661461010b5780636f2ddd931461011e578063715018a6146101265780638da5cb5b1461012e578063f2fde38b1461013f57600080fd5b806309ed4607146100a357806330e9012c146100c85780633a283d7d146100dd578063520ecdb0146100e557806354fd4d50146100fa575b600080fd5b6100ab610152565b6040516001600160a01b0390911681526020015b60405180910390f35b6100d061017e565b6040516100bf9190610732565b6100d06101e0565b6100f86100f33660046106f7565b610240565b005b6001546040519081526020016100bf565b6100f86101193660046106d6565b6102c9565b6100ab61035f565b6100f86103fa565b6000546001600160a01b03166100ab565b6100f861014d3660046106d6565b610430565b600061016461015f61035f565b6104c8565b905061017b8161017360015490565b600033610565565b90565b606060028054806020026020016040519081016040528092919081815260200182805480156101d657602002820191906000526020600020905b81546001600160a01b031681526001909101906020018083116101b8575b5050505050905090565b606060018054806020026020016040519081016040528092919081815260200182805480156101d6576020028201919060005260206000209081546001600160a01b031681526001909101906020018083116101b8575050505050905090565b6000546001600160a01b031633146102735760405162461bcd60e51b815260040161026a9061077f565b60405180910390fd5b6001805410156102b75760405162461bcd60e51b815260206004820152600f60248201526e139bc81d195b5c1b185d19481e595d608a1b604482015260640161026a565b6102c48383600084610565565b505050565b6000546001600160a01b031633146102f35760405162461bcd60e51b815260040161026a9061077f565b60018054808201825560008290527fb10e2d527612073b26eecdfd717e6a320cf44b4afac2b0732d9fcbe2b7fa0cf60180546001600160a01b0319166001600160a01b0384161790555461035c90829060016103576000546001600160a01b031690565b610565565b50565b6000600161036c60015490565b10156103ac5760405162461bcd60e51b815260206004820152600f60248201526e139bc81d195b5c1b185d19481e595d608a1b604482015260640161026a565b6001806103b860015490565b6103c291906107b4565b815481106103e057634e487b7160e01b600052603260045260246000fd5b6000918252602090912001546001600160a01b0316919050565b6000546001600160a01b031633146104245760405162461bcd60e51b815260040161026a9061077f565b61042e600061066f565b565b6000546001600160a01b0316331461045a5760405162461bcd60e51b815260040161026a9061077f565b6001600160a01b0381166104bf5760405162461bcd60e51b815260206004820152602660248201527f4f776e61626c653a206e6577206f776e657220697320746865207a65726f206160448201526564647265737360d01b606482015260840161026a565b61035c8161066f565b6000604051733d602d80600a3d3981f3363d3d373d3d3d363d7360601b81528260601b60148201526e5af43d82803e903d91602b57fd5bf360881b60288201526037816000f09150506001600160a01b0381166105605760405162461bcd60e51b8152602060048201526016602482015275115490cc4c4d8dce8818dc99585d194819985a5b195960521b604482015260640161026a565b919050565b6000546001600160a01b0316331461058f5760405162461bcd60e51b815260040161026a9061077f565b6000831180156105a157506001548311155b6105dd5760405162461bcd60e51b815260206004820152600d60248201526c2bb937b733903b32b939b4b7b760991b604482015260640161026a565b600280546001810182556000919091527f405787fa12a823e0f2b7631cc41b3ba8828b3321ca811111fa75cd3aa3bb5ace0180546001600160a01b0319166001600160a01b03868116918217909255604051908152908216908315159085907f2077edebf3396cf4fba761aaf2df57f3c48736da9c066a9ca9e6475dce2a89ff9060200160405180910390a450505050565b600080546001600160a01b038381166001600160a01b0319831681178455604051919092169283917f8be0079c531659141344cd1fd0a4f28419497f9722a3daafe3b4186f6b6457e09190a35050565b80356001600160a01b038116811461056057600080fd5b6000602082840312156106e7578081fd5b6106f0826106bf565b9392505050565b60008060006060848603121561070b578182fd5b610714846106bf565b925060208401359150610729604085016106bf565b90509250925092565b6020808252825182820181905260009190848201906040850190845b818110156107735783516001600160a01b03168352928401929184019160010161074e565b50909695505050505050565b6020808252818101527f4f776e61626c653a2063616c6c6572206973206e6f7420746865206f776e6572604082015260600190565b6000828210156107d257634e487b7160e01b81526011600452602481fd5b50039056fea26469706673582212209acf3342608b3e324832dcf666b2f6333eca87a3a692b6cd77968af42339ab0364736f6c63430008040033",
  "devdoc": {
    "kind": "dev",
    "methods": {
      "owner()": {
        "details": "Returns the address of the current owner."
      },
      "renounceOwnership()": {
        "details": "Leaves the contract without owner. It will not be possible to call `onlyOwner` functions anymore. Can only be called by the current owner. NOTE: Renouncing ownership will leave the contract without an owner, thereby removing any functionality that is only available to the owner."
      },
      "transferOwnership(address)": {
        "details": "Transfers ownership of the contract to a new account (`newOwner`). Can only be called by the current owner."
      }
    },
    "version": 1
  },
  "userdoc": {
    "kind": "user",
    "methods": {},
    "version": 1
  },
  "storageLayout": {
    "storage": [
      {
        "astId": 7,
        "contract": "solidity/contracts/CloneFactory.sol:CloneFactory",
        "label": "_owner",
        "offset": 0,
        "slot": "0",
        "type": "t_address"
      },
      {
        "astId": 4268,
        "contract": "solidity/contracts/CloneFactory.sol:CloneFactory",
        "label": "_templates",
        "offset": 0,
        "slot": "1",
        "type": "t_array(t_address)dyn_storage"
      },
      {
        "astId": 4271,
        "contract": "solidity/contracts/CloneFactory.sol:CloneFactory",
        "label": "_implementations",
        "offset": 0,
        "slot": "2",
        "type": "t_array(t_address)dyn_storage"
      }
    ],
    "types": {
      "t_address": {
        "encoding": "inplace",
        "label": "address",
        "numberOfBytes": "20"
      },
      "t_array(t_address)dyn_storage": {
        "base": "t_address",
        "encoding": "dynamic_array",
        "label": "address[]",
        "numberOfBytes": "32"
      }
    }
  }
}