{
  "address": "0xdf4453504dFD2D5837FED6ba639dDfb72e107CC9",
  "abi": [
    {
      "anonymous": false,
      "inputs": [
        {
          "indexed": false,
          "internalType": "address",
          "name": "implementation",
          "type": "address"
        },
        {
          "indexed": true,
          "internalType": "uint256",
          "name": "version",
          "type": "uint256"
        },
        {
          "indexed": true,
          "internalType": "bool",
          "name": "isTemplate",
          "type": "bool"
        },
        {
          "indexed": true,
          "internalType": "address",
          "name": "creator",
          "type": "address"
        }
      ],
      "name": "NewImplementation",
      "type": "event"
    },
    {
      "anonymous": false,
      "inputs": [
        {
          "indexed": true,
          "internalType": "address",
          "name": "previousOwner",
          "type": "address"
        },
        {
          "indexed": true,
          "internalType": "address",
          "name": "newOwner",
          "type": "address"
        }
      ],
      "name": "OwnershipTransferred",
      "type": "event"
    },
    {
      "inputs": [
        {
          "internalType": "address",
          "name": "_clone",
          "type": "address"
        },
        {
          "internalType": "uint256",
          "name": "_version",
          "type": "uint256"
        },
        {
          "internalType": "address",
          "name": "_creator",
          "type": "address"
        }
      ],
      "name": "addClone",
      "outputs": [],
      "stateMutability": "nonpayable",
      "type": "function"
    },
    {
      "inputs": [
        {
          "internalType": "address",
          "name": "_template",
          "type": "address"
        }
      ],
      "name": "addTemplate",
      "outputs": [],
      "stateMutability": "nonpayable",
      "type": "function"
    },
    {
      "inputs": [
        {
          "internalType": "address",
          "name": "nft",
          "type": "address"
        },
        {
          "internalType": "address",
          "name": "owner",
          "type": "address"
        }
      ],
      "name": "balanceOf",
      "outputs": [
        {
          "components": [
            {
              "internalType": "address",
              "name": "nft",
              "type": "address"
            },
            {
              "internalType": "string",
              "name": "name",
              "type": "string"
            },
            {
              "internalType": "string",
              "name": "symbol",
              "type": "string"
            },
            {
              "internalType": "uint256",
              "name": "balance",
              "type": "uint256"
            },
            {
              "internalType": "address",
              "name": "owner",
              "type": "address"
            }
          ],
          "internalType": "struct NFTsFactory.NftData",
          "name": "nftData",
          "type": "tuple"
        }
      ],
      "stateMutability": "view",
      "type": "function"
    },
    {
      "inputs": [
        {
          "internalType": "address",
          "name": "owner",
          "type": "address"
        }
      ],
      "name": "balancesOf",
      "outputs": [
        {
          "components": [
            {
              "internalType": "address",
              "name": "nft",
              "type": "address"
            },
            {
              "internalType": "string",
              "name": "name",
              "type": "string"
            },
            {
              "internalType": "string",
              "name": "symbol",
              "type": "string"
            },
            {
              "internalType": "uint256",
              "name": "balance",
              "type": "uint256"
            },
            {
              "internalType": "address",
              "name": "owner",
              "type": "address"
            }
          ],
          "internalType": "struct NFTsFactory.NftData[]",
          "name": "nftData",
          "type": "tuple[]"
        }
      ],
      "stateMutability": "view",
      "type": "function"
    },
    {
      "inputs": [],
      "name": "clone",
      "outputs": [
        {
          "internalType": "address",
          "name": "_clone",
          "type": "address"
        }
      ],
      "stateMutability": "nonpayable",
      "type": "function"
    },
    {
      "inputs": [],
      "name": "implementations",
      "outputs": [
        {
          "internalType": "address[]",
          "name": "",
          "type": "address[]"
        }
      ],
      "stateMutability": "view",
      "type": "function"
    },
    {
      "inputs": [],
      "name": "owner",
      "outputs": [
        {
          "internalType": "address",
          "name": "",
          "type": "address"
        }
      ],
      "stateMutability": "view",
      "type": "function"
    },
    {
      "inputs": [],
      "name": "renounceOwnership",
      "outputs": [],
      "stateMutability": "nonpayable",
      "type": "function"
    },
    {
      "inputs": [],
      "name": "template",
      "outputs": [
        {
          "internalType": "address",
          "name": "",
          "type": "address"
        }
      ],
      "stateMutability": "view",
      "type": "function"
    },
    {
      "inputs": [],
      "name": "templates",
      "outputs": [
        {
          "internalType": "address[]",
          "name": "",
          "type": "address[]"
        }
      ],
      "stateMutability": "view",
      "type": "function"
    },
    {
      "inputs": [
        {
          "internalType": "address",
          "name": "newOwner",
          "type": "address"
        }
      ],
      "name": "transferOwnership",
      "outputs": [],
      "stateMutability": "nonpayable",
      "type": "function"
    },
    {
      "inputs": [],
      "name": "version",
      "outputs": [
        {
          "internalType": "uint256",
          "name": "",
          "type": "uint256"
        }
      ],
      "stateMutability": "view",
      "type": "function"
    }
  ],
  "transactionHash": "0x05cfc5df5dea2d861a7e994ae6d81dab0a3e552357072b23e04181a6de631faa",
  "args": [],
  "solcInputHash": "4fae0947169fdac544b317d0591155ce",
  "bytecode": "0x608060405234801561001057600080fd5b5061001a3361001f565b61006f565b600080546001600160a01b038381166001600160a01b0319831681178455604051919092169283917f8be0079c531659141344cd1fd0a4f28419497f9722a3daafe3b4186f6b6457e09190a35050565b61132c8061007e6000396000f3fe608060405234801561001057600080fd5b50600436106100b45760003560e01c80636392a51f116100715780636392a51f146101345780636f2ddd9314610154578063715018a61461015c5780638da5cb5b14610164578063f2fde38b14610175578063f7888aec1461018857600080fd5b806309ed4607146100b957806330e9012c146100de5780633a283d7d146100f3578063520ecdb0146100fb57806354fd4d501461011057806355b3026614610121575b600080fd5b6100c16101a8565b6040516001600160a01b0390911681526020015b60405180910390f35b6100e66101d4565b6040516100d5919061113e565b6100e6610236565b61010e610109366004610f6f565b610296565b005b6001546040519081526020016100d5565b61010e61012f366004610eff565b61031f565b610147610142366004610eff565b6103b5565b6040516100d5919061118b565b6100c16104ac565b61010e610547565b6000546001600160a01b03166100c1565b61010e610183366004610eff565b61057d565b61019b610196366004610f37565b610615565b6040516100d59190611221565b60006101ba6101b56104ac565b610abb565b90506101d1816101c960015490565b600033610b58565b90565b6060600280548060200260200160405190810160405280929190818152602001828054801561022c57602002820191906000526020600020905b81546001600160a01b0316815260019091019060200180831161020e575b5050505050905090565b6060600180548060200260200160405190810160405280929190818152602001828054801561022c576020028201919060005260206000209081546001600160a01b0316815260019091019060200180831161020e575050505050905090565b6000546001600160a01b031633146102c95760405162461bcd60e51b81526004016102c0906111ec565b60405180910390fd5b60018054101561030d5760405162461bcd60e51b815260206004820152600f60248201526e139bc81d195b5c1b185d19481e595d608a1b60448201526064016102c0565b61031a8383600084610b58565b505050565b6000546001600160a01b031633146103495760405162461bcd60e51b81526004016102c0906111ec565b60018054808201825560008290527fb10e2d527612073b26eecdfd717e6a320cf44b4afac2b0732d9fcbe2b7fa0cf60180546001600160a01b0319166001600160a01b038416179055546103b290829060016103ad6000546001600160a01b031690565b610b58565b50565b60025460609067ffffffffffffffff8111156103e157634e487b7160e01b600052604160045260246000fd5b60405190808252806020026020018201604052801561041a57816020015b610407610ebe565b8152602001906001900390816103ff5790505b50905060005b6002548110156104a6576104696002828154811061044e57634e487b7160e01b600052603260045260246000fd5b6000918252602090912001546001600160a01b031684610615565b82828151811061048957634e487b7160e01b600052603260045260246000fd5b602090810291909101015261049f60018261123b565b9050610420565b50919050565b600060016104b960015490565b10156104f95760405162461bcd60e51b815260206004820152600f60248201526e139bc81d195b5c1b185d19481e595d608a1b60448201526064016102c0565b60018061050560015490565b61050f9190611253565b8154811061052d57634e487b7160e01b600052603260045260246000fd5b6000918252602090912001546001600160a01b0316919050565b6000546001600160a01b031633146105715760405162461bcd60e51b81526004016102c0906111ec565b61057b6000610c62565b565b6000546001600160a01b031633146105a75760405162461bcd60e51b81526004016102c0906111ec565b6001600160a01b03811661060c5760405162461bcd60e51b815260206004820152602660248201527f4f776e61626c653a206e6577206f776e657220697320746865207a65726f206160448201526564647265737360d01b60648201526084016102c0565b6103b281610c62565b61061d610ebe565b60408051600480825260a0820190925260009160208201608080368337505081519192506380ac58cd60e01b9183915060009061066a57634e487b7160e01b600052603260045260246000fd5b6001600160e01b031990921660209283029190910190910152805163780e9d6360e01b90829060019081106106af57634e487b7160e01b600052603260045260246000fd5b6001600160e01b031990921660209283029190910190910152805163780e9d6360e01b90829060029081106106f457634e487b7160e01b600052603260045260246000fd5b6001600160e01b031990921660209283029190910190910152805163676f754f60e01b908290600390811061073957634e487b7160e01b600052603260045260246000fd5b6001600160e01b03199092166020928302919091019091015260006107676001600160a01b03861683610cb2565b905080600060ff168151811061078d57634e487b7160e01b600052603260045260246000fd5b602002602001015115610ab3576001600160a01b03851683528051819060019081106107c957634e487b7160e01b600052603260045260246000fd5b6020026020010151156108ce57846001600160a01b03166306fdde036040518163ffffffff1660e01b815260040160006040518083038186803b15801561080f57600080fd5b505afa158015610823573d6000803e3d6000fd5b505050506040513d6000823e601f3d908101601f1916820160405261084b9190810190610fd0565b8360200181905250846001600160a01b03166395d89b416040518163ffffffff1660e01b815260040160006040518083038186803b15801561088c57600080fd5b505afa1580156108a0573d6000803e3d6000fd5b505050506040513d6000823e601f3d908101601f191682016040526108c89190810190610fd0565b60408401525b6001600160a01b03841661098657806002815181106108fd57634e487b7160e01b600052603260045260246000fd5b60200260200101511561098157846001600160a01b03166318160ddd6040518163ffffffff1660e01b815260040160206040518083038186803b15801561094357600080fd5b505afa158015610957573d6000803e3d6000fd5b505050506040513d601f19601f8201168201806040525081019061097b9190611079565b60608401525b610a05565b6040516370a0823160e01b81526001600160a01b0385811660048301528616906370a082319060240160206040518083038186803b1580156109c757600080fd5b505afa1580156109db573d6000803e3d6000fd5b505050506040513d601f19601f820116820180604052508101906109ff9190611079565b60608401525b80600381518110610a2657634e487b7160e01b600052603260045260246000fd5b602002602001015115610ab357846001600160a01b0316638da5cb5b6040518163ffffffff1660e01b815260040160206040518083038186803b158015610a6c57600080fd5b505afa158015610a80573d6000803e3d6000fd5b505050506040513d601f19601f82011682018060405250810190610aa49190610f1b565b6001600160a01b031660808401525b505092915050565b6000604051733d602d80600a3d3981f3363d3d373d3d3d363d7360601b81528260601b60148201526e5af43d82803e903d91602b57fd5bf360881b60288201526037816000f09150506001600160a01b038116610b535760405162461bcd60e51b8152602060048201526016602482015275115490cc4c4d8dce8818dc99585d194819985a5b195960521b60448201526064016102c0565b919050565b6000546001600160a01b03163314610b825760405162461bcd60e51b81526004016102c0906111ec565b600083118015610b9457506001548311155b610bd05760405162461bcd60e51b815260206004820152600d60248201526c2bb937b733903b32b939b4b7b760991b60448201526064016102c0565b600280546001810182556000919091527f405787fa12a823e0f2b7631cc41b3ba8828b3321ca811111fa75cd3aa3bb5ace0180546001600160a01b0319166001600160a01b03868116918217909255604051908152908216908315159085907f2077edebf3396cf4fba761aaf2df57f3c48736da9c066a9ca9e6475dce2a89ff9060200160405180910390a450505050565b600080546001600160a01b038381166001600160a01b0319831681178455604051919092169283917f8be0079c531659141344cd1fd0a4f28419497f9722a3daafe3b4186f6b6457e09190a35050565b60606000825167ffffffffffffffff811115610cde57634e487b7160e01b600052604160045260246000fd5b604051908082528060200260200182016040528015610d07578160200160208202803683370190505b509050610d1384610da2565b15610d995760005b8351811015610d9757610d5585858381518110610d4857634e487b7160e01b600052603260045260246000fd5b6020026020010151610dd5565b828281518110610d7557634e487b7160e01b600052603260045260246000fd5b9115156020928302919091019091015280610d8f8161129a565b915050610d1b565b505b90505b92915050565b6000610db5826301ffc9a760e01b610dd5565b8015610d9c5750610dce826001600160e01b0319610dd5565b1592915050565b604080516001600160e01b0319831660248083019190915282518083039091018152604490910182526020810180516001600160e01b03166301ffc9a760e01b179052905160009190829081906001600160a01b0387169061753090610e3c908690611122565b6000604051808303818686fa925050503d8060008114610e78576040519150601f19603f3d011682016040523d82523d6000602084013e610e7d565b606091505b5091509150602081511015610e985760009350505050610d9c565b818015610eb4575080806020019051810190610eb49190610fb0565b9695505050505050565b6040518060a0016040528060006001600160a01b0316815260200160608152602001606081526020016000815260200160006001600160a01b031681525090565b600060208284031215610f10578081fd5b8135610d99816112e1565b600060208284031215610f2c578081fd5b8151610d99816112e1565b60008060408385031215610f49578081fd5b8235610f54816112e1565b91506020830135610f64816112e1565b809150509250929050565b600080600060608486031215610f83578081fd5b8335610f8e816112e1565b9250602084013591506040840135610fa5816112e1565b809150509250925092565b600060208284031215610fc1578081fd5b81518015158114610d99578182fd5b600060208284031215610fe1578081fd5b815167ffffffffffffffff80821115610ff8578283fd5b818401915084601f83011261100b578283fd5b81518181111561101d5761101d6112cb565b604051601f8201601f19908116603f01168101908382118183101715611045576110456112cb565b8160405282815287602084870101111561105d578586fd5b61106e83602083016020880161126a565b979650505050505050565b60006020828403121561108a578081fd5b5051919050565b600081518084526110a981602086016020860161126a565b601f01601f19169290920160200192915050565b600060018060a01b03808351168452602083015160a060208601526110e560a0860182611091565b9050604084015185820360408701526110fe8282611091565b91505060608401516060860152816080850151166080860152809250505092915050565b6000825161113481846020870161126a565b9190910192915050565b6020808252825182820181905260009190848201906040850190845b8181101561117f5783516001600160a01b03168352928401929184019160010161115a565b50909695505050505050565b6000602080830181845280855180835260408601915060408160051b8701019250838701855b828110156111df57603f198886030184526111cd8583516110bd565b945092850192908501906001016111b1565b5092979650505050505050565b6020808252818101527f4f776e61626c653a2063616c6c6572206973206e6f7420746865206f776e6572604082015260600190565b60208152600061123460208301846110bd565b9392505050565b6000821982111561124e5761124e6112b5565b500190565b600082821015611265576112656112b5565b500390565b60005b8381101561128557818101518382015260200161126d565b83811115611294576000848401525b50505050565b60006000198214156112ae576112ae6112b5565b5060010190565b634e487b7160e01b600052601160045260246000fd5b634e487b7160e01b600052604160045260246000fd5b6001600160a01b03811681146103b257600080fdfea2646970667358221220b2e66e726ddb6112de9860b189e2fc9c22d7e26fea157d201a35e5a4de71d5bb64736f6c63430008040033",
  "devdoc": {
    "kind": "dev",
    "methods": {
      "owner()": {
        "details": "Returns the address of the current owner."
      },
      "renounceOwnership()": {
        "details": "Leaves the contract without owner. It will not be possible to call `onlyOwner` functions anymore. Can only be called by the current owner. NOTE: Renouncing ownership will leave the contract without an owner, thereby removing any functionality that is only available to the owner."
      },
      "transferOwnership(address)": {
        "details": "Transfers ownership of the contract to a new account (`newOwner`). Can only be called by the current owner."
      }
    },
    "version": 1
  },
  "userdoc": {
    "kind": "user",
    "methods": {},
    "version": 1
  },
  "storageLayout": {
    "storage": [
      {
        "astId": 2362,
        "contract": "solidity/contracts/NFTsFactory.sol:NFTsFactory",
        "label": "_owner",
        "offset": 0,
        "slot": "0",
        "type": "t_address"
      },
      {
        "astId": 2957,
        "contract": "solidity/contracts/NFTsFactory.sol:NFTsFactory",
        "label": "_templates",
        "offset": 0,
        "slot": "1",
        "type": "t_array(t_address)dyn_storage"
      },
      {
        "astId": 2960,
        "contract": "solidity/contracts/NFTsFactory.sol:NFTsFactory",
        "label": "_implementations",
        "offset": 0,
        "slot": "2",
        "type": "t_array(t_address)dyn_storage"
      }
    ],
    "types": {
      "t_address": {
        "encoding": "inplace",
        "label": "address",
        "numberOfBytes": "20"
      },
      "t_array(t_address)dyn_storage": {
        "base": "t_address",
        "encoding": "dynamic_array",
        "label": "address[]",
        "numberOfBytes": "32"
      }
    }
  }
}