{
  "address": "0xF96de1e162B4bD3Bb6eFB313aB2A9cAAfCa037ac",
  "abi": [
    {
      "inputs": [
        {
          "internalType": "address",
          "name": "initialOwner",
          "type": "address"
        }
      ],
      "stateMutability": "nonpayable",
      "type": "constructor"
    },
    {
      "anonymous": false,
      "inputs": [
        {
          "indexed": true,
          "internalType": "address",
          "name": "implementation",
          "type": "address"
        },
        {
          "indexed": true,
          "internalType": "address",
          "name": "creator",
          "type": "address"
        },
        {
          "indexed": false,
          "internalType": "uint256",
          "name": "count",
          "type": "uint256"
        }
      ],
      "name": "ImplementationNew",
      "type": "event"
    },
    {
      "anonymous": false,
      "inputs": [
        {
          "indexed": true,
          "internalType": "address",
          "name": "previousOwner",
          "type": "address"
        },
        {
          "indexed": true,
          "internalType": "address",
          "name": "newOwner",
          "type": "address"
        }
      ],
      "name": "OwnershipTransferred",
      "type": "event"
    },
    {
      "anonymous": false,
      "inputs": [
        {
          "indexed": true,
          "internalType": "address",
          "name": "template",
          "type": "address"
        },
        {
          "indexed": true,
          "internalType": "string",
          "name": "templateName",
          "type": "string"
        }
      ],
      "name": "TemplateNew",
      "type": "event"
    },
    {
      "inputs": [
        {
          "internalType": "address",
          "name": "addr",
          "type": "address"
        }
      ],
      "name": "balancesOf",
      "outputs": [
        {
          "components": [
            {
              "internalType": "address",
              "name": "nft",
              "type": "address"
            },
            {
              "internalType": "uint256",
              "name": "balanceOf",
              "type": "uint256"
            },
            {
              "internalType": "address",
              "name": "owner",
              "type": "address"
            },
            {
              "internalType": "string",
              "name": "name",
              "type": "string"
            },
            {
              "internalType": "string",
              "name": "symbol",
              "type": "string"
            },
            {
              "internalType": "uint256",
              "name": "totalSupply",
              "type": "uint256"
            }
          ],
          "internalType": "struct INFTsFactoryV2.NftData[]",
          "name": "nftData",
          "type": "tuple[]"
        }
      ],
      "stateMutability": "view",
      "type": "function"
    },
    {
      "inputs": [
        {
          "internalType": "string",
          "name": "name",
          "type": "string"
        },
        {
          "internalType": "string",
          "name": "symbol",
          "type": "string"
        },
        {
          "internalType": "string",
          "name": "templateName",
          "type": "string"
        }
      ],
      "name": "clone",
      "outputs": [
        {
          "internalType": "address",
          "name": "clone_",
          "type": "address"
        }
      ],
      "stateMutability": "nonpayable",
      "type": "function"
    },
    {
      "inputs": [
        {
          "internalType": "uint256",
          "name": "",
          "type": "uint256"
        }
      ],
      "name": "implementations",
      "outputs": [
        {
          "internalType": "address",
          "name": "",
          "type": "address"
        }
      ],
      "stateMutability": "view",
      "type": "function"
    },
    {
      "inputs": [
        {
          "internalType": "address[]",
          "name": "implementationsToAdd",
          "type": "address[]"
        }
      ],
      "name": "implementationsAdd",
      "outputs": [],
      "stateMutability": "nonpayable",
      "type": "function"
    },
    {
      "inputs": [],
      "name": "implementationsCount",
      "outputs": [
        {
          "internalType": "uint256",
          "name": "",
          "type": "uint256"
        }
      ],
      "stateMutability": "view",
      "type": "function"
    },
    {
      "inputs": [],
      "name": "owner",
      "outputs": [
        {
          "internalType": "address",
          "name": "",
          "type": "address"
        }
      ],
      "stateMutability": "view",
      "type": "function"
    },
    {
      "inputs": [],
      "name": "renounceOwnership",
      "outputs": [],
      "stateMutability": "nonpayable",
      "type": "function"
    },
    {
      "inputs": [
        {
          "internalType": "string",
          "name": "templateName",
          "type": "string"
        },
        {
          "internalType": "address",
          "name": "template",
          "type": "address"
        }
      ],
      "name": "templateSet",
      "outputs": [],
      "stateMutability": "nonpayable",
      "type": "function"
    },
    {
      "inputs": [
        {
          "internalType": "string",
          "name": "",
          "type": "string"
        }
      ],
      "name": "templates",
      "outputs": [
        {
          "internalType": "address",
          "name": "",
          "type": "address"
        }
      ],
      "stateMutability": "view",
      "type": "function"
    },
    {
      "inputs": [
        {
          "internalType": "address",
          "name": "newOwner",
          "type": "address"
        }
      ],
      "name": "transferOwnership",
      "outputs": [],
      "stateMutability": "nonpayable",
      "type": "function"
    },
    {
      "inputs": [],
      "name": "version",
      "outputs": [
        {
          "internalType": "uint8",
          "name": "",
          "type": "uint8"
        }
      ],
      "stateMutability": "view",
      "type": "function"
    }
  ],
  "transactionHash": "0xe3e8417b739905fd26a4f73acd515391e6113fc1d9e676978097b74d62084c0a",
  "args": [
    "0x6eebAe27d69fa80f0E4C0E973A2Fed218A56880c"
  ],
  "numDeployments": 1,
  "solcInputHash": "21efd4c42714fb1a26095f0d17ed7883",
  "bytecode": "0x608060405234801561001057600080fd5b50604051620017223803806200172283398101604081905261003191610099565b61003a33610049565b61004381610049565b506100c9565b600080546001600160a01b038381166001600160a01b0319831681178455604051919092169283917f8be0079c531659141344cd1fd0a4f28419497f9722a3daafe3b4186f6b6457e09190a35050565b6000602082840312156100ab57600080fd5b81516001600160a01b03811681146100c257600080fd5b9392505050565b61164980620000d96000396000f3fe608060405234801561001057600080fd5b50600436106100a95760003560e01c80638da5cb5b116100715780638da5cb5b14610135578063b22beeda14610146578063ba6da0501461017a578063c17bae4f1461018d578063ddf0fc8f1461019e578063f2fde38b146101b157600080fd5b806354fd4d50146100ae5780636392a51f146100cd578063715018a6146100ed57806382a1db39146100f7578063845affc81461010a575b600080fd5b6100b6600281565b60405160ff90911681526020015b60405180910390f35b6100e06100db366004611043565b6101c4565b6040516100c491906110bc565b6100f5610291565b005b6100f561010536600461117d565b6102d0565b61011d6101183660046111f2565b61034b565b6040516001600160a01b0390911681526020016100c4565b6000546001600160a01b031661011d565b61011d6101543660046112d0565b80516020818301810180516002825292820191909301209152546001600160a01b031681565b6100f561018836600461130d565b610375565b6001546040519081526020016100c4565b61011d6101ac366004611390565b610495565b6100f56101bf366004611043565b6106ba565b60015460609067ffffffffffffffff8111156101e2576101e261120b565b60405190808252806020026020018201604052801561021b57816020015b610208610fe6565b8152602001906001900390816102005790505b50905060005b60015481101561028b5761025c6001828154811061024157610241611418565b6000918252602090912001546001600160a01b031684610755565b82828151811061026e5761026e611418565b6020908102919091010152610284600182611444565b9050610221565b50919050565b6000546001600160a01b031633146102c45760405162461bcd60e51b81526004016102bb9061145c565b60405180910390fd5b6102ce6000610bd1565b565b6000546001600160a01b031633146102fa5760405162461bcd60e51b81526004016102bb9061145c565b60005b818110156103465761033483838381811061031a5761031a611418565b905060200201602081019061032f9190611043565b610c21565b61033f600182611444565b90506102fd565b505050565b6001818154811061035b57600080fd5b6000918252602090912001546001600160a01b0316905081565b6000546001600160a01b0316331461039f5760405162461bcd60e51b81526004016102bb9061145c565b6103b96001600160a01b0382166380ac58cd60e01b610c9b565b6104055760405162461bcd60e51b815260206004820152601c60248201527f54656d706c617465206e6f742045524337323120636f6e74726163740000000060448201526064016102bb565b8060028484604051610418929190611491565b90815260405190819003602001812080546001600160a01b03939093166001600160a01b0319909316929092179091556104559084908490611491565b604051908190038120906001600160a01b038316907f7ef32a1c1ccb487fb9a5968c44a00b054a71860d72da8bec23ac75cfe646671290600090a3505050565b6000806002836040516104a891906114a1565b908152604051908190036020019020546001600160a01b03169050806104ff5760405162461bcd60e51b815260206004820152600c60248201526b4261642054656d706c61746560a01b60448201526064016102bb565b6105196001600160a01b038216636ca50ed960e11b610c9b565b8061053957506105396001600160a01b03821663013c95a960e71b610c9b565b6105955760405162461bcd60e51b815260206004820152602760248201527f54656d706c617465206e6f74204f70656e4e465473205632206f7220563320636044820152661bdb9d1c9858dd60ca1b60648201526084016102bb565b6105c66002846040516105a891906114a1565b908152604051908190036020019020546001600160a01b0316610cc0565b91506105e26001600160a01b038216636ca50ed960e11b610c9b565b1561064c5760405163266c45bb60e11b81526001600160a01b03831690634cd88b769061061590889088906004016114bd565b600060405180830381600087803b15801561062f57600080fd5b505af1158015610643573d6000803e3d6000fd5b505050506106b2565b604051635c108a4360e01b81526001600160a01b03831690635c108a439061067f908890889033906000906004016114eb565b600060405180830381600087803b15801561069957600080fd5b505af11580156106ad573d6000803e3d6000fd5b505050505b509392505050565b6000546001600160a01b031633146106e45760405162461bcd60e51b81526004016102bb9061145c565b6001600160a01b0381166107495760405162461bcd60e51b815260206004820152602660248201527f4f776e61626c653a206e6577206f776e657220697320746865207a65726f206160448201526564647265737360d01b60648201526084016102bb565b61075281610bd1565b50565b61075d610fe6565b60408051600580825260c082019092526000916020820160a080368337505081519192506380ac58cd60e01b9183915060009061079c5761079c611418565b6001600160e01b031990921660209283029190910190910152805163780e9d6360e01b90829060019081106107d3576107d3611418565b6001600160e01b031990921660209283029190910190910152805163780e9d6360e01b908290600290811061080a5761080a611418565b6001600160e01b0319909216602092830291909101909101528051636ca50ed960e11b908290600390811061084157610841611418565b6001600160e01b031990921660209283029190910190910152805163013c95a960e71b908290600490811061087857610878611418565b6001600160e01b03199092166020928302919091019091015260006108a66001600160a01b03861683610cdb565b905080600060ff16815181106108be576108be611418565b602002602001015115610bc9576001600160a01b038581168085526040516370a0823160e01b81529186166004830152906370a082319060240160206040518083038186803b15801561091057600080fd5b505afa158015610924573d6000803e3d6000fd5b505050506040513d601f19601f820116820180604052508101906109489190611532565b602084015280518190600190811061096257610962611418565b602002602001015115610a6757846001600160a01b03166306fdde036040518163ffffffff1660e01b815260040160006040518083038186803b1580156109a857600080fd5b505afa1580156109bc573d6000803e3d6000fd5b505050506040513d6000823e601f3d908101601f191682016040526109e4919081019061154b565b8360600181905250846001600160a01b03166395d89b416040518163ffffffff1660e01b815260040160006040518083038186803b158015610a2557600080fd5b505afa158015610a39573d6000803e3d6000fd5b505050506040513d6000823e601f3d908101601f19168201604052610a61919081019061154b565b60808401525b80600260ff1681518110610a7d57610a7d611418565b602002602001015115610b0157846001600160a01b03166318160ddd6040518163ffffffff1660e01b815260040160206040518083038186803b158015610ac357600080fd5b505afa158015610ad7573d6000803e3d6000fd5b505050506040513d601f19601f82011682018060405250810190610afb9190611532565b60a08401525b80600360ff1681518110610b1757610b17611418565b602002602001015180610b44575080600460ff1681518110610b3b57610b3b611418565b60200260200101515b15610bc957846001600160a01b0316638da5cb5b6040518163ffffffff1660e01b815260040160206040518083038186803b158015610b8257600080fd5b505afa158015610b96573d6000803e3d6000fd5b505050506040513d601f19601f82011682018060405250810190610bba91906115b9565b6001600160a01b031660408401525b505092915050565b600080546001600160a01b038381166001600160a01b0319831681178455604051919092169283917f8be0079c531659141344cd1fd0a4f28419497f9722a3daafe3b4186f6b6457e09190a35050565b610c3b6001600160a01b0382166380ac58cd60e01b610c9b565b610c925760405162461bcd60e51b815260206004820152602260248201527f496d706c656d656e746174696f6e206e6f742045524337323120636f6e74726160448201526118dd60f21b60648201526084016102bb565b61075281610d96565b6000610ca683610e32565b8015610cb75750610cb78383610e65565b90505b92915050565b6000610ccb82610f4e565b9050610cd681610d96565b919050565b60606000825167ffffffffffffffff811115610cf957610cf961120b565b604051908082528060200260200182016040528015610d22578160200160208202803683370190505b509050610d2e84610e32565b15610cb75760005b83518110156106b257610d6285858381518110610d5557610d55611418565b6020026020010151610e65565b828281518110610d7457610d74611418565b9115156020928302919091019091015280610d8e816115d6565b915050610d36565b6001805480820182556000919091527fb10e2d527612073b26eecdfd717e6a320cf44b4afac2b0732d9fcbe2b7fa0cf60180546001600160a01b0319166001600160a01b038316179055336001600160a01b0316816001600160a01b03167fe1fd48e37080a338bebd722213e17521b8a454ab4f0ef1b1a487025d5191e7a1610e1e60015490565b60405190815260200160405180910390a350565b6000610e45826301ffc9a760e01b610e65565b8015610cba5750610e5e826001600160e01b0319610e65565b1592915050565b604080516001600160e01b0319831660248083019190915282518083039091018152604490910182526020810180516001600160e01b03166301ffc9a760e01b179052905160009190829081906001600160a01b0387169061753090610ecc9086906114a1565b6000604051808303818686fa925050503d8060008114610f08576040519150601f19603f3d011682016040523d82523d6000602084013e610f0d565b606091505b5091509150602081511015610f285760009350505050610cba565b818015610f44575080806020019051810190610f4491906115f1565b9695505050505050565b6000604051733d602d80600a3d3981f3363d3d373d3d3d363d7360601b81528260601b60148201526e5af43d82803e903d91602b57fd5bf360881b60288201526037816000f09150506001600160a01b038116610cd65760405162461bcd60e51b8152602060048201526016602482015275115490cc4c4d8dce8818dc99585d194819985a5b195960521b60448201526064016102bb565b6040518060c0016040528060006001600160a01b031681526020016000815260200160006001600160a01b031681526020016060815260200160608152602001600081525090565b6001600160a01b038116811461075257600080fd5b60006020828403121561105557600080fd5b8135610cb78161102e565b60005b8381101561107b578181015183820152602001611063565b8381111561108a576000848401525b50505050565b600081518084526110a8816020860160208601611060565b601f01601f19169290920160200192915050565b60006020808301818452808551808352604092508286019150828160051b87010184880160005b8381101561116f57888303603f19018552815180516001600160a01b039081168552888201518986015287820151168785015260608082015160c0828701819052919061113283880182611090565b925050506080808301518683038288015261114d8382611090565b60a09485015197909401969096525050948701949250908601906001016110e3565b509098975050505050505050565b6000806020838503121561119057600080fd5b823567ffffffffffffffff808211156111a857600080fd5b818501915085601f8301126111bc57600080fd5b8135818111156111cb57600080fd5b8660208260051b85010111156111e057600080fd5b60209290920196919550909350505050565b60006020828403121561120457600080fd5b5035919050565b634e487b7160e01b600052604160045260246000fd5b604051601f8201601f1916810167ffffffffffffffff8111828210171561124a5761124a61120b565b604052919050565b600067ffffffffffffffff82111561126c5761126c61120b565b50601f01601f191660200190565b600082601f83011261128b57600080fd5b813561129e61129982611252565b611221565b8181528460208386010111156112b357600080fd5b816020850160208301376000918101602001919091529392505050565b6000602082840312156112e257600080fd5b813567ffffffffffffffff8111156112f957600080fd5b6113058482850161127a565b949350505050565b60008060006040848603121561132257600080fd5b833567ffffffffffffffff8082111561133a57600080fd5b818601915086601f83011261134e57600080fd5b81358181111561135d57600080fd5b87602082850101111561136f57600080fd5b602092830195509350508401356113858161102e565b809150509250925092565b6000806000606084860312156113a557600080fd5b833567ffffffffffffffff808211156113bd57600080fd5b6113c98783880161127a565b945060208601359150808211156113df57600080fd5b6113eb8783880161127a565b9350604086013591508082111561140157600080fd5b5061140e8682870161127a565b9150509250925092565b634e487b7160e01b600052603260045260246000fd5b634e487b7160e01b600052601160045260246000fd5b600082198211156114575761145761142e565b500190565b6020808252818101527f4f776e61626c653a2063616c6c6572206973206e6f7420746865206f776e6572604082015260600190565b8183823760009101908152919050565b600082516114b3818460208701611060565b9190910192915050565b6040815260006114d06040830185611090565b82810360208401526114e28185611090565b95945050505050565b6080815260006114fe6080830187611090565b82810360208401526115108187611090565b6001600160a01b03959095166040840152505090151560609091015292915050565b60006020828403121561154457600080fd5b5051919050565b60006020828403121561155d57600080fd5b815167ffffffffffffffff81111561157457600080fd5b8201601f8101841361158557600080fd5b805161159361129982611252565b8181528560208385010111156115a857600080fd5b6114e2826020830160208601611060565b6000602082840312156115cb57600080fd5b8151610cb78161102e565b60006000198214156115ea576115ea61142e565b5060010190565b60006020828403121561160357600080fd5b81518015158114610cb757600080fdfea264697066735822122006a49ffdd670c629026f1c89495ff56a012bfd8ba51f4c1672dec18abc11f89364736f6c63430008090033",
  "devdoc": {
    "details": "is CloneFactory",
    "kind": "dev",
    "methods": {
      "balancesOf(address)": {
        "params": {
          "addr": "address of account"
        },
        "returns": {
          "nftData": "Array of nftData balances"
        }
      },
      "clone(string,string,string)": {
        "params": {
          "name": "name of Clone collection",
          "symbol": "symbol of Clone collection"
        },
        "returns": {
          "clone_": "Address of Clone collection"
        }
      },
      "implementationsAdd(address[])": {
        "params": {
          "implementationsToAdd": ": new implementations addresses"
        }
      },
      "implementationsCount()": {
        "returns": {
          "_0": "count : number of implementations"
        }
      },
      "owner()": {
        "details": "Returns the address of the current owner."
      },
      "renounceOwnership()": {
        "details": "Leaves the contract without owner. It will not be possible to call `onlyOwner` functions anymore. Can only be called by the current owner. NOTE: Renouncing ownership will leave the contract without an owner, thereby removing any functionality that is only available to the owner."
      },
      "transferOwnership(address)": {
        "details": "Transfers ownership of the contract to a new account (`newOwner`). Can only be called by the current owner."
      }
    },
    "title": "NFTsFactory smartcontract",
    "version": 1
  },
  "userdoc": {
    "kind": "user",
    "methods": {
      "balancesOf(address)": {
        "notice": "balancesOf address"
      },
      "clone(string,string,string)": {
        "notice": "clone template"
      },
      "implementations(uint256)": {
        "notice": "Implementations addresses"
      },
      "implementationsAdd(address[])": {
        "notice": "ADD Implementations public onlyOwner"
      },
      "implementationsCount()": {
        "notice": "Implementations count"
      }
    },
    "version": 1
  },
  "storageLayout": {
    "storage": [
      {
        "astId": 2412,
        "contract": "contracts/new/NFTsFactoryV2.sol:NFTsFactoryV2",
        "label": "_owner",
        "offset": 0,
        "slot": "0",
        "type": "t_address"
      },
      {
        "astId": 6261,
        "contract": "contracts/new/NFTsFactoryV2.sol:NFTsFactoryV2",
        "label": "implementations",
        "offset": 0,
        "slot": "1",
        "type": "t_array(t_address)dyn_storage"
      },
      {
        "astId": 6566,
        "contract": "contracts/new/NFTsFactoryV2.sol:NFTsFactoryV2",
        "label": "templates",
        "offset": 0,
        "slot": "2",
        "type": "t_mapping(t_string_memory_ptr,t_address)"
      }
    ],
    "types": {
      "t_address": {
        "encoding": "inplace",
        "label": "address",
        "numberOfBytes": "20"
      },
      "t_array(t_address)dyn_storage": {
        "base": "t_address",
        "encoding": "dynamic_array",
        "label": "address[]",
        "numberOfBytes": "32"
      },
      "t_mapping(t_string_memory_ptr,t_address)": {
        "encoding": "mapping",
        "key": "t_string_memory_ptr",
        "label": "mapping(string => address)",
        "numberOfBytes": "32",
        "value": "t_address"
      },
      "t_string_memory_ptr": {
        "encoding": "bytes",
        "label": "string",
        "numberOfBytes": "32"
      }
    }
  }
}