{
  "address": "0x4b7992F03906F7bBE3d48E5Fb724f52c56cFb039",
  "abi": [
    {
      "inputs": [],
      "stateMutability": "nonpayable",
      "type": "constructor"
    },
    {
      "anonymous": false,
      "inputs": [
        {
          "indexed": true,
          "internalType": "address",
          "name": "owner",
          "type": "address"
        },
        {
          "indexed": true,
          "internalType": "address",
          "name": "approved",
          "type": "address"
        },
        {
          "indexed": true,
          "internalType": "uint256",
          "name": "tokenId",
          "type": "uint256"
        }
      ],
      "name": "Approval",
      "type": "event"
    },
    {
      "anonymous": false,
      "inputs": [
        {
          "indexed": true,
          "internalType": "address",
          "name": "owner",
          "type": "address"
        },
        {
          "indexed": true,
          "internalType": "address",
          "name": "operator",
          "type": "address"
        },
        {
          "indexed": false,
          "internalType": "bool",
          "name": "approved",
          "type": "bool"
        }
      ],
      "name": "ApprovalForAll",
      "type": "event"
    },
    {
      "anonymous": false,
      "inputs": [
        {
          "indexed": true,
          "internalType": "address",
          "name": "previousOwner",
          "type": "address"
        },
        {
          "indexed": true,
          "internalType": "address",
          "name": "newOwner",
          "type": "address"
        }
      ],
      "name": "OwnershipTransferred",
      "type": "event"
    },
    {
      "anonymous": false,
      "inputs": [
        {
          "indexed": true,
          "internalType": "address",
          "name": "from",
          "type": "address"
        },
        {
          "indexed": true,
          "internalType": "address",
          "name": "to",
          "type": "address"
        },
        {
          "indexed": true,
          "internalType": "uint256",
          "name": "tokenId",
          "type": "uint256"
        }
      ],
      "name": "Transfer",
      "type": "event"
    },
    {
      "inputs": [
        {
          "internalType": "address",
          "name": "to",
          "type": "address"
        },
        {
          "internalType": "uint256",
          "name": "tokenId",
          "type": "uint256"
        }
      ],
      "name": "approve",
      "outputs": [],
      "stateMutability": "nonpayable",
      "type": "function"
    },
    {
      "inputs": [
        {
          "internalType": "address",
          "name": "owner",
          "type": "address"
        }
      ],
      "name": "balanceOf",
      "outputs": [
        {
          "internalType": "uint256",
          "name": "",
          "type": "uint256"
        }
      ],
      "stateMutability": "view",
      "type": "function"
    },
    {
      "inputs": [
        {
          "internalType": "uint256",
          "name": "tokenId",
          "type": "uint256"
        }
      ],
      "name": "getApproved",
      "outputs": [
        {
          "internalType": "address",
          "name": "",
          "type": "address"
        }
      ],
      "stateMutability": "view",
      "type": "function"
    },
    {
      "inputs": [
        {
          "internalType": "string",
          "name": "_name",
          "type": "string"
        },
        {
          "internalType": "string",
          "name": "_symbol",
          "type": "string"
        }
      ],
      "name": "initialize",
      "outputs": [],
      "stateMutability": "nonpayable",
      "type": "function"
    },
    {
      "inputs": [
        {
          "internalType": "address",
          "name": "owner",
          "type": "address"
        },
        {
          "internalType": "address",
          "name": "operator",
          "type": "address"
        }
      ],
      "name": "isApprovedForAll",
      "outputs": [
        {
          "internalType": "bool",
          "name": "",
          "type": "bool"
        }
      ],
      "stateMutability": "view",
      "type": "function"
    },
    {
      "inputs": [
        {
          "internalType": "address",
          "name": "minter",
          "type": "address"
        },
        {
          "internalType": "string",
          "name": "jsonURI",
          "type": "string"
        }
      ],
      "name": "mintNFT",
      "outputs": [
        {
          "internalType": "uint256",
          "name": "",
          "type": "uint256"
        }
      ],
      "stateMutability": "nonpayable",
      "type": "function"
    },
    {
      "inputs": [],
      "name": "name",
      "outputs": [
        {
          "internalType": "string",
          "name": "",
          "type": "string"
        }
      ],
      "stateMutability": "view",
      "type": "function"
    },
    {
      "inputs": [],
      "name": "owner",
      "outputs": [
        {
          "internalType": "address",
          "name": "",
          "type": "address"
        }
      ],
      "stateMutability": "view",
      "type": "function"
    },
    {
      "inputs": [
        {
          "internalType": "uint256",
          "name": "tokenId",
          "type": "uint256"
        }
      ],
      "name": "ownerOf",
      "outputs": [
        {
          "internalType": "address",
          "name": "",
          "type": "address"
        }
      ],
      "stateMutability": "view",
      "type": "function"
    },
    {
      "inputs": [],
      "name": "renounceOwnership",
      "outputs": [],
      "stateMutability": "nonpayable",
      "type": "function"
    },
    {
      "inputs": [
        {
          "internalType": "address",
          "name": "from",
          "type": "address"
        },
        {
          "internalType": "address",
          "name": "to",
          "type": "address"
        },
        {
          "internalType": "uint256",
          "name": "tokenId",
          "type": "uint256"
        }
      ],
      "name": "safeTransferFrom",
      "outputs": [],
      "stateMutability": "nonpayable",
      "type": "function"
    },
    {
      "inputs": [
        {
          "internalType": "address",
          "name": "from",
          "type": "address"
        },
        {
          "internalType": "address",
          "name": "to",
          "type": "address"
        },
        {
          "internalType": "uint256",
          "name": "tokenId",
          "type": "uint256"
        },
        {
          "internalType": "bytes",
          "name": "_data",
          "type": "bytes"
        }
      ],
      "name": "safeTransferFrom",
      "outputs": [],
      "stateMutability": "nonpayable",
      "type": "function"
    },
    {
      "inputs": [
        {
          "internalType": "address",
          "name": "operator",
          "type": "address"
        },
        {
          "internalType": "bool",
          "name": "approved",
          "type": "bool"
        }
      ],
      "name": "setApprovalForAll",
      "outputs": [],
      "stateMutability": "nonpayable",
      "type": "function"
    },
    {
      "inputs": [
        {
          "internalType": "bytes4",
          "name": "interfaceId",
          "type": "bytes4"
        }
      ],
      "name": "supportsInterface",
      "outputs": [
        {
          "internalType": "bool",
          "name": "",
          "type": "bool"
        }
      ],
      "stateMutability": "view",
      "type": "function"
    },
    {
      "inputs": [],
      "name": "symbol",
      "outputs": [
        {
          "internalType": "string",
          "name": "",
          "type": "string"
        }
      ],
      "stateMutability": "view",
      "type": "function"
    },
    {
      "inputs": [
        {
          "internalType": "uint256",
          "name": "index",
          "type": "uint256"
        }
      ],
      "name": "tokenByIndex",
      "outputs": [
        {
          "internalType": "uint256",
          "name": "",
          "type": "uint256"
        }
      ],
      "stateMutability": "view",
      "type": "function"
    },
    {
      "inputs": [
        {
          "internalType": "address",
          "name": "owner",
          "type": "address"
        },
        {
          "internalType": "uint256",
          "name": "index",
          "type": "uint256"
        }
      ],
      "name": "tokenOfOwnerByIndex",
      "outputs": [
        {
          "internalType": "uint256",
          "name": "",
          "type": "uint256"
        }
      ],
      "stateMutability": "view",
      "type": "function"
    },
    {
      "inputs": [
        {
          "internalType": "uint256",
          "name": "tokenId",
          "type": "uint256"
        }
      ],
      "name": "tokenURI",
      "outputs": [
        {
          "internalType": "string",
          "name": "",
          "type": "string"
        }
      ],
      "stateMutability": "view",
      "type": "function"
    },
    {
      "inputs": [],
      "name": "totalSupply",
      "outputs": [
        {
          "internalType": "uint256",
          "name": "",
          "type": "uint256"
        }
      ],
      "stateMutability": "view",
      "type": "function"
    },
    {
      "inputs": [
        {
          "internalType": "address",
          "name": "from",
          "type": "address"
        },
        {
          "internalType": "address",
          "name": "to",
          "type": "address"
        },
        {
          "internalType": "uint256",
          "name": "tokenId",
          "type": "uint256"
        }
      ],
      "name": "transferFrom",
      "outputs": [],
      "stateMutability": "nonpayable",
      "type": "function"
    },
    {
      "inputs": [
        {
          "internalType": "address",
          "name": "newOwner",
          "type": "address"
        }
      ],
      "name": "transferOwnership",
      "outputs": [],
      "stateMutability": "nonpayable",
      "type": "function"
    }
  ],
  "transactionHash": "0xd7ce4c735233b27655528703d34beb9a75c0c536571b76b26c3f4d59bd6d09ca",
  "args": [],
  "solcInputHash": "a55635ebd9c24d66ef116f43e87ffa1f",
  "bytecode": "0x608060405234801561001057600080fd5b50613fd6806100206000396000f3fe608060405234801561001057600080fd5b50600436106101375760003560e01c80636352211e116100b8578063a22cb4651161007c578063a22cb4651461034e578063b88d4fde1461036a578063c87b56dd14610386578063e985e9c5146103b6578063eacabe14146103e6578063f2fde38b1461041657610137565b80636352211e146102a857806370a08231146102d8578063715018a6146103085780638da5cb5b1461031257806395d89b411461033057610137565b806323b872dd116100ff57806323b872dd146101f45780632f745c591461021057806342842e0e146102405780634cd88b761461025c5780634f6ccce71461027857610137565b806301ffc9a71461013c57806306fdde031461016c578063081812fc1461018a578063095ea7b3146101ba57806318160ddd146101d6575b600080fd5b610156600480360381019061015191906129dd565b610432565b6040516101639190612a25565b60405180910390f35b6101746104ac565b6040516101819190612ad9565b60405180910390f35b6101a4600480360381019061019f9190612b31565b61053e565b6040516101b19190612b9f565b60405180910390f35b6101d460048036038101906101cf9190612be6565b6105c3565b005b6101de6106db565b6040516101eb9190612c35565b60405180910390f35b61020e60048036038101906102099190612c50565b6106e8565b005b61022a60048036038101906102259190612be6565b610748565b6040516102379190612c35565b60405180910390f35b61025a60048036038101906102559190612c50565b6107ed565b005b61027660048036038101906102719190612dd8565b61080d565b005b610292600480360381019061028d9190612b31565b6108fa565b60405161029f9190612c35565b60405180910390f35b6102c260048036038101906102bd9190612b31565b61096b565b6040516102cf9190612b9f565b60405180910390f35b6102f260048036038101906102ed9190612e50565b610a1d565b6040516102ff9190612c35565b60405180910390f35b610310610ad5565b005b61031a610b5d565b6040516103279190612b9f565b60405180910390f35b610338610b87565b6040516103459190612ad9565b60405180910390f35b61036860048036038101906103639190612ea9565b610c19565b005b610384600480360381019061037f9190612f8a565b610d9a565b005b6103a0600480360381019061039b9190612b31565b610dfc565b6040516103ad9190612ad9565b60405180910390f35b6103d060048036038101906103cb919061300d565b610e0e565b6040516103dd9190612a25565b60405180910390f35b61040060048036038101906103fb919061304d565b610ea2565b60405161040d9190612c35565b60405180910390f35b610430600480360381019061042b9190612e50565b610edc565b005b60007fd94a1db2000000000000000000000000000000000000000000000000000000007bffffffffffffffffffffffffffffffffffffffffffffffffffffffff1916827bffffffffffffffffffffffffffffffffffffffffffffffffffffffff191614806104a557506104a482610fd4565b5b9050919050565b6060606580546104bb906130d8565b80601f01602080910402602001604051908101604052809291908181526020018280546104e7906130d8565b80156105345780601f1061050957610100808354040283529160200191610534565b820191906000526020600020905b81548152906001019060200180831161051757829003601f168201915b5050505050905090565b60006105498261104e565b610588576040517f08c379a000000000000000000000000000000000000000000000000000000000815260040161057f9061317c565b60405180910390fd5b6069600083815260200190815260200160002060009054906101000a900473ffffffffffffffffffffffffffffffffffffffff169050919050565b60006105ce8261096b565b90508073ffffffffffffffffffffffffffffffffffffffff168373ffffffffffffffffffffffffffffffffffffffff16141561063f576040517f08c379a00000000000000000000000000000000000000000000000000000000081526004016106369061320e565b60405180910390fd5b8073ffffffffffffffffffffffffffffffffffffffff1661065e6110ba565b73ffffffffffffffffffffffffffffffffffffffff16148061068d575061068c816106876110ba565b610e0e565b5b6106cc576040517f08c379a00000000000000000000000000000000000000000000000000000000081526004016106c3906132a0565b60405180910390fd5b6106d683836110c2565b505050565b6000609980549050905090565b6106f96106f36110ba565b8261117b565b610738576040517f08c379a000000000000000000000000000000000000000000000000000000000815260040161072f90613332565b60405180910390fd5b610743838383611259565b505050565b600061075383610a1d565b8210610794576040517f08c379a000000000000000000000000000000000000000000000000000000000815260040161078b906133c4565b60405180910390fd5b609760008473ffffffffffffffffffffffffffffffffffffffff1673ffffffffffffffffffffffffffffffffffffffff168152602001908152602001600020600083815260200190815260200160002054905092915050565b61080883838360405180602001604052806000815250610d9a565b505050565b600060019054906101000a900460ff1680610833575060008054906101000a900460ff16155b610872576040517f08c379a000000000000000000000000000000000000000000000000000000000815260040161086990613456565b60405180910390fd5b60008060019054906101000a900460ff1615905080156108c2576001600060016101000a81548160ff02191690831515021790555060016000806101000a81548160ff0219169083151502179055505b6108ca6114b5565b6108d4838361159e565b80156108f55760008060016101000a81548160ff0219169083151502179055505b505050565b60006109046106db565b8210610945576040517f08c379a000000000000000000000000000000000000000000000000000000000815260040161093c906134e8565b60405180910390fd5b6099828154811061095957610958613508565b5b90600052602060002001549050919050565b6000806067600084815260200190815260200160002060009054906101000a900473ffffffffffffffffffffffffffffffffffffffff169050600073ffffffffffffffffffffffffffffffffffffffff168173ffffffffffffffffffffffffffffffffffffffff161415610a14576040517f08c379a0000000000000000000000000000000000000000000000000000000008152600401610a0b906135a9565b60405180910390fd5b80915050919050565b60008073ffffffffffffffffffffffffffffffffffffffff168273ffffffffffffffffffffffffffffffffffffffff161415610a8e576040517f08c379a0000000000000000000000000000000000000000000000000000000008152600401610a859061363b565b60405180910390fd5b606860008373ffffffffffffffffffffffffffffffffffffffff1673ffffffffffffffffffffffffffffffffffffffff168152602001908152602001600020549050919050565b610add6110ba565b73ffffffffffffffffffffffffffffffffffffffff16610afb610b5d565b73ffffffffffffffffffffffffffffffffffffffff1614610b51576040517f08c379a0000000000000000000000000000000000000000000000000000000008152600401610b48906136a7565b60405180910390fd5b610b5b6000611693565b565b600060fb60009054906101000a900473ffffffffffffffffffffffffffffffffffffffff16905090565b606060668054610b96906130d8565b80601f0160208091040260200160405190810160405280929190818152602001828054610bc2906130d8565b8015610c0f5780601f10610be457610100808354040283529160200191610c0f565b820191906000526020600020905b815481529060010190602001808311610bf257829003601f168201915b5050505050905090565b610c216110ba565b73ffffffffffffffffffffffffffffffffffffffff168273ffffffffffffffffffffffffffffffffffffffff161415610c8f576040517f08c379a0000000000000000000000000000000000000000000000000000000008152600401610c8690613713565b60405180910390fd5b80606a6000610c9c6110ba565b73ffffffffffffffffffffffffffffffffffffffff1673ffffffffffffffffffffffffffffffffffffffff16815260200190815260200160002060008473ffffffffffffffffffffffffffffffffffffffff1673ffffffffffffffffffffffffffffffffffffffff16815260200190815260200160002060006101000a81548160ff0219169083151502179055508173ffffffffffffffffffffffffffffffffffffffff16610d496110ba565b73ffffffffffffffffffffffffffffffffffffffff167f17307eab39ab6107e8899845ad3d59bd9653f200f220920489ca2b5937696c3183604051610d8e9190612a25565b60405180910390a35050565b610dab610da56110ba565b8361117b565b610dea576040517f08c379a0000000000000000000000000000000000000000000000000000000008152600401610de190613332565b60405180910390fd5b610df684848484611759565b50505050565b6060610e07826117b5565b9050919050565b6000606a60008473ffffffffffffffffffffffffffffffffffffffff1673ffffffffffffffffffffffffffffffffffffffff16815260200190815260200160002060008373ffffffffffffffffffffffffffffffffffffffff1673ffffffffffffffffffffffffffffffffffffffff16815260200190815260200160002060009054906101000a900460ff16905092915050565b6000610eaf61012d611907565b6000610ebc61012d61191d565b9050610ec8848261192b565b610ed28184611949565b8091505092915050565b610ee46110ba565b73ffffffffffffffffffffffffffffffffffffffff16610f02610b5d565b73ffffffffffffffffffffffffffffffffffffffff1614610f58576040517f08c379a0000000000000000000000000000000000000000000000000000000008152600401610f4f906136a7565b60405180910390fd5b600073ffffffffffffffffffffffffffffffffffffffff168173ffffffffffffffffffffffffffffffffffffffff161415610fc8576040517f08c379a0000000000000000000000000000000000000000000000000000000008152600401610fbf906137a5565b60405180910390fd5b610fd181611693565b50565b60007f780e9d63000000000000000000000000000000000000000000000000000000007bffffffffffffffffffffffffffffffffffffffffffffffffffffffff1916827bffffffffffffffffffffffffffffffffffffffffffffffffffffffff191614806110475750611046826119bd565b5b9050919050565b60008073ffffffffffffffffffffffffffffffffffffffff166067600084815260200190815260200160002060009054906101000a900473ffffffffffffffffffffffffffffffffffffffff1673ffffffffffffffffffffffffffffffffffffffff1614159050919050565b600033905090565b816069600083815260200190815260200160002060006101000a81548173ffffffffffffffffffffffffffffffffffffffff021916908373ffffffffffffffffffffffffffffffffffffffff160217905550808273ffffffffffffffffffffffffffffffffffffffff166111358361096b565b73ffffffffffffffffffffffffffffffffffffffff167f8c5be1e5ebec7d5bd14f71427d1e84f3dd0314c0f7b2291e5b200ac8c7c3b92560405160405180910390a45050565b60006111868261104e565b6111c5576040517f08c379a00000000000000000000000000000000000000000000000000000000081526004016111bc90613837565b60405180910390fd5b60006111d08361096b565b90508073ffffffffffffffffffffffffffffffffffffffff168473ffffffffffffffffffffffffffffffffffffffff16148061123f57508373ffffffffffffffffffffffffffffffffffffffff166112278461053e565b73ffffffffffffffffffffffffffffffffffffffff16145b80611250575061124f8185610e0e565b5b91505092915050565b8273ffffffffffffffffffffffffffffffffffffffff166112798261096b565b73ffffffffffffffffffffffffffffffffffffffff16146112cf576040517f08c379a00000000000000000000000000000000000000000000000000000000081526004016112c6906138c9565b60405180910390fd5b600073ffffffffffffffffffffffffffffffffffffffff168273ffffffffffffffffffffffffffffffffffffffff16141561133f576040517f08c379a00000000000000000000000000000000000000000000000000000000081526004016113369061395b565b60405180910390fd5b61134a838383611a9f565b6113556000826110c2565b6001606860008573ffffffffffffffffffffffffffffffffffffffff1673ffffffffffffffffffffffffffffffffffffffff16815260200190815260200160002060008282546113a591906139aa565b925050819055506001606860008473ffffffffffffffffffffffffffffffffffffffff1673ffffffffffffffffffffffffffffffffffffffff16815260200190815260200160002060008282546113fc91906139de565b92505081905550816067600083815260200190815260200160002060006101000a81548173ffffffffffffffffffffffffffffffffffffffff021916908373ffffffffffffffffffffffffffffffffffffffff160217905550808273ffffffffffffffffffffffffffffffffffffffff168473ffffffffffffffffffffffffffffffffffffffff167fddf252ad1be2c89b69c2b068fc378daa952ba7f163c4a11628f55a4df523b3ef60405160405180910390a4505050565b600060019054906101000a900460ff16806114db575060008054906101000a900460ff16155b61151a576040517f08c379a000000000000000000000000000000000000000000000000000000000815260040161151190613456565b60405180910390fd5b60008060019054906101000a900460ff16159050801561156a576001600060016101000a81548160ff02191690831515021790555060016000806101000a81548160ff0219169083151502179055505b611572611aaf565b61157a611b88565b801561159b5760008060016101000a81548160ff0219169083151502179055505b50565b600060019054906101000a900460ff16806115c4575060008054906101000a900460ff16155b611603576040517f08c379a00000000000000000000000000000000000000000000000000000000081526004016115fa90613456565b60405180910390fd5b60008060019054906101000a900460ff161590508015611653576001600060016101000a81548160ff02191690831515021790555060016000806101000a81548160ff0219169083151502179055505b61165b611aaf565b611663611c71565b61166d8383611d4a565b801561168e5760008060016101000a81548160ff0219169083151502179055505b505050565b600060fb60009054906101000a900473ffffffffffffffffffffffffffffffffffffffff1690508160fb60006101000a81548173ffffffffffffffffffffffffffffffffffffffff021916908373ffffffffffffffffffffffffffffffffffffffff1602179055508173ffffffffffffffffffffffffffffffffffffffff168173ffffffffffffffffffffffffffffffffffffffff167f8be0079c531659141344cd1fd0a4f28419497f9722a3daafe3b4186f6b6457e060405160405180910390a35050565b611764848484611259565b61177084848484611e53565b6117af576040517f08c379a00000000000000000000000000000000000000000000000000000000081526004016117a690613aa6565b60405180910390fd5b50505050565b60606117c08261104e565b6117ff576040517f08c379a00000000000000000000000000000000000000000000000000000000081526004016117f690613b38565b60405180910390fd5b600060c96000848152602001908152602001600020805461181f906130d8565b80601f016020809104026020016040519081016040528092919081815260200182805461184b906130d8565b80156118985780601f1061186d57610100808354040283529160200191611898565b820191906000526020600020905b81548152906001019060200180831161187b57829003601f168201915b5050505050905060006118a9611fea565b90506000815114156118bf578192505050611902565b6000825111156118f45780826040516020016118dc929190613b94565b60405160208183030381529060405292505050611902565b6118fd84612001565b925050505b919050565b6001816000016000828254019250508190555050565b600081600001549050919050565b6119458282604051806020016040528060008152506120a8565b5050565b6119528261104e565b611991576040517f08c379a000000000000000000000000000000000000000000000000000000000815260040161198890613c2a565b60405180910390fd5b8060c9600084815260200190815260200160002090805190602001906119b89291906128ce565b505050565b60007f80ac58cd000000000000000000000000000000000000000000000000000000007bffffffffffffffffffffffffffffffffffffffffffffffffffffffff1916827bffffffffffffffffffffffffffffffffffffffffffffffffffffffff19161480611a8857507f5b5e139f000000000000000000000000000000000000000000000000000000007bffffffffffffffffffffffffffffffffffffffffffffffffffffffff1916827bffffffffffffffffffffffffffffffffffffffffffffffffffffffff1916145b80611a985750611a9782612103565b5b9050919050565b611aaa83838361216d565b505050565b600060019054906101000a900460ff1680611ad5575060008054906101000a900460ff16155b611b14576040517f08c379a0000000000000000000000000000000000000000000000000000000008152600401611b0b90613456565b60405180910390fd5b60008060019054906101000a900460ff161590508015611b64576001600060016101000a81548160ff02191690831515021790555060016000806101000a81548160ff0219169083151502179055505b8015611b855760008060016101000a81548160ff0219169083151502179055505b50565b600060019054906101000a900460ff1680611bae575060008054906101000a900460ff16155b611bed576040517f08c379a0000000000000000000000000000000000000000000000000000000008152600401611be490613456565b60405180910390fd5b60008060019054906101000a900460ff161590508015611c3d576001600060016101000a81548160ff02191690831515021790555060016000806101000a81548160ff0219169083151502179055505b611c4d611c486110ba565b611693565b8015611c6e5760008060016101000a81548160ff0219169083151502179055505b50565b600060019054906101000a900460ff1680611c97575060008054906101000a900460ff16155b611cd6576040517f08c379a0000000000000000000000000000000000000000000000000000000008152600401611ccd90613456565b60405180910390fd5b60008060019054906101000a900460ff161590508015611d26576001600060016101000a81548160ff02191690831515021790555060016000806101000a81548160ff0219169083151502179055505b8015611d475760008060016101000a81548160ff0219169083151502179055505b50565b600060019054906101000a900460ff1680611d70575060008054906101000a900460ff16155b611daf576040517f08c379a0000000000000000000000000000000000000000000000000000000008152600401611da690613456565b60405180910390fd5b60008060019054906101000a900460ff161590508015611dff576001600060016101000a81548160ff02191690831515021790555060016000806101000a81548160ff0219169083151502179055505b8260659080519060200190611e159291906128ce565b508160669080519060200190611e2c9291906128ce565b508015611e4e5760008060016101000a81548160ff0219169083151502179055505b505050565b6000611e748473ffffffffffffffffffffffffffffffffffffffff16612281565b15611fdd578373ffffffffffffffffffffffffffffffffffffffff1663150b7a02611e9d6110ba565b8786866040518563ffffffff1660e01b8152600401611ebf9493929190613c9f565b602060405180830381600087803b158015611ed957600080fd5b505af1925050508015611f0a57506040513d601f19601f82011682018060405250810190611f079190613d00565b60015b611f8d573d8060008114611f3a576040519150601f19603f3d011682016040523d82523d6000602084013e611f3f565b606091505b50600081511415611f85576040517f08c379a0000000000000000000000000000000000000000000000000000000008152600401611f7c90613aa6565b60405180910390fd5b805181602001fd5b63150b7a0260e01b7bffffffffffffffffffffffffffffffffffffffffffffffffffffffff1916817bffffffffffffffffffffffffffffffffffffffffffffffffffffffff191614915050611fe2565b600190505b949350505050565b606060405180602001604052806000815250905090565b606061200c8261104e565b61204b576040517f08c379a000000000000000000000000000000000000000000000000000000000815260040161204290613d9f565b60405180910390fd5b6000612055611fea565b9050600081511161207557604051806020016040528060008152506120a0565b8061207f84612294565b604051602001612090929190613b94565b6040516020818303038152906040525b915050919050565b6120b283836123f5565b6120bf6000848484611e53565b6120fe576040517f08c379a00000000000000000000000000000000000000000000000000000000081526004016120f590613aa6565b60405180910390fd5b505050565b60007f01ffc9a7000000000000000000000000000000000000000000000000000000007bffffffffffffffffffffffffffffffffffffffffffffffffffffffff1916827bffffffffffffffffffffffffffffffffffffffffffffffffffffffff1916149050919050565b6121788383836125c3565b600073ffffffffffffffffffffffffffffffffffffffff168373ffffffffffffffffffffffffffffffffffffffff1614156121bb576121b6816125c8565b6121fa565b8173ffffffffffffffffffffffffffffffffffffffff168373ffffffffffffffffffffffffffffffffffffffff16146121f9576121f88382612611565b5b5b600073ffffffffffffffffffffffffffffffffffffffff168273ffffffffffffffffffffffffffffffffffffffff16141561223d576122388161277e565b61227c565b8273ffffffffffffffffffffffffffffffffffffffff168273ffffffffffffffffffffffffffffffffffffffff161461227b5761227a828261284f565b5b5b505050565b600080823b905060008111915050919050565b606060008214156122dc576040518060400160405280600181526020017f300000000000000000000000000000000000000000000000000000000000000081525090506123f0565b600082905060005b6000821461230e5780806122f790613dbf565b915050600a826123079190613e37565b91506122e4565b60008167ffffffffffffffff81111561232a57612329612cad565b5b6040519080825280601f01601f19166020018201604052801561235c5781602001600182028036833780820191505090505b5090505b600085146123e95760018261237591906139aa565b9150600a856123849190613e68565b603061239091906139de565b60f81b8183815181106123a6576123a5613508565b5b60200101907effffffffffffffffffffffffffffffffffffffffffffffffffffffffffffff1916908160001a905350600a856123e29190613e37565b9450612360565b8093505050505b919050565b600073ffffffffffffffffffffffffffffffffffffffff168273ffffffffffffffffffffffffffffffffffffffff161415612465576040517f08c379a000000000000000000000000000000000000000000000000000000000815260040161245c90613ee5565b60405180910390fd5b61246e8161104e565b156124ae576040517f08c379a00000000000000000000000000000000000000000000000000000000081526004016124a590613f51565b60405180910390fd5b6124ba60008383611a9f565b6001606860008473ffffffffffffffffffffffffffffffffffffffff1673ffffffffffffffffffffffffffffffffffffffff168152602001908152602001600020600082825461250a91906139de565b92505081905550816067600083815260200190815260200160002060006101000a81548173ffffffffffffffffffffffffffffffffffffffff021916908373ffffffffffffffffffffffffffffffffffffffff160217905550808273ffffffffffffffffffffffffffffffffffffffff16600073ffffffffffffffffffffffffffffffffffffffff167fddf252ad1be2c89b69c2b068fc378daa952ba7f163c4a11628f55a4df523b3ef60405160405180910390a45050565b505050565b609980549050609a600083815260200190815260200160002081905550609981908060018154018082558091505060019003906000526020600020016000909190919091505550565b6000600161261e84610a1d565b61262891906139aa565b905060006098600084815260200190815260200160002054905081811461270d576000609760008673ffffffffffffffffffffffffffffffffffffffff1673ffffffffffffffffffffffffffffffffffffffff168152602001908152602001600020600084815260200190815260200160002054905080609760008773ffffffffffffffffffffffffffffffffffffffff1673ffffffffffffffffffffffffffffffffffffffff168152602001908152602001600020600084815260200190815260200160002081905550816098600083815260200190815260200160002081905550505b6098600084815260200190815260200160002060009055609760008573ffffffffffffffffffffffffffffffffffffffff1673ffffffffffffffffffffffffffffffffffffffff16815260200190815260200160002060008381526020019081526020016000206000905550505050565b6000600160998054905061279291906139aa565b90506000609a60008481526020019081526020016000205490506000609983815481106127c2576127c1613508565b5b9060005260206000200154905080609983815481106127e4576127e3613508565b5b906000526020600020018190555081609a600083815260200190815260200160002081905550609a600085815260200190815260200160002060009055609980548061283357612832613f71565b5b6001900381819060005260206000200160009055905550505050565b600061285a83610a1d565b905081609760008573ffffffffffffffffffffffffffffffffffffffff1673ffffffffffffffffffffffffffffffffffffffff168152602001908152602001600020600083815260200190815260200160002081905550806098600084815260200190815260200160002081905550505050565b8280546128da906130d8565b90600052602060002090601f0160209004810192826128fc5760008555612943565b82601f1061291557805160ff1916838001178555612943565b82800160010185558215612943579182015b82811115612942578251825591602001919060010190612927565b5b5090506129509190612954565b5090565b5b8082111561296d576000816000905550600101612955565b5090565b6000604051905090565b600080fd5b600080fd5b60007fffffffff0000000000000000000000000000000000000000000000000000000082169050919050565b6129ba81612985565b81146129c557600080fd5b50565b6000813590506129d7816129b1565b92915050565b6000602082840312156129f3576129f261297b565b5b6000612a01848285016129c8565b91505092915050565b60008115159050919050565b612a1f81612a0a565b82525050565b6000602082019050612a3a6000830184612a16565b92915050565b600081519050919050565b600082825260208201905092915050565b60005b83811015612a7a578082015181840152602081019050612a5f565b83811115612a89576000848401525b50505050565b6000601f19601f8301169050919050565b6000612aab82612a40565b612ab58185612a4b565b9350612ac5818560208601612a5c565b612ace81612a8f565b840191505092915050565b60006020820190508181036000830152612af38184612aa0565b905092915050565b6000819050919050565b612b0e81612afb565b8114612b1957600080fd5b50565b600081359050612b2b81612b05565b92915050565b600060208284031215612b4757612b4661297b565b5b6000612b5584828501612b1c565b91505092915050565b600073ffffffffffffffffffffffffffffffffffffffff82169050919050565b6000612b8982612b5e565b9050919050565b612b9981612b7e565b82525050565b6000602082019050612bb46000830184612b90565b92915050565b612bc381612b7e565b8114612bce57600080fd5b50565b600081359050612be081612bba565b92915050565b60008060408385031215612bfd57612bfc61297b565b5b6000612c0b85828601612bd1565b9250506020612c1c85828601612b1c565b9150509250929050565b612c2f81612afb565b82525050565b6000602082019050612c4a6000830184612c26565b92915050565b600080600060608486031215612c6957612c6861297b565b5b6000612c7786828701612bd1565b9350506020612c8886828701612bd1565b9250506040612c9986828701612b1c565b9150509250925092565b600080fd5b600080fd5b7f4e487b7100000000000000000000000000000000000000000000000000000000600052604160045260246000fd5b612ce582612a8f565b810181811067ffffffffffffffff82111715612d0457612d03612cad565b5b80604052505050565b6000612d17612971565b9050612d238282612cdc565b919050565b600067ffffffffffffffff821115612d4357612d42612cad565b5b612d4c82612a8f565b9050602081019050919050565b82818337600083830152505050565b6000612d7b612d7684612d28565b612d0d565b905082815260208101848484011115612d9757612d96612ca8565b5b612da2848285612d59565b509392505050565b600082601f830112612dbf57612dbe612ca3565b5b8135612dcf848260208601612d68565b91505092915050565b60008060408385031215612def57612dee61297b565b5b600083013567ffffffffffffffff811115612e0d57612e0c612980565b5b612e1985828601612daa565b925050602083013567ffffffffffffffff811115612e3a57612e39612980565b5b612e4685828601612daa565b9150509250929050565b600060208284031215612e6657612e6561297b565b5b6000612e7484828501612bd1565b91505092915050565b612e8681612a0a565b8114612e9157600080fd5b50565b600081359050612ea381612e7d565b92915050565b60008060408385031215612ec057612ebf61297b565b5b6000612ece85828601612bd1565b9250506020612edf85828601612e94565b9150509250929050565b600067ffffffffffffffff821115612f0457612f03612cad565b5b612f0d82612a8f565b9050602081019050919050565b6000612f2d612f2884612ee9565b612d0d565b905082815260208101848484011115612f4957612f48612ca8565b5b612f54848285612d59565b509392505050565b600082601f830112612f7157612f70612ca3565b5b8135612f81848260208601612f1a565b91505092915050565b60008060008060808587031215612fa457612fa361297b565b5b6000612fb287828801612bd1565b9450506020612fc387828801612bd1565b9350506040612fd487828801612b1c565b925050606085013567ffffffffffffffff811115612ff557612ff4612980565b5b61300187828801612f5c565b91505092959194509250565b600080604083850312156130245761302361297b565b5b600061303285828601612bd1565b925050602061304385828601612bd1565b9150509250929050565b600080604083850312156130645761306361297b565b5b600061307285828601612bd1565b925050602083013567ffffffffffffffff81111561309357613092612980565b5b61309f85828601612daa565b9150509250929050565b7f4e487b7100000000000000000000000000000000000000000000000000000000600052602260045260246000fd5b600060028204905060018216806130f057607f821691505b60208210811415613104576131036130a9565b5b50919050565b7f4552433732313a20617070726f76656420717565727920666f72206e6f6e657860008201527f697374656e7420746f6b656e0000000000000000000000000000000000000000602082015250565b6000613166602c83612a4b565b91506131718261310a565b604082019050919050565b6000602082019050818103600083015261319581613159565b9050919050565b7f4552433732313a20617070726f76616c20746f2063757272656e74206f776e6560008201527f7200000000000000000000000000000000000000000000000000000000000000602082015250565b60006131f8602183612a4b565b91506132038261319c565b604082019050919050565b60006020820190508181036000830152613227816131eb565b9050919050565b7f4552433732313a20617070726f76652063616c6c6572206973206e6f74206f7760008201527f6e6572206e6f7220617070726f76656420666f7220616c6c0000000000000000602082015250565b600061328a603883612a4b565b91506132958261322e565b604082019050919050565b600060208201905081810360008301526132b98161327d565b9050919050565b7f4552433732313a207472616e736665722063616c6c6572206973206e6f74206f60008201527f776e6572206e6f7220617070726f766564000000000000000000000000000000602082015250565b600061331c603183612a4b565b9150613327826132c0565b604082019050919050565b6000602082019050818103600083015261334b8161330f565b9050919050565b7f455243373231456e756d657261626c653a206f776e657220696e646578206f7560008201527f74206f6620626f756e6473000000000000000000000000000000000000000000602082015250565b60006133ae602b83612a4b565b91506133b982613352565b604082019050919050565b600060208201905081810360008301526133dd816133a1565b9050919050565b7f496e697469616c697a61626c653a20636f6e747261637420697320616c72656160008201527f647920696e697469616c697a6564000000000000000000000000000000000000602082015250565b6000613440602e83612a4b565b915061344b826133e4565b604082019050919050565b6000602082019050818103600083015261346f81613433565b9050919050565b7f455243373231456e756d657261626c653a20676c6f62616c20696e646578206f60008201527f7574206f6620626f756e64730000000000000000000000000000000000000000602082015250565b60006134d2602c83612a4b565b91506134dd82613476565b604082019050919050565b60006020820190508181036000830152613501816134c5565b9050919050565b7f4e487b7100000000000000000000000000000000000000000000000000000000600052603260045260246000fd5b7f4552433732313a206f776e657220717565727920666f72206e6f6e657869737460008201527f656e7420746f6b656e0000000000000000000000000000000000000000000000602082015250565b6000613593602983612a4b565b915061359e82613537565b604082019050919050565b600060208201905081810360008301526135c281613586565b9050919050565b7f4552433732313a2062616c616e636520717565727920666f7220746865207a6560008201527f726f206164647265737300000000000000000000000000000000000000000000602082015250565b6000613625602a83612a4b565b9150613630826135c9565b604082019050919050565b6000602082019050818103600083015261365481613618565b9050919050565b7f4f776e61626c653a2063616c6c6572206973206e6f7420746865206f776e6572600082015250565b6000613691602083612a4b565b915061369c8261365b565b602082019050919050565b600060208201905081810360008301526136c081613684565b9050919050565b7f4552433732313a20617070726f766520746f2063616c6c657200000000000000600082015250565b60006136fd601983612a4b565b9150613708826136c7565b602082019050919050565b6000602082019050818103600083015261372c816136f0565b9050919050565b7f4f776e61626c653a206e6577206f776e657220697320746865207a65726f206160008201527f6464726573730000000000000000000000000000000000000000000000000000602082015250565b600061378f602683612a4b565b915061379a82613733565b604082019050919050565b600060208201905081810360008301526137be81613782565b9050919050565b7f4552433732313a206f70657261746f7220717565727920666f72206e6f6e657860008201527f697374656e7420746f6b656e0000000000000000000000000000000000000000602082015250565b6000613821602c83612a4b565b915061382c826137c5565b604082019050919050565b6000602082019050818103600083015261385081613814565b9050919050565b7f4552433732313a207472616e73666572206f6620746f6b656e2074686174206960008201527f73206e6f74206f776e0000000000000000000000000000000000000000000000602082015250565b60006138b3602983612a4b565b91506138be82613857565b604082019050919050565b600060208201905081810360008301526138e2816138a6565b9050919050565b7f4552433732313a207472616e7366657220746f20746865207a65726f2061646460008201527f7265737300000000000000000000000000000000000000000000000000000000602082015250565b6000613945602483612a4b565b9150613950826138e9565b604082019050919050565b6000602082019050818103600083015261397481613938565b9050919050565b7f4e487b7100000000000000000000000000000000000000000000000000000000600052601160045260246000fd5b60006139b582612afb565b91506139c083612afb565b9250828210156139d3576139d261397b565b5b828203905092915050565b60006139e982612afb565b91506139f483612afb565b9250827fffffffffffffffffffffffffffffffffffffffffffffffffffffffffffffffff03821115613a2957613a2861397b565b5b828201905092915050565b7f4552433732313a207472616e7366657220746f206e6f6e20455243373231526560008201527f63656976657220696d706c656d656e7465720000000000000000000000000000602082015250565b6000613a90603283612a4b565b9150613a9b82613a34565b604082019050919050565b60006020820190508181036000830152613abf81613a83565b9050919050565b7f45524337323155524953746f726167653a2055524920717565727920666f722060008201527f6e6f6e6578697374656e7420746f6b656e000000000000000000000000000000602082015250565b6000613b22603183612a4b565b9150613b2d82613ac6565b604082019050919050565b60006020820190508181036000830152613b5181613b15565b9050919050565b600081905092915050565b6000613b6e82612a40565b613b788185613b58565b9350613b88818560208601612a5c565b80840191505092915050565b6000613ba08285613b63565b9150613bac8284613b63565b91508190509392505050565b7f45524337323155524953746f726167653a2055524920736574206f66206e6f6e60008201527f6578697374656e7420746f6b656e000000000000000000000000000000000000602082015250565b6000613c14602e83612a4b565b9150613c1f82613bb8565b604082019050919050565b60006020820190508181036000830152613c4381613c07565b9050919050565b600081519050919050565b600082825260208201905092915050565b6000613c7182613c4a565b613c7b8185613c55565b9350613c8b818560208601612a5c565b613c9481612a8f565b840191505092915050565b6000608082019050613cb46000830187612b90565b613cc16020830186612b90565b613cce6040830185612c26565b8181036060830152613ce08184613c66565b905095945050505050565b600081519050613cfa816129b1565b92915050565b600060208284031215613d1657613d1561297b565b5b6000613d2484828501613ceb565b91505092915050565b7f4552433732314d657461646174613a2055524920717565727920666f72206e6f60008201527f6e6578697374656e7420746f6b656e0000000000000000000000000000000000602082015250565b6000613d89602f83612a4b565b9150613d9482613d2d565b604082019050919050565b60006020820190508181036000830152613db881613d7c565b9050919050565b6000613dca82612afb565b91507fffffffffffffffffffffffffffffffffffffffffffffffffffffffffffffffff821415613dfd57613dfc61397b565b5b600182019050919050565b7f4e487b7100000000000000000000000000000000000000000000000000000000600052601260045260246000fd5b6000613e4282612afb565b9150613e4d83612afb565b925082613e5d57613e5c613e08565b5b828204905092915050565b6000613e7382612afb565b9150613e7e83612afb565b925082613e8e57613e8d613e08565b5b828206905092915050565b7f4552433732313a206d696e7420746f20746865207a65726f2061646472657373600082015250565b6000613ecf602083612a4b565b9150613eda82613e99565b602082019050919050565b60006020820190508181036000830152613efe81613ec2565b9050919050565b7f4552433732313a20746f6b656e20616c7265616479206d696e74656400000000600082015250565b6000613f3b601c83612a4b565b9150613f4682613f05565b602082019050919050565b60006020820190508181036000830152613f6a81613f2e565b9050919050565b7f4e487b7100000000000000000000000000000000000000000000000000000000600052603160045260246000fdfea264697066735822122042b7a56c80b654050e91a21da45ba13e37a7065a33e4d0a7267a684ed0fda15f64736f6c63430008090033",
  "devdoc": {
    "kind": "dev",
    "methods": {
      "approve(address,uint256)": {
        "details": "See {IERC721-approve}."
      },
      "balanceOf(address)": {
        "details": "See {IERC721-balanceOf}."
      },
      "getApproved(uint256)": {
        "details": "See {IERC721-getApproved}."
      },
      "isApprovedForAll(address,address)": {
        "details": "See {IERC721-isApprovedForAll}."
      },
      "name()": {
        "details": "See {IERC721Metadata-name}."
      },
      "owner()": {
        "details": "Returns the address of the current owner."
      },
      "ownerOf(uint256)": {
        "details": "See {IERC721-ownerOf}."
      },
      "renounceOwnership()": {
        "details": "Leaves the contract without owner. It will not be possible to call `onlyOwner` functions anymore. Can only be called by the current owner. NOTE: Renouncing ownership will leave the contract without an owner, thereby removing any functionality that is only available to the owner."
      },
      "safeTransferFrom(address,address,uint256)": {
        "details": "See {IERC721-safeTransferFrom}."
      },
      "safeTransferFrom(address,address,uint256,bytes)": {
        "details": "See {IERC721-safeTransferFrom}."
      },
      "setApprovalForAll(address,bool)": {
        "details": "See {IERC721-setApprovalForAll}."
      },
      "symbol()": {
        "details": "See {IERC721Metadata-symbol}."
      },
      "tokenByIndex(uint256)": {
        "details": "See {IERC721Enumerable-tokenByIndex}."
      },
      "tokenOfOwnerByIndex(address,uint256)": {
        "details": "See {IERC721Enumerable-tokenOfOwnerByIndex}."
      },
      "totalSupply()": {
        "details": "See {IERC721Enumerable-totalSupply}."
      },
      "transferFrom(address,address,uint256)": {
        "details": "See {IERC721-transferFrom}."
      },
      "transferOwnership(address)": {
        "details": "Transfers ownership of the contract to a new account (`newOwner`). Can only be called by the current owner."
      }
    },
    "version": 1
  },
  "userdoc": {
    "kind": "user",
    "methods": {},
    "version": 1
  },
  "storageLayout": {
    "storage": [
      {
        "astId": 130,
        "contract": "solidity/contracts/OpenNFTs.sol:OpenNFTs",
        "label": "_initialized",
        "offset": 0,
        "slot": "0",
        "type": "t_bool"
      },
      {
        "astId": 133,
        "contract": "solidity/contracts/OpenNFTs.sol:OpenNFTs",
        "label": "_initializing",
        "offset": 1,
        "slot": "0",
        "type": "t_bool"
      },
      {
        "astId": 2018,
        "contract": "solidity/contracts/OpenNFTs.sol:OpenNFTs",
        "label": "__gap",
        "offset": 0,
        "slot": "1",
        "type": "t_array(t_uint256)50_storage"
      },
      {
        "astId": 2341,
        "contract": "solidity/contracts/OpenNFTs.sol:OpenNFTs",
        "label": "__gap",
        "offset": 0,
        "slot": "51",
        "type": "t_array(t_uint256)50_storage"
      },
      {
        "astId": 199,
        "contract": "solidity/contracts/OpenNFTs.sol:OpenNFTs",
        "label": "_name",
        "offset": 0,
        "slot": "101",
        "type": "t_string_storage"
      },
      {
        "astId": 201,
        "contract": "solidity/contracts/OpenNFTs.sol:OpenNFTs",
        "label": "_symbol",
        "offset": 0,
        "slot": "102",
        "type": "t_string_storage"
      },
      {
        "astId": 205,
        "contract": "solidity/contracts/OpenNFTs.sol:OpenNFTs",
        "label": "_owners",
        "offset": 0,
        "slot": "103",
        "type": "t_mapping(t_uint256,t_address)"
      },
      {
        "astId": 209,
        "contract": "solidity/contracts/OpenNFTs.sol:OpenNFTs",
        "label": "_balances",
        "offset": 0,
        "slot": "104",
        "type": "t_mapping(t_address,t_uint256)"
      },
      {
        "astId": 213,
        "contract": "solidity/contracts/OpenNFTs.sol:OpenNFTs",
        "label": "_tokenApprovals",
        "offset": 0,
        "slot": "105",
        "type": "t_mapping(t_uint256,t_address)"
      },
      {
        "astId": 219,
        "contract": "solidity/contracts/OpenNFTs.sol:OpenNFTs",
        "label": "_operatorApprovals",
        "offset": 0,
        "slot": "106",
        "type": "t_mapping(t_address,t_mapping(t_address,t_bool))"
      },
      {
        "astId": 1015,
        "contract": "solidity/contracts/OpenNFTs.sol:OpenNFTs",
        "label": "__gap",
        "offset": 0,
        "slot": "107",
        "type": "t_array(t_uint256)44_storage"
      },
      {
        "astId": 1189,
        "contract": "solidity/contracts/OpenNFTs.sol:OpenNFTs",
        "label": "_ownedTokens",
        "offset": 0,
        "slot": "151",
        "type": "t_mapping(t_address,t_mapping(t_uint256,t_uint256))"
      },
      {
        "astId": 1193,
        "contract": "solidity/contracts/OpenNFTs.sol:OpenNFTs",
        "label": "_ownedTokensIndex",
        "offset": 0,
        "slot": "152",
        "type": "t_mapping(t_uint256,t_uint256)"
      },
      {
        "astId": 1196,
        "contract": "solidity/contracts/OpenNFTs.sol:OpenNFTs",
        "label": "_allTokens",
        "offset": 0,
        "slot": "153",
        "type": "t_array(t_uint256)dyn_storage"
      },
      {
        "astId": 1200,
        "contract": "solidity/contracts/OpenNFTs.sol:OpenNFTs",
        "label": "_allTokensIndex",
        "offset": 0,
        "slot": "154",
        "type": "t_mapping(t_uint256,t_uint256)"
      },
      {
        "astId": 1515,
        "contract": "solidity/contracts/OpenNFTs.sol:OpenNFTs",
        "label": "__gap",
        "offset": 0,
        "slot": "155",
        "type": "t_array(t_uint256)46_storage"
      },
      {
        "astId": 1553,
        "contract": "solidity/contracts/OpenNFTs.sol:OpenNFTs",
        "label": "_tokenURIs",
        "offset": 0,
        "slot": "201",
        "type": "t_mapping(t_uint256,t_string_storage)"
      },
      {
        "astId": 1671,
        "contract": "solidity/contracts/OpenNFTs.sol:OpenNFTs",
        "label": "__gap",
        "offset": 0,
        "slot": "202",
        "type": "t_array(t_uint256)49_storage"
      },
      {
        "astId": 10,
        "contract": "solidity/contracts/OpenNFTs.sol:OpenNFTs",
        "label": "_owner",
        "offset": 0,
        "slot": "251",
        "type": "t_address"
      },
      {
        "astId": 123,
        "contract": "solidity/contracts/OpenNFTs.sol:OpenNFTs",
        "label": "__gap",
        "offset": 0,
        "slot": "252",
        "type": "t_array(t_uint256)49_storage"
      },
      {
        "astId": 3591,
        "contract": "solidity/contracts/OpenNFTs.sol:OpenNFTs",
        "label": "_tokenIds",
        "offset": 0,
        "slot": "301",
        "type": "t_struct(Counter)2025_storage"
      }
    ],
    "types": {
      "t_address": {
        "encoding": "inplace",
        "label": "address",
        "numberOfBytes": "20"
      },
      "t_array(t_uint256)44_storage": {
        "base": "t_uint256",
        "encoding": "inplace",
        "label": "uint256[44]",
        "numberOfBytes": "1408"
      },
      "t_array(t_uint256)46_storage": {
        "base": "t_uint256",
        "encoding": "inplace",
        "label": "uint256[46]",
        "numberOfBytes": "1472"
      },
      "t_array(t_uint256)49_storage": {
        "base": "t_uint256",
        "encoding": "inplace",
        "label": "uint256[49]",
        "numberOfBytes": "1568"
      },
      "t_array(t_uint256)50_storage": {
        "base": "t_uint256",
        "encoding": "inplace",
        "label": "uint256[50]",
        "numberOfBytes": "1600"
      },
      "t_array(t_uint256)dyn_storage": {
        "base": "t_uint256",
        "encoding": "dynamic_array",
        "label": "uint256[]",
        "numberOfBytes": "32"
      },
      "t_bool": {
        "encoding": "inplace",
        "label": "bool",
        "numberOfBytes": "1"
      },
      "t_mapping(t_address,t_bool)": {
        "encoding": "mapping",
        "key": "t_address",
        "label": "mapping(address => bool)",
        "numberOfBytes": "32",
        "value": "t_bool"
      },
      "t_mapping(t_address,t_mapping(t_address,t_bool))": {
        "encoding": "mapping",
        "key": "t_address",
        "label": "mapping(address => mapping(address => bool))",
        "numberOfBytes": "32",
        "value": "t_mapping(t_address,t_bool)"
      },
      "t_mapping(t_address,t_mapping(t_uint256,t_uint256))": {
        "encoding": "mapping",
        "key": "t_address",
        "label": "mapping(address => mapping(uint256 => uint256))",
        "numberOfBytes": "32",
        "value": "t_mapping(t_uint256,t_uint256)"
      },
      "t_mapping(t_address,t_uint256)": {
        "encoding": "mapping",
        "key": "t_address",
        "label": "mapping(address => uint256)",
        "numberOfBytes": "32",
        "value": "t_uint256"
      },
      "t_mapping(t_uint256,t_address)": {
        "encoding": "mapping",
        "key": "t_uint256",
        "label": "mapping(uint256 => address)",
        "numberOfBytes": "32",
        "value": "t_address"
      },
      "t_mapping(t_uint256,t_string_storage)": {
        "encoding": "mapping",
        "key": "t_uint256",
        "label": "mapping(uint256 => string)",
        "numberOfBytes": "32",
        "value": "t_string_storage"
      },
      "t_mapping(t_uint256,t_uint256)": {
        "encoding": "mapping",
        "key": "t_uint256",
        "label": "mapping(uint256 => uint256)",
        "numberOfBytes": "32",
        "value": "t_uint256"
      },
      "t_string_storage": {
        "encoding": "bytes",
        "label": "string",
        "numberOfBytes": "32"
      },
      "t_struct(Counter)2025_storage": {
        "encoding": "inplace",
        "label": "struct CountersUpgradeable.Counter",
        "members": [
          {
            "astId": 2024,
            "contract": "solidity/contracts/OpenNFTs.sol:OpenNFTs",
            "label": "_value",
            "offset": 0,
            "slot": "0",
            "type": "t_uint256"
          }
        ],
        "numberOfBytes": "32"
      },
      "t_uint256": {
        "encoding": "inplace",
        "label": "uint256",
        "numberOfBytes": "32"
      }
    }
  }
}