{
  "address": "0x3f46967bAa872fb0D03A8C21c95D1D73CB01bb8F",
  "abi": [
    {
      "inputs": [],
      "name": "ids",
      "outputs": [
        {
          "internalType": "bytes4[]",
          "name": "interfacesIds",
          "type": "bytes4[]"
        }
      ],
      "stateMutability": "pure",
      "type": "function"
    }
  ],
  "transactionHash": "0x4d730c5d06ff1c90f137f6af0978dee7f8358a714b0c87496cce9fea94669379",
  "args": [],
  "numDeployments": 1,
  "solcInputHash": "ce6e9f75e1d417c33685d5e5497d1467",
  "bytecode": "0x608060405234801561001057600080fd5b50610550806100206000396000f3fe608060405234801561001057600080fd5b506004361061002b5760003560e01c8063e7657e1514610030575b600080fd5b61003861004e565b60405161004591906104b6565b60405180910390f35b604080516012808252610260820190925260609160208201610240803683370190505090506301ffc9a760e01b8160008151811061008e5761008e610504565b60200260200101906001600160e01b03191690816001600160e01b031916815250506380ac58cd60e01b816001815181106100cb576100cb610504565b60200260200101906001600160e01b03191690816001600160e01b03191681525050630a85bd0160e11b8160028151811061010857610108610504565b60200260200101906001600160e01b03191690816001600160e01b03191681525050635b5e139f60e01b8160038151811061014557610145610504565b60200260200101906001600160e01b03191690816001600160e01b0319168152505063780e9d6360e01b8160048151811061018257610182610504565b60200260200101906001600160e01b03191690816001600160e01b03191681525050636cdb3d1360e11b816005815181106101bf576101bf610504565b60200260200101906001600160e01b03191690816001600160e01b03191681525050630271189760e51b816006815181106101fc576101fc610504565b60200260200101906001600160e01b03191690816001600160e01b031916815250506303a24d0760e21b8160078151811061023957610239610504565b60200260200101906001600160e01b03191690816001600160e01b031916815250506307f5828d60e41b8160088151811061027657610276610504565b60200260200101906001600160e01b03191690816001600160e01b0319168152505062f7235960e21b816009815181106102b2576102b2610504565b60200260200101906001600160e01b03191690816001600160e01b03191681525050634b68d43160e01b81600a815181106102ef576102ef610504565b60200260200101906001600160e01b03191690816001600160e01b03191681525050633ab2af8560e21b81600b8151811061032c5761032c610504565b60200260200101906001600160e01b03191690816001600160e01b03191681525050636ca50ed960e11b81600c8151811061036957610369610504565b60200260200101906001600160e01b03191690816001600160e01b03191681525050635c838d8b60e01b81600d815181106103a6576103a6610504565b60200260200101906001600160e01b03191690816001600160e01b03191681525050633dce988b60e21b81600e815181106103e3576103e3610504565b60200260200101906001600160e01b03191690816001600160e01b03191681525050637461834760e01b81600f8151811061042057610420610504565b60200260200101906001600160e01b03191690816001600160e01b031916815250506333f1b10d60e21b8160108151811061045d5761045d610504565b60200260200101906001600160e01b03191690816001600160e01b03191681525050633c7af2e160e11b8160118151811061049a5761049a610504565b6001600160e01b03199092166020928302919091019091015290565b6020808252825182820181905260009190848201906040850190845b818110156104f85783516001600160e01b031916835292840192918401916001016104d2565b50909695505050505050565b634e487b7160e01b600052603260045260246000fdfea2646970667358221220c2b57e98b141d920d563c4a7c598f2c5795c2c2ad2bcc220dfa2883dac52cec864736f6c63430008090033",
  "devdoc": {
    "author": "zapaz.eth",
    "kind": "dev",
    "methods": {
      "ids()": {
        "returns": {
          "interfacesIds": ": Array of all interfaceIds"
        }
      }
    },
    "title": "InterfaceIds calculation",
    "version": 1
  },
  "userdoc": {
    "kind": "user",
    "methods": {
      "ids()": {
        "notice": "Main and only function to calculate Interface IdsNo params"
      }
    },
    "notice": "Calculates various ERC165, ERC721 and ERC1155 interface Idsand Kredeum OpenNFTs interface Ids",
    "version": 1
  },
  "storageLayout": {
    "storage": [],
    "types": null
  }
}