{
  "address": "0xF6169393986b38e57D61187051c3F5B554796f83",
  "abi": [
    {
      "inputs": [
        {
          "internalType": "string",
          "name": "name_",
          "type": "string"
        },
        {
          "internalType": "string",
          "name": "symbol_",
          "type": "string"
        }
      ],
      "stateMutability": "nonpayable",
      "type": "constructor"
    },
    {
      "anonymous": false,
      "inputs": [
        {
          "indexed": true,
          "internalType": "address",
          "name": "_to",
          "type": "address"
        },
        {
          "indexed": true,
          "internalType": "uint256",
          "name": "_tokenId",
          "type": "uint256"
        }
      ],
      "name": "Attest",
      "type": "event"
    },
    {
      "anonymous": false,
      "inputs": [
        {
          "indexed": true,
          "internalType": "address",
          "name": "previousOwner",
          "type": "address"
        },
        {
          "indexed": true,
          "internalType": "address",
          "name": "newOwner",
          "type": "address"
        }
      ],
      "name": "OwnershipTransferred",
      "type": "event"
    },
    {
      "inputs": [
        {
          "internalType": "address",
          "name": "addr",
          "type": "address"
        },
        {
          "internalType": "uint256",
          "name": "tokenID",
          "type": "uint256"
        }
      ],
      "name": "mint",
      "outputs": [],
      "stateMutability": "nonpayable",
      "type": "function"
    },
    {
      "inputs": [
        {
          "internalType": "uint256",
          "name": "tokenID",
          "type": "uint256"
        }
      ],
      "name": "mint",
      "outputs": [],
      "stateMutability": "nonpayable",
      "type": "function"
    },
    {
      "inputs": [],
      "name": "name",
      "outputs": [
        {
          "internalType": "string",
          "name": "",
          "type": "string"
        }
      ],
      "stateMutability": "view",
      "type": "function"
    },
    {
      "inputs": [],
      "name": "owner",
      "outputs": [
        {
          "internalType": "address",
          "name": "",
          "type": "address"
        }
      ],
      "stateMutability": "view",
      "type": "function"
    },
    {
      "inputs": [
        {
          "internalType": "uint256",
          "name": "tokenID",
          "type": "uint256"
        }
      ],
      "name": "ownerOf",
      "outputs": [
        {
          "internalType": "address",
          "name": "nftOwner",
          "type": "address"
        }
      ],
      "stateMutability": "view",
      "type": "function"
    },
    {
      "inputs": [],
      "name": "symbol",
      "outputs": [
        {
          "internalType": "string",
          "name": "",
          "type": "string"
        }
      ],
      "stateMutability": "view",
      "type": "function"
    },
    {
      "inputs": [
        {
          "internalType": "uint256",
          "name": "index",
          "type": "uint256"
        }
      ],
      "name": "tokenByIndex",
      "outputs": [
        {
          "internalType": "uint256",
          "name": "tokenID",
          "type": "uint256"
        }
      ],
      "stateMutability": "view",
      "type": "function"
    },
    {
      "inputs": [
        {
          "internalType": "address",
          "name": "addr",
          "type": "address"
        },
        {
          "internalType": "uint256",
          "name": "index",
          "type": "uint256"
        }
      ],
      "name": "tokenOfOwnerByIndex",
      "outputs": [
        {
          "internalType": "uint256",
          "name": "tokenID",
          "type": "uint256"
        }
      ],
      "stateMutability": "view",
      "type": "function"
    },
    {
      "inputs": [
        {
          "internalType": "uint256",
          "name": "tokenId",
          "type": "uint256"
        }
      ],
      "name": "tokenURI",
      "outputs": [
        {
          "internalType": "string",
          "name": "",
          "type": "string"
        }
      ],
      "stateMutability": "view",
      "type": "function"
    },
    {
      "inputs": [],
      "name": "totalSupply",
      "outputs": [
        {
          "internalType": "uint256",
          "name": "",
          "type": "uint256"
        }
      ],
      "stateMutability": "view",
      "type": "function"
    },
    {
      "inputs": [
        {
          "internalType": "address",
          "name": "newOwner",
          "type": "address"
        }
      ],
      "name": "transferOwnership",
      "outputs": [],
      "stateMutability": "nonpayable",
      "type": "function"
    }
  ],
  "transactionHash": "0xcc7f1d63112ee1a9623722ef0e85a5b33694a63bc111d93d5569b6b895b3bcc5",
  "args": [
    "OpenBound4973",
    "B4973"
  ],
  "numDeployments": 1,
  "solcInputHash": "ce6e9f75e1d417c33685d5e5497d1467",
  "bytecode": "0x60806040523480156200001157600080fd5b5060405162000ba038038062000ba08339810160408190526200003491620001ed565b8151620000499060019060208501906200007a565b5080516200005f9060029060208401906200007a565b5050600080546001600160a01b031916331790555062000294565b828054620000889062000257565b90600052602060002090601f016020900481019282620000ac5760008555620000f7565b82601f10620000c757805160ff1916838001178555620000f7565b82800160010185558215620000f7579182015b82811115620000f7578251825591602001919060010190620000da565b506200010592915062000109565b5090565b5b808211156200010557600081556001016200010a565b634e487b7160e01b600052604160045260246000fd5b600082601f8301126200014857600080fd5b81516001600160401b038082111562000165576200016562000120565b604051601f8301601f19908116603f0116810190828211818310171562000190576200019062000120565b81604052838152602092508683858801011115620001ad57600080fd5b600091505b83821015620001d15785820183015181830184015290820190620001b2565b83821115620001e35760008385830101525b9695505050505050565b600080604083850312156200020157600080fd5b82516001600160401b03808211156200021957600080fd5b620002278683870162000136565b935060208501519150808211156200023e57600080fd5b506200024d8582860162000136565b9150509250929050565b600181811c908216806200026c57607f821691505b602082108114156200028e57634e487b7160e01b600052602260045260246000fd5b50919050565b6108fc80620002a46000396000f3fe608060405234801561001057600080fd5b50600436106100a95760003560e01c80636352211e116100715780636352211e1461011e5780638da5cb5b1461015f57806395d89b4114610172578063a0712d681461017a578063c87b56dd1461018d578063f2fde38b146101a057600080fd5b806306fdde03146100ae57806318160ddd146100cc5780632f745c59146100e357806340c10f19146100f65780634f6ccce71461010b575b600080fd5b6100b66101b3565b6040516100c3919061071e565b60405180910390f35b6100d560035481565b6040519081526020016100c3565b6100d56100f136600461076d565b610241565b61010961010436600461076d565b6102c7565b005b6100d5610119366004610797565b61031b565b61014761012c366004610797565b6000908152600460205260409020546001600160a01b031690565b6040516001600160a01b0390911681526020016100c3565b600054610147906001600160a01b031681565b6100b6610384565b610109610188366004610797565b610391565b6100b661019b366004610797565b61039e565b6101096101ae3660046107b0565b61044a565b600180546101c0906107d2565b80601f01602080910402602001604051908101604052809291908181526020018280546101ec906107d2565b80156102395780601f1061020e57610100808354040283529160200191610239565b820191906000526020600020905b81548152906001019060200180831161021c57829003601f168201915b505050505081565b600654600090821061028a5760405162461bcd60e51b815260206004820152600d60248201526c092dcecc2d8d2c840d2dcc8caf609b1b60448201526064015b60405180910390fd5b6001600160a01b03831660009081526005602052604090208054839081106102b4576102b461080d565b9060005260206000200154905092915050565b6000546001600160a01b0316331461030d5760405162461bcd60e51b81526020600482015260096024820152682737ba1037bbb732b960b91b6044820152606401610281565b610317828261049a565b5050565b600654600090821061035f5760405162461bcd60e51b815260206004820152600d60248201526c092dcecc2d8d2c840d2dcc8caf609b1b6044820152606401610281565b600682815481106103725761037261080d565b90600052602060002001549050919050565b600280546101c0906107d2565b61039b338261049a565b50565b6000818152600460205260409020546060906001600160a01b03166103fa5760405162461bcd60e51b81526020600482015260126024820152714e465420646f65736e27742065786973747360701b6044820152606401610281565b60405180604001604052806007815260200166697066733a2f2f60c81b815250610423836105b0565b604051602001610434929190610823565b6040516020818303038152906040529050919050565b600080546001600160a01b038381166001600160a01b0319831681178455604051919092169283917f8be0079c531659141344cd1fd0a4f28419497f9722a3daafe3b4186f6b6457e09190a35050565b6000818152600460205260409020546001600160a01b0316156104f45760405162461bcd60e51b81526020600482015260126024820152714e465420616c72656164792065786973747360701b6044820152606401610281565b6001600360008282546105079190610868565b9091555050600081815260046020908152604080832080546001600160a01b0319166001600160a01b0387169081179091556006805460018181019092557ff652222313e28459528d920b65115c16c04f3efc82aaedc97be59f3f377c0d3f01869055818552600584528285208054918201815585529284209092018490555183927fe9274a84b19e9428826de6bae8c48329354f8f0e73f771b97cae2d9dccd45a2791a35050565b60408051603480825260608281019093526000919060208201818036833701905050905060fd83901c7f6162636465666768696a6b6c6d6e6f707172737475767778797a323334353637816020811061060b5761060b61080d565b1a60f81b826000815181106106225761062261080d565b60200101906001600160f81b031916908160001a90535060029390931b9260335b80156106c4577f6162636465666768696a6b6c6d6e6f707172737475767778797a32333435363785601f166020811061067e5761067e61080d565b1a60f81b8382815181106106945761069461080d565b60200101906001600160f81b031916908160001a90535060059490941c93806106bc81610880565b915050610643565b50816040516020016106d69190610897565b60405160208183030381529060405292505050919050565b60005b838110156107095781810151838201526020016106f1565b83811115610718576000848401525b50505050565b602081526000825180602084015261073d8160408501602087016106ee565b601f01601f19169190910160400192915050565b80356001600160a01b038116811461076857600080fd5b919050565b6000806040838503121561078057600080fd5b61078983610751565b946020939093013593505050565b6000602082840312156107a957600080fd5b5035919050565b6000602082840312156107c257600080fd5b6107cb82610751565b9392505050565b600181811c908216806107e657607f821691505b6020821081141561080757634e487b7160e01b600052602260045260246000fd5b50919050565b634e487b7160e01b600052603260045260246000fd5b600083516108358184602088016106ee565b8351908301906108498183602088016106ee565b01949350505050565b634e487b7160e01b600052601160045260246000fd5b6000821982111561087b5761087b610852565b500190565b60008161088f5761088f610852565b506000190190565b666261666b72656960c81b8152600082516108b98160078501602087016106ee565b919091016007019291505056fea2646970667358221220780a8aa3d80f59ffdc4400fbff47bccc0f753baa69b27338a7e98f030f9579fa64736f6c63430008090033",
  "devdoc": {
    "kind": "dev",
    "methods": {},
    "title": "OpenBound smartcontract",
    "version": 1
  },
  "userdoc": {
    "kind": "user",
    "methods": {},
    "version": 1
  },
  "storageLayout": {
    "storage": [
      {
        "astId": 8710,
        "contract": "contracts/dev/OpenBound4973.sol:OpenBound4973",
        "label": "owner",
        "offset": 0,
        "slot": "0",
        "type": "t_address"
      },
      {
        "astId": 8712,
        "contract": "contracts/dev/OpenBound4973.sol:OpenBound4973",
        "label": "name",
        "offset": 0,
        "slot": "1",
        "type": "t_string_storage"
      },
      {
        "astId": 8714,
        "contract": "contracts/dev/OpenBound4973.sol:OpenBound4973",
        "label": "symbol",
        "offset": 0,
        "slot": "2",
        "type": "t_string_storage"
      },
      {
        "astId": 8716,
        "contract": "contracts/dev/OpenBound4973.sol:OpenBound4973",
        "label": "totalSupply",
        "offset": 0,
        "slot": "3",
        "type": "t_uint256"
      },
      {
        "astId": 8720,
        "contract": "contracts/dev/OpenBound4973.sol:OpenBound4973",
        "label": "_owners",
        "offset": 0,
        "slot": "4",
        "type": "t_mapping(t_uint256,t_address)"
      },
      {
        "astId": 8725,
        "contract": "contracts/dev/OpenBound4973.sol:OpenBound4973",
        "label": "_tokensOfOwner",
        "offset": 0,
        "slot": "5",
        "type": "t_mapping(t_address,t_array(t_uint256)dyn_storage)"
      },
      {
        "astId": 8728,
        "contract": "contracts/dev/OpenBound4973.sol:OpenBound4973",
        "label": "_tokens",
        "offset": 0,
        "slot": "6",
        "type": "t_array(t_uint256)dyn_storage"
      }
    ],
    "types": {
      "t_address": {
        "encoding": "inplace",
        "label": "address",
        "numberOfBytes": "20"
      },
      "t_array(t_uint256)dyn_storage": {
        "base": "t_uint256",
        "encoding": "dynamic_array",
        "label": "uint256[]",
        "numberOfBytes": "32"
      },
      "t_mapping(t_address,t_array(t_uint256)dyn_storage)": {
        "encoding": "mapping",
        "key": "t_address",
        "label": "mapping(address => uint256[])",
        "numberOfBytes": "32",
        "value": "t_array(t_uint256)dyn_storage"
      },
      "t_mapping(t_uint256,t_address)": {
        "encoding": "mapping",
        "key": "t_uint256",
        "label": "mapping(uint256 => address)",
        "numberOfBytes": "32",
        "value": "t_address"
      },
      "t_string_storage": {
        "encoding": "bytes",
        "label": "string",
        "numberOfBytes": "32"
      },
      "t_uint256": {
        "encoding": "inplace",
        "label": "uint256",
        "numberOfBytes": "32"
      }
    }
  }
}