{
  "address": "0x8a324A30C8ca1E9CFcea267C2116968cAacEd1D6",
  "abi": [
    {
      "inputs": [],
      "stateMutability": "nonpayable",
      "type": "constructor"
    },
    {
      "anonymous": false,
      "inputs": [
        {
          "indexed": true,
          "internalType": "address",
          "name": "owner",
          "type": "address"
        },
        {
          "indexed": true,
          "internalType": "address",
          "name": "approved",
          "type": "address"
        },
        {
          "indexed": true,
          "internalType": "uint256",
          "name": "tokenId",
          "type": "uint256"
        }
      ],
      "name": "Approval",
      "type": "event"
    },
    {
      "anonymous": false,
      "inputs": [
        {
          "indexed": true,
          "internalType": "address",
          "name": "owner",
          "type": "address"
        },
        {
          "indexed": true,
          "internalType": "address",
          "name": "operator",
          "type": "address"
        },
        {
          "indexed": false,
          "internalType": "bool",
          "name": "approved",
          "type": "bool"
        }
      ],
      "name": "ApprovalForAll",
      "type": "event"
    },
    {
      "anonymous": false,
      "inputs": [
        {
          "indexed": true,
          "internalType": "address",
          "name": "from",
          "type": "address"
        },
        {
          "indexed": true,
          "internalType": "address",
          "name": "to",
          "type": "address"
        },
        {
          "indexed": true,
          "internalType": "uint256",
          "name": "tokenId",
          "type": "uint256"
        }
      ],
      "name": "Transfer",
      "type": "event"
    },
    {
      "inputs": [
        {
          "internalType": "address",
          "name": "to",
          "type": "address"
        },
        {
          "internalType": "uint256",
          "name": "tokenId",
          "type": "uint256"
        }
      ],
      "name": "approve",
      "outputs": [],
      "stateMutability": "nonpayable",
      "type": "function"
    },
    {
      "inputs": [
        {
          "internalType": "address",
          "name": "owner",
          "type": "address"
        }
      ],
      "name": "balanceOf",
      "outputs": [
        {
          "internalType": "uint256",
          "name": "",
          "type": "uint256"
        }
      ],
      "stateMutability": "view",
      "type": "function"
    },
    {
      "inputs": [
        {
          "internalType": "uint256",
          "name": "tokenId",
          "type": "uint256"
        }
      ],
      "name": "getApproved",
      "outputs": [
        {
          "internalType": "address",
          "name": "",
          "type": "address"
        }
      ],
      "stateMutability": "view",
      "type": "function"
    },
    {
      "inputs": [
        {
          "internalType": "address",
          "name": "owner",
          "type": "address"
        },
        {
          "internalType": "address",
          "name": "operator",
          "type": "address"
        }
      ],
      "name": "isApprovedForAll",
      "outputs": [
        {
          "internalType": "bool",
          "name": "",
          "type": "bool"
        }
      ],
      "stateMutability": "view",
      "type": "function"
    },
    {
      "inputs": [],
      "name": "name",
      "outputs": [
        {
          "internalType": "string",
          "name": "",
          "type": "string"
        }
      ],
      "stateMutability": "view",
      "type": "function"
    },
    {
      "inputs": [
        {
          "internalType": "uint256",
          "name": "tokenId",
          "type": "uint256"
        }
      ],
      "name": "ownerOf",
      "outputs": [
        {
          "internalType": "address",
          "name": "",
          "type": "address"
        }
      ],
      "stateMutability": "view",
      "type": "function"
    },
    {
      "inputs": [
        {
          "internalType": "address",
          "name": "from",
          "type": "address"
        },
        {
          "internalType": "address",
          "name": "to",
          "type": "address"
        },
        {
          "internalType": "uint256",
          "name": "tokenId",
          "type": "uint256"
        }
      ],
      "name": "safeTransferFrom",
      "outputs": [],
      "stateMutability": "nonpayable",
      "type": "function"
    },
    {
      "inputs": [
        {
          "internalType": "address",
          "name": "from",
          "type": "address"
        },
        {
          "internalType": "address",
          "name": "to",
          "type": "address"
        },
        {
          "internalType": "uint256",
          "name": "tokenId",
          "type": "uint256"
        },
        {
          "internalType": "bytes",
          "name": "_data",
          "type": "bytes"
        }
      ],
      "name": "safeTransferFrom",
      "outputs": [],
      "stateMutability": "nonpayable",
      "type": "function"
    },
    {
      "inputs": [
        {
          "internalType": "address",
          "name": "operator",
          "type": "address"
        },
        {
          "internalType": "bool",
          "name": "approved",
          "type": "bool"
        }
      ],
      "name": "setApprovalForAll",
      "outputs": [],
      "stateMutability": "nonpayable",
      "type": "function"
    },
    {
      "inputs": [
        {
          "internalType": "string",
          "name": "tokenURI_",
          "type": "string"
        }
      ],
      "name": "setTokenURI",
      "outputs": [],
      "stateMutability": "nonpayable",
      "type": "function"
    },
    {
      "inputs": [
        {
          "internalType": "bytes4",
          "name": "interfaceId",
          "type": "bytes4"
        }
      ],
      "name": "supportsInterface",
      "outputs": [
        {
          "internalType": "bool",
          "name": "",
          "type": "bool"
        }
      ],
      "stateMutability": "view",
      "type": "function"
    },
    {
      "inputs": [],
      "name": "symbol",
      "outputs": [
        {
          "internalType": "string",
          "name": "",
          "type": "string"
        }
      ],
      "stateMutability": "view",
      "type": "function"
    },
    {
      "inputs": [
        {
          "internalType": "uint256",
          "name": "tokenId",
          "type": "uint256"
        }
      ],
      "name": "tokenURI",
      "outputs": [
        {
          "internalType": "string",
          "name": "",
          "type": "string"
        }
      ],
      "stateMutability": "view",
      "type": "function"
    },
    {
      "inputs": [
        {
          "internalType": "address",
          "name": "from",
          "type": "address"
        },
        {
          "internalType": "address",
          "name": "to",
          "type": "address"
        },
        {
          "internalType": "uint256",
          "name": "tokenId",
          "type": "uint256"
        }
      ],
      "name": "transferFrom",
      "outputs": [],
      "stateMutability": "nonpayable",
      "type": "function"
    }
  ],
  "transactionHash": "0xf426d76547a0cafced4c3b7c9ae809d90712538d117d656b6ca482aba7045b1e",
  "args": [],
  "numDeployments": 1,
  "solcInputHash": "2ad0b3cd7295fcd322595f5758323323",
  "bytecode": "0x60806040523480156200001157600080fd5b50604080518082018252601281527150726f6f66204f6620536f6d657468696e6760701b602080830191825283518085019094526005845264282927a7a360d91b908401528151919291620000699160009162000088565b5080516200007f90600190602084019062000088565b5050506200016b565b82805462000096906200012e565b90600052602060002090601f016020900481019282620000ba576000855562000105565b82601f10620000d557805160ff191683800117855562000105565b8280016001018555821562000105579182015b8281111562000105578251825591602001919060010190620000e8565b506200011392915062000117565b5090565b5b8082111562000113576000815560010162000118565b600181811c908216806200014357607f821691505b602082108114156200016557634e487b7160e01b600052602260045260246000fd5b50919050565b611394806200017b6000396000f3fe608060405234801561001057600080fd5b50600436106100ea5760003560e01c806370a082311161008c578063b88d4fde11610066578063b88d4fde146101e1578063c87b56dd146101f4578063e0df5b6f14610207578063e985e9c51461021a57600080fd5b806370a08231146101a557806395d89b41146101c6578063a22cb465146101ce57600080fd5b8063095ea7b3116100c8578063095ea7b31461015757806323b872dd1461016c57806342842e0e1461017f5780636352211e1461019257600080fd5b806301ffc9a7146100ef57806306fdde0314610117578063081812fc1461012c575b600080fd5b6101026100fd366004610e45565b610256565b60405190151581526020015b60405180910390f35b61011f6102a8565b60405161010e9190610eba565b61013f61013a366004610ecd565b61033a565b6040516001600160a01b03909116815260200161010e565b61016a610165366004610f02565b6103d4565b005b61016a61017a366004610f2c565b6104ea565b61016a61018d366004610f2c565b61051b565b61013f6101a0366004610ecd565b610536565b6101b86101b3366004610f68565b6105ad565b60405190815260200161010e565b61011f610634565b61016a6101dc366004610f83565b610643565b61016a6101ef36600461104b565b610652565b61011f610202366004610ecd565b61068a565b61016a6102153660046110c7565b610772565b610102610228366004611110565b6001600160a01b03918216600090815260056020908152604080832093909416825291909152205460ff1690565b60006001600160e01b031982166380ac58cd60e01b148061028757506001600160e01b03198216635b5e139f60e01b145b806102a257506301ffc9a760e01b6001600160e01b03198316145b92915050565b6060600080546102b790611143565b80601f01602080910402602001604051908101604052809291908181526020018280546102e390611143565b80156103305780601f1061030557610100808354040283529160200191610330565b820191906000526020600020905b81548152906001019060200180831161031357829003601f168201915b5050505050905090565b6000818152600260205260408120546001600160a01b03166103b85760405162461bcd60e51b815260206004820152602c60248201527f4552433732313a20617070726f76656420717565727920666f72206e6f6e657860448201526b34b9ba32b73a103a37b5b2b760a11b60648201526084015b60405180910390fd5b506000908152600460205260409020546001600160a01b031690565b60006103df82610536565b9050806001600160a01b0316836001600160a01b0316141561044d5760405162461bcd60e51b815260206004820152602160248201527f4552433732313a20617070726f76616c20746f2063757272656e74206f776e656044820152603960f91b60648201526084016103af565b336001600160a01b038216148061046957506104698133610228565b6104db5760405162461bcd60e51b815260206004820152603860248201527f4552433732313a20617070726f76652063616c6c6572206973206e6f74206f7760448201527f6e6572206e6f7220617070726f76656420666f7220616c6c000000000000000060648201526084016103af565b6104e58383610785565b505050565b6104f433826107f3565b6105105760405162461bcd60e51b81526004016103af9061117e565b6104e58383836108ea565b6104e583838360405180602001604052806000815250610652565b6000818152600260205260408120546001600160a01b0316806102a25760405162461bcd60e51b815260206004820152602960248201527f4552433732313a206f776e657220717565727920666f72206e6f6e657869737460448201526832b73a103a37b5b2b760b91b60648201526084016103af565b60006001600160a01b0382166106185760405162461bcd60e51b815260206004820152602a60248201527f4552433732313a2062616c616e636520717565727920666f7220746865207a65604482015269726f206164647265737360b01b60648201526084016103af565b506001600160a01b031660009081526003602052604090205490565b6060600180546102b790611143565b61064e338383610a86565b5050565b61065c33836107f3565b6106785760405162461bcd60e51b81526004016103af9061117e565b61068484848484610b55565b50505050565b6000818152600260205260409020546060906001600160a01b03166107095760405162461bcd60e51b815260206004820152602f60248201527f4552433732314d657461646174613a2055524920717565727920666f72206e6f60448201526e3732bc34b9ba32b73a103a37b5b2b760891b60648201526084016103af565b600061072060408051602081019091526000815290565b90506000815111610740576040518060200160405280600081525061076b565b8061074a84610b88565b60405160200161075b9291906111cf565b6040516020818303038152906040525b9392505050565b805161064e906006906020840190610d93565b600081815260046020526040902080546001600160a01b0319166001600160a01b03841690811790915581906107ba82610536565b6001600160a01b03167f8c5be1e5ebec7d5bd14f71427d1e84f3dd0314c0f7b2291e5b200ac8c7c3b92560405160405180910390a45050565b6000818152600260205260408120546001600160a01b031661086c5760405162461bcd60e51b815260206004820152602c60248201527f4552433732313a206f70657261746f7220717565727920666f72206e6f6e657860448201526b34b9ba32b73a103a37b5b2b760a11b60648201526084016103af565b600061087783610536565b9050806001600160a01b0316846001600160a01b031614806108be57506001600160a01b0380821660009081526005602090815260408083209388168352929052205460ff165b806108e25750836001600160a01b03166108d78461033a565b6001600160a01b0316145b949350505050565b826001600160a01b03166108fd82610536565b6001600160a01b0316146109615760405162461bcd60e51b815260206004820152602560248201527f4552433732313a207472616e736665722066726f6d20696e636f72726563742060448201526437bbb732b960d91b60648201526084016103af565b6001600160a01b0382166109c35760405162461bcd60e51b8152602060048201526024808201527f4552433732313a207472616e7366657220746f20746865207a65726f206164646044820152637265737360e01b60648201526084016103af565b6109ce600082610785565b6001600160a01b03831660009081526003602052604081208054600192906109f7908490611214565b90915550506001600160a01b0382166000908152600360205260408120805460019290610a2590849061122b565b909155505060008181526002602052604080822080546001600160a01b0319166001600160a01b0386811691821790925591518493918716917fddf252ad1be2c89b69c2b068fc378daa952ba7f163c4a11628f55a4df523b3ef91a4505050565b816001600160a01b0316836001600160a01b03161415610ae85760405162461bcd60e51b815260206004820152601960248201527f4552433732313a20617070726f766520746f2063616c6c65720000000000000060448201526064016103af565b6001600160a01b03838116600081815260056020908152604080832094871680845294825291829020805460ff191686151590811790915591519182527f17307eab39ab6107e8899845ad3d59bd9653f200f220920489ca2b5937696c31910160405180910390a3505050565b610b608484846108ea565b610b6c84848484610c86565b6106845760405162461bcd60e51b81526004016103af90611243565b606081610bac5750506040805180820190915260018152600360fc1b602082015290565b8160005b8115610bd65780610bc081611295565b9150610bcf9050600a836112c6565b9150610bb0565b60008167ffffffffffffffff811115610bf157610bf1610fbf565b6040519080825280601f01601f191660200182016040528015610c1b576020820181803683370190505b5090505b84156108e257610c30600183611214565b9150610c3d600a866112da565b610c4890603061122b565b60f81b818381518110610c5d57610c5d6112ee565b60200101906001600160f81b031916908160001a905350610c7f600a866112c6565b9450610c1f565b60006001600160a01b0384163b15610d8857604051630a85bd0160e11b81526001600160a01b0385169063150b7a0290610cca903390899088908890600401611304565b602060405180830381600087803b158015610ce457600080fd5b505af1925050508015610d14575060408051601f3d908101601f19168201909252610d1191810190611341565b60015b610d6e573d808015610d42576040519150601f19603f3d011682016040523d82523d6000602084013e610d47565b606091505b508051610d665760405162461bcd60e51b81526004016103af90611243565b805181602001fd5b6001600160e01b031916630a85bd0160e11b1490506108e2565b506001949350505050565b828054610d9f90611143565b90600052602060002090601f016020900481019282610dc15760008555610e07565b82601f10610dda57805160ff1916838001178555610e07565b82800160010185558215610e07579182015b82811115610e07578251825591602001919060010190610dec565b50610e13929150610e17565b5090565b5b80821115610e135760008155600101610e18565b6001600160e01b031981168114610e4257600080fd5b50565b600060208284031215610e5757600080fd5b813561076b81610e2c565b60005b83811015610e7d578181015183820152602001610e65565b838111156106845750506000910152565b60008151808452610ea6816020860160208601610e62565b601f01601f19169290920160200192915050565b60208152600061076b6020830184610e8e565b600060208284031215610edf57600080fd5b5035919050565b80356001600160a01b0381168114610efd57600080fd5b919050565b60008060408385031215610f1557600080fd5b610f1e83610ee6565b946020939093013593505050565b600080600060608486031215610f4157600080fd5b610f4a84610ee6565b9250610f5860208501610ee6565b9150604084013590509250925092565b600060208284031215610f7a57600080fd5b61076b82610ee6565b60008060408385031215610f9657600080fd5b610f9f83610ee6565b915060208301358015158114610fb457600080fd5b809150509250929050565b634e487b7160e01b600052604160045260246000fd5b600067ffffffffffffffff80841115610ff057610ff0610fbf565b604051601f8501601f19908116603f0116810190828211818310171561101857611018610fbf565b8160405280935085815286868601111561103157600080fd5b858560208301376000602087830101525050509392505050565b6000806000806080858703121561106157600080fd5b61106a85610ee6565b935061107860208601610ee6565b925060408501359150606085013567ffffffffffffffff81111561109b57600080fd5b8501601f810187136110ac57600080fd5b6110bb87823560208401610fd5565b91505092959194509250565b6000602082840312156110d957600080fd5b813567ffffffffffffffff8111156110f057600080fd5b8201601f8101841361110157600080fd5b6108e284823560208401610fd5565b6000806040838503121561112357600080fd5b61112c83610ee6565b915061113a60208401610ee6565b90509250929050565b600181811c9082168061115757607f821691505b6020821081141561117857634e487b7160e01b600052602260045260246000fd5b50919050565b60208082526031908201527f4552433732313a207472616e736665722063616c6c6572206973206e6f74206f6040820152701ddb995c881b9bdc88185c1c1c9bdd9959607a1b606082015260800190565b600083516111e1818460208801610e62565b8351908301906111f5818360208801610e62565b01949350505050565b634e487b7160e01b600052601160045260246000fd5b600082821015611226576112266111fe565b500390565b6000821982111561123e5761123e6111fe565b500190565b60208082526032908201527f4552433732313a207472616e7366657220746f206e6f6e20455243373231526560408201527131b2b4bb32b91034b6b83632b6b2b73a32b960711b606082015260800190565b60006000198214156112a9576112a96111fe565b5060010190565b634e487b7160e01b600052601260045260246000fd5b6000826112d5576112d56112b0565b500490565b6000826112e9576112e96112b0565b500690565b634e487b7160e01b600052603260045260246000fd5b6001600160a01b038581168252841660208201526040810183905260806060820181905260009061133790830184610e8e565b9695505050505050565b60006020828403121561135357600080fd5b815161076b81610e2c56fea26469706673582212202fb93b59f14d7a4ac288dd3b62736b35aa181c73a0928dabbd49c25913d9bc5c64736f6c63430008090033",
  "devdoc": {
    "kind": "dev",
    "methods": {
      "approve(address,uint256)": {
        "details": "See {IERC721-approve}."
      },
      "balanceOf(address)": {
        "details": "See {IERC721-balanceOf}."
      },
      "getApproved(uint256)": {
        "details": "See {IERC721-getApproved}."
      },
      "isApprovedForAll(address,address)": {
        "details": "See {IERC721-isApprovedForAll}."
      },
      "name()": {
        "details": "See {IERC721Metadata-name}."
      },
      "ownerOf(uint256)": {
        "details": "See {IERC721-ownerOf}."
      },
      "safeTransferFrom(address,address,uint256)": {
        "details": "See {IERC721-safeTransferFrom}."
      },
      "safeTransferFrom(address,address,uint256,bytes)": {
        "details": "See {IERC721-safeTransferFrom}."
      },
      "setApprovalForAll(address,bool)": {
        "details": "See {IERC721-setApprovalForAll}."
      },
      "supportsInterface(bytes4)": {
        "details": "See {IERC165-supportsInterface}."
      },
      "symbol()": {
        "details": "See {IERC721Metadata-symbol}."
      },
      "tokenURI(uint256)": {
        "details": "See {IERC721Metadata-tokenURI}."
      },
      "transferFrom(address,address,uint256)": {
        "details": "See {IERC721-transferFrom}."
      }
    },
    "version": 1
  },
  "userdoc": {
    "kind": "user",
    "methods": {},
    "version": 1
  },
  "storageLayout": {
    "storage": [
      {
        "astId": 4084,
        "contract": "contracts/new/OpenProof.sol:OpenProof",
        "label": "_name",
        "offset": 0,
        "slot": "0",
        "type": "t_string_storage"
      },
      {
        "astId": 4086,
        "contract": "contracts/new/OpenProof.sol:OpenProof",
        "label": "_symbol",
        "offset": 0,
        "slot": "1",
        "type": "t_string_storage"
      },
      {
        "astId": 4090,
        "contract": "contracts/new/OpenProof.sol:OpenProof",
        "label": "_owners",
        "offset": 0,
        "slot": "2",
        "type": "t_mapping(t_uint256,t_address)"
      },
      {
        "astId": 4094,
        "contract": "contracts/new/OpenProof.sol:OpenProof",
        "label": "_balances",
        "offset": 0,
        "slot": "3",
        "type": "t_mapping(t_address,t_uint256)"
      },
      {
        "astId": 4098,
        "contract": "contracts/new/OpenProof.sol:OpenProof",
        "label": "_tokenApprovals",
        "offset": 0,
        "slot": "4",
        "type": "t_mapping(t_uint256,t_address)"
      },
      {
        "astId": 4104,
        "contract": "contracts/new/OpenProof.sol:OpenProof",
        "label": "_operatorApprovals",
        "offset": 0,
        "slot": "5",
        "type": "t_mapping(t_address,t_mapping(t_address,t_bool))"
      },
      {
        "astId": 9035,
        "contract": "contracts/new/OpenProof.sol:OpenProof",
        "label": "_tokenURI",
        "offset": 0,
        "slot": "6",
        "type": "t_string_storage"
      },
      {
        "astId": 9038,
        "contract": "contracts/new/OpenProof.sol:OpenProof",
        "label": "_tokenIdCounter",
        "offset": 0,
        "slot": "7",
        "type": "t_struct(Counter)5935_storage"
      }
    ],
    "types": {
      "t_address": {
        "encoding": "inplace",
        "label": "address",
        "numberOfBytes": "20"
      },
      "t_bool": {
        "encoding": "inplace",
        "label": "bool",
        "numberOfBytes": "1"
      },
      "t_mapping(t_address,t_bool)": {
        "encoding": "mapping",
        "key": "t_address",
        "label": "mapping(address => bool)",
        "numberOfBytes": "32",
        "value": "t_bool"
      },
      "t_mapping(t_address,t_mapping(t_address,t_bool))": {
        "encoding": "mapping",
        "key": "t_address",
        "label": "mapping(address => mapping(address => bool))",
        "numberOfBytes": "32",
        "value": "t_mapping(t_address,t_bool)"
      },
      "t_mapping(t_address,t_uint256)": {
        "encoding": "mapping",
        "key": "t_address",
        "label": "mapping(address => uint256)",
        "numberOfBytes": "32",
        "value": "t_uint256"
      },
      "t_mapping(t_uint256,t_address)": {
        "encoding": "mapping",
        "key": "t_uint256",
        "label": "mapping(uint256 => address)",
        "numberOfBytes": "32",
        "value": "t_address"
      },
      "t_string_storage": {
        "encoding": "bytes",
        "label": "string",
        "numberOfBytes": "32"
      },
      "t_struct(Counter)5935_storage": {
        "encoding": "inplace",
        "label": "struct Counters.Counter",
        "members": [
          {
            "astId": 5934,
            "contract": "contracts/new/OpenProof.sol:OpenProof",
            "label": "_value",
            "offset": 0,
            "slot": "0",
            "type": "t_uint256"
          }
        ],
        "numberOfBytes": "32"
      },
      "t_uint256": {
        "encoding": "inplace",
        "label": "uint256",
        "numberOfBytes": "32"
      }
    }
  }
}