{
  "address": "0x79F74cB4cE9FA902AC603DfEb7D04b03F3575EBf",
  "abi": [
    {
      "inputs": [],
      "stateMutability": "nonpayable",
      "type": "constructor"
    },
    {
      "anonymous": false,
      "inputs": [
        {
          "indexed": true,
          "internalType": "address",
          "name": "owner",
          "type": "address"
        },
        {
          "indexed": true,
          "internalType": "address",
          "name": "approved",
          "type": "address"
        },
        {
          "indexed": true,
          "internalType": "uint256",
          "name": "tokenId",
          "type": "uint256"
        }
      ],
      "name": "Approval",
      "type": "event"
    },
    {
      "anonymous": false,
      "inputs": [
        {
          "indexed": true,
          "internalType": "address",
          "name": "owner",
          "type": "address"
        },
        {
          "indexed": true,
          "internalType": "address",
          "name": "operator",
          "type": "address"
        },
        {
          "indexed": false,
          "internalType": "bool",
          "name": "approved",
          "type": "bool"
        }
      ],
      "name": "ApprovalForAll",
      "type": "event"
    },
    {
      "anonymous": false,
      "inputs": [
        {
          "indexed": true,
          "internalType": "address",
          "name": "previousOwner",
          "type": "address"
        },
        {
          "indexed": true,
          "internalType": "address",
          "name": "newOwner",
          "type": "address"
        }
      ],
      "name": "OwnershipTransferred",
      "type": "event"
    },
    {
      "anonymous": false,
      "inputs": [
        {
          "indexed": true,
          "internalType": "address",
          "name": "from",
          "type": "address"
        },
        {
          "indexed": true,
          "internalType": "address",
          "name": "to",
          "type": "address"
        },
        {
          "indexed": true,
          "internalType": "uint256",
          "name": "tokenId",
          "type": "uint256"
        }
      ],
      "name": "Transfer",
      "type": "event"
    },
    {
      "inputs": [
        {
          "internalType": "address",
          "name": "to",
          "type": "address"
        },
        {
          "internalType": "uint256",
          "name": "tokenId",
          "type": "uint256"
        }
      ],
      "name": "approve",
      "outputs": [],
      "stateMutability": "nonpayable",
      "type": "function"
    },
    {
      "inputs": [
        {
          "internalType": "address",
          "name": "owner",
          "type": "address"
        }
      ],
      "name": "balanceOf",
      "outputs": [
        {
          "internalType": "uint256",
          "name": "",
          "type": "uint256"
        }
      ],
      "stateMutability": "view",
      "type": "function"
    },
    {
      "inputs": [
        {
          "internalType": "address",
          "name": "minter",
          "type": "address"
        },
        {
          "internalType": "uint256",
          "name": "tokenId",
          "type": "uint256"
        }
      ],
      "name": "claim",
      "outputs": [],
      "stateMutability": "nonpayable",
      "type": "function"
    },
    {
      "inputs": [
        {
          "internalType": "uint256",
          "name": "tokenId",
          "type": "uint256"
        }
      ],
      "name": "exists",
      "outputs": [
        {
          "internalType": "bool",
          "name": "",
          "type": "bool"
        }
      ],
      "stateMutability": "view",
      "type": "function"
    },
    {
      "inputs": [
        {
          "internalType": "uint256",
          "name": "tokenId",
          "type": "uint256"
        }
      ],
      "name": "getApproved",
      "outputs": [
        {
          "internalType": "address",
          "name": "",
          "type": "address"
        }
      ],
      "stateMutability": "view",
      "type": "function"
    },
    {
      "inputs": [
        {
          "internalType": "address",
          "name": "owner",
          "type": "address"
        },
        {
          "internalType": "address",
          "name": "operator",
          "type": "address"
        }
      ],
      "name": "isApprovedForAll",
      "outputs": [
        {
          "internalType": "bool",
          "name": "",
          "type": "bool"
        }
      ],
      "stateMutability": "view",
      "type": "function"
    },
    {
      "inputs": [],
      "name": "name",
      "outputs": [
        {
          "internalType": "string",
          "name": "",
          "type": "string"
        }
      ],
      "stateMutability": "view",
      "type": "function"
    },
    {
      "inputs": [],
      "name": "owner",
      "outputs": [
        {
          "internalType": "address",
          "name": "",
          "type": "address"
        }
      ],
      "stateMutability": "view",
      "type": "function"
    },
    {
      "inputs": [
        {
          "internalType": "uint256",
          "name": "tokenId",
          "type": "uint256"
        }
      ],
      "name": "ownerOf",
      "outputs": [
        {
          "internalType": "address",
          "name": "",
          "type": "address"
        }
      ],
      "stateMutability": "view",
      "type": "function"
    },
    {
      "inputs": [],
      "name": "renounceOwnership",
      "outputs": [],
      "stateMutability": "nonpayable",
      "type": "function"
    },
    {
      "inputs": [
        {
          "internalType": "address",
          "name": "from",
          "type": "address"
        },
        {
          "internalType": "address",
          "name": "to",
          "type": "address"
        },
        {
          "internalType": "uint256",
          "name": "tokenId",
          "type": "uint256"
        }
      ],
      "name": "safeTransferFrom",
      "outputs": [],
      "stateMutability": "nonpayable",
      "type": "function"
    },
    {
      "inputs": [
        {
          "internalType": "address",
          "name": "from",
          "type": "address"
        },
        {
          "internalType": "address",
          "name": "to",
          "type": "address"
        },
        {
          "internalType": "uint256",
          "name": "tokenId",
          "type": "uint256"
        },
        {
          "internalType": "bytes",
          "name": "_data",
          "type": "bytes"
        }
      ],
      "name": "safeTransferFrom",
      "outputs": [],
      "stateMutability": "nonpayable",
      "type": "function"
    },
    {
      "inputs": [
        {
          "internalType": "address",
          "name": "operator",
          "type": "address"
        },
        {
          "internalType": "bool",
          "name": "approved",
          "type": "bool"
        }
      ],
      "name": "setApprovalForAll",
      "outputs": [],
      "stateMutability": "nonpayable",
      "type": "function"
    },
    {
      "inputs": [
        {
          "internalType": "bytes4",
          "name": "interfaceId",
          "type": "bytes4"
        }
      ],
      "name": "supportsInterface",
      "outputs": [
        {
          "internalType": "bool",
          "name": "",
          "type": "bool"
        }
      ],
      "stateMutability": "view",
      "type": "function"
    },
    {
      "inputs": [],
      "name": "symbol",
      "outputs": [
        {
          "internalType": "string",
          "name": "",
          "type": "string"
        }
      ],
      "stateMutability": "view",
      "type": "function"
    },
    {
      "inputs": [
        {
          "internalType": "uint256",
          "name": "index",
          "type": "uint256"
        }
      ],
      "name": "tokenByIndex",
      "outputs": [
        {
          "internalType": "uint256",
          "name": "",
          "type": "uint256"
        }
      ],
      "stateMutability": "view",
      "type": "function"
    },
    {
      "inputs": [
        {
          "internalType": "address",
          "name": "owner",
          "type": "address"
        },
        {
          "internalType": "uint256",
          "name": "index",
          "type": "uint256"
        }
      ],
      "name": "tokenOfOwnerByIndex",
      "outputs": [
        {
          "internalType": "uint256",
          "name": "",
          "type": "uint256"
        }
      ],
      "stateMutability": "view",
      "type": "function"
    },
    {
      "inputs": [
        {
          "internalType": "uint256",
          "name": "tokenId",
          "type": "uint256"
        }
      ],
      "name": "tokenURI",
      "outputs": [
        {
          "internalType": "string",
          "name": "",
          "type": "string"
        }
      ],
      "stateMutability": "view",
      "type": "function"
    },
    {
      "inputs": [],
      "name": "totalSupply",
      "outputs": [
        {
          "internalType": "uint256",
          "name": "",
          "type": "uint256"
        }
      ],
      "stateMutability": "view",
      "type": "function"
    },
    {
      "inputs": [
        {
          "internalType": "address",
          "name": "from",
          "type": "address"
        },
        {
          "internalType": "address",
          "name": "to",
          "type": "address"
        },
        {
          "internalType": "uint256",
          "name": "tokenId",
          "type": "uint256"
        }
      ],
      "name": "transferFrom",
      "outputs": [],
      "stateMutability": "nonpayable",
      "type": "function"
    },
    {
      "inputs": [
        {
          "internalType": "address",
          "name": "newOwner",
          "type": "address"
        }
      ],
      "name": "transferOwnership",
      "outputs": [],
      "stateMutability": "nonpayable",
      "type": "function"
    }
  ],
  "transactionHash": "0x84bc996ebce2d190a614aa46b285868b5886d51b909ec30f49b9b9ad5e2c8a32",
  "args": [],
  "numDeployments": 1,
  "solcInputHash": "2ad0b3cd7295fcd322595f5758323323",
  "bytecode": "0x60806040523480156200001157600080fd5b5060408051808201825260098152684f70656e4d756c746960b81b6020808301918252835180850190945260058452644d554c544960d81b9084015281519192916200006091600091620000ef565b50805162000076906001906020840190620000ef565b505050620000936200008d6200009960201b60201c565b6200009d565b620001d2565b3390565b600a80546001600160a01b038381166001600160a01b0319831681179093556040519116919082907f8be0079c531659141344cd1fd0a4f28419497f9722a3daafe3b4186f6b6457e090600090a35050565b828054620000fd9062000195565b90600052602060002090601f0160209004810192826200012157600085556200016c565b82601f106200013c57805160ff19168380011785556200016c565b828001600101855582156200016c579182015b828111156200016c5782518255916020019190600101906200014f565b506200017a9291506200017e565b5090565b5b808211156200017a57600081556001016200017f565b600181811c90821680620001aa57607f821691505b60208210811415620001cc57634e487b7160e01b600052602260045260246000fd5b50919050565b611a4d80620001e26000396000f3fe608060405234801561001057600080fd5b50600436106101375760003560e01c80636352211e116100b8578063a22cb4651161007c578063a22cb46514610271578063aad3ec9614610284578063b88d4fde14610297578063c87b56dd146102aa578063e985e9c5146102bd578063f2fde38b146102f957600080fd5b80636352211e1461022a57806370a082311461023d578063715018a6146102505780638da5cb5b1461025857806395d89b411461026957600080fd5b806323b872dd116100ff57806323b872dd146101cb5780632f745c59146101de57806342842e0e146101f15780634f558e79146102045780634f6ccce71461021757600080fd5b806301ffc9a71461013c57806306fdde0314610164578063081812fc14610179578063095ea7b3146101a457806318160ddd146101b9575b600080fd5b61014f61014a36600461156f565b61030c565b60405190151581526020015b60405180910390f35b61016c610352565b60405161015b91906115eb565b61018c6101873660046115fe565b6103e4565b6040516001600160a01b03909116815260200161015b565b6101b76101b2366004611633565b61047e565b005b6008545b60405190815260200161015b565b6101b76101d936600461165d565b610594565b6101bd6101ec366004611633565b6105c5565b6101b76101ff36600461165d565b61065b565b61014f6102123660046115fe565b610676565b6101bd6102253660046115fe565b610695565b61018c6102383660046115fe565b610728565b6101bd61024b366004611699565b61079f565b6101b7610826565b600a546001600160a01b031661018c565b61016c61088c565b6101b761027f3660046116b4565b61089b565b6101b7610292366004611633565b6108aa565b6101b76102a5366004611706565b6108b4565b61016c6102b83660046115fe565b6108ec565b61014f6102cb3660046117e2565b6001600160a01b03918216600090815260056020908152604080832093909416825291909152205460ff1690565b6101b7610307366004611699565b610abe565b60006001600160e01b0319821663e58662ef60e01b148061033d57506001600160e01b031982166307f5828d60e41b145b8061034c575061034c82610b89565b92915050565b60606000805461036190611815565b80601f016020809104026020016040519081016040528092919081815260200182805461038d90611815565b80156103da5780601f106103af576101008083540402835291602001916103da565b820191906000526020600020905b8154815290600101906020018083116103bd57829003601f168201915b5050505050905090565b6000818152600260205260408120546001600160a01b03166104625760405162461bcd60e51b815260206004820152602c60248201527f4552433732313a20617070726f76656420717565727920666f72206e6f6e657860448201526b34b9ba32b73a103a37b5b2b760a11b60648201526084015b60405180910390fd5b506000908152600460205260409020546001600160a01b031690565b600061048982610728565b9050806001600160a01b0316836001600160a01b031614156104f75760405162461bcd60e51b815260206004820152602160248201527f4552433732313a20617070726f76616c20746f2063757272656e74206f776e656044820152603960f91b6064820152608401610459565b336001600160a01b0382161480610513575061051381336102cb565b6105855760405162461bcd60e51b815260206004820152603860248201527f4552433732313a20617070726f76652063616c6c6572206973206e6f74206f7760448201527f6e6572206e6f7220617070726f76656420666f7220616c6c00000000000000006064820152608401610459565b61058f8383610bae565b505050565b61059e3382610c1c565b6105ba5760405162461bcd60e51b815260040161045990611850565b61058f838383610d13565b60006105d08361079f565b82106106325760405162461bcd60e51b815260206004820152602b60248201527f455243373231456e756d657261626c653a206f776e657220696e646578206f7560448201526a74206f6620626f756e647360a81b6064820152608401610459565b506001600160a01b03919091166000908152600660209081526040808320938352929052205490565b61058f838383604051806020016040528060008152506108b4565b6000818152600260205260408120546001600160a01b0316151561034c565b60006106a060085490565b82106107035760405162461bcd60e51b815260206004820152602c60248201527f455243373231456e756d657261626c653a20676c6f62616c20696e646578206f60448201526b7574206f6620626f756e647360a01b6064820152608401610459565b60088281548110610716576107166118a1565b90600052602060002001549050919050565b6000818152600260205260408120546001600160a01b03168061034c5760405162461bcd60e51b815260206004820152602960248201527f4552433732313a206f776e657220717565727920666f72206e6f6e657869737460448201526832b73a103a37b5b2b760b91b6064820152608401610459565b60006001600160a01b03821661080a5760405162461bcd60e51b815260206004820152602a60248201527f4552433732313a2062616c616e636520717565727920666f7220746865207a65604482015269726f206164647265737360b01b6064820152608401610459565b506001600160a01b031660009081526003602052604090205490565b600a546001600160a01b031633146108805760405162461bcd60e51b815260206004820181905260248201527f4f776e61626c653a2063616c6c6572206973206e6f7420746865206f776e65726044820152606401610459565b61088a6000610eba565b565b60606001805461036190611815565b6108a6338383610f0c565b5050565b6108a68282610fdb565b6108be3383610c1c565b6108da5760405162461bcd60e51b815260040161045990611850565b6108e684848484610ff5565b50505050565b6000818152600260205260409020546060906001600160a01b03166109535760405162461bcd60e51b815260206004820152601c60248201527f4552433732313a20746f6b656e20646f65736e277420657869737473000000006044820152606401610459565b6040805160348082526060820190925260009160208201818036833701905050905060fd83901c7f6162636465666768696a6b6c6d6e6f707172737475767778797a32333435363781602081106109ac576109ac6118a1565b1a60f81b826000815181106109c3576109c36118a1565b60200101906001600160f81b031916908160001a90535060029390931b9260335b8015610a65577f6162636465666768696a6b6c6d6e6f707172737475767778797a32333435363785601f1660208110610a1f57610a1f6118a1565b1a60f81b838281518110610a3557610a356118a1565b60200101906001600160f81b031916908160001a90535060059490941c9380610a5d816118cd565b9150506109e4565b506040518060400160405280601581526020017468747470733a2f2f697066732e696f2f697066732f60581b81525082604051602001610aa69291906118e4565b60405160208183030381529060405292505050919050565b600a546001600160a01b03163314610b185760405162461bcd60e51b815260206004820181905260248201527f4f776e61626c653a2063616c6c6572206973206e6f7420746865206f776e65726044820152606401610459565b6001600160a01b038116610b7d5760405162461bcd60e51b815260206004820152602660248201527f4f776e61626c653a206e6577206f776e657220697320746865207a65726f206160448201526564647265737360d01b6064820152608401610459565b610b8681610eba565b50565b60006001600160e01b0319821663780e9d6360e01b148061034c575061034c82611028565b600081815260046020526040902080546001600160a01b0319166001600160a01b0384169081179091558190610be382610728565b6001600160a01b03167f8c5be1e5ebec7d5bd14f71427d1e84f3dd0314c0f7b2291e5b200ac8c7c3b92560405160405180910390a45050565b6000818152600260205260408120546001600160a01b0316610c955760405162461bcd60e51b815260206004820152602c60248201527f4552433732313a206f70657261746f7220717565727920666f72206e6f6e657860448201526b34b9ba32b73a103a37b5b2b760a11b6064820152608401610459565b6000610ca083610728565b9050806001600160a01b0316846001600160a01b03161480610ce757506001600160a01b0380821660009081526005602090815260408083209388168352929052205460ff165b80610d0b5750836001600160a01b0316610d00846103e4565b6001600160a01b0316145b949350505050565b826001600160a01b0316610d2682610728565b6001600160a01b031614610d8a5760405162461bcd60e51b815260206004820152602560248201527f4552433732313a207472616e736665722066726f6d20696e636f72726563742060448201526437bbb732b960d91b6064820152608401610459565b6001600160a01b038216610dec5760405162461bcd60e51b8152602060048201526024808201527f4552433732313a207472616e7366657220746f20746865207a65726f206164646044820152637265737360e01b6064820152608401610459565b610df7838383611078565b610e02600082610bae565b6001600160a01b0383166000908152600360205260408120805460019290610e2b908490611926565b90915550506001600160a01b0382166000908152600360205260408120805460019290610e5990849061193d565b909155505060008181526002602052604080822080546001600160a01b0319166001600160a01b0386811691821790925591518493918716917fddf252ad1be2c89b69c2b068fc378daa952ba7f163c4a11628f55a4df523b3ef91a4505050565b600a80546001600160a01b038381166001600160a01b0319831681179093556040519116919082907f8be0079c531659141344cd1fd0a4f28419497f9722a3daafe3b4186f6b6457e090600090a35050565b816001600160a01b0316836001600160a01b03161415610f6e5760405162461bcd60e51b815260206004820152601960248201527f4552433732313a20617070726f766520746f2063616c6c6572000000000000006044820152606401610459565b6001600160a01b03838116600081815260056020908152604080832094871680845294825291829020805460ff191686151590811790915591519182527f17307eab39ab6107e8899845ad3d59bd9653f200f220920489ca2b5937696c31910160405180910390a3505050565b6108a6828260405180602001604052806000815250611083565b611000848484610d13565b61100c848484846110b6565b6108e65760405162461bcd60e51b815260040161045990611955565b60006001600160e01b031982166380ac58cd60e01b148061105957506001600160e01b03198216635b5e139f60e01b145b8061034c57506301ffc9a760e01b6001600160e01b031983161461034c565b61058f8383836111c3565b61108d838361127b565b61109a60008484846110b6565b61058f5760405162461bcd60e51b815260040161045990611955565b60006001600160a01b0384163b156111b857604051630a85bd0160e11b81526001600160a01b0385169063150b7a02906110fa9033908990889088906004016119a7565b602060405180830381600087803b15801561111457600080fd5b505af1925050508015611144575060408051601f3d908101601f19168201909252611141918101906119e4565b60015b61119e573d808015611172576040519150601f19603f3d011682016040523d82523d6000602084013e611177565b606091505b5080516111965760405162461bcd60e51b815260040161045990611955565b805181602001fd5b6001600160e01b031916630a85bd0160e11b149050610d0b565b506001949350505050565b6001600160a01b03831661121e5761121981600880546000838152600960205260408120829055600182018355919091527ff3f7a9fe364faab93b216da50a3214154f22a0a2b415b23a84c8169e8b636ee30155565b611241565b816001600160a01b0316836001600160a01b0316146112415761124183826113c9565b6001600160a01b0382166112585761058f81611466565b826001600160a01b0316826001600160a01b03161461058f5761058f8282611515565b6001600160a01b0382166112d15760405162461bcd60e51b815260206004820181905260248201527f4552433732313a206d696e7420746f20746865207a65726f20616464726573736044820152606401610459565b6000818152600260205260409020546001600160a01b0316156113365760405162461bcd60e51b815260206004820152601c60248201527f4552433732313a20746f6b656e20616c7265616479206d696e746564000000006044820152606401610459565b61134260008383611078565b6001600160a01b038216600090815260036020526040812080546001929061136b90849061193d565b909155505060008181526002602052604080822080546001600160a01b0319166001600160a01b03861690811790915590518392907fddf252ad1be2c89b69c2b068fc378daa952ba7f163c4a11628f55a4df523b3ef908290a45050565b600060016113d68461079f565b6113e09190611926565b600083815260076020526040902054909150808214611433576001600160a01b03841660009081526006602090815260408083208584528252808320548484528184208190558352600790915290208190555b5060009182526007602090815260408084208490556001600160a01b039094168352600681528383209183525290812055565b60085460009061147890600190611926565b600083815260096020526040812054600880549394509092849081106114a0576114a06118a1565b9060005260206000200154905080600883815481106114c1576114c16118a1565b60009182526020808320909101929092558281526009909152604080822084905585825281205560088054806114f9576114f9611a01565b6001900381819060005260206000200160009055905550505050565b60006115208361079f565b6001600160a01b039093166000908152600660209081526040808320868452825280832085905593825260079052919091209190915550565b6001600160e01b031981168114610b8657600080fd5b60006020828403121561158157600080fd5b813561158c81611559565b9392505050565b60005b838110156115ae578181015183820152602001611596565b838111156108e65750506000910152565b600081518084526115d7816020860160208601611593565b601f01601f19169290920160200192915050565b60208152600061158c60208301846115bf565b60006020828403121561161057600080fd5b5035919050565b80356001600160a01b038116811461162e57600080fd5b919050565b6000806040838503121561164657600080fd5b61164f83611617565b946020939093013593505050565b60008060006060848603121561167257600080fd5b61167b84611617565b925061168960208501611617565b9150604084013590509250925092565b6000602082840312156116ab57600080fd5b61158c82611617565b600080604083850312156116c757600080fd5b6116d083611617565b9150602083013580151581146116e557600080fd5b809150509250929050565b634e487b7160e01b600052604160045260246000fd5b6000806000806080858703121561171c57600080fd5b61172585611617565b935061173360208601611617565b925060408501359150606085013567ffffffffffffffff8082111561175757600080fd5b818701915087601f83011261176b57600080fd5b81358181111561177d5761177d6116f0565b604051601f8201601f19908116603f011681019083821181831017156117a5576117a56116f0565b816040528281528a60208487010111156117be57600080fd5b82602086016020830137600060208483010152809550505050505092959194509250565b600080604083850312156117f557600080fd5b6117fe83611617565b915061180c60208401611617565b90509250929050565b600181811c9082168061182957607f821691505b6020821081141561184a57634e487b7160e01b600052602260045260246000fd5b50919050565b60208082526031908201527f4552433732313a207472616e736665722063616c6c6572206973206e6f74206f6040820152701ddb995c881b9bdc88185c1c1c9bdd9959607a1b606082015260800190565b634e487b7160e01b600052603260045260246000fd5b634e487b7160e01b600052601160045260246000fd5b6000816118dc576118dc6118b7565b506000190190565b600083516118f6818460208801611593565b666261666b72656960c81b908301908152835161191a816007840160208801611593565b01600701949350505050565b600082821015611938576119386118b7565b500390565b60008219821115611950576119506118b7565b500190565b60208082526032908201527f4552433732313a207472616e7366657220746f206e6f6e20455243373231526560408201527131b2b4bb32b91034b6b83632b6b2b73a32b960711b606082015260800190565b6001600160a01b03858116825284166020820152604081018390526080606082018190526000906119da908301846115bf565b9695505050505050565b6000602082840312156119f657600080fd5b815161158c81611559565b634e487b7160e01b600052603160045260246000fdfea26469706673582212203204134f70e399c085fba20ef1e006b641096297539ee5d584621b616ac4cdaf64736f6c63430008090033",
  "devdoc": {
    "kind": "dev",
    "methods": {
      "approve(address,uint256)": {
        "details": "See {IERC721-approve}."
      },
      "balanceOf(address)": {
        "details": "See {IERC721-balanceOf}."
      },
      "getApproved(uint256)": {
        "details": "See {IERC721-getApproved}."
      },
      "isApprovedForAll(address,address)": {
        "details": "See {IERC721-isApprovedForAll}."
      },
      "name()": {
        "details": "See {IERC721Metadata-name}."
      },
      "owner()": {
        "details": "Returns the address of the current owner."
      },
      "ownerOf(uint256)": {
        "details": "See {IERC721-ownerOf}."
      },
      "renounceOwnership()": {
        "details": "Leaves the contract without owner. It will not be possible to call `onlyOwner` functions anymore. Can only be called by the current owner. NOTE: Renouncing ownership will leave the contract without an owner, thereby removing any functionality that is only available to the owner."
      },
      "safeTransferFrom(address,address,uint256)": {
        "details": "See {IERC721-safeTransferFrom}."
      },
      "safeTransferFrom(address,address,uint256,bytes)": {
        "details": "See {IERC721-safeTransferFrom}."
      },
      "setApprovalForAll(address,bool)": {
        "details": "See {IERC721-setApprovalForAll}."
      },
      "symbol()": {
        "details": "See {IERC721Metadata-symbol}."
      },
      "tokenByIndex(uint256)": {
        "details": "See {IERC721Enumerable-tokenByIndex}."
      },
      "tokenOfOwnerByIndex(address,uint256)": {
        "details": "See {IERC721Enumerable-tokenOfOwnerByIndex}."
      },
      "tokenURI(uint256)": {
        "details": "See {IERC721Metadata-tokenURI}."
      },
      "totalSupply()": {
        "details": "See {IERC721Enumerable-totalSupply}."
      },
      "transferFrom(address,address,uint256)": {
        "details": "See {IERC721-transferFrom}."
      },
      "transferOwnership(address)": {
        "details": "Transfers ownership of the contract to a new account (`newOwner`). Can only be called by the current owner."
      }
    },
    "version": 1
  },
  "userdoc": {
    "kind": "user",
    "methods": {},
    "version": 1
  },
  "storageLayout": {
    "storage": [
      {
        "astId": 4084,
        "contract": "contracts/new/OpenMulti.sol:OpenMulti",
        "label": "_name",
        "offset": 0,
        "slot": "0",
        "type": "t_string_storage"
      },
      {
        "astId": 4086,
        "contract": "contracts/new/OpenMulti.sol:OpenMulti",
        "label": "_symbol",
        "offset": 0,
        "slot": "1",
        "type": "t_string_storage"
      },
      {
        "astId": 4090,
        "contract": "contracts/new/OpenMulti.sol:OpenMulti",
        "label": "_owners",
        "offset": 0,
        "slot": "2",
        "type": "t_mapping(t_uint256,t_address)"
      },
      {
        "astId": 4094,
        "contract": "contracts/new/OpenMulti.sol:OpenMulti",
        "label": "_balances",
        "offset": 0,
        "slot": "3",
        "type": "t_mapping(t_address,t_uint256)"
      },
      {
        "astId": 4098,
        "contract": "contracts/new/OpenMulti.sol:OpenMulti",
        "label": "_tokenApprovals",
        "offset": 0,
        "slot": "4",
        "type": "t_mapping(t_uint256,t_address)"
      },
      {
        "astId": 4104,
        "contract": "contracts/new/OpenMulti.sol:OpenMulti",
        "label": "_operatorApprovals",
        "offset": 0,
        "slot": "5",
        "type": "t_mapping(t_address,t_mapping(t_address,t_bool))"
      },
      {
        "astId": 5103,
        "contract": "contracts/new/OpenMulti.sol:OpenMulti",
        "label": "_ownedTokens",
        "offset": 0,
        "slot": "6",
        "type": "t_mapping(t_address,t_mapping(t_uint256,t_uint256))"
      },
      {
        "astId": 5107,
        "contract": "contracts/new/OpenMulti.sol:OpenMulti",
        "label": "_ownedTokensIndex",
        "offset": 0,
        "slot": "7",
        "type": "t_mapping(t_uint256,t_uint256)"
      },
      {
        "astId": 5110,
        "contract": "contracts/new/OpenMulti.sol:OpenMulti",
        "label": "_allTokens",
        "offset": 0,
        "slot": "8",
        "type": "t_array(t_uint256)dyn_storage"
      },
      {
        "astId": 5114,
        "contract": "contracts/new/OpenMulti.sol:OpenMulti",
        "label": "_allTokensIndex",
        "offset": 0,
        "slot": "9",
        "type": "t_mapping(t_uint256,t_uint256)"
      },
      {
        "astId": 2480,
        "contract": "contracts/new/OpenMulti.sol:OpenMulti",
        "label": "_owner",
        "offset": 0,
        "slot": "10",
        "type": "t_address"
      }
    ],
    "types": {
      "t_address": {
        "encoding": "inplace",
        "label": "address",
        "numberOfBytes": "20"
      },
      "t_array(t_uint256)dyn_storage": {
        "base": "t_uint256",
        "encoding": "dynamic_array",
        "label": "uint256[]",
        "numberOfBytes": "32"
      },
      "t_bool": {
        "encoding": "inplace",
        "label": "bool",
        "numberOfBytes": "1"
      },
      "t_mapping(t_address,t_bool)": {
        "encoding": "mapping",
        "key": "t_address",
        "label": "mapping(address => bool)",
        "numberOfBytes": "32",
        "value": "t_bool"
      },
      "t_mapping(t_address,t_mapping(t_address,t_bool))": {
        "encoding": "mapping",
        "key": "t_address",
        "label": "mapping(address => mapping(address => bool))",
        "numberOfBytes": "32",
        "value": "t_mapping(t_address,t_bool)"
      },
      "t_mapping(t_address,t_mapping(t_uint256,t_uint256))": {
        "encoding": "mapping",
        "key": "t_address",
        "label": "mapping(address => mapping(uint256 => uint256))",
        "numberOfBytes": "32",
        "value": "t_mapping(t_uint256,t_uint256)"
      },
      "t_mapping(t_address,t_uint256)": {
        "encoding": "mapping",
        "key": "t_address",
        "label": "mapping(address => uint256)",
        "numberOfBytes": "32",
        "value": "t_uint256"
      },
      "t_mapping(t_uint256,t_address)": {
        "encoding": "mapping",
        "key": "t_uint256",
        "label": "mapping(uint256 => address)",
        "numberOfBytes": "32",
        "value": "t_address"
      },
      "t_mapping(t_uint256,t_uint256)": {
        "encoding": "mapping",
        "key": "t_uint256",
        "label": "mapping(uint256 => uint256)",
        "numberOfBytes": "32",
        "value": "t_uint256"
      },
      "t_string_storage": {
        "encoding": "bytes",
        "label": "string",
        "numberOfBytes": "32"
      },
      "t_uint256": {
        "encoding": "inplace",
        "label": "uint256",
        "numberOfBytes": "32"
      }
    }
  }
}