{
  "address": "0x8a324A30C8ca1E9CFcea267C2116968cAacEd1D6",
  "abi": [
    {
      "inputs": [
        {
          "internalType": "string",
          "name": "name",
          "type": "string"
        },
        {
          "internalType": "string",
          "name": "symbol",
          "type": "string"
        },
        {
          "internalType": "uint256",
          "name": "block_",
          "type": "uint256"
        }
      ],
      "stateMutability": "nonpayable",
      "type": "constructor"
    },
    {
      "anonymous": false,
      "inputs": [
        {
          "indexed": true,
          "internalType": "address",
          "name": "owner",
          "type": "address"
        },
        {
          "indexed": true,
          "internalType": "address",
          "name": "approved",
          "type": "address"
        },
        {
          "indexed": true,
          "internalType": "uint256",
          "name": "tokenId",
          "type": "uint256"
        }
      ],
      "name": "Approval",
      "type": "event"
    },
    {
      "anonymous": false,
      "inputs": [
        {
          "indexed": true,
          "internalType": "address",
          "name": "owner",
          "type": "address"
        },
        {
          "indexed": true,
          "internalType": "address",
          "name": "operator",
          "type": "address"
        },
        {
          "indexed": false,
          "internalType": "bool",
          "name": "approved",
          "type": "bool"
        }
      ],
      "name": "ApprovalForAll",
      "type": "event"
    },
    {
      "anonymous": false,
      "inputs": [
        {
          "indexed": true,
          "internalType": "address",
          "name": "from",
          "type": "address"
        },
        {
          "indexed": true,
          "internalType": "address",
          "name": "to",
          "type": "address"
        },
        {
          "indexed": true,
          "internalType": "uint256",
          "name": "tokenId",
          "type": "uint256"
        }
      ],
      "name": "Transfer",
      "type": "event"
    },
    {
      "inputs": [
        {
          "internalType": "address",
          "name": "to",
          "type": "address"
        },
        {
          "internalType": "uint256",
          "name": "tokenId",
          "type": "uint256"
        }
      ],
      "name": "approve",
      "outputs": [],
      "stateMutability": "nonpayable",
      "type": "function"
    },
    {
      "inputs": [
        {
          "internalType": "address",
          "name": "owner",
          "type": "address"
        }
      ],
      "name": "balanceOf",
      "outputs": [
        {
          "internalType": "uint256",
          "name": "",
          "type": "uint256"
        }
      ],
      "stateMutability": "view",
      "type": "function"
    },
    {
      "inputs": [
        {
          "internalType": "uint256",
          "name": "tokenId",
          "type": "uint256"
        }
      ],
      "name": "getApproved",
      "outputs": [
        {
          "internalType": "address",
          "name": "",
          "type": "address"
        }
      ],
      "stateMutability": "view",
      "type": "function"
    },
    {
      "inputs": [
        {
          "internalType": "address",
          "name": "owner",
          "type": "address"
        },
        {
          "internalType": "address",
          "name": "operator",
          "type": "address"
        }
      ],
      "name": "isApprovedForAll",
      "outputs": [
        {
          "internalType": "bool",
          "name": "",
          "type": "bool"
        }
      ],
      "stateMutability": "view",
      "type": "function"
    },
    {
      "inputs": [],
      "name": "maxSupply",
      "outputs": [
        {
          "internalType": "uint256",
          "name": "",
          "type": "uint256"
        }
      ],
      "stateMutability": "view",
      "type": "function"
    },
    {
      "inputs": [
        {
          "internalType": "uint256",
          "name": "tokenID",
          "type": "uint256"
        }
      ],
      "name": "mint",
      "outputs": [],
      "stateMutability": "nonpayable",
      "type": "function"
    },
    {
      "inputs": [],
      "name": "name",
      "outputs": [
        {
          "internalType": "string",
          "name": "",
          "type": "string"
        }
      ],
      "stateMutability": "view",
      "type": "function"
    },
    {
      "inputs": [
        {
          "internalType": "uint256",
          "name": "tokenId",
          "type": "uint256"
        }
      ],
      "name": "ownerOf",
      "outputs": [
        {
          "internalType": "address",
          "name": "",
          "type": "address"
        }
      ],
      "stateMutability": "view",
      "type": "function"
    },
    {
      "inputs": [
        {
          "internalType": "address",
          "name": "from",
          "type": "address"
        },
        {
          "internalType": "address",
          "name": "to",
          "type": "address"
        },
        {
          "internalType": "uint256",
          "name": "tokenId",
          "type": "uint256"
        }
      ],
      "name": "safeTransferFrom",
      "outputs": [],
      "stateMutability": "nonpayable",
      "type": "function"
    },
    {
      "inputs": [
        {
          "internalType": "address",
          "name": "from",
          "type": "address"
        },
        {
          "internalType": "address",
          "name": "to",
          "type": "address"
        },
        {
          "internalType": "uint256",
          "name": "tokenId",
          "type": "uint256"
        },
        {
          "internalType": "bytes",
          "name": "_data",
          "type": "bytes"
        }
      ],
      "name": "safeTransferFrom",
      "outputs": [],
      "stateMutability": "nonpayable",
      "type": "function"
    },
    {
      "inputs": [
        {
          "internalType": "address",
          "name": "operator",
          "type": "address"
        },
        {
          "internalType": "bool",
          "name": "approved",
          "type": "bool"
        }
      ],
      "name": "setApprovalForAll",
      "outputs": [],
      "stateMutability": "nonpayable",
      "type": "function"
    },
    {
      "inputs": [
        {
          "internalType": "bytes4",
          "name": "interfaceId",
          "type": "bytes4"
        }
      ],
      "name": "supportsInterface",
      "outputs": [
        {
          "internalType": "bool",
          "name": "",
          "type": "bool"
        }
      ],
      "stateMutability": "view",
      "type": "function"
    },
    {
      "inputs": [],
      "name": "symbol",
      "outputs": [
        {
          "internalType": "string",
          "name": "",
          "type": "string"
        }
      ],
      "stateMutability": "view",
      "type": "function"
    },
    {
      "inputs": [
        {
          "internalType": "uint256",
          "name": "index",
          "type": "uint256"
        }
      ],
      "name": "tokenByIndex",
      "outputs": [
        {
          "internalType": "uint256",
          "name": "tokenID",
          "type": "uint256"
        }
      ],
      "stateMutability": "view",
      "type": "function"
    },
    {
      "inputs": [
        {
          "internalType": "address",
          "name": "owner",
          "type": "address"
        },
        {
          "internalType": "uint256",
          "name": "index",
          "type": "uint256"
        }
      ],
      "name": "tokenOfOwnerByIndex",
      "outputs": [
        {
          "internalType": "uint256",
          "name": "",
          "type": "uint256"
        }
      ],
      "stateMutability": "view",
      "type": "function"
    },
    {
      "inputs": [
        {
          "internalType": "uint256",
          "name": "tokenID",
          "type": "uint256"
        }
      ],
      "name": "tokenURI",
      "outputs": [
        {
          "internalType": "string",
          "name": "",
          "type": "string"
        }
      ],
      "stateMutability": "view",
      "type": "function"
    },
    {
      "inputs": [],
      "name": "totalSupply",
      "outputs": [
        {
          "internalType": "uint256",
          "name": "",
          "type": "uint256"
        }
      ],
      "stateMutability": "view",
      "type": "function"
    },
    {
      "inputs": [
        {
          "internalType": "address",
          "name": "from",
          "type": "address"
        },
        {
          "internalType": "address",
          "name": "to",
          "type": "address"
        },
        {
          "internalType": "uint256",
          "name": "tokenId",
          "type": "uint256"
        }
      ],
      "name": "transferFrom",
      "outputs": [],
      "stateMutability": "nonpayable",
      "type": "function"
    }
  ],
  "transactionHash": "0x264a7b568da767d9ebdaddb655b7eb9abb944d431a57bffce4e2c6896ec4bbb3",
  "args": [
    "OpenBound",
    "BOUND",
    13
  ],
  "numDeployments": 1,
  "solcInputHash": "ce6e9f75e1d417c33685d5e5497d1467",
  "bytecode": "0x60806040523480156200001157600080fd5b50604051620019c5380380620019c58339810160408190526200003491620001e5565b8251839083906200004d90600090602085019062000072565b5080516200006390600190602084019062000072565b50505060075550620002959050565b828054620000809062000258565b90600052602060002090601f016020900481019282620000a45760008555620000ef565b82601f10620000bf57805160ff1916838001178555620000ef565b82800160010185558215620000ef579182015b82811115620000ef578251825591602001919060010190620000d2565b50620000fd92915062000101565b5090565b5b80821115620000fd576000815560010162000102565b634e487b7160e01b600052604160045260246000fd5b600082601f8301126200014057600080fd5b81516001600160401b03808211156200015d576200015d62000118565b604051601f8301601f19908116603f0116810190828211818310171562000188576200018862000118565b81604052838152602092508683858801011115620001a557600080fd5b600091505b83821015620001c95785820183015181830184015290820190620001aa565b83821115620001db5760008385830101525b9695505050505050565b600080600060608486031215620001fb57600080fd5b83516001600160401b03808211156200021357600080fd5b62000221878388016200012e565b945060208601519150808211156200023857600080fd5b5062000247868287016200012e565b925050604084015190509250925092565b600181811c908216806200026d57607f821691505b602082108114156200028f57634e487b7160e01b600052602260045260246000fd5b50919050565b61172080620002a56000396000f3fe608060405234801561001057600080fd5b50600436106101165760003560e01c80636352211e116100a2578063a22cb46511610071578063a22cb4651461023c578063b88d4fde1461024f578063c87b56dd14610262578063d5abeb0114610275578063e985e9c51461027d57600080fd5b80636352211e146101fb57806370a082311461020e57806395d89b4114610221578063a0712d681461022957600080fd5b806318160ddd116100e957806318160ddd1461019857806323b872dd146101af5780632f745c59146101c257806342842e0e146101d55780634f6ccce7146101e857600080fd5b806301ffc9a71461011b57806306fdde0314610143578063081812fc14610158578063095ea7b314610183575b600080fd5b61012e61012936600461123c565b6102b9565b60405190151581526020015b60405180910390f35b61014b6102ff565b60405161013a91906112b8565b61016b6101663660046112cb565b610391565b6040516001600160a01b03909116815260200161013a565b610196610191366004611300565b61042b565b005b6101a160065481565b60405190815260200161013a565b6101966101bd36600461132a565b610541565b6101a16101d0366004611300565b610572565b6101966101e336600461132a565b6105e3565b6101a16101f63660046112cb565b6105fe565b61016b6102093660046112cb565b610667565b6101a161021c366004611366565b6106de565b61014b610765565b6101966102373660046112cb565b610774565b61019661024a366004611381565b610781565b61019661025d3660046113d3565b610790565b61014b6102703660046112cb565b6107c8565b6101a1602a81565b61012e61028b3660046114af565b6001600160a01b03918216600090815260056020908152604080832093909416825291909152205460ff1690565b60006001600160e01b0319821663140e25ad60e31b14806102ea57506001600160e01b0319821663780e9d6360e01b145b806102f957506102f982610893565b92915050565b60606000805461030e906114e2565b80601f016020809104026020016040519081016040528092919081815260200182805461033a906114e2565b80156103875780601f1061035c57610100808354040283529160200191610387565b820191906000526020600020905b81548152906001019060200180831161036a57829003601f168201915b5050505050905090565b6000818152600260205260408120546001600160a01b031661040f5760405162461bcd60e51b815260206004820152602c60248201527f4552433732313a20617070726f76656420717565727920666f72206e6f6e657860448201526b34b9ba32b73a103a37b5b2b760a11b60648201526084015b60405180910390fd5b506000908152600460205260409020546001600160a01b031690565b600061043682610667565b9050806001600160a01b0316836001600160a01b031614156104a45760405162461bcd60e51b815260206004820152602160248201527f4552433732313a20617070726f76616c20746f2063757272656e74206f776e656044820152603960f91b6064820152608401610406565b336001600160a01b03821614806104c057506104c0813361028b565b6105325760405162461bcd60e51b815260206004820152603860248201527f4552433732313a20617070726f76652063616c6c6572206973206e6f74206f7760448201527f6e6572206e6f7220617070726f76656420666f7220616c6c00000000000000006064820152608401610406565b61053c83836108e3565b505050565b61054b3382610951565b6105675760405162461bcd60e51b81526004016104069061151d565b61053c838383610a48565b60008115801561058a5750610586836106de565b6001145b6105c65760405162461bcd60e51b815260206004820152600d60248201526c092dcecc2d8d2c840d2dcc8caf609b1b6044820152606401610406565b50506001600160a01b031660009081526008602052604090205490565b61053c83838360405180602001604052806000815250610790565b60095460009082106106425760405162461bcd60e51b815260206004820152600d60248201526c092dcecc2d8d2c840d2dcc8caf609b1b6044820152606401610406565b600982815481106106555761065561156e565b90600052602060002001549050919050565b6000818152600260205260408120546001600160a01b0316806102f95760405162461bcd60e51b815260206004820152602960248201527f4552433732313a206f776e657220717565727920666f72206e6f6e657869737460448201526832b73a103a37b5b2b760b91b6064820152608401610406565b60006001600160a01b0382166107495760405162461bcd60e51b815260206004820152602a60248201527f4552433732313a2062616c616e636520717565727920666f7220746865207a65604482015269726f206164647265737360b01b6064820152608401610406565b506001600160a01b031660009081526003602052604090205490565b60606001805461030e906114e2565b61077e3382610bef565b50565b61078c338383610d3d565b5050565b61079a3383610951565b6107b65760405162461bcd60e51b81526004016104069061151d565b6107c284848484610e0c565b50505050565b6000818152600260205260409020546060906001600160a01b03166108245760405162461bcd60e51b81526020600482015260126024820152714e465420646f65736e27742065786973747360701b6044820152606401610406565b600061084061083284610667565b6001600160a01b0316841890565b905060405180604001604052806007815260200166697066733a2f2f60c81b81525061086b82610e3f565b60405160200161087c929190611584565b604051602081830303815290604052915050919050565b60006001600160e01b031982166380ac58cd60e01b14806108c457506001600160e01b03198216635b5e139f60e01b145b806102f957506301ffc9a760e01b6001600160e01b03198316146102f9565b600081815260046020526040902080546001600160a01b0319166001600160a01b038416908117909155819061091882610667565b6001600160a01b03167f8c5be1e5ebec7d5bd14f71427d1e84f3dd0314c0f7b2291e5b200ac8c7c3b92560405160405180910390a45050565b6000818152600260205260408120546001600160a01b03166109ca5760405162461bcd60e51b815260206004820152602c60248201527f4552433732313a206f70657261746f7220717565727920666f72206e6f6e657860448201526b34b9ba32b73a103a37b5b2b760a11b6064820152608401610406565b60006109d583610667565b9050806001600160a01b0316846001600160a01b03161480610a1c57506001600160a01b0380821660009081526005602090815260408083209388168352929052205460ff165b80610a405750836001600160a01b0316610a3584610391565b6001600160a01b0316145b949350505050565b826001600160a01b0316610a5b82610667565b6001600160a01b031614610abf5760405162461bcd60e51b815260206004820152602560248201527f4552433732313a207472616e736665722066726f6d20696e636f72726563742060448201526437bbb732b960d91b6064820152608401610406565b6001600160a01b038216610b215760405162461bcd60e51b8152602060048201526024808201527f4552433732313a207472616e7366657220746f20746865207a65726f206164646044820152637265737360e01b6064820152608401610406565b610b2c838383610f7d565b610b376000826108e3565b6001600160a01b0383166000908152600360205260408120805460019290610b609084906115c9565b90915550506001600160a01b0382166000908152600360205260408120805460019290610b8e9084906115e0565b909155505060008181526002602052604080822080546001600160a01b0319166001600160a01b0386811691821790925591518493918716917fddf252ad1be2c89b69c2b068fc378daa952ba7f163c4a11628f55a4df523b3ef91a4505050565b600754431015610c335760405162461bcd60e51b815260206004820152600f60248201526e139bdd08185b1b1bddd959081e595d608a1b6044820152606401610406565b602a60065410610c7a5760405162461bcd60e51b815260206004820152601260248201527113585e081cdd5c1c1b1e481c995858da195960721b6044820152606401610406565b610c83826106de565b15610cd05760405162461bcd60e51b815260206004820152601960248201527f416c7265616479206d696e746564206f7220636c61696d6564000000000000006044820152606401610406565b600160066000828254610ce391906115e0565b909155505060098054600181019091557f6e1540171b6c0c960b71a7020d9f60077f6af931a8bbf590da0223dacf75c7af018190556001600160a01b038216600090815260086020526040902081905561078c8282610fcb565b816001600160a01b0316836001600160a01b03161415610d9f5760405162461bcd60e51b815260206004820152601960248201527f4552433732313a20617070726f766520746f2063616c6c6572000000000000006044820152606401610406565b6001600160a01b03838116600081815260056020908152604080832094871680845294825291829020805460ff191686151590811790915591519182527f17307eab39ab6107e8899845ad3d59bd9653f200f220920489ca2b5937696c31910160405180910390a3505050565b610e17848484610a48565b610e2384848484611119565b6107c25760405162461bcd60e51b8152600401610406906115f8565b60408051603480825260608281019093526000919060208201818036833701905050905060fd83901c7f6162636465666768696a6b6c6d6e6f707172737475767778797a3233343536378160208110610e9a57610e9a61156e565b1a60f81b82600081518110610eb157610eb161156e565b60200101906001600160f81b031916908160001a90535060029390931b9260335b8015610f53577f6162636465666768696a6b6c6d6e6f707172737475767778797a32333435363785601f1660208110610f0d57610f0d61156e565b1a60f81b838281518110610f2357610f2361156e565b60200101906001600160f81b031916908160001a90535060059490941c9380610f4b8161164a565b915050610ed2565b5081604051602001610f659190611661565b60405160208183030381529060405292505050919050565b6001600160a01b0383161561053c5760405162461bcd60e51b8152602060048201526014602482015273139bdb881d1c985b9cd9995c98589b194813919560621b6044820152606401610406565b6001600160a01b0382166110215760405162461bcd60e51b815260206004820181905260248201527f4552433732313a206d696e7420746f20746865207a65726f20616464726573736044820152606401610406565b6000818152600260205260409020546001600160a01b0316156110865760405162461bcd60e51b815260206004820152601c60248201527f4552433732313a20746f6b656e20616c7265616479206d696e746564000000006044820152606401610406565b61109260008383610f7d565b6001600160a01b03821660009081526003602052604081208054600192906110bb9084906115e0565b909155505060008181526002602052604080822080546001600160a01b0319166001600160a01b03861690811790915590518392907fddf252ad1be2c89b69c2b068fc378daa952ba7f163c4a11628f55a4df523b3ef908290a45050565b60006001600160a01b0384163b1561121b57604051630a85bd0160e11b81526001600160a01b0385169063150b7a029061115d903390899088908890600401611690565b602060405180830381600087803b15801561117757600080fd5b505af19250505080156111a7575060408051601f3d908101601f191682019092526111a4918101906116cd565b60015b611201573d8080156111d5576040519150601f19603f3d011682016040523d82523d6000602084013e6111da565b606091505b5080516111f95760405162461bcd60e51b8152600401610406906115f8565b805181602001fd5b6001600160e01b031916630a85bd0160e11b149050610a40565b506001949350505050565b6001600160e01b03198116811461077e57600080fd5b60006020828403121561124e57600080fd5b813561125981611226565b9392505050565b60005b8381101561127b578181015183820152602001611263565b838111156107c25750506000910152565b600081518084526112a4816020860160208601611260565b601f01601f19169290920160200192915050565b602081526000611259602083018461128c565b6000602082840312156112dd57600080fd5b5035919050565b80356001600160a01b03811681146112fb57600080fd5b919050565b6000806040838503121561131357600080fd5b61131c836112e4565b946020939093013593505050565b60008060006060848603121561133f57600080fd5b611348846112e4565b9250611356602085016112e4565b9150604084013590509250925092565b60006020828403121561137857600080fd5b611259826112e4565b6000806040838503121561139457600080fd5b61139d836112e4565b9150602083013580151581146113b257600080fd5b809150509250929050565b634e487b7160e01b600052604160045260246000fd5b600080600080608085870312156113e957600080fd5b6113f2856112e4565b9350611400602086016112e4565b925060408501359150606085013567ffffffffffffffff8082111561142457600080fd5b818701915087601f83011261143857600080fd5b81358181111561144a5761144a6113bd565b604051601f8201601f19908116603f01168101908382118183101715611472576114726113bd565b816040528281528a602084870101111561148b57600080fd5b82602086016020830137600060208483010152809550505050505092959194509250565b600080604083850312156114c257600080fd5b6114cb836112e4565b91506114d9602084016112e4565b90509250929050565b600181811c908216806114f657607f821691505b6020821081141561151757634e487b7160e01b600052602260045260246000fd5b50919050565b60208082526031908201527f4552433732313a207472616e736665722063616c6c6572206973206e6f74206f6040820152701ddb995c881b9bdc88185c1c1c9bdd9959607a1b606082015260800190565b634e487b7160e01b600052603260045260246000fd5b60008351611596818460208801611260565b8351908301906115aa818360208801611260565b01949350505050565b634e487b7160e01b600052601160045260246000fd5b6000828210156115db576115db6115b3565b500390565b600082198211156115f3576115f36115b3565b500190565b60208082526032908201527f4552433732313a207472616e7366657220746f206e6f6e20455243373231526560408201527131b2b4bb32b91034b6b83632b6b2b73a32b960711b606082015260800190565b600081611659576116596115b3565b506000190190565b666261666b72656960c81b815260008251611683816007850160208701611260565b9190910160070192915050565b6001600160a01b03858116825284166020820152604081018390526080606082018190526000906116c39083018461128c565b9695505050505050565b6000602082840312156116df57600080fd5b81516112598161122656fea26469706673582212206ee93ec4ea0bb6e01c5a97a9d2f5a9380e383aafbb5c9cfbb06fad9000f4e1aa64736f6c63430008090033",
  "devdoc": {
    "kind": "dev",
    "methods": {
      "approve(address,uint256)": {
        "details": "See {IERC721-approve}."
      },
      "balanceOf(address)": {
        "details": "See {IERC721-balanceOf}."
      },
      "getApproved(uint256)": {
        "details": "See {IERC721-getApproved}."
      },
      "isApprovedForAll(address,address)": {
        "details": "See {IERC721-isApprovedForAll}."
      },
      "name()": {
        "details": "See {IERC721Metadata-name}."
      },
      "ownerOf(uint256)": {
        "details": "See {IERC721-ownerOf}."
      },
      "safeTransferFrom(address,address,uint256)": {
        "details": "See {IERC721-safeTransferFrom}."
      },
      "safeTransferFrom(address,address,uint256,bytes)": {
        "details": "See {IERC721-safeTransferFrom}."
      },
      "setApprovalForAll(address,bool)": {
        "details": "See {IERC721-setApprovalForAll}."
      },
      "supportsInterface(bytes4)": {
        "details": "See {IERC165-supportsInterface}."
      },
      "symbol()": {
        "details": "See {IERC721Metadata-symbol}."
      },
      "transferFrom(address,address,uint256)": {
        "details": "See {IERC721-transferFrom}."
      }
    },
    "title": "OpenBound smartcontract",
    "version": 1
  },
  "userdoc": {
    "kind": "user",
    "methods": {},
    "version": 1
  },
  "storageLayout": {
    "storage": [
      {
        "astId": 4084,
        "contract": "contracts/dev/OpenBound.sol:OpenBound",
        "label": "_name",
        "offset": 0,
        "slot": "0",
        "type": "t_string_storage"
      },
      {
        "astId": 4086,
        "contract": "contracts/dev/OpenBound.sol:OpenBound",
        "label": "_symbol",
        "offset": 0,
        "slot": "1",
        "type": "t_string_storage"
      },
      {
        "astId": 4090,
        "contract": "contracts/dev/OpenBound.sol:OpenBound",
        "label": "_owners",
        "offset": 0,
        "slot": "2",
        "type": "t_mapping(t_uint256,t_address)"
      },
      {
        "astId": 4094,
        "contract": "contracts/dev/OpenBound.sol:OpenBound",
        "label": "_balances",
        "offset": 0,
        "slot": "3",
        "type": "t_mapping(t_address,t_uint256)"
      },
      {
        "astId": 4098,
        "contract": "contracts/dev/OpenBound.sol:OpenBound",
        "label": "_tokenApprovals",
        "offset": 0,
        "slot": "4",
        "type": "t_mapping(t_uint256,t_address)"
      },
      {
        "astId": 4104,
        "contract": "contracts/dev/OpenBound.sol:OpenBound",
        "label": "_operatorApprovals",
        "offset": 0,
        "slot": "5",
        "type": "t_mapping(t_address,t_mapping(t_address,t_bool))"
      },
      {
        "astId": 8429,
        "contract": "contracts/dev/OpenBound.sol:OpenBound",
        "label": "totalSupply",
        "offset": 0,
        "slot": "6",
        "type": "t_uint256"
      },
      {
        "astId": 8434,
        "contract": "contracts/dev/OpenBound.sol:OpenBound",
        "label": "_block",
        "offset": 0,
        "slot": "7",
        "type": "t_uint256"
      },
      {
        "astId": 8438,
        "contract": "contracts/dev/OpenBound.sol:OpenBound",
        "label": "_tokenOfOwner",
        "offset": 0,
        "slot": "8",
        "type": "t_mapping(t_address,t_uint256)"
      },
      {
        "astId": 8441,
        "contract": "contracts/dev/OpenBound.sol:OpenBound",
        "label": "_tokens",
        "offset": 0,
        "slot": "9",
        "type": "t_array(t_uint256)dyn_storage"
      }
    ],
    "types": {
      "t_address": {
        "encoding": "inplace",
        "label": "address",
        "numberOfBytes": "20"
      },
      "t_array(t_uint256)dyn_storage": {
        "base": "t_uint256",
        "encoding": "dynamic_array",
        "label": "uint256[]",
        "numberOfBytes": "32"
      },
      "t_bool": {
        "encoding": "inplace",
        "label": "bool",
        "numberOfBytes": "1"
      },
      "t_mapping(t_address,t_bool)": {
        "encoding": "mapping",
        "key": "t_address",
        "label": "mapping(address => bool)",
        "numberOfBytes": "32",
        "value": "t_bool"
      },
      "t_mapping(t_address,t_mapping(t_address,t_bool))": {
        "encoding": "mapping",
        "key": "t_address",
        "label": "mapping(address => mapping(address => bool))",
        "numberOfBytes": "32",
        "value": "t_mapping(t_address,t_bool)"
      },
      "t_mapping(t_address,t_uint256)": {
        "encoding": "mapping",
        "key": "t_address",
        "label": "mapping(address => uint256)",
        "numberOfBytes": "32",
        "value": "t_uint256"
      },
      "t_mapping(t_uint256,t_address)": {
        "encoding": "mapping",
        "key": "t_uint256",
        "label": "mapping(uint256 => address)",
        "numberOfBytes": "32",
        "value": "t_address"
      },
      "t_string_storage": {
        "encoding": "bytes",
        "label": "string",
        "numberOfBytes": "32"
      },
      "t_uint256": {
        "encoding": "inplace",
        "label": "uint256",
        "numberOfBytes": "32"
      }
    }
  }
}