{
  "address": "0x8D135C725C8A5541A8D47C0f187f2BE53b3DFf41",
  "abi": [
    {
      "inputs": [
        {
          "internalType": "address",
          "name": "owner_",
          "type": "address"
        },
        {
          "internalType": "address",
          "name": "registerer_",
          "type": "address"
        }
      ],
      "stateMutability": "nonpayable",
      "type": "constructor"
    },
    {
      "anonymous": false,
      "inputs": [
        {
          "indexed": true,
          "internalType": "address",
          "name": "previousOwner",
          "type": "address"
        },
        {
          "indexed": true,
          "internalType": "address",
          "name": "newOwner",
          "type": "address"
        }
      ],
      "name": "OwnershipTransferred",
      "type": "event"
    },
    {
      "inputs": [
        {
          "internalType": "address",
          "name": "addr",
          "type": "address"
        }
      ],
      "name": "addAddress",
      "outputs": [],
      "stateMutability": "nonpayable",
      "type": "function"
    },
    {
      "inputs": [
        {
          "internalType": "address[]",
          "name": "addrs",
          "type": "address[]"
        }
      ],
      "name": "addAddresses",
      "outputs": [],
      "stateMutability": "nonpayable",
      "type": "function"
    },
    {
      "inputs": [
        {
          "internalType": "address",
          "name": "smartcontract",
          "type": "address"
        }
      ],
      "name": "checkErcInterfaces",
      "outputs": [
        {
          "internalType": "bool[]",
          "name": "",
          "type": "bool[]"
        }
      ],
      "stateMutability": "view",
      "type": "function"
    },
    {
      "inputs": [
        {
          "internalType": "address",
          "name": "smartcontract",
          "type": "address"
        },
        {
          "internalType": "bool",
          "name": "erc",
          "type": "bool"
        },
        {
          "internalType": "bytes4[]",
          "name": "interfaceIds",
          "type": "bytes4[]"
        }
      ],
      "name": "checkSupportedInterfaces",
      "outputs": [
        {
          "internalType": "bool[]",
          "name": "interfaceIdsChecks",
          "type": "bool[]"
        }
      ],
      "stateMutability": "view",
      "type": "function"
    },
    {
      "inputs": [],
      "name": "countAddresses",
      "outputs": [
        {
          "internalType": "uint256",
          "name": "",
          "type": "uint256"
        }
      ],
      "stateMutability": "view",
      "type": "function"
    },
    {
      "inputs": [],
      "name": "getAddresses",
      "outputs": [
        {
          "internalType": "address[]",
          "name": "",
          "type": "address[]"
        }
      ],
      "stateMutability": "view",
      "type": "function"
    },
    {
      "inputs": [
        {
          "internalType": "address",
          "name": "collection",
          "type": "address"
        },
        {
          "internalType": "address",
          "name": "account",
          "type": "address"
        }
      ],
      "name": "getCollectionInfos",
      "outputs": [
        {
          "components": [
            {
              "internalType": "address",
              "name": "collection",
              "type": "address"
            },
            {
              "internalType": "address",
              "name": "owner",
              "type": "address"
            },
            {
              "internalType": "string",
              "name": "name",
              "type": "string"
            },
            {
              "internalType": "string",
              "name": "symbol",
              "type": "string"
            },
            {
              "internalType": "uint256",
              "name": "totalSupply",
              "type": "uint256"
            },
            {
              "internalType": "uint256",
              "name": "balanceOf",
              "type": "uint256"
            },
            {
              "internalType": "bool[]",
              "name": "supported",
              "type": "bool[]"
            },
            {
              "internalType": "enum IERCNftInfos.NftType",
              "name": "erc",
              "type": "uint8"
            }
          ],
          "internalType": "struct IERCNftInfos.CollectionInfos",
          "name": "collectionInfos",
          "type": "tuple"
        }
      ],
      "stateMutability": "view",
      "type": "function"
    },
    {
      "inputs": [
        {
          "internalType": "address[]",
          "name": "collections",
          "type": "address[]"
        },
        {
          "internalType": "address",
          "name": "account",
          "type": "address"
        },
        {
          "internalType": "bytes4[]",
          "name": "interfaceIds",
          "type": "bytes4[]"
        }
      ],
      "name": "getCollectionsInfos",
      "outputs": [
        {
          "components": [
            {
              "internalType": "address",
              "name": "collection",
              "type": "address"
            },
            {
              "internalType": "address",
              "name": "owner",
              "type": "address"
            },
            {
              "internalType": "string",
              "name": "name",
              "type": "string"
            },
            {
              "internalType": "string",
              "name": "symbol",
              "type": "string"
            },
            {
              "internalType": "uint256",
              "name": "totalSupply",
              "type": "uint256"
            },
            {
              "internalType": "uint256",
              "name": "balanceOf",
              "type": "uint256"
            },
            {
              "internalType": "bool[]",
              "name": "supported",
              "type": "bool[]"
            },
            {
              "internalType": "enum IERCNftInfos.NftType",
              "name": "erc",
              "type": "uint8"
            }
          ],
          "internalType": "struct IERCNftInfos.CollectionInfos[]",
          "name": "collectionsInfos",
          "type": "tuple[]"
        }
      ],
      "stateMutability": "view",
      "type": "function"
    },
    {
      "inputs": [
        {
          "internalType": "address",
          "name": "collection",
          "type": "address"
        },
        {
          "internalType": "uint256",
          "name": "tokenID",
          "type": "uint256"
        },
        {
          "internalType": "address",
          "name": "account",
          "type": "address"
        }
      ],
      "name": "getNftInfos",
      "outputs": [
        {
          "components": [
            {
              "internalType": "uint256",
              "name": "tokenID",
              "type": "uint256"
            },
            {
              "internalType": "string",
              "name": "tokenURI",
              "type": "string"
            },
            {
              "internalType": "address",
              "name": "owner",
              "type": "address"
            },
            {
              "internalType": "address",
              "name": "approved",
              "type": "address"
            },
            {
              "internalType": "uint256",
              "name": "balanceOf",
              "type": "uint256"
            },
            {
              "internalType": "enum IERCNftInfos.NftType",
              "name": "erc",
              "type": "uint8"
            }
          ],
          "internalType": "struct IERCNftInfos.NftInfos",
          "name": "nftInfos",
          "type": "tuple"
        }
      ],
      "stateMutability": "view",
      "type": "function"
    },
    {
      "inputs": [
        {
          "internalType": "address",
          "name": "collection",
          "type": "address"
        },
        {
          "internalType": "uint256[]",
          "name": "tokenIDs",
          "type": "uint256[]"
        },
        {
          "internalType": "address",
          "name": "account",
          "type": "address"
        }
      ],
      "name": "getNftsInfos",
      "outputs": [
        {
          "components": [
            {
              "internalType": "uint256",
              "name": "tokenID",
              "type": "uint256"
            },
            {
              "internalType": "string",
              "name": "tokenURI",
              "type": "string"
            },
            {
              "internalType": "address",
              "name": "owner",
              "type": "address"
            },
            {
              "internalType": "address",
              "name": "approved",
              "type": "address"
            },
            {
              "internalType": "uint256",
              "name": "balanceOf",
              "type": "uint256"
            },
            {
              "internalType": "enum IERCNftInfos.NftType",
              "name": "erc",
              "type": "uint8"
            }
          ],
          "internalType": "struct IERCNftInfos.NftInfos[]",
          "name": "nftsInfos",
          "type": "tuple[]"
        }
      ],
      "stateMutability": "view",
      "type": "function"
    },
    {
      "inputs": [
        {
          "internalType": "address",
          "name": "collection",
          "type": "address"
        },
        {
          "internalType": "address",
          "name": "account",
          "type": "address"
        },
        {
          "internalType": "uint256",
          "name": "limit",
          "type": "uint256"
        },
        {
          "internalType": "uint256",
          "name": "offset",
          "type": "uint256"
        }
      ],
      "name": "getNftsInfos",
      "outputs": [
        {
          "components": [
            {
              "internalType": "uint256",
              "name": "tokenID",
              "type": "uint256"
            },
            {
              "internalType": "string",
              "name": "tokenURI",
              "type": "string"
            },
            {
              "internalType": "address",
              "name": "owner",
              "type": "address"
            },
            {
              "internalType": "address",
              "name": "approved",
              "type": "address"
            },
            {
              "internalType": "uint256",
              "name": "balanceOf",
              "type": "uint256"
            },
            {
              "internalType": "enum IERCNftInfos.NftType",
              "name": "erc",
              "type": "uint8"
            }
          ],
          "internalType": "struct IERCNftInfos.NftInfos[]",
          "name": "nftsInfos",
          "type": "tuple[]"
        },
        {
          "internalType": "uint256",
          "name": "count",
          "type": "uint256"
        },
        {
          "internalType": "uint256",
          "name": "total",
          "type": "uint256"
        }
      ],
      "stateMutability": "view",
      "type": "function"
    },
    {
      "inputs": [
        {
          "internalType": "address",
          "name": "collection",
          "type": "address"
        },
        {
          "internalType": "address",
          "name": "account",
          "type": "address"
        }
      ],
      "name": "getOpenNFTsCollectionInfos",
      "outputs": [
        {
          "components": [
            {
              "internalType": "address",
              "name": "collection",
              "type": "address"
            },
            {
              "internalType": "address",
              "name": "owner",
              "type": "address"
            },
            {
              "internalType": "string",
              "name": "name",
              "type": "string"
            },
            {
              "internalType": "string",
              "name": "symbol",
              "type": "string"
            },
            {
              "internalType": "uint256",
              "name": "totalSupply",
              "type": "uint256"
            },
            {
              "internalType": "uint256",
              "name": "balanceOf",
              "type": "uint256"
            },
            {
              "internalType": "bool[]",
              "name": "supported",
              "type": "bool[]"
            },
            {
              "internalType": "enum IERCNftInfos.NftType",
              "name": "erc",
              "type": "uint8"
            }
          ],
          "internalType": "struct IERCNftInfos.CollectionInfos",
          "name": "collectionInfos",
          "type": "tuple"
        },
        {
          "components": [
            {
              "internalType": "uint256",
              "name": "version",
              "type": "uint256"
            },
            {
              "internalType": "string",
              "name": "template",
              "type": "string"
            },
            {
              "internalType": "bool",
              "name": "open",
              "type": "bool"
            },
            {
              "internalType": "uint256",
              "name": "price",
              "type": "uint256"
            },
            {
              "internalType": "address",
              "name": "receiver",
              "type": "address"
            },
            {
              "internalType": "uint96",
              "name": "fraction",
              "type": "uint96"
            }
          ],
          "internalType": "struct IOpenNFTsInfos.OpenNFTsCollectionInfos",
          "name": "openNTFscollectionInfos",
          "type": "tuple"
        }
      ],
      "stateMutability": "view",
      "type": "function"
    },
    {
      "inputs": [
        {
          "internalType": "address",
          "name": "account",
          "type": "address"
        }
      ],
      "name": "getOpenNFTsCollectionsInfos",
      "outputs": [
        {
          "components": [
            {
              "internalType": "address",
              "name": "collection",
              "type": "address"
            },
            {
              "internalType": "address",
              "name": "owner",
              "type": "address"
            },
            {
              "internalType": "string",
              "name": "name",
              "type": "string"
            },
            {
              "internalType": "string",
              "name": "symbol",
              "type": "string"
            },
            {
              "internalType": "uint256",
              "name": "totalSupply",
              "type": "uint256"
            },
            {
              "internalType": "uint256",
              "name": "balanceOf",
              "type": "uint256"
            },
            {
              "internalType": "bool[]",
              "name": "supported",
              "type": "bool[]"
            },
            {
              "internalType": "enum IERCNftInfos.NftType",
              "name": "erc",
              "type": "uint8"
            }
          ],
          "internalType": "struct IERCNftInfos.CollectionInfos[]",
          "name": "collectionsInfos",
          "type": "tuple[]"
        },
        {
          "components": [
            {
              "internalType": "uint256",
              "name": "version",
              "type": "uint256"
            },
            {
              "internalType": "string",
              "name": "template",
              "type": "string"
            },
            {
              "internalType": "bool",
              "name": "open",
              "type": "bool"
            },
            {
              "internalType": "uint256",
              "name": "price",
              "type": "uint256"
            },
            {
              "internalType": "address",
              "name": "receiver",
              "type": "address"
            },
            {
              "internalType": "uint96",
              "name": "fraction",
              "type": "uint96"
            }
          ],
          "internalType": "struct IOpenNFTsInfos.OpenNFTsCollectionInfos[]",
          "name": "openNFTsCollectionsInfos",
          "type": "tuple[]"
        },
        {
          "internalType": "uint256",
          "name": "count",
          "type": "uint256"
        },
        {
          "internalType": "uint256",
          "name": "total",
          "type": "uint256"
        }
      ],
      "stateMutability": "view",
      "type": "function"
    },
    {
      "inputs": [
        {
          "internalType": "address",
          "name": "collection",
          "type": "address"
        },
        {
          "internalType": "uint256",
          "name": "tokenID",
          "type": "uint256"
        },
        {
          "internalType": "address",
          "name": "account",
          "type": "address"
        }
      ],
      "name": "getOpenNFTsNftInfos",
      "outputs": [
        {
          "components": [
            {
              "internalType": "uint256",
              "name": "tokenID",
              "type": "uint256"
            },
            {
              "internalType": "string",
              "name": "tokenURI",
              "type": "string"
            },
            {
              "internalType": "address",
              "name": "owner",
              "type": "address"
            },
            {
              "internalType": "address",
              "name": "approved",
              "type": "address"
            },
            {
              "internalType": "uint256",
              "name": "balanceOf",
              "type": "uint256"
            },
            {
              "internalType": "enum IERCNftInfos.NftType",
              "name": "erc",
              "type": "uint8"
            }
          ],
          "internalType": "struct IERCNftInfos.NftInfos",
          "name": "nftInfos",
          "type": "tuple"
        },
        {
          "components": [
            {
              "internalType": "uint256",
              "name": "price",
              "type": "uint256"
            },
            {
              "internalType": "address",
              "name": "receiver",
              "type": "address"
            },
            {
              "internalType": "uint96",
              "name": "fraction",
              "type": "uint96"
            }
          ],
          "internalType": "struct IOpenNFTsInfos.OpenNFTsNftInfos",
          "name": "openNTFsNftInfos",
          "type": "tuple"
        },
        {
          "components": [
            {
              "internalType": "address",
              "name": "collection",
              "type": "address"
            },
            {
              "internalType": "address",
              "name": "owner",
              "type": "address"
            },
            {
              "internalType": "string",
              "name": "name",
              "type": "string"
            },
            {
              "internalType": "string",
              "name": "symbol",
              "type": "string"
            },
            {
              "internalType": "uint256",
              "name": "totalSupply",
              "type": "uint256"
            },
            {
              "internalType": "uint256",
              "name": "balanceOf",
              "type": "uint256"
            },
            {
              "internalType": "bool[]",
              "name": "supported",
              "type": "bool[]"
            },
            {
              "internalType": "enum IERCNftInfos.NftType",
              "name": "erc",
              "type": "uint8"
            }
          ],
          "internalType": "struct IERCNftInfos.CollectionInfos",
          "name": "collectionInfos",
          "type": "tuple"
        }
      ],
      "stateMutability": "view",
      "type": "function"
    },
    {
      "inputs": [
        {
          "internalType": "address",
          "name": "collection",
          "type": "address"
        },
        {
          "internalType": "uint256[]",
          "name": "tokenIDs",
          "type": "uint256[]"
        },
        {
          "internalType": "address",
          "name": "account",
          "type": "address"
        }
      ],
      "name": "getOpenNFTsNftsInfos",
      "outputs": [
        {
          "components": [
            {
              "internalType": "uint256",
              "name": "tokenID",
              "type": "uint256"
            },
            {
              "internalType": "string",
              "name": "tokenURI",
              "type": "string"
            },
            {
              "internalType": "address",
              "name": "owner",
              "type": "address"
            },
            {
              "internalType": "address",
              "name": "approved",
              "type": "address"
            },
            {
              "internalType": "uint256",
              "name": "balanceOf",
              "type": "uint256"
            },
            {
              "internalType": "enum IERCNftInfos.NftType",
              "name": "erc",
              "type": "uint8"
            }
          ],
          "internalType": "struct IERCNftInfos.NftInfos[]",
          "name": "nftInfos",
          "type": "tuple[]"
        },
        {
          "components": [
            {
              "internalType": "uint256",
              "name": "price",
              "type": "uint256"
            },
            {
              "internalType": "address",
              "name": "receiver",
              "type": "address"
            },
            {
              "internalType": "uint96",
              "name": "fraction",
              "type": "uint96"
            }
          ],
          "internalType": "struct IOpenNFTsInfos.OpenNFTsNftInfos[]",
          "name": "openNTFsNftInfos",
          "type": "tuple[]"
        },
        {
          "components": [
            {
              "internalType": "address",
              "name": "collection",
              "type": "address"
            },
            {
              "internalType": "address",
              "name": "owner",
              "type": "address"
            },
            {
              "internalType": "string",
              "name": "name",
              "type": "string"
            },
            {
              "internalType": "string",
              "name": "symbol",
              "type": "string"
            },
            {
              "internalType": "uint256",
              "name": "totalSupply",
              "type": "uint256"
            },
            {
              "internalType": "uint256",
              "name": "balanceOf",
              "type": "uint256"
            },
            {
              "internalType": "bool[]",
              "name": "supported",
              "type": "bool[]"
            },
            {
              "internalType": "enum IERCNftInfos.NftType",
              "name": "erc",
              "type": "uint8"
            }
          ],
          "internalType": "struct IERCNftInfos.CollectionInfos",
          "name": "collectionInfos",
          "type": "tuple"
        }
      ],
      "stateMutability": "view",
      "type": "function"
    },
    {
      "inputs": [
        {
          "internalType": "address",
          "name": "collection",
          "type": "address"
        },
        {
          "internalType": "address",
          "name": "account",
          "type": "address"
        },
        {
          "internalType": "uint256",
          "name": "limit",
          "type": "uint256"
        },
        {
          "internalType": "uint256",
          "name": "offset",
          "type": "uint256"
        }
      ],
      "name": "getOpenNFTsNftsInfos",
      "outputs": [
        {
          "components": [
            {
              "internalType": "uint256",
              "name": "tokenID",
              "type": "uint256"
            },
            {
              "internalType": "string",
              "name": "tokenURI",
              "type": "string"
            },
            {
              "internalType": "address",
              "name": "owner",
              "type": "address"
            },
            {
              "internalType": "address",
              "name": "approved",
              "type": "address"
            },
            {
              "internalType": "uint256",
              "name": "balanceOf",
              "type": "uint256"
            },
            {
              "internalType": "enum IERCNftInfos.NftType",
              "name": "erc",
              "type": "uint8"
            }
          ],
          "internalType": "struct IERCNftInfos.NftInfos[]",
          "name": "nftInfos",
          "type": "tuple[]"
        },
        {
          "components": [
            {
              "internalType": "uint256",
              "name": "price",
              "type": "uint256"
            },
            {
              "internalType": "address",
              "name": "receiver",
              "type": "address"
            },
            {
              "internalType": "uint96",
              "name": "fraction",
              "type": "uint96"
            }
          ],
          "internalType": "struct IOpenNFTsInfos.OpenNFTsNftInfos[]",
          "name": "openNTFsNftInfos",
          "type": "tuple[]"
        },
        {
          "components": [
            {
              "internalType": "address",
              "name": "collection",
              "type": "address"
            },
            {
              "internalType": "address",
              "name": "owner",
              "type": "address"
            },
            {
              "internalType": "string",
              "name": "name",
              "type": "string"
            },
            {
              "internalType": "string",
              "name": "symbol",
              "type": "string"
            },
            {
              "internalType": "uint256",
              "name": "totalSupply",
              "type": "uint256"
            },
            {
              "internalType": "uint256",
              "name": "balanceOf",
              "type": "uint256"
            },
            {
              "internalType": "bool[]",
              "name": "supported",
              "type": "bool[]"
            },
            {
              "internalType": "enum IERCNftInfos.NftType",
              "name": "erc",
              "type": "uint8"
            }
          ],
          "internalType": "struct IERCNftInfos.CollectionInfos",
          "name": "collectionInfos",
          "type": "tuple"
        },
        {
          "internalType": "uint256",
          "name": "count",
          "type": "uint256"
        },
        {
          "internalType": "uint256",
          "name": "total",
          "type": "uint256"
        }
      ],
      "stateMutability": "view",
      "type": "function"
    },
    {
      "inputs": [
        {
          "internalType": "address",
          "name": "smartcontract",
          "type": "address"
        }
      ],
      "name": "isCollection",
      "outputs": [
        {
          "internalType": "bool",
          "name": "",
          "type": "bool"
        }
      ],
      "stateMutability": "view",
      "type": "function"
    },
    {
      "inputs": [
        {
          "internalType": "address[]",
          "name": "smartcontracts",
          "type": "address[]"
        }
      ],
      "name": "isCollections",
      "outputs": [
        {
          "internalType": "bool[]",
          "name": "checks",
          "type": "bool[]"
        }
      ],
      "stateMutability": "view",
      "type": "function"
    },
    {
      "inputs": [
        {
          "internalType": "address",
          "name": "addr",
          "type": "address"
        }
      ],
      "name": "isRegistered",
      "outputs": [
        {
          "internalType": "bool",
          "name": "",
          "type": "bool"
        }
      ],
      "stateMutability": "view",
      "type": "function"
    },
    {
      "inputs": [],
      "name": "owner",
      "outputs": [
        {
          "internalType": "address",
          "name": "",
          "type": "address"
        }
      ],
      "stateMutability": "view",
      "type": "function"
    },
    {
      "inputs": [],
      "name": "registerer",
      "outputs": [
        {
          "internalType": "address",
          "name": "",
          "type": "address"
        }
      ],
      "stateMutability": "view",
      "type": "function"
    },
    {
      "inputs": [
        {
          "internalType": "address",
          "name": "addr",
          "type": "address"
        }
      ],
      "name": "removeAddress",
      "outputs": [],
      "stateMutability": "nonpayable",
      "type": "function"
    },
    {
      "inputs": [
        {
          "internalType": "address",
          "name": "registerer_",
          "type": "address"
        }
      ],
      "name": "setRegisterer",
      "outputs": [],
      "stateMutability": "nonpayable",
      "type": "function"
    },
    {
      "inputs": [
        {
          "internalType": "bytes4",
          "name": "interfaceId",
          "type": "bytes4"
        }
      ],
      "name": "supportsInterface",
      "outputs": [
        {
          "internalType": "bool",
          "name": "",
          "type": "bool"
        }
      ],
      "stateMutability": "view",
      "type": "function"
    },
    {
      "inputs": [
        {
          "internalType": "address",
          "name": "newOwner",
          "type": "address"
        }
      ],
      "name": "transferOwnership",
      "outputs": [],
      "stateMutability": "nonpayable",
      "type": "function"
    }
  ],
  "transactionHash": "0x79e139bf12958503aca92c48eecfdbe437b18f92229c63b4c81abed0267c5c08",
  "args": [
    "0x6eebAe27d69fa80f0E4C0E973A2Fed218A56880c",
    "0xF6169393986b38e57D61187051c3F5B554796f83"
  ],
  "numDeployments": 2,
  "solcInputHash": "b4afde63fe1bc49daea17a74bf414cc8",
  "bytecode": "0x6101e06040526001600160e01b031960809081526301ffc9a760e01b60a0526380ac58cd60e01b60c052635b5e139f60e01b60e05263780e9d6360e01b61010052630a85bd0160e11b61012052636cdb3d1360e11b610140526303a24d0760e21b61016052630271189760e51b610180526307f5828d60e41b6101a05263152a902d60e11b6101c0526200009890600490600b62000587565b5060408051600b808252610180820190925290602082016101608036833750508151620000cd92600592506020019062000587565b50348015620000db57600080fd5b5060405162003ce738038062003ce7833981016040819052620000fe916200066e565b62000114826200049960201b620017291760201c565b6200012a816200050c60201b620017881760201c565b600162b7486560e01b031960056000815481106200014c576200014c620006a6565b90600052602060002090600891828204019190066004026101000a81548163ffffffff021916908360e01c021790555063118a575f60e01b60056001815481106200019b576200019b620006a6565b90600052602060002090600891828204019190066004026101000a81548163ffffffff021916908360e01c0217905550632e5e69fd60e01b6005600281548110620001ea57620001ea620006a6565b90600052602060002090600891828204019190066004026101000a81548163ffffffff021916908360e01c0217905550632e103c0560e11b6005600381548110620002395762000239620006a6565b90600052602060002090600891828204019190066004026101000a81548163ffffffff021916908360e01c02179055506398396bd360e01b6005600481548110620002885762000288620006a6565b90600052602060002090600891828204019190066004026101000a81548163ffffffff021916908360e01c0217905550634b68d43160e01b60058081548110620002d657620002d6620006a6565b90600052602060002090600891828204019190066004026101000a81548163ffffffff021916908360e01c0217905550633ab2af8560e21b6005600681548110620003255762000325620006a6565b90600052602060002090600891828204019190066004026101000a81548163ffffffff021916908360e01c0217905550636ca50ed960e11b6005600781548110620003745762000374620006a6565b90600052602060002090600891828204019190066004026101000a81548163ffffffff021916908360e01c0217905550635f5f00ef60e01b6005600881548110620003c357620003c3620006a6565b90600052602060002090600891828204019190066004026101000a81548163ffffffff021916908360e01c02179055506330323f1960e01b6005600981548110620004125762000412620006a6565b90600052602060002090600891828204019190066004026101000a81548163ffffffff021916908360e01c02179055506317812f2360e11b6005600a81548110620004615762000461620006a6565b90600052602060002090600891828204019190066004026101000a81548163ffffffff021916908360e01c02179055505050620006bc565b60005460ff1615620004f15760405162461bcd60e51b815260206004820152601360248201527f416c726561647920696e697469616c697a656400000000000000000000000000604482015260640160405180910390fd5b6000805460ff1916600117905562000509816200052e565b50565b600380546001600160a01b0319166001600160a01b0392909216919091179055565b600080546001600160a01b03838116610100818102610100600160a81b0319851617855560405193049190911692909183917f8be0079c531659141344cd1fd0a4f28419497f9722a3daafe3b4186f6b6457e091a35050565b82805482825590600052602060002090600701600890048101928215620006285791602002820160005b83821115620005f457835183826101000a81548163ffffffff021916908360e01c02179055509260200192600401602081600301049283019260010302620005b1565b8015620006265782816101000a81549063ffffffff0219169055600401602081600301049283019260010302620005f4565b505b50620006369291506200063a565b5090565b5b808211156200063657600081556001016200063b565b80516001600160a01b03811681146200066957600080fd5b919050565b600080604083850312156200068257600080fd5b6200068d8362000651565b91506200069d6020840162000651565b90509250929050565b634e487b7160e01b600052603260045260246000fd5b61361b80620006cc6000396000f3fe608060405234801561001057600080fd5b50600436106101735760003560e01c80636e228dab116100de578063c3c5a54711610097578063dceba60411610071578063dceba604146103d0578063e47a60f6146103f1578063ec530de614610415578063f2fde38b1461042657600080fd5b8063c3c5a5471461035d578063cdaafcd61461038b578063db668ce0146103ad57600080fd5b80636e228dab146102b65780638da5cb5b146102c9578063a39fac12146102f3578063a8e719ce14610308578063b172cbd11461031b578063c21ba2121461033d57600080fd5b8063490f06eb11610130578063490f06eb1461022a5780634ba79dfe1461024a57806350da677b1461025d5780635ee9a1d21461027d5780635fa15ebb14610290578063690682a4146102a357600080fd5b806301ffc9a7146101785780632eb723a2146101a057806334f8674a146101c05780633628731c146101e257806338eada1c146101f75780633f0faf1d1461020a575b600080fd5b61018b610186366004612a05565b610439565b60405190151581526020015b60405180910390f35b6101b36101ae366004612a40565b610464565b6040516101979190612bea565b6101d36101ce366004612c66565b61048f565b60405161019793929190612e31565b6101f56101f0366004612ee3565b610607565b005b6101f5610205366004612f17565b61064b565b61021d610218366004612c66565b610657565b6040516101979190612f34565b61023d610238366004612f17565b610716565b6040516101979190612f47565b6101f5610258366004612f17565b61074f565b61027061026b366004612fef565b610758565b60405161019791906130ab565b6101f561028b366004612f17565b61080f565b61018b61029e366004612f17565b610868565b61023d6102b13660046130cc565b61092f565b61023d6102c4366004612ee3565b610bd1565b60005461010090046001600160a01b03165b6040516001600160a01b039091168152602001610197565b6102fb610c7a565b6040516101979190613123565b6003546102db906001600160a01b031681565b61032e610329366004613164565b610cdc565b604051610197939291906131a6565b61035061034b366004613164565b610d99565b60405161019791906131fe565b61018b61036b366004612f17565b6001600160a01b0316600090815260016020819052604090912054101590565b61039e610399366004613211565b610db4565b60405161019793929190613257565b6103c06103bb366004612f17565b6111e0565b60405161019794939291906132e2565b6103e36103de366004612a40565b6114df565b604051610197929190613363565b6104046103ff366004613211565b61156f565b604051610197959493929190613391565b600254604051908152602001610197565b6101f5610434366004612f17565b6116d5565b60006001600160e01b0319821663667de68960e01b148061045e575061045e826117aa565b92915050565b61046c6128e4565b60408051600081526020810190915261048890849084906117cf565b9392505050565b60608061049a6128e4565b610523866000600580548060200260200160405190810160405280929190818152602001828054801561051957602002820191906000526020600020906000905b82829054906101000a900460e01b6001600160e01b031916815260200190600401906020826003010492830192600103820291508084116104db5790505b50505050506117cf565b9050610530868686610657565b925084516001600160401b0381111561054b5761054b612bfd565b60405190808252806020026020018201604052801561059657816020015b60408051606081018252600080825260208083018290529282015282526000199092019101816105695790505b50915060005b85518110156105fd576105cd878783815181106105bb576105bb6133df565b60200260200101518460c00151611ba9565b8382815181106105df576105df6133df565b602002602001018190525080806105f59061340b565b91505061059c565b5093509350939050565b60005b815181101561064757610635828281518110610628576106286133df565b6020026020010151611d29565b8061063f8161340b565b91505061060a565b5050565b61065481611d29565b50565b606082516001600160401b0381111561067257610672612bfd565b6040519080825280602002602001820160405280156106ab57816020015b61069861294b565b8152602001906001900390816106905790505b50905060005b835181101561070e576106de858583815181106106d0576106d06133df565b602002602001015185611e75565b8282815181106106f0576106f06133df565b602002602001018190525080806107069061340b565b9150506106b1565b509392505050565b606061045e8260016000604051908082528060200260200182016040528015610749578160200160208202803683370190505b5061092f565b61065481612247565b606083516001600160401b0381111561077357610773612bfd565b6040519080825280602002602001820160405280156107ac57816020015b6107996128e4565b8152602001906001900390816107915790505b50905060005b845181101561070e576107df8582815181106107d0576107d06133df565b602002602001015185856117cf565b8282815181106107f1576107f16133df565b602002602001018190525080806108079061340b565b9150506107b2565b60005461010090046001600160a01b0316331461085f5760405162461bcd60e51b81526020600482015260096024820152682737ba1037bbb732b960b91b60448201526064015b60405180910390fd5b61065481611788565b6000816000816001600160a01b03163b116108955760405162461bcd60e51b815260040161085690613426565b60006108a084610716565b9050806000815181106108b5576108b56133df565b60200260200101511580156108e15750806001815181106108d8576108d86133df565b60200260200101515b80156109255750806002815181106108fb576108fb6133df565b60200260200101518061092557508060068151811061091c5761091c6133df565b60200260200101515b9250505b50919050565b6060836000816001600160a01b03163b1161095c5760405162461bcd60e51b815260040161085690613426565b60008084518661096d576000610971565b6004545b61097b9190613451565b9050806001600160401b0381111561099557610995612bfd565b6040519080825280602002602001820160405280156109be578160200160208202803683370190505b5093508515610ad65760005b600454811015610ad457876001600160a01b03166301ffc9a7600483815481106109f6576109f66133df565b90600052602060002090600891828204019190066004029054906101000a900460e01b6040518263ffffffff1660e01b8152600401610a4591906001600160e01b031991909116815260200190565b60206040518083038186803b158015610a5d57600080fd5b505afa158015610a71573d6000803e3d6000fd5b505050506040513d601f19601f82011682018060405250810190610a959190613469565b8584610aa08161340b565b955081518110610ab257610ab26133df565b9115156020928302919091019091015280610acc8161340b565b9150506109ca565b505b60005b8551811015610bc657876001600160a01b03166301ffc9a7878381518110610b0357610b036133df565b60200260200101516040518263ffffffff1660e01b8152600401610b3791906001600160e01b031991909116815260200190565b60206040518083038186803b158015610b4f57600080fd5b505afa158015610b63573d6000803e3d6000fd5b505050506040513d601f19601f82011682018060405250810190610b879190613469565b8584610b928161340b565b955081518110610ba457610ba46133df565b9115156020928302919091019091015280610bbe8161340b565b915050610ad9565b505050509392505050565b606081516001600160401b03811115610bec57610bec612bfd565b604051908082528060200260200182016040528015610c15578160200160208202803683370190505b50905060005b825181101561092957610c46838281518110610c3957610c396133df565b6020026020010151610868565b828281518110610c5857610c586133df565b9115156020928302919091019091015280610c728161340b565b915050610c1b565b60606002805480602002602001604051908101604052809291908181526020018280548015610cd257602002820191906000526020600020905b81546001600160a01b03168152600190910190602001808311610cb4575b5050505050905090565b610ce461294b565b6040805160608101825260008082526020820181905291810191909152610d096128e4565b610d7086856005805480602002602001604051908101604052809291908181526020018280548015610519576000918252602091829020805460e01b6001600160e01b03191684529082028301929091600491018084116104db57905050505050506117cf565b9050610d7d868686610d99565b9250610d8e86868360c00151611ba9565b915093509350939050565b610da161294b565b610dac848484611e75565b949350505050565b60606000806000610dc488610716565b905080600281518110610dd957610dd96133df565b60200260200101518015610e04575080600481518110610dfb57610dfb6133df565b60200260200101515b156111d5576001600160a01b03871661101557876001600160a01b03166318160ddd6040518163ffffffff1660e01b815260040160206040518083038186803b158015610e5057600080fd5b505afa158015610e64573d6000803e3d6000fd5b505050506040513d601f19601f82011682018060405250810190610e889190613486565b915081851115610ecb5760405162461bcd60e51b815260206004820152600e60248201526d125b9d985b1a59081bd9999cd95d60921b6044820152606401610856565b81610ed68787613451565b1115610eeb57610ee6858361349f565b610eed565b855b9250826001600160401b03811115610f0757610f07612bfd565b604051908082528060200260200182016040528015610f4057816020015b610f2d61294b565b815260200190600190039081610f255790505b50935060005b8381101561100f57610fdf896001600160a01b038116634f6ccce7610f6b858b613451565b6040518263ffffffff1660e01b8152600401610f8991815260200190565b60206040518083038186803b158015610fa157600080fd5b505afa158015610fb5573d6000803e3d6000fd5b505050506040513d601f19601f82011682018060405250810190610fd99190613486565b8a611e75565b858281518110610ff157610ff16133df565b602002602001018190525080806110079061340b565b915050610f46565b506111d5565b6040516370a0823160e01b81526001600160a01b0388811660048301528916906370a082319060240160206040518083038186803b15801561105657600080fd5b505afa15801561106a573d6000803e3d6000fd5b505050506040513d601f19601f8201168201806040525081019061108e9190613486565b9150818511156110d15760405162461bcd60e51b815260206004820152600e60248201526d125b9d985b1a59081bd9999cd95d60921b6044820152606401610856565b816110dc8787613451565b11156110f1576110ec858361349f565b6110f3565b855b9250826001600160401b0381111561110d5761110d612bfd565b60405190808252806020026020018201604052801561114657816020015b61113361294b565b81526020019060019003908161112b5790505b50935060005b838110156111d3576111a3896001600160a01b038116632f745c598b611172868c613451565b6040516001600160e01b031960e085901b1681526001600160a01b0390921660048301526024820152604401610f89565b8582815181106111b5576111b56133df565b602002602001018190525080806111cb9061340b565b91505061114c565b505b509450945094915050565b60608060008060006112776111f3610c7a565b87600580548060200260200160405190810160405280929190818152602001828054801561126d57602002820191906000526020600020906000905b82829054906101000a900460e01b6001600160e01b0319168152602001906004019060208260030104928301926001038202915080841161122f5790505b5050505050610758565b90508051915060005b815181101561130857600082828151811061129d5761129d6133df565b602002602001015160a0015111806112e35750866001600160a01b03168282815181106112cc576112cc6133df565b6020026020010151602001516001600160a01b0316145b156112f657836112f28161340b565b9450505b806113008161340b565b915050611280565b50826001600160401b0381111561132157611321612bfd565b60405190808252806020026020018201604052801561135a57816020015b6113476128e4565b81526020019060019003908161133f5790505b509450826001600160401b0381111561137557611375612bfd565b6040519080825280602002602001820160405280156113ae57816020015b61139b61299e565b8152602001906001900390816113935790505b5093506000805b838110156114d55760008382815181106113d1576113d16133df565b602002602001015160a0015111806114175750876001600160a01b0316838281518110611400576114006133df565b6020026020010151602001516001600160a01b0316145b156114c35782818151811061142e5761142e6133df565b6020026020010151878381518110611448576114486133df565b6020026020010181905250611497838281518110611468576114686133df565b602002602001015160000151848381518110611486576114866133df565b602002602001015160c00151612429565b8683815181106114a9576114a96133df565b602002602001018190525081806114bf9061340b565b9250505b806114cd8161340b565b9150506113b5565b5050509193509193565b6114e76128e4565b6114ef61299e565b61155684846005805480602002602001604051908101604052809291908181526020018280548015610519576000918252602091829020805460e01b6001600160e01b03191684529082028301929091600491018084116104db57905050505050506117cf565b9150611566848360c00151612429565b90509250929050565b60608061157a6128e4565b6000806115e489896005805480602002602001604051908101604052809291908181526020018280548015610519576000918252602091829020805460e01b6001600160e01b03191684529082028301929091600491018084116104db57905050505050506117cf565b92506115f289898989610db4565b825192975090935091506001600160401b0381111561161357611613612bfd565b60405190808252806020026020018201604052801561165e57816020015b60408051606081018252600080825260208083018290529282015282526000199092019101816116315790505b50935060005b85518110156116c9576116998a878381518110611683576116836133df565b6020026020010151600001518660c00151611ba9565b8582815181106116ab576116ab6133df565b602002602001018190525080806116c19061340b565b915050611664565b50945094509450945094565b60005461010090046001600160a01b031633146117205760405162461bcd60e51b81526020600482015260096024820152682737ba1037bbb732b960b91b6044820152606401610856565b610654816127f6565b60005460ff16156117725760405162461bcd60e51b8152602060048201526013602482015272105b1c9958591e481a5b9a5d1a585b1a5e9959606a1b6044820152606401610856565b6000805460ff19166001179055610654816127f6565b600380546001600160a01b0319166001600160a01b0392909216919091179055565b60006001600160e01b031982166350da677b60e01b148061045e575061045e8261284f565b6117d76128e4565b836000816001600160a01b03163b116118025760405162461bcd60e51b815260040161085690613426565b60006118108660018661092f565b9050808360c001819052508060008151811061182e5761182e6133df565b602002602001015115801561185a575080600181518110611851576118516133df565b60200260200101515b6118935760405162461bcd60e51b815260206004820152600a6024820152694e6f742045524331363560b01b6044820152606401610856565b806002815181106118a6576118a66133df565b6020026020010151806118d05750806006815181106118c7576118c76133df565b60200260200101515b6119145760405162461bcd60e51b8152602060048201526015602482015274139bdd08139195081cdb585c9d18dbdb9d1c9858dd605a1b6044820152606401610856565b6001600160a01b03861680845260408051638da5cb5b60e01b81529051638da5cb5b91600480820192602092909190829003018186803b15801561195757600080fd5b505afa925050508015611987575060408051601f3d908101601f19168201909252611984918101906134b6565b60015b6119905761199f565b6001600160a01b031660208401525b856001600160a01b03166306fdde036040518163ffffffff1660e01b815260040160006040518083038186803b1580156119d857600080fd5b505afa925050508015611a0d57506040513d6000823e601f3d908101601f19168201604052611a0a91908101906134d3565b60015b611a1657611a1c565b60408401525b856001600160a01b03166395d89b416040518163ffffffff1660e01b815260040160006040518083038186803b158015611a5557600080fd5b505afa925050508015611a8a57506040513d6000823e601f3d908101601f19168201604052611a8791908101906134d3565b60015b611a9357611a99565b60608401525b856001600160a01b03166318160ddd6040518163ffffffff1660e01b815260040160206040518083038186803b158015611ad257600080fd5b505afa925050508015611b02575060408051601f3d908101601f19168201909252611aff91810190613486565b60015b611b0b57611b11565b60808401525b6001600160a01b03851615611ba0576040516370a0823160e01b81526001600160a01b0386811660048301528716906370a082319060240160206040518083038186803b158015611b6157600080fd5b505afa925050508015611b91575060408051601f3d908101601f19168201909252611b8e91810190613486565b60015b611b9a57611ba0565b60a08401525b50509392505050565b604080516060810182526000808252602082018190529181019190915281600a81518110611bd957611bd96133df565b602002602001015115611c885760405163152a902d60e11b81526004810184905261271060248201526000906001600160a01b03861690632a55205a90604401604080518083038186803b158015611c3057600080fd5b505afa158015611c44573d6000803e3d6000fd5b505050506040513d601f19601f82011682018060405250810190611c689190613566565b6001600160a01b0390911660208401526001600160601b03166040830152505b81600e81518110611c9b57611c9b6133df565b60200260200101511561048857604051636a6ee74560e11b8152600481018490526001600160a01b0385169063d4ddce8a9060240160206040518083038186803b158015611ce857600080fd5b505afa158015611cfc573d6000803e3d6000fd5b505050506040513d601f19601f82011682018060405250810190611d209190613486565b81529392505050565b60005461010090046001600160a01b03166001600160a01b0316336001600160a01b03161480611d6357506003546001600160a01b031633145b611daa5760405162461bcd60e51b81526020600482015260186024820152772737ba103932b3b4b9ba32b932b9103737b91037bbb732b960411b6044820152606401610856565b80611db481610868565b611df15760405162461bcd60e51b815260206004820152600e60248201526d2737ba1021b7b63632b1ba34b7b760911b6044820152606401610856565b6001600160a01b0382166000908152600160208190526040909120541015610647575060028054600180820183557f405787fa12a823e0f2b7631cc41b3ba8828b3321ca811111fa75cd3aa3bb5ace90910180546001600160a01b0319166001600160a01b0394909416938417905590546000928352602091909152604090912055565b611e7d61294b565b836000816001600160a01b03163b11611ea85760405162461bcd60e51b815260040161085690613426565b83825260405163020604bf60e21b8152600481018590526001600160a01b0386169063081812fc9060240160206040518083038186803b158015611eeb57600080fd5b505afa158015611eff573d6000803e3d6000fd5b505050506040513d601f19601f82011682018060405250810190611f2391906134b6565b6001600160a01b0390811660608401526040516331a9108f60e11b81526004810186905290861690636352211e9060240160206040518083038186803b158015611f6c57600080fd5b505afa158015611f80573d6000803e3d6000fd5b505050506040513d601f19601f82011682018060405250810190611fa491906134b6565b6001600160a01b03908116604084810191909152516301ffc9a760e01b8152635b5e139f60e01b6004820152908616906301ffc9a79060240160206040518083038186803b158015611ff557600080fd5b505afa158015612009573d6000803e3d6000fd5b505050506040513d601f19601f8201168201806040525081019061202d9190613469565b156120b85760405163c87b56dd60e01b8152600481018590526001600160a01b0386169063c87b56dd9060240160006040518083038186803b15801561207257600080fd5b505afa158015612086573d6000803e3d6000fd5b505050506040513d6000823e601f3d908101601f191682016040526120ae91908101906134d3565b602083015261070e565b6040516301ffc9a760e01b81526303a24d0760e21b60048201526001600160a01b038616906301ffc9a79060240160206040518083038186803b1580156120fe57600080fd5b505afa158015612112573d6000803e3d6000fd5b505050506040513d601f19601f820116820180604052508101906121369190613469565b1561070e576040516303a24d0760e21b8152600481018590526001600160a01b03861690630e89341c9060240160006040518083038186803b15801561217b57600080fd5b505afa15801561218f573d6000803e3d6000fd5b505050506040513d6000823e601f3d908101601f191682016040526121b791908101906134d3565b6020830152604051627eeac760e11b81526001600160a01b0384811660048301526024820186905286169062fdd58e9060440160206040518083038186803b15801561220257600080fd5b505afa158015612216573d6000803e3d6000fd5b505050506040513d601f19601f8201168201806040525081019061223a9190613486565b6080830152509392505050565b60005461010090046001600160a01b03166001600160a01b0316336001600160a01b0316148061228157506003546001600160a01b031633145b6122c85760405162461bcd60e51b81526020600482015260186024820152772737ba103932b3b4b9ba32b932b9103737b91037bbb732b960411b6044820152606401610856565b6001600160a01b03811660009081526001602081905260409091205410156123235760405162461bcd60e51b815260206004820152600e60248201526d139bdd081c9959da5cdd195c995960921b6044820152606401610856565b6001600160a01b03811660009081526001602052604090205460025481146123d95760028054600091906123599060019061349f565b81548110612369576123696133df565b6000918252602090912001546001600160a01b0316905080600261238e60018561349f565b8154811061239e5761239e6133df565b600091825260208083209190910180546001600160a01b0319166001600160a01b039485161790559290911681526001909152604090208190555b6001600160a01b038216600090815260016020526040812055600280548061240357612403613594565b600082815260209020810160001990810180546001600160a01b03191690550190555050565b61243161299e565b81600d81518110612444576124446133df565b6020026020010151156125c557826001600160a01b03166354fd4d506040518163ffffffff1660e01b815260040160206040518083038186803b15801561248a57600080fd5b505afa15801561249e573d6000803e3d6000fd5b505050506040513d601f19601f820116820180604052508101906124c29190613486565b816000018181525050826001600160a01b0316636f2ddd936040518163ffffffff1660e01b815260040160006040518083038186803b15801561250457600080fd5b505afa158015612518573d6000803e3d6000fd5b505050506040513d6000823e601f3d908101601f1916820160405261254091908101906134d3565b8160200181905250826001600160a01b031663fcfff16f6040518163ffffffff1660e01b815260040160206040518083038186803b15801561258157600080fd5b505afa158015612595573d6000803e3d6000fd5b505050506040513d601f19601f820116820180604052508101906125b99190613469565b151560408201526126cb565b816013815181106125d8576125d86133df565b6020026020010151156126545760038160000181815250506040518060400160405280600a8152602001694f70656e4e465473563360b01b8152508160200181905250826001600160a01b031663fcfff16f6040518163ffffffff1660e01b815260040160206040518083038186803b15801561258157600080fd5b81601281518110612667576126676133df565b60200260200101511561267d57600281526126cb565b81601181518110612690576126906133df565b6020026020010151156126a657600181526126cb565b816010815181106126b9576126b96133df565b6020026020010151156126cb57600081525b81600e815181106126de576126de6133df565b60200260200101511561045e57826001600160a01b031663b24f2d396040518163ffffffff1660e01b8152600401604080518083038186803b15801561272357600080fd5b505afa158015612737573d6000803e3d6000fd5b505050506040513d601f19601f8201168201806040525081019061275b91906135aa565b6001600160601b031660a08301526001600160a01b0390811660808301526040805163e69e04b360e01b815290519185169163e69e04b391600480820192602092909190829003018186803b1580156127b357600080fd5b505afa1580156127c7573d6000803e3d6000fd5b505050506040513d601f19601f820116820180604052508101906127eb9190613486565b606082015292915050565b600080546001600160a01b03838116610100818102610100600160a81b0319851617855560405193049190911692909183917f8be0079c531659141344cd1fd0a4f28419497f9722a3daafe3b4186f6b6457e091a35050565b60006001600160e01b03198216631e09d27b60e01b148061045e575061045e8260006001600160e01b0319821663118a575f60e01b148061045e575061045e8260006001600160e01b03198216633f62885160e01b148061045e575061045e8260006307f5828d60e41b6001600160e01b03198316148061045e57506001600160e01b031982166301ffc9a760e01b1461045e565b60405180610100016040528060006001600160a01b0316815260200160006001600160a01b0316815260200160608152602001606081526020016000815260200160008152602001606081526020016000600181111561294657612946612b12565b905290565b6040518060c00160405280600081526020016060815260200160006001600160a01b0316815260200160006001600160a01b03168152602001600081526020016000600181111561294657612946612b12565b6040518060c0016040528060008152602001606081526020016000151581526020016000815260200160006001600160a01b0316815260200160006001600160601b031681525090565b80356001600160e01b031981168114612a0057600080fd5b919050565b600060208284031215612a1757600080fd5b610488826129e8565b6001600160a01b038116811461065457600080fd5b8035612a0081612a20565b60008060408385031215612a5357600080fd5b8235612a5e81612a20565b91506020830135612a6e81612a20565b809150509250929050565b60005b83811015612a94578181015183820152602001612a7c565b83811115612aa3576000848401525b50505050565b60008151808452612ac1816020860160208601612a79565b601f01601f19169290920160200192915050565b600081518084526020808501945080840160005b83811015612b07578151151587529582019590820190600101612ae9565b509495945050505050565b634e487b7160e01b600052602160045260246000fd5b60028110612b4657634e487b7160e01b600052602160045260246000fd5b9052565b600061010060018060a01b0383511684526020830151612b7560208601826001600160a01b03169052565b506040830151816040860152612b8d82860182612aa9565b91505060608301518482036060860152612ba78282612aa9565b9150506080830151608085015260a083015160a085015260c083015184820360c0860152612bd58282612ad5565b91505060e083015161070e60e0860182612b28565b6020815260006104886020830184612b4a565b634e487b7160e01b600052604160045260246000fd5b604051601f8201601f191681016001600160401b0381118282101715612c3b57612c3b612bfd565b604052919050565b60006001600160401b03821115612c5c57612c5c612bfd565b5060051b60200190565b600080600060608486031215612c7b57600080fd5b8335612c8681612a20565b92506020848101356001600160401b03811115612ca257600080fd5b8501601f81018713612cb357600080fd5b8035612cc6612cc182612c43565b612c13565b81815260059190911b82018301908381019089831115612ce557600080fd5b928401925b82841015612d0357833582529284019290840190612cea565b8096505050505050612d1760408501612a35565b90509250925092565b805182526000602082015160c06020850152612d3f60c0850182612aa9565b9050604083015160018060a01b03808216604087015280606086015116606087015250506080830151608085015260a083015161070e60a0860182612b28565b6000815180845260208085019450848260051b860182860160005b85811015612dc4578383038952612db2838351612d20565b98850198925090840190600101612d9a565b5090979650505050505050565b600081518084526020808501945080840160005b83811015612b0757612e1e878351805182526020808201516001600160a01b0316908301526040908101516001600160601b0316910152565b6060969096019590820190600101612de5565b606081526000612e446060830186612d7f565b8281036020840152612e568186612dd1565b90508281036040840152612e6a8185612b4a565b9695505050505050565b600082601f830112612e8557600080fd5b81356020612e95612cc183612c43565b82815260059290921b84018101918181019086841115612eb457600080fd5b8286015b84811015612ed8578035612ecb81612a20565b8352918301918301612eb8565b509695505050505050565b600060208284031215612ef557600080fd5b81356001600160401b03811115612f0b57600080fd5b610dac84828501612e74565b600060208284031215612f2957600080fd5b813561048881612a20565b6020815260006104886020830184612d7f565b6020808252825182820181905260009190848201906040850190845b81811015612f81578351151583529284019291840191600101612f63565b50909695505050505050565b600082601f830112612f9e57600080fd5b81356020612fae612cc183612c43565b82815260059290921b84018101918181019086841115612fcd57600080fd5b8286015b84811015612ed857612fe2816129e8565b8352918301918301612fd1565b60008060006060848603121561300457600080fd5b83356001600160401b038082111561301b57600080fd5b61302787838801612e74565b94506020860135915061303982612a20565b9092506040850135908082111561304f57600080fd5b5061305c86828701612f8d565b9150509250925092565b6000815180845260208085019450848260051b860182860160005b85811015612dc4578383038952613099838351612b4a565b98850198925090840190600101613081565b6020815260006104886020830184613066565b801515811461065457600080fd5b6000806000606084860312156130e157600080fd5b83356130ec81612a20565b925060208401356130fc816130be565b915060408401356001600160401b0381111561311757600080fd5b61305c86828701612f8d565b6020808252825182820181905260009190848201906040850190845b81811015612f815783516001600160a01b03168352928401929184019160010161313f565b60008060006060848603121561317957600080fd5b833561318481612a20565b925060208401359150604084013561319b81612a20565b809150509250925092565b60a0815260006131b960a0830186612d20565b6131ec6020840186805182526020808201516001600160a01b0316908301526040908101516001600160601b0316910152565b8281036080840152612e6a8185612b4a565b6020815260006104886020830184612d20565b6000806000806080858703121561322757600080fd5b843561323281612a20565b9350602085013561324281612a20565b93969395505050506040820135916060013590565b60608152600061326a6060830186612d7f565b60208301949094525060400152919050565b805182526000602082015160c0602085015261329b60c0850182612aa9565b604084810151151590860152606080850151908601526080808501516001600160a01b03169086015260a0938401516001600160601b031693909401929092525090919050565b6080815260006132f56080830187613066565b6020838203818501528187518084528284019150828160051b850101838a0160005b8381101561334557601f1987840301855261333383835161327c565b94860194925090850190600101613317565b50506040870198909852505050506060909101919091525092915050565b6040815260006133766040830185612b4a565b8281036020840152613388818561327c565b95945050505050565b60a0815260006133a460a0830188612d7f565b82810360208401526133b68188612dd1565b905082810360408401526133ca8187612b4a565b60608401959095525050608001529392505050565b634e487b7160e01b600052603260045260246000fd5b634e487b7160e01b600052601160045260246000fd5b600060001982141561341f5761341f6133f5565b5060010190565b602080825260119082015270139bdd081cdb585c9d18dbdb9d1c9858dd607a1b604082015260600190565b60008219821115613464576134646133f5565b500190565b60006020828403121561347b57600080fd5b8151610488816130be565b60006020828403121561349857600080fd5b5051919050565b6000828210156134b1576134b16133f5565b500390565b6000602082840312156134c857600080fd5b815161048881612a20565b6000602082840312156134e557600080fd5b81516001600160401b03808211156134fc57600080fd5b818401915084601f83011261351057600080fd5b81518181111561352257613522612bfd565b613535601f8201601f1916602001612c13565b915080825285602082850101111561354c57600080fd5b61355d816020840160208601612a79565b50949350505050565b6000806040838503121561357957600080fd5b825161358481612a20565b6020939093015192949293505050565b634e487b7160e01b600052603160045260246000fd5b600080604083850312156135bd57600080fd5b82516135c881612a20565b60208401519092506001600160601b0381168114612a6e57600080fdfea2646970667358221220772ee9aa45c083be5942e7c6e58a9d0af3fe6a9562b3da358a90fce19739ceab64736f6c63430008090033",
  "devdoc": {
    "kind": "dev",
    "methods": {},
    "version": 1
  },
  "userdoc": {
    "kind": "user",
    "methods": {},
    "version": 1
  },
  "storageLayout": {
    "storage": [
      {
        "astId": 5130,
        "contract": "contracts/next/OpenNFTsResolver.sol:OpenNFTsResolver",
        "label": "_openERC173Initialized",
        "offset": 0,
        "slot": "0",
        "type": "t_bool"
      },
      {
        "astId": 5132,
        "contract": "contracts/next/OpenNFTsResolver.sol:OpenNFTsResolver",
        "label": "_owner",
        "offset": 1,
        "slot": "0",
        "type": "t_address"
      },
      {
        "astId": 8316,
        "contract": "contracts/next/OpenNFTsResolver.sol:OpenNFTsResolver",
        "label": "_numAddress",
        "offset": 0,
        "slot": "1",
        "type": "t_mapping(t_address,t_uint256)"
      },
      {
        "astId": 8319,
        "contract": "contracts/next/OpenNFTsResolver.sol:OpenNFTsResolver",
        "label": "_addresses",
        "offset": 0,
        "slot": "2",
        "type": "t_array(t_address)dyn_storage"
      },
      {
        "astId": 8321,
        "contract": "contracts/next/OpenNFTsResolver.sol:OpenNFTsResolver",
        "label": "registerer",
        "offset": 0,
        "slot": "3",
        "type": "t_address"
      },
      {
        "astId": 7483,
        "contract": "contracts/next/OpenNFTsResolver.sol:OpenNFTsResolver",
        "label": "_ercInterfaceIds",
        "offset": 0,
        "slot": "4",
        "type": "t_array(t_bytes4)dyn_storage"
      },
      {
        "astId": 20911,
        "contract": "contracts/next/OpenNFTsResolver.sol:OpenNFTsResolver",
        "label": "_interfaceIds",
        "offset": 0,
        "slot": "5",
        "type": "t_array(t_bytes4)dyn_storage"
      }
    ],
    "types": {
      "t_address": {
        "encoding": "inplace",
        "label": "address",
        "numberOfBytes": "20"
      },
      "t_array(t_address)dyn_storage": {
        "base": "t_address",
        "encoding": "dynamic_array",
        "label": "address[]",
        "numberOfBytes": "32"
      },
      "t_array(t_bytes4)dyn_storage": {
        "base": "t_bytes4",
        "encoding": "dynamic_array",
        "label": "bytes4[]",
        "numberOfBytes": "32"
      },
      "t_bool": {
        "encoding": "inplace",
        "label": "bool",
        "numberOfBytes": "1"
      },
      "t_bytes4": {
        "encoding": "inplace",
        "label": "bytes4",
        "numberOfBytes": "4"
      },
      "t_mapping(t_address,t_uint256)": {
        "encoding": "mapping",
        "key": "t_address",
        "label": "mapping(address => uint256)",
        "numberOfBytes": "32",
        "value": "t_uint256"
      },
      "t_uint256": {
        "encoding": "inplace",
        "label": "uint256",
        "numberOfBytes": "32"
      }
    }
  }
}