{
    "abi": [
        {
            "type": "function",
            "name": "approve",
            "inputs": [
                {
                    "name": "spender",
                    "type": "address",
                    "internalType": "address"
                },
                {
                    "name": "tokenID",
                    "type": "uint256",
                    "internalType": "uint256"
                }
            ],
            "outputs": [],
            "stateMutability": "nonpayable"
        },
        {
            "type": "function",
            "name": "balanceOf",
            "inputs": [
                {
                    "name": "owner",
                    "type": "address",
                    "internalType": "address"
                }
            ],
            "outputs": [
                {
                    "name": "",
                    "type": "uint256",
                    "internalType": "uint256"
                }
            ],
            "stateMutability": "view"
        },
        {
            "type": "function",
            "name": "burn",
            "inputs": [
                {
                    "name": "tokenID",
                    "type": "uint256",
                    "internalType": "uint256"
                }
            ],
            "outputs": [],
            "stateMutability": "nonpayable"
        },
        {
            "type": "function",
            "name": "cooldownPeriod",
            "inputs": [],
            "outputs": [
                {
                    "name": "",
                    "type": "uint256",
                    "internalType": "uint256"
                }
            ],
            "stateMutability": "view"
        },
        {
            "type": "function",
            "name": "getApproved",
            "inputs": [
                {
                    "name": "tokenID",
                    "type": "uint256",
                    "internalType": "uint256"
                }
            ],
            "outputs": [
                {
                    "name": "",
                    "type": "address",
                    "internalType": "address"
                }
            ],
            "stateMutability": "view"
        },
        {
            "type": "function",
            "name": "initialize",
            "inputs": [
                {
                    "name": "name_",
                    "type": "string",
                    "internalType": "string"
                },
                {
                    "name": "symbol_",
                    "type": "string",
                    "internalType": "string"
                },
                {
                    "name": "owner_",
                    "type": "address",
                    "internalType": "address"
                },
                {
                    "name": "params_",
                    "type": "bytes",
                    "internalType": "bytes"
                }
            ],
            "outputs": [],
            "stateMutability": "nonpayable"
        },
        {
            "type": "function",
            "name": "initialized",
            "inputs": [],
            "outputs": [
                {
                    "name": "",
                    "type": "bool",
                    "internalType": "bool"
                }
            ],
            "stateMutability": "view"
        },
        {
            "type": "function",
            "name": "isApprovedForAll",
            "inputs": [
                {
                    "name": "owner",
                    "type": "address",
                    "internalType": "address"
                },
                {
                    "name": "operator",
                    "type": "address",
                    "internalType": "address"
                }
            ],
            "outputs": [
                {
                    "name": "",
                    "type": "bool",
                    "internalType": "bool"
                }
            ],
            "stateMutability": "view"
        },
        {
            "type": "function",
            "name": "mint",
            "inputs": [
                {
                    "name": "minter",
                    "type": "address",
                    "internalType": "address"
                },
                {
                    "name": "tokenURI_",
                    "type": "string",
                    "internalType": "string"
                }
            ],
            "outputs": [
                {
                    "name": "tokenID",
                    "type": "uint256",
                    "internalType": "uint256"
                }
            ],
            "stateMutability": "nonpayable"
        },
        {
            "type": "function",
            "name": "mint",
            "inputs": [
                {
                    "name": "tokenURI_",
                    "type": "string",
                    "internalType": "string"
                }
            ],
            "outputs": [
                {
                    "name": "tokenID",
                    "type": "uint256",
                    "internalType": "uint256"
                }
            ],
            "stateMutability": "nonpayable"
        },
        {
            "type": "function",
            "name": "name",
            "inputs": [],
            "outputs": [
                {
                    "name": "",
                    "type": "string",
                    "internalType": "string"
                }
            ],
            "stateMutability": "view"
        },
        {
            "type": "function",
            "name": "open",
            "inputs": [],
            "outputs": [
                {
                    "name": "",
                    "type": "bool",
                    "internalType": "bool"
                }
            ],
            "stateMutability": "view"
        },
        {
            "type": "function",
            "name": "owner",
            "inputs": [],
            "outputs": [
                {
                    "name": "",
                    "type": "address",
                    "internalType": "address"
                }
            ],
            "stateMutability": "view"
        },
        {
            "type": "function",
            "name": "ownerOf",
            "inputs": [
                {
                    "name": "tokenID",
                    "type": "uint256",
                    "internalType": "uint256"
                }
            ],
            "outputs": [
                {
                    "name": "",
                    "type": "address",
                    "internalType": "address"
                }
            ],
            "stateMutability": "view"
        },
        {
            "type": "function",
            "name": "parent",
            "inputs": [],
            "outputs": [
                {
                    "name": "parent_",
                    "type": "address",
                    "internalType": "address"
                }
            ],
            "stateMutability": "view"
        },
        {
            "type": "function",
            "name": "safeTransferFrom",
            "inputs": [
                {
                    "name": "from",
                    "type": "address",
                    "internalType": "address"
                },
                {
                    "name": "to",
                    "type": "address",
                    "internalType": "address"
                },
                {
                    "name": "tokenID",
                    "type": "uint256",
                    "internalType": "uint256"
                }
            ],
            "outputs": [],
            "stateMutability": "payable"
        },
        {
            "type": "function",
            "name": "safeTransferFrom",
            "inputs": [
                {
                    "name": "from",
                    "type": "address",
                    "internalType": "address"
                },
                {
                    "name": "to",
                    "type": "address",
                    "internalType": "address"
                },
                {
                    "name": "tokenID",
                    "type": "uint256",
                    "internalType": "uint256"
                },
                {
                    "name": "data",
                    "type": "bytes",
                    "internalType": "bytes"
                }
            ],
            "outputs": [],
            "stateMutability": "payable"
        },
        {
            "type": "function",
            "name": "setApprovalForAll",
            "inputs": [
                {
                    "name": "operator",
                    "type": "address",
                    "internalType": "address"
                },
                {
                    "name": "approved",
                    "type": "bool",
                    "internalType": "bool"
                }
            ],
            "outputs": [],
            "stateMutability": "nonpayable"
        },
        {
            "type": "function",
            "name": "setCooldownPeriod",
            "inputs": [
                {
                    "name": "cooldownPeriod_",
                    "type": "uint256",
                    "internalType": "uint256"
                }
            ],
            "outputs": [],
            "stateMutability": "nonpayable"
        },
        {
            "type": "function",
            "name": "setTokenUriMaxLength",
            "inputs": [
                {
                    "name": "tokenUriMaxLength_",
                    "type": "uint256",
                    "internalType": "uint256"
                }
            ],
            "outputs": [],
            "stateMutability": "nonpayable"
        },
        {
            "type": "function",
            "name": "supportsInterface",
            "inputs": [
                {
                    "name": "interfaceId",
                    "type": "bytes4",
                    "internalType": "bytes4"
                }
            ],
            "outputs": [
                {
                    "name": "",
                    "type": "bool",
                    "internalType": "bool"
                }
            ],
            "stateMutability": "view"
        },
        {
            "type": "function",
            "name": "symbol",
            "inputs": [],
            "outputs": [
                {
                    "name": "",
                    "type": "string",
                    "internalType": "string"
                }
            ],
            "stateMutability": "view"
        },
        {
            "type": "function",
            "name": "template",
            "inputs": [],
            "outputs": [
                {
                    "name": "",
                    "type": "string",
                    "internalType": "string"
                }
            ],
            "stateMutability": "view"
        },
        {
            "type": "function",
            "name": "tokenByIndex",
            "inputs": [
                {
                    "name": "index",
                    "type": "uint256",
                    "internalType": "uint256"
                }
            ],
            "outputs": [
                {
                    "name": "",
                    "type": "uint256",
                    "internalType": "uint256"
                }
            ],
            "stateMutability": "view"
        },
        {
            "type": "function",
            "name": "tokenIdNext",
            "inputs": [],
            "outputs": [
                {
                    "name": "",
                    "type": "uint256",
                    "internalType": "uint256"
                }
            ],
            "stateMutability": "view"
        },
        {
            "type": "function",
            "name": "tokenOfOwnerByIndex",
            "inputs": [
                {
                    "name": "owner",
                    "type": "address",
                    "internalType": "address"
                },
                {
                    "name": "index",
                    "type": "uint256",
                    "internalType": "uint256"
                }
            ],
            "outputs": [
                {
                    "name": "",
                    "type": "uint256",
                    "internalType": "uint256"
                }
            ],
            "stateMutability": "view"
        },
        {
            "type": "function",
            "name": "tokenURI",
            "inputs": [
                {
                    "name": "tokenID",
                    "type": "uint256",
                    "internalType": "uint256"
                }
            ],
            "outputs": [
                {
                    "name": "",
                    "type": "string",
                    "internalType": "string"
                }
            ],
            "stateMutability": "view"
        },
        {
            "type": "function",
            "name": "tokenUriMaxLength",
            "inputs": [],
            "outputs": [
                {
                    "name": "",
                    "type": "uint256",
                    "internalType": "uint256"
                }
            ],
            "stateMutability": "view"
        },
        {
            "type": "function",
            "name": "totalSupply",
            "inputs": [],
            "outputs": [
                {
                    "name": "",
                    "type": "uint256",
                    "internalType": "uint256"
                }
            ],
            "stateMutability": "view"
        },
        {
            "type": "function",
            "name": "transferFrom",
            "inputs": [
                {
                    "name": "from",
                    "type": "address",
                    "internalType": "address"
                },
                {
                    "name": "to",
                    "type": "address",
                    "internalType": "address"
                },
                {
                    "name": "tokenID",
                    "type": "uint256",
                    "internalType": "uint256"
                }
            ],
            "outputs": [],
            "stateMutability": "payable"
        },
        {
            "type": "function",
            "name": "transferOwnership",
            "inputs": [
                {
                    "name": "newOwner",
                    "type": "address",
                    "internalType": "address"
                }
            ],
            "outputs": [],
            "stateMutability": "nonpayable"
        },
        {
            "type": "function",
            "name": "version",
            "inputs": [],
            "outputs": [
                {
                    "name": "",
                    "type": "uint256",
                    "internalType": "uint256"
                }
            ],
            "stateMutability": "view"
        },
        {
            "type": "event",
            "name": "Approval",
            "inputs": [
                {
                    "name": "owner",
                    "type": "address",
                    "indexed": true,
                    "internalType": "address"
                },
                {
                    "name": "approved",
                    "type": "address",
                    "indexed": true,
                    "internalType": "address"
                },
                {
                    "name": "tokenId",
                    "type": "uint256",
                    "indexed": true,
                    "internalType": "uint256"
                }
            ],
            "anonymous": false
        },
        {
            "type": "event",
            "name": "ApprovalForAll",
            "inputs": [
                {
                    "name": "owner",
                    "type": "address",
                    "indexed": true,
                    "internalType": "address"
                },
                {
                    "name": "operator",
                    "type": "address",
                    "indexed": true,
                    "internalType": "address"
                },
                {
                    "name": "approved",
                    "type": "bool",
                    "indexed": false,
                    "internalType": "bool"
                }
            ],
            "anonymous": false
        },
        {
            "type": "event",
            "name": "OwnershipTransferred",
            "inputs": [
                {
                    "name": "previousOwner",
                    "type": "address",
                    "indexed": true,
                    "internalType": "address"
                },
                {
                    "name": "newOwner",
                    "type": "address",
                    "indexed": true,
                    "internalType": "address"
                }
            ],
            "anonymous": false
        },
        {
            "type": "event",
            "name": "Transfer",
            "inputs": [
                {
                    "name": "from",
                    "type": "address",
                    "indexed": true,
                    "internalType": "address"
                },
                {
                    "name": "to",
                    "type": "address",
                    "indexed": true,
                    "internalType": "address"
                },
                {
                    "name": "tokenId",
                    "type": "uint256",
                    "indexed": true,
                    "internalType": "uint256"
                }
            ],
            "anonymous": false
        }
    ],
    "bytecode": {
        "object": "0x608060405260001960115560001960125534801561001c57600080fd5b506122f98061002c6000396000f3fe6080604052600436106101e25760003560e01c806360f96a8f11610102578063a22cb46511610095578063d85d3d2711610064578063d85d3d271461052f578063e985e9c51461054f578063f2fde38b14610598578063fcfff16f146105b857600080fd5b8063a22cb465146104bc578063b88d4fde146104dc578063c87b56dd146104ef578063d0def5211461050f57600080fd5b806380ea3de1116100d157806380ea3de11461044e5780638bbf58b31461046e5780638da5cb5b1461048457806395d89b41146104a757600080fd5b806360f96a8f146103e45780636352211e146103f95780636f2ddd931461041957806370a082311461042e57600080fd5b80631eb40e211161017a57806342842e0e1161014957806342842e0e1461037b57806342966c681461038e5780634f6ccce7146103ae57806354fd4d50146103ce57600080fd5b80631eb40e211461031257806323b872dd146103325780632468b97b146103455780632f745c591461035b57600080fd5b8063081812fc116101b6578063081812fc14610284578063095ea7b3146102bc578063158ef93e146102dc57806318160ddd146102fd57600080fd5b8062080e33146101e757806301ffc9a71461020957806304646a491461023e57806306fdde0314610262575b600080fd5b3480156101f357600080fd5b50610207610202366004611a54565b6105d2565b005b34801561021557600080fd5b50610229610224366004611a83565b61060f565b60405190151581526020015b60405180910390f35b34801561024a57600080fd5b5061025460125481565b604051908152602001610235565b34801561026e57600080fd5b5061027761063a565b6040516102359190611af0565b34801561029057600080fd5b506102a461029f366004611a54565b6106cc565b6040516001600160a01b039091168152602001610235565b3480156102c857600080fd5b506102076102d7366004611b18565b610723565b3480156102e857600080fd5b50600c5461022990600160a81b900460ff1681565b34801561030957600080fd5b50600854610254565b34801561031e57600080fd5b5061020761032d366004611c09565b6107e7565b610207610340366004611ca6565b6108a5565b34801561035157600080fd5b5061025460115481565b34801561036757600080fd5b50610254610376366004611b18565b6108b5565b610207610389366004611ca6565b61093c565b34801561039a57600080fd5b506102076103a9366004611a54565b610957565b3480156103ba57600080fd5b506102546103c9366004611a54565b6109bb565b3480156103da57600080fd5b50610254600e5481565b3480156103f057600080fd5b506102a4610a25565b34801561040557600080fd5b506102a4610414366004611a54565b610a6e565b34801561042557600080fd5b50610277610ac1565b34801561043a57600080fd5b50610254610449366004611ce7565b610b4f565b34801561045a57600080fd5b50610207610469366004611a54565b610bba565b34801561047a57600080fd5b50610254600f5481565b34801561049057600080fd5b50600c5461010090046001600160a01b03166102a4565b3480156104b357600080fd5b50610277610bee565b3480156104c857600080fd5b506102076104d7366004611d12565b610bfd565b6102076104ea366004611d4b565b610c69565b3480156104fb57600080fd5b5061027761050a366004611a54565b610c7b565b34801561051b57600080fd5b5061025461052a366004611dab565b610d53565b34801561053b57600080fd5b5061025461054a366004611dfb565b610d96565b34801561055b57600080fd5b5061022961056a366004611e30565b6001600160a01b03918216600090815260036020908152604080832093909416825291909152205460ff1690565b3480156105a457600080fd5b506102076105b3366004611ce7565b610da2565b3480156105c457600080fd5b506010546102299060ff1681565b600c5461010090046001600160a01b0316331461060a5760405162461bcd60e51b815260040161060190611e5e565b60405180910390fd5b601155565b60006001600160e01b0319821663360866d360e01b1480610634575061063482610ddd565b92915050565b60606005805461064990611e81565b80601f016020809104026020016040519081016040528092919081815260200182805461067590611e81565b80156106c25780601f10610697576101008083540402835291602001916106c2565b820191906000526020600020905b8154815290600101906020018083116106a557829003601f168201915b5050505050905090565b60008181526020819052604081205482906001600160a01b03166107025760405162461bcd60e51b815260040161060190611eb5565b6000838152600260205260409020546001600160a01b031691505b50919050565b61072d3382610e02565b6107795760405162461bcd60e51b815260206004820152601c60248201527f4e6f7420746f6b656e206f776e6572206e6f72206f70657261746f72000000006044820152606401610601565b600081815260026020526040902080546001600160a01b0319166001600160a01b03841690811790915581906107ae82610a6e565b6001600160a01b03167f8c5be1e5ebec7d5bd14f71427d1e84f3dd0314c0f7b2291e5b200ac8c7c3b92560405160405180910390a45050565b6000818060200190518101906107fd9190611f00565b505090506000818060200190518101906108179190611f9c565b93505050508060008151811061082f5761082f61207b565b6020026020010151601060006101000a81548160ff0219169083151502179055506001600f8190555061088a6040518060400160405280600f81526020016e4f70656e4e4654735634536b616c6560881b8152506004610e5d565b6108948686610ead565b61089d84610ef6565b505050505050565b6108b0838383610f2f565b505050565b60006108c083610b4f565b82106108ff5760405162461bcd60e51b815260206004820152600e60248201526d496e76616c696420696e6465782160901b6044820152606401610601565b6001600160a01b03831660009081526009602052604090208054839081106109295761092961207b565b9060005260206000200154905092915050565b6108b083838360405180602001604052806000815250611195565b8061096233826111ed565b6109ae5760405162461bcd60e51b815260206004820152601c60248201527f4e6f7420746f6b656e206f776e6572206e6f7220617070726f766564000000006044820152606401610601565b6109b782611223565b5050565b6008546000908210610a005760405162461bcd60e51b815260206004820152600e60248201526d496e76616c696420696e6465782160901b6044820152606401610601565b60088281548110610a1357610a1361207b565b90600052602060002001549050919050565b6000602d303b14610a365750600090565b6010306001600160a01b0316803b806020016040519081016040528181526000908060200190933c610a6790612091565b901c905090565b60008181526020819052604081205482906001600160a01b0316610aa45760405162461bcd60e51b815260040161060190611eb5565b50506000908152602081905260409020546001600160a01b031690565b600d8054610ace90611e81565b80601f0160208091040260200160405190810160405280929190818152602001828054610afa90611e81565b8015610b475780601f10610b1c57610100808354040283529160200191610b47565b820191906000526020600020905b815481529060010190602001808311610b2a57829003601f168201915b505050505081565b60006001600160a01b038216610b9e5760405162461bcd60e51b8152602060048201526014602482015273496e76616c6964207a65726f206164647265737360601b6044820152606401610601565b506001600160a01b031660009081526001602052604090205490565b600c5461010090046001600160a01b03163314610be95760405162461bcd60e51b815260040161060190611e5e565b601255565b60606006805461064990611e81565b3360008181526003602090815260408083206001600160a01b03871680855290835292819020805460ff191686151590811790915590519081529192917f17307eab39ab6107e8899845ad3d59bd9653f200f220920489ca2b5937696c31910160405180910390a35050565b610c7584848484611195565b50505050565b60008181526020819052604090205460609082906001600160a01b0316610cb45760405162461bcd60e51b815260040161060190611eb5565b60008381526007602052604090208054610ccd90611e81565b80601f0160208091040260200160405190810160405280929190818152602001828054610cf990611e81565b8015610d465780601f10610d1b57610100808354040283529160200191610d46565b820191906000526020600020905b815481529060010190602001808311610d2957829003601f168201915b5050505050915050919050565b600c5460009061010090046001600160a01b03163314610d855760405162461bcd60e51b815260040161060190611e5e565b610d8f838361122c565b9392505050565b6000610634338361122c565b600c5461010090046001600160a01b03163314610dd15760405162461bcd60e51b815260040161060190611e5e565b610dda8161124e565b50565b60006001600160e01b031982166350130d5360e01b14806106345750610634826112a8565b600080610e0e83610a6e565b9050836001600160a01b0316816001600160a01b03161480610e5557506001600160a01b0380821660009081526003602090815260408083209388168352929052205460ff165b949350505050565b600c54600160a81b900460ff1615610e875760405162461bcd60e51b8152600401610601906120b5565b600c805460ff60a81b1916600160a81b179055600d610ea68382612128565b50600e5550565b60045460ff1615610ed05760405162461bcd60e51b8152600401610601906120b5565b6004805460ff191660011790556005610ee98382612128565b5060066108b08282612128565b600c5460ff1615610f195760405162461bcd60e51b8152600401610601906120b5565b600c805460ff19166001179055610dda8161124e565b80610f3a33826111ed565b610f865760405162461bcd60e51b815260206004820152601c60248201527f4e6f7420746f6b656e206f776e6572206e6f7220617070726f766564000000006044820152606401610601565b6001600160a01b038416610fdc5760405162461bcd60e51b815260206004820152601a60248201527f5472616e736665722066726f6d207a65726f20616464726573730000000000006044820152606401610601565b6001600160a01b0383166110325760405162461bcd60e51b815260206004820152601860248201527f5472616e7366657220746f207a65726f206164647265737300000000000000006044820152606401610601565b61103b82610a6e565b6001600160a01b0316846001600160a01b03161461108c5760405162461bcd60e51b815260206004820152600e60248201526d233937b6903737ba1037bbb732b960911b6044820152606401610601565b6110978484846112cd565b600082815260026020526040902080546001600160a01b03191690556001600160a01b038481169084161461114e576001600160a01b038416600090815260016020819052604082208054919290916110f19084906121fe565b90915550506001600160a01b03831660009081526001602081905260408220805491929091611121908490612211565b9091555050600082815260208190526040902080546001600160a01b0319166001600160a01b0385161790555b81836001600160a01b0316856001600160a01b03167fddf252ad1be2c89b69c2b068fc378daa952ba7f163c4a11628f55a4df523b3ef60405160405180910390a450505050565b6111a1848484846112d8565b6111e25760405162461bcd60e51b81526020600482015260126024820152712737ba1022a9219b9918a932b1b2b4bb32b960711b6044820152606401610601565b610c75848484610f2f565b60006111f98383610e02565b80610d8f5750826001600160a01b0316611212836106cc565b6001600160a01b0316149392505050565b610dda81611378565b600f80546000918261123d83612224565b91905055905061063483838361144a565b600c80546001600160a01b03838116610100818102610100600160a81b031985161790945560405193909204169182907f8be0079c531659141344cd1fd0a4f28419497f9722a3daafe3b4186f6b6457e090600090a35050565b60006307f5828d60e41b6001600160e01b031983161480610634575061063482611509565b6108b083838361152e565b60006001600160a01b0384163b158061136f5750604051630a85bd0160e11b808252906001600160a01b0386169063150b7a02906113209033908a908990899060040161223d565b6020604051808303816000875af115801561133f573d6000803e3d6000fd5b505050506040513d601f19601f82011682018060405250810190611363919061227a565b6001600160e01b031916145b95945050505050565b600061138382610a6e565b905061138f8183611542565b6000828152600b60205260408120546008549091906113b0906001906121fe565b90506000600882815481106113c7576113c761207b565b6000918252602080832090910154808352600b9091526040808320869055878352822091909155600880549192508291859081106114075761140761207b565b600091825260209091200155600880548061142457611424612297565b6001900381819060005260206000200160009055905561144385611650565b5050505050565b6011548251429110156114935760405162461bcd60e51b8152602060048201526011602482015270546f6b656e55524920746f6f206c6f6e6760781b6044820152606401610601565b3360009081526013602052604090205481116114e15760405162461bcd60e51b815260206004820152600d60248201526c26b4b73a1031b7b7b63237bbb760991b6044820152606401610601565b6012546114ee9082612211565b33600090815260136020526040902055610c75848484611670565b600063780e9d6360e01b6001600160e01b0319831614806106345750610634826116c9565b6115388382611542565b6108b082826116ee565b6000818152600a602052604081205490600161155d85610b4f565b61156791906121fe565b90508082146115fe576001600160a01b038416600090815260096020526040812080548390811061159a5761159a61207b565b906000526020600020015490508060096000876001600160a01b03166001600160a01b0316815260200190815260200160002084815481106115de576115de61207b565b6000918252602080832090910192909255918252600a9052604090208290555b6000838152600a602090815260408083208390556001600160a01b03871683526009909152902080548061163457611634612297565b6001900381819060005260206000200160009055905550505050565b600081815260076020526040812061166791611a06565b610dda8161172c565b61167a83826116ee565b600880546000838152600b60205260408120829055600182018355919091527ff3f7a9fe364faab93b216da50a3214154f22a0a2b415b23a84c8169e8b636ee3018190556108b083838361181d565b6000635b5e139f60e01b6001600160e01b031983161480610634575061063482611841565b6001600160a01b0390911660009081526009602081815260408084208054868652600a84529185208290559282526001810183559183529091200155565b600061173782610a6e565b90506001600160a01b03811661175f5760405162461bcd60e51b815260040161060190611eb5565b6001600160a01b038116600090815260016020526040902054611784576117846122ad565b6001600160a01b038116600090815260016020819052604082208054919290916117af9084906121fe565b9091555050600082815260026020908152604080832080546001600160a01b0319908116909155918390528083208054909216909155518391906001600160a01b038416907fddf252ad1be2c89b69c2b068fc378daa952ba7f163c4a11628f55a4df523b3ef908390a45050565b60008181526007602052604090206118358382612128565b506108b0838383611876565b60006380ac58cd60e01b6001600160e01b03198316148061063457506001600160e01b031982166301ffc9a760e01b14610634565b6001600160a01b0383166118c35760405162461bcd60e51b81526020600482015260146024820152734d696e7420746f207a65726f206164647265737360601b6044820152606401610601565b6000818152602081905260409020546001600160a01b03161561191f5760405162461bcd60e51b8152602060048201526014602482015273151bdad95b88185b1c9958591e481b5a5b9d195960621b6044820152606401610601565b61193b60008483604051806020016040528060008152506112d8565b61197c5760405162461bcd60e51b8152602060048201526012602482015271139bdd08115490cdcc8c549958d95a5d995960721b6044820152606401610601565b6001600160a01b038316600090815260016020819052604082208054919290916119a7908490612211565b909155505060008181526020819052604080822080546001600160a01b0319166001600160a01b03871690811790915590518392907fddf252ad1be2c89b69c2b068fc378daa952ba7f163c4a11628f55a4df523b3ef908290a4505050565b508054611a1290611e81565b6000825580601f10611a22575050565b601f016020900490600052602060002090810190610dda91905b80821115611a505760008155600101611a3c565b5090565b600060208284031215611a6657600080fd5b5035919050565b6001600160e01b031981168114610dda57600080fd5b600060208284031215611a9557600080fd5b8135610d8f81611a6d565b60005b83811015611abb578181015183820152602001611aa3565b50506000910152565b60008151808452611adc816020860160208601611aa0565b601f01601f19169290920160200192915050565b602081526000610d8f6020830184611ac4565b6001600160a01b0381168114610dda57600080fd5b60008060408385031215611b2b57600080fd5b8235611b3681611b03565b946020939093013593505050565b634e487b7160e01b600052604160045260246000fd5b604051601f8201601f1916810167ffffffffffffffff81118282101715611b8357611b83611b44565b604052919050565b600067ffffffffffffffff821115611ba557611ba5611b44565b50601f01601f191660200190565b600082601f830112611bc457600080fd5b8135611bd7611bd282611b8b565b611b5a565b818152846020838601011115611bec57600080fd5b816020850160208301376000918101602001919091529392505050565b60008060008060808587031215611c1f57600080fd5b843567ffffffffffffffff80821115611c3757600080fd5b611c4388838901611bb3565b95506020870135915080821115611c5957600080fd5b611c6588838901611bb3565b945060408701359150611c7782611b03565b90925060608601359080821115611c8d57600080fd5b50611c9a87828801611bb3565b91505092959194509250565b600080600060608486031215611cbb57600080fd5b8335611cc681611b03565b92506020840135611cd681611b03565b929592945050506040919091013590565b600060208284031215611cf957600080fd5b8135610d8f81611b03565b8015158114610dda57600080fd5b60008060408385031215611d2557600080fd5b8235611d3081611b03565b91506020830135611d4081611d04565b809150509250929050565b60008060008060808587031215611d6157600080fd5b8435611d6c81611b03565b93506020850135611d7c81611b03565b925060408501359150606085013567ffffffffffffffff811115611d9f57600080fd5b611c9a87828801611bb3565b60008060408385031215611dbe57600080fd5b8235611dc981611b03565b9150602083013567ffffffffffffffff811115611de557600080fd5b611df185828601611bb3565b9150509250929050565b600060208284031215611e0d57600080fd5b813567ffffffffffffffff811115611e2457600080fd5b610e5584828501611bb3565b60008060408385031215611e4357600080fd5b8235611e4e81611b03565b91506020830135611d4081611b03565b6020808252600990820152682737ba1037bbb732b960b91b604082015260600190565b600181811c90821680611e9557607f821691505b60208210810361071d57634e487b7160e01b600052602260045260246000fd5b60208082526010908201526f125b9d985b1a59081d1bdad95b88125160821b604082015260600190565b80516bffffffffffffffffffffffff81168114611efb57600080fd5b919050565b600080600060608486031215611f1557600080fd5b835167ffffffffffffffff811115611f2c57600080fd5b8401601f81018613611f3d57600080fd5b8051611f4b611bd282611b8b565b818152876020838501011115611f6057600080fd5b611f71826020830160208601611aa0565b8095505050506020840151611f8581611b03565b9150611f9360408501611edf565b90509250925092565b60008060008060808587031215611fb257600080fd5b84519350602080860151611fc581611b03565b9350611fd360408701611edf565b9250606086015167ffffffffffffffff80821115611ff057600080fd5b818801915088601f83011261200457600080fd5b81518181111561201657612016611b44565b8060051b9150612027848301611b5a565b818152918301840191848101908b84111561204157600080fd5b938501935b8385101561206b578451925061205b83611d04565b8282529385019390850190612046565b989b979a50959850505050505050565b634e487b7160e01b600052603260045260246000fd5b8051602080830151919081101561071d5760001960209190910360031b1b16919050565b602080825260139082015272105b1c9958591e481a5b9a5d1a585b1a5e9959606a1b604082015260600190565b601f8211156108b057600081815260208120601f850160051c810160208610156121095750805b601f850160051c820191505b8181101561089d57828155600101612115565b815167ffffffffffffffff81111561214257612142611b44565b612156816121508454611e81565b846120e2565b602080601f83116001811461218b57600084156121735750858301515b600019600386901b1c1916600185901b17855561089d565b600085815260208120601f198616915b828110156121ba5788860151825594840194600190910190840161219b565b50858210156121d85787850151600019600388901b60f8161c191681555b5050505050600190811b01905550565b634e487b7160e01b600052601160045260246000fd5b81810381811115610634576106346121e8565b80820180821115610634576106346121e8565b600060018201612236576122366121e8565b5060010190565b6001600160a01b038581168252841660208201526040810183905260806060820181905260009061227090830184611ac4565b9695505050505050565b60006020828403121561228c57600080fd5b8151610d8f81611a6d565b634e487b7160e01b600052603160045260246000fd5b634e487b7160e01b600052600160045260246000fdfea2646970667358221220e7d7859d32fe2e2db3744671cccbacde17fdd2323810f13aa11a4fe4a0c70f9164736f6c63430008130033",
        "linkReferences": {}
    },
    "methodIdentifiers": {
        "approve(address,uint256)": "095ea7b3",
        "balanceOf(address)": "70a08231",
        "burn(uint256)": "42966c68",
        "cooldownPeriod()": "04646a49",
        "getApproved(uint256)": "081812fc",
        "initialize(string,string,address,bytes)": "1eb40e21",
        "initialized()": "158ef93e",
        "isApprovedForAll(address,address)": "e985e9c5",
        "mint(address,string)": "d0def521",
        "mint(string)": "d85d3d27",
        "name()": "06fdde03",
        "open()": "fcfff16f",
        "owner()": "8da5cb5b",
        "ownerOf(uint256)": "6352211e",
        "parent()": "60f96a8f",
        "safeTransferFrom(address,address,uint256)": "42842e0e",
        "safeTransferFrom(address,address,uint256,bytes)": "b88d4fde",
        "setApprovalForAll(address,bool)": "a22cb465",
        "setCooldownPeriod(uint256)": "80ea3de1",
        "setTokenUriMaxLength(uint256)": "00080e33",
        "supportsInterface(bytes4)": "01ffc9a7",
        "symbol()": "95d89b41",
        "template()": "6f2ddd93",
        "tokenByIndex(uint256)": "4f6ccce7",
        "tokenIdNext()": "8bbf58b3",
        "tokenOfOwnerByIndex(address,uint256)": "2f745c59",
        "tokenURI(uint256)": "c87b56dd",
        "tokenUriMaxLength()": "2468b97b",
        "totalSupply()": "18160ddd",
        "transferFrom(address,address,uint256)": "23b872dd",
        "transferOwnership(address)": "f2fde38b",
        "version()": "54fd4d50"
    },
    "id": 110
}