{
  "address": "0x2b3050E1B9c592869143f04c2a6962aAb4B95FbE",
  "abi": [
    {
      "anonymous": false,
      "inputs": [
        {
          "indexed": true,
          "internalType": "address",
          "name": "owner",
          "type": "address"
        },
        {
          "indexed": true,
          "internalType": "address",
          "name": "approved",
          "type": "address"
        },
        {
          "indexed": true,
          "internalType": "uint256",
          "name": "tokenId",
          "type": "uint256"
        }
      ],
      "name": "Approval",
      "type": "event"
    },
    {
      "anonymous": false,
      "inputs": [
        {
          "indexed": true,
          "internalType": "address",
          "name": "owner",
          "type": "address"
        },
        {
          "indexed": true,
          "internalType": "address",
          "name": "operator",
          "type": "address"
        },
        {
          "indexed": false,
          "internalType": "bool",
          "name": "approved",
          "type": "bool"
        }
      ],
      "name": "ApprovalForAll",
      "type": "event"
    },
    {
      "anonymous": false,
      "inputs": [
        {
          "indexed": true,
          "internalType": "address",
          "name": "previousOwner",
          "type": "address"
        },
        {
          "indexed": true,
          "internalType": "address",
          "name": "newOwner",
          "type": "address"
        }
      ],
      "name": "OwnershipTransferred",
      "type": "event"
    },
    {
      "anonymous": false,
      "inputs": [
        {
          "indexed": true,
          "internalType": "address",
          "name": "from",
          "type": "address"
        },
        {
          "indexed": true,
          "internalType": "address",
          "name": "to",
          "type": "address"
        },
        {
          "indexed": true,
          "internalType": "uint256",
          "name": "tokenId",
          "type": "uint256"
        }
      ],
      "name": "Transfer",
      "type": "event"
    },
    {
      "inputs": [
        {
          "internalType": "address",
          "name": "to",
          "type": "address"
        },
        {
          "internalType": "uint256",
          "name": "tokenId",
          "type": "uint256"
        }
      ],
      "name": "approve",
      "outputs": [],
      "stateMutability": "nonpayable",
      "type": "function"
    },
    {
      "inputs": [
        {
          "internalType": "address",
          "name": "owner",
          "type": "address"
        }
      ],
      "name": "balanceOf",
      "outputs": [
        {
          "internalType": "uint256",
          "name": "",
          "type": "uint256"
        }
      ],
      "stateMutability": "view",
      "type": "function"
    },
    {
      "inputs": [
        {
          "internalType": "uint256",
          "name": "tokenId",
          "type": "uint256"
        }
      ],
      "name": "burnNFT",
      "outputs": [],
      "stateMutability": "nonpayable",
      "type": "function"
    },
    {
      "inputs": [
        {
          "internalType": "uint256",
          "name": "tokenId",
          "type": "uint256"
        }
      ],
      "name": "getApproved",
      "outputs": [
        {
          "internalType": "address",
          "name": "",
          "type": "address"
        }
      ],
      "stateMutability": "view",
      "type": "function"
    },
    {
      "inputs": [
        {
          "internalType": "string",
          "name": "name_",
          "type": "string"
        },
        {
          "internalType": "string",
          "name": "symbol_",
          "type": "string"
        },
        {
          "internalType": "address",
          "name": "owner_",
          "type": "address"
        },
        {
          "internalType": "bool",
          "name": "openMinting_",
          "type": "bool"
        }
      ],
      "name": "initialize",
      "outputs": [],
      "stateMutability": "nonpayable",
      "type": "function"
    },
    {
      "inputs": [
        {
          "internalType": "address",
          "name": "owner",
          "type": "address"
        },
        {
          "internalType": "address",
          "name": "operator",
          "type": "address"
        }
      ],
      "name": "isApprovedForAll",
      "outputs": [
        {
          "internalType": "bool",
          "name": "",
          "type": "bool"
        }
      ],
      "stateMutability": "view",
      "type": "function"
    },
    {
      "inputs": [
        {
          "internalType": "address",
          "name": "minter",
          "type": "address"
        },
        {
          "internalType": "string",
          "name": "jsonURI",
          "type": "string"
        }
      ],
      "name": "mintNFT",
      "outputs": [
        {
          "internalType": "uint256",
          "name": "",
          "type": "uint256"
        }
      ],
      "stateMutability": "nonpayable",
      "type": "function"
    },
    {
      "inputs": [],
      "name": "name",
      "outputs": [
        {
          "internalType": "string",
          "name": "",
          "type": "string"
        }
      ],
      "stateMutability": "view",
      "type": "function"
    },
    {
      "inputs": [],
      "name": "openMinting",
      "outputs": [
        {
          "internalType": "bool",
          "name": "",
          "type": "bool"
        }
      ],
      "stateMutability": "view",
      "type": "function"
    },
    {
      "inputs": [],
      "name": "owner",
      "outputs": [
        {
          "internalType": "address",
          "name": "",
          "type": "address"
        }
      ],
      "stateMutability": "view",
      "type": "function"
    },
    {
      "inputs": [
        {
          "internalType": "uint256",
          "name": "tokenId",
          "type": "uint256"
        }
      ],
      "name": "ownerOf",
      "outputs": [
        {
          "internalType": "address",
          "name": "",
          "type": "address"
        }
      ],
      "stateMutability": "view",
      "type": "function"
    },
    {
      "inputs": [],
      "name": "renounceOwnership",
      "outputs": [],
      "stateMutability": "nonpayable",
      "type": "function"
    },
    {
      "inputs": [
        {
          "internalType": "address",
          "name": "from",
          "type": "address"
        },
        {
          "internalType": "address",
          "name": "to",
          "type": "address"
        },
        {
          "internalType": "uint256",
          "name": "tokenId",
          "type": "uint256"
        }
      ],
      "name": "safeTransferFrom",
      "outputs": [],
      "stateMutability": "nonpayable",
      "type": "function"
    },
    {
      "inputs": [
        {
          "internalType": "address",
          "name": "from",
          "type": "address"
        },
        {
          "internalType": "address",
          "name": "to",
          "type": "address"
        },
        {
          "internalType": "uint256",
          "name": "tokenId",
          "type": "uint256"
        },
        {
          "internalType": "bytes",
          "name": "_data",
          "type": "bytes"
        }
      ],
      "name": "safeTransferFrom",
      "outputs": [],
      "stateMutability": "nonpayable",
      "type": "function"
    },
    {
      "inputs": [
        {
          "internalType": "address",
          "name": "operator",
          "type": "address"
        },
        {
          "internalType": "bool",
          "name": "approved",
          "type": "bool"
        }
      ],
      "name": "setApprovalForAll",
      "outputs": [],
      "stateMutability": "nonpayable",
      "type": "function"
    },
    {
      "inputs": [
        {
          "internalType": "bytes4",
          "name": "interfaceId",
          "type": "bytes4"
        }
      ],
      "name": "supportsInterface",
      "outputs": [
        {
          "internalType": "bool",
          "name": "",
          "type": "bool"
        }
      ],
      "stateMutability": "view",
      "type": "function"
    },
    {
      "inputs": [],
      "name": "symbol",
      "outputs": [
        {
          "internalType": "string",
          "name": "",
          "type": "string"
        }
      ],
      "stateMutability": "view",
      "type": "function"
    },
    {
      "inputs": [
        {
          "internalType": "uint256",
          "name": "index",
          "type": "uint256"
        }
      ],
      "name": "tokenByIndex",
      "outputs": [
        {
          "internalType": "uint256",
          "name": "",
          "type": "uint256"
        }
      ],
      "stateMutability": "view",
      "type": "function"
    },
    {
      "inputs": [
        {
          "internalType": "address",
          "name": "owner",
          "type": "address"
        },
        {
          "internalType": "uint256",
          "name": "index",
          "type": "uint256"
        }
      ],
      "name": "tokenOfOwnerByIndex",
      "outputs": [
        {
          "internalType": "uint256",
          "name": "",
          "type": "uint256"
        }
      ],
      "stateMutability": "view",
      "type": "function"
    },
    {
      "inputs": [
        {
          "internalType": "uint256",
          "name": "tokenId",
          "type": "uint256"
        }
      ],
      "name": "tokenURI",
      "outputs": [
        {
          "internalType": "string",
          "name": "tokenURI_",
          "type": "string"
        }
      ],
      "stateMutability": "view",
      "type": "function"
    },
    {
      "inputs": [],
      "name": "totalSupply",
      "outputs": [
        {
          "internalType": "uint256",
          "name": "",
          "type": "uint256"
        }
      ],
      "stateMutability": "view",
      "type": "function"
    },
    {
      "inputs": [
        {
          "internalType": "address",
          "name": "from",
          "type": "address"
        },
        {
          "internalType": "address",
          "name": "to",
          "type": "address"
        },
        {
          "internalType": "uint256",
          "name": "tokenId",
          "type": "uint256"
        }
      ],
      "name": "transferFrom",
      "outputs": [],
      "stateMutability": "nonpayable",
      "type": "function"
    },
    {
      "inputs": [
        {
          "internalType": "address",
          "name": "newOwner",
          "type": "address"
        }
      ],
      "name": "transferOwnership",
      "outputs": [],
      "stateMutability": "nonpayable",
      "type": "function"
    }
  ],
  "transactionHash": "0xc045c1191b884dfb871b36013604c867998c628dda8701b701623fd2fca4ccfc",
  "args": [],
  "numDeployments": 1,
  "solcInputHash": "21efd4c42714fb1a26095f0d17ed7883",
  "bytecode": "0x608060405234801561001057600080fd5b506121d2806100206000396000f3fe608060405234801561001057600080fd5b506004361061014d5760003560e01c80636352211e116100c3578063a22cb4651161007c578063a22cb465146102a8578063b88d4fde146102bb578063c87b56dd146102ce578063e985e9c5146102e1578063eacabe141461031d578063f2fde38b1461033057600080fd5b80636352211e146102535780636ba9fd381461026657806370a0823114610274578063715018a6146102875780638da5cb5b1461028f57806395d89b41146102a057600080fd5b806323b872dd1161011557806323b872dd146101e15780632890e0d7146101f45780632f745c591461020757806342842e0e1461021a5780634f6ccce71461022d5780635c108a431461024057600080fd5b806301ffc9a71461015257806306fdde031461017a578063081812fc1461018f578063095ea7b3146101ba57806318160ddd146101cf575b600080fd5b610165610160366004611b45565b610343565b60405190151581526020015b60405180910390f35b61018261036e565b6040516101719190611bba565b6101a261019d366004611bcd565b610400565b6040516001600160a01b039091168152602001610171565b6101cd6101c8366004611c02565b61048d565b005b6099545b604051908152602001610171565b6101cd6101ef366004611c2c565b6105a3565b6101cd610202366004611bcd565b6105d4565b6101d3610215366004611c02565b61060a565b6101cd610228366004611c2c565b6106a0565b6101d361023b366004611bcd565b6106bb565b6101cd61024e366004611d24565b61074e565b6101a2610261366004611bcd565b610835565b61012e546101659060ff1681565b6101d3610282366004611da9565b6108ac565b6101cd610933565b60fb546001600160a01b03166101a2565b610182610969565b6101cd6102b6366004611dc4565b610978565b6101cd6102c9366004611df7565b610987565b6101826102dc366004611bcd565b6109bf565b6101656102ef366004611e73565b6001600160a01b039182166000908152606a6020908152604080832093909416825291909152205460ff1690565b6101d361032b366004611e9d565b6109ca565b6101cd61033e366004611da9565b610a5a565b60006001600160e01b0319821663013c95a960e71b1480610368575061036882610af2565b92915050565b60606065805461037d90611eeb565b80601f01602080910402602001604051908101604052809291908181526020018280546103a990611eeb565b80156103f65780601f106103cb576101008083540402835291602001916103f6565b820191906000526020600020905b8154815290600101906020018083116103d957829003601f168201915b5050505050905090565b600061040b82610b17565b6104715760405162461bcd60e51b815260206004820152602c60248201527f4552433732313a20617070726f76656420717565727920666f72206e6f6e657860448201526b34b9ba32b73a103a37b5b2b760a11b60648201526084015b60405180910390fd5b506000908152606960205260409020546001600160a01b031690565b600061049882610835565b9050806001600160a01b0316836001600160a01b031614156105065760405162461bcd60e51b815260206004820152602160248201527f4552433732313a20617070726f76616c20746f2063757272656e74206f776e656044820152603960f91b6064820152608401610468565b336001600160a01b0382161480610522575061052281336102ef565b6105945760405162461bcd60e51b815260206004820152603860248201527f4552433732313a20617070726f76652063616c6c6572206973206e6f74206f7760448201527f6e6572206e6f7220617070726f76656420666f7220616c6c00000000000000006064820152608401610468565b61059e8383610b34565b505050565b6105ad3382610ba2565b6105c95760405162461bcd60e51b815260040161046890611f26565b61059e838383610c8c565b60fb546001600160a01b031633146105fe5760405162461bcd60e51b815260040161046890611f77565b61060781610e33565b50565b6000610615836108ac565b82106106775760405162461bcd60e51b815260206004820152602b60248201527f455243373231456e756d657261626c653a206f776e657220696e646578206f7560448201526a74206f6620626f756e647360a81b6064820152608401610468565b506001600160a01b03919091166000908152609760209081526040808320938352929052205490565b61059e83838360405180602001604052806000815250610987565b60006106c660995490565b82106107295760405162461bcd60e51b815260206004820152602c60248201527f455243373231456e756d657261626c653a20676c6f62616c20696e646578206f60448201526b7574206f6620626f756e647360a01b6064820152608401610468565b6099828154811061073c5761073c611fac565b90600052602060002001549050919050565b600054610100900460ff166107695760005460ff161561076d565b303b155b6107d05760405162461bcd60e51b815260206004820152602e60248201527f496e697469616c697a61626c653a20636f6e747261637420697320616c72656160448201526d191e481a5b9a5d1a585b1a5e995960921b6064820152608401610468565b600054610100900460ff161580156107f2576000805461ffff19166101011790555b6107fa610e3c565b6108048585610e6b565b61080d83610a5a565b61012e805460ff1916831515179055801561082e576000805461ff00191690555b5050505050565b6000818152606760205260408120546001600160a01b0316806103685760405162461bcd60e51b815260206004820152602960248201527f4552433732313a206f776e657220717565727920666f72206e6f6e657869737460448201526832b73a103a37b5b2b760b91b6064820152608401610468565b60006001600160a01b0382166109175760405162461bcd60e51b815260206004820152602a60248201527f4552433732313a2062616c616e636520717565727920666f7220746865207a65604482015269726f206164647265737360b01b6064820152608401610468565b506001600160a01b031660009081526068602052604090205490565b60fb546001600160a01b0316331461095d5760405162461bcd60e51b815260040161046890611f77565b6109676000610e9c565b565b60606066805461037d90611eeb565b610983338383610eee565b5050565b6109913383610ba2565b6109ad5760405162461bcd60e51b815260040161046890611f26565b6109b984848484610fbd565b50505050565b606061036882610ff0565b61012e5460009060ff16806109e9575060fb546001600160a01b031633145b610a225760405162461bcd60e51b815260206004820152600a6024820152692737ba1036b4b73a32b960b11b6044820152606401610468565b610a3161012d80546001019055565b6000610a3d61012d5490565b9050610a49848261115f565b610a538184611179565b9392505050565b60fb546001600160a01b03163314610a845760405162461bcd60e51b815260040161046890611f77565b6001600160a01b038116610ae95760405162461bcd60e51b815260206004820152602660248201527f4f776e61626c653a206e6577206f776e657220697320746865207a65726f206160448201526564647265737360d01b6064820152608401610468565b61060781610e9c565b60006001600160e01b0319821663780e9d6360e01b1480610368575061036882611204565b6000908152606760205260409020546001600160a01b0316151590565b600081815260696020526040902080546001600160a01b0319166001600160a01b0384169081179091558190610b6982610835565b6001600160a01b03167f8c5be1e5ebec7d5bd14f71427d1e84f3dd0314c0f7b2291e5b200ac8c7c3b92560405160405180910390a45050565b6000610bad82610b17565b610c0e5760405162461bcd60e51b815260206004820152602c60248201527f4552433732313a206f70657261746f7220717565727920666f72206e6f6e657860448201526b34b9ba32b73a103a37b5b2b760a11b6064820152608401610468565b6000610c1983610835565b9050806001600160a01b0316846001600160a01b03161480610c545750836001600160a01b0316610c4984610400565b6001600160a01b0316145b80610c8457506001600160a01b038082166000908152606a602090815260408083209388168352929052205460ff165b949350505050565b826001600160a01b0316610c9f82610835565b6001600160a01b031614610d035760405162461bcd60e51b815260206004820152602560248201527f4552433732313a207472616e736665722066726f6d20696e636f72726563742060448201526437bbb732b960d91b6064820152608401610468565b6001600160a01b038216610d655760405162461bcd60e51b8152602060048201526024808201527f4552433732313a207472616e7366657220746f20746865207a65726f206164646044820152637265737360e01b6064820152608401610468565b610d70838383611254565b610d7b600082610b34565b6001600160a01b0383166000908152606860205260408120805460019290610da4908490611fd8565b90915550506001600160a01b0382166000908152606860205260408120805460019290610dd2908490611fef565b909155505060008181526067602052604080822080546001600160a01b0319166001600160a01b0386811691821790925591518493918716917fddf252ad1be2c89b69c2b068fc378daa952ba7f163c4a11628f55a4df523b3ef91a4505050565b6106078161125f565b600054610100900460ff16610e635760405162461bcd60e51b815260040161046890612007565b61096761129f565b600054610100900460ff16610e925760405162461bcd60e51b815260040161046890612007565b61098382826112cf565b60fb80546001600160a01b038381166001600160a01b0319831681179093556040519116919082907f8be0079c531659141344cd1fd0a4f28419497f9722a3daafe3b4186f6b6457e090600090a35050565b816001600160a01b0316836001600160a01b03161415610f505760405162461bcd60e51b815260206004820152601960248201527f4552433732313a20617070726f766520746f2063616c6c6572000000000000006044820152606401610468565b6001600160a01b038381166000818152606a6020908152604080832094871680845294825291829020805460ff191686151590811790915591519182527f17307eab39ab6107e8899845ad3d59bd9653f200f220920489ca2b5937696c31910160405180910390a3505050565b610fc8848484610c8c565b610fd48484848461131d565b6109b95760405162461bcd60e51b815260040161046890612052565b6060610ffb82610b17565b6110615760405162461bcd60e51b815260206004820152603160248201527f45524337323155524953746f726167653a2055524920717565727920666f72206044820152703737b732bc34b9ba32b73a103a37b5b2b760791b6064820152608401610468565b600082815260c960205260408120805461107a90611eeb565b80601f01602080910402602001604051908101604052809291908181526020018280546110a690611eeb565b80156110f35780601f106110c8576101008083540402835291602001916110f3565b820191906000526020600020905b8154815290600101906020018083116110d657829003601f168201915b50505050509050600061111160408051602081019091526000815290565b9050805160001415611124575092915050565b81511561115657808260405160200161113e9291906120a4565b60405160208183030381529060405292505050919050565b610c848461142a565b610983828260405180602001604052806000815250611501565b61118282610b17565b6111e55760405162461bcd60e51b815260206004820152602e60248201527f45524337323155524953746f726167653a2055524920736574206f66206e6f6e60448201526d32bc34b9ba32b73a103a37b5b2b760911b6064820152608401610468565b600082815260c960209081526040909120825161059e92840190611a60565b60006001600160e01b031982166380ac58cd60e01b148061123557506001600160e01b03198216635b5e139f60e01b145b8061036857506301ffc9a760e01b6001600160e01b0319831614610368565b61059e838383611534565b611268816115ec565b600081815260c960205260409020805461128190611eeb565b15905061060757600081815260c96020526040812061060791611ae4565b600054610100900460ff166112c65760405162461bcd60e51b815260040161046890612007565b61096733610e9c565b600054610100900460ff166112f65760405162461bcd60e51b815260040161046890612007565b8151611309906065906020850190611a60565b50805161059e906066906020840190611a60565b60006001600160a01b0384163b1561141f57604051630a85bd0160e11b81526001600160a01b0385169063150b7a02906113619033908990889088906004016120d3565b602060405180830381600087803b15801561137b57600080fd5b505af19250505080156113ab575060408051601f3d908101601f191682019092526113a891810190612110565b60015b611405573d8080156113d9576040519150601f19603f3d011682016040523d82523d6000602084013e6113de565b606091505b5080516113fd5760405162461bcd60e51b815260040161046890612052565b805181602001fd5b6001600160e01b031916630a85bd0160e11b149050610c84565b506001949350505050565b606061143582610b17565b6114995760405162461bcd60e51b815260206004820152602f60248201527f4552433732314d657461646174613a2055524920717565727920666f72206e6f60448201526e3732bc34b9ba32b73a103a37b5b2b760891b6064820152608401610468565b60006114b060408051602081019091526000815290565b905060008151116114d05760405180602001604052806000815250610a53565b806114da84611693565b6040516020016114eb9291906120a4565b6040516020818303038152906040529392505050565b61150b8383611791565b611518600084848461131d565b61059e5760405162461bcd60e51b815260040161046890612052565b6001600160a01b03831661158f5761158a81609980546000838152609a60205260408120829055600182018355919091527f72a152ddfb8e864297c917af52ea6c1c68aead0fee1a62673fcc7e0c94979d000155565b6115b2565b816001600160a01b0316836001600160a01b0316146115b2576115b283826118d0565b6001600160a01b0382166115c95761059e8161196d565b826001600160a01b0316826001600160a01b03161461059e5761059e8282611a1c565b60006115f782610835565b905061160581600084611254565b611610600083610b34565b6001600160a01b0381166000908152606860205260408120805460019290611639908490611fd8565b909155505060008281526067602052604080822080546001600160a01b0319169055518391906001600160a01b038416907fddf252ad1be2c89b69c2b068fc378daa952ba7f163c4a11628f55a4df523b3ef908390a45050565b6060816116b75750506040805180820190915260018152600360fc1b602082015290565b8160005b81156116e157806116cb8161212d565b91506116da9050600a8361215e565b91506116bb565b60008167ffffffffffffffff8111156116fc576116fc611c68565b6040519080825280601f01601f191660200182016040528015611726576020820181803683370190505b5090505b8415610c845761173b600183611fd8565b9150611748600a86612172565b611753906030611fef565b60f81b81838151811061176857611768611fac565b60200101906001600160f81b031916908160001a90535061178a600a8661215e565b945061172a565b6001600160a01b0382166117e75760405162461bcd60e51b815260206004820181905260248201527f4552433732313a206d696e7420746f20746865207a65726f20616464726573736044820152606401610468565b6117f081610b17565b1561183d5760405162461bcd60e51b815260206004820152601c60248201527f4552433732313a20746f6b656e20616c7265616479206d696e746564000000006044820152606401610468565b61184960008383611254565b6001600160a01b0382166000908152606860205260408120805460019290611872908490611fef565b909155505060008181526067602052604080822080546001600160a01b0319166001600160a01b03861690811790915590518392907fddf252ad1be2c89b69c2b068fc378daa952ba7f163c4a11628f55a4df523b3ef908290a45050565b600060016118dd846108ac565b6118e79190611fd8565b60008381526098602052604090205490915080821461193a576001600160a01b03841660009081526097602090815260408083208584528252808320548484528184208190558352609890915290208190555b5060009182526098602090815260408084208490556001600160a01b039094168352609781528383209183525290812055565b60995460009061197f90600190611fd8565b6000838152609a6020526040812054609980549394509092849081106119a7576119a7611fac565b9060005260206000200154905080609983815481106119c8576119c8611fac565b6000918252602080832090910192909255828152609a90915260408082208490558582528120556099805480611a0057611a00612186565b6001900381819060005260206000200160009055905550505050565b6000611a27836108ac565b6001600160a01b039093166000908152609760209081526040808320868452825280832085905593825260989052919091209190915550565b828054611a6c90611eeb565b90600052602060002090601f016020900481019282611a8e5760008555611ad4565b82601f10611aa757805160ff1916838001178555611ad4565b82800160010185558215611ad4579182015b82811115611ad4578251825591602001919060010190611ab9565b50611ae0929150611b1a565b5090565b508054611af090611eeb565b6000825580601f10611b00575050565b601f01602090049060005260206000209081019061060791905b5b80821115611ae05760008155600101611b1b565b6001600160e01b03198116811461060757600080fd5b600060208284031215611b5757600080fd5b8135610a5381611b2f565b60005b83811015611b7d578181015183820152602001611b65565b838111156109b95750506000910152565b60008151808452611ba6816020860160208601611b62565b601f01601f19169290920160200192915050565b602081526000610a536020830184611b8e565b600060208284031215611bdf57600080fd5b5035919050565b80356001600160a01b0381168114611bfd57600080fd5b919050565b60008060408385031215611c1557600080fd5b611c1e83611be6565b946020939093013593505050565b600080600060608486031215611c4157600080fd5b611c4a84611be6565b9250611c5860208501611be6565b9150604084013590509250925092565b634e487b7160e01b600052604160045260246000fd5b600067ffffffffffffffff80841115611c9957611c99611c68565b604051601f8501601f19908116603f01168101908282118183101715611cc157611cc1611c68565b81604052809350858152868686011115611cda57600080fd5b858560208301376000602087830101525050509392505050565b600082601f830112611d0557600080fd5b610a5383833560208501611c7e565b80358015158114611bfd57600080fd5b60008060008060808587031215611d3a57600080fd5b843567ffffffffffffffff80821115611d5257600080fd5b611d5e88838901611cf4565b95506020870135915080821115611d7457600080fd5b50611d8187828801611cf4565b935050611d9060408601611be6565b9150611d9e60608601611d14565b905092959194509250565b600060208284031215611dbb57600080fd5b610a5382611be6565b60008060408385031215611dd757600080fd5b611de083611be6565b9150611dee60208401611d14565b90509250929050565b60008060008060808587031215611e0d57600080fd5b611e1685611be6565b9350611e2460208601611be6565b925060408501359150606085013567ffffffffffffffff811115611e4757600080fd5b8501601f81018713611e5857600080fd5b611e6787823560208401611c7e565b91505092959194509250565b60008060408385031215611e8657600080fd5b611e8f83611be6565b9150611dee60208401611be6565b60008060408385031215611eb057600080fd5b611eb983611be6565b9150602083013567ffffffffffffffff811115611ed557600080fd5b611ee185828601611cf4565b9150509250929050565b600181811c90821680611eff57607f821691505b60208210811415611f2057634e487b7160e01b600052602260045260246000fd5b50919050565b60208082526031908201527f4552433732313a207472616e736665722063616c6c6572206973206e6f74206f6040820152701ddb995c881b9bdc88185c1c1c9bdd9959607a1b606082015260800190565b6020808252818101527f4f776e61626c653a2063616c6c6572206973206e6f7420746865206f776e6572604082015260600190565b634e487b7160e01b600052603260045260246000fd5b634e487b7160e01b600052601160045260246000fd5b600082821015611fea57611fea611fc2565b500390565b6000821982111561200257612002611fc2565b500190565b6020808252602b908201527f496e697469616c697a61626c653a20636f6e7472616374206973206e6f74206960408201526a6e697469616c697a696e6760a81b606082015260800190565b60208082526032908201527f4552433732313a207472616e7366657220746f206e6f6e20455243373231526560408201527131b2b4bb32b91034b6b83632b6b2b73a32b960711b606082015260800190565b600083516120b6818460208801611b62565b8351908301906120ca818360208801611b62565b01949350505050565b6001600160a01b038581168252841660208201526040810183905260806060820181905260009061210690830184611b8e565b9695505050505050565b60006020828403121561212257600080fd5b8151610a5381611b2f565b600060001982141561214157612141611fc2565b5060010190565b634e487b7160e01b600052601260045260246000fd5b60008261216d5761216d612148565b500490565b60008261218157612181612148565b500690565b634e487b7160e01b600052603160045260246000fdfea2646970667358221220b9335d0bd3906c772eef4ffae129f7ee9b7fc86a74f8412f8ca8ae3a3ef7553864736f6c63430008090033",
  "devdoc": {
    "kind": "dev",
    "methods": {
      "approve(address,uint256)": {
        "details": "See {IERC721-approve}."
      },
      "balanceOf(address)": {
        "details": "See {IERC721-balanceOf}."
      },
      "burnNFT(uint256)": {
        "params": {
          "tokenId": "tokenID of NFT to burn"
        }
      },
      "getApproved(uint256)": {
        "details": "See {IERC721-getApproved}."
      },
      "initialize(string,string,address,bool)": {
        "params": {
          "name_": "name of the NFT Collection",
          "openMinting_": "select minting open to everyone or only owner",
          "owner_": "owner of the NFT Collection",
          "symbol_": "symbol of the NFT Collection"
        }
      },
      "isApprovedForAll(address,address)": {
        "details": "See {IERC721-isApprovedForAll}."
      },
      "mintNFT(address,string)": {
        "params": {
          "jsonURI": "json URI of NFT metadata",
          "minter": "address of minter"
        }
      },
      "name()": {
        "details": "See {IERC721Metadata-name}."
      },
      "owner()": {
        "details": "Returns the address of the current owner."
      },
      "ownerOf(uint256)": {
        "details": "See {IERC721-ownerOf}."
      },
      "renounceOwnership()": {
        "details": "Leaves the contract without owner. It will not be possible to call `onlyOwner` functions anymore. Can only be called by the current owner. NOTE: Renouncing ownership will leave the contract without an owner, thereby removing any functionality that is only available to the owner."
      },
      "safeTransferFrom(address,address,uint256)": {
        "details": "See {IERC721-safeTransferFrom}."
      },
      "safeTransferFrom(address,address,uint256,bytes)": {
        "details": "See {IERC721-safeTransferFrom}."
      },
      "setApprovalForAll(address,bool)": {
        "details": "See {IERC721-setApprovalForAll}."
      },
      "supportsInterface(bytes4)": {
        "params": {
          "interfaceId": "interfaceId to test"
        }
      },
      "symbol()": {
        "details": "See {IERC721Metadata-symbol}."
      },
      "tokenByIndex(uint256)": {
        "details": "See {IERC721Enumerable-tokenByIndex}."
      },
      "tokenOfOwnerByIndex(address,uint256)": {
        "details": "See {IERC721Enumerable-tokenOfOwnerByIndex}."
      },
      "tokenURI(uint256)": {
        "params": {
          "tokenId": "tokenId of NFT",
          "tokenURI_": "token URI of NFT"
        }
      },
      "totalSupply()": {
        "details": "See {IERC721Enumerable-totalSupply}."
      },
      "transferFrom(address,address,uint256)": {
        "details": "See {IERC721-transferFrom}."
      },
      "transferOwnership(address)": {
        "details": "Transfers ownership of the contract to a new account (`newOwner`). Can only be called by the current owner."
      }
    },
    "title": "OpenNFTs smartcontract",
    "version": 1
  },
  "userdoc": {
    "kind": "user",
    "methods": {
      "burnNFT(uint256)": {
        "notice": "burn NFT"
      },
      "initialize(string,string,address,bool)": {
        "notice": "initialize"
      },
      "mintNFT(address,string)": {
        "notice": "mint"
      },
      "openMinting()": {
        "notice": "whether minting open to everyone (true) or only owner (false)"
      },
      "supportsInterface(bytes4)": {
        "notice": "test if this interface is supported"
      },
      "tokenURI(uint256)": {
        "notice": "Get tokenURI"
      }
    },
    "version": 1
  },
  "storageLayout": {
    "storage": [
      {
        "astId": 130,
        "contract": "contracts/new/OpenNFTsV3.sol:OpenNFTsV3",
        "label": "_initialized",
        "offset": 0,
        "slot": "0",
        "type": "t_bool"
      },
      {
        "astId": 133,
        "contract": "contracts/new/OpenNFTsV3.sol:OpenNFTsV3",
        "label": "_initializing",
        "offset": 1,
        "slot": "0",
        "type": "t_bool"
      },
      {
        "astId": 2070,
        "contract": "contracts/new/OpenNFTsV3.sol:OpenNFTsV3",
        "label": "__gap",
        "offset": 0,
        "slot": "1",
        "type": "t_array(t_uint256)50_storage"
      },
      {
        "astId": 2391,
        "contract": "contracts/new/OpenNFTsV3.sol:OpenNFTsV3",
        "label": "__gap",
        "offset": 0,
        "slot": "51",
        "type": "t_array(t_uint256)50_storage"
      },
      {
        "astId": 226,
        "contract": "contracts/new/OpenNFTsV3.sol:OpenNFTsV3",
        "label": "_name",
        "offset": 0,
        "slot": "101",
        "type": "t_string_storage"
      },
      {
        "astId": 228,
        "contract": "contracts/new/OpenNFTsV3.sol:OpenNFTsV3",
        "label": "_symbol",
        "offset": 0,
        "slot": "102",
        "type": "t_string_storage"
      },
      {
        "astId": 232,
        "contract": "contracts/new/OpenNFTsV3.sol:OpenNFTsV3",
        "label": "_owners",
        "offset": 0,
        "slot": "103",
        "type": "t_mapping(t_uint256,t_address)"
      },
      {
        "astId": 236,
        "contract": "contracts/new/OpenNFTsV3.sol:OpenNFTsV3",
        "label": "_balances",
        "offset": 0,
        "slot": "104",
        "type": "t_mapping(t_address,t_uint256)"
      },
      {
        "astId": 240,
        "contract": "contracts/new/OpenNFTsV3.sol:OpenNFTsV3",
        "label": "_tokenApprovals",
        "offset": 0,
        "slot": "105",
        "type": "t_mapping(t_uint256,t_address)"
      },
      {
        "astId": 246,
        "contract": "contracts/new/OpenNFTsV3.sol:OpenNFTsV3",
        "label": "_operatorApprovals",
        "offset": 0,
        "slot": "106",
        "type": "t_mapping(t_address,t_mapping(t_address,t_bool))"
      },
      {
        "astId": 1087,
        "contract": "contracts/new/OpenNFTsV3.sol:OpenNFTsV3",
        "label": "__gap",
        "offset": 0,
        "slot": "107",
        "type": "t_array(t_uint256)44_storage"
      },
      {
        "astId": 1252,
        "contract": "contracts/new/OpenNFTsV3.sol:OpenNFTsV3",
        "label": "_ownedTokens",
        "offset": 0,
        "slot": "151",
        "type": "t_mapping(t_address,t_mapping(t_uint256,t_uint256))"
      },
      {
        "astId": 1256,
        "contract": "contracts/new/OpenNFTsV3.sol:OpenNFTsV3",
        "label": "_ownedTokensIndex",
        "offset": 0,
        "slot": "152",
        "type": "t_mapping(t_uint256,t_uint256)"
      },
      {
        "astId": 1259,
        "contract": "contracts/new/OpenNFTsV3.sol:OpenNFTsV3",
        "label": "_allTokens",
        "offset": 0,
        "slot": "153",
        "type": "t_array(t_uint256)dyn_storage"
      },
      {
        "astId": 1263,
        "contract": "contracts/new/OpenNFTsV3.sol:OpenNFTsV3",
        "label": "_allTokensIndex",
        "offset": 0,
        "slot": "154",
        "type": "t_mapping(t_uint256,t_uint256)"
      },
      {
        "astId": 1579,
        "contract": "contracts/new/OpenNFTsV3.sol:OpenNFTsV3",
        "label": "__gap",
        "offset": 0,
        "slot": "155",
        "type": "t_array(t_uint256)46_storage"
      },
      {
        "astId": 1608,
        "contract": "contracts/new/OpenNFTsV3.sol:OpenNFTsV3",
        "label": "_tokenURIs",
        "offset": 0,
        "slot": "201",
        "type": "t_mapping(t_uint256,t_string_storage)"
      },
      {
        "astId": 1727,
        "contract": "contracts/new/OpenNFTsV3.sol:OpenNFTsV3",
        "label": "__gap",
        "offset": 0,
        "slot": "202",
        "type": "t_array(t_uint256)49_storage"
      },
      {
        "astId": 10,
        "contract": "contracts/new/OpenNFTsV3.sol:OpenNFTsV3",
        "label": "_owner",
        "offset": 0,
        "slot": "251",
        "type": "t_address"
      },
      {
        "astId": 122,
        "contract": "contracts/new/OpenNFTsV3.sol:OpenNFTsV3",
        "label": "__gap",
        "offset": 0,
        "slot": "252",
        "type": "t_array(t_uint256)49_storage"
      },
      {
        "astId": 6973,
        "contract": "contracts/new/OpenNFTsV3.sol:OpenNFTsV3",
        "label": "_tokenIds",
        "offset": 0,
        "slot": "301",
        "type": "t_struct(Counter)2077_storage"
      },
      {
        "astId": 6976,
        "contract": "contracts/new/OpenNFTsV3.sol:OpenNFTsV3",
        "label": "openMinting",
        "offset": 0,
        "slot": "302",
        "type": "t_bool"
      }
    ],
    "types": {
      "t_address": {
        "encoding": "inplace",
        "label": "address",
        "numberOfBytes": "20"
      },
      "t_array(t_uint256)44_storage": {
        "base": "t_uint256",
        "encoding": "inplace",
        "label": "uint256[44]",
        "numberOfBytes": "1408"
      },
      "t_array(t_uint256)46_storage": {
        "base": "t_uint256",
        "encoding": "inplace",
        "label": "uint256[46]",
        "numberOfBytes": "1472"
      },
      "t_array(t_uint256)49_storage": {
        "base": "t_uint256",
        "encoding": "inplace",
        "label": "uint256[49]",
        "numberOfBytes": "1568"
      },
      "t_array(t_uint256)50_storage": {
        "base": "t_uint256",
        "encoding": "inplace",
        "label": "uint256[50]",
        "numberOfBytes": "1600"
      },
      "t_array(t_uint256)dyn_storage": {
        "base": "t_uint256",
        "encoding": "dynamic_array",
        "label": "uint256[]",
        "numberOfBytes": "32"
      },
      "t_bool": {
        "encoding": "inplace",
        "label": "bool",
        "numberOfBytes": "1"
      },
      "t_mapping(t_address,t_bool)": {
        "encoding": "mapping",
        "key": "t_address",
        "label": "mapping(address => bool)",
        "numberOfBytes": "32",
        "value": "t_bool"
      },
      "t_mapping(t_address,t_mapping(t_address,t_bool))": {
        "encoding": "mapping",
        "key": "t_address",
        "label": "mapping(address => mapping(address => bool))",
        "numberOfBytes": "32",
        "value": "t_mapping(t_address,t_bool)"
      },
      "t_mapping(t_address,t_mapping(t_uint256,t_uint256))": {
        "encoding": "mapping",
        "key": "t_address",
        "label": "mapping(address => mapping(uint256 => uint256))",
        "numberOfBytes": "32",
        "value": "t_mapping(t_uint256,t_uint256)"
      },
      "t_mapping(t_address,t_uint256)": {
        "encoding": "mapping",
        "key": "t_address",
        "label": "mapping(address => uint256)",
        "numberOfBytes": "32",
        "value": "t_uint256"
      },
      "t_mapping(t_uint256,t_address)": {
        "encoding": "mapping",
        "key": "t_uint256",
        "label": "mapping(uint256 => address)",
        "numberOfBytes": "32",
        "value": "t_address"
      },
      "t_mapping(t_uint256,t_string_storage)": {
        "encoding": "mapping",
        "key": "t_uint256",
        "label": "mapping(uint256 => string)",
        "numberOfBytes": "32",
        "value": "t_string_storage"
      },
      "t_mapping(t_uint256,t_uint256)": {
        "encoding": "mapping",
        "key": "t_uint256",
        "label": "mapping(uint256 => uint256)",
        "numberOfBytes": "32",
        "value": "t_uint256"
      },
      "t_string_storage": {
        "encoding": "bytes",
        "label": "string",
        "numberOfBytes": "32"
      },
      "t_struct(Counter)2077_storage": {
        "encoding": "inplace",
        "label": "struct CountersUpgradeable.Counter",
        "members": [
          {
            "astId": 2076,
            "contract": "contracts/new/OpenNFTsV3.sol:OpenNFTsV3",
            "label": "_value",
            "offset": 0,
            "slot": "0",
            "type": "t_uint256"
          }
        ],
        "numberOfBytes": "32"
      },
      "t_uint256": {
        "encoding": "inplace",
        "label": "uint256",
        "numberOfBytes": "32"
      }
    }
  }
}