{
  "address": "0x85ac62841c72674A526Bb4BEB3C8ef29695242c2",
  "abi": [
    {
      "inputs": [
        {
          "internalType": "address",
          "name": "_contractProbe",
          "type": "address"
        }
      ],
      "stateMutability": "nonpayable",
      "type": "constructor"
    },
    {
      "anonymous": false,
      "inputs": [
        {
          "indexed": false,
          "internalType": "address",
          "name": "implementation",
          "type": "address"
        },
        {
          "indexed": false,
          "internalType": "address",
          "name": "template",
          "type": "address"
        },
        {
          "indexed": false,
          "internalType": "address",
          "name": "creator",
          "type": "address"
        }
      ],
      "name": "NewImplementation",
      "type": "event"
    },
    {
      "anonymous": false,
      "inputs": [
        {
          "indexed": false,
          "internalType": "address",
          "name": "template",
          "type": "address"
        },
        {
          "indexed": false,
          "internalType": "address",
          "name": "creator",
          "type": "address"
        }
      ],
      "name": "NewTemplate",
      "type": "event"
    },
    {
      "anonymous": false,
      "inputs": [
        {
          "indexed": true,
          "internalType": "address",
          "name": "previousOwner",
          "type": "address"
        },
        {
          "indexed": true,
          "internalType": "address",
          "name": "newOwner",
          "type": "address"
        }
      ],
      "name": "OwnershipTransferred",
      "type": "event"
    },
    {
      "inputs": [
        {
          "internalType": "address",
          "name": "_implementation",
          "type": "address"
        }
      ],
      "name": "addImplementation",
      "outputs": [],
      "stateMutability": "nonpayable",
      "type": "function"
    },
    {
      "inputs": [
        {
          "internalType": "uint256",
          "name": "",
          "type": "uint256"
        }
      ],
      "name": "implementations",
      "outputs": [
        {
          "internalType": "address",
          "name": "",
          "type": "address"
        }
      ],
      "stateMutability": "view",
      "type": "function"
    },
    {
      "inputs": [],
      "name": "implementationsCount",
      "outputs": [
        {
          "internalType": "uint256",
          "name": "count",
          "type": "uint256"
        }
      ],
      "stateMutability": "view",
      "type": "function"
    },
    {
      "inputs": [],
      "name": "owner",
      "outputs": [
        {
          "internalType": "address",
          "name": "",
          "type": "address"
        }
      ],
      "stateMutability": "view",
      "type": "function"
    },
    {
      "inputs": [],
      "name": "renounceOwnership",
      "outputs": [],
      "stateMutability": "nonpayable",
      "type": "function"
    },
    {
      "inputs": [
        {
          "internalType": "address",
          "name": "_template",
          "type": "address"
        }
      ],
      "name": "setDefaultTemplate",
      "outputs": [],
      "stateMutability": "nonpayable",
      "type": "function"
    },
    {
      "inputs": [],
      "name": "template",
      "outputs": [
        {
          "internalType": "address",
          "name": "",
          "type": "address"
        }
      ],
      "stateMutability": "view",
      "type": "function"
    },
    {
      "inputs": [
        {
          "internalType": "address",
          "name": "",
          "type": "address"
        }
      ],
      "name": "templates",
      "outputs": [
        {
          "internalType": "address",
          "name": "",
          "type": "address"
        }
      ],
      "stateMutability": "view",
      "type": "function"
    },
    {
      "inputs": [
        {
          "internalType": "address",
          "name": "newOwner",
          "type": "address"
        }
      ],
      "name": "transferOwnership",
      "outputs": [],
      "stateMutability": "nonpayable",
      "type": "function"
    }
  ],
  "transactionHash": "0x96d0f6c9de33cf48b9f7a28c5207702a96c51aeae8ea381deb9d24b7a02a82c8",
  "args": [
    "0xd91fdC4F5f9A062bd99f29facF8B4e7A86C9A1e5"
  ],
  "solcInputHash": "0a4ccaaeac061eed6f106d35b997b95f",
  "bytecode": "0x608060405234801561001057600080fd5b506040516107be3803806107be83398101604081905261002f916100ad565b6100383361005d565b600480546001600160a01b0319166001600160a01b03929092169190911790556100db565b600080546001600160a01b038381166001600160a01b0319831681178455604051919092169283917f8be0079c531659141344cd1fd0a4f28419497f9722a3daafe3b4186f6b6457e09190a35050565b6000602082840312156100be578081fd5b81516001600160a01b03811681146100d4578182fd5b9392505050565b6106d4806100ea6000396000f3fe608060405234801561001057600080fd5b50600436106100935760003560e01c80638da5cb5b116100665780638da5cb5b1461010e578063b98a47481461011f578063c17bae4f14610132578063c6e2a40014610143578063f2fde38b1461015657600080fd5b806320a99bd0146100985780636f2ddd93146100de578063715018a6146100f1578063845affc8146100fb575b600080fd5b6100c16100a63660046105dc565b6003602052600090815260409020546001600160a01b031681565b6040516001600160a01b0390911681526020015b60405180910390f35b6002546100c1906001600160a01b031681565b6100f9610169565b005b6100c161010936600461063c565b6101a8565b6000546001600160a01b03166100c1565b6100f961012d3660046105dc565b6101d2565b6001546040519081526020016100d5565b6100f96101513660046105dc565b6102dd565b6100f96101643660046105dc565b610313565b6000546001600160a01b0316331461019c5760405162461bcd60e51b815260040161019390610654565b60405180910390fd5b6101a660006103a7565b565b600181815481106101b857600080fd5b6000918252602090912001546001600160a01b0316905081565b6000546001600160a01b031633146101fc5760405162461bcd60e51b815260040161019390610654565b6001600160a01b038181166000908152600360205260409020541661022457610224816102dd565b6001600160a01b03808216600081815260036020526040902054909116146102845760405162461bcd60e51b815260206004820152601360248201527254656d706c617465206973206120436c6f6e6560681b6044820152606401610193565b600280546001600160a01b0319166001600160a01b038316908117909155604080519182523360208301527f81bbf04250a28f0d5979a401ffb6705dcebf8b354060431d672cf1ea4594fc67910160405180910390a150565b6000546001600160a01b031633146103075760405162461bcd60e51b815260040161019390610654565b610310816103f7565b50565b6000546001600160a01b0316331461033d5760405162461bcd60e51b815260040161019390610654565b6001600160a01b0381166103a25760405162461bcd60e51b815260206004820152602660248201527f4f776e61626c653a206e6577206f776e657220697320746865207a65726f206160448201526564647265737360d01b6064820152608401610193565b610310815b600080546001600160a01b038381166001600160a01b0319831681178455604051919092169283917f8be0079c531659141344cd1fd0a4f28419497f9722a3daafe3b4186f6b6457e09190a35050565b6001600160a01b03818116600090815260036020526040902054161561045f5760405162461bcd60e51b815260206004820152601d60248201527f496d706c656d656e746174696f6e20616c7265616479206578697374730000006044820152606401610193565b6004805460405163275e5da560e01b81526001600160a01b03848116938201939093526000928392169063275e5da590602401604080518083038186803b1580156104a957600080fd5b505afa1580156104bd573d6000803e3d6000fd5b505050506040513d601f19601f820116820180604052508101906104e191906105ff565b91509150816105325760405162461bcd60e51b815260206004820181905260248201527f496d706c656d656e746174696f6e206973206e6f74206120436f6e74726163746044820152606401610193565b600180548082019091557fb10e2d527612073b26eecdfd717e6a320cf44b4afac2b0732d9fcbe2b7fa0cf60180546001600160a01b038581166001600160a01b03199283168117909355600083815260036020908152604091829020805493871693909416831790935580519384529183015233908201527f053585d4de2374a5e4cee65e665171098bd6777e89041c2915cdac4d567cd93f9060600160405180910390a1505050565b6000602082840312156105ed578081fd5b81356105f881610689565b9392505050565b60008060408385031215610611578081fd5b82518015158114610620578182fd5b602084015190925061063181610689565b809150509250929050565b60006020828403121561064d578081fd5b5035919050565b6020808252818101527f4f776e61626c653a2063616c6c6572206973206e6f7420746865206f776e6572604082015260600190565b6001600160a01b038116811461031057600080fdfea2646970667358221220474c99360c549fbfc63185b4f2666afebb43f91cee7f6bf01c8d8a83ba4026a764736f6c63430008040033",
  "devdoc": {
    "kind": "dev",
    "methods": {
      "owner()": {
        "details": "Returns the address of the current owner."
      },
      "renounceOwnership()": {
        "details": "Leaves the contract without owner. It will not be possible to call `onlyOwner` functions anymore. Can only be called by the current owner. NOTE: Renouncing ownership will leave the contract without an owner, thereby removing any functionality that is only available to the owner."
      },
      "transferOwnership(address)": {
        "details": "Transfers ownership of the contract to a new account (`newOwner`). Can only be called by the current owner."
      }
    },
    "version": 1
  },
  "userdoc": {
    "kind": "user",
    "methods": {},
    "version": 1
  },
  "storageLayout": {
    "storage": [
      {
        "astId": 2362,
        "contract": "solidity/contracts/CloneFactory.sol:CloneFactory",
        "label": "_owner",
        "offset": 0,
        "slot": "0",
        "type": "t_address"
      },
      {
        "astId": 2959,
        "contract": "solidity/contracts/CloneFactory.sol:CloneFactory",
        "label": "implementations",
        "offset": 0,
        "slot": "1",
        "type": "t_array(t_address)dyn_storage"
      },
      {
        "astId": 2961,
        "contract": "solidity/contracts/CloneFactory.sol:CloneFactory",
        "label": "template",
        "offset": 0,
        "slot": "2",
        "type": "t_address"
      },
      {
        "astId": 2965,
        "contract": "solidity/contracts/CloneFactory.sol:CloneFactory",
        "label": "templates",
        "offset": 0,
        "slot": "3",
        "type": "t_mapping(t_address,t_address)"
      },
      {
        "astId": 2967,
        "contract": "solidity/contracts/CloneFactory.sol:CloneFactory",
        "label": "contractProbe",
        "offset": 0,
        "slot": "4",
        "type": "t_address"
      }
    ],
    "types": {
      "t_address": {
        "encoding": "inplace",
        "label": "address",
        "numberOfBytes": "20"
      },
      "t_array(t_address)dyn_storage": {
        "base": "t_address",
        "encoding": "dynamic_array",
        "label": "address[]",
        "numberOfBytes": "32"
      },
      "t_mapping(t_address,t_address)": {
        "encoding": "mapping",
        "key": "t_address",
        "label": "mapping(address => address)",
        "numberOfBytes": "32",
        "value": "t_address"
      }
    }
  }
}