{
  "address": "0x85ac62841c72674A526Bb4BEB3C8ef29695242c2",
  "abi": [
    {
      "inputs": [
        {
          "internalType": "address",
          "name": "_contractProbe",
          "type": "address"
        }
      ],
      "stateMutability": "nonpayable",
      "type": "constructor"
    },
    {
      "anonymous": false,
      "inputs": [
        {
          "indexed": false,
          "internalType": "address",
          "name": "implementation",
          "type": "address"
        },
        {
          "indexed": false,
          "internalType": "address",
          "name": "template",
          "type": "address"
        },
        {
          "indexed": false,
          "internalType": "address",
          "name": "creator",
          "type": "address"
        }
      ],
      "name": "NewImplementation",
      "type": "event"
    },
    {
      "anonymous": false,
      "inputs": [
        {
          "indexed": false,
          "internalType": "address",
          "name": "template",
          "type": "address"
        },
        {
          "indexed": false,
          "internalType": "address",
          "name": "creator",
          "type": "address"
        }
      ],
      "name": "NewTemplate",
      "type": "event"
    },
    {
      "anonymous": false,
      "inputs": [
        {
          "indexed": true,
          "internalType": "address",
          "name": "previousOwner",
          "type": "address"
        },
        {
          "indexed": true,
          "internalType": "address",
          "name": "newOwner",
          "type": "address"
        }
      ],
      "name": "OwnershipTransferred",
      "type": "event"
    },
    {
      "inputs": [
        {
          "internalType": "address",
          "name": "_implementation",
          "type": "address"
        }
      ],
      "name": "addImplementation",
      "outputs": [],
      "stateMutability": "nonpayable",
      "type": "function"
    },
    {
      "inputs": [],
      "name": "clone",
      "outputs": [
        {
          "internalType": "address",
          "name": "_clone",
          "type": "address"
        }
      ],
      "stateMutability": "payable",
      "type": "function"
    },
    {
      "inputs": [
        {
          "internalType": "uint256",
          "name": "",
          "type": "uint256"
        }
      ],
      "name": "implementations",
      "outputs": [
        {
          "internalType": "address",
          "name": "",
          "type": "address"
        }
      ],
      "stateMutability": "view",
      "type": "function"
    },
    {
      "inputs": [],
      "name": "implementationsCount",
      "outputs": [
        {
          "internalType": "uint256",
          "name": "count",
          "type": "uint256"
        }
      ],
      "stateMutability": "view",
      "type": "function"
    },
    {
      "inputs": [],
      "name": "owner",
      "outputs": [
        {
          "internalType": "address",
          "name": "",
          "type": "address"
        }
      ],
      "stateMutability": "view",
      "type": "function"
    },
    {
      "inputs": [],
      "name": "renounceOwnership",
      "outputs": [],
      "stateMutability": "nonpayable",
      "type": "function"
    },
    {
      "inputs": [
        {
          "internalType": "address",
          "name": "_template",
          "type": "address"
        }
      ],
      "name": "setDefaultTemplate",
      "outputs": [],
      "stateMutability": "nonpayable",
      "type": "function"
    },
    {
      "inputs": [],
      "name": "template",
      "outputs": [
        {
          "internalType": "address",
          "name": "",
          "type": "address"
        }
      ],
      "stateMutability": "view",
      "type": "function"
    },
    {
      "inputs": [
        {
          "internalType": "address",
          "name": "",
          "type": "address"
        }
      ],
      "name": "templates",
      "outputs": [
        {
          "internalType": "address",
          "name": "",
          "type": "address"
        }
      ],
      "stateMutability": "view",
      "type": "function"
    },
    {
      "inputs": [
        {
          "internalType": "address",
          "name": "newOwner",
          "type": "address"
        }
      ],
      "name": "transferOwnership",
      "outputs": [],
      "stateMutability": "nonpayable",
      "type": "function"
    }
  ],
  "transactionHash": "0x056cf5d7e3f0db370714fe2a10a76290adc8a2ee059a36d2a64ce8385e6f02ba",
  "args": [
    "0xd91fdC4F5f9A062bd99f29facF8B4e7A86C9A1e5"
  ],
  "solcInputHash": "a45a27462145c80d1f892e2bd95a21fb",
  "bytecode": "0x608060405234801561001057600080fd5b5060405161094438038061094483398101604081905261002f916100ad565b6100383361005d565b600480546001600160a01b0319166001600160a01b03929092169190911790556100db565b600080546001600160a01b038381166001600160a01b0319831681178455604051919092169283917f8be0079c531659141344cd1fd0a4f28419497f9722a3daafe3b4186f6b6457e09190a35050565b6000602082840312156100be578081fd5b81516001600160a01b03811681146100d4578182fd5b9392505050565b61085a806100ea6000396000f3fe6080604052600436106100915760003560e01c80638da5cb5b116100595780638da5cb5b14610148578063b98a474814610166578063c17bae4f14610186578063c6e2a400146101a4578063f2fde38b146101c457600080fd5b806309ed46071461009657806320a99bd0146100bb5780636f2ddd93146100f1578063715018a614610111578063845affc814610128575b600080fd5b61009e6101e4565b6040516001600160a01b0390911681526020015b60405180910390f35b3480156100c757600080fd5b5061009e6100d6366004610762565b6003602052600090815260409020546001600160a01b031681565b3480156100fd57600080fd5b5060025461009e906001600160a01b031681565b34801561011d57600080fd5b50610126610260565b005b34801561013457600080fd5b5061009e6101433660046107c2565b610296565b34801561015457600080fd5b506000546001600160a01b031661009e565b34801561017257600080fd5b50610126610181366004610762565b6102c0565b34801561019257600080fd5b506001546040519081526020016100b2565b3480156101b057600080fd5b506101266101bf366004610762565b6103cb565b3480156101d057600080fd5b506101266101df366004610762565b6105da565b6002546000906001600160a01b031661023d5760405162461bcd60e51b815260206004820152601660248201527515195b5c1b185d1948191bd95cdb89dd08195e1a5cdd60521b60448201526064015b60405180910390fd5b600254610252906001600160a01b0316610675565b905061025d816103cb565b90565b6000546001600160a01b0316331461028a5760405162461bcd60e51b8152600401610234906107da565b6102946000610712565b565b600181815481106102a657600080fd5b6000918252602090912001546001600160a01b0316905081565b6000546001600160a01b031633146102ea5760405162461bcd60e51b8152600401610234906107da565b6001600160a01b038181166000908152600360205260409020541661031257610312816103cb565b6001600160a01b03808216600081815260036020526040902054909116146103725760405162461bcd60e51b815260206004820152601360248201527254656d706c617465206973206120436c6f6e6560681b6044820152606401610234565b600280546001600160a01b0319166001600160a01b038316908117909155604080519182523360208301527f81bbf04250a28f0d5979a401ffb6705dcebf8b354060431d672cf1ea4594fc67910160405180910390a150565b6000546001600160a01b031633146103f55760405162461bcd60e51b8152600401610234906107da565b6001600160a01b03818116600090815260036020526040902054161561045d5760405162461bcd60e51b815260206004820152601d60248201527f496d706c656d656e746174696f6e20616c7265616479206578697374730000006044820152606401610234565b6004805460405163275e5da560e01b81526001600160a01b03848116938201939093526000928392169063275e5da590602401604080518083038186803b1580156104a757600080fd5b505afa1580156104bb573d6000803e3d6000fd5b505050506040513d601f19601f820116820180604052508101906104df9190610785565b91509150816105305760405162461bcd60e51b815260206004820181905260248201527f496d706c656d656e746174696f6e206973206e6f74206120436f6e74726163746044820152606401610234565b600180548082019091557fb10e2d527612073b26eecdfd717e6a320cf44b4afac2b0732d9fcbe2b7fa0cf60180546001600160a01b038581166001600160a01b03199283168117909355600083815260036020908152604091829020805493871693909416831790935580519384529183015233908201527f053585d4de2374a5e4cee65e665171098bd6777e89041c2915cdac4d567cd93f9060600160405180910390a1505050565b6000546001600160a01b031633146106045760405162461bcd60e51b8152600401610234906107da565b6001600160a01b0381166106695760405162461bcd60e51b815260206004820152602660248201527f4f776e61626c653a206e6577206f776e657220697320746865207a65726f206160448201526564647265737360d01b6064820152608401610234565b61067281610712565b50565b6000604051733d602d80600a3d3981f3363d3d373d3d3d363d7360601b81528260601b60148201526e5af43d82803e903d91602b57fd5bf360881b60288201526037816000f09150506001600160a01b03811661070d5760405162461bcd60e51b8152602060048201526016602482015275115490cc4c4d8dce8818dc99585d194819985a5b195960521b6044820152606401610234565b919050565b600080546001600160a01b038381166001600160a01b0319831681178455604051919092169283917f8be0079c531659141344cd1fd0a4f28419497f9722a3daafe3b4186f6b6457e09190a35050565b600060208284031215610773578081fd5b813561077e8161080f565b9392505050565b60008060408385031215610797578081fd5b825180151581146107a6578182fd5b60208401519092506107b78161080f565b809150509250929050565b6000602082840312156107d3578081fd5b5035919050565b6020808252818101527f4f776e61626c653a2063616c6c6572206973206e6f7420746865206f776e6572604082015260600190565b6001600160a01b038116811461067257600080fdfea26469706673582212202c3fb008e9cb6b677a4b378256162851bb04e4a7d05dc0b2c5b30557c1d335c964736f6c63430008040033",
  "devdoc": {
    "kind": "dev",
    "methods": {
      "owner()": {
        "details": "Returns the address of the current owner."
      },
      "renounceOwnership()": {
        "details": "Leaves the contract without owner. It will not be possible to call `onlyOwner` functions anymore. Can only be called by the current owner. NOTE: Renouncing ownership will leave the contract without an owner, thereby removing any functionality that is only available to the owner."
      },
      "transferOwnership(address)": {
        "details": "Transfers ownership of the contract to a new account (`newOwner`). Can only be called by the current owner."
      }
    },
    "version": 1
  },
  "userdoc": {
    "kind": "user",
    "methods": {},
    "version": 1
  },
  "storageLayout": {
    "storage": [
      {
        "astId": 2362,
        "contract": "solidity/contracts/CloneFactory.sol:CloneFactory",
        "label": "_owner",
        "offset": 0,
        "slot": "0",
        "type": "t_address"
      },
      {
        "astId": 11023,
        "contract": "solidity/contracts/CloneFactory.sol:CloneFactory",
        "label": "implementations",
        "offset": 0,
        "slot": "1",
        "type": "t_array(t_address)dyn_storage"
      },
      {
        "astId": 11025,
        "contract": "solidity/contracts/CloneFactory.sol:CloneFactory",
        "label": "template",
        "offset": 0,
        "slot": "2",
        "type": "t_address"
      },
      {
        "astId": 11029,
        "contract": "solidity/contracts/CloneFactory.sol:CloneFactory",
        "label": "templates",
        "offset": 0,
        "slot": "3",
        "type": "t_mapping(t_address,t_address)"
      },
      {
        "astId": 11031,
        "contract": "solidity/contracts/CloneFactory.sol:CloneFactory",
        "label": "contractProbe",
        "offset": 0,
        "slot": "4",
        "type": "t_address"
      }
    ],
    "types": {
      "t_address": {
        "encoding": "inplace",
        "label": "address",
        "numberOfBytes": "20"
      },
      "t_array(t_address)dyn_storage": {
        "base": "t_address",
        "encoding": "dynamic_array",
        "label": "address[]",
        "numberOfBytes": "32"
      },
      "t_mapping(t_address,t_address)": {
        "encoding": "mapping",
        "key": "t_address",
        "label": "mapping(address => address)",
        "numberOfBytes": "32",
        "value": "t_address"
      }
    }
  }
}