{
  "address": "0x43dd4046C5F0dA4Df6e321e0Bdd4bBa123821f2a",
  "abi": [
    {
      "inputs": [
        {
          "internalType": "address",
          "name": "_contractprobe",
          "type": "address"
        }
      ],
      "stateMutability": "nonpayable",
      "type": "constructor"
    },
    {
      "anonymous": false,
      "inputs": [
        {
          "indexed": false,
          "internalType": "address",
          "name": "implementation",
          "type": "address"
        },
        {
          "indexed": false,
          "internalType": "address",
          "name": "template",
          "type": "address"
        },
        {
          "indexed": false,
          "internalType": "address",
          "name": "creator",
          "type": "address"
        }
      ],
      "name": "NewImplementation",
      "type": "event"
    },
    {
      "anonymous": false,
      "inputs": [
        {
          "indexed": false,
          "internalType": "address",
          "name": "template",
          "type": "address"
        },
        {
          "indexed": false,
          "internalType": "address",
          "name": "creator",
          "type": "address"
        }
      ],
      "name": "NewTemplate",
      "type": "event"
    },
    {
      "anonymous": false,
      "inputs": [
        {
          "indexed": true,
          "internalType": "address",
          "name": "previousOwner",
          "type": "address"
        },
        {
          "indexed": true,
          "internalType": "address",
          "name": "newOwner",
          "type": "address"
        }
      ],
      "name": "OwnershipTransferred",
      "type": "event"
    },
    {
      "inputs": [
        {
          "internalType": "address",
          "name": "_implementation",
          "type": "address"
        }
      ],
      "name": "addImplementation",
      "outputs": [],
      "stateMutability": "nonpayable",
      "type": "function"
    },
    {
      "inputs": [
        {
          "internalType": "address",
          "name": "nft",
          "type": "address"
        },
        {
          "internalType": "address",
          "name": "owner",
          "type": "address"
        }
      ],
      "name": "balanceOf",
      "outputs": [
        {
          "components": [
            {
              "internalType": "address",
              "name": "nft",
              "type": "address"
            },
            {
              "internalType": "string",
              "name": "name",
              "type": "string"
            },
            {
              "internalType": "string",
              "name": "symbol",
              "type": "string"
            },
            {
              "internalType": "uint256",
              "name": "balance",
              "type": "uint256"
            },
            {
              "internalType": "address",
              "name": "owner",
              "type": "address"
            }
          ],
          "internalType": "struct NFTsFactory.NftData",
          "name": "nftData",
          "type": "tuple"
        }
      ],
      "stateMutability": "view",
      "type": "function"
    },
    {
      "inputs": [
        {
          "internalType": "address",
          "name": "owner",
          "type": "address"
        }
      ],
      "name": "balancesOf",
      "outputs": [
        {
          "components": [
            {
              "internalType": "address",
              "name": "nft",
              "type": "address"
            },
            {
              "internalType": "string",
              "name": "name",
              "type": "string"
            },
            {
              "internalType": "string",
              "name": "symbol",
              "type": "string"
            },
            {
              "internalType": "uint256",
              "name": "balance",
              "type": "uint256"
            },
            {
              "internalType": "address",
              "name": "owner",
              "type": "address"
            }
          ],
          "internalType": "struct NFTsFactory.NftData[]",
          "name": "nftData",
          "type": "tuple[]"
        }
      ],
      "stateMutability": "view",
      "type": "function"
    },
    {
      "inputs": [],
      "name": "clone",
      "outputs": [
        {
          "internalType": "address",
          "name": "_clone",
          "type": "address"
        }
      ],
      "stateMutability": "payable",
      "type": "function"
    },
    {
      "inputs": [
        {
          "internalType": "uint256",
          "name": "",
          "type": "uint256"
        }
      ],
      "name": "implementations",
      "outputs": [
        {
          "internalType": "address",
          "name": "",
          "type": "address"
        }
      ],
      "stateMutability": "view",
      "type": "function"
    },
    {
      "inputs": [],
      "name": "implementationsCount",
      "outputs": [
        {
          "internalType": "uint256",
          "name": "count",
          "type": "uint256"
        }
      ],
      "stateMutability": "view",
      "type": "function"
    },
    {
      "inputs": [],
      "name": "owner",
      "outputs": [
        {
          "internalType": "address",
          "name": "",
          "type": "address"
        }
      ],
      "stateMutability": "view",
      "type": "function"
    },
    {
      "inputs": [],
      "name": "renounceOwnership",
      "outputs": [],
      "stateMutability": "nonpayable",
      "type": "function"
    },
    {
      "inputs": [
        {
          "internalType": "address",
          "name": "_template",
          "type": "address"
        }
      ],
      "name": "setDefaultTemplate",
      "outputs": [],
      "stateMutability": "nonpayable",
      "type": "function"
    },
    {
      "inputs": [],
      "name": "template",
      "outputs": [
        {
          "internalType": "address",
          "name": "",
          "type": "address"
        }
      ],
      "stateMutability": "view",
      "type": "function"
    },
    {
      "inputs": [
        {
          "internalType": "address",
          "name": "",
          "type": "address"
        }
      ],
      "name": "templates",
      "outputs": [
        {
          "internalType": "address",
          "name": "",
          "type": "address"
        }
      ],
      "stateMutability": "view",
      "type": "function"
    },
    {
      "inputs": [
        {
          "internalType": "address",
          "name": "newOwner",
          "type": "address"
        }
      ],
      "name": "transferOwnership",
      "outputs": [],
      "stateMutability": "nonpayable",
      "type": "function"
    }
  ],
  "transactionHash": "0x4bc926168fa7c10fd2460900d78ca0c2043d2e6b167af9e06c0996b09c74316a",
  "args": [
    "0xd91fdC4F5f9A062bd99f29facF8B4e7A86C9A1e5"
  ],
  "solcInputHash": "a45a27462145c80d1f892e2bd95a21fb",
  "bytecode": "0x608060405234801561001057600080fd5b5060405161169b38038061169b83398101604081905261002f916100af565b806100393361005f565b600480546001600160a01b0319166001600160a01b0392909216919091179055506100dd565b600080546001600160a01b038381166001600160a01b0319831681178455604051919092169283917f8be0079c531659141344cd1fd0a4f28419497f9722a3daafe3b4186f6b6457e09190a35050565b6000602082840312156100c0578081fd5b81516001600160a01b03811681146100d6578182fd5b9392505050565b6115af806100ec6000396000f3fe6080604052600436106100a75760003560e01c80638da5cb5b116100645780638da5cb5b1461018b578063b98a4748146101a9578063c17bae4f146101c9578063c6e2a400146101e7578063f2fde38b14610207578063f7888aec1461022757600080fd5b806309ed4607146100ac57806320a99bd0146100d15780636392a51f146101075780636f2ddd9314610134578063715018a614610154578063845affc81461016b575b600080fd5b6100b4610254565b6040516001600160a01b0390911681526020015b60405180910390f35b3480156100dd57600080fd5b506100b46100ec3660046111cf565b6003602052600090815260409020546001600160a01b031681565b34801561011357600080fd5b506101276101223660046111cf565b6103ca565b6040516100c8919061140a565b34801561014057600080fd5b506002546100b4906001600160a01b031681565b34801561016057600080fd5b506101696104c1565b005b34801561017757600080fd5b506100b461018636600461132d565b6104f7565b34801561019757600080fd5b506000546001600160a01b03166100b4565b3480156101b557600080fd5b506101696101c43660046111cf565b610521565b3480156101d557600080fd5b506001546040519081526020016100c8565b3480156101f357600080fd5b506101696102023660046111cf565b61062c565b34801561021357600080fd5b506101696102223660046111cf565b61083b565b34801561023357600080fd5b50610247610242366004611207565b6108d6565b6040516100c891906114c2565b60006102806040518060400160405280600881526020016776616c756520257360c01b81525034610d82565b600134116102c85760405162461bcd60e51b815260206004820152601060248201526f436c6f6e652069732070617961626c6560801b60448201526064015b60405180910390fd5b6102d0610dcb565b90506102ec6001600160a01b038216632bb7fe3960e01b610e42565b6103385760405162461bcd60e51b815260206004820152601f60248201527f436c6f6e65206973206e6f74204f70656e204e46547320636f6e74726163740060448201526064016102bf565b6040805163266c45bb60e11b8152600481019190915260096044820152684f70656e204e46547360b81b606482015260806024820152600360848201526213919560ea1b60a48201526001600160a01b03821690634cd88b769060c401600060405180830381600087803b1580156103af57600080fd5b505af11580156103c3573d6000803e3d6000fd5b5050505090565b60015460609067ffffffffffffffff8111156103f657634e487b7160e01b600052604160045260246000fd5b60405190808252806020026020018201604052801561042f57816020015b61041c61117e565b8152602001906001900390816104145790505b50905060005b6001548110156104bb5761047e6001828154811061046357634e487b7160e01b600052603260045260246000fd5b6000918252602090912001546001600160a01b0316846108d6565b82828151811061049e57634e487b7160e01b600052603260045260246000fd5b60209081029190910101526104b46001826114d5565b9050610435565b50919050565b6000546001600160a01b031633146104eb5760405162461bcd60e51b81526004016102bf9061148d565b6104f56000610e67565b565b6001818154811061050757600080fd5b6000918252602090912001546001600160a01b0316905081565b6000546001600160a01b0316331461054b5760405162461bcd60e51b81526004016102bf9061148d565b6001600160a01b0381811660009081526003602052604090205416610573576105738161062c565b6001600160a01b03808216600081815260036020526040902054909116146105d35760405162461bcd60e51b815260206004820152601360248201527254656d706c617465206973206120436c6f6e6560681b60448201526064016102bf565b600280546001600160a01b0319166001600160a01b038316908117909155604080519182523360208301527f81bbf04250a28f0d5979a401ffb6705dcebf8b354060431d672cf1ea4594fc67910160405180910390a150565b6000546001600160a01b031633146106565760405162461bcd60e51b81526004016102bf9061148d565b6001600160a01b0381811660009081526003602052604090205416156106be5760405162461bcd60e51b815260206004820152601d60248201527f496d706c656d656e746174696f6e20616c72656164792065786973747300000060448201526064016102bf565b6004805460405163275e5da560e01b81526001600160a01b03848116938201939093526000928392169063275e5da590602401604080518083038186803b15801561070857600080fd5b505afa15801561071c573d6000803e3d6000fd5b505050506040513d601f19601f820116820180604052508101906107409190611259565b91509150816107915760405162461bcd60e51b815260206004820181905260248201527f496d706c656d656e746174696f6e206973206e6f74206120436f6e747261637460448201526064016102bf565b600180548082019091557fb10e2d527612073b26eecdfd717e6a320cf44b4afac2b0732d9fcbe2b7fa0cf60180546001600160a01b038581166001600160a01b03199283168117909355600083815260036020908152604091829020805493871693909416831790935580519384529183015233908201527f053585d4de2374a5e4cee65e665171098bd6777e89041c2915cdac4d567cd93f9060600160405180910390a1505050565b6000546001600160a01b031633146108655760405162461bcd60e51b81526004016102bf9061148d565b6001600160a01b0381166108ca5760405162461bcd60e51b815260206004820152602660248201527f4f776e61626c653a206e6577206f776e657220697320746865207a65726f206160448201526564647265737360d01b60648201526084016102bf565b6108d381610e67565b50565b6108de61117e565b60408051600480825260a0820190925260009160208201608080368337505081519192506380ac58cd60e01b9183915060009061092b57634e487b7160e01b600052603260045260246000fd5b6001600160e01b031990921660209283029190910190910152805163780e9d6360e01b908290600190811061097057634e487b7160e01b600052603260045260246000fd5b6001600160e01b031990921660209283029190910190910152805163780e9d6360e01b90829060029081106109b557634e487b7160e01b600052603260045260246000fd5b6001600160e01b0319909216602092830291909101909101528051632bb7fe3960e01b90829060039081106109fa57634e487b7160e01b600052603260045260246000fd5b6001600160e01b0319909216602092830291909101909101526000610a286001600160a01b03861683610eb7565b905080600060ff1681518110610a4e57634e487b7160e01b600052603260045260246000fd5b602002602001015115610d7a576001600160a01b0385168352805181906001908110610a8a57634e487b7160e01b600052603260045260246000fd5b602002602001015115610b8f57846001600160a01b03166306fdde036040518163ffffffff1660e01b815260040160006040518083038186803b158015610ad057600080fd5b505afa158015610ae4573d6000803e3d6000fd5b505050506040513d6000823e601f3d908101601f19168201604052610b0c9190810190611284565b8360200181905250846001600160a01b03166395d89b416040518163ffffffff1660e01b815260040160006040518083038186803b158015610b4d57600080fd5b505afa158015610b61573d6000803e3d6000fd5b505050506040513d6000823e601f3d908101601f19168201604052610b899190810190611284565b60408401525b6001600160a01b038416610c4a5780600260ff1681518110610bc157634e487b7160e01b600052603260045260246000fd5b602002602001015115610c4557846001600160a01b03166318160ddd6040518163ffffffff1660e01b815260040160206040518083038186803b158015610c0757600080fd5b505afa158015610c1b573d6000803e3d6000fd5b505050506040513d601f19601f82011682018060405250810190610c3f9190611345565b60608401525b610cc9565b6040516370a0823160e01b81526001600160a01b0385811660048301528616906370a082319060240160206040518083038186803b158015610c8b57600080fd5b505afa158015610c9f573d6000803e3d6000fd5b505050506040513d601f19601f82011682018060405250810190610cc39190611345565b60608401525b80600360ff1681518110610ced57634e487b7160e01b600052603260045260246000fd5b602002602001015115610d7a57846001600160a01b0316638da5cb5b6040518163ffffffff1660e01b815260040160206040518083038186803b158015610d3357600080fd5b505afa158015610d47573d6000803e3d6000fd5b505050506040513d601f19601f82011682018060405250810190610d6b91906111eb565b6001600160a01b031660808401525b505092915050565b610dc78282604051602401610d9892919061146b565b60408051601f198184030181529190526020810180516001600160e01b03166309710a9d60e41b179052610fa4565b5050565b6002546000906001600160a01b0316610e1f5760405162461bcd60e51b815260206004820152601660248201527515195b5c1b185d1948191bd95cdb89dd08195e1a5cdd60521b60448201526064016102bf565b600254610e34906001600160a01b0316610fc5565b9050610e3f8161062c565b90565b6000610e4d83611062565b8015610e5e5750610e5e8383611095565b90505b92915050565b600080546001600160a01b038381166001600160a01b0319831681178455604051919092169283917f8be0079c531659141344cd1fd0a4f28419497f9722a3daafe3b4186f6b6457e09190a35050565b60606000825167ffffffffffffffff811115610ee357634e487b7160e01b600052604160045260246000fd5b604051908082528060200260200182016040528015610f0c578160200160208202803683370190505b509050610f1884611062565b15610e5e5760005b8351811015610f9c57610f5a85858381518110610f4d57634e487b7160e01b600052603260045260246000fd5b6020026020010151611095565b828281518110610f7a57634e487b7160e01b600052603260045260246000fd5b9115156020928302919091019091015280610f948161151d565b915050610f20565b509392505050565b80516a636f6e736f6c652e6c6f67602083016000808483855afa5050505050565b6000604051733d602d80600a3d3981f3363d3d373d3d3d363d7360601b81528260601b60148201526e5af43d82803e903d91602b57fd5bf360881b60288201526037816000f09150506001600160a01b03811661105d5760405162461bcd60e51b8152602060048201526016602482015275115490cc4c4d8dce8818dc99585d194819985a5b195960521b60448201526064016102bf565b919050565b6000611075826301ffc9a760e01b611095565b8015610e61575061108e826001600160e01b0319611095565b1592915050565b604080516001600160e01b0319831660248083019190915282518083039091018152604490910182526020810180516001600160e01b03166301ffc9a760e01b179052905160009190829081906001600160a01b03871690617530906110fc9086906113ee565b6000604051808303818686fa925050503d8060008114611138576040519150601f19603f3d011682016040523d82523d6000602084013e61113d565b606091505b50915091506020815110156111585760009350505050610e61565b818015611174575080806020019051810190611174919061123f565b9695505050505050565b6040518060a0016040528060006001600160a01b0316815260200160608152602001606081526020016000815260200160006001600160a01b031681525090565b8051801515811461105d57600080fd5b6000602082840312156111e0578081fd5b8135610e5e81611564565b6000602082840312156111fc578081fd5b8151610e5e81611564565b60008060408385031215611219578081fd5b823561122481611564565b9150602083013561123481611564565b809150509250929050565b600060208284031215611250578081fd5b610e5e826111bf565b6000806040838503121561126b578182fd5b611274836111bf565b9150602083015161123481611564565b600060208284031215611295578081fd5b815167ffffffffffffffff808211156112ac578283fd5b818401915084601f8301126112bf578283fd5b8151818111156112d1576112d161154e565b604051601f8201601f19908116603f011681019083821181831017156112f9576112f961154e565b81604052828152876020848701011115611311578586fd5b6113228360208301602088016114ed565b979650505050505050565b60006020828403121561133e578081fd5b5035919050565b600060208284031215611356578081fd5b5051919050565b600081518084526113758160208601602086016114ed565b601f01601f19169290920160200192915050565b600060018060a01b03808351168452602083015160a060208601526113b160a086018261135d565b9050604084015185820360408701526113ca828261135d565b91505060608401516060860152816080850151166080860152809250505092915050565b600082516114008184602087016114ed565b9190910192915050565b6000602080830181845280855180835260408601915060408160051b8701019250838701855b8281101561145e57603f1988860301845261144c858351611389565b94509285019290850190600101611430565b5092979650505050505050565b60408152600061147e604083018561135d565b90508260208301529392505050565b6020808252818101527f4f776e61626c653a2063616c6c6572206973206e6f7420746865206f776e6572604082015260600190565b602081526000610e5e6020830184611389565b600082198211156114e8576114e8611538565b500190565b60005b838110156115085781810151838201526020016114f0565b83811115611517576000848401525b50505050565b600060001982141561153157611531611538565b5060010190565b634e487b7160e01b600052601160045260246000fd5b634e487b7160e01b600052604160045260246000fd5b6001600160a01b03811681146108d357600080fdfea2646970667358221220b32b58b5adc26c10ccc9495c9d27e3999f7d3525b816c3ca054644a93d067b9764736f6c63430008040033",
  "devdoc": {
    "kind": "dev",
    "methods": {
      "owner()": {
        "details": "Returns the address of the current owner."
      },
      "renounceOwnership()": {
        "details": "Leaves the contract without owner. It will not be possible to call `onlyOwner` functions anymore. Can only be called by the current owner. NOTE: Renouncing ownership will leave the contract without an owner, thereby removing any functionality that is only available to the owner."
      },
      "transferOwnership(address)": {
        "details": "Transfers ownership of the contract to a new account (`newOwner`). Can only be called by the current owner."
      }
    },
    "version": 1
  },
  "userdoc": {
    "kind": "user",
    "methods": {},
    "version": 1
  },
  "storageLayout": {
    "storage": [
      {
        "astId": 2362,
        "contract": "solidity/contracts/NFTsFactory.sol:NFTsFactory",
        "label": "_owner",
        "offset": 0,
        "slot": "0",
        "type": "t_address"
      },
      {
        "astId": 11023,
        "contract": "solidity/contracts/NFTsFactory.sol:NFTsFactory",
        "label": "implementations",
        "offset": 0,
        "slot": "1",
        "type": "t_array(t_address)dyn_storage"
      },
      {
        "astId": 11025,
        "contract": "solidity/contracts/NFTsFactory.sol:NFTsFactory",
        "label": "template",
        "offset": 0,
        "slot": "2",
        "type": "t_address"
      },
      {
        "astId": 11029,
        "contract": "solidity/contracts/NFTsFactory.sol:NFTsFactory",
        "label": "templates",
        "offset": 0,
        "slot": "3",
        "type": "t_mapping(t_address,t_address)"
      },
      {
        "astId": 11031,
        "contract": "solidity/contracts/NFTsFactory.sol:NFTsFactory",
        "label": "contractProbe",
        "offset": 0,
        "slot": "4",
        "type": "t_address"
      }
    ],
    "types": {
      "t_address": {
        "encoding": "inplace",
        "label": "address",
        "numberOfBytes": "20"
      },
      "t_array(t_address)dyn_storage": {
        "base": "t_address",
        "encoding": "dynamic_array",
        "label": "address[]",
        "numberOfBytes": "32"
      },
      "t_mapping(t_address,t_address)": {
        "encoding": "mapping",
        "key": "t_address",
        "label": "mapping(address => address)",
        "numberOfBytes": "32",
        "value": "t_address"
      }
    }
  }
}